{
	"contracts/SubscriptionRedemption.sol": {
		"SubscriptionRedemption": {
			"abi": [
				{
					"inputs": [
						{
							"internalType": "address",
							"name": "_usdtToken",
							"type": "address"
						},
						{
							"internalType": "address",
							"name": "_token0050t",
							"type": "address"
						},
						{
							"internalType": "address",
							"name": "_priceOracle",
							"type": "address"
						},
						{
							"internalType": "address",
							"name": "_issuer",
							"type": "address"
						}
					],
					"stateMutability": "nonpayable",
					"type": "constructor"
				},
				{
					"anonymous": false,
					"inputs": [
						{
							"indexed": true,
							"internalType": "address",
							"name": "user",
							"type": "address"
						},
						{
							"indexed": false,
							"internalType": "uint256",
							"name": "sharesRedeemed",
							"type": "uint256"
						},
						{
							"indexed": false,
							"internalType": "uint256",
							"name": "usdtAmount",
							"type": "uint256"
						}
					],
					"name": "Redemption",
					"type": "event"
				},
				{
					"anonymous": false,
					"inputs": [
						{
							"indexed": true,
							"internalType": "address",
							"name": "user",
							"type": "address"
						},
						{
							"indexed": false,
							"internalType": "uint256",
							"name": "usdtAmount",
							"type": "uint256"
						},
						{
							"indexed": false,
							"internalType": "uint256",
							"name": "sharesReceived",
							"type": "uint256"
						}
					],
					"name": "Subscription",
					"type": "event"
				},
				{
					"inputs": [],
					"name": "MIN_REDEMPTION_SHARES",
					"outputs": [
						{
							"internalType": "uint256",
							"name": "",
							"type": "uint256"
						}
					],
					"stateMutability": "view",
					"type": "function"
				},
				{
					"inputs": [],
					"name": "MIN_SUBSCRIPTION_USD",
					"outputs": [
						{
							"internalType": "uint256",
							"name": "",
							"type": "uint256"
						}
					],
					"stateMutability": "view",
					"type": "function"
				},
				{
					"inputs": [],
					"name": "getCurrentPriceInfo",
					"outputs": [
						{
							"internalType": "uint256",
							"name": "price0050Cents",
							"type": "uint256"
						},
						{
							"internalType": "string",
							"name": "priceDisplay",
							"type": "string"
						}
					],
					"stateMutability": "view",
					"type": "function"
				},
				{
					"inputs": [],
					"name": "getIssuerBalances",
					"outputs": [
						{
							"internalType": "uint256",
							"name": "usdtBalance",
							"type": "uint256"
						},
						{
							"internalType": "uint256",
							"name": "shares0050t",
							"type": "uint256"
						}
					],
					"stateMutability": "view",
					"type": "function"
				},
				{
					"inputs": [
						{
							"internalType": "address",
							"name": "user",
							"type": "address"
						}
					],
					"name": "getUserBalances",
					"outputs": [
						{
							"internalType": "uint256",
							"name": "usdtBalance",
							"type": "uint256"
						},
						{
							"internalType": "uint256",
							"name": "shares0050t",
							"type": "uint256"
						}
					],
					"stateMutability": "view",
					"type": "function"
				},
				{
					"inputs": [],
					"name": "issuer",
					"outputs": [
						{
							"internalType": "address",
							"name": "",
							"type": "address"
						}
					],
					"stateMutability": "view",
					"type": "function"
				},
				{
					"inputs": [
						{
							"internalType": "uint256",
							"name": "shares",
							"type": "uint256"
						}
					],
					"name": "previewRedemption",
					"outputs": [
						{
							"internalType": "uint256",
							"name": "usdtToReceive",
							"type": "uint256"
						},
						{
							"internalType": "uint256",
							"name": "price0050Cents",
							"type": "uint256"
						}
					],
					"stateMutability": "view",
					"type": "function"
				},
				{
					"inputs": [
						{
							"internalType": "uint256",
							"name": "usdtAmountCents",
							"type": "uint256"
						}
					],
					"name": "previewSubscription",
					"outputs": [
						{
							"internalType": "uint256",
							"name": "sharesToReceive",
							"type": "uint256"
						},
						{
							"internalType": "uint256",
							"name": "actualUsdtNeeded",
							"type": "uint256"
						},
						{
							"internalType": "uint256",
							"name": "price0050Cents",
							"type": "uint256"
						}
					],
					"stateMutability": "view",
					"type": "function"
				},
				{
					"inputs": [],
					"name": "priceOracle",
					"outputs": [
						{
							"internalType": "contract IPriceOracle",
							"name": "",
							"type": "address"
						}
					],
					"stateMutability": "view",
					"type": "function"
				},
				{
					"inputs": [
						{
							"internalType": "uint256",
							"name": "sharesToRedeem",
							"type": "uint256"
						}
					],
					"name": "redeem",
					"outputs": [],
					"stateMutability": "nonpayable",
					"type": "function"
				},
				{
					"inputs": [
						{
							"internalType": "uint256",
							"name": "usdtAmountCents",
							"type": "uint256"
						}
					],
					"name": "subscribe",
					"outputs": [],
					"stateMutability": "nonpayable",
					"type": "function"
				},
				{
					"inputs": [],
					"name": "token0050t",
					"outputs": [
						{
							"internalType": "contract IERC20",
							"name": "",
							"type": "address"
						}
					],
					"stateMutability": "view",
					"type": "function"
				},
				{
					"inputs": [],
					"name": "usdtToken",
					"outputs": [
						{
							"internalType": "contract IERC20",
							"name": "",
							"type": "address"
						}
					],
					"stateMutability": "view",
					"type": "function"
				}
			],
			"devdoc": {
				"kind": "dev",
				"methods": {},
				"version": 1
			},
			"evm": {
				"assembly": "    /* \"contracts/SubscriptionRedemption.sol\":529:6265  contract SubscriptionRedemption {... */\n  mstore(0x40, 0x80)\n    /* \"contracts/SubscriptionRedemption.sol\":1109:1414  constructor(... */\n  callvalue\n  dup1\n  iszero\n  tag_1\n  jumpi\n  0x00\n  dup1\n  revert\ntag_1:\n  pop\n  mload(0x40)\n  sub(codesize, bytecodeSize)\n  dup1\n  bytecodeSize\n  dup4\n  codecopy\n  dup2\n  dup2\n  add\n  0x40\n  mstore\n  dup2\n  add\n  swap1\n  tag_2\n  swap2\n  swap1\n  tag_3\n  jump\t// in\ntag_2:\n    /* \"contracts/SubscriptionRedemption.sol\":1274:1284  _usdtToken */\n  dup4\n    /* \"contracts/SubscriptionRedemption.sol\":1255:1264  usdtToken */\n  0x00\n  dup1\n    /* \"contracts/SubscriptionRedemption.sol\":1255:1285  usdtToken = IERC20(_usdtToken) */\n  0x0100\n  exp\n  dup2\n  sload\n  dup2\n  0xffffffffffffffffffffffffffffffffffffffff\n  mul\n  not\n  and\n  swap1\n  dup4\n  0xffffffffffffffffffffffffffffffffffffffff\n  and\n  mul\n  or\n  swap1\n  sstore\n  pop\n    /* \"contracts/SubscriptionRedemption.sol\":1316:1327  _token0050t */\n  dup3\n    /* \"contracts/SubscriptionRedemption.sol\":1296:1306  token0050t */\n  0x01\n  0x00\n    /* \"contracts/SubscriptionRedemption.sol\":1296:1328  token0050t = IERC20(_token0050t) */\n  0x0100\n  exp\n  dup2\n  sload\n  dup2\n  0xffffffffffffffffffffffffffffffffffffffff\n  mul\n  not\n  and\n  swap1\n  dup4\n  0xffffffffffffffffffffffffffffffffffffffff\n  and\n  mul\n  or\n  swap1\n  sstore\n  pop\n    /* \"contracts/SubscriptionRedemption.sol\":1366:1378  _priceOracle */\n  dup2\n    /* \"contracts/SubscriptionRedemption.sol\":1339:1350  priceOracle */\n  0x02\n  0x00\n    /* \"contracts/SubscriptionRedemption.sol\":1339:1379  priceOracle = IPriceOracle(_priceOracle) */\n  0x0100\n  exp\n  dup2\n  sload\n  dup2\n  0xffffffffffffffffffffffffffffffffffffffff\n  mul\n  not\n  and\n  swap1\n  dup4\n  0xffffffffffffffffffffffffffffffffffffffff\n  and\n  mul\n  or\n  swap1\n  sstore\n  pop\n    /* \"contracts/SubscriptionRedemption.sol\":1399:1406  _issuer */\n  dup1\n    /* \"contracts/SubscriptionRedemption.sol\":1390:1396  issuer */\n  0x03\n  0x00\n    /* \"contracts/SubscriptionRedemption.sol\":1390:1406  issuer = _issuer */\n  0x0100\n  exp\n  dup2\n  sload\n  dup2\n  0xffffffffffffffffffffffffffffffffffffffff\n  mul\n  not\n  and\n  swap1\n  dup4\n  0xffffffffffffffffffffffffffffffffffffffff\n  and\n  mul\n  or\n  swap1\n  sstore\n  pop\n    /* \"contracts/SubscriptionRedemption.sol\":1109:1414  constructor(... */\n  pop\n  pop\n  pop\n  pop\n    /* \"contracts/SubscriptionRedemption.sol\":529:6265  contract SubscriptionRedemption {... */\n  jump(tag_6)\n    /* \"#utility.yul\":88:205   */\ntag_8:\n    /* \"#utility.yul\":197:198   */\n  0x00\n    /* \"#utility.yul\":194:195   */\n  dup1\n    /* \"#utility.yul\":187:199   */\n  revert\n    /* \"#utility.yul\":334:460   */\ntag_10:\n    /* \"#utility.yul\":371:378   */\n  0x00\n    /* \"#utility.yul\":411:453   */\n  0xffffffffffffffffffffffffffffffffffffffff\n    /* \"#utility.yul\":404:409   */\n  dup3\n    /* \"#utility.yul\":400:454   */\n  and\n    /* \"#utility.yul\":389:454   */\n  swap1\n  pop\n    /* \"#utility.yul\":334:460   */\n  swap2\n  swap1\n  pop\n  jump\t// out\n    /* \"#utility.yul\":466:562   */\ntag_11:\n    /* \"#utility.yul\":503:510   */\n  0x00\n    /* \"#utility.yul\":532:556   */\n  tag_20\n    /* \"#utility.yul\":550:555   */\n  dup3\n    /* \"#utility.yul\":532:556   */\n  tag_10\n  jump\t// in\ntag_20:\n    /* \"#utility.yul\":521:556   */\n  swap1\n  pop\n    /* \"#utility.yul\":466:562   */\n  swap2\n  swap1\n  pop\n  jump\t// out\n    /* \"#utility.yul\":568:690   */\ntag_12:\n    /* \"#utility.yul\":641:665   */\n  tag_22\n    /* \"#utility.yul\":659:664   */\n  dup2\n    /* \"#utility.yul\":641:665   */\n  tag_11\n  jump\t// in\ntag_22:\n    /* \"#utility.yul\":634:639   */\n  dup2\n    /* \"#utility.yul\":631:666   */\n  eq\n    /* \"#utility.yul\":621:684   */\n  tag_23\n  jumpi\n    /* \"#utility.yul\":680:681   */\n  0x00\n    /* \"#utility.yul\":677:678   */\n  dup1\n    /* \"#utility.yul\":670:682   */\n  revert\n    /* \"#utility.yul\":621:684   */\ntag_23:\n    /* \"#utility.yul\":568:690   */\n  pop\n  jump\t// out\n    /* \"#utility.yul\":696:839   */\ntag_13:\n    /* \"#utility.yul\":753:758   */\n  0x00\n    /* \"#utility.yul\":784:790   */\n  dup2\n    /* \"#utility.yul\":778:791   */\n  mload\n    /* \"#utility.yul\":769:791   */\n  swap1\n  pop\n    /* \"#utility.yul\":800:833   */\n  tag_25\n    /* \"#utility.yul\":827:832   */\n  dup2\n    /* \"#utility.yul\":800:833   */\n  tag_12\n  jump\t// in\ntag_25:\n    /* \"#utility.yul\":696:839   */\n  swap3\n  swap2\n  pop\n  pop\n  jump\t// out\n    /* \"#utility.yul\":845:1665   */\ntag_3:\n    /* \"#utility.yul\":942:948   */\n  0x00\n    /* \"#utility.yul\":950:956   */\n  dup1\n    /* \"#utility.yul\":958:964   */\n  0x00\n    /* \"#utility.yul\":966:972   */\n  dup1\n    /* \"#utility.yul\":1015:1018   */\n  0x80\n    /* \"#utility.yul\":1003:1012   */\n  dup6\n    /* \"#utility.yul\":994:1001   */\n  dup8\n    /* \"#utility.yul\":990:1013   */\n  sub\n    /* \"#utility.yul\":986:1019   */\n  slt\n    /* \"#utility.yul\":983:1103   */\n  iszero\n  tag_27\n  jumpi\n    /* \"#utility.yul\":1022:1101   */\n  tag_28\n  tag_8\n  jump\t// in\ntag_28:\n    /* \"#utility.yul\":983:1103   */\ntag_27:\n    /* \"#utility.yul\":1142:1143   */\n  0x00\n    /* \"#utility.yul\":1167:1231   */\n  tag_29\n    /* \"#utility.yul\":1223:1230   */\n  dup8\n    /* \"#utility.yul\":1214:1220   */\n  dup3\n    /* \"#utility.yul\":1203:1212   */\n  dup9\n    /* \"#utility.yul\":1199:1221   */\n  add\n    /* \"#utility.yul\":1167:1231   */\n  tag_13\n  jump\t// in\ntag_29:\n    /* \"#utility.yul\":1157:1231   */\n  swap5\n  pop\n    /* \"#utility.yul\":1113:1241   */\n  pop\n    /* \"#utility.yul\":1280:1282   */\n  0x20\n    /* \"#utility.yul\":1306:1370   */\n  tag_30\n    /* \"#utility.yul\":1362:1369   */\n  dup8\n    /* \"#utility.yul\":1353:1359   */\n  dup3\n    /* \"#utility.yul\":1342:1351   */\n  dup9\n    /* \"#utility.yul\":1338:1360   */\n  add\n    /* \"#utility.yul\":1306:1370   */\n  tag_13\n  jump\t// in\ntag_30:\n    /* \"#utility.yul\":1296:1370   */\n  swap4\n  pop\n    /* \"#utility.yul\":1251:1380   */\n  pop\n    /* \"#utility.yul\":1419:1421   */\n  0x40\n    /* \"#utility.yul\":1445:1509   */\n  tag_31\n    /* \"#utility.yul\":1501:1508   */\n  dup8\n    /* \"#utility.yul\":1492:1498   */\n  dup3\n    /* \"#utility.yul\":1481:1490   */\n  dup9\n    /* \"#utility.yul\":1477:1499   */\n  add\n    /* \"#utility.yul\":1445:1509   */\n  tag_13\n  jump\t// in\ntag_31:\n    /* \"#utility.yul\":1435:1509   */\n  swap3\n  pop\n    /* \"#utility.yul\":1390:1519   */\n  pop\n    /* \"#utility.yul\":1558:1560   */\n  0x60\n    /* \"#utility.yul\":1584:1648   */\n  tag_32\n    /* \"#utility.yul\":1640:1647   */\n  dup8\n    /* \"#utility.yul\":1631:1637   */\n  dup3\n    /* \"#utility.yul\":1620:1629   */\n  dup9\n    /* \"#utility.yul\":1616:1638   */\n  add\n    /* \"#utility.yul\":1584:1648   */\n  tag_13\n  jump\t// in\ntag_32:\n    /* \"#utility.yul\":1574:1648   */\n  swap2\n  pop\n    /* \"#utility.yul\":1529:1658   */\n  pop\n    /* \"#utility.yul\":845:1665   */\n  swap3\n  swap6\n  swap2\n  swap5\n  pop\n  swap3\n  pop\n  jump\t// out\n    /* \"contracts/SubscriptionRedemption.sol\":529:6265  contract SubscriptionRedemption {... */\ntag_6:\n  dataSize(sub_0)\n  dup1\n  dataOffset(sub_0)\n  0x00\n  codecopy\n  0x00\n  return\nstop\n\nsub_0: assembly {\n        /* \"contracts/SubscriptionRedemption.sol\":529:6265  contract SubscriptionRedemption {... */\n      mstore(0x40, 0x80)\n      callvalue\n      dup1\n      iszero\n      tag_1\n      jumpi\n      0x00\n      dup1\n      revert\n    tag_1:\n      pop\n      jumpi(tag_2, lt(calldatasize, 0x04))\n      shr(0xe0, calldataload(0x00))\n      dup1\n      0x8e362209\n      gt\n      tag_16\n      jumpi\n      dup1\n      0xabd3f612\n      gt\n      tag_17\n      jumpi\n      dup1\n      0xabd3f612\n      eq\n      tag_12\n      jumpi\n      dup1\n      0xdb006a75\n      eq\n      tag_13\n      jumpi\n      dup1\n      0xe8e8090f\n      eq\n      tag_14\n      jumpi\n      dup1\n      0xfad1e412\n      eq\n      tag_15\n      jumpi\n      jump(tag_2)\n    tag_17:\n      dup1\n      0x8e362209\n      eq\n      tag_9\n      jumpi\n      dup1\n      0x9b06d174\n      eq\n      tag_10\n      jumpi\n      dup1\n      0xa98ad46c\n      eq\n      tag_11\n      jumpi\n      jump(tag_2)\n    tag_16:\n      dup1\n      0x0f574ba7\n      eq\n      tag_3\n      jumpi\n      dup1\n      0x1d143848\n      eq\n      tag_4\n      jumpi\n      dup1\n      0x1e095c6a\n      eq\n      tag_5\n      jumpi\n      dup1\n      0x2630c12f\n      eq\n      tag_6\n      jumpi\n      dup1\n      0x2bdd4478\n      eq\n      tag_7\n      jumpi\n      dup1\n      0x5f9cf243\n      eq\n      tag_8\n      jumpi\n    tag_2:\n      0x00\n      dup1\n      revert\n        /* \"contracts/SubscriptionRedemption.sol\":1462:2572  function subscribe(uint256 usdtAmountCents) external {... */\n    tag_3:\n      tag_18\n      0x04\n      dup1\n      calldatasize\n      sub\n      dup2\n      add\n      swap1\n      tag_19\n      swap2\n      swap1\n      tag_20\n      jump\t// in\n    tag_19:\n      tag_21\n      jump\t// in\n    tag_18:\n      stop\n        /* \"contracts/SubscriptionRedemption.sol\":667:688  address public issuer */\n    tag_4:\n      tag_22\n      tag_23\n      jump\t// in\n    tag_22:\n      mload(0x40)\n      tag_24\n      swap2\n      swap1\n      tag_25\n      jump\t// in\n    tag_24:\n      mload(0x40)\n      dup1\n      swap2\n      sub\n      swap1\n      return\n        /* \"contracts/SubscriptionRedemption.sol\":5048:5676  function getCurrentPriceInfo() external view returns (... */\n    tag_5:\n      tag_26\n      tag_27\n      jump\t// in\n    tag_26:\n      mload(0x40)\n      tag_28\n      swap3\n      swap2\n      swap1\n      tag_29\n      jump\t// in\n    tag_28:\n      mload(0x40)\n      dup1\n      swap2\n      sub\n      swap1\n      return\n        /* \"contracts/SubscriptionRedemption.sol\":629:660  IPriceOracle public priceOracle */\n    tag_6:\n      tag_30\n      tag_31\n      jump\t// in\n    tag_30:\n      mload(0x40)\n      tag_32\n      swap2\n      swap1\n      tag_33\n      jump\t// in\n    tag_32:\n      mload(0x40)\n      dup1\n      swap2\n      sub\n      swap1\n      return\n        /* \"contracts/SubscriptionRedemption.sol\":853:902  uint256 public constant MIN_REDEMPTION_SHARES = 1 */\n    tag_7:\n      tag_34\n      tag_35\n      jump\t// in\n    tag_34:\n      mload(0x40)\n      tag_36\n      swap2\n      swap1\n      tag_37\n      jump\t// in\n    tag_36:\n      mload(0x40)\n      dup1\n      swap2\n      sub\n      swap1\n      return\n        /* \"contracts/SubscriptionRedemption.sol\":775:825  uint256 public constant MIN_SUBSCRIPTION_USD = 100 */\n    tag_8:\n      tag_38\n      tag_39\n      jump\t// in\n    tag_38:\n      mload(0x40)\n      tag_40\n      swap2\n      swap1\n      tag_37\n      jump\t// in\n    tag_40:\n      mload(0x40)\n      dup1\n      swap2\n      sub\n      swap1\n      return\n        /* \"contracts/SubscriptionRedemption.sol\":598:622  IERC20 public token0050t */\n    tag_9:\n      tag_41\n      tag_42\n      jump\t// in\n    tag_41:\n      mload(0x40)\n      tag_43\n      swap2\n      swap1\n      tag_44\n      jump\t// in\n    tag_43:\n      mload(0x40)\n      dup1\n      swap2\n      sub\n      swap1\n      return\n        /* \"contracts/SubscriptionRedemption.sol\":4120:4434  function previewRedemption(uint256 shares) external view returns (... */\n    tag_10:\n      tag_45\n      0x04\n      dup1\n      calldatasize\n      sub\n      dup2\n      add\n      swap1\n      tag_46\n      swap2\n      swap1\n      tag_20\n      jump\t// in\n    tag_46:\n      tag_47\n      jump\t// in\n    tag_45:\n      mload(0x40)\n      tag_48\n      swap3\n      swap2\n      swap1\n      tag_49\n      jump\t// in\n    tag_48:\n      mload(0x40)\n      dup1\n      swap2\n      sub\n      swap1\n      return\n        /* \"contracts/SubscriptionRedemption.sol\":568:591  IERC20 public usdtToken */\n    tag_11:\n      tag_50\n      tag_51\n      jump\t// in\n    tag_50:\n      mload(0x40)\n      tag_52\n      swap2\n      swap1\n      tag_44\n      jump\t// in\n    tag_52:\n      mload(0x40)\n      dup1\n      swap2\n      sub\n      swap1\n      return\n        /* \"contracts/SubscriptionRedemption.sol\":4473:4720  function getUserBalances(address user) external view returns (... */\n    tag_12:\n      tag_53\n      0x04\n      dup1\n      calldatasize\n      sub\n      dup2\n      add\n      swap1\n      tag_54\n      swap2\n      swap1\n      tag_55\n      jump\t// in\n    tag_54:\n      tag_56\n      jump\t// in\n    tag_53:\n      mload(0x40)\n      tag_57\n      swap3\n      swap2\n      swap1\n      tag_49\n      jump\t// in\n    tag_57:\n      mload(0x40)\n      dup1\n      swap2\n      sub\n      swap1\n      return\n        /* \"contracts/SubscriptionRedemption.sol\":2623:3518  function redeem(uint256 sharesToRedeem) external {... */\n    tag_13:\n      tag_58\n      0x04\n      dup1\n      calldatasize\n      sub\n      dup2\n      add\n      swap1\n      tag_59\n      swap2\n      swap1\n      tag_20\n      jump\t// in\n    tag_59:\n      tag_60\n      jump\t// in\n    tag_58:\n      stop\n        /* \"contracts/SubscriptionRedemption.sol\":3603:4041  function previewSubscription(uint256 usdtAmountCents) external view returns (... */\n    tag_14:\n      tag_61\n      0x04\n      dup1\n      calldatasize\n      sub\n      dup2\n      add\n      swap1\n      tag_62\n      swap2\n      swap1\n      tag_20\n      jump\t// in\n    tag_62:\n      tag_63\n      jump\t// in\n    tag_61:\n      mload(0x40)\n      tag_64\n      swap4\n      swap3\n      swap2\n      swap1\n      tag_65\n      jump\t// in\n    tag_64:\n      mload(0x40)\n      dup1\n      swap2\n      sub\n      swap1\n      return\n        /* \"contracts/SubscriptionRedemption.sol\":4762:5003  function getIssuerBalances() external view returns (... */\n    tag_15:\n      tag_66\n      tag_67\n      jump\t// in\n    tag_66:\n      mload(0x40)\n      tag_68\n      swap3\n      swap2\n      swap1\n      tag_49\n      jump\t// in\n    tag_68:\n      mload(0x40)\n      dup1\n      swap2\n      sub\n      swap1\n      return\n        /* \"contracts/SubscriptionRedemption.sol\":1462:2572  function subscribe(uint256 usdtAmountCents) external {... */\n    tag_21:\n        /* \"contracts/SubscriptionRedemption.sol\":822:825  100 */\n      0x64\n        /* \"contracts/SubscriptionRedemption.sol\":1534:1549  usdtAmountCents */\n      dup2\n        /* \"contracts/SubscriptionRedemption.sol\":1534:1573  usdtAmountCents >= MIN_SUBSCRIPTION_USD */\n      lt\n      iszero\n        /* \"contracts/SubscriptionRedemption.sol\":1526:1594  require(usdtAmountCents >= MIN_SUBSCRIPTION_USD, \"Amount too small\") */\n      tag_70\n      jumpi\n      mload(0x40)\n      0x08c379a000000000000000000000000000000000000000000000000000000000\n      dup2\n      mstore\n      0x04\n      add\n      tag_71\n      swap1\n      tag_72\n      jump\t// in\n    tag_71:\n      mload(0x40)\n      dup1\n      swap2\n      sub\n      swap1\n      revert\n    tag_70:\n        /* \"contracts/SubscriptionRedemption.sol\":1664:1686  uint256 price0050Cents */\n      0x00\n        /* \"contracts/SubscriptionRedemption.sol\":1689:1700  priceOracle */\n      0x02\n      0x00\n      swap1\n      sload\n      swap1\n      0x0100\n      exp\n      swap1\n      div\n      0xffffffffffffffffffffffffffffffffffffffff\n      and\n        /* \"contracts/SubscriptionRedemption.sol\":1689:1718  priceOracle.getLatestPriceUSD */\n      0xffffffffffffffffffffffffffffffffffffffff\n      and\n      0xec2b70a4\n        /* \"contracts/SubscriptionRedemption.sol\":1689:1720  priceOracle.getLatestPriceUSD() */\n      mload(0x40)\n      dup2\n      0xffffffff\n      and\n      0xe0\n      shl\n      dup2\n      mstore\n      0x04\n      add\n      0x20\n      mload(0x40)\n      dup1\n      dup4\n      sub\n      dup2\n      dup7\n      gas\n      staticcall\n      iszero\n      dup1\n      iszero\n      tag_74\n      jumpi\n      returndatasize\n      0x00\n      dup1\n      returndatacopy\n      revert(0x00, returndatasize)\n    tag_74:\n      pop\n      pop\n      pop\n      pop\n      mload(0x40)\n      returndatasize\n      not(0x1f)\n      0x1f\n      dup3\n      add\n      and\n      dup3\n      add\n      dup1\n      0x40\n      mstore\n      pop\n      dup2\n      add\n      swap1\n      tag_75\n      swap2\n      swap1\n      tag_76\n      jump\t// in\n    tag_75:\n        /* \"contracts/SubscriptionRedemption.sol\":1664:1720  uint256 price0050Cents = priceOracle.getLatestPriceUSD() */\n      swap1\n      pop\n        /* \"contracts/SubscriptionRedemption.sol\":1756:1757  0 */\n      0x00\n        /* \"contracts/SubscriptionRedemption.sol\":1739:1753  price0050Cents */\n      dup2\n        /* \"contracts/SubscriptionRedemption.sol\":1739:1757  price0050Cents > 0 */\n      gt\n        /* \"contracts/SubscriptionRedemption.sol\":1731:1775  require(price0050Cents > 0, \"Invalid price\") */\n      tag_77\n      jumpi\n      mload(0x40)\n      0x08c379a000000000000000000000000000000000000000000000000000000000\n      dup2\n      mstore\n      0x04\n      add\n      tag_78\n      swap1\n      tag_79\n      jump\t// in\n    tag_78:\n      mload(0x40)\n      dup1\n      swap2\n      sub\n      swap1\n      revert\n    tag_77:\n        /* \"contracts/SubscriptionRedemption.sol\":1851:1870  uint256 sharesToBuy */\n      0x00\n        /* \"contracts/SubscriptionRedemption.sol\":1891:1905  price0050Cents */\n      dup2\n        /* \"contracts/SubscriptionRedemption.sol\":1873:1888  usdtAmountCents */\n      dup4\n        /* \"contracts/SubscriptionRedemption.sol\":1873:1905  usdtAmountCents / price0050Cents */\n      tag_80\n      swap2\n      swap1\n      tag_81\n      jump\t// in\n    tag_80:\n        /* \"contracts/SubscriptionRedemption.sol\":1851:1905  uint256 sharesToBuy = usdtAmountCents / price0050Cents */\n      swap1\n      pop\n        /* \"contracts/SubscriptionRedemption.sol\":1938:1939  0 */\n      0x00\n        /* \"contracts/SubscriptionRedemption.sol\":1924:1935  sharesToBuy */\n      dup2\n        /* \"contracts/SubscriptionRedemption.sol\":1924:1939  sharesToBuy > 0 */\n      gt\n        /* \"contracts/SubscriptionRedemption.sol\":1916:1975  require(sharesToBuy > 0, \"Insufficient amount for 1 share\") */\n      tag_82\n      jumpi\n      mload(0x40)\n      0x08c379a000000000000000000000000000000000000000000000000000000000\n      dup2\n      mstore\n      0x04\n      add\n      tag_83\n      swap1\n      tag_84\n      jump\t// in\n    tag_83:\n      mload(0x40)\n      dup1\n      swap2\n      sub\n      swap1\n      revert\n    tag_82:\n        /* \"contracts/SubscriptionRedemption.sol\":2043:2067  uint256 actualUsdtNeeded */\n      0x00\n        /* \"contracts/SubscriptionRedemption.sol\":2084:2098  price0050Cents */\n      dup3\n        /* \"contracts/SubscriptionRedemption.sol\":2070:2081  sharesToBuy */\n      dup3\n        /* \"contracts/SubscriptionRedemption.sol\":2070:2098  sharesToBuy * price0050Cents */\n      tag_85\n      swap2\n      swap1\n      tag_86\n      jump\t// in\n    tag_85:\n        /* \"contracts/SubscriptionRedemption.sol\":2043:2098  uint256 actualUsdtNeeded = sharesToBuy * price0050Cents */\n      swap1\n      pop\n        /* \"contracts/SubscriptionRedemption.sol\":2185:2194  usdtToken */\n      0x00\n      dup1\n      sload\n      swap1\n      0x0100\n      exp\n      swap1\n      div\n      0xffffffffffffffffffffffffffffffffffffffff\n      and\n        /* \"contracts/SubscriptionRedemption.sol\":2185:2207  usdtToken.transferFrom */\n      0xffffffffffffffffffffffffffffffffffffffff\n      and\n      0x23b872dd\n        /* \"contracts/SubscriptionRedemption.sol\":2208:2218  msg.sender */\n      caller\n        /* \"contracts/SubscriptionRedemption.sol\":2220:2226  issuer */\n      0x03\n      0x00\n      swap1\n      sload\n      swap1\n      0x0100\n      exp\n      swap1\n      div\n      0xffffffffffffffffffffffffffffffffffffffff\n      and\n        /* \"contracts/SubscriptionRedemption.sol\":2228:2244  actualUsdtNeeded */\n      dup5\n        /* \"contracts/SubscriptionRedemption.sol\":2185:2245  usdtToken.transferFrom(msg.sender, issuer, actualUsdtNeeded) */\n      mload(0x40)\n      dup5\n      0xffffffff\n      and\n      0xe0\n      shl\n      dup2\n      mstore\n      0x04\n      add\n      tag_87\n      swap4\n      swap3\n      swap2\n      swap1\n      tag_88\n      jump\t// in\n    tag_87:\n      0x20\n      mload(0x40)\n      dup1\n      dup4\n      sub\n      dup2\n      0x00\n      dup8\n      gas\n      call\n      iszero\n      dup1\n      iszero\n      tag_90\n      jumpi\n      returndatasize\n      0x00\n      dup1\n      returndatacopy\n      revert(0x00, returndatasize)\n    tag_90:\n      pop\n      pop\n      pop\n      pop\n      mload(0x40)\n      returndatasize\n      not(0x1f)\n      0x1f\n      dup3\n      add\n      and\n      dup3\n      add\n      dup1\n      0x40\n      mstore\n      pop\n      dup2\n      add\n      swap1\n      tag_91\n      swap2\n      swap1\n      tag_92\n      jump\t// in\n    tag_91:\n        /* \"contracts/SubscriptionRedemption.sol\":2163:2293  require(... */\n      tag_93\n      jumpi\n      mload(0x40)\n      0x08c379a000000000000000000000000000000000000000000000000000000000\n      dup2\n      mstore\n      0x04\n      add\n      tag_94\n      swap1\n      tag_95\n      jump\t// in\n    tag_94:\n      mload(0x40)\n      dup1\n      swap2\n      sub\n      swap1\n      revert\n    tag_93:\n        /* \"contracts/SubscriptionRedemption.sol\":2378:2388  token0050t */\n      0x01\n      0x00\n      swap1\n      sload\n      swap1\n      0x0100\n      exp\n      swap1\n      div\n      0xffffffffffffffffffffffffffffffffffffffff\n      and\n        /* \"contracts/SubscriptionRedemption.sol\":2378:2401  token0050t.transferFrom */\n      0xffffffffffffffffffffffffffffffffffffffff\n      and\n      0x23b872dd\n        /* \"contracts/SubscriptionRedemption.sol\":2402:2408  issuer */\n      0x03\n      0x00\n      swap1\n      sload\n      swap1\n      0x0100\n      exp\n      swap1\n      div\n      0xffffffffffffffffffffffffffffffffffffffff\n      and\n        /* \"contracts/SubscriptionRedemption.sol\":2410:2420  msg.sender */\n      caller\n        /* \"contracts/SubscriptionRedemption.sol\":2422:2433  sharesToBuy */\n      dup6\n        /* \"contracts/SubscriptionRedemption.sol\":2378:2434  token0050t.transferFrom(issuer, msg.sender, sharesToBuy) */\n      mload(0x40)\n      dup5\n      0xffffffff\n      and\n      0xe0\n      shl\n      dup2\n      mstore\n      0x04\n      add\n      tag_96\n      swap4\n      swap3\n      swap2\n      swap1\n      tag_88\n      jump\t// in\n    tag_96:\n      0x20\n      mload(0x40)\n      dup1\n      dup4\n      sub\n      dup2\n      0x00\n      dup8\n      gas\n      call\n      iszero\n      dup1\n      iszero\n      tag_98\n      jumpi\n      returndatasize\n      0x00\n      dup1\n      returndatacopy\n      revert(0x00, returndatasize)\n    tag_98:\n      pop\n      pop\n      pop\n      pop\n      mload(0x40)\n      returndatasize\n      not(0x1f)\n      0x1f\n      dup3\n      add\n      and\n      dup3\n      add\n      dup1\n      0x40\n      mstore\n      pop\n      dup2\n      add\n      swap1\n      tag_99\n      swap2\n      swap1\n      tag_92\n      jump\t// in\n    tag_99:\n        /* \"contracts/SubscriptionRedemption.sol\":2356:2483  require(... */\n      tag_100\n      jumpi\n      mload(0x40)\n      0x08c379a000000000000000000000000000000000000000000000000000000000\n      dup2\n      mstore\n      0x04\n      add\n      tag_101\n      swap1\n      tag_102\n      jump\t// in\n    tag_101:\n      mload(0x40)\n      dup1\n      swap2\n      sub\n      swap1\n      revert\n    tag_100:\n        /* \"contracts/SubscriptionRedemption.sol\":2522:2532  msg.sender */\n      caller\n        /* \"contracts/SubscriptionRedemption.sol\":2509:2564  Subscription(msg.sender, actualUsdtNeeded, sharesToBuy) */\n      0xffffffffffffffffffffffffffffffffffffffff\n      and\n      0x8eb8bcc7421f99b92ab7d727e056544fb59514f8f56251e69658c21ece8977fa\n        /* \"contracts/SubscriptionRedemption.sol\":2534:2550  actualUsdtNeeded */\n      dup3\n        /* \"contracts/SubscriptionRedemption.sol\":2552:2563  sharesToBuy */\n      dup5\n        /* \"contracts/SubscriptionRedemption.sol\":2509:2564  Subscription(msg.sender, actualUsdtNeeded, sharesToBuy) */\n      mload(0x40)\n      tag_103\n      swap3\n      swap2\n      swap1\n      tag_49\n      jump\t// in\n    tag_103:\n      mload(0x40)\n      dup1\n      swap2\n      sub\n      swap1\n      log2\n        /* \"contracts/SubscriptionRedemption.sol\":1515:2572  {... */\n      pop\n      pop\n      pop\n        /* \"contracts/SubscriptionRedemption.sol\":1462:2572  function subscribe(uint256 usdtAmountCents) external {... */\n      pop\n      jump\t// out\n        /* \"contracts/SubscriptionRedemption.sol\":667:688  address public issuer */\n    tag_23:\n      0x03\n      0x00\n      swap1\n      sload\n      swap1\n      0x0100\n      exp\n      swap1\n      div\n      0xffffffffffffffffffffffffffffffffffffffff\n      and\n      dup2\n      jump\t// out\n        /* \"contracts/SubscriptionRedemption.sol\":5048:5676  function getCurrentPriceInfo() external view returns (... */\n    tag_27:\n        /* \"contracts/SubscriptionRedemption.sol\":5112:5134  uint256 price0050Cents */\n      0x00\n        /* \"contracts/SubscriptionRedemption.sol\":5145:5171  string memory priceDisplay */\n      0x60\n        /* \"contracts/SubscriptionRedemption.sol\":5207:5218  priceOracle */\n      0x02\n      0x00\n      swap1\n      sload\n      swap1\n      0x0100\n      exp\n      swap1\n      div\n      0xffffffffffffffffffffffffffffffffffffffff\n      and\n        /* \"contracts/SubscriptionRedemption.sol\":5207:5236  priceOracle.getLatestPriceUSD */\n      0xffffffffffffffffffffffffffffffffffffffff\n      and\n      0xec2b70a4\n        /* \"contracts/SubscriptionRedemption.sol\":5207:5238  priceOracle.getLatestPriceUSD() */\n      mload(0x40)\n      dup2\n      0xffffffff\n      and\n      0xe0\n      shl\n      dup2\n      mstore\n      0x04\n      add\n      0x20\n      mload(0x40)\n      dup1\n      dup4\n      sub\n      dup2\n      dup7\n      gas\n      staticcall\n      iszero\n      dup1\n      iszero\n      tag_106\n      jumpi\n      returndatasize\n      0x00\n      dup1\n      returndatacopy\n      revert(0x00, returndatasize)\n    tag_106:\n      pop\n      pop\n      pop\n      pop\n      mload(0x40)\n      returndatasize\n      not(0x1f)\n      0x1f\n      dup3\n      add\n      and\n      dup3\n      add\n      dup1\n      0x40\n      mstore\n      pop\n      dup2\n      add\n      swap1\n      tag_107\n      swap2\n      swap1\n      tag_76\n      jump\t// in\n    tag_107:\n        /* \"contracts/SubscriptionRedemption.sol\":5190:5238  price0050Cents = priceOracle.getLatestPriceUSD() */\n      swap2\n      pop\n        /* \"contracts/SubscriptionRedemption.sol\":5312:5327  uint256 dollars */\n      0x00\n        /* \"contracts/SubscriptionRedemption.sol\":5347:5350  100 */\n      0x64\n        /* \"contracts/SubscriptionRedemption.sol\":5330:5344  price0050Cents */\n      dup4\n        /* \"contracts/SubscriptionRedemption.sol\":5330:5350  price0050Cents / 100 */\n      tag_108\n      swap2\n      swap1\n      tag_81\n      jump\t// in\n    tag_108:\n        /* \"contracts/SubscriptionRedemption.sol\":5312:5350  uint256 dollars = price0050Cents / 100 */\n      swap1\n      pop\n        /* \"contracts/SubscriptionRedemption.sol\":5361:5374  uint256 cents */\n      0x00\n        /* \"contracts/SubscriptionRedemption.sol\":5394:5397  100 */\n      0x64\n        /* \"contracts/SubscriptionRedemption.sol\":5377:5391  price0050Cents */\n      dup5\n        /* \"contracts/SubscriptionRedemption.sol\":5377:5397  price0050Cents % 100 */\n      tag_109\n      swap2\n      swap1\n      tag_110\n      jump\t// in\n    tag_109:\n        /* \"contracts/SubscriptionRedemption.sol\":5361:5397  uint256 cents = price0050Cents % 100 */\n      swap1\n      pop\n        /* \"contracts/SubscriptionRedemption.sol\":5430:5432  10 */\n      0x0a\n        /* \"contracts/SubscriptionRedemption.sol\":5422:5427  cents */\n      dup2\n        /* \"contracts/SubscriptionRedemption.sol\":5422:5432  cents < 10 */\n      lt\n        /* \"contracts/SubscriptionRedemption.sol\":5418:5669  if (cents < 10) {... */\n      iszero\n      tag_111\n      jumpi\n        /* \"contracts/SubscriptionRedemption.sol\":5493:5511  _toString(dollars) */\n      tag_112\n        /* \"contracts/SubscriptionRedemption.sol\":5503:5510  dollars */\n      dup3\n        /* \"contracts/SubscriptionRedemption.sol\":5493:5502  _toString */\n      tag_113\n        /* \"contracts/SubscriptionRedemption.sol\":5493:5511  _toString(dollars) */\n      jump\t// in\n    tag_112:\n        /* \"contracts/SubscriptionRedemption.sol\":5519:5535  _toString(cents) */\n      tag_114\n        /* \"contracts/SubscriptionRedemption.sol\":5529:5534  cents */\n      dup3\n        /* \"contracts/SubscriptionRedemption.sol\":5519:5528  _toString */\n      tag_113\n        /* \"contracts/SubscriptionRedemption.sol\":5519:5535  _toString(cents) */\n      jump\t// in\n    tag_114:\n        /* \"contracts/SubscriptionRedemption.sol\":5471:5536  abi.encodePacked(\"$\", _toString(dollars), \".0\", _toString(cents)) */\n      add(0x20, mload(0x40))\n      tag_115\n      swap3\n      swap2\n      swap1\n      tag_116\n      jump\t// in\n    tag_115:\n      mload(0x40)\n      0x20\n      dup2\n      dup4\n      sub\n      sub\n      dup2\n      mstore\n      swap1\n      0x40\n      mstore\n        /* \"contracts/SubscriptionRedemption.sol\":5449:5537  priceDisplay = string(abi.encodePacked(\"$\", _toString(dollars), \".0\", _toString(cents))) */\n      swap3\n      pop\n        /* \"contracts/SubscriptionRedemption.sol\":5418:5669  if (cents < 10) {... */\n      jump(tag_117)\n    tag_111:\n        /* \"contracts/SubscriptionRedemption.sol\":5614:5632  _toString(dollars) */\n      tag_118\n        /* \"contracts/SubscriptionRedemption.sol\":5624:5631  dollars */\n      dup3\n        /* \"contracts/SubscriptionRedemption.sol\":5614:5623  _toString */\n      tag_113\n        /* \"contracts/SubscriptionRedemption.sol\":5614:5632  _toString(dollars) */\n      jump\t// in\n    tag_118:\n        /* \"contracts/SubscriptionRedemption.sol\":5639:5655  _toString(cents) */\n      tag_119\n        /* \"contracts/SubscriptionRedemption.sol\":5649:5654  cents */\n      dup3\n        /* \"contracts/SubscriptionRedemption.sol\":5639:5648  _toString */\n      tag_113\n        /* \"contracts/SubscriptionRedemption.sol\":5639:5655  _toString(cents) */\n      jump\t// in\n    tag_119:\n        /* \"contracts/SubscriptionRedemption.sol\":5592:5656  abi.encodePacked(\"$\", _toString(dollars), \".\", _toString(cents)) */\n      add(0x20, mload(0x40))\n      tag_120\n      swap3\n      swap2\n      swap1\n      tag_121\n      jump\t// in\n    tag_120:\n      mload(0x40)\n      0x20\n      dup2\n      dup4\n      sub\n      sub\n      dup2\n      mstore\n      swap1\n      0x40\n      mstore\n        /* \"contracts/SubscriptionRedemption.sol\":5570:5657  priceDisplay = string(abi.encodePacked(\"$\", _toString(dollars), \".\", _toString(cents))) */\n      swap3\n      pop\n        /* \"contracts/SubscriptionRedemption.sol\":5418:5669  if (cents < 10) {... */\n    tag_117:\n        /* \"contracts/SubscriptionRedemption.sol\":5179:5676  {... */\n      pop\n      pop\n        /* \"contracts/SubscriptionRedemption.sol\":5048:5676  function getCurrentPriceInfo() external view returns (... */\n      swap1\n      swap2\n      jump\t// out\n        /* \"contracts/SubscriptionRedemption.sol\":629:660  IPriceOracle public priceOracle */\n    tag_31:\n      0x02\n      0x00\n      swap1\n      sload\n      swap1\n      0x0100\n      exp\n      swap1\n      div\n      0xffffffffffffffffffffffffffffffffffffffff\n      and\n      dup2\n      jump\t// out\n        /* \"contracts/SubscriptionRedemption.sol\":853:902  uint256 public constant MIN_REDEMPTION_SHARES = 1 */\n    tag_35:\n        /* \"contracts/SubscriptionRedemption.sol\":901:902  1 */\n      0x01\n        /* \"contracts/SubscriptionRedemption.sol\":853:902  uint256 public constant MIN_REDEMPTION_SHARES = 1 */\n      dup2\n      jump\t// out\n        /* \"contracts/SubscriptionRedemption.sol\":775:825  uint256 public constant MIN_SUBSCRIPTION_USD = 100 */\n    tag_39:\n        /* \"contracts/SubscriptionRedemption.sol\":822:825  100 */\n      0x64\n        /* \"contracts/SubscriptionRedemption.sol\":775:825  uint256 public constant MIN_SUBSCRIPTION_USD = 100 */\n      dup2\n      jump\t// out\n        /* \"contracts/SubscriptionRedemption.sol\":598:622  IERC20 public token0050t */\n    tag_42:\n      0x01\n      0x00\n      swap1\n      sload\n      swap1\n      0x0100\n      exp\n      swap1\n      div\n      0xffffffffffffffffffffffffffffffffffffffff\n      and\n      dup2\n      jump\t// out\n        /* \"contracts/SubscriptionRedemption.sol\":4120:4434  function previewRedemption(uint256 shares) external view returns (... */\n    tag_47:\n        /* \"contracts/SubscriptionRedemption.sol\":4196:4217  uint256 usdtToReceive */\n      0x00\n        /* \"contracts/SubscriptionRedemption.sol\":4228:4250  uint256 price0050Cents */\n      dup1\n        /* \"contracts/SubscriptionRedemption.sol\":4286:4297  priceOracle */\n      0x02\n      0x00\n      swap1\n      sload\n      swap1\n      0x0100\n      exp\n      swap1\n      div\n      0xffffffffffffffffffffffffffffffffffffffff\n      and\n        /* \"contracts/SubscriptionRedemption.sol\":4286:4315  priceOracle.getLatestPriceUSD */\n      0xffffffffffffffffffffffffffffffffffffffff\n      and\n      0xec2b70a4\n        /* \"contracts/SubscriptionRedemption.sol\":4286:4317  priceOracle.getLatestPriceUSD() */\n      mload(0x40)\n      dup2\n      0xffffffff\n      and\n      0xe0\n      shl\n      dup2\n      mstore\n      0x04\n      add\n      0x20\n      mload(0x40)\n      dup1\n      dup4\n      sub\n      dup2\n      dup7\n      gas\n      staticcall\n      iszero\n      dup1\n      iszero\n      tag_124\n      jumpi\n      returndatasize\n      0x00\n      dup1\n      returndatacopy\n      revert(0x00, returndatasize)\n    tag_124:\n      pop\n      pop\n      pop\n      pop\n      mload(0x40)\n      returndatasize\n      not(0x1f)\n      0x1f\n      dup3\n      add\n      and\n      dup3\n      add\n      dup1\n      0x40\n      mstore\n      pop\n      dup2\n      add\n      swap1\n      tag_125\n      swap2\n      swap1\n      tag_76\n      jump\t// in\n    tag_125:\n        /* \"contracts/SubscriptionRedemption.sol\":4269:4317  price0050Cents = priceOracle.getLatestPriceUSD() */\n      swap1\n      pop\n        /* \"contracts/SubscriptionRedemption.sol\":4350:4351  0 */\n      0x00\n        /* \"contracts/SubscriptionRedemption.sol\":4332:4346  price0050Cents */\n      dup2\n        /* \"contracts/SubscriptionRedemption.sol\":4332:4351  price0050Cents == 0 */\n      sub\n        /* \"contracts/SubscriptionRedemption.sol\":4328:4366  if (price0050Cents == 0) return (0, 0) */\n      tag_126\n      jumpi\n        /* \"contracts/SubscriptionRedemption.sol\":4361:4362  0 */\n      0x00\n        /* \"contracts/SubscriptionRedemption.sol\":4364:4365  0 */\n      dup1\n        /* \"contracts/SubscriptionRedemption.sol\":4353:4366  return (0, 0) */\n      swap2\n      pop\n      swap2\n      pop\n      jump(tag_122)\n        /* \"contracts/SubscriptionRedemption.sol\":4328:4366  if (price0050Cents == 0) return (0, 0) */\n    tag_126:\n        /* \"contracts/SubscriptionRedemption.sol\":4412:4426  price0050Cents */\n      dup1\n        /* \"contracts/SubscriptionRedemption.sol\":4403:4409  shares */\n      dup4\n        /* \"contracts/SubscriptionRedemption.sol\":4403:4426  shares * price0050Cents */\n      tag_127\n      swap2\n      swap1\n      tag_86\n      jump\t// in\n    tag_127:\n        /* \"contracts/SubscriptionRedemption.sol\":4387:4426  usdtToReceive = shares * price0050Cents */\n      swap2\n      pop\n        /* \"contracts/SubscriptionRedemption.sol\":4120:4434  function previewRedemption(uint256 shares) external view returns (... */\n    tag_122:\n      swap2\n      pop\n      swap2\n      jump\t// out\n        /* \"contracts/SubscriptionRedemption.sol\":568:591  IERC20 public usdtToken */\n    tag_51:\n      0x00\n      dup1\n      sload\n      swap1\n      0x0100\n      exp\n      swap1\n      div\n      0xffffffffffffffffffffffffffffffffffffffff\n      and\n      dup2\n      jump\t// out\n        /* \"contracts/SubscriptionRedemption.sol\":4473:4720  function getUserBalances(address user) external view returns (... */\n    tag_56:\n        /* \"contracts/SubscriptionRedemption.sol\":4545:4564  uint256 usdtBalance */\n      0x00\n        /* \"contracts/SubscriptionRedemption.sol\":4575:4594  uint256 shares0050t */\n      dup1\n        /* \"contracts/SubscriptionRedemption.sol\":4635:4644  usdtToken */\n      0x00\n      dup1\n      sload\n      swap1\n      0x0100\n      exp\n      swap1\n      div\n      0xffffffffffffffffffffffffffffffffffffffff\n      and\n        /* \"contracts/SubscriptionRedemption.sol\":4635:4654  usdtToken.balanceOf */\n      0xffffffffffffffffffffffffffffffffffffffff\n      and\n      0x70a08231\n        /* \"contracts/SubscriptionRedemption.sol\":4655:4659  user */\n      dup5\n        /* \"contracts/SubscriptionRedemption.sol\":4635:4660  usdtToken.balanceOf(user) */\n      mload(0x40)\n      dup3\n      0xffffffff\n      and\n      0xe0\n      shl\n      dup2\n      mstore\n      0x04\n      add\n      tag_129\n      swap2\n      swap1\n      tag_25\n      jump\t// in\n    tag_129:\n      0x20\n      mload(0x40)\n      dup1\n      dup4\n      sub\n      dup2\n      dup7\n      gas\n      staticcall\n      iszero\n      dup1\n      iszero\n      tag_131\n      jumpi\n      returndatasize\n      0x00\n      dup1\n      returndatacopy\n      revert(0x00, returndatasize)\n    tag_131:\n      pop\n      pop\n      pop\n      pop\n      mload(0x40)\n      returndatasize\n      not(0x1f)\n      0x1f\n      dup3\n      add\n      and\n      dup3\n      add\n      dup1\n      0x40\n      mstore\n      pop\n      dup2\n      add\n      swap1\n      tag_132\n      swap2\n      swap1\n      tag_76\n      jump\t// in\n    tag_132:\n        /* \"contracts/SubscriptionRedemption.sol\":4675:4685  token0050t */\n      0x01\n      0x00\n      swap1\n      sload\n      swap1\n      0x0100\n      exp\n      swap1\n      div\n      0xffffffffffffffffffffffffffffffffffffffff\n      and\n        /* \"contracts/SubscriptionRedemption.sol\":4675:4695  token0050t.balanceOf */\n      0xffffffffffffffffffffffffffffffffffffffff\n      and\n      0x70a08231\n        /* \"contracts/SubscriptionRedemption.sol\":4696:4700  user */\n      dup6\n        /* \"contracts/SubscriptionRedemption.sol\":4675:4701  token0050t.balanceOf(user) */\n      mload(0x40)\n      dup3\n      0xffffffff\n      and\n      0xe0\n      shl\n      dup2\n      mstore\n      0x04\n      add\n      tag_133\n      swap2\n      swap1\n      tag_25\n      jump\t// in\n    tag_133:\n      0x20\n      mload(0x40)\n      dup1\n      dup4\n      sub\n      dup2\n      dup7\n      gas\n      staticcall\n      iszero\n      dup1\n      iszero\n      tag_135\n      jumpi\n      returndatasize\n      0x00\n      dup1\n      returndatacopy\n      revert(0x00, returndatasize)\n    tag_135:\n      pop\n      pop\n      pop\n      pop\n      mload(0x40)\n      returndatasize\n      not(0x1f)\n      0x1f\n      dup3\n      add\n      and\n      dup3\n      add\n      dup1\n      0x40\n      mstore\n      pop\n      dup2\n      add\n      swap1\n      tag_136\n      swap2\n      swap1\n      tag_76\n      jump\t// in\n    tag_136:\n        /* \"contracts/SubscriptionRedemption.sol\":4613:4712  return (... */\n      swap2\n      pop\n      swap2\n      pop\n        /* \"contracts/SubscriptionRedemption.sol\":4473:4720  function getUserBalances(address user) external view returns (... */\n      swap2\n      pop\n      swap2\n      jump\t// out\n        /* \"contracts/SubscriptionRedemption.sol\":2623:3518  function redeem(uint256 sharesToRedeem) external {... */\n    tag_60:\n        /* \"contracts/SubscriptionRedemption.sol\":901:902  1 */\n      0x01\n        /* \"contracts/SubscriptionRedemption.sol\":2691:2705  sharesToRedeem */\n      dup2\n        /* \"contracts/SubscriptionRedemption.sol\":2691:2730  sharesToRedeem >= MIN_REDEMPTION_SHARES */\n      lt\n      iszero\n        /* \"contracts/SubscriptionRedemption.sol\":2683:2751  require(sharesToRedeem >= MIN_REDEMPTION_SHARES, \"Amount too small\") */\n      tag_138\n      jumpi\n      mload(0x40)\n      0x08c379a000000000000000000000000000000000000000000000000000000000\n      dup2\n      mstore\n      0x04\n      add\n      tag_139\n      swap1\n      tag_72\n      jump\t// in\n    tag_139:\n      mload(0x40)\n      dup1\n      swap2\n      sub\n      swap1\n      revert\n    tag_138:\n        /* \"contracts/SubscriptionRedemption.sol\":2821:2843  uint256 price0050Cents */\n      0x00\n        /* \"contracts/SubscriptionRedemption.sol\":2846:2857  priceOracle */\n      0x02\n      0x00\n      swap1\n      sload\n      swap1\n      0x0100\n      exp\n      swap1\n      div\n      0xffffffffffffffffffffffffffffffffffffffff\n      and\n        /* \"contracts/SubscriptionRedemption.sol\":2846:2875  priceOracle.getLatestPriceUSD */\n      0xffffffffffffffffffffffffffffffffffffffff\n      and\n      0xec2b70a4\n        /* \"contracts/SubscriptionRedemption.sol\":2846:2877  priceOracle.getLatestPriceUSD() */\n      mload(0x40)\n      dup2\n      0xffffffff\n      and\n      0xe0\n      shl\n      dup2\n      mstore\n      0x04\n      add\n      0x20\n      mload(0x40)\n      dup1\n      dup4\n      sub\n      dup2\n      dup7\n      gas\n      staticcall\n      iszero\n      dup1\n      iszero\n      tag_141\n      jumpi\n      returndatasize\n      0x00\n      dup1\n      returndatacopy\n      revert(0x00, returndatasize)\n    tag_141:\n      pop\n      pop\n      pop\n      pop\n      mload(0x40)\n      returndatasize\n      not(0x1f)\n      0x1f\n      dup3\n      add\n      and\n      dup3\n      add\n      dup1\n      0x40\n      mstore\n      pop\n      dup2\n      add\n      swap1\n      tag_142\n      swap2\n      swap1\n      tag_76\n      jump\t// in\n    tag_142:\n        /* \"contracts/SubscriptionRedemption.sol\":2821:2877  uint256 price0050Cents = priceOracle.getLatestPriceUSD() */\n      swap1\n      pop\n        /* \"contracts/SubscriptionRedemption.sol\":2913:2914  0 */\n      0x00\n        /* \"contracts/SubscriptionRedemption.sol\":2896:2910  price0050Cents */\n      dup2\n        /* \"contracts/SubscriptionRedemption.sol\":2896:2914  price0050Cents > 0 */\n      gt\n        /* \"contracts/SubscriptionRedemption.sol\":2888:2932  require(price0050Cents > 0, \"Invalid price\") */\n      tag_143\n      jumpi\n      mload(0x40)\n      0x08c379a000000000000000000000000000000000000000000000000000000000\n      dup2\n      mstore\n      0x04\n      add\n      tag_144\n      swap1\n      tag_79\n      jump\t// in\n    tag_144:\n      mload(0x40)\n      dup1\n      swap2\n      sub\n      swap1\n      revert\n    tag_143:\n        /* \"contracts/SubscriptionRedemption.sol\":2994:3014  uint256 usdtToReturn */\n      0x00\n        /* \"contracts/SubscriptionRedemption.sol\":3034:3048  price0050Cents */\n      dup2\n        /* \"contracts/SubscriptionRedemption.sol\":3017:3031  sharesToRedeem */\n      dup4\n        /* \"contracts/SubscriptionRedemption.sol\":3017:3048  sharesToRedeem * price0050Cents */\n      tag_145\n      swap2\n      swap1\n      tag_86\n      jump\t// in\n    tag_145:\n        /* \"contracts/SubscriptionRedemption.sol\":2994:3048  uint256 usdtToReturn = sharesToRedeem * price0050Cents */\n      swap1\n      pop\n        /* \"contracts/SubscriptionRedemption.sol\":3136:3146  token0050t */\n      0x01\n      0x00\n      swap1\n      sload\n      swap1\n      0x0100\n      exp\n      swap1\n      div\n      0xffffffffffffffffffffffffffffffffffffffff\n      and\n        /* \"contracts/SubscriptionRedemption.sol\":3136:3159  token0050t.transferFrom */\n      0xffffffffffffffffffffffffffffffffffffffff\n      and\n      0x23b872dd\n        /* \"contracts/SubscriptionRedemption.sol\":3160:3170  msg.sender */\n      caller\n        /* \"contracts/SubscriptionRedemption.sol\":3172:3178  issuer */\n      0x03\n      0x00\n      swap1\n      sload\n      swap1\n      0x0100\n      exp\n      swap1\n      div\n      0xffffffffffffffffffffffffffffffffffffffff\n      and\n        /* \"contracts/SubscriptionRedemption.sol\":3180:3194  sharesToRedeem */\n      dup7\n        /* \"contracts/SubscriptionRedemption.sol\":3136:3195  token0050t.transferFrom(msg.sender, issuer, sharesToRedeem) */\n      mload(0x40)\n      dup5\n      0xffffffff\n      and\n      0xe0\n      shl\n      dup2\n      mstore\n      0x04\n      add\n      tag_146\n      swap4\n      swap3\n      swap2\n      swap1\n      tag_88\n      jump\t// in\n    tag_146:\n      0x20\n      mload(0x40)\n      dup1\n      dup4\n      sub\n      dup2\n      0x00\n      dup8\n      gas\n      call\n      iszero\n      dup1\n      iszero\n      tag_148\n      jumpi\n      returndatasize\n      0x00\n      dup1\n      returndatacopy\n      revert(0x00, returndatasize)\n    tag_148:\n      pop\n      pop\n      pop\n      pop\n      mload(0x40)\n      returndatasize\n      not(0x1f)\n      0x1f\n      dup3\n      add\n      and\n      dup3\n      add\n      dup1\n      0x40\n      mstore\n      pop\n      dup2\n      add\n      swap1\n      tag_149\n      swap2\n      swap1\n      tag_92\n      jump\t// in\n    tag_149:\n        /* \"contracts/SubscriptionRedemption.sol\":3114:3244  require(... */\n      tag_150\n      jumpi\n      mload(0x40)\n      0x08c379a000000000000000000000000000000000000000000000000000000000\n      dup2\n      mstore\n      0x04\n      add\n      tag_151\n      swap1\n      tag_102\n      jump\t// in\n    tag_151:\n      mload(0x40)\n      dup1\n      swap2\n      sub\n      swap1\n      revert\n    tag_150:\n        /* \"contracts/SubscriptionRedemption.sol\":3328:3337  usdtToken */\n      0x00\n      dup1\n      sload\n      swap1\n      0x0100\n      exp\n      swap1\n      div\n      0xffffffffffffffffffffffffffffffffffffffff\n      and\n        /* \"contracts/SubscriptionRedemption.sol\":3328:3350  usdtToken.transferFrom */\n      0xffffffffffffffffffffffffffffffffffffffff\n      and\n      0x23b872dd\n        /* \"contracts/SubscriptionRedemption.sol\":3351:3357  issuer */\n      0x03\n      0x00\n      swap1\n      sload\n      swap1\n      0x0100\n      exp\n      swap1\n      div\n      0xffffffffffffffffffffffffffffffffffffffff\n      and\n        /* \"contracts/SubscriptionRedemption.sol\":3359:3369  msg.sender */\n      caller\n        /* \"contracts/SubscriptionRedemption.sol\":3371:3383  usdtToReturn */\n      dup5\n        /* \"contracts/SubscriptionRedemption.sol\":3328:3384  usdtToken.transferFrom(issuer, msg.sender, usdtToReturn) */\n      mload(0x40)\n      dup5\n      0xffffffff\n      and\n      0xe0\n      shl\n      dup2\n      mstore\n      0x04\n      add\n      tag_152\n      swap4\n      swap3\n      swap2\n      swap1\n      tag_88\n      jump\t// in\n    tag_152:\n      0x20\n      mload(0x40)\n      dup1\n      dup4\n      sub\n      dup2\n      0x00\n      dup8\n      gas\n      call\n      iszero\n      dup1\n      iszero\n      tag_154\n      jumpi\n      returndatasize\n      0x00\n      dup1\n      returndatacopy\n      revert(0x00, returndatasize)\n    tag_154:\n      pop\n      pop\n      pop\n      pop\n      mload(0x40)\n      returndatasize\n      not(0x1f)\n      0x1f\n      dup3\n      add\n      and\n      dup3\n      add\n      dup1\n      0x40\n      mstore\n      pop\n      dup2\n      add\n      swap1\n      tag_155\n      swap2\n      swap1\n      tag_92\n      jump\t// in\n    tag_155:\n        /* \"contracts/SubscriptionRedemption.sol\":3306:3432  require(... */\n      tag_156\n      jumpi\n      mload(0x40)\n      0x08c379a000000000000000000000000000000000000000000000000000000000\n      dup2\n      mstore\n      0x04\n      add\n      tag_157\n      swap1\n      tag_95\n      jump\t// in\n    tag_157:\n      mload(0x40)\n      dup1\n      swap2\n      sub\n      swap1\n      revert\n    tag_156:\n        /* \"contracts/SubscriptionRedemption.sol\":3469:3479  msg.sender */\n      caller\n        /* \"contracts/SubscriptionRedemption.sol\":3458:3510  Redemption(msg.sender, sharesToRedeem, usdtToReturn) */\n      0xffffffffffffffffffffffffffffffffffffffff\n      and\n      0xeebddeddf4ae1ee54a48517af27958e7666d69c7ba2e3e7c2b0ff87ef5f4491e\n        /* \"contracts/SubscriptionRedemption.sol\":3481:3495  sharesToRedeem */\n      dup5\n        /* \"contracts/SubscriptionRedemption.sol\":3497:3509  usdtToReturn */\n      dup4\n        /* \"contracts/SubscriptionRedemption.sol\":3458:3510  Redemption(msg.sender, sharesToRedeem, usdtToReturn) */\n      mload(0x40)\n      tag_158\n      swap3\n      swap2\n      swap1\n      tag_49\n      jump\t// in\n    tag_158:\n      mload(0x40)\n      dup1\n      swap2\n      sub\n      swap1\n      log2\n        /* \"contracts/SubscriptionRedemption.sol\":2672:3518  {... */\n      pop\n      pop\n        /* \"contracts/SubscriptionRedemption.sol\":2623:3518  function redeem(uint256 sharesToRedeem) external {... */\n      pop\n      jump\t// out\n        /* \"contracts/SubscriptionRedemption.sol\":3603:4041  function previewSubscription(uint256 usdtAmountCents) external view returns (... */\n    tag_63:\n        /* \"contracts/SubscriptionRedemption.sol\":3690:3713  uint256 sharesToReceive */\n      0x00\n        /* \"contracts/SubscriptionRedemption.sol\":3724:3748  uint256 actualUsdtNeeded */\n      dup1\n        /* \"contracts/SubscriptionRedemption.sol\":3759:3781  uint256 price0050Cents */\n      0x00\n        /* \"contracts/SubscriptionRedemption.sol\":3817:3828  priceOracle */\n      0x02\n      0x00\n      swap1\n      sload\n      swap1\n      0x0100\n      exp\n      swap1\n      div\n      0xffffffffffffffffffffffffffffffffffffffff\n      and\n        /* \"contracts/SubscriptionRedemption.sol\":3817:3846  priceOracle.getLatestPriceUSD */\n      0xffffffffffffffffffffffffffffffffffffffff\n      and\n      0xec2b70a4\n        /* \"contracts/SubscriptionRedemption.sol\":3817:3848  priceOracle.getLatestPriceUSD() */\n      mload(0x40)\n      dup2\n      0xffffffff\n      and\n      0xe0\n      shl\n      dup2\n      mstore\n      0x04\n      add\n      0x20\n      mload(0x40)\n      dup1\n      dup4\n      sub\n      dup2\n      dup7\n      gas\n      staticcall\n      iszero\n      dup1\n      iszero\n      tag_161\n      jumpi\n      returndatasize\n      0x00\n      dup1\n      returndatacopy\n      revert(0x00, returndatasize)\n    tag_161:\n      pop\n      pop\n      pop\n      pop\n      mload(0x40)\n      returndatasize\n      not(0x1f)\n      0x1f\n      dup3\n      add\n      and\n      dup3\n      add\n      dup1\n      0x40\n      mstore\n      pop\n      dup2\n      add\n      swap1\n      tag_162\n      swap2\n      swap1\n      tag_76\n      jump\t// in\n    tag_162:\n        /* \"contracts/SubscriptionRedemption.sol\":3800:3848  price0050Cents = priceOracle.getLatestPriceUSD() */\n      swap1\n      pop\n        /* \"contracts/SubscriptionRedemption.sol\":3881:3882  0 */\n      0x00\n        /* \"contracts/SubscriptionRedemption.sol\":3863:3877  price0050Cents */\n      dup2\n        /* \"contracts/SubscriptionRedemption.sol\":3863:3882  price0050Cents == 0 */\n      sub\n        /* \"contracts/SubscriptionRedemption.sol\":3859:3900  if (price0050Cents == 0) return (0, 0, 0) */\n      tag_163\n      jumpi\n        /* \"contracts/SubscriptionRedemption.sol\":3892:3893  0 */\n      0x00\n        /* \"contracts/SubscriptionRedemption.sol\":3895:3896  0 */\n      dup1\n        /* \"contracts/SubscriptionRedemption.sol\":3898:3899  0 */\n      0x00\n        /* \"contracts/SubscriptionRedemption.sol\":3884:3900  return (0, 0, 0) */\n      swap3\n      pop\n      swap3\n      pop\n      swap3\n      pop\n      jump(tag_159)\n        /* \"contracts/SubscriptionRedemption.sol\":3859:3900  if (price0050Cents == 0) return (0, 0, 0) */\n    tag_163:\n        /* \"contracts/SubscriptionRedemption.sol\":3957:3971  price0050Cents */\n      dup1\n        /* \"contracts/SubscriptionRedemption.sol\":3939:3954  usdtAmountCents */\n      dup5\n        /* \"contracts/SubscriptionRedemption.sol\":3939:3971  usdtAmountCents / price0050Cents */\n      tag_164\n      swap2\n      swap1\n      tag_81\n      jump\t// in\n    tag_164:\n        /* \"contracts/SubscriptionRedemption.sol\":3921:3971  sharesToReceive = usdtAmountCents / price0050Cents */\n      swap3\n      pop\n        /* \"contracts/SubscriptionRedemption.sol\":4019:4033  price0050Cents */\n      dup1\n        /* \"contracts/SubscriptionRedemption.sol\":4001:4016  sharesToReceive */\n      dup4\n        /* \"contracts/SubscriptionRedemption.sol\":4001:4033  sharesToReceive * price0050Cents */\n      tag_165\n      swap2\n      swap1\n      tag_86\n      jump\t// in\n    tag_165:\n        /* \"contracts/SubscriptionRedemption.sol\":3982:4033  actualUsdtNeeded = sharesToReceive * price0050Cents */\n      swap2\n      pop\n        /* \"contracts/SubscriptionRedemption.sol\":3603:4041  function previewSubscription(uint256 usdtAmountCents) external view returns (... */\n    tag_159:\n      swap2\n      swap4\n      swap1\n      swap3\n      pop\n      jump\t// out\n        /* \"contracts/SubscriptionRedemption.sol\":4762:5003  function getIssuerBalances() external view returns (... */\n    tag_67:\n        /* \"contracts/SubscriptionRedemption.sol\":4824:4843  uint256 usdtBalance */\n      0x00\n        /* \"contracts/SubscriptionRedemption.sol\":4854:4873  uint256 shares0050t */\n      dup1\n        /* \"contracts/SubscriptionRedemption.sol\":4914:4923  usdtToken */\n      0x00\n      dup1\n      sload\n      swap1\n      0x0100\n      exp\n      swap1\n      div\n      0xffffffffffffffffffffffffffffffffffffffff\n      and\n        /* \"contracts/SubscriptionRedemption.sol\":4914:4933  usdtToken.balanceOf */\n      0xffffffffffffffffffffffffffffffffffffffff\n      and\n      0x70a08231\n        /* \"contracts/SubscriptionRedemption.sol\":4934:4940  issuer */\n      0x03\n      0x00\n      swap1\n      sload\n      swap1\n      0x0100\n      exp\n      swap1\n      div\n      0xffffffffffffffffffffffffffffffffffffffff\n      and\n        /* \"contracts/SubscriptionRedemption.sol\":4914:4941  usdtToken.balanceOf(issuer) */\n      mload(0x40)\n      dup3\n      0xffffffff\n      and\n      0xe0\n      shl\n      dup2\n      mstore\n      0x04\n      add\n      tag_167\n      swap2\n      swap1\n      tag_25\n      jump\t// in\n    tag_167:\n      0x20\n      mload(0x40)\n      dup1\n      dup4\n      sub\n      dup2\n      dup7\n      gas\n      staticcall\n      iszero\n      dup1\n      iszero\n      tag_169\n      jumpi\n      returndatasize\n      0x00\n      dup1\n      returndatacopy\n      revert(0x00, returndatasize)\n    tag_169:\n      pop\n      pop\n      pop\n      pop\n      mload(0x40)\n      returndatasize\n      not(0x1f)\n      0x1f\n      dup3\n      add\n      and\n      dup3\n      add\n      dup1\n      0x40\n      mstore\n      pop\n      dup2\n      add\n      swap1\n      tag_170\n      swap2\n      swap1\n      tag_76\n      jump\t// in\n    tag_170:\n        /* \"contracts/SubscriptionRedemption.sol\":4956:4966  token0050t */\n      0x01\n      0x00\n      swap1\n      sload\n      swap1\n      0x0100\n      exp\n      swap1\n      div\n      0xffffffffffffffffffffffffffffffffffffffff\n      and\n        /* \"contracts/SubscriptionRedemption.sol\":4956:4976  token0050t.balanceOf */\n      0xffffffffffffffffffffffffffffffffffffffff\n      and\n      0x70a08231\n        /* \"contracts/SubscriptionRedemption.sol\":4977:4983  issuer */\n      0x03\n      0x00\n      swap1\n      sload\n      swap1\n      0x0100\n      exp\n      swap1\n      div\n      0xffffffffffffffffffffffffffffffffffffffff\n      and\n        /* \"contracts/SubscriptionRedemption.sol\":4956:4984  token0050t.balanceOf(issuer) */\n      mload(0x40)\n      dup3\n      0xffffffff\n      and\n      0xe0\n      shl\n      dup2\n      mstore\n      0x04\n      add\n      tag_171\n      swap2\n      swap1\n      tag_25\n      jump\t// in\n    tag_171:\n      0x20\n      mload(0x40)\n      dup1\n      dup4\n      sub\n      dup2\n      dup7\n      gas\n      staticcall\n      iszero\n      dup1\n      iszero\n      tag_173\n      jumpi\n      returndatasize\n      0x00\n      dup1\n      returndatacopy\n      revert(0x00, returndatasize)\n    tag_173:\n      pop\n      pop\n      pop\n      pop\n      mload(0x40)\n      returndatasize\n      not(0x1f)\n      0x1f\n      dup3\n      add\n      and\n      dup3\n      add\n      dup1\n      0x40\n      mstore\n      pop\n      dup2\n      add\n      swap1\n      tag_174\n      swap2\n      swap1\n      tag_76\n      jump\t// in\n    tag_174:\n        /* \"contracts/SubscriptionRedemption.sol\":4892:4995  return (... */\n      swap2\n      pop\n      swap2\n      pop\n        /* \"contracts/SubscriptionRedemption.sol\":4762:5003  function getIssuerBalances() external view returns (... */\n      swap1\n      swap2\n      jump\t// out\n        /* \"contracts/SubscriptionRedemption.sol\":5725:6262  function _toString(uint256 value) internal pure returns (string memory) {... */\n    tag_113:\n        /* \"contracts/SubscriptionRedemption.sol\":5782:5795  string memory */\n      0x60\n        /* \"contracts/SubscriptionRedemption.sol\":5821:5822  0 */\n      0x00\n        /* \"contracts/SubscriptionRedemption.sol\":5812:5817  value */\n      dup3\n        /* \"contracts/SubscriptionRedemption.sol\":5812:5822  value == 0 */\n      sub\n        /* \"contracts/SubscriptionRedemption.sol\":5808:5834  if (value == 0) return \"0\" */\n      tag_176\n      jumpi\n        /* \"contracts/SubscriptionRedemption.sol\":5824:5834  return \"0\" */\n      mload(0x40)\n      dup1\n      0x40\n      add\n      0x40\n      mstore\n      dup1\n      0x01\n      dup2\n      mstore\n      0x20\n      add\n      0x3000000000000000000000000000000000000000000000000000000000000000\n      dup2\n      mstore\n      pop\n      swap1\n      pop\n      jump(tag_175)\n        /* \"contracts/SubscriptionRedemption.sol\":5808:5834  if (value == 0) return \"0\" */\n    tag_176:\n        /* \"contracts/SubscriptionRedemption.sol\":5855:5867  uint256 temp */\n      0x00\n        /* \"contracts/SubscriptionRedemption.sol\":5870:5875  value */\n      dup3\n        /* \"contracts/SubscriptionRedemption.sol\":5855:5875  uint256 temp = value */\n      swap1\n      pop\n        /* \"contracts/SubscriptionRedemption.sol\":5886:5900  uint256 digits */\n      0x00\n        /* \"contracts/SubscriptionRedemption.sol\":5911:5989  while (temp != 0) {... */\n    tag_177:\n        /* \"contracts/SubscriptionRedemption.sol\":5926:5927  0 */\n      0x00\n        /* \"contracts/SubscriptionRedemption.sol\":5918:5922  temp */\n      dup3\n        /* \"contracts/SubscriptionRedemption.sol\":5918:5927  temp != 0 */\n      eq\n        /* \"contracts/SubscriptionRedemption.sol\":5911:5989  while (temp != 0) {... */\n      tag_178\n      jumpi\n        /* \"contracts/SubscriptionRedemption.sol\":5944:5952  digits++ */\n      dup1\n      dup1\n      tag_179\n      swap1\n      tag_180\n      jump\t// in\n    tag_179:\n      swap2\n      pop\n      pop\n        /* \"contracts/SubscriptionRedemption.sol\":5975:5977  10 */\n      0x0a\n        /* \"contracts/SubscriptionRedemption.sol\":5967:5977  temp /= 10 */\n      dup3\n      tag_181\n      swap2\n      swap1\n      tag_81\n      jump\t// in\n    tag_181:\n      swap2\n      pop\n        /* \"contracts/SubscriptionRedemption.sol\":5911:5989  while (temp != 0) {... */\n      jump(tag_177)\n    tag_178:\n        /* \"contracts/SubscriptionRedemption.sol\":6009:6028  bytes memory buffer */\n      0x00\n        /* \"contracts/SubscriptionRedemption.sol\":6041:6047  digits */\n      dup2\n        /* \"contracts/SubscriptionRedemption.sol\":6031:6048  new bytes(digits) */\n      0xffffffffffffffff\n      dup2\n      gt\n      iszero\n      tag_182\n      jumpi\n      tag_183\n      tag_184\n      jump\t// in\n    tag_183:\n    tag_182:\n      mload(0x40)\n      swap1\n      dup1\n      dup3\n      mstore\n      dup1\n      0x1f\n      add\n      not(0x1f)\n      and\n      0x20\n      add\n      dup3\n      add\n      0x40\n      mstore\n      dup1\n      iszero\n      tag_185\n      jumpi\n      dup2\n      0x20\n      add\n      0x01\n      dup3\n      mul\n      dup1\n      calldatasize\n      dup4\n      calldatacopy\n      dup1\n      dup3\n      add\n      swap2\n      pop\n      pop\n      swap1\n      pop\n    tag_185:\n      pop\n        /* \"contracts/SubscriptionRedemption.sol\":6009:6048  bytes memory buffer = new bytes(digits) */\n      swap1\n      pop\n        /* \"contracts/SubscriptionRedemption.sol\":6059:6213  while (value != 0) {... */\n    tag_186:\n        /* \"contracts/SubscriptionRedemption.sol\":6075:6076  0 */\n      0x00\n        /* \"contracts/SubscriptionRedemption.sol\":6066:6071  value */\n      dup6\n        /* \"contracts/SubscriptionRedemption.sol\":6066:6076  value != 0 */\n      eq\n        /* \"contracts/SubscriptionRedemption.sol\":6059:6213  while (value != 0) {... */\n      tag_187\n      jumpi\n        /* \"contracts/SubscriptionRedemption.sol\":6103:6104  1 */\n      0x01\n        /* \"contracts/SubscriptionRedemption.sol\":6093:6104  digits -= 1 */\n      dup3\n      tag_188\n      swap2\n      swap1\n      tag_189\n      jump\t// in\n    tag_188:\n      swap2\n      pop\n        /* \"contracts/SubscriptionRedemption.sol\":6170:6172  10 */\n      0x0a\n        /* \"contracts/SubscriptionRedemption.sol\":6162:6167  value */\n      dup6\n        /* \"contracts/SubscriptionRedemption.sol\":6162:6172  value % 10 */\n      tag_190\n      swap2\n      swap1\n      tag_110\n      jump\t// in\n    tag_190:\n        /* \"contracts/SubscriptionRedemption.sol\":6149:6151  48 */\n      0x30\n        /* \"contracts/SubscriptionRedemption.sol\":6149:6173  48 + uint256(value % 10) */\n      tag_191\n      swap2\n      swap1\n      tag_192\n      jump\t// in\n    tag_191:\n        /* \"contracts/SubscriptionRedemption.sol\":6136:6175  bytes1(uint8(48 + uint256(value % 10))) */\n      0xf8\n      shl\n        /* \"contracts/SubscriptionRedemption.sol\":6119:6125  buffer */\n      dup2\n        /* \"contracts/SubscriptionRedemption.sol\":6126:6132  digits */\n      dup4\n        /* \"contracts/SubscriptionRedemption.sol\":6119:6133  buffer[digits] */\n      dup2\n      mload\n      dup2\n      lt\n      tag_193\n      jumpi\n      tag_194\n      tag_195\n      jump\t// in\n    tag_194:\n    tag_193:\n      0x20\n      add\n      add\n        /* \"contracts/SubscriptionRedemption.sol\":6119:6175  buffer[digits] = bytes1(uint8(48 + uint256(value % 10))) */\n      swap1\n      not(0xffffffffffffffffffffffffffffffffffffffffffffffffffffffffffffff)\n      and\n      swap1\n      dup2\n      0x00\n      byte\n      swap1\n      mstore8\n      pop\n        /* \"contracts/SubscriptionRedemption.sol\":6199:6201  10 */\n      0x0a\n        /* \"contracts/SubscriptionRedemption.sol\":6190:6201  value /= 10 */\n      dup6\n      tag_196\n      swap2\n      swap1\n      tag_81\n      jump\t// in\n    tag_196:\n      swap5\n      pop\n        /* \"contracts/SubscriptionRedemption.sol\":6059:6213  while (value != 0) {... */\n      jump(tag_186)\n    tag_187:\n        /* \"contracts/SubscriptionRedemption.sol\":6247:6253  buffer */\n      dup1\n        /* \"contracts/SubscriptionRedemption.sol\":6233:6254  return string(buffer) */\n      swap4\n      pop\n      pop\n      pop\n      pop\n        /* \"contracts/SubscriptionRedemption.sol\":5725:6262  function _toString(uint256 value) internal pure returns (string memory) {... */\n    tag_175:\n      swap2\n      swap1\n      pop\n      jump\t// out\n        /* \"#utility.yul\":88:205   */\n    tag_198:\n        /* \"#utility.yul\":197:198   */\n      0x00\n        /* \"#utility.yul\":194:195   */\n      dup1\n        /* \"#utility.yul\":187:199   */\n      revert\n        /* \"#utility.yul\":334:411   */\n    tag_200:\n        /* \"#utility.yul\":371:378   */\n      0x00\n        /* \"#utility.yul\":400:405   */\n      dup2\n        /* \"#utility.yul\":389:405   */\n      swap1\n      pop\n        /* \"#utility.yul\":334:411   */\n      swap2\n      swap1\n      pop\n      jump\t// out\n        /* \"#utility.yul\":417:539   */\n    tag_201:\n        /* \"#utility.yul\":490:514   */\n      tag_251\n        /* \"#utility.yul\":508:513   */\n      dup2\n        /* \"#utility.yul\":490:514   */\n      tag_200\n      jump\t// in\n    tag_251:\n        /* \"#utility.yul\":483:488   */\n      dup2\n        /* \"#utility.yul\":480:515   */\n      eq\n        /* \"#utility.yul\":470:533   */\n      tag_252\n      jumpi\n        /* \"#utility.yul\":529:530   */\n      0x00\n        /* \"#utility.yul\":526:527   */\n      dup1\n        /* \"#utility.yul\":519:531   */\n      revert\n        /* \"#utility.yul\":470:533   */\n    tag_252:\n        /* \"#utility.yul\":417:539   */\n      pop\n      jump\t// out\n        /* \"#utility.yul\":545:684   */\n    tag_202:\n        /* \"#utility.yul\":591:596   */\n      0x00\n        /* \"#utility.yul\":629:635   */\n      dup2\n        /* \"#utility.yul\":616:636   */\n      calldataload\n        /* \"#utility.yul\":607:636   */\n      swap1\n      pop\n        /* \"#utility.yul\":645:678   */\n      tag_254\n        /* \"#utility.yul\":672:677   */\n      dup2\n        /* \"#utility.yul\":645:678   */\n      tag_201\n      jump\t// in\n    tag_254:\n        /* \"#utility.yul\":545:684   */\n      swap3\n      swap2\n      pop\n      pop\n      jump\t// out\n        /* \"#utility.yul\":690:1019   */\n    tag_20:\n        /* \"#utility.yul\":749:755   */\n      0x00\n        /* \"#utility.yul\":798:800   */\n      0x20\n        /* \"#utility.yul\":786:795   */\n      dup3\n        /* \"#utility.yul\":777:784   */\n      dup5\n        /* \"#utility.yul\":773:796   */\n      sub\n        /* \"#utility.yul\":769:801   */\n      slt\n        /* \"#utility.yul\":766:885   */\n      iszero\n      tag_256\n      jumpi\n        /* \"#utility.yul\":804:883   */\n      tag_257\n      tag_198\n      jump\t// in\n    tag_257:\n        /* \"#utility.yul\":766:885   */\n    tag_256:\n        /* \"#utility.yul\":924:925   */\n      0x00\n        /* \"#utility.yul\":949:1002   */\n      tag_258\n        /* \"#utility.yul\":994:1001   */\n      dup5\n        /* \"#utility.yul\":985:991   */\n      dup3\n        /* \"#utility.yul\":974:983   */\n      dup6\n        /* \"#utility.yul\":970:992   */\n      add\n        /* \"#utility.yul\":949:1002   */\n      tag_202\n      jump\t// in\n    tag_258:\n        /* \"#utility.yul\":939:1002   */\n      swap2\n      pop\n        /* \"#utility.yul\":895:1012   */\n      pop\n        /* \"#utility.yul\":690:1019   */\n      swap3\n      swap2\n      pop\n      pop\n      jump\t// out\n        /* \"#utility.yul\":1025:1151   */\n    tag_203:\n        /* \"#utility.yul\":1062:1069   */\n      0x00\n        /* \"#utility.yul\":1102:1144   */\n      0xffffffffffffffffffffffffffffffffffffffff\n        /* \"#utility.yul\":1095:1100   */\n      dup3\n        /* \"#utility.yul\":1091:1145   */\n      and\n        /* \"#utility.yul\":1080:1145   */\n      swap1\n      pop\n        /* \"#utility.yul\":1025:1151   */\n      swap2\n      swap1\n      pop\n      jump\t// out\n        /* \"#utility.yul\":1157:1253   */\n    tag_204:\n        /* \"#utility.yul\":1194:1201   */\n      0x00\n        /* \"#utility.yul\":1223:1247   */\n      tag_261\n        /* \"#utility.yul\":1241:1246   */\n      dup3\n        /* \"#utility.yul\":1223:1247   */\n      tag_203\n      jump\t// in\n    tag_261:\n        /* \"#utility.yul\":1212:1247   */\n      swap1\n      pop\n        /* \"#utility.yul\":1157:1253   */\n      swap2\n      swap1\n      pop\n      jump\t// out\n        /* \"#utility.yul\":1259:1377   */\n    tag_205:\n        /* \"#utility.yul\":1346:1370   */\n      tag_263\n        /* \"#utility.yul\":1364:1369   */\n      dup2\n        /* \"#utility.yul\":1346:1370   */\n      tag_204\n      jump\t// in\n    tag_263:\n        /* \"#utility.yul\":1341:1344   */\n      dup3\n        /* \"#utility.yul\":1334:1371   */\n      mstore\n        /* \"#utility.yul\":1259:1377   */\n      pop\n      pop\n      jump\t// out\n        /* \"#utility.yul\":1383:1605   */\n    tag_25:\n        /* \"#utility.yul\":1476:1480   */\n      0x00\n        /* \"#utility.yul\":1514:1516   */\n      0x20\n        /* \"#utility.yul\":1503:1512   */\n      dup3\n        /* \"#utility.yul\":1499:1517   */\n      add\n        /* \"#utility.yul\":1491:1517   */\n      swap1\n      pop\n        /* \"#utility.yul\":1527:1598   */\n      tag_265\n        /* \"#utility.yul\":1595:1596   */\n      0x00\n        /* \"#utility.yul\":1584:1593   */\n      dup4\n        /* \"#utility.yul\":1580:1597   */\n      add\n        /* \"#utility.yul\":1571:1577   */\n      dup5\n        /* \"#utility.yul\":1527:1598   */\n      tag_205\n      jump\t// in\n    tag_265:\n        /* \"#utility.yul\":1383:1605   */\n      swap3\n      swap2\n      pop\n      pop\n      jump\t// out\n        /* \"#utility.yul\":1611:1729   */\n    tag_206:\n        /* \"#utility.yul\":1698:1722   */\n      tag_267\n        /* \"#utility.yul\":1716:1721   */\n      dup2\n        /* \"#utility.yul\":1698:1722   */\n      tag_200\n      jump\t// in\n    tag_267:\n        /* \"#utility.yul\":1693:1696   */\n      dup3\n        /* \"#utility.yul\":1686:1723   */\n      mstore\n        /* \"#utility.yul\":1611:1729   */\n      pop\n      pop\n      jump\t// out\n        /* \"#utility.yul\":1735:1834   */\n    tag_207:\n        /* \"#utility.yul\":1787:1793   */\n      0x00\n        /* \"#utility.yul\":1821:1826   */\n      dup2\n        /* \"#utility.yul\":1815:1827   */\n      mload\n        /* \"#utility.yul\":1805:1827   */\n      swap1\n      pop\n        /* \"#utility.yul\":1735:1834   */\n      swap2\n      swap1\n      pop\n      jump\t// out\n        /* \"#utility.yul\":1840:2009   */\n    tag_208:\n        /* \"#utility.yul\":1924:1935   */\n      0x00\n        /* \"#utility.yul\":1958:1964   */\n      dup3\n        /* \"#utility.yul\":1953:1956   */\n      dup3\n        /* \"#utility.yul\":1946:1965   */\n      mstore\n        /* \"#utility.yul\":1998:2002   */\n      0x20\n        /* \"#utility.yul\":1993:1996   */\n      dup3\n        /* \"#utility.yul\":1989:2003   */\n      add\n        /* \"#utility.yul\":1974:2003   */\n      swap1\n      pop\n        /* \"#utility.yul\":1840:2009   */\n      swap3\n      swap2\n      pop\n      pop\n      jump\t// out\n        /* \"#utility.yul\":2015:2261   */\n    tag_209:\n        /* \"#utility.yul\":2096:2097   */\n      0x00\n        /* \"#utility.yul\":2106:2219   */\n    tag_271:\n        /* \"#utility.yul\":2120:2126   */\n      dup4\n        /* \"#utility.yul\":2117:2118   */\n      dup2\n        /* \"#utility.yul\":2114:2127   */\n      lt\n        /* \"#utility.yul\":2106:2219   */\n      iszero\n      tag_273\n      jumpi\n        /* \"#utility.yul\":2205:2206   */\n      dup1\n        /* \"#utility.yul\":2200:2203   */\n      dup3\n        /* \"#utility.yul\":2196:2207   */\n      add\n        /* \"#utility.yul\":2190:2208   */\n      mload\n        /* \"#utility.yul\":2186:2187   */\n      dup2\n        /* \"#utility.yul\":2181:2184   */\n      dup5\n        /* \"#utility.yul\":2177:2188   */\n      add\n        /* \"#utility.yul\":2170:2209   */\n      mstore\n        /* \"#utility.yul\":2142:2144   */\n      0x20\n        /* \"#utility.yul\":2139:2140   */\n      dup2\n        /* \"#utility.yul\":2135:2145   */\n      add\n        /* \"#utility.yul\":2130:2145   */\n      swap1\n      pop\n        /* \"#utility.yul\":2106:2219   */\n      jump(tag_271)\n    tag_273:\n        /* \"#utility.yul\":2253:2254   */\n      0x00\n        /* \"#utility.yul\":2244:2250   */\n      dup5\n        /* \"#utility.yul\":2239:2242   */\n      dup5\n        /* \"#utility.yul\":2235:2251   */\n      add\n        /* \"#utility.yul\":2228:2255   */\n      mstore\n        /* \"#utility.yul\":2077:2261   */\n      pop\n        /* \"#utility.yul\":2015:2261   */\n      pop\n      pop\n      pop\n      jump\t// out\n        /* \"#utility.yul\":2267:2369   */\n    tag_210:\n        /* \"#utility.yul\":2308:2314   */\n      0x00\n        /* \"#utility.yul\":2359:2361   */\n      0x1f\n        /* \"#utility.yul\":2355:2362   */\n      not\n        /* \"#utility.yul\":2350:2352   */\n      0x1f\n        /* \"#utility.yul\":2343:2348   */\n      dup4\n        /* \"#utility.yul\":2339:2353   */\n      add\n        /* \"#utility.yul\":2335:2363   */\n      and\n        /* \"#utility.yul\":2325:2363   */\n      swap1\n      pop\n        /* \"#utility.yul\":2267:2369   */\n      swap2\n      swap1\n      pop\n      jump\t// out\n        /* \"#utility.yul\":2375:2752   */\n    tag_211:\n        /* \"#utility.yul\":2463:2466   */\n      0x00\n        /* \"#utility.yul\":2491:2530   */\n      tag_276\n        /* \"#utility.yul\":2524:2529   */\n      dup3\n        /* \"#utility.yul\":2491:2530   */\n      tag_207\n      jump\t// in\n    tag_276:\n        /* \"#utility.yul\":2546:2617   */\n      tag_277\n        /* \"#utility.yul\":2610:2616   */\n      dup2\n        /* \"#utility.yul\":2605:2608   */\n      dup6\n        /* \"#utility.yul\":2546:2617   */\n      tag_208\n      jump\t// in\n    tag_277:\n        /* \"#utility.yul\":2539:2617   */\n      swap4\n      pop\n        /* \"#utility.yul\":2626:2691   */\n      tag_278\n        /* \"#utility.yul\":2684:2690   */\n      dup2\n        /* \"#utility.yul\":2679:2682   */\n      dup6\n        /* \"#utility.yul\":2672:2676   */\n      0x20\n        /* \"#utility.yul\":2665:2670   */\n      dup7\n        /* \"#utility.yul\":2661:2677   */\n      add\n        /* \"#utility.yul\":2626:2691   */\n      tag_209\n      jump\t// in\n    tag_278:\n        /* \"#utility.yul\":2716:2745   */\n      tag_279\n        /* \"#utility.yul\":2738:2744   */\n      dup2\n        /* \"#utility.yul\":2716:2745   */\n      tag_210\n      jump\t// in\n    tag_279:\n        /* \"#utility.yul\":2711:2714   */\n      dup5\n        /* \"#utility.yul\":2707:2746   */\n      add\n        /* \"#utility.yul\":2700:2746   */\n      swap2\n      pop\n        /* \"#utility.yul\":2467:2752   */\n      pop\n        /* \"#utility.yul\":2375:2752   */\n      swap3\n      swap2\n      pop\n      pop\n      jump\t// out\n        /* \"#utility.yul\":2758:3181   */\n    tag_29:\n        /* \"#utility.yul\":2899:2903   */\n      0x00\n        /* \"#utility.yul\":2937:2939   */\n      0x40\n        /* \"#utility.yul\":2926:2935   */\n      dup3\n        /* \"#utility.yul\":2922:2940   */\n      add\n        /* \"#utility.yul\":2914:2940   */\n      swap1\n      pop\n        /* \"#utility.yul\":2950:3021   */\n      tag_281\n        /* \"#utility.yul\":3018:3019   */\n      0x00\n        /* \"#utility.yul\":3007:3016   */\n      dup4\n        /* \"#utility.yul\":3003:3020   */\n      add\n        /* \"#utility.yul\":2994:3000   */\n      dup6\n        /* \"#utility.yul\":2950:3021   */\n      tag_206\n      jump\t// in\n    tag_281:\n        /* \"#utility.yul\":3068:3077   */\n      dup2\n        /* \"#utility.yul\":3062:3066   */\n      dup2\n        /* \"#utility.yul\":3058:3078   */\n      sub\n        /* \"#utility.yul\":3053:3055   */\n      0x20\n        /* \"#utility.yul\":3042:3051   */\n      dup4\n        /* \"#utility.yul\":3038:3056   */\n      add\n        /* \"#utility.yul\":3031:3079   */\n      mstore\n        /* \"#utility.yul\":3096:3174   */\n      tag_282\n        /* \"#utility.yul\":3169:3173   */\n      dup2\n        /* \"#utility.yul\":3160:3166   */\n      dup5\n        /* \"#utility.yul\":3096:3174   */\n      tag_211\n      jump\t// in\n    tag_282:\n        /* \"#utility.yul\":3088:3174   */\n      swap1\n      pop\n        /* \"#utility.yul\":2758:3181   */\n      swap4\n      swap3\n      pop\n      pop\n      pop\n      jump\t// out\n        /* \"#utility.yul\":3187:3247   */\n    tag_212:\n        /* \"#utility.yul\":3215:3218   */\n      0x00\n        /* \"#utility.yul\":3236:3241   */\n      dup2\n        /* \"#utility.yul\":3229:3241   */\n      swap1\n      pop\n        /* \"#utility.yul\":3187:3247   */\n      swap2\n      swap1\n      pop\n      jump\t// out\n        /* \"#utility.yul\":3253:3395   */\n    tag_213:\n        /* \"#utility.yul\":3303:3312   */\n      0x00\n        /* \"#utility.yul\":3336:3389   */\n      tag_285\n        /* \"#utility.yul\":3354:3388   */\n      tag_286\n        /* \"#utility.yul\":3363:3387   */\n      tag_287\n        /* \"#utility.yul\":3381:3386   */\n      dup5\n        /* \"#utility.yul\":3363:3387   */\n      tag_203\n      jump\t// in\n    tag_287:\n        /* \"#utility.yul\":3354:3388   */\n      tag_212\n      jump\t// in\n    tag_286:\n        /* \"#utility.yul\":3336:3389   */\n      tag_203\n      jump\t// in\n    tag_285:\n        /* \"#utility.yul\":3323:3389   */\n      swap1\n      pop\n        /* \"#utility.yul\":3253:3395   */\n      swap2\n      swap1\n      pop\n      jump\t// out\n        /* \"#utility.yul\":3401:3527   */\n    tag_214:\n        /* \"#utility.yul\":3451:3460   */\n      0x00\n        /* \"#utility.yul\":3484:3521   */\n      tag_289\n        /* \"#utility.yul\":3515:3520   */\n      dup3\n        /* \"#utility.yul\":3484:3521   */\n      tag_213\n      jump\t// in\n    tag_289:\n        /* \"#utility.yul\":3471:3521   */\n      swap1\n      pop\n        /* \"#utility.yul\":3401:3527   */\n      swap2\n      swap1\n      pop\n      jump\t// out\n        /* \"#utility.yul\":3533:3678   */\n    tag_215:\n        /* \"#utility.yul\":3602:3611   */\n      0x00\n        /* \"#utility.yul\":3635:3672   */\n      tag_291\n        /* \"#utility.yul\":3666:3671   */\n      dup3\n        /* \"#utility.yul\":3635:3672   */\n      tag_214\n      jump\t// in\n    tag_291:\n        /* \"#utility.yul\":3622:3672   */\n      swap1\n      pop\n        /* \"#utility.yul\":3533:3678   */\n      swap2\n      swap1\n      pop\n      jump\t// out\n        /* \"#utility.yul\":3684:3853   */\n    tag_216:\n        /* \"#utility.yul\":3790:3846   */\n      tag_293\n        /* \"#utility.yul\":3840:3845   */\n      dup2\n        /* \"#utility.yul\":3790:3846   */\n      tag_215\n      jump\t// in\n    tag_293:\n        /* \"#utility.yul\":3785:3788   */\n      dup3\n        /* \"#utility.yul\":3778:3847   */\n      mstore\n        /* \"#utility.yul\":3684:3853   */\n      pop\n      pop\n      jump\t// out\n        /* \"#utility.yul\":3859:4119   */\n    tag_33:\n        /* \"#utility.yul\":3971:3975   */\n      0x00\n        /* \"#utility.yul\":4009:4011   */\n      0x20\n        /* \"#utility.yul\":3998:4007   */\n      dup3\n        /* \"#utility.yul\":3994:4012   */\n      add\n        /* \"#utility.yul\":3986:4012   */\n      swap1\n      pop\n        /* \"#utility.yul\":4022:4112   */\n      tag_295\n        /* \"#utility.yul\":4109:4110   */\n      0x00\n        /* \"#utility.yul\":4098:4107   */\n      dup4\n        /* \"#utility.yul\":4094:4111   */\n      add\n        /* \"#utility.yul\":4085:4091   */\n      dup5\n        /* \"#utility.yul\":4022:4112   */\n      tag_216\n      jump\t// in\n    tag_295:\n        /* \"#utility.yul\":3859:4119   */\n      swap3\n      swap2\n      pop\n      pop\n      jump\t// out\n        /* \"#utility.yul\":4125:4347   */\n    tag_37:\n        /* \"#utility.yul\":4218:4222   */\n      0x00\n        /* \"#utility.yul\":4256:4258   */\n      0x20\n        /* \"#utility.yul\":4245:4254   */\n      dup3\n        /* \"#utility.yul\":4241:4259   */\n      add\n        /* \"#utility.yul\":4233:4259   */\n      swap1\n      pop\n        /* \"#utility.yul\":4269:4340   */\n      tag_297\n        /* \"#utility.yul\":4337:4338   */\n      0x00\n        /* \"#utility.yul\":4326:4335   */\n      dup4\n        /* \"#utility.yul\":4322:4339   */\n      add\n        /* \"#utility.yul\":4313:4319   */\n      dup5\n        /* \"#utility.yul\":4269:4340   */\n      tag_206\n      jump\t// in\n    tag_297:\n        /* \"#utility.yul\":4125:4347   */\n      swap3\n      swap2\n      pop\n      pop\n      jump\t// out\n        /* \"#utility.yul\":4353:4492   */\n    tag_217:\n        /* \"#utility.yul\":4416:4425   */\n      0x00\n        /* \"#utility.yul\":4449:4486   */\n      tag_299\n        /* \"#utility.yul\":4480:4485   */\n      dup3\n        /* \"#utility.yul\":4449:4486   */\n      tag_214\n      jump\t// in\n    tag_299:\n        /* \"#utility.yul\":4436:4486   */\n      swap1\n      pop\n        /* \"#utility.yul\":4353:4492   */\n      swap2\n      swap1\n      pop\n      jump\t// out\n        /* \"#utility.yul\":4498:4655   */\n    tag_218:\n        /* \"#utility.yul\":4598:4648   */\n      tag_301\n        /* \"#utility.yul\":4642:4647   */\n      dup2\n        /* \"#utility.yul\":4598:4648   */\n      tag_217\n      jump\t// in\n    tag_301:\n        /* \"#utility.yul\":4593:4596   */\n      dup3\n        /* \"#utility.yul\":4586:4649   */\n      mstore\n        /* \"#utility.yul\":4498:4655   */\n      pop\n      pop\n      jump\t// out\n        /* \"#utility.yul\":4661:4909   */\n    tag_44:\n        /* \"#utility.yul\":4767:4771   */\n      0x00\n        /* \"#utility.yul\":4805:4807   */\n      0x20\n        /* \"#utility.yul\":4794:4803   */\n      dup3\n        /* \"#utility.yul\":4790:4808   */\n      add\n        /* \"#utility.yul\":4782:4808   */\n      swap1\n      pop\n        /* \"#utility.yul\":4818:4902   */\n      tag_303\n        /* \"#utility.yul\":4899:4900   */\n      0x00\n        /* \"#utility.yul\":4888:4897   */\n      dup4\n        /* \"#utility.yul\":4884:4901   */\n      add\n        /* \"#utility.yul\":4875:4881   */\n      dup5\n        /* \"#utility.yul\":4818:4902   */\n      tag_218\n      jump\t// in\n    tag_303:\n        /* \"#utility.yul\":4661:4909   */\n      swap3\n      swap2\n      pop\n      pop\n      jump\t// out\n        /* \"#utility.yul\":4915:5247   */\n    tag_49:\n        /* \"#utility.yul\":5036:5040   */\n      0x00\n        /* \"#utility.yul\":5074:5076   */\n      0x40\n        /* \"#utility.yul\":5063:5072   */\n      dup3\n        /* \"#utility.yul\":5059:5077   */\n      add\n        /* \"#utility.yul\":5051:5077   */\n      swap1\n      pop\n        /* \"#utility.yul\":5087:5158   */\n      tag_305\n        /* \"#utility.yul\":5155:5156   */\n      0x00\n        /* \"#utility.yul\":5144:5153   */\n      dup4\n        /* \"#utility.yul\":5140:5157   */\n      add\n        /* \"#utility.yul\":5131:5137   */\n      dup6\n        /* \"#utility.yul\":5087:5158   */\n      tag_206\n      jump\t// in\n    tag_305:\n        /* \"#utility.yul\":5168:5240   */\n      tag_306\n        /* \"#utility.yul\":5236:5238   */\n      0x20\n        /* \"#utility.yul\":5225:5234   */\n      dup4\n        /* \"#utility.yul\":5221:5239   */\n      add\n        /* \"#utility.yul\":5212:5218   */\n      dup5\n        /* \"#utility.yul\":5168:5240   */\n      tag_206\n      jump\t// in\n    tag_306:\n        /* \"#utility.yul\":4915:5247   */\n      swap4\n      swap3\n      pop\n      pop\n      pop\n      jump\t// out\n        /* \"#utility.yul\":5253:5375   */\n    tag_219:\n        /* \"#utility.yul\":5326:5350   */\n      tag_308\n        /* \"#utility.yul\":5344:5349   */\n      dup2\n        /* \"#utility.yul\":5326:5350   */\n      tag_204\n      jump\t// in\n    tag_308:\n        /* \"#utility.yul\":5319:5324   */\n      dup2\n        /* \"#utility.yul\":5316:5351   */\n      eq\n        /* \"#utility.yul\":5306:5369   */\n      tag_309\n      jumpi\n        /* \"#utility.yul\":5365:5366   */\n      0x00\n        /* \"#utility.yul\":5362:5363   */\n      dup1\n        /* \"#utility.yul\":5355:5367   */\n      revert\n        /* \"#utility.yul\":5306:5369   */\n    tag_309:\n        /* \"#utility.yul\":5253:5375   */\n      pop\n      jump\t// out\n        /* \"#utility.yul\":5381:5520   */\n    tag_220:\n        /* \"#utility.yul\":5427:5432   */\n      0x00\n        /* \"#utility.yul\":5465:5471   */\n      dup2\n        /* \"#utility.yul\":5452:5472   */\n      calldataload\n        /* \"#utility.yul\":5443:5472   */\n      swap1\n      pop\n        /* \"#utility.yul\":5481:5514   */\n      tag_311\n        /* \"#utility.yul\":5508:5513   */\n      dup2\n        /* \"#utility.yul\":5481:5514   */\n      tag_219\n      jump\t// in\n    tag_311:\n        /* \"#utility.yul\":5381:5520   */\n      swap3\n      swap2\n      pop\n      pop\n      jump\t// out\n        /* \"#utility.yul\":5526:5855   */\n    tag_55:\n        /* \"#utility.yul\":5585:5591   */\n      0x00\n        /* \"#utility.yul\":5634:5636   */\n      0x20\n        /* \"#utility.yul\":5622:5631   */\n      dup3\n        /* \"#utility.yul\":5613:5620   */\n      dup5\n        /* \"#utility.yul\":5609:5632   */\n      sub\n        /* \"#utility.yul\":5605:5637   */\n      slt\n        /* \"#utility.yul\":5602:5721   */\n      iszero\n      tag_313\n      jumpi\n        /* \"#utility.yul\":5640:5719   */\n      tag_314\n      tag_198\n      jump\t// in\n    tag_314:\n        /* \"#utility.yul\":5602:5721   */\n    tag_313:\n        /* \"#utility.yul\":5760:5761   */\n      0x00\n        /* \"#utility.yul\":5785:5838   */\n      tag_315\n        /* \"#utility.yul\":5830:5837   */\n      dup5\n        /* \"#utility.yul\":5821:5827   */\n      dup3\n        /* \"#utility.yul\":5810:5819   */\n      dup6\n        /* \"#utility.yul\":5806:5828   */\n      add\n        /* \"#utility.yul\":5785:5838   */\n      tag_220\n      jump\t// in\n    tag_315:\n        /* \"#utility.yul\":5775:5838   */\n      swap2\n      pop\n        /* \"#utility.yul\":5731:5848   */\n      pop\n        /* \"#utility.yul\":5526:5855   */\n      swap3\n      swap2\n      pop\n      pop\n      jump\t// out\n        /* \"#utility.yul\":5861:6303   */\n    tag_65:\n        /* \"#utility.yul\":6010:6014   */\n      0x00\n        /* \"#utility.yul\":6048:6050   */\n      0x60\n        /* \"#utility.yul\":6037:6046   */\n      dup3\n        /* \"#utility.yul\":6033:6051   */\n      add\n        /* \"#utility.yul\":6025:6051   */\n      swap1\n      pop\n        /* \"#utility.yul\":6061:6132   */\n      tag_317\n        /* \"#utility.yul\":6129:6130   */\n      0x00\n        /* \"#utility.yul\":6118:6127   */\n      dup4\n        /* \"#utility.yul\":6114:6131   */\n      add\n        /* \"#utility.yul\":6105:6111   */\n      dup7\n        /* \"#utility.yul\":6061:6132   */\n      tag_206\n      jump\t// in\n    tag_317:\n        /* \"#utility.yul\":6142:6214   */\n      tag_318\n        /* \"#utility.yul\":6210:6212   */\n      0x20\n        /* \"#utility.yul\":6199:6208   */\n      dup4\n        /* \"#utility.yul\":6195:6213   */\n      add\n        /* \"#utility.yul\":6186:6192   */\n      dup6\n        /* \"#utility.yul\":6142:6214   */\n      tag_206\n      jump\t// in\n    tag_318:\n        /* \"#utility.yul\":6224:6296   */\n      tag_319\n        /* \"#utility.yul\":6292:6294   */\n      0x40\n        /* \"#utility.yul\":6281:6290   */\n      dup4\n        /* \"#utility.yul\":6277:6295   */\n      add\n        /* \"#utility.yul\":6268:6274   */\n      dup5\n        /* \"#utility.yul\":6224:6296   */\n      tag_206\n      jump\t// in\n    tag_319:\n        /* \"#utility.yul\":5861:6303   */\n      swap5\n      swap4\n      pop\n      pop\n      pop\n      pop\n      jump\t// out\n        /* \"#utility.yul\":6309:6475   */\n    tag_221:\n        /* \"#utility.yul\":6449:6467   */\n      0x416d6f756e7420746f6f20736d616c6c00000000000000000000000000000000\n        /* \"#utility.yul\":6445:6446   */\n      0x00\n        /* \"#utility.yul\":6437:6443   */\n      dup3\n        /* \"#utility.yul\":6433:6447   */\n      add\n        /* \"#utility.yul\":6426:6468   */\n      mstore\n        /* \"#utility.yul\":6309:6475   */\n      pop\n      jump\t// out\n        /* \"#utility.yul\":6481:6847   */\n    tag_222:\n        /* \"#utility.yul\":6623:6626   */\n      0x00\n        /* \"#utility.yul\":6644:6711   */\n      tag_322\n        /* \"#utility.yul\":6708:6710   */\n      0x10\n        /* \"#utility.yul\":6703:6706   */\n      dup4\n        /* \"#utility.yul\":6644:6711   */\n      tag_208\n      jump\t// in\n    tag_322:\n        /* \"#utility.yul\":6637:6711   */\n      swap2\n      pop\n        /* \"#utility.yul\":6720:6813   */\n      tag_323\n        /* \"#utility.yul\":6809:6812   */\n      dup3\n        /* \"#utility.yul\":6720:6813   */\n      tag_221\n      jump\t// in\n    tag_323:\n        /* \"#utility.yul\":6838:6840   */\n      0x20\n        /* \"#utility.yul\":6833:6836   */\n      dup3\n        /* \"#utility.yul\":6829:6841   */\n      add\n        /* \"#utility.yul\":6822:6841   */\n      swap1\n      pop\n        /* \"#utility.yul\":6481:6847   */\n      swap2\n      swap1\n      pop\n      jump\t// out\n        /* \"#utility.yul\":6853:7272   */\n    tag_72:\n        /* \"#utility.yul\":7019:7023   */\n      0x00\n        /* \"#utility.yul\":7057:7059   */\n      0x20\n        /* \"#utility.yul\":7046:7055   */\n      dup3\n        /* \"#utility.yul\":7042:7060   */\n      add\n        /* \"#utility.yul\":7034:7060   */\n      swap1\n      pop\n        /* \"#utility.yul\":7106:7115   */\n      dup2\n        /* \"#utility.yul\":7100:7104   */\n      dup2\n        /* \"#utility.yul\":7096:7116   */\n      sub\n        /* \"#utility.yul\":7092:7093   */\n      0x00\n        /* \"#utility.yul\":7081:7090   */\n      dup4\n        /* \"#utility.yul\":7077:7094   */\n      add\n        /* \"#utility.yul\":7070:7117   */\n      mstore\n        /* \"#utility.yul\":7134:7265   */\n      tag_325\n        /* \"#utility.yul\":7260:7264   */\n      dup2\n        /* \"#utility.yul\":7134:7265   */\n      tag_222\n      jump\t// in\n    tag_325:\n        /* \"#utility.yul\":7126:7265   */\n      swap1\n      pop\n        /* \"#utility.yul\":6853:7272   */\n      swap2\n      swap1\n      pop\n      jump\t// out\n        /* \"#utility.yul\":7278:7421   */\n    tag_223:\n        /* \"#utility.yul\":7335:7340   */\n      0x00\n        /* \"#utility.yul\":7366:7372   */\n      dup2\n        /* \"#utility.yul\":7360:7373   */\n      mload\n        /* \"#utility.yul\":7351:7373   */\n      swap1\n      pop\n        /* \"#utility.yul\":7382:7415   */\n      tag_327\n        /* \"#utility.yul\":7409:7414   */\n      dup2\n        /* \"#utility.yul\":7382:7415   */\n      tag_201\n      jump\t// in\n    tag_327:\n        /* \"#utility.yul\":7278:7421   */\n      swap3\n      swap2\n      pop\n      pop\n      jump\t// out\n        /* \"#utility.yul\":7427:7778   */\n    tag_76:\n        /* \"#utility.yul\":7497:7503   */\n      0x00\n        /* \"#utility.yul\":7546:7548   */\n      0x20\n        /* \"#utility.yul\":7534:7543   */\n      dup3\n        /* \"#utility.yul\":7525:7532   */\n      dup5\n        /* \"#utility.yul\":7521:7544   */\n      sub\n        /* \"#utility.yul\":7517:7549   */\n      slt\n        /* \"#utility.yul\":7514:7633   */\n      iszero\n      tag_329\n      jumpi\n        /* \"#utility.yul\":7552:7631   */\n      tag_330\n      tag_198\n      jump\t// in\n    tag_330:\n        /* \"#utility.yul\":7514:7633   */\n    tag_329:\n        /* \"#utility.yul\":7672:7673   */\n      0x00\n        /* \"#utility.yul\":7697:7761   */\n      tag_331\n        /* \"#utility.yul\":7753:7760   */\n      dup5\n        /* \"#utility.yul\":7744:7750   */\n      dup3\n        /* \"#utility.yul\":7733:7742   */\n      dup6\n        /* \"#utility.yul\":7729:7751   */\n      add\n        /* \"#utility.yul\":7697:7761   */\n      tag_223\n      jump\t// in\n    tag_331:\n        /* \"#utility.yul\":7687:7761   */\n      swap2\n      pop\n        /* \"#utility.yul\":7643:7771   */\n      pop\n        /* \"#utility.yul\":7427:7778   */\n      swap3\n      swap2\n      pop\n      pop\n      jump\t// out\n        /* \"#utility.yul\":7784:7947   */\n    tag_224:\n        /* \"#utility.yul\":7924:7939   */\n      0x496e76616c696420707269636500000000000000000000000000000000000000\n        /* \"#utility.yul\":7920:7921   */\n      0x00\n        /* \"#utility.yul\":7912:7918   */\n      dup3\n        /* \"#utility.yul\":7908:7922   */\n      add\n        /* \"#utility.yul\":7901:7940   */\n      mstore\n        /* \"#utility.yul\":7784:7947   */\n      pop\n      jump\t// out\n        /* \"#utility.yul\":7953:8319   */\n    tag_225:\n        /* \"#utility.yul\":8095:8098   */\n      0x00\n        /* \"#utility.yul\":8116:8183   */\n      tag_334\n        /* \"#utility.yul\":8180:8182   */\n      0x0d\n        /* \"#utility.yul\":8175:8178   */\n      dup4\n        /* \"#utility.yul\":8116:8183   */\n      tag_208\n      jump\t// in\n    tag_334:\n        /* \"#utility.yul\":8109:8183   */\n      swap2\n      pop\n        /* \"#utility.yul\":8192:8285   */\n      tag_335\n        /* \"#utility.yul\":8281:8284   */\n      dup3\n        /* \"#utility.yul\":8192:8285   */\n      tag_224\n      jump\t// in\n    tag_335:\n        /* \"#utility.yul\":8310:8312   */\n      0x20\n        /* \"#utility.yul\":8305:8308   */\n      dup3\n        /* \"#utility.yul\":8301:8313   */\n      add\n        /* \"#utility.yul\":8294:8313   */\n      swap1\n      pop\n        /* \"#utility.yul\":7953:8319   */\n      swap2\n      swap1\n      pop\n      jump\t// out\n        /* \"#utility.yul\":8325:8744   */\n    tag_79:\n        /* \"#utility.yul\":8491:8495   */\n      0x00\n        /* \"#utility.yul\":8529:8531   */\n      0x20\n        /* \"#utility.yul\":8518:8527   */\n      dup3\n        /* \"#utility.yul\":8514:8532   */\n      add\n        /* \"#utility.yul\":8506:8532   */\n      swap1\n      pop\n        /* \"#utility.yul\":8578:8587   */\n      dup2\n        /* \"#utility.yul\":8572:8576   */\n      dup2\n        /* \"#utility.yul\":8568:8588   */\n      sub\n        /* \"#utility.yul\":8564:8565   */\n      0x00\n        /* \"#utility.yul\":8553:8562   */\n      dup4\n        /* \"#utility.yul\":8549:8566   */\n      add\n        /* \"#utility.yul\":8542:8589   */\n      mstore\n        /* \"#utility.yul\":8606:8737   */\n      tag_337\n        /* \"#utility.yul\":8732:8736   */\n      dup2\n        /* \"#utility.yul\":8606:8737   */\n      tag_225\n      jump\t// in\n    tag_337:\n        /* \"#utility.yul\":8598:8737   */\n      swap1\n      pop\n        /* \"#utility.yul\":8325:8744   */\n      swap2\n      swap1\n      pop\n      jump\t// out\n        /* \"#utility.yul\":8750:8930   */\n    tag_226:\n        /* \"#utility.yul\":8798:8875   */\n      0x4e487b7100000000000000000000000000000000000000000000000000000000\n        /* \"#utility.yul\":8795:8796   */\n      0x00\n        /* \"#utility.yul\":8788:8876   */\n      mstore\n        /* \"#utility.yul\":8895:8899   */\n      0x12\n        /* \"#utility.yul\":8892:8893   */\n      0x04\n        /* \"#utility.yul\":8885:8900   */\n      mstore\n        /* \"#utility.yul\":8919:8923   */\n      0x24\n        /* \"#utility.yul\":8916:8917   */\n      0x00\n        /* \"#utility.yul\":8909:8924   */\n      revert\n        /* \"#utility.yul\":8936:9116   */\n    tag_227:\n        /* \"#utility.yul\":8984:9061   */\n      0x4e487b7100000000000000000000000000000000000000000000000000000000\n        /* \"#utility.yul\":8981:8982   */\n      0x00\n        /* \"#utility.yul\":8974:9062   */\n      mstore\n        /* \"#utility.yul\":9081:9085   */\n      0x11\n        /* \"#utility.yul\":9078:9079   */\n      0x04\n        /* \"#utility.yul\":9071:9086   */\n      mstore\n        /* \"#utility.yul\":9105:9109   */\n      0x24\n        /* \"#utility.yul\":9102:9103   */\n      0x00\n        /* \"#utility.yul\":9095:9110   */\n      revert\n        /* \"#utility.yul\":9122:9307   */\n    tag_81:\n        /* \"#utility.yul\":9162:9163   */\n      0x00\n        /* \"#utility.yul\":9179:9199   */\n      tag_341\n        /* \"#utility.yul\":9197:9198   */\n      dup3\n        /* \"#utility.yul\":9179:9199   */\n      tag_200\n      jump\t// in\n    tag_341:\n        /* \"#utility.yul\":9174:9199   */\n      swap2\n      pop\n        /* \"#utility.yul\":9213:9233   */\n      tag_342\n        /* \"#utility.yul\":9231:9232   */\n      dup4\n        /* \"#utility.yul\":9213:9233   */\n      tag_200\n      jump\t// in\n    tag_342:\n        /* \"#utility.yul\":9208:9233   */\n      swap3\n      pop\n        /* \"#utility.yul\":9252:9253   */\n      dup3\n        /* \"#utility.yul\":9242:9277   */\n      tag_343\n      jumpi\n        /* \"#utility.yul\":9257:9275   */\n      tag_344\n      tag_226\n      jump\t// in\n    tag_344:\n        /* \"#utility.yul\":9242:9277   */\n    tag_343:\n        /* \"#utility.yul\":9299:9300   */\n      dup3\n        /* \"#utility.yul\":9296:9297   */\n      dup3\n        /* \"#utility.yul\":9292:9301   */\n      div\n        /* \"#utility.yul\":9287:9301   */\n      swap1\n      pop\n        /* \"#utility.yul\":9122:9307   */\n      swap3\n      swap2\n      pop\n      pop\n      jump\t// out\n        /* \"#utility.yul\":9313:9494   */\n    tag_228:\n        /* \"#utility.yul\":9453:9486   */\n      0x496e73756666696369656e7420616d6f756e7420666f72203120736861726500\n        /* \"#utility.yul\":9449:9450   */\n      0x00\n        /* \"#utility.yul\":9441:9447   */\n      dup3\n        /* \"#utility.yul\":9437:9451   */\n      add\n        /* \"#utility.yul\":9430:9487   */\n      mstore\n        /* \"#utility.yul\":9313:9494   */\n      pop\n      jump\t// out\n        /* \"#utility.yul\":9500:9866   */\n    tag_229:\n        /* \"#utility.yul\":9642:9645   */\n      0x00\n        /* \"#utility.yul\":9663:9730   */\n      tag_347\n        /* \"#utility.yul\":9727:9729   */\n      0x1f\n        /* \"#utility.yul\":9722:9725   */\n      dup4\n        /* \"#utility.yul\":9663:9730   */\n      tag_208\n      jump\t// in\n    tag_347:\n        /* \"#utility.yul\":9656:9730   */\n      swap2\n      pop\n        /* \"#utility.yul\":9739:9832   */\n      tag_348\n        /* \"#utility.yul\":9828:9831   */\n      dup3\n        /* \"#utility.yul\":9739:9832   */\n      tag_228\n      jump\t// in\n    tag_348:\n        /* \"#utility.yul\":9857:9859   */\n      0x20\n        /* \"#utility.yul\":9852:9855   */\n      dup3\n        /* \"#utility.yul\":9848:9860   */\n      add\n        /* \"#utility.yul\":9841:9860   */\n      swap1\n      pop\n        /* \"#utility.yul\":9500:9866   */\n      swap2\n      swap1\n      pop\n      jump\t// out\n        /* \"#utility.yul\":9872:10291   */\n    tag_84:\n        /* \"#utility.yul\":10038:10042   */\n      0x00\n        /* \"#utility.yul\":10076:10078   */\n      0x20\n        /* \"#utility.yul\":10065:10074   */\n      dup3\n        /* \"#utility.yul\":10061:10079   */\n      add\n        /* \"#utility.yul\":10053:10079   */\n      swap1\n      pop\n        /* \"#utility.yul\":10125:10134   */\n      dup2\n        /* \"#utility.yul\":10119:10123   */\n      dup2\n        /* \"#utility.yul\":10115:10135   */\n      sub\n        /* \"#utility.yul\":10111:10112   */\n      0x00\n        /* \"#utility.yul\":10100:10109   */\n      dup4\n        /* \"#utility.yul\":10096:10113   */\n      add\n        /* \"#utility.yul\":10089:10136   */\n      mstore\n        /* \"#utility.yul\":10153:10284   */\n      tag_350\n        /* \"#utility.yul\":10279:10283   */\n      dup2\n        /* \"#utility.yul\":10153:10284   */\n      tag_229\n      jump\t// in\n    tag_350:\n        /* \"#utility.yul\":10145:10284   */\n      swap1\n      pop\n        /* \"#utility.yul\":9872:10291   */\n      swap2\n      swap1\n      pop\n      jump\t// out\n        /* \"#utility.yul\":10297:10707   */\n    tag_86:\n        /* \"#utility.yul\":10337:10344   */\n      0x00\n        /* \"#utility.yul\":10360:10380   */\n      tag_352\n        /* \"#utility.yul\":10378:10379   */\n      dup3\n        /* \"#utility.yul\":10360:10380   */\n      tag_200\n      jump\t// in\n    tag_352:\n        /* \"#utility.yul\":10355:10380   */\n      swap2\n      pop\n        /* \"#utility.yul\":10394:10414   */\n      tag_353\n        /* \"#utility.yul\":10412:10413   */\n      dup4\n        /* \"#utility.yul\":10394:10414   */\n      tag_200\n      jump\t// in\n    tag_353:\n        /* \"#utility.yul\":10389:10414   */\n      swap3\n      pop\n        /* \"#utility.yul\":10449:10450   */\n      dup3\n        /* \"#utility.yul\":10446:10447   */\n      dup3\n        /* \"#utility.yul\":10442:10451   */\n      mul\n        /* \"#utility.yul\":10471:10501   */\n      tag_354\n        /* \"#utility.yul\":10489:10500   */\n      dup2\n        /* \"#utility.yul\":10471:10501   */\n      tag_200\n      jump\t// in\n    tag_354:\n        /* \"#utility.yul\":10460:10501   */\n      swap2\n      pop\n        /* \"#utility.yul\":10650:10651   */\n      dup3\n        /* \"#utility.yul\":10641:10648   */\n      dup3\n        /* \"#utility.yul\":10637:10652   */\n      div\n        /* \"#utility.yul\":10634:10635   */\n      dup5\n        /* \"#utility.yul\":10631:10653   */\n      eq\n        /* \"#utility.yul\":10611:10612   */\n      dup4\n        /* \"#utility.yul\":10604:10613   */\n      iszero\n        /* \"#utility.yul\":10584:10667   */\n      or\n        /* \"#utility.yul\":10561:10700   */\n      tag_355\n      jumpi\n        /* \"#utility.yul\":10680:10698   */\n      tag_356\n      tag_227\n      jump\t// in\n    tag_356:\n        /* \"#utility.yul\":10561:10700   */\n    tag_355:\n        /* \"#utility.yul\":10345:10707   */\n      pop\n        /* \"#utility.yul\":10297:10707   */\n      swap3\n      swap2\n      pop\n      pop\n      jump\t// out\n        /* \"#utility.yul\":10713:11155   */\n    tag_88:\n        /* \"#utility.yul\":10862:10866   */\n      0x00\n        /* \"#utility.yul\":10900:10902   */\n      0x60\n        /* \"#utility.yul\":10889:10898   */\n      dup3\n        /* \"#utility.yul\":10885:10903   */\n      add\n        /* \"#utility.yul\":10877:10903   */\n      swap1\n      pop\n        /* \"#utility.yul\":10913:10984   */\n      tag_358\n        /* \"#utility.yul\":10981:10982   */\n      0x00\n        /* \"#utility.yul\":10970:10979   */\n      dup4\n        /* \"#utility.yul\":10966:10983   */\n      add\n        /* \"#utility.yul\":10957:10963   */\n      dup7\n        /* \"#utility.yul\":10913:10984   */\n      tag_205\n      jump\t// in\n    tag_358:\n        /* \"#utility.yul\":10994:11066   */\n      tag_359\n        /* \"#utility.yul\":11062:11064   */\n      0x20\n        /* \"#utility.yul\":11051:11060   */\n      dup4\n        /* \"#utility.yul\":11047:11065   */\n      add\n        /* \"#utility.yul\":11038:11044   */\n      dup6\n        /* \"#utility.yul\":10994:11066   */\n      tag_205\n      jump\t// in\n    tag_359:\n        /* \"#utility.yul\":11076:11148   */\n      tag_360\n        /* \"#utility.yul\":11144:11146   */\n      0x40\n        /* \"#utility.yul\":11133:11142   */\n      dup4\n        /* \"#utility.yul\":11129:11147   */\n      add\n        /* \"#utility.yul\":11120:11126   */\n      dup5\n        /* \"#utility.yul\":11076:11148   */\n      tag_206\n      jump\t// in\n    tag_360:\n        /* \"#utility.yul\":10713:11155   */\n      swap5\n      swap4\n      pop\n      pop\n      pop\n      pop\n      jump\t// out\n        /* \"#utility.yul\":11161:11251   */\n    tag_230:\n        /* \"#utility.yul\":11195:11202   */\n      0x00\n        /* \"#utility.yul\":11238:11243   */\n      dup2\n        /* \"#utility.yul\":11231:11244   */\n      iszero\n        /* \"#utility.yul\":11224:11245   */\n      iszero\n        /* \"#utility.yul\":11213:11245   */\n      swap1\n      pop\n        /* \"#utility.yul\":11161:11251   */\n      swap2\n      swap1\n      pop\n      jump\t// out\n        /* \"#utility.yul\":11257:11373   */\n    tag_231:\n        /* \"#utility.yul\":11327:11348   */\n      tag_363\n        /* \"#utility.yul\":11342:11347   */\n      dup2\n        /* \"#utility.yul\":11327:11348   */\n      tag_230\n      jump\t// in\n    tag_363:\n        /* \"#utility.yul\":11320:11325   */\n      dup2\n        /* \"#utility.yul\":11317:11349   */\n      eq\n        /* \"#utility.yul\":11307:11367   */\n      tag_364\n      jumpi\n        /* \"#utility.yul\":11363:11364   */\n      0x00\n        /* \"#utility.yul\":11360:11361   */\n      dup1\n        /* \"#utility.yul\":11353:11365   */\n      revert\n        /* \"#utility.yul\":11307:11367   */\n    tag_364:\n        /* \"#utility.yul\":11257:11373   */\n      pop\n      jump\t// out\n        /* \"#utility.yul\":11379:11516   */\n    tag_232:\n        /* \"#utility.yul\":11433:11438   */\n      0x00\n        /* \"#utility.yul\":11464:11470   */\n      dup2\n        /* \"#utility.yul\":11458:11471   */\n      mload\n        /* \"#utility.yul\":11449:11471   */\n      swap1\n      pop\n        /* \"#utility.yul\":11480:11510   */\n      tag_366\n        /* \"#utility.yul\":11504:11509   */\n      dup2\n        /* \"#utility.yul\":11480:11510   */\n      tag_231\n      jump\t// in\n    tag_366:\n        /* \"#utility.yul\":11379:11516   */\n      swap3\n      swap2\n      pop\n      pop\n      jump\t// out\n        /* \"#utility.yul\":11522:11867   */\n    tag_92:\n        /* \"#utility.yul\":11589:11595   */\n      0x00\n        /* \"#utility.yul\":11638:11640   */\n      0x20\n        /* \"#utility.yul\":11626:11635   */\n      dup3\n        /* \"#utility.yul\":11617:11624   */\n      dup5\n        /* \"#utility.yul\":11613:11636   */\n      sub\n        /* \"#utility.yul\":11609:11641   */\n      slt\n        /* \"#utility.yul\":11606:11725   */\n      iszero\n      tag_368\n      jumpi\n        /* \"#utility.yul\":11644:11723   */\n      tag_369\n      tag_198\n      jump\t// in\n    tag_369:\n        /* \"#utility.yul\":11606:11725   */\n    tag_368:\n        /* \"#utility.yul\":11764:11765   */\n      0x00\n        /* \"#utility.yul\":11789:11850   */\n      tag_370\n        /* \"#utility.yul\":11842:11849   */\n      dup5\n        /* \"#utility.yul\":11833:11839   */\n      dup3\n        /* \"#utility.yul\":11822:11831   */\n      dup6\n        /* \"#utility.yul\":11818:11840   */\n      add\n        /* \"#utility.yul\":11789:11850   */\n      tag_232\n      jump\t// in\n    tag_370:\n        /* \"#utility.yul\":11779:11850   */\n      swap2\n      pop\n        /* \"#utility.yul\":11735:11860   */\n      pop\n        /* \"#utility.yul\":11522:11867   */\n      swap3\n      swap2\n      pop\n      pop\n      jump\t// out\n        /* \"#utility.yul\":11873:12043   */\n    tag_233:\n        /* \"#utility.yul\":12013:12035   */\n      0x55534474207472616e73666572206661696c6564000000000000000000000000\n        /* \"#utility.yul\":12009:12010   */\n      0x00\n        /* \"#utility.yul\":12001:12007   */\n      dup3\n        /* \"#utility.yul\":11997:12011   */\n      add\n        /* \"#utility.yul\":11990:12036   */\n      mstore\n        /* \"#utility.yul\":11873:12043   */\n      pop\n      jump\t// out\n        /* \"#utility.yul\":12049:12415   */\n    tag_234:\n        /* \"#utility.yul\":12191:12194   */\n      0x00\n        /* \"#utility.yul\":12212:12279   */\n      tag_373\n        /* \"#utility.yul\":12276:12278   */\n      0x14\n        /* \"#utility.yul\":12271:12274   */\n      dup4\n        /* \"#utility.yul\":12212:12279   */\n      tag_208\n      jump\t// in\n    tag_373:\n        /* \"#utility.yul\":12205:12279   */\n      swap2\n      pop\n        /* \"#utility.yul\":12288:12381   */\n      tag_374\n        /* \"#utility.yul\":12377:12380   */\n      dup3\n        /* \"#utility.yul\":12288:12381   */\n      tag_233\n      jump\t// in\n    tag_374:\n        /* \"#utility.yul\":12406:12408   */\n      0x20\n        /* \"#utility.yul\":12401:12404   */\n      dup3\n        /* \"#utility.yul\":12397:12409   */\n      add\n        /* \"#utility.yul\":12390:12409   */\n      swap1\n      pop\n        /* \"#utility.yul\":12049:12415   */\n      swap2\n      swap1\n      pop\n      jump\t// out\n        /* \"#utility.yul\":12421:12840   */\n    tag_95:\n        /* \"#utility.yul\":12587:12591   */\n      0x00\n        /* \"#utility.yul\":12625:12627   */\n      0x20\n        /* \"#utility.yul\":12614:12623   */\n      dup3\n        /* \"#utility.yul\":12610:12628   */\n      add\n        /* \"#utility.yul\":12602:12628   */\n      swap1\n      pop\n        /* \"#utility.yul\":12674:12683   */\n      dup2\n        /* \"#utility.yul\":12668:12672   */\n      dup2\n        /* \"#utility.yul\":12664:12684   */\n      sub\n        /* \"#utility.yul\":12660:12661   */\n      0x00\n        /* \"#utility.yul\":12649:12658   */\n      dup4\n        /* \"#utility.yul\":12645:12662   */\n      add\n        /* \"#utility.yul\":12638:12685   */\n      mstore\n        /* \"#utility.yul\":12702:12833   */\n      tag_376\n        /* \"#utility.yul\":12828:12832   */\n      dup2\n        /* \"#utility.yul\":12702:12833   */\n      tag_234\n      jump\t// in\n    tag_376:\n        /* \"#utility.yul\":12694:12833   */\n      swap1\n      pop\n        /* \"#utility.yul\":12421:12840   */\n      swap2\n      swap1\n      pop\n      jump\t// out\n        /* \"#utility.yul\":12846:13017   */\n    tag_235:\n        /* \"#utility.yul\":12986:13009   */\n      0x3030353074207472616e73666572206661696c65640000000000000000000000\n        /* \"#utility.yul\":12982:12983   */\n      0x00\n        /* \"#utility.yul\":12974:12980   */\n      dup3\n        /* \"#utility.yul\":12970:12984   */\n      add\n        /* \"#utility.yul\":12963:13010   */\n      mstore\n        /* \"#utility.yul\":12846:13017   */\n      pop\n      jump\t// out\n        /* \"#utility.yul\":13023:13389   */\n    tag_236:\n        /* \"#utility.yul\":13165:13168   */\n      0x00\n        /* \"#utility.yul\":13186:13253   */\n      tag_379\n        /* \"#utility.yul\":13250:13252   */\n      0x15\n        /* \"#utility.yul\":13245:13248   */\n      dup4\n        /* \"#utility.yul\":13186:13253   */\n      tag_208\n      jump\t// in\n    tag_379:\n        /* \"#utility.yul\":13179:13253   */\n      swap2\n      pop\n        /* \"#utility.yul\":13262:13355   */\n      tag_380\n        /* \"#utility.yul\":13351:13354   */\n      dup3\n        /* \"#utility.yul\":13262:13355   */\n      tag_235\n      jump\t// in\n    tag_380:\n        /* \"#utility.yul\":13380:13382   */\n      0x20\n        /* \"#utility.yul\":13375:13378   */\n      dup3\n        /* \"#utility.yul\":13371:13383   */\n      add\n        /* \"#utility.yul\":13364:13383   */\n      swap1\n      pop\n        /* \"#utility.yul\":13023:13389   */\n      swap2\n      swap1\n      pop\n      jump\t// out\n        /* \"#utility.yul\":13395:13814   */\n    tag_102:\n        /* \"#utility.yul\":13561:13565   */\n      0x00\n        /* \"#utility.yul\":13599:13601   */\n      0x20\n        /* \"#utility.yul\":13588:13597   */\n      dup3\n        /* \"#utility.yul\":13584:13602   */\n      add\n        /* \"#utility.yul\":13576:13602   */\n      swap1\n      pop\n        /* \"#utility.yul\":13648:13657   */\n      dup2\n        /* \"#utility.yul\":13642:13646   */\n      dup2\n        /* \"#utility.yul\":13638:13658   */\n      sub\n        /* \"#utility.yul\":13634:13635   */\n      0x00\n        /* \"#utility.yul\":13623:13632   */\n      dup4\n        /* \"#utility.yul\":13619:13636   */\n      add\n        /* \"#utility.yul\":13612:13659   */\n      mstore\n        /* \"#utility.yul\":13676:13807   */\n      tag_382\n        /* \"#utility.yul\":13802:13806   */\n      dup2\n        /* \"#utility.yul\":13676:13807   */\n      tag_236\n      jump\t// in\n    tag_382:\n        /* \"#utility.yul\":13668:13807   */\n      swap1\n      pop\n        /* \"#utility.yul\":13395:13814   */\n      swap2\n      swap1\n      pop\n      jump\t// out\n        /* \"#utility.yul\":13820:13996   */\n    tag_110:\n        /* \"#utility.yul\":13852:13853   */\n      0x00\n        /* \"#utility.yul\":13869:13889   */\n      tag_384\n        /* \"#utility.yul\":13887:13888   */\n      dup3\n        /* \"#utility.yul\":13869:13889   */\n      tag_200\n      jump\t// in\n    tag_384:\n        /* \"#utility.yul\":13864:13889   */\n      swap2\n      pop\n        /* \"#utility.yul\":13903:13923   */\n      tag_385\n        /* \"#utility.yul\":13921:13922   */\n      dup4\n        /* \"#utility.yul\":13903:13923   */\n      tag_200\n      jump\t// in\n    tag_385:\n        /* \"#utility.yul\":13898:13923   */\n      swap3\n      pop\n        /* \"#utility.yul\":13942:13943   */\n      dup3\n        /* \"#utility.yul\":13932:13967   */\n      tag_386\n      jumpi\n        /* \"#utility.yul\":13947:13965   */\n      tag_387\n      tag_226\n      jump\t// in\n    tag_387:\n        /* \"#utility.yul\":13932:13967   */\n    tag_386:\n        /* \"#utility.yul\":13988:13989   */\n      dup3\n        /* \"#utility.yul\":13985:13986   */\n      dup3\n        /* \"#utility.yul\":13981:13990   */\n      mod\n        /* \"#utility.yul\":13976:13990   */\n      swap1\n      pop\n        /* \"#utility.yul\":13820:13996   */\n      swap3\n      swap2\n      pop\n      pop\n      jump\t// out\n        /* \"#utility.yul\":14002:14150   */\n    tag_237:\n        /* \"#utility.yul\":14104:14115   */\n      0x00\n        /* \"#utility.yul\":14141:14144   */\n      dup2\n        /* \"#utility.yul\":14126:14144   */\n      swap1\n      pop\n        /* \"#utility.yul\":14002:14150   */\n      swap3\n      swap2\n      pop\n      pop\n      jump\t// out\n        /* \"#utility.yul\":14156:14307   */\n    tag_238:\n        /* \"#utility.yul\":14296:14299   */\n      0x2400000000000000000000000000000000000000000000000000000000000000\n        /* \"#utility.yul\":14292:14293   */\n      0x00\n        /* \"#utility.yul\":14284:14290   */\n      dup3\n        /* \"#utility.yul\":14280:14294   */\n      add\n        /* \"#utility.yul\":14273:14300   */\n      mstore\n        /* \"#utility.yul\":14156:14307   */\n      pop\n      jump\t// out\n        /* \"#utility.yul\":14313:14713   */\n    tag_239:\n        /* \"#utility.yul\":14473:14476   */\n      0x00\n        /* \"#utility.yul\":14494:14578   */\n      tag_391\n        /* \"#utility.yul\":14576:14577   */\n      0x01\n        /* \"#utility.yul\":14571:14574   */\n      dup4\n        /* \"#utility.yul\":14494:14578   */\n      tag_237\n      jump\t// in\n    tag_391:\n        /* \"#utility.yul\":14487:14578   */\n      swap2\n      pop\n        /* \"#utility.yul\":14587:14680   */\n      tag_392\n        /* \"#utility.yul\":14676:14679   */\n      dup3\n        /* \"#utility.yul\":14587:14680   */\n      tag_238\n      jump\t// in\n    tag_392:\n        /* \"#utility.yul\":14705:14706   */\n      0x01\n        /* \"#utility.yul\":14700:14703   */\n      dup3\n        /* \"#utility.yul\":14696:14707   */\n      add\n        /* \"#utility.yul\":14689:14707   */\n      swap1\n      pop\n        /* \"#utility.yul\":14313:14713   */\n      swap2\n      swap1\n      pop\n      jump\t// out\n        /* \"#utility.yul\":14719:15109   */\n    tag_240:\n        /* \"#utility.yul\":14825:14828   */\n      0x00\n        /* \"#utility.yul\":14853:14892   */\n      tag_394\n        /* \"#utility.yul\":14886:14891   */\n      dup3\n        /* \"#utility.yul\":14853:14892   */\n      tag_207\n      jump\t// in\n    tag_394:\n        /* \"#utility.yul\":14908:14997   */\n      tag_395\n        /* \"#utility.yul\":14990:14996   */\n      dup2\n        /* \"#utility.yul\":14985:14988   */\n      dup6\n        /* \"#utility.yul\":14908:14997   */\n      tag_237\n      jump\t// in\n    tag_395:\n        /* \"#utility.yul\":14901:14997   */\n      swap4\n      pop\n        /* \"#utility.yul\":15006:15071   */\n      tag_396\n        /* \"#utility.yul\":15064:15070   */\n      dup2\n        /* \"#utility.yul\":15059:15062   */\n      dup6\n        /* \"#utility.yul\":15052:15056   */\n      0x20\n        /* \"#utility.yul\":15045:15050   */\n      dup7\n        /* \"#utility.yul\":15041:15057   */\n      add\n        /* \"#utility.yul\":15006:15071   */\n      tag_209\n      jump\t// in\n    tag_396:\n        /* \"#utility.yul\":15096:15102   */\n      dup1\n        /* \"#utility.yul\":15091:15094   */\n      dup5\n        /* \"#utility.yul\":15087:15103   */\n      add\n        /* \"#utility.yul\":15080:15103   */\n      swap2\n      pop\n        /* \"#utility.yul\":14829:15109   */\n      pop\n        /* \"#utility.yul\":14719:15109   */\n      swap3\n      swap2\n      pop\n      pop\n      jump\t// out\n        /* \"#utility.yul\":15115:15267   */\n    tag_241:\n        /* \"#utility.yul\":15255:15259   */\n      0x2e30000000000000000000000000000000000000000000000000000000000000\n        /* \"#utility.yul\":15251:15252   */\n      0x00\n        /* \"#utility.yul\":15243:15249   */\n      dup3\n        /* \"#utility.yul\":15239:15253   */\n      add\n        /* \"#utility.yul\":15232:15260   */\n      mstore\n        /* \"#utility.yul\":15115:15267   */\n      pop\n      jump\t// out\n        /* \"#utility.yul\":15273:15673   */\n    tag_242:\n        /* \"#utility.yul\":15433:15436   */\n      0x00\n        /* \"#utility.yul\":15454:15538   */\n      tag_399\n        /* \"#utility.yul\":15536:15537   */\n      0x02\n        /* \"#utility.yul\":15531:15534   */\n      dup4\n        /* \"#utility.yul\":15454:15538   */\n      tag_237\n      jump\t// in\n    tag_399:\n        /* \"#utility.yul\":15447:15538   */\n      swap2\n      pop\n        /* \"#utility.yul\":15547:15640   */\n      tag_400\n        /* \"#utility.yul\":15636:15639   */\n      dup3\n        /* \"#utility.yul\":15547:15640   */\n      tag_241\n      jump\t// in\n    tag_400:\n        /* \"#utility.yul\":15665:15666   */\n      0x02\n        /* \"#utility.yul\":15660:15663   */\n      dup3\n        /* \"#utility.yul\":15656:15667   */\n      add\n        /* \"#utility.yul\":15649:15667   */\n      swap1\n      pop\n        /* \"#utility.yul\":15273:15673   */\n      swap2\n      swap1\n      pop\n      jump\t// out\n        /* \"#utility.yul\":15679:16646   */\n    tag_116:\n        /* \"#utility.yul\":16061:16064   */\n      0x00\n        /* \"#utility.yul\":16083:16231   */\n      tag_402\n        /* \"#utility.yul\":16227:16230   */\n      dup3\n        /* \"#utility.yul\":16083:16231   */\n      tag_239\n      jump\t// in\n    tag_402:\n        /* \"#utility.yul\":16076:16231   */\n      swap2\n      pop\n        /* \"#utility.yul\":16248:16343   */\n      tag_403\n        /* \"#utility.yul\":16339:16342   */\n      dup3\n        /* \"#utility.yul\":16330:16336   */\n      dup6\n        /* \"#utility.yul\":16248:16343   */\n      tag_240\n      jump\t// in\n    tag_403:\n        /* \"#utility.yul\":16241:16343   */\n      swap2\n      pop\n        /* \"#utility.yul\":16360:16508   */\n      tag_404\n        /* \"#utility.yul\":16504:16507   */\n      dup3\n        /* \"#utility.yul\":16360:16508   */\n      tag_242\n      jump\t// in\n    tag_404:\n        /* \"#utility.yul\":16353:16508   */\n      swap2\n      pop\n        /* \"#utility.yul\":16525:16620   */\n      tag_405\n        /* \"#utility.yul\":16616:16619   */\n      dup3\n        /* \"#utility.yul\":16607:16613   */\n      dup5\n        /* \"#utility.yul\":16525:16620   */\n      tag_240\n      jump\t// in\n    tag_405:\n        /* \"#utility.yul\":16518:16620   */\n      swap2\n      pop\n        /* \"#utility.yul\":16637:16640   */\n      dup2\n        /* \"#utility.yul\":16630:16640   */\n      swap1\n      pop\n        /* \"#utility.yul\":15679:16646   */\n      swap4\n      swap3\n      pop\n      pop\n      pop\n      jump\t// out\n        /* \"#utility.yul\":16652:16803   */\n    tag_243:\n        /* \"#utility.yul\":16792:16795   */\n      0x2e00000000000000000000000000000000000000000000000000000000000000\n        /* \"#utility.yul\":16788:16789   */\n      0x00\n        /* \"#utility.yul\":16780:16786   */\n      dup3\n        /* \"#utility.yul\":16776:16790   */\n      add\n        /* \"#utility.yul\":16769:16796   */\n      mstore\n        /* \"#utility.yul\":16652:16803   */\n      pop\n      jump\t// out\n        /* \"#utility.yul\":16809:17209   */\n    tag_244:\n        /* \"#utility.yul\":16969:16972   */\n      0x00\n        /* \"#utility.yul\":16990:17074   */\n      tag_408\n        /* \"#utility.yul\":17072:17073   */\n      0x01\n        /* \"#utility.yul\":17067:17070   */\n      dup4\n        /* \"#utility.yul\":16990:17074   */\n      tag_237\n      jump\t// in\n    tag_408:\n        /* \"#utility.yul\":16983:17074   */\n      swap2\n      pop\n        /* \"#utility.yul\":17083:17176   */\n      tag_409\n        /* \"#utility.yul\":17172:17175   */\n      dup3\n        /* \"#utility.yul\":17083:17176   */\n      tag_243\n      jump\t// in\n    tag_409:\n        /* \"#utility.yul\":17201:17202   */\n      0x01\n        /* \"#utility.yul\":17196:17199   */\n      dup3\n        /* \"#utility.yul\":17192:17203   */\n      add\n        /* \"#utility.yul\":17185:17203   */\n      swap1\n      pop\n        /* \"#utility.yul\":16809:17209   */\n      swap2\n      swap1\n      pop\n      jump\t// out\n        /* \"#utility.yul\":17215:18182   */\n    tag_121:\n        /* \"#utility.yul\":17597:17600   */\n      0x00\n        /* \"#utility.yul\":17619:17767   */\n      tag_411\n        /* \"#utility.yul\":17763:17766   */\n      dup3\n        /* \"#utility.yul\":17619:17767   */\n      tag_239\n      jump\t// in\n    tag_411:\n        /* \"#utility.yul\":17612:17767   */\n      swap2\n      pop\n        /* \"#utility.yul\":17784:17879   */\n      tag_412\n        /* \"#utility.yul\":17875:17878   */\n      dup3\n        /* \"#utility.yul\":17866:17872   */\n      dup6\n        /* \"#utility.yul\":17784:17879   */\n      tag_240\n      jump\t// in\n    tag_412:\n        /* \"#utility.yul\":17777:17879   */\n      swap2\n      pop\n        /* \"#utility.yul\":17896:18044   */\n      tag_413\n        /* \"#utility.yul\":18040:18043   */\n      dup3\n        /* \"#utility.yul\":17896:18044   */\n      tag_244\n      jump\t// in\n    tag_413:\n        /* \"#utility.yul\":17889:18044   */\n      swap2\n      pop\n        /* \"#utility.yul\":18061:18156   */\n      tag_414\n        /* \"#utility.yul\":18152:18155   */\n      dup3\n        /* \"#utility.yul\":18143:18149   */\n      dup5\n        /* \"#utility.yul\":18061:18156   */\n      tag_240\n      jump\t// in\n    tag_414:\n        /* \"#utility.yul\":18054:18156   */\n      swap2\n      pop\n        /* \"#utility.yul\":18173:18176   */\n      dup2\n        /* \"#utility.yul\":18166:18176   */\n      swap1\n      pop\n        /* \"#utility.yul\":17215:18182   */\n      swap4\n      swap3\n      pop\n      pop\n      pop\n      jump\t// out\n        /* \"#utility.yul\":18188:18421   */\n    tag_180:\n        /* \"#utility.yul\":18227:18230   */\n      0x00\n        /* \"#utility.yul\":18250:18274   */\n      tag_416\n        /* \"#utility.yul\":18268:18273   */\n      dup3\n        /* \"#utility.yul\":18250:18274   */\n      tag_200\n      jump\t// in\n    tag_416:\n        /* \"#utility.yul\":18241:18274   */\n      swap2\n      pop\n        /* \"#utility.yul\":18296:18362   */\n      0xffffffffffffffffffffffffffffffffffffffffffffffffffffffffffffffff\n        /* \"#utility.yul\":18289:18294   */\n      dup3\n        /* \"#utility.yul\":18286:18363   */\n      sub\n        /* \"#utility.yul\":18283:18386   */\n      tag_417\n      jumpi\n        /* \"#utility.yul\":18366:18384   */\n      tag_418\n      tag_227\n      jump\t// in\n    tag_418:\n        /* \"#utility.yul\":18283:18386   */\n    tag_417:\n        /* \"#utility.yul\":18413:18414   */\n      0x01\n        /* \"#utility.yul\":18406:18411   */\n      dup3\n        /* \"#utility.yul\":18402:18415   */\n      add\n        /* \"#utility.yul\":18395:18415   */\n      swap1\n      pop\n        /* \"#utility.yul\":18188:18421   */\n      swap2\n      swap1\n      pop\n      jump\t// out\n        /* \"#utility.yul\":18427:18607   */\n    tag_184:\n        /* \"#utility.yul\":18475:18552   */\n      0x4e487b7100000000000000000000000000000000000000000000000000000000\n        /* \"#utility.yul\":18472:18473   */\n      0x00\n        /* \"#utility.yul\":18465:18553   */\n      mstore\n        /* \"#utility.yul\":18572:18576   */\n      0x41\n        /* \"#utility.yul\":18569:18570   */\n      0x04\n        /* \"#utility.yul\":18562:18577   */\n      mstore\n        /* \"#utility.yul\":18596:18600   */\n      0x24\n        /* \"#utility.yul\":18593:18594   */\n      0x00\n        /* \"#utility.yul\":18586:18601   */\n      revert\n        /* \"#utility.yul\":18613:18807   */\n    tag_189:\n        /* \"#utility.yul\":18653:18657   */\n      0x00\n        /* \"#utility.yul\":18673:18693   */\n      tag_421\n        /* \"#utility.yul\":18691:18692   */\n      dup3\n        /* \"#utility.yul\":18673:18693   */\n      tag_200\n      jump\t// in\n    tag_421:\n        /* \"#utility.yul\":18668:18693   */\n      swap2\n      pop\n        /* \"#utility.yul\":18707:18727   */\n      tag_422\n        /* \"#utility.yul\":18725:18726   */\n      dup4\n        /* \"#utility.yul\":18707:18727   */\n      tag_200\n      jump\t// in\n    tag_422:\n        /* \"#utility.yul\":18702:18727   */\n      swap3\n      pop\n        /* \"#utility.yul\":18751:18752   */\n      dup3\n        /* \"#utility.yul\":18748:18749   */\n      dup3\n        /* \"#utility.yul\":18744:18753   */\n      sub\n        /* \"#utility.yul\":18736:18753   */\n      swap1\n      pop\n        /* \"#utility.yul\":18775:18776   */\n      dup2\n        /* \"#utility.yul\":18769:18773   */\n      dup2\n        /* \"#utility.yul\":18766:18777   */\n      gt\n        /* \"#utility.yul\":18763:18800   */\n      iszero\n      tag_423\n      jumpi\n        /* \"#utility.yul\":18780:18798   */\n      tag_424\n      tag_227\n      jump\t// in\n    tag_424:\n        /* \"#utility.yul\":18763:18800   */\n    tag_423:\n        /* \"#utility.yul\":18613:18807   */\n      swap3\n      swap2\n      pop\n      pop\n      jump\t// out\n        /* \"#utility.yul\":18813:19004   */\n    tag_192:\n        /* \"#utility.yul\":18853:18856   */\n      0x00\n        /* \"#utility.yul\":18872:18892   */\n      tag_426\n        /* \"#utility.yul\":18890:18891   */\n      dup3\n        /* \"#utility.yul\":18872:18892   */\n      tag_200\n      jump\t// in\n    tag_426:\n        /* \"#utility.yul\":18867:18892   */\n      swap2\n      pop\n        /* \"#utility.yul\":18906:18926   */\n      tag_427\n        /* \"#utility.yul\":18924:18925   */\n      dup4\n        /* \"#utility.yul\":18906:18926   */\n      tag_200\n      jump\t// in\n    tag_427:\n        /* \"#utility.yul\":18901:18926   */\n      swap3\n      pop\n        /* \"#utility.yul\":18949:18950   */\n      dup3\n        /* \"#utility.yul\":18946:18947   */\n      dup3\n        /* \"#utility.yul\":18942:18951   */\n      add\n        /* \"#utility.yul\":18935:18951   */\n      swap1\n      pop\n        /* \"#utility.yul\":18970:18973   */\n      dup1\n        /* \"#utility.yul\":18967:18968   */\n      dup3\n        /* \"#utility.yul\":18964:18974   */\n      gt\n        /* \"#utility.yul\":18961:18997   */\n      iszero\n      tag_428\n      jumpi\n        /* \"#utility.yul\":18977:18995   */\n      tag_429\n      tag_227\n      jump\t// in\n    tag_429:\n        /* \"#utility.yul\":18961:18997   */\n    tag_428:\n        /* \"#utility.yul\":18813:19004   */\n      swap3\n      swap2\n      pop\n      pop\n      jump\t// out\n        /* \"#utility.yul\":19010:19190   */\n    tag_195:\n        /* \"#utility.yul\":19058:19135   */\n      0x4e487b7100000000000000000000000000000000000000000000000000000000\n        /* \"#utility.yul\":19055:19056   */\n      0x00\n        /* \"#utility.yul\":19048:19136   */\n      mstore\n        /* \"#utility.yul\":19155:19159   */\n      0x32\n        /* \"#utility.yul\":19152:19153   */\n      0x04\n        /* \"#utility.yul\":19145:19160   */\n      mstore\n        /* \"#utility.yul\":19179:19183   */\n      0x24\n        /* \"#utility.yul\":19176:19177   */\n      0x00\n        /* \"#utility.yul\":19169:19184   */\n      revert\n\n    auxdata: 0xa26469706673582212203b328ce8dc04f051d3c3f1a393bbceeaf0c7b33a342646ae94cd29fb99fb57a464736f6c63430008140033\n}\n",
				"bytecode": {
					"linkReferences": {},
					"object": "608060405234801562000010575f80fd5b5060405162001ce238038062001ce28339818101604052810190620000369190620001a4565b835f806101000a81548173ffffffffffffffffffffffffffffffffffffffff021916908373ffffffffffffffffffffffffffffffffffffffff1602179055508260015f6101000a81548173ffffffffffffffffffffffffffffffffffffffff021916908373ffffffffffffffffffffffffffffffffffffffff1602179055508160025f6101000a81548173ffffffffffffffffffffffffffffffffffffffff021916908373ffffffffffffffffffffffffffffffffffffffff1602179055508060035f6101000a81548173ffffffffffffffffffffffffffffffffffffffff021916908373ffffffffffffffffffffffffffffffffffffffff1602179055505050505062000213565b5f80fd5b5f73ffffffffffffffffffffffffffffffffffffffff82169050919050565b5f6200016e8262000143565b9050919050565b620001808162000162565b81146200018b575f80fd5b50565b5f815190506200019e8162000175565b92915050565b5f805f8060808587031215620001bf57620001be6200013f565b5b5f620001ce878288016200018e565b9450506020620001e1878288016200018e565b9350506040620001f4878288016200018e565b925050606062000207878288016200018e565b91505092959194509250565b611ac180620002215f395ff3fe608060405234801561000f575f80fd5b50600436106100cd575f3560e01c80638e3622091161008a578063abd3f61211610064578063abd3f612146101f1578063db006a7514610222578063e8e8090f1461023e578063fad1e41214610270576100cd565b80638e362209146101845780639b06d174146101a2578063a98ad46c146101d3576100cd565b80630f574ba7146100d15780631d143848146100ed5780631e095c6a1461010b5780632630c12f1461012a5780632bdd4478146101485780635f9cf24314610166575b5f80fd5b6100eb60048036038101906100e69190611162565b61028f565b005b6100f5610656565b60405161010291906111cc565b60405180910390f35b61011361067b565b60405161012192919061127e565b60405180910390f35b6101326107ab565b60405161013f9190611307565b60405180910390f35b6101506107d0565b60405161015d9190611320565b60405180910390f35b61016e6107d5565b60405161017b9190611320565b60405180910390f35b61018c6107da565b6040516101999190611359565b60405180910390f35b6101bc60048036038101906101b79190611162565b6107ff565b6040516101ca929190611372565b60405180910390f35b6101db6108b7565b6040516101e89190611359565b60405180910390f35b61020b600480360381019061020691906113c3565b6108da565b604051610219929190611372565b60405180910390f35b61023c60048036038101906102379190611162565b610a15565b005b61025860048036038101906102539190611162565b610d8a565b604051610267939291906113ee565b60405180910390f35b610278610e56565b604051610286929190611372565b60405180910390f35b60648110156102d3576040517f08c379a00000000000000000000000000000000000000000000000000000000081526004016102ca9061146d565b60405180910390fd5b5f60025f9054906101000a900473ffffffffffffffffffffffffffffffffffffffff1673ffffffffffffffffffffffffffffffffffffffff1663ec2b70a46040518163ffffffff1660e01b8152600401602060405180830381865afa15801561033e573d5f803e3d5ffd5b505050506040513d601f19601f82011682018060405250810190610362919061149f565b90505f81116103a6576040517f08c379a000000000000000000000000000000000000000000000000000000000815260040161039d90611514565b60405180910390fd5b5f81836103b3919061158c565b90505f81116103f7576040517f08c379a00000000000000000000000000000000000000000000000000000000081526004016103ee90611606565b60405180910390fd5b5f82826104049190611624565b90505f8054906101000a900473ffffffffffffffffffffffffffffffffffffffff1673ffffffffffffffffffffffffffffffffffffffff166323b872dd3360035f9054906101000a900473ffffffffffffffffffffffffffffffffffffffff16846040518463ffffffff1660e01b815260040161048393929190611665565b6020604051808303815f875af115801561049f573d5f803e3d5ffd5b505050506040513d601f19601f820116820180604052508101906104c391906116cf565b610502576040517f08c379a00000000000000000000000000000000000000000000000000000000081526004016104f990611744565b60405180910390fd5b60015f9054906101000a900473ffffffffffffffffffffffffffffffffffffffff1673ffffffffffffffffffffffffffffffffffffffff166323b872dd60035f9054906101000a900473ffffffffffffffffffffffffffffffffffffffff1633856040518463ffffffff1660e01b815260040161058193929190611665565b6020604051808303815f875af115801561059d573d5f803e3d5ffd5b505050506040513d601f19601f820116820180604052508101906105c191906116cf565b610600576040517f08c379a00000000000000000000000000000000000000000000000000000000081526004016105f7906117ac565b60405180910390fd5b3373ffffffffffffffffffffffffffffffffffffffff167f8eb8bcc7421f99b92ab7d727e056544fb59514f8f56251e69658c21ece8977fa8284604051610648929190611372565b60405180910390a250505050565b60035f9054906101000a900473ffffffffffffffffffffffffffffffffffffffff1681565b5f606060025f9054906101000a900473ffffffffffffffffffffffffffffffffffffffff1673ffffffffffffffffffffffffffffffffffffffff1663ec2b70a46040518163ffffffff1660e01b8152600401602060405180830381865afa1580156106e8573d5f803e3d5ffd5b505050506040513d601f19601f8201168201806040525081019061070c919061149f565b91505f60648361071c919061158c565b90505f60648461072c91906117ca565b9050600a8110156107705761074082610fd2565b61074982610fd2565b60405160200161075a9291906118c8565b60405160208183030381529060405292506107a5565b61077982610fd2565b61078282610fd2565b60405160200161079392919061194b565b60405160208183030381529060405292505b50509091565b60025f9054906101000a900473ffffffffffffffffffffffffffffffffffffffff1681565b600181565b606481565b60015f9054906101000a900473ffffffffffffffffffffffffffffffffffffffff1681565b5f8060025f9054906101000a900473ffffffffffffffffffffffffffffffffffffffff1673ffffffffffffffffffffffffffffffffffffffff1663ec2b70a46040518163ffffffff1660e01b8152600401602060405180830381865afa15801561086b573d5f803e3d5ffd5b505050506040513d601f19601f8201168201806040525081019061088f919061149f565b90505f81036108a3575f80915091506108b2565b80836108af9190611624565b91505b915091565b5f8054906101000a900473ffffffffffffffffffffffffffffffffffffffff1681565b5f805f8054906101000a900473ffffffffffffffffffffffffffffffffffffffff1673ffffffffffffffffffffffffffffffffffffffff166370a08231846040518263ffffffff1660e01b815260040161093491906111cc565b602060405180830381865afa15801561094f573d5f803e3d5ffd5b505050506040513d601f19601f82011682018060405250810190610973919061149f565b60015f9054906101000a900473ffffffffffffffffffffffffffffffffffffffff1673ffffffffffffffffffffffffffffffffffffffff166370a08231856040518263ffffffff1660e01b81526004016109cd91906111cc565b602060405180830381865afa1580156109e8573d5f803e3d5ffd5b505050506040513d601f19601f82011682018060405250810190610a0c919061149f565b91509150915091565b6001811015610a59576040517f08c379a0000000000000000000000000000000000000000000000000000000008152600401610a509061146d565b60405180910390fd5b5f60025f9054906101000a900473ffffffffffffffffffffffffffffffffffffffff1673ffffffffffffffffffffffffffffffffffffffff1663ec2b70a46040518163ffffffff1660e01b8152600401602060405180830381865afa158015610ac4573d5f803e3d5ffd5b505050506040513d601f19601f82011682018060405250810190610ae8919061149f565b90505f8111610b2c576040517f08c379a0000000000000000000000000000000000000000000000000000000008152600401610b2390611514565b60405180910390fd5b5f8183610b399190611624565b905060015f9054906101000a900473ffffffffffffffffffffffffffffffffffffffff1673ffffffffffffffffffffffffffffffffffffffff166323b872dd3360035f9054906101000a900473ffffffffffffffffffffffffffffffffffffffff16866040518463ffffffff1660e01b8152600401610bba93929190611665565b6020604051808303815f875af1158015610bd6573d5f803e3d5ffd5b505050506040513d601f19601f82011682018060405250810190610bfa91906116cf565b610c39576040517f08c379a0000000000000000000000000000000000000000000000000000000008152600401610c30906117ac565b60405180910390fd5b5f8054906101000a900473ffffffffffffffffffffffffffffffffffffffff1673ffffffffffffffffffffffffffffffffffffffff166323b872dd60035f9054906101000a900473ffffffffffffffffffffffffffffffffffffffff1633846040518463ffffffff1660e01b8152600401610cb693929190611665565b6020604051808303815f875af1158015610cd2573d5f803e3d5ffd5b505050506040513d601f19601f82011682018060405250810190610cf691906116cf565b610d35576040517f08c379a0000000000000000000000000000000000000000000000000000000008152600401610d2c90611744565b60405180910390fd5b3373ffffffffffffffffffffffffffffffffffffffff167feebddeddf4ae1ee54a48517af27958e7666d69c7ba2e3e7c2b0ff87ef5f4491e8483604051610d7d929190611372565b60405180910390a2505050565b5f805f60025f9054906101000a900473ffffffffffffffffffffffffffffffffffffffff1673ffffffffffffffffffffffffffffffffffffffff1663ec2b70a46040518163ffffffff1660e01b8152600401602060405180830381865afa158015610df7573d5f803e3d5ffd5b505050506040513d601f19601f82011682018060405250810190610e1b919061149f565b90505f8103610e32575f805f925092509250610e4f565b8084610e3e919061158c565b92508083610e4c9190611624565b91505b9193909250565b5f805f8054906101000a900473ffffffffffffffffffffffffffffffffffffffff1673ffffffffffffffffffffffffffffffffffffffff166370a0823160035f9054906101000a900473ffffffffffffffffffffffffffffffffffffffff166040518263ffffffff1660e01b8152600401610ed191906111cc565b602060405180830381865afa158015610eec573d5f803e3d5ffd5b505050506040513d601f19601f82011682018060405250810190610f10919061149f565b60015f9054906101000a900473ffffffffffffffffffffffffffffffffffffffff1673ffffffffffffffffffffffffffffffffffffffff166370a0823160035f9054906101000a900473ffffffffffffffffffffffffffffffffffffffff166040518263ffffffff1660e01b8152600401610f8b91906111cc565b602060405180830381865afa158015610fa6573d5f803e3d5ffd5b505050506040513d601f19601f82011682018060405250810190610fca919061149f565b915091509091565b60605f8203611018576040518060400160405280600181526020017f30000000000000000000000000000000000000000000000000000000000000008152509050611126565b5f8290505f5b5f821461104757808061103090611984565b915050600a82611040919061158c565b915061101e565b5f8167ffffffffffffffff811115611062576110616119cb565b5b6040519080825280601f01601f1916602001820160405280156110945781602001600182028036833780820191505090505b5090505b5f851461111f576001826110ac91906119f8565b9150600a856110bb91906117ca565b60306110c79190611a2b565b60f81b8183815181106110dd576110dc611a5e565b5b60200101907effffffffffffffffffffffffffffffffffffffffffffffffffffffffffffff191690815f1a905350600a85611118919061158c565b9450611098565b8093505050505b919050565b5f80fd5b5f819050919050565b6111418161112f565b811461114b575f80fd5b50565b5f8135905061115c81611138565b92915050565b5f602082840312156111775761117661112b565b5b5f6111848482850161114e565b91505092915050565b5f73ffffffffffffffffffffffffffffffffffffffff82169050919050565b5f6111b68261118d565b9050919050565b6111c6816111ac565b82525050565b5f6020820190506111df5f8301846111bd565b92915050565b6111ee8161112f565b82525050565b5f81519050919050565b5f82825260208201905092915050565b5f5b8381101561122b578082015181840152602081019050611210565b5f8484015250505050565b5f601f19601f8301169050919050565b5f611250826111f4565b61125a81856111fe565b935061126a81856020860161120e565b61127381611236565b840191505092915050565b5f6040820190506112915f8301856111e5565b81810360208301526112a38184611246565b90509392505050565b5f819050919050565b5f6112cf6112ca6112c58461118d565b6112ac565b61118d565b9050919050565b5f6112e0826112b5565b9050919050565b5f6112f1826112d6565b9050919050565b611301816112e7565b82525050565b5f60208201905061131a5f8301846112f8565b92915050565b5f6020820190506113335f8301846111e5565b92915050565b5f611343826112d6565b9050919050565b61135381611339565b82525050565b5f60208201905061136c5f83018461134a565b92915050565b5f6040820190506113855f8301856111e5565b61139260208301846111e5565b9392505050565b6113a2816111ac565b81146113ac575f80fd5b50565b5f813590506113bd81611399565b92915050565b5f602082840312156113d8576113d761112b565b5b5f6113e5848285016113af565b91505092915050565b5f6060820190506114015f8301866111e5565b61140e60208301856111e5565b61141b60408301846111e5565b949350505050565b7f416d6f756e7420746f6f20736d616c6c000000000000000000000000000000005f82015250565b5f6114576010836111fe565b915061146282611423565b602082019050919050565b5f6020820190508181035f8301526114848161144b565b9050919050565b5f8151905061149981611138565b92915050565b5f602082840312156114b4576114b361112b565b5b5f6114c18482850161148b565b91505092915050565b7f496e76616c6964207072696365000000000000000000000000000000000000005f82015250565b5f6114fe600d836111fe565b9150611509826114ca565b602082019050919050565b5f6020820190508181035f83015261152b816114f2565b9050919050565b7f4e487b71000000000000000000000000000000000000000000000000000000005f52601260045260245ffd5b7f4e487b71000000000000000000000000000000000000000000000000000000005f52601160045260245ffd5b5f6115968261112f565b91506115a18361112f565b9250826115b1576115b0611532565b5b828204905092915050565b7f496e73756666696369656e7420616d6f756e7420666f722031207368617265005f82015250565b5f6115f0601f836111fe565b91506115fb826115bc565b602082019050919050565b5f6020820190508181035f83015261161d816115e4565b9050919050565b5f61162e8261112f565b91506116398361112f565b92508282026116478161112f565b9150828204841483151761165e5761165d61155f565b5b5092915050565b5f6060820190506116785f8301866111bd565b61168560208301856111bd565b61169260408301846111e5565b949350505050565b5f8115159050919050565b6116ae8161169a565b81146116b8575f80fd5b50565b5f815190506116c9816116a5565b92915050565b5f602082840312156116e4576116e361112b565b5b5f6116f1848285016116bb565b91505092915050565b7f55534474207472616e73666572206661696c65640000000000000000000000005f82015250565b5f61172e6014836111fe565b9150611739826116fa565b602082019050919050565b5f6020820190508181035f83015261175b81611722565b9050919050565b7f3030353074207472616e73666572206661696c656400000000000000000000005f82015250565b5f6117966015836111fe565b91506117a182611762565b602082019050919050565b5f6020820190508181035f8301526117c38161178a565b9050919050565b5f6117d48261112f565b91506117df8361112f565b9250826117ef576117ee611532565b5b828206905092915050565b5f81905092915050565b7f24000000000000000000000000000000000000000000000000000000000000005f82015250565b5f6118386001836117fa565b915061184382611804565b600182019050919050565b5f611858826111f4565b61186281856117fa565b935061187281856020860161120e565b80840191505092915050565b7f2e300000000000000000000000000000000000000000000000000000000000005f82015250565b5f6118b26002836117fa565b91506118bd8261187e565b600282019050919050565b5f6118d28261182c565b91506118de828561184e565b91506118e9826118a6565b91506118f5828461184e565b91508190509392505050565b7f2e000000000000000000000000000000000000000000000000000000000000005f82015250565b5f6119356001836117fa565b915061194082611901565b600182019050919050565b5f6119558261182c565b9150611961828561184e565b915061196c82611929565b9150611978828461184e565b91508190509392505050565b5f61198e8261112f565b91507fffffffffffffffffffffffffffffffffffffffffffffffffffffffffffffffff82036119c0576119bf61155f565b5b600182019050919050565b7f4e487b71000000000000000000000000000000000000000000000000000000005f52604160045260245ffd5b5f611a028261112f565b9150611a0d8361112f565b9250828203905081811115611a2557611a2461155f565b5b92915050565b5f611a358261112f565b9150611a408361112f565b9250828201905080821115611a5857611a5761155f565b5b92915050565b7f4e487b71000000000000000000000000000000000000000000000000000000005f52603260045260245ffdfea26469706673582212203b328ce8dc04f051d3c3f1a393bbceeaf0c7b33a342646ae94cd29fb99fb57a464736f6c63430008140033",
					"opcodes": "PUSH1 0x80 PUSH1 0x40 MSTORE CALLVALUE DUP1 ISZERO PUSH3 0x10 JUMPI PUSH0 DUP1 REVERT JUMPDEST POP PUSH1 0x40 MLOAD PUSH3 0x1CE2 CODESIZE SUB DUP1 PUSH3 0x1CE2 DUP4 CODECOPY DUP2 DUP2 ADD PUSH1 0x40 MSTORE DUP2 ADD SWAP1 PUSH3 0x36 SWAP2 SWAP1 PUSH3 0x1A4 JUMP JUMPDEST DUP4 PUSH0 DUP1 PUSH2 0x100 EXP DUP2 SLOAD DUP2 PUSH20 0xFFFFFFFFFFFFFFFFFFFFFFFFFFFFFFFFFFFFFFFF MUL NOT AND SWAP1 DUP4 PUSH20 0xFFFFFFFFFFFFFFFFFFFFFFFFFFFFFFFFFFFFFFFF AND MUL OR SWAP1 SSTORE POP DUP3 PUSH1 0x1 PUSH0 PUSH2 0x100 EXP DUP2 SLOAD DUP2 PUSH20 0xFFFFFFFFFFFFFFFFFFFFFFFFFFFFFFFFFFFFFFFF MUL NOT AND SWAP1 DUP4 PUSH20 0xFFFFFFFFFFFFFFFFFFFFFFFFFFFFFFFFFFFFFFFF AND MUL OR SWAP1 SSTORE POP DUP2 PUSH1 0x2 PUSH0 PUSH2 0x100 EXP DUP2 SLOAD DUP2 PUSH20 0xFFFFFFFFFFFFFFFFFFFFFFFFFFFFFFFFFFFFFFFF MUL NOT AND SWAP1 DUP4 PUSH20 0xFFFFFFFFFFFFFFFFFFFFFFFFFFFFFFFFFFFFFFFF AND MUL OR SWAP1 SSTORE POP DUP1 PUSH1 0x3 PUSH0 PUSH2 0x100 EXP DUP2 SLOAD DUP2 PUSH20 0xFFFFFFFFFFFFFFFFFFFFFFFFFFFFFFFFFFFFFFFF MUL NOT AND SWAP1 DUP4 PUSH20 0xFFFFFFFFFFFFFFFFFFFFFFFFFFFFFFFFFFFFFFFF AND MUL OR SWAP1 SSTORE POP POP POP POP POP PUSH3 0x213 JUMP JUMPDEST PUSH0 DUP1 REVERT JUMPDEST PUSH0 PUSH20 0xFFFFFFFFFFFFFFFFFFFFFFFFFFFFFFFFFFFFFFFF DUP3 AND SWAP1 POP SWAP2 SWAP1 POP JUMP JUMPDEST PUSH0 PUSH3 0x16E DUP3 PUSH3 0x143 JUMP JUMPDEST SWAP1 POP SWAP2 SWAP1 POP JUMP JUMPDEST PUSH3 0x180 DUP2 PUSH3 0x162 JUMP JUMPDEST DUP2 EQ PUSH3 0x18B JUMPI PUSH0 DUP1 REVERT JUMPDEST POP JUMP JUMPDEST PUSH0 DUP2 MLOAD SWAP1 POP PUSH3 0x19E DUP2 PUSH3 0x175 JUMP JUMPDEST SWAP3 SWAP2 POP POP JUMP JUMPDEST PUSH0 DUP1 PUSH0 DUP1 PUSH1 0x80 DUP6 DUP8 SUB SLT ISZERO PUSH3 0x1BF JUMPI PUSH3 0x1BE PUSH3 0x13F JUMP JUMPDEST JUMPDEST PUSH0 PUSH3 0x1CE DUP8 DUP3 DUP9 ADD PUSH3 0x18E JUMP JUMPDEST SWAP5 POP POP PUSH1 0x20 PUSH3 0x1E1 DUP8 DUP3 DUP9 ADD PUSH3 0x18E JUMP JUMPDEST SWAP4 POP POP PUSH1 0x40 PUSH3 0x1F4 DUP8 DUP3 DUP9 ADD PUSH3 0x18E JUMP JUMPDEST SWAP3 POP POP PUSH1 0x60 PUSH3 0x207 DUP8 DUP3 DUP9 ADD PUSH3 0x18E JUMP JUMPDEST SWAP2 POP POP SWAP3 SWAP6 SWAP2 SWAP5 POP SWAP3 POP JUMP JUMPDEST PUSH2 0x1AC1 DUP1 PUSH3 0x221 PUSH0 CODECOPY PUSH0 RETURN INVALID PUSH1 0x80 PUSH1 0x40 MSTORE CALLVALUE DUP1 ISZERO PUSH2 0xF JUMPI PUSH0 DUP1 REVERT JUMPDEST POP PUSH1 0x4 CALLDATASIZE LT PUSH2 0xCD JUMPI PUSH0 CALLDATALOAD PUSH1 0xE0 SHR DUP1 PUSH4 0x8E362209 GT PUSH2 0x8A JUMPI DUP1 PUSH4 0xABD3F612 GT PUSH2 0x64 JUMPI DUP1 PUSH4 0xABD3F612 EQ PUSH2 0x1F1 JUMPI DUP1 PUSH4 0xDB006A75 EQ PUSH2 0x222 JUMPI DUP1 PUSH4 0xE8E8090F EQ PUSH2 0x23E JUMPI DUP1 PUSH4 0xFAD1E412 EQ PUSH2 0x270 JUMPI PUSH2 0xCD JUMP JUMPDEST DUP1 PUSH4 0x8E362209 EQ PUSH2 0x184 JUMPI DUP1 PUSH4 0x9B06D174 EQ PUSH2 0x1A2 JUMPI DUP1 PUSH4 0xA98AD46C EQ PUSH2 0x1D3 JUMPI PUSH2 0xCD JUMP JUMPDEST DUP1 PUSH4 0xF574BA7 EQ PUSH2 0xD1 JUMPI DUP1 PUSH4 0x1D143848 EQ PUSH2 0xED JUMPI DUP1 PUSH4 0x1E095C6A EQ PUSH2 0x10B JUMPI DUP1 PUSH4 0x2630C12F EQ PUSH2 0x12A JUMPI DUP1 PUSH4 0x2BDD4478 EQ PUSH2 0x148 JUMPI DUP1 PUSH4 0x5F9CF243 EQ PUSH2 0x166 JUMPI JUMPDEST PUSH0 DUP1 REVERT JUMPDEST PUSH2 0xEB PUSH1 0x4 DUP1 CALLDATASIZE SUB DUP2 ADD SWAP1 PUSH2 0xE6 SWAP2 SWAP1 PUSH2 0x1162 JUMP JUMPDEST PUSH2 0x28F JUMP JUMPDEST STOP JUMPDEST PUSH2 0xF5 PUSH2 0x656 JUMP JUMPDEST PUSH1 0x40 MLOAD PUSH2 0x102 SWAP2 SWAP1 PUSH2 0x11CC JUMP JUMPDEST PUSH1 0x40 MLOAD DUP1 SWAP2 SUB SWAP1 RETURN JUMPDEST PUSH2 0x113 PUSH2 0x67B JUMP JUMPDEST PUSH1 0x40 MLOAD PUSH2 0x121 SWAP3 SWAP2 SWAP1 PUSH2 0x127E JUMP JUMPDEST PUSH1 0x40 MLOAD DUP1 SWAP2 SUB SWAP1 RETURN JUMPDEST PUSH2 0x132 PUSH2 0x7AB JUMP JUMPDEST PUSH1 0x40 MLOAD PUSH2 0x13F SWAP2 SWAP1 PUSH2 0x1307 JUMP JUMPDEST PUSH1 0x40 MLOAD DUP1 SWAP2 SUB SWAP1 RETURN JUMPDEST PUSH2 0x150 PUSH2 0x7D0 JUMP JUMPDEST PUSH1 0x40 MLOAD PUSH2 0x15D SWAP2 SWAP1 PUSH2 0x1320 JUMP JUMPDEST PUSH1 0x40 MLOAD DUP1 SWAP2 SUB SWAP1 RETURN JUMPDEST PUSH2 0x16E PUSH2 0x7D5 JUMP JUMPDEST PUSH1 0x40 MLOAD PUSH2 0x17B SWAP2 SWAP1 PUSH2 0x1320 JUMP JUMPDEST PUSH1 0x40 MLOAD DUP1 SWAP2 SUB SWAP1 RETURN JUMPDEST PUSH2 0x18C PUSH2 0x7DA JUMP JUMPDEST PUSH1 0x40 MLOAD PUSH2 0x199 SWAP2 SWAP1 PUSH2 0x1359 JUMP JUMPDEST PUSH1 0x40 MLOAD DUP1 SWAP2 SUB SWAP1 RETURN JUMPDEST PUSH2 0x1BC PUSH1 0x4 DUP1 CALLDATASIZE SUB DUP2 ADD SWAP1 PUSH2 0x1B7 SWAP2 SWAP1 PUSH2 0x1162 JUMP JUMPDEST PUSH2 0x7FF JUMP JUMPDEST PUSH1 0x40 MLOAD PUSH2 0x1CA SWAP3 SWAP2 SWAP1 PUSH2 0x1372 JUMP JUMPDEST PUSH1 0x40 MLOAD DUP1 SWAP2 SUB SWAP1 RETURN JUMPDEST PUSH2 0x1DB PUSH2 0x8B7 JUMP JUMPDEST PUSH1 0x40 MLOAD PUSH2 0x1E8 SWAP2 SWAP1 PUSH2 0x1359 JUMP JUMPDEST PUSH1 0x40 MLOAD DUP1 SWAP2 SUB SWAP1 RETURN JUMPDEST PUSH2 0x20B PUSH1 0x4 DUP1 CALLDATASIZE SUB DUP2 ADD SWAP1 PUSH2 0x206 SWAP2 SWAP1 PUSH2 0x13C3 JUMP JUMPDEST PUSH2 0x8DA JUMP JUMPDEST PUSH1 0x40 MLOAD PUSH2 0x219 SWAP3 SWAP2 SWAP1 PUSH2 0x1372 JUMP JUMPDEST PUSH1 0x40 MLOAD DUP1 SWAP2 SUB SWAP1 RETURN JUMPDEST PUSH2 0x23C PUSH1 0x4 DUP1 CALLDATASIZE SUB DUP2 ADD SWAP1 PUSH2 0x237 SWAP2 SWAP1 PUSH2 0x1162 JUMP JUMPDEST PUSH2 0xA15 JUMP JUMPDEST STOP JUMPDEST PUSH2 0x258 PUSH1 0x4 DUP1 CALLDATASIZE SUB DUP2 ADD SWAP1 PUSH2 0x253 SWAP2 SWAP1 PUSH2 0x1162 JUMP JUMPDEST PUSH2 0xD8A JUMP JUMPDEST PUSH1 0x40 MLOAD PUSH2 0x267 SWAP4 SWAP3 SWAP2 SWAP1 PUSH2 0x13EE JUMP JUMPDEST PUSH1 0x40 MLOAD DUP1 SWAP2 SUB SWAP1 RETURN JUMPDEST PUSH2 0x278 PUSH2 0xE56 JUMP JUMPDEST PUSH1 0x40 MLOAD PUSH2 0x286 SWAP3 SWAP2 SWAP1 PUSH2 0x1372 JUMP JUMPDEST PUSH1 0x40 MLOAD DUP1 SWAP2 SUB SWAP1 RETURN JUMPDEST PUSH1 0x64 DUP2 LT ISZERO PUSH2 0x2D3 JUMPI PUSH1 0x40 MLOAD PUSH32 0x8C379A000000000000000000000000000000000000000000000000000000000 DUP2 MSTORE PUSH1 0x4 ADD PUSH2 0x2CA SWAP1 PUSH2 0x146D JUMP JUMPDEST PUSH1 0x40 MLOAD DUP1 SWAP2 SUB SWAP1 REVERT JUMPDEST PUSH0 PUSH1 0x2 PUSH0 SWAP1 SLOAD SWAP1 PUSH2 0x100 EXP SWAP1 DIV PUSH20 0xFFFFFFFFFFFFFFFFFFFFFFFFFFFFFFFFFFFFFFFF AND PUSH20 0xFFFFFFFFFFFFFFFFFFFFFFFFFFFFFFFFFFFFFFFF AND PUSH4 0xEC2B70A4 PUSH1 0x40 MLOAD DUP2 PUSH4 0xFFFFFFFF AND PUSH1 0xE0 SHL DUP2 MSTORE PUSH1 0x4 ADD PUSH1 0x20 PUSH1 0x40 MLOAD DUP1 DUP4 SUB DUP2 DUP7 GAS STATICCALL ISZERO DUP1 ISZERO PUSH2 0x33E JUMPI RETURNDATASIZE PUSH0 DUP1 RETURNDATACOPY RETURNDATASIZE PUSH0 REVERT JUMPDEST POP POP POP POP PUSH1 0x40 MLOAD RETURNDATASIZE PUSH1 0x1F NOT PUSH1 0x1F DUP3 ADD AND DUP3 ADD DUP1 PUSH1 0x40 MSTORE POP DUP2 ADD SWAP1 PUSH2 0x362 SWAP2 SWAP1 PUSH2 0x149F JUMP JUMPDEST SWAP1 POP PUSH0 DUP2 GT PUSH2 0x3A6 JUMPI PUSH1 0x40 MLOAD PUSH32 0x8C379A000000000000000000000000000000000000000000000000000000000 DUP2 MSTORE PUSH1 0x4 ADD PUSH2 0x39D SWAP1 PUSH2 0x1514 JUMP JUMPDEST PUSH1 0x40 MLOAD DUP1 SWAP2 SUB SWAP1 REVERT JUMPDEST PUSH0 DUP2 DUP4 PUSH2 0x3B3 SWAP2 SWAP1 PUSH2 0x158C JUMP JUMPDEST SWAP1 POP PUSH0 DUP2 GT PUSH2 0x3F7 JUMPI PUSH1 0x40 MLOAD PUSH32 0x8C379A000000000000000000000000000000000000000000000000000000000 DUP2 MSTORE PUSH1 0x4 ADD PUSH2 0x3EE SWAP1 PUSH2 0x1606 JUMP JUMPDEST PUSH1 0x40 MLOAD DUP1 SWAP2 SUB SWAP1 REVERT JUMPDEST PUSH0 DUP3 DUP3 PUSH2 0x404 SWAP2 SWAP1 PUSH2 0x1624 JUMP JUMPDEST SWAP1 POP PUSH0 DUP1 SLOAD SWAP1 PUSH2 0x100 EXP SWAP1 DIV PUSH20 0xFFFFFFFFFFFFFFFFFFFFFFFFFFFFFFFFFFFFFFFF AND PUSH20 0xFFFFFFFFFFFFFFFFFFFFFFFFFFFFFFFFFFFFFFFF AND PUSH4 0x23B872DD CALLER PUSH1 0x3 PUSH0 SWAP1 SLOAD SWAP1 PUSH2 0x100 EXP SWAP1 DIV PUSH20 0xFFFFFFFFFFFFFFFFFFFFFFFFFFFFFFFFFFFFFFFF AND DUP5 PUSH1 0x40 MLOAD DUP5 PUSH4 0xFFFFFFFF AND PUSH1 0xE0 SHL DUP2 MSTORE PUSH1 0x4 ADD PUSH2 0x483 SWAP4 SWAP3 SWAP2 SWAP1 PUSH2 0x1665 JUMP JUMPDEST PUSH1 0x20 PUSH1 0x40 MLOAD DUP1 DUP4 SUB DUP2 PUSH0 DUP8 GAS CALL ISZERO DUP1 ISZERO PUSH2 0x49F JUMPI RETURNDATASIZE PUSH0 DUP1 RETURNDATACOPY RETURNDATASIZE PUSH0 REVERT JUMPDEST POP POP POP POP PUSH1 0x40 MLOAD RETURNDATASIZE PUSH1 0x1F NOT PUSH1 0x1F DUP3 ADD AND DUP3 ADD DUP1 PUSH1 0x40 MSTORE POP DUP2 ADD SWAP1 PUSH2 0x4C3 SWAP2 SWAP1 PUSH2 0x16CF JUMP JUMPDEST PUSH2 0x502 JUMPI PUSH1 0x40 MLOAD PUSH32 0x8C379A000000000000000000000000000000000000000000000000000000000 DUP2 MSTORE PUSH1 0x4 ADD PUSH2 0x4F9 SWAP1 PUSH2 0x1744 JUMP JUMPDEST PUSH1 0x40 MLOAD DUP1 SWAP2 SUB SWAP1 REVERT JUMPDEST PUSH1 0x1 PUSH0 SWAP1 SLOAD SWAP1 PUSH2 0x100 EXP SWAP1 DIV PUSH20 0xFFFFFFFFFFFFFFFFFFFFFFFFFFFFFFFFFFFFFFFF AND PUSH20 0xFFFFFFFFFFFFFFFFFFFFFFFFFFFFFFFFFFFFFFFF AND PUSH4 0x23B872DD PUSH1 0x3 PUSH0 SWAP1 SLOAD SWAP1 PUSH2 0x100 EXP SWAP1 DIV PUSH20 0xFFFFFFFFFFFFFFFFFFFFFFFFFFFFFFFFFFFFFFFF AND CALLER DUP6 PUSH1 0x40 MLOAD DUP5 PUSH4 0xFFFFFFFF AND PUSH1 0xE0 SHL DUP2 MSTORE PUSH1 0x4 ADD PUSH2 0x581 SWAP4 SWAP3 SWAP2 SWAP1 PUSH2 0x1665 JUMP JUMPDEST PUSH1 0x20 PUSH1 0x40 MLOAD DUP1 DUP4 SUB DUP2 PUSH0 DUP8 GAS CALL ISZERO DUP1 ISZERO PUSH2 0x59D JUMPI RETURNDATASIZE PUSH0 DUP1 RETURNDATACOPY RETURNDATASIZE PUSH0 REVERT JUMPDEST POP POP POP POP PUSH1 0x40 MLOAD RETURNDATASIZE PUSH1 0x1F NOT PUSH1 0x1F DUP3 ADD AND DUP3 ADD DUP1 PUSH1 0x40 MSTORE POP DUP2 ADD SWAP1 PUSH2 0x5C1 SWAP2 SWAP1 PUSH2 0x16CF JUMP JUMPDEST PUSH2 0x600 JUMPI PUSH1 0x40 MLOAD PUSH32 0x8C379A000000000000000000000000000000000000000000000000000000000 DUP2 MSTORE PUSH1 0x4 ADD PUSH2 0x5F7 SWAP1 PUSH2 0x17AC JUMP JUMPDEST PUSH1 0x40 MLOAD DUP1 SWAP2 SUB SWAP1 REVERT JUMPDEST CALLER PUSH20 0xFFFFFFFFFFFFFFFFFFFFFFFFFFFFFFFFFFFFFFFF AND PUSH32 0x8EB8BCC7421F99B92AB7D727E056544FB59514F8F56251E69658C21ECE8977FA DUP3 DUP5 PUSH1 0x40 MLOAD PUSH2 0x648 SWAP3 SWAP2 SWAP1 PUSH2 0x1372 JUMP JUMPDEST PUSH1 0x40 MLOAD DUP1 SWAP2 SUB SWAP1 LOG2 POP POP POP POP JUMP JUMPDEST PUSH1 0x3 PUSH0 SWAP1 SLOAD SWAP1 PUSH2 0x100 EXP SWAP1 DIV PUSH20 0xFFFFFFFFFFFFFFFFFFFFFFFFFFFFFFFFFFFFFFFF AND DUP2 JUMP JUMPDEST PUSH0 PUSH1 0x60 PUSH1 0x2 PUSH0 SWAP1 SLOAD SWAP1 PUSH2 0x100 EXP SWAP1 DIV PUSH20 0xFFFFFFFFFFFFFFFFFFFFFFFFFFFFFFFFFFFFFFFF AND PUSH20 0xFFFFFFFFFFFFFFFFFFFFFFFFFFFFFFFFFFFFFFFF AND PUSH4 0xEC2B70A4 PUSH1 0x40 MLOAD DUP2 PUSH4 0xFFFFFFFF AND PUSH1 0xE0 SHL DUP2 MSTORE PUSH1 0x4 ADD PUSH1 0x20 PUSH1 0x40 MLOAD DUP1 DUP4 SUB DUP2 DUP7 GAS STATICCALL ISZERO DUP1 ISZERO PUSH2 0x6E8 JUMPI RETURNDATASIZE PUSH0 DUP1 RETURNDATACOPY RETURNDATASIZE PUSH0 REVERT JUMPDEST POP POP POP POP PUSH1 0x40 MLOAD RETURNDATASIZE PUSH1 0x1F NOT PUSH1 0x1F DUP3 ADD AND DUP3 ADD DUP1 PUSH1 0x40 MSTORE POP DUP2 ADD SWAP1 PUSH2 0x70C SWAP2 SWAP1 PUSH2 0x149F JUMP JUMPDEST SWAP2 POP PUSH0 PUSH1 0x64 DUP4 PUSH2 0x71C SWAP2 SWAP1 PUSH2 0x158C JUMP JUMPDEST SWAP1 POP PUSH0 PUSH1 0x64 DUP5 PUSH2 0x72C SWAP2 SWAP1 PUSH2 0x17CA JUMP JUMPDEST SWAP1 POP PUSH1 0xA DUP2 LT ISZERO PUSH2 0x770 JUMPI PUSH2 0x740 DUP3 PUSH2 0xFD2 JUMP JUMPDEST PUSH2 0x749 DUP3 PUSH2 0xFD2 JUMP JUMPDEST PUSH1 0x40 MLOAD PUSH1 0x20 ADD PUSH2 0x75A SWAP3 SWAP2 SWAP1 PUSH2 0x18C8 JUMP JUMPDEST PUSH1 0x40 MLOAD PUSH1 0x20 DUP2 DUP4 SUB SUB DUP2 MSTORE SWAP1 PUSH1 0x40 MSTORE SWAP3 POP PUSH2 0x7A5 JUMP JUMPDEST PUSH2 0x779 DUP3 PUSH2 0xFD2 JUMP JUMPDEST PUSH2 0x782 DUP3 PUSH2 0xFD2 JUMP JUMPDEST PUSH1 0x40 MLOAD PUSH1 0x20 ADD PUSH2 0x793 SWAP3 SWAP2 SWAP1 PUSH2 0x194B JUMP JUMPDEST PUSH1 0x40 MLOAD PUSH1 0x20 DUP2 DUP4 SUB SUB DUP2 MSTORE SWAP1 PUSH1 0x40 MSTORE SWAP3 POP JUMPDEST POP POP SWAP1 SWAP2 JUMP JUMPDEST PUSH1 0x2 PUSH0 SWAP1 SLOAD SWAP1 PUSH2 0x100 EXP SWAP1 DIV PUSH20 0xFFFFFFFFFFFFFFFFFFFFFFFFFFFFFFFFFFFFFFFF AND DUP2 JUMP JUMPDEST PUSH1 0x1 DUP2 JUMP JUMPDEST PUSH1 0x64 DUP2 JUMP JUMPDEST PUSH1 0x1 PUSH0 SWAP1 SLOAD SWAP1 PUSH2 0x100 EXP SWAP1 DIV PUSH20 0xFFFFFFFFFFFFFFFFFFFFFFFFFFFFFFFFFFFFFFFF AND DUP2 JUMP JUMPDEST PUSH0 DUP1 PUSH1 0x2 PUSH0 SWAP1 SLOAD SWAP1 PUSH2 0x100 EXP SWAP1 DIV PUSH20 0xFFFFFFFFFFFFFFFFFFFFFFFFFFFFFFFFFFFFFFFF AND PUSH20 0xFFFFFFFFFFFFFFFFFFFFFFFFFFFFFFFFFFFFFFFF AND PUSH4 0xEC2B70A4 PUSH1 0x40 MLOAD DUP2 PUSH4 0xFFFFFFFF AND PUSH1 0xE0 SHL DUP2 MSTORE PUSH1 0x4 ADD PUSH1 0x20 PUSH1 0x40 MLOAD DUP1 DUP4 SUB DUP2 DUP7 GAS STATICCALL ISZERO DUP1 ISZERO PUSH2 0x86B JUMPI RETURNDATASIZE PUSH0 DUP1 RETURNDATACOPY RETURNDATASIZE PUSH0 REVERT JUMPDEST POP POP POP POP PUSH1 0x40 MLOAD RETURNDATASIZE PUSH1 0x1F NOT PUSH1 0x1F DUP3 ADD AND DUP3 ADD DUP1 PUSH1 0x40 MSTORE POP DUP2 ADD SWAP1 PUSH2 0x88F SWAP2 SWAP1 PUSH2 0x149F JUMP JUMPDEST SWAP1 POP PUSH0 DUP2 SUB PUSH2 0x8A3 JUMPI PUSH0 DUP1 SWAP2 POP SWAP2 POP PUSH2 0x8B2 JUMP JUMPDEST DUP1 DUP4 PUSH2 0x8AF SWAP2 SWAP1 PUSH2 0x1624 JUMP JUMPDEST SWAP2 POP JUMPDEST SWAP2 POP SWAP2 JUMP JUMPDEST PUSH0 DUP1 SLOAD SWAP1 PUSH2 0x100 EXP SWAP1 DIV PUSH20 0xFFFFFFFFFFFFFFFFFFFFFFFFFFFFFFFFFFFFFFFF AND DUP2 JUMP JUMPDEST PUSH0 DUP1 PUSH0 DUP1 SLOAD SWAP1 PUSH2 0x100 EXP SWAP1 DIV PUSH20 0xFFFFFFFFFFFFFFFFFFFFFFFFFFFFFFFFFFFFFFFF AND PUSH20 0xFFFFFFFFFFFFFFFFFFFFFFFFFFFFFFFFFFFFFFFF AND PUSH4 0x70A08231 DUP5 PUSH1 0x40 MLOAD DUP3 PUSH4 0xFFFFFFFF AND PUSH1 0xE0 SHL DUP2 MSTORE PUSH1 0x4 ADD PUSH2 0x934 SWAP2 SWAP1 PUSH2 0x11CC JUMP JUMPDEST PUSH1 0x20 PUSH1 0x40 MLOAD DUP1 DUP4 SUB DUP2 DUP7 GAS STATICCALL ISZERO DUP1 ISZERO PUSH2 0x94F JUMPI RETURNDATASIZE PUSH0 DUP1 RETURNDATACOPY RETURNDATASIZE PUSH0 REVERT JUMPDEST POP POP POP POP PUSH1 0x40 MLOAD RETURNDATASIZE PUSH1 0x1F NOT PUSH1 0x1F DUP3 ADD AND DUP3 ADD DUP1 PUSH1 0x40 MSTORE POP DUP2 ADD SWAP1 PUSH2 0x973 SWAP2 SWAP1 PUSH2 0x149F JUMP JUMPDEST PUSH1 0x1 PUSH0 SWAP1 SLOAD SWAP1 PUSH2 0x100 EXP SWAP1 DIV PUSH20 0xFFFFFFFFFFFFFFFFFFFFFFFFFFFFFFFFFFFFFFFF AND PUSH20 0xFFFFFFFFFFFFFFFFFFFFFFFFFFFFFFFFFFFFFFFF AND PUSH4 0x70A08231 DUP6 PUSH1 0x40 MLOAD DUP3 PUSH4 0xFFFFFFFF AND PUSH1 0xE0 SHL DUP2 MSTORE PUSH1 0x4 ADD PUSH2 0x9CD SWAP2 SWAP1 PUSH2 0x11CC JUMP JUMPDEST PUSH1 0x20 PUSH1 0x40 MLOAD DUP1 DUP4 SUB DUP2 DUP7 GAS STATICCALL ISZERO DUP1 ISZERO PUSH2 0x9E8 JUMPI RETURNDATASIZE PUSH0 DUP1 RETURNDATACOPY RETURNDATASIZE PUSH0 REVERT JUMPDEST POP POP POP POP PUSH1 0x40 MLOAD RETURNDATASIZE PUSH1 0x1F NOT PUSH1 0x1F DUP3 ADD AND DUP3 ADD DUP1 PUSH1 0x40 MSTORE POP DUP2 ADD SWAP1 PUSH2 0xA0C SWAP2 SWAP1 PUSH2 0x149F JUMP JUMPDEST SWAP2 POP SWAP2 POP SWAP2 POP SWAP2 JUMP JUMPDEST PUSH1 0x1 DUP2 LT ISZERO PUSH2 0xA59 JUMPI PUSH1 0x40 MLOAD PUSH32 0x8C379A000000000000000000000000000000000000000000000000000000000 DUP2 MSTORE PUSH1 0x4 ADD PUSH2 0xA50 SWAP1 PUSH2 0x146D JUMP JUMPDEST PUSH1 0x40 MLOAD DUP1 SWAP2 SUB SWAP1 REVERT JUMPDEST PUSH0 PUSH1 0x2 PUSH0 SWAP1 SLOAD SWAP1 PUSH2 0x100 EXP SWAP1 DIV PUSH20 0xFFFFFFFFFFFFFFFFFFFFFFFFFFFFFFFFFFFFFFFF AND PUSH20 0xFFFFFFFFFFFFFFFFFFFFFFFFFFFFFFFFFFFFFFFF AND PUSH4 0xEC2B70A4 PUSH1 0x40 MLOAD DUP2 PUSH4 0xFFFFFFFF AND PUSH1 0xE0 SHL DUP2 MSTORE PUSH1 0x4 ADD PUSH1 0x20 PUSH1 0x40 MLOAD DUP1 DUP4 SUB DUP2 DUP7 GAS STATICCALL ISZERO DUP1 ISZERO PUSH2 0xAC4 JUMPI RETURNDATASIZE PUSH0 DUP1 RETURNDATACOPY RETURNDATASIZE PUSH0 REVERT JUMPDEST POP POP POP POP PUSH1 0x40 MLOAD RETURNDATASIZE PUSH1 0x1F NOT PUSH1 0x1F DUP3 ADD AND DUP3 ADD DUP1 PUSH1 0x40 MSTORE POP DUP2 ADD SWAP1 PUSH2 0xAE8 SWAP2 SWAP1 PUSH2 0x149F JUMP JUMPDEST SWAP1 POP PUSH0 DUP2 GT PUSH2 0xB2C JUMPI PUSH1 0x40 MLOAD PUSH32 0x8C379A000000000000000000000000000000000000000000000000000000000 DUP2 MSTORE PUSH1 0x4 ADD PUSH2 0xB23 SWAP1 PUSH2 0x1514 JUMP JUMPDEST PUSH1 0x40 MLOAD DUP1 SWAP2 SUB SWAP1 REVERT JUMPDEST PUSH0 DUP2 DUP4 PUSH2 0xB39 SWAP2 SWAP1 PUSH2 0x1624 JUMP JUMPDEST SWAP1 POP PUSH1 0x1 PUSH0 SWAP1 SLOAD SWAP1 PUSH2 0x100 EXP SWAP1 DIV PUSH20 0xFFFFFFFFFFFFFFFFFFFFFFFFFFFFFFFFFFFFFFFF AND PUSH20 0xFFFFFFFFFFFFFFFFFFFFFFFFFFFFFFFFFFFFFFFF AND PUSH4 0x23B872DD CALLER PUSH1 0x3 PUSH0 SWAP1 SLOAD SWAP1 PUSH2 0x100 EXP SWAP1 DIV PUSH20 0xFFFFFFFFFFFFFFFFFFFFFFFFFFFFFFFFFFFFFFFF AND DUP7 PUSH1 0x40 MLOAD DUP5 PUSH4 0xFFFFFFFF AND PUSH1 0xE0 SHL DUP2 MSTORE PUSH1 0x4 ADD PUSH2 0xBBA SWAP4 SWAP3 SWAP2 SWAP1 PUSH2 0x1665 JUMP JUMPDEST PUSH1 0x20 PUSH1 0x40 MLOAD DUP1 DUP4 SUB DUP2 PUSH0 DUP8 GAS CALL ISZERO DUP1 ISZERO PUSH2 0xBD6 JUMPI RETURNDATASIZE PUSH0 DUP1 RETURNDATACOPY RETURNDATASIZE PUSH0 REVERT JUMPDEST POP POP POP POP PUSH1 0x40 MLOAD RETURNDATASIZE PUSH1 0x1F NOT PUSH1 0x1F DUP3 ADD AND DUP3 ADD DUP1 PUSH1 0x40 MSTORE POP DUP2 ADD SWAP1 PUSH2 0xBFA SWAP2 SWAP1 PUSH2 0x16CF JUMP JUMPDEST PUSH2 0xC39 JUMPI PUSH1 0x40 MLOAD PUSH32 0x8C379A000000000000000000000000000000000000000000000000000000000 DUP2 MSTORE PUSH1 0x4 ADD PUSH2 0xC30 SWAP1 PUSH2 0x17AC JUMP JUMPDEST PUSH1 0x40 MLOAD DUP1 SWAP2 SUB SWAP1 REVERT JUMPDEST PUSH0 DUP1 SLOAD SWAP1 PUSH2 0x100 EXP SWAP1 DIV PUSH20 0xFFFFFFFFFFFFFFFFFFFFFFFFFFFFFFFFFFFFFFFF AND PUSH20 0xFFFFFFFFFFFFFFFFFFFFFFFFFFFFFFFFFFFFFFFF AND PUSH4 0x23B872DD PUSH1 0x3 PUSH0 SWAP1 SLOAD SWAP1 PUSH2 0x100 EXP SWAP1 DIV PUSH20 0xFFFFFFFFFFFFFFFFFFFFFFFFFFFFFFFFFFFFFFFF AND CALLER DUP5 PUSH1 0x40 MLOAD DUP5 PUSH4 0xFFFFFFFF AND PUSH1 0xE0 SHL DUP2 MSTORE PUSH1 0x4 ADD PUSH2 0xCB6 SWAP4 SWAP3 SWAP2 SWAP1 PUSH2 0x1665 JUMP JUMPDEST PUSH1 0x20 PUSH1 0x40 MLOAD DUP1 DUP4 SUB DUP2 PUSH0 DUP8 GAS CALL ISZERO DUP1 ISZERO PUSH2 0xCD2 JUMPI RETURNDATASIZE PUSH0 DUP1 RETURNDATACOPY RETURNDATASIZE PUSH0 REVERT JUMPDEST POP POP POP POP PUSH1 0x40 MLOAD RETURNDATASIZE PUSH1 0x1F NOT PUSH1 0x1F DUP3 ADD AND DUP3 ADD DUP1 PUSH1 0x40 MSTORE POP DUP2 ADD SWAP1 PUSH2 0xCF6 SWAP2 SWAP1 PUSH2 0x16CF JUMP JUMPDEST PUSH2 0xD35 JUMPI PUSH1 0x40 MLOAD PUSH32 0x8C379A000000000000000000000000000000000000000000000000000000000 DUP2 MSTORE PUSH1 0x4 ADD PUSH2 0xD2C SWAP1 PUSH2 0x1744 JUMP JUMPDEST PUSH1 0x40 MLOAD DUP1 SWAP2 SUB SWAP1 REVERT JUMPDEST CALLER PUSH20 0xFFFFFFFFFFFFFFFFFFFFFFFFFFFFFFFFFFFFFFFF AND PUSH32 0xEEBDDEDDF4AE1EE54A48517AF27958E7666D69C7BA2E3E7C2B0FF87EF5F4491E DUP5 DUP4 PUSH1 0x40 MLOAD PUSH2 0xD7D SWAP3 SWAP2 SWAP1 PUSH2 0x1372 JUMP JUMPDEST PUSH1 0x40 MLOAD DUP1 SWAP2 SUB SWAP1 LOG2 POP POP POP JUMP JUMPDEST PUSH0 DUP1 PUSH0 PUSH1 0x2 PUSH0 SWAP1 SLOAD SWAP1 PUSH2 0x100 EXP SWAP1 DIV PUSH20 0xFFFFFFFFFFFFFFFFFFFFFFFFFFFFFFFFFFFFFFFF AND PUSH20 0xFFFFFFFFFFFFFFFFFFFFFFFFFFFFFFFFFFFFFFFF AND PUSH4 0xEC2B70A4 PUSH1 0x40 MLOAD DUP2 PUSH4 0xFFFFFFFF AND PUSH1 0xE0 SHL DUP2 MSTORE PUSH1 0x4 ADD PUSH1 0x20 PUSH1 0x40 MLOAD DUP1 DUP4 SUB DUP2 DUP7 GAS STATICCALL ISZERO DUP1 ISZERO PUSH2 0xDF7 JUMPI RETURNDATASIZE PUSH0 DUP1 RETURNDATACOPY RETURNDATASIZE PUSH0 REVERT JUMPDEST POP POP POP POP PUSH1 0x40 MLOAD RETURNDATASIZE PUSH1 0x1F NOT PUSH1 0x1F DUP3 ADD AND DUP3 ADD DUP1 PUSH1 0x40 MSTORE POP DUP2 ADD SWAP1 PUSH2 0xE1B SWAP2 SWAP1 PUSH2 0x149F JUMP JUMPDEST SWAP1 POP PUSH0 DUP2 SUB PUSH2 0xE32 JUMPI PUSH0 DUP1 PUSH0 SWAP3 POP SWAP3 POP SWAP3 POP PUSH2 0xE4F JUMP JUMPDEST DUP1 DUP5 PUSH2 0xE3E SWAP2 SWAP1 PUSH2 0x158C JUMP JUMPDEST SWAP3 POP DUP1 DUP4 PUSH2 0xE4C SWAP2 SWAP1 PUSH2 0x1624 JUMP JUMPDEST SWAP2 POP JUMPDEST SWAP2 SWAP4 SWAP1 SWAP3 POP JUMP JUMPDEST PUSH0 DUP1 PUSH0 DUP1 SLOAD SWAP1 PUSH2 0x100 EXP SWAP1 DIV PUSH20 0xFFFFFFFFFFFFFFFFFFFFFFFFFFFFFFFFFFFFFFFF AND PUSH20 0xFFFFFFFFFFFFFFFFFFFFFFFFFFFFFFFFFFFFFFFF AND PUSH4 0x70A08231 PUSH1 0x3 PUSH0 SWAP1 SLOAD SWAP1 PUSH2 0x100 EXP SWAP1 DIV PUSH20 0xFFFFFFFFFFFFFFFFFFFFFFFFFFFFFFFFFFFFFFFF AND PUSH1 0x40 MLOAD DUP3 PUSH4 0xFFFFFFFF AND PUSH1 0xE0 SHL DUP2 MSTORE PUSH1 0x4 ADD PUSH2 0xED1 SWAP2 SWAP1 PUSH2 0x11CC JUMP JUMPDEST PUSH1 0x20 PUSH1 0x40 MLOAD DUP1 DUP4 SUB DUP2 DUP7 GAS STATICCALL ISZERO DUP1 ISZERO PUSH2 0xEEC JUMPI RETURNDATASIZE PUSH0 DUP1 RETURNDATACOPY RETURNDATASIZE PUSH0 REVERT JUMPDEST POP POP POP POP PUSH1 0x40 MLOAD RETURNDATASIZE PUSH1 0x1F NOT PUSH1 0x1F DUP3 ADD AND DUP3 ADD DUP1 PUSH1 0x40 MSTORE POP DUP2 ADD SWAP1 PUSH2 0xF10 SWAP2 SWAP1 PUSH2 0x149F JUMP JUMPDEST PUSH1 0x1 PUSH0 SWAP1 SLOAD SWAP1 PUSH2 0x100 EXP SWAP1 DIV PUSH20 0xFFFFFFFFFFFFFFFFFFFFFFFFFFFFFFFFFFFFFFFF AND PUSH20 0xFFFFFFFFFFFFFFFFFFFFFFFFFFFFFFFFFFFFFFFF AND PUSH4 0x70A08231 PUSH1 0x3 PUSH0 SWAP1 SLOAD SWAP1 PUSH2 0x100 EXP SWAP1 DIV PUSH20 0xFFFFFFFFFFFFFFFFFFFFFFFFFFFFFFFFFFFFFFFF AND PUSH1 0x40 MLOAD DUP3 PUSH4 0xFFFFFFFF AND PUSH1 0xE0 SHL DUP2 MSTORE PUSH1 0x4 ADD PUSH2 0xF8B SWAP2 SWAP1 PUSH2 0x11CC JUMP JUMPDEST PUSH1 0x20 PUSH1 0x40 MLOAD DUP1 DUP4 SUB DUP2 DUP7 GAS STATICCALL ISZERO DUP1 ISZERO PUSH2 0xFA6 JUMPI RETURNDATASIZE PUSH0 DUP1 RETURNDATACOPY RETURNDATASIZE PUSH0 REVERT JUMPDEST POP POP POP POP PUSH1 0x40 MLOAD RETURNDATASIZE PUSH1 0x1F NOT PUSH1 0x1F DUP3 ADD AND DUP3 ADD DUP1 PUSH1 0x40 MSTORE POP DUP2 ADD SWAP1 PUSH2 0xFCA SWAP2 SWAP1 PUSH2 0x149F JUMP JUMPDEST SWAP2 POP SWAP2 POP SWAP1 SWAP2 JUMP JUMPDEST PUSH1 0x60 PUSH0 DUP3 SUB PUSH2 0x1018 JUMPI PUSH1 0x40 MLOAD DUP1 PUSH1 0x40 ADD PUSH1 0x40 MSTORE DUP1 PUSH1 0x1 DUP2 MSTORE PUSH1 0x20 ADD PUSH32 0x3000000000000000000000000000000000000000000000000000000000000000 DUP2 MSTORE POP SWAP1 POP PUSH2 0x1126 JUMP JUMPDEST PUSH0 DUP3 SWAP1 POP PUSH0 JUMPDEST PUSH0 DUP3 EQ PUSH2 0x1047 JUMPI DUP1 DUP1 PUSH2 0x1030 SWAP1 PUSH2 0x1984 JUMP JUMPDEST SWAP2 POP POP PUSH1 0xA DUP3 PUSH2 0x1040 SWAP2 SWAP1 PUSH2 0x158C JUMP JUMPDEST SWAP2 POP PUSH2 0x101E JUMP JUMPDEST PUSH0 DUP2 PUSH8 0xFFFFFFFFFFFFFFFF DUP2 GT ISZERO PUSH2 0x1062 JUMPI PUSH2 0x1061 PUSH2 0x19CB JUMP JUMPDEST JUMPDEST PUSH1 0x40 MLOAD SWAP1 DUP1 DUP3 MSTORE DUP1 PUSH1 0x1F ADD PUSH1 0x1F NOT AND PUSH1 0x20 ADD DUP3 ADD PUSH1 0x40 MSTORE DUP1 ISZERO PUSH2 0x1094 JUMPI DUP2 PUSH1 0x20 ADD PUSH1 0x1 DUP3 MUL DUP1 CALLDATASIZE DUP4 CALLDATACOPY DUP1 DUP3 ADD SWAP2 POP POP SWAP1 POP JUMPDEST POP SWAP1 POP JUMPDEST PUSH0 DUP6 EQ PUSH2 0x111F JUMPI PUSH1 0x1 DUP3 PUSH2 0x10AC SWAP2 SWAP1 PUSH2 0x19F8 JUMP JUMPDEST SWAP2 POP PUSH1 0xA DUP6 PUSH2 0x10BB SWAP2 SWAP1 PUSH2 0x17CA JUMP JUMPDEST PUSH1 0x30 PUSH2 0x10C7 SWAP2 SWAP1 PUSH2 0x1A2B JUMP JUMPDEST PUSH1 0xF8 SHL DUP2 DUP4 DUP2 MLOAD DUP2 LT PUSH2 0x10DD JUMPI PUSH2 0x10DC PUSH2 0x1A5E JUMP JUMPDEST JUMPDEST PUSH1 0x20 ADD ADD SWAP1 PUSH31 0xFFFFFFFFFFFFFFFFFFFFFFFFFFFFFFFFFFFFFFFFFFFFFFFFFFFFFFFFFFFFFF NOT AND SWAP1 DUP2 PUSH0 BYTE SWAP1 MSTORE8 POP PUSH1 0xA DUP6 PUSH2 0x1118 SWAP2 SWAP1 PUSH2 0x158C JUMP JUMPDEST SWAP5 POP PUSH2 0x1098 JUMP JUMPDEST DUP1 SWAP4 POP POP POP POP JUMPDEST SWAP2 SWAP1 POP JUMP JUMPDEST PUSH0 DUP1 REVERT JUMPDEST PUSH0 DUP2 SWAP1 POP SWAP2 SWAP1 POP JUMP JUMPDEST PUSH2 0x1141 DUP2 PUSH2 0x112F JUMP JUMPDEST DUP2 EQ PUSH2 0x114B JUMPI PUSH0 DUP1 REVERT JUMPDEST POP JUMP JUMPDEST PUSH0 DUP2 CALLDATALOAD SWAP1 POP PUSH2 0x115C DUP2 PUSH2 0x1138 JUMP JUMPDEST SWAP3 SWAP2 POP POP JUMP JUMPDEST PUSH0 PUSH1 0x20 DUP3 DUP5 SUB SLT ISZERO PUSH2 0x1177 JUMPI PUSH2 0x1176 PUSH2 0x112B JUMP JUMPDEST JUMPDEST PUSH0 PUSH2 0x1184 DUP5 DUP3 DUP6 ADD PUSH2 0x114E JUMP JUMPDEST SWAP2 POP POP SWAP3 SWAP2 POP POP JUMP JUMPDEST PUSH0 PUSH20 0xFFFFFFFFFFFFFFFFFFFFFFFFFFFFFFFFFFFFFFFF DUP3 AND SWAP1 POP SWAP2 SWAP1 POP JUMP JUMPDEST PUSH0 PUSH2 0x11B6 DUP3 PUSH2 0x118D JUMP JUMPDEST SWAP1 POP SWAP2 SWAP1 POP JUMP JUMPDEST PUSH2 0x11C6 DUP2 PUSH2 0x11AC JUMP JUMPDEST DUP3 MSTORE POP POP JUMP JUMPDEST PUSH0 PUSH1 0x20 DUP3 ADD SWAP1 POP PUSH2 0x11DF PUSH0 DUP4 ADD DUP5 PUSH2 0x11BD JUMP JUMPDEST SWAP3 SWAP2 POP POP JUMP JUMPDEST PUSH2 0x11EE DUP2 PUSH2 0x112F JUMP JUMPDEST DUP3 MSTORE POP POP JUMP JUMPDEST PUSH0 DUP2 MLOAD SWAP1 POP SWAP2 SWAP1 POP JUMP JUMPDEST PUSH0 DUP3 DUP3 MSTORE PUSH1 0x20 DUP3 ADD SWAP1 POP SWAP3 SWAP2 POP POP JUMP JUMPDEST PUSH0 JUMPDEST DUP4 DUP2 LT ISZERO PUSH2 0x122B JUMPI DUP1 DUP3 ADD MLOAD DUP2 DUP5 ADD MSTORE PUSH1 0x20 DUP2 ADD SWAP1 POP PUSH2 0x1210 JUMP JUMPDEST PUSH0 DUP5 DUP5 ADD MSTORE POP POP POP POP JUMP JUMPDEST PUSH0 PUSH1 0x1F NOT PUSH1 0x1F DUP4 ADD AND SWAP1 POP SWAP2 SWAP1 POP JUMP JUMPDEST PUSH0 PUSH2 0x1250 DUP3 PUSH2 0x11F4 JUMP JUMPDEST PUSH2 0x125A DUP2 DUP6 PUSH2 0x11FE JUMP JUMPDEST SWAP4 POP PUSH2 0x126A DUP2 DUP6 PUSH1 0x20 DUP7 ADD PUSH2 0x120E JUMP JUMPDEST PUSH2 0x1273 DUP2 PUSH2 0x1236 JUMP JUMPDEST DUP5 ADD SWAP2 POP POP SWAP3 SWAP2 POP POP JUMP JUMPDEST PUSH0 PUSH1 0x40 DUP3 ADD SWAP1 POP PUSH2 0x1291 PUSH0 DUP4 ADD DUP6 PUSH2 0x11E5 JUMP JUMPDEST DUP2 DUP2 SUB PUSH1 0x20 DUP4 ADD MSTORE PUSH2 0x12A3 DUP2 DUP5 PUSH2 0x1246 JUMP JUMPDEST SWAP1 POP SWAP4 SWAP3 POP POP POP JUMP JUMPDEST PUSH0 DUP2 SWAP1 POP SWAP2 SWAP1 POP JUMP JUMPDEST PUSH0 PUSH2 0x12CF PUSH2 0x12CA PUSH2 0x12C5 DUP5 PUSH2 0x118D JUMP JUMPDEST PUSH2 0x12AC JUMP JUMPDEST PUSH2 0x118D JUMP JUMPDEST SWAP1 POP SWAP2 SWAP1 POP JUMP JUMPDEST PUSH0 PUSH2 0x12E0 DUP3 PUSH2 0x12B5 JUMP JUMPDEST SWAP1 POP SWAP2 SWAP1 POP JUMP JUMPDEST PUSH0 PUSH2 0x12F1 DUP3 PUSH2 0x12D6 JUMP JUMPDEST SWAP1 POP SWAP2 SWAP1 POP JUMP JUMPDEST PUSH2 0x1301 DUP2 PUSH2 0x12E7 JUMP JUMPDEST DUP3 MSTORE POP POP JUMP JUMPDEST PUSH0 PUSH1 0x20 DUP3 ADD SWAP1 POP PUSH2 0x131A PUSH0 DUP4 ADD DUP5 PUSH2 0x12F8 JUMP JUMPDEST SWAP3 SWAP2 POP POP JUMP JUMPDEST PUSH0 PUSH1 0x20 DUP3 ADD SWAP1 POP PUSH2 0x1333 PUSH0 DUP4 ADD DUP5 PUSH2 0x11E5 JUMP JUMPDEST SWAP3 SWAP2 POP POP JUMP JUMPDEST PUSH0 PUSH2 0x1343 DUP3 PUSH2 0x12D6 JUMP JUMPDEST SWAP1 POP SWAP2 SWAP1 POP JUMP JUMPDEST PUSH2 0x1353 DUP2 PUSH2 0x1339 JUMP JUMPDEST DUP3 MSTORE POP POP JUMP JUMPDEST PUSH0 PUSH1 0x20 DUP3 ADD SWAP1 POP PUSH2 0x136C PUSH0 DUP4 ADD DUP5 PUSH2 0x134A JUMP JUMPDEST SWAP3 SWAP2 POP POP JUMP JUMPDEST PUSH0 PUSH1 0x40 DUP3 ADD SWAP1 POP PUSH2 0x1385 PUSH0 DUP4 ADD DUP6 PUSH2 0x11E5 JUMP JUMPDEST PUSH2 0x1392 PUSH1 0x20 DUP4 ADD DUP5 PUSH2 0x11E5 JUMP JUMPDEST SWAP4 SWAP3 POP POP POP JUMP JUMPDEST PUSH2 0x13A2 DUP2 PUSH2 0x11AC JUMP JUMPDEST DUP2 EQ PUSH2 0x13AC JUMPI PUSH0 DUP1 REVERT JUMPDEST POP JUMP JUMPDEST PUSH0 DUP2 CALLDATALOAD SWAP1 POP PUSH2 0x13BD DUP2 PUSH2 0x1399 JUMP JUMPDEST SWAP3 SWAP2 POP POP JUMP JUMPDEST PUSH0 PUSH1 0x20 DUP3 DUP5 SUB SLT ISZERO PUSH2 0x13D8 JUMPI PUSH2 0x13D7 PUSH2 0x112B JUMP JUMPDEST JUMPDEST PUSH0 PUSH2 0x13E5 DUP5 DUP3 DUP6 ADD PUSH2 0x13AF JUMP JUMPDEST SWAP2 POP POP SWAP3 SWAP2 POP POP JUMP JUMPDEST PUSH0 PUSH1 0x60 DUP3 ADD SWAP1 POP PUSH2 0x1401 PUSH0 DUP4 ADD DUP7 PUSH2 0x11E5 JUMP JUMPDEST PUSH2 0x140E PUSH1 0x20 DUP4 ADD DUP6 PUSH2 0x11E5 JUMP JUMPDEST PUSH2 0x141B PUSH1 0x40 DUP4 ADD DUP5 PUSH2 0x11E5 JUMP JUMPDEST SWAP5 SWAP4 POP POP POP POP JUMP JUMPDEST PUSH32 0x416D6F756E7420746F6F20736D616C6C00000000000000000000000000000000 PUSH0 DUP3 ADD MSTORE POP JUMP JUMPDEST PUSH0 PUSH2 0x1457 PUSH1 0x10 DUP4 PUSH2 0x11FE JUMP JUMPDEST SWAP2 POP PUSH2 0x1462 DUP3 PUSH2 0x1423 JUMP JUMPDEST PUSH1 0x20 DUP3 ADD SWAP1 POP SWAP2 SWAP1 POP JUMP JUMPDEST PUSH0 PUSH1 0x20 DUP3 ADD SWAP1 POP DUP2 DUP2 SUB PUSH0 DUP4 ADD MSTORE PUSH2 0x1484 DUP2 PUSH2 0x144B JUMP JUMPDEST SWAP1 POP SWAP2 SWAP1 POP JUMP JUMPDEST PUSH0 DUP2 MLOAD SWAP1 POP PUSH2 0x1499 DUP2 PUSH2 0x1138 JUMP JUMPDEST SWAP3 SWAP2 POP POP JUMP JUMPDEST PUSH0 PUSH1 0x20 DUP3 DUP5 SUB SLT ISZERO PUSH2 0x14B4 JUMPI PUSH2 0x14B3 PUSH2 0x112B JUMP JUMPDEST JUMPDEST PUSH0 PUSH2 0x14C1 DUP5 DUP3 DUP6 ADD PUSH2 0x148B JUMP JUMPDEST SWAP2 POP POP SWAP3 SWAP2 POP POP JUMP JUMPDEST PUSH32 0x496E76616C696420707269636500000000000000000000000000000000000000 PUSH0 DUP3 ADD MSTORE POP JUMP JUMPDEST PUSH0 PUSH2 0x14FE PUSH1 0xD DUP4 PUSH2 0x11FE JUMP JUMPDEST SWAP2 POP PUSH2 0x1509 DUP3 PUSH2 0x14CA JUMP JUMPDEST PUSH1 0x20 DUP3 ADD SWAP1 POP SWAP2 SWAP1 POP JUMP JUMPDEST PUSH0 PUSH1 0x20 DUP3 ADD SWAP1 POP DUP2 DUP2 SUB PUSH0 DUP4 ADD MSTORE PUSH2 0x152B DUP2 PUSH2 0x14F2 JUMP JUMPDEST SWAP1 POP SWAP2 SWAP1 POP JUMP JUMPDEST PUSH32 0x4E487B7100000000000000000000000000000000000000000000000000000000 PUSH0 MSTORE PUSH1 0x12 PUSH1 0x4 MSTORE PUSH1 0x24 PUSH0 REVERT JUMPDEST PUSH32 0x4E487B7100000000000000000000000000000000000000000000000000000000 PUSH0 MSTORE PUSH1 0x11 PUSH1 0x4 MSTORE PUSH1 0x24 PUSH0 REVERT JUMPDEST PUSH0 PUSH2 0x1596 DUP3 PUSH2 0x112F JUMP JUMPDEST SWAP2 POP PUSH2 0x15A1 DUP4 PUSH2 0x112F JUMP JUMPDEST SWAP3 POP DUP3 PUSH2 0x15B1 JUMPI PUSH2 0x15B0 PUSH2 0x1532 JUMP JUMPDEST JUMPDEST DUP3 DUP3 DIV SWAP1 POP SWAP3 SWAP2 POP POP JUMP JUMPDEST PUSH32 0x496E73756666696369656E7420616D6F756E7420666F72203120736861726500 PUSH0 DUP3 ADD MSTORE POP JUMP JUMPDEST PUSH0 PUSH2 0x15F0 PUSH1 0x1F DUP4 PUSH2 0x11FE JUMP JUMPDEST SWAP2 POP PUSH2 0x15FB DUP3 PUSH2 0x15BC JUMP JUMPDEST PUSH1 0x20 DUP3 ADD SWAP1 POP SWAP2 SWAP1 POP JUMP JUMPDEST PUSH0 PUSH1 0x20 DUP3 ADD SWAP1 POP DUP2 DUP2 SUB PUSH0 DUP4 ADD MSTORE PUSH2 0x161D DUP2 PUSH2 0x15E4 JUMP JUMPDEST SWAP1 POP SWAP2 SWAP1 POP JUMP JUMPDEST PUSH0 PUSH2 0x162E DUP3 PUSH2 0x112F JUMP JUMPDEST SWAP2 POP PUSH2 0x1639 DUP4 PUSH2 0x112F JUMP JUMPDEST SWAP3 POP DUP3 DUP3 MUL PUSH2 0x1647 DUP2 PUSH2 0x112F JUMP JUMPDEST SWAP2 POP DUP3 DUP3 DIV DUP5 EQ DUP4 ISZERO OR PUSH2 0x165E JUMPI PUSH2 0x165D PUSH2 0x155F JUMP JUMPDEST JUMPDEST POP SWAP3 SWAP2 POP POP JUMP JUMPDEST PUSH0 PUSH1 0x60 DUP3 ADD SWAP1 POP PUSH2 0x1678 PUSH0 DUP4 ADD DUP7 PUSH2 0x11BD JUMP JUMPDEST PUSH2 0x1685 PUSH1 0x20 DUP4 ADD DUP6 PUSH2 0x11BD JUMP JUMPDEST PUSH2 0x1692 PUSH1 0x40 DUP4 ADD DUP5 PUSH2 0x11E5 JUMP JUMPDEST SWAP5 SWAP4 POP POP POP POP JUMP JUMPDEST PUSH0 DUP2 ISZERO ISZERO SWAP1 POP SWAP2 SWAP1 POP JUMP JUMPDEST PUSH2 0x16AE DUP2 PUSH2 0x169A JUMP JUMPDEST DUP2 EQ PUSH2 0x16B8 JUMPI PUSH0 DUP1 REVERT JUMPDEST POP JUMP JUMPDEST PUSH0 DUP2 MLOAD SWAP1 POP PUSH2 0x16C9 DUP2 PUSH2 0x16A5 JUMP JUMPDEST SWAP3 SWAP2 POP POP JUMP JUMPDEST PUSH0 PUSH1 0x20 DUP3 DUP5 SUB SLT ISZERO PUSH2 0x16E4 JUMPI PUSH2 0x16E3 PUSH2 0x112B JUMP JUMPDEST JUMPDEST PUSH0 PUSH2 0x16F1 DUP5 DUP3 DUP6 ADD PUSH2 0x16BB JUMP JUMPDEST SWAP2 POP POP SWAP3 SWAP2 POP POP JUMP JUMPDEST PUSH32 0x55534474207472616E73666572206661696C6564000000000000000000000000 PUSH0 DUP3 ADD MSTORE POP JUMP JUMPDEST PUSH0 PUSH2 0x172E PUSH1 0x14 DUP4 PUSH2 0x11FE JUMP JUMPDEST SWAP2 POP PUSH2 0x1739 DUP3 PUSH2 0x16FA JUMP JUMPDEST PUSH1 0x20 DUP3 ADD SWAP1 POP SWAP2 SWAP1 POP JUMP JUMPDEST PUSH0 PUSH1 0x20 DUP3 ADD SWAP1 POP DUP2 DUP2 SUB PUSH0 DUP4 ADD MSTORE PUSH2 0x175B DUP2 PUSH2 0x1722 JUMP JUMPDEST SWAP1 POP SWAP2 SWAP1 POP JUMP JUMPDEST PUSH32 0x3030353074207472616E73666572206661696C65640000000000000000000000 PUSH0 DUP3 ADD MSTORE POP JUMP JUMPDEST PUSH0 PUSH2 0x1796 PUSH1 0x15 DUP4 PUSH2 0x11FE JUMP JUMPDEST SWAP2 POP PUSH2 0x17A1 DUP3 PUSH2 0x1762 JUMP JUMPDEST PUSH1 0x20 DUP3 ADD SWAP1 POP SWAP2 SWAP1 POP JUMP JUMPDEST PUSH0 PUSH1 0x20 DUP3 ADD SWAP1 POP DUP2 DUP2 SUB PUSH0 DUP4 ADD MSTORE PUSH2 0x17C3 DUP2 PUSH2 0x178A JUMP JUMPDEST SWAP1 POP SWAP2 SWAP1 POP JUMP JUMPDEST PUSH0 PUSH2 0x17D4 DUP3 PUSH2 0x112F JUMP JUMPDEST SWAP2 POP PUSH2 0x17DF DUP4 PUSH2 0x112F JUMP JUMPDEST SWAP3 POP DUP3 PUSH2 0x17EF JUMPI PUSH2 0x17EE PUSH2 0x1532 JUMP JUMPDEST JUMPDEST DUP3 DUP3 MOD SWAP1 POP SWAP3 SWAP2 POP POP JUMP JUMPDEST PUSH0 DUP2 SWAP1 POP SWAP3 SWAP2 POP POP JUMP JUMPDEST PUSH32 0x2400000000000000000000000000000000000000000000000000000000000000 PUSH0 DUP3 ADD MSTORE POP JUMP JUMPDEST PUSH0 PUSH2 0x1838 PUSH1 0x1 DUP4 PUSH2 0x17FA JUMP JUMPDEST SWAP2 POP PUSH2 0x1843 DUP3 PUSH2 0x1804 JUMP JUMPDEST PUSH1 0x1 DUP3 ADD SWAP1 POP SWAP2 SWAP1 POP JUMP JUMPDEST PUSH0 PUSH2 0x1858 DUP3 PUSH2 0x11F4 JUMP JUMPDEST PUSH2 0x1862 DUP2 DUP6 PUSH2 0x17FA JUMP JUMPDEST SWAP4 POP PUSH2 0x1872 DUP2 DUP6 PUSH1 0x20 DUP7 ADD PUSH2 0x120E JUMP JUMPDEST DUP1 DUP5 ADD SWAP2 POP POP SWAP3 SWAP2 POP POP JUMP JUMPDEST PUSH32 0x2E30000000000000000000000000000000000000000000000000000000000000 PUSH0 DUP3 ADD MSTORE POP JUMP JUMPDEST PUSH0 PUSH2 0x18B2 PUSH1 0x2 DUP4 PUSH2 0x17FA JUMP JUMPDEST SWAP2 POP PUSH2 0x18BD DUP3 PUSH2 0x187E JUMP JUMPDEST PUSH1 0x2 DUP3 ADD SWAP1 POP SWAP2 SWAP1 POP JUMP JUMPDEST PUSH0 PUSH2 0x18D2 DUP3 PUSH2 0x182C JUMP JUMPDEST SWAP2 POP PUSH2 0x18DE DUP3 DUP6 PUSH2 0x184E JUMP JUMPDEST SWAP2 POP PUSH2 0x18E9 DUP3 PUSH2 0x18A6 JUMP JUMPDEST SWAP2 POP PUSH2 0x18F5 DUP3 DUP5 PUSH2 0x184E JUMP JUMPDEST SWAP2 POP DUP2 SWAP1 POP SWAP4 SWAP3 POP POP POP JUMP JUMPDEST PUSH32 0x2E00000000000000000000000000000000000000000000000000000000000000 PUSH0 DUP3 ADD MSTORE POP JUMP JUMPDEST PUSH0 PUSH2 0x1935 PUSH1 0x1 DUP4 PUSH2 0x17FA JUMP JUMPDEST SWAP2 POP PUSH2 0x1940 DUP3 PUSH2 0x1901 JUMP JUMPDEST PUSH1 0x1 DUP3 ADD SWAP1 POP SWAP2 SWAP1 POP JUMP JUMPDEST PUSH0 PUSH2 0x1955 DUP3 PUSH2 0x182C JUMP JUMPDEST SWAP2 POP PUSH2 0x1961 DUP3 DUP6 PUSH2 0x184E JUMP JUMPDEST SWAP2 POP PUSH2 0x196C DUP3 PUSH2 0x1929 JUMP JUMPDEST SWAP2 POP PUSH2 0x1978 DUP3 DUP5 PUSH2 0x184E JUMP JUMPDEST SWAP2 POP DUP2 SWAP1 POP SWAP4 SWAP3 POP POP POP JUMP JUMPDEST PUSH0 PUSH2 0x198E DUP3 PUSH2 0x112F JUMP JUMPDEST SWAP2 POP PUSH32 0xFFFFFFFFFFFFFFFFFFFFFFFFFFFFFFFFFFFFFFFFFFFFFFFFFFFFFFFFFFFFFFFF DUP3 SUB PUSH2 0x19C0 JUMPI PUSH2 0x19BF PUSH2 0x155F JUMP JUMPDEST JUMPDEST PUSH1 0x1 DUP3 ADD SWAP1 POP SWAP2 SWAP1 POP JUMP JUMPDEST PUSH32 0x4E487B7100000000000000000000000000000000000000000000000000000000 PUSH0 MSTORE PUSH1 0x41 PUSH1 0x4 MSTORE PUSH1 0x24 PUSH0 REVERT JUMPDEST PUSH0 PUSH2 0x1A02 DUP3 PUSH2 0x112F JUMP JUMPDEST SWAP2 POP PUSH2 0x1A0D DUP4 PUSH2 0x112F JUMP JUMPDEST SWAP3 POP DUP3 DUP3 SUB SWAP1 POP DUP2 DUP2 GT ISZERO PUSH2 0x1A25 JUMPI PUSH2 0x1A24 PUSH2 0x155F JUMP JUMPDEST JUMPDEST SWAP3 SWAP2 POP POP JUMP JUMPDEST PUSH0 PUSH2 0x1A35 DUP3 PUSH2 0x112F JUMP JUMPDEST SWAP2 POP PUSH2 0x1A40 DUP4 PUSH2 0x112F JUMP JUMPDEST SWAP3 POP DUP3 DUP3 ADD SWAP1 POP DUP1 DUP3 GT ISZERO PUSH2 0x1A58 JUMPI PUSH2 0x1A57 PUSH2 0x155F JUMP JUMPDEST JUMPDEST SWAP3 SWAP2 POP POP JUMP JUMPDEST PUSH32 0x4E487B7100000000000000000000000000000000000000000000000000000000 PUSH0 MSTORE PUSH1 0x32 PUSH1 0x4 MSTORE PUSH1 0x24 PUSH0 REVERT INVALID LOG2 PUSH5 0x6970667358 0x22 SLT KECCAK256 EXTCODESIZE ORIGIN DUP13 0xE8 0xDC DIV CREATE MLOAD 0xD3 0xC3 CALL LOG3 SWAP4 0xBB 0xCE 0xEA CREATE 0xC7 0xB3 GASPRICE CALLVALUE 0x26 CHAINID 0xAE SWAP5 0xCD 0x29 0xFB SWAP10 0xFB JUMPI LOG4 PUSH5 0x736F6C6343 STOP ADDMOD EQ STOP CALLER "
				},
				"gasEstimates": {
					"creation": {
						"codeDepositCost": "1369800",
						"executionCost": "infinite",
						"totalCost": "infinite"
					},
					"external": {
						"MIN_REDEMPTION_SHARES()": "414",
						"MIN_SUBSCRIPTION_USD()": "436",
						"getCurrentPriceInfo()": "infinite",
						"getIssuerBalances()": "infinite",
						"getUserBalances(address)": "infinite",
						"issuer()": "2531",
						"previewRedemption(uint256)": "infinite",
						"previewSubscription(uint256)": "infinite",
						"priceOracle()": "infinite",
						"redeem(uint256)": "infinite",
						"subscribe(uint256)": "infinite",
						"token0050t()": "infinite",
						"usdtToken()": "infinite"
					},
					"internal": {
						"_toString(uint256)": "infinite"
					}
				},
				"methodIdentifiers": {
					"MIN_REDEMPTION_SHARES()": "2bdd4478",
					"MIN_SUBSCRIPTION_USD()": "5f9cf243",
					"getCurrentPriceInfo()": "1e095c6a",
					"getIssuerBalances()": "fad1e412",
					"getUserBalances(address)": "abd3f612",
					"issuer()": "1d143848",
					"previewRedemption(uint256)": "9b06d174",
					"previewSubscription(uint256)": "e8e8090f",
					"priceOracle()": "2630c12f",
					"redeem(uint256)": "db006a75",
					"subscribe(uint256)": "0f574ba7",
					"token0050t()": "8e362209",
					"usdtToken()": "a98ad46c"
				}
			},
			"storageLayout": {
				"storage": [
					{
						"astId": 47,
						"contract": "contracts/SubscriptionRedemption.sol:SubscriptionRedemption",
						"label": "usdtToken",
						"offset": 0,
						"slot": "0",
						"type": "t_contract(IERC20)38"
					},
					{
						"astId": 50,
						"contract": "contracts/SubscriptionRedemption.sol:SubscriptionRedemption",
						"label": "token0050t",
						"offset": 0,
						"slot": "1",
						"type": "t_contract(IERC20)38"
					},
					{
						"astId": 53,
						"contract": "contracts/SubscriptionRedemption.sol:SubscriptionRedemption",
						"label": "priceOracle",
						"offset": 0,
						"slot": "2",
						"type": "t_contract(IPriceOracle)44"
					},
					{
						"astId": 55,
						"contract": "contracts/SubscriptionRedemption.sol:SubscriptionRedemption",
						"label": "issuer",
						"offset": 0,
						"slot": "3",
						"type": "t_address"
					}
				],
				"types": {
					"t_address": {
						"encoding": "inplace",
						"label": "address",
						"numberOfBytes": "20"
					},
					"t_contract(IERC20)38": {
						"encoding": "inplace",
						"label": "contract IERC20",
						"numberOfBytes": "20"
					},
					"t_contract(IPriceOracle)44": {
						"encoding": "inplace",
						"label": "contract IPriceOracle",
						"numberOfBytes": "20"
					}
				}
			},
			"userdoc": {
				"kind": "user",
				"methods": {},
				"version": 1
			}
		}
	}
}