{
	"contracts/0050PriceUSDOracle.sol": {
		"PriceOracle0050": {
			"abi": [
				{
					"inputs": [],
					"stateMutability": "nonpayable",
					"type": "constructor"
				},
				{
					"inputs": [],
					"name": "EmptySource",
					"type": "error"
				},
				{
					"inputs": [],
					"name": "NoInlineSecrets",
					"type": "error"
				},
				{
					"inputs": [],
					"name": "OnlyRouterCanFulfill",
					"type": "error"
				},
				{
					"anonymous": false,
					"inputs": [
						{
							"indexed": true,
							"internalType": "address",
							"name": "from",
							"type": "address"
						},
						{
							"indexed": true,
							"internalType": "address",
							"name": "to",
							"type": "address"
						}
					],
					"name": "OwnershipTransferRequested",
					"type": "event"
				},
				{
					"anonymous": false,
					"inputs": [
						{
							"indexed": true,
							"internalType": "address",
							"name": "from",
							"type": "address"
						},
						{
							"indexed": true,
							"internalType": "address",
							"name": "to",
							"type": "address"
						}
					],
					"name": "OwnershipTransferred",
					"type": "event"
				},
				{
					"anonymous": false,
					"inputs": [
						{
							"indexed": true,
							"internalType": "bytes32",
							"name": "requestId",
							"type": "bytes32"
						}
					],
					"name": "PriceRequested",
					"type": "event"
				},
				{
					"anonymous": false,
					"inputs": [
						{
							"indexed": false,
							"internalType": "uint256",
							"name": "newPrice",
							"type": "uint256"
						},
						{
							"indexed": false,
							"internalType": "uint256",
							"name": "timestamp",
							"type": "uint256"
						}
					],
					"name": "PriceUpdated",
					"type": "event"
				},
				{
					"anonymous": false,
					"inputs": [
						{
							"indexed": true,
							"internalType": "bytes32",
							"name": "requestId",
							"type": "bytes32"
						},
						{
							"indexed": false,
							"internalType": "bytes",
							"name": "error",
							"type": "bytes"
						}
					],
					"name": "RequestFailed",
					"type": "event"
				},
				{
					"anonymous": false,
					"inputs": [
						{
							"indexed": true,
							"internalType": "bytes32",
							"name": "id",
							"type": "bytes32"
						}
					],
					"name": "RequestFulfilled",
					"type": "event"
				},
				{
					"anonymous": false,
					"inputs": [
						{
							"indexed": true,
							"internalType": "bytes32",
							"name": "id",
							"type": "bytes32"
						}
					],
					"name": "RequestSent",
					"type": "event"
				},
				{
					"inputs": [],
					"name": "acceptOwnership",
					"outputs": [],
					"stateMutability": "nonpayable",
					"type": "function"
				},
				{
					"inputs": [],
					"name": "donID",
					"outputs": [
						{
							"internalType": "bytes32",
							"name": "",
							"type": "bytes32"
						}
					],
					"stateMutability": "view",
					"type": "function"
				},
				{
					"inputs": [],
					"name": "gasLimit",
					"outputs": [
						{
							"internalType": "uint32",
							"name": "",
							"type": "uint32"
						}
					],
					"stateMutability": "view",
					"type": "function"
				},
				{
					"inputs": [],
					"name": "getCalculationDetails",
					"outputs": [
						{
							"internalType": "uint256",
							"name": "rawPrice",
							"type": "uint256"
						},
						{
							"internalType": "uint256",
							"name": "calculatedUSDCents",
							"type": "uint256"
						},
						{
							"internalType": "uint256",
							"name": "precisePriceE18",
							"type": "uint256"
						},
						{
							"internalType": "string",
							"name": "calculation",
							"type": "string"
						}
					],
					"stateMutability": "view",
					"type": "function"
				},
				{
					"inputs": [],
					"name": "getLatestPrice",
					"outputs": [
						{
							"internalType": "uint256",
							"name": "",
							"type": "uint256"
						}
					],
					"stateMutability": "view",
					"type": "function"
				},
				{
					"inputs": [],
					"name": "getLatestPricePrecise",
					"outputs": [
						{
							"internalType": "uint256",
							"name": "",
							"type": "uint256"
						}
					],
					"stateMutability": "view",
					"type": "function"
				},
				{
					"inputs": [],
					"name": "getLatestPriceUSD",
					"outputs": [
						{
							"internalType": "uint256",
							"name": "",
							"type": "uint256"
						}
					],
					"stateMutability": "view",
					"type": "function"
				},
				{
					"inputs": [],
					"name": "getOracleInfo",
					"outputs": [
						{
							"internalType": "uint256",
							"name": "price",
							"type": "uint256"
						},
						{
							"internalType": "uint256",
							"name": "priceCents",
							"type": "uint256"
						},
						{
							"internalType": "uint256",
							"name": "lastUpdate",
							"type": "uint256"
						},
						{
							"internalType": "uint256",
							"name": "timeSinceUpdate",
							"type": "uint256"
						},
						{
							"internalType": "bytes32",
							"name": "lastRequest",
							"type": "bytes32"
						}
					],
					"stateMutability": "view",
					"type": "function"
				},
				{
					"inputs": [
						{
							"internalType": "bytes32",
							"name": "requestId",
							"type": "bytes32"
						},
						{
							"internalType": "bytes",
							"name": "response",
							"type": "bytes"
						},
						{
							"internalType": "bytes",
							"name": "err",
							"type": "bytes"
						}
					],
					"name": "handleOracleFulfillment",
					"outputs": [],
					"stateMutability": "nonpayable",
					"type": "function"
				},
				{
					"inputs": [],
					"name": "isPriceStale",
					"outputs": [
						{
							"internalType": "bool",
							"name": "",
							"type": "bool"
						}
					],
					"stateMutability": "view",
					"type": "function"
				},
				{
					"inputs": [],
					"name": "lastRequestId",
					"outputs": [
						{
							"internalType": "bytes32",
							"name": "",
							"type": "bytes32"
						}
					],
					"stateMutability": "view",
					"type": "function"
				},
				{
					"inputs": [],
					"name": "lastUpdateTime",
					"outputs": [
						{
							"internalType": "uint256",
							"name": "",
							"type": "uint256"
						}
					],
					"stateMutability": "view",
					"type": "function"
				},
				{
					"inputs": [],
					"name": "owner",
					"outputs": [
						{
							"internalType": "address",
							"name": "",
							"type": "address"
						}
					],
					"stateMutability": "view",
					"type": "function"
				},
				{
					"inputs": [],
					"name": "requestPriceUpdate",
					"outputs": [
						{
							"internalType": "bytes32",
							"name": "requestId",
							"type": "bytes32"
						}
					],
					"stateMutability": "nonpayable",
					"type": "function"
				},
				{
					"inputs": [],
					"name": "subscriptionId",
					"outputs": [
						{
							"internalType": "uint64",
							"name": "",
							"type": "uint64"
						}
					],
					"stateMutability": "view",
					"type": "function"
				},
				{
					"inputs": [
						{
							"internalType": "address",
							"name": "to",
							"type": "address"
						}
					],
					"name": "transferOwnership",
					"outputs": [],
					"stateMutability": "nonpayable",
					"type": "function"
				},
				{
					"inputs": [
						{
							"internalType": "uint64",
							"name": "_subscriptionId",
							"type": "uint64"
						},
						{
							"internalType": "uint32",
							"name": "_gasLimit",
							"type": "uint32"
						},
						{
							"internalType": "bytes32",
							"name": "_donID",
							"type": "bytes32"
						}
					],
					"name": "updateConfig",
					"outputs": [],
					"stateMutability": "nonpayable",
					"type": "function"
				},
				{
					"inputs": [
						{
							"internalType": "uint256",
							"name": "_newPriceUSD",
							"type": "uint256"
						}
					],
					"name": "updatePriceManual",
					"outputs": [],
					"stateMutability": "nonpayable",
					"type": "function"
				}
			],
			"devdoc": {
				"kind": "dev",
				"methods": {
					"handleOracleFulfillment(bytes32,bytes,bytes)": {
						"details": "Either response or error parameter will be set, but never both.",
						"params": {
							"err": "Aggregated error either from the request's source code or from the execution pipeline.",
							"requestId": "The requestId returned by FunctionsClient.sendRequest().",
							"response": "Aggregated response from the request's source code."
						}
					}
				},
				"version": 1
			},
			"evm": {
				"assembly": "    /* \"contracts/0050PriceUSDOracle.sol\":373:5687  contract PriceOracle0050 is FunctionsClient, ConfirmedOwner {... */\n  mstore(0x40, 0xa0)\n    /* \"contracts/0050PriceUSDOracle.sol\":711:717  300000 */\n  0x0493e0\n    /* \"contracts/0050PriceUSDOracle.sol\":686:717  uint32 public gasLimit = 300000 */\n  0x05\n  exp(0x0100, 0x08)\n  dup2\n  sload\n  dup2\n  0xffffffff\n  mul\n  not\n  and\n  swap1\n  dup4\n  0xffffffff\n  and\n  mul\n  or\n  swap1\n  sstore\n  pop\n    /* \"contracts/0050PriceUSDOracle.sol\":1028:1868  string private source = ... */\n  mload(0x40)\n  dup1\n  0x02c0\n  add\n  0x40\n  mstore\n  dup1\n  0x0288\n  dup2\n  mstore\n  0x20\n  add\n  data_ec96a567fa79c0a4239f4aaa8acb1906b4fa8fe71dbf9a8784403da94ba53587\n  0x0288\n  swap2\n  codecopy\n  0x07\n  swap1\n  dup2\n  tag_1\n  swap2\n  swap1\n  tag_2\n  jump\t// in\ntag_1:\n  pop\n    /* \"contracts/0050PriceUSDOracle.sol\":1881:2279  constructor() FunctionsClient(0xb83E47C2bC239B3bf370bc41e1459A34b41238D0) ConfirmedOwner(msg.sender) {... */\n  callvalue\n  dup1\n  iszero\n  tag_3\n  jumpi\n  revert(0x00, 0x00)\ntag_3:\n  pop\n    /* \"contracts/0050PriceUSDOracle.sol\":1970:1980  msg.sender */\n  caller\n    /* \"@chainlink/contracts/src/v0.8/shared/access/ConfirmedOwner.sol\":355:363  newOwner */\n  dup1\n    /* \"@chainlink/contracts/src/v0.8/shared/access/ConfirmedOwner.sol\":373:374  0 */\n  0x00\n    /* \"contracts/0050PriceUSDOracle.sol\":1911:1953  0xb83E47C2bC239B3bf370bc41e1459A34b41238D0 */\n  0xb83e47c2bc239b3bf370bc41e1459a34b41238d0\n    /* \"@chainlink/contracts/src/v0.8/functions/v1_0_0/FunctionsClient.sol\":764:770  router */\n  dup1\n    /* \"@chainlink/contracts/src/v0.8/functions/v1_0_0/FunctionsClient.sol\":736:771  i_router = IFunctionsRouter(router) */\n  0xffffffffffffffffffffffffffffffffffffffff\n  and\n  0x80\n  dup2\n  0xffffffffffffffffffffffffffffffffffffffff\n  and\n  dup2\n  mstore\n  pop\n  pop\n    /* \"@chainlink/contracts/src/v0.8/functions/v1_0_0/FunctionsClient.sol\":702:776  constructor(address router) {... */\n  pop\n    /* \"@chainlink/contracts/src/v0.8/shared/access/ConfirmedOwnerWithProposal.sol\":618:619  0 */\n  0x00\n    /* \"@chainlink/contracts/src/v0.8/shared/access/ConfirmedOwnerWithProposal.sol\":598:620  newOwner != address(0) */\n  0xffffffffffffffffffffffffffffffffffffffff\n  and\n    /* \"@chainlink/contracts/src/v0.8/shared/access/ConfirmedOwnerWithProposal.sol\":598:606  newOwner */\n  dup3\n    /* \"@chainlink/contracts/src/v0.8/shared/access/ConfirmedOwnerWithProposal.sol\":598:620  newOwner != address(0) */\n  0xffffffffffffffffffffffffffffffffffffffff\n  and\n  sub\n    /* \"@chainlink/contracts/src/v0.8/shared/access/ConfirmedOwnerWithProposal.sol\":590:649  require(newOwner != address(0), \"Cannot set owner to zero\") */\n  tag_10\n  jumpi\n  mload(0x40)\n  0x08c379a000000000000000000000000000000000000000000000000000000000\n  dup2\n  mstore\n  0x04\n  add\n  tag_11\n  swap1\n  tag_12\n  jump\t// in\ntag_11:\n  mload(0x40)\n  dup1\n  swap2\n  sub\n  swap1\n  revert\ntag_10:\n    /* \"@chainlink/contracts/src/v0.8/shared/access/ConfirmedOwnerWithProposal.sol\":666:674  newOwner */\n  dup2\n    /* \"@chainlink/contracts/src/v0.8/shared/access/ConfirmedOwnerWithProposal.sol\":656:663  s_owner */\n  0x00\n  0x00\n    /* \"@chainlink/contracts/src/v0.8/shared/access/ConfirmedOwnerWithProposal.sol\":656:674  s_owner = newOwner */\n  0x0100\n  exp\n  dup2\n  sload\n  dup2\n  0xffffffffffffffffffffffffffffffffffffffff\n  mul\n  not\n  and\n  swap1\n  dup4\n  0xffffffffffffffffffffffffffffffffffffffff\n  and\n  mul\n  or\n  swap1\n  sstore\n  pop\n    /* \"@chainlink/contracts/src/v0.8/shared/access/ConfirmedOwnerWithProposal.sol\":708:709  0 */\n  0x00\n    /* \"@chainlink/contracts/src/v0.8/shared/access/ConfirmedOwnerWithProposal.sol\":684:710  pendingOwner != address(0) */\n  0xffffffffffffffffffffffffffffffffffffffff\n  and\n    /* \"@chainlink/contracts/src/v0.8/shared/access/ConfirmedOwnerWithProposal.sol\":684:696  pendingOwner */\n  dup2\n    /* \"@chainlink/contracts/src/v0.8/shared/access/ConfirmedOwnerWithProposal.sol\":684:710  pendingOwner != address(0) */\n  0xffffffffffffffffffffffffffffffffffffffff\n  and\n  eq\n    /* \"@chainlink/contracts/src/v0.8/shared/access/ConfirmedOwnerWithProposal.sol\":680:759  if (pendingOwner != address(0)) {... */\n  tag_13\n  jumpi\n    /* \"@chainlink/contracts/src/v0.8/shared/access/ConfirmedOwnerWithProposal.sol\":720:752  _transferOwnership(pendingOwner) */\n  tag_14\n    /* \"@chainlink/contracts/src/v0.8/shared/access/ConfirmedOwnerWithProposal.sol\":739:751  pendingOwner */\n  dup2\n    /* \"@chainlink/contracts/src/v0.8/shared/access/ConfirmedOwnerWithProposal.sol\":720:738  _transferOwnership */\n  shl(0x20, tag_15)\n    /* \"@chainlink/contracts/src/v0.8/shared/access/ConfirmedOwnerWithProposal.sol\":720:752  _transferOwnership(pendingOwner) */\n  0x20\n  shr\n  jump\t// in\ntag_14:\n    /* \"@chainlink/contracts/src/v0.8/shared/access/ConfirmedOwnerWithProposal.sol\":680:759  if (pendingOwner != address(0)) {... */\ntag_13:\n    /* \"@chainlink/contracts/src/v0.8/shared/access/ConfirmedOwnerWithProposal.sol\":481:763  constructor(address newOwner, address pendingOwner) {... */\n  pop\n  pop\n    /* \"@chainlink/contracts/src/v0.8/shared/access/ConfirmedOwner.sol\":298:379  constructor(address newOwner) ConfirmedOwnerWithProposal(newOwner, address(0)) {} */\n  pop\n    /* \"contracts/0050PriceUSDOracle.sol\":2010:2014  5639 */\n  0x1607\n    /* \"contracts/0050PriceUSDOracle.sol\":1993:2007  subscriptionId */\n  0x05\n  0x00\n    /* \"contracts/0050PriceUSDOracle.sol\":1993:2014  subscriptionId = 5639 */\n  0x0100\n  exp\n  dup2\n  sload\n  dup2\n  0xffffffffffffffff\n  mul\n  not\n  and\n  swap1\n  dup4\n  0xffffffffffffffff\n  and\n  mul\n  or\n  swap1\n  sstore\n  pop\n    /* \"contracts/0050PriceUSDOracle.sol\":2051:2117  0x66756e2d657468657265756d2d7365706f6c69612d3100000000000000000000 */\n  0x66756e2d657468657265756d2d7365706f6c69612d3100000000000000000000\n    /* \"contracts/0050PriceUSDOracle.sol\":2043:2117  donID = 0x66756e2d657468657265756d2d7365706f6c69612d3100000000000000000000 */\n  0x00\n  shl\n    /* \"contracts/0050PriceUSDOracle.sol\":2043:2048  donID */\n  0x06\n    /* \"contracts/0050PriceUSDOracle.sol\":2043:2117  donID = 0x66756e2d657468657265756d2d7365706f6c69612d3100000000000000000000 */\n  dup2\n  swap1\n  sstore\n  pop\n    /* \"contracts/0050PriceUSDOracle.sol\":2219:2228  20 * 1e18 */\n  0x01158e460913d00000\n    /* \"contracts/0050PriceUSDOracle.sol\":2204:2216  currentPrice */\n  0x02\n    /* \"contracts/0050PriceUSDOracle.sol\":2204:2228  currentPrice = 20 * 1e18 */\n  dup2\n  swap1\n  sstore\n  pop\n    /* \"contracts/0050PriceUSDOracle.sol\":2256:2271  block.timestamp */\n  timestamp\n    /* \"contracts/0050PriceUSDOracle.sol\":2239:2253  lastUpdateTime */\n  0x03\n    /* \"contracts/0050PriceUSDOracle.sol\":2239:2271  lastUpdateTime = block.timestamp */\n  dup2\n  swap1\n  sstore\n  pop\n    /* \"contracts/0050PriceUSDOracle.sol\":373:5687  contract PriceOracle0050 is FunctionsClient, ConfirmedOwner {... */\n  jump(tag_18)\n    /* \"@chainlink/contracts/src/v0.8/shared/access/ConfirmedOwnerWithProposal.sol\":1536:1775  function _transferOwnership(address to) private {... */\ntag_15:\n    /* \"@chainlink/contracts/src/v0.8/shared/access/ConfirmedOwnerWithProposal.sol\":1655:1665  msg.sender */\n  caller\n    /* \"@chainlink/contracts/src/v0.8/shared/access/ConfirmedOwnerWithProposal.sol\":1649:1665  to != msg.sender */\n  0xffffffffffffffffffffffffffffffffffffffff\n  and\n    /* \"@chainlink/contracts/src/v0.8/shared/access/ConfirmedOwnerWithProposal.sol\":1649:1651  to */\n  dup2\n    /* \"@chainlink/contracts/src/v0.8/shared/access/ConfirmedOwnerWithProposal.sol\":1649:1665  to != msg.sender */\n  0xffffffffffffffffffffffffffffffffffffffff\n  and\n  sub\n    /* \"@chainlink/contracts/src/v0.8/shared/access/ConfirmedOwnerWithProposal.sol\":1641:1693  require(to != msg.sender, \"Cannot transfer to self\") */\n  tag_20\n  jumpi\n  mload(0x40)\n  0x08c379a000000000000000000000000000000000000000000000000000000000\n  dup2\n  mstore\n  0x04\n  add\n  tag_21\n  swap1\n  tag_22\n  jump\t// in\ntag_21:\n  mload(0x40)\n  dup1\n  swap2\n  sub\n  swap1\n  revert\ntag_20:\n    /* \"@chainlink/contracts/src/v0.8/shared/access/ConfirmedOwnerWithProposal.sol\":1717:1719  to */\n  dup1\n    /* \"@chainlink/contracts/src/v0.8/shared/access/ConfirmedOwnerWithProposal.sol\":1700:1714  s_pendingOwner */\n  0x01\n  0x00\n    /* \"@chainlink/contracts/src/v0.8/shared/access/ConfirmedOwnerWithProposal.sol\":1700:1719  s_pendingOwner = to */\n  0x0100\n  exp\n  dup2\n  sload\n  dup2\n  0xffffffffffffffffffffffffffffffffffffffff\n  mul\n  not\n  and\n  swap1\n  dup4\n  0xffffffffffffffffffffffffffffffffffffffff\n  and\n  mul\n  or\n  swap1\n  sstore\n  pop\n    /* \"@chainlink/contracts/src/v0.8/shared/access/ConfirmedOwnerWithProposal.sol\":1767:1769  to */\n  dup1\n    /* \"@chainlink/contracts/src/v0.8/shared/access/ConfirmedOwnerWithProposal.sol\":1731:1770  OwnershipTransferRequested(s_owner, to) */\n  0xffffffffffffffffffffffffffffffffffffffff\n  and\n    /* \"@chainlink/contracts/src/v0.8/shared/access/ConfirmedOwnerWithProposal.sol\":1758:1765  s_owner */\n  0x00\n  0x00\n  swap1\n  sload\n  swap1\n  0x0100\n  exp\n  swap1\n  div\n  0xffffffffffffffffffffffffffffffffffffffff\n  and\n    /* \"@chainlink/contracts/src/v0.8/shared/access/ConfirmedOwnerWithProposal.sol\":1731:1770  OwnershipTransferRequested(s_owner, to) */\n  0xffffffffffffffffffffffffffffffffffffffff\n  and\n  0xed8889f560326eb138920d842192f0eb3dd22b4f139c87a2c57538e05bae1278\n  mload(0x40)\n  mload(0x40)\n  dup1\n  swap2\n  sub\n  swap1\n  log3\n    /* \"@chainlink/contracts/src/v0.8/shared/access/ConfirmedOwnerWithProposal.sol\":1536:1775  function _transferOwnership(address to) private {... */\n  pop\n  jump\t// out\n    /* \"#utility.yul\":7:106   */\ntag_23:\n    /* \"#utility.yul\":59:65   */\n  0x00\n    /* \"#utility.yul\":93:98   */\n  dup2\n    /* \"#utility.yul\":87:99   */\n  mload\n    /* \"#utility.yul\":77:99   */\n  swap1\n  pop\n    /* \"#utility.yul\":7:106   */\n  swap2\n  swap1\n  pop\n  jump\t// out\n    /* \"#utility.yul\":112:292   */\ntag_24:\n    /* \"#utility.yul\":160:237   */\n  0x4e487b7100000000000000000000000000000000000000000000000000000000\n    /* \"#utility.yul\":157:158   */\n  0x00\n    /* \"#utility.yul\":150:238   */\n  mstore\n    /* \"#utility.yul\":257:261   */\n  0x41\n    /* \"#utility.yul\":254:255   */\n  0x04\n    /* \"#utility.yul\":247:262   */\n  mstore\n    /* \"#utility.yul\":281:285   */\n  0x24\n    /* \"#utility.yul\":278:279   */\n  0x00\n    /* \"#utility.yul\":271:286   */\n  revert\n    /* \"#utility.yul\":298:478   */\ntag_25:\n    /* \"#utility.yul\":346:423   */\n  0x4e487b7100000000000000000000000000000000000000000000000000000000\n    /* \"#utility.yul\":343:344   */\n  0x00\n    /* \"#utility.yul\":336:424   */\n  mstore\n    /* \"#utility.yul\":443:447   */\n  0x22\n    /* \"#utility.yul\":440:441   */\n  0x04\n    /* \"#utility.yul\":433:448   */\n  mstore\n    /* \"#utility.yul\":467:471   */\n  0x24\n    /* \"#utility.yul\":464:465   */\n  0x00\n    /* \"#utility.yul\":457:472   */\n  revert\n    /* \"#utility.yul\":484:804   */\ntag_26:\n    /* \"#utility.yul\":528:534   */\n  0x00\n    /* \"#utility.yul\":565:566   */\n  0x02\n    /* \"#utility.yul\":559:563   */\n  dup3\n    /* \"#utility.yul\":555:567   */\n  div\n    /* \"#utility.yul\":545:567   */\n  swap1\n  pop\n    /* \"#utility.yul\":612:613   */\n  0x01\n    /* \"#utility.yul\":606:610   */\n  dup3\n    /* \"#utility.yul\":602:614   */\n  and\n    /* \"#utility.yul\":633:651   */\n  dup1\n    /* \"#utility.yul\":623:704   */\n  tag_53\n  jumpi\n    /* \"#utility.yul\":689:693   */\n  0x7f\n    /* \"#utility.yul\":681:687   */\n  dup3\n    /* \"#utility.yul\":677:694   */\n  and\n    /* \"#utility.yul\":667:694   */\n  swap2\n  pop\n    /* \"#utility.yul\":623:704   */\ntag_53:\n    /* \"#utility.yul\":751:753   */\n  0x20\n    /* \"#utility.yul\":743:749   */\n  dup3\n    /* \"#utility.yul\":740:754   */\n  lt\n    /* \"#utility.yul\":720:738   */\n  dup2\n    /* \"#utility.yul\":717:755   */\n  sub\n    /* \"#utility.yul\":714:798   */\n  tag_54\n  jumpi\n    /* \"#utility.yul\":770:788   */\n  tag_55\n  tag_25\n  jump\t// in\ntag_55:\n    /* \"#utility.yul\":714:798   */\ntag_54:\n    /* \"#utility.yul\":535:804   */\n  pop\n    /* \"#utility.yul\":484:804   */\n  swap2\n  swap1\n  pop\n  jump\t// out\n    /* \"#utility.yul\":810:951   */\ntag_27:\n    /* \"#utility.yul\":859:863   */\n  0x00\n    /* \"#utility.yul\":882:885   */\n  dup2\n    /* \"#utility.yul\":874:885   */\n  swap1\n  pop\n    /* \"#utility.yul\":905:908   */\n  dup2\n    /* \"#utility.yul\":902:903   */\n  0x00\n    /* \"#utility.yul\":895:909   */\n  mstore\n    /* \"#utility.yul\":939:943   */\n  0x20\n    /* \"#utility.yul\":936:937   */\n  0x00\n    /* \"#utility.yul\":926:944   */\n  keccak256\n    /* \"#utility.yul\":918:944   */\n  swap1\n  pop\n    /* \"#utility.yul\":810:951   */\n  swap2\n  swap1\n  pop\n  jump\t// out\n    /* \"#utility.yul\":957:1050   */\ntag_28:\n    /* \"#utility.yul\":994:1000   */\n  0x00\n    /* \"#utility.yul\":1041:1043   */\n  0x20\n    /* \"#utility.yul\":1036:1038   */\n  0x1f\n    /* \"#utility.yul\":1029:1034   */\n  dup4\n    /* \"#utility.yul\":1025:1039   */\n  add\n    /* \"#utility.yul\":1021:1044   */\n  div\n    /* \"#utility.yul\":1011:1044   */\n  swap1\n  pop\n    /* \"#utility.yul\":957:1050   */\n  swap2\n  swap1\n  pop\n  jump\t// out\n    /* \"#utility.yul\":1056:1163   */\ntag_29:\n    /* \"#utility.yul\":1100:1108   */\n  0x00\n    /* \"#utility.yul\":1150:1155   */\n  dup3\n    /* \"#utility.yul\":1144:1148   */\n  dup3\n    /* \"#utility.yul\":1140:1156   */\n  shl\n    /* \"#utility.yul\":1119:1156   */\n  swap1\n  pop\n    /* \"#utility.yul\":1056:1163   */\n  swap3\n  swap2\n  pop\n  pop\n  jump\t// out\n    /* \"#utility.yul\":1169:1562   */\ntag_30:\n    /* \"#utility.yul\":1238:1244   */\n  0x00\n    /* \"#utility.yul\":1288:1289   */\n  0x08\n    /* \"#utility.yul\":1276:1286   */\n  dup4\n    /* \"#utility.yul\":1272:1290   */\n  mul\n    /* \"#utility.yul\":1311:1408   */\n  tag_60\n    /* \"#utility.yul\":1341:1407   */\n  0xffffffffffffffffffffffffffffffffffffffffffffffffffffffffffffffff\n    /* \"#utility.yul\":1330:1339   */\n  dup3\n    /* \"#utility.yul\":1311:1408   */\n  tag_29\n  jump\t// in\ntag_60:\n    /* \"#utility.yul\":1429:1468   */\n  tag_61\n    /* \"#utility.yul\":1459:1467   */\n  dup7\n    /* \"#utility.yul\":1448:1457   */\n  dup4\n    /* \"#utility.yul\":1429:1468   */\n  tag_29\n  jump\t// in\ntag_61:\n    /* \"#utility.yul\":1417:1468   */\n  swap6\n  pop\n    /* \"#utility.yul\":1501:1505   */\n  dup1\n    /* \"#utility.yul\":1497:1506   */\n  not\n    /* \"#utility.yul\":1490:1495   */\n  dup5\n    /* \"#utility.yul\":1486:1507   */\n  and\n    /* \"#utility.yul\":1477:1507   */\n  swap4\n  pop\n    /* \"#utility.yul\":1550:1554   */\n  dup1\n    /* \"#utility.yul\":1540:1548   */\n  dup7\n    /* \"#utility.yul\":1536:1555   */\n  and\n    /* \"#utility.yul\":1529:1534   */\n  dup5\n    /* \"#utility.yul\":1526:1556   */\n  or\n    /* \"#utility.yul\":1516:1556   */\n  swap3\n  pop\n    /* \"#utility.yul\":1245:1562   */\n  pop\n  pop\n    /* \"#utility.yul\":1169:1562   */\n  swap4\n  swap3\n  pop\n  pop\n  pop\n  jump\t// out\n    /* \"#utility.yul\":1568:1645   */\ntag_31:\n    /* \"#utility.yul\":1605:1612   */\n  0x00\n    /* \"#utility.yul\":1634:1639   */\n  dup2\n    /* \"#utility.yul\":1623:1639   */\n  swap1\n  pop\n    /* \"#utility.yul\":1568:1645   */\n  swap2\n  swap1\n  pop\n  jump\t// out\n    /* \"#utility.yul\":1651:1711   */\ntag_32:\n    /* \"#utility.yul\":1679:1682   */\n  0x00\n    /* \"#utility.yul\":1700:1705   */\n  dup2\n    /* \"#utility.yul\":1693:1705   */\n  swap1\n  pop\n    /* \"#utility.yul\":1651:1711   */\n  swap2\n  swap1\n  pop\n  jump\t// out\n    /* \"#utility.yul\":1717:1859   */\ntag_33:\n    /* \"#utility.yul\":1767:1776   */\n  0x00\n    /* \"#utility.yul\":1800:1853   */\n  tag_65\n    /* \"#utility.yul\":1818:1852   */\n  tag_66\n    /* \"#utility.yul\":1827:1851   */\n  tag_67\n    /* \"#utility.yul\":1845:1850   */\n  dup5\n    /* \"#utility.yul\":1827:1851   */\n  tag_31\n  jump\t// in\ntag_67:\n    /* \"#utility.yul\":1818:1852   */\n  tag_32\n  jump\t// in\ntag_66:\n    /* \"#utility.yul\":1800:1853   */\n  tag_31\n  jump\t// in\ntag_65:\n    /* \"#utility.yul\":1787:1853   */\n  swap1\n  pop\n    /* \"#utility.yul\":1717:1859   */\n  swap2\n  swap1\n  pop\n  jump\t// out\n    /* \"#utility.yul\":1865:1940   */\ntag_34:\n    /* \"#utility.yul\":1908:1911   */\n  0x00\n    /* \"#utility.yul\":1929:1934   */\n  dup2\n    /* \"#utility.yul\":1922:1934   */\n  swap1\n  pop\n    /* \"#utility.yul\":1865:1940   */\n  swap2\n  swap1\n  pop\n  jump\t// out\n    /* \"#utility.yul\":1946:2215   */\ntag_35:\n    /* \"#utility.yul\":2056:2095   */\n  tag_70\n    /* \"#utility.yul\":2087:2094   */\n  dup4\n    /* \"#utility.yul\":2056:2095   */\n  tag_33\n  jump\t// in\ntag_70:\n    /* \"#utility.yul\":2117:2208   */\n  tag_71\n    /* \"#utility.yul\":2166:2207   */\n  tag_72\n    /* \"#utility.yul\":2190:2206   */\n  dup3\n    /* \"#utility.yul\":2166:2207   */\n  tag_34\n  jump\t// in\ntag_72:\n    /* \"#utility.yul\":2158:2164   */\n  dup5\n    /* \"#utility.yul\":2151:2155   */\n  dup5\n    /* \"#utility.yul\":2145:2156   */\n  sload\n    /* \"#utility.yul\":2117:2208   */\n  tag_30\n  jump\t// in\ntag_71:\n    /* \"#utility.yul\":2111:2115   */\n  dup3\n    /* \"#utility.yul\":2104:2209   */\n  sstore\n    /* \"#utility.yul\":2022:2215   */\n  pop\n    /* \"#utility.yul\":1946:2215   */\n  pop\n  pop\n  pop\n  jump\t// out\n    /* \"#utility.yul\":2221:2294   */\ntag_36:\n    /* \"#utility.yul\":2266:2269   */\n  0x00\n    /* \"#utility.yul\":2287:2288   */\n  0x00\n    /* \"#utility.yul\":2280:2288   */\n  swap1\n  pop\n    /* \"#utility.yul\":2221:2294   */\n  swap1\n  jump\t// out\n    /* \"#utility.yul\":2300:2489   */\ntag_37:\n    /* \"#utility.yul\":2377:2409   */\n  tag_75\n  tag_36\n  jump\t// in\ntag_75:\n    /* \"#utility.yul\":2418:2483   */\n  tag_76\n    /* \"#utility.yul\":2476:2482   */\n  dup2\n    /* \"#utility.yul\":2468:2474   */\n  dup5\n    /* \"#utility.yul\":2462:2466   */\n  dup5\n    /* \"#utility.yul\":2418:2483   */\n  tag_35\n  jump\t// in\ntag_76:\n    /* \"#utility.yul\":2353:2489   */\n  pop\n    /* \"#utility.yul\":2300:2489   */\n  pop\n  pop\n  jump\t// out\n    /* \"#utility.yul\":2495:2681   */\ntag_38:\n    /* \"#utility.yul\":2555:2675   */\ntag_78:\n    /* \"#utility.yul\":2572:2575   */\n  dup2\n    /* \"#utility.yul\":2565:2570   */\n  dup2\n    /* \"#utility.yul\":2562:2576   */\n  lt\n    /* \"#utility.yul\":2555:2675   */\n  iszero\n  tag_80\n  jumpi\n    /* \"#utility.yul\":2626:2665   */\n  tag_81\n    /* \"#utility.yul\":2663:2664   */\n  0x00\n    /* \"#utility.yul\":2656:2661   */\n  dup3\n    /* \"#utility.yul\":2626:2665   */\n  tag_37\n  jump\t// in\ntag_81:\n    /* \"#utility.yul\":2599:2600   */\n  0x01\n    /* \"#utility.yul\":2592:2597   */\n  dup2\n    /* \"#utility.yul\":2588:2601   */\n  add\n    /* \"#utility.yul\":2579:2601   */\n  swap1\n  pop\n    /* \"#utility.yul\":2555:2675   */\n  jump(tag_78)\ntag_80:\n    /* \"#utility.yul\":2495:2681   */\n  pop\n  pop\n  jump\t// out\n    /* \"#utility.yul\":2687:3230   */\ntag_39:\n    /* \"#utility.yul\":2788:2790   */\n  0x1f\n    /* \"#utility.yul\":2783:2786   */\n  dup3\n    /* \"#utility.yul\":2780:2791   */\n  gt\n    /* \"#utility.yul\":2777:3223   */\n  iszero\n  tag_83\n  jumpi\n    /* \"#utility.yul\":2822:2860   */\n  tag_84\n    /* \"#utility.yul\":2854:2859   */\n  dup2\n    /* \"#utility.yul\":2822:2860   */\n  tag_27\n  jump\t// in\ntag_84:\n    /* \"#utility.yul\":2906:2935   */\n  tag_85\n    /* \"#utility.yul\":2924:2934   */\n  dup5\n    /* \"#utility.yul\":2906:2935   */\n  tag_28\n  jump\t// in\ntag_85:\n    /* \"#utility.yul\":2896:2904   */\n  dup2\n    /* \"#utility.yul\":2892:2936   */\n  add\n    /* \"#utility.yul\":3089:3091   */\n  0x20\n    /* \"#utility.yul\":3077:3087   */\n  dup6\n    /* \"#utility.yul\":3074:3092   */\n  lt\n    /* \"#utility.yul\":3071:3120   */\n  iszero\n  tag_86\n  jumpi\n    /* \"#utility.yul\":3110:3118   */\n  dup2\n    /* \"#utility.yul\":3095:3118   */\n  swap1\n  pop\n    /* \"#utility.yul\":3071:3120   */\ntag_86:\n    /* \"#utility.yul\":3133:3213   */\n  tag_87\n    /* \"#utility.yul\":3189:3211   */\n  tag_88\n    /* \"#utility.yul\":3207:3210   */\n  dup6\n    /* \"#utility.yul\":3189:3211   */\n  tag_28\n  jump\t// in\ntag_88:\n    /* \"#utility.yul\":3179:3187   */\n  dup4\n    /* \"#utility.yul\":3175:3212   */\n  add\n    /* \"#utility.yul\":3162:3173   */\n  dup3\n    /* \"#utility.yul\":3133:3213   */\n  tag_38\n  jump\t// in\ntag_87:\n    /* \"#utility.yul\":2792:3223   */\n  pop\n  pop\n    /* \"#utility.yul\":2777:3223   */\ntag_83:\n    /* \"#utility.yul\":2687:3230   */\n  pop\n  pop\n  pop\n  jump\t// out\n    /* \"#utility.yul\":3236:3353   */\ntag_40:\n    /* \"#utility.yul\":3290:3298   */\n  0x00\n    /* \"#utility.yul\":3340:3345   */\n  dup3\n    /* \"#utility.yul\":3334:3338   */\n  dup3\n    /* \"#utility.yul\":3330:3346   */\n  shr\n    /* \"#utility.yul\":3309:3346   */\n  swap1\n  pop\n    /* \"#utility.yul\":3236:3353   */\n  swap3\n  swap2\n  pop\n  pop\n  jump\t// out\n    /* \"#utility.yul\":3359:3528   */\ntag_41:\n    /* \"#utility.yul\":3403:3409   */\n  0x00\n    /* \"#utility.yul\":3436:3487   */\n  tag_91\n    /* \"#utility.yul\":3484:3485   */\n  0x00\n    /* \"#utility.yul\":3480:3486   */\n  not\n    /* \"#utility.yul\":3472:3477   */\n  dup5\n    /* \"#utility.yul\":3469:3470   */\n  0x08\n    /* \"#utility.yul\":3465:3478   */\n  mul\n    /* \"#utility.yul\":3436:3487   */\n  tag_40\n  jump\t// in\ntag_91:\n    /* \"#utility.yul\":3432:3488   */\n  not\n    /* \"#utility.yul\":3517:3521   */\n  dup1\n    /* \"#utility.yul\":3511:3515   */\n  dup4\n    /* \"#utility.yul\":3507:3522   */\n  and\n    /* \"#utility.yul\":3497:3522   */\n  swap2\n  pop\n    /* \"#utility.yul\":3410:3528   */\n  pop\n    /* \"#utility.yul\":3359:3528   */\n  swap3\n  swap2\n  pop\n  pop\n  jump\t// out\n    /* \"#utility.yul\":3533:3828   */\ntag_42:\n    /* \"#utility.yul\":3609:3613   */\n  0x00\n    /* \"#utility.yul\":3755:3784   */\n  tag_93\n    /* \"#utility.yul\":3780:3783   */\n  dup4\n    /* \"#utility.yul\":3774:3778   */\n  dup4\n    /* \"#utility.yul\":3755:3784   */\n  tag_41\n  jump\t// in\ntag_93:\n    /* \"#utility.yul\":3747:3784   */\n  swap2\n  pop\n    /* \"#utility.yul\":3817:3820   */\n  dup3\n    /* \"#utility.yul\":3814:3815   */\n  0x02\n    /* \"#utility.yul\":3810:3821   */\n  mul\n    /* \"#utility.yul\":3804:3808   */\n  dup3\n    /* \"#utility.yul\":3801:3822   */\n  or\n    /* \"#utility.yul\":3793:3822   */\n  swap1\n  pop\n    /* \"#utility.yul\":3533:3828   */\n  swap3\n  swap2\n  pop\n  pop\n  jump\t// out\n    /* \"#utility.yul\":3833:5228   */\ntag_2:\n    /* \"#utility.yul\":3950:3987   */\n  tag_95\n    /* \"#utility.yul\":3983:3986   */\n  dup3\n    /* \"#utility.yul\":3950:3987   */\n  tag_23\n  jump\t// in\ntag_95:\n    /* \"#utility.yul\":4052:4070   */\n  0xffffffffffffffff\n    /* \"#utility.yul\":4044:4050   */\n  dup2\n    /* \"#utility.yul\":4041:4071   */\n  gt\n    /* \"#utility.yul\":4038:4094   */\n  iszero\n  tag_96\n  jumpi\n    /* \"#utility.yul\":4074:4092   */\n  tag_97\n  tag_24\n  jump\t// in\ntag_97:\n    /* \"#utility.yul\":4038:4094   */\ntag_96:\n    /* \"#utility.yul\":4118:4156   */\n  tag_98\n    /* \"#utility.yul\":4150:4154   */\n  dup3\n    /* \"#utility.yul\":4144:4155   */\n  sload\n    /* \"#utility.yul\":4118:4156   */\n  tag_26\n  jump\t// in\ntag_98:\n    /* \"#utility.yul\":4203:4270   */\n  tag_99\n    /* \"#utility.yul\":4263:4269   */\n  dup3\n    /* \"#utility.yul\":4255:4261   */\n  dup3\n    /* \"#utility.yul\":4249:4253   */\n  dup6\n    /* \"#utility.yul\":4203:4270   */\n  tag_39\n  jump\t// in\ntag_99:\n    /* \"#utility.yul\":4297:4298   */\n  0x00\n    /* \"#utility.yul\":4321:4325   */\n  0x20\n    /* \"#utility.yul\":4308:4325   */\n  swap1\n  pop\n    /* \"#utility.yul\":4353:4355   */\n  0x1f\n    /* \"#utility.yul\":4345:4351   */\n  dup4\n    /* \"#utility.yul\":4342:4356   */\n  gt\n    /* \"#utility.yul\":4370:4371   */\n  0x01\n    /* \"#utility.yul\":4365:4983   */\n  dup2\n  eq\n  tag_101\n  jumpi\n    /* \"#utility.yul\":5027:5028   */\n  0x00\n    /* \"#utility.yul\":5044:5050   */\n  dup5\n    /* \"#utility.yul\":5041:5118   */\n  iszero\n  tag_102\n  jumpi\n    /* \"#utility.yul\":5093:5102   */\n  dup3\n    /* \"#utility.yul\":5088:5091   */\n  dup8\n    /* \"#utility.yul\":5084:5103   */\n  add\n    /* \"#utility.yul\":5078:5104   */\n  mload\n    /* \"#utility.yul\":5069:5104   */\n  swap1\n  pop\n    /* \"#utility.yul\":5041:5118   */\ntag_102:\n    /* \"#utility.yul\":5144:5211   */\n  tag_103\n    /* \"#utility.yul\":5204:5210   */\n  dup6\n    /* \"#utility.yul\":5197:5202   */\n  dup3\n    /* \"#utility.yul\":5144:5211   */\n  tag_42\n  jump\t// in\ntag_103:\n    /* \"#utility.yul\":5138:5142   */\n  dup7\n    /* \"#utility.yul\":5131:5212   */\n  sstore\n    /* \"#utility.yul\":5000:5222   */\n  pop\n    /* \"#utility.yul\":4335:5222   */\n  jump(tag_100)\n    /* \"#utility.yul\":4365:4983   */\ntag_101:\n    /* \"#utility.yul\":4417:4421   */\n  0x1f\n    /* \"#utility.yul\":4413:4422   */\n  not\n    /* \"#utility.yul\":4405:4411   */\n  dup5\n    /* \"#utility.yul\":4401:4423   */\n  and\n    /* \"#utility.yul\":4451:4488   */\n  tag_104\n    /* \"#utility.yul\":4483:4487   */\n  dup7\n    /* \"#utility.yul\":4451:4488   */\n  tag_27\n  jump\t// in\ntag_104:\n    /* \"#utility.yul\":4510:4511   */\n  0x00\n    /* \"#utility.yul\":4524:4732   */\ntag_105:\n    /* \"#utility.yul\":4538:4545   */\n  dup3\n    /* \"#utility.yul\":4535:4536   */\n  dup2\n    /* \"#utility.yul\":4532:4546   */\n  lt\n    /* \"#utility.yul\":4524:4732   */\n  iszero\n  tag_107\n  jumpi\n    /* \"#utility.yul\":4617:4626   */\n  dup5\n    /* \"#utility.yul\":4612:4615   */\n  dup10\n    /* \"#utility.yul\":4608:4627   */\n  add\n    /* \"#utility.yul\":4602:4628   */\n  mload\n    /* \"#utility.yul\":4594:4600   */\n  dup3\n    /* \"#utility.yul\":4587:4629   */\n  sstore\n    /* \"#utility.yul\":4668:4669   */\n  0x01\n    /* \"#utility.yul\":4660:4666   */\n  dup3\n    /* \"#utility.yul\":4656:4670   */\n  add\n    /* \"#utility.yul\":4646:4670   */\n  swap2\n  pop\n    /* \"#utility.yul\":4715:4717   */\n  0x20\n    /* \"#utility.yul\":4704:4713   */\n  dup6\n    /* \"#utility.yul\":4700:4718   */\n  add\n    /* \"#utility.yul\":4687:4718   */\n  swap5\n  pop\n    /* \"#utility.yul\":4561:4565   */\n  0x20\n    /* \"#utility.yul\":4558:4559   */\n  dup2\n    /* \"#utility.yul\":4554:4566   */\n  add\n    /* \"#utility.yul\":4549:4566   */\n  swap1\n  pop\n    /* \"#utility.yul\":4524:4732   */\n  jump(tag_105)\ntag_107:\n    /* \"#utility.yul\":4760:4766   */\n  dup7\n    /* \"#utility.yul\":4751:4758   */\n  dup4\n    /* \"#utility.yul\":4748:4767   */\n  lt\n    /* \"#utility.yul\":4745:4924   */\n  iszero\n  tag_108\n  jumpi\n    /* \"#utility.yul\":4818:4827   */\n  dup5\n    /* \"#utility.yul\":4813:4816   */\n  dup10\n    /* \"#utility.yul\":4809:4828   */\n  add\n    /* \"#utility.yul\":4803:4829   */\n  mload\n    /* \"#utility.yul\":4861:4909   */\n  tag_109\n    /* \"#utility.yul\":4903:4907   */\n  0x1f\n    /* \"#utility.yul\":4895:4901   */\n  dup10\n    /* \"#utility.yul\":4891:4908   */\n  and\n    /* \"#utility.yul\":4880:4889   */\n  dup3\n    /* \"#utility.yul\":4861:4909   */\n  tag_41\n  jump\t// in\ntag_109:\n    /* \"#utility.yul\":4853:4859   */\n  dup4\n    /* \"#utility.yul\":4846:4910   */\n  sstore\n    /* \"#utility.yul\":4768:4924   */\n  pop\n    /* \"#utility.yul\":4745:4924   */\ntag_108:\n    /* \"#utility.yul\":4970:4971   */\n  0x01\n    /* \"#utility.yul\":4966:4967   */\n  0x02\n    /* \"#utility.yul\":4958:4964   */\n  dup9\n    /* \"#utility.yul\":4954:4968   */\n  mul\n    /* \"#utility.yul\":4950:4972   */\n  add\n    /* \"#utility.yul\":4944:4948   */\n  dup9\n    /* \"#utility.yul\":4937:4973   */\n  sstore\n    /* \"#utility.yul\":4372:4983   */\n  pop\n  pop\n  pop\n    /* \"#utility.yul\":4335:5222   */\ntag_100:\n  pop\n    /* \"#utility.yul\":3925:5228   */\n  pop\n  pop\n  pop\n    /* \"#utility.yul\":3833:5228   */\n  pop\n  pop\n  jump\t// out\n    /* \"#utility.yul\":5234:5403   */\ntag_43:\n    /* \"#utility.yul\":5318:5329   */\n  0x00\n    /* \"#utility.yul\":5352:5358   */\n  dup3\n    /* \"#utility.yul\":5347:5350   */\n  dup3\n    /* \"#utility.yul\":5340:5359   */\n  mstore\n    /* \"#utility.yul\":5392:5396   */\n  0x20\n    /* \"#utility.yul\":5387:5390   */\n  dup3\n    /* \"#utility.yul\":5383:5397   */\n  add\n    /* \"#utility.yul\":5368:5397   */\n  swap1\n  pop\n    /* \"#utility.yul\":5234:5403   */\n  swap3\n  swap2\n  pop\n  pop\n  jump\t// out\n    /* \"#utility.yul\":5409:5583   */\ntag_44:\n    /* \"#utility.yul\":5549:5575   */\n  0x43616e6e6f7420736574206f776e657220746f207a65726f0000000000000000\n    /* \"#utility.yul\":5545:5546   */\n  0x00\n    /* \"#utility.yul\":5537:5543   */\n  dup3\n    /* \"#utility.yul\":5533:5547   */\n  add\n    /* \"#utility.yul\":5526:5576   */\n  mstore\n    /* \"#utility.yul\":5409:5583   */\n  pop\n  jump\t// out\n    /* \"#utility.yul\":5589:5955   */\ntag_45:\n    /* \"#utility.yul\":5731:5734   */\n  0x00\n    /* \"#utility.yul\":5752:5819   */\n  tag_113\n    /* \"#utility.yul\":5816:5818   */\n  0x18\n    /* \"#utility.yul\":5811:5814   */\n  dup4\n    /* \"#utility.yul\":5752:5819   */\n  tag_43\n  jump\t// in\ntag_113:\n    /* \"#utility.yul\":5745:5819   */\n  swap2\n  pop\n    /* \"#utility.yul\":5828:5921   */\n  tag_114\n    /* \"#utility.yul\":5917:5920   */\n  dup3\n    /* \"#utility.yul\":5828:5921   */\n  tag_44\n  jump\t// in\ntag_114:\n    /* \"#utility.yul\":5946:5948   */\n  0x20\n    /* \"#utility.yul\":5941:5944   */\n  dup3\n    /* \"#utility.yul\":5937:5949   */\n  add\n    /* \"#utility.yul\":5930:5949   */\n  swap1\n  pop\n    /* \"#utility.yul\":5589:5955   */\n  swap2\n  swap1\n  pop\n  jump\t// out\n    /* \"#utility.yul\":5961:6380   */\ntag_12:\n    /* \"#utility.yul\":6127:6131   */\n  0x00\n    /* \"#utility.yul\":6165:6167   */\n  0x20\n    /* \"#utility.yul\":6154:6163   */\n  dup3\n    /* \"#utility.yul\":6150:6168   */\n  add\n    /* \"#utility.yul\":6142:6168   */\n  swap1\n  pop\n    /* \"#utility.yul\":6214:6223   */\n  dup2\n    /* \"#utility.yul\":6208:6212   */\n  dup2\n    /* \"#utility.yul\":6204:6224   */\n  sub\n    /* \"#utility.yul\":6200:6201   */\n  0x00\n    /* \"#utility.yul\":6189:6198   */\n  dup4\n    /* \"#utility.yul\":6185:6202   */\n  add\n    /* \"#utility.yul\":6178:6225   */\n  mstore\n    /* \"#utility.yul\":6242:6373   */\n  tag_116\n    /* \"#utility.yul\":6368:6372   */\n  dup2\n    /* \"#utility.yul\":6242:6373   */\n  tag_45\n  jump\t// in\ntag_116:\n    /* \"#utility.yul\":6234:6373   */\n  swap1\n  pop\n    /* \"#utility.yul\":5961:6380   */\n  swap2\n  swap1\n  pop\n  jump\t// out\n    /* \"#utility.yul\":6386:6559   */\ntag_46:\n    /* \"#utility.yul\":6526:6551   */\n  0x43616e6e6f74207472616e7366657220746f2073656c66000000000000000000\n    /* \"#utility.yul\":6522:6523   */\n  0x00\n    /* \"#utility.yul\":6514:6520   */\n  dup3\n    /* \"#utility.yul\":6510:6524   */\n  add\n    /* \"#utility.yul\":6503:6552   */\n  mstore\n    /* \"#utility.yul\":6386:6559   */\n  pop\n  jump\t// out\n    /* \"#utility.yul\":6565:6931   */\ntag_47:\n    /* \"#utility.yul\":6707:6710   */\n  0x00\n    /* \"#utility.yul\":6728:6795   */\n  tag_119\n    /* \"#utility.yul\":6792:6794   */\n  0x17\n    /* \"#utility.yul\":6787:6790   */\n  dup4\n    /* \"#utility.yul\":6728:6795   */\n  tag_43\n  jump\t// in\ntag_119:\n    /* \"#utility.yul\":6721:6795   */\n  swap2\n  pop\n    /* \"#utility.yul\":6804:6897   */\n  tag_120\n    /* \"#utility.yul\":6893:6896   */\n  dup3\n    /* \"#utility.yul\":6804:6897   */\n  tag_46\n  jump\t// in\ntag_120:\n    /* \"#utility.yul\":6922:6924   */\n  0x20\n    /* \"#utility.yul\":6917:6920   */\n  dup3\n    /* \"#utility.yul\":6913:6925   */\n  add\n    /* \"#utility.yul\":6906:6925   */\n  swap1\n  pop\n    /* \"#utility.yul\":6565:6931   */\n  swap2\n  swap1\n  pop\n  jump\t// out\n    /* \"#utility.yul\":6937:7356   */\ntag_22:\n    /* \"#utility.yul\":7103:7107   */\n  0x00\n    /* \"#utility.yul\":7141:7143   */\n  0x20\n    /* \"#utility.yul\":7130:7139   */\n  dup3\n    /* \"#utility.yul\":7126:7144   */\n  add\n    /* \"#utility.yul\":7118:7144   */\n  swap1\n  pop\n    /* \"#utility.yul\":7190:7199   */\n  dup2\n    /* \"#utility.yul\":7184:7188   */\n  dup2\n    /* \"#utility.yul\":7180:7200   */\n  sub\n    /* \"#utility.yul\":7176:7177   */\n  0x00\n    /* \"#utility.yul\":7165:7174   */\n  dup4\n    /* \"#utility.yul\":7161:7178   */\n  add\n    /* \"#utility.yul\":7154:7201   */\n  mstore\n    /* \"#utility.yul\":7218:7349   */\n  tag_122\n    /* \"#utility.yul\":7344:7348   */\n  dup2\n    /* \"#utility.yul\":7218:7349   */\n  tag_47\n  jump\t// in\ntag_122:\n    /* \"#utility.yul\":7210:7349   */\n  swap1\n  pop\n    /* \"#utility.yul\":6937:7356   */\n  swap2\n  swap1\n  pop\n  jump\t// out\n    /* \"contracts/0050PriceUSDOracle.sol\":373:5687  contract PriceOracle0050 is FunctionsClient, ConfirmedOwner {... */\ntag_18:\n  mload(0x80)\n  codecopy(0x00, dataOffset(sub_0), dataSize(sub_0))\n  0x00\n  assignImmutable(\"0x8e8fab5f003314da8d1873ea7720e8d9f47650136d916064d1edb8a11d682624\")\n  return(0x00, dataSize(sub_0))\nstop\ndata_ec96a567fa79c0a4239f4aaa8acb1906b4fa8fe71dbf9a8784403da94ba53587 636f6e7374205b74773530526573706f6e73652c20757364547764526573706f6e73655d203d2061776169742050726f6d6973652e616c6c285b46756e6374696f6e732e6d616b654874747052657175657374287b75726c3a202768747470733a2f2f7175657279312e66696e616e63652e7961686f6f2e636f6d2f76382f66696e616e63652f63686172742f303035302e5457277d292c46756e6374696f6e732e6d616b654874747052657175657374287b75726c3a202768747470733a2f2f7175657279312e66696e616e63652e7961686f6f2e636f6d2f76382f66696e616e63652f63686172742f5553445457443d58277d295d293b6966202874773530526573706f6e73652e6572726f72207c7c20757364547764526573706f6e73652e6572726f7229207b7468726f77204572726f72282752657175657374206661696c656427293b7d636f6e737420747735305072696365203d2074773530526573706f6e73652e646174612e63686172742e726573756c745b305d2e6d6574612e726567756c61724d61726b657450726963653b636f6e73742075736454776452617465203d20757364547764526573706f6e73652e646174612e63686172742e726573756c745b305d2e6d6574612e726567756c61724d61726b657450726963653b6966202821747735305072696365207c7c20217573645477645261746529207b7468726f77204572726f7228275072696365206e6f7420666f756e6427293b7d636f6e7374207573645072696365203d20747735305072696365202f20757364547764526174653b72657475726e2046756e6374696f6e732e656e636f646555696e74323536284d6174682e726f756e64287573645072696365202a203165313829293b\n\nsub_0: assembly {\n        /* \"contracts/0050PriceUSDOracle.sol\":373:5687  contract PriceOracle0050 is FunctionsClient, ConfirmedOwner {... */\n      mstore(0x40, 0x80)\n      callvalue\n      dup1\n      iszero\n      tag_1\n      jumpi\n      revert(0x00, 0x00)\n    tag_1:\n      pop\n      jumpi(tag_2, lt(calldatasize, 0x04))\n      shr(0xe0, calldataload(0x00))\n      dup1\n      0x9c84cd10\n      gt\n      tag_21\n      jumpi\n      dup1\n      0xec2b70a4\n      gt\n      tag_22\n      jumpi\n      dup1\n      0xec2b70a4\n      eq\n      tag_16\n      jumpi\n      dup1\n      0xf2fde38b\n      eq\n      tag_17\n      jumpi\n      dup1\n      0xf68016b7\n      eq\n      tag_18\n      jumpi\n      dup1\n      0xfc2a88c3\n      eq\n      tag_19\n      jumpi\n      dup1\n      0xff8e583a\n      eq\n      tag_20\n      jumpi\n      jump(tag_2)\n    tag_22:\n      dup1\n      0x9c84cd10\n      eq\n      tag_12\n      jumpi\n      dup1\n      0xafdb0556\n      eq\n      tag_13\n      jumpi\n      dup1\n      0xc8f33c91\n      eq\n      tag_14\n      jumpi\n      dup1\n      0xd0f784f0\n      eq\n      tag_15\n      jumpi\n      jump(tag_2)\n    tag_21:\n      dup1\n      0x2f5df725\n      gt\n      tag_23\n      jumpi\n      dup1\n      0x2f5df725\n      eq\n      tag_7\n      jumpi\n      dup1\n      0x6e74336b\n      eq\n      tag_8\n      jumpi\n      dup1\n      0x79ba5097\n      eq\n      tag_9\n      jumpi\n      dup1\n      0x8da5cb5b\n      eq\n      tag_10\n      jumpi\n      dup1\n      0x8e15f473\n      eq\n      tag_11\n      jumpi\n      jump(tag_2)\n    tag_23:\n      dup1\n      0x05239ca1\n      eq\n      tag_3\n      jumpi\n      dup1\n      0x09c1ba2e\n      eq\n      tag_4\n      jumpi\n      dup1\n      0x0ca76175\n      eq\n      tag_5\n      jumpi\n      dup1\n      0x26c4c889\n      eq\n      tag_6\n      jumpi\n    tag_2:\n      revert(0x00, 0x00)\n        /* \"contracts/0050PriceUSDOracle.sol\":3943:4234  function updatePriceManual(uint256 _newPriceUSD) external onlyOwner {... */\n    tag_3:\n      tag_24\n      0x04\n      dup1\n      calldatasize\n      sub\n      dup2\n      add\n      swap1\n      tag_25\n      swap2\n      swap1\n      tag_26\n      jump\t// in\n    tag_25:\n      tag_27\n      jump\t// in\n    tag_24:\n      stop\n        /* \"contracts/0050PriceUSDOracle.sol\":651:679  uint64 public subscriptionId */\n    tag_4:\n      tag_28\n      tag_29\n      jump\t// in\n    tag_28:\n      mload(0x40)\n      tag_30\n      swap2\n      swap1\n      tag_31\n      jump\t// in\n    tag_30:\n      mload(0x40)\n      dup1\n      swap2\n      sub\n      swap1\n      return\n        /* \"@chainlink/contracts/src/v0.8/functions/v1_0_0/FunctionsClient.sol\":2078:2364  function handleOracleFulfillment(bytes32 requestId, bytes memory response, bytes memory err) external override {... */\n    tag_5:\n      tag_32\n      0x04\n      dup1\n      calldatasize\n      sub\n      dup2\n      add\n      swap1\n      tag_33\n      swap2\n      swap1\n      tag_34\n      jump\t// in\n    tag_33:\n      tag_35\n      jump\t// in\n    tag_32:\n      stop\n        /* \"contracts/0050PriceUSDOracle.sol\":5072:5489  function getCalculationDetails() external view returns (... */\n    tag_6:\n      tag_36\n      tag_37\n      jump\t// in\n    tag_36:\n      mload(0x40)\n      tag_38\n      swap5\n      swap4\n      swap3\n      swap2\n      swap1\n      tag_39\n      jump\t// in\n    tag_38:\n      mload(0x40)\n      dup1\n      swap2\n      sub\n      swap1\n      return\n        /* \"contracts/0050PriceUSDOracle.sol\":5553:5684  function isPriceStale() external view returns (bool) {... */\n    tag_7:\n      tag_40\n      tag_41\n      jump\t// in\n    tag_40:\n      mload(0x40)\n      tag_42\n      swap2\n      swap1\n      tag_43\n      jump\t// in\n    tag_42:\n      mload(0x40)\n      dup1\n      swap2\n      sub\n      swap1\n      return\n        /* \"contracts/0050PriceUSDOracle.sol\":724:744  bytes32 public donID */\n    tag_8:\n      tag_44\n      tag_45\n      jump\t// in\n    tag_44:\n      mload(0x40)\n      tag_46\n      swap2\n      swap1\n      tag_47\n      jump\t// in\n    tag_46:\n      mload(0x40)\n      dup1\n      swap2\n      sub\n      swap1\n      return\n        /* \"@chainlink/contracts/src/v0.8/shared/access/ConfirmedOwnerWithProposal.sol\":1026:1342  function acceptOwnership() external override {... */\n    tag_9:\n      tag_48\n      tag_49\n      jump\t// in\n    tag_48:\n      stop\n        /* \"@chainlink/contracts/src/v0.8/shared/access/ConfirmedOwnerWithProposal.sol\":1382:1463  function owner() public view override returns (address) {... */\n    tag_10:\n      tag_50\n      tag_51\n      jump\t// in\n    tag_50:\n      mload(0x40)\n      tag_52\n      swap2\n      swap1\n      tag_53\n      jump\t// in\n    tag_52:\n      mload(0x40)\n      dup1\n      swap2\n      sub\n      swap1\n      return\n        /* \"contracts/0050PriceUSDOracle.sol\":2335:2431  function getLatestPrice() external view returns (uint256) {... */\n    tag_11:\n      tag_54\n      tag_55\n      jump\t// in\n    tag_54:\n      mload(0x40)\n      tag_56\n      swap2\n      swap1\n      tag_57\n      jump\t// in\n    tag_56:\n      mload(0x40)\n      dup1\n      swap2\n      sub\n      swap1\n      return\n        /* \"contracts/0050PriceUSDOracle.sol\":4582:5006  function getOracleInfo() external view returns (... */\n    tag_12:\n      tag_58\n      tag_59\n      jump\t// in\n    tag_58:\n      mload(0x40)\n      tag_60\n      swap6\n      swap5\n      swap4\n      swap3\n      swap2\n      swap1\n      tag_61\n      jump\t// in\n    tag_60:\n      mload(0x40)\n      dup1\n      swap2\n      sub\n      swap1\n      return\n        /* \"contracts/0050PriceUSDOracle.sol\":2921:3374  function requestPriceUpdate() external returns (bytes32 requestId) {... */\n    tag_13:\n      tag_62\n      tag_63\n      jump\t// in\n    tag_62:\n      mload(0x40)\n      tag_64\n      swap2\n      swap1\n      tag_47\n      jump\t// in\n    tag_64:\n      mload(0x40)\n      dup1\n      swap2\n      sub\n      swap1\n      return\n        /* \"contracts/0050PriceUSDOracle.sol\":539:568  uint256 public lastUpdateTime */\n    tag_14:\n      tag_65\n      tag_66\n      jump\t// in\n    tag_65:\n      mload(0x40)\n      tag_67\n      swap2\n      swap1\n      tag_57\n      jump\t// in\n    tag_67:\n      mload(0x40)\n      dup1\n      swap2\n      sub\n      swap1\n      return\n        /* \"contracts/0050PriceUSDOracle.sol\":4282:4522  function updateConfig(... */\n    tag_15:\n      tag_68\n      0x04\n      dup1\n      calldatasize\n      sub\n      dup2\n      add\n      swap1\n      tag_69\n      swap2\n      swap1\n      tag_70\n      jump\t// in\n    tag_69:\n      tag_71\n      jump\t// in\n    tag_68:\n      stop\n        /* \"contracts/0050PriceUSDOracle.sol\":2486:2684  function getLatestPriceUSD() external view returns (uint256) {... */\n    tag_16:\n      tag_72\n      tag_73\n      jump\t// in\n    tag_72:\n      mload(0x40)\n      tag_74\n      swap2\n      swap1\n      tag_57\n      jump\t// in\n    tag_74:\n      mload(0x40)\n      dup1\n      swap2\n      sub\n      swap1\n      return\n        /* \"@chainlink/contracts/src/v0.8/shared/access/ConfirmedOwnerWithProposal.sol\":847:945  function transferOwnership(address to) public override onlyOwner {... */\n    tag_17:\n      tag_75\n      0x04\n      dup1\n      calldatasize\n      sub\n      dup2\n      add\n      swap1\n      tag_76\n      swap2\n      swap1\n      tag_77\n      jump\t// in\n    tag_76:\n      tag_78\n      jump\t// in\n    tag_75:\n      stop\n        /* \"contracts/0050PriceUSDOracle.sol\":686:717  uint32 public gasLimit = 300000 */\n    tag_18:\n      tag_79\n      tag_80\n      jump\t// in\n    tag_79:\n      mload(0x40)\n      tag_81\n      swap2\n      swap1\n      tag_82\n      jump\t// in\n    tag_81:\n      mload(0x40)\n      dup1\n      swap2\n      sub\n      swap1\n      return\n        /* \"contracts/0050PriceUSDOracle.sol\":575:603  bytes32 public lastRequestId */\n    tag_19:\n      tag_83\n      tag_84\n      jump\t// in\n    tag_83:\n      mload(0x40)\n      tag_85\n      swap2\n      swap1\n      tag_47\n      jump\t// in\n    tag_85:\n      mload(0x40)\n      dup1\n      swap2\n      sub\n      swap1\n      return\n        /* \"contracts/0050PriceUSDOracle.sol\":2749:2882  function getLatestPricePrecise() external view returns (uint256) {... */\n    tag_20:\n      tag_86\n      tag_87\n      jump\t// in\n    tag_86:\n      mload(0x40)\n      tag_88\n      swap2\n      swap1\n      tag_57\n      jump\t// in\n    tag_88:\n      mload(0x40)\n      dup1\n      swap2\n      sub\n      swap1\n      return\n        /* \"contracts/0050PriceUSDOracle.sol\":3943:4234  function updatePriceManual(uint256 _newPriceUSD) external onlyOwner {... */\n    tag_27:\n        /* \"@chainlink/contracts/src/v0.8/shared/access/ConfirmedOwnerWithProposal.sol\":2075:2095  _validateOwnership() */\n      tag_90\n        /* \"@chainlink/contracts/src/v0.8/shared/access/ConfirmedOwnerWithProposal.sol\":2075:2093  _validateOwnership */\n      tag_91\n        /* \"@chainlink/contracts/src/v0.8/shared/access/ConfirmedOwnerWithProposal.sol\":2075:2095  _validateOwnership() */\n      jump\t// in\n    tag_90:\n        /* \"contracts/0050PriceUSDOracle.sol\":4045:4046  0 */\n      0x00\n        /* \"contracts/0050PriceUSDOracle.sol\":4030:4042  _newPriceUSD */\n      dup2\n        /* \"contracts/0050PriceUSDOracle.sol\":4030:4046  _newPriceUSD > 0 */\n      gt\n        /* \"contracts/0050PriceUSDOracle.sol\":4022:4079  require(_newPriceUSD > 0, \"Price must be greater than 0\") */\n      tag_93\n      jumpi\n      mload(0x40)\n      0x08c379a000000000000000000000000000000000000000000000000000000000\n      dup2\n      mstore\n      0x04\n      add\n      tag_94\n      swap1\n      tag_95\n      jump\t// in\n    tag_94:\n      mload(0x40)\n      dup1\n      swap2\n      sub\n      swap1\n      revert\n    tag_93:\n        /* \"contracts/0050PriceUSDOracle.sol\":4120:4124  1e18 */\n      0x0de0b6b3a7640000\n        /* \"contracts/0050PriceUSDOracle.sol\":4105:4117  _newPriceUSD */\n      dup2\n        /* \"contracts/0050PriceUSDOracle.sol\":4105:4124  _newPriceUSD * 1e18 */\n      tag_96\n      swap2\n      swap1\n      tag_97\n      jump\t// in\n    tag_96:\n        /* \"contracts/0050PriceUSDOracle.sol\":4090:4102  currentPrice */\n      0x02\n        /* \"contracts/0050PriceUSDOracle.sol\":4090:4124  currentPrice = _newPriceUSD * 1e18 */\n      dup2\n      swap1\n      sstore\n      pop\n        /* \"contracts/0050PriceUSDOracle.sol\":4152:4167  block.timestamp */\n      timestamp\n        /* \"contracts/0050PriceUSDOracle.sol\":4135:4149  lastUpdateTime */\n      0x03\n        /* \"contracts/0050PriceUSDOracle.sol\":4135:4167  lastUpdateTime = block.timestamp */\n      dup2\n      swap1\n      sstore\n      pop\n        /* \"contracts/0050PriceUSDOracle.sol\":4183:4226  PriceUpdated(currentPrice, block.timestamp) */\n      0x945c1c4e99aa89f648fbfe3df471b916f719e16d960fcec0737d4d56bd696838\n        /* \"contracts/0050PriceUSDOracle.sol\":4196:4208  currentPrice */\n      sload(0x02)\n        /* \"contracts/0050PriceUSDOracle.sol\":4210:4225  block.timestamp */\n      timestamp\n        /* \"contracts/0050PriceUSDOracle.sol\":4183:4226  PriceUpdated(currentPrice, block.timestamp) */\n      mload(0x40)\n      tag_98\n      swap3\n      swap2\n      swap1\n      tag_99\n      jump\t// in\n    tag_98:\n      mload(0x40)\n      dup1\n      swap2\n      sub\n      swap1\n      log1\n        /* \"contracts/0050PriceUSDOracle.sol\":3943:4234  function updatePriceManual(uint256 _newPriceUSD) external onlyOwner {... */\n      pop\n      jump\t// out\n        /* \"contracts/0050PriceUSDOracle.sol\":651:679  uint64 public subscriptionId */\n    tag_29:\n      0x05\n      0x00\n      swap1\n      sload\n      swap1\n      0x0100\n      exp\n      swap1\n      div\n      0xffffffffffffffff\n      and\n      dup2\n      jump\t// out\n        /* \"@chainlink/contracts/src/v0.8/functions/v1_0_0/FunctionsClient.sol\":2078:2364  function handleOracleFulfillment(bytes32 requestId, bytes memory response, bytes memory err) external override {... */\n    tag_35:\n        /* \"@chainlink/contracts/src/v0.8/functions/v1_0_0/FunctionsClient.sol\":2221:2229  i_router */\n      immutable(\"0x8e8fab5f003314da8d1873ea7720e8d9f47650136d916064d1edb8a11d682624\")\n        /* \"@chainlink/contracts/src/v0.8/functions/v1_0_0/FunctionsClient.sol\":2199:2230  msg.sender != address(i_router) */\n      0xffffffffffffffffffffffffffffffffffffffff\n      and\n        /* \"@chainlink/contracts/src/v0.8/functions/v1_0_0/FunctionsClient.sol\":2199:2209  msg.sender */\n      caller\n        /* \"@chainlink/contracts/src/v0.8/functions/v1_0_0/FunctionsClient.sol\":2199:2230  msg.sender != address(i_router) */\n      0xffffffffffffffffffffffffffffffffffffffff\n      and\n      eq\n        /* \"@chainlink/contracts/src/v0.8/functions/v1_0_0/FunctionsClient.sol\":2195:2276  if (msg.sender != address(i_router)) {... */\n      tag_101\n      jumpi\n        /* \"@chainlink/contracts/src/v0.8/functions/v1_0_0/FunctionsClient.sol\":2247:2269  OnlyRouterCanFulfill() */\n      mload(0x40)\n      0xc6829f8300000000000000000000000000000000000000000000000000000000\n      dup2\n      mstore\n      0x04\n      add\n      mload(0x40)\n      dup1\n      swap2\n      sub\n      swap1\n      revert\n        /* \"@chainlink/contracts/src/v0.8/functions/v1_0_0/FunctionsClient.sol\":2195:2276  if (msg.sender != address(i_router)) {... */\n    tag_101:\n        /* \"@chainlink/contracts/src/v0.8/functions/v1_0_0/FunctionsClient.sol\":2281:2321  fulfillRequest(requestId, response, err) */\n      tag_102\n        /* \"@chainlink/contracts/src/v0.8/functions/v1_0_0/FunctionsClient.sol\":2296:2305  requestId */\n      dup4\n        /* \"@chainlink/contracts/src/v0.8/functions/v1_0_0/FunctionsClient.sol\":2307:2315  response */\n      dup4\n        /* \"@chainlink/contracts/src/v0.8/functions/v1_0_0/FunctionsClient.sol\":2317:2320  err */\n      dup4\n        /* \"@chainlink/contracts/src/v0.8/functions/v1_0_0/FunctionsClient.sol\":2281:2295  fulfillRequest */\n      tag_103\n        /* \"@chainlink/contracts/src/v0.8/functions/v1_0_0/FunctionsClient.sol\":2281:2321  fulfillRequest(requestId, response, err) */\n      jump\t// in\n    tag_102:\n        /* \"@chainlink/contracts/src/v0.8/functions/v1_0_0/FunctionsClient.sol\":2349:2358  requestId */\n      dup3\n        /* \"@chainlink/contracts/src/v0.8/functions/v1_0_0/FunctionsClient.sol\":2332:2359  RequestFulfilled(requestId) */\n      0x85e1543bf2f84fe80c6badbce3648c8539ad1df4d2b3d822938ca0538be727e6\n      mload(0x40)\n      mload(0x40)\n      dup1\n      swap2\n      sub\n      swap1\n      log2\n        /* \"@chainlink/contracts/src/v0.8/functions/v1_0_0/FunctionsClient.sol\":2078:2364  function handleOracleFulfillment(bytes32 requestId, bytes memory response, bytes memory err) external override {... */\n      pop\n      pop\n      pop\n      jump\t// out\n        /* \"contracts/0050PriceUSDOracle.sol\":5072:5489  function getCalculationDetails() external view returns (... */\n    tag_37:\n        /* \"contracts/0050PriceUSDOracle.sol\":5138:5154  uint256 rawPrice */\n      0x00\n        /* \"contracts/0050PriceUSDOracle.sol\":5165:5191  uint256 calculatedUSDCents */\n      0x00\n        /* \"contracts/0050PriceUSDOracle.sol\":5202:5225  uint256 precisePriceE18 */\n      0x00\n        /* \"contracts/0050PriceUSDOracle.sol\":5236:5261  string memory calculation */\n      0x60\n        /* \"contracts/0050PriceUSDOracle.sol\":5302:5314  currentPrice */\n      sload(0x02)\n        /* \"contracts/0050PriceUSDOracle.sol\":5344:5348  1e16 */\n      0x2386f26fc10000\n        /* \"contracts/0050PriceUSDOracle.sol\":5329:5341  currentPrice */\n      sload(0x02)\n        /* \"contracts/0050PriceUSDOracle.sol\":5329:5348  currentPrice / 1e16 */\n      tag_105\n      swap2\n      swap1\n      tag_106\n      jump\t// in\n    tag_105:\n        /* \"contracts/0050PriceUSDOracle.sol\":5378:5390  currentPrice */\n      sload(0x02)\n        /* \"contracts/0050PriceUSDOracle.sol\":5280:5481  return (... */\n      mload(0x40)\n      dup1\n      0x60\n      add\n      0x40\n      mstore\n      dup1\n      0x2f\n      dup2\n      mstore\n      0x20\n      add\n      data_b4e3728531a6a78c2e6f832be80dc65af1c8e746943d6995899471c6dcfe9aaa\n      0x2f\n      swap2\n      codecopy\n      swap4\n      pop\n      swap4\n      pop\n      swap4\n      pop\n      swap4\n      pop\n        /* \"contracts/0050PriceUSDOracle.sol\":5072:5489  function getCalculationDetails() external view returns (... */\n      swap1\n      swap2\n      swap3\n      swap4\n      jump\t// out\n        /* \"contracts/0050PriceUSDOracle.sol\":5553:5684  function isPriceStale() external view returns (bool) {... */\n    tag_41:\n        /* \"contracts/0050PriceUSDOracle.sol\":5600:5604  bool */\n      0x00\n        /* \"contracts/0050PriceUSDOracle.sol\":5661:5665  3600 */\n      0x0e10\n        /* \"contracts/0050PriceUSDOracle.sol\":5643:5657  lastUpdateTime */\n      sload(0x03)\n        /* \"contracts/0050PriceUSDOracle.sol\":5625:5640  block.timestamp */\n      timestamp\n        /* \"contracts/0050PriceUSDOracle.sol\":5625:5657  block.timestamp - lastUpdateTime */\n      tag_108\n      swap2\n      swap1\n      tag_109\n      jump\t// in\n    tag_108:\n        /* \"contracts/0050PriceUSDOracle.sol\":5624:5665  (block.timestamp - lastUpdateTime) > 3600 */\n      gt\n        /* \"contracts/0050PriceUSDOracle.sol\":5617:5665  return (block.timestamp - lastUpdateTime) > 3600 */\n      swap1\n      pop\n        /* \"contracts/0050PriceUSDOracle.sol\":5553:5684  function isPriceStale() external view returns (bool) {... */\n      swap1\n      jump\t// out\n        /* \"contracts/0050PriceUSDOracle.sol\":724:744  bytes32 public donID */\n    tag_45:\n      sload(0x06)\n      dup2\n      jump\t// out\n        /* \"@chainlink/contracts/src/v0.8/shared/access/ConfirmedOwnerWithProposal.sol\":1026:1342  function acceptOwnership() external override {... */\n    tag_49:\n        /* \"@chainlink/contracts/src/v0.8/shared/access/ConfirmedOwnerWithProposal.sol\":1150:1164  s_pendingOwner */\n      0x01\n      0x00\n      swap1\n      sload\n      swap1\n      0x0100\n      exp\n      swap1\n      div\n      0xffffffffffffffffffffffffffffffffffffffff\n      and\n        /* \"@chainlink/contracts/src/v0.8/shared/access/ConfirmedOwnerWithProposal.sol\":1136:1164  msg.sender == s_pendingOwner */\n      0xffffffffffffffffffffffffffffffffffffffff\n      and\n        /* \"@chainlink/contracts/src/v0.8/shared/access/ConfirmedOwnerWithProposal.sol\":1136:1146  msg.sender */\n      caller\n        /* \"@chainlink/contracts/src/v0.8/shared/access/ConfirmedOwnerWithProposal.sol\":1136:1164  msg.sender == s_pendingOwner */\n      0xffffffffffffffffffffffffffffffffffffffff\n      and\n      eq\n        /* \"@chainlink/contracts/src/v0.8/shared/access/ConfirmedOwnerWithProposal.sol\":1128:1191  require(msg.sender == s_pendingOwner, \"Must be proposed owner\") */\n      tag_111\n      jumpi\n      mload(0x40)\n      0x08c379a000000000000000000000000000000000000000000000000000000000\n      dup2\n      mstore\n      0x04\n      add\n      tag_112\n      swap1\n      tag_113\n      jump\t// in\n    tag_112:\n      mload(0x40)\n      dup1\n      swap2\n      sub\n      swap1\n      revert\n    tag_111:\n        /* \"@chainlink/contracts/src/v0.8/shared/access/ConfirmedOwnerWithProposal.sol\":1198:1214  address oldOwner */\n      0x00\n        /* \"@chainlink/contracts/src/v0.8/shared/access/ConfirmedOwnerWithProposal.sol\":1217:1224  s_owner */\n      0x00\n      0x00\n      swap1\n      sload\n      swap1\n      0x0100\n      exp\n      swap1\n      div\n      0xffffffffffffffffffffffffffffffffffffffff\n      and\n        /* \"@chainlink/contracts/src/v0.8/shared/access/ConfirmedOwnerWithProposal.sol\":1198:1224  address oldOwner = s_owner */\n      swap1\n      pop\n        /* \"@chainlink/contracts/src/v0.8/shared/access/ConfirmedOwnerWithProposal.sol\":1240:1250  msg.sender */\n      caller\n        /* \"@chainlink/contracts/src/v0.8/shared/access/ConfirmedOwnerWithProposal.sol\":1230:1237  s_owner */\n      0x00\n      0x00\n        /* \"@chainlink/contracts/src/v0.8/shared/access/ConfirmedOwnerWithProposal.sol\":1230:1250  s_owner = msg.sender */\n      0x0100\n      exp\n      dup2\n      sload\n      dup2\n      0xffffffffffffffffffffffffffffffffffffffff\n      mul\n      not\n      and\n      swap1\n      dup4\n      0xffffffffffffffffffffffffffffffffffffffff\n      and\n      mul\n      or\n      swap1\n      sstore\n      pop\n        /* \"@chainlink/contracts/src/v0.8/shared/access/ConfirmedOwnerWithProposal.sol\":1281:1282  0 */\n      0x00\n        /* \"@chainlink/contracts/src/v0.8/shared/access/ConfirmedOwnerWithProposal.sol\":1256:1270  s_pendingOwner */\n      0x01\n      0x00\n        /* \"@chainlink/contracts/src/v0.8/shared/access/ConfirmedOwnerWithProposal.sol\":1256:1283  s_pendingOwner = address(0) */\n      0x0100\n      exp\n      dup2\n      sload\n      dup2\n      0xffffffffffffffffffffffffffffffffffffffff\n      mul\n      not\n      and\n      swap1\n      dup4\n      0xffffffffffffffffffffffffffffffffffffffff\n      and\n      mul\n      or\n      swap1\n      sstore\n      pop\n        /* \"@chainlink/contracts/src/v0.8/shared/access/ConfirmedOwnerWithProposal.sol\":1326:1336  msg.sender */\n      caller\n        /* \"@chainlink/contracts/src/v0.8/shared/access/ConfirmedOwnerWithProposal.sol\":1295:1337  OwnershipTransferred(oldOwner, msg.sender) */\n      0xffffffffffffffffffffffffffffffffffffffff\n      and\n        /* \"@chainlink/contracts/src/v0.8/shared/access/ConfirmedOwnerWithProposal.sol\":1316:1324  oldOwner */\n      dup2\n        /* \"@chainlink/contracts/src/v0.8/shared/access/ConfirmedOwnerWithProposal.sol\":1295:1337  OwnershipTransferred(oldOwner, msg.sender) */\n      0xffffffffffffffffffffffffffffffffffffffff\n      and\n      0x8be0079c531659141344cd1fd0a4f28419497f9722a3daafe3b4186f6b6457e0\n      mload(0x40)\n      mload(0x40)\n      dup1\n      swap2\n      sub\n      swap1\n      log3\n        /* \"@chainlink/contracts/src/v0.8/shared/access/ConfirmedOwnerWithProposal.sol\":1071:1342  {... */\n      pop\n        /* \"@chainlink/contracts/src/v0.8/shared/access/ConfirmedOwnerWithProposal.sol\":1026:1342  function acceptOwnership() external override {... */\n      jump\t// out\n        /* \"@chainlink/contracts/src/v0.8/shared/access/ConfirmedOwnerWithProposal.sol\":1382:1463  function owner() public view override returns (address) {... */\n    tag_51:\n        /* \"@chainlink/contracts/src/v0.8/shared/access/ConfirmedOwnerWithProposal.sol\":1429:1436  address */\n      0x00\n        /* \"@chainlink/contracts/src/v0.8/shared/access/ConfirmedOwnerWithProposal.sol\":1451:1458  s_owner */\n      0x00\n      0x00\n      swap1\n      sload\n      swap1\n      0x0100\n      exp\n      swap1\n      div\n      0xffffffffffffffffffffffffffffffffffffffff\n      and\n        /* \"@chainlink/contracts/src/v0.8/shared/access/ConfirmedOwnerWithProposal.sol\":1444:1458  return s_owner */\n      swap1\n      pop\n        /* \"@chainlink/contracts/src/v0.8/shared/access/ConfirmedOwnerWithProposal.sol\":1382:1463  function owner() public view override returns (address) {... */\n      swap1\n      jump\t// out\n        /* \"contracts/0050PriceUSDOracle.sol\":2335:2431  function getLatestPrice() external view returns (uint256) {... */\n    tag_55:\n        /* \"contracts/0050PriceUSDOracle.sol\":2384:2391  uint256 */\n      0x00\n        /* \"contracts/0050PriceUSDOracle.sol\":2411:2423  currentPrice */\n      sload(0x02)\n        /* \"contracts/0050PriceUSDOracle.sol\":2404:2423  return currentPrice */\n      swap1\n      pop\n        /* \"contracts/0050PriceUSDOracle.sol\":2335:2431  function getLatestPrice() external view returns (uint256) {... */\n      swap1\n      jump\t// out\n        /* \"contracts/0050PriceUSDOracle.sol\":4582:5006  function getOracleInfo() external view returns (... */\n    tag_59:\n        /* \"contracts/0050PriceUSDOracle.sol\":4640:4653  uint256 price */\n      0x00\n        /* \"contracts/0050PriceUSDOracle.sol\":4664:4682  uint256 priceCents */\n      0x00\n        /* \"contracts/0050PriceUSDOracle.sol\":4693:4711  uint256 lastUpdate */\n      0x00\n        /* \"contracts/0050PriceUSDOracle.sol\":4722:4745  uint256 timeSinceUpdate */\n      0x00\n        /* \"contracts/0050PriceUSDOracle.sol\":4756:4775  bytes32 lastRequest */\n      0x00\n        /* \"contracts/0050PriceUSDOracle.sol\":4816:4828  currentPrice */\n      sload(0x02)\n        /* \"contracts/0050PriceUSDOracle.sol\":4858:4862  1e16 */\n      0x2386f26fc10000\n        /* \"contracts/0050PriceUSDOracle.sol\":4843:4855  currentPrice */\n      sload(0x02)\n        /* \"contracts/0050PriceUSDOracle.sol\":4843:4862  currentPrice / 1e16 */\n      tag_117\n      swap2\n      swap1\n      tag_106\n      jump\t// in\n    tag_117:\n        /* \"contracts/0050PriceUSDOracle.sol\":4898:4912  lastUpdateTime */\n      sload(0x03)\n        /* \"contracts/0050PriceUSDOracle.sol\":4945:4959  lastUpdateTime */\n      sload(0x03)\n        /* \"contracts/0050PriceUSDOracle.sol\":4927:4942  block.timestamp */\n      timestamp\n        /* \"contracts/0050PriceUSDOracle.sol\":4927:4959  block.timestamp - lastUpdateTime */\n      tag_118\n      swap2\n      swap1\n      tag_109\n      jump\t// in\n    tag_118:\n        /* \"contracts/0050PriceUSDOracle.sol\":4974:4987  lastRequestId */\n      sload(0x04)\n        /* \"contracts/0050PriceUSDOracle.sol\":4794:4998  return (... */\n      swap5\n      pop\n      swap5\n      pop\n      swap5\n      pop\n      swap5\n      pop\n      swap5\n      pop\n        /* \"contracts/0050PriceUSDOracle.sol\":4582:5006  function getOracleInfo() external view returns (... */\n      swap1\n      swap2\n      swap3\n      swap4\n      swap5\n      jump\t// out\n        /* \"contracts/0050PriceUSDOracle.sol\":2921:3374  function requestPriceUpdate() external returns (bytes32 requestId) {... */\n    tag_63:\n        /* \"contracts/0050PriceUSDOracle.sol\":2969:2986  bytes32 requestId */\n      0x00\n        /* \"contracts/0050PriceUSDOracle.sol\":2999:3034  FunctionsRequest.Request memory req */\n      tag_120\n      tag_121\n      jump\t// in\n    tag_120:\n        /* \"contracts/0050PriceUSDOracle.sol\":3045:3093  req.initializeRequestForInlineJavaScript(source) */\n      tag_122\n        /* \"contracts/0050PriceUSDOracle.sol\":3086:3092  source */\n      0x07\n        /* \"contracts/0050PriceUSDOracle.sol\":3045:3093  req.initializeRequestForInlineJavaScript(source) */\n      dup1\n      sload\n      tag_123\n      swap1\n      tag_124\n      jump\t// in\n    tag_123:\n      dup1\n      0x1f\n      add\n      0x20\n      dup1\n      swap2\n      div\n      mul\n      0x20\n      add\n      mload(0x40)\n      swap1\n      dup2\n      add\n      0x40\n      mstore\n      dup1\n      swap3\n      swap2\n      swap1\n      dup2\n      dup2\n      mstore\n      0x20\n      add\n      dup3\n      dup1\n      sload\n      tag_125\n      swap1\n      tag_124\n      jump\t// in\n    tag_125:\n      dup1\n      iszero\n      tag_126\n      jumpi\n      dup1\n      0x1f\n      lt\n      tag_127\n      jumpi\n      0x0100\n      dup1\n      dup4\n      sload\n      div\n      mul\n      dup4\n      mstore\n      swap2\n      0x20\n      add\n      swap2\n      jump(tag_126)\n    tag_127:\n      dup3\n      add\n      swap2\n      swap1\n      0x00\n      mstore\n      keccak256(0x00, 0x20)\n      swap1\n    tag_128:\n      dup2\n      sload\n      dup2\n      mstore\n      swap1\n      0x01\n      add\n      swap1\n      0x20\n      add\n      dup1\n      dup4\n      gt\n      tag_128\n      jumpi\n      dup3\n      swap1\n      sub\n      0x1f\n      and\n      dup3\n      add\n      swap2\n    tag_126:\n      pop\n      pop\n      pop\n      pop\n      pop\n        /* \"contracts/0050PriceUSDOracle.sol\":3045:3048  req */\n      dup3\n        /* \"contracts/0050PriceUSDOracle.sol\":3045:3085  req.initializeRequestForInlineJavaScript */\n      tag_129\n      swap1\n        /* \"contracts/0050PriceUSDOracle.sol\":3045:3093  req.initializeRequestForInlineJavaScript(source) */\n      swap2\n      swap1\n      0xffffffff\n      and\n      jump\t// in\n    tag_122:\n        /* \"contracts/0050PriceUSDOracle.sol\":3126:3252  _sendRequest(... */\n      tag_130\n        /* \"contracts/0050PriceUSDOracle.sol\":3153:3169  req.encodeCBOR() */\n      tag_131\n        /* \"contracts/0050PriceUSDOracle.sol\":3153:3156  req */\n      dup3\n        /* \"contracts/0050PriceUSDOracle.sol\":3153:3167  req.encodeCBOR */\n      tag_132\n        /* \"contracts/0050PriceUSDOracle.sol\":3153:3169  req.encodeCBOR() */\n      jump\t// in\n    tag_131:\n        /* \"contracts/0050PriceUSDOracle.sol\":3184:3198  subscriptionId */\n      0x05\n      0x00\n      swap1\n      sload\n      swap1\n      0x0100\n      exp\n      swap1\n      div\n      0xffffffffffffffff\n      and\n        /* \"contracts/0050PriceUSDOracle.sol\":3213:3221  gasLimit */\n      0x05\n      0x08\n      swap1\n      sload\n      swap1\n      0x0100\n      exp\n      swap1\n      div\n      0xffffffff\n      and\n        /* \"contracts/0050PriceUSDOracle.sol\":3236:3241  donID */\n      sload(0x06)\n        /* \"contracts/0050PriceUSDOracle.sol\":3126:3138  _sendRequest */\n      tag_133\n        /* \"contracts/0050PriceUSDOracle.sol\":3126:3252  _sendRequest(... */\n      jump\t// in\n    tag_130:\n        /* \"contracts/0050PriceUSDOracle.sol\":3114:3252  requestId = _sendRequest(... */\n      swap2\n      pop\n        /* \"contracts/0050PriceUSDOracle.sol\":3289:3298  requestId */\n      dup2\n        /* \"contracts/0050PriceUSDOracle.sol\":3273:3286  lastRequestId */\n      0x04\n        /* \"contracts/0050PriceUSDOracle.sol\":3273:3298  lastRequestId = requestId */\n      dup2\n      swap1\n      sstore\n      pop\n        /* \"contracts/0050PriceUSDOracle.sol\":3329:3338  requestId */\n      dup2\n        /* \"contracts/0050PriceUSDOracle.sol\":3314:3339  PriceRequested(requestId) */\n      0x655f2dca0174ce451aa939c62ea493c734778cc67c6783626b08ad34985e6c61\n      mload(0x40)\n      mload(0x40)\n      dup1\n      swap2\n      sub\n      swap1\n      log2\n        /* \"contracts/0050PriceUSDOracle.sol\":3350:3366  return requestId */\n      pop\n        /* \"contracts/0050PriceUSDOracle.sol\":2921:3374  function requestPriceUpdate() external returns (bytes32 requestId) {... */\n      swap1\n      jump\t// out\n        /* \"contracts/0050PriceUSDOracle.sol\":539:568  uint256 public lastUpdateTime */\n    tag_66:\n      sload(0x03)\n      dup2\n      jump\t// out\n        /* \"contracts/0050PriceUSDOracle.sol\":4282:4522  function updateConfig(... */\n    tag_71:\n        /* \"@chainlink/contracts/src/v0.8/shared/access/ConfirmedOwnerWithProposal.sol\":2075:2095  _validateOwnership() */\n      tag_135\n        /* \"@chainlink/contracts/src/v0.8/shared/access/ConfirmedOwnerWithProposal.sol\":2075:2093  _validateOwnership */\n      tag_91\n        /* \"@chainlink/contracts/src/v0.8/shared/access/ConfirmedOwnerWithProposal.sol\":2075:2095  _validateOwnership() */\n      jump\t// in\n    tag_135:\n        /* \"contracts/0050PriceUSDOracle.sol\":4443:4458  _subscriptionId */\n      dup3\n        /* \"contracts/0050PriceUSDOracle.sol\":4426:4440  subscriptionId */\n      0x05\n      0x00\n        /* \"contracts/0050PriceUSDOracle.sol\":4426:4458  subscriptionId = _subscriptionId */\n      0x0100\n      exp\n      dup2\n      sload\n      dup2\n      0xffffffffffffffff\n      mul\n      not\n      and\n      swap1\n      dup4\n      0xffffffffffffffff\n      and\n      mul\n      or\n      swap1\n      sstore\n      pop\n        /* \"contracts/0050PriceUSDOracle.sol\":4480:4489  _gasLimit */\n      dup2\n        /* \"contracts/0050PriceUSDOracle.sol\":4469:4477  gasLimit */\n      0x05\n      0x08\n        /* \"contracts/0050PriceUSDOracle.sol\":4469:4489  gasLimit = _gasLimit */\n      0x0100\n      exp\n      dup2\n      sload\n      dup2\n      0xffffffff\n      mul\n      not\n      and\n      swap1\n      dup4\n      0xffffffff\n      and\n      mul\n      or\n      swap1\n      sstore\n      pop\n        /* \"contracts/0050PriceUSDOracle.sol\":4508:4514  _donID */\n      dup1\n        /* \"contracts/0050PriceUSDOracle.sol\":4500:4505  donID */\n      0x06\n        /* \"contracts/0050PriceUSDOracle.sol\":4500:4514  donID = _donID */\n      dup2\n      swap1\n      sstore\n      pop\n        /* \"contracts/0050PriceUSDOracle.sol\":4282:4522  function updateConfig(... */\n      pop\n      pop\n      pop\n      jump\t// out\n        /* \"contracts/0050PriceUSDOracle.sol\":2486:2684  function getLatestPriceUSD() external view returns (uint256) {... */\n    tag_73:\n        /* \"contracts/0050PriceUSDOracle.sol\":2538:2545  uint256 */\n      0x00\n        /* \"contracts/0050PriceUSDOracle.sol\":2641:2645  1e16 */\n      0x2386f26fc10000\n        /* \"contracts/0050PriceUSDOracle.sol\":2626:2638  currentPrice */\n      sload(0x02)\n        /* \"contracts/0050PriceUSDOracle.sol\":2626:2645  currentPrice / 1e16 */\n      tag_138\n      swap2\n      swap1\n      tag_106\n      jump\t// in\n    tag_138:\n        /* \"contracts/0050PriceUSDOracle.sol\":2619:2645  return currentPrice / 1e16 */\n      swap1\n      pop\n        /* \"contracts/0050PriceUSDOracle.sol\":2486:2684  function getLatestPriceUSD() external view returns (uint256) {... */\n      swap1\n      jump\t// out\n        /* \"@chainlink/contracts/src/v0.8/shared/access/ConfirmedOwnerWithProposal.sol\":847:945  function transferOwnership(address to) public override onlyOwner {... */\n    tag_78:\n        /* \"@chainlink/contracts/src/v0.8/shared/access/ConfirmedOwnerWithProposal.sol\":2075:2095  _validateOwnership() */\n      tag_140\n        /* \"@chainlink/contracts/src/v0.8/shared/access/ConfirmedOwnerWithProposal.sol\":2075:2093  _validateOwnership */\n      tag_91\n        /* \"@chainlink/contracts/src/v0.8/shared/access/ConfirmedOwnerWithProposal.sol\":2075:2095  _validateOwnership() */\n      jump\t// in\n    tag_140:\n        /* \"@chainlink/contracts/src/v0.8/shared/access/ConfirmedOwnerWithProposal.sol\":918:940  _transferOwnership(to) */\n      tag_142\n        /* \"@chainlink/contracts/src/v0.8/shared/access/ConfirmedOwnerWithProposal.sol\":937:939  to */\n      dup2\n        /* \"@chainlink/contracts/src/v0.8/shared/access/ConfirmedOwnerWithProposal.sol\":918:936  _transferOwnership */\n      tag_143\n        /* \"@chainlink/contracts/src/v0.8/shared/access/ConfirmedOwnerWithProposal.sol\":918:940  _transferOwnership(to) */\n      jump\t// in\n    tag_142:\n        /* \"@chainlink/contracts/src/v0.8/shared/access/ConfirmedOwnerWithProposal.sol\":847:945  function transferOwnership(address to) public override onlyOwner {... */\n      pop\n      jump\t// out\n        /* \"contracts/0050PriceUSDOracle.sol\":686:717  uint32 public gasLimit = 300000 */\n    tag_80:\n      0x05\n      0x08\n      swap1\n      sload\n      swap1\n      0x0100\n      exp\n      swap1\n      div\n      0xffffffff\n      and\n      dup2\n      jump\t// out\n        /* \"contracts/0050PriceUSDOracle.sol\":575:603  bytes32 public lastRequestId */\n    tag_84:\n      sload(0x04)\n      dup2\n      jump\t// out\n        /* \"contracts/0050PriceUSDOracle.sol\":2749:2882  function getLatestPricePrecise() external view returns (uint256) {... */\n    tag_87:\n        /* \"contracts/0050PriceUSDOracle.sol\":2805:2812  uint256 */\n      0x00\n        /* \"contracts/0050PriceUSDOracle.sol\":2832:2844  currentPrice */\n      sload(0x02)\n        /* \"contracts/0050PriceUSDOracle.sol\":2825:2844  return currentPrice */\n      swap1\n      pop\n        /* \"contracts/0050PriceUSDOracle.sol\":2749:2882  function getLatestPricePrecise() external view returns (uint256) {... */\n      swap1\n      jump\t// out\n        /* \"@chainlink/contracts/src/v0.8/shared/access/ConfirmedOwnerWithProposal.sol\":1809:1971  function _validateOwnership() internal view {... */\n    tag_91:\n        /* \"@chainlink/contracts/src/v0.8/shared/access/ConfirmedOwnerWithProposal.sol\":1932:1939  s_owner */\n      0x00\n      0x00\n      swap1\n      sload\n      swap1\n      0x0100\n      exp\n      swap1\n      div\n      0xffffffffffffffffffffffffffffffffffffffff\n      and\n        /* \"@chainlink/contracts/src/v0.8/shared/access/ConfirmedOwnerWithProposal.sol\":1918:1939  msg.sender == s_owner */\n      0xffffffffffffffffffffffffffffffffffffffff\n      and\n        /* \"@chainlink/contracts/src/v0.8/shared/access/ConfirmedOwnerWithProposal.sol\":1918:1928  msg.sender */\n      caller\n        /* \"@chainlink/contracts/src/v0.8/shared/access/ConfirmedOwnerWithProposal.sol\":1918:1939  msg.sender == s_owner */\n      0xffffffffffffffffffffffffffffffffffffffff\n      and\n      eq\n        /* \"@chainlink/contracts/src/v0.8/shared/access/ConfirmedOwnerWithProposal.sol\":1910:1966  require(msg.sender == s_owner, \"Only callable by owner\") */\n      tag_146\n      jumpi\n      mload(0x40)\n      0x08c379a000000000000000000000000000000000000000000000000000000000\n      dup2\n      mstore\n      0x04\n      add\n      tag_147\n      swap1\n      tag_148\n      jump\t// in\n    tag_147:\n      mload(0x40)\n      dup1\n      swap2\n      sub\n      swap1\n      revert\n    tag_146:\n        /* \"@chainlink/contracts/src/v0.8/shared/access/ConfirmedOwnerWithProposal.sol\":1809:1971  function _validateOwnership() internal view {... */\n      jump\t// out\n        /* \"contracts/0050PriceUSDOracle.sol\":3427:3886  function fulfillRequest(... */\n    tag_103:\n        /* \"contracts/0050PriceUSDOracle.sol\":3591:3592  0 */\n      0x00\n        /* \"contracts/0050PriceUSDOracle.sol\":3578:3581  err */\n      dup2\n        /* \"contracts/0050PriceUSDOracle.sol\":3578:3588  err.length */\n      mload\n        /* \"contracts/0050PriceUSDOracle.sol\":3578:3592  err.length > 0 */\n      gt\n        /* \"contracts/0050PriceUSDOracle.sol\":3574:3676  if (err.length > 0) {... */\n      iszero\n      tag_150\n      jumpi\n        /* \"contracts/0050PriceUSDOracle.sol\":3628:3637  requestId */\n      dup3\n        /* \"contracts/0050PriceUSDOracle.sol\":3614:3643  RequestFailed(requestId, err) */\n      0x61982c98cbc49d11759a948f460b92bca26bdf12ceee12c310f117eb2ca9a9cb\n        /* \"contracts/0050PriceUSDOracle.sol\":3639:3642  err */\n      dup3\n        /* \"contracts/0050PriceUSDOracle.sol\":3614:3643  RequestFailed(requestId, err) */\n      mload(0x40)\n      tag_151\n      swap2\n      swap1\n      tag_152\n      jump\t// in\n    tag_151:\n      mload(0x40)\n      dup1\n      swap2\n      sub\n      swap1\n      log2\n        /* \"contracts/0050PriceUSDOracle.sol\":3658:3665  return; */\n      jump(tag_149)\n        /* \"contracts/0050PriceUSDOracle.sol\":3574:3676  if (err.length > 0) {... */\n    tag_150:\n        /* \"contracts/0050PriceUSDOracle.sol\":3696:3712  uint256 newPrice */\n      0x00\n        /* \"contracts/0050PriceUSDOracle.sol\":3726:3734  response */\n      dup3\n        /* \"contracts/0050PriceUSDOracle.sol\":3715:3746  abi.decode(response, (uint256)) */\n      dup1\n      0x20\n      add\n      swap1\n      mload\n      dup2\n      add\n      swap1\n      tag_153\n      swap2\n      swap1\n      tag_154\n      jump\t// in\n    tag_153:\n        /* \"contracts/0050PriceUSDOracle.sol\":3696:3746  uint256 newPrice = abi.decode(response, (uint256)) */\n      swap1\n      pop\n        /* \"contracts/0050PriceUSDOracle.sol\":3772:3780  newPrice */\n      dup1\n        /* \"contracts/0050PriceUSDOracle.sol\":3757:3769  currentPrice */\n      0x02\n        /* \"contracts/0050PriceUSDOracle.sol\":3757:3780  currentPrice = newPrice */\n      dup2\n      swap1\n      sstore\n      pop\n        /* \"contracts/0050PriceUSDOracle.sol\":3808:3823  block.timestamp */\n      timestamp\n        /* \"contracts/0050PriceUSDOracle.sol\":3791:3805  lastUpdateTime */\n      0x03\n        /* \"contracts/0050PriceUSDOracle.sol\":3791:3823  lastUpdateTime = block.timestamp */\n      dup2\n      swap1\n      sstore\n      pop\n        /* \"contracts/0050PriceUSDOracle.sol\":3839:3878  PriceUpdated(newPrice, block.timestamp) */\n      0x945c1c4e99aa89f648fbfe3df471b916f719e16d960fcec0737d4d56bd696838\n        /* \"contracts/0050PriceUSDOracle.sol\":3852:3860  newPrice */\n      dup2\n        /* \"contracts/0050PriceUSDOracle.sol\":3862:3877  block.timestamp */\n      timestamp\n        /* \"contracts/0050PriceUSDOracle.sol\":3839:3878  PriceUpdated(newPrice, block.timestamp) */\n      mload(0x40)\n      tag_155\n      swap3\n      swap2\n      swap1\n      tag_99\n      jump\t// in\n    tag_155:\n      mload(0x40)\n      dup1\n      swap2\n      sub\n      swap1\n      log1\n        /* \"contracts/0050PriceUSDOracle.sol\":3563:3886  {... */\n      pop\n        /* \"contracts/0050PriceUSDOracle.sol\":3427:3886  function fulfillRequest(... */\n    tag_149:\n      pop\n      pop\n      pop\n      jump\t// out\n        /* \"@chainlink/contracts/src/v0.8/functions/v1_0_0/libraries/FunctionsRequest.sol\":4323:4530  function initializeRequestForInlineJavaScript(Request memory self, string memory javaScriptSource) internal pure {... */\n    tag_129:\n        /* \"@chainlink/contracts/src/v0.8/functions/v1_0_0/libraries/FunctionsRequest.sol\":4442:4525  initializeRequest(self, Location.Inline, CodeLanguage.JavaScript, javaScriptSource) */\n      tag_157\n        /* \"@chainlink/contracts/src/v0.8/functions/v1_0_0/libraries/FunctionsRequest.sol\":4460:4464  self */\n      dup3\n        /* \"@chainlink/contracts/src/v0.8/functions/v1_0_0/libraries/FunctionsRequest.sol\":4466:4481  Location.Inline */\n      0x00\n        /* \"@chainlink/contracts/src/v0.8/functions/v1_0_0/libraries/FunctionsRequest.sol\":4483:4506  CodeLanguage.JavaScript */\n      0x00\n        /* \"@chainlink/contracts/src/v0.8/functions/v1_0_0/libraries/FunctionsRequest.sol\":4508:4524  javaScriptSource */\n      dup5\n        /* \"@chainlink/contracts/src/v0.8/functions/v1_0_0/libraries/FunctionsRequest.sol\":4442:4459  initializeRequest */\n      tag_158\n        /* \"@chainlink/contracts/src/v0.8/functions/v1_0_0/libraries/FunctionsRequest.sol\":4442:4525  initializeRequest(self, Location.Inline, CodeLanguage.JavaScript, javaScriptSource) */\n      jump\t// in\n    tag_157:\n        /* \"@chainlink/contracts/src/v0.8/functions/v1_0_0/libraries/FunctionsRequest.sol\":4323:4530  function initializeRequestForInlineJavaScript(Request memory self, string memory javaScriptSource) internal pure {... */\n      pop\n      pop\n      jump\t// out\n        /* \"@chainlink/contracts/src/v0.8/functions/v1_0_0/libraries/FunctionsRequest.sol\":2158:3428  function encodeCBOR(Request memory self) internal pure returns (bytes memory) {... */\n    tag_132:\n        /* \"@chainlink/contracts/src/v0.8/functions/v1_0_0/libraries/FunctionsRequest.sol\":2222:2234  bytes memory */\n      0x60\n        /* \"@chainlink/contracts/src/v0.8/functions/v1_0_0/libraries/FunctionsRequest.sol\":2242:2271  CBOR.CBORBuffer memory buffer */\n      0x00\n        /* \"@chainlink/contracts/src/v0.8/functions/v1_0_0/libraries/FunctionsRequest.sol\":2274:2306  CBOR.create(DEFAULT_BUFFER_SIZE) */\n      tag_160\n        /* \"@chainlink/contracts/src/v0.8/functions/v1_0_0/libraries/FunctionsRequest.sol\":375:378  256 */\n      0x0100\n        /* \"@chainlink/contracts/src/v0.8/functions/v1_0_0/libraries/FunctionsRequest.sol\":2274:2285  CBOR.create */\n      tag_161\n        /* \"@chainlink/contracts/src/v0.8/functions/v1_0_0/libraries/FunctionsRequest.sol\":2274:2306  CBOR.create(DEFAULT_BUFFER_SIZE) */\n      jump\t// in\n    tag_160:\n        /* \"@chainlink/contracts/src/v0.8/functions/v1_0_0/libraries/FunctionsRequest.sol\":2242:2306  CBOR.CBORBuffer memory buffer = CBOR.create(DEFAULT_BUFFER_SIZE) */\n      swap1\n      pop\n        /* \"@chainlink/contracts/src/v0.8/functions/v1_0_0/libraries/FunctionsRequest.sol\":2313:2347  buffer.writeString(\"codeLocation\") */\n      tag_162\n      mload(0x40)\n      dup1\n      0x40\n      add\n      0x40\n      mstore\n      dup1\n      0x0c\n      dup2\n      mstore\n      0x20\n      add\n      0x636f64654c6f636174696f6e0000000000000000000000000000000000000000\n      dup2\n      mstore\n      pop\n        /* \"@chainlink/contracts/src/v0.8/functions/v1_0_0/libraries/FunctionsRequest.sol\":2313:2319  buffer */\n      dup3\n        /* \"@chainlink/contracts/src/v0.8/functions/v1_0_0/libraries/FunctionsRequest.sol\":2313:2331  buffer.writeString */\n      tag_163\n      swap1\n        /* \"@chainlink/contracts/src/v0.8/functions/v1_0_0/libraries/FunctionsRequest.sol\":2313:2347  buffer.writeString(\"codeLocation\") */\n      swap2\n      swap1\n      0xffffffff\n      and\n      jump\t// in\n    tag_162:\n        /* \"@chainlink/contracts/src/v0.8/functions/v1_0_0/libraries/FunctionsRequest.sol\":2353:2400  buffer.writeUInt256(uint256(self.codeLocation)) */\n      tag_164\n        /* \"@chainlink/contracts/src/v0.8/functions/v1_0_0/libraries/FunctionsRequest.sol\":2381:2385  self */\n      dup4\n        /* \"@chainlink/contracts/src/v0.8/functions/v1_0_0/libraries/FunctionsRequest.sol\":2381:2398  self.codeLocation */\n      0x00\n      add\n      mload\n        /* \"@chainlink/contracts/src/v0.8/functions/v1_0_0/libraries/FunctionsRequest.sol\":2373:2399  uint256(self.codeLocation) */\n      0x02\n      dup2\n      gt\n      iszero\n      tag_165\n      jumpi\n      tag_166\n      tag_167\n      jump\t// in\n    tag_166:\n    tag_165:\n        /* \"@chainlink/contracts/src/v0.8/functions/v1_0_0/libraries/FunctionsRequest.sol\":2353:2359  buffer */\n      dup3\n        /* \"@chainlink/contracts/src/v0.8/functions/v1_0_0/libraries/FunctionsRequest.sol\":2353:2372  buffer.writeUInt256 */\n      tag_168\n      swap1\n        /* \"@chainlink/contracts/src/v0.8/functions/v1_0_0/libraries/FunctionsRequest.sol\":2353:2400  buffer.writeUInt256(uint256(self.codeLocation)) */\n      swap2\n      swap1\n      0xffffffff\n      and\n      jump\t// in\n    tag_164:\n        /* \"@chainlink/contracts/src/v0.8/functions/v1_0_0/libraries/FunctionsRequest.sol\":2407:2437  buffer.writeString(\"language\") */\n      tag_169\n      mload(0x40)\n      dup1\n      0x40\n      add\n      0x40\n      mstore\n      dup1\n      0x08\n      dup2\n      mstore\n      0x20\n      add\n      0x6c616e6775616765000000000000000000000000000000000000000000000000\n      dup2\n      mstore\n      pop\n        /* \"@chainlink/contracts/src/v0.8/functions/v1_0_0/libraries/FunctionsRequest.sol\":2407:2413  buffer */\n      dup3\n        /* \"@chainlink/contracts/src/v0.8/functions/v1_0_0/libraries/FunctionsRequest.sol\":2407:2425  buffer.writeString */\n      tag_163\n      swap1\n        /* \"@chainlink/contracts/src/v0.8/functions/v1_0_0/libraries/FunctionsRequest.sol\":2407:2437  buffer.writeString(\"language\") */\n      swap2\n      swap1\n      0xffffffff\n      and\n      jump\t// in\n    tag_169:\n        /* \"@chainlink/contracts/src/v0.8/functions/v1_0_0/libraries/FunctionsRequest.sol\":2443:2486  buffer.writeUInt256(uint256(self.language)) */\n      tag_170\n        /* \"@chainlink/contracts/src/v0.8/functions/v1_0_0/libraries/FunctionsRequest.sol\":2471:2475  self */\n      dup4\n        /* \"@chainlink/contracts/src/v0.8/functions/v1_0_0/libraries/FunctionsRequest.sol\":2471:2484  self.language */\n      0x40\n      add\n      mload\n        /* \"@chainlink/contracts/src/v0.8/functions/v1_0_0/libraries/FunctionsRequest.sol\":2463:2485  uint256(self.language) */\n      0x00\n      dup2\n      gt\n      iszero\n      tag_171\n      jumpi\n      tag_172\n      tag_167\n      jump\t// in\n    tag_172:\n    tag_171:\n        /* \"@chainlink/contracts/src/v0.8/functions/v1_0_0/libraries/FunctionsRequest.sol\":2443:2449  buffer */\n      dup3\n        /* \"@chainlink/contracts/src/v0.8/functions/v1_0_0/libraries/FunctionsRequest.sol\":2443:2462  buffer.writeUInt256 */\n      tag_168\n      swap1\n        /* \"@chainlink/contracts/src/v0.8/functions/v1_0_0/libraries/FunctionsRequest.sol\":2443:2486  buffer.writeUInt256(uint256(self.language)) */\n      swap2\n      swap1\n      0xffffffff\n      and\n      jump\t// in\n    tag_170:\n        /* \"@chainlink/contracts/src/v0.8/functions/v1_0_0/libraries/FunctionsRequest.sol\":2493:2521  buffer.writeString(\"source\") */\n      tag_173\n      mload(0x40)\n      dup1\n      0x40\n      add\n      0x40\n      mstore\n      dup1\n      0x06\n      dup2\n      mstore\n      0x20\n      add\n      0x736f757263650000000000000000000000000000000000000000000000000000\n      dup2\n      mstore\n      pop\n        /* \"@chainlink/contracts/src/v0.8/functions/v1_0_0/libraries/FunctionsRequest.sol\":2493:2499  buffer */\n      dup3\n        /* \"@chainlink/contracts/src/v0.8/functions/v1_0_0/libraries/FunctionsRequest.sol\":2493:2511  buffer.writeString */\n      tag_163\n      swap1\n        /* \"@chainlink/contracts/src/v0.8/functions/v1_0_0/libraries/FunctionsRequest.sol\":2493:2521  buffer.writeString(\"source\") */\n      swap2\n      swap1\n      0xffffffff\n      and\n      jump\t// in\n    tag_173:\n        /* \"@chainlink/contracts/src/v0.8/functions/v1_0_0/libraries/FunctionsRequest.sol\":2527:2558  buffer.writeString(self.source) */\n      tag_174\n        /* \"@chainlink/contracts/src/v0.8/functions/v1_0_0/libraries/FunctionsRequest.sol\":2546:2550  self */\n      dup4\n        /* \"@chainlink/contracts/src/v0.8/functions/v1_0_0/libraries/FunctionsRequest.sol\":2546:2557  self.source */\n      0x60\n      add\n      mload\n        /* \"@chainlink/contracts/src/v0.8/functions/v1_0_0/libraries/FunctionsRequest.sol\":2527:2533  buffer */\n      dup3\n        /* \"@chainlink/contracts/src/v0.8/functions/v1_0_0/libraries/FunctionsRequest.sol\":2527:2545  buffer.writeString */\n      tag_163\n      swap1\n        /* \"@chainlink/contracts/src/v0.8/functions/v1_0_0/libraries/FunctionsRequest.sol\":2527:2558  buffer.writeString(self.source) */\n      swap2\n      swap1\n      0xffffffff\n      and\n      jump\t// in\n    tag_174:\n        /* \"@chainlink/contracts/src/v0.8/functions/v1_0_0/libraries/FunctionsRequest.sol\":2588:2589  0 */\n      0x00\n        /* \"@chainlink/contracts/src/v0.8/functions/v1_0_0/libraries/FunctionsRequest.sol\":2569:2573  self */\n      dup4\n        /* \"@chainlink/contracts/src/v0.8/functions/v1_0_0/libraries/FunctionsRequest.sol\":2569:2578  self.args */\n      0xa0\n      add\n      mload\n        /* \"@chainlink/contracts/src/v0.8/functions/v1_0_0/libraries/FunctionsRequest.sol\":2569:2585  self.args.length */\n      mload\n        /* \"@chainlink/contracts/src/v0.8/functions/v1_0_0/libraries/FunctionsRequest.sol\":2569:2589  self.args.length > 0 */\n      gt\n        /* \"@chainlink/contracts/src/v0.8/functions/v1_0_0/libraries/FunctionsRequest.sol\":2565:2792  if (self.args.length > 0) {... */\n      iszero\n      tag_175\n      jumpi\n        /* \"@chainlink/contracts/src/v0.8/functions/v1_0_0/libraries/FunctionsRequest.sol\":2599:2625  buffer.writeString(\"args\") */\n      tag_176\n      mload(0x40)\n      dup1\n      0x40\n      add\n      0x40\n      mstore\n      dup1\n      0x04\n      dup2\n      mstore\n      0x20\n      add\n      0x6172677300000000000000000000000000000000000000000000000000000000\n      dup2\n      mstore\n      pop\n        /* \"@chainlink/contracts/src/v0.8/functions/v1_0_0/libraries/FunctionsRequest.sol\":2599:2605  buffer */\n      dup3\n        /* \"@chainlink/contracts/src/v0.8/functions/v1_0_0/libraries/FunctionsRequest.sol\":2599:2617  buffer.writeString */\n      tag_163\n      swap1\n        /* \"@chainlink/contracts/src/v0.8/functions/v1_0_0/libraries/FunctionsRequest.sol\":2599:2625  buffer.writeString(\"args\") */\n      swap2\n      swap1\n      0xffffffff\n      and\n      jump\t// in\n    tag_176:\n        /* \"@chainlink/contracts/src/v0.8/functions/v1_0_0/libraries/FunctionsRequest.sol\":2633:2652  buffer.startArray() */\n      tag_177\n        /* \"@chainlink/contracts/src/v0.8/functions/v1_0_0/libraries/FunctionsRequest.sol\":2633:2639  buffer */\n      dup2\n        /* \"@chainlink/contracts/src/v0.8/functions/v1_0_0/libraries/FunctionsRequest.sol\":2633:2650  buffer.startArray */\n      tag_178\n        /* \"@chainlink/contracts/src/v0.8/functions/v1_0_0/libraries/FunctionsRequest.sol\":2633:2652  buffer.startArray() */\n      jump\t// in\n    tag_177:\n        /* \"@chainlink/contracts/src/v0.8/functions/v1_0_0/libraries/FunctionsRequest.sol\":2665:2674  uint256 i */\n      0x00\n        /* \"@chainlink/contracts/src/v0.8/functions/v1_0_0/libraries/FunctionsRequest.sol\":2677:2678  0 */\n      0x00\n        /* \"@chainlink/contracts/src/v0.8/functions/v1_0_0/libraries/FunctionsRequest.sol\":2665:2678  uint256 i = 0 */\n      swap1\n      pop\n        /* \"@chainlink/contracts/src/v0.8/functions/v1_0_0/libraries/FunctionsRequest.sol\":2660:2758  for (uint256 i = 0; i < self.args.length; ++i) {... */\n    tag_179:\n        /* \"@chainlink/contracts/src/v0.8/functions/v1_0_0/libraries/FunctionsRequest.sol\":2684:2688  self */\n      dup4\n        /* \"@chainlink/contracts/src/v0.8/functions/v1_0_0/libraries/FunctionsRequest.sol\":2684:2693  self.args */\n      0xa0\n      add\n      mload\n        /* \"@chainlink/contracts/src/v0.8/functions/v1_0_0/libraries/FunctionsRequest.sol\":2684:2700  self.args.length */\n      mload\n        /* \"@chainlink/contracts/src/v0.8/functions/v1_0_0/libraries/FunctionsRequest.sol\":2680:2681  i */\n      dup2\n        /* \"@chainlink/contracts/src/v0.8/functions/v1_0_0/libraries/FunctionsRequest.sol\":2680:2700  i < self.args.length */\n      lt\n        /* \"@chainlink/contracts/src/v0.8/functions/v1_0_0/libraries/FunctionsRequest.sol\":2660:2758  for (uint256 i = 0; i < self.args.length; ++i) {... */\n      iszero\n      tag_180\n      jumpi\n        /* \"@chainlink/contracts/src/v0.8/functions/v1_0_0/libraries/FunctionsRequest.sol\":2717:2749  buffer.writeString(self.args[i]) */\n      tag_182\n        /* \"@chainlink/contracts/src/v0.8/functions/v1_0_0/libraries/FunctionsRequest.sol\":2736:2740  self */\n      dup5\n        /* \"@chainlink/contracts/src/v0.8/functions/v1_0_0/libraries/FunctionsRequest.sol\":2736:2745  self.args */\n      0xa0\n      add\n      mload\n        /* \"@chainlink/contracts/src/v0.8/functions/v1_0_0/libraries/FunctionsRequest.sol\":2746:2747  i */\n      dup3\n        /* \"@chainlink/contracts/src/v0.8/functions/v1_0_0/libraries/FunctionsRequest.sol\":2736:2748  self.args[i] */\n      dup2\n      mload\n      dup2\n      lt\n      tag_183\n      jumpi\n      tag_184\n      tag_185\n      jump\t// in\n    tag_184:\n    tag_183:\n      0x20\n      mul\n      0x20\n      add\n      add\n      mload\n        /* \"@chainlink/contracts/src/v0.8/functions/v1_0_0/libraries/FunctionsRequest.sol\":2717:2723  buffer */\n      dup4\n        /* \"@chainlink/contracts/src/v0.8/functions/v1_0_0/libraries/FunctionsRequest.sol\":2717:2735  buffer.writeString */\n      tag_163\n      swap1\n        /* \"@chainlink/contracts/src/v0.8/functions/v1_0_0/libraries/FunctionsRequest.sol\":2717:2749  buffer.writeString(self.args[i]) */\n      swap2\n      swap1\n      0xffffffff\n      and\n      jump\t// in\n    tag_182:\n        /* \"@chainlink/contracts/src/v0.8/functions/v1_0_0/libraries/FunctionsRequest.sol\":2702:2705  ++i */\n      dup1\n      0x01\n      add\n      swap1\n      pop\n        /* \"@chainlink/contracts/src/v0.8/functions/v1_0_0/libraries/FunctionsRequest.sol\":2660:2758  for (uint256 i = 0; i < self.args.length; ++i) {... */\n      jump(tag_179)\n    tag_180:\n      pop\n        /* \"@chainlink/contracts/src/v0.8/functions/v1_0_0/libraries/FunctionsRequest.sol\":2765:2785  buffer.endSequence() */\n      tag_186\n        /* \"@chainlink/contracts/src/v0.8/functions/v1_0_0/libraries/FunctionsRequest.sol\":2765:2771  buffer */\n      dup2\n        /* \"@chainlink/contracts/src/v0.8/functions/v1_0_0/libraries/FunctionsRequest.sol\":2765:2783  buffer.endSequence */\n      tag_187\n        /* \"@chainlink/contracts/src/v0.8/functions/v1_0_0/libraries/FunctionsRequest.sol\":2765:2785  buffer.endSequence() */\n      jump\t// in\n    tag_186:\n        /* \"@chainlink/contracts/src/v0.8/functions/v1_0_0/libraries/FunctionsRequest.sol\":2565:2792  if (self.args.length > 0) {... */\n    tag_175:\n        /* \"@chainlink/contracts/src/v0.8/functions/v1_0_0/libraries/FunctionsRequest.sol\":2842:2843  0 */\n      0x00\n        /* \"@chainlink/contracts/src/v0.8/functions/v1_0_0/libraries/FunctionsRequest.sol\":2802:2806  self */\n      dup4\n        /* \"@chainlink/contracts/src/v0.8/functions/v1_0_0/libraries/FunctionsRequest.sol\":2802:2832  self.encryptedSecretsReference */\n      0x80\n      add\n      mload\n        /* \"@chainlink/contracts/src/v0.8/functions/v1_0_0/libraries/FunctionsRequest.sol\":2802:2839  self.encryptedSecretsReference.length */\n      mload\n        /* \"@chainlink/contracts/src/v0.8/functions/v1_0_0/libraries/FunctionsRequest.sol\":2802:2843  self.encryptedSecretsReference.length > 0 */\n      gt\n        /* \"@chainlink/contracts/src/v0.8/functions/v1_0_0/libraries/FunctionsRequest.sol\":2798:3144  if (self.encryptedSecretsReference.length > 0) {... */\n      iszero\n      tag_188\n      jumpi\n        /* \"@chainlink/contracts/src/v0.8/functions/v1_0_0/libraries/FunctionsRequest.sol\":2881:2896  Location.Inline */\n      0x00\n        /* \"@chainlink/contracts/src/v0.8/functions/v1_0_0/libraries/FunctionsRequest.sol\":2857:2896  self.secretsLocation == Location.Inline */\n      0x02\n      dup2\n      gt\n      iszero\n      tag_189\n      jumpi\n      tag_190\n      tag_167\n      jump\t// in\n    tag_190:\n    tag_189:\n        /* \"@chainlink/contracts/src/v0.8/functions/v1_0_0/libraries/FunctionsRequest.sol\":2857:2861  self */\n      dup4\n        /* \"@chainlink/contracts/src/v0.8/functions/v1_0_0/libraries/FunctionsRequest.sol\":2857:2877  self.secretsLocation */\n      0x20\n      add\n      mload\n        /* \"@chainlink/contracts/src/v0.8/functions/v1_0_0/libraries/FunctionsRequest.sol\":2857:2896  self.secretsLocation == Location.Inline */\n      0x02\n      dup2\n      gt\n      iszero\n      tag_191\n      jumpi\n      tag_192\n      tag_167\n      jump\t// in\n    tag_192:\n    tag_191:\n      sub\n        /* \"@chainlink/contracts/src/v0.8/functions/v1_0_0/libraries/FunctionsRequest.sol\":2853:2941  if (self.secretsLocation == Location.Inline) {... */\n      tag_193\n      jumpi\n        /* \"@chainlink/contracts/src/v0.8/functions/v1_0_0/libraries/FunctionsRequest.sol\":2915:2932  NoInlineSecrets() */\n      mload(0x40)\n      0xa80d31f700000000000000000000000000000000000000000000000000000000\n      dup2\n      mstore\n      0x04\n      add\n      mload(0x40)\n      dup1\n      swap2\n      sub\n      swap1\n      revert\n        /* \"@chainlink/contracts/src/v0.8/functions/v1_0_0/libraries/FunctionsRequest.sol\":2853:2941  if (self.secretsLocation == Location.Inline) {... */\n    tag_193:\n        /* \"@chainlink/contracts/src/v0.8/functions/v1_0_0/libraries/FunctionsRequest.sol\":2948:2985  buffer.writeString(\"secretsLocation\") */\n      tag_194\n      mload(0x40)\n      dup1\n      0x40\n      add\n      0x40\n      mstore\n      dup1\n      0x0f\n      dup2\n      mstore\n      0x20\n      add\n      0x736563726574734c6f636174696f6e0000000000000000000000000000000000\n      dup2\n      mstore\n      pop\n        /* \"@chainlink/contracts/src/v0.8/functions/v1_0_0/libraries/FunctionsRequest.sol\":2948:2954  buffer */\n      dup3\n        /* \"@chainlink/contracts/src/v0.8/functions/v1_0_0/libraries/FunctionsRequest.sol\":2948:2966  buffer.writeString */\n      tag_163\n      swap1\n        /* \"@chainlink/contracts/src/v0.8/functions/v1_0_0/libraries/FunctionsRequest.sol\":2948:2985  buffer.writeString(\"secretsLocation\") */\n      swap2\n      swap1\n      0xffffffff\n      and\n      jump\t// in\n    tag_194:\n        /* \"@chainlink/contracts/src/v0.8/functions/v1_0_0/libraries/FunctionsRequest.sol\":2993:3043  buffer.writeUInt256(uint256(self.secretsLocation)) */\n      tag_195\n        /* \"@chainlink/contracts/src/v0.8/functions/v1_0_0/libraries/FunctionsRequest.sol\":3021:3025  self */\n      dup4\n        /* \"@chainlink/contracts/src/v0.8/functions/v1_0_0/libraries/FunctionsRequest.sol\":3021:3041  self.secretsLocation */\n      0x20\n      add\n      mload\n        /* \"@chainlink/contracts/src/v0.8/functions/v1_0_0/libraries/FunctionsRequest.sol\":3013:3042  uint256(self.secretsLocation) */\n      0x02\n      dup2\n      gt\n      iszero\n      tag_196\n      jumpi\n      tag_197\n      tag_167\n      jump\t// in\n    tag_197:\n    tag_196:\n        /* \"@chainlink/contracts/src/v0.8/functions/v1_0_0/libraries/FunctionsRequest.sol\":2993:2999  buffer */\n      dup3\n        /* \"@chainlink/contracts/src/v0.8/functions/v1_0_0/libraries/FunctionsRequest.sol\":2993:3012  buffer.writeUInt256 */\n      tag_168\n      swap1\n        /* \"@chainlink/contracts/src/v0.8/functions/v1_0_0/libraries/FunctionsRequest.sol\":2993:3043  buffer.writeUInt256(uint256(self.secretsLocation)) */\n      swap2\n      swap1\n      0xffffffff\n      and\n      jump\t// in\n    tag_195:\n        /* \"@chainlink/contracts/src/v0.8/functions/v1_0_0/libraries/FunctionsRequest.sol\":3051:3080  buffer.writeString(\"secrets\") */\n      tag_198\n      mload(0x40)\n      dup1\n      0x40\n      add\n      0x40\n      mstore\n      dup1\n      0x07\n      dup2\n      mstore\n      0x20\n      add\n      0x7365637265747300000000000000000000000000000000000000000000000000\n      dup2\n      mstore\n      pop\n        /* \"@chainlink/contracts/src/v0.8/functions/v1_0_0/libraries/FunctionsRequest.sol\":3051:3057  buffer */\n      dup3\n        /* \"@chainlink/contracts/src/v0.8/functions/v1_0_0/libraries/FunctionsRequest.sol\":3051:3069  buffer.writeString */\n      tag_163\n      swap1\n        /* \"@chainlink/contracts/src/v0.8/functions/v1_0_0/libraries/FunctionsRequest.sol\":3051:3080  buffer.writeString(\"secrets\") */\n      swap2\n      swap1\n      0xffffffff\n      and\n      jump\t// in\n    tag_198:\n        /* \"@chainlink/contracts/src/v0.8/functions/v1_0_0/libraries/FunctionsRequest.sol\":3088:3137  buffer.writeBytes(self.encryptedSecretsReference) */\n      tag_199\n        /* \"@chainlink/contracts/src/v0.8/functions/v1_0_0/libraries/FunctionsRequest.sol\":3106:3110  self */\n      dup4\n        /* \"@chainlink/contracts/src/v0.8/functions/v1_0_0/libraries/FunctionsRequest.sol\":3106:3136  self.encryptedSecretsReference */\n      0x80\n      add\n      mload\n        /* \"@chainlink/contracts/src/v0.8/functions/v1_0_0/libraries/FunctionsRequest.sol\":3088:3094  buffer */\n      dup3\n        /* \"@chainlink/contracts/src/v0.8/functions/v1_0_0/libraries/FunctionsRequest.sol\":3088:3105  buffer.writeBytes */\n      tag_200\n      swap1\n        /* \"@chainlink/contracts/src/v0.8/functions/v1_0_0/libraries/FunctionsRequest.sol\":3088:3137  buffer.writeBytes(self.encryptedSecretsReference) */\n      swap2\n      swap1\n      0xffffffff\n      and\n      jump\t// in\n    tag_199:\n        /* \"@chainlink/contracts/src/v0.8/functions/v1_0_0/libraries/FunctionsRequest.sol\":2798:3144  if (self.encryptedSecretsReference.length > 0) {... */\n    tag_188:\n        /* \"@chainlink/contracts/src/v0.8/functions/v1_0_0/libraries/FunctionsRequest.sol\":3178:3179  0 */\n      0x00\n        /* \"@chainlink/contracts/src/v0.8/functions/v1_0_0/libraries/FunctionsRequest.sol\":3154:3158  self */\n      dup4\n        /* \"@chainlink/contracts/src/v0.8/functions/v1_0_0/libraries/FunctionsRequest.sol\":3154:3168  self.bytesArgs */\n      0xc0\n      add\n      mload\n        /* \"@chainlink/contracts/src/v0.8/functions/v1_0_0/libraries/FunctionsRequest.sol\":3154:3175  self.bytesArgs.length */\n      mload\n        /* \"@chainlink/contracts/src/v0.8/functions/v1_0_0/libraries/FunctionsRequest.sol\":3154:3179  self.bytesArgs.length > 0 */\n      gt\n        /* \"@chainlink/contracts/src/v0.8/functions/v1_0_0/libraries/FunctionsRequest.sol\":3150:3396  if (self.bytesArgs.length > 0) {... */\n      iszero\n      tag_201\n      jumpi\n        /* \"@chainlink/contracts/src/v0.8/functions/v1_0_0/libraries/FunctionsRequest.sol\":3189:3220  buffer.writeString(\"bytesArgs\") */\n      tag_202\n      mload(0x40)\n      dup1\n      0x40\n      add\n      0x40\n      mstore\n      dup1\n      0x09\n      dup2\n      mstore\n      0x20\n      add\n      0x6279746573417267730000000000000000000000000000000000000000000000\n      dup2\n      mstore\n      pop\n        /* \"@chainlink/contracts/src/v0.8/functions/v1_0_0/libraries/FunctionsRequest.sol\":3189:3195  buffer */\n      dup3\n        /* \"@chainlink/contracts/src/v0.8/functions/v1_0_0/libraries/FunctionsRequest.sol\":3189:3207  buffer.writeString */\n      tag_163\n      swap1\n        /* \"@chainlink/contracts/src/v0.8/functions/v1_0_0/libraries/FunctionsRequest.sol\":3189:3220  buffer.writeString(\"bytesArgs\") */\n      swap2\n      swap1\n      0xffffffff\n      and\n      jump\t// in\n    tag_202:\n        /* \"@chainlink/contracts/src/v0.8/functions/v1_0_0/libraries/FunctionsRequest.sol\":3228:3247  buffer.startArray() */\n      tag_203\n        /* \"@chainlink/contracts/src/v0.8/functions/v1_0_0/libraries/FunctionsRequest.sol\":3228:3234  buffer */\n      dup2\n        /* \"@chainlink/contracts/src/v0.8/functions/v1_0_0/libraries/FunctionsRequest.sol\":3228:3245  buffer.startArray */\n      tag_178\n        /* \"@chainlink/contracts/src/v0.8/functions/v1_0_0/libraries/FunctionsRequest.sol\":3228:3247  buffer.startArray() */\n      jump\t// in\n    tag_203:\n        /* \"@chainlink/contracts/src/v0.8/functions/v1_0_0/libraries/FunctionsRequest.sol\":3260:3269  uint256 i */\n      0x00\n        /* \"@chainlink/contracts/src/v0.8/functions/v1_0_0/libraries/FunctionsRequest.sol\":3272:3273  0 */\n      0x00\n        /* \"@chainlink/contracts/src/v0.8/functions/v1_0_0/libraries/FunctionsRequest.sol\":3260:3273  uint256 i = 0 */\n      swap1\n      pop\n        /* \"@chainlink/contracts/src/v0.8/functions/v1_0_0/libraries/FunctionsRequest.sol\":3255:3362  for (uint256 i = 0; i < self.bytesArgs.length; ++i) {... */\n    tag_204:\n        /* \"@chainlink/contracts/src/v0.8/functions/v1_0_0/libraries/FunctionsRequest.sol\":3279:3283  self */\n      dup4\n        /* \"@chainlink/contracts/src/v0.8/functions/v1_0_0/libraries/FunctionsRequest.sol\":3279:3293  self.bytesArgs */\n      0xc0\n      add\n      mload\n        /* \"@chainlink/contracts/src/v0.8/functions/v1_0_0/libraries/FunctionsRequest.sol\":3279:3300  self.bytesArgs.length */\n      mload\n        /* \"@chainlink/contracts/src/v0.8/functions/v1_0_0/libraries/FunctionsRequest.sol\":3275:3276  i */\n      dup2\n        /* \"@chainlink/contracts/src/v0.8/functions/v1_0_0/libraries/FunctionsRequest.sol\":3275:3300  i < self.bytesArgs.length */\n      lt\n        /* \"@chainlink/contracts/src/v0.8/functions/v1_0_0/libraries/FunctionsRequest.sol\":3255:3362  for (uint256 i = 0; i < self.bytesArgs.length; ++i) {... */\n      iszero\n      tag_205\n      jumpi\n        /* \"@chainlink/contracts/src/v0.8/functions/v1_0_0/libraries/FunctionsRequest.sol\":3317:3353  buffer.writeBytes(self.bytesArgs[i]) */\n      tag_207\n        /* \"@chainlink/contracts/src/v0.8/functions/v1_0_0/libraries/FunctionsRequest.sol\":3335:3339  self */\n      dup5\n        /* \"@chainlink/contracts/src/v0.8/functions/v1_0_0/libraries/FunctionsRequest.sol\":3335:3349  self.bytesArgs */\n      0xc0\n      add\n      mload\n        /* \"@chainlink/contracts/src/v0.8/functions/v1_0_0/libraries/FunctionsRequest.sol\":3350:3351  i */\n      dup3\n        /* \"@chainlink/contracts/src/v0.8/functions/v1_0_0/libraries/FunctionsRequest.sol\":3335:3352  self.bytesArgs[i] */\n      dup2\n      mload\n      dup2\n      lt\n      tag_208\n      jumpi\n      tag_209\n      tag_185\n      jump\t// in\n    tag_209:\n    tag_208:\n      0x20\n      mul\n      0x20\n      add\n      add\n      mload\n        /* \"@chainlink/contracts/src/v0.8/functions/v1_0_0/libraries/FunctionsRequest.sol\":3317:3323  buffer */\n      dup4\n        /* \"@chainlink/contracts/src/v0.8/functions/v1_0_0/libraries/FunctionsRequest.sol\":3317:3334  buffer.writeBytes */\n      tag_200\n      swap1\n        /* \"@chainlink/contracts/src/v0.8/functions/v1_0_0/libraries/FunctionsRequest.sol\":3317:3353  buffer.writeBytes(self.bytesArgs[i]) */\n      swap2\n      swap1\n      0xffffffff\n      and\n      jump\t// in\n    tag_207:\n        /* \"@chainlink/contracts/src/v0.8/functions/v1_0_0/libraries/FunctionsRequest.sol\":3302:3305  ++i */\n      dup1\n      0x01\n      add\n      swap1\n      pop\n        /* \"@chainlink/contracts/src/v0.8/functions/v1_0_0/libraries/FunctionsRequest.sol\":3255:3362  for (uint256 i = 0; i < self.bytesArgs.length; ++i) {... */\n      jump(tag_204)\n    tag_205:\n      pop\n        /* \"@chainlink/contracts/src/v0.8/functions/v1_0_0/libraries/FunctionsRequest.sol\":3369:3389  buffer.endSequence() */\n      tag_210\n        /* \"@chainlink/contracts/src/v0.8/functions/v1_0_0/libraries/FunctionsRequest.sol\":3369:3375  buffer */\n      dup2\n        /* \"@chainlink/contracts/src/v0.8/functions/v1_0_0/libraries/FunctionsRequest.sol\":3369:3387  buffer.endSequence */\n      tag_187\n        /* \"@chainlink/contracts/src/v0.8/functions/v1_0_0/libraries/FunctionsRequest.sol\":3369:3389  buffer.endSequence() */\n      jump\t// in\n    tag_210:\n        /* \"@chainlink/contracts/src/v0.8/functions/v1_0_0/libraries/FunctionsRequest.sol\":3150:3396  if (self.bytesArgs.length > 0) {... */\n    tag_201:\n        /* \"@chainlink/contracts/src/v0.8/functions/v1_0_0/libraries/FunctionsRequest.sol\":3409:3415  buffer */\n      dup1\n        /* \"@chainlink/contracts/src/v0.8/functions/v1_0_0/libraries/FunctionsRequest.sol\":3409:3419  buffer.buf */\n      0x00\n      add\n      mload\n        /* \"@chainlink/contracts/src/v0.8/functions/v1_0_0/libraries/FunctionsRequest.sol\":3409:3423  buffer.buf.buf */\n      0x00\n      add\n      mload\n        /* \"@chainlink/contracts/src/v0.8/functions/v1_0_0/libraries/FunctionsRequest.sol\":3402:3423  return buffer.buf.buf */\n      swap2\n      pop\n      pop\n        /* \"@chainlink/contracts/src/v0.8/functions/v1_0_0/libraries/FunctionsRequest.sol\":2158:3428  function encodeCBOR(Request memory self) internal pure returns (bytes memory) {... */\n      swap2\n      swap1\n      pop\n      jump\t// out\n        /* \"@chainlink/contracts/src/v0.8/functions/v1_0_0/FunctionsClient.sol\":1158:1537  function _sendRequest(... */\n    tag_133:\n        /* \"@chainlink/contracts/src/v0.8/functions/v1_0_0/FunctionsClient.sol\":1300:1307  bytes32 */\n      0x00\n        /* \"@chainlink/contracts/src/v0.8/functions/v1_0_0/FunctionsClient.sol\":1315:1332  bytes32 requestId */\n      0x00\n        /* \"@chainlink/contracts/src/v0.8/functions/v1_0_0/FunctionsClient.sol\":1335:1343  i_router */\n      immutable(\"0x8e8fab5f003314da8d1873ea7720e8d9f47650136d916064d1edb8a11d682624\")\n        /* \"@chainlink/contracts/src/v0.8/functions/v1_0_0/FunctionsClient.sol\":1335:1355  i_router.sendRequest */\n      0xffffffffffffffffffffffffffffffffffffffff\n      and\n      0x461d2762\n        /* \"@chainlink/contracts/src/v0.8/functions/v1_0_0/FunctionsClient.sol\":1363:1377  subscriptionId */\n      dup7\n        /* \"@chainlink/contracts/src/v0.8/functions/v1_0_0/FunctionsClient.sol\":1385:1389  data */\n      dup9\n        /* \"@chainlink/contracts/src/v0.8/functions/v1_0_0/libraries/FunctionsRequest.sol\":322:323  1 */\n      0x01\n        /* \"@chainlink/contracts/src/v0.8/functions/v1_0_0/FunctionsClient.sol\":1442:1458  callbackGasLimit */\n      dup9\n        /* \"@chainlink/contracts/src/v0.8/functions/v1_0_0/FunctionsClient.sol\":1466:1471  donId */\n      dup9\n        /* \"@chainlink/contracts/src/v0.8/functions/v1_0_0/FunctionsClient.sol\":1335:1477  i_router.sendRequest(... */\n      mload(0x40)\n      dup7\n      0xffffffff\n      and\n      0xe0\n      shl\n      dup2\n      mstore\n      0x04\n      add\n      tag_212\n      swap6\n      swap5\n      swap4\n      swap3\n      swap2\n      swap1\n      tag_213\n      jump\t// in\n    tag_212:\n      0x20\n      mload(0x40)\n      dup1\n      dup4\n      sub\n      dup2\n      0x00\n      dup8\n      gas\n      call\n      iszero\n      dup1\n      iszero\n      tag_215\n      jumpi\n      returndatacopy(0x00, 0x00, returndatasize)\n      revert(0x00, returndatasize)\n    tag_215:\n      pop\n      pop\n      pop\n      pop\n      mload(0x40)\n      returndatasize\n      not(0x1f)\n      0x1f\n      dup3\n      add\n      and\n      dup3\n      add\n      dup1\n      0x40\n      mstore\n      pop\n      dup2\n      add\n      swap1\n      tag_216\n      swap2\n      swap1\n      tag_217\n      jump\t// in\n    tag_216:\n        /* \"@chainlink/contracts/src/v0.8/functions/v1_0_0/FunctionsClient.sol\":1315:1477  bytes32 requestId = i_router.sendRequest(... */\n      swap1\n      pop\n        /* \"@chainlink/contracts/src/v0.8/functions/v1_0_0/FunctionsClient.sol\":1500:1509  requestId */\n      dup1\n        /* \"@chainlink/contracts/src/v0.8/functions/v1_0_0/FunctionsClient.sol\":1488:1510  RequestSent(requestId) */\n      0x1131472297a800fee664d1d89cfa8f7676ff07189ecc53f80bbb5f4969099db8\n      mload(0x40)\n      mload(0x40)\n      dup1\n      swap2\n      sub\n      swap1\n      log2\n        /* \"@chainlink/contracts/src/v0.8/functions/v1_0_0/FunctionsClient.sol\":1523:1532  requestId */\n      dup1\n        /* \"@chainlink/contracts/src/v0.8/functions/v1_0_0/FunctionsClient.sol\":1516:1532  return requestId */\n      swap2\n      pop\n      pop\n        /* \"@chainlink/contracts/src/v0.8/functions/v1_0_0/FunctionsClient.sol\":1158:1537  function _sendRequest(... */\n      swap5\n      swap4\n      pop\n      pop\n      pop\n      pop\n      jump\t// out\n        /* \"@chainlink/contracts/src/v0.8/shared/access/ConfirmedOwnerWithProposal.sol\":1536:1775  function _transferOwnership(address to) private {... */\n    tag_143:\n        /* \"@chainlink/contracts/src/v0.8/shared/access/ConfirmedOwnerWithProposal.sol\":1655:1665  msg.sender */\n      caller\n        /* \"@chainlink/contracts/src/v0.8/shared/access/ConfirmedOwnerWithProposal.sol\":1649:1665  to != msg.sender */\n      0xffffffffffffffffffffffffffffffffffffffff\n      and\n        /* \"@chainlink/contracts/src/v0.8/shared/access/ConfirmedOwnerWithProposal.sol\":1649:1651  to */\n      dup2\n        /* \"@chainlink/contracts/src/v0.8/shared/access/ConfirmedOwnerWithProposal.sol\":1649:1665  to != msg.sender */\n      0xffffffffffffffffffffffffffffffffffffffff\n      and\n      sub\n        /* \"@chainlink/contracts/src/v0.8/shared/access/ConfirmedOwnerWithProposal.sol\":1641:1693  require(to != msg.sender, \"Cannot transfer to self\") */\n      tag_219\n      jumpi\n      mload(0x40)\n      0x08c379a000000000000000000000000000000000000000000000000000000000\n      dup2\n      mstore\n      0x04\n      add\n      tag_220\n      swap1\n      tag_221\n      jump\t// in\n    tag_220:\n      mload(0x40)\n      dup1\n      swap2\n      sub\n      swap1\n      revert\n    tag_219:\n        /* \"@chainlink/contracts/src/v0.8/shared/access/ConfirmedOwnerWithProposal.sol\":1717:1719  to */\n      dup1\n        /* \"@chainlink/contracts/src/v0.8/shared/access/ConfirmedOwnerWithProposal.sol\":1700:1714  s_pendingOwner */\n      0x01\n      0x00\n        /* \"@chainlink/contracts/src/v0.8/shared/access/ConfirmedOwnerWithProposal.sol\":1700:1719  s_pendingOwner = to */\n      0x0100\n      exp\n      dup2\n      sload\n      dup2\n      0xffffffffffffffffffffffffffffffffffffffff\n      mul\n      not\n      and\n      swap1\n      dup4\n      0xffffffffffffffffffffffffffffffffffffffff\n      and\n      mul\n      or\n      swap1\n      sstore\n      pop\n        /* \"@chainlink/contracts/src/v0.8/shared/access/ConfirmedOwnerWithProposal.sol\":1767:1769  to */\n      dup1\n        /* \"@chainlink/contracts/src/v0.8/shared/access/ConfirmedOwnerWithProposal.sol\":1731:1770  OwnershipTransferRequested(s_owner, to) */\n      0xffffffffffffffffffffffffffffffffffffffff\n      and\n        /* \"@chainlink/contracts/src/v0.8/shared/access/ConfirmedOwnerWithProposal.sol\":1758:1765  s_owner */\n      0x00\n      0x00\n      swap1\n      sload\n      swap1\n      0x0100\n      exp\n      swap1\n      div\n      0xffffffffffffffffffffffffffffffffffffffff\n      and\n        /* \"@chainlink/contracts/src/v0.8/shared/access/ConfirmedOwnerWithProposal.sol\":1731:1770  OwnershipTransferRequested(s_owner, to) */\n      0xffffffffffffffffffffffffffffffffffffffff\n      and\n      0xed8889f560326eb138920d842192f0eb3dd22b4f139c87a2c57538e05bae1278\n      mload(0x40)\n      mload(0x40)\n      dup1\n      swap2\n      sub\n      swap1\n      log3\n        /* \"@chainlink/contracts/src/v0.8/shared/access/ConfirmedOwnerWithProposal.sol\":1536:1775  function _transferOwnership(address to) private {... */\n      pop\n      jump\t// out\n        /* \"@chainlink/contracts/src/v0.8/functions/v1_0_0/libraries/FunctionsRequest.sol\":3777:4084  function initializeRequest(... */\n    tag_158:\n        /* \"@chainlink/contracts/src/v0.8/functions/v1_0_0/libraries/FunctionsRequest.sol\":3961:3962  0 */\n      0x00\n        /* \"@chainlink/contracts/src/v0.8/functions/v1_0_0/libraries/FunctionsRequest.sol\":3943:3949  source */\n      dup2\n        /* \"@chainlink/contracts/src/v0.8/functions/v1_0_0/libraries/FunctionsRequest.sol\":3937:3957  bytes(source).length */\n      mload\n        /* \"@chainlink/contracts/src/v0.8/functions/v1_0_0/libraries/FunctionsRequest.sol\":3937:3962  bytes(source).length == 0 */\n      sub\n        /* \"@chainlink/contracts/src/v0.8/functions/v1_0_0/libraries/FunctionsRequest.sol\":3933:3984  if (bytes(source).length == 0) revert EmptySource() */\n      tag_223\n      jumpi\n        /* \"@chainlink/contracts/src/v0.8/functions/v1_0_0/libraries/FunctionsRequest.sol\":3971:3984  EmptySource() */\n      mload(0x40)\n      0x22ce3edd00000000000000000000000000000000000000000000000000000000\n      dup2\n      mstore\n      0x04\n      add\n      mload(0x40)\n      dup1\n      swap2\n      sub\n      swap1\n      revert\n        /* \"@chainlink/contracts/src/v0.8/functions/v1_0_0/libraries/FunctionsRequest.sol\":3933:3984  if (bytes(source).length == 0) revert EmptySource() */\n    tag_223:\n        /* \"@chainlink/contracts/src/v0.8/functions/v1_0_0/libraries/FunctionsRequest.sol\":4011:4023  codeLocation */\n      dup3\n        /* \"@chainlink/contracts/src/v0.8/functions/v1_0_0/libraries/FunctionsRequest.sol\":3991:3995  self */\n      dup5\n        /* \"@chainlink/contracts/src/v0.8/functions/v1_0_0/libraries/FunctionsRequest.sol\":3991:4008  self.codeLocation */\n      0x00\n      add\n        /* \"@chainlink/contracts/src/v0.8/functions/v1_0_0/libraries/FunctionsRequest.sol\":3991:4023  self.codeLocation = codeLocation */\n      swap1\n      0x02\n      dup2\n      gt\n      iszero\n      tag_224\n      jumpi\n      tag_225\n      tag_167\n      jump\t// in\n    tag_225:\n    tag_224:\n      swap1\n      dup2\n      0x02\n      dup2\n      gt\n      iszero\n      tag_226\n      jumpi\n      tag_227\n      tag_167\n      jump\t// in\n    tag_227:\n    tag_226:\n      dup2\n      mstore\n      pop\n      pop\n        /* \"@chainlink/contracts/src/v0.8/functions/v1_0_0/libraries/FunctionsRequest.sol\":4045:4053  language */\n      dup2\n        /* \"@chainlink/contracts/src/v0.8/functions/v1_0_0/libraries/FunctionsRequest.sol\":4029:4033  self */\n      dup5\n        /* \"@chainlink/contracts/src/v0.8/functions/v1_0_0/libraries/FunctionsRequest.sol\":4029:4042  self.language */\n      0x40\n      add\n        /* \"@chainlink/contracts/src/v0.8/functions/v1_0_0/libraries/FunctionsRequest.sol\":4029:4053  self.language = language */\n      swap1\n      0x00\n      dup2\n      gt\n      iszero\n      tag_228\n      jumpi\n      tag_229\n      tag_167\n      jump\t// in\n    tag_229:\n    tag_228:\n      swap1\n      dup2\n      0x00\n      dup2\n      gt\n      iszero\n      tag_230\n      jumpi\n      tag_231\n      tag_167\n      jump\t// in\n    tag_231:\n    tag_230:\n      dup2\n      mstore\n      pop\n      pop\n        /* \"@chainlink/contracts/src/v0.8/functions/v1_0_0/libraries/FunctionsRequest.sol\":4073:4079  source */\n      dup1\n        /* \"@chainlink/contracts/src/v0.8/functions/v1_0_0/libraries/FunctionsRequest.sol\":4059:4063  self */\n      dup5\n        /* \"@chainlink/contracts/src/v0.8/functions/v1_0_0/libraries/FunctionsRequest.sol\":4059:4070  self.source */\n      0x60\n      add\n        /* \"@chainlink/contracts/src/v0.8/functions/v1_0_0/libraries/FunctionsRequest.sol\":4059:4079  self.source = source */\n      dup2\n      swap1\n      mstore\n      pop\n        /* \"@chainlink/contracts/src/v0.8/functions/v1_0_0/libraries/FunctionsRequest.sol\":3777:4084  function initializeRequest(... */\n      pop\n      pop\n      pop\n      pop\n      jump\t// out\n        /* \"@chainlink/contracts/src/v0.8/vendor/solidity-cborutils/v2.0.0/CBOR.sol\":1490:1663  function create(uint256 capacity) internal pure returns(CBORBuffer memory cbor) {... */\n    tag_161:\n        /* \"@chainlink/contracts/src/v0.8/vendor/solidity-cborutils/v2.0.0/CBOR.sol\":1546:1568  CBORBuffer memory cbor */\n      tag_232\n      tag_233\n      jump\t// in\n    tag_232:\n        /* \"@chainlink/contracts/src/v0.8/vendor/solidity-cborutils/v2.0.0/CBOR.sol\":1580:1611  Buffer.init(cbor.buf, capacity) */\n      tag_235\n        /* \"@chainlink/contracts/src/v0.8/vendor/solidity-cborutils/v2.0.0/CBOR.sol\":1592:1596  cbor */\n      dup2\n        /* \"@chainlink/contracts/src/v0.8/vendor/solidity-cborutils/v2.0.0/CBOR.sol\":1592:1600  cbor.buf */\n      0x00\n      add\n      mload\n        /* \"@chainlink/contracts/src/v0.8/vendor/solidity-cborutils/v2.0.0/CBOR.sol\":1602:1610  capacity */\n      dup4\n        /* \"@chainlink/contracts/src/v0.8/vendor/solidity-cborutils/v2.0.0/CBOR.sol\":1580:1591  Buffer.init */\n      tag_236\n        /* \"@chainlink/contracts/src/v0.8/vendor/solidity-cborutils/v2.0.0/CBOR.sol\":1580:1611  Buffer.init(cbor.buf, capacity) */\n      jump\t// in\n    tag_235:\n      pop\n        /* \"@chainlink/contracts/src/v0.8/vendor/solidity-cborutils/v2.0.0/CBOR.sol\":1634:1635  0 */\n      0x00\n        /* \"@chainlink/contracts/src/v0.8/vendor/solidity-cborutils/v2.0.0/CBOR.sol\":1621:1625  cbor */\n      dup2\n        /* \"@chainlink/contracts/src/v0.8/vendor/solidity-cborutils/v2.0.0/CBOR.sol\":1621:1631  cbor.depth */\n      0x20\n      add\n        /* \"@chainlink/contracts/src/v0.8/vendor/solidity-cborutils/v2.0.0/CBOR.sol\":1621:1635  cbor.depth = 0 */\n      dup2\n      dup2\n      mstore\n      pop\n      pop\n        /* \"@chainlink/contracts/src/v0.8/vendor/solidity-cborutils/v2.0.0/CBOR.sol\":1490:1663  function create(uint256 capacity) internal pure returns(CBORBuffer memory cbor) {... */\n      swap2\n      swap1\n      pop\n      jump\t// out\n        /* \"@chainlink/contracts/src/v0.8/vendor/solidity-cborutils/v2.0.0/CBOR.sol\":3021:3225  function writeString(CBORBuffer memory buf, string memory value) internal pure {... */\n    tag_163:\n        /* \"@chainlink/contracts/src/v0.8/vendor/solidity-cborutils/v2.0.0/CBOR.sol\":3110:3180  writeFixedNumeric(buf, MAJOR_TYPE_STRING, uint64(bytes(value).length)) */\n      tag_238\n        /* \"@chainlink/contracts/src/v0.8/vendor/solidity-cborutils/v2.0.0/CBOR.sol\":3128:3131  buf */\n      dup3\n        /* \"@chainlink/contracts/src/v0.8/vendor/solidity-cborutils/v2.0.0/CBOR.sol\":998:999  3 */\n      0x03\n        /* \"@chainlink/contracts/src/v0.8/vendor/solidity-cborutils/v2.0.0/CBOR.sol\":3165:3170  value */\n      dup4\n        /* \"@chainlink/contracts/src/v0.8/vendor/solidity-cborutils/v2.0.0/CBOR.sol\":3159:3178  bytes(value).length */\n      mload\n        /* \"@chainlink/contracts/src/v0.8/vendor/solidity-cborutils/v2.0.0/CBOR.sol\":3110:3127  writeFixedNumeric */\n      tag_239\n        /* \"@chainlink/contracts/src/v0.8/vendor/solidity-cborutils/v2.0.0/CBOR.sol\":3110:3180  writeFixedNumeric(buf, MAJOR_TYPE_STRING, uint64(bytes(value).length)) */\n      jump\t// in\n    tag_238:\n        /* \"@chainlink/contracts/src/v0.8/vendor/solidity-cborutils/v2.0.0/CBOR.sol\":3190:3218  buf.buf.append(bytes(value)) */\n      tag_240\n        /* \"@chainlink/contracts/src/v0.8/vendor/solidity-cborutils/v2.0.0/CBOR.sol\":3211:3216  value */\n      dup2\n        /* \"@chainlink/contracts/src/v0.8/vendor/solidity-cborutils/v2.0.0/CBOR.sol\":3190:3193  buf */\n      dup4\n        /* \"@chainlink/contracts/src/v0.8/vendor/solidity-cborutils/v2.0.0/CBOR.sol\":3190:3197  buf.buf */\n      0x00\n      add\n      mload\n        /* \"@chainlink/contracts/src/v0.8/vendor/solidity-cborutils/v2.0.0/CBOR.sol\":3190:3204  buf.buf.append */\n      tag_241\n      swap1\n        /* \"@chainlink/contracts/src/v0.8/vendor/solidity-cborutils/v2.0.0/CBOR.sol\":3190:3218  buf.buf.append(bytes(value)) */\n      swap2\n      swap1\n      0xffffffff\n      and\n      jump\t// in\n    tag_240:\n      pop\n        /* \"@chainlink/contracts/src/v0.8/vendor/solidity-cborutils/v2.0.0/CBOR.sol\":3021:3225  function writeString(CBORBuffer memory buf, string memory value) internal pure {... */\n      pop\n      pop\n      jump\t// out\n        /* \"@chainlink/contracts/src/v0.8/vendor/solidity-cborutils/v2.0.0/CBOR.sol\":1832:2034  function writeUInt256(CBORBuffer memory buf, uint256 value) internal pure {... */\n    tag_168:\n        /* \"@chainlink/contracts/src/v0.8/vendor/solidity-cborutils/v2.0.0/CBOR.sol\":1916:1983  buf.buf.appendUint8(uint8((MAJOR_TYPE_TAG << 5) | TAG_TYPE_BIGNUM)) */\n      tag_243\n        /* \"@chainlink/contracts/src/v0.8/vendor/solidity-cborutils/v2.0.0/CBOR.sol\":1246:1247  2 */\n      0x02\n        /* \"@chainlink/contracts/src/v0.8/vendor/solidity-cborutils/v2.0.0/CBOR.sol\":1961:1962  5 */\n      0x05\n        /* \"@chainlink/contracts/src/v0.8/vendor/solidity-cborutils/v2.0.0/CBOR.sol\":1141:1142  6 */\n      0x06\n        /* \"@chainlink/contracts/src/v0.8/vendor/solidity-cborutils/v2.0.0/CBOR.sol\":1943:1962  MAJOR_TYPE_TAG << 5 */\n      0xff\n      and\n      swap1\n      shl\n        /* \"@chainlink/contracts/src/v0.8/vendor/solidity-cborutils/v2.0.0/CBOR.sol\":1942:1981  (MAJOR_TYPE_TAG << 5) | TAG_TYPE_BIGNUM */\n      or\n        /* \"@chainlink/contracts/src/v0.8/vendor/solidity-cborutils/v2.0.0/CBOR.sol\":1916:1919  buf */\n      dup4\n        /* \"@chainlink/contracts/src/v0.8/vendor/solidity-cborutils/v2.0.0/CBOR.sol\":1916:1923  buf.buf */\n      0x00\n      add\n      mload\n        /* \"@chainlink/contracts/src/v0.8/vendor/solidity-cborutils/v2.0.0/CBOR.sol\":1916:1935  buf.buf.appendUint8 */\n      tag_244\n      swap1\n        /* \"@chainlink/contracts/src/v0.8/vendor/solidity-cborutils/v2.0.0/CBOR.sol\":1916:1983  buf.buf.appendUint8(uint8((MAJOR_TYPE_TAG << 5) | TAG_TYPE_BIGNUM)) */\n      swap2\n      swap1\n      0xffffffff\n      and\n      jump\t// in\n    tag_243:\n      pop\n        /* \"@chainlink/contracts/src/v0.8/vendor/solidity-cborutils/v2.0.0/CBOR.sol\":1993:2027  writeBytes(buf, abi.encode(value)) */\n      tag_245\n        /* \"@chainlink/contracts/src/v0.8/vendor/solidity-cborutils/v2.0.0/CBOR.sol\":2004:2007  buf */\n      dup3\n        /* \"@chainlink/contracts/src/v0.8/vendor/solidity-cborutils/v2.0.0/CBOR.sol\":2020:2025  value */\n      dup3\n        /* \"@chainlink/contracts/src/v0.8/vendor/solidity-cborutils/v2.0.0/CBOR.sol\":2009:2026  abi.encode(value) */\n      add(0x20, mload(0x40))\n      tag_246\n      swap2\n      swap1\n      tag_57\n      jump\t// in\n    tag_246:\n      mload(0x40)\n      0x20\n      dup2\n      dup4\n      sub\n      sub\n      dup2\n      mstore\n      swap1\n      0x40\n      mstore\n        /* \"@chainlink/contracts/src/v0.8/vendor/solidity-cborutils/v2.0.0/CBOR.sol\":1993:2003  writeBytes */\n      tag_200\n        /* \"@chainlink/contracts/src/v0.8/vendor/solidity-cborutils/v2.0.0/CBOR.sol\":1993:2027  writeBytes(buf, abi.encode(value)) */\n      jump\t// in\n    tag_245:\n        /* \"@chainlink/contracts/src/v0.8/vendor/solidity-cborutils/v2.0.0/CBOR.sol\":1832:2034  function writeUInt256(CBORBuffer memory buf, uint256 value) internal pure {... */\n      pop\n      pop\n      jump\t// out\n        /* \"@chainlink/contracts/src/v0.8/vendor/solidity-cborutils/v2.0.0/CBOR.sol\":3607:3753  function startArray(CBORBuffer memory buf) internal pure {... */\n    tag_178:\n        /* \"@chainlink/contracts/src/v0.8/vendor/solidity-cborutils/v2.0.0/CBOR.sol\":3674:3722  writeIndefiniteLengthType(buf, MAJOR_TYPE_ARRAY) */\n      tag_248\n        /* \"@chainlink/contracts/src/v0.8/vendor/solidity-cborutils/v2.0.0/CBOR.sol\":3700:3703  buf */\n      dup2\n        /* \"@chainlink/contracts/src/v0.8/vendor/solidity-cborutils/v2.0.0/CBOR.sol\":1047:1048  4 */\n      0x04\n        /* \"@chainlink/contracts/src/v0.8/vendor/solidity-cborutils/v2.0.0/CBOR.sol\":3674:3699  writeIndefiniteLengthType */\n      tag_249\n        /* \"@chainlink/contracts/src/v0.8/vendor/solidity-cborutils/v2.0.0/CBOR.sol\":3674:3722  writeIndefiniteLengthType(buf, MAJOR_TYPE_ARRAY) */\n      jump\t// in\n    tag_248:\n        /* \"@chainlink/contracts/src/v0.8/vendor/solidity-cborutils/v2.0.0/CBOR.sol\":3745:3746  1 */\n      0x01\n        /* \"@chainlink/contracts/src/v0.8/vendor/solidity-cborutils/v2.0.0/CBOR.sol\":3732:3735  buf */\n      dup2\n        /* \"@chainlink/contracts/src/v0.8/vendor/solidity-cborutils/v2.0.0/CBOR.sol\":3732:3741  buf.depth */\n      0x20\n      add\n        /* \"@chainlink/contracts/src/v0.8/vendor/solidity-cborutils/v2.0.0/CBOR.sol\":3732:3746  buf.depth += 1 */\n      dup2\n      dup2\n      mload\n      tag_250\n      swap2\n      swap1\n      tag_251\n      jump\t// in\n    tag_250:\n      swap2\n      pop\n      dup2\n      dup2\n      mstore\n      pop\n      pop\n        /* \"@chainlink/contracts/src/v0.8/vendor/solidity-cborutils/v2.0.0/CBOR.sol\":3607:3753  function startArray(CBORBuffer memory buf) internal pure {... */\n      pop\n      jump\t// out\n        /* \"@chainlink/contracts/src/v0.8/vendor/solidity-cborutils/v2.0.0/CBOR.sol\":4211:4365  function endSequence(CBORBuffer memory buf) internal pure {... */\n    tag_187:\n        /* \"@chainlink/contracts/src/v0.8/vendor/solidity-cborutils/v2.0.0/CBOR.sol\":4279:4334  writeIndefiniteLengthType(buf, MAJOR_TYPE_CONTENT_FREE) */\n      tag_253\n        /* \"@chainlink/contracts/src/v0.8/vendor/solidity-cborutils/v2.0.0/CBOR.sol\":4305:4308  buf */\n      dup2\n        /* \"@chainlink/contracts/src/v0.8/vendor/solidity-cborutils/v2.0.0/CBOR.sol\":1197:1198  7 */\n      0x07\n        /* \"@chainlink/contracts/src/v0.8/vendor/solidity-cborutils/v2.0.0/CBOR.sol\":4279:4304  writeIndefiniteLengthType */\n      tag_249\n        /* \"@chainlink/contracts/src/v0.8/vendor/solidity-cborutils/v2.0.0/CBOR.sol\":4279:4334  writeIndefiniteLengthType(buf, MAJOR_TYPE_CONTENT_FREE) */\n      jump\t// in\n    tag_253:\n        /* \"@chainlink/contracts/src/v0.8/vendor/solidity-cborutils/v2.0.0/CBOR.sol\":4357:4358  1 */\n      0x01\n        /* \"@chainlink/contracts/src/v0.8/vendor/solidity-cborutils/v2.0.0/CBOR.sol\":4344:4347  buf */\n      dup2\n        /* \"@chainlink/contracts/src/v0.8/vendor/solidity-cborutils/v2.0.0/CBOR.sol\":4344:4353  buf.depth */\n      0x20\n      add\n        /* \"@chainlink/contracts/src/v0.8/vendor/solidity-cborutils/v2.0.0/CBOR.sol\":4344:4358  buf.depth -= 1 */\n      dup2\n      dup2\n      mload\n      tag_254\n      swap2\n      swap1\n      tag_109\n      jump\t// in\n    tag_254:\n      swap2\n      pop\n      dup2\n      dup2\n      mstore\n      pop\n      pop\n        /* \"@chainlink/contracts/src/v0.8/vendor/solidity-cborutils/v2.0.0/CBOR.sol\":4211:4365  function endSequence(CBORBuffer memory buf) internal pure {... */\n      pop\n      jump\t// out\n        /* \"@chainlink/contracts/src/v0.8/vendor/solidity-cborutils/v2.0.0/CBOR.sol\":2828:3015  function writeBytes(CBORBuffer memory buf, bytes memory value) internal pure {... */\n    tag_200:\n        /* \"@chainlink/contracts/src/v0.8/vendor/solidity-cborutils/v2.0.0/CBOR.sol\":2915:2977  writeFixedNumeric(buf, MAJOR_TYPE_BYTES, uint64(value.length)) */\n      tag_256\n        /* \"@chainlink/contracts/src/v0.8/vendor/solidity-cborutils/v2.0.0/CBOR.sol\":2933:2936  buf */\n      dup3\n        /* \"@chainlink/contracts/src/v0.8/vendor/solidity-cborutils/v2.0.0/CBOR.sol\":948:949  2 */\n      0x02\n        /* \"@chainlink/contracts/src/v0.8/vendor/solidity-cborutils/v2.0.0/CBOR.sol\":2963:2968  value */\n      dup4\n        /* \"@chainlink/contracts/src/v0.8/vendor/solidity-cborutils/v2.0.0/CBOR.sol\":2963:2975  value.length */\n      mload\n        /* \"@chainlink/contracts/src/v0.8/vendor/solidity-cborutils/v2.0.0/CBOR.sol\":2915:2932  writeFixedNumeric */\n      tag_239\n        /* \"@chainlink/contracts/src/v0.8/vendor/solidity-cborutils/v2.0.0/CBOR.sol\":2915:2977  writeFixedNumeric(buf, MAJOR_TYPE_BYTES, uint64(value.length)) */\n      jump\t// in\n    tag_256:\n        /* \"@chainlink/contracts/src/v0.8/vendor/solidity-cborutils/v2.0.0/CBOR.sol\":2987:3008  buf.buf.append(value) */\n      tag_257\n        /* \"@chainlink/contracts/src/v0.8/vendor/solidity-cborutils/v2.0.0/CBOR.sol\":3002:3007  value */\n      dup2\n        /* \"@chainlink/contracts/src/v0.8/vendor/solidity-cborutils/v2.0.0/CBOR.sol\":2987:2990  buf */\n      dup4\n        /* \"@chainlink/contracts/src/v0.8/vendor/solidity-cborutils/v2.0.0/CBOR.sol\":2987:2994  buf.buf */\n      0x00\n      add\n      mload\n        /* \"@chainlink/contracts/src/v0.8/vendor/solidity-cborutils/v2.0.0/CBOR.sol\":2987:3001  buf.buf.append */\n      tag_241\n      swap1\n        /* \"@chainlink/contracts/src/v0.8/vendor/solidity-cborutils/v2.0.0/CBOR.sol\":2987:3008  buf.buf.append(value) */\n      swap2\n      swap1\n      0xffffffff\n      and\n      jump\t// in\n    tag_257:\n      pop\n        /* \"@chainlink/contracts/src/v0.8/vendor/solidity-cborutils/v2.0.0/CBOR.sol\":2828:3015  function writeBytes(CBORBuffer memory buf, bytes memory value) internal pure {... */\n      pop\n      pop\n      jump\t// out\n        /* \"@chainlink/contracts/src/v0.8/vendor/@ensdomains/buffer/v0.1.0/Buffer.sol\":1020:1575  function init(buffer memory buf, uint capacity) internal pure returns(buffer memory) {... */\n    tag_236:\n        /* \"@chainlink/contracts/src/v0.8/vendor/@ensdomains/buffer/v0.1.0/Buffer.sol\":1090:1103  buffer memory */\n      tag_258\n      tag_259\n      jump\t// in\n    tag_258:\n        /* \"@chainlink/contracts/src/v0.8/vendor/@ensdomains/buffer/v0.1.0/Buffer.sol\":1136:1137  0 */\n      0x00\n        /* \"@chainlink/contracts/src/v0.8/vendor/@ensdomains/buffer/v0.1.0/Buffer.sol\":1130:1132  32 */\n      0x20\n        /* \"@chainlink/contracts/src/v0.8/vendor/@ensdomains/buffer/v0.1.0/Buffer.sol\":1119:1127  capacity */\n      dup4\n        /* \"@chainlink/contracts/src/v0.8/vendor/@ensdomains/buffer/v0.1.0/Buffer.sol\":1119:1132  capacity % 32 */\n      tag_261\n      swap2\n      swap1\n      tag_262\n      jump\t// in\n    tag_261:\n        /* \"@chainlink/contracts/src/v0.8/vendor/@ensdomains/buffer/v0.1.0/Buffer.sol\":1119:1137  capacity % 32 != 0 */\n      eq\n        /* \"@chainlink/contracts/src/v0.8/vendor/@ensdomains/buffer/v0.1.0/Buffer.sol\":1115:1196  if (capacity % 32 != 0) {... */\n      tag_263\n      jumpi\n        /* \"@chainlink/contracts/src/v0.8/vendor/@ensdomains/buffer/v0.1.0/Buffer.sol\":1182:1184  32 */\n      0x20\n        /* \"@chainlink/contracts/src/v0.8/vendor/@ensdomains/buffer/v0.1.0/Buffer.sol\":1171:1179  capacity */\n      dup3\n        /* \"@chainlink/contracts/src/v0.8/vendor/@ensdomains/buffer/v0.1.0/Buffer.sol\":1171:1184  capacity % 32 */\n      tag_264\n      swap2\n      swap1\n      tag_262\n      jump\t// in\n    tag_264:\n        /* \"@chainlink/contracts/src/v0.8/vendor/@ensdomains/buffer/v0.1.0/Buffer.sol\":1165:1167  32 */\n      0x20\n        /* \"@chainlink/contracts/src/v0.8/vendor/@ensdomains/buffer/v0.1.0/Buffer.sol\":1165:1185  32 - (capacity % 32) */\n      tag_265\n      swap2\n      swap1\n      tag_109\n      jump\t// in\n    tag_265:\n        /* \"@chainlink/contracts/src/v0.8/vendor/@ensdomains/buffer/v0.1.0/Buffer.sol\":1153:1185  capacity += 32 - (capacity % 32) */\n      dup3\n      tag_266\n      swap2\n      swap1\n      tag_251\n      jump\t// in\n    tag_266:\n      swap2\n      pop\n        /* \"@chainlink/contracts/src/v0.8/vendor/@ensdomains/buffer/v0.1.0/Buffer.sol\":1115:1196  if (capacity % 32 != 0) {... */\n    tag_263:\n        /* \"@chainlink/contracts/src/v0.8/vendor/@ensdomains/buffer/v0.1.0/Buffer.sol\":1266:1274  capacity */\n      dup2\n        /* \"@chainlink/contracts/src/v0.8/vendor/@ensdomains/buffer/v0.1.0/Buffer.sol\":1251:1254  buf */\n      dup4\n        /* \"@chainlink/contracts/src/v0.8/vendor/@ensdomains/buffer/v0.1.0/Buffer.sol\":1251:1263  buf.capacity */\n      0x20\n      add\n        /* \"@chainlink/contracts/src/v0.8/vendor/@ensdomains/buffer/v0.1.0/Buffer.sol\":1251:1274  buf.capacity = capacity */\n      dup2\n      dup2\n      mstore\n      pop\n      pop\n        /* \"@chainlink/contracts/src/v0.8/vendor/@ensdomains/buffer/v0.1.0/Buffer.sol\":1324:1328  0x40 */\n      0x40\n        /* \"@chainlink/contracts/src/v0.8/vendor/@ensdomains/buffer/v0.1.0/Buffer.sol\":1318:1329  mload(0x40) */\n      mload\n        /* \"@chainlink/contracts/src/v0.8/vendor/@ensdomains/buffer/v0.1.0/Buffer.sol\":1354:1357  ptr */\n      dup1\n        /* \"@chainlink/contracts/src/v0.8/vendor/@ensdomains/buffer/v0.1.0/Buffer.sol\":1349:1352  buf */\n      dup5\n        /* \"@chainlink/contracts/src/v0.8/vendor/@ensdomains/buffer/v0.1.0/Buffer.sol\":1342:1358  mstore(buf, ptr) */\n      mstore\n        /* \"@chainlink/contracts/src/v0.8/vendor/@ensdomains/buffer/v0.1.0/Buffer.sol\":1383:1384  0 */\n      0x00\n        /* \"@chainlink/contracts/src/v0.8/vendor/@ensdomains/buffer/v0.1.0/Buffer.sol\":1378:1381  ptr */\n      dup2\n        /* \"@chainlink/contracts/src/v0.8/vendor/@ensdomains/buffer/v0.1.0/Buffer.sol\":1371:1385  mstore(ptr, 0) */\n      mstore\n        /* \"@chainlink/contracts/src/v0.8/vendor/@ensdomains/buffer/v0.1.0/Buffer.sol\":1426:1434  capacity */\n      dup3\n        /* \"@chainlink/contracts/src/v0.8/vendor/@ensdomains/buffer/v0.1.0/Buffer.sol\":1421:1424  ptr */\n      dup2\n        /* \"@chainlink/contracts/src/v0.8/vendor/@ensdomains/buffer/v0.1.0/Buffer.sol\":1417:1435  add(ptr, capacity) */\n      add\n        /* \"@chainlink/contracts/src/v0.8/vendor/@ensdomains/buffer/v0.1.0/Buffer.sol\":1413:1415  32 */\n      0x20\n        /* \"@chainlink/contracts/src/v0.8/vendor/@ensdomains/buffer/v0.1.0/Buffer.sol\":1409:1436  add(32, add(ptr, capacity)) */\n      add\n        /* \"@chainlink/contracts/src/v0.8/vendor/@ensdomains/buffer/v0.1.0/Buffer.sol\":1460:1463  ptr */\n      dup2\n        /* \"@chainlink/contracts/src/v0.8/vendor/@ensdomains/buffer/v0.1.0/Buffer.sol\":1455:1458  fpm */\n      dup2\n        /* \"@chainlink/contracts/src/v0.8/vendor/@ensdomains/buffer/v0.1.0/Buffer.sol\":1452:1464  lt(fpm, ptr) */\n      lt\n        /* \"@chainlink/contracts/src/v0.8/vendor/@ensdomains/buffer/v0.1.0/Buffer.sol\":1449:1509  if lt(fpm, ptr) {... */\n      iszero\n      tag_267\n      jumpi\n        /* \"@chainlink/contracts/src/v0.8/vendor/@ensdomains/buffer/v0.1.0/Buffer.sol\":1493:1494  0 */\n      0x00\n        /* \"@chainlink/contracts/src/v0.8/vendor/@ensdomains/buffer/v0.1.0/Buffer.sol\":1490:1491  0 */\n      0x00\n        /* \"@chainlink/contracts/src/v0.8/vendor/@ensdomains/buffer/v0.1.0/Buffer.sol\":1483:1495  revert(0, 0) */\n      revert\n        /* \"@chainlink/contracts/src/v0.8/vendor/@ensdomains/buffer/v0.1.0/Buffer.sol\":1449:1509  if lt(fpm, ptr) {... */\n    tag_267:\n        /* \"@chainlink/contracts/src/v0.8/vendor/@ensdomains/buffer/v0.1.0/Buffer.sol\":1535:1538  fpm */\n      dup1\n        /* \"@chainlink/contracts/src/v0.8/vendor/@ensdomains/buffer/v0.1.0/Buffer.sol\":1529:1533  0x40 */\n      0x40\n        /* \"@chainlink/contracts/src/v0.8/vendor/@ensdomains/buffer/v0.1.0/Buffer.sol\":1522:1539  mstore(0x40, fpm) */\n      mstore\n        /* \"@chainlink/contracts/src/v0.8/vendor/@ensdomains/buffer/v0.1.0/Buffer.sol\":1293:1549  {... */\n      pop\n      pop\n        /* \"@chainlink/contracts/src/v0.8/vendor/@ensdomains/buffer/v0.1.0/Buffer.sol\":1565:1568  buf */\n      dup3\n        /* \"@chainlink/contracts/src/v0.8/vendor/@ensdomains/buffer/v0.1.0/Buffer.sol\":1558:1568  return buf */\n      swap1\n      pop\n        /* \"@chainlink/contracts/src/v0.8/vendor/@ensdomains/buffer/v0.1.0/Buffer.sol\":1020:1575  function init(buffer memory buf, uint capacity) internal pure returns(buffer memory) {... */\n      swap3\n      swap2\n      pop\n      pop\n      jump\t// out\n        /* \"@chainlink/contracts/src/v0.8/vendor/solidity-cborutils/v2.0.0/CBOR.sol\":6156:6915  function writeFixedNumeric(... */\n    tag_239:\n        /* \"@chainlink/contracts/src/v0.8/vendor/solidity-cborutils/v2.0.0/CBOR.sol\":6299:6301  23 */\n      0x17\n        /* \"@chainlink/contracts/src/v0.8/vendor/solidity-cborutils/v2.0.0/CBOR.sol\":6290:6295  value */\n      dup2\n        /* \"@chainlink/contracts/src/v0.8/vendor/solidity-cborutils/v2.0.0/CBOR.sol\":6290:6301  value <= 23 */\n      0xffffffffffffffff\n      and\n      gt\n        /* \"@chainlink/contracts/src/v0.8/vendor/solidity-cborutils/v2.0.0/CBOR.sol\":6286:6909  if (value <= 23) {... */\n      tag_269\n      jumpi\n        /* \"@chainlink/contracts/src/v0.8/vendor/solidity-cborutils/v2.0.0/CBOR.sol\":6317:6365  buf.buf.appendUint8(uint8((major << 5) | value)) */\n      tag_270\n        /* \"@chainlink/contracts/src/v0.8/vendor/solidity-cborutils/v2.0.0/CBOR.sol\":6358:6363  value */\n      dup2\n        /* \"@chainlink/contracts/src/v0.8/vendor/solidity-cborutils/v2.0.0/CBOR.sol\":6353:6354  5 */\n      0x05\n        /* \"@chainlink/contracts/src/v0.8/vendor/solidity-cborutils/v2.0.0/CBOR.sol\":6344:6349  major */\n      dup5\n        /* \"@chainlink/contracts/src/v0.8/vendor/solidity-cborutils/v2.0.0/CBOR.sol\":6344:6354  major << 5 */\n      0xff\n      and\n      swap1\n      shl\n        /* \"@chainlink/contracts/src/v0.8/vendor/solidity-cborutils/v2.0.0/CBOR.sol\":6343:6363  (major << 5) | value */\n      0xff\n      and\n      or\n        /* \"@chainlink/contracts/src/v0.8/vendor/solidity-cborutils/v2.0.0/CBOR.sol\":6317:6320  buf */\n      dup5\n        /* \"@chainlink/contracts/src/v0.8/vendor/solidity-cborutils/v2.0.0/CBOR.sol\":6317:6324  buf.buf */\n      0x00\n      add\n      mload\n        /* \"@chainlink/contracts/src/v0.8/vendor/solidity-cborutils/v2.0.0/CBOR.sol\":6317:6336  buf.buf.appendUint8 */\n      tag_244\n      swap1\n        /* \"@chainlink/contracts/src/v0.8/vendor/solidity-cborutils/v2.0.0/CBOR.sol\":6317:6365  buf.buf.appendUint8(uint8((major << 5) | value)) */\n      swap2\n      swap1\n      0xffffffff\n      and\n      jump\t// in\n    tag_270:\n      pop\n        /* \"@chainlink/contracts/src/v0.8/vendor/solidity-cborutils/v2.0.0/CBOR.sol\":6286:6909  if (value <= 23) {... */\n      jump(tag_271)\n    tag_269:\n        /* \"@chainlink/contracts/src/v0.8/vendor/solidity-cborutils/v2.0.0/CBOR.sol\":6395:6399  0xFF */\n      0xff\n        /* \"@chainlink/contracts/src/v0.8/vendor/solidity-cborutils/v2.0.0/CBOR.sol\":6386:6391  value */\n      dup2\n        /* \"@chainlink/contracts/src/v0.8/vendor/solidity-cborutils/v2.0.0/CBOR.sol\":6386:6399  value <= 0xFF */\n      0xffffffffffffffff\n      and\n      gt\n        /* \"@chainlink/contracts/src/v0.8/vendor/solidity-cborutils/v2.0.0/CBOR.sol\":6382:6909  if (value <= 0xFF) {... */\n      tag_272\n      jumpi\n        /* \"@chainlink/contracts/src/v0.8/vendor/solidity-cborutils/v2.0.0/CBOR.sol\":6415:6460  buf.buf.appendUint8(uint8((major << 5) | 24)) */\n      tag_273\n        /* \"@chainlink/contracts/src/v0.8/vendor/solidity-cborutils/v2.0.0/CBOR.sol\":6456:6458  24 */\n      0x18\n        /* \"@chainlink/contracts/src/v0.8/vendor/solidity-cborutils/v2.0.0/CBOR.sol\":6451:6452  5 */\n      0x05\n        /* \"@chainlink/contracts/src/v0.8/vendor/solidity-cborutils/v2.0.0/CBOR.sol\":6442:6447  major */\n      dup5\n        /* \"@chainlink/contracts/src/v0.8/vendor/solidity-cborutils/v2.0.0/CBOR.sol\":6442:6452  major << 5 */\n      0xff\n      and\n      swap1\n      shl\n        /* \"@chainlink/contracts/src/v0.8/vendor/solidity-cborutils/v2.0.0/CBOR.sol\":6441:6458  (major << 5) | 24 */\n      or\n        /* \"@chainlink/contracts/src/v0.8/vendor/solidity-cborutils/v2.0.0/CBOR.sol\":6415:6418  buf */\n      dup5\n        /* \"@chainlink/contracts/src/v0.8/vendor/solidity-cborutils/v2.0.0/CBOR.sol\":6415:6422  buf.buf */\n      0x00\n      add\n      mload\n        /* \"@chainlink/contracts/src/v0.8/vendor/solidity-cborutils/v2.0.0/CBOR.sol\":6415:6434  buf.buf.appendUint8 */\n      tag_244\n      swap1\n        /* \"@chainlink/contracts/src/v0.8/vendor/solidity-cborutils/v2.0.0/CBOR.sol\":6415:6460  buf.buf.appendUint8(uint8((major << 5) | 24)) */\n      swap2\n      swap1\n      0xffffffff\n      and\n      jump\t// in\n    tag_273:\n      pop\n        /* \"@chainlink/contracts/src/v0.8/vendor/solidity-cborutils/v2.0.0/CBOR.sol\":6474:6501  buf.buf.appendInt(value, 1) */\n      tag_274\n        /* \"@chainlink/contracts/src/v0.8/vendor/solidity-cborutils/v2.0.0/CBOR.sol\":6492:6497  value */\n      dup2\n        /* \"@chainlink/contracts/src/v0.8/vendor/solidity-cborutils/v2.0.0/CBOR.sol\":6474:6501  buf.buf.appendInt(value, 1) */\n      0xffffffffffffffff\n      and\n        /* \"@chainlink/contracts/src/v0.8/vendor/solidity-cborutils/v2.0.0/CBOR.sol\":6499:6500  1 */\n      0x01\n        /* \"@chainlink/contracts/src/v0.8/vendor/solidity-cborutils/v2.0.0/CBOR.sol\":6474:6477  buf */\n      dup6\n        /* \"@chainlink/contracts/src/v0.8/vendor/solidity-cborutils/v2.0.0/CBOR.sol\":6474:6481  buf.buf */\n      0x00\n      add\n      mload\n        /* \"@chainlink/contracts/src/v0.8/vendor/solidity-cborutils/v2.0.0/CBOR.sol\":6474:6491  buf.buf.appendInt */\n      tag_275\n      swap1\n        /* \"@chainlink/contracts/src/v0.8/vendor/solidity-cborutils/v2.0.0/CBOR.sol\":6474:6501  buf.buf.appendInt(value, 1) */\n      swap3\n      swap2\n      swap1\n      0xffffffff\n      and\n      jump\t// in\n    tag_274:\n      pop\n        /* \"@chainlink/contracts/src/v0.8/vendor/solidity-cborutils/v2.0.0/CBOR.sol\":6382:6909  if (value <= 0xFF) {... */\n      jump(tag_276)\n    tag_272:\n        /* \"@chainlink/contracts/src/v0.8/vendor/solidity-cborutils/v2.0.0/CBOR.sol\":6531:6537  0xFFFF */\n      0xffff\n        /* \"@chainlink/contracts/src/v0.8/vendor/solidity-cborutils/v2.0.0/CBOR.sol\":6522:6527  value */\n      dup2\n        /* \"@chainlink/contracts/src/v0.8/vendor/solidity-cborutils/v2.0.0/CBOR.sol\":6522:6537  value <= 0xFFFF */\n      0xffffffffffffffff\n      and\n      gt\n        /* \"@chainlink/contracts/src/v0.8/vendor/solidity-cborutils/v2.0.0/CBOR.sol\":6518:6909  if (value <= 0xFFFF) {... */\n      tag_277\n      jumpi\n        /* \"@chainlink/contracts/src/v0.8/vendor/solidity-cborutils/v2.0.0/CBOR.sol\":6553:6598  buf.buf.appendUint8(uint8((major << 5) | 25)) */\n      tag_278\n        /* \"@chainlink/contracts/src/v0.8/vendor/solidity-cborutils/v2.0.0/CBOR.sol\":6594:6596  25 */\n      0x19\n        /* \"@chainlink/contracts/src/v0.8/vendor/solidity-cborutils/v2.0.0/CBOR.sol\":6589:6590  5 */\n      0x05\n        /* \"@chainlink/contracts/src/v0.8/vendor/solidity-cborutils/v2.0.0/CBOR.sol\":6580:6585  major */\n      dup5\n        /* \"@chainlink/contracts/src/v0.8/vendor/solidity-cborutils/v2.0.0/CBOR.sol\":6580:6590  major << 5 */\n      0xff\n      and\n      swap1\n      shl\n        /* \"@chainlink/contracts/src/v0.8/vendor/solidity-cborutils/v2.0.0/CBOR.sol\":6579:6596  (major << 5) | 25 */\n      or\n        /* \"@chainlink/contracts/src/v0.8/vendor/solidity-cborutils/v2.0.0/CBOR.sol\":6553:6556  buf */\n      dup5\n        /* \"@chainlink/contracts/src/v0.8/vendor/solidity-cborutils/v2.0.0/CBOR.sol\":6553:6560  buf.buf */\n      0x00\n      add\n      mload\n        /* \"@chainlink/contracts/src/v0.8/vendor/solidity-cborutils/v2.0.0/CBOR.sol\":6553:6572  buf.buf.appendUint8 */\n      tag_244\n      swap1\n        /* \"@chainlink/contracts/src/v0.8/vendor/solidity-cborutils/v2.0.0/CBOR.sol\":6553:6598  buf.buf.appendUint8(uint8((major << 5) | 25)) */\n      swap2\n      swap1\n      0xffffffff\n      and\n      jump\t// in\n    tag_278:\n      pop\n        /* \"@chainlink/contracts/src/v0.8/vendor/solidity-cborutils/v2.0.0/CBOR.sol\":6612:6639  buf.buf.appendInt(value, 2) */\n      tag_279\n        /* \"@chainlink/contracts/src/v0.8/vendor/solidity-cborutils/v2.0.0/CBOR.sol\":6630:6635  value */\n      dup2\n        /* \"@chainlink/contracts/src/v0.8/vendor/solidity-cborutils/v2.0.0/CBOR.sol\":6612:6639  buf.buf.appendInt(value, 2) */\n      0xffffffffffffffff\n      and\n        /* \"@chainlink/contracts/src/v0.8/vendor/solidity-cborutils/v2.0.0/CBOR.sol\":6637:6638  2 */\n      0x02\n        /* \"@chainlink/contracts/src/v0.8/vendor/solidity-cborutils/v2.0.0/CBOR.sol\":6612:6615  buf */\n      dup6\n        /* \"@chainlink/contracts/src/v0.8/vendor/solidity-cborutils/v2.0.0/CBOR.sol\":6612:6619  buf.buf */\n      0x00\n      add\n      mload\n        /* \"@chainlink/contracts/src/v0.8/vendor/solidity-cborutils/v2.0.0/CBOR.sol\":6612:6629  buf.buf.appendInt */\n      tag_275\n      swap1\n        /* \"@chainlink/contracts/src/v0.8/vendor/solidity-cborutils/v2.0.0/CBOR.sol\":6612:6639  buf.buf.appendInt(value, 2) */\n      swap3\n      swap2\n      swap1\n      0xffffffff\n      and\n      jump\t// in\n    tag_279:\n      pop\n        /* \"@chainlink/contracts/src/v0.8/vendor/solidity-cborutils/v2.0.0/CBOR.sol\":6518:6909  if (value <= 0xFFFF) {... */\n      jump(tag_280)\n    tag_277:\n        /* \"@chainlink/contracts/src/v0.8/vendor/solidity-cborutils/v2.0.0/CBOR.sol\":6669:6679  0xFFFFFFFF */\n      0xffffffff\n        /* \"@chainlink/contracts/src/v0.8/vendor/solidity-cborutils/v2.0.0/CBOR.sol\":6660:6665  value */\n      dup2\n        /* \"@chainlink/contracts/src/v0.8/vendor/solidity-cborutils/v2.0.0/CBOR.sol\":6660:6679  value <= 0xFFFFFFFF */\n      0xffffffffffffffff\n      and\n      gt\n        /* \"@chainlink/contracts/src/v0.8/vendor/solidity-cborutils/v2.0.0/CBOR.sol\":6656:6909  if (value <= 0xFFFFFFFF) {... */\n      tag_281\n      jumpi\n        /* \"@chainlink/contracts/src/v0.8/vendor/solidity-cborutils/v2.0.0/CBOR.sol\":6695:6740  buf.buf.appendUint8(uint8((major << 5) | 26)) */\n      tag_282\n        /* \"@chainlink/contracts/src/v0.8/vendor/solidity-cborutils/v2.0.0/CBOR.sol\":6736:6738  26 */\n      0x1a\n        /* \"@chainlink/contracts/src/v0.8/vendor/solidity-cborutils/v2.0.0/CBOR.sol\":6731:6732  5 */\n      0x05\n        /* \"@chainlink/contracts/src/v0.8/vendor/solidity-cborutils/v2.0.0/CBOR.sol\":6722:6727  major */\n      dup5\n        /* \"@chainlink/contracts/src/v0.8/vendor/solidity-cborutils/v2.0.0/CBOR.sol\":6722:6732  major << 5 */\n      0xff\n      and\n      swap1\n      shl\n        /* \"@chainlink/contracts/src/v0.8/vendor/solidity-cborutils/v2.0.0/CBOR.sol\":6721:6738  (major << 5) | 26 */\n      or\n        /* \"@chainlink/contracts/src/v0.8/vendor/solidity-cborutils/v2.0.0/CBOR.sol\":6695:6698  buf */\n      dup5\n        /* \"@chainlink/contracts/src/v0.8/vendor/solidity-cborutils/v2.0.0/CBOR.sol\":6695:6702  buf.buf */\n      0x00\n      add\n      mload\n        /* \"@chainlink/contracts/src/v0.8/vendor/solidity-cborutils/v2.0.0/CBOR.sol\":6695:6714  buf.buf.appendUint8 */\n      tag_244\n      swap1\n        /* \"@chainlink/contracts/src/v0.8/vendor/solidity-cborutils/v2.0.0/CBOR.sol\":6695:6740  buf.buf.appendUint8(uint8((major << 5) | 26)) */\n      swap2\n      swap1\n      0xffffffff\n      and\n      jump\t// in\n    tag_282:\n      pop\n        /* \"@chainlink/contracts/src/v0.8/vendor/solidity-cborutils/v2.0.0/CBOR.sol\":6754:6781  buf.buf.appendInt(value, 4) */\n      tag_283\n        /* \"@chainlink/contracts/src/v0.8/vendor/solidity-cborutils/v2.0.0/CBOR.sol\":6772:6777  value */\n      dup2\n        /* \"@chainlink/contracts/src/v0.8/vendor/solidity-cborutils/v2.0.0/CBOR.sol\":6754:6781  buf.buf.appendInt(value, 4) */\n      0xffffffffffffffff\n      and\n        /* \"@chainlink/contracts/src/v0.8/vendor/solidity-cborutils/v2.0.0/CBOR.sol\":6779:6780  4 */\n      0x04\n        /* \"@chainlink/contracts/src/v0.8/vendor/solidity-cborutils/v2.0.0/CBOR.sol\":6754:6757  buf */\n      dup6\n        /* \"@chainlink/contracts/src/v0.8/vendor/solidity-cborutils/v2.0.0/CBOR.sol\":6754:6761  buf.buf */\n      0x00\n      add\n      mload\n        /* \"@chainlink/contracts/src/v0.8/vendor/solidity-cborutils/v2.0.0/CBOR.sol\":6754:6771  buf.buf.appendInt */\n      tag_275\n      swap1\n        /* \"@chainlink/contracts/src/v0.8/vendor/solidity-cborutils/v2.0.0/CBOR.sol\":6754:6781  buf.buf.appendInt(value, 4) */\n      swap3\n      swap2\n      swap1\n      0xffffffff\n      and\n      jump\t// in\n    tag_283:\n      pop\n        /* \"@chainlink/contracts/src/v0.8/vendor/solidity-cborutils/v2.0.0/CBOR.sol\":6656:6909  if (value <= 0xFFFFFFFF) {... */\n      jump(tag_284)\n    tag_281:\n        /* \"@chainlink/contracts/src/v0.8/vendor/solidity-cborutils/v2.0.0/CBOR.sol\":6812:6857  buf.buf.appendUint8(uint8((major << 5) | 27)) */\n      tag_285\n        /* \"@chainlink/contracts/src/v0.8/vendor/solidity-cborutils/v2.0.0/CBOR.sol\":6853:6855  27 */\n      0x1b\n        /* \"@chainlink/contracts/src/v0.8/vendor/solidity-cborutils/v2.0.0/CBOR.sol\":6848:6849  5 */\n      0x05\n        /* \"@chainlink/contracts/src/v0.8/vendor/solidity-cborutils/v2.0.0/CBOR.sol\":6839:6844  major */\n      dup5\n        /* \"@chainlink/contracts/src/v0.8/vendor/solidity-cborutils/v2.0.0/CBOR.sol\":6839:6849  major << 5 */\n      0xff\n      and\n      swap1\n      shl\n        /* \"@chainlink/contracts/src/v0.8/vendor/solidity-cborutils/v2.0.0/CBOR.sol\":6838:6855  (major << 5) | 27 */\n      or\n        /* \"@chainlink/contracts/src/v0.8/vendor/solidity-cborutils/v2.0.0/CBOR.sol\":6812:6815  buf */\n      dup5\n        /* \"@chainlink/contracts/src/v0.8/vendor/solidity-cborutils/v2.0.0/CBOR.sol\":6812:6819  buf.buf */\n      0x00\n      add\n      mload\n        /* \"@chainlink/contracts/src/v0.8/vendor/solidity-cborutils/v2.0.0/CBOR.sol\":6812:6831  buf.buf.appendUint8 */\n      tag_244\n      swap1\n        /* \"@chainlink/contracts/src/v0.8/vendor/solidity-cborutils/v2.0.0/CBOR.sol\":6812:6857  buf.buf.appendUint8(uint8((major << 5) | 27)) */\n      swap2\n      swap1\n      0xffffffff\n      and\n      jump\t// in\n    tag_285:\n      pop\n        /* \"@chainlink/contracts/src/v0.8/vendor/solidity-cborutils/v2.0.0/CBOR.sol\":6871:6898  buf.buf.appendInt(value, 8) */\n      tag_286\n        /* \"@chainlink/contracts/src/v0.8/vendor/solidity-cborutils/v2.0.0/CBOR.sol\":6889:6894  value */\n      dup2\n        /* \"@chainlink/contracts/src/v0.8/vendor/solidity-cborutils/v2.0.0/CBOR.sol\":6871:6898  buf.buf.appendInt(value, 8) */\n      0xffffffffffffffff\n      and\n        /* \"@chainlink/contracts/src/v0.8/vendor/solidity-cborutils/v2.0.0/CBOR.sol\":6896:6897  8 */\n      0x08\n        /* \"@chainlink/contracts/src/v0.8/vendor/solidity-cborutils/v2.0.0/CBOR.sol\":6871:6874  buf */\n      dup6\n        /* \"@chainlink/contracts/src/v0.8/vendor/solidity-cborutils/v2.0.0/CBOR.sol\":6871:6878  buf.buf */\n      0x00\n      add\n      mload\n        /* \"@chainlink/contracts/src/v0.8/vendor/solidity-cborutils/v2.0.0/CBOR.sol\":6871:6888  buf.buf.appendInt */\n      tag_275\n      swap1\n        /* \"@chainlink/contracts/src/v0.8/vendor/solidity-cborutils/v2.0.0/CBOR.sol\":6871:6898  buf.buf.appendInt(value, 8) */\n      swap3\n      swap2\n      swap1\n      0xffffffff\n      and\n      jump\t// in\n    tag_286:\n      pop\n        /* \"@chainlink/contracts/src/v0.8/vendor/solidity-cborutils/v2.0.0/CBOR.sol\":6656:6909  if (value <= 0xFFFFFFFF) {... */\n    tag_284:\n        /* \"@chainlink/contracts/src/v0.8/vendor/solidity-cborutils/v2.0.0/CBOR.sol\":6518:6909  if (value <= 0xFFFF) {... */\n    tag_280:\n        /* \"@chainlink/contracts/src/v0.8/vendor/solidity-cborutils/v2.0.0/CBOR.sol\":6382:6909  if (value <= 0xFF) {... */\n    tag_276:\n        /* \"@chainlink/contracts/src/v0.8/vendor/solidity-cborutils/v2.0.0/CBOR.sol\":6286:6909  if (value <= 23) {... */\n    tag_271:\n        /* \"@chainlink/contracts/src/v0.8/vendor/solidity-cborutils/v2.0.0/CBOR.sol\":6156:6915  function writeFixedNumeric(... */\n      pop\n      pop\n      pop\n      jump\t// out\n        /* \"@chainlink/contracts/src/v0.8/vendor/@ensdomains/buffer/v0.1.0/Buffer.sol\":4539:4685  function append(buffer memory buf, bytes memory data) internal pure returns (buffer memory) {... */\n    tag_241:\n        /* \"@chainlink/contracts/src/v0.8/vendor/@ensdomains/buffer/v0.1.0/Buffer.sol\":4616:4629  buffer memory */\n      tag_287\n      tag_259\n      jump\t// in\n    tag_287:\n        /* \"@chainlink/contracts/src/v0.8/vendor/@ensdomains/buffer/v0.1.0/Buffer.sol\":4648:4678  append(buf, data, data.length) */\n      tag_289\n        /* \"@chainlink/contracts/src/v0.8/vendor/@ensdomains/buffer/v0.1.0/Buffer.sol\":4655:4658  buf */\n      dup4\n        /* \"@chainlink/contracts/src/v0.8/vendor/@ensdomains/buffer/v0.1.0/Buffer.sol\":4660:4664  data */\n      dup4\n        /* \"@chainlink/contracts/src/v0.8/vendor/@ensdomains/buffer/v0.1.0/Buffer.sol\":4666:4670  data */\n      dup5\n        /* \"@chainlink/contracts/src/v0.8/vendor/@ensdomains/buffer/v0.1.0/Buffer.sol\":4666:4677  data.length */\n      mload\n        /* \"@chainlink/contracts/src/v0.8/vendor/@ensdomains/buffer/v0.1.0/Buffer.sol\":4648:4654  append */\n      tag_290\n        /* \"@chainlink/contracts/src/v0.8/vendor/@ensdomains/buffer/v0.1.0/Buffer.sol\":4648:4678  append(buf, data, data.length) */\n      jump\t// in\n    tag_289:\n        /* \"@chainlink/contracts/src/v0.8/vendor/@ensdomains/buffer/v0.1.0/Buffer.sol\":4641:4678  return append(buf, data, data.length) */\n      swap1\n      pop\n        /* \"@chainlink/contracts/src/v0.8/vendor/@ensdomains/buffer/v0.1.0/Buffer.sol\":4539:4685  function append(buffer memory buf, bytes memory data) internal pure returns (buffer memory) {... */\n      swap3\n      swap2\n      pop\n      pop\n      jump\t// out\n        /* \"@chainlink/contracts/src/v0.8/vendor/@ensdomains/buffer/v0.1.0/Buffer.sol\":4948:5647  function appendUint8(buffer memory buf, uint8 data) internal pure returns(buffer memory) {... */\n    tag_244:\n        /* \"@chainlink/contracts/src/v0.8/vendor/@ensdomains/buffer/v0.1.0/Buffer.sol\":5022:5035  buffer memory */\n      tag_291\n      tag_259\n      jump\t// in\n    tag_291:\n        /* \"@chainlink/contracts/src/v0.8/vendor/@ensdomains/buffer/v0.1.0/Buffer.sol\":5047:5055  uint off */\n      0x00\n        /* \"@chainlink/contracts/src/v0.8/vendor/@ensdomains/buffer/v0.1.0/Buffer.sol\":5058:5061  buf */\n      dup4\n        /* \"@chainlink/contracts/src/v0.8/vendor/@ensdomains/buffer/v0.1.0/Buffer.sol\":5058:5065  buf.buf */\n      0x00\n      add\n      mload\n        /* \"@chainlink/contracts/src/v0.8/vendor/@ensdomains/buffer/v0.1.0/Buffer.sol\":5058:5072  buf.buf.length */\n      mload\n        /* \"@chainlink/contracts/src/v0.8/vendor/@ensdomains/buffer/v0.1.0/Buffer.sol\":5047:5072  uint off = buf.buf.length */\n      swap1\n      pop\n        /* \"@chainlink/contracts/src/v0.8/vendor/@ensdomains/buffer/v0.1.0/Buffer.sol\":5082:5097  uint offPlusOne */\n      0x00\n        /* \"@chainlink/contracts/src/v0.8/vendor/@ensdomains/buffer/v0.1.0/Buffer.sol\":5106:5107  1 */\n      0x01\n        /* \"@chainlink/contracts/src/v0.8/vendor/@ensdomains/buffer/v0.1.0/Buffer.sol\":5100:5103  off */\n      dup3\n        /* \"@chainlink/contracts/src/v0.8/vendor/@ensdomains/buffer/v0.1.0/Buffer.sol\":5100:5107  off + 1 */\n      tag_293\n      swap2\n      swap1\n      tag_251\n      jump\t// in\n    tag_293:\n        /* \"@chainlink/contracts/src/v0.8/vendor/@ensdomains/buffer/v0.1.0/Buffer.sol\":5082:5107  uint offPlusOne = off + 1 */\n      swap1\n      pop\n        /* \"@chainlink/contracts/src/v0.8/vendor/@ensdomains/buffer/v0.1.0/Buffer.sol\":5128:5131  buf */\n      dup5\n        /* \"@chainlink/contracts/src/v0.8/vendor/@ensdomains/buffer/v0.1.0/Buffer.sol\":5128:5140  buf.capacity */\n      0x20\n      add\n      mload\n        /* \"@chainlink/contracts/src/v0.8/vendor/@ensdomains/buffer/v0.1.0/Buffer.sol\":5121:5124  off */\n      dup3\n        /* \"@chainlink/contracts/src/v0.8/vendor/@ensdomains/buffer/v0.1.0/Buffer.sol\":5121:5140  off >= buf.capacity */\n      lt\n        /* \"@chainlink/contracts/src/v0.8/vendor/@ensdomains/buffer/v0.1.0/Buffer.sol\":5117:5194  if (off >= buf.capacity) {... */\n      tag_294\n      jumpi\n        /* \"@chainlink/contracts/src/v0.8/vendor/@ensdomains/buffer/v0.1.0/Buffer.sol\":5156:5183  resize(buf, offPlusOne * 2) */\n      tag_295\n        /* \"@chainlink/contracts/src/v0.8/vendor/@ensdomains/buffer/v0.1.0/Buffer.sol\":5163:5166  buf */\n      dup6\n        /* \"@chainlink/contracts/src/v0.8/vendor/@ensdomains/buffer/v0.1.0/Buffer.sol\":5181:5182  2 */\n      0x02\n        /* \"@chainlink/contracts/src/v0.8/vendor/@ensdomains/buffer/v0.1.0/Buffer.sol\":5168:5178  offPlusOne */\n      dup4\n        /* \"@chainlink/contracts/src/v0.8/vendor/@ensdomains/buffer/v0.1.0/Buffer.sol\":5168:5182  offPlusOne * 2 */\n      tag_296\n      swap2\n      swap1\n      tag_97\n      jump\t// in\n    tag_296:\n        /* \"@chainlink/contracts/src/v0.8/vendor/@ensdomains/buffer/v0.1.0/Buffer.sol\":5156:5162  resize */\n      tag_297\n        /* \"@chainlink/contracts/src/v0.8/vendor/@ensdomains/buffer/v0.1.0/Buffer.sol\":5156:5183  resize(buf, offPlusOne * 2) */\n      jump\t// in\n    tag_295:\n        /* \"@chainlink/contracts/src/v0.8/vendor/@ensdomains/buffer/v0.1.0/Buffer.sol\":5117:5194  if (off >= buf.capacity) {... */\n    tag_294:\n        /* \"@chainlink/contracts/src/v0.8/vendor/@ensdomains/buffer/v0.1.0/Buffer.sol\":5296:5299  buf */\n      dup5\n        /* \"@chainlink/contracts/src/v0.8/vendor/@ensdomains/buffer/v0.1.0/Buffer.sol\":5290:5300  mload(buf) */\n      mload\n        /* \"@chainlink/contracts/src/v0.8/vendor/@ensdomains/buffer/v0.1.0/Buffer.sol\":5417:5419  32 */\n      0x20\n        /* \"@chainlink/contracts/src/v0.8/vendor/@ensdomains/buffer/v0.1.0/Buffer.sol\":5411:5414  off */\n      dup4\n        /* \"@chainlink/contracts/src/v0.8/vendor/@ensdomains/buffer/v0.1.0/Buffer.sol\":5403:5409  bufptr */\n      dup3\n        /* \"@chainlink/contracts/src/v0.8/vendor/@ensdomains/buffer/v0.1.0/Buffer.sol\":5399:5415  add(bufptr, off) */\n      add\n        /* \"@chainlink/contracts/src/v0.8/vendor/@ensdomains/buffer/v0.1.0/Buffer.sol\":5395:5420  add(add(bufptr, off), 32) */\n      add\n        /* \"@chainlink/contracts/src/v0.8/vendor/@ensdomains/buffer/v0.1.0/Buffer.sol\":5447:5451  data */\n      dup6\n        /* \"@chainlink/contracts/src/v0.8/vendor/@ensdomains/buffer/v0.1.0/Buffer.sol\":5441:5445  dest */\n      dup2\n        /* \"@chainlink/contracts/src/v0.8/vendor/@ensdomains/buffer/v0.1.0/Buffer.sol\":5433:5452  mstore8(dest, data) */\n      mstore8\n        /* \"@chainlink/contracts/src/v0.8/vendor/@ensdomains/buffer/v0.1.0/Buffer.sol\":5543:5549  bufptr */\n      dup2\n        /* \"@chainlink/contracts/src/v0.8/vendor/@ensdomains/buffer/v0.1.0/Buffer.sol\":5537:5550  mload(bufptr) */\n      mload\n        /* \"@chainlink/contracts/src/v0.8/vendor/@ensdomains/buffer/v0.1.0/Buffer.sol\":5525:5535  offPlusOne */\n      dup4\n        /* \"@chainlink/contracts/src/v0.8/vendor/@ensdomains/buffer/v0.1.0/Buffer.sol\":5522:5551  gt(offPlusOne, mload(bufptr)) */\n      gt\n        /* \"@chainlink/contracts/src/v0.8/vendor/@ensdomains/buffer/v0.1.0/Buffer.sol\":5519:5610  if gt(offPlusOne, mload(bufptr)) {... */\n      iszero\n      tag_298\n      jumpi\n        /* \"@chainlink/contracts/src/v0.8/vendor/@ensdomains/buffer/v0.1.0/Buffer.sol\":5585:5595  offPlusOne */\n      dup3\n        /* \"@chainlink/contracts/src/v0.8/vendor/@ensdomains/buffer/v0.1.0/Buffer.sol\":5577:5583  bufptr */\n      dup3\n        /* \"@chainlink/contracts/src/v0.8/vendor/@ensdomains/buffer/v0.1.0/Buffer.sol\":5570:5596  mstore(bufptr, offPlusOne) */\n      mstore\n        /* \"@chainlink/contracts/src/v0.8/vendor/@ensdomains/buffer/v0.1.0/Buffer.sol\":5519:5610  if gt(offPlusOne, mload(bufptr)) {... */\n    tag_298:\n        /* \"@chainlink/contracts/src/v0.8/vendor/@ensdomains/buffer/v0.1.0/Buffer.sol\":5213:5620  {... */\n      pop\n      pop\n        /* \"@chainlink/contracts/src/v0.8/vendor/@ensdomains/buffer/v0.1.0/Buffer.sol\":5637:5640  buf */\n      dup5\n        /* \"@chainlink/contracts/src/v0.8/vendor/@ensdomains/buffer/v0.1.0/Buffer.sol\":5630:5640  return buf */\n      swap3\n      pop\n      pop\n      pop\n        /* \"@chainlink/contracts/src/v0.8/vendor/@ensdomains/buffer/v0.1.0/Buffer.sol\":4948:5647  function appendUint8(buffer memory buf, uint8 data) internal pure returns(buffer memory) {... */\n      swap3\n      swap2\n      pop\n      pop\n      jump\t// out\n        /* \"@chainlink/contracts/src/v0.8/vendor/solidity-cborutils/v2.0.0/CBOR.sol\":6921:7087  function writeIndefiniteLengthType(CBORBuffer memory buf, uint8 major)... */\n    tag_249:\n        /* \"@chainlink/contracts/src/v0.8/vendor/solidity-cborutils/v2.0.0/CBOR.sol\":7035:7080  buf.buf.appendUint8(uint8((major << 5) | 31)) */\n      tag_300\n        /* \"@chainlink/contracts/src/v0.8/vendor/solidity-cborutils/v2.0.0/CBOR.sol\":7076:7078  31 */\n      0x1f\n        /* \"@chainlink/contracts/src/v0.8/vendor/solidity-cborutils/v2.0.0/CBOR.sol\":7071:7072  5 */\n      0x05\n        /* \"@chainlink/contracts/src/v0.8/vendor/solidity-cborutils/v2.0.0/CBOR.sol\":7062:7067  major */\n      dup4\n        /* \"@chainlink/contracts/src/v0.8/vendor/solidity-cborutils/v2.0.0/CBOR.sol\":7062:7072  major << 5 */\n      0xff\n      and\n      swap1\n      shl\n        /* \"@chainlink/contracts/src/v0.8/vendor/solidity-cborutils/v2.0.0/CBOR.sol\":7061:7078  (major << 5) | 31 */\n      or\n        /* \"@chainlink/contracts/src/v0.8/vendor/solidity-cborutils/v2.0.0/CBOR.sol\":7035:7038  buf */\n      dup4\n        /* \"@chainlink/contracts/src/v0.8/vendor/solidity-cborutils/v2.0.0/CBOR.sol\":7035:7042  buf.buf */\n      0x00\n      add\n      mload\n        /* \"@chainlink/contracts/src/v0.8/vendor/solidity-cborutils/v2.0.0/CBOR.sol\":7035:7054  buf.buf.appendUint8 */\n      tag_244\n      swap1\n        /* \"@chainlink/contracts/src/v0.8/vendor/solidity-cborutils/v2.0.0/CBOR.sol\":7035:7080  buf.buf.appendUint8(uint8((major << 5) | 31)) */\n      swap2\n      swap1\n      0xffffffff\n      and\n      jump\t// in\n    tag_300:\n      pop\n        /* \"@chainlink/contracts/src/v0.8/vendor/solidity-cborutils/v2.0.0/CBOR.sol\":6921:7087  function writeIndefiniteLengthType(CBORBuffer memory buf, uint8 major)... */\n      pop\n      pop\n      jump\t// out\n        /* \"@chainlink/contracts/src/v0.8/vendor/@ensdomains/buffer/v0.1.0/Buffer.sol\":8083:8878  function appendInt(buffer memory buf, uint data, uint len) internal pure returns(buffer memory) {... */\n    tag_275:\n        /* \"@chainlink/contracts/src/v0.8/vendor/@ensdomains/buffer/v0.1.0/Buffer.sol\":8164:8177  buffer memory */\n      tag_301\n      tag_259\n      jump\t// in\n    tag_301:\n        /* \"@chainlink/contracts/src/v0.8/vendor/@ensdomains/buffer/v0.1.0/Buffer.sol\":8189:8197  uint off */\n      0x00\n        /* \"@chainlink/contracts/src/v0.8/vendor/@ensdomains/buffer/v0.1.0/Buffer.sol\":8200:8203  buf */\n      dup5\n        /* \"@chainlink/contracts/src/v0.8/vendor/@ensdomains/buffer/v0.1.0/Buffer.sol\":8200:8207  buf.buf */\n      0x00\n      add\n      mload\n        /* \"@chainlink/contracts/src/v0.8/vendor/@ensdomains/buffer/v0.1.0/Buffer.sol\":8200:8214  buf.buf.length */\n      mload\n        /* \"@chainlink/contracts/src/v0.8/vendor/@ensdomains/buffer/v0.1.0/Buffer.sol\":8189:8214  uint off = buf.buf.length */\n      swap1\n      pop\n        /* \"@chainlink/contracts/src/v0.8/vendor/@ensdomains/buffer/v0.1.0/Buffer.sol\":8224:8240  uint newCapacity */\n      0x00\n        /* \"@chainlink/contracts/src/v0.8/vendor/@ensdomains/buffer/v0.1.0/Buffer.sol\":8249:8252  off */\n      dup2\n        /* \"@chainlink/contracts/src/v0.8/vendor/@ensdomains/buffer/v0.1.0/Buffer.sol\":8243:8246  len */\n      dup5\n        /* \"@chainlink/contracts/src/v0.8/vendor/@ensdomains/buffer/v0.1.0/Buffer.sol\":8243:8252  len + off */\n      tag_303\n      swap2\n      swap1\n      tag_251\n      jump\t// in\n    tag_303:\n        /* \"@chainlink/contracts/src/v0.8/vendor/@ensdomains/buffer/v0.1.0/Buffer.sol\":8224:8252  uint newCapacity = len + off */\n      swap1\n      pop\n        /* \"@chainlink/contracts/src/v0.8/vendor/@ensdomains/buffer/v0.1.0/Buffer.sol\":8280:8283  buf */\n      dup6\n        /* \"@chainlink/contracts/src/v0.8/vendor/@ensdomains/buffer/v0.1.0/Buffer.sol\":8280:8292  buf.capacity */\n      0x20\n      add\n      mload\n        /* \"@chainlink/contracts/src/v0.8/vendor/@ensdomains/buffer/v0.1.0/Buffer.sol\":8266:8277  newCapacity */\n      dup2\n        /* \"@chainlink/contracts/src/v0.8/vendor/@ensdomains/buffer/v0.1.0/Buffer.sol\":8266:8292  newCapacity > buf.capacity */\n      gt\n        /* \"@chainlink/contracts/src/v0.8/vendor/@ensdomains/buffer/v0.1.0/Buffer.sol\":8262:8347  if (newCapacity > buf.capacity) {... */\n      iszero\n      tag_304\n      jumpi\n        /* \"@chainlink/contracts/src/v0.8/vendor/@ensdomains/buffer/v0.1.0/Buffer.sol\":8308:8336  resize(buf, newCapacity * 2) */\n      tag_305\n        /* \"@chainlink/contracts/src/v0.8/vendor/@ensdomains/buffer/v0.1.0/Buffer.sol\":8315:8318  buf */\n      dup7\n        /* \"@chainlink/contracts/src/v0.8/vendor/@ensdomains/buffer/v0.1.0/Buffer.sol\":8334:8335  2 */\n      0x02\n        /* \"@chainlink/contracts/src/v0.8/vendor/@ensdomains/buffer/v0.1.0/Buffer.sol\":8320:8331  newCapacity */\n      dup4\n        /* \"@chainlink/contracts/src/v0.8/vendor/@ensdomains/buffer/v0.1.0/Buffer.sol\":8320:8335  newCapacity * 2 */\n      tag_306\n      swap2\n      swap1\n      tag_97\n      jump\t// in\n    tag_306:\n        /* \"@chainlink/contracts/src/v0.8/vendor/@ensdomains/buffer/v0.1.0/Buffer.sol\":8308:8314  resize */\n      tag_297\n        /* \"@chainlink/contracts/src/v0.8/vendor/@ensdomains/buffer/v0.1.0/Buffer.sol\":8308:8336  resize(buf, newCapacity * 2) */\n      jump\t// in\n    tag_305:\n        /* \"@chainlink/contracts/src/v0.8/vendor/@ensdomains/buffer/v0.1.0/Buffer.sol\":8262:8347  if (newCapacity > buf.capacity) {... */\n    tag_304:\n        /* \"@chainlink/contracts/src/v0.8/vendor/@ensdomains/buffer/v0.1.0/Buffer.sol\":8357:8366  uint mask */\n      0x00\n        /* \"@chainlink/contracts/src/v0.8/vendor/@ensdomains/buffer/v0.1.0/Buffer.sol\":8384:8385  1 */\n      0x01\n        /* \"@chainlink/contracts/src/v0.8/vendor/@ensdomains/buffer/v0.1.0/Buffer.sol\":8377:8380  len */\n      dup6\n        /* \"@chainlink/contracts/src/v0.8/vendor/@ensdomains/buffer/v0.1.0/Buffer.sol\":8370:8373  256 */\n      0x0100\n        /* \"@chainlink/contracts/src/v0.8/vendor/@ensdomains/buffer/v0.1.0/Buffer.sol\":8370:8380  256 ** len */\n      tag_307\n      swap2\n      swap1\n      tag_308\n      jump\t// in\n    tag_307:\n        /* \"@chainlink/contracts/src/v0.8/vendor/@ensdomains/buffer/v0.1.0/Buffer.sol\":8369:8385  (256 ** len) - 1 */\n      tag_309\n      swap2\n      swap1\n      tag_109\n      jump\t// in\n    tag_309:\n        /* \"@chainlink/contracts/src/v0.8/vendor/@ensdomains/buffer/v0.1.0/Buffer.sol\":8357:8385  uint mask = (256 ** len) - 1 */\n      swap1\n      pop\n        /* \"@chainlink/contracts/src/v0.8/vendor/@ensdomains/buffer/v0.1.0/Buffer.sol\":8487:8490  buf */\n      dup7\n        /* \"@chainlink/contracts/src/v0.8/vendor/@ensdomains/buffer/v0.1.0/Buffer.sol\":8481:8491  mload(buf) */\n      mload\n        /* \"@chainlink/contracts/src/v0.8/vendor/@ensdomains/buffer/v0.1.0/Buffer.sol\":8606:8617  newCapacity */\n      dup3\n        /* \"@chainlink/contracts/src/v0.8/vendor/@ensdomains/buffer/v0.1.0/Buffer.sol\":8598:8604  bufptr */\n      dup2\n        /* \"@chainlink/contracts/src/v0.8/vendor/@ensdomains/buffer/v0.1.0/Buffer.sol\":8594:8618  add(bufptr, newCapacity) */\n      add\n        /* \"@chainlink/contracts/src/v0.8/vendor/@ensdomains/buffer/v0.1.0/Buffer.sol\":8676:8680  data */\n      dup8\n        /* \"@chainlink/contracts/src/v0.8/vendor/@ensdomains/buffer/v0.1.0/Buffer.sol\":8668:8672  mask */\n      dup4\n        /* \"@chainlink/contracts/src/v0.8/vendor/@ensdomains/buffer/v0.1.0/Buffer.sol\":8664:8673  not(mask) */\n      not\n        /* \"@chainlink/contracts/src/v0.8/vendor/@ensdomains/buffer/v0.1.0/Buffer.sol\":8657:8661  dest */\n      dup3\n        /* \"@chainlink/contracts/src/v0.8/vendor/@ensdomains/buffer/v0.1.0/Buffer.sol\":8651:8662  mload(dest) */\n      mload\n        /* \"@chainlink/contracts/src/v0.8/vendor/@ensdomains/buffer/v0.1.0/Buffer.sol\":8647:8674  and(mload(dest), not(mask)) */\n      and\n        /* \"@chainlink/contracts/src/v0.8/vendor/@ensdomains/buffer/v0.1.0/Buffer.sol\":8644:8681  or(and(mload(dest), not(mask)), data) */\n      or\n        /* \"@chainlink/contracts/src/v0.8/vendor/@ensdomains/buffer/v0.1.0/Buffer.sol\":8638:8642  dest */\n      dup2\n        /* \"@chainlink/contracts/src/v0.8/vendor/@ensdomains/buffer/v0.1.0/Buffer.sol\":8631:8682  mstore(dest, or(and(mload(dest), not(mask)), data)) */\n      mstore\n        /* \"@chainlink/contracts/src/v0.8/vendor/@ensdomains/buffer/v0.1.0/Buffer.sol\":8774:8780  bufptr */\n      dup2\n        /* \"@chainlink/contracts/src/v0.8/vendor/@ensdomains/buffer/v0.1.0/Buffer.sol\":8768:8781  mload(bufptr) */\n      mload\n        /* \"@chainlink/contracts/src/v0.8/vendor/@ensdomains/buffer/v0.1.0/Buffer.sol\":8755:8766  newCapacity */\n      dup5\n        /* \"@chainlink/contracts/src/v0.8/vendor/@ensdomains/buffer/v0.1.0/Buffer.sol\":8752:8782  gt(newCapacity, mload(bufptr)) */\n      gt\n        /* \"@chainlink/contracts/src/v0.8/vendor/@ensdomains/buffer/v0.1.0/Buffer.sol\":8749:8842  if gt(newCapacity, mload(bufptr)) {... */\n      iszero\n      tag_310\n      jumpi\n        /* \"@chainlink/contracts/src/v0.8/vendor/@ensdomains/buffer/v0.1.0/Buffer.sol\":8816:8827  newCapacity */\n      dup4\n        /* \"@chainlink/contracts/src/v0.8/vendor/@ensdomains/buffer/v0.1.0/Buffer.sol\":8808:8814  bufptr */\n      dup3\n        /* \"@chainlink/contracts/src/v0.8/vendor/@ensdomains/buffer/v0.1.0/Buffer.sol\":8801:8828  mstore(bufptr, newCapacity) */\n      mstore\n        /* \"@chainlink/contracts/src/v0.8/vendor/@ensdomains/buffer/v0.1.0/Buffer.sol\":8749:8842  if gt(newCapacity, mload(bufptr)) {... */\n    tag_310:\n        /* \"@chainlink/contracts/src/v0.8/vendor/@ensdomains/buffer/v0.1.0/Buffer.sol\":8404:8852  {... */\n      pop\n      pop\n        /* \"@chainlink/contracts/src/v0.8/vendor/@ensdomains/buffer/v0.1.0/Buffer.sol\":8868:8871  buf */\n      dup7\n        /* \"@chainlink/contracts/src/v0.8/vendor/@ensdomains/buffer/v0.1.0/Buffer.sol\":8861:8871  return buf */\n      swap4\n      pop\n      pop\n      pop\n      pop\n        /* \"@chainlink/contracts/src/v0.8/vendor/@ensdomains/buffer/v0.1.0/Buffer.sol\":8083:8878  function appendInt(buffer memory buf, uint data, uint len) internal pure returns(buffer memory) {... */\n      swap4\n      swap3\n      pop\n      pop\n      pop\n      jump\t// out\n        /* \"@chainlink/contracts/src/v0.8/vendor/@ensdomains/buffer/v0.1.0/Buffer.sol\":2844:4271  function append(buffer memory buf, bytes memory data, uint len) internal pure returns(buffer memory) {... */\n    tag_290:\n        /* \"@chainlink/contracts/src/v0.8/vendor/@ensdomains/buffer/v0.1.0/Buffer.sol\":2930:2943  buffer memory */\n      tag_311\n      tag_259\n      jump\t// in\n    tag_311:\n        /* \"@chainlink/contracts/src/v0.8/vendor/@ensdomains/buffer/v0.1.0/Buffer.sol\":2970:2974  data */\n      dup3\n        /* \"@chainlink/contracts/src/v0.8/vendor/@ensdomains/buffer/v0.1.0/Buffer.sol\":2970:2981  data.length */\n      mload\n        /* \"@chainlink/contracts/src/v0.8/vendor/@ensdomains/buffer/v0.1.0/Buffer.sol\":2963:2966  len */\n      dup3\n        /* \"@chainlink/contracts/src/v0.8/vendor/@ensdomains/buffer/v0.1.0/Buffer.sol\":2963:2981  len <= data.length */\n      gt\n      iszero\n        /* \"@chainlink/contracts/src/v0.8/vendor/@ensdomains/buffer/v0.1.0/Buffer.sol\":2955:2982  require(len <= data.length) */\n      tag_313\n      jumpi\n      revert(0x00, 0x00)\n    tag_313:\n        /* \"@chainlink/contracts/src/v0.8/vendor/@ensdomains/buffer/v0.1.0/Buffer.sol\":2993:3001  uint off */\n      0x00\n        /* \"@chainlink/contracts/src/v0.8/vendor/@ensdomains/buffer/v0.1.0/Buffer.sol\":3004:3007  buf */\n      dup5\n        /* \"@chainlink/contracts/src/v0.8/vendor/@ensdomains/buffer/v0.1.0/Buffer.sol\":3004:3011  buf.buf */\n      0x00\n      add\n      mload\n        /* \"@chainlink/contracts/src/v0.8/vendor/@ensdomains/buffer/v0.1.0/Buffer.sol\":3004:3018  buf.buf.length */\n      mload\n        /* \"@chainlink/contracts/src/v0.8/vendor/@ensdomains/buffer/v0.1.0/Buffer.sol\":2993:3018  uint off = buf.buf.length */\n      swap1\n      pop\n        /* \"@chainlink/contracts/src/v0.8/vendor/@ensdomains/buffer/v0.1.0/Buffer.sol\":3028:3044  uint newCapacity */\n      0x00\n        /* \"@chainlink/contracts/src/v0.8/vendor/@ensdomains/buffer/v0.1.0/Buffer.sol\":3053:3056  len */\n      dup4\n        /* \"@chainlink/contracts/src/v0.8/vendor/@ensdomains/buffer/v0.1.0/Buffer.sol\":3047:3050  off */\n      dup3\n        /* \"@chainlink/contracts/src/v0.8/vendor/@ensdomains/buffer/v0.1.0/Buffer.sol\":3047:3056  off + len */\n      tag_314\n      swap2\n      swap1\n      tag_251\n      jump\t// in\n    tag_314:\n        /* \"@chainlink/contracts/src/v0.8/vendor/@ensdomains/buffer/v0.1.0/Buffer.sol\":3028:3056  uint newCapacity = off + len */\n      swap1\n      pop\n        /* \"@chainlink/contracts/src/v0.8/vendor/@ensdomains/buffer/v0.1.0/Buffer.sol\":3084:3087  buf */\n      dup6\n        /* \"@chainlink/contracts/src/v0.8/vendor/@ensdomains/buffer/v0.1.0/Buffer.sol\":3084:3096  buf.capacity */\n      0x20\n      add\n      mload\n        /* \"@chainlink/contracts/src/v0.8/vendor/@ensdomains/buffer/v0.1.0/Buffer.sol\":3070:3081  newCapacity */\n      dup2\n        /* \"@chainlink/contracts/src/v0.8/vendor/@ensdomains/buffer/v0.1.0/Buffer.sol\":3070:3096  newCapacity > buf.capacity */\n      gt\n        /* \"@chainlink/contracts/src/v0.8/vendor/@ensdomains/buffer/v0.1.0/Buffer.sol\":3066:3151  if (newCapacity > buf.capacity) {... */\n      iszero\n      tag_315\n      jumpi\n        /* \"@chainlink/contracts/src/v0.8/vendor/@ensdomains/buffer/v0.1.0/Buffer.sol\":3112:3140  resize(buf, newCapacity * 2) */\n      tag_316\n        /* \"@chainlink/contracts/src/v0.8/vendor/@ensdomains/buffer/v0.1.0/Buffer.sol\":3119:3122  buf */\n      dup7\n        /* \"@chainlink/contracts/src/v0.8/vendor/@ensdomains/buffer/v0.1.0/Buffer.sol\":3138:3139  2 */\n      0x02\n        /* \"@chainlink/contracts/src/v0.8/vendor/@ensdomains/buffer/v0.1.0/Buffer.sol\":3124:3135  newCapacity */\n      dup4\n        /* \"@chainlink/contracts/src/v0.8/vendor/@ensdomains/buffer/v0.1.0/Buffer.sol\":3124:3139  newCapacity * 2 */\n      tag_317\n      swap2\n      swap1\n      tag_97\n      jump\t// in\n    tag_317:\n        /* \"@chainlink/contracts/src/v0.8/vendor/@ensdomains/buffer/v0.1.0/Buffer.sol\":3112:3118  resize */\n      tag_297\n        /* \"@chainlink/contracts/src/v0.8/vendor/@ensdomains/buffer/v0.1.0/Buffer.sol\":3112:3140  resize(buf, newCapacity * 2) */\n      jump\t// in\n    tag_316:\n        /* \"@chainlink/contracts/src/v0.8/vendor/@ensdomains/buffer/v0.1.0/Buffer.sol\":3066:3151  if (newCapacity > buf.capacity) {... */\n    tag_315:\n        /* \"@chainlink/contracts/src/v0.8/vendor/@ensdomains/buffer/v0.1.0/Buffer.sol\":3161:3170  uint dest */\n      0x00\n        /* \"@chainlink/contracts/src/v0.8/vendor/@ensdomains/buffer/v0.1.0/Buffer.sol\":3180:3188  uint src */\n      0x00\n        /* \"@chainlink/contracts/src/v0.8/vendor/@ensdomains/buffer/v0.1.0/Buffer.sol\":3290:3293  buf */\n      dup8\n        /* \"@chainlink/contracts/src/v0.8/vendor/@ensdomains/buffer/v0.1.0/Buffer.sol\":3284:3294  mload(buf) */\n      mload\n        /* \"@chainlink/contracts/src/v0.8/vendor/@ensdomains/buffer/v0.1.0/Buffer.sol\":3373:3379  bufptr */\n      dup1\n        /* \"@chainlink/contracts/src/v0.8/vendor/@ensdomains/buffer/v0.1.0/Buffer.sol\":3367:3380  mload(bufptr) */\n      mload\n        /* \"@chainlink/contracts/src/v0.8/vendor/@ensdomains/buffer/v0.1.0/Buffer.sol\":3501:3504  off */\n      dup6\n        /* \"@chainlink/contracts/src/v0.8/vendor/@ensdomains/buffer/v0.1.0/Buffer.sol\":3496:3498  32 */\n      0x20\n        /* \"@chainlink/contracts/src/v0.8/vendor/@ensdomains/buffer/v0.1.0/Buffer.sol\":3488:3494  bufptr */\n      dup4\n        /* \"@chainlink/contracts/src/v0.8/vendor/@ensdomains/buffer/v0.1.0/Buffer.sol\":3484:3499  add(bufptr, 32) */\n      add\n        /* \"@chainlink/contracts/src/v0.8/vendor/@ensdomains/buffer/v0.1.0/Buffer.sol\":3480:3505  add(add(bufptr, 32), off) */\n      add\n        /* \"@chainlink/contracts/src/v0.8/vendor/@ensdomains/buffer/v0.1.0/Buffer.sol\":3472:3505  dest := add(add(bufptr, 32), off) */\n      swap4\n      pop\n        /* \"@chainlink/contracts/src/v0.8/vendor/@ensdomains/buffer/v0.1.0/Buffer.sol\":3595:3601  buflen */\n      dup1\n        /* \"@chainlink/contracts/src/v0.8/vendor/@ensdomains/buffer/v0.1.0/Buffer.sol\":3582:3593  newCapacity */\n      dup6\n        /* \"@chainlink/contracts/src/v0.8/vendor/@ensdomains/buffer/v0.1.0/Buffer.sol\":3579:3602  gt(newCapacity, buflen) */\n      gt\n        /* \"@chainlink/contracts/src/v0.8/vendor/@ensdomains/buffer/v0.1.0/Buffer.sol\":3576:3662  if gt(newCapacity, buflen) {... */\n      iszero\n      tag_318\n      jumpi\n        /* \"@chainlink/contracts/src/v0.8/vendor/@ensdomains/buffer/v0.1.0/Buffer.sol\":3636:3647  newCapacity */\n      dup5\n        /* \"@chainlink/contracts/src/v0.8/vendor/@ensdomains/buffer/v0.1.0/Buffer.sol\":3628:3634  bufptr */\n      dup3\n        /* \"@chainlink/contracts/src/v0.8/vendor/@ensdomains/buffer/v0.1.0/Buffer.sol\":3621:3648  mstore(bufptr, newCapacity) */\n      mstore\n        /* \"@chainlink/contracts/src/v0.8/vendor/@ensdomains/buffer/v0.1.0/Buffer.sol\":3576:3662  if gt(newCapacity, buflen) {... */\n    tag_318:\n        /* \"@chainlink/contracts/src/v0.8/vendor/@ensdomains/buffer/v0.1.0/Buffer.sol\":3692:3694  32 */\n      0x20\n        /* \"@chainlink/contracts/src/v0.8/vendor/@ensdomains/buffer/v0.1.0/Buffer.sol\":3686:3690  data */\n      dup10\n        /* \"@chainlink/contracts/src/v0.8/vendor/@ensdomains/buffer/v0.1.0/Buffer.sol\":3682:3695  add(data, 32) */\n      add\n        /* \"@chainlink/contracts/src/v0.8/vendor/@ensdomains/buffer/v0.1.0/Buffer.sol\":3675:3695  src := add(data, 32) */\n      swap3\n      pop\n        /* \"@chainlink/contracts/src/v0.8/vendor/@ensdomains/buffer/v0.1.0/Buffer.sol\":3207:3705  {... */\n      pop\n      pop\n        /* \"@chainlink/contracts/src/v0.8/vendor/@ensdomains/buffer/v0.1.0/Buffer.sol\":3765:3930  for (; len >= 32; len -= 32) {... */\n    tag_319:\n        /* \"@chainlink/contracts/src/v0.8/vendor/@ensdomains/buffer/v0.1.0/Buffer.sol\":3779:3781  32 */\n      0x20\n        /* \"@chainlink/contracts/src/v0.8/vendor/@ensdomains/buffer/v0.1.0/Buffer.sol\":3772:3775  len */\n      dup7\n        /* \"@chainlink/contracts/src/v0.8/vendor/@ensdomains/buffer/v0.1.0/Buffer.sol\":3772:3781  len >= 32 */\n      lt\n        /* \"@chainlink/contracts/src/v0.8/vendor/@ensdomains/buffer/v0.1.0/Buffer.sol\":3765:3930  for (; len >= 32; len -= 32) {... */\n      tag_320\n      jumpi\n        /* \"@chainlink/contracts/src/v0.8/vendor/@ensdomains/buffer/v0.1.0/Buffer.sol\":3854:3857  src */\n      dup1\n        /* \"@chainlink/contracts/src/v0.8/vendor/@ensdomains/buffer/v0.1.0/Buffer.sol\":3848:3858  mload(src) */\n      mload\n        /* \"@chainlink/contracts/src/v0.8/vendor/@ensdomains/buffer/v0.1.0/Buffer.sol\":3842:3846  dest */\n      dup3\n        /* \"@chainlink/contracts/src/v0.8/vendor/@ensdomains/buffer/v0.1.0/Buffer.sol\":3835:3859  mstore(dest, mload(src)) */\n      mstore\n        /* \"@chainlink/contracts/src/v0.8/vendor/@ensdomains/buffer/v0.1.0/Buffer.sol\":3894:3896  32 */\n      0x20\n        /* \"@chainlink/contracts/src/v0.8/vendor/@ensdomains/buffer/v0.1.0/Buffer.sol\":3886:3896  dest += 32 */\n      dup3\n      tag_322\n      swap2\n      swap1\n      tag_251\n      jump\t// in\n    tag_322:\n      swap2\n      pop\n        /* \"@chainlink/contracts/src/v0.8/vendor/@ensdomains/buffer/v0.1.0/Buffer.sol\":3917:3919  32 */\n      0x20\n        /* \"@chainlink/contracts/src/v0.8/vendor/@ensdomains/buffer/v0.1.0/Buffer.sol\":3910:3919  src += 32 */\n      dup2\n      tag_323\n      swap2\n      swap1\n      tag_251\n      jump\t// in\n    tag_323:\n      swap1\n      pop\n        /* \"@chainlink/contracts/src/v0.8/vendor/@ensdomains/buffer/v0.1.0/Buffer.sol\":3790:3792  32 */\n      0x20\n        /* \"@chainlink/contracts/src/v0.8/vendor/@ensdomains/buffer/v0.1.0/Buffer.sol\":3783:3792  len -= 32 */\n      dup7\n      tag_324\n      swap2\n      swap1\n      tag_109\n      jump\t// in\n    tag_324:\n      swap6\n      pop\n        /* \"@chainlink/contracts/src/v0.8/vendor/@ensdomains/buffer/v0.1.0/Buffer.sol\":3765:3930  for (; len >= 32; len -= 32) {... */\n      jump(tag_319)\n    tag_320:\n        /* \"@chainlink/contracts/src/v0.8/vendor/@ensdomains/buffer/v0.1.0/Buffer.sol\":3996:4005  uint mask */\n      0x00\n        /* \"@chainlink/contracts/src/v0.8/vendor/@ensdomains/buffer/v0.1.0/Buffer.sol\":4030:4031  1 */\n      0x01\n        /* \"@chainlink/contracts/src/v0.8/vendor/@ensdomains/buffer/v0.1.0/Buffer.sol\":4022:4025  len */\n      dup8\n        /* \"@chainlink/contracts/src/v0.8/vendor/@ensdomains/buffer/v0.1.0/Buffer.sol\":4017:4019  32 */\n      0x20\n        /* \"@chainlink/contracts/src/v0.8/vendor/@ensdomains/buffer/v0.1.0/Buffer.sol\":4017:4025  32 - len */\n      sub\n        /* \"@chainlink/contracts/src/v0.8/vendor/@ensdomains/buffer/v0.1.0/Buffer.sol\":4009:4012  256 */\n      0x0100\n        /* \"@chainlink/contracts/src/v0.8/vendor/@ensdomains/buffer/v0.1.0/Buffer.sol\":4009:4026  256 ** (32 - len) */\n      exp\n        /* \"@chainlink/contracts/src/v0.8/vendor/@ensdomains/buffer/v0.1.0/Buffer.sol\":4008:4031  (256 ** (32 - len)) - 1 */\n      sub\n        /* \"@chainlink/contracts/src/v0.8/vendor/@ensdomains/buffer/v0.1.0/Buffer.sol\":3996:4031  uint mask = (256 ** (32 - len)) - 1 */\n      swap1\n      pop\n        /* \"@chainlink/contracts/src/v0.8/vendor/@ensdomains/buffer/v0.1.0/Buffer.sol\":4107:4111  mask */\n      dup1\n        /* \"@chainlink/contracts/src/v0.8/vendor/@ensdomains/buffer/v0.1.0/Buffer.sol\":4103:4112  not(mask) */\n      not\n        /* \"@chainlink/contracts/src/v0.8/vendor/@ensdomains/buffer/v0.1.0/Buffer.sol\":4097:4100  src */\n      dup3\n        /* \"@chainlink/contracts/src/v0.8/vendor/@ensdomains/buffer/v0.1.0/Buffer.sol\":4091:4101  mload(src) */\n      mload\n        /* \"@chainlink/contracts/src/v0.8/vendor/@ensdomains/buffer/v0.1.0/Buffer.sol\":4087:4113  and(mload(src), not(mask)) */\n      and\n        /* \"@chainlink/contracts/src/v0.8/vendor/@ensdomains/buffer/v0.1.0/Buffer.sol\":4163:4167  mask */\n      dup2\n        /* \"@chainlink/contracts/src/v0.8/vendor/@ensdomains/buffer/v0.1.0/Buffer.sol\":4156:4160  dest */\n      dup5\n        /* \"@chainlink/contracts/src/v0.8/vendor/@ensdomains/buffer/v0.1.0/Buffer.sol\":4150:4161  mload(dest) */\n      mload\n        /* \"@chainlink/contracts/src/v0.8/vendor/@ensdomains/buffer/v0.1.0/Buffer.sol\":4146:4168  and(mload(dest), mask) */\n      and\n        /* \"@chainlink/contracts/src/v0.8/vendor/@ensdomains/buffer/v0.1.0/Buffer.sol\":4211:4218  srcpart */\n      dup2\n        /* \"@chainlink/contracts/src/v0.8/vendor/@ensdomains/buffer/v0.1.0/Buffer.sol\":4201:4209  destpart */\n      dup2\n        /* \"@chainlink/contracts/src/v0.8/vendor/@ensdomains/buffer/v0.1.0/Buffer.sol\":4198:4219  or(destpart, srcpart) */\n      or\n        /* \"@chainlink/contracts/src/v0.8/vendor/@ensdomains/buffer/v0.1.0/Buffer.sol\":4192:4196  dest */\n      dup6\n        /* \"@chainlink/contracts/src/v0.8/vendor/@ensdomains/buffer/v0.1.0/Buffer.sol\":4185:4220  mstore(dest, or(destpart, srcpart)) */\n      mstore\n        /* \"@chainlink/contracts/src/v0.8/vendor/@ensdomains/buffer/v0.1.0/Buffer.sol\":4054:4234  {... */\n      pop\n      pop\n      pop\n        /* \"@chainlink/contracts/src/v0.8/vendor/@ensdomains/buffer/v0.1.0/Buffer.sol\":4261:4264  buf */\n      dup8\n        /* \"@chainlink/contracts/src/v0.8/vendor/@ensdomains/buffer/v0.1.0/Buffer.sol\":4254:4264  return buf */\n      swap5\n      pop\n      pop\n      pop\n      pop\n      pop\n        /* \"@chainlink/contracts/src/v0.8/vendor/@ensdomains/buffer/v0.1.0/Buffer.sol\":2844:4271  function append(buffer memory buf, bytes memory data, uint len) internal pure returns(buffer memory) {... */\n      swap4\n      swap3\n      pop\n      pop\n      pop\n      jump\t// out\n        /* \"@chainlink/contracts/src/v0.8/vendor/@ensdomains/buffer/v0.1.0/Buffer.sol\":2004:2171  function resize(buffer memory buf, uint capacity) private pure {... */\n    tag_297:\n        /* \"@chainlink/contracts/src/v0.8/vendor/@ensdomains/buffer/v0.1.0/Buffer.sol\":2077:2096  bytes memory oldbuf */\n      0x00\n        /* \"@chainlink/contracts/src/v0.8/vendor/@ensdomains/buffer/v0.1.0/Buffer.sol\":2099:2102  buf */\n      dup3\n        /* \"@chainlink/contracts/src/v0.8/vendor/@ensdomains/buffer/v0.1.0/Buffer.sol\":2099:2106  buf.buf */\n      0x00\n      add\n      mload\n        /* \"@chainlink/contracts/src/v0.8/vendor/@ensdomains/buffer/v0.1.0/Buffer.sol\":2077:2106  bytes memory oldbuf = buf.buf */\n      swap1\n      pop\n        /* \"@chainlink/contracts/src/v0.8/vendor/@ensdomains/buffer/v0.1.0/Buffer.sol\":2116:2135  init(buf, capacity) */\n      tag_326\n        /* \"@chainlink/contracts/src/v0.8/vendor/@ensdomains/buffer/v0.1.0/Buffer.sol\":2121:2124  buf */\n      dup4\n        /* \"@chainlink/contracts/src/v0.8/vendor/@ensdomains/buffer/v0.1.0/Buffer.sol\":2126:2134  capacity */\n      dup4\n        /* \"@chainlink/contracts/src/v0.8/vendor/@ensdomains/buffer/v0.1.0/Buffer.sol\":2116:2120  init */\n      tag_236\n        /* \"@chainlink/contracts/src/v0.8/vendor/@ensdomains/buffer/v0.1.0/Buffer.sol\":2116:2135  init(buf, capacity) */\n      jump\t// in\n    tag_326:\n      pop\n        /* \"@chainlink/contracts/src/v0.8/vendor/@ensdomains/buffer/v0.1.0/Buffer.sol\":2145:2164  append(buf, oldbuf) */\n      tag_327\n        /* \"@chainlink/contracts/src/v0.8/vendor/@ensdomains/buffer/v0.1.0/Buffer.sol\":2152:2155  buf */\n      dup4\n        /* \"@chainlink/contracts/src/v0.8/vendor/@ensdomains/buffer/v0.1.0/Buffer.sol\":2157:2163  oldbuf */\n      dup3\n        /* \"@chainlink/contracts/src/v0.8/vendor/@ensdomains/buffer/v0.1.0/Buffer.sol\":2145:2151  append */\n      tag_241\n        /* \"@chainlink/contracts/src/v0.8/vendor/@ensdomains/buffer/v0.1.0/Buffer.sol\":2145:2164  append(buf, oldbuf) */\n      jump\t// in\n    tag_327:\n      pop\n        /* \"@chainlink/contracts/src/v0.8/vendor/@ensdomains/buffer/v0.1.0/Buffer.sol\":2067:2171  {... */\n      pop\n        /* \"@chainlink/contracts/src/v0.8/vendor/@ensdomains/buffer/v0.1.0/Buffer.sol\":2004:2171  function resize(buffer memory buf, uint capacity) private pure {... */\n      pop\n      pop\n      jump\t// out\n    tag_121:\n      mload(0x40)\n      dup1\n      0xe0\n      add\n      0x40\n      mstore\n      dup1\n      0x00\n      0x02\n      dup2\n      gt\n      iszero\n      tag_328\n      jumpi\n      tag_329\n      tag_167\n      jump\t// in\n    tag_329:\n    tag_328:\n      dup2\n      mstore\n      0x20\n      add\n      0x00\n      0x02\n      dup2\n      gt\n      iszero\n      tag_330\n      jumpi\n      tag_331\n      tag_167\n      jump\t// in\n    tag_331:\n    tag_330:\n      dup2\n      mstore\n      0x20\n      add\n      0x00\n      0x00\n      dup2\n      gt\n      iszero\n      tag_332\n      jumpi\n      tag_333\n      tag_167\n      jump\t// in\n    tag_333:\n    tag_332:\n      dup2\n      mstore\n      0x20\n      add\n      0x60\n      dup2\n      mstore\n      0x20\n      add\n      0x60\n      dup2\n      mstore\n      0x20\n      add\n      0x60\n      dup2\n      mstore\n      0x20\n      add\n      0x60\n      dup2\n      mstore\n      pop\n      swap1\n      jump\t// out\n    tag_233:\n      mload(0x40)\n      dup1\n      0x40\n      add\n      0x40\n      mstore\n      dup1\n      tag_334\n      tag_259\n      jump\t// in\n    tag_334:\n      dup2\n      mstore\n      0x20\n      add\n      0x00\n      dup2\n      mstore\n      pop\n      swap1\n      jump\t// out\n    tag_259:\n      mload(0x40)\n      dup1\n      0x40\n      add\n      0x40\n      mstore\n      dup1\n      0x60\n      dup2\n      mstore\n      0x20\n      add\n      0x00\n      dup2\n      mstore\n      pop\n      swap1\n      jump\t// out\n        /* \"#utility.yul\":7:82   */\n    tag_335:\n        /* \"#utility.yul\":40:46   */\n      0x00\n        /* \"#utility.yul\":73:75   */\n      0x40\n        /* \"#utility.yul\":67:76   */\n      mload\n        /* \"#utility.yul\":57:76   */\n      swap1\n      pop\n        /* \"#utility.yul\":7:82   */\n      swap1\n      jump\t// out\n        /* \"#utility.yul\":88:205   */\n    tag_336:\n        /* \"#utility.yul\":197:198   */\n      0x00\n        /* \"#utility.yul\":194:195   */\n      0x00\n        /* \"#utility.yul\":187:199   */\n      revert\n        /* \"#utility.yul\":211:328   */\n    tag_337:\n        /* \"#utility.yul\":320:321   */\n      0x00\n        /* \"#utility.yul\":317:318   */\n      0x00\n        /* \"#utility.yul\":310:322   */\n      revert\n        /* \"#utility.yul\":334:411   */\n    tag_338:\n        /* \"#utility.yul\":371:378   */\n      0x00\n        /* \"#utility.yul\":400:405   */\n      dup2\n        /* \"#utility.yul\":389:405   */\n      swap1\n      pop\n        /* \"#utility.yul\":334:411   */\n      swap2\n      swap1\n      pop\n      jump\t// out\n        /* \"#utility.yul\":417:539   */\n    tag_339:\n        /* \"#utility.yul\":490:514   */\n      tag_402\n        /* \"#utility.yul\":508:513   */\n      dup2\n        /* \"#utility.yul\":490:514   */\n      tag_338\n      jump\t// in\n    tag_402:\n        /* \"#utility.yul\":483:488   */\n      dup2\n        /* \"#utility.yul\":480:515   */\n      eq\n        /* \"#utility.yul\":470:533   */\n      tag_403\n      jumpi\n        /* \"#utility.yul\":529:530   */\n      0x00\n        /* \"#utility.yul\":526:527   */\n      0x00\n        /* \"#utility.yul\":519:531   */\n      revert\n        /* \"#utility.yul\":470:533   */\n    tag_403:\n        /* \"#utility.yul\":417:539   */\n      pop\n      jump\t// out\n        /* \"#utility.yul\":545:684   */\n    tag_340:\n        /* \"#utility.yul\":591:596   */\n      0x00\n        /* \"#utility.yul\":629:635   */\n      dup2\n        /* \"#utility.yul\":616:636   */\n      calldataload\n        /* \"#utility.yul\":607:636   */\n      swap1\n      pop\n        /* \"#utility.yul\":645:678   */\n      tag_405\n        /* \"#utility.yul\":672:677   */\n      dup2\n        /* \"#utility.yul\":645:678   */\n      tag_339\n      jump\t// in\n    tag_405:\n        /* \"#utility.yul\":545:684   */\n      swap3\n      swap2\n      pop\n      pop\n      jump\t// out\n        /* \"#utility.yul\":690:1019   */\n    tag_26:\n        /* \"#utility.yul\":749:755   */\n      0x00\n        /* \"#utility.yul\":798:800   */\n      0x20\n        /* \"#utility.yul\":786:795   */\n      dup3\n        /* \"#utility.yul\":777:784   */\n      dup5\n        /* \"#utility.yul\":773:796   */\n      sub\n        /* \"#utility.yul\":769:801   */\n      slt\n        /* \"#utility.yul\":766:885   */\n      iszero\n      tag_407\n      jumpi\n        /* \"#utility.yul\":804:883   */\n      tag_408\n      tag_336\n      jump\t// in\n    tag_408:\n        /* \"#utility.yul\":766:885   */\n    tag_407:\n        /* \"#utility.yul\":924:925   */\n      0x00\n        /* \"#utility.yul\":949:1002   */\n      tag_409\n        /* \"#utility.yul\":994:1001   */\n      dup5\n        /* \"#utility.yul\":985:991   */\n      dup3\n        /* \"#utility.yul\":974:983   */\n      dup6\n        /* \"#utility.yul\":970:992   */\n      add\n        /* \"#utility.yul\":949:1002   */\n      tag_340\n      jump\t// in\n    tag_409:\n        /* \"#utility.yul\":939:1002   */\n      swap2\n      pop\n        /* \"#utility.yul\":895:1012   */\n      pop\n        /* \"#utility.yul\":690:1019   */\n      swap3\n      swap2\n      pop\n      pop\n      jump\t// out\n        /* \"#utility.yul\":1025:1126   */\n    tag_341:\n        /* \"#utility.yul\":1061:1068   */\n      0x00\n        /* \"#utility.yul\":1101:1119   */\n      0xffffffffffffffff\n        /* \"#utility.yul\":1094:1099   */\n      dup3\n        /* \"#utility.yul\":1090:1120   */\n      and\n        /* \"#utility.yul\":1079:1120   */\n      swap1\n      pop\n        /* \"#utility.yul\":1025:1126   */\n      swap2\n      swap1\n      pop\n      jump\t// out\n        /* \"#utility.yul\":1132:1247   */\n    tag_342:\n        /* \"#utility.yul\":1217:1240   */\n      tag_412\n        /* \"#utility.yul\":1234:1239   */\n      dup2\n        /* \"#utility.yul\":1217:1240   */\n      tag_341\n      jump\t// in\n    tag_412:\n        /* \"#utility.yul\":1212:1215   */\n      dup3\n        /* \"#utility.yul\":1205:1241   */\n      mstore\n        /* \"#utility.yul\":1132:1247   */\n      pop\n      pop\n      jump\t// out\n        /* \"#utility.yul\":1253:1471   */\n    tag_31:\n        /* \"#utility.yul\":1344:1348   */\n      0x00\n        /* \"#utility.yul\":1382:1384   */\n      0x20\n        /* \"#utility.yul\":1371:1380   */\n      dup3\n        /* \"#utility.yul\":1367:1385   */\n      add\n        /* \"#utility.yul\":1359:1385   */\n      swap1\n      pop\n        /* \"#utility.yul\":1395:1464   */\n      tag_414\n        /* \"#utility.yul\":1461:1462   */\n      0x00\n        /* \"#utility.yul\":1450:1459   */\n      dup4\n        /* \"#utility.yul\":1446:1463   */\n      add\n        /* \"#utility.yul\":1437:1443   */\n      dup5\n        /* \"#utility.yul\":1395:1464   */\n      tag_342\n      jump\t// in\n    tag_414:\n        /* \"#utility.yul\":1253:1471   */\n      swap3\n      swap2\n      pop\n      pop\n      jump\t// out\n        /* \"#utility.yul\":1477:1554   */\n    tag_343:\n        /* \"#utility.yul\":1514:1521   */\n      0x00\n        /* \"#utility.yul\":1543:1548   */\n      dup2\n        /* \"#utility.yul\":1532:1548   */\n      swap1\n      pop\n        /* \"#utility.yul\":1477:1554   */\n      swap2\n      swap1\n      pop\n      jump\t// out\n        /* \"#utility.yul\":1560:1682   */\n    tag_344:\n        /* \"#utility.yul\":1633:1657   */\n      tag_417\n        /* \"#utility.yul\":1651:1656   */\n      dup2\n        /* \"#utility.yul\":1633:1657   */\n      tag_343\n      jump\t// in\n    tag_417:\n        /* \"#utility.yul\":1626:1631   */\n      dup2\n        /* \"#utility.yul\":1623:1658   */\n      eq\n        /* \"#utility.yul\":1613:1676   */\n      tag_418\n      jumpi\n        /* \"#utility.yul\":1672:1673   */\n      0x00\n        /* \"#utility.yul\":1669:1670   */\n      0x00\n        /* \"#utility.yul\":1662:1674   */\n      revert\n        /* \"#utility.yul\":1613:1676   */\n    tag_418:\n        /* \"#utility.yul\":1560:1682   */\n      pop\n      jump\t// out\n        /* \"#utility.yul\":1688:1827   */\n    tag_345:\n        /* \"#utility.yul\":1734:1739   */\n      0x00\n        /* \"#utility.yul\":1772:1778   */\n      dup2\n        /* \"#utility.yul\":1759:1779   */\n      calldataload\n        /* \"#utility.yul\":1750:1779   */\n      swap1\n      pop\n        /* \"#utility.yul\":1788:1821   */\n      tag_420\n        /* \"#utility.yul\":1815:1820   */\n      dup2\n        /* \"#utility.yul\":1788:1821   */\n      tag_344\n      jump\t// in\n    tag_420:\n        /* \"#utility.yul\":1688:1827   */\n      swap3\n      swap2\n      pop\n      pop\n      jump\t// out\n        /* \"#utility.yul\":1833:1950   */\n    tag_346:\n        /* \"#utility.yul\":1942:1943   */\n      0x00\n        /* \"#utility.yul\":1939:1940   */\n      0x00\n        /* \"#utility.yul\":1932:1944   */\n      revert\n        /* \"#utility.yul\":1956:2073   */\n    tag_347:\n        /* \"#utility.yul\":2065:2066   */\n      0x00\n        /* \"#utility.yul\":2062:2063   */\n      0x00\n        /* \"#utility.yul\":2055:2067   */\n      revert\n        /* \"#utility.yul\":2079:2181   */\n    tag_348:\n        /* \"#utility.yul\":2120:2126   */\n      0x00\n        /* \"#utility.yul\":2171:2173   */\n      0x1f\n        /* \"#utility.yul\":2167:2174   */\n      not\n        /* \"#utility.yul\":2162:2164   */\n      0x1f\n        /* \"#utility.yul\":2155:2160   */\n      dup4\n        /* \"#utility.yul\":2151:2165   */\n      add\n        /* \"#utility.yul\":2147:2175   */\n      and\n        /* \"#utility.yul\":2137:2175   */\n      swap1\n      pop\n        /* \"#utility.yul\":2079:2181   */\n      swap2\n      swap1\n      pop\n      jump\t// out\n        /* \"#utility.yul\":2187:2367   */\n    tag_349:\n        /* \"#utility.yul\":2235:2312   */\n      0x4e487b7100000000000000000000000000000000000000000000000000000000\n        /* \"#utility.yul\":2232:2233   */\n      0x00\n        /* \"#utility.yul\":2225:2313   */\n      mstore\n        /* \"#utility.yul\":2332:2336   */\n      0x41\n        /* \"#utility.yul\":2329:2330   */\n      0x04\n        /* \"#utility.yul\":2322:2337   */\n      mstore\n        /* \"#utility.yul\":2356:2360   */\n      0x24\n        /* \"#utility.yul\":2353:2354   */\n      0x00\n        /* \"#utility.yul\":2346:2361   */\n      revert\n        /* \"#utility.yul\":2373:2654   */\n    tag_350:\n        /* \"#utility.yul\":2456:2483   */\n      tag_426\n        /* \"#utility.yul\":2478:2482   */\n      dup3\n        /* \"#utility.yul\":2456:2483   */\n      tag_348\n      jump\t// in\n    tag_426:\n        /* \"#utility.yul\":2448:2454   */\n      dup2\n        /* \"#utility.yul\":2444:2484   */\n      add\n        /* \"#utility.yul\":2586:2592   */\n      dup2\n        /* \"#utility.yul\":2574:2584   */\n      dup2\n        /* \"#utility.yul\":2571:2593   */\n      lt\n        /* \"#utility.yul\":2550:2568   */\n      0xffffffffffffffff\n        /* \"#utility.yul\":2538:2548   */\n      dup3\n        /* \"#utility.yul\":2535:2569   */\n      gt\n        /* \"#utility.yul\":2532:2594   */\n      or\n        /* \"#utility.yul\":2529:2617   */\n      iszero\n      tag_427\n      jumpi\n        /* \"#utility.yul\":2597:2615   */\n      tag_428\n      tag_349\n      jump\t// in\n    tag_428:\n        /* \"#utility.yul\":2529:2617   */\n    tag_427:\n        /* \"#utility.yul\":2637:2647   */\n      dup1\n        /* \"#utility.yul\":2633:2635   */\n      0x40\n        /* \"#utility.yul\":2626:2648   */\n      mstore\n        /* \"#utility.yul\":2416:2654   */\n      pop\n        /* \"#utility.yul\":2373:2654   */\n      pop\n      pop\n      jump\t// out\n        /* \"#utility.yul\":2660:2789   */\n    tag_351:\n        /* \"#utility.yul\":2694:2700   */\n      0x00\n        /* \"#utility.yul\":2721:2741   */\n      tag_430\n      tag_335\n      jump\t// in\n    tag_430:\n        /* \"#utility.yul\":2711:2741   */\n      swap1\n      pop\n        /* \"#utility.yul\":2750:2783   */\n      tag_431\n        /* \"#utility.yul\":2778:2782   */\n      dup3\n        /* \"#utility.yul\":2770:2776   */\n      dup3\n        /* \"#utility.yul\":2750:2783   */\n      tag_350\n      jump\t// in\n    tag_431:\n        /* \"#utility.yul\":2660:2789   */\n      swap2\n      swap1\n      pop\n      jump\t// out\n        /* \"#utility.yul\":2795:3102   */\n    tag_352:\n        /* \"#utility.yul\":2856:2860   */\n      0x00\n        /* \"#utility.yul\":2946:2964   */\n      0xffffffffffffffff\n        /* \"#utility.yul\":2938:2944   */\n      dup3\n        /* \"#utility.yul\":2935:2965   */\n      gt\n        /* \"#utility.yul\":2932:2988   */\n      iszero\n      tag_433\n      jumpi\n        /* \"#utility.yul\":2968:2986   */\n      tag_434\n      tag_349\n      jump\t// in\n    tag_434:\n        /* \"#utility.yul\":2932:2988   */\n    tag_433:\n        /* \"#utility.yul\":3006:3035   */\n      tag_435\n        /* \"#utility.yul\":3028:3034   */\n      dup3\n        /* \"#utility.yul\":3006:3035   */\n      tag_348\n      jump\t// in\n    tag_435:\n        /* \"#utility.yul\":2998:3035   */\n      swap1\n      pop\n        /* \"#utility.yul\":3090:3094   */\n      0x20\n        /* \"#utility.yul\":3084:3088   */\n      dup2\n        /* \"#utility.yul\":3080:3095   */\n      add\n        /* \"#utility.yul\":3072:3095   */\n      swap1\n      pop\n        /* \"#utility.yul\":2795:3102   */\n      swap2\n      swap1\n      pop\n      jump\t// out\n        /* \"#utility.yul\":3108:3256   */\n    tag_353:\n        /* \"#utility.yul\":3206:3212   */\n      dup3\n        /* \"#utility.yul\":3201:3204   */\n      dup2\n        /* \"#utility.yul\":3196:3199   */\n      dup4\n        /* \"#utility.yul\":3183:3213   */\n      calldatacopy\n        /* \"#utility.yul\":3247:3248   */\n      0x00\n        /* \"#utility.yul\":3238:3244   */\n      dup4\n        /* \"#utility.yul\":3233:3236   */\n      dup4\n        /* \"#utility.yul\":3229:3245   */\n      add\n        /* \"#utility.yul\":3222:3249   */\n      mstore\n        /* \"#utility.yul\":3108:3256   */\n      pop\n      pop\n      pop\n      jump\t// out\n        /* \"#utility.yul\":3262:3685   */\n    tag_354:\n        /* \"#utility.yul\":3339:3344   */\n      0x00\n        /* \"#utility.yul\":3364:3429   */\n      tag_438\n        /* \"#utility.yul\":3380:3428   */\n      tag_439\n        /* \"#utility.yul\":3421:3427   */\n      dup5\n        /* \"#utility.yul\":3380:3428   */\n      tag_352\n      jump\t// in\n    tag_439:\n        /* \"#utility.yul\":3364:3429   */\n      tag_351\n      jump\t// in\n    tag_438:\n        /* \"#utility.yul\":3355:3429   */\n      swap1\n      pop\n        /* \"#utility.yul\":3452:3458   */\n      dup3\n        /* \"#utility.yul\":3445:3450   */\n      dup2\n        /* \"#utility.yul\":3438:3459   */\n      mstore\n        /* \"#utility.yul\":3490:3494   */\n      0x20\n        /* \"#utility.yul\":3483:3488   */\n      dup2\n        /* \"#utility.yul\":3479:3495   */\n      add\n        /* \"#utility.yul\":3528:3531   */\n      dup5\n        /* \"#utility.yul\":3519:3525   */\n      dup5\n        /* \"#utility.yul\":3514:3517   */\n      dup5\n        /* \"#utility.yul\":3510:3526   */\n      add\n        /* \"#utility.yul\":3507:3532   */\n      gt\n        /* \"#utility.yul\":3504:3616   */\n      iszero\n      tag_440\n      jumpi\n        /* \"#utility.yul\":3535:3614   */\n      tag_441\n      tag_347\n      jump\t// in\n    tag_441:\n        /* \"#utility.yul\":3504:3616   */\n    tag_440:\n        /* \"#utility.yul\":3625:3679   */\n      tag_442\n        /* \"#utility.yul\":3672:3678   */\n      dup5\n        /* \"#utility.yul\":3667:3670   */\n      dup3\n        /* \"#utility.yul\":3662:3665   */\n      dup6\n        /* \"#utility.yul\":3625:3679   */\n      tag_353\n      jump\t// in\n    tag_442:\n        /* \"#utility.yul\":3345:3685   */\n      pop\n        /* \"#utility.yul\":3262:3685   */\n      swap4\n      swap3\n      pop\n      pop\n      pop\n      jump\t// out\n        /* \"#utility.yul\":3704:4042   */\n    tag_355:\n        /* \"#utility.yul\":3759:3764   */\n      0x00\n        /* \"#utility.yul\":3808:3811   */\n      dup3\n        /* \"#utility.yul\":3801:3805   */\n      0x1f\n        /* \"#utility.yul\":3793:3799   */\n      dup4\n        /* \"#utility.yul\":3789:3806   */\n      add\n        /* \"#utility.yul\":3785:3812   */\n      slt\n        /* \"#utility.yul\":3775:3897   */\n      tag_444\n      jumpi\n        /* \"#utility.yul\":3816:3895   */\n      tag_445\n      tag_346\n      jump\t// in\n    tag_445:\n        /* \"#utility.yul\":3775:3897   */\n    tag_444:\n        /* \"#utility.yul\":3933:3939   */\n      dup2\n        /* \"#utility.yul\":3920:3940   */\n      calldataload\n        /* \"#utility.yul\":3958:4036   */\n      tag_446\n        /* \"#utility.yul\":4032:4035   */\n      dup5\n        /* \"#utility.yul\":4024:4030   */\n      dup3\n        /* \"#utility.yul\":4017:4021   */\n      0x20\n        /* \"#utility.yul\":4009:4015   */\n      dup7\n        /* \"#utility.yul\":4005:4022   */\n      add\n        /* \"#utility.yul\":3958:4036   */\n      tag_354\n      jump\t// in\n    tag_446:\n        /* \"#utility.yul\":3949:4036   */\n      swap2\n      pop\n        /* \"#utility.yul\":3765:4042   */\n      pop\n        /* \"#utility.yul\":3704:4042   */\n      swap3\n      swap2\n      pop\n      pop\n      jump\t// out\n        /* \"#utility.yul\":4048:5023   */\n    tag_34:\n        /* \"#utility.yul\":4143:4149   */\n      0x00\n        /* \"#utility.yul\":4151:4157   */\n      0x00\n        /* \"#utility.yul\":4159:4165   */\n      0x00\n        /* \"#utility.yul\":4208:4210   */\n      0x60\n        /* \"#utility.yul\":4196:4205   */\n      dup5\n        /* \"#utility.yul\":4187:4194   */\n      dup7\n        /* \"#utility.yul\":4183:4206   */\n      sub\n        /* \"#utility.yul\":4179:4211   */\n      slt\n        /* \"#utility.yul\":4176:4295   */\n      iszero\n      tag_448\n      jumpi\n        /* \"#utility.yul\":4214:4293   */\n      tag_449\n      tag_336\n      jump\t// in\n    tag_449:\n        /* \"#utility.yul\":4176:4295   */\n    tag_448:\n        /* \"#utility.yul\":4334:4335   */\n      0x00\n        /* \"#utility.yul\":4359:4412   */\n      tag_450\n        /* \"#utility.yul\":4404:4411   */\n      dup7\n        /* \"#utility.yul\":4395:4401   */\n      dup3\n        /* \"#utility.yul\":4384:4393   */\n      dup8\n        /* \"#utility.yul\":4380:4402   */\n      add\n        /* \"#utility.yul\":4359:4412   */\n      tag_345\n      jump\t// in\n    tag_450:\n        /* \"#utility.yul\":4349:4412   */\n      swap4\n      pop\n        /* \"#utility.yul\":4305:4422   */\n      pop\n        /* \"#utility.yul\":4489:4491   */\n      0x20\n        /* \"#utility.yul\":4478:4487   */\n      dup5\n        /* \"#utility.yul\":4474:4492   */\n      add\n        /* \"#utility.yul\":4461:4493   */\n      calldataload\n        /* \"#utility.yul\":4520:4538   */\n      0xffffffffffffffff\n        /* \"#utility.yul\":4512:4518   */\n      dup2\n        /* \"#utility.yul\":4509:4539   */\n      gt\n        /* \"#utility.yul\":4506:4623   */\n      iszero\n      tag_451\n      jumpi\n        /* \"#utility.yul\":4542:4621   */\n      tag_452\n      tag_337\n      jump\t// in\n    tag_452:\n        /* \"#utility.yul\":4506:4623   */\n    tag_451:\n        /* \"#utility.yul\":4647:4709   */\n      tag_453\n        /* \"#utility.yul\":4701:4708   */\n      dup7\n        /* \"#utility.yul\":4692:4698   */\n      dup3\n        /* \"#utility.yul\":4681:4690   */\n      dup8\n        /* \"#utility.yul\":4677:4699   */\n      add\n        /* \"#utility.yul\":4647:4709   */\n      tag_355\n      jump\t// in\n    tag_453:\n        /* \"#utility.yul\":4637:4709   */\n      swap3\n      pop\n        /* \"#utility.yul\":4432:4719   */\n      pop\n        /* \"#utility.yul\":4786:4788   */\n      0x40\n        /* \"#utility.yul\":4775:4784   */\n      dup5\n        /* \"#utility.yul\":4771:4789   */\n      add\n        /* \"#utility.yul\":4758:4790   */\n      calldataload\n        /* \"#utility.yul\":4817:4835   */\n      0xffffffffffffffff\n        /* \"#utility.yul\":4809:4815   */\n      dup2\n        /* \"#utility.yul\":4806:4836   */\n      gt\n        /* \"#utility.yul\":4803:4920   */\n      iszero\n      tag_454\n      jumpi\n        /* \"#utility.yul\":4839:4918   */\n      tag_455\n      tag_337\n      jump\t// in\n    tag_455:\n        /* \"#utility.yul\":4803:4920   */\n    tag_454:\n        /* \"#utility.yul\":4944:5006   */\n      tag_456\n        /* \"#utility.yul\":4998:5005   */\n      dup7\n        /* \"#utility.yul\":4989:4995   */\n      dup3\n        /* \"#utility.yul\":4978:4987   */\n      dup8\n        /* \"#utility.yul\":4974:4996   */\n      add\n        /* \"#utility.yul\":4944:5006   */\n      tag_355\n      jump\t// in\n    tag_456:\n        /* \"#utility.yul\":4934:5006   */\n      swap2\n      pop\n        /* \"#utility.yul\":4729:5016   */\n      pop\n        /* \"#utility.yul\":4048:5023   */\n      swap3\n      pop\n      swap3\n      pop\n      swap3\n      jump\t// out\n        /* \"#utility.yul\":5029:5147   */\n    tag_356:\n        /* \"#utility.yul\":5116:5140   */\n      tag_458\n        /* \"#utility.yul\":5134:5139   */\n      dup2\n        /* \"#utility.yul\":5116:5140   */\n      tag_338\n      jump\t// in\n    tag_458:\n        /* \"#utility.yul\":5111:5114   */\n      dup3\n        /* \"#utility.yul\":5104:5141   */\n      mstore\n        /* \"#utility.yul\":5029:5147   */\n      pop\n      pop\n      jump\t// out\n        /* \"#utility.yul\":5153:5252   */\n    tag_357:\n        /* \"#utility.yul\":5205:5211   */\n      0x00\n        /* \"#utility.yul\":5239:5244   */\n      dup2\n        /* \"#utility.yul\":5233:5245   */\n      mload\n        /* \"#utility.yul\":5223:5245   */\n      swap1\n      pop\n        /* \"#utility.yul\":5153:5252   */\n      swap2\n      swap1\n      pop\n      jump\t// out\n        /* \"#utility.yul\":5258:5427   */\n    tag_358:\n        /* \"#utility.yul\":5342:5353   */\n      0x00\n        /* \"#utility.yul\":5376:5382   */\n      dup3\n        /* \"#utility.yul\":5371:5374   */\n      dup3\n        /* \"#utility.yul\":5364:5383   */\n      mstore\n        /* \"#utility.yul\":5416:5420   */\n      0x20\n        /* \"#utility.yul\":5411:5414   */\n      dup3\n        /* \"#utility.yul\":5407:5421   */\n      add\n        /* \"#utility.yul\":5392:5421   */\n      swap1\n      pop\n        /* \"#utility.yul\":5258:5427   */\n      swap3\n      swap2\n      pop\n      pop\n      jump\t// out\n        /* \"#utility.yul\":5433:5572   */\n    tag_359:\n        /* \"#utility.yul\":5522:5528   */\n      dup3\n        /* \"#utility.yul\":5517:5520   */\n      dup2\n        /* \"#utility.yul\":5512:5515   */\n      dup4\n        /* \"#utility.yul\":5506:5529   */\n      mcopy\n        /* \"#utility.yul\":5563:5564   */\n      0x00\n        /* \"#utility.yul\":5554:5560   */\n      dup4\n        /* \"#utility.yul\":5549:5552   */\n      dup4\n        /* \"#utility.yul\":5545:5561   */\n      add\n        /* \"#utility.yul\":5538:5565   */\n      mstore\n        /* \"#utility.yul\":5433:5572   */\n      pop\n      pop\n      pop\n      jump\t// out\n        /* \"#utility.yul\":5578:5955   */\n    tag_360:\n        /* \"#utility.yul\":5666:5669   */\n      0x00\n        /* \"#utility.yul\":5694:5733   */\n      tag_463\n        /* \"#utility.yul\":5727:5732   */\n      dup3\n        /* \"#utility.yul\":5694:5733   */\n      tag_357\n      jump\t// in\n    tag_463:\n        /* \"#utility.yul\":5749:5820   */\n      tag_464\n        /* \"#utility.yul\":5813:5819   */\n      dup2\n        /* \"#utility.yul\":5808:5811   */\n      dup6\n        /* \"#utility.yul\":5749:5820   */\n      tag_358\n      jump\t// in\n    tag_464:\n        /* \"#utility.yul\":5742:5820   */\n      swap4\n      pop\n        /* \"#utility.yul\":5829:5894   */\n      tag_465\n        /* \"#utility.yul\":5887:5893   */\n      dup2\n        /* \"#utility.yul\":5882:5885   */\n      dup6\n        /* \"#utility.yul\":5875:5879   */\n      0x20\n        /* \"#utility.yul\":5868:5873   */\n      dup7\n        /* \"#utility.yul\":5864:5880   */\n      add\n        /* \"#utility.yul\":5829:5894   */\n      tag_359\n      jump\t// in\n    tag_465:\n        /* \"#utility.yul\":5919:5948   */\n      tag_466\n        /* \"#utility.yul\":5941:5947   */\n      dup2\n        /* \"#utility.yul\":5919:5948   */\n      tag_348\n      jump\t// in\n    tag_466:\n        /* \"#utility.yul\":5914:5917   */\n      dup5\n        /* \"#utility.yul\":5910:5949   */\n      add\n        /* \"#utility.yul\":5903:5949   */\n      swap2\n      pop\n        /* \"#utility.yul\":5670:5955   */\n      pop\n        /* \"#utility.yul\":5578:5955   */\n      swap3\n      swap2\n      pop\n      pop\n      jump\t// out\n        /* \"#utility.yul\":5961:6605   */\n    tag_39:\n        /* \"#utility.yul\":6158:6162   */\n      0x00\n        /* \"#utility.yul\":6196:6199   */\n      0x80\n        /* \"#utility.yul\":6185:6194   */\n      dup3\n        /* \"#utility.yul\":6181:6200   */\n      add\n        /* \"#utility.yul\":6173:6200   */\n      swap1\n      pop\n        /* \"#utility.yul\":6210:6281   */\n      tag_468\n        /* \"#utility.yul\":6278:6279   */\n      0x00\n        /* \"#utility.yul\":6267:6276   */\n      dup4\n        /* \"#utility.yul\":6263:6280   */\n      add\n        /* \"#utility.yul\":6254:6260   */\n      dup8\n        /* \"#utility.yul\":6210:6281   */\n      tag_356\n      jump\t// in\n    tag_468:\n        /* \"#utility.yul\":6291:6363   */\n      tag_469\n        /* \"#utility.yul\":6359:6361   */\n      0x20\n        /* \"#utility.yul\":6348:6357   */\n      dup4\n        /* \"#utility.yul\":6344:6362   */\n      add\n        /* \"#utility.yul\":6335:6341   */\n      dup7\n        /* \"#utility.yul\":6291:6363   */\n      tag_356\n      jump\t// in\n    tag_469:\n        /* \"#utility.yul\":6373:6445   */\n      tag_470\n        /* \"#utility.yul\":6441:6443   */\n      0x40\n        /* \"#utility.yul\":6430:6439   */\n      dup4\n        /* \"#utility.yul\":6426:6444   */\n      add\n        /* \"#utility.yul\":6417:6423   */\n      dup6\n        /* \"#utility.yul\":6373:6445   */\n      tag_356\n      jump\t// in\n    tag_470:\n        /* \"#utility.yul\":6492:6501   */\n      dup2\n        /* \"#utility.yul\":6486:6490   */\n      dup2\n        /* \"#utility.yul\":6482:6502   */\n      sub\n        /* \"#utility.yul\":6477:6479   */\n      0x60\n        /* \"#utility.yul\":6466:6475   */\n      dup4\n        /* \"#utility.yul\":6462:6480   */\n      add\n        /* \"#utility.yul\":6455:6503   */\n      mstore\n        /* \"#utility.yul\":6520:6598   */\n      tag_471\n        /* \"#utility.yul\":6593:6597   */\n      dup2\n        /* \"#utility.yul\":6584:6590   */\n      dup5\n        /* \"#utility.yul\":6520:6598   */\n      tag_360\n      jump\t// in\n    tag_471:\n        /* \"#utility.yul\":6512:6598   */\n      swap1\n      pop\n        /* \"#utility.yul\":5961:6605   */\n      swap6\n      swap5\n      pop\n      pop\n      pop\n      pop\n      pop\n      jump\t// out\n        /* \"#utility.yul\":6611:6701   */\n    tag_361:\n        /* \"#utility.yul\":6645:6652   */\n      0x00\n        /* \"#utility.yul\":6688:6693   */\n      dup2\n        /* \"#utility.yul\":6681:6694   */\n      iszero\n        /* \"#utility.yul\":6674:6695   */\n      iszero\n        /* \"#utility.yul\":6663:6695   */\n      swap1\n      pop\n        /* \"#utility.yul\":6611:6701   */\n      swap2\n      swap1\n      pop\n      jump\t// out\n        /* \"#utility.yul\":6707:6816   */\n    tag_362:\n        /* \"#utility.yul\":6788:6809   */\n      tag_474\n        /* \"#utility.yul\":6803:6808   */\n      dup2\n        /* \"#utility.yul\":6788:6809   */\n      tag_361\n      jump\t// in\n    tag_474:\n        /* \"#utility.yul\":6783:6786   */\n      dup3\n        /* \"#utility.yul\":6776:6810   */\n      mstore\n        /* \"#utility.yul\":6707:6816   */\n      pop\n      pop\n      jump\t// out\n        /* \"#utility.yul\":6822:7032   */\n    tag_43:\n        /* \"#utility.yul\":6909:6913   */\n      0x00\n        /* \"#utility.yul\":6947:6949   */\n      0x20\n        /* \"#utility.yul\":6936:6945   */\n      dup3\n        /* \"#utility.yul\":6932:6950   */\n      add\n        /* \"#utility.yul\":6924:6950   */\n      swap1\n      pop\n        /* \"#utility.yul\":6960:7025   */\n      tag_476\n        /* \"#utility.yul\":7022:7023   */\n      0x00\n        /* \"#utility.yul\":7011:7020   */\n      dup4\n        /* \"#utility.yul\":7007:7024   */\n      add\n        /* \"#utility.yul\":6998:7004   */\n      dup5\n        /* \"#utility.yul\":6960:7025   */\n      tag_362\n      jump\t// in\n    tag_476:\n        /* \"#utility.yul\":6822:7032   */\n      swap3\n      swap2\n      pop\n      pop\n      jump\t// out\n        /* \"#utility.yul\":7038:7156   */\n    tag_363:\n        /* \"#utility.yul\":7125:7149   */\n      tag_478\n        /* \"#utility.yul\":7143:7148   */\n      dup2\n        /* \"#utility.yul\":7125:7149   */\n      tag_343\n      jump\t// in\n    tag_478:\n        /* \"#utility.yul\":7120:7123   */\n      dup3\n        /* \"#utility.yul\":7113:7150   */\n      mstore\n        /* \"#utility.yul\":7038:7156   */\n      pop\n      pop\n      jump\t// out\n        /* \"#utility.yul\":7162:7384   */\n    tag_47:\n        /* \"#utility.yul\":7255:7259   */\n      0x00\n        /* \"#utility.yul\":7293:7295   */\n      0x20\n        /* \"#utility.yul\":7282:7291   */\n      dup3\n        /* \"#utility.yul\":7278:7296   */\n      add\n        /* \"#utility.yul\":7270:7296   */\n      swap1\n      pop\n        /* \"#utility.yul\":7306:7377   */\n      tag_480\n        /* \"#utility.yul\":7374:7375   */\n      0x00\n        /* \"#utility.yul\":7363:7372   */\n      dup4\n        /* \"#utility.yul\":7359:7376   */\n      add\n        /* \"#utility.yul\":7350:7356   */\n      dup5\n        /* \"#utility.yul\":7306:7377   */\n      tag_363\n      jump\t// in\n    tag_480:\n        /* \"#utility.yul\":7162:7384   */\n      swap3\n      swap2\n      pop\n      pop\n      jump\t// out\n        /* \"#utility.yul\":7390:7516   */\n    tag_364:\n        /* \"#utility.yul\":7427:7434   */\n      0x00\n        /* \"#utility.yul\":7467:7509   */\n      0xffffffffffffffffffffffffffffffffffffffff\n        /* \"#utility.yul\":7460:7465   */\n      dup3\n        /* \"#utility.yul\":7456:7510   */\n      and\n        /* \"#utility.yul\":7445:7510   */\n      swap1\n      pop\n        /* \"#utility.yul\":7390:7516   */\n      swap2\n      swap1\n      pop\n      jump\t// out\n        /* \"#utility.yul\":7522:7618   */\n    tag_365:\n        /* \"#utility.yul\":7559:7566   */\n      0x00\n        /* \"#utility.yul\":7588:7612   */\n      tag_483\n        /* \"#utility.yul\":7606:7611   */\n      dup3\n        /* \"#utility.yul\":7588:7612   */\n      tag_364\n      jump\t// in\n    tag_483:\n        /* \"#utility.yul\":7577:7612   */\n      swap1\n      pop\n        /* \"#utility.yul\":7522:7618   */\n      swap2\n      swap1\n      pop\n      jump\t// out\n        /* \"#utility.yul\":7624:7742   */\n    tag_366:\n        /* \"#utility.yul\":7711:7735   */\n      tag_485\n        /* \"#utility.yul\":7729:7734   */\n      dup2\n        /* \"#utility.yul\":7711:7735   */\n      tag_365\n      jump\t// in\n    tag_485:\n        /* \"#utility.yul\":7706:7709   */\n      dup3\n        /* \"#utility.yul\":7699:7736   */\n      mstore\n        /* \"#utility.yul\":7624:7742   */\n      pop\n      pop\n      jump\t// out\n        /* \"#utility.yul\":7748:7970   */\n    tag_53:\n        /* \"#utility.yul\":7841:7845   */\n      0x00\n        /* \"#utility.yul\":7879:7881   */\n      0x20\n        /* \"#utility.yul\":7868:7877   */\n      dup3\n        /* \"#utility.yul\":7864:7882   */\n      add\n        /* \"#utility.yul\":7856:7882   */\n      swap1\n      pop\n        /* \"#utility.yul\":7892:7963   */\n      tag_487\n        /* \"#utility.yul\":7960:7961   */\n      0x00\n        /* \"#utility.yul\":7949:7958   */\n      dup4\n        /* \"#utility.yul\":7945:7962   */\n      add\n        /* \"#utility.yul\":7936:7942   */\n      dup5\n        /* \"#utility.yul\":7892:7963   */\n      tag_366\n      jump\t// in\n    tag_487:\n        /* \"#utility.yul\":7748:7970   */\n      swap3\n      swap2\n      pop\n      pop\n      jump\t// out\n        /* \"#utility.yul\":7976:8198   */\n    tag_57:\n        /* \"#utility.yul\":8069:8073   */\n      0x00\n        /* \"#utility.yul\":8107:8109   */\n      0x20\n        /* \"#utility.yul\":8096:8105   */\n      dup3\n        /* \"#utility.yul\":8092:8110   */\n      add\n        /* \"#utility.yul\":8084:8110   */\n      swap1\n      pop\n        /* \"#utility.yul\":8120:8191   */\n      tag_489\n        /* \"#utility.yul\":8188:8189   */\n      0x00\n        /* \"#utility.yul\":8177:8186   */\n      dup4\n        /* \"#utility.yul\":8173:8190   */\n      add\n        /* \"#utility.yul\":8164:8170   */\n      dup5\n        /* \"#utility.yul\":8120:8191   */\n      tag_356\n      jump\t// in\n    tag_489:\n        /* \"#utility.yul\":7976:8198   */\n      swap3\n      swap2\n      pop\n      pop\n      jump\t// out\n        /* \"#utility.yul\":8204:8868   */\n    tag_61:\n        /* \"#utility.yul\":8409:8413   */\n      0x00\n        /* \"#utility.yul\":8447:8450   */\n      0xa0\n        /* \"#utility.yul\":8436:8445   */\n      dup3\n        /* \"#utility.yul\":8432:8451   */\n      add\n        /* \"#utility.yul\":8424:8451   */\n      swap1\n      pop\n        /* \"#utility.yul\":8461:8532   */\n      tag_491\n        /* \"#utility.yul\":8529:8530   */\n      0x00\n        /* \"#utility.yul\":8518:8527   */\n      dup4\n        /* \"#utility.yul\":8514:8531   */\n      add\n        /* \"#utility.yul\":8505:8511   */\n      dup9\n        /* \"#utility.yul\":8461:8532   */\n      tag_356\n      jump\t// in\n    tag_491:\n        /* \"#utility.yul\":8542:8614   */\n      tag_492\n        /* \"#utility.yul\":8610:8612   */\n      0x20\n        /* \"#utility.yul\":8599:8608   */\n      dup4\n        /* \"#utility.yul\":8595:8613   */\n      add\n        /* \"#utility.yul\":8586:8592   */\n      dup8\n        /* \"#utility.yul\":8542:8614   */\n      tag_356\n      jump\t// in\n    tag_492:\n        /* \"#utility.yul\":8624:8696   */\n      tag_493\n        /* \"#utility.yul\":8692:8694   */\n      0x40\n        /* \"#utility.yul\":8681:8690   */\n      dup4\n        /* \"#utility.yul\":8677:8695   */\n      add\n        /* \"#utility.yul\":8668:8674   */\n      dup7\n        /* \"#utility.yul\":8624:8696   */\n      tag_356\n      jump\t// in\n    tag_493:\n        /* \"#utility.yul\":8706:8778   */\n      tag_494\n        /* \"#utility.yul\":8774:8776   */\n      0x60\n        /* \"#utility.yul\":8763:8772   */\n      dup4\n        /* \"#utility.yul\":8759:8777   */\n      add\n        /* \"#utility.yul\":8750:8756   */\n      dup6\n        /* \"#utility.yul\":8706:8778   */\n      tag_356\n      jump\t// in\n    tag_494:\n        /* \"#utility.yul\":8788:8861   */\n      tag_495\n        /* \"#utility.yul\":8856:8859   */\n      0x80\n        /* \"#utility.yul\":8845:8854   */\n      dup4\n        /* \"#utility.yul\":8841:8860   */\n      add\n        /* \"#utility.yul\":8832:8838   */\n      dup5\n        /* \"#utility.yul\":8788:8861   */\n      tag_363\n      jump\t// in\n    tag_495:\n        /* \"#utility.yul\":8204:8868   */\n      swap7\n      swap6\n      pop\n      pop\n      pop\n      pop\n      pop\n      pop\n      jump\t// out\n        /* \"#utility.yul\":8874:8994   */\n    tag_367:\n        /* \"#utility.yul\":8946:8969   */\n      tag_497\n        /* \"#utility.yul\":8963:8968   */\n      dup2\n        /* \"#utility.yul\":8946:8969   */\n      tag_341\n      jump\t// in\n    tag_497:\n        /* \"#utility.yul\":8939:8944   */\n      dup2\n        /* \"#utility.yul\":8936:8970   */\n      eq\n        /* \"#utility.yul\":8926:8988   */\n      tag_498\n      jumpi\n        /* \"#utility.yul\":8984:8985   */\n      0x00\n        /* \"#utility.yul\":8981:8982   */\n      0x00\n        /* \"#utility.yul\":8974:8986   */\n      revert\n        /* \"#utility.yul\":8926:8988   */\n    tag_498:\n        /* \"#utility.yul\":8874:8994   */\n      pop\n      jump\t// out\n        /* \"#utility.yul\":9000:9137   */\n    tag_368:\n        /* \"#utility.yul\":9045:9050   */\n      0x00\n        /* \"#utility.yul\":9083:9089   */\n      dup2\n        /* \"#utility.yul\":9070:9090   */\n      calldataload\n        /* \"#utility.yul\":9061:9090   */\n      swap1\n      pop\n        /* \"#utility.yul\":9099:9131   */\n      tag_500\n        /* \"#utility.yul\":9125:9130   */\n      dup2\n        /* \"#utility.yul\":9099:9131   */\n      tag_367\n      jump\t// in\n    tag_500:\n        /* \"#utility.yul\":9000:9137   */\n      swap3\n      swap2\n      pop\n      pop\n      jump\t// out\n        /* \"#utility.yul\":9143:9236   */\n    tag_369:\n        /* \"#utility.yul\":9179:9186   */\n      0x00\n        /* \"#utility.yul\":9219:9229   */\n      0xffffffff\n        /* \"#utility.yul\":9212:9217   */\n      dup3\n        /* \"#utility.yul\":9208:9230   */\n      and\n        /* \"#utility.yul\":9197:9230   */\n      swap1\n      pop\n        /* \"#utility.yul\":9143:9236   */\n      swap2\n      swap1\n      pop\n      jump\t// out\n        /* \"#utility.yul\":9242:9362   */\n    tag_370:\n        /* \"#utility.yul\":9314:9337   */\n      tag_503\n        /* \"#utility.yul\":9331:9336   */\n      dup2\n        /* \"#utility.yul\":9314:9337   */\n      tag_369\n      jump\t// in\n    tag_503:\n        /* \"#utility.yul\":9307:9312   */\n      dup2\n        /* \"#utility.yul\":9304:9338   */\n      eq\n        /* \"#utility.yul\":9294:9356   */\n      tag_504\n      jumpi\n        /* \"#utility.yul\":9352:9353   */\n      0x00\n        /* \"#utility.yul\":9349:9350   */\n      0x00\n        /* \"#utility.yul\":9342:9354   */\n      revert\n        /* \"#utility.yul\":9294:9356   */\n    tag_504:\n        /* \"#utility.yul\":9242:9362   */\n      pop\n      jump\t// out\n        /* \"#utility.yul\":9368:9505   */\n    tag_371:\n        /* \"#utility.yul\":9413:9418   */\n      0x00\n        /* \"#utility.yul\":9451:9457   */\n      dup2\n        /* \"#utility.yul\":9438:9458   */\n      calldataload\n        /* \"#utility.yul\":9429:9458   */\n      swap1\n      pop\n        /* \"#utility.yul\":9467:9499   */\n      tag_506\n        /* \"#utility.yul\":9493:9498   */\n      dup2\n        /* \"#utility.yul\":9467:9499   */\n      tag_370\n      jump\t// in\n    tag_506:\n        /* \"#utility.yul\":9368:9505   */\n      swap3\n      swap2\n      pop\n      pop\n      jump\t// out\n        /* \"#utility.yul\":9511:10126   */\n    tag_70:\n        /* \"#utility.yul\":9586:9592   */\n      0x00\n        /* \"#utility.yul\":9594:9600   */\n      0x00\n        /* \"#utility.yul\":9602:9608   */\n      0x00\n        /* \"#utility.yul\":9651:9653   */\n      0x60\n        /* \"#utility.yul\":9639:9648   */\n      dup5\n        /* \"#utility.yul\":9630:9637   */\n      dup7\n        /* \"#utility.yul\":9626:9649   */\n      sub\n        /* \"#utility.yul\":9622:9654   */\n      slt\n        /* \"#utility.yul\":9619:9738   */\n      iszero\n      tag_508\n      jumpi\n        /* \"#utility.yul\":9657:9736   */\n      tag_509\n      tag_336\n      jump\t// in\n    tag_509:\n        /* \"#utility.yul\":9619:9738   */\n    tag_508:\n        /* \"#utility.yul\":9777:9778   */\n      0x00\n        /* \"#utility.yul\":9802:9854   */\n      tag_510\n        /* \"#utility.yul\":9846:9853   */\n      dup7\n        /* \"#utility.yul\":9837:9843   */\n      dup3\n        /* \"#utility.yul\":9826:9835   */\n      dup8\n        /* \"#utility.yul\":9822:9844   */\n      add\n        /* \"#utility.yul\":9802:9854   */\n      tag_368\n      jump\t// in\n    tag_510:\n        /* \"#utility.yul\":9792:9854   */\n      swap4\n      pop\n        /* \"#utility.yul\":9748:9864   */\n      pop\n        /* \"#utility.yul\":9903:9905   */\n      0x20\n        /* \"#utility.yul\":9929:9981   */\n      tag_511\n        /* \"#utility.yul\":9973:9980   */\n      dup7\n        /* \"#utility.yul\":9964:9970   */\n      dup3\n        /* \"#utility.yul\":9953:9962   */\n      dup8\n        /* \"#utility.yul\":9949:9971   */\n      add\n        /* \"#utility.yul\":9929:9981   */\n      tag_371\n      jump\t// in\n    tag_511:\n        /* \"#utility.yul\":9919:9981   */\n      swap3\n      pop\n        /* \"#utility.yul\":9874:9991   */\n      pop\n        /* \"#utility.yul\":10030:10032   */\n      0x40\n        /* \"#utility.yul\":10056:10109   */\n      tag_512\n        /* \"#utility.yul\":10101:10108   */\n      dup7\n        /* \"#utility.yul\":10092:10098   */\n      dup3\n        /* \"#utility.yul\":10081:10090   */\n      dup8\n        /* \"#utility.yul\":10077:10099   */\n      add\n        /* \"#utility.yul\":10056:10109   */\n      tag_345\n      jump\t// in\n    tag_512:\n        /* \"#utility.yul\":10046:10109   */\n      swap2\n      pop\n        /* \"#utility.yul\":10001:10119   */\n      pop\n        /* \"#utility.yul\":9511:10126   */\n      swap3\n      pop\n      swap3\n      pop\n      swap3\n      jump\t// out\n        /* \"#utility.yul\":10132:10254   */\n    tag_372:\n        /* \"#utility.yul\":10205:10229   */\n      tag_514\n        /* \"#utility.yul\":10223:10228   */\n      dup2\n        /* \"#utility.yul\":10205:10229   */\n      tag_365\n      jump\t// in\n    tag_514:\n        /* \"#utility.yul\":10198:10203   */\n      dup2\n        /* \"#utility.yul\":10195:10230   */\n      eq\n        /* \"#utility.yul\":10185:10248   */\n      tag_515\n      jumpi\n        /* \"#utility.yul\":10244:10245   */\n      0x00\n        /* \"#utility.yul\":10241:10242   */\n      0x00\n        /* \"#utility.yul\":10234:10246   */\n      revert\n        /* \"#utility.yul\":10185:10248   */\n    tag_515:\n        /* \"#utility.yul\":10132:10254   */\n      pop\n      jump\t// out\n        /* \"#utility.yul\":10260:10399   */\n    tag_373:\n        /* \"#utility.yul\":10306:10311   */\n      0x00\n        /* \"#utility.yul\":10344:10350   */\n      dup2\n        /* \"#utility.yul\":10331:10351   */\n      calldataload\n        /* \"#utility.yul\":10322:10351   */\n      swap1\n      pop\n        /* \"#utility.yul\":10360:10393   */\n      tag_517\n        /* \"#utility.yul\":10387:10392   */\n      dup2\n        /* \"#utility.yul\":10360:10393   */\n      tag_372\n      jump\t// in\n    tag_517:\n        /* \"#utility.yul\":10260:10399   */\n      swap3\n      swap2\n      pop\n      pop\n      jump\t// out\n        /* \"#utility.yul\":10405:10734   */\n    tag_77:\n        /* \"#utility.yul\":10464:10470   */\n      0x00\n        /* \"#utility.yul\":10513:10515   */\n      0x20\n        /* \"#utility.yul\":10501:10510   */\n      dup3\n        /* \"#utility.yul\":10492:10499   */\n      dup5\n        /* \"#utility.yul\":10488:10511   */\n      sub\n        /* \"#utility.yul\":10484:10516   */\n      slt\n        /* \"#utility.yul\":10481:10600   */\n      iszero\n      tag_519\n      jumpi\n        /* \"#utility.yul\":10519:10598   */\n      tag_520\n      tag_336\n      jump\t// in\n    tag_520:\n        /* \"#utility.yul\":10481:10600   */\n    tag_519:\n        /* \"#utility.yul\":10639:10640   */\n      0x00\n        /* \"#utility.yul\":10664:10717   */\n      tag_521\n        /* \"#utility.yul\":10709:10716   */\n      dup5\n        /* \"#utility.yul\":10700:10706   */\n      dup3\n        /* \"#utility.yul\":10689:10698   */\n      dup6\n        /* \"#utility.yul\":10685:10707   */\n      add\n        /* \"#utility.yul\":10664:10717   */\n      tag_373\n      jump\t// in\n    tag_521:\n        /* \"#utility.yul\":10654:10717   */\n      swap2\n      pop\n        /* \"#utility.yul\":10610:10727   */\n      pop\n        /* \"#utility.yul\":10405:10734   */\n      swap3\n      swap2\n      pop\n      pop\n      jump\t// out\n        /* \"#utility.yul\":10740:10855   */\n    tag_374:\n        /* \"#utility.yul\":10825:10848   */\n      tag_523\n        /* \"#utility.yul\":10842:10847   */\n      dup2\n        /* \"#utility.yul\":10825:10848   */\n      tag_369\n      jump\t// in\n    tag_523:\n        /* \"#utility.yul\":10820:10823   */\n      dup3\n        /* \"#utility.yul\":10813:10849   */\n      mstore\n        /* \"#utility.yul\":10740:10855   */\n      pop\n      pop\n      jump\t// out\n        /* \"#utility.yul\":10861:11079   */\n    tag_82:\n        /* \"#utility.yul\":10952:10956   */\n      0x00\n        /* \"#utility.yul\":10990:10992   */\n      0x20\n        /* \"#utility.yul\":10979:10988   */\n      dup3\n        /* \"#utility.yul\":10975:10993   */\n      add\n        /* \"#utility.yul\":10967:10993   */\n      swap1\n      pop\n        /* \"#utility.yul\":11003:11072   */\n      tag_525\n        /* \"#utility.yul\":11069:11070   */\n      0x00\n        /* \"#utility.yul\":11058:11067   */\n      dup4\n        /* \"#utility.yul\":11054:11071   */\n      add\n        /* \"#utility.yul\":11045:11051   */\n      dup5\n        /* \"#utility.yul\":11003:11072   */\n      tag_374\n      jump\t// in\n    tag_525:\n        /* \"#utility.yul\":10861:11079   */\n      swap3\n      swap2\n      pop\n      pop\n      jump\t// out\n        /* \"#utility.yul\":11085:11263   */\n    tag_375:\n        /* \"#utility.yul\":11225:11255   */\n      0x5072696365206d7573742062652067726561746572207468616e203000000000\n        /* \"#utility.yul\":11221:11222   */\n      0x00\n        /* \"#utility.yul\":11213:11219   */\n      dup3\n        /* \"#utility.yul\":11209:11223   */\n      add\n        /* \"#utility.yul\":11202:11256   */\n      mstore\n        /* \"#utility.yul\":11085:11263   */\n      pop\n      jump\t// out\n        /* \"#utility.yul\":11269:11635   */\n    tag_376:\n        /* \"#utility.yul\":11411:11414   */\n      0x00\n        /* \"#utility.yul\":11432:11499   */\n      tag_528\n        /* \"#utility.yul\":11496:11498   */\n      0x1c\n        /* \"#utility.yul\":11491:11494   */\n      dup4\n        /* \"#utility.yul\":11432:11499   */\n      tag_358\n      jump\t// in\n    tag_528:\n        /* \"#utility.yul\":11425:11499   */\n      swap2\n      pop\n        /* \"#utility.yul\":11508:11601   */\n      tag_529\n        /* \"#utility.yul\":11597:11600   */\n      dup3\n        /* \"#utility.yul\":11508:11601   */\n      tag_375\n      jump\t// in\n    tag_529:\n        /* \"#utility.yul\":11626:11628   */\n      0x20\n        /* \"#utility.yul\":11621:11624   */\n      dup3\n        /* \"#utility.yul\":11617:11629   */\n      add\n        /* \"#utility.yul\":11610:11629   */\n      swap1\n      pop\n        /* \"#utility.yul\":11269:11635   */\n      swap2\n      swap1\n      pop\n      jump\t// out\n        /* \"#utility.yul\":11641:12060   */\n    tag_95:\n        /* \"#utility.yul\":11807:11811   */\n      0x00\n        /* \"#utility.yul\":11845:11847   */\n      0x20\n        /* \"#utility.yul\":11834:11843   */\n      dup3\n        /* \"#utility.yul\":11830:11848   */\n      add\n        /* \"#utility.yul\":11822:11848   */\n      swap1\n      pop\n        /* \"#utility.yul\":11894:11903   */\n      dup2\n        /* \"#utility.yul\":11888:11892   */\n      dup2\n        /* \"#utility.yul\":11884:11904   */\n      sub\n        /* \"#utility.yul\":11880:11881   */\n      0x00\n        /* \"#utility.yul\":11869:11878   */\n      dup4\n        /* \"#utility.yul\":11865:11882   */\n      add\n        /* \"#utility.yul\":11858:11905   */\n      mstore\n        /* \"#utility.yul\":11922:12053   */\n      tag_531\n        /* \"#utility.yul\":12048:12052   */\n      dup2\n        /* \"#utility.yul\":11922:12053   */\n      tag_376\n      jump\t// in\n    tag_531:\n        /* \"#utility.yul\":11914:12053   */\n      swap1\n      pop\n        /* \"#utility.yul\":11641:12060   */\n      swap2\n      swap1\n      pop\n      jump\t// out\n        /* \"#utility.yul\":12066:12246   */\n    tag_377:\n        /* \"#utility.yul\":12114:12191   */\n      0x4e487b7100000000000000000000000000000000000000000000000000000000\n        /* \"#utility.yul\":12111:12112   */\n      0x00\n        /* \"#utility.yul\":12104:12192   */\n      mstore\n        /* \"#utility.yul\":12211:12215   */\n      0x11\n        /* \"#utility.yul\":12208:12209   */\n      0x04\n        /* \"#utility.yul\":12201:12216   */\n      mstore\n        /* \"#utility.yul\":12235:12239   */\n      0x24\n        /* \"#utility.yul\":12232:12233   */\n      0x00\n        /* \"#utility.yul\":12225:12240   */\n      revert\n        /* \"#utility.yul\":12252:12662   */\n    tag_97:\n        /* \"#utility.yul\":12292:12299   */\n      0x00\n        /* \"#utility.yul\":12315:12335   */\n      tag_534\n        /* \"#utility.yul\":12333:12334   */\n      dup3\n        /* \"#utility.yul\":12315:12335   */\n      tag_338\n      jump\t// in\n    tag_534:\n        /* \"#utility.yul\":12310:12335   */\n      swap2\n      pop\n        /* \"#utility.yul\":12349:12369   */\n      tag_535\n        /* \"#utility.yul\":12367:12368   */\n      dup4\n        /* \"#utility.yul\":12349:12369   */\n      tag_338\n      jump\t// in\n    tag_535:\n        /* \"#utility.yul\":12344:12369   */\n      swap3\n      pop\n        /* \"#utility.yul\":12404:12405   */\n      dup3\n        /* \"#utility.yul\":12401:12402   */\n      dup3\n        /* \"#utility.yul\":12397:12406   */\n      mul\n        /* \"#utility.yul\":12426:12456   */\n      tag_536\n        /* \"#utility.yul\":12444:12455   */\n      dup2\n        /* \"#utility.yul\":12426:12456   */\n      tag_338\n      jump\t// in\n    tag_536:\n        /* \"#utility.yul\":12415:12456   */\n      swap2\n      pop\n        /* \"#utility.yul\":12605:12606   */\n      dup3\n        /* \"#utility.yul\":12596:12603   */\n      dup3\n        /* \"#utility.yul\":12592:12607   */\n      div\n        /* \"#utility.yul\":12589:12590   */\n      dup5\n        /* \"#utility.yul\":12586:12608   */\n      eq\n        /* \"#utility.yul\":12566:12567   */\n      dup4\n        /* \"#utility.yul\":12559:12568   */\n      iszero\n        /* \"#utility.yul\":12539:12622   */\n      or\n        /* \"#utility.yul\":12516:12655   */\n      tag_537\n      jumpi\n        /* \"#utility.yul\":12635:12653   */\n      tag_538\n      tag_377\n      jump\t// in\n    tag_538:\n        /* \"#utility.yul\":12516:12655   */\n    tag_537:\n        /* \"#utility.yul\":12300:12662   */\n      pop\n        /* \"#utility.yul\":12252:12662   */\n      swap3\n      swap2\n      pop\n      pop\n      jump\t// out\n        /* \"#utility.yul\":12668:13000   */\n    tag_99:\n        /* \"#utility.yul\":12789:12793   */\n      0x00\n        /* \"#utility.yul\":12827:12829   */\n      0x40\n        /* \"#utility.yul\":12816:12825   */\n      dup3\n        /* \"#utility.yul\":12812:12830   */\n      add\n        /* \"#utility.yul\":12804:12830   */\n      swap1\n      pop\n        /* \"#utility.yul\":12840:12911   */\n      tag_540\n        /* \"#utility.yul\":12908:12909   */\n      0x00\n        /* \"#utility.yul\":12897:12906   */\n      dup4\n        /* \"#utility.yul\":12893:12910   */\n      add\n        /* \"#utility.yul\":12884:12890   */\n      dup6\n        /* \"#utility.yul\":12840:12911   */\n      tag_356\n      jump\t// in\n    tag_540:\n        /* \"#utility.yul\":12921:12993   */\n      tag_541\n        /* \"#utility.yul\":12989:12991   */\n      0x20\n        /* \"#utility.yul\":12978:12987   */\n      dup4\n        /* \"#utility.yul\":12974:12992   */\n      add\n        /* \"#utility.yul\":12965:12971   */\n      dup5\n        /* \"#utility.yul\":12921:12993   */\n      tag_356\n      jump\t// in\n    tag_541:\n        /* \"#utility.yul\":12668:13000   */\n      swap4\n      swap3\n      pop\n      pop\n      pop\n      jump\t// out\n        /* \"#utility.yul\":13006:13186   */\n    tag_378:\n        /* \"#utility.yul\":13054:13131   */\n      0x4e487b7100000000000000000000000000000000000000000000000000000000\n        /* \"#utility.yul\":13051:13052   */\n      0x00\n        /* \"#utility.yul\":13044:13132   */\n      mstore\n        /* \"#utility.yul\":13151:13155   */\n      0x12\n        /* \"#utility.yul\":13148:13149   */\n      0x04\n        /* \"#utility.yul\":13141:13156   */\n      mstore\n        /* \"#utility.yul\":13175:13179   */\n      0x24\n        /* \"#utility.yul\":13172:13173   */\n      0x00\n        /* \"#utility.yul\":13165:13180   */\n      revert\n        /* \"#utility.yul\":13192:13377   */\n    tag_106:\n        /* \"#utility.yul\":13232:13233   */\n      0x00\n        /* \"#utility.yul\":13249:13269   */\n      tag_544\n        /* \"#utility.yul\":13267:13268   */\n      dup3\n        /* \"#utility.yul\":13249:13269   */\n      tag_338\n      jump\t// in\n    tag_544:\n        /* \"#utility.yul\":13244:13269   */\n      swap2\n      pop\n        /* \"#utility.yul\":13283:13303   */\n      tag_545\n        /* \"#utility.yul\":13301:13302   */\n      dup4\n        /* \"#utility.yul\":13283:13303   */\n      tag_338\n      jump\t// in\n    tag_545:\n        /* \"#utility.yul\":13278:13303   */\n      swap3\n      pop\n        /* \"#utility.yul\":13322:13323   */\n      dup3\n        /* \"#utility.yul\":13312:13347   */\n      tag_546\n      jumpi\n        /* \"#utility.yul\":13327:13345   */\n      tag_547\n      tag_378\n      jump\t// in\n    tag_547:\n        /* \"#utility.yul\":13312:13347   */\n    tag_546:\n        /* \"#utility.yul\":13369:13370   */\n      dup3\n        /* \"#utility.yul\":13366:13367   */\n      dup3\n        /* \"#utility.yul\":13362:13371   */\n      div\n        /* \"#utility.yul\":13357:13371   */\n      swap1\n      pop\n        /* \"#utility.yul\":13192:13377   */\n      swap3\n      swap2\n      pop\n      pop\n      jump\t// out\n        /* \"#utility.yul\":13383:13577   */\n    tag_109:\n        /* \"#utility.yul\":13423:13427   */\n      0x00\n        /* \"#utility.yul\":13443:13463   */\n      tag_549\n        /* \"#utility.yul\":13461:13462   */\n      dup3\n        /* \"#utility.yul\":13443:13463   */\n      tag_338\n      jump\t// in\n    tag_549:\n        /* \"#utility.yul\":13438:13463   */\n      swap2\n      pop\n        /* \"#utility.yul\":13477:13497   */\n      tag_550\n        /* \"#utility.yul\":13495:13496   */\n      dup4\n        /* \"#utility.yul\":13477:13497   */\n      tag_338\n      jump\t// in\n    tag_550:\n        /* \"#utility.yul\":13472:13497   */\n      swap3\n      pop\n        /* \"#utility.yul\":13521:13522   */\n      dup3\n        /* \"#utility.yul\":13518:13519   */\n      dup3\n        /* \"#utility.yul\":13514:13523   */\n      sub\n        /* \"#utility.yul\":13506:13523   */\n      swap1\n      pop\n        /* \"#utility.yul\":13545:13546   */\n      dup2\n        /* \"#utility.yul\":13539:13543   */\n      dup2\n        /* \"#utility.yul\":13536:13547   */\n      gt\n        /* \"#utility.yul\":13533:13570   */\n      iszero\n      tag_551\n      jumpi\n        /* \"#utility.yul\":13550:13568   */\n      tag_552\n      tag_377\n      jump\t// in\n    tag_552:\n        /* \"#utility.yul\":13533:13570   */\n    tag_551:\n        /* \"#utility.yul\":13383:13577   */\n      swap3\n      swap2\n      pop\n      pop\n      jump\t// out\n        /* \"#utility.yul\":13583:13755   */\n    tag_379:\n        /* \"#utility.yul\":13723:13747   */\n      0x4d7573742062652070726f706f736564206f776e657200000000000000000000\n        /* \"#utility.yul\":13719:13720   */\n      0x00\n        /* \"#utility.yul\":13711:13717   */\n      dup3\n        /* \"#utility.yul\":13707:13721   */\n      add\n        /* \"#utility.yul\":13700:13748   */\n      mstore\n        /* \"#utility.yul\":13583:13755   */\n      pop\n      jump\t// out\n        /* \"#utility.yul\":13761:14127   */\n    tag_380:\n        /* \"#utility.yul\":13903:13906   */\n      0x00\n        /* \"#utility.yul\":13924:13991   */\n      tag_555\n        /* \"#utility.yul\":13988:13990   */\n      0x16\n        /* \"#utility.yul\":13983:13986   */\n      dup4\n        /* \"#utility.yul\":13924:13991   */\n      tag_358\n      jump\t// in\n    tag_555:\n        /* \"#utility.yul\":13917:13991   */\n      swap2\n      pop\n        /* \"#utility.yul\":14000:14093   */\n      tag_556\n        /* \"#utility.yul\":14089:14092   */\n      dup3\n        /* \"#utility.yul\":14000:14093   */\n      tag_379\n      jump\t// in\n    tag_556:\n        /* \"#utility.yul\":14118:14120   */\n      0x20\n        /* \"#utility.yul\":14113:14116   */\n      dup3\n        /* \"#utility.yul\":14109:14121   */\n      add\n        /* \"#utility.yul\":14102:14121   */\n      swap1\n      pop\n        /* \"#utility.yul\":13761:14127   */\n      swap2\n      swap1\n      pop\n      jump\t// out\n        /* \"#utility.yul\":14133:14552   */\n    tag_113:\n        /* \"#utility.yul\":14299:14303   */\n      0x00\n        /* \"#utility.yul\":14337:14339   */\n      0x20\n        /* \"#utility.yul\":14326:14335   */\n      dup3\n        /* \"#utility.yul\":14322:14340   */\n      add\n        /* \"#utility.yul\":14314:14340   */\n      swap1\n      pop\n        /* \"#utility.yul\":14386:14395   */\n      dup2\n        /* \"#utility.yul\":14380:14384   */\n      dup2\n        /* \"#utility.yul\":14376:14396   */\n      sub\n        /* \"#utility.yul\":14372:14373   */\n      0x00\n        /* \"#utility.yul\":14361:14370   */\n      dup4\n        /* \"#utility.yul\":14357:14374   */\n      add\n        /* \"#utility.yul\":14350:14397   */\n      mstore\n        /* \"#utility.yul\":14414:14545   */\n      tag_558\n        /* \"#utility.yul\":14540:14544   */\n      dup2\n        /* \"#utility.yul\":14414:14545   */\n      tag_380\n      jump\t// in\n    tag_558:\n        /* \"#utility.yul\":14406:14545   */\n      swap1\n      pop\n        /* \"#utility.yul\":14133:14552   */\n      swap2\n      swap1\n      pop\n      jump\t// out\n        /* \"#utility.yul\":14558:14738   */\n    tag_381:\n        /* \"#utility.yul\":14606:14683   */\n      0x4e487b7100000000000000000000000000000000000000000000000000000000\n        /* \"#utility.yul\":14603:14604   */\n      0x00\n        /* \"#utility.yul\":14596:14684   */\n      mstore\n        /* \"#utility.yul\":14703:14707   */\n      0x22\n        /* \"#utility.yul\":14700:14701   */\n      0x04\n        /* \"#utility.yul\":14693:14708   */\n      mstore\n        /* \"#utility.yul\":14727:14731   */\n      0x24\n        /* \"#utility.yul\":14724:14725   */\n      0x00\n        /* \"#utility.yul\":14717:14732   */\n      revert\n        /* \"#utility.yul\":14744:15064   */\n    tag_124:\n        /* \"#utility.yul\":14788:14794   */\n      0x00\n        /* \"#utility.yul\":14825:14826   */\n      0x02\n        /* \"#utility.yul\":14819:14823   */\n      dup3\n        /* \"#utility.yul\":14815:14827   */\n      div\n        /* \"#utility.yul\":14805:14827   */\n      swap1\n      pop\n        /* \"#utility.yul\":14872:14873   */\n      0x01\n        /* \"#utility.yul\":14866:14870   */\n      dup3\n        /* \"#utility.yul\":14862:14874   */\n      and\n        /* \"#utility.yul\":14893:14911   */\n      dup1\n        /* \"#utility.yul\":14883:14964   */\n      tag_561\n      jumpi\n        /* \"#utility.yul\":14949:14953   */\n      0x7f\n        /* \"#utility.yul\":14941:14947   */\n      dup3\n        /* \"#utility.yul\":14937:14954   */\n      and\n        /* \"#utility.yul\":14927:14954   */\n      swap2\n      pop\n        /* \"#utility.yul\":14883:14964   */\n    tag_561:\n        /* \"#utility.yul\":15011:15013   */\n      0x20\n        /* \"#utility.yul\":15003:15009   */\n      dup3\n        /* \"#utility.yul\":15000:15014   */\n      lt\n        /* \"#utility.yul\":14980:14998   */\n      dup2\n        /* \"#utility.yul\":14977:15015   */\n      sub\n        /* \"#utility.yul\":14974:15058   */\n      tag_562\n      jumpi\n        /* \"#utility.yul\":15030:15048   */\n      tag_563\n      tag_381\n      jump\t// in\n    tag_563:\n        /* \"#utility.yul\":14974:15058   */\n    tag_562:\n        /* \"#utility.yul\":14795:15064   */\n      pop\n        /* \"#utility.yul\":14744:15064   */\n      swap2\n      swap1\n      pop\n      jump\t// out\n        /* \"#utility.yul\":15070:15242   */\n    tag_382:\n        /* \"#utility.yul\":15210:15234   */\n      0x4f6e6c792063616c6c61626c65206279206f776e657200000000000000000000\n        /* \"#utility.yul\":15206:15207   */\n      0x00\n        /* \"#utility.yul\":15198:15204   */\n      dup3\n        /* \"#utility.yul\":15194:15208   */\n      add\n        /* \"#utility.yul\":15187:15235   */\n      mstore\n        /* \"#utility.yul\":15070:15242   */\n      pop\n      jump\t// out\n        /* \"#utility.yul\":15248:15614   */\n    tag_383:\n        /* \"#utility.yul\":15390:15393   */\n      0x00\n        /* \"#utility.yul\":15411:15478   */\n      tag_566\n        /* \"#utility.yul\":15475:15477   */\n      0x16\n        /* \"#utility.yul\":15470:15473   */\n      dup4\n        /* \"#utility.yul\":15411:15478   */\n      tag_358\n      jump\t// in\n    tag_566:\n        /* \"#utility.yul\":15404:15478   */\n      swap2\n      pop\n        /* \"#utility.yul\":15487:15580   */\n      tag_567\n        /* \"#utility.yul\":15576:15579   */\n      dup3\n        /* \"#utility.yul\":15487:15580   */\n      tag_382\n      jump\t// in\n    tag_567:\n        /* \"#utility.yul\":15605:15607   */\n      0x20\n        /* \"#utility.yul\":15600:15603   */\n      dup3\n        /* \"#utility.yul\":15596:15608   */\n      add\n        /* \"#utility.yul\":15589:15608   */\n      swap1\n      pop\n        /* \"#utility.yul\":15248:15614   */\n      swap2\n      swap1\n      pop\n      jump\t// out\n        /* \"#utility.yul\":15620:16039   */\n    tag_148:\n        /* \"#utility.yul\":15786:15790   */\n      0x00\n        /* \"#utility.yul\":15824:15826   */\n      0x20\n        /* \"#utility.yul\":15813:15822   */\n      dup3\n        /* \"#utility.yul\":15809:15827   */\n      add\n        /* \"#utility.yul\":15801:15827   */\n      swap1\n      pop\n        /* \"#utility.yul\":15873:15882   */\n      dup2\n        /* \"#utility.yul\":15867:15871   */\n      dup2\n        /* \"#utility.yul\":15863:15883   */\n      sub\n        /* \"#utility.yul\":15859:15860   */\n      0x00\n        /* \"#utility.yul\":15848:15857   */\n      dup4\n        /* \"#utility.yul\":15844:15861   */\n      add\n        /* \"#utility.yul\":15837:15884   */\n      mstore\n        /* \"#utility.yul\":15901:16032   */\n      tag_569\n        /* \"#utility.yul\":16027:16031   */\n      dup2\n        /* \"#utility.yul\":15901:16032   */\n      tag_383\n      jump\t// in\n    tag_569:\n        /* \"#utility.yul\":15893:16032   */\n      swap1\n      pop\n        /* \"#utility.yul\":15620:16039   */\n      swap2\n      swap1\n      pop\n      jump\t// out\n        /* \"#utility.yul\":16045:16143   */\n    tag_384:\n        /* \"#utility.yul\":16096:16102   */\n      0x00\n        /* \"#utility.yul\":16130:16135   */\n      dup2\n        /* \"#utility.yul\":16124:16136   */\n      mload\n        /* \"#utility.yul\":16114:16136   */\n      swap1\n      pop\n        /* \"#utility.yul\":16045:16143   */\n      swap2\n      swap1\n      pop\n      jump\t// out\n        /* \"#utility.yul\":16149:16317   */\n    tag_385:\n        /* \"#utility.yul\":16232:16243   */\n      0x00\n        /* \"#utility.yul\":16266:16272   */\n      dup3\n        /* \"#utility.yul\":16261:16264   */\n      dup3\n        /* \"#utility.yul\":16254:16273   */\n      mstore\n        /* \"#utility.yul\":16306:16310   */\n      0x20\n        /* \"#utility.yul\":16301:16304   */\n      dup3\n        /* \"#utility.yul\":16297:16311   */\n      add\n        /* \"#utility.yul\":16282:16311   */\n      swap1\n      pop\n        /* \"#utility.yul\":16149:16317   */\n      swap3\n      swap2\n      pop\n      pop\n      jump\t// out\n        /* \"#utility.yul\":16323:16696   */\n    tag_386:\n        /* \"#utility.yul\":16409:16412   */\n      0x00\n        /* \"#utility.yul\":16437:16475   */\n      tag_573\n        /* \"#utility.yul\":16469:16474   */\n      dup3\n        /* \"#utility.yul\":16437:16475   */\n      tag_384\n      jump\t// in\n    tag_573:\n        /* \"#utility.yul\":16491:16561   */\n      tag_574\n        /* \"#utility.yul\":16554:16560   */\n      dup2\n        /* \"#utility.yul\":16549:16552   */\n      dup6\n        /* \"#utility.yul\":16491:16561   */\n      tag_385\n      jump\t// in\n    tag_574:\n        /* \"#utility.yul\":16484:16561   */\n      swap4\n      pop\n        /* \"#utility.yul\":16570:16635   */\n      tag_575\n        /* \"#utility.yul\":16628:16634   */\n      dup2\n        /* \"#utility.yul\":16623:16626   */\n      dup6\n        /* \"#utility.yul\":16616:16620   */\n      0x20\n        /* \"#utility.yul\":16609:16614   */\n      dup7\n        /* \"#utility.yul\":16605:16621   */\n      add\n        /* \"#utility.yul\":16570:16635   */\n      tag_359\n      jump\t// in\n    tag_575:\n        /* \"#utility.yul\":16660:16689   */\n      tag_576\n        /* \"#utility.yul\":16682:16688   */\n      dup2\n        /* \"#utility.yul\":16660:16689   */\n      tag_348\n      jump\t// in\n    tag_576:\n        /* \"#utility.yul\":16655:16658   */\n      dup5\n        /* \"#utility.yul\":16651:16690   */\n      add\n        /* \"#utility.yul\":16644:16690   */\n      swap2\n      pop\n        /* \"#utility.yul\":16413:16696   */\n      pop\n        /* \"#utility.yul\":16323:16696   */\n      swap3\n      swap2\n      pop\n      pop\n      jump\t// out\n        /* \"#utility.yul\":16702:17011   */\n    tag_152:\n        /* \"#utility.yul\":16813:16817   */\n      0x00\n        /* \"#utility.yul\":16851:16853   */\n      0x20\n        /* \"#utility.yul\":16840:16849   */\n      dup3\n        /* \"#utility.yul\":16836:16854   */\n      add\n        /* \"#utility.yul\":16828:16854   */\n      swap1\n      pop\n        /* \"#utility.yul\":16900:16909   */\n      dup2\n        /* \"#utility.yul\":16894:16898   */\n      dup2\n        /* \"#utility.yul\":16890:16910   */\n      sub\n        /* \"#utility.yul\":16886:16887   */\n      0x00\n        /* \"#utility.yul\":16875:16884   */\n      dup4\n        /* \"#utility.yul\":16871:16888   */\n      add\n        /* \"#utility.yul\":16864:16911   */\n      mstore\n        /* \"#utility.yul\":16928:17004   */\n      tag_578\n        /* \"#utility.yul\":16999:17003   */\n      dup2\n        /* \"#utility.yul\":16990:16996   */\n      dup5\n        /* \"#utility.yul\":16928:17004   */\n      tag_386\n      jump\t// in\n    tag_578:\n        /* \"#utility.yul\":16920:17004   */\n      swap1\n      pop\n        /* \"#utility.yul\":16702:17011   */\n      swap3\n      swap2\n      pop\n      pop\n      jump\t// out\n        /* \"#utility.yul\":17017:17160   */\n    tag_387:\n        /* \"#utility.yul\":17074:17079   */\n      0x00\n        /* \"#utility.yul\":17105:17111   */\n      dup2\n        /* \"#utility.yul\":17099:17112   */\n      mload\n        /* \"#utility.yul\":17090:17112   */\n      swap1\n      pop\n        /* \"#utility.yul\":17121:17154   */\n      tag_580\n        /* \"#utility.yul\":17148:17153   */\n      dup2\n        /* \"#utility.yul\":17121:17154   */\n      tag_339\n      jump\t// in\n    tag_580:\n        /* \"#utility.yul\":17017:17160   */\n      swap3\n      swap2\n      pop\n      pop\n      jump\t// out\n        /* \"#utility.yul\":17166:17517   */\n    tag_154:\n        /* \"#utility.yul\":17236:17242   */\n      0x00\n        /* \"#utility.yul\":17285:17287   */\n      0x20\n        /* \"#utility.yul\":17273:17282   */\n      dup3\n        /* \"#utility.yul\":17264:17271   */\n      dup5\n        /* \"#utility.yul\":17260:17283   */\n      sub\n        /* \"#utility.yul\":17256:17288   */\n      slt\n        /* \"#utility.yul\":17253:17372   */\n      iszero\n      tag_582\n      jumpi\n        /* \"#utility.yul\":17291:17370   */\n      tag_583\n      tag_336\n      jump\t// in\n    tag_583:\n        /* \"#utility.yul\":17253:17372   */\n    tag_582:\n        /* \"#utility.yul\":17411:17412   */\n      0x00\n        /* \"#utility.yul\":17436:17500   */\n      tag_584\n        /* \"#utility.yul\":17492:17499   */\n      dup5\n        /* \"#utility.yul\":17483:17489   */\n      dup3\n        /* \"#utility.yul\":17472:17481   */\n      dup6\n        /* \"#utility.yul\":17468:17490   */\n      add\n        /* \"#utility.yul\":17436:17500   */\n      tag_387\n      jump\t// in\n    tag_584:\n        /* \"#utility.yul\":17426:17500   */\n      swap2\n      pop\n        /* \"#utility.yul\":17382:17510   */\n      pop\n        /* \"#utility.yul\":17166:17517   */\n      swap3\n      swap2\n      pop\n      pop\n      jump\t// out\n        /* \"#utility.yul\":17523:17703   */\n    tag_167:\n        /* \"#utility.yul\":17571:17648   */\n      0x4e487b7100000000000000000000000000000000000000000000000000000000\n        /* \"#utility.yul\":17568:17569   */\n      0x00\n        /* \"#utility.yul\":17561:17649   */\n      mstore\n        /* \"#utility.yul\":17668:17672   */\n      0x21\n        /* \"#utility.yul\":17665:17666   */\n      0x04\n        /* \"#utility.yul\":17658:17673   */\n      mstore\n        /* \"#utility.yul\":17692:17696   */\n      0x24\n        /* \"#utility.yul\":17689:17690   */\n      0x00\n        /* \"#utility.yul\":17682:17697   */\n      revert\n        /* \"#utility.yul\":17709:17889   */\n    tag_185:\n        /* \"#utility.yul\":17757:17834   */\n      0x4e487b7100000000000000000000000000000000000000000000000000000000\n        /* \"#utility.yul\":17754:17755   */\n      0x00\n        /* \"#utility.yul\":17747:17835   */\n      mstore\n        /* \"#utility.yul\":17854:17858   */\n      0x32\n        /* \"#utility.yul\":17851:17852   */\n      0x04\n        /* \"#utility.yul\":17844:17859   */\n      mstore\n        /* \"#utility.yul\":17878:17882   */\n      0x24\n        /* \"#utility.yul\":17875:17876   */\n      0x00\n        /* \"#utility.yul\":17868:17883   */\n      revert\n        /* \"#utility.yul\":17895:17984   */\n    tag_388:\n        /* \"#utility.yul\":17931:17938   */\n      0x00\n        /* \"#utility.yul\":17971:17977   */\n      0xffff\n        /* \"#utility.yul\":17964:17969   */\n      dup3\n        /* \"#utility.yul\":17960:17978   */\n      and\n        /* \"#utility.yul\":17949:17978   */\n      swap1\n      pop\n        /* \"#utility.yul\":17895:17984   */\n      swap2\n      swap1\n      pop\n      jump\t// out\n        /* \"#utility.yul\":17990:18105   */\n    tag_389:\n        /* \"#utility.yul\":18075:18098   */\n      tag_589\n        /* \"#utility.yul\":18092:18097   */\n      dup2\n        /* \"#utility.yul\":18075:18098   */\n      tag_388\n      jump\t// in\n    tag_589:\n        /* \"#utility.yul\":18070:18073   */\n      dup3\n        /* \"#utility.yul\":18063:18099   */\n      mstore\n        /* \"#utility.yul\":17990:18105   */\n      pop\n      pop\n      jump\t// out\n        /* \"#utility.yul\":18111:18850   */\n    tag_213:\n        /* \"#utility.yul\":18328:18332   */\n      0x00\n        /* \"#utility.yul\":18366:18369   */\n      0xa0\n        /* \"#utility.yul\":18355:18364   */\n      dup3\n        /* \"#utility.yul\":18351:18370   */\n      add\n        /* \"#utility.yul\":18343:18370   */\n      swap1\n      pop\n        /* \"#utility.yul\":18380:18449   */\n      tag_591\n        /* \"#utility.yul\":18446:18447   */\n      0x00\n        /* \"#utility.yul\":18435:18444   */\n      dup4\n        /* \"#utility.yul\":18431:18448   */\n      add\n        /* \"#utility.yul\":18422:18428   */\n      dup9\n        /* \"#utility.yul\":18380:18449   */\n      tag_342\n      jump\t// in\n    tag_591:\n        /* \"#utility.yul\":18496:18505   */\n      dup2\n        /* \"#utility.yul\":18490:18494   */\n      dup2\n        /* \"#utility.yul\":18486:18506   */\n      sub\n        /* \"#utility.yul\":18481:18483   */\n      0x20\n        /* \"#utility.yul\":18470:18479   */\n      dup4\n        /* \"#utility.yul\":18466:18484   */\n      add\n        /* \"#utility.yul\":18459:18507   */\n      mstore\n        /* \"#utility.yul\":18524:18600   */\n      tag_592\n        /* \"#utility.yul\":18595:18599   */\n      dup2\n        /* \"#utility.yul\":18586:18592   */\n      dup8\n        /* \"#utility.yul\":18524:18600   */\n      tag_386\n      jump\t// in\n    tag_592:\n        /* \"#utility.yul\":18516:18600   */\n      swap1\n      pop\n        /* \"#utility.yul\":18610:18680   */\n      tag_593\n        /* \"#utility.yul\":18676:18678   */\n      0x40\n        /* \"#utility.yul\":18665:18674   */\n      dup4\n        /* \"#utility.yul\":18661:18679   */\n      add\n        /* \"#utility.yul\":18652:18658   */\n      dup7\n        /* \"#utility.yul\":18610:18680   */\n      tag_389\n      jump\t// in\n    tag_593:\n        /* \"#utility.yul\":18690:18760   */\n      tag_594\n        /* \"#utility.yul\":18756:18758   */\n      0x60\n        /* \"#utility.yul\":18745:18754   */\n      dup4\n        /* \"#utility.yul\":18741:18759   */\n      add\n        /* \"#utility.yul\":18732:18738   */\n      dup6\n        /* \"#utility.yul\":18690:18760   */\n      tag_374\n      jump\t// in\n    tag_594:\n        /* \"#utility.yul\":18770:18843   */\n      tag_595\n        /* \"#utility.yul\":18838:18841   */\n      0x80\n        /* \"#utility.yul\":18827:18836   */\n      dup4\n        /* \"#utility.yul\":18823:18842   */\n      add\n        /* \"#utility.yul\":18814:18820   */\n      dup5\n        /* \"#utility.yul\":18770:18843   */\n      tag_363\n      jump\t// in\n    tag_595:\n        /* \"#utility.yul\":18111:18850   */\n      swap7\n      swap6\n      pop\n      pop\n      pop\n      pop\n      pop\n      pop\n      jump\t// out\n        /* \"#utility.yul\":18856:18999   */\n    tag_390:\n        /* \"#utility.yul\":18913:18918   */\n      0x00\n        /* \"#utility.yul\":18944:18950   */\n      dup2\n        /* \"#utility.yul\":18938:18951   */\n      mload\n        /* \"#utility.yul\":18929:18951   */\n      swap1\n      pop\n        /* \"#utility.yul\":18960:18993   */\n      tag_597\n        /* \"#utility.yul\":18987:18992   */\n      dup2\n        /* \"#utility.yul\":18960:18993   */\n      tag_344\n      jump\t// in\n    tag_597:\n        /* \"#utility.yul\":18856:18999   */\n      swap3\n      swap2\n      pop\n      pop\n      jump\t// out\n        /* \"#utility.yul\":19005:19356   */\n    tag_217:\n        /* \"#utility.yul\":19075:19081   */\n      0x00\n        /* \"#utility.yul\":19124:19126   */\n      0x20\n        /* \"#utility.yul\":19112:19121   */\n      dup3\n        /* \"#utility.yul\":19103:19110   */\n      dup5\n        /* \"#utility.yul\":19099:19122   */\n      sub\n        /* \"#utility.yul\":19095:19127   */\n      slt\n        /* \"#utility.yul\":19092:19211   */\n      iszero\n      tag_599\n      jumpi\n        /* \"#utility.yul\":19130:19209   */\n      tag_600\n      tag_336\n      jump\t// in\n    tag_600:\n        /* \"#utility.yul\":19092:19211   */\n    tag_599:\n        /* \"#utility.yul\":19250:19251   */\n      0x00\n        /* \"#utility.yul\":19275:19339   */\n      tag_601\n        /* \"#utility.yul\":19331:19338   */\n      dup5\n        /* \"#utility.yul\":19322:19328   */\n      dup3\n        /* \"#utility.yul\":19311:19320   */\n      dup6\n        /* \"#utility.yul\":19307:19329   */\n      add\n        /* \"#utility.yul\":19275:19339   */\n      tag_390\n      jump\t// in\n    tag_601:\n        /* \"#utility.yul\":19265:19339   */\n      swap2\n      pop\n        /* \"#utility.yul\":19221:19349   */\n      pop\n        /* \"#utility.yul\":19005:19356   */\n      swap3\n      swap2\n      pop\n      pop\n      jump\t// out\n        /* \"#utility.yul\":19362:19535   */\n    tag_391:\n        /* \"#utility.yul\":19502:19527   */\n      0x43616e6e6f74207472616e7366657220746f2073656c66000000000000000000\n        /* \"#utility.yul\":19498:19499   */\n      0x00\n        /* \"#utility.yul\":19490:19496   */\n      dup3\n        /* \"#utility.yul\":19486:19500   */\n      add\n        /* \"#utility.yul\":19479:19528   */\n      mstore\n        /* \"#utility.yul\":19362:19535   */\n      pop\n      jump\t// out\n        /* \"#utility.yul\":19541:19907   */\n    tag_392:\n        /* \"#utility.yul\":19683:19686   */\n      0x00\n        /* \"#utility.yul\":19704:19771   */\n      tag_604\n        /* \"#utility.yul\":19768:19770   */\n      0x17\n        /* \"#utility.yul\":19763:19766   */\n      dup4\n        /* \"#utility.yul\":19704:19771   */\n      tag_358\n      jump\t// in\n    tag_604:\n        /* \"#utility.yul\":19697:19771   */\n      swap2\n      pop\n        /* \"#utility.yul\":19780:19873   */\n      tag_605\n        /* \"#utility.yul\":19869:19872   */\n      dup3\n        /* \"#utility.yul\":19780:19873   */\n      tag_391\n      jump\t// in\n    tag_605:\n        /* \"#utility.yul\":19898:19900   */\n      0x20\n        /* \"#utility.yul\":19893:19896   */\n      dup3\n        /* \"#utility.yul\":19889:19901   */\n      add\n        /* \"#utility.yul\":19882:19901   */\n      swap1\n      pop\n        /* \"#utility.yul\":19541:19907   */\n      swap2\n      swap1\n      pop\n      jump\t// out\n        /* \"#utility.yul\":19913:20332   */\n    tag_221:\n        /* \"#utility.yul\":20079:20083   */\n      0x00\n        /* \"#utility.yul\":20117:20119   */\n      0x20\n        /* \"#utility.yul\":20106:20115   */\n      dup3\n        /* \"#utility.yul\":20102:20120   */\n      add\n        /* \"#utility.yul\":20094:20120   */\n      swap1\n      pop\n        /* \"#utility.yul\":20166:20175   */\n      dup2\n        /* \"#utility.yul\":20160:20164   */\n      dup2\n        /* \"#utility.yul\":20156:20176   */\n      sub\n        /* \"#utility.yul\":20152:20153   */\n      0x00\n        /* \"#utility.yul\":20141:20150   */\n      dup4\n        /* \"#utility.yul\":20137:20154   */\n      add\n        /* \"#utility.yul\":20130:20177   */\n      mstore\n        /* \"#utility.yul\":20194:20325   */\n      tag_607\n        /* \"#utility.yul\":20320:20324   */\n      dup2\n        /* \"#utility.yul\":20194:20325   */\n      tag_392\n      jump\t// in\n    tag_607:\n        /* \"#utility.yul\":20186:20325   */\n      swap1\n      pop\n        /* \"#utility.yul\":19913:20332   */\n      swap2\n      swap1\n      pop\n      jump\t// out\n        /* \"#utility.yul\":20338:20529   */\n    tag_251:\n        /* \"#utility.yul\":20378:20381   */\n      0x00\n        /* \"#utility.yul\":20397:20417   */\n      tag_609\n        /* \"#utility.yul\":20415:20416   */\n      dup3\n        /* \"#utility.yul\":20397:20417   */\n      tag_338\n      jump\t// in\n    tag_609:\n        /* \"#utility.yul\":20392:20417   */\n      swap2\n      pop\n        /* \"#utility.yul\":20431:20451   */\n      tag_610\n        /* \"#utility.yul\":20449:20450   */\n      dup4\n        /* \"#utility.yul\":20431:20451   */\n      tag_338\n      jump\t// in\n    tag_610:\n        /* \"#utility.yul\":20426:20451   */\n      swap3\n      pop\n        /* \"#utility.yul\":20474:20475   */\n      dup3\n        /* \"#utility.yul\":20471:20472   */\n      dup3\n        /* \"#utility.yul\":20467:20476   */\n      add\n        /* \"#utility.yul\":20460:20476   */\n      swap1\n      pop\n        /* \"#utility.yul\":20495:20498   */\n      dup1\n        /* \"#utility.yul\":20492:20493   */\n      dup3\n        /* \"#utility.yul\":20489:20499   */\n      gt\n        /* \"#utility.yul\":20486:20522   */\n      iszero\n      tag_611\n      jumpi\n        /* \"#utility.yul\":20502:20520   */\n      tag_612\n      tag_377\n      jump\t// in\n    tag_612:\n        /* \"#utility.yul\":20486:20522   */\n    tag_611:\n        /* \"#utility.yul\":20338:20529   */\n      swap3\n      swap2\n      pop\n      pop\n      jump\t// out\n        /* \"#utility.yul\":20535:20711   */\n    tag_262:\n        /* \"#utility.yul\":20567:20568   */\n      0x00\n        /* \"#utility.yul\":20584:20604   */\n      tag_614\n        /* \"#utility.yul\":20602:20603   */\n      dup3\n        /* \"#utility.yul\":20584:20604   */\n      tag_338\n      jump\t// in\n    tag_614:\n        /* \"#utility.yul\":20579:20604   */\n      swap2\n      pop\n        /* \"#utility.yul\":20618:20638   */\n      tag_615\n        /* \"#utility.yul\":20636:20637   */\n      dup4\n        /* \"#utility.yul\":20618:20638   */\n      tag_338\n      jump\t// in\n    tag_615:\n        /* \"#utility.yul\":20613:20638   */\n      swap3\n      pop\n        /* \"#utility.yul\":20657:20658   */\n      dup3\n        /* \"#utility.yul\":20647:20682   */\n      tag_616\n      jumpi\n        /* \"#utility.yul\":20662:20680   */\n      tag_617\n      tag_378\n      jump\t// in\n    tag_617:\n        /* \"#utility.yul\":20647:20682   */\n    tag_616:\n        /* \"#utility.yul\":20703:20704   */\n      dup3\n        /* \"#utility.yul\":20700:20701   */\n      dup3\n        /* \"#utility.yul\":20696:20705   */\n      mod\n        /* \"#utility.yul\":20691:20705   */\n      swap1\n      pop\n        /* \"#utility.yul\":20535:20711   */\n      swap3\n      swap2\n      pop\n      pop\n      jump\t// out\n        /* \"#utility.yul\":20717:20819   */\n    tag_393:\n        /* \"#utility.yul\":20759:20767   */\n      0x00\n        /* \"#utility.yul\":20806:20811   */\n      dup2\n        /* \"#utility.yul\":20803:20804   */\n      0x01\n        /* \"#utility.yul\":20799:20812   */\n      shr\n        /* \"#utility.yul\":20778:20812   */\n      swap1\n      pop\n        /* \"#utility.yul\":20717:20819   */\n      swap2\n      swap1\n      pop\n      jump\t// out\n        /* \"#utility.yul\":20825:21673   */\n    tag_394:\n        /* \"#utility.yul\":20886:20891   */\n      0x00\n        /* \"#utility.yul\":20893:20897   */\n      0x00\n        /* \"#utility.yul\":20917:20923   */\n      dup3\n        /* \"#utility.yul\":20908:20923   */\n      swap2\n      pop\n        /* \"#utility.yul\":20941:20946   */\n      dup4\n        /* \"#utility.yul\":20932:20946   */\n      swap1\n      pop\n        /* \"#utility.yul\":20955:21667   */\n    tag_620:\n        /* \"#utility.yul\":20976:20977   */\n      0x01\n        /* \"#utility.yul\":20966:20974   */\n      dup6\n        /* \"#utility.yul\":20963:20978   */\n      gt\n        /* \"#utility.yul\":20955:21667   */\n      iszero\n      tag_622\n      jumpi\n        /* \"#utility.yul\":21071:21075   */\n      dup1\n        /* \"#utility.yul\":21066:21069   */\n      dup7\n        /* \"#utility.yul\":21062:21076   */\n      div\n        /* \"#utility.yul\":21056:21060   */\n      dup2\n        /* \"#utility.yul\":21053:21077   */\n      gt\n        /* \"#utility.yul\":21050:21100   */\n      iszero\n      tag_623\n      jumpi\n        /* \"#utility.yul\":21080:21098   */\n      tag_624\n      tag_377\n      jump\t// in\n    tag_624:\n        /* \"#utility.yul\":21050:21100   */\n    tag_623:\n        /* \"#utility.yul\":21130:21131   */\n      0x01\n        /* \"#utility.yul\":21120:21128   */\n      dup6\n        /* \"#utility.yul\":21116:21132   */\n      and\n        /* \"#utility.yul\":21113:21564   */\n      iszero\n      tag_625\n      jumpi\n        /* \"#utility.yul\":21545:21549   */\n      dup1\n        /* \"#utility.yul\":21538:21543   */\n      dup3\n        /* \"#utility.yul\":21534:21550   */\n      mul\n        /* \"#utility.yul\":21525:21550   */\n      swap2\n      pop\n        /* \"#utility.yul\":21113:21564   */\n    tag_625:\n        /* \"#utility.yul\":21595:21599   */\n      dup1\n        /* \"#utility.yul\":21589:21593   */\n      dup2\n        /* \"#utility.yul\":21585:21600   */\n      mul\n        /* \"#utility.yul\":21577:21600   */\n      swap1\n      pop\n        /* \"#utility.yul\":21625:21657   */\n      tag_626\n        /* \"#utility.yul\":21648:21656   */\n      dup6\n        /* \"#utility.yul\":21625:21657   */\n      tag_393\n      jump\t// in\n    tag_626:\n        /* \"#utility.yul\":21613:21657   */\n      swap5\n      pop\n        /* \"#utility.yul\":20955:21667   */\n      jump(tag_620)\n    tag_622:\n        /* \"#utility.yul\":20825:21673   */\n      swap5\n      pop\n      swap5\n      swap3\n      pop\n      pop\n      pop\n      jump\t// out\n        /* \"#utility.yul\":21679:22752   */\n    tag_395:\n        /* \"#utility.yul\":21733:21738   */\n      0x00\n        /* \"#utility.yul\":21924:21932   */\n      dup3\n        /* \"#utility.yul\":21914:21954   */\n      tag_628\n      jumpi\n        /* \"#utility.yul\":21945:21946   */\n      0x01\n        /* \"#utility.yul\":21936:21946   */\n      swap1\n      pop\n        /* \"#utility.yul\":21947:21952   */\n      jump(tag_627)\n        /* \"#utility.yul\":21914:21954   */\n    tag_628:\n        /* \"#utility.yul\":21973:21977   */\n      dup2\n        /* \"#utility.yul\":21963:21999   */\n      tag_629\n      jumpi\n        /* \"#utility.yul\":21990:21991   */\n      0x00\n        /* \"#utility.yul\":21981:21991   */\n      swap1\n      pop\n        /* \"#utility.yul\":21992:21997   */\n      jump(tag_627)\n        /* \"#utility.yul\":21963:21999   */\n    tag_629:\n        /* \"#utility.yul\":22059:22063   */\n      dup2\n        /* \"#utility.yul\":22107:22108   */\n      0x01\n        /* \"#utility.yul\":22102:22129   */\n      dup2\n      eq\n      tag_631\n      jumpi\n        /* \"#utility.yul\":22143:22144   */\n      0x02\n        /* \"#utility.yul\":22138:22329   */\n      dup2\n      eq\n      tag_632\n      jumpi\n        /* \"#utility.yul\":22052:22329   */\n      jump(tag_630)\n        /* \"#utility.yul\":22102:22129   */\n    tag_631:\n        /* \"#utility.yul\":22120:22121   */\n      0x01\n        /* \"#utility.yul\":22111:22121   */\n      swap2\n      pop\n        /* \"#utility.yul\":22122:22127   */\n      pop\n      jump(tag_627)\n        /* \"#utility.yul\":22138:22329   */\n    tag_632:\n        /* \"#utility.yul\":22183:22186   */\n      0xff\n        /* \"#utility.yul\":22173:22181   */\n      dup5\n        /* \"#utility.yul\":22170:22187   */\n      gt\n        /* \"#utility.yul\":22167:22210   */\n      iszero\n      tag_633\n      jumpi\n        /* \"#utility.yul\":22190:22208   */\n      tag_634\n      tag_377\n      jump\t// in\n    tag_634:\n        /* \"#utility.yul\":22167:22210   */\n    tag_633:\n        /* \"#utility.yul\":22239:22247   */\n      dup4\n        /* \"#utility.yul\":22236:22237   */\n      0x02\n        /* \"#utility.yul\":22232:22248   */\n      exp\n        /* \"#utility.yul\":22223:22248   */\n      swap2\n      pop\n        /* \"#utility.yul\":22274:22277   */\n      dup5\n        /* \"#utility.yul\":22267:22272   */\n      dup3\n        /* \"#utility.yul\":22264:22278   */\n      gt\n        /* \"#utility.yul\":22261:22301   */\n      iszero\n      tag_635\n      jumpi\n        /* \"#utility.yul\":22281:22299   */\n      tag_636\n      tag_377\n      jump\t// in\n    tag_636:\n        /* \"#utility.yul\":22261:22301   */\n    tag_635:\n        /* \"#utility.yul\":22314:22319   */\n      pop\n      jump(tag_627)\n        /* \"#utility.yul\":22052:22329   */\n    tag_630:\n      pop\n        /* \"#utility.yul\":22438:22440   */\n      0x20\n        /* \"#utility.yul\":22428:22436   */\n      dup4\n        /* \"#utility.yul\":22425:22441   */\n      lt\n        /* \"#utility.yul\":22419:22422   */\n      0x0133\n        /* \"#utility.yul\":22413:22417   */\n      dup4\n        /* \"#utility.yul\":22410:22423   */\n      lt\n        /* \"#utility.yul\":22406:22442   */\n      and\n        /* \"#utility.yul\":22388:22390   */\n      0x4e\n        /* \"#utility.yul\":22378:22386   */\n      dup5\n        /* \"#utility.yul\":22375:22391   */\n      lt\n        /* \"#utility.yul\":22370:22372   */\n      0x0b\n        /* \"#utility.yul\":22364:22368   */\n      dup5\n        /* \"#utility.yul\":22361:22373   */\n      lt\n        /* \"#utility.yul\":22357:22392   */\n      and\n        /* \"#utility.yul\":22341:22452   */\n      or\n        /* \"#utility.yul\":22338:22584   */\n      iszero\n      tag_637\n      jumpi\n        /* \"#utility.yul\":22494:22502   */\n      dup3\n        /* \"#utility.yul\":22488:22492   */\n      dup3\n        /* \"#utility.yul\":22484:22503   */\n      exp\n        /* \"#utility.yul\":22475:22503   */\n      swap1\n      pop\n        /* \"#utility.yul\":22529:22532   */\n      dup4\n        /* \"#utility.yul\":22522:22527   */\n      dup2\n        /* \"#utility.yul\":22519:22533   */\n      gt\n        /* \"#utility.yul\":22516:22556   */\n      iszero\n      tag_638\n      jumpi\n        /* \"#utility.yul\":22536:22554   */\n      tag_639\n      tag_377\n      jump\t// in\n    tag_639:\n        /* \"#utility.yul\":22516:22556   */\n    tag_638:\n        /* \"#utility.yul\":22569:22574   */\n      jump(tag_627)\n        /* \"#utility.yul\":22338:22584   */\n    tag_637:\n        /* \"#utility.yul\":22609:22651   */\n      tag_640\n        /* \"#utility.yul\":22647:22650   */\n      dup5\n        /* \"#utility.yul\":22637:22645   */\n      dup5\n        /* \"#utility.yul\":22631:22635   */\n      dup5\n        /* \"#utility.yul\":22628:22629   */\n      0x01\n        /* \"#utility.yul\":22609:22651   */\n      tag_394\n      jump\t// in\n    tag_640:\n        /* \"#utility.yul\":22594:22651   */\n      swap3\n      pop\n      swap1\n      pop\n        /* \"#utility.yul\":22683:22687   */\n      dup2\n        /* \"#utility.yul\":22678:22681   */\n      dup5\n        /* \"#utility.yul\":22674:22688   */\n      div\n        /* \"#utility.yul\":22667:22672   */\n      dup2\n        /* \"#utility.yul\":22664:22689   */\n      gt\n        /* \"#utility.yul\":22661:22712   */\n      iszero\n      tag_641\n      jumpi\n        /* \"#utility.yul\":22692:22710   */\n      tag_642\n      tag_377\n      jump\t// in\n    tag_642:\n        /* \"#utility.yul\":22661:22712   */\n    tag_641:\n        /* \"#utility.yul\":22741:22745   */\n      dup2\n        /* \"#utility.yul\":22734:22739   */\n      dup2\n        /* \"#utility.yul\":22730:22746   */\n      mul\n        /* \"#utility.yul\":22721:22746   */\n      swap1\n      pop\n        /* \"#utility.yul\":21679:22752   */\n    tag_627:\n      swap4\n      swap3\n      pop\n      pop\n      pop\n      jump\t// out\n        /* \"#utility.yul\":22758:23043   */\n    tag_308:\n        /* \"#utility.yul\":22818:22823   */\n      0x00\n        /* \"#utility.yul\":22842:22865   */\n      tag_644\n        /* \"#utility.yul\":22860:22864   */\n      dup3\n        /* \"#utility.yul\":22842:22865   */\n      tag_338\n      jump\t// in\n    tag_644:\n        /* \"#utility.yul\":22834:22865   */\n      swap2\n      pop\n        /* \"#utility.yul\":22886:22913   */\n      tag_645\n        /* \"#utility.yul\":22904:22912   */\n      dup4\n        /* \"#utility.yul\":22886:22913   */\n      tag_338\n      jump\t// in\n    tag_645:\n        /* \"#utility.yul\":22874:22913   */\n      swap3\n      pop\n        /* \"#utility.yul\":22932:23036   */\n      tag_646\n        /* \"#utility.yul\":22969:23035   */\n      0xffffffffffffffffffffffffffffffffffffffffffffffffffffffffffffffff\n        /* \"#utility.yul\":22959:22967   */\n      dup5\n        /* \"#utility.yul\":22953:22957   */\n      dup5\n        /* \"#utility.yul\":22932:23036   */\n      tag_395\n      jump\t// in\n    tag_646:\n        /* \"#utility.yul\":22923:23036   */\n      swap1\n      pop\n        /* \"#utility.yul\":22758:23043   */\n      swap3\n      swap2\n      pop\n      pop\n      jump\t// out\n    stop\n    data_b4e3728531a6a78c2e6f832be80dc65af1c8e746943d6995899471c6dcfe9aaa 555344205072696365203d20545744205072696365202f205553442d54574420526174652028696e2063656e747329\n\n    auxdata: 0xa26469706673582212209d3518e5f33d4646a8fcdb7d828356473efb575ce6eb2b6687508f76fb6154d864736f6c634300081e0033\n}\n",
				"bytecode": {
					"linkReferences": {},
					"object": "60a0604052620493e0600560086101000a81548163ffffffff021916908363ffffffff160217905550604051806102c001604052806102888152602001612aee6102889139600790816100529190610576565b5034801561005e575f5ffd5b5033805f73b83e47c2bc239b3bf370bc41e1459a34b41238d08073ffffffffffffffffffffffffffffffffffffffff1660808173ffffffffffffffffffffffffffffffffffffffff1681525050505f73ffffffffffffffffffffffffffffffffffffffff168273ffffffffffffffffffffffffffffffffffffffff160361011a576040517f08c379a00000000000000000000000000000000000000000000000000000000081526004016101119061069f565b60405180910390fd5b815f5f6101000a81548173ffffffffffffffffffffffffffffffffffffffff021916908373ffffffffffffffffffffffffffffffffffffffff1602179055505f73ffffffffffffffffffffffffffffffffffffffff168173ffffffffffffffffffffffffffffffffffffffff161461019c5761019b8161020e60201b60201c565b5b50505061160760055f6101000a81548167ffffffffffffffff021916908367ffffffffffffffff1602179055507f66756e2d657468657265756d2d7365706f6c69612d31000000000000000000005f1b6006819055506801158e460913d0000060028190555042600381905550610725565b3373ffffffffffffffffffffffffffffffffffffffff168173ffffffffffffffffffffffffffffffffffffffff160361027c576040517f08c379a000000000000000000000000000000000000000000000000000000000815260040161027390610707565b60405180910390fd5b8060015f6101000a81548173ffffffffffffffffffffffffffffffffffffffff021916908373ffffffffffffffffffffffffffffffffffffffff1602179055508073ffffffffffffffffffffffffffffffffffffffff165f5f9054906101000a900473ffffffffffffffffffffffffffffffffffffffff1673ffffffffffffffffffffffffffffffffffffffff167fed8889f560326eb138920d842192f0eb3dd22b4f139c87a2c57538e05bae127860405160405180910390a350565b5f81519050919050565b7f4e487b71000000000000000000000000000000000000000000000000000000005f52604160045260245ffd5b7f4e487b71000000000000000000000000000000000000000000000000000000005f52602260045260245ffd5b5f60028204905060018216806103b457607f821691505b6020821081036103c7576103c6610370565b5b50919050565b5f819050815f5260205f209050919050565b5f6020601f8301049050919050565b5f82821b905092915050565b5f600883026104297fffffffffffffffffffffffffffffffffffffffffffffffffffffffffffffffff826103ee565b61043386836103ee565b95508019841693508086168417925050509392505050565b5f819050919050565b5f819050919050565b5f61047761047261046d8461044b565b610454565b61044b565b9050919050565b5f819050919050565b6104908361045d565b6104a461049c8261047e565b8484546103fa565b825550505050565b5f5f905090565b6104bb6104ac565b6104c6818484610487565b505050565b5b818110156104e9576104de5f826104b3565b6001810190506104cc565b5050565b601f82111561052e576104ff816103cd565b610508846103df565b81016020851015610517578190505b61052b610523856103df565b8301826104cb565b50505b505050565b5f82821c905092915050565b5f61054e5f1984600802610533565b1980831691505092915050565b5f610566838361053f565b9150826002028217905092915050565b61057f82610339565b67ffffffffffffffff81111561059857610597610343565b5b6105a2825461039d565b6105ad8282856104ed565b5f60209050601f8311600181146105de575f84156105cc578287015190505b6105d6858261055b565b86555061063d565b601f1984166105ec866103cd565b5f5b82811015610613578489015182556001820191506020850194506020810190506105ee565b86831015610630578489015161062c601f89168261053f565b8355505b6001600288020188555050505b505050505050565b5f82825260208201905092915050565b7f43616e6e6f7420736574206f776e657220746f207a65726f00000000000000005f82015250565b5f610689601883610645565b915061069482610655565b602082019050919050565b5f6020820190508181035f8301526106b68161067d565b9050919050565b7f43616e6e6f74207472616e7366657220746f2073656c660000000000000000005f82015250565b5f6106f1601783610645565b91506106fc826106bd565b602082019050919050565b5f6020820190508181035f83015261071e816106e5565b9050919050565b6080516123aa6107445f395f81816103e30152610e3501526123aa5ff3fe608060405234801561000f575f5ffd5b5060043610610114575f3560e01c80639c84cd10116100a0578063ec2b70a41161006f578063ec2b70a41461028b578063f2fde38b146102a9578063f68016b7146102c5578063fc2a88c3146102e3578063ff8e583a1461030157610114565b80639c84cd1014610211578063afdb055614610233578063c8f33c9114610251578063d0f784f01461026f57610114565b80632f5df725116100e75780632f5df7251461018f5780636e74336b146101ad57806379ba5097146101cb5780638da5cb5b146101d55780638e15f473146101f357610114565b806305239ca11461011857806309c1ba2e146101345780630ca761751461015257806326c4c8891461016e575b5f5ffd5b610132600480360381019061012d9190611726565b61031f565b005b61013c6103c8565b6040516101499190611773565b60405180910390f35b61016c600480360381019061016791906118fb565b6103e1565b005b6101766104a3565b60405161018694939291906119f2565b60405180910390f35b6101976104ea565b6040516101a49190611a56565b60405180910390f35b6101b5610502565b6040516101c29190611a7e565b60405180910390f35b6101d3610508565b005b6101dd610697565b6040516101ea9190611ad6565b60405180910390f35b6101fb6106be565b6040516102089190611aef565b60405180910390f35b6102196106c7565b60405161022a959493929190611b08565b60405180910390f35b61023b610709565b6040516102489190611a7e565b60405180910390f35b610259610824565b6040516102669190611aef565b60405180910390f35b61028960048036038101906102849190611bbc565b61082a565b005b610293610887565b6040516102a09190611aef565b60405180910390f35b6102c360048036038101906102be9190611c36565b6108a2565b005b6102cd6108b6565b6040516102da9190611c70565b60405180910390f35b6102eb6108cc565b6040516102f89190611a7e565b60405180910390f35b6103096108d2565b6040516103169190611aef565b60405180910390f35b6103276108db565b5f8111610369576040517f08c379a000000000000000000000000000000000000000000000000000000000815260040161036090611cd3565b60405180910390fd5b670de0b6b3a76400008161037d9190611d1e565b600281905550426003819055507f945c1c4e99aa89f648fbfe3df471b916f719e16d960fcec0737d4d56bd696838600254426040516103bd929190611d5f565b60405180910390a150565b60055f9054906101000a900467ffffffffffffffff1681565b7f000000000000000000000000000000000000000000000000000000000000000073ffffffffffffffffffffffffffffffffffffffff163373ffffffffffffffffffffffffffffffffffffffff1614610466576040517fc6829f8300000000000000000000000000000000000000000000000000000000815260040160405180910390fd5b61047183838361096b565b827f85e1543bf2f84fe80c6badbce3648c8539ad1df4d2b3d822938ca0538be727e660405160405180910390a2505050565b5f5f5f6060600254662386f26fc100006002546104c09190611db3565b6002546040518060600160405280602f8152602001612346602f9139935093509350935090919293565b5f610e10600354426104fc9190611de3565b11905090565b60065481565b60015f9054906101000a900473ffffffffffffffffffffffffffffffffffffffff1673ffffffffffffffffffffffffffffffffffffffff163373ffffffffffffffffffffffffffffffffffffffff1614610597576040517f08c379a000000000000000000000000000000000000000000000000000000000815260040161058e90611e60565b60405180910390fd5b5f5f5f9054906101000a900473ffffffffffffffffffffffffffffffffffffffff169050335f5f6101000a81548173ffffffffffffffffffffffffffffffffffffffff021916908373ffffffffffffffffffffffffffffffffffffffff1602179055505f60015f6101000a81548173ffffffffffffffffffffffffffffffffffffffff021916908373ffffffffffffffffffffffffffffffffffffffff1602179055503373ffffffffffffffffffffffffffffffffffffffff168173ffffffffffffffffffffffffffffffffffffffff167f8be0079c531659141344cd1fd0a4f28419497f9722a3daafe3b4186f6b6457e060405160405180910390a350565b5f5f5f9054906101000a900473ffffffffffffffffffffffffffffffffffffffff16905090565b5f600254905090565b5f5f5f5f5f600254662386f26fc100006002546106e49190611db3565b600354600354426106f59190611de3565b600454945094509450945094509091929394565b5f61071261163b565b6107ad6007805461072290611eab565b80601f016020809104026020016040519081016040528092919081815260200182805461074e90611eab565b80156107995780601f1061077057610100808354040283529160200191610799565b820191905f5260205f20905b81548152906001019060200180831161077c57829003601f168201915b505050505082610a1690919063ffffffff16565b6107ea6107b982610a26565b60055f9054906101000a900467ffffffffffffffff16600560089054906101000a900463ffffffff16600654610e31565b915081600481905550817f655f2dca0174ce451aa939c62ea493c734778cc67c6783626b08ad34985e6c6160405160405180910390a25090565b60035481565b6108326108db565b8260055f6101000a81548167ffffffffffffffff021916908367ffffffffffffffff16021790555081600560086101000a81548163ffffffff021916908363ffffffff16021790555080600681905550505050565b5f662386f26fc1000060025461089d9190611db3565b905090565b6108aa6108db565b6108b381610f10565b50565b600560089054906101000a900463ffffffff1681565b60045481565b5f600254905090565b5f5f9054906101000a900473ffffffffffffffffffffffffffffffffffffffff1673ffffffffffffffffffffffffffffffffffffffff163373ffffffffffffffffffffffffffffffffffffffff1614610969576040517f08c379a000000000000000000000000000000000000000000000000000000000815260040161096090611f25565b60405180910390fd5b565b5f815111156109b157827f61982c98cbc49d11759a948f460b92bca26bdf12ceee12c310f117eb2ca9a9cb826040516109a49190611f95565b60405180910390a2610a11565b5f828060200190518101906109c69190611fc9565b905080600281905550426003819055507f945c1c4e99aa89f648fbfe3df471b916f719e16d960fcec0737d4d56bd6968388142604051610a07929190611d5f565b60405180910390a1505b505050565b610a22825f5f8461103b565b5050565b60605f610a346101006110e1565b9050610a7e6040518060400160405280600c81526020017f636f64654c6f636174696f6e00000000000000000000000000000000000000008152508261110690919063ffffffff16565b610aa6835f01516002811115610a9757610a96611ff4565b5b8261112e90919063ffffffff16565b610aee6040518060400160405280600881526020017f6c616e67756167650000000000000000000000000000000000000000000000008152508261110690919063ffffffff16565b610b1683604001515f811115610b0757610b06611ff4565b5b8261112e90919063ffffffff16565b610b5e6040518060400160405280600681526020017f736f7572636500000000000000000000000000000000000000000000000000008152508261110690919063ffffffff16565b610b7583606001518261110690919063ffffffff16565b5f8360a00151511115610c2c57610bca6040518060400160405280600481526020017f61726773000000000000000000000000000000000000000000000000000000008152508261110690919063ffffffff16565b610bd38161117d565b5f5f90505b8360a0015151811015610c2157610c168460a001518281518110610bff57610bfe612021565b5b60200260200101518361110690919063ffffffff16565b806001019050610bd8565b50610c2b816111a5565b5b5f8360800151511115610d6b575f6002811115610c4c57610c4b611ff4565b5b83602001516002811115610c6357610c62611ff4565b5b03610c9a576040517fa80d31f700000000000000000000000000000000000000000000000000000000815260040160405180910390fd5b610ce26040518060400160405280600f81526020017f736563726574734c6f636174696f6e00000000000000000000000000000000008152508261110690919063ffffffff16565b610d0b83602001516002811115610cfc57610cfb611ff4565b5b8261112e90919063ffffffff16565b610d536040518060400160405280600781526020017f73656372657473000000000000000000000000000000000000000000000000008152508261110690919063ffffffff16565b610d6a8360800151826111cd90919063ffffffff16565b5b5f8360c00151511115610e2257610dc06040518060400160405280600981526020017f62797465734172677300000000000000000000000000000000000000000000008152508261110690919063ffffffff16565b610dc98161117d565b5f5f90505b8360c0015151811015610e1757610e0c8460c001518281518110610df557610df4612021565b5b6020026020010151836111cd90919063ffffffff16565b806001019050610dce565b50610e21816111a5565b5b805f01515f0151915050919050565b5f5f7f000000000000000000000000000000000000000000000000000000000000000073ffffffffffffffffffffffffffffffffffffffff1663461d27628688600188886040518663ffffffff1660e01b8152600401610e9595949392919061206a565b6020604051808303815f875af1158015610eb1573d5f5f3e3d5ffd5b505050506040513d601f19601f82011682018060405250810190610ed591906120d6565b9050807f1131472297a800fee664d1d89cfa8f7676ff07189ecc53f80bbb5f4969099db860405160405180910390a280915050949350505050565b3373ffffffffffffffffffffffffffffffffffffffff168173ffffffffffffffffffffffffffffffffffffffff1603610f7e576040517f08c379a0000000000000000000000000000000000000000000000000000000008152600401610f759061214b565b60405180910390fd5b8060015f6101000a81548173ffffffffffffffffffffffffffffffffffffffff021916908373ffffffffffffffffffffffffffffffffffffffff1602179055508073ffffffffffffffffffffffffffffffffffffffff165f5f9054906101000a900473ffffffffffffffffffffffffffffffffffffffff1673ffffffffffffffffffffffffffffffffffffffff167fed8889f560326eb138920d842192f0eb3dd22b4f139c87a2c57538e05bae127860405160405180910390a350565b5f815103611075576040517f22ce3edd00000000000000000000000000000000000000000000000000000000815260040160405180910390fd5b82845f0190600281111561108c5761108b611ff4565b5b908160028111156110a05761109f611ff4565b5b815250508184604001905f8111156110bb576110ba611ff4565b5b90815f8111156110ce576110cd611ff4565b5b8152505080846060018190525050505050565b6110e96116aa565b6110f6815f0151836111f5565b505f816020018181525050919050565b611113826003835161126b565b61112981835f015161140b90919063ffffffff16565b505050565b61114f60026005600660ff16901b17835f015161142790919063ffffffff16565b5061117982826040516020016111659190611aef565b6040516020818303038152906040526111cd565b5050565b61118881600461148e565b60018160200181815161119b9190612169565b9150818152505050565b6111b081600761148e565b6001816020018181516111c39190611de3565b9150818152505050565b6111da826002835161126b565b6111f081835f015161140b90919063ffffffff16565b505050565b6111fd6116c9565b5f60208361120b919061219c565b146112375760208261121d919061219c565b60206112299190611de3565b826112349190612169565b91505b818360200181815250506040518084525f81528281016020018181101561125c575f5ffd5b80604052505082905092915050565b60178167ffffffffffffffff16116112a55761129f8160058460ff16901b60ff1617845f015161142790919063ffffffff16565b50611406565b60ff8167ffffffffffffffff1611611301576112d7601860058460ff16901b17845f015161142790919063ffffffff16565b506112fb8167ffffffffffffffff166001855f01516114b39092919063ffffffff16565b50611405565b61ffff8167ffffffffffffffff161161135e57611334601960058460ff16901b17845f015161142790919063ffffffff16565b506113588167ffffffffffffffff166002855f01516114b39092919063ffffffff16565b50611404565b63ffffffff8167ffffffffffffffff16116113bd57611393601a60058460ff16901b17845f015161142790919063ffffffff16565b506113b78167ffffffffffffffff166004855f01516114b39092919063ffffffff16565b50611403565b6113dd601b60058460ff16901b17845f015161142790919063ffffffff16565b506114018167ffffffffffffffff166008855f01516114b39092919063ffffffff16565b505b5b5b5b505050565b6114136116c9565b61141f8383845161153c565b905092915050565b61142f6116c9565b5f835f01515190505f6001826114459190612169565b90508460200151821061146957611468856002836114639190611d1e565b611619565b5b84516020838201018581538151831115611481578282525b5050849250505092915050565b6114ae601f60058360ff16901b17835f015161142790919063ffffffff16565b505050565b6114bb6116c9565b5f845f01515190505f81846114d09190612169565b905085602001518111156114f5576114f4866002836114ef9190611d1e565b611619565b5b5f60018561010061150691906122fb565b6115109190611de3565b90508651828101878319825116178152815184111561152d578382525b50508693505050509392505050565b6115446116c9565b8251821115611551575f5ffd5b5f845f01515190505f83826115669190612169565b9050856020015181111561158b5761158a866002836115859190611d1e565b611619565b5b5f5f875180518560208301019350808511156115a5578482525b60208901925050505b602086106115ec57805182526020826115c79190612169565b91506020816115d69190612169565b90506020866115e59190611de3565b95506115ae565b5f6001876020036101000a0390508019825116818451168181178552505050879450505050509392505050565b5f825f0151905061162a83836111f5565b50611635838261140b565b50505050565b6040518060e001604052805f600281111561165957611658611ff4565b5b81526020015f600281111561167157611670611ff4565b5b81526020015f5f81111561168857611687611ff4565b5b8152602001606081526020016060815260200160608152602001606081525090565b60405180604001604052806116bd6116c9565b81526020015f81525090565b6040518060400160405280606081526020015f81525090565b5f604051905090565b5f5ffd5b5f5ffd5b5f819050919050565b611705816116f3565b811461170f575f5ffd5b50565b5f81359050611720816116fc565b92915050565b5f6020828403121561173b5761173a6116eb565b5b5f61174884828501611712565b91505092915050565b5f67ffffffffffffffff82169050919050565b61176d81611751565b82525050565b5f6020820190506117865f830184611764565b92915050565b5f819050919050565b61179e8161178c565b81146117a8575f5ffd5b50565b5f813590506117b981611795565b92915050565b5f5ffd5b5f5ffd5b5f601f19601f8301169050919050565b7f4e487b71000000000000000000000000000000000000000000000000000000005f52604160045260245ffd5b61180d826117c7565b810181811067ffffffffffffffff8211171561182c5761182b6117d7565b5b80604052505050565b5f61183e6116e2565b905061184a8282611804565b919050565b5f67ffffffffffffffff821115611869576118686117d7565b5b611872826117c7565b9050602081019050919050565b828183375f83830152505050565b5f61189f61189a8461184f565b611835565b9050828152602081018484840111156118bb576118ba6117c3565b5b6118c684828561187f565b509392505050565b5f82601f8301126118e2576118e16117bf565b5b81356118f284826020860161188d565b91505092915050565b5f5f5f60608486031215611912576119116116eb565b5b5f61191f868287016117ab565b935050602084013567ffffffffffffffff8111156119405761193f6116ef565b5b61194c868287016118ce565b925050604084013567ffffffffffffffff81111561196d5761196c6116ef565b5b611979868287016118ce565b9150509250925092565b61198c816116f3565b82525050565b5f81519050919050565b5f82825260208201905092915050565b8281835e5f83830152505050565b5f6119c482611992565b6119ce818561199c565b93506119de8185602086016119ac565b6119e7816117c7565b840191505092915050565b5f608082019050611a055f830187611983565b611a126020830186611983565b611a1f6040830185611983565b8181036060830152611a3181846119ba565b905095945050505050565b5f8115159050919050565b611a5081611a3c565b82525050565b5f602082019050611a695f830184611a47565b92915050565b611a788161178c565b82525050565b5f602082019050611a915f830184611a6f565b92915050565b5f73ffffffffffffffffffffffffffffffffffffffff82169050919050565b5f611ac082611a97565b9050919050565b611ad081611ab6565b82525050565b5f602082019050611ae95f830184611ac7565b92915050565b5f602082019050611b025f830184611983565b92915050565b5f60a082019050611b1b5f830188611983565b611b286020830187611983565b611b356040830186611983565b611b426060830185611983565b611b4f6080830184611a6f565b9695505050505050565b611b6281611751565b8114611b6c575f5ffd5b50565b5f81359050611b7d81611b59565b92915050565b5f63ffffffff82169050919050565b611b9b81611b83565b8114611ba5575f5ffd5b50565b5f81359050611bb681611b92565b92915050565b5f5f5f60608486031215611bd357611bd26116eb565b5b5f611be086828701611b6f565b9350506020611bf186828701611ba8565b9250506040611c02868287016117ab565b9150509250925092565b611c1581611ab6565b8114611c1f575f5ffd5b50565b5f81359050611c3081611c0c565b92915050565b5f60208284031215611c4b57611c4a6116eb565b5b5f611c5884828501611c22565b91505092915050565b611c6a81611b83565b82525050565b5f602082019050611c835f830184611c61565b92915050565b7f5072696365206d7573742062652067726561746572207468616e2030000000005f82015250565b5f611cbd601c8361199c565b9150611cc882611c89565b602082019050919050565b5f6020820190508181035f830152611cea81611cb1565b9050919050565b7f4e487b71000000000000000000000000000000000000000000000000000000005f52601160045260245ffd5b5f611d28826116f3565b9150611d33836116f3565b9250828202611d41816116f3565b91508282048414831517611d5857611d57611cf1565b5b5092915050565b5f604082019050611d725f830185611983565b611d7f6020830184611983565b9392505050565b7f4e487b71000000000000000000000000000000000000000000000000000000005f52601260045260245ffd5b5f611dbd826116f3565b9150611dc8836116f3565b925082611dd857611dd7611d86565b5b828204905092915050565b5f611ded826116f3565b9150611df8836116f3565b9250828203905081811115611e1057611e0f611cf1565b5b92915050565b7f4d7573742062652070726f706f736564206f776e6572000000000000000000005f82015250565b5f611e4a60168361199c565b9150611e5582611e16565b602082019050919050565b5f6020820190508181035f830152611e7781611e3e565b9050919050565b7f4e487b71000000000000000000000000000000000000000000000000000000005f52602260045260245ffd5b5f6002820490506001821680611ec257607f821691505b602082108103611ed557611ed4611e7e565b5b50919050565b7f4f6e6c792063616c6c61626c65206279206f776e6572000000000000000000005f82015250565b5f611f0f60168361199c565b9150611f1a82611edb565b602082019050919050565b5f6020820190508181035f830152611f3c81611f03565b9050919050565b5f81519050919050565b5f82825260208201905092915050565b5f611f6782611f43565b611f718185611f4d565b9350611f818185602086016119ac565b611f8a816117c7565b840191505092915050565b5f6020820190508181035f830152611fad8184611f5d565b905092915050565b5f81519050611fc3816116fc565b92915050565b5f60208284031215611fde57611fdd6116eb565b5b5f611feb84828501611fb5565b91505092915050565b7f4e487b71000000000000000000000000000000000000000000000000000000005f52602160045260245ffd5b7f4e487b71000000000000000000000000000000000000000000000000000000005f52603260045260245ffd5b5f61ffff82169050919050565b6120648161204e565b82525050565b5f60a08201905061207d5f830188611764565b818103602083015261208f8187611f5d565b905061209e604083018661205b565b6120ab6060830185611c61565b6120b86080830184611a6f565b9695505050505050565b5f815190506120d081611795565b92915050565b5f602082840312156120eb576120ea6116eb565b5b5f6120f8848285016120c2565b91505092915050565b7f43616e6e6f74207472616e7366657220746f2073656c660000000000000000005f82015250565b5f61213560178361199c565b915061214082612101565b602082019050919050565b5f6020820190508181035f83015261216281612129565b9050919050565b5f612173826116f3565b915061217e836116f3565b925082820190508082111561219657612195611cf1565b5b92915050565b5f6121a6826116f3565b91506121b1836116f3565b9250826121c1576121c0611d86565b5b828206905092915050565b5f8160011c9050919050565b5f5f8291508390505b6001851115612221578086048111156121fd576121fc611cf1565b5b600185161561220c5780820291505b808102905061221a856121cc565b94506121e1565b94509492505050565b5f8261223957600190506122f4565b81612246575f90506122f4565b816001811461225c576002811461226657612295565b60019150506122f4565b60ff84111561227857612277611cf1565b5b8360020a91508482111561228f5761228e611cf1565b5b506122f4565b5060208310610133831016604e8410600b84101617156122ca5782820a9050838111156122c5576122c4611cf1565b5b6122f4565b6122d784848460016121d8565b925090508184048111156122ee576122ed611cf1565b5b81810290505b9392505050565b5f612305826116f3565b9150612310836116f3565b925061233d7fffffffffffffffffffffffffffffffffffffffffffffffffffffffffffffffff848461222a565b90509291505056fe555344205072696365203d20545744205072696365202f205553442d54574420526174652028696e2063656e747329a26469706673582212209d3518e5f33d4646a8fcdb7d828356473efb575ce6eb2b6687508f76fb6154d864736f6c634300081e0033636f6e7374205b74773530526573706f6e73652c20757364547764526573706f6e73655d203d2061776169742050726f6d6973652e616c6c285b46756e6374696f6e732e6d616b654874747052657175657374287b75726c3a202768747470733a2f2f7175657279312e66696e616e63652e7961686f6f2e636f6d2f76382f66696e616e63652f63686172742f303035302e5457277d292c46756e6374696f6e732e6d616b654874747052657175657374287b75726c3a202768747470733a2f2f7175657279312e66696e616e63652e7961686f6f2e636f6d2f76382f66696e616e63652f63686172742f5553445457443d58277d295d293b6966202874773530526573706f6e73652e6572726f72207c7c20757364547764526573706f6e73652e6572726f7229207b7468726f77204572726f72282752657175657374206661696c656427293b7d636f6e737420747735305072696365203d2074773530526573706f6e73652e646174612e63686172742e726573756c745b305d2e6d6574612e726567756c61724d61726b657450726963653b636f6e73742075736454776452617465203d20757364547764526573706f6e73652e646174612e63686172742e726573756c745b305d2e6d6574612e726567756c61724d61726b657450726963653b6966202821747735305072696365207c7c20217573645477645261746529207b7468726f77204572726f7228275072696365206e6f7420666f756e6427293b7d636f6e7374207573645072696365203d20747735305072696365202f20757364547764526174653b72657475726e2046756e6374696f6e732e656e636f646555696e74323536284d6174682e726f756e64287573645072696365202a203165313829293b",
					"opcodes": "PUSH1 0xA0 PUSH1 0x40 MSTORE PUSH3 0x493E0 PUSH1 0x5 PUSH1 0x8 PUSH2 0x100 EXP DUP2 SLOAD DUP2 PUSH4 0xFFFFFFFF MUL NOT AND SWAP1 DUP4 PUSH4 0xFFFFFFFF AND MUL OR SWAP1 SSTORE POP PUSH1 0x40 MLOAD DUP1 PUSH2 0x2C0 ADD PUSH1 0x40 MSTORE DUP1 PUSH2 0x288 DUP2 MSTORE PUSH1 0x20 ADD PUSH2 0x2AEE PUSH2 0x288 SWAP2 CODECOPY PUSH1 0x7 SWAP1 DUP2 PUSH2 0x52 SWAP2 SWAP1 PUSH2 0x576 JUMP JUMPDEST POP CALLVALUE DUP1 ISZERO PUSH2 0x5E JUMPI PUSH0 PUSH0 REVERT JUMPDEST POP CALLER DUP1 PUSH0 PUSH20 0xB83E47C2BC239B3BF370BC41E1459A34B41238D0 DUP1 PUSH20 0xFFFFFFFFFFFFFFFFFFFFFFFFFFFFFFFFFFFFFFFF AND PUSH1 0x80 DUP2 PUSH20 0xFFFFFFFFFFFFFFFFFFFFFFFFFFFFFFFFFFFFFFFF AND DUP2 MSTORE POP POP POP PUSH0 PUSH20 0xFFFFFFFFFFFFFFFFFFFFFFFFFFFFFFFFFFFFFFFF AND DUP3 PUSH20 0xFFFFFFFFFFFFFFFFFFFFFFFFFFFFFFFFFFFFFFFF AND SUB PUSH2 0x11A JUMPI PUSH1 0x40 MLOAD PUSH32 0x8C379A000000000000000000000000000000000000000000000000000000000 DUP2 MSTORE PUSH1 0x4 ADD PUSH2 0x111 SWAP1 PUSH2 0x69F JUMP JUMPDEST PUSH1 0x40 MLOAD DUP1 SWAP2 SUB SWAP1 REVERT JUMPDEST DUP2 PUSH0 PUSH0 PUSH2 0x100 EXP DUP2 SLOAD DUP2 PUSH20 0xFFFFFFFFFFFFFFFFFFFFFFFFFFFFFFFFFFFFFFFF MUL NOT AND SWAP1 DUP4 PUSH20 0xFFFFFFFFFFFFFFFFFFFFFFFFFFFFFFFFFFFFFFFF AND MUL OR SWAP1 SSTORE POP PUSH0 PUSH20 0xFFFFFFFFFFFFFFFFFFFFFFFFFFFFFFFFFFFFFFFF AND DUP2 PUSH20 0xFFFFFFFFFFFFFFFFFFFFFFFFFFFFFFFFFFFFFFFF AND EQ PUSH2 0x19C JUMPI PUSH2 0x19B DUP2 PUSH2 0x20E PUSH1 0x20 SHL PUSH1 0x20 SHR JUMP JUMPDEST JUMPDEST POP POP POP PUSH2 0x1607 PUSH1 0x5 PUSH0 PUSH2 0x100 EXP DUP2 SLOAD DUP2 PUSH8 0xFFFFFFFFFFFFFFFF MUL NOT AND SWAP1 DUP4 PUSH8 0xFFFFFFFFFFFFFFFF AND MUL OR SWAP1 SSTORE POP PUSH32 0x66756E2D657468657265756D2D7365706F6C69612D3100000000000000000000 PUSH0 SHL PUSH1 0x6 DUP2 SWAP1 SSTORE POP PUSH9 0x1158E460913D00000 PUSH1 0x2 DUP2 SWAP1 SSTORE POP TIMESTAMP PUSH1 0x3 DUP2 SWAP1 SSTORE POP PUSH2 0x725 JUMP JUMPDEST CALLER PUSH20 0xFFFFFFFFFFFFFFFFFFFFFFFFFFFFFFFFFFFFFFFF AND DUP2 PUSH20 0xFFFFFFFFFFFFFFFFFFFFFFFFFFFFFFFFFFFFFFFF AND SUB PUSH2 0x27C JUMPI PUSH1 0x40 MLOAD PUSH32 0x8C379A000000000000000000000000000000000000000000000000000000000 DUP2 MSTORE PUSH1 0x4 ADD PUSH2 0x273 SWAP1 PUSH2 0x707 JUMP JUMPDEST PUSH1 0x40 MLOAD DUP1 SWAP2 SUB SWAP1 REVERT JUMPDEST DUP1 PUSH1 0x1 PUSH0 PUSH2 0x100 EXP DUP2 SLOAD DUP2 PUSH20 0xFFFFFFFFFFFFFFFFFFFFFFFFFFFFFFFFFFFFFFFF MUL NOT AND SWAP1 DUP4 PUSH20 0xFFFFFFFFFFFFFFFFFFFFFFFFFFFFFFFFFFFFFFFF AND MUL OR SWAP1 SSTORE POP DUP1 PUSH20 0xFFFFFFFFFFFFFFFFFFFFFFFFFFFFFFFFFFFFFFFF AND PUSH0 PUSH0 SWAP1 SLOAD SWAP1 PUSH2 0x100 EXP SWAP1 DIV PUSH20 0xFFFFFFFFFFFFFFFFFFFFFFFFFFFFFFFFFFFFFFFF AND PUSH20 0xFFFFFFFFFFFFFFFFFFFFFFFFFFFFFFFFFFFFFFFF AND PUSH32 0xED8889F560326EB138920D842192F0EB3DD22B4F139C87A2C57538E05BAE1278 PUSH1 0x40 MLOAD PUSH1 0x40 MLOAD DUP1 SWAP2 SUB SWAP1 LOG3 POP JUMP JUMPDEST PUSH0 DUP2 MLOAD SWAP1 POP SWAP2 SWAP1 POP JUMP JUMPDEST PUSH32 0x4E487B7100000000000000000000000000000000000000000000000000000000 PUSH0 MSTORE PUSH1 0x41 PUSH1 0x4 MSTORE PUSH1 0x24 PUSH0 REVERT JUMPDEST PUSH32 0x4E487B7100000000000000000000000000000000000000000000000000000000 PUSH0 MSTORE PUSH1 0x22 PUSH1 0x4 MSTORE PUSH1 0x24 PUSH0 REVERT JUMPDEST PUSH0 PUSH1 0x2 DUP3 DIV SWAP1 POP PUSH1 0x1 DUP3 AND DUP1 PUSH2 0x3B4 JUMPI PUSH1 0x7F DUP3 AND SWAP2 POP JUMPDEST PUSH1 0x20 DUP3 LT DUP2 SUB PUSH2 0x3C7 JUMPI PUSH2 0x3C6 PUSH2 0x370 JUMP JUMPDEST JUMPDEST POP SWAP2 SWAP1 POP JUMP JUMPDEST PUSH0 DUP2 SWAP1 POP DUP2 PUSH0 MSTORE PUSH1 0x20 PUSH0 KECCAK256 SWAP1 POP SWAP2 SWAP1 POP JUMP JUMPDEST PUSH0 PUSH1 0x20 PUSH1 0x1F DUP4 ADD DIV SWAP1 POP SWAP2 SWAP1 POP JUMP JUMPDEST PUSH0 DUP3 DUP3 SHL SWAP1 POP SWAP3 SWAP2 POP POP JUMP JUMPDEST PUSH0 PUSH1 0x8 DUP4 MUL PUSH2 0x429 PUSH32 0xFFFFFFFFFFFFFFFFFFFFFFFFFFFFFFFFFFFFFFFFFFFFFFFFFFFFFFFFFFFFFFFF DUP3 PUSH2 0x3EE JUMP JUMPDEST PUSH2 0x433 DUP7 DUP4 PUSH2 0x3EE JUMP JUMPDEST SWAP6 POP DUP1 NOT DUP5 AND SWAP4 POP DUP1 DUP7 AND DUP5 OR SWAP3 POP POP POP SWAP4 SWAP3 POP POP POP JUMP JUMPDEST PUSH0 DUP2 SWAP1 POP SWAP2 SWAP1 POP JUMP JUMPDEST PUSH0 DUP2 SWAP1 POP SWAP2 SWAP1 POP JUMP JUMPDEST PUSH0 PUSH2 0x477 PUSH2 0x472 PUSH2 0x46D DUP5 PUSH2 0x44B JUMP JUMPDEST PUSH2 0x454 JUMP JUMPDEST PUSH2 0x44B JUMP JUMPDEST SWAP1 POP SWAP2 SWAP1 POP JUMP JUMPDEST PUSH0 DUP2 SWAP1 POP SWAP2 SWAP1 POP JUMP JUMPDEST PUSH2 0x490 DUP4 PUSH2 0x45D JUMP JUMPDEST PUSH2 0x4A4 PUSH2 0x49C DUP3 PUSH2 0x47E JUMP JUMPDEST DUP5 DUP5 SLOAD PUSH2 0x3FA JUMP JUMPDEST DUP3 SSTORE POP POP POP POP JUMP JUMPDEST PUSH0 PUSH0 SWAP1 POP SWAP1 JUMP JUMPDEST PUSH2 0x4BB PUSH2 0x4AC JUMP JUMPDEST PUSH2 0x4C6 DUP2 DUP5 DUP5 PUSH2 0x487 JUMP JUMPDEST POP POP POP JUMP JUMPDEST JUMPDEST DUP2 DUP2 LT ISZERO PUSH2 0x4E9 JUMPI PUSH2 0x4DE PUSH0 DUP3 PUSH2 0x4B3 JUMP JUMPDEST PUSH1 0x1 DUP2 ADD SWAP1 POP PUSH2 0x4CC JUMP JUMPDEST POP POP JUMP JUMPDEST PUSH1 0x1F DUP3 GT ISZERO PUSH2 0x52E JUMPI PUSH2 0x4FF DUP2 PUSH2 0x3CD JUMP JUMPDEST PUSH2 0x508 DUP5 PUSH2 0x3DF JUMP JUMPDEST DUP2 ADD PUSH1 0x20 DUP6 LT ISZERO PUSH2 0x517 JUMPI DUP2 SWAP1 POP JUMPDEST PUSH2 0x52B PUSH2 0x523 DUP6 PUSH2 0x3DF JUMP JUMPDEST DUP4 ADD DUP3 PUSH2 0x4CB JUMP JUMPDEST POP POP JUMPDEST POP POP POP JUMP JUMPDEST PUSH0 DUP3 DUP3 SHR SWAP1 POP SWAP3 SWAP2 POP POP JUMP JUMPDEST PUSH0 PUSH2 0x54E PUSH0 NOT DUP5 PUSH1 0x8 MUL PUSH2 0x533 JUMP JUMPDEST NOT DUP1 DUP4 AND SWAP2 POP POP SWAP3 SWAP2 POP POP JUMP JUMPDEST PUSH0 PUSH2 0x566 DUP4 DUP4 PUSH2 0x53F JUMP JUMPDEST SWAP2 POP DUP3 PUSH1 0x2 MUL DUP3 OR SWAP1 POP SWAP3 SWAP2 POP POP JUMP JUMPDEST PUSH2 0x57F DUP3 PUSH2 0x339 JUMP JUMPDEST PUSH8 0xFFFFFFFFFFFFFFFF DUP2 GT ISZERO PUSH2 0x598 JUMPI PUSH2 0x597 PUSH2 0x343 JUMP JUMPDEST JUMPDEST PUSH2 0x5A2 DUP3 SLOAD PUSH2 0x39D JUMP JUMPDEST PUSH2 0x5AD DUP3 DUP3 DUP6 PUSH2 0x4ED JUMP JUMPDEST PUSH0 PUSH1 0x20 SWAP1 POP PUSH1 0x1F DUP4 GT PUSH1 0x1 DUP2 EQ PUSH2 0x5DE JUMPI PUSH0 DUP5 ISZERO PUSH2 0x5CC JUMPI DUP3 DUP8 ADD MLOAD SWAP1 POP JUMPDEST PUSH2 0x5D6 DUP6 DUP3 PUSH2 0x55B JUMP JUMPDEST DUP7 SSTORE POP PUSH2 0x63D JUMP JUMPDEST PUSH1 0x1F NOT DUP5 AND PUSH2 0x5EC DUP7 PUSH2 0x3CD JUMP JUMPDEST PUSH0 JUMPDEST DUP3 DUP2 LT ISZERO PUSH2 0x613 JUMPI DUP5 DUP10 ADD MLOAD DUP3 SSTORE PUSH1 0x1 DUP3 ADD SWAP2 POP PUSH1 0x20 DUP6 ADD SWAP5 POP PUSH1 0x20 DUP2 ADD SWAP1 POP PUSH2 0x5EE JUMP JUMPDEST DUP7 DUP4 LT ISZERO PUSH2 0x630 JUMPI DUP5 DUP10 ADD MLOAD PUSH2 0x62C PUSH1 0x1F DUP10 AND DUP3 PUSH2 0x53F JUMP JUMPDEST DUP4 SSTORE POP JUMPDEST PUSH1 0x1 PUSH1 0x2 DUP9 MUL ADD DUP9 SSTORE POP POP POP JUMPDEST POP POP POP POP POP POP JUMP JUMPDEST PUSH0 DUP3 DUP3 MSTORE PUSH1 0x20 DUP3 ADD SWAP1 POP SWAP3 SWAP2 POP POP JUMP JUMPDEST PUSH32 0x43616E6E6F7420736574206F776E657220746F207A65726F0000000000000000 PUSH0 DUP3 ADD MSTORE POP JUMP JUMPDEST PUSH0 PUSH2 0x689 PUSH1 0x18 DUP4 PUSH2 0x645 JUMP JUMPDEST SWAP2 POP PUSH2 0x694 DUP3 PUSH2 0x655 JUMP JUMPDEST PUSH1 0x20 DUP3 ADD SWAP1 POP SWAP2 SWAP1 POP JUMP JUMPDEST PUSH0 PUSH1 0x20 DUP3 ADD SWAP1 POP DUP2 DUP2 SUB PUSH0 DUP4 ADD MSTORE PUSH2 0x6B6 DUP2 PUSH2 0x67D JUMP JUMPDEST SWAP1 POP SWAP2 SWAP1 POP JUMP JUMPDEST PUSH32 0x43616E6E6F74207472616E7366657220746F2073656C66000000000000000000 PUSH0 DUP3 ADD MSTORE POP JUMP JUMPDEST PUSH0 PUSH2 0x6F1 PUSH1 0x17 DUP4 PUSH2 0x645 JUMP JUMPDEST SWAP2 POP PUSH2 0x6FC DUP3 PUSH2 0x6BD JUMP JUMPDEST PUSH1 0x20 DUP3 ADD SWAP1 POP SWAP2 SWAP1 POP JUMP JUMPDEST PUSH0 PUSH1 0x20 DUP3 ADD SWAP1 POP DUP2 DUP2 SUB PUSH0 DUP4 ADD MSTORE PUSH2 0x71E DUP2 PUSH2 0x6E5 JUMP JUMPDEST SWAP1 POP SWAP2 SWAP1 POP JUMP JUMPDEST PUSH1 0x80 MLOAD PUSH2 0x23AA PUSH2 0x744 PUSH0 CODECOPY PUSH0 DUP2 DUP2 PUSH2 0x3E3 ADD MSTORE PUSH2 0xE35 ADD MSTORE PUSH2 0x23AA PUSH0 RETURN INVALID PUSH1 0x80 PUSH1 0x40 MSTORE CALLVALUE DUP1 ISZERO PUSH2 0xF JUMPI PUSH0 PUSH0 REVERT JUMPDEST POP PUSH1 0x4 CALLDATASIZE LT PUSH2 0x114 JUMPI PUSH0 CALLDATALOAD PUSH1 0xE0 SHR DUP1 PUSH4 0x9C84CD10 GT PUSH2 0xA0 JUMPI DUP1 PUSH4 0xEC2B70A4 GT PUSH2 0x6F JUMPI DUP1 PUSH4 0xEC2B70A4 EQ PUSH2 0x28B JUMPI DUP1 PUSH4 0xF2FDE38B EQ PUSH2 0x2A9 JUMPI DUP1 PUSH4 0xF68016B7 EQ PUSH2 0x2C5 JUMPI DUP1 PUSH4 0xFC2A88C3 EQ PUSH2 0x2E3 JUMPI DUP1 PUSH4 0xFF8E583A EQ PUSH2 0x301 JUMPI PUSH2 0x114 JUMP JUMPDEST DUP1 PUSH4 0x9C84CD10 EQ PUSH2 0x211 JUMPI DUP1 PUSH4 0xAFDB0556 EQ PUSH2 0x233 JUMPI DUP1 PUSH4 0xC8F33C91 EQ PUSH2 0x251 JUMPI DUP1 PUSH4 0xD0F784F0 EQ PUSH2 0x26F JUMPI PUSH2 0x114 JUMP JUMPDEST DUP1 PUSH4 0x2F5DF725 GT PUSH2 0xE7 JUMPI DUP1 PUSH4 0x2F5DF725 EQ PUSH2 0x18F JUMPI DUP1 PUSH4 0x6E74336B EQ PUSH2 0x1AD JUMPI DUP1 PUSH4 0x79BA5097 EQ PUSH2 0x1CB JUMPI DUP1 PUSH4 0x8DA5CB5B EQ PUSH2 0x1D5 JUMPI DUP1 PUSH4 0x8E15F473 EQ PUSH2 0x1F3 JUMPI PUSH2 0x114 JUMP JUMPDEST DUP1 PUSH4 0x5239CA1 EQ PUSH2 0x118 JUMPI DUP1 PUSH4 0x9C1BA2E EQ PUSH2 0x134 JUMPI DUP1 PUSH4 0xCA76175 EQ PUSH2 0x152 JUMPI DUP1 PUSH4 0x26C4C889 EQ PUSH2 0x16E JUMPI JUMPDEST PUSH0 PUSH0 REVERT JUMPDEST PUSH2 0x132 PUSH1 0x4 DUP1 CALLDATASIZE SUB DUP2 ADD SWAP1 PUSH2 0x12D SWAP2 SWAP1 PUSH2 0x1726 JUMP JUMPDEST PUSH2 0x31F JUMP JUMPDEST STOP JUMPDEST PUSH2 0x13C PUSH2 0x3C8 JUMP JUMPDEST PUSH1 0x40 MLOAD PUSH2 0x149 SWAP2 SWAP1 PUSH2 0x1773 JUMP JUMPDEST PUSH1 0x40 MLOAD DUP1 SWAP2 SUB SWAP1 RETURN JUMPDEST PUSH2 0x16C PUSH1 0x4 DUP1 CALLDATASIZE SUB DUP2 ADD SWAP1 PUSH2 0x167 SWAP2 SWAP1 PUSH2 0x18FB JUMP JUMPDEST PUSH2 0x3E1 JUMP JUMPDEST STOP JUMPDEST PUSH2 0x176 PUSH2 0x4A3 JUMP JUMPDEST PUSH1 0x40 MLOAD PUSH2 0x186 SWAP5 SWAP4 SWAP3 SWAP2 SWAP1 PUSH2 0x19F2 JUMP JUMPDEST PUSH1 0x40 MLOAD DUP1 SWAP2 SUB SWAP1 RETURN JUMPDEST PUSH2 0x197 PUSH2 0x4EA JUMP JUMPDEST PUSH1 0x40 MLOAD PUSH2 0x1A4 SWAP2 SWAP1 PUSH2 0x1A56 JUMP JUMPDEST PUSH1 0x40 MLOAD DUP1 SWAP2 SUB SWAP1 RETURN JUMPDEST PUSH2 0x1B5 PUSH2 0x502 JUMP JUMPDEST PUSH1 0x40 MLOAD PUSH2 0x1C2 SWAP2 SWAP1 PUSH2 0x1A7E JUMP JUMPDEST PUSH1 0x40 MLOAD DUP1 SWAP2 SUB SWAP1 RETURN JUMPDEST PUSH2 0x1D3 PUSH2 0x508 JUMP JUMPDEST STOP JUMPDEST PUSH2 0x1DD PUSH2 0x697 JUMP JUMPDEST PUSH1 0x40 MLOAD PUSH2 0x1EA SWAP2 SWAP1 PUSH2 0x1AD6 JUMP JUMPDEST PUSH1 0x40 MLOAD DUP1 SWAP2 SUB SWAP1 RETURN JUMPDEST PUSH2 0x1FB PUSH2 0x6BE JUMP JUMPDEST PUSH1 0x40 MLOAD PUSH2 0x208 SWAP2 SWAP1 PUSH2 0x1AEF JUMP JUMPDEST PUSH1 0x40 MLOAD DUP1 SWAP2 SUB SWAP1 RETURN JUMPDEST PUSH2 0x219 PUSH2 0x6C7 JUMP JUMPDEST PUSH1 0x40 MLOAD PUSH2 0x22A SWAP6 SWAP5 SWAP4 SWAP3 SWAP2 SWAP1 PUSH2 0x1B08 JUMP JUMPDEST PUSH1 0x40 MLOAD DUP1 SWAP2 SUB SWAP1 RETURN JUMPDEST PUSH2 0x23B PUSH2 0x709 JUMP JUMPDEST PUSH1 0x40 MLOAD PUSH2 0x248 SWAP2 SWAP1 PUSH2 0x1A7E JUMP JUMPDEST PUSH1 0x40 MLOAD DUP1 SWAP2 SUB SWAP1 RETURN JUMPDEST PUSH2 0x259 PUSH2 0x824 JUMP JUMPDEST PUSH1 0x40 MLOAD PUSH2 0x266 SWAP2 SWAP1 PUSH2 0x1AEF JUMP JUMPDEST PUSH1 0x40 MLOAD DUP1 SWAP2 SUB SWAP1 RETURN JUMPDEST PUSH2 0x289 PUSH1 0x4 DUP1 CALLDATASIZE SUB DUP2 ADD SWAP1 PUSH2 0x284 SWAP2 SWAP1 PUSH2 0x1BBC JUMP JUMPDEST PUSH2 0x82A JUMP JUMPDEST STOP JUMPDEST PUSH2 0x293 PUSH2 0x887 JUMP JUMPDEST PUSH1 0x40 MLOAD PUSH2 0x2A0 SWAP2 SWAP1 PUSH2 0x1AEF JUMP JUMPDEST PUSH1 0x40 MLOAD DUP1 SWAP2 SUB SWAP1 RETURN JUMPDEST PUSH2 0x2C3 PUSH1 0x4 DUP1 CALLDATASIZE SUB DUP2 ADD SWAP1 PUSH2 0x2BE SWAP2 SWAP1 PUSH2 0x1C36 JUMP JUMPDEST PUSH2 0x8A2 JUMP JUMPDEST STOP JUMPDEST PUSH2 0x2CD PUSH2 0x8B6 JUMP JUMPDEST PUSH1 0x40 MLOAD PUSH2 0x2DA SWAP2 SWAP1 PUSH2 0x1C70 JUMP JUMPDEST PUSH1 0x40 MLOAD DUP1 SWAP2 SUB SWAP1 RETURN JUMPDEST PUSH2 0x2EB PUSH2 0x8CC JUMP JUMPDEST PUSH1 0x40 MLOAD PUSH2 0x2F8 SWAP2 SWAP1 PUSH2 0x1A7E JUMP JUMPDEST PUSH1 0x40 MLOAD DUP1 SWAP2 SUB SWAP1 RETURN JUMPDEST PUSH2 0x309 PUSH2 0x8D2 JUMP JUMPDEST PUSH1 0x40 MLOAD PUSH2 0x316 SWAP2 SWAP1 PUSH2 0x1AEF JUMP JUMPDEST PUSH1 0x40 MLOAD DUP1 SWAP2 SUB SWAP1 RETURN JUMPDEST PUSH2 0x327 PUSH2 0x8DB JUMP JUMPDEST PUSH0 DUP2 GT PUSH2 0x369 JUMPI PUSH1 0x40 MLOAD PUSH32 0x8C379A000000000000000000000000000000000000000000000000000000000 DUP2 MSTORE PUSH1 0x4 ADD PUSH2 0x360 SWAP1 PUSH2 0x1CD3 JUMP JUMPDEST PUSH1 0x40 MLOAD DUP1 SWAP2 SUB SWAP1 REVERT JUMPDEST PUSH8 0xDE0B6B3A7640000 DUP2 PUSH2 0x37D SWAP2 SWAP1 PUSH2 0x1D1E JUMP JUMPDEST PUSH1 0x2 DUP2 SWAP1 SSTORE POP TIMESTAMP PUSH1 0x3 DUP2 SWAP1 SSTORE POP PUSH32 0x945C1C4E99AA89F648FBFE3DF471B916F719E16D960FCEC0737D4D56BD696838 PUSH1 0x2 SLOAD TIMESTAMP PUSH1 0x40 MLOAD PUSH2 0x3BD SWAP3 SWAP2 SWAP1 PUSH2 0x1D5F JUMP JUMPDEST PUSH1 0x40 MLOAD DUP1 SWAP2 SUB SWAP1 LOG1 POP JUMP JUMPDEST PUSH1 0x5 PUSH0 SWAP1 SLOAD SWAP1 PUSH2 0x100 EXP SWAP1 DIV PUSH8 0xFFFFFFFFFFFFFFFF AND DUP2 JUMP JUMPDEST PUSH32 0x0 PUSH20 0xFFFFFFFFFFFFFFFFFFFFFFFFFFFFFFFFFFFFFFFF AND CALLER PUSH20 0xFFFFFFFFFFFFFFFFFFFFFFFFFFFFFFFFFFFFFFFF AND EQ PUSH2 0x466 JUMPI PUSH1 0x40 MLOAD PUSH32 0xC6829F8300000000000000000000000000000000000000000000000000000000 DUP2 MSTORE PUSH1 0x4 ADD PUSH1 0x40 MLOAD DUP1 SWAP2 SUB SWAP1 REVERT JUMPDEST PUSH2 0x471 DUP4 DUP4 DUP4 PUSH2 0x96B JUMP JUMPDEST DUP3 PUSH32 0x85E1543BF2F84FE80C6BADBCE3648C8539AD1DF4D2B3D822938CA0538BE727E6 PUSH1 0x40 MLOAD PUSH1 0x40 MLOAD DUP1 SWAP2 SUB SWAP1 LOG2 POP POP POP JUMP JUMPDEST PUSH0 PUSH0 PUSH0 PUSH1 0x60 PUSH1 0x2 SLOAD PUSH7 0x2386F26FC10000 PUSH1 0x2 SLOAD PUSH2 0x4C0 SWAP2 SWAP1 PUSH2 0x1DB3 JUMP JUMPDEST PUSH1 0x2 SLOAD PUSH1 0x40 MLOAD DUP1 PUSH1 0x60 ADD PUSH1 0x40 MSTORE DUP1 PUSH1 0x2F DUP2 MSTORE PUSH1 0x20 ADD PUSH2 0x2346 PUSH1 0x2F SWAP2 CODECOPY SWAP4 POP SWAP4 POP SWAP4 POP SWAP4 POP SWAP1 SWAP2 SWAP3 SWAP4 JUMP JUMPDEST PUSH0 PUSH2 0xE10 PUSH1 0x3 SLOAD TIMESTAMP PUSH2 0x4FC SWAP2 SWAP1 PUSH2 0x1DE3 JUMP JUMPDEST GT SWAP1 POP SWAP1 JUMP JUMPDEST PUSH1 0x6 SLOAD DUP2 JUMP JUMPDEST PUSH1 0x1 PUSH0 SWAP1 SLOAD SWAP1 PUSH2 0x100 EXP SWAP1 DIV PUSH20 0xFFFFFFFFFFFFFFFFFFFFFFFFFFFFFFFFFFFFFFFF AND PUSH20 0xFFFFFFFFFFFFFFFFFFFFFFFFFFFFFFFFFFFFFFFF AND CALLER PUSH20 0xFFFFFFFFFFFFFFFFFFFFFFFFFFFFFFFFFFFFFFFF AND EQ PUSH2 0x597 JUMPI PUSH1 0x40 MLOAD PUSH32 0x8C379A000000000000000000000000000000000000000000000000000000000 DUP2 MSTORE PUSH1 0x4 ADD PUSH2 0x58E SWAP1 PUSH2 0x1E60 JUMP JUMPDEST PUSH1 0x40 MLOAD DUP1 SWAP2 SUB SWAP1 REVERT JUMPDEST PUSH0 PUSH0 PUSH0 SWAP1 SLOAD SWAP1 PUSH2 0x100 EXP SWAP1 DIV PUSH20 0xFFFFFFFFFFFFFFFFFFFFFFFFFFFFFFFFFFFFFFFF AND SWAP1 POP CALLER PUSH0 PUSH0 PUSH2 0x100 EXP DUP2 SLOAD DUP2 PUSH20 0xFFFFFFFFFFFFFFFFFFFFFFFFFFFFFFFFFFFFFFFF MUL NOT AND SWAP1 DUP4 PUSH20 0xFFFFFFFFFFFFFFFFFFFFFFFFFFFFFFFFFFFFFFFF AND MUL OR SWAP1 SSTORE POP PUSH0 PUSH1 0x1 PUSH0 PUSH2 0x100 EXP DUP2 SLOAD DUP2 PUSH20 0xFFFFFFFFFFFFFFFFFFFFFFFFFFFFFFFFFFFFFFFF MUL NOT AND SWAP1 DUP4 PUSH20 0xFFFFFFFFFFFFFFFFFFFFFFFFFFFFFFFFFFFFFFFF AND MUL OR SWAP1 SSTORE POP CALLER PUSH20 0xFFFFFFFFFFFFFFFFFFFFFFFFFFFFFFFFFFFFFFFF AND DUP2 PUSH20 0xFFFFFFFFFFFFFFFFFFFFFFFFFFFFFFFFFFFFFFFF AND PUSH32 0x8BE0079C531659141344CD1FD0A4F28419497F9722A3DAAFE3B4186F6B6457E0 PUSH1 0x40 MLOAD PUSH1 0x40 MLOAD DUP1 SWAP2 SUB SWAP1 LOG3 POP JUMP JUMPDEST PUSH0 PUSH0 PUSH0 SWAP1 SLOAD SWAP1 PUSH2 0x100 EXP SWAP1 DIV PUSH20 0xFFFFFFFFFFFFFFFFFFFFFFFFFFFFFFFFFFFFFFFF AND SWAP1 POP SWAP1 JUMP JUMPDEST PUSH0 PUSH1 0x2 SLOAD SWAP1 POP SWAP1 JUMP JUMPDEST PUSH0 PUSH0 PUSH0 PUSH0 PUSH0 PUSH1 0x2 SLOAD PUSH7 0x2386F26FC10000 PUSH1 0x2 SLOAD PUSH2 0x6E4 SWAP2 SWAP1 PUSH2 0x1DB3 JUMP JUMPDEST PUSH1 0x3 SLOAD PUSH1 0x3 SLOAD TIMESTAMP PUSH2 0x6F5 SWAP2 SWAP1 PUSH2 0x1DE3 JUMP JUMPDEST PUSH1 0x4 SLOAD SWAP5 POP SWAP5 POP SWAP5 POP SWAP5 POP SWAP5 POP SWAP1 SWAP2 SWAP3 SWAP4 SWAP5 JUMP JUMPDEST PUSH0 PUSH2 0x712 PUSH2 0x163B JUMP JUMPDEST PUSH2 0x7AD PUSH1 0x7 DUP1 SLOAD PUSH2 0x722 SWAP1 PUSH2 0x1EAB JUMP JUMPDEST DUP1 PUSH1 0x1F ADD PUSH1 0x20 DUP1 SWAP2 DIV MUL PUSH1 0x20 ADD PUSH1 0x40 MLOAD SWAP1 DUP2 ADD PUSH1 0x40 MSTORE DUP1 SWAP3 SWAP2 SWAP1 DUP2 DUP2 MSTORE PUSH1 0x20 ADD DUP3 DUP1 SLOAD PUSH2 0x74E SWAP1 PUSH2 0x1EAB JUMP JUMPDEST DUP1 ISZERO PUSH2 0x799 JUMPI DUP1 PUSH1 0x1F LT PUSH2 0x770 JUMPI PUSH2 0x100 DUP1 DUP4 SLOAD DIV MUL DUP4 MSTORE SWAP2 PUSH1 0x20 ADD SWAP2 PUSH2 0x799 JUMP JUMPDEST DUP3 ADD SWAP2 SWAP1 PUSH0 MSTORE PUSH1 0x20 PUSH0 KECCAK256 SWAP1 JUMPDEST DUP2 SLOAD DUP2 MSTORE SWAP1 PUSH1 0x1 ADD SWAP1 PUSH1 0x20 ADD DUP1 DUP4 GT PUSH2 0x77C JUMPI DUP3 SWAP1 SUB PUSH1 0x1F AND DUP3 ADD SWAP2 JUMPDEST POP POP POP POP POP DUP3 PUSH2 0xA16 SWAP1 SWAP2 SWAP1 PUSH4 0xFFFFFFFF AND JUMP JUMPDEST PUSH2 0x7EA PUSH2 0x7B9 DUP3 PUSH2 0xA26 JUMP JUMPDEST PUSH1 0x5 PUSH0 SWAP1 SLOAD SWAP1 PUSH2 0x100 EXP SWAP1 DIV PUSH8 0xFFFFFFFFFFFFFFFF AND PUSH1 0x5 PUSH1 0x8 SWAP1 SLOAD SWAP1 PUSH2 0x100 EXP SWAP1 DIV PUSH4 0xFFFFFFFF AND PUSH1 0x6 SLOAD PUSH2 0xE31 JUMP JUMPDEST SWAP2 POP DUP2 PUSH1 0x4 DUP2 SWAP1 SSTORE POP DUP2 PUSH32 0x655F2DCA0174CE451AA939C62EA493C734778CC67C6783626B08AD34985E6C61 PUSH1 0x40 MLOAD PUSH1 0x40 MLOAD DUP1 SWAP2 SUB SWAP1 LOG2 POP SWAP1 JUMP JUMPDEST PUSH1 0x3 SLOAD DUP2 JUMP JUMPDEST PUSH2 0x832 PUSH2 0x8DB JUMP JUMPDEST DUP3 PUSH1 0x5 PUSH0 PUSH2 0x100 EXP DUP2 SLOAD DUP2 PUSH8 0xFFFFFFFFFFFFFFFF MUL NOT AND SWAP1 DUP4 PUSH8 0xFFFFFFFFFFFFFFFF AND MUL OR SWAP1 SSTORE POP DUP2 PUSH1 0x5 PUSH1 0x8 PUSH2 0x100 EXP DUP2 SLOAD DUP2 PUSH4 0xFFFFFFFF MUL NOT AND SWAP1 DUP4 PUSH4 0xFFFFFFFF AND MUL OR SWAP1 SSTORE POP DUP1 PUSH1 0x6 DUP2 SWAP1 SSTORE POP POP POP POP JUMP JUMPDEST PUSH0 PUSH7 0x2386F26FC10000 PUSH1 0x2 SLOAD PUSH2 0x89D SWAP2 SWAP1 PUSH2 0x1DB3 JUMP JUMPDEST SWAP1 POP SWAP1 JUMP JUMPDEST PUSH2 0x8AA PUSH2 0x8DB JUMP JUMPDEST PUSH2 0x8B3 DUP2 PUSH2 0xF10 JUMP JUMPDEST POP JUMP JUMPDEST PUSH1 0x5 PUSH1 0x8 SWAP1 SLOAD SWAP1 PUSH2 0x100 EXP SWAP1 DIV PUSH4 0xFFFFFFFF AND DUP2 JUMP JUMPDEST PUSH1 0x4 SLOAD DUP2 JUMP JUMPDEST PUSH0 PUSH1 0x2 SLOAD SWAP1 POP SWAP1 JUMP JUMPDEST PUSH0 PUSH0 SWAP1 SLOAD SWAP1 PUSH2 0x100 EXP SWAP1 DIV PUSH20 0xFFFFFFFFFFFFFFFFFFFFFFFFFFFFFFFFFFFFFFFF AND PUSH20 0xFFFFFFFFFFFFFFFFFFFFFFFFFFFFFFFFFFFFFFFF AND CALLER PUSH20 0xFFFFFFFFFFFFFFFFFFFFFFFFFFFFFFFFFFFFFFFF AND EQ PUSH2 0x969 JUMPI PUSH1 0x40 MLOAD PUSH32 0x8C379A000000000000000000000000000000000000000000000000000000000 DUP2 MSTORE PUSH1 0x4 ADD PUSH2 0x960 SWAP1 PUSH2 0x1F25 JUMP JUMPDEST PUSH1 0x40 MLOAD DUP1 SWAP2 SUB SWAP1 REVERT JUMPDEST JUMP JUMPDEST PUSH0 DUP2 MLOAD GT ISZERO PUSH2 0x9B1 JUMPI DUP3 PUSH32 0x61982C98CBC49D11759A948F460B92BCA26BDF12CEEE12C310F117EB2CA9A9CB DUP3 PUSH1 0x40 MLOAD PUSH2 0x9A4 SWAP2 SWAP1 PUSH2 0x1F95 JUMP JUMPDEST PUSH1 0x40 MLOAD DUP1 SWAP2 SUB SWAP1 LOG2 PUSH2 0xA11 JUMP JUMPDEST PUSH0 DUP3 DUP1 PUSH1 0x20 ADD SWAP1 MLOAD DUP2 ADD SWAP1 PUSH2 0x9C6 SWAP2 SWAP1 PUSH2 0x1FC9 JUMP JUMPDEST SWAP1 POP DUP1 PUSH1 0x2 DUP2 SWAP1 SSTORE POP TIMESTAMP PUSH1 0x3 DUP2 SWAP1 SSTORE POP PUSH32 0x945C1C4E99AA89F648FBFE3DF471B916F719E16D960FCEC0737D4D56BD696838 DUP2 TIMESTAMP PUSH1 0x40 MLOAD PUSH2 0xA07 SWAP3 SWAP2 SWAP1 PUSH2 0x1D5F JUMP JUMPDEST PUSH1 0x40 MLOAD DUP1 SWAP2 SUB SWAP1 LOG1 POP JUMPDEST POP POP POP JUMP JUMPDEST PUSH2 0xA22 DUP3 PUSH0 PUSH0 DUP5 PUSH2 0x103B JUMP JUMPDEST POP POP JUMP JUMPDEST PUSH1 0x60 PUSH0 PUSH2 0xA34 PUSH2 0x100 PUSH2 0x10E1 JUMP JUMPDEST SWAP1 POP PUSH2 0xA7E PUSH1 0x40 MLOAD DUP1 PUSH1 0x40 ADD PUSH1 0x40 MSTORE DUP1 PUSH1 0xC DUP2 MSTORE PUSH1 0x20 ADD PUSH32 0x636F64654C6F636174696F6E0000000000000000000000000000000000000000 DUP2 MSTORE POP DUP3 PUSH2 0x1106 SWAP1 SWAP2 SWAP1 PUSH4 0xFFFFFFFF AND JUMP JUMPDEST PUSH2 0xAA6 DUP4 PUSH0 ADD MLOAD PUSH1 0x2 DUP2 GT ISZERO PUSH2 0xA97 JUMPI PUSH2 0xA96 PUSH2 0x1FF4 JUMP JUMPDEST JUMPDEST DUP3 PUSH2 0x112E SWAP1 SWAP2 SWAP1 PUSH4 0xFFFFFFFF AND JUMP JUMPDEST PUSH2 0xAEE PUSH1 0x40 MLOAD DUP1 PUSH1 0x40 ADD PUSH1 0x40 MSTORE DUP1 PUSH1 0x8 DUP2 MSTORE PUSH1 0x20 ADD PUSH32 0x6C616E6775616765000000000000000000000000000000000000000000000000 DUP2 MSTORE POP DUP3 PUSH2 0x1106 SWAP1 SWAP2 SWAP1 PUSH4 0xFFFFFFFF AND JUMP JUMPDEST PUSH2 0xB16 DUP4 PUSH1 0x40 ADD MLOAD PUSH0 DUP2 GT ISZERO PUSH2 0xB07 JUMPI PUSH2 0xB06 PUSH2 0x1FF4 JUMP JUMPDEST JUMPDEST DUP3 PUSH2 0x112E SWAP1 SWAP2 SWAP1 PUSH4 0xFFFFFFFF AND JUMP JUMPDEST PUSH2 0xB5E PUSH1 0x40 MLOAD DUP1 PUSH1 0x40 ADD PUSH1 0x40 MSTORE DUP1 PUSH1 0x6 DUP2 MSTORE PUSH1 0x20 ADD PUSH32 0x736F757263650000000000000000000000000000000000000000000000000000 DUP2 MSTORE POP DUP3 PUSH2 0x1106 SWAP1 SWAP2 SWAP1 PUSH4 0xFFFFFFFF AND JUMP JUMPDEST PUSH2 0xB75 DUP4 PUSH1 0x60 ADD MLOAD DUP3 PUSH2 0x1106 SWAP1 SWAP2 SWAP1 PUSH4 0xFFFFFFFF AND JUMP JUMPDEST PUSH0 DUP4 PUSH1 0xA0 ADD MLOAD MLOAD GT ISZERO PUSH2 0xC2C JUMPI PUSH2 0xBCA PUSH1 0x40 MLOAD DUP1 PUSH1 0x40 ADD PUSH1 0x40 MSTORE DUP1 PUSH1 0x4 DUP2 MSTORE PUSH1 0x20 ADD PUSH32 0x6172677300000000000000000000000000000000000000000000000000000000 DUP2 MSTORE POP DUP3 PUSH2 0x1106 SWAP1 SWAP2 SWAP1 PUSH4 0xFFFFFFFF AND JUMP JUMPDEST PUSH2 0xBD3 DUP2 PUSH2 0x117D JUMP JUMPDEST PUSH0 PUSH0 SWAP1 POP JUMPDEST DUP4 PUSH1 0xA0 ADD MLOAD MLOAD DUP2 LT ISZERO PUSH2 0xC21 JUMPI PUSH2 0xC16 DUP5 PUSH1 0xA0 ADD MLOAD DUP3 DUP2 MLOAD DUP2 LT PUSH2 0xBFF JUMPI PUSH2 0xBFE PUSH2 0x2021 JUMP JUMPDEST JUMPDEST PUSH1 0x20 MUL PUSH1 0x20 ADD ADD MLOAD DUP4 PUSH2 0x1106 SWAP1 SWAP2 SWAP1 PUSH4 0xFFFFFFFF AND JUMP JUMPDEST DUP1 PUSH1 0x1 ADD SWAP1 POP PUSH2 0xBD8 JUMP JUMPDEST POP PUSH2 0xC2B DUP2 PUSH2 0x11A5 JUMP JUMPDEST JUMPDEST PUSH0 DUP4 PUSH1 0x80 ADD MLOAD MLOAD GT ISZERO PUSH2 0xD6B JUMPI PUSH0 PUSH1 0x2 DUP2 GT ISZERO PUSH2 0xC4C JUMPI PUSH2 0xC4B PUSH2 0x1FF4 JUMP JUMPDEST JUMPDEST DUP4 PUSH1 0x20 ADD MLOAD PUSH1 0x2 DUP2 GT ISZERO PUSH2 0xC63 JUMPI PUSH2 0xC62 PUSH2 0x1FF4 JUMP JUMPDEST JUMPDEST SUB PUSH2 0xC9A JUMPI PUSH1 0x40 MLOAD PUSH32 0xA80D31F700000000000000000000000000000000000000000000000000000000 DUP2 MSTORE PUSH1 0x4 ADD PUSH1 0x40 MLOAD DUP1 SWAP2 SUB SWAP1 REVERT JUMPDEST PUSH2 0xCE2 PUSH1 0x40 MLOAD DUP1 PUSH1 0x40 ADD PUSH1 0x40 MSTORE DUP1 PUSH1 0xF DUP2 MSTORE PUSH1 0x20 ADD PUSH32 0x736563726574734C6F636174696F6E0000000000000000000000000000000000 DUP2 MSTORE POP DUP3 PUSH2 0x1106 SWAP1 SWAP2 SWAP1 PUSH4 0xFFFFFFFF AND JUMP JUMPDEST PUSH2 0xD0B DUP4 PUSH1 0x20 ADD MLOAD PUSH1 0x2 DUP2 GT ISZERO PUSH2 0xCFC JUMPI PUSH2 0xCFB PUSH2 0x1FF4 JUMP JUMPDEST JUMPDEST DUP3 PUSH2 0x112E SWAP1 SWAP2 SWAP1 PUSH4 0xFFFFFFFF AND JUMP JUMPDEST PUSH2 0xD53 PUSH1 0x40 MLOAD DUP1 PUSH1 0x40 ADD PUSH1 0x40 MSTORE DUP1 PUSH1 0x7 DUP2 MSTORE PUSH1 0x20 ADD PUSH32 0x7365637265747300000000000000000000000000000000000000000000000000 DUP2 MSTORE POP DUP3 PUSH2 0x1106 SWAP1 SWAP2 SWAP1 PUSH4 0xFFFFFFFF AND JUMP JUMPDEST PUSH2 0xD6A DUP4 PUSH1 0x80 ADD MLOAD DUP3 PUSH2 0x11CD SWAP1 SWAP2 SWAP1 PUSH4 0xFFFFFFFF AND JUMP JUMPDEST JUMPDEST PUSH0 DUP4 PUSH1 0xC0 ADD MLOAD MLOAD GT ISZERO PUSH2 0xE22 JUMPI PUSH2 0xDC0 PUSH1 0x40 MLOAD DUP1 PUSH1 0x40 ADD PUSH1 0x40 MSTORE DUP1 PUSH1 0x9 DUP2 MSTORE PUSH1 0x20 ADD PUSH32 0x6279746573417267730000000000000000000000000000000000000000000000 DUP2 MSTORE POP DUP3 PUSH2 0x1106 SWAP1 SWAP2 SWAP1 PUSH4 0xFFFFFFFF AND JUMP JUMPDEST PUSH2 0xDC9 DUP2 PUSH2 0x117D JUMP JUMPDEST PUSH0 PUSH0 SWAP1 POP JUMPDEST DUP4 PUSH1 0xC0 ADD MLOAD MLOAD DUP2 LT ISZERO PUSH2 0xE17 JUMPI PUSH2 0xE0C DUP5 PUSH1 0xC0 ADD MLOAD DUP3 DUP2 MLOAD DUP2 LT PUSH2 0xDF5 JUMPI PUSH2 0xDF4 PUSH2 0x2021 JUMP JUMPDEST JUMPDEST PUSH1 0x20 MUL PUSH1 0x20 ADD ADD MLOAD DUP4 PUSH2 0x11CD SWAP1 SWAP2 SWAP1 PUSH4 0xFFFFFFFF AND JUMP JUMPDEST DUP1 PUSH1 0x1 ADD SWAP1 POP PUSH2 0xDCE JUMP JUMPDEST POP PUSH2 0xE21 DUP2 PUSH2 0x11A5 JUMP JUMPDEST JUMPDEST DUP1 PUSH0 ADD MLOAD PUSH0 ADD MLOAD SWAP2 POP POP SWAP2 SWAP1 POP JUMP JUMPDEST PUSH0 PUSH0 PUSH32 0x0 PUSH20 0xFFFFFFFFFFFFFFFFFFFFFFFFFFFFFFFFFFFFFFFF AND PUSH4 0x461D2762 DUP7 DUP9 PUSH1 0x1 DUP9 DUP9 PUSH1 0x40 MLOAD DUP7 PUSH4 0xFFFFFFFF AND PUSH1 0xE0 SHL DUP2 MSTORE PUSH1 0x4 ADD PUSH2 0xE95 SWAP6 SWAP5 SWAP4 SWAP3 SWAP2 SWAP1 PUSH2 0x206A JUMP JUMPDEST PUSH1 0x20 PUSH1 0x40 MLOAD DUP1 DUP4 SUB DUP2 PUSH0 DUP8 GAS CALL ISZERO DUP1 ISZERO PUSH2 0xEB1 JUMPI RETURNDATASIZE PUSH0 PUSH0 RETURNDATACOPY RETURNDATASIZE PUSH0 REVERT JUMPDEST POP POP POP POP PUSH1 0x40 MLOAD RETURNDATASIZE PUSH1 0x1F NOT PUSH1 0x1F DUP3 ADD AND DUP3 ADD DUP1 PUSH1 0x40 MSTORE POP DUP2 ADD SWAP1 PUSH2 0xED5 SWAP2 SWAP1 PUSH2 0x20D6 JUMP JUMPDEST SWAP1 POP DUP1 PUSH32 0x1131472297A800FEE664D1D89CFA8F7676FF07189ECC53F80BBB5F4969099DB8 PUSH1 0x40 MLOAD PUSH1 0x40 MLOAD DUP1 SWAP2 SUB SWAP1 LOG2 DUP1 SWAP2 POP POP SWAP5 SWAP4 POP POP POP POP JUMP JUMPDEST CALLER PUSH20 0xFFFFFFFFFFFFFFFFFFFFFFFFFFFFFFFFFFFFFFFF AND DUP2 PUSH20 0xFFFFFFFFFFFFFFFFFFFFFFFFFFFFFFFFFFFFFFFF AND SUB PUSH2 0xF7E JUMPI PUSH1 0x40 MLOAD PUSH32 0x8C379A000000000000000000000000000000000000000000000000000000000 DUP2 MSTORE PUSH1 0x4 ADD PUSH2 0xF75 SWAP1 PUSH2 0x214B JUMP JUMPDEST PUSH1 0x40 MLOAD DUP1 SWAP2 SUB SWAP1 REVERT JUMPDEST DUP1 PUSH1 0x1 PUSH0 PUSH2 0x100 EXP DUP2 SLOAD DUP2 PUSH20 0xFFFFFFFFFFFFFFFFFFFFFFFFFFFFFFFFFFFFFFFF MUL NOT AND SWAP1 DUP4 PUSH20 0xFFFFFFFFFFFFFFFFFFFFFFFFFFFFFFFFFFFFFFFF AND MUL OR SWAP1 SSTORE POP DUP1 PUSH20 0xFFFFFFFFFFFFFFFFFFFFFFFFFFFFFFFFFFFFFFFF AND PUSH0 PUSH0 SWAP1 SLOAD SWAP1 PUSH2 0x100 EXP SWAP1 DIV PUSH20 0xFFFFFFFFFFFFFFFFFFFFFFFFFFFFFFFFFFFFFFFF AND PUSH20 0xFFFFFFFFFFFFFFFFFFFFFFFFFFFFFFFFFFFFFFFF AND PUSH32 0xED8889F560326EB138920D842192F0EB3DD22B4F139C87A2C57538E05BAE1278 PUSH1 0x40 MLOAD PUSH1 0x40 MLOAD DUP1 SWAP2 SUB SWAP1 LOG3 POP JUMP JUMPDEST PUSH0 DUP2 MLOAD SUB PUSH2 0x1075 JUMPI PUSH1 0x40 MLOAD PUSH32 0x22CE3EDD00000000000000000000000000000000000000000000000000000000 DUP2 MSTORE PUSH1 0x4 ADD PUSH1 0x40 MLOAD DUP1 SWAP2 SUB SWAP1 REVERT JUMPDEST DUP3 DUP5 PUSH0 ADD SWAP1 PUSH1 0x2 DUP2 GT ISZERO PUSH2 0x108C JUMPI PUSH2 0x108B PUSH2 0x1FF4 JUMP JUMPDEST JUMPDEST SWAP1 DUP2 PUSH1 0x2 DUP2 GT ISZERO PUSH2 0x10A0 JUMPI PUSH2 0x109F PUSH2 0x1FF4 JUMP JUMPDEST JUMPDEST DUP2 MSTORE POP POP DUP2 DUP5 PUSH1 0x40 ADD SWAP1 PUSH0 DUP2 GT ISZERO PUSH2 0x10BB JUMPI PUSH2 0x10BA PUSH2 0x1FF4 JUMP JUMPDEST JUMPDEST SWAP1 DUP2 PUSH0 DUP2 GT ISZERO PUSH2 0x10CE JUMPI PUSH2 0x10CD PUSH2 0x1FF4 JUMP JUMPDEST JUMPDEST DUP2 MSTORE POP POP DUP1 DUP5 PUSH1 0x60 ADD DUP2 SWAP1 MSTORE POP POP POP POP POP JUMP JUMPDEST PUSH2 0x10E9 PUSH2 0x16AA JUMP JUMPDEST PUSH2 0x10F6 DUP2 PUSH0 ADD MLOAD DUP4 PUSH2 0x11F5 JUMP JUMPDEST POP PUSH0 DUP2 PUSH1 0x20 ADD DUP2 DUP2 MSTORE POP POP SWAP2 SWAP1 POP JUMP JUMPDEST PUSH2 0x1113 DUP3 PUSH1 0x3 DUP4 MLOAD PUSH2 0x126B JUMP JUMPDEST PUSH2 0x1129 DUP2 DUP4 PUSH0 ADD MLOAD PUSH2 0x140B SWAP1 SWAP2 SWAP1 PUSH4 0xFFFFFFFF AND JUMP JUMPDEST POP POP POP JUMP JUMPDEST PUSH2 0x114F PUSH1 0x2 PUSH1 0x5 PUSH1 0x6 PUSH1 0xFF AND SWAP1 SHL OR DUP4 PUSH0 ADD MLOAD PUSH2 0x1427 SWAP1 SWAP2 SWAP1 PUSH4 0xFFFFFFFF AND JUMP JUMPDEST POP PUSH2 0x1179 DUP3 DUP3 PUSH1 0x40 MLOAD PUSH1 0x20 ADD PUSH2 0x1165 SWAP2 SWAP1 PUSH2 0x1AEF JUMP JUMPDEST PUSH1 0x40 MLOAD PUSH1 0x20 DUP2 DUP4 SUB SUB DUP2 MSTORE SWAP1 PUSH1 0x40 MSTORE PUSH2 0x11CD JUMP JUMPDEST POP POP JUMP JUMPDEST PUSH2 0x1188 DUP2 PUSH1 0x4 PUSH2 0x148E JUMP JUMPDEST PUSH1 0x1 DUP2 PUSH1 0x20 ADD DUP2 DUP2 MLOAD PUSH2 0x119B SWAP2 SWAP1 PUSH2 0x2169 JUMP JUMPDEST SWAP2 POP DUP2 DUP2 MSTORE POP POP POP JUMP JUMPDEST PUSH2 0x11B0 DUP2 PUSH1 0x7 PUSH2 0x148E JUMP JUMPDEST PUSH1 0x1 DUP2 PUSH1 0x20 ADD DUP2 DUP2 MLOAD PUSH2 0x11C3 SWAP2 SWAP1 PUSH2 0x1DE3 JUMP JUMPDEST SWAP2 POP DUP2 DUP2 MSTORE POP POP POP JUMP JUMPDEST PUSH2 0x11DA DUP3 PUSH1 0x2 DUP4 MLOAD PUSH2 0x126B JUMP JUMPDEST PUSH2 0x11F0 DUP2 DUP4 PUSH0 ADD MLOAD PUSH2 0x140B SWAP1 SWAP2 SWAP1 PUSH4 0xFFFFFFFF AND JUMP JUMPDEST POP POP POP JUMP JUMPDEST PUSH2 0x11FD PUSH2 0x16C9 JUMP JUMPDEST PUSH0 PUSH1 0x20 DUP4 PUSH2 0x120B SWAP2 SWAP1 PUSH2 0x219C JUMP JUMPDEST EQ PUSH2 0x1237 JUMPI PUSH1 0x20 DUP3 PUSH2 0x121D SWAP2 SWAP1 PUSH2 0x219C JUMP JUMPDEST PUSH1 0x20 PUSH2 0x1229 SWAP2 SWAP1 PUSH2 0x1DE3 JUMP JUMPDEST DUP3 PUSH2 0x1234 SWAP2 SWAP1 PUSH2 0x2169 JUMP JUMPDEST SWAP2 POP JUMPDEST DUP2 DUP4 PUSH1 0x20 ADD DUP2 DUP2 MSTORE POP POP PUSH1 0x40 MLOAD DUP1 DUP5 MSTORE PUSH0 DUP2 MSTORE DUP3 DUP2 ADD PUSH1 0x20 ADD DUP2 DUP2 LT ISZERO PUSH2 0x125C JUMPI PUSH0 PUSH0 REVERT JUMPDEST DUP1 PUSH1 0x40 MSTORE POP POP DUP3 SWAP1 POP SWAP3 SWAP2 POP POP JUMP JUMPDEST PUSH1 0x17 DUP2 PUSH8 0xFFFFFFFFFFFFFFFF AND GT PUSH2 0x12A5 JUMPI PUSH2 0x129F DUP2 PUSH1 0x5 DUP5 PUSH1 0xFF AND SWAP1 SHL PUSH1 0xFF AND OR DUP5 PUSH0 ADD MLOAD PUSH2 0x1427 SWAP1 SWAP2 SWAP1 PUSH4 0xFFFFFFFF AND JUMP JUMPDEST POP PUSH2 0x1406 JUMP JUMPDEST PUSH1 0xFF DUP2 PUSH8 0xFFFFFFFFFFFFFFFF AND GT PUSH2 0x1301 JUMPI PUSH2 0x12D7 PUSH1 0x18 PUSH1 0x5 DUP5 PUSH1 0xFF AND SWAP1 SHL OR DUP5 PUSH0 ADD MLOAD PUSH2 0x1427 SWAP1 SWAP2 SWAP1 PUSH4 0xFFFFFFFF AND JUMP JUMPDEST POP PUSH2 0x12FB DUP2 PUSH8 0xFFFFFFFFFFFFFFFF AND PUSH1 0x1 DUP6 PUSH0 ADD MLOAD PUSH2 0x14B3 SWAP1 SWAP3 SWAP2 SWAP1 PUSH4 0xFFFFFFFF AND JUMP JUMPDEST POP PUSH2 0x1405 JUMP JUMPDEST PUSH2 0xFFFF DUP2 PUSH8 0xFFFFFFFFFFFFFFFF AND GT PUSH2 0x135E JUMPI PUSH2 0x1334 PUSH1 0x19 PUSH1 0x5 DUP5 PUSH1 0xFF AND SWAP1 SHL OR DUP5 PUSH0 ADD MLOAD PUSH2 0x1427 SWAP1 SWAP2 SWAP1 PUSH4 0xFFFFFFFF AND JUMP JUMPDEST POP PUSH2 0x1358 DUP2 PUSH8 0xFFFFFFFFFFFFFFFF AND PUSH1 0x2 DUP6 PUSH0 ADD MLOAD PUSH2 0x14B3 SWAP1 SWAP3 SWAP2 SWAP1 PUSH4 0xFFFFFFFF AND JUMP JUMPDEST POP PUSH2 0x1404 JUMP JUMPDEST PUSH4 0xFFFFFFFF DUP2 PUSH8 0xFFFFFFFFFFFFFFFF AND GT PUSH2 0x13BD JUMPI PUSH2 0x1393 PUSH1 0x1A PUSH1 0x5 DUP5 PUSH1 0xFF AND SWAP1 SHL OR DUP5 PUSH0 ADD MLOAD PUSH2 0x1427 SWAP1 SWAP2 SWAP1 PUSH4 0xFFFFFFFF AND JUMP JUMPDEST POP PUSH2 0x13B7 DUP2 PUSH8 0xFFFFFFFFFFFFFFFF AND PUSH1 0x4 DUP6 PUSH0 ADD MLOAD PUSH2 0x14B3 SWAP1 SWAP3 SWAP2 SWAP1 PUSH4 0xFFFFFFFF AND JUMP JUMPDEST POP PUSH2 0x1403 JUMP JUMPDEST PUSH2 0x13DD PUSH1 0x1B PUSH1 0x5 DUP5 PUSH1 0xFF AND SWAP1 SHL OR DUP5 PUSH0 ADD MLOAD PUSH2 0x1427 SWAP1 SWAP2 SWAP1 PUSH4 0xFFFFFFFF AND JUMP JUMPDEST POP PUSH2 0x1401 DUP2 PUSH8 0xFFFFFFFFFFFFFFFF AND PUSH1 0x8 DUP6 PUSH0 ADD MLOAD PUSH2 0x14B3 SWAP1 SWAP3 SWAP2 SWAP1 PUSH4 0xFFFFFFFF AND JUMP JUMPDEST POP JUMPDEST JUMPDEST JUMPDEST JUMPDEST POP POP POP JUMP JUMPDEST PUSH2 0x1413 PUSH2 0x16C9 JUMP JUMPDEST PUSH2 0x141F DUP4 DUP4 DUP5 MLOAD PUSH2 0x153C JUMP JUMPDEST SWAP1 POP SWAP3 SWAP2 POP POP JUMP JUMPDEST PUSH2 0x142F PUSH2 0x16C9 JUMP JUMPDEST PUSH0 DUP4 PUSH0 ADD MLOAD MLOAD SWAP1 POP PUSH0 PUSH1 0x1 DUP3 PUSH2 0x1445 SWAP2 SWAP1 PUSH2 0x2169 JUMP JUMPDEST SWAP1 POP DUP5 PUSH1 0x20 ADD MLOAD DUP3 LT PUSH2 0x1469 JUMPI PUSH2 0x1468 DUP6 PUSH1 0x2 DUP4 PUSH2 0x1463 SWAP2 SWAP1 PUSH2 0x1D1E JUMP JUMPDEST PUSH2 0x1619 JUMP JUMPDEST JUMPDEST DUP5 MLOAD PUSH1 0x20 DUP4 DUP3 ADD ADD DUP6 DUP2 MSTORE8 DUP2 MLOAD DUP4 GT ISZERO PUSH2 0x1481 JUMPI DUP3 DUP3 MSTORE JUMPDEST POP POP DUP5 SWAP3 POP POP POP SWAP3 SWAP2 POP POP JUMP JUMPDEST PUSH2 0x14AE PUSH1 0x1F PUSH1 0x5 DUP4 PUSH1 0xFF AND SWAP1 SHL OR DUP4 PUSH0 ADD MLOAD PUSH2 0x1427 SWAP1 SWAP2 SWAP1 PUSH4 0xFFFFFFFF AND JUMP JUMPDEST POP POP POP JUMP JUMPDEST PUSH2 0x14BB PUSH2 0x16C9 JUMP JUMPDEST PUSH0 DUP5 PUSH0 ADD MLOAD MLOAD SWAP1 POP PUSH0 DUP2 DUP5 PUSH2 0x14D0 SWAP2 SWAP1 PUSH2 0x2169 JUMP JUMPDEST SWAP1 POP DUP6 PUSH1 0x20 ADD MLOAD DUP2 GT ISZERO PUSH2 0x14F5 JUMPI PUSH2 0x14F4 DUP7 PUSH1 0x2 DUP4 PUSH2 0x14EF SWAP2 SWAP1 PUSH2 0x1D1E JUMP JUMPDEST PUSH2 0x1619 JUMP JUMPDEST JUMPDEST PUSH0 PUSH1 0x1 DUP6 PUSH2 0x100 PUSH2 0x1506 SWAP2 SWAP1 PUSH2 0x22FB JUMP JUMPDEST PUSH2 0x1510 SWAP2 SWAP1 PUSH2 0x1DE3 JUMP JUMPDEST SWAP1 POP DUP7 MLOAD DUP3 DUP2 ADD DUP8 DUP4 NOT DUP3 MLOAD AND OR DUP2 MSTORE DUP2 MLOAD DUP5 GT ISZERO PUSH2 0x152D JUMPI DUP4 DUP3 MSTORE JUMPDEST POP POP DUP7 SWAP4 POP POP POP POP SWAP4 SWAP3 POP POP POP JUMP JUMPDEST PUSH2 0x1544 PUSH2 0x16C9 JUMP JUMPDEST DUP3 MLOAD DUP3 GT ISZERO PUSH2 0x1551 JUMPI PUSH0 PUSH0 REVERT JUMPDEST PUSH0 DUP5 PUSH0 ADD MLOAD MLOAD SWAP1 POP PUSH0 DUP4 DUP3 PUSH2 0x1566 SWAP2 SWAP1 PUSH2 0x2169 JUMP JUMPDEST SWAP1 POP DUP6 PUSH1 0x20 ADD MLOAD DUP2 GT ISZERO PUSH2 0x158B JUMPI PUSH2 0x158A DUP7 PUSH1 0x2 DUP4 PUSH2 0x1585 SWAP2 SWAP1 PUSH2 0x1D1E JUMP JUMPDEST PUSH2 0x1619 JUMP JUMPDEST JUMPDEST PUSH0 PUSH0 DUP8 MLOAD DUP1 MLOAD DUP6 PUSH1 0x20 DUP4 ADD ADD SWAP4 POP DUP1 DUP6 GT ISZERO PUSH2 0x15A5 JUMPI DUP5 DUP3 MSTORE JUMPDEST PUSH1 0x20 DUP10 ADD SWAP3 POP POP POP JUMPDEST PUSH1 0x20 DUP7 LT PUSH2 0x15EC JUMPI DUP1 MLOAD DUP3 MSTORE PUSH1 0x20 DUP3 PUSH2 0x15C7 SWAP2 SWAP1 PUSH2 0x2169 JUMP JUMPDEST SWAP2 POP PUSH1 0x20 DUP2 PUSH2 0x15D6 SWAP2 SWAP1 PUSH2 0x2169 JUMP JUMPDEST SWAP1 POP PUSH1 0x20 DUP7 PUSH2 0x15E5 SWAP2 SWAP1 PUSH2 0x1DE3 JUMP JUMPDEST SWAP6 POP PUSH2 0x15AE JUMP JUMPDEST PUSH0 PUSH1 0x1 DUP8 PUSH1 0x20 SUB PUSH2 0x100 EXP SUB SWAP1 POP DUP1 NOT DUP3 MLOAD AND DUP2 DUP5 MLOAD AND DUP2 DUP2 OR DUP6 MSTORE POP POP POP DUP8 SWAP5 POP POP POP POP POP SWAP4 SWAP3 POP POP POP JUMP JUMPDEST PUSH0 DUP3 PUSH0 ADD MLOAD SWAP1 POP PUSH2 0x162A DUP4 DUP4 PUSH2 0x11F5 JUMP JUMPDEST POP PUSH2 0x1635 DUP4 DUP3 PUSH2 0x140B JUMP JUMPDEST POP POP POP POP JUMP JUMPDEST PUSH1 0x40 MLOAD DUP1 PUSH1 0xE0 ADD PUSH1 0x40 MSTORE DUP1 PUSH0 PUSH1 0x2 DUP2 GT ISZERO PUSH2 0x1659 JUMPI PUSH2 0x1658 PUSH2 0x1FF4 JUMP JUMPDEST JUMPDEST DUP2 MSTORE PUSH1 0x20 ADD PUSH0 PUSH1 0x2 DUP2 GT ISZERO PUSH2 0x1671 JUMPI PUSH2 0x1670 PUSH2 0x1FF4 JUMP JUMPDEST JUMPDEST DUP2 MSTORE PUSH1 0x20 ADD PUSH0 PUSH0 DUP2 GT ISZERO PUSH2 0x1688 JUMPI PUSH2 0x1687 PUSH2 0x1FF4 JUMP JUMPDEST JUMPDEST DUP2 MSTORE PUSH1 0x20 ADD PUSH1 0x60 DUP2 MSTORE PUSH1 0x20 ADD PUSH1 0x60 DUP2 MSTORE PUSH1 0x20 ADD PUSH1 0x60 DUP2 MSTORE PUSH1 0x20 ADD PUSH1 0x60 DUP2 MSTORE POP SWAP1 JUMP JUMPDEST PUSH1 0x40 MLOAD DUP1 PUSH1 0x40 ADD PUSH1 0x40 MSTORE DUP1 PUSH2 0x16BD PUSH2 0x16C9 JUMP JUMPDEST DUP2 MSTORE PUSH1 0x20 ADD PUSH0 DUP2 MSTORE POP SWAP1 JUMP JUMPDEST PUSH1 0x40 MLOAD DUP1 PUSH1 0x40 ADD PUSH1 0x40 MSTORE DUP1 PUSH1 0x60 DUP2 MSTORE PUSH1 0x20 ADD PUSH0 DUP2 MSTORE POP SWAP1 JUMP JUMPDEST PUSH0 PUSH1 0x40 MLOAD SWAP1 POP SWAP1 JUMP JUMPDEST PUSH0 PUSH0 REVERT JUMPDEST PUSH0 PUSH0 REVERT JUMPDEST PUSH0 DUP2 SWAP1 POP SWAP2 SWAP1 POP JUMP JUMPDEST PUSH2 0x1705 DUP2 PUSH2 0x16F3 JUMP JUMPDEST DUP2 EQ PUSH2 0x170F JUMPI PUSH0 PUSH0 REVERT JUMPDEST POP JUMP JUMPDEST PUSH0 DUP2 CALLDATALOAD SWAP1 POP PUSH2 0x1720 DUP2 PUSH2 0x16FC JUMP JUMPDEST SWAP3 SWAP2 POP POP JUMP JUMPDEST PUSH0 PUSH1 0x20 DUP3 DUP5 SUB SLT ISZERO PUSH2 0x173B JUMPI PUSH2 0x173A PUSH2 0x16EB JUMP JUMPDEST JUMPDEST PUSH0 PUSH2 0x1748 DUP5 DUP3 DUP6 ADD PUSH2 0x1712 JUMP JUMPDEST SWAP2 POP POP SWAP3 SWAP2 POP POP JUMP JUMPDEST PUSH0 PUSH8 0xFFFFFFFFFFFFFFFF DUP3 AND SWAP1 POP SWAP2 SWAP1 POP JUMP JUMPDEST PUSH2 0x176D DUP2 PUSH2 0x1751 JUMP JUMPDEST DUP3 MSTORE POP POP JUMP JUMPDEST PUSH0 PUSH1 0x20 DUP3 ADD SWAP1 POP PUSH2 0x1786 PUSH0 DUP4 ADD DUP5 PUSH2 0x1764 JUMP JUMPDEST SWAP3 SWAP2 POP POP JUMP JUMPDEST PUSH0 DUP2 SWAP1 POP SWAP2 SWAP1 POP JUMP JUMPDEST PUSH2 0x179E DUP2 PUSH2 0x178C JUMP JUMPDEST DUP2 EQ PUSH2 0x17A8 JUMPI PUSH0 PUSH0 REVERT JUMPDEST POP JUMP JUMPDEST PUSH0 DUP2 CALLDATALOAD SWAP1 POP PUSH2 0x17B9 DUP2 PUSH2 0x1795 JUMP JUMPDEST SWAP3 SWAP2 POP POP JUMP JUMPDEST PUSH0 PUSH0 REVERT JUMPDEST PUSH0 PUSH0 REVERT JUMPDEST PUSH0 PUSH1 0x1F NOT PUSH1 0x1F DUP4 ADD AND SWAP1 POP SWAP2 SWAP1 POP JUMP JUMPDEST PUSH32 0x4E487B7100000000000000000000000000000000000000000000000000000000 PUSH0 MSTORE PUSH1 0x41 PUSH1 0x4 MSTORE PUSH1 0x24 PUSH0 REVERT JUMPDEST PUSH2 0x180D DUP3 PUSH2 0x17C7 JUMP JUMPDEST DUP2 ADD DUP2 DUP2 LT PUSH8 0xFFFFFFFFFFFFFFFF DUP3 GT OR ISZERO PUSH2 0x182C JUMPI PUSH2 0x182B PUSH2 0x17D7 JUMP JUMPDEST JUMPDEST DUP1 PUSH1 0x40 MSTORE POP POP POP JUMP JUMPDEST PUSH0 PUSH2 0x183E PUSH2 0x16E2 JUMP JUMPDEST SWAP1 POP PUSH2 0x184A DUP3 DUP3 PUSH2 0x1804 JUMP JUMPDEST SWAP2 SWAP1 POP JUMP JUMPDEST PUSH0 PUSH8 0xFFFFFFFFFFFFFFFF DUP3 GT ISZERO PUSH2 0x1869 JUMPI PUSH2 0x1868 PUSH2 0x17D7 JUMP JUMPDEST JUMPDEST PUSH2 0x1872 DUP3 PUSH2 0x17C7 JUMP JUMPDEST SWAP1 POP PUSH1 0x20 DUP2 ADD SWAP1 POP SWAP2 SWAP1 POP JUMP JUMPDEST DUP3 DUP2 DUP4 CALLDATACOPY PUSH0 DUP4 DUP4 ADD MSTORE POP POP POP JUMP JUMPDEST PUSH0 PUSH2 0x189F PUSH2 0x189A DUP5 PUSH2 0x184F JUMP JUMPDEST PUSH2 0x1835 JUMP JUMPDEST SWAP1 POP DUP3 DUP2 MSTORE PUSH1 0x20 DUP2 ADD DUP5 DUP5 DUP5 ADD GT ISZERO PUSH2 0x18BB JUMPI PUSH2 0x18BA PUSH2 0x17C3 JUMP JUMPDEST JUMPDEST PUSH2 0x18C6 DUP5 DUP3 DUP6 PUSH2 0x187F JUMP JUMPDEST POP SWAP4 SWAP3 POP POP POP JUMP JUMPDEST PUSH0 DUP3 PUSH1 0x1F DUP4 ADD SLT PUSH2 0x18E2 JUMPI PUSH2 0x18E1 PUSH2 0x17BF JUMP JUMPDEST JUMPDEST DUP2 CALLDATALOAD PUSH2 0x18F2 DUP5 DUP3 PUSH1 0x20 DUP7 ADD PUSH2 0x188D JUMP JUMPDEST SWAP2 POP POP SWAP3 SWAP2 POP POP JUMP JUMPDEST PUSH0 PUSH0 PUSH0 PUSH1 0x60 DUP5 DUP7 SUB SLT ISZERO PUSH2 0x1912 JUMPI PUSH2 0x1911 PUSH2 0x16EB JUMP JUMPDEST JUMPDEST PUSH0 PUSH2 0x191F DUP7 DUP3 DUP8 ADD PUSH2 0x17AB JUMP JUMPDEST SWAP4 POP POP PUSH1 0x20 DUP5 ADD CALLDATALOAD PUSH8 0xFFFFFFFFFFFFFFFF DUP2 GT ISZERO PUSH2 0x1940 JUMPI PUSH2 0x193F PUSH2 0x16EF JUMP JUMPDEST JUMPDEST PUSH2 0x194C DUP7 DUP3 DUP8 ADD PUSH2 0x18CE JUMP JUMPDEST SWAP3 POP POP PUSH1 0x40 DUP5 ADD CALLDATALOAD PUSH8 0xFFFFFFFFFFFFFFFF DUP2 GT ISZERO PUSH2 0x196D JUMPI PUSH2 0x196C PUSH2 0x16EF JUMP JUMPDEST JUMPDEST PUSH2 0x1979 DUP7 DUP3 DUP8 ADD PUSH2 0x18CE JUMP JUMPDEST SWAP2 POP POP SWAP3 POP SWAP3 POP SWAP3 JUMP JUMPDEST PUSH2 0x198C DUP2 PUSH2 0x16F3 JUMP JUMPDEST DUP3 MSTORE POP POP JUMP JUMPDEST PUSH0 DUP2 MLOAD SWAP1 POP SWAP2 SWAP1 POP JUMP JUMPDEST PUSH0 DUP3 DUP3 MSTORE PUSH1 0x20 DUP3 ADD SWAP1 POP SWAP3 SWAP2 POP POP JUMP JUMPDEST DUP3 DUP2 DUP4 MCOPY PUSH0 DUP4 DUP4 ADD MSTORE POP POP POP JUMP JUMPDEST PUSH0 PUSH2 0x19C4 DUP3 PUSH2 0x1992 JUMP JUMPDEST PUSH2 0x19CE DUP2 DUP6 PUSH2 0x199C JUMP JUMPDEST SWAP4 POP PUSH2 0x19DE DUP2 DUP6 PUSH1 0x20 DUP7 ADD PUSH2 0x19AC JUMP JUMPDEST PUSH2 0x19E7 DUP2 PUSH2 0x17C7 JUMP JUMPDEST DUP5 ADD SWAP2 POP POP SWAP3 SWAP2 POP POP JUMP JUMPDEST PUSH0 PUSH1 0x80 DUP3 ADD SWAP1 POP PUSH2 0x1A05 PUSH0 DUP4 ADD DUP8 PUSH2 0x1983 JUMP JUMPDEST PUSH2 0x1A12 PUSH1 0x20 DUP4 ADD DUP7 PUSH2 0x1983 JUMP JUMPDEST PUSH2 0x1A1F PUSH1 0x40 DUP4 ADD DUP6 PUSH2 0x1983 JUMP JUMPDEST DUP2 DUP2 SUB PUSH1 0x60 DUP4 ADD MSTORE PUSH2 0x1A31 DUP2 DUP5 PUSH2 0x19BA JUMP JUMPDEST SWAP1 POP SWAP6 SWAP5 POP POP POP POP POP JUMP JUMPDEST PUSH0 DUP2 ISZERO ISZERO SWAP1 POP SWAP2 SWAP1 POP JUMP JUMPDEST PUSH2 0x1A50 DUP2 PUSH2 0x1A3C JUMP JUMPDEST DUP3 MSTORE POP POP JUMP JUMPDEST PUSH0 PUSH1 0x20 DUP3 ADD SWAP1 POP PUSH2 0x1A69 PUSH0 DUP4 ADD DUP5 PUSH2 0x1A47 JUMP JUMPDEST SWAP3 SWAP2 POP POP JUMP JUMPDEST PUSH2 0x1A78 DUP2 PUSH2 0x178C JUMP JUMPDEST DUP3 MSTORE POP POP JUMP JUMPDEST PUSH0 PUSH1 0x20 DUP3 ADD SWAP1 POP PUSH2 0x1A91 PUSH0 DUP4 ADD DUP5 PUSH2 0x1A6F JUMP JUMPDEST SWAP3 SWAP2 POP POP JUMP JUMPDEST PUSH0 PUSH20 0xFFFFFFFFFFFFFFFFFFFFFFFFFFFFFFFFFFFFFFFF DUP3 AND SWAP1 POP SWAP2 SWAP1 POP JUMP JUMPDEST PUSH0 PUSH2 0x1AC0 DUP3 PUSH2 0x1A97 JUMP JUMPDEST SWAP1 POP SWAP2 SWAP1 POP JUMP JUMPDEST PUSH2 0x1AD0 DUP2 PUSH2 0x1AB6 JUMP JUMPDEST DUP3 MSTORE POP POP JUMP JUMPDEST PUSH0 PUSH1 0x20 DUP3 ADD SWAP1 POP PUSH2 0x1AE9 PUSH0 DUP4 ADD DUP5 PUSH2 0x1AC7 JUMP JUMPDEST SWAP3 SWAP2 POP POP JUMP JUMPDEST PUSH0 PUSH1 0x20 DUP3 ADD SWAP1 POP PUSH2 0x1B02 PUSH0 DUP4 ADD DUP5 PUSH2 0x1983 JUMP JUMPDEST SWAP3 SWAP2 POP POP JUMP JUMPDEST PUSH0 PUSH1 0xA0 DUP3 ADD SWAP1 POP PUSH2 0x1B1B PUSH0 DUP4 ADD DUP9 PUSH2 0x1983 JUMP JUMPDEST PUSH2 0x1B28 PUSH1 0x20 DUP4 ADD DUP8 PUSH2 0x1983 JUMP JUMPDEST PUSH2 0x1B35 PUSH1 0x40 DUP4 ADD DUP7 PUSH2 0x1983 JUMP JUMPDEST PUSH2 0x1B42 PUSH1 0x60 DUP4 ADD DUP6 PUSH2 0x1983 JUMP JUMPDEST PUSH2 0x1B4F PUSH1 0x80 DUP4 ADD DUP5 PUSH2 0x1A6F JUMP JUMPDEST SWAP7 SWAP6 POP POP POP POP POP POP JUMP JUMPDEST PUSH2 0x1B62 DUP2 PUSH2 0x1751 JUMP JUMPDEST DUP2 EQ PUSH2 0x1B6C JUMPI PUSH0 PUSH0 REVERT JUMPDEST POP JUMP JUMPDEST PUSH0 DUP2 CALLDATALOAD SWAP1 POP PUSH2 0x1B7D DUP2 PUSH2 0x1B59 JUMP JUMPDEST SWAP3 SWAP2 POP POP JUMP JUMPDEST PUSH0 PUSH4 0xFFFFFFFF DUP3 AND SWAP1 POP SWAP2 SWAP1 POP JUMP JUMPDEST PUSH2 0x1B9B DUP2 PUSH2 0x1B83 JUMP JUMPDEST DUP2 EQ PUSH2 0x1BA5 JUMPI PUSH0 PUSH0 REVERT JUMPDEST POP JUMP JUMPDEST PUSH0 DUP2 CALLDATALOAD SWAP1 POP PUSH2 0x1BB6 DUP2 PUSH2 0x1B92 JUMP JUMPDEST SWAP3 SWAP2 POP POP JUMP JUMPDEST PUSH0 PUSH0 PUSH0 PUSH1 0x60 DUP5 DUP7 SUB SLT ISZERO PUSH2 0x1BD3 JUMPI PUSH2 0x1BD2 PUSH2 0x16EB JUMP JUMPDEST JUMPDEST PUSH0 PUSH2 0x1BE0 DUP7 DUP3 DUP8 ADD PUSH2 0x1B6F JUMP JUMPDEST SWAP4 POP POP PUSH1 0x20 PUSH2 0x1BF1 DUP7 DUP3 DUP8 ADD PUSH2 0x1BA8 JUMP JUMPDEST SWAP3 POP POP PUSH1 0x40 PUSH2 0x1C02 DUP7 DUP3 DUP8 ADD PUSH2 0x17AB JUMP JUMPDEST SWAP2 POP POP SWAP3 POP SWAP3 POP SWAP3 JUMP JUMPDEST PUSH2 0x1C15 DUP2 PUSH2 0x1AB6 JUMP JUMPDEST DUP2 EQ PUSH2 0x1C1F JUMPI PUSH0 PUSH0 REVERT JUMPDEST POP JUMP JUMPDEST PUSH0 DUP2 CALLDATALOAD SWAP1 POP PUSH2 0x1C30 DUP2 PUSH2 0x1C0C JUMP JUMPDEST SWAP3 SWAP2 POP POP JUMP JUMPDEST PUSH0 PUSH1 0x20 DUP3 DUP5 SUB SLT ISZERO PUSH2 0x1C4B JUMPI PUSH2 0x1C4A PUSH2 0x16EB JUMP JUMPDEST JUMPDEST PUSH0 PUSH2 0x1C58 DUP5 DUP3 DUP6 ADD PUSH2 0x1C22 JUMP JUMPDEST SWAP2 POP POP SWAP3 SWAP2 POP POP JUMP JUMPDEST PUSH2 0x1C6A DUP2 PUSH2 0x1B83 JUMP JUMPDEST DUP3 MSTORE POP POP JUMP JUMPDEST PUSH0 PUSH1 0x20 DUP3 ADD SWAP1 POP PUSH2 0x1C83 PUSH0 DUP4 ADD DUP5 PUSH2 0x1C61 JUMP JUMPDEST SWAP3 SWAP2 POP POP JUMP JUMPDEST PUSH32 0x5072696365206D7573742062652067726561746572207468616E203000000000 PUSH0 DUP3 ADD MSTORE POP JUMP JUMPDEST PUSH0 PUSH2 0x1CBD PUSH1 0x1C DUP4 PUSH2 0x199C JUMP JUMPDEST SWAP2 POP PUSH2 0x1CC8 DUP3 PUSH2 0x1C89 JUMP JUMPDEST PUSH1 0x20 DUP3 ADD SWAP1 POP SWAP2 SWAP1 POP JUMP JUMPDEST PUSH0 PUSH1 0x20 DUP3 ADD SWAP1 POP DUP2 DUP2 SUB PUSH0 DUP4 ADD MSTORE PUSH2 0x1CEA DUP2 PUSH2 0x1CB1 JUMP JUMPDEST SWAP1 POP SWAP2 SWAP1 POP JUMP JUMPDEST PUSH32 0x4E487B7100000000000000000000000000000000000000000000000000000000 PUSH0 MSTORE PUSH1 0x11 PUSH1 0x4 MSTORE PUSH1 0x24 PUSH0 REVERT JUMPDEST PUSH0 PUSH2 0x1D28 DUP3 PUSH2 0x16F3 JUMP JUMPDEST SWAP2 POP PUSH2 0x1D33 DUP4 PUSH2 0x16F3 JUMP JUMPDEST SWAP3 POP DUP3 DUP3 MUL PUSH2 0x1D41 DUP2 PUSH2 0x16F3 JUMP JUMPDEST SWAP2 POP DUP3 DUP3 DIV DUP5 EQ DUP4 ISZERO OR PUSH2 0x1D58 JUMPI PUSH2 0x1D57 PUSH2 0x1CF1 JUMP JUMPDEST JUMPDEST POP SWAP3 SWAP2 POP POP JUMP JUMPDEST PUSH0 PUSH1 0x40 DUP3 ADD SWAP1 POP PUSH2 0x1D72 PUSH0 DUP4 ADD DUP6 PUSH2 0x1983 JUMP JUMPDEST PUSH2 0x1D7F PUSH1 0x20 DUP4 ADD DUP5 PUSH2 0x1983 JUMP JUMPDEST SWAP4 SWAP3 POP POP POP JUMP JUMPDEST PUSH32 0x4E487B7100000000000000000000000000000000000000000000000000000000 PUSH0 MSTORE PUSH1 0x12 PUSH1 0x4 MSTORE PUSH1 0x24 PUSH0 REVERT JUMPDEST PUSH0 PUSH2 0x1DBD DUP3 PUSH2 0x16F3 JUMP JUMPDEST SWAP2 POP PUSH2 0x1DC8 DUP4 PUSH2 0x16F3 JUMP JUMPDEST SWAP3 POP DUP3 PUSH2 0x1DD8 JUMPI PUSH2 0x1DD7 PUSH2 0x1D86 JUMP JUMPDEST JUMPDEST DUP3 DUP3 DIV SWAP1 POP SWAP3 SWAP2 POP POP JUMP JUMPDEST PUSH0 PUSH2 0x1DED DUP3 PUSH2 0x16F3 JUMP JUMPDEST SWAP2 POP PUSH2 0x1DF8 DUP4 PUSH2 0x16F3 JUMP JUMPDEST SWAP3 POP DUP3 DUP3 SUB SWAP1 POP DUP2 DUP2 GT ISZERO PUSH2 0x1E10 JUMPI PUSH2 0x1E0F PUSH2 0x1CF1 JUMP JUMPDEST JUMPDEST SWAP3 SWAP2 POP POP JUMP JUMPDEST PUSH32 0x4D7573742062652070726F706F736564206F776E657200000000000000000000 PUSH0 DUP3 ADD MSTORE POP JUMP JUMPDEST PUSH0 PUSH2 0x1E4A PUSH1 0x16 DUP4 PUSH2 0x199C JUMP JUMPDEST SWAP2 POP PUSH2 0x1E55 DUP3 PUSH2 0x1E16 JUMP JUMPDEST PUSH1 0x20 DUP3 ADD SWAP1 POP SWAP2 SWAP1 POP JUMP JUMPDEST PUSH0 PUSH1 0x20 DUP3 ADD SWAP1 POP DUP2 DUP2 SUB PUSH0 DUP4 ADD MSTORE PUSH2 0x1E77 DUP2 PUSH2 0x1E3E JUMP JUMPDEST SWAP1 POP SWAP2 SWAP1 POP JUMP JUMPDEST PUSH32 0x4E487B7100000000000000000000000000000000000000000000000000000000 PUSH0 MSTORE PUSH1 0x22 PUSH1 0x4 MSTORE PUSH1 0x24 PUSH0 REVERT JUMPDEST PUSH0 PUSH1 0x2 DUP3 DIV SWAP1 POP PUSH1 0x1 DUP3 AND DUP1 PUSH2 0x1EC2 JUMPI PUSH1 0x7F DUP3 AND SWAP2 POP JUMPDEST PUSH1 0x20 DUP3 LT DUP2 SUB PUSH2 0x1ED5 JUMPI PUSH2 0x1ED4 PUSH2 0x1E7E JUMP JUMPDEST JUMPDEST POP SWAP2 SWAP1 POP JUMP JUMPDEST PUSH32 0x4F6E6C792063616C6C61626C65206279206F776E657200000000000000000000 PUSH0 DUP3 ADD MSTORE POP JUMP JUMPDEST PUSH0 PUSH2 0x1F0F PUSH1 0x16 DUP4 PUSH2 0x199C JUMP JUMPDEST SWAP2 POP PUSH2 0x1F1A DUP3 PUSH2 0x1EDB JUMP JUMPDEST PUSH1 0x20 DUP3 ADD SWAP1 POP SWAP2 SWAP1 POP JUMP JUMPDEST PUSH0 PUSH1 0x20 DUP3 ADD SWAP1 POP DUP2 DUP2 SUB PUSH0 DUP4 ADD MSTORE PUSH2 0x1F3C DUP2 PUSH2 0x1F03 JUMP JUMPDEST SWAP1 POP SWAP2 SWAP1 POP JUMP JUMPDEST PUSH0 DUP2 MLOAD SWAP1 POP SWAP2 SWAP1 POP JUMP JUMPDEST PUSH0 DUP3 DUP3 MSTORE PUSH1 0x20 DUP3 ADD SWAP1 POP SWAP3 SWAP2 POP POP JUMP JUMPDEST PUSH0 PUSH2 0x1F67 DUP3 PUSH2 0x1F43 JUMP JUMPDEST PUSH2 0x1F71 DUP2 DUP6 PUSH2 0x1F4D JUMP JUMPDEST SWAP4 POP PUSH2 0x1F81 DUP2 DUP6 PUSH1 0x20 DUP7 ADD PUSH2 0x19AC JUMP JUMPDEST PUSH2 0x1F8A DUP2 PUSH2 0x17C7 JUMP JUMPDEST DUP5 ADD SWAP2 POP POP SWAP3 SWAP2 POP POP JUMP JUMPDEST PUSH0 PUSH1 0x20 DUP3 ADD SWAP1 POP DUP2 DUP2 SUB PUSH0 DUP4 ADD MSTORE PUSH2 0x1FAD DUP2 DUP5 PUSH2 0x1F5D JUMP JUMPDEST SWAP1 POP SWAP3 SWAP2 POP POP JUMP JUMPDEST PUSH0 DUP2 MLOAD SWAP1 POP PUSH2 0x1FC3 DUP2 PUSH2 0x16FC JUMP JUMPDEST SWAP3 SWAP2 POP POP JUMP JUMPDEST PUSH0 PUSH1 0x20 DUP3 DUP5 SUB SLT ISZERO PUSH2 0x1FDE JUMPI PUSH2 0x1FDD PUSH2 0x16EB JUMP JUMPDEST JUMPDEST PUSH0 PUSH2 0x1FEB DUP5 DUP3 DUP6 ADD PUSH2 0x1FB5 JUMP JUMPDEST SWAP2 POP POP SWAP3 SWAP2 POP POP JUMP JUMPDEST PUSH32 0x4E487B7100000000000000000000000000000000000000000000000000000000 PUSH0 MSTORE PUSH1 0x21 PUSH1 0x4 MSTORE PUSH1 0x24 PUSH0 REVERT JUMPDEST PUSH32 0x4E487B7100000000000000000000000000000000000000000000000000000000 PUSH0 MSTORE PUSH1 0x32 PUSH1 0x4 MSTORE PUSH1 0x24 PUSH0 REVERT JUMPDEST PUSH0 PUSH2 0xFFFF DUP3 AND SWAP1 POP SWAP2 SWAP1 POP JUMP JUMPDEST PUSH2 0x2064 DUP2 PUSH2 0x204E JUMP JUMPDEST DUP3 MSTORE POP POP JUMP JUMPDEST PUSH0 PUSH1 0xA0 DUP3 ADD SWAP1 POP PUSH2 0x207D PUSH0 DUP4 ADD DUP9 PUSH2 0x1764 JUMP JUMPDEST DUP2 DUP2 SUB PUSH1 0x20 DUP4 ADD MSTORE PUSH2 0x208F DUP2 DUP8 PUSH2 0x1F5D JUMP JUMPDEST SWAP1 POP PUSH2 0x209E PUSH1 0x40 DUP4 ADD DUP7 PUSH2 0x205B JUMP JUMPDEST PUSH2 0x20AB PUSH1 0x60 DUP4 ADD DUP6 PUSH2 0x1C61 JUMP JUMPDEST PUSH2 0x20B8 PUSH1 0x80 DUP4 ADD DUP5 PUSH2 0x1A6F JUMP JUMPDEST SWAP7 SWAP6 POP POP POP POP POP POP JUMP JUMPDEST PUSH0 DUP2 MLOAD SWAP1 POP PUSH2 0x20D0 DUP2 PUSH2 0x1795 JUMP JUMPDEST SWAP3 SWAP2 POP POP JUMP JUMPDEST PUSH0 PUSH1 0x20 DUP3 DUP5 SUB SLT ISZERO PUSH2 0x20EB JUMPI PUSH2 0x20EA PUSH2 0x16EB JUMP JUMPDEST JUMPDEST PUSH0 PUSH2 0x20F8 DUP5 DUP3 DUP6 ADD PUSH2 0x20C2 JUMP JUMPDEST SWAP2 POP POP SWAP3 SWAP2 POP POP JUMP JUMPDEST PUSH32 0x43616E6E6F74207472616E7366657220746F2073656C66000000000000000000 PUSH0 DUP3 ADD MSTORE POP JUMP JUMPDEST PUSH0 PUSH2 0x2135 PUSH1 0x17 DUP4 PUSH2 0x199C JUMP JUMPDEST SWAP2 POP PUSH2 0x2140 DUP3 PUSH2 0x2101 JUMP JUMPDEST PUSH1 0x20 DUP3 ADD SWAP1 POP SWAP2 SWAP1 POP JUMP JUMPDEST PUSH0 PUSH1 0x20 DUP3 ADD SWAP1 POP DUP2 DUP2 SUB PUSH0 DUP4 ADD MSTORE PUSH2 0x2162 DUP2 PUSH2 0x2129 JUMP JUMPDEST SWAP1 POP SWAP2 SWAP1 POP JUMP JUMPDEST PUSH0 PUSH2 0x2173 DUP3 PUSH2 0x16F3 JUMP JUMPDEST SWAP2 POP PUSH2 0x217E DUP4 PUSH2 0x16F3 JUMP JUMPDEST SWAP3 POP DUP3 DUP3 ADD SWAP1 POP DUP1 DUP3 GT ISZERO PUSH2 0x2196 JUMPI PUSH2 0x2195 PUSH2 0x1CF1 JUMP JUMPDEST JUMPDEST SWAP3 SWAP2 POP POP JUMP JUMPDEST PUSH0 PUSH2 0x21A6 DUP3 PUSH2 0x16F3 JUMP JUMPDEST SWAP2 POP PUSH2 0x21B1 DUP4 PUSH2 0x16F3 JUMP JUMPDEST SWAP3 POP DUP3 PUSH2 0x21C1 JUMPI PUSH2 0x21C0 PUSH2 0x1D86 JUMP JUMPDEST JUMPDEST DUP3 DUP3 MOD SWAP1 POP SWAP3 SWAP2 POP POP JUMP JUMPDEST PUSH0 DUP2 PUSH1 0x1 SHR SWAP1 POP SWAP2 SWAP1 POP JUMP JUMPDEST PUSH0 PUSH0 DUP3 SWAP2 POP DUP4 SWAP1 POP JUMPDEST PUSH1 0x1 DUP6 GT ISZERO PUSH2 0x2221 JUMPI DUP1 DUP7 DIV DUP2 GT ISZERO PUSH2 0x21FD JUMPI PUSH2 0x21FC PUSH2 0x1CF1 JUMP JUMPDEST JUMPDEST PUSH1 0x1 DUP6 AND ISZERO PUSH2 0x220C JUMPI DUP1 DUP3 MUL SWAP2 POP JUMPDEST DUP1 DUP2 MUL SWAP1 POP PUSH2 0x221A DUP6 PUSH2 0x21CC JUMP JUMPDEST SWAP5 POP PUSH2 0x21E1 JUMP JUMPDEST SWAP5 POP SWAP5 SWAP3 POP POP POP JUMP JUMPDEST PUSH0 DUP3 PUSH2 0x2239 JUMPI PUSH1 0x1 SWAP1 POP PUSH2 0x22F4 JUMP JUMPDEST DUP2 PUSH2 0x2246 JUMPI PUSH0 SWAP1 POP PUSH2 0x22F4 JUMP JUMPDEST DUP2 PUSH1 0x1 DUP2 EQ PUSH2 0x225C JUMPI PUSH1 0x2 DUP2 EQ PUSH2 0x2266 JUMPI PUSH2 0x2295 JUMP JUMPDEST PUSH1 0x1 SWAP2 POP POP PUSH2 0x22F4 JUMP JUMPDEST PUSH1 0xFF DUP5 GT ISZERO PUSH2 0x2278 JUMPI PUSH2 0x2277 PUSH2 0x1CF1 JUMP JUMPDEST JUMPDEST DUP4 PUSH1 0x2 EXP SWAP2 POP DUP5 DUP3 GT ISZERO PUSH2 0x228F JUMPI PUSH2 0x228E PUSH2 0x1CF1 JUMP JUMPDEST JUMPDEST POP PUSH2 0x22F4 JUMP JUMPDEST POP PUSH1 0x20 DUP4 LT PUSH2 0x133 DUP4 LT AND PUSH1 0x4E DUP5 LT PUSH1 0xB DUP5 LT AND OR ISZERO PUSH2 0x22CA JUMPI DUP3 DUP3 EXP SWAP1 POP DUP4 DUP2 GT ISZERO PUSH2 0x22C5 JUMPI PUSH2 0x22C4 PUSH2 0x1CF1 JUMP JUMPDEST JUMPDEST PUSH2 0x22F4 JUMP JUMPDEST PUSH2 0x22D7 DUP5 DUP5 DUP5 PUSH1 0x1 PUSH2 0x21D8 JUMP JUMPDEST SWAP3 POP SWAP1 POP DUP2 DUP5 DIV DUP2 GT ISZERO PUSH2 0x22EE JUMPI PUSH2 0x22ED PUSH2 0x1CF1 JUMP JUMPDEST JUMPDEST DUP2 DUP2 MUL SWAP1 POP JUMPDEST SWAP4 SWAP3 POP POP POP JUMP JUMPDEST PUSH0 PUSH2 0x2305 DUP3 PUSH2 0x16F3 JUMP JUMPDEST SWAP2 POP PUSH2 0x2310 DUP4 PUSH2 0x16F3 JUMP JUMPDEST SWAP3 POP PUSH2 0x233D PUSH32 0xFFFFFFFFFFFFFFFFFFFFFFFFFFFFFFFFFFFFFFFFFFFFFFFFFFFFFFFFFFFFFFFF DUP5 DUP5 PUSH2 0x222A JUMP JUMPDEST SWAP1 POP SWAP3 SWAP2 POP POP JUMP INVALID SSTORE MSTORE8 PREVRANDAO KECCAK256 POP PUSH19 0x696365203D20545744205072696365202F2055 MSTORE8 PREVRANDAO 0x2D SLOAD JUMPI PREVRANDAO KECCAK256 MSTORE PUSH2 0x7465 KECCAK256 0x28 PUSH10 0x6E2063656E747329A264 PUSH10 0x706673582212209D3518 JUMPF 0xF33D CHAINID CHAINID 0xA8 0xFC 0xDB PUSH30 0x828356473EFB575CE6EB2B6687508F76FB6154D864736F6C634300081E00 CALLER PUSH4 0x6F6E7374 KECCAK256 JUMPDEST PUSH21 0x773530526573706F6E73652C207573645477645265 PUSH20 0x706F6E73655D203D2061776169742050726F6D69 PUSH20 0x652E616C6C285B46756E6374696F6E732E6D616B PUSH6 0x487474705265 PUSH18 0x75657374287B75726C3A202768747470733A 0x2F 0x2F PUSH18 0x75657279312E66696E616E63652E7961686F PUSH16 0x2E636F6D2F76382F66696E616E63652F PUSH4 0x68617274 0x2F ADDRESS ADDRESS CALLDATALOAD ADDRESS 0x2E SLOAD JUMPI 0x27 PUSH30 0x292C46756E6374696F6E732E6D616B654874747052657175657374287B75 PUSH19 0x6C3A202768747470733A2F2F7175657279312E PUSH7 0x696E616E63652E PUSH26 0x61686F6F2E636F6D2F76382F66696E616E63652F63686172742F SSTORE MSTORE8 PREVRANDAO SLOAD JUMPI PREVRANDAO RETURNDATASIZE PC 0x27 PUSH30 0x295D293B6966202874773530526573706F6E73652E6572726F72207C7C20 PUSH22 0x7364547764526573706F6E73652E6572726F7229207B PUSH21 0x68726F77204572726F722827526571756573742066 PUSH2 0x696C PUSH6 0x6427293B7D63 PUSH16 0x6E737420747735305072696365203D20 PUSH21 0x773530526573706F6E73652E646174612E63686172 PUSH21 0x2E726573756C745B305D2E6D6574612E726567756C PUSH2 0x724D PUSH2 0x726B PUSH6 0x745072696365 EXTCODESIZE PUSH4 0x6F6E7374 KECCAK256 PUSH22 0x736454776452617465203D2075736454776452657370 PUSH16 0x6E73652E646174612E63686172742E72 PUSH6 0x73756C745B30 TSTORE 0x2E PUSH14 0x6574612E726567756C61724D6172 PUSH12 0x657450726963653B69662028 0x21 PUSH21 0x7735305072696365207C7C20217573645477645261 PUSH21 0x6529207B7468726F77204572726F72282750726963 PUSH6 0x206E6F742066 PUSH16 0x756E6427293B7D636F6E737420757364 POP PUSH19 0x696365203D20747735305072696365202F2075 PUSH20 0x64547764526174653B72657475726E2046756E63 PUSH21 0x696F6E732E656E636F646555696E74323536284D61 PUSH21 0x682E726F756E64287573645072696365202A203165 BALANCE CODESIZE 0x29 0x29 EXTCODESIZE "
				},
				"gasEstimates": {
					"creation": {
						"codeDepositCost": "1826000",
						"executionCost": "infinite",
						"totalCost": "infinite"
					},
					"external": {
						"acceptOwnership()": "54598",
						"donID()": "2470",
						"gasLimit()": "2583",
						"getCalculationDetails()": "infinite",
						"getLatestPrice()": "2543",
						"getLatestPricePrecise()": "2542",
						"getLatestPriceUSD()": "infinite",
						"getOracleInfo()": "infinite",
						"handleOracleFulfillment(bytes32,bytes,bytes)": "infinite",
						"isPriceStale()": "infinite",
						"lastRequestId()": "2513",
						"lastUpdateTime()": "2492",
						"owner()": "2603",
						"requestPriceUpdate()": "infinite",
						"subscriptionId()": "2512",
						"transferOwnership(address)": "30693",
						"updateConfig(uint64,uint32,bytes32)": "73728",
						"updatePriceManual(uint256)": "infinite"
					},
					"internal": {
						"fulfillRequest(bytes32,bytes memory,bytes memory)": "infinite"
					}
				},
				"methodIdentifiers": {
					"acceptOwnership()": "79ba5097",
					"donID()": "6e74336b",
					"gasLimit()": "f68016b7",
					"getCalculationDetails()": "26c4c889",
					"getLatestPrice()": "8e15f473",
					"getLatestPricePrecise()": "ff8e583a",
					"getLatestPriceUSD()": "ec2b70a4",
					"getOracleInfo()": "9c84cd10",
					"handleOracleFulfillment(bytes32,bytes,bytes)": "0ca76175",
					"isPriceStale()": "2f5df725",
					"lastRequestId()": "fc2a88c3",
					"lastUpdateTime()": "c8f33c91",
					"owner()": "8da5cb5b",
					"requestPriceUpdate()": "afdb0556",
					"subscriptionId()": "09c1ba2e",
					"transferOwnership(address)": "f2fde38b",
					"updateConfig(uint64,uint32,bytes32)": "d0f784f0",
					"updatePriceManual(uint256)": "05239ca1"
				}
			},
			"storageLayout": {
				"storage": [
					{
						"astId": 816,
						"contract": "contracts/0050PriceUSDOracle.sol:PriceOracle0050",
						"label": "s_owner",
						"offset": 0,
						"slot": "0",
						"type": "t_address"
					},
					{
						"astId": 818,
						"contract": "contracts/0050PriceUSDOracle.sol:PriceOracle0050",
						"label": "s_pendingOwner",
						"offset": 0,
						"slot": "1",
						"type": "t_address"
					},
					{
						"astId": 2285,
						"contract": "contracts/0050PriceUSDOracle.sol:PriceOracle0050",
						"label": "currentPrice",
						"offset": 0,
						"slot": "2",
						"type": "t_uint256"
					},
					{
						"astId": 2287,
						"contract": "contracts/0050PriceUSDOracle.sol:PriceOracle0050",
						"label": "lastUpdateTime",
						"offset": 0,
						"slot": "3",
						"type": "t_uint256"
					},
					{
						"astId": 2289,
						"contract": "contracts/0050PriceUSDOracle.sol:PriceOracle0050",
						"label": "lastRequestId",
						"offset": 0,
						"slot": "4",
						"type": "t_bytes32"
					},
					{
						"astId": 2291,
						"contract": "contracts/0050PriceUSDOracle.sol:PriceOracle0050",
						"label": "subscriptionId",
						"offset": 0,
						"slot": "5",
						"type": "t_uint64"
					},
					{
						"astId": 2294,
						"contract": "contracts/0050PriceUSDOracle.sol:PriceOracle0050",
						"label": "gasLimit",
						"offset": 8,
						"slot": "5",
						"type": "t_uint32"
					},
					{
						"astId": 2296,
						"contract": "contracts/0050PriceUSDOracle.sol:PriceOracle0050",
						"label": "donID",
						"offset": 0,
						"slot": "6",
						"type": "t_bytes32"
					},
					{
						"astId": 2315,
						"contract": "contracts/0050PriceUSDOracle.sol:PriceOracle0050",
						"label": "source",
						"offset": 0,
						"slot": "7",
						"type": "t_string_storage"
					}
				],
				"types": {
					"t_address": {
						"encoding": "inplace",
						"label": "address",
						"numberOfBytes": "20"
					},
					"t_bytes32": {
						"encoding": "inplace",
						"label": "bytes32",
						"numberOfBytes": "32"
					},
					"t_string_storage": {
						"encoding": "bytes",
						"label": "string",
						"numberOfBytes": "32"
					},
					"t_uint256": {
						"encoding": "inplace",
						"label": "uint256",
						"numberOfBytes": "32"
					},
					"t_uint32": {
						"encoding": "inplace",
						"label": "uint32",
						"numberOfBytes": "4"
					},
					"t_uint64": {
						"encoding": "inplace",
						"label": "uint64",
						"numberOfBytes": "8"
					}
				}
			},
			"userdoc": {
				"kind": "user",
				"methods": {
					"acceptOwnership()": {
						"notice": "Allows an ownership transfer to be completed by the recipient."
					},
					"handleOracleFulfillment(bytes32,bytes,bytes)": {
						"notice": "Chainlink Functions response handler called by the Functions Router during fullilment from the designated transmitter node in an OCR round."
					},
					"owner()": {
						"notice": "Get the current owner"
					},
					"transferOwnership(address)": {
						"notice": "Allows an owner to begin transferring ownership to a new address."
					}
				},
				"version": 1
			}
		}
	}
}