{
	"contracts/TokenUSDt_flattened.sol": {
		"USDt": {
			"abi": [
				{
					"inputs": [],
					"stateMutability": "nonpayable",
					"type": "constructor"
				},
				{
					"inputs": [
						{
							"internalType": "address",
							"name": "spender",
							"type": "address"
						},
						{
							"internalType": "uint256",
							"name": "allowance",
							"type": "uint256"
						},
						{
							"internalType": "uint256",
							"name": "needed",
							"type": "uint256"
						}
					],
					"name": "ERC20InsufficientAllowance",
					"type": "error"
				},
				{
					"inputs": [
						{
							"internalType": "address",
							"name": "sender",
							"type": "address"
						},
						{
							"internalType": "uint256",
							"name": "balance",
							"type": "uint256"
						},
						{
							"internalType": "uint256",
							"name": "needed",
							"type": "uint256"
						}
					],
					"name": "ERC20InsufficientBalance",
					"type": "error"
				},
				{
					"inputs": [
						{
							"internalType": "address",
							"name": "approver",
							"type": "address"
						}
					],
					"name": "ERC20InvalidApprover",
					"type": "error"
				},
				{
					"inputs": [
						{
							"internalType": "address",
							"name": "receiver",
							"type": "address"
						}
					],
					"name": "ERC20InvalidReceiver",
					"type": "error"
				},
				{
					"inputs": [
						{
							"internalType": "address",
							"name": "sender",
							"type": "address"
						}
					],
					"name": "ERC20InvalidSender",
					"type": "error"
				},
				{
					"inputs": [
						{
							"internalType": "address",
							"name": "spender",
							"type": "address"
						}
					],
					"name": "ERC20InvalidSpender",
					"type": "error"
				},
				{
					"inputs": [
						{
							"internalType": "address",
							"name": "owner",
							"type": "address"
						}
					],
					"name": "OwnableInvalidOwner",
					"type": "error"
				},
				{
					"inputs": [
						{
							"internalType": "address",
							"name": "account",
							"type": "address"
						}
					],
					"name": "OwnableUnauthorizedAccount",
					"type": "error"
				},
				{
					"anonymous": false,
					"inputs": [
						{
							"indexed": true,
							"internalType": "address",
							"name": "owner",
							"type": "address"
						},
						{
							"indexed": true,
							"internalType": "address",
							"name": "spender",
							"type": "address"
						},
						{
							"indexed": false,
							"internalType": "uint256",
							"name": "value",
							"type": "uint256"
						}
					],
					"name": "Approval",
					"type": "event"
				},
				{
					"anonymous": false,
					"inputs": [
						{
							"indexed": true,
							"internalType": "address",
							"name": "previousOwner",
							"type": "address"
						},
						{
							"indexed": true,
							"internalType": "address",
							"name": "newOwner",
							"type": "address"
						}
					],
					"name": "OwnershipTransferred",
					"type": "event"
				},
				{
					"anonymous": false,
					"inputs": [
						{
							"indexed": true,
							"internalType": "address",
							"name": "from",
							"type": "address"
						},
						{
							"indexed": true,
							"internalType": "address",
							"name": "to",
							"type": "address"
						},
						{
							"indexed": false,
							"internalType": "uint256",
							"name": "value",
							"type": "uint256"
						}
					],
					"name": "Transfer",
					"type": "event"
				},
				{
					"inputs": [
						{
							"internalType": "address",
							"name": "owner",
							"type": "address"
						},
						{
							"internalType": "address",
							"name": "spender",
							"type": "address"
						}
					],
					"name": "allowance",
					"outputs": [
						{
							"internalType": "uint256",
							"name": "",
							"type": "uint256"
						}
					],
					"stateMutability": "view",
					"type": "function"
				},
				{
					"inputs": [
						{
							"internalType": "address",
							"name": "spender",
							"type": "address"
						},
						{
							"internalType": "uint256",
							"name": "value",
							"type": "uint256"
						}
					],
					"name": "approve",
					"outputs": [
						{
							"internalType": "bool",
							"name": "",
							"type": "bool"
						}
					],
					"stateMutability": "nonpayable",
					"type": "function"
				},
				{
					"inputs": [
						{
							"internalType": "address",
							"name": "spender",
							"type": "address"
						},
						{
							"internalType": "uint256",
							"name": "dollarAmount",
							"type": "uint256"
						}
					],
					"name": "approveUSD",
					"outputs": [
						{
							"internalType": "bool",
							"name": "",
							"type": "bool"
						}
					],
					"stateMutability": "nonpayable",
					"type": "function"
				},
				{
					"inputs": [
						{
							"internalType": "address",
							"name": "account",
							"type": "address"
						}
					],
					"name": "balanceOf",
					"outputs": [
						{
							"internalType": "uint256",
							"name": "",
							"type": "uint256"
						}
					],
					"stateMutability": "view",
					"type": "function"
				},
				{
					"inputs": [
						{
							"internalType": "address",
							"name": "account",
							"type": "address"
						}
					],
					"name": "balanceUSD",
					"outputs": [
						{
							"internalType": "uint256",
							"name": "",
							"type": "uint256"
						}
					],
					"stateMutability": "view",
					"type": "function"
				},
				{
					"inputs": [
						{
							"internalType": "address",
							"name": "from",
							"type": "address"
						},
						{
							"internalType": "uint256",
							"name": "amount",
							"type": "uint256"
						}
					],
					"name": "burn",
					"outputs": [],
					"stateMutability": "nonpayable",
					"type": "function"
				},
				{
					"inputs": [],
					"name": "decimals",
					"outputs": [
						{
							"internalType": "uint8",
							"name": "",
							"type": "uint8"
						}
					],
					"stateMutability": "pure",
					"type": "function"
				},
				{
					"inputs": [
						{
							"internalType": "address",
							"name": "to",
							"type": "address"
						},
						{
							"internalType": "uint256",
							"name": "dollarAmount",
							"type": "uint256"
						}
					],
					"name": "mint",
					"outputs": [],
					"stateMutability": "nonpayable",
					"type": "function"
				},
				{
					"inputs": [],
					"name": "name",
					"outputs": [
						{
							"internalType": "string",
							"name": "",
							"type": "string"
						}
					],
					"stateMutability": "view",
					"type": "function"
				},
				{
					"inputs": [],
					"name": "owner",
					"outputs": [
						{
							"internalType": "address",
							"name": "",
							"type": "address"
						}
					],
					"stateMutability": "view",
					"type": "function"
				},
				{
					"inputs": [],
					"name": "renounceOwnership",
					"outputs": [],
					"stateMutability": "nonpayable",
					"type": "function"
				},
				{
					"inputs": [],
					"name": "symbol",
					"outputs": [
						{
							"internalType": "string",
							"name": "",
							"type": "string"
						}
					],
					"stateMutability": "view",
					"type": "function"
				},
				{
					"inputs": [],
					"name": "totalSupply",
					"outputs": [
						{
							"internalType": "uint256",
							"name": "",
							"type": "uint256"
						}
					],
					"stateMutability": "view",
					"type": "function"
				},
				{
					"inputs": [],
					"name": "totalSupplyUSD",
					"outputs": [
						{
							"internalType": "uint256",
							"name": "",
							"type": "uint256"
						}
					],
					"stateMutability": "view",
					"type": "function"
				},
				{
					"inputs": [
						{
							"internalType": "address",
							"name": "to",
							"type": "address"
						},
						{
							"internalType": "uint256",
							"name": "value",
							"type": "uint256"
						}
					],
					"name": "transfer",
					"outputs": [
						{
							"internalType": "bool",
							"name": "",
							"type": "bool"
						}
					],
					"stateMutability": "nonpayable",
					"type": "function"
				},
				{
					"inputs": [
						{
							"internalType": "address",
							"name": "from",
							"type": "address"
						},
						{
							"internalType": "address",
							"name": "to",
							"type": "address"
						},
						{
							"internalType": "uint256",
							"name": "value",
							"type": "uint256"
						}
					],
					"name": "transferFrom",
					"outputs": [
						{
							"internalType": "bool",
							"name": "",
							"type": "bool"
						}
					],
					"stateMutability": "nonpayable",
					"type": "function"
				},
				{
					"inputs": [
						{
							"internalType": "address",
							"name": "newOwner",
							"type": "address"
						}
					],
					"name": "transferOwnership",
					"outputs": [],
					"stateMutability": "nonpayable",
					"type": "function"
				},
				{
					"inputs": [
						{
							"internalType": "address",
							"name": "to",
							"type": "address"
						},
						{
							"internalType": "uint256",
							"name": "dollarAmount",
							"type": "uint256"
						}
					],
					"name": "transferUSD",
					"outputs": [
						{
							"internalType": "bool",
							"name": "",
							"type": "bool"
						}
					],
					"stateMutability": "nonpayable",
					"type": "function"
				}
			],
			"devdoc": {
				"errors": {
					"ERC20InsufficientAllowance(address,uint256,uint256)": [
						{
							"details": "Indicates a failure with the `spender`’s `allowance`. Used in transfers.",
							"params": {
								"allowance": "Amount of tokens a `spender` is allowed to operate with.",
								"needed": "Minimum amount required to perform a transfer.",
								"spender": "Address that may be allowed to operate on tokens without being their owner."
							}
						}
					],
					"ERC20InsufficientBalance(address,uint256,uint256)": [
						{
							"details": "Indicates an error related to the current `balance` of a `sender`. Used in transfers.",
							"params": {
								"balance": "Current balance for the interacting account.",
								"needed": "Minimum amount required to perform a transfer.",
								"sender": "Address whose tokens are being transferred."
							}
						}
					],
					"ERC20InvalidApprover(address)": [
						{
							"details": "Indicates a failure with the `approver` of a token to be approved. Used in approvals.",
							"params": {
								"approver": "Address initiating an approval operation."
							}
						}
					],
					"ERC20InvalidReceiver(address)": [
						{
							"details": "Indicates a failure with the token `receiver`. Used in transfers.",
							"params": {
								"receiver": "Address to which tokens are being transferred."
							}
						}
					],
					"ERC20InvalidSender(address)": [
						{
							"details": "Indicates a failure with the token `sender`. Used in transfers.",
							"params": {
								"sender": "Address whose tokens are being transferred."
							}
						}
					],
					"ERC20InvalidSpender(address)": [
						{
							"details": "Indicates a failure with the `spender` to be approved. Used in approvals.",
							"params": {
								"spender": "Address that may be allowed to operate on tokens without being their owner."
							}
						}
					],
					"OwnableInvalidOwner(address)": [
						{
							"details": "The owner is not a valid owner account. (eg. `address(0)`)"
						}
					],
					"OwnableUnauthorizedAccount(address)": [
						{
							"details": "The caller account is not authorized to perform an operation."
						}
					]
				},
				"events": {
					"Approval(address,address,uint256)": {
						"details": "Emitted when the allowance of a `spender` for an `owner` is set by a call to {approve}. `value` is the new allowance."
					},
					"Transfer(address,address,uint256)": {
						"details": "Emitted when `value` tokens are moved from one account (`from`) to another (`to`). Note that `value` may be zero."
					}
				},
				"kind": "dev",
				"methods": {
					"allowance(address,address)": {
						"details": "Returns the remaining number of tokens that `spender` will be allowed to spend on behalf of `owner` through {transferFrom}. This is zero by default. This value changes when {approve} or {transferFrom} are called."
					},
					"approve(address,uint256)": {
						"details": "See {IERC20-approve}. NOTE: If `value` is the maximum `uint256`, the allowance is not updated on `transferFrom`. This is semantically equivalent to an infinite approval. Requirements: - `spender` cannot be the zero address."
					},
					"balanceOf(address)": {
						"details": "Returns the value of tokens owned by `account`."
					},
					"decimals()": {
						"details": "Returns the number of decimals used to get its user representation. For example, if `decimals` equals `2`, a balance of `505` tokens should be displayed to a user as `5.05` (`505 / 10 ** 2`). Tokens usually opt for a value of 18, imitating the relationship between Ether and Wei. This is the default value returned by this function, unless it's overridden. NOTE: This information is only used for _display_ purposes: it in no way affects any of the arithmetic of the contract, including {IERC20-balanceOf} and {IERC20-transfer}."
					},
					"name()": {
						"details": "Returns the name of the token."
					},
					"owner()": {
						"details": "Returns the address of the current owner."
					},
					"renounceOwnership()": {
						"details": "Leaves the contract without owner. It will not be possible to call `onlyOwner` functions. Can only be called by the current owner. NOTE: Renouncing ownership will leave the contract without an owner, thereby disabling any functionality that is only available to the owner."
					},
					"symbol()": {
						"details": "Returns the symbol of the token, usually a shorter version of the name."
					},
					"totalSupply()": {
						"details": "Returns the value of tokens in existence."
					},
					"transfer(address,uint256)": {
						"details": "See {IERC20-transfer}. Requirements: - `to` cannot be the zero address. - the caller must have a balance of at least `value`."
					},
					"transferFrom(address,address,uint256)": {
						"details": "See {IERC20-transferFrom}. Skips emitting an {Approval} event indicating an allowance update. This is not required by the ERC. See {xref-ERC20-_approve-address-address-uint256-bool-}[_approve]. NOTE: Does not update the allowance if the current allowance is the maximum `uint256`. Requirements: - `from` and `to` cannot be the zero address. - `from` must have a balance of at least `value`. - the caller must have allowance for ``from``'s tokens of at least `value`."
					},
					"transferOwnership(address)": {
						"details": "Transfers ownership of the contract to a new account (`newOwner`). Can only be called by the current owner."
					}
				},
				"version": 1
			},
			"evm": {
				"assembly": "    /* \"contracts/TokenUSDt_flattened.sol\":24811:26186  contract USDt is ERC20, Ownable {... */\n  mstore(0x40, 0x80)\n    /* \"contracts/TokenUSDt_flattened.sol\":24854:25035  constructor() ERC20(\"USD Token\", \"USDt\") Ownable(msg.sender) {... */\n  callvalue\n  dup1\n  iszero\n  tag_1\n  jumpi\n  0x00\n  dup1\n  revert\ntag_1:\n  pop\n    /* \"contracts/TokenUSDt_flattened.sol\":24903:24913  msg.sender */\n  caller\n    /* \"contracts/TokenUSDt_flattened.sol\":12452:12565  constructor(string memory name_, string memory symbol_) {... */\n  mload(0x40)\n  dup1\n  0x40\n  add\n  0x40\n  mstore\n  dup1\n  0x09\n  dup2\n  mstore\n  0x20\n  add\n  0x55534420546f6b656e0000000000000000000000000000000000000000000000\n  dup2\n  mstore\n  pop\n  mload(0x40)\n  dup1\n  0x40\n  add\n  0x40\n  mstore\n  dup1\n  0x04\n  dup2\n  mstore\n  0x20\n  add\n  0x5553447400000000000000000000000000000000000000000000000000000000\n  dup2\n  mstore\n  pop\n    /* \"contracts/TokenUSDt_flattened.sol\":12526:12531  name_ */\n  dup2\n    /* \"contracts/TokenUSDt_flattened.sol\":12518:12523  _name */\n  0x03\n    /* \"contracts/TokenUSDt_flattened.sol\":12518:12531  _name = name_ */\n  swap1\n  dup2\n  tag_6\n  swap2\n  swap1\n  tag_7\n  jump\t// in\ntag_6:\n  pop\n    /* \"contracts/TokenUSDt_flattened.sol\":12551:12558  symbol_ */\n  dup1\n    /* \"contracts/TokenUSDt_flattened.sol\":12541:12548  _symbol */\n  0x04\n    /* \"contracts/TokenUSDt_flattened.sol\":12541:12558  _symbol = symbol_ */\n  swap1\n  dup2\n  tag_8\n  swap2\n  swap1\n  tag_7\n  jump\t// in\ntag_8:\n  pop\n    /* \"contracts/TokenUSDt_flattened.sol\":12452:12565  constructor(string memory name_, string memory symbol_) {... */\n  pop\n  pop\n    /* \"contracts/TokenUSDt_flattened.sol\":22942:22943  0 */\n  0x00\n    /* \"contracts/TokenUSDt_flattened.sol\":22918:22944  initialOwner == address(0) */\n  0xffffffffffffffffffffffffffffffffffffffff\n  and\n    /* \"contracts/TokenUSDt_flattened.sol\":22918:22930  initialOwner */\n  dup2\n    /* \"contracts/TokenUSDt_flattened.sol\":22918:22944  initialOwner == address(0) */\n  0xffffffffffffffffffffffffffffffffffffffff\n  and\n  sub\n    /* \"contracts/TokenUSDt_flattened.sol\":22914:23009  if (initialOwner == address(0)) {... */\n  tag_10\n  jumpi\n    /* \"contracts/TokenUSDt_flattened.sol\":22995:22996  0 */\n  0x00\n    /* \"contracts/TokenUSDt_flattened.sol\":22967:22998  OwnableInvalidOwner(address(0)) */\n  mload(0x40)\n  0x1e4fbdf700000000000000000000000000000000000000000000000000000000\n  dup2\n  mstore\n  0x04\n  add\n  tag_11\n  swap2\n  swap1\n  tag_12\n  jump\t// in\ntag_11:\n  mload(0x40)\n  dup1\n  swap2\n  sub\n  swap1\n  revert\n    /* \"contracts/TokenUSDt_flattened.sol\":22914:23009  if (initialOwner == address(0)) {... */\ntag_10:\n    /* \"contracts/TokenUSDt_flattened.sol\":23018:23050  _transferOwnership(initialOwner) */\n  tag_13\n    /* \"contracts/TokenUSDt_flattened.sol\":23037:23049  initialOwner */\n  dup2\n    /* \"contracts/TokenUSDt_flattened.sol\":23018:23036  _transferOwnership */\n  shl(0x20, tag_14)\n    /* \"contracts/TokenUSDt_flattened.sol\":23018:23050  _transferOwnership(initialOwner) */\n  0x20\n  shr\n  jump\t// in\ntag_13:\n    /* \"contracts/TokenUSDt_flattened.sol\":22870:23057  constructor(address initialOwner) {... */\n  pop\n    /* \"contracts/TokenUSDt_flattened.sol\":24992:25028  _mint(msg.sender, 1000000 * 1000000) */\n  tag_16\n    /* \"contracts/TokenUSDt_flattened.sol\":24998:25008  msg.sender */\n  caller\n    /* \"contracts/TokenUSDt_flattened.sol\":25010:25027  1000000 * 1000000 */\n  0xe8d4a51000\n    /* \"contracts/TokenUSDt_flattened.sol\":24992:24997  _mint */\n  shl(0x20, tag_17)\n    /* \"contracts/TokenUSDt_flattened.sol\":24992:25028  _mint(msg.sender, 1000000 * 1000000) */\n  0x20\n  shr\n  jump\t// in\ntag_16:\n    /* \"contracts/TokenUSDt_flattened.sol\":24811:26186  contract USDt is ERC20, Ownable {... */\n  jump(tag_18)\n    /* \"contracts/TokenUSDt_flattened.sol\":24557:24744  function _transferOwnership(address newOwner) internal virtual {... */\ntag_14:\n    /* \"contracts/TokenUSDt_flattened.sol\":24630:24646  address oldOwner */\n  0x00\n    /* \"contracts/TokenUSDt_flattened.sol\":24649:24655  _owner */\n  0x05\n  0x00\n  swap1\n  sload\n  swap1\n  0x0100\n  exp\n  swap1\n  div\n  0xffffffffffffffffffffffffffffffffffffffff\n  and\n    /* \"contracts/TokenUSDt_flattened.sol\":24630:24655  address oldOwner = _owner */\n  swap1\n  pop\n    /* \"contracts/TokenUSDt_flattened.sol\":24674:24682  newOwner */\n  dup2\n    /* \"contracts/TokenUSDt_flattened.sol\":24665:24671  _owner */\n  0x05\n  0x00\n    /* \"contracts/TokenUSDt_flattened.sol\":24665:24682  _owner = newOwner */\n  0x0100\n  exp\n  dup2\n  sload\n  dup2\n  0xffffffffffffffffffffffffffffffffffffffff\n  mul\n  not\n  and\n  swap1\n  dup4\n  0xffffffffffffffffffffffffffffffffffffffff\n  and\n  mul\n  or\n  swap1\n  sstore\n  pop\n    /* \"contracts/TokenUSDt_flattened.sol\":24728:24736  newOwner */\n  dup2\n    /* \"contracts/TokenUSDt_flattened.sol\":24697:24737  OwnershipTransferred(oldOwner, newOwner) */\n  0xffffffffffffffffffffffffffffffffffffffff\n  and\n    /* \"contracts/TokenUSDt_flattened.sol\":24718:24726  oldOwner */\n  dup2\n    /* \"contracts/TokenUSDt_flattened.sol\":24697:24737  OwnershipTransferred(oldOwner, newOwner) */\n  0xffffffffffffffffffffffffffffffffffffffff\n  and\n  0x8be0079c531659141344cd1fd0a4f28419497f9722a3daafe3b4186f6b6457e0\n  mload(0x40)\n  mload(0x40)\n  dup1\n  swap2\n  sub\n  swap1\n  log3\n    /* \"contracts/TokenUSDt_flattened.sol\":24620:24744  {... */\n  pop\n    /* \"contracts/TokenUSDt_flattened.sol\":24557:24744  function _transferOwnership(address newOwner) internal virtual {... */\n  pop\n  jump\t// out\n    /* \"contracts/TokenUSDt_flattened.sol\":18232:18440  function _mint(address account, uint256 value) internal {... */\ntag_17:\n    /* \"contracts/TokenUSDt_flattened.sol\":18321:18322  0 */\n  0x00\n    /* \"contracts/TokenUSDt_flattened.sol\":18302:18323  account == address(0) */\n  0xffffffffffffffffffffffffffffffffffffffff\n  and\n    /* \"contracts/TokenUSDt_flattened.sol\":18302:18309  account */\n  dup3\n    /* \"contracts/TokenUSDt_flattened.sol\":18302:18323  account == address(0) */\n  0xffffffffffffffffffffffffffffffffffffffff\n  and\n  sub\n    /* \"contracts/TokenUSDt_flattened.sol\":18298:18389  if (account == address(0)) {... */\n  tag_21\n  jumpi\n    /* \"contracts/TokenUSDt_flattened.sol\":18375:18376  0 */\n  0x00\n    /* \"contracts/TokenUSDt_flattened.sol\":18346:18378  ERC20InvalidReceiver(address(0)) */\n  mload(0x40)\n  0xec442f0500000000000000000000000000000000000000000000000000000000\n  dup2\n  mstore\n  0x04\n  add\n  tag_22\n  swap2\n  swap1\n  tag_12\n  jump\t// in\ntag_22:\n  mload(0x40)\n  dup1\n  swap2\n  sub\n  swap1\n  revert\n    /* \"contracts/TokenUSDt_flattened.sol\":18298:18389  if (account == address(0)) {... */\ntag_21:\n    /* \"contracts/TokenUSDt_flattened.sol\":18398:18433  _update(address(0), account, value) */\n  tag_23\n    /* \"contracts/TokenUSDt_flattened.sol\":18414:18415  0 */\n  0x00\n    /* \"contracts/TokenUSDt_flattened.sol\":18418:18425  account */\n  dup4\n    /* \"contracts/TokenUSDt_flattened.sol\":18427:18432  value */\n  dup4\n    /* \"contracts/TokenUSDt_flattened.sol\":18398:18405  _update */\n  shl(0x20, tag_24)\n    /* \"contracts/TokenUSDt_flattened.sol\":18398:18433  _update(address(0), account, value) */\n  0x20\n  shr\n  jump\t// in\ntag_23:\n    /* \"contracts/TokenUSDt_flattened.sol\":18232:18440  function _mint(address account, uint256 value) internal {... */\n  pop\n  pop\n  jump\t// out\n    /* \"contracts/TokenUSDt_flattened.sol\":16782:17889  function _update(address from, address to, uint256 value) internal virtual {... */\ntag_24:\n    /* \"contracts/TokenUSDt_flattened.sol\":16887:16888  0 */\n  0x00\n    /* \"contracts/TokenUSDt_flattened.sol\":16871:16889  from == address(0) */\n  0xffffffffffffffffffffffffffffffffffffffff\n  and\n    /* \"contracts/TokenUSDt_flattened.sol\":16871:16875  from */\n  dup4\n    /* \"contracts/TokenUSDt_flattened.sol\":16871:16889  from == address(0) */\n  0xffffffffffffffffffffffffffffffffffffffff\n  and\n  sub\n    /* \"contracts/TokenUSDt_flattened.sol\":16867:17407  if (from == address(0)) {... */\n  tag_26\n  jumpi\n    /* \"contracts/TokenUSDt_flattened.sol\":17023:17028  value */\n  dup1\n    /* \"contracts/TokenUSDt_flattened.sol\":17007:17019  _totalSupply */\n  0x02\n  0x00\n    /* \"contracts/TokenUSDt_flattened.sol\":17007:17028  _totalSupply += value */\n  dup3\n  dup3\n  sload\n  tag_27\n  swap2\n  swap1\n  tag_28\n  jump\t// in\ntag_27:\n  swap3\n  pop\n  pop\n  dup2\n  swap1\n  sstore\n  pop\n    /* \"contracts/TokenUSDt_flattened.sol\":16867:17407  if (from == address(0)) {... */\n  jump(tag_29)\ntag_26:\n    /* \"contracts/TokenUSDt_flattened.sol\":17059:17078  uint256 fromBalance */\n  0x00\n    /* \"contracts/TokenUSDt_flattened.sol\":17081:17090  _balances */\n  dup1\n    /* \"contracts/TokenUSDt_flattened.sol\":17081:17096  _balances[from] */\n  0x00\n    /* \"contracts/TokenUSDt_flattened.sol\":17091:17095  from */\n  dup6\n    /* \"contracts/TokenUSDt_flattened.sol\":17081:17096  _balances[from] */\n  0xffffffffffffffffffffffffffffffffffffffff\n  and\n  0xffffffffffffffffffffffffffffffffffffffff\n  and\n  dup2\n  mstore\n  0x20\n  add\n  swap1\n  dup2\n  mstore\n  0x20\n  add\n  0x00\n  keccak256\n  sload\n    /* \"contracts/TokenUSDt_flattened.sol\":17059:17096  uint256 fromBalance = _balances[from] */\n  swap1\n  pop\n    /* \"contracts/TokenUSDt_flattened.sol\":17128:17133  value */\n  dup2\n    /* \"contracts/TokenUSDt_flattened.sol\":17114:17125  fromBalance */\n  dup2\n    /* \"contracts/TokenUSDt_flattened.sol\":17114:17133  fromBalance < value */\n  lt\n    /* \"contracts/TokenUSDt_flattened.sol\":17110:17225  if (fromBalance < value) {... */\n  iszero\n  tag_30\n  jumpi\n    /* \"contracts/TokenUSDt_flattened.sol\":17185:17189  from */\n  dup4\n    /* \"contracts/TokenUSDt_flattened.sol\":17191:17202  fromBalance */\n  dup2\n    /* \"contracts/TokenUSDt_flattened.sol\":17204:17209  value */\n  dup4\n    /* \"contracts/TokenUSDt_flattened.sol\":17160:17210  ERC20InsufficientBalance(from, fromBalance, value) */\n  mload(0x40)\n  0xe450d38c00000000000000000000000000000000000000000000000000000000\n  dup2\n  mstore\n  0x04\n  add\n  tag_31\n  swap4\n  swap3\n  swap2\n  swap1\n  tag_32\n  jump\t// in\ntag_31:\n  mload(0x40)\n  dup1\n  swap2\n  sub\n  swap1\n  revert\n    /* \"contracts/TokenUSDt_flattened.sol\":17110:17225  if (fromBalance < value) {... */\ntag_30:\n    /* \"contracts/TokenUSDt_flattened.sol\":17377:17382  value */\n  dup2\n    /* \"contracts/TokenUSDt_flattened.sol\":17363:17374  fromBalance */\n  dup2\n    /* \"contracts/TokenUSDt_flattened.sol\":17363:17382  fromBalance - value */\n  sub\n    /* \"contracts/TokenUSDt_flattened.sol\":17345:17354  _balances */\n  0x00\n    /* \"contracts/TokenUSDt_flattened.sol\":17345:17360  _balances[from] */\n  dup1\n    /* \"contracts/TokenUSDt_flattened.sol\":17355:17359  from */\n  dup7\n    /* \"contracts/TokenUSDt_flattened.sol\":17345:17360  _balances[from] */\n  0xffffffffffffffffffffffffffffffffffffffff\n  and\n  0xffffffffffffffffffffffffffffffffffffffff\n  and\n  dup2\n  mstore\n  0x20\n  add\n  swap1\n  dup2\n  mstore\n  0x20\n  add\n  0x00\n  keccak256\n    /* \"contracts/TokenUSDt_flattened.sol\":17345:17382  _balances[from] = fromBalance - value */\n  dup2\n  swap1\n  sstore\n  pop\n    /* \"contracts/TokenUSDt_flattened.sol\":17045:17407  {... */\n  pop\n    /* \"contracts/TokenUSDt_flattened.sol\":16867:17407  if (from == address(0)) {... */\ntag_29:\n    /* \"contracts/TokenUSDt_flattened.sol\":17435:17436  0 */\n  0x00\n    /* \"contracts/TokenUSDt_flattened.sol\":17421:17437  to == address(0) */\n  0xffffffffffffffffffffffffffffffffffffffff\n  and\n    /* \"contracts/TokenUSDt_flattened.sol\":17421:17423  to */\n  dup3\n    /* \"contracts/TokenUSDt_flattened.sol\":17421:17437  to == address(0) */\n  0xffffffffffffffffffffffffffffffffffffffff\n  and\n  sub\n    /* \"contracts/TokenUSDt_flattened.sol\":17417:17842  if (to == address(0)) {... */\n  tag_33\n  jumpi\n    /* \"contracts/TokenUSDt_flattened.sol\":17600:17605  value */\n  dup1\n    /* \"contracts/TokenUSDt_flattened.sol\":17584:17596  _totalSupply */\n  0x02\n  0x00\n    /* \"contracts/TokenUSDt_flattened.sol\":17584:17605  _totalSupply -= value */\n  dup3\n  dup3\n  sload\n  sub\n  swap3\n  pop\n  pop\n  dup2\n  swap1\n  sstore\n  pop\n    /* \"contracts/TokenUSDt_flattened.sol\":17417:17842  if (to == address(0)) {... */\n  jump(tag_34)\ntag_33:\n    /* \"contracts/TokenUSDt_flattened.sol\":17812:17817  value */\n  dup1\n    /* \"contracts/TokenUSDt_flattened.sol\":17795:17804  _balances */\n  0x00\n    /* \"contracts/TokenUSDt_flattened.sol\":17795:17808  _balances[to] */\n  dup1\n    /* \"contracts/TokenUSDt_flattened.sol\":17805:17807  to */\n  dup5\n    /* \"contracts/TokenUSDt_flattened.sol\":17795:17808  _balances[to] */\n  0xffffffffffffffffffffffffffffffffffffffff\n  and\n  0xffffffffffffffffffffffffffffffffffffffff\n  and\n  dup2\n  mstore\n  0x20\n  add\n  swap1\n  dup2\n  mstore\n  0x20\n  add\n  0x00\n  keccak256\n  0x00\n    /* \"contracts/TokenUSDt_flattened.sol\":17795:17817  _balances[to] += value */\n  dup3\n  dup3\n  sload\n  add\n  swap3\n  pop\n  pop\n  dup2\n  swap1\n  sstore\n  pop\n    /* \"contracts/TokenUSDt_flattened.sol\":17417:17842  if (to == address(0)) {... */\ntag_34:\n    /* \"contracts/TokenUSDt_flattened.sol\":17872:17874  to */\n  dup2\n    /* \"contracts/TokenUSDt_flattened.sol\":17857:17882  Transfer(from, to, value) */\n  0xffffffffffffffffffffffffffffffffffffffff\n  and\n    /* \"contracts/TokenUSDt_flattened.sol\":17866:17870  from */\n  dup4\n    /* \"contracts/TokenUSDt_flattened.sol\":17857:17882  Transfer(from, to, value) */\n  0xffffffffffffffffffffffffffffffffffffffff\n  and\n  0xddf252ad1be2c89b69c2b068fc378daa952ba7f163c4a11628f55a4df523b3ef\n    /* \"contracts/TokenUSDt_flattened.sol\":17876:17881  value */\n  dup4\n    /* \"contracts/TokenUSDt_flattened.sol\":17857:17882  Transfer(from, to, value) */\n  mload(0x40)\n  tag_35\n  swap2\n  swap1\n  tag_36\n  jump\t// in\ntag_35:\n  mload(0x40)\n  dup1\n  swap2\n  sub\n  swap1\n  log3\n    /* \"contracts/TokenUSDt_flattened.sol\":16782:17889  function _update(address from, address to, uint256 value) internal virtual {... */\n  pop\n  pop\n  pop\n  jump\t// out\n    /* \"#utility.yul\":7:106   */\ntag_37:\n    /* \"#utility.yul\":59:65   */\n  0x00\n    /* \"#utility.yul\":93:98   */\n  dup2\n    /* \"#utility.yul\":87:99   */\n  mload\n    /* \"#utility.yul\":77:99   */\n  swap1\n  pop\n    /* \"#utility.yul\":7:106   */\n  swap2\n  swap1\n  pop\n  jump\t// out\n    /* \"#utility.yul\":112:292   */\ntag_38:\n    /* \"#utility.yul\":160:237   */\n  0x4e487b7100000000000000000000000000000000000000000000000000000000\n    /* \"#utility.yul\":157:158   */\n  0x00\n    /* \"#utility.yul\":150:238   */\n  mstore\n    /* \"#utility.yul\":257:261   */\n  0x41\n    /* \"#utility.yul\":254:255   */\n  0x04\n    /* \"#utility.yul\":247:262   */\n  mstore\n    /* \"#utility.yul\":281:285   */\n  0x24\n    /* \"#utility.yul\":278:279   */\n  0x00\n    /* \"#utility.yul\":271:286   */\n  revert\n    /* \"#utility.yul\":298:478   */\ntag_39:\n    /* \"#utility.yul\":346:423   */\n  0x4e487b7100000000000000000000000000000000000000000000000000000000\n    /* \"#utility.yul\":343:344   */\n  0x00\n    /* \"#utility.yul\":336:424   */\n  mstore\n    /* \"#utility.yul\":443:447   */\n  0x22\n    /* \"#utility.yul\":440:441   */\n  0x04\n    /* \"#utility.yul\":433:448   */\n  mstore\n    /* \"#utility.yul\":467:471   */\n  0x24\n    /* \"#utility.yul\":464:465   */\n  0x00\n    /* \"#utility.yul\":457:472   */\n  revert\n    /* \"#utility.yul\":484:804   */\ntag_40:\n    /* \"#utility.yul\":528:534   */\n  0x00\n    /* \"#utility.yul\":565:566   */\n  0x02\n    /* \"#utility.yul\":559:563   */\n  dup3\n    /* \"#utility.yul\":555:567   */\n  div\n    /* \"#utility.yul\":545:567   */\n  swap1\n  pop\n    /* \"#utility.yul\":612:613   */\n  0x01\n    /* \"#utility.yul\":606:610   */\n  dup3\n    /* \"#utility.yul\":602:614   */\n  and\n    /* \"#utility.yul\":633:651   */\n  dup1\n    /* \"#utility.yul\":623:704   */\n  tag_67\n  jumpi\n    /* \"#utility.yul\":689:693   */\n  0x7f\n    /* \"#utility.yul\":681:687   */\n  dup3\n    /* \"#utility.yul\":677:694   */\n  and\n    /* \"#utility.yul\":667:694   */\n  swap2\n  pop\n    /* \"#utility.yul\":623:704   */\ntag_67:\n    /* \"#utility.yul\":751:753   */\n  0x20\n    /* \"#utility.yul\":743:749   */\n  dup3\n    /* \"#utility.yul\":740:754   */\n  lt\n    /* \"#utility.yul\":720:738   */\n  dup2\n    /* \"#utility.yul\":717:755   */\n  sub\n    /* \"#utility.yul\":714:798   */\n  tag_68\n  jumpi\n    /* \"#utility.yul\":770:788   */\n  tag_69\n  tag_39\n  jump\t// in\ntag_69:\n    /* \"#utility.yul\":714:798   */\ntag_68:\n    /* \"#utility.yul\":535:804   */\n  pop\n    /* \"#utility.yul\":484:804   */\n  swap2\n  swap1\n  pop\n  jump\t// out\n    /* \"#utility.yul\":810:951   */\ntag_41:\n    /* \"#utility.yul\":859:863   */\n  0x00\n    /* \"#utility.yul\":882:885   */\n  dup2\n    /* \"#utility.yul\":874:885   */\n  swap1\n  pop\n    /* \"#utility.yul\":905:908   */\n  dup2\n    /* \"#utility.yul\":902:903   */\n  0x00\n    /* \"#utility.yul\":895:909   */\n  mstore\n    /* \"#utility.yul\":939:943   */\n  0x20\n    /* \"#utility.yul\":936:937   */\n  0x00\n    /* \"#utility.yul\":926:944   */\n  keccak256\n    /* \"#utility.yul\":918:944   */\n  swap1\n  pop\n    /* \"#utility.yul\":810:951   */\n  swap2\n  swap1\n  pop\n  jump\t// out\n    /* \"#utility.yul\":957:1050   */\ntag_42:\n    /* \"#utility.yul\":994:1000   */\n  0x00\n    /* \"#utility.yul\":1041:1043   */\n  0x20\n    /* \"#utility.yul\":1036:1038   */\n  0x1f\n    /* \"#utility.yul\":1029:1034   */\n  dup4\n    /* \"#utility.yul\":1025:1039   */\n  add\n    /* \"#utility.yul\":1021:1044   */\n  div\n    /* \"#utility.yul\":1011:1044   */\n  swap1\n  pop\n    /* \"#utility.yul\":957:1050   */\n  swap2\n  swap1\n  pop\n  jump\t// out\n    /* \"#utility.yul\":1056:1163   */\ntag_43:\n    /* \"#utility.yul\":1100:1108   */\n  0x00\n    /* \"#utility.yul\":1150:1155   */\n  dup3\n    /* \"#utility.yul\":1144:1148   */\n  dup3\n    /* \"#utility.yul\":1140:1156   */\n  shl\n    /* \"#utility.yul\":1119:1156   */\n  swap1\n  pop\n    /* \"#utility.yul\":1056:1163   */\n  swap3\n  swap2\n  pop\n  pop\n  jump\t// out\n    /* \"#utility.yul\":1169:1562   */\ntag_44:\n    /* \"#utility.yul\":1238:1244   */\n  0x00\n    /* \"#utility.yul\":1288:1289   */\n  0x08\n    /* \"#utility.yul\":1276:1286   */\n  dup4\n    /* \"#utility.yul\":1272:1290   */\n  mul\n    /* \"#utility.yul\":1311:1408   */\n  tag_74\n    /* \"#utility.yul\":1341:1407   */\n  0xffffffffffffffffffffffffffffffffffffffffffffffffffffffffffffffff\n    /* \"#utility.yul\":1330:1339   */\n  dup3\n    /* \"#utility.yul\":1311:1408   */\n  tag_43\n  jump\t// in\ntag_74:\n    /* \"#utility.yul\":1429:1468   */\n  tag_75\n    /* \"#utility.yul\":1459:1467   */\n  dup7\n    /* \"#utility.yul\":1448:1457   */\n  dup4\n    /* \"#utility.yul\":1429:1468   */\n  tag_43\n  jump\t// in\ntag_75:\n    /* \"#utility.yul\":1417:1468   */\n  swap6\n  pop\n    /* \"#utility.yul\":1501:1505   */\n  dup1\n    /* \"#utility.yul\":1497:1506   */\n  not\n    /* \"#utility.yul\":1490:1495   */\n  dup5\n    /* \"#utility.yul\":1486:1507   */\n  and\n    /* \"#utility.yul\":1477:1507   */\n  swap4\n  pop\n    /* \"#utility.yul\":1550:1554   */\n  dup1\n    /* \"#utility.yul\":1540:1548   */\n  dup7\n    /* \"#utility.yul\":1536:1555   */\n  and\n    /* \"#utility.yul\":1529:1534   */\n  dup5\n    /* \"#utility.yul\":1526:1556   */\n  or\n    /* \"#utility.yul\":1516:1556   */\n  swap3\n  pop\n    /* \"#utility.yul\":1245:1562   */\n  pop\n  pop\n    /* \"#utility.yul\":1169:1562   */\n  swap4\n  swap3\n  pop\n  pop\n  pop\n  jump\t// out\n    /* \"#utility.yul\":1568:1645   */\ntag_45:\n    /* \"#utility.yul\":1605:1612   */\n  0x00\n    /* \"#utility.yul\":1634:1639   */\n  dup2\n    /* \"#utility.yul\":1623:1639   */\n  swap1\n  pop\n    /* \"#utility.yul\":1568:1645   */\n  swap2\n  swap1\n  pop\n  jump\t// out\n    /* \"#utility.yul\":1651:1711   */\ntag_46:\n    /* \"#utility.yul\":1679:1682   */\n  0x00\n    /* \"#utility.yul\":1700:1705   */\n  dup2\n    /* \"#utility.yul\":1693:1705   */\n  swap1\n  pop\n    /* \"#utility.yul\":1651:1711   */\n  swap2\n  swap1\n  pop\n  jump\t// out\n    /* \"#utility.yul\":1717:1859   */\ntag_47:\n    /* \"#utility.yul\":1767:1776   */\n  0x00\n    /* \"#utility.yul\":1800:1853   */\n  tag_79\n    /* \"#utility.yul\":1818:1852   */\n  tag_80\n    /* \"#utility.yul\":1827:1851   */\n  tag_81\n    /* \"#utility.yul\":1845:1850   */\n  dup5\n    /* \"#utility.yul\":1827:1851   */\n  tag_45\n  jump\t// in\ntag_81:\n    /* \"#utility.yul\":1818:1852   */\n  tag_46\n  jump\t// in\ntag_80:\n    /* \"#utility.yul\":1800:1853   */\n  tag_45\n  jump\t// in\ntag_79:\n    /* \"#utility.yul\":1787:1853   */\n  swap1\n  pop\n    /* \"#utility.yul\":1717:1859   */\n  swap2\n  swap1\n  pop\n  jump\t// out\n    /* \"#utility.yul\":1865:1940   */\ntag_48:\n    /* \"#utility.yul\":1908:1911   */\n  0x00\n    /* \"#utility.yul\":1929:1934   */\n  dup2\n    /* \"#utility.yul\":1922:1934   */\n  swap1\n  pop\n    /* \"#utility.yul\":1865:1940   */\n  swap2\n  swap1\n  pop\n  jump\t// out\n    /* \"#utility.yul\":1946:2215   */\ntag_49:\n    /* \"#utility.yul\":2056:2095   */\n  tag_84\n    /* \"#utility.yul\":2087:2094   */\n  dup4\n    /* \"#utility.yul\":2056:2095   */\n  tag_47\n  jump\t// in\ntag_84:\n    /* \"#utility.yul\":2117:2208   */\n  tag_85\n    /* \"#utility.yul\":2166:2207   */\n  tag_86\n    /* \"#utility.yul\":2190:2206   */\n  dup3\n    /* \"#utility.yul\":2166:2207   */\n  tag_48\n  jump\t// in\ntag_86:\n    /* \"#utility.yul\":2158:2164   */\n  dup5\n    /* \"#utility.yul\":2151:2155   */\n  dup5\n    /* \"#utility.yul\":2145:2156   */\n  sload\n    /* \"#utility.yul\":2117:2208   */\n  tag_44\n  jump\t// in\ntag_85:\n    /* \"#utility.yul\":2111:2115   */\n  dup3\n    /* \"#utility.yul\":2104:2209   */\n  sstore\n    /* \"#utility.yul\":2022:2215   */\n  pop\n    /* \"#utility.yul\":1946:2215   */\n  pop\n  pop\n  pop\n  jump\t// out\n    /* \"#utility.yul\":2221:2294   */\ntag_50:\n    /* \"#utility.yul\":2266:2269   */\n  0x00\n    /* \"#utility.yul\":2221:2294   */\n  swap1\n  jump\t// out\n    /* \"#utility.yul\":2300:2489   */\ntag_51:\n    /* \"#utility.yul\":2377:2409   */\n  tag_89\n  tag_50\n  jump\t// in\ntag_89:\n    /* \"#utility.yul\":2418:2483   */\n  tag_90\n    /* \"#utility.yul\":2476:2482   */\n  dup2\n    /* \"#utility.yul\":2468:2474   */\n  dup5\n    /* \"#utility.yul\":2462:2466   */\n  dup5\n    /* \"#utility.yul\":2418:2483   */\n  tag_49\n  jump\t// in\ntag_90:\n    /* \"#utility.yul\":2353:2489   */\n  pop\n    /* \"#utility.yul\":2300:2489   */\n  pop\n  pop\n  jump\t// out\n    /* \"#utility.yul\":2495:2681   */\ntag_52:\n    /* \"#utility.yul\":2555:2675   */\ntag_92:\n    /* \"#utility.yul\":2572:2575   */\n  dup2\n    /* \"#utility.yul\":2565:2570   */\n  dup2\n    /* \"#utility.yul\":2562:2576   */\n  lt\n    /* \"#utility.yul\":2555:2675   */\n  iszero\n  tag_94\n  jumpi\n    /* \"#utility.yul\":2626:2665   */\n  tag_95\n    /* \"#utility.yul\":2663:2664   */\n  0x00\n    /* \"#utility.yul\":2656:2661   */\n  dup3\n    /* \"#utility.yul\":2626:2665   */\n  tag_51\n  jump\t// in\ntag_95:\n    /* \"#utility.yul\":2599:2600   */\n  0x01\n    /* \"#utility.yul\":2592:2597   */\n  dup2\n    /* \"#utility.yul\":2588:2601   */\n  add\n    /* \"#utility.yul\":2579:2601   */\n  swap1\n  pop\n    /* \"#utility.yul\":2555:2675   */\n  jump(tag_92)\ntag_94:\n    /* \"#utility.yul\":2495:2681   */\n  pop\n  pop\n  jump\t// out\n    /* \"#utility.yul\":2687:3230   */\ntag_53:\n    /* \"#utility.yul\":2788:2790   */\n  0x1f\n    /* \"#utility.yul\":2783:2786   */\n  dup3\n    /* \"#utility.yul\":2780:2791   */\n  gt\n    /* \"#utility.yul\":2777:3223   */\n  iszero\n  tag_97\n  jumpi\n    /* \"#utility.yul\":2822:2860   */\n  tag_98\n    /* \"#utility.yul\":2854:2859   */\n  dup2\n    /* \"#utility.yul\":2822:2860   */\n  tag_41\n  jump\t// in\ntag_98:\n    /* \"#utility.yul\":2906:2935   */\n  tag_99\n    /* \"#utility.yul\":2924:2934   */\n  dup5\n    /* \"#utility.yul\":2906:2935   */\n  tag_42\n  jump\t// in\ntag_99:\n    /* \"#utility.yul\":2896:2904   */\n  dup2\n    /* \"#utility.yul\":2892:2936   */\n  add\n    /* \"#utility.yul\":3089:3091   */\n  0x20\n    /* \"#utility.yul\":3077:3087   */\n  dup6\n    /* \"#utility.yul\":3074:3092   */\n  lt\n    /* \"#utility.yul\":3071:3120   */\n  iszero\n  tag_100\n  jumpi\n    /* \"#utility.yul\":3110:3118   */\n  dup2\n    /* \"#utility.yul\":3095:3118   */\n  swap1\n  pop\n    /* \"#utility.yul\":3071:3120   */\ntag_100:\n    /* \"#utility.yul\":3133:3213   */\n  tag_101\n    /* \"#utility.yul\":3189:3211   */\n  tag_102\n    /* \"#utility.yul\":3207:3210   */\n  dup6\n    /* \"#utility.yul\":3189:3211   */\n  tag_42\n  jump\t// in\ntag_102:\n    /* \"#utility.yul\":3179:3187   */\n  dup4\n    /* \"#utility.yul\":3175:3212   */\n  add\n    /* \"#utility.yul\":3162:3173   */\n  dup3\n    /* \"#utility.yul\":3133:3213   */\n  tag_52\n  jump\t// in\ntag_101:\n    /* \"#utility.yul\":2792:3223   */\n  pop\n  pop\n    /* \"#utility.yul\":2777:3223   */\ntag_97:\n    /* \"#utility.yul\":2687:3230   */\n  pop\n  pop\n  pop\n  jump\t// out\n    /* \"#utility.yul\":3236:3353   */\ntag_54:\n    /* \"#utility.yul\":3290:3298   */\n  0x00\n    /* \"#utility.yul\":3340:3345   */\n  dup3\n    /* \"#utility.yul\":3334:3338   */\n  dup3\n    /* \"#utility.yul\":3330:3346   */\n  shr\n    /* \"#utility.yul\":3309:3346   */\n  swap1\n  pop\n    /* \"#utility.yul\":3236:3353   */\n  swap3\n  swap2\n  pop\n  pop\n  jump\t// out\n    /* \"#utility.yul\":3359:3528   */\ntag_55:\n    /* \"#utility.yul\":3403:3409   */\n  0x00\n    /* \"#utility.yul\":3436:3487   */\n  tag_105\n    /* \"#utility.yul\":3484:3485   */\n  0x00\n    /* \"#utility.yul\":3480:3486   */\n  not\n    /* \"#utility.yul\":3472:3477   */\n  dup5\n    /* \"#utility.yul\":3469:3470   */\n  0x08\n    /* \"#utility.yul\":3465:3478   */\n  mul\n    /* \"#utility.yul\":3436:3487   */\n  tag_54\n  jump\t// in\ntag_105:\n    /* \"#utility.yul\":3432:3488   */\n  not\n    /* \"#utility.yul\":3517:3521   */\n  dup1\n    /* \"#utility.yul\":3511:3515   */\n  dup4\n    /* \"#utility.yul\":3507:3522   */\n  and\n    /* \"#utility.yul\":3497:3522   */\n  swap2\n  pop\n    /* \"#utility.yul\":3410:3528   */\n  pop\n    /* \"#utility.yul\":3359:3528   */\n  swap3\n  swap2\n  pop\n  pop\n  jump\t// out\n    /* \"#utility.yul\":3533:3828   */\ntag_56:\n    /* \"#utility.yul\":3609:3613   */\n  0x00\n    /* \"#utility.yul\":3755:3784   */\n  tag_107\n    /* \"#utility.yul\":3780:3783   */\n  dup4\n    /* \"#utility.yul\":3774:3778   */\n  dup4\n    /* \"#utility.yul\":3755:3784   */\n  tag_55\n  jump\t// in\ntag_107:\n    /* \"#utility.yul\":3747:3784   */\n  swap2\n  pop\n    /* \"#utility.yul\":3817:3820   */\n  dup3\n    /* \"#utility.yul\":3814:3815   */\n  0x02\n    /* \"#utility.yul\":3810:3821   */\n  mul\n    /* \"#utility.yul\":3804:3808   */\n  dup3\n    /* \"#utility.yul\":3801:3822   */\n  or\n    /* \"#utility.yul\":3793:3822   */\n  swap1\n  pop\n    /* \"#utility.yul\":3533:3828   */\n  swap3\n  swap2\n  pop\n  pop\n  jump\t// out\n    /* \"#utility.yul\":3833:5228   */\ntag_7:\n    /* \"#utility.yul\":3950:3987   */\n  tag_109\n    /* \"#utility.yul\":3983:3986   */\n  dup3\n    /* \"#utility.yul\":3950:3987   */\n  tag_37\n  jump\t// in\ntag_109:\n    /* \"#utility.yul\":4052:4070   */\n  0xffffffffffffffff\n    /* \"#utility.yul\":4044:4050   */\n  dup2\n    /* \"#utility.yul\":4041:4071   */\n  gt\n    /* \"#utility.yul\":4038:4094   */\n  iszero\n  tag_110\n  jumpi\n    /* \"#utility.yul\":4074:4092   */\n  tag_111\n  tag_38\n  jump\t// in\ntag_111:\n    /* \"#utility.yul\":4038:4094   */\ntag_110:\n    /* \"#utility.yul\":4118:4156   */\n  tag_112\n    /* \"#utility.yul\":4150:4154   */\n  dup3\n    /* \"#utility.yul\":4144:4155   */\n  sload\n    /* \"#utility.yul\":4118:4156   */\n  tag_40\n  jump\t// in\ntag_112:\n    /* \"#utility.yul\":4203:4270   */\n  tag_113\n    /* \"#utility.yul\":4263:4269   */\n  dup3\n    /* \"#utility.yul\":4255:4261   */\n  dup3\n    /* \"#utility.yul\":4249:4253   */\n  dup6\n    /* \"#utility.yul\":4203:4270   */\n  tag_53\n  jump\t// in\ntag_113:\n    /* \"#utility.yul\":4297:4298   */\n  0x00\n    /* \"#utility.yul\":4321:4325   */\n  0x20\n    /* \"#utility.yul\":4308:4325   */\n  swap1\n  pop\n    /* \"#utility.yul\":4353:4355   */\n  0x1f\n    /* \"#utility.yul\":4345:4351   */\n  dup4\n    /* \"#utility.yul\":4342:4356   */\n  gt\n    /* \"#utility.yul\":4370:4371   */\n  0x01\n    /* \"#utility.yul\":4365:4983   */\n  dup2\n  eq\n  tag_115\n  jumpi\n    /* \"#utility.yul\":5027:5028   */\n  0x00\n    /* \"#utility.yul\":5044:5050   */\n  dup5\n    /* \"#utility.yul\":5041:5118   */\n  iszero\n  tag_116\n  jumpi\n    /* \"#utility.yul\":5093:5102   */\n  dup3\n    /* \"#utility.yul\":5088:5091   */\n  dup8\n    /* \"#utility.yul\":5084:5103   */\n  add\n    /* \"#utility.yul\":5078:5104   */\n  mload\n    /* \"#utility.yul\":5069:5104   */\n  swap1\n  pop\n    /* \"#utility.yul\":5041:5118   */\ntag_116:\n    /* \"#utility.yul\":5144:5211   */\n  tag_117\n    /* \"#utility.yul\":5204:5210   */\n  dup6\n    /* \"#utility.yul\":5197:5202   */\n  dup3\n    /* \"#utility.yul\":5144:5211   */\n  tag_56\n  jump\t// in\ntag_117:\n    /* \"#utility.yul\":5138:5142   */\n  dup7\n    /* \"#utility.yul\":5131:5212   */\n  sstore\n    /* \"#utility.yul\":5000:5222   */\n  pop\n    /* \"#utility.yul\":4335:5222   */\n  jump(tag_114)\n    /* \"#utility.yul\":4365:4983   */\ntag_115:\n    /* \"#utility.yul\":4417:4421   */\n  0x1f\n    /* \"#utility.yul\":4413:4422   */\n  not\n    /* \"#utility.yul\":4405:4411   */\n  dup5\n    /* \"#utility.yul\":4401:4423   */\n  and\n    /* \"#utility.yul\":4451:4488   */\n  tag_118\n    /* \"#utility.yul\":4483:4487   */\n  dup7\n    /* \"#utility.yul\":4451:4488   */\n  tag_41\n  jump\t// in\ntag_118:\n    /* \"#utility.yul\":4510:4511   */\n  0x00\n    /* \"#utility.yul\":4524:4732   */\ntag_119:\n    /* \"#utility.yul\":4538:4545   */\n  dup3\n    /* \"#utility.yul\":4535:4536   */\n  dup2\n    /* \"#utility.yul\":4532:4546   */\n  lt\n    /* \"#utility.yul\":4524:4732   */\n  iszero\n  tag_121\n  jumpi\n    /* \"#utility.yul\":4617:4626   */\n  dup5\n    /* \"#utility.yul\":4612:4615   */\n  dup10\n    /* \"#utility.yul\":4608:4627   */\n  add\n    /* \"#utility.yul\":4602:4628   */\n  mload\n    /* \"#utility.yul\":4594:4600   */\n  dup3\n    /* \"#utility.yul\":4587:4629   */\n  sstore\n    /* \"#utility.yul\":4668:4669   */\n  0x01\n    /* \"#utility.yul\":4660:4666   */\n  dup3\n    /* \"#utility.yul\":4656:4670   */\n  add\n    /* \"#utility.yul\":4646:4670   */\n  swap2\n  pop\n    /* \"#utility.yul\":4715:4717   */\n  0x20\n    /* \"#utility.yul\":4704:4713   */\n  dup6\n    /* \"#utility.yul\":4700:4718   */\n  add\n    /* \"#utility.yul\":4687:4718   */\n  swap5\n  pop\n    /* \"#utility.yul\":4561:4565   */\n  0x20\n    /* \"#utility.yul\":4558:4559   */\n  dup2\n    /* \"#utility.yul\":4554:4566   */\n  add\n    /* \"#utility.yul\":4549:4566   */\n  swap1\n  pop\n    /* \"#utility.yul\":4524:4732   */\n  jump(tag_119)\ntag_121:\n    /* \"#utility.yul\":4760:4766   */\n  dup7\n    /* \"#utility.yul\":4751:4758   */\n  dup4\n    /* \"#utility.yul\":4748:4767   */\n  lt\n    /* \"#utility.yul\":4745:4924   */\n  iszero\n  tag_122\n  jumpi\n    /* \"#utility.yul\":4818:4827   */\n  dup5\n    /* \"#utility.yul\":4813:4816   */\n  dup10\n    /* \"#utility.yul\":4809:4828   */\n  add\n    /* \"#utility.yul\":4803:4829   */\n  mload\n    /* \"#utility.yul\":4861:4909   */\n  tag_123\n    /* \"#utility.yul\":4903:4907   */\n  0x1f\n    /* \"#utility.yul\":4895:4901   */\n  dup10\n    /* \"#utility.yul\":4891:4908   */\n  and\n    /* \"#utility.yul\":4880:4889   */\n  dup3\n    /* \"#utility.yul\":4861:4909   */\n  tag_55\n  jump\t// in\ntag_123:\n    /* \"#utility.yul\":4853:4859   */\n  dup4\n    /* \"#utility.yul\":4846:4910   */\n  sstore\n    /* \"#utility.yul\":4768:4924   */\n  pop\n    /* \"#utility.yul\":4745:4924   */\ntag_122:\n    /* \"#utility.yul\":4970:4971   */\n  0x01\n    /* \"#utility.yul\":4966:4967   */\n  0x02\n    /* \"#utility.yul\":4958:4964   */\n  dup9\n    /* \"#utility.yul\":4954:4968   */\n  mul\n    /* \"#utility.yul\":4950:4972   */\n  add\n    /* \"#utility.yul\":4944:4948   */\n  dup9\n    /* \"#utility.yul\":4937:4973   */\n  sstore\n    /* \"#utility.yul\":4372:4983   */\n  pop\n  pop\n  pop\n    /* \"#utility.yul\":4335:5222   */\ntag_114:\n  pop\n    /* \"#utility.yul\":3925:5228   */\n  pop\n  pop\n  pop\n    /* \"#utility.yul\":3833:5228   */\n  pop\n  pop\n  jump\t// out\n    /* \"#utility.yul\":5234:5360   */\ntag_57:\n    /* \"#utility.yul\":5271:5278   */\n  0x00\n    /* \"#utility.yul\":5311:5353   */\n  0xffffffffffffffffffffffffffffffffffffffff\n    /* \"#utility.yul\":5304:5309   */\n  dup3\n    /* \"#utility.yul\":5300:5354   */\n  and\n    /* \"#utility.yul\":5289:5354   */\n  swap1\n  pop\n    /* \"#utility.yul\":5234:5360   */\n  swap2\n  swap1\n  pop\n  jump\t// out\n    /* \"#utility.yul\":5366:5462   */\ntag_58:\n    /* \"#utility.yul\":5403:5410   */\n  0x00\n    /* \"#utility.yul\":5432:5456   */\n  tag_126\n    /* \"#utility.yul\":5450:5455   */\n  dup3\n    /* \"#utility.yul\":5432:5456   */\n  tag_57\n  jump\t// in\ntag_126:\n    /* \"#utility.yul\":5421:5456   */\n  swap1\n  pop\n    /* \"#utility.yul\":5366:5462   */\n  swap2\n  swap1\n  pop\n  jump\t// out\n    /* \"#utility.yul\":5468:5586   */\ntag_59:\n    /* \"#utility.yul\":5555:5579   */\n  tag_128\n    /* \"#utility.yul\":5573:5578   */\n  dup2\n    /* \"#utility.yul\":5555:5579   */\n  tag_58\n  jump\t// in\ntag_128:\n    /* \"#utility.yul\":5550:5553   */\n  dup3\n    /* \"#utility.yul\":5543:5580   */\n  mstore\n    /* \"#utility.yul\":5468:5586   */\n  pop\n  pop\n  jump\t// out\n    /* \"#utility.yul\":5592:5814   */\ntag_12:\n    /* \"#utility.yul\":5685:5689   */\n  0x00\n    /* \"#utility.yul\":5723:5725   */\n  0x20\n    /* \"#utility.yul\":5712:5721   */\n  dup3\n    /* \"#utility.yul\":5708:5726   */\n  add\n    /* \"#utility.yul\":5700:5726   */\n  swap1\n  pop\n    /* \"#utility.yul\":5736:5807   */\n  tag_130\n    /* \"#utility.yul\":5804:5805   */\n  0x00\n    /* \"#utility.yul\":5793:5802   */\n  dup4\n    /* \"#utility.yul\":5789:5806   */\n  add\n    /* \"#utility.yul\":5780:5786   */\n  dup5\n    /* \"#utility.yul\":5736:5807   */\n  tag_59\n  jump\t// in\ntag_130:\n    /* \"#utility.yul\":5592:5814   */\n  swap3\n  swap2\n  pop\n  pop\n  jump\t// out\n    /* \"#utility.yul\":5820:6000   */\ntag_60:\n    /* \"#utility.yul\":5868:5945   */\n  0x4e487b7100000000000000000000000000000000000000000000000000000000\n    /* \"#utility.yul\":5865:5866   */\n  0x00\n    /* \"#utility.yul\":5858:5946   */\n  mstore\n    /* \"#utility.yul\":5965:5969   */\n  0x11\n    /* \"#utility.yul\":5962:5963   */\n  0x04\n    /* \"#utility.yul\":5955:5970   */\n  mstore\n    /* \"#utility.yul\":5989:5993   */\n  0x24\n    /* \"#utility.yul\":5986:5987   */\n  0x00\n    /* \"#utility.yul\":5979:5994   */\n  revert\n    /* \"#utility.yul\":6006:6197   */\ntag_28:\n    /* \"#utility.yul\":6046:6049   */\n  0x00\n    /* \"#utility.yul\":6065:6085   */\n  tag_133\n    /* \"#utility.yul\":6083:6084   */\n  dup3\n    /* \"#utility.yul\":6065:6085   */\n  tag_45\n  jump\t// in\ntag_133:\n    /* \"#utility.yul\":6060:6085   */\n  swap2\n  pop\n    /* \"#utility.yul\":6099:6119   */\n  tag_134\n    /* \"#utility.yul\":6117:6118   */\n  dup4\n    /* \"#utility.yul\":6099:6119   */\n  tag_45\n  jump\t// in\ntag_134:\n    /* \"#utility.yul\":6094:6119   */\n  swap3\n  pop\n    /* \"#utility.yul\":6142:6143   */\n  dup3\n    /* \"#utility.yul\":6139:6140   */\n  dup3\n    /* \"#utility.yul\":6135:6144   */\n  add\n    /* \"#utility.yul\":6128:6144   */\n  swap1\n  pop\n    /* \"#utility.yul\":6163:6166   */\n  dup1\n    /* \"#utility.yul\":6160:6161   */\n  dup3\n    /* \"#utility.yul\":6157:6167   */\n  gt\n    /* \"#utility.yul\":6154:6190   */\n  iszero\n  tag_135\n  jumpi\n    /* \"#utility.yul\":6170:6188   */\n  tag_136\n  tag_60\n  jump\t// in\ntag_136:\n    /* \"#utility.yul\":6154:6190   */\ntag_135:\n    /* \"#utility.yul\":6006:6197   */\n  swap3\n  swap2\n  pop\n  pop\n  jump\t// out\n    /* \"#utility.yul\":6203:6321   */\ntag_61:\n    /* \"#utility.yul\":6290:6314   */\n  tag_138\n    /* \"#utility.yul\":6308:6313   */\n  dup2\n    /* \"#utility.yul\":6290:6314   */\n  tag_45\n  jump\t// in\ntag_138:\n    /* \"#utility.yul\":6285:6288   */\n  dup3\n    /* \"#utility.yul\":6278:6315   */\n  mstore\n    /* \"#utility.yul\":6203:6321   */\n  pop\n  pop\n  jump\t// out\n    /* \"#utility.yul\":6327:6769   */\ntag_32:\n    /* \"#utility.yul\":6476:6480   */\n  0x00\n    /* \"#utility.yul\":6514:6516   */\n  0x60\n    /* \"#utility.yul\":6503:6512   */\n  dup3\n    /* \"#utility.yul\":6499:6517   */\n  add\n    /* \"#utility.yul\":6491:6517   */\n  swap1\n  pop\n    /* \"#utility.yul\":6527:6598   */\n  tag_140\n    /* \"#utility.yul\":6595:6596   */\n  0x00\n    /* \"#utility.yul\":6584:6593   */\n  dup4\n    /* \"#utility.yul\":6580:6597   */\n  add\n    /* \"#utility.yul\":6571:6577   */\n  dup7\n    /* \"#utility.yul\":6527:6598   */\n  tag_59\n  jump\t// in\ntag_140:\n    /* \"#utility.yul\":6608:6680   */\n  tag_141\n    /* \"#utility.yul\":6676:6678   */\n  0x20\n    /* \"#utility.yul\":6665:6674   */\n  dup4\n    /* \"#utility.yul\":6661:6679   */\n  add\n    /* \"#utility.yul\":6652:6658   */\n  dup6\n    /* \"#utility.yul\":6608:6680   */\n  tag_61\n  jump\t// in\ntag_141:\n    /* \"#utility.yul\":6690:6762   */\n  tag_142\n    /* \"#utility.yul\":6758:6760   */\n  0x40\n    /* \"#utility.yul\":6747:6756   */\n  dup4\n    /* \"#utility.yul\":6743:6761   */\n  add\n    /* \"#utility.yul\":6734:6740   */\n  dup5\n    /* \"#utility.yul\":6690:6762   */\n  tag_61\n  jump\t// in\ntag_142:\n    /* \"#utility.yul\":6327:6769   */\n  swap5\n  swap4\n  pop\n  pop\n  pop\n  pop\n  jump\t// out\n    /* \"#utility.yul\":6775:6997   */\ntag_36:\n    /* \"#utility.yul\":6868:6872   */\n  0x00\n    /* \"#utility.yul\":6906:6908   */\n  0x20\n    /* \"#utility.yul\":6895:6904   */\n  dup3\n    /* \"#utility.yul\":6891:6909   */\n  add\n    /* \"#utility.yul\":6883:6909   */\n  swap1\n  pop\n    /* \"#utility.yul\":6919:6990   */\n  tag_144\n    /* \"#utility.yul\":6987:6988   */\n  0x00\n    /* \"#utility.yul\":6976:6985   */\n  dup4\n    /* \"#utility.yul\":6972:6989   */\n  add\n    /* \"#utility.yul\":6963:6969   */\n  dup5\n    /* \"#utility.yul\":6919:6990   */\n  tag_61\n  jump\t// in\ntag_144:\n    /* \"#utility.yul\":6775:6997   */\n  swap3\n  swap2\n  pop\n  pop\n  jump\t// out\n    /* \"contracts/TokenUSDt_flattened.sol\":24811:26186  contract USDt is ERC20, Ownable {... */\ntag_18:\n  dataSize(sub_0)\n  dup1\n  dataOffset(sub_0)\n  0x00\n  codecopy\n  0x00\n  return\nstop\n\nsub_0: assembly {\n        /* \"contracts/TokenUSDt_flattened.sol\":24811:26186  contract USDt is ERC20, Ownable {... */\n      mstore(0x40, 0x80)\n      callvalue\n      dup1\n      iszero\n      tag_1\n      jumpi\n      0x00\n      dup1\n      revert\n    tag_1:\n      pop\n      jumpi(tag_2, lt(calldatasize, 0x04))\n      shr(0xe0, calldataload(0x00))\n      dup1\n      0x7dc6e927\n      gt\n      tag_21\n      jumpi\n      dup1\n      0x9dc29fac\n      gt\n      tag_22\n      jumpi\n      dup1\n      0x9dc29fac\n      eq\n      tag_16\n      jumpi\n      dup1\n      0xa9059cbb\n      eq\n      tag_17\n      jumpi\n      dup1\n      0xdd0be52d\n      eq\n      tag_18\n      jumpi\n      dup1\n      0xdd62ed3e\n      eq\n      tag_19\n      jumpi\n      dup1\n      0xf2fde38b\n      eq\n      tag_20\n      jumpi\n      jump(tag_2)\n    tag_22:\n      dup1\n      0x7dc6e927\n      eq\n      tag_12\n      jumpi\n      dup1\n      0x828a295f\n      eq\n      tag_13\n      jumpi\n      dup1\n      0x8da5cb5b\n      eq\n      tag_14\n      jumpi\n      dup1\n      0x95d89b41\n      eq\n      tag_15\n      jumpi\n      jump(tag_2)\n    tag_21:\n      dup1\n      0x23b872dd\n      gt\n      tag_23\n      jumpi\n      dup1\n      0x23b872dd\n      eq\n      tag_7\n      jumpi\n      dup1\n      0x313ce567\n      eq\n      tag_8\n      jumpi\n      dup1\n      0x40c10f19\n      eq\n      tag_9\n      jumpi\n      dup1\n      0x70a08231\n      eq\n      tag_10\n      jumpi\n      dup1\n      0x715018a6\n      eq\n      tag_11\n      jumpi\n      jump(tag_2)\n    tag_23:\n      dup1\n      0x06fdde03\n      eq\n      tag_3\n      jumpi\n      dup1\n      0x095ea7b3\n      eq\n      tag_4\n      jumpi\n      dup1\n      0x18160ddd\n      eq\n      tag_5\n      jumpi\n      dup1\n      0x21ce7719\n      eq\n      tag_6\n      jumpi\n    tag_2:\n      0x00\n      dup1\n      revert\n        /* \"contracts/TokenUSDt_flattened.sol\":12630:12719  function name() public view virtual returns (string memory) {... */\n    tag_3:\n      tag_24\n      tag_25\n      jump\t// in\n    tag_24:\n      mload(0x40)\n      tag_26\n      swap2\n      swap1\n      tag_27\n      jump\t// in\n    tag_26:\n      mload(0x40)\n      dup1\n      swap2\n      sub\n      swap1\n      return\n        /* \"contracts/TokenUSDt_flattened.sol\":14772:14958  function approve(address spender, uint256 value) public virtual returns (bool) {... */\n    tag_4:\n      tag_28\n      0x04\n      dup1\n      calldatasize\n      sub\n      dup2\n      add\n      swap1\n      tag_29\n      swap2\n      swap1\n      tag_30\n      jump\t// in\n    tag_29:\n      tag_31\n      jump\t// in\n    tag_28:\n      mload(0x40)\n      tag_32\n      swap2\n      swap1\n      tag_33\n      jump\t// in\n    tag_32:\n      mload(0x40)\n      dup1\n      swap2\n      sub\n      swap1\n      return\n        /* \"contracts/TokenUSDt_flattened.sol\":13673:13770  function totalSupply() public view virtual returns (uint256) {... */\n    tag_5:\n      tag_34\n      tag_35\n      jump\t// in\n    tag_34:\n      mload(0x40)\n      tag_36\n      swap2\n      swap1\n      tag_37\n      jump\t// in\n    tag_36:\n      mload(0x40)\n      dup1\n      swap2\n      sub\n      swap1\n      return\n        /* \"contracts/TokenUSDt_flattened.sol\":26079:26184  function totalSupplyUSD() external view returns (uint256) {... */\n    tag_6:\n      tag_38\n      tag_39\n      jump\t// in\n    tag_38:\n      mload(0x40)\n      tag_40\n      swap2\n      swap1\n      tag_37\n      jump\t// in\n    tag_40:\n      mload(0x40)\n      dup1\n      swap2\n      sub\n      swap1\n      return\n        /* \"contracts/TokenUSDt_flattened.sol\":15550:15794  function transferFrom(address from, address to, uint256 value) public virtual returns (bool) {... */\n    tag_7:\n      tag_41\n      0x04\n      dup1\n      calldatasize\n      sub\n      dup2\n      add\n      swap1\n      tag_42\n      swap2\n      swap1\n      tag_43\n      jump\t// in\n    tag_42:\n      tag_44\n      jump\t// in\n    tag_41:\n      mload(0x40)\n      tag_45\n      swap2\n      swap1\n      tag_33\n      jump\t// in\n    tag_45:\n      mload(0x40)\n      dup1\n      swap2\n      sub\n      swap1\n      return\n        /* \"contracts/TokenUSDt_flattened.sol\":25091:25173  function decimals() public pure override returns (uint8) {... */\n    tag_8:\n      tag_46\n      tag_47\n      jump\t// in\n    tag_46:\n      mload(0x40)\n      tag_48\n      swap2\n      swap1\n      tag_49\n      jump\t// in\n    tag_48:\n      mload(0x40)\n      dup1\n      swap2\n      sub\n      swap1\n      return\n        /* \"contracts/TokenUSDt_flattened.sol\":25226:25343  function mint(address to, uint256 dollarAmount) external onlyOwner {... */\n    tag_9:\n      tag_50\n      0x04\n      dup1\n      calldatasize\n      sub\n      dup2\n      add\n      swap1\n      tag_51\n      swap2\n      swap1\n      tag_30\n      jump\t// in\n    tag_51:\n      tag_52\n      jump\t// in\n    tag_50:\n      stop\n        /* \"contracts/TokenUSDt_flattened.sol\":13803:13919  function balanceOf(address account) public view virtual returns (uint256) {... */\n    tag_10:\n      tag_53\n      0x04\n      dup1\n      calldatasize\n      sub\n      dup2\n      add\n      swap1\n      tag_54\n      swap2\n      swap1\n      tag_55\n      jump\t// in\n    tag_54:\n      tag_56\n      jump\t// in\n    tag_53:\n      mload(0x40)\n      tag_57\n      swap2\n      swap1\n      tag_37\n      jump\t// in\n    tag_57:\n      mload(0x40)\n      dup1\n      swap2\n      sub\n      swap1\n      return\n        /* \"contracts/TokenUSDt_flattened.sol\":23938:24039  function renounceOwnership() public virtual onlyOwner {... */\n    tag_11:\n      tag_58\n      tag_59\n      jump\t// in\n    tag_58:\n      stop\n        /* \"contracts/TokenUSDt_flattened.sol\":25709:25856  function approveUSD(address spender, uint256 dollarAmount) external returns (bool) {... */\n    tag_12:\n      tag_60\n      0x04\n      dup1\n      calldatasize\n      sub\n      dup2\n      add\n      swap1\n      tag_61\n      swap2\n      swap1\n      tag_30\n      jump\t// in\n    tag_61:\n      tag_62\n      jump\t// in\n    tag_60:\n      mload(0x40)\n      tag_63\n      swap2\n      swap1\n      tag_33\n      jump\t// in\n    tag_63:\n      mload(0x40)\n      dup1\n      swap2\n      sub\n      swap1\n      return\n        /* \"contracts/TokenUSDt_flattened.sol\":25910:26031  function balanceUSD(address account) external view returns (uint256) {... */\n    tag_13:\n      tag_64\n      0x04\n      dup1\n      calldatasize\n      sub\n      dup2\n      add\n      swap1\n      tag_65\n      swap2\n      swap1\n      tag_55\n      jump\t// in\n    tag_65:\n      tag_66\n      jump\t// in\n    tag_64:\n      mload(0x40)\n      tag_67\n      swap2\n      swap1\n      tag_37\n      jump\t// in\n    tag_67:\n      mload(0x40)\n      dup1\n      swap2\n      sub\n      swap1\n      return\n        /* \"contracts/TokenUSDt_flattened.sol\":23283:23368  function owner() public view virtual returns (address) {... */\n    tag_14:\n      tag_68\n      tag_69\n      jump\t// in\n    tag_68:\n      mload(0x40)\n      tag_70\n      swap2\n      swap1\n      tag_71\n      jump\t// in\n    tag_70:\n      mload(0x40)\n      dup1\n      swap2\n      sub\n      swap1\n      return\n        /* \"contracts/TokenUSDt_flattened.sol\":12832:12925  function symbol() public view virtual returns (string memory) {... */\n    tag_15:\n      tag_72\n      tag_73\n      jump\t// in\n    tag_72:\n      mload(0x40)\n      tag_74\n      swap2\n      swap1\n      tag_27\n      jump\t// in\n    tag_74:\n      mload(0x40)\n      dup1\n      swap2\n      sub\n      swap1\n      return\n        /* \"contracts/TokenUSDt_flattened.sol\":25372:25471  function burn(address from, uint256 amount) external onlyOwner {... */\n    tag_16:\n      tag_75\n      0x04\n      dup1\n      calldatasize\n      sub\n      dup2\n      add\n      swap1\n      tag_76\n      swap2\n      swap1\n      tag_30\n      jump\t// in\n    tag_76:\n      tag_77\n      jump\t// in\n    tag_75:\n      stop\n        /* \"contracts/TokenUSDt_flattened.sol\":14114:14292  function transfer(address to, uint256 value) public virtual returns (bool) {... */\n    tag_17:\n      tag_78\n      0x04\n      dup1\n      calldatasize\n      sub\n      dup2\n      add\n      swap1\n      tag_79\n      swap2\n      swap1\n      tag_30\n      jump\t// in\n    tag_79:\n      tag_80\n      jump\t// in\n    tag_78:\n      mload(0x40)\n      tag_81\n      swap2\n      swap1\n      tag_33\n      jump\t// in\n    tag_81:\n      mload(0x40)\n      dup1\n      swap2\n      sub\n      swap1\n      return\n        /* \"contracts/TokenUSDt_flattened.sol\":25540:25679  function transferUSD(address to, uint256 dollarAmount) external returns (bool) {... */\n    tag_18:\n      tag_82\n      0x04\n      dup1\n      calldatasize\n      sub\n      dup2\n      add\n      swap1\n      tag_83\n      swap2\n      swap1\n      tag_30\n      jump\t// in\n    tag_83:\n      tag_84\n      jump\t// in\n    tag_82:\n      mload(0x40)\n      tag_85\n      swap2\n      swap1\n      tag_33\n      jump\t// in\n    tag_85:\n      mload(0x40)\n      dup1\n      swap2\n      sub\n      swap1\n      return\n        /* \"contracts/TokenUSDt_flattened.sol\":14325:14465  function allowance(address owner, address spender) public view virtual returns (uint256) {... */\n    tag_19:\n      tag_86\n      0x04\n      dup1\n      calldatasize\n      sub\n      dup2\n      add\n      swap1\n      tag_87\n      swap2\n      swap1\n      tag_88\n      jump\t// in\n    tag_87:\n      tag_89\n      jump\t// in\n    tag_86:\n      mload(0x40)\n      tag_90\n      swap2\n      swap1\n      tag_37\n      jump\t// in\n    tag_90:\n      mload(0x40)\n      dup1\n      swap2\n      sub\n      swap1\n      return\n        /* \"contracts/TokenUSDt_flattened.sol\":24188:24403  function transferOwnership(address newOwner) public virtual onlyOwner {... */\n    tag_20:\n      tag_91\n      0x04\n      dup1\n      calldatasize\n      sub\n      dup2\n      add\n      swap1\n      tag_92\n      swap2\n      swap1\n      tag_55\n      jump\t// in\n    tag_92:\n      tag_93\n      jump\t// in\n    tag_91:\n      stop\n        /* \"contracts/TokenUSDt_flattened.sol\":12630:12719  function name() public view virtual returns (string memory) {... */\n    tag_25:\n        /* \"contracts/TokenUSDt_flattened.sol\":12675:12688  string memory */\n      0x60\n        /* \"contracts/TokenUSDt_flattened.sol\":12707:12712  _name */\n      0x03\n        /* \"contracts/TokenUSDt_flattened.sol\":12700:12712  return _name */\n      dup1\n      sload\n      tag_95\n      swap1\n      tag_96\n      jump\t// in\n    tag_95:\n      dup1\n      0x1f\n      add\n      0x20\n      dup1\n      swap2\n      div\n      mul\n      0x20\n      add\n      mload(0x40)\n      swap1\n      dup2\n      add\n      0x40\n      mstore\n      dup1\n      swap3\n      swap2\n      swap1\n      dup2\n      dup2\n      mstore\n      0x20\n      add\n      dup3\n      dup1\n      sload\n      tag_97\n      swap1\n      tag_96\n      jump\t// in\n    tag_97:\n      dup1\n      iszero\n      tag_98\n      jumpi\n      dup1\n      0x1f\n      lt\n      tag_99\n      jumpi\n      0x0100\n      dup1\n      dup4\n      sload\n      div\n      mul\n      dup4\n      mstore\n      swap2\n      0x20\n      add\n      swap2\n      jump(tag_98)\n    tag_99:\n      dup3\n      add\n      swap2\n      swap1\n      0x00\n      mstore\n      keccak256(0x00, 0x20)\n      swap1\n    tag_100:\n      dup2\n      sload\n      dup2\n      mstore\n      swap1\n      0x01\n      add\n      swap1\n      0x20\n      add\n      dup1\n      dup4\n      gt\n      tag_100\n      jumpi\n      dup3\n      swap1\n      sub\n      0x1f\n      and\n      dup3\n      add\n      swap2\n    tag_98:\n      pop\n      pop\n      pop\n      pop\n      pop\n      swap1\n      pop\n        /* \"contracts/TokenUSDt_flattened.sol\":12630:12719  function name() public view virtual returns (string memory) {... */\n      swap1\n      jump\t// out\n        /* \"contracts/TokenUSDt_flattened.sol\":14772:14958  function approve(address spender, uint256 value) public virtual returns (bool) {... */\n    tag_31:\n        /* \"contracts/TokenUSDt_flattened.sol\":14845:14849  bool */\n      0x00\n        /* \"contracts/TokenUSDt_flattened.sol\":14861:14874  address owner */\n      dup1\n        /* \"contracts/TokenUSDt_flattened.sol\":14877:14889  _msgSender() */\n      tag_102\n        /* \"contracts/TokenUSDt_flattened.sol\":14877:14887  _msgSender */\n      tag_103\n        /* \"contracts/TokenUSDt_flattened.sol\":14877:14889  _msgSender() */\n      jump\t// in\n    tag_102:\n        /* \"contracts/TokenUSDt_flattened.sol\":14861:14889  address owner = _msgSender() */\n      swap1\n      pop\n        /* \"contracts/TokenUSDt_flattened.sol\":14899:14930  _approve(owner, spender, value) */\n      tag_104\n        /* \"contracts/TokenUSDt_flattened.sol\":14908:14913  owner */\n      dup2\n        /* \"contracts/TokenUSDt_flattened.sol\":14915:14922  spender */\n      dup6\n        /* \"contracts/TokenUSDt_flattened.sol\":14924:14929  value */\n      dup6\n        /* \"contracts/TokenUSDt_flattened.sol\":14899:14907  _approve */\n      tag_105\n        /* \"contracts/TokenUSDt_flattened.sol\":14899:14930  _approve(owner, spender, value) */\n      jump\t// in\n    tag_104:\n        /* \"contracts/TokenUSDt_flattened.sol\":14947:14951  true */\n      0x01\n        /* \"contracts/TokenUSDt_flattened.sol\":14940:14951  return true */\n      swap2\n      pop\n      pop\n        /* \"contracts/TokenUSDt_flattened.sol\":14772:14958  function approve(address spender, uint256 value) public virtual returns (bool) {... */\n      swap3\n      swap2\n      pop\n      pop\n      jump\t// out\n        /* \"contracts/TokenUSDt_flattened.sol\":13673:13770  function totalSupply() public view virtual returns (uint256) {... */\n    tag_35:\n        /* \"contracts/TokenUSDt_flattened.sol\":13725:13732  uint256 */\n      0x00\n        /* \"contracts/TokenUSDt_flattened.sol\":13751:13763  _totalSupply */\n      sload(0x02)\n        /* \"contracts/TokenUSDt_flattened.sol\":13744:13763  return _totalSupply */\n      swap1\n      pop\n        /* \"contracts/TokenUSDt_flattened.sol\":13673:13770  function totalSupply() public view virtual returns (uint256) {... */\n      swap1\n      jump\t// out\n        /* \"contracts/TokenUSDt_flattened.sol\":26079:26184  function totalSupplyUSD() external view returns (uint256) {... */\n    tag_39:\n        /* \"contracts/TokenUSDt_flattened.sol\":26128:26135  uint256 */\n      0x00\n        /* \"contracts/TokenUSDt_flattened.sol\":26170:26177  1000000 */\n      0x0f4240\n        /* \"contracts/TokenUSDt_flattened.sol\":26154:26167  totalSupply() */\n      tag_108\n        /* \"contracts/TokenUSDt_flattened.sol\":26154:26165  totalSupply */\n      tag_35\n        /* \"contracts/TokenUSDt_flattened.sol\":26154:26167  totalSupply() */\n      jump\t// in\n    tag_108:\n        /* \"contracts/TokenUSDt_flattened.sol\":26154:26177  totalSupply() / 1000000 */\n      tag_109\n      swap2\n      swap1\n      tag_110\n      jump\t// in\n    tag_109:\n        /* \"contracts/TokenUSDt_flattened.sol\":26147:26177  return totalSupply() / 1000000 */\n      swap1\n      pop\n        /* \"contracts/TokenUSDt_flattened.sol\":26079:26184  function totalSupplyUSD() external view returns (uint256) {... */\n      swap1\n      jump\t// out\n        /* \"contracts/TokenUSDt_flattened.sol\":15550:15794  function transferFrom(address from, address to, uint256 value) public virtual returns (bool) {... */\n    tag_44:\n        /* \"contracts/TokenUSDt_flattened.sol\":15637:15641  bool */\n      0x00\n        /* \"contracts/TokenUSDt_flattened.sol\":15653:15668  address spender */\n      dup1\n        /* \"contracts/TokenUSDt_flattened.sol\":15671:15683  _msgSender() */\n      tag_112\n        /* \"contracts/TokenUSDt_flattened.sol\":15671:15681  _msgSender */\n      tag_103\n        /* \"contracts/TokenUSDt_flattened.sol\":15671:15683  _msgSender() */\n      jump\t// in\n    tag_112:\n        /* \"contracts/TokenUSDt_flattened.sol\":15653:15683  address spender = _msgSender() */\n      swap1\n      pop\n        /* \"contracts/TokenUSDt_flattened.sol\":15693:15730  _spendAllowance(from, spender, value) */\n      tag_113\n        /* \"contracts/TokenUSDt_flattened.sol\":15709:15713  from */\n      dup6\n        /* \"contracts/TokenUSDt_flattened.sol\":15715:15722  spender */\n      dup3\n        /* \"contracts/TokenUSDt_flattened.sol\":15724:15729  value */\n      dup6\n        /* \"contracts/TokenUSDt_flattened.sol\":15693:15708  _spendAllowance */\n      tag_114\n        /* \"contracts/TokenUSDt_flattened.sol\":15693:15730  _spendAllowance(from, spender, value) */\n      jump\t// in\n    tag_113:\n        /* \"contracts/TokenUSDt_flattened.sol\":15740:15766  _transfer(from, to, value) */\n      tag_115\n        /* \"contracts/TokenUSDt_flattened.sol\":15750:15754  from */\n      dup6\n        /* \"contracts/TokenUSDt_flattened.sol\":15756:15758  to */\n      dup6\n        /* \"contracts/TokenUSDt_flattened.sol\":15760:15765  value */\n      dup6\n        /* \"contracts/TokenUSDt_flattened.sol\":15740:15749  _transfer */\n      tag_116\n        /* \"contracts/TokenUSDt_flattened.sol\":15740:15766  _transfer(from, to, value) */\n      jump\t// in\n    tag_115:\n        /* \"contracts/TokenUSDt_flattened.sol\":15783:15787  true */\n      0x01\n        /* \"contracts/TokenUSDt_flattened.sol\":15776:15787  return true */\n      swap2\n      pop\n      pop\n        /* \"contracts/TokenUSDt_flattened.sol\":15550:15794  function transferFrom(address from, address to, uint256 value) public virtual returns (bool) {... */\n      swap4\n      swap3\n      pop\n      pop\n      pop\n      jump\t// out\n        /* \"contracts/TokenUSDt_flattened.sol\":25091:25173  function decimals() public pure override returns (uint8) {... */\n    tag_47:\n        /* \"contracts/TokenUSDt_flattened.sol\":25141:25146  uint8 */\n      0x00\n        /* \"contracts/TokenUSDt_flattened.sol\":25165:25166  6 */\n      0x06\n        /* \"contracts/TokenUSDt_flattened.sol\":25158:25166  return 6 */\n      swap1\n      pop\n        /* \"contracts/TokenUSDt_flattened.sol\":25091:25173  function decimals() public pure override returns (uint8) {... */\n      swap1\n      jump\t// out\n        /* \"contracts/TokenUSDt_flattened.sol\":25226:25343  function mint(address to, uint256 dollarAmount) external onlyOwner {... */\n    tag_52:\n        /* \"contracts/TokenUSDt_flattened.sol\":23176:23189  _checkOwner() */\n      tag_119\n        /* \"contracts/TokenUSDt_flattened.sol\":23176:23187  _checkOwner */\n      tag_120\n        /* \"contracts/TokenUSDt_flattened.sol\":23176:23189  _checkOwner() */\n      jump\t// in\n    tag_119:\n        /* \"contracts/TokenUSDt_flattened.sol\":25303:25336  _mint(to, dollarAmount * 1000000) */\n      tag_122\n        /* \"contracts/TokenUSDt_flattened.sol\":25309:25311  to */\n      dup3\n        /* \"contracts/TokenUSDt_flattened.sol\":25328:25335  1000000 */\n      0x0f4240\n        /* \"contracts/TokenUSDt_flattened.sol\":25313:25325  dollarAmount */\n      dup4\n        /* \"contracts/TokenUSDt_flattened.sol\":25313:25335  dollarAmount * 1000000 */\n      tag_123\n      swap2\n      swap1\n      tag_124\n      jump\t// in\n    tag_123:\n        /* \"contracts/TokenUSDt_flattened.sol\":25303:25308  _mint */\n      tag_125\n        /* \"contracts/TokenUSDt_flattened.sol\":25303:25336  _mint(to, dollarAmount * 1000000) */\n      jump\t// in\n    tag_122:\n        /* \"contracts/TokenUSDt_flattened.sol\":25226:25343  function mint(address to, uint256 dollarAmount) external onlyOwner {... */\n      pop\n      pop\n      jump\t// out\n        /* \"contracts/TokenUSDt_flattened.sol\":13803:13919  function balanceOf(address account) public view virtual returns (uint256) {... */\n    tag_56:\n        /* \"contracts/TokenUSDt_flattened.sol\":13868:13875  uint256 */\n      0x00\n        /* \"contracts/TokenUSDt_flattened.sol\":13894:13903  _balances */\n      dup1\n        /* \"contracts/TokenUSDt_flattened.sol\":13894:13912  _balances[account] */\n      0x00\n        /* \"contracts/TokenUSDt_flattened.sol\":13904:13911  account */\n      dup4\n        /* \"contracts/TokenUSDt_flattened.sol\":13894:13912  _balances[account] */\n      0xffffffffffffffffffffffffffffffffffffffff\n      and\n      0xffffffffffffffffffffffffffffffffffffffff\n      and\n      dup2\n      mstore\n      0x20\n      add\n      swap1\n      dup2\n      mstore\n      0x20\n      add\n      0x00\n      keccak256\n      sload\n        /* \"contracts/TokenUSDt_flattened.sol\":13887:13912  return _balances[account] */\n      swap1\n      pop\n        /* \"contracts/TokenUSDt_flattened.sol\":13803:13919  function balanceOf(address account) public view virtual returns (uint256) {... */\n      swap2\n      swap1\n      pop\n      jump\t// out\n        /* \"contracts/TokenUSDt_flattened.sol\":23938:24039  function renounceOwnership() public virtual onlyOwner {... */\n    tag_59:\n        /* \"contracts/TokenUSDt_flattened.sol\":23176:23189  _checkOwner() */\n      tag_128\n        /* \"contracts/TokenUSDt_flattened.sol\":23176:23187  _checkOwner */\n      tag_120\n        /* \"contracts/TokenUSDt_flattened.sol\":23176:23189  _checkOwner() */\n      jump\t// in\n    tag_128:\n        /* \"contracts/TokenUSDt_flattened.sol\":24002:24032  _transferOwnership(address(0)) */\n      tag_130\n        /* \"contracts/TokenUSDt_flattened.sol\":24029:24030  0 */\n      0x00\n        /* \"contracts/TokenUSDt_flattened.sol\":24002:24020  _transferOwnership */\n      tag_131\n        /* \"contracts/TokenUSDt_flattened.sol\":24002:24032  _transferOwnership(address(0)) */\n      jump\t// in\n    tag_130:\n        /* \"contracts/TokenUSDt_flattened.sol\":23938:24039  function renounceOwnership() public virtual onlyOwner {... */\n      jump\t// out\n        /* \"contracts/TokenUSDt_flattened.sol\":25709:25856  function approveUSD(address spender, uint256 dollarAmount) external returns (bool) {... */\n    tag_62:\n        /* \"contracts/TokenUSDt_flattened.sol\":25786:25790  bool */\n      0x00\n        /* \"contracts/TokenUSDt_flattened.sol\":25809:25849  approve(spender, dollarAmount * 1000000) */\n      tag_133\n        /* \"contracts/TokenUSDt_flattened.sol\":25817:25824  spender */\n      dup4\n        /* \"contracts/TokenUSDt_flattened.sol\":25841:25848  1000000 */\n      0x0f4240\n        /* \"contracts/TokenUSDt_flattened.sol\":25826:25838  dollarAmount */\n      dup5\n        /* \"contracts/TokenUSDt_flattened.sol\":25826:25848  dollarAmount * 1000000 */\n      tag_134\n      swap2\n      swap1\n      tag_124\n      jump\t// in\n    tag_134:\n        /* \"contracts/TokenUSDt_flattened.sol\":25809:25816  approve */\n      tag_31\n        /* \"contracts/TokenUSDt_flattened.sol\":25809:25849  approve(spender, dollarAmount * 1000000) */\n      jump\t// in\n    tag_133:\n        /* \"contracts/TokenUSDt_flattened.sol\":25802:25849  return approve(spender, dollarAmount * 1000000) */\n      swap1\n      pop\n        /* \"contracts/TokenUSDt_flattened.sol\":25709:25856  function approveUSD(address spender, uint256 dollarAmount) external returns (bool) {... */\n      swap3\n      swap2\n      pop\n      pop\n      jump\t// out\n        /* \"contracts/TokenUSDt_flattened.sol\":25910:26031  function balanceUSD(address account) external view returns (uint256) {... */\n    tag_66:\n        /* \"contracts/TokenUSDt_flattened.sol\":25970:25977  uint256 */\n      0x00\n        /* \"contracts/TokenUSDt_flattened.sol\":26017:26024  1000000 */\n      0x0f4240\n        /* \"contracts/TokenUSDt_flattened.sol\":25996:26014  balanceOf(account) */\n      tag_136\n        /* \"contracts/TokenUSDt_flattened.sol\":26006:26013  account */\n      dup4\n        /* \"contracts/TokenUSDt_flattened.sol\":25996:26005  balanceOf */\n      tag_56\n        /* \"contracts/TokenUSDt_flattened.sol\":25996:26014  balanceOf(account) */\n      jump\t// in\n    tag_136:\n        /* \"contracts/TokenUSDt_flattened.sol\":25996:26024  balanceOf(account) / 1000000 */\n      tag_137\n      swap2\n      swap1\n      tag_110\n      jump\t// in\n    tag_137:\n        /* \"contracts/TokenUSDt_flattened.sol\":25989:26024  return balanceOf(account) / 1000000 */\n      swap1\n      pop\n        /* \"contracts/TokenUSDt_flattened.sol\":25910:26031  function balanceUSD(address account) external view returns (uint256) {... */\n      swap2\n      swap1\n      pop\n      jump\t// out\n        /* \"contracts/TokenUSDt_flattened.sol\":23283:23368  function owner() public view virtual returns (address) {... */\n    tag_69:\n        /* \"contracts/TokenUSDt_flattened.sol\":23329:23336  address */\n      0x00\n        /* \"contracts/TokenUSDt_flattened.sol\":23355:23361  _owner */\n      0x05\n      0x00\n      swap1\n      sload\n      swap1\n      0x0100\n      exp\n      swap1\n      div\n      0xffffffffffffffffffffffffffffffffffffffff\n      and\n        /* \"contracts/TokenUSDt_flattened.sol\":23348:23361  return _owner */\n      swap1\n      pop\n        /* \"contracts/TokenUSDt_flattened.sol\":23283:23368  function owner() public view virtual returns (address) {... */\n      swap1\n      jump\t// out\n        /* \"contracts/TokenUSDt_flattened.sol\":12832:12925  function symbol() public view virtual returns (string memory) {... */\n    tag_73:\n        /* \"contracts/TokenUSDt_flattened.sol\":12879:12892  string memory */\n      0x60\n        /* \"contracts/TokenUSDt_flattened.sol\":12911:12918  _symbol */\n      0x04\n        /* \"contracts/TokenUSDt_flattened.sol\":12904:12918  return _symbol */\n      dup1\n      sload\n      tag_140\n      swap1\n      tag_96\n      jump\t// in\n    tag_140:\n      dup1\n      0x1f\n      add\n      0x20\n      dup1\n      swap2\n      div\n      mul\n      0x20\n      add\n      mload(0x40)\n      swap1\n      dup2\n      add\n      0x40\n      mstore\n      dup1\n      swap3\n      swap2\n      swap1\n      dup2\n      dup2\n      mstore\n      0x20\n      add\n      dup3\n      dup1\n      sload\n      tag_141\n      swap1\n      tag_96\n      jump\t// in\n    tag_141:\n      dup1\n      iszero\n      tag_142\n      jumpi\n      dup1\n      0x1f\n      lt\n      tag_143\n      jumpi\n      0x0100\n      dup1\n      dup4\n      sload\n      div\n      mul\n      dup4\n      mstore\n      swap2\n      0x20\n      add\n      swap2\n      jump(tag_142)\n    tag_143:\n      dup3\n      add\n      swap2\n      swap1\n      0x00\n      mstore\n      keccak256(0x00, 0x20)\n      swap1\n    tag_144:\n      dup2\n      sload\n      dup2\n      mstore\n      swap1\n      0x01\n      add\n      swap1\n      0x20\n      add\n      dup1\n      dup4\n      gt\n      tag_144\n      jumpi\n      dup3\n      swap1\n      sub\n      0x1f\n      and\n      dup3\n      add\n      swap2\n    tag_142:\n      pop\n      pop\n      pop\n      pop\n      pop\n      swap1\n      pop\n        /* \"contracts/TokenUSDt_flattened.sol\":12832:12925  function symbol() public view virtual returns (string memory) {... */\n      swap1\n      jump\t// out\n        /* \"contracts/TokenUSDt_flattened.sol\":25372:25471  function burn(address from, uint256 amount) external onlyOwner {... */\n    tag_77:\n        /* \"contracts/TokenUSDt_flattened.sol\":23176:23189  _checkOwner() */\n      tag_146\n        /* \"contracts/TokenUSDt_flattened.sol\":23176:23187  _checkOwner */\n      tag_120\n        /* \"contracts/TokenUSDt_flattened.sol\":23176:23189  _checkOwner() */\n      jump\t// in\n    tag_146:\n        /* \"contracts/TokenUSDt_flattened.sol\":25445:25464  _burn(from, amount) */\n      tag_148\n        /* \"contracts/TokenUSDt_flattened.sol\":25451:25455  from */\n      dup3\n        /* \"contracts/TokenUSDt_flattened.sol\":25457:25463  amount */\n      dup3\n        /* \"contracts/TokenUSDt_flattened.sol\":25445:25450  _burn */\n      tag_149\n        /* \"contracts/TokenUSDt_flattened.sol\":25445:25464  _burn(from, amount) */\n      jump\t// in\n    tag_148:\n        /* \"contracts/TokenUSDt_flattened.sol\":25372:25471  function burn(address from, uint256 amount) external onlyOwner {... */\n      pop\n      pop\n      jump\t// out\n        /* \"contracts/TokenUSDt_flattened.sol\":14114:14292  function transfer(address to, uint256 value) public virtual returns (bool) {... */\n    tag_80:\n        /* \"contracts/TokenUSDt_flattened.sol\":14183:14187  bool */\n      0x00\n        /* \"contracts/TokenUSDt_flattened.sol\":14199:14212  address owner */\n      dup1\n        /* \"contracts/TokenUSDt_flattened.sol\":14215:14227  _msgSender() */\n      tag_151\n        /* \"contracts/TokenUSDt_flattened.sol\":14215:14225  _msgSender */\n      tag_103\n        /* \"contracts/TokenUSDt_flattened.sol\":14215:14227  _msgSender() */\n      jump\t// in\n    tag_151:\n        /* \"contracts/TokenUSDt_flattened.sol\":14199:14227  address owner = _msgSender() */\n      swap1\n      pop\n        /* \"contracts/TokenUSDt_flattened.sol\":14237:14264  _transfer(owner, to, value) */\n      tag_152\n        /* \"contracts/TokenUSDt_flattened.sol\":14247:14252  owner */\n      dup2\n        /* \"contracts/TokenUSDt_flattened.sol\":14254:14256  to */\n      dup6\n        /* \"contracts/TokenUSDt_flattened.sol\":14258:14263  value */\n      dup6\n        /* \"contracts/TokenUSDt_flattened.sol\":14237:14246  _transfer */\n      tag_116\n        /* \"contracts/TokenUSDt_flattened.sol\":14237:14264  _transfer(owner, to, value) */\n      jump\t// in\n    tag_152:\n        /* \"contracts/TokenUSDt_flattened.sol\":14281:14285  true */\n      0x01\n        /* \"contracts/TokenUSDt_flattened.sol\":14274:14285  return true */\n      swap2\n      pop\n      pop\n        /* \"contracts/TokenUSDt_flattened.sol\":14114:14292  function transfer(address to, uint256 value) public virtual returns (bool) {... */\n      swap3\n      swap2\n      pop\n      pop\n      jump\t// out\n        /* \"contracts/TokenUSDt_flattened.sol\":25540:25679  function transferUSD(address to, uint256 dollarAmount) external returns (bool) {... */\n    tag_84:\n        /* \"contracts/TokenUSDt_flattened.sol\":25613:25617  bool */\n      0x00\n        /* \"contracts/TokenUSDt_flattened.sol\":25636:25672  transfer(to, dollarAmount * 1000000) */\n      tag_154\n        /* \"contracts/TokenUSDt_flattened.sol\":25645:25647  to */\n      dup4\n        /* \"contracts/TokenUSDt_flattened.sol\":25664:25671  1000000 */\n      0x0f4240\n        /* \"contracts/TokenUSDt_flattened.sol\":25649:25661  dollarAmount */\n      dup5\n        /* \"contracts/TokenUSDt_flattened.sol\":25649:25671  dollarAmount * 1000000 */\n      tag_155\n      swap2\n      swap1\n      tag_124\n      jump\t// in\n    tag_155:\n        /* \"contracts/TokenUSDt_flattened.sol\":25636:25644  transfer */\n      tag_80\n        /* \"contracts/TokenUSDt_flattened.sol\":25636:25672  transfer(to, dollarAmount * 1000000) */\n      jump\t// in\n    tag_154:\n        /* \"contracts/TokenUSDt_flattened.sol\":25629:25672  return transfer(to, dollarAmount * 1000000) */\n      swap1\n      pop\n        /* \"contracts/TokenUSDt_flattened.sol\":25540:25679  function transferUSD(address to, uint256 dollarAmount) external returns (bool) {... */\n      swap3\n      swap2\n      pop\n      pop\n      jump\t// out\n        /* \"contracts/TokenUSDt_flattened.sol\":14325:14465  function allowance(address owner, address spender) public view virtual returns (uint256) {... */\n    tag_89:\n        /* \"contracts/TokenUSDt_flattened.sol\":14405:14412  uint256 */\n      0x00\n        /* \"contracts/TokenUSDt_flattened.sol\":14431:14442  _allowances */\n      0x01\n        /* \"contracts/TokenUSDt_flattened.sol\":14431:14449  _allowances[owner] */\n      0x00\n        /* \"contracts/TokenUSDt_flattened.sol\":14443:14448  owner */\n      dup5\n        /* \"contracts/TokenUSDt_flattened.sol\":14431:14449  _allowances[owner] */\n      0xffffffffffffffffffffffffffffffffffffffff\n      and\n      0xffffffffffffffffffffffffffffffffffffffff\n      and\n      dup2\n      mstore\n      0x20\n      add\n      swap1\n      dup2\n      mstore\n      0x20\n      add\n      0x00\n      keccak256\n        /* \"contracts/TokenUSDt_flattened.sol\":14431:14458  _allowances[owner][spender] */\n      0x00\n        /* \"contracts/TokenUSDt_flattened.sol\":14450:14457  spender */\n      dup4\n        /* \"contracts/TokenUSDt_flattened.sol\":14431:14458  _allowances[owner][spender] */\n      0xffffffffffffffffffffffffffffffffffffffff\n      and\n      0xffffffffffffffffffffffffffffffffffffffff\n      and\n      dup2\n      mstore\n      0x20\n      add\n      swap1\n      dup2\n      mstore\n      0x20\n      add\n      0x00\n      keccak256\n      sload\n        /* \"contracts/TokenUSDt_flattened.sol\":14424:14458  return _allowances[owner][spender] */\n      swap1\n      pop\n        /* \"contracts/TokenUSDt_flattened.sol\":14325:14465  function allowance(address owner, address spender) public view virtual returns (uint256) {... */\n      swap3\n      swap2\n      pop\n      pop\n      jump\t// out\n        /* \"contracts/TokenUSDt_flattened.sol\":24188:24403  function transferOwnership(address newOwner) public virtual onlyOwner {... */\n    tag_93:\n        /* \"contracts/TokenUSDt_flattened.sol\":23176:23189  _checkOwner() */\n      tag_158\n        /* \"contracts/TokenUSDt_flattened.sol\":23176:23187  _checkOwner */\n      tag_120\n        /* \"contracts/TokenUSDt_flattened.sol\":23176:23189  _checkOwner() */\n      jump\t// in\n    tag_158:\n        /* \"contracts/TokenUSDt_flattened.sol\":24292:24293  0 */\n      0x00\n        /* \"contracts/TokenUSDt_flattened.sol\":24272:24294  newOwner == address(0) */\n      0xffffffffffffffffffffffffffffffffffffffff\n      and\n        /* \"contracts/TokenUSDt_flattened.sol\":24272:24280  newOwner */\n      dup2\n        /* \"contracts/TokenUSDt_flattened.sol\":24272:24294  newOwner == address(0) */\n      0xffffffffffffffffffffffffffffffffffffffff\n      and\n      sub\n        /* \"contracts/TokenUSDt_flattened.sol\":24268:24359  if (newOwner == address(0)) {... */\n      tag_160\n      jumpi\n        /* \"contracts/TokenUSDt_flattened.sol\":24345:24346  0 */\n      0x00\n        /* \"contracts/TokenUSDt_flattened.sol\":24317:24348  OwnableInvalidOwner(address(0)) */\n      mload(0x40)\n      0x1e4fbdf700000000000000000000000000000000000000000000000000000000\n      dup2\n      mstore\n      0x04\n      add\n      tag_161\n      swap2\n      swap1\n      tag_71\n      jump\t// in\n    tag_161:\n      mload(0x40)\n      dup1\n      swap2\n      sub\n      swap1\n      revert\n        /* \"contracts/TokenUSDt_flattened.sol\":24268:24359  if (newOwner == address(0)) {... */\n    tag_160:\n        /* \"contracts/TokenUSDt_flattened.sol\":24368:24396  _transferOwnership(newOwner) */\n      tag_162\n        /* \"contracts/TokenUSDt_flattened.sol\":24387:24395  newOwner */\n      dup2\n        /* \"contracts/TokenUSDt_flattened.sol\":24368:24386  _transferOwnership */\n      tag_131\n        /* \"contracts/TokenUSDt_flattened.sol\":24368:24396  _transferOwnership(newOwner) */\n      jump\t// in\n    tag_162:\n        /* \"contracts/TokenUSDt_flattened.sol\":24188:24403  function transferOwnership(address newOwner) public virtual onlyOwner {... */\n      pop\n      jump\t// out\n        /* \"contracts/TokenUSDt_flattened.sol\":4178:4274  function _msgSender() internal view virtual returns (address) {... */\n    tag_103:\n        /* \"contracts/TokenUSDt_flattened.sol\":4231:4238  address */\n      0x00\n        /* \"contracts/TokenUSDt_flattened.sol\":4257:4267  msg.sender */\n      caller\n        /* \"contracts/TokenUSDt_flattened.sol\":4250:4267  return msg.sender */\n      swap1\n      pop\n        /* \"contracts/TokenUSDt_flattened.sol\":4178:4274  function _msgSender() internal view virtual returns (address) {... */\n      swap1\n      jump\t// out\n        /* \"contracts/TokenUSDt_flattened.sol\":19500:19628  function _approve(address owner, address spender, uint256 value) internal {... */\n    tag_105:\n        /* \"contracts/TokenUSDt_flattened.sol\":19584:19621  _approve(owner, spender, value, true) */\n      tag_165\n        /* \"contracts/TokenUSDt_flattened.sol\":19593:19598  owner */\n      dup4\n        /* \"contracts/TokenUSDt_flattened.sol\":19600:19607  spender */\n      dup4\n        /* \"contracts/TokenUSDt_flattened.sol\":19609:19614  value */\n      dup4\n        /* \"contracts/TokenUSDt_flattened.sol\":19616:19620  true */\n      0x01\n        /* \"contracts/TokenUSDt_flattened.sol\":19584:19592  _approve */\n      tag_166\n        /* \"contracts/TokenUSDt_flattened.sol\":19584:19621  _approve(owner, spender, value, true) */\n      jump\t// in\n    tag_165:\n        /* \"contracts/TokenUSDt_flattened.sol\":19500:19628  function _approve(address owner, address spender, uint256 value) internal {... */\n      pop\n      pop\n      pop\n      jump\t// out\n        /* \"contracts/TokenUSDt_flattened.sol\":21189:21665  function _spendAllowance(address owner, address spender, uint256 value) internal virtual {... */\n    tag_114:\n        /* \"contracts/TokenUSDt_flattened.sol\":21288:21312  uint256 currentAllowance */\n      0x00\n        /* \"contracts/TokenUSDt_flattened.sol\":21315:21340  allowance(owner, spender) */\n      tag_168\n        /* \"contracts/TokenUSDt_flattened.sol\":21325:21330  owner */\n      dup5\n        /* \"contracts/TokenUSDt_flattened.sol\":21332:21339  spender */\n      dup5\n        /* \"contracts/TokenUSDt_flattened.sol\":21315:21324  allowance */\n      tag_89\n        /* \"contracts/TokenUSDt_flattened.sol\":21315:21340  allowance(owner, spender) */\n      jump\t// in\n    tag_168:\n        /* \"contracts/TokenUSDt_flattened.sol\":21288:21340  uint256 currentAllowance = allowance(owner, spender) */\n      swap1\n      pop\n        /* \"contracts/TokenUSDt_flattened.sol\":21373:21390  type(uint256).max */\n      0xffffffffffffffffffffffffffffffffffffffffffffffffffffffffffffffff\n        /* \"contracts/TokenUSDt_flattened.sol\":21354:21370  currentAllowance */\n      dup2\n        /* \"contracts/TokenUSDt_flattened.sol\":21354:21390  currentAllowance < type(uint256).max */\n      lt\n        /* \"contracts/TokenUSDt_flattened.sol\":21350:21659  if (currentAllowance < type(uint256).max) {... */\n      iszero\n      tag_169\n      jumpi\n        /* \"contracts/TokenUSDt_flattened.sol\":21429:21434  value */\n      dup2\n        /* \"contracts/TokenUSDt_flattened.sol\":21410:21426  currentAllowance */\n      dup2\n        /* \"contracts/TokenUSDt_flattened.sol\":21410:21434  currentAllowance < value */\n      lt\n        /* \"contracts/TokenUSDt_flattened.sol\":21406:21536  if (currentAllowance < value) {... */\n      iszero\n      tag_170\n      jumpi\n        /* \"contracts/TokenUSDt_flattened.sol\":21488:21495  spender */\n      dup3\n        /* \"contracts/TokenUSDt_flattened.sol\":21497:21513  currentAllowance */\n      dup2\n        /* \"contracts/TokenUSDt_flattened.sol\":21515:21520  value */\n      dup4\n        /* \"contracts/TokenUSDt_flattened.sol\":21461:21521  ERC20InsufficientAllowance(spender, currentAllowance, value) */\n      mload(0x40)\n      0xfb8f41b200000000000000000000000000000000000000000000000000000000\n      dup2\n      mstore\n      0x04\n      add\n      tag_171\n      swap4\n      swap3\n      swap2\n      swap1\n      tag_172\n      jump\t// in\n    tag_171:\n      mload(0x40)\n      dup1\n      swap2\n      sub\n      swap1\n      revert\n        /* \"contracts/TokenUSDt_flattened.sol\":21406:21536  if (currentAllowance < value) {... */\n    tag_170:\n        /* \"contracts/TokenUSDt_flattened.sol\":21577:21634  _approve(owner, spender, currentAllowance - value, false) */\n      tag_173\n        /* \"contracts/TokenUSDt_flattened.sol\":21586:21591  owner */\n      dup5\n        /* \"contracts/TokenUSDt_flattened.sol\":21593:21600  spender */\n      dup5\n        /* \"contracts/TokenUSDt_flattened.sol\":21621:21626  value */\n      dup5\n        /* \"contracts/TokenUSDt_flattened.sol\":21602:21618  currentAllowance */\n      dup5\n        /* \"contracts/TokenUSDt_flattened.sol\":21602:21626  currentAllowance - value */\n      sub\n        /* \"contracts/TokenUSDt_flattened.sol\":21628:21633  false */\n      0x00\n        /* \"contracts/TokenUSDt_flattened.sol\":21577:21585  _approve */\n      tag_166\n        /* \"contracts/TokenUSDt_flattened.sol\":21577:21634  _approve(owner, spender, currentAllowance - value, false) */\n      jump\t// in\n    tag_173:\n        /* \"contracts/TokenUSDt_flattened.sol\":21350:21659  if (currentAllowance < type(uint256).max) {... */\n    tag_169:\n        /* \"contracts/TokenUSDt_flattened.sol\":21278:21665  {... */\n      pop\n        /* \"contracts/TokenUSDt_flattened.sol\":21189:21665  function _spendAllowance(address owner, address spender, uint256 value) internal virtual {... */\n      pop\n      pop\n      pop\n      jump\t// out\n        /* \"contracts/TokenUSDt_flattened.sol\":16167:16467  function _transfer(address from, address to, uint256 value) internal {... */\n    tag_116:\n        /* \"contracts/TokenUSDt_flattened.sol\":16266:16267  0 */\n      0x00\n        /* \"contracts/TokenUSDt_flattened.sol\":16250:16268  from == address(0) */\n      0xffffffffffffffffffffffffffffffffffffffff\n      and\n        /* \"contracts/TokenUSDt_flattened.sol\":16250:16254  from */\n      dup4\n        /* \"contracts/TokenUSDt_flattened.sol\":16250:16268  from == address(0) */\n      0xffffffffffffffffffffffffffffffffffffffff\n      and\n      sub\n        /* \"contracts/TokenUSDt_flattened.sol\":16246:16332  if (from == address(0)) {... */\n      tag_175\n      jumpi\n        /* \"contracts/TokenUSDt_flattened.sol\":16318:16319  0 */\n      0x00\n        /* \"contracts/TokenUSDt_flattened.sol\":16291:16321  ERC20InvalidSender(address(0)) */\n      mload(0x40)\n      0x96c6fd1e00000000000000000000000000000000000000000000000000000000\n      dup2\n      mstore\n      0x04\n      add\n      tag_176\n      swap2\n      swap1\n      tag_71\n      jump\t// in\n    tag_176:\n      mload(0x40)\n      dup1\n      swap2\n      sub\n      swap1\n      revert\n        /* \"contracts/TokenUSDt_flattened.sol\":16246:16332  if (from == address(0)) {... */\n    tag_175:\n        /* \"contracts/TokenUSDt_flattened.sol\":16359:16360  0 */\n      0x00\n        /* \"contracts/TokenUSDt_flattened.sol\":16345:16361  to == address(0) */\n      0xffffffffffffffffffffffffffffffffffffffff\n      and\n        /* \"contracts/TokenUSDt_flattened.sol\":16345:16347  to */\n      dup3\n        /* \"contracts/TokenUSDt_flattened.sol\":16345:16361  to == address(0) */\n      0xffffffffffffffffffffffffffffffffffffffff\n      and\n      sub\n        /* \"contracts/TokenUSDt_flattened.sol\":16341:16427  if (to == address(0)) {... */\n      tag_177\n      jumpi\n        /* \"contracts/TokenUSDt_flattened.sol\":16413:16414  0 */\n      0x00\n        /* \"contracts/TokenUSDt_flattened.sol\":16384:16416  ERC20InvalidReceiver(address(0)) */\n      mload(0x40)\n      0xec442f0500000000000000000000000000000000000000000000000000000000\n      dup2\n      mstore\n      0x04\n      add\n      tag_178\n      swap2\n      swap1\n      tag_71\n      jump\t// in\n    tag_178:\n      mload(0x40)\n      dup1\n      swap2\n      sub\n      swap1\n      revert\n        /* \"contracts/TokenUSDt_flattened.sol\":16341:16427  if (to == address(0)) {... */\n    tag_177:\n        /* \"contracts/TokenUSDt_flattened.sol\":16436:16460  _update(from, to, value) */\n      tag_179\n        /* \"contracts/TokenUSDt_flattened.sol\":16444:16448  from */\n      dup4\n        /* \"contracts/TokenUSDt_flattened.sol\":16450:16452  to */\n      dup4\n        /* \"contracts/TokenUSDt_flattened.sol\":16454:16459  value */\n      dup4\n        /* \"contracts/TokenUSDt_flattened.sol\":16436:16443  _update */\n      tag_180\n        /* \"contracts/TokenUSDt_flattened.sol\":16436:16460  _update(from, to, value) */\n      jump\t// in\n    tag_179:\n        /* \"contracts/TokenUSDt_flattened.sol\":16167:16467  function _transfer(address from, address to, uint256 value) internal {... */\n      pop\n      pop\n      pop\n      jump\t// out\n        /* \"contracts/TokenUSDt_flattened.sol\":23441:23603  function _checkOwner() internal view virtual {... */\n    tag_120:\n        /* \"contracts/TokenUSDt_flattened.sol\":23511:23523  _msgSender() */\n      tag_182\n        /* \"contracts/TokenUSDt_flattened.sol\":23511:23521  _msgSender */\n      tag_103\n        /* \"contracts/TokenUSDt_flattened.sol\":23511:23523  _msgSender() */\n      jump\t// in\n    tag_182:\n        /* \"contracts/TokenUSDt_flattened.sol\":23500:23523  owner() != _msgSender() */\n      0xffffffffffffffffffffffffffffffffffffffff\n      and\n        /* \"contracts/TokenUSDt_flattened.sol\":23500:23507  owner() */\n      tag_183\n        /* \"contracts/TokenUSDt_flattened.sol\":23500:23505  owner */\n      tag_69\n        /* \"contracts/TokenUSDt_flattened.sol\":23500:23507  owner() */\n      jump\t// in\n    tag_183:\n        /* \"contracts/TokenUSDt_flattened.sol\":23500:23523  owner() != _msgSender() */\n      0xffffffffffffffffffffffffffffffffffffffff\n      and\n      eq\n        /* \"contracts/TokenUSDt_flattened.sol\":23496:23597  if (owner() != _msgSender()) {... */\n      tag_184\n      jumpi\n        /* \"contracts/TokenUSDt_flattened.sol\":23573:23585  _msgSender() */\n      tag_185\n        /* \"contracts/TokenUSDt_flattened.sol\":23573:23583  _msgSender */\n      tag_103\n        /* \"contracts/TokenUSDt_flattened.sol\":23573:23585  _msgSender() */\n      jump\t// in\n    tag_185:\n        /* \"contracts/TokenUSDt_flattened.sol\":23546:23586  OwnableUnauthorizedAccount(_msgSender()) */\n      mload(0x40)\n      0x118cdaa700000000000000000000000000000000000000000000000000000000\n      dup2\n      mstore\n      0x04\n      add\n      tag_186\n      swap2\n      swap1\n      tag_71\n      jump\t// in\n    tag_186:\n      mload(0x40)\n      dup1\n      swap2\n      sub\n      swap1\n      revert\n        /* \"contracts/TokenUSDt_flattened.sol\":23496:23597  if (owner() != _msgSender()) {... */\n    tag_184:\n        /* \"contracts/TokenUSDt_flattened.sol\":23441:23603  function _checkOwner() internal view virtual {... */\n      jump\t// out\n        /* \"contracts/TokenUSDt_flattened.sol\":18232:18440  function _mint(address account, uint256 value) internal {... */\n    tag_125:\n        /* \"contracts/TokenUSDt_flattened.sol\":18321:18322  0 */\n      0x00\n        /* \"contracts/TokenUSDt_flattened.sol\":18302:18323  account == address(0) */\n      0xffffffffffffffffffffffffffffffffffffffff\n      and\n        /* \"contracts/TokenUSDt_flattened.sol\":18302:18309  account */\n      dup3\n        /* \"contracts/TokenUSDt_flattened.sol\":18302:18323  account == address(0) */\n      0xffffffffffffffffffffffffffffffffffffffff\n      and\n      sub\n        /* \"contracts/TokenUSDt_flattened.sol\":18298:18389  if (account == address(0)) {... */\n      tag_188\n      jumpi\n        /* \"contracts/TokenUSDt_flattened.sol\":18375:18376  0 */\n      0x00\n        /* \"contracts/TokenUSDt_flattened.sol\":18346:18378  ERC20InvalidReceiver(address(0)) */\n      mload(0x40)\n      0xec442f0500000000000000000000000000000000000000000000000000000000\n      dup2\n      mstore\n      0x04\n      add\n      tag_189\n      swap2\n      swap1\n      tag_71\n      jump\t// in\n    tag_189:\n      mload(0x40)\n      dup1\n      swap2\n      sub\n      swap1\n      revert\n        /* \"contracts/TokenUSDt_flattened.sol\":18298:18389  if (account == address(0)) {... */\n    tag_188:\n        /* \"contracts/TokenUSDt_flattened.sol\":18398:18433  _update(address(0), account, value) */\n      tag_190\n        /* \"contracts/TokenUSDt_flattened.sol\":18414:18415  0 */\n      0x00\n        /* \"contracts/TokenUSDt_flattened.sol\":18418:18425  account */\n      dup4\n        /* \"contracts/TokenUSDt_flattened.sol\":18427:18432  value */\n      dup4\n        /* \"contracts/TokenUSDt_flattened.sol\":18398:18405  _update */\n      tag_180\n        /* \"contracts/TokenUSDt_flattened.sol\":18398:18433  _update(address(0), account, value) */\n      jump\t// in\n    tag_190:\n        /* \"contracts/TokenUSDt_flattened.sol\":18232:18440  function _mint(address account, uint256 value) internal {... */\n      pop\n      pop\n      jump\t// out\n        /* \"contracts/TokenUSDt_flattened.sol\":24557:24744  function _transferOwnership(address newOwner) internal virtual {... */\n    tag_131:\n        /* \"contracts/TokenUSDt_flattened.sol\":24630:24646  address oldOwner */\n      0x00\n        /* \"contracts/TokenUSDt_flattened.sol\":24649:24655  _owner */\n      0x05\n      0x00\n      swap1\n      sload\n      swap1\n      0x0100\n      exp\n      swap1\n      div\n      0xffffffffffffffffffffffffffffffffffffffff\n      and\n        /* \"contracts/TokenUSDt_flattened.sol\":24630:24655  address oldOwner = _owner */\n      swap1\n      pop\n        /* \"contracts/TokenUSDt_flattened.sol\":24674:24682  newOwner */\n      dup2\n        /* \"contracts/TokenUSDt_flattened.sol\":24665:24671  _owner */\n      0x05\n      0x00\n        /* \"contracts/TokenUSDt_flattened.sol\":24665:24682  _owner = newOwner */\n      0x0100\n      exp\n      dup2\n      sload\n      dup2\n      0xffffffffffffffffffffffffffffffffffffffff\n      mul\n      not\n      and\n      swap1\n      dup4\n      0xffffffffffffffffffffffffffffffffffffffff\n      and\n      mul\n      or\n      swap1\n      sstore\n      pop\n        /* \"contracts/TokenUSDt_flattened.sol\":24728:24736  newOwner */\n      dup2\n        /* \"contracts/TokenUSDt_flattened.sol\":24697:24737  OwnershipTransferred(oldOwner, newOwner) */\n      0xffffffffffffffffffffffffffffffffffffffff\n      and\n        /* \"contracts/TokenUSDt_flattened.sol\":24718:24726  oldOwner */\n      dup2\n        /* \"contracts/TokenUSDt_flattened.sol\":24697:24737  OwnershipTransferred(oldOwner, newOwner) */\n      0xffffffffffffffffffffffffffffffffffffffff\n      and\n      0x8be0079c531659141344cd1fd0a4f28419497f9722a3daafe3b4186f6b6457e0\n      mload(0x40)\n      mload(0x40)\n      dup1\n      swap2\n      sub\n      swap1\n      log3\n        /* \"contracts/TokenUSDt_flattened.sol\":24620:24744  {... */\n      pop\n        /* \"contracts/TokenUSDt_flattened.sol\":24557:24744  function _transferOwnership(address newOwner) internal virtual {... */\n      pop\n      jump\t// out\n        /* \"contracts/TokenUSDt_flattened.sol\":18758:18964  function _burn(address account, uint256 value) internal {... */\n    tag_149:\n        /* \"contracts/TokenUSDt_flattened.sol\":18847:18848  0 */\n      0x00\n        /* \"contracts/TokenUSDt_flattened.sol\":18828:18849  account == address(0) */\n      0xffffffffffffffffffffffffffffffffffffffff\n      and\n        /* \"contracts/TokenUSDt_flattened.sol\":18828:18835  account */\n      dup3\n        /* \"contracts/TokenUSDt_flattened.sol\":18828:18849  account == address(0) */\n      0xffffffffffffffffffffffffffffffffffffffff\n      and\n      sub\n        /* \"contracts/TokenUSDt_flattened.sol\":18824:18913  if (account == address(0)) {... */\n      tag_193\n      jumpi\n        /* \"contracts/TokenUSDt_flattened.sol\":18899:18900  0 */\n      0x00\n        /* \"contracts/TokenUSDt_flattened.sol\":18872:18902  ERC20InvalidSender(address(0)) */\n      mload(0x40)\n      0x96c6fd1e00000000000000000000000000000000000000000000000000000000\n      dup2\n      mstore\n      0x04\n      add\n      tag_194\n      swap2\n      swap1\n      tag_71\n      jump\t// in\n    tag_194:\n      mload(0x40)\n      dup1\n      swap2\n      sub\n      swap1\n      revert\n        /* \"contracts/TokenUSDt_flattened.sol\":18824:18913  if (account == address(0)) {... */\n    tag_193:\n        /* \"contracts/TokenUSDt_flattened.sol\":18922:18957  _update(account, address(0), value) */\n      tag_195\n        /* \"contracts/TokenUSDt_flattened.sol\":18930:18937  account */\n      dup3\n        /* \"contracts/TokenUSDt_flattened.sol\":18947:18948  0 */\n      0x00\n        /* \"contracts/TokenUSDt_flattened.sol\":18951:18956  value */\n      dup4\n        /* \"contracts/TokenUSDt_flattened.sol\":18922:18929  _update */\n      tag_180\n        /* \"contracts/TokenUSDt_flattened.sol\":18922:18957  _update(account, address(0), value) */\n      jump\t// in\n    tag_195:\n        /* \"contracts/TokenUSDt_flattened.sol\":18758:18964  function _burn(address account, uint256 value) internal {... */\n      pop\n      pop\n      jump\t// out\n        /* \"contracts/TokenUSDt_flattened.sol\":20475:20907  function _approve(address owner, address spender, uint256 value, bool emitEvent) internal virtual {... */\n    tag_166:\n        /* \"contracts/TokenUSDt_flattened.sol\":20604:20605  0 */\n      0x00\n        /* \"contracts/TokenUSDt_flattened.sol\":20587:20606  owner == address(0) */\n      0xffffffffffffffffffffffffffffffffffffffff\n      and\n        /* \"contracts/TokenUSDt_flattened.sol\":20587:20592  owner */\n      dup5\n        /* \"contracts/TokenUSDt_flattened.sol\":20587:20606  owner == address(0) */\n      0xffffffffffffffffffffffffffffffffffffffff\n      and\n      sub\n        /* \"contracts/TokenUSDt_flattened.sol\":20583:20672  if (owner == address(0)) {... */\n      tag_197\n      jumpi\n        /* \"contracts/TokenUSDt_flattened.sol\":20658:20659  0 */\n      0x00\n        /* \"contracts/TokenUSDt_flattened.sol\":20629:20661  ERC20InvalidApprover(address(0)) */\n      mload(0x40)\n      0xe602df0500000000000000000000000000000000000000000000000000000000\n      dup2\n      mstore\n      0x04\n      add\n      tag_198\n      swap2\n      swap1\n      tag_71\n      jump\t// in\n    tag_198:\n      mload(0x40)\n      dup1\n      swap2\n      sub\n      swap1\n      revert\n        /* \"contracts/TokenUSDt_flattened.sol\":20583:20672  if (owner == address(0)) {... */\n    tag_197:\n        /* \"contracts/TokenUSDt_flattened.sol\":20704:20705  0 */\n      0x00\n        /* \"contracts/TokenUSDt_flattened.sol\":20685:20706  spender == address(0) */\n      0xffffffffffffffffffffffffffffffffffffffff\n      and\n        /* \"contracts/TokenUSDt_flattened.sol\":20685:20692  spender */\n      dup4\n        /* \"contracts/TokenUSDt_flattened.sol\":20685:20706  spender == address(0) */\n      0xffffffffffffffffffffffffffffffffffffffff\n      and\n      sub\n        /* \"contracts/TokenUSDt_flattened.sol\":20681:20771  if (spender == address(0)) {... */\n      tag_199\n      jumpi\n        /* \"contracts/TokenUSDt_flattened.sol\":20757:20758  0 */\n      0x00\n        /* \"contracts/TokenUSDt_flattened.sol\":20729:20760  ERC20InvalidSpender(address(0)) */\n      mload(0x40)\n      0x94280d6200000000000000000000000000000000000000000000000000000000\n      dup2\n      mstore\n      0x04\n      add\n      tag_200\n      swap2\n      swap1\n      tag_71\n      jump\t// in\n    tag_200:\n      mload(0x40)\n      dup1\n      swap2\n      sub\n      swap1\n      revert\n        /* \"contracts/TokenUSDt_flattened.sol\":20681:20771  if (spender == address(0)) {... */\n    tag_199:\n        /* \"contracts/TokenUSDt_flattened.sol\":20810:20815  value */\n      dup2\n        /* \"contracts/TokenUSDt_flattened.sol\":20780:20791  _allowances */\n      0x01\n        /* \"contracts/TokenUSDt_flattened.sol\":20780:20798  _allowances[owner] */\n      0x00\n        /* \"contracts/TokenUSDt_flattened.sol\":20792:20797  owner */\n      dup7\n        /* \"contracts/TokenUSDt_flattened.sol\":20780:20798  _allowances[owner] */\n      0xffffffffffffffffffffffffffffffffffffffff\n      and\n      0xffffffffffffffffffffffffffffffffffffffff\n      and\n      dup2\n      mstore\n      0x20\n      add\n      swap1\n      dup2\n      mstore\n      0x20\n      add\n      0x00\n      keccak256\n        /* \"contracts/TokenUSDt_flattened.sol\":20780:20807  _allowances[owner][spender] */\n      0x00\n        /* \"contracts/TokenUSDt_flattened.sol\":20799:20806  spender */\n      dup6\n        /* \"contracts/TokenUSDt_flattened.sol\":20780:20807  _allowances[owner][spender] */\n      0xffffffffffffffffffffffffffffffffffffffff\n      and\n      0xffffffffffffffffffffffffffffffffffffffff\n      and\n      dup2\n      mstore\n      0x20\n      add\n      swap1\n      dup2\n      mstore\n      0x20\n      add\n      0x00\n      keccak256\n        /* \"contracts/TokenUSDt_flattened.sol\":20780:20815  _allowances[owner][spender] = value */\n      dup2\n      swap1\n      sstore\n      pop\n        /* \"contracts/TokenUSDt_flattened.sol\":20829:20838  emitEvent */\n      dup1\n        /* \"contracts/TokenUSDt_flattened.sol\":20825:20901  if (emitEvent) {... */\n      iszero\n      tag_201\n      jumpi\n        /* \"contracts/TokenUSDt_flattened.sol\":20875:20882  spender */\n      dup3\n        /* \"contracts/TokenUSDt_flattened.sol\":20859:20890  Approval(owner, spender, value) */\n      0xffffffffffffffffffffffffffffffffffffffff\n      and\n        /* \"contracts/TokenUSDt_flattened.sol\":20868:20873  owner */\n      dup5\n        /* \"contracts/TokenUSDt_flattened.sol\":20859:20890  Approval(owner, spender, value) */\n      0xffffffffffffffffffffffffffffffffffffffff\n      and\n      0x8c5be1e5ebec7d5bd14f71427d1e84f3dd0314c0f7b2291e5b200ac8c7c3b925\n        /* \"contracts/TokenUSDt_flattened.sol\":20884:20889  value */\n      dup5\n        /* \"contracts/TokenUSDt_flattened.sol\":20859:20890  Approval(owner, spender, value) */\n      mload(0x40)\n      tag_202\n      swap2\n      swap1\n      tag_37\n      jump\t// in\n    tag_202:\n      mload(0x40)\n      dup1\n      swap2\n      sub\n      swap1\n      log3\n        /* \"contracts/TokenUSDt_flattened.sol\":20825:20901  if (emitEvent) {... */\n    tag_201:\n        /* \"contracts/TokenUSDt_flattened.sol\":20475:20907  function _approve(address owner, address spender, uint256 value, bool emitEvent) internal virtual {... */\n      pop\n      pop\n      pop\n      pop\n      jump\t// out\n        /* \"contracts/TokenUSDt_flattened.sol\":16782:17889  function _update(address from, address to, uint256 value) internal virtual {... */\n    tag_180:\n        /* \"contracts/TokenUSDt_flattened.sol\":16887:16888  0 */\n      0x00\n        /* \"contracts/TokenUSDt_flattened.sol\":16871:16889  from == address(0) */\n      0xffffffffffffffffffffffffffffffffffffffff\n      and\n        /* \"contracts/TokenUSDt_flattened.sol\":16871:16875  from */\n      dup4\n        /* \"contracts/TokenUSDt_flattened.sol\":16871:16889  from == address(0) */\n      0xffffffffffffffffffffffffffffffffffffffff\n      and\n      sub\n        /* \"contracts/TokenUSDt_flattened.sol\":16867:17407  if (from == address(0)) {... */\n      tag_204\n      jumpi\n        /* \"contracts/TokenUSDt_flattened.sol\":17023:17028  value */\n      dup1\n        /* \"contracts/TokenUSDt_flattened.sol\":17007:17019  _totalSupply */\n      0x02\n      0x00\n        /* \"contracts/TokenUSDt_flattened.sol\":17007:17028  _totalSupply += value */\n      dup3\n      dup3\n      sload\n      tag_205\n      swap2\n      swap1\n      tag_206\n      jump\t// in\n    tag_205:\n      swap3\n      pop\n      pop\n      dup2\n      swap1\n      sstore\n      pop\n        /* \"contracts/TokenUSDt_flattened.sol\":16867:17407  if (from == address(0)) {... */\n      jump(tag_207)\n    tag_204:\n        /* \"contracts/TokenUSDt_flattened.sol\":17059:17078  uint256 fromBalance */\n      0x00\n        /* \"contracts/TokenUSDt_flattened.sol\":17081:17090  _balances */\n      dup1\n        /* \"contracts/TokenUSDt_flattened.sol\":17081:17096  _balances[from] */\n      0x00\n        /* \"contracts/TokenUSDt_flattened.sol\":17091:17095  from */\n      dup6\n        /* \"contracts/TokenUSDt_flattened.sol\":17081:17096  _balances[from] */\n      0xffffffffffffffffffffffffffffffffffffffff\n      and\n      0xffffffffffffffffffffffffffffffffffffffff\n      and\n      dup2\n      mstore\n      0x20\n      add\n      swap1\n      dup2\n      mstore\n      0x20\n      add\n      0x00\n      keccak256\n      sload\n        /* \"contracts/TokenUSDt_flattened.sol\":17059:17096  uint256 fromBalance = _balances[from] */\n      swap1\n      pop\n        /* \"contracts/TokenUSDt_flattened.sol\":17128:17133  value */\n      dup2\n        /* \"contracts/TokenUSDt_flattened.sol\":17114:17125  fromBalance */\n      dup2\n        /* \"contracts/TokenUSDt_flattened.sol\":17114:17133  fromBalance < value */\n      lt\n        /* \"contracts/TokenUSDt_flattened.sol\":17110:17225  if (fromBalance < value) {... */\n      iszero\n      tag_208\n      jumpi\n        /* \"contracts/TokenUSDt_flattened.sol\":17185:17189  from */\n      dup4\n        /* \"contracts/TokenUSDt_flattened.sol\":17191:17202  fromBalance */\n      dup2\n        /* \"contracts/TokenUSDt_flattened.sol\":17204:17209  value */\n      dup4\n        /* \"contracts/TokenUSDt_flattened.sol\":17160:17210  ERC20InsufficientBalance(from, fromBalance, value) */\n      mload(0x40)\n      0xe450d38c00000000000000000000000000000000000000000000000000000000\n      dup2\n      mstore\n      0x04\n      add\n      tag_209\n      swap4\n      swap3\n      swap2\n      swap1\n      tag_172\n      jump\t// in\n    tag_209:\n      mload(0x40)\n      dup1\n      swap2\n      sub\n      swap1\n      revert\n        /* \"contracts/TokenUSDt_flattened.sol\":17110:17225  if (fromBalance < value) {... */\n    tag_208:\n        /* \"contracts/TokenUSDt_flattened.sol\":17377:17382  value */\n      dup2\n        /* \"contracts/TokenUSDt_flattened.sol\":17363:17374  fromBalance */\n      dup2\n        /* \"contracts/TokenUSDt_flattened.sol\":17363:17382  fromBalance - value */\n      sub\n        /* \"contracts/TokenUSDt_flattened.sol\":17345:17354  _balances */\n      0x00\n        /* \"contracts/TokenUSDt_flattened.sol\":17345:17360  _balances[from] */\n      dup1\n        /* \"contracts/TokenUSDt_flattened.sol\":17355:17359  from */\n      dup7\n        /* \"contracts/TokenUSDt_flattened.sol\":17345:17360  _balances[from] */\n      0xffffffffffffffffffffffffffffffffffffffff\n      and\n      0xffffffffffffffffffffffffffffffffffffffff\n      and\n      dup2\n      mstore\n      0x20\n      add\n      swap1\n      dup2\n      mstore\n      0x20\n      add\n      0x00\n      keccak256\n        /* \"contracts/TokenUSDt_flattened.sol\":17345:17382  _balances[from] = fromBalance - value */\n      dup2\n      swap1\n      sstore\n      pop\n        /* \"contracts/TokenUSDt_flattened.sol\":17045:17407  {... */\n      pop\n        /* \"contracts/TokenUSDt_flattened.sol\":16867:17407  if (from == address(0)) {... */\n    tag_207:\n        /* \"contracts/TokenUSDt_flattened.sol\":17435:17436  0 */\n      0x00\n        /* \"contracts/TokenUSDt_flattened.sol\":17421:17437  to == address(0) */\n      0xffffffffffffffffffffffffffffffffffffffff\n      and\n        /* \"contracts/TokenUSDt_flattened.sol\":17421:17423  to */\n      dup3\n        /* \"contracts/TokenUSDt_flattened.sol\":17421:17437  to == address(0) */\n      0xffffffffffffffffffffffffffffffffffffffff\n      and\n      sub\n        /* \"contracts/TokenUSDt_flattened.sol\":17417:17842  if (to == address(0)) {... */\n      tag_210\n      jumpi\n        /* \"contracts/TokenUSDt_flattened.sol\":17600:17605  value */\n      dup1\n        /* \"contracts/TokenUSDt_flattened.sol\":17584:17596  _totalSupply */\n      0x02\n      0x00\n        /* \"contracts/TokenUSDt_flattened.sol\":17584:17605  _totalSupply -= value */\n      dup3\n      dup3\n      sload\n      sub\n      swap3\n      pop\n      pop\n      dup2\n      swap1\n      sstore\n      pop\n        /* \"contracts/TokenUSDt_flattened.sol\":17417:17842  if (to == address(0)) {... */\n      jump(tag_211)\n    tag_210:\n        /* \"contracts/TokenUSDt_flattened.sol\":17812:17817  value */\n      dup1\n        /* \"contracts/TokenUSDt_flattened.sol\":17795:17804  _balances */\n      0x00\n        /* \"contracts/TokenUSDt_flattened.sol\":17795:17808  _balances[to] */\n      dup1\n        /* \"contracts/TokenUSDt_flattened.sol\":17805:17807  to */\n      dup5\n        /* \"contracts/TokenUSDt_flattened.sol\":17795:17808  _balances[to] */\n      0xffffffffffffffffffffffffffffffffffffffff\n      and\n      0xffffffffffffffffffffffffffffffffffffffff\n      and\n      dup2\n      mstore\n      0x20\n      add\n      swap1\n      dup2\n      mstore\n      0x20\n      add\n      0x00\n      keccak256\n      0x00\n        /* \"contracts/TokenUSDt_flattened.sol\":17795:17817  _balances[to] += value */\n      dup3\n      dup3\n      sload\n      add\n      swap3\n      pop\n      pop\n      dup2\n      swap1\n      sstore\n      pop\n        /* \"contracts/TokenUSDt_flattened.sol\":17417:17842  if (to == address(0)) {... */\n    tag_211:\n        /* \"contracts/TokenUSDt_flattened.sol\":17872:17874  to */\n      dup2\n        /* \"contracts/TokenUSDt_flattened.sol\":17857:17882  Transfer(from, to, value) */\n      0xffffffffffffffffffffffffffffffffffffffff\n      and\n        /* \"contracts/TokenUSDt_flattened.sol\":17866:17870  from */\n      dup4\n        /* \"contracts/TokenUSDt_flattened.sol\":17857:17882  Transfer(from, to, value) */\n      0xffffffffffffffffffffffffffffffffffffffff\n      and\n      0xddf252ad1be2c89b69c2b068fc378daa952ba7f163c4a11628f55a4df523b3ef\n        /* \"contracts/TokenUSDt_flattened.sol\":17876:17881  value */\n      dup4\n        /* \"contracts/TokenUSDt_flattened.sol\":17857:17882  Transfer(from, to, value) */\n      mload(0x40)\n      tag_212\n      swap2\n      swap1\n      tag_37\n      jump\t// in\n    tag_212:\n      mload(0x40)\n      dup1\n      swap2\n      sub\n      swap1\n      log3\n        /* \"contracts/TokenUSDt_flattened.sol\":16782:17889  function _update(address from, address to, uint256 value) internal virtual {... */\n      pop\n      pop\n      pop\n      jump\t// out\n        /* \"#utility.yul\":7:106   */\n    tag_213:\n        /* \"#utility.yul\":59:65   */\n      0x00\n        /* \"#utility.yul\":93:98   */\n      dup2\n        /* \"#utility.yul\":87:99   */\n      mload\n        /* \"#utility.yul\":77:99   */\n      swap1\n      pop\n        /* \"#utility.yul\":7:106   */\n      swap2\n      swap1\n      pop\n      jump\t// out\n        /* \"#utility.yul\":112:281   */\n    tag_214:\n        /* \"#utility.yul\":196:207   */\n      0x00\n        /* \"#utility.yul\":230:236   */\n      dup3\n        /* \"#utility.yul\":225:228   */\n      dup3\n        /* \"#utility.yul\":218:237   */\n      mstore\n        /* \"#utility.yul\":270:274   */\n      0x20\n        /* \"#utility.yul\":265:268   */\n      dup3\n        /* \"#utility.yul\":261:275   */\n      add\n        /* \"#utility.yul\":246:275   */\n      swap1\n      pop\n        /* \"#utility.yul\":112:281   */\n      swap3\n      swap2\n      pop\n      pop\n      jump\t// out\n        /* \"#utility.yul\":287:533   */\n    tag_215:\n        /* \"#utility.yul\":368:369   */\n      0x00\n        /* \"#utility.yul\":378:491   */\n    tag_241:\n        /* \"#utility.yul\":392:398   */\n      dup4\n        /* \"#utility.yul\":389:390   */\n      dup2\n        /* \"#utility.yul\":386:399   */\n      lt\n        /* \"#utility.yul\":378:491   */\n      iszero\n      tag_243\n      jumpi\n        /* \"#utility.yul\":477:478   */\n      dup1\n        /* \"#utility.yul\":472:475   */\n      dup3\n        /* \"#utility.yul\":468:479   */\n      add\n        /* \"#utility.yul\":462:480   */\n      mload\n        /* \"#utility.yul\":458:459   */\n      dup2\n        /* \"#utility.yul\":453:456   */\n      dup5\n        /* \"#utility.yul\":449:460   */\n      add\n        /* \"#utility.yul\":442:481   */\n      mstore\n        /* \"#utility.yul\":414:416   */\n      0x20\n        /* \"#utility.yul\":411:412   */\n      dup2\n        /* \"#utility.yul\":407:417   */\n      add\n        /* \"#utility.yul\":402:417   */\n      swap1\n      pop\n        /* \"#utility.yul\":378:491   */\n      jump(tag_241)\n    tag_243:\n        /* \"#utility.yul\":525:526   */\n      0x00\n        /* \"#utility.yul\":516:522   */\n      dup5\n        /* \"#utility.yul\":511:514   */\n      dup5\n        /* \"#utility.yul\":507:523   */\n      add\n        /* \"#utility.yul\":500:527   */\n      mstore\n        /* \"#utility.yul\":349:533   */\n      pop\n        /* \"#utility.yul\":287:533   */\n      pop\n      pop\n      pop\n      jump\t// out\n        /* \"#utility.yul\":539:641   */\n    tag_216:\n        /* \"#utility.yul\":580:586   */\n      0x00\n        /* \"#utility.yul\":631:633   */\n      0x1f\n        /* \"#utility.yul\":627:634   */\n      not\n        /* \"#utility.yul\":622:624   */\n      0x1f\n        /* \"#utility.yul\":615:620   */\n      dup4\n        /* \"#utility.yul\":611:625   */\n      add\n        /* \"#utility.yul\":607:635   */\n      and\n        /* \"#utility.yul\":597:635   */\n      swap1\n      pop\n        /* \"#utility.yul\":539:641   */\n      swap2\n      swap1\n      pop\n      jump\t// out\n        /* \"#utility.yul\":647:1024   */\n    tag_217:\n        /* \"#utility.yul\":735:738   */\n      0x00\n        /* \"#utility.yul\":763:802   */\n      tag_246\n        /* \"#utility.yul\":796:801   */\n      dup3\n        /* \"#utility.yul\":763:802   */\n      tag_213\n      jump\t// in\n    tag_246:\n        /* \"#utility.yul\":818:889   */\n      tag_247\n        /* \"#utility.yul\":882:888   */\n      dup2\n        /* \"#utility.yul\":877:880   */\n      dup6\n        /* \"#utility.yul\":818:889   */\n      tag_214\n      jump\t// in\n    tag_247:\n        /* \"#utility.yul\":811:889   */\n      swap4\n      pop\n        /* \"#utility.yul\":898:963   */\n      tag_248\n        /* \"#utility.yul\":956:962   */\n      dup2\n        /* \"#utility.yul\":951:954   */\n      dup6\n        /* \"#utility.yul\":944:948   */\n      0x20\n        /* \"#utility.yul\":937:942   */\n      dup7\n        /* \"#utility.yul\":933:949   */\n      add\n        /* \"#utility.yul\":898:963   */\n      tag_215\n      jump\t// in\n    tag_248:\n        /* \"#utility.yul\":988:1017   */\n      tag_249\n        /* \"#utility.yul\":1010:1016   */\n      dup2\n        /* \"#utility.yul\":988:1017   */\n      tag_216\n      jump\t// in\n    tag_249:\n        /* \"#utility.yul\":983:986   */\n      dup5\n        /* \"#utility.yul\":979:1018   */\n      add\n        /* \"#utility.yul\":972:1018   */\n      swap2\n      pop\n        /* \"#utility.yul\":739:1024   */\n      pop\n        /* \"#utility.yul\":647:1024   */\n      swap3\n      swap2\n      pop\n      pop\n      jump\t// out\n        /* \"#utility.yul\":1030:1343   */\n    tag_27:\n        /* \"#utility.yul\":1143:1147   */\n      0x00\n        /* \"#utility.yul\":1181:1183   */\n      0x20\n        /* \"#utility.yul\":1170:1179   */\n      dup3\n        /* \"#utility.yul\":1166:1184   */\n      add\n        /* \"#utility.yul\":1158:1184   */\n      swap1\n      pop\n        /* \"#utility.yul\":1230:1239   */\n      dup2\n        /* \"#utility.yul\":1224:1228   */\n      dup2\n        /* \"#utility.yul\":1220:1240   */\n      sub\n        /* \"#utility.yul\":1216:1217   */\n      0x00\n        /* \"#utility.yul\":1205:1214   */\n      dup4\n        /* \"#utility.yul\":1201:1218   */\n      add\n        /* \"#utility.yul\":1194:1241   */\n      mstore\n        /* \"#utility.yul\":1258:1336   */\n      tag_251\n        /* \"#utility.yul\":1331:1335   */\n      dup2\n        /* \"#utility.yul\":1322:1328   */\n      dup5\n        /* \"#utility.yul\":1258:1336   */\n      tag_217\n      jump\t// in\n    tag_251:\n        /* \"#utility.yul\":1250:1336   */\n      swap1\n      pop\n        /* \"#utility.yul\":1030:1343   */\n      swap3\n      swap2\n      pop\n      pop\n      jump\t// out\n        /* \"#utility.yul\":1430:1547   */\n    tag_219:\n        /* \"#utility.yul\":1539:1540   */\n      0x00\n        /* \"#utility.yul\":1536:1537   */\n      dup1\n        /* \"#utility.yul\":1529:1541   */\n      revert\n        /* \"#utility.yul\":1676:1802   */\n    tag_221:\n        /* \"#utility.yul\":1713:1720   */\n      0x00\n        /* \"#utility.yul\":1753:1795   */\n      0xffffffffffffffffffffffffffffffffffffffff\n        /* \"#utility.yul\":1746:1751   */\n      dup3\n        /* \"#utility.yul\":1742:1796   */\n      and\n        /* \"#utility.yul\":1731:1796   */\n      swap1\n      pop\n        /* \"#utility.yul\":1676:1802   */\n      swap2\n      swap1\n      pop\n      jump\t// out\n        /* \"#utility.yul\":1808:1904   */\n    tag_222:\n        /* \"#utility.yul\":1845:1852   */\n      0x00\n        /* \"#utility.yul\":1874:1898   */\n      tag_257\n        /* \"#utility.yul\":1892:1897   */\n      dup3\n        /* \"#utility.yul\":1874:1898   */\n      tag_221\n      jump\t// in\n    tag_257:\n        /* \"#utility.yul\":1863:1898   */\n      swap1\n      pop\n        /* \"#utility.yul\":1808:1904   */\n      swap2\n      swap1\n      pop\n      jump\t// out\n        /* \"#utility.yul\":1910:2032   */\n    tag_223:\n        /* \"#utility.yul\":1983:2007   */\n      tag_259\n        /* \"#utility.yul\":2001:2006   */\n      dup2\n        /* \"#utility.yul\":1983:2007   */\n      tag_222\n      jump\t// in\n    tag_259:\n        /* \"#utility.yul\":1976:1981   */\n      dup2\n        /* \"#utility.yul\":1973:2008   */\n      eq\n        /* \"#utility.yul\":1963:2026   */\n      tag_260\n      jumpi\n        /* \"#utility.yul\":2022:2023   */\n      0x00\n        /* \"#utility.yul\":2019:2020   */\n      dup1\n        /* \"#utility.yul\":2012:2024   */\n      revert\n        /* \"#utility.yul\":1963:2026   */\n    tag_260:\n        /* \"#utility.yul\":1910:2032   */\n      pop\n      jump\t// out\n        /* \"#utility.yul\":2038:2177   */\n    tag_224:\n        /* \"#utility.yul\":2084:2089   */\n      0x00\n        /* \"#utility.yul\":2122:2128   */\n      dup2\n        /* \"#utility.yul\":2109:2129   */\n      calldataload\n        /* \"#utility.yul\":2100:2129   */\n      swap1\n      pop\n        /* \"#utility.yul\":2138:2171   */\n      tag_262\n        /* \"#utility.yul\":2165:2170   */\n      dup2\n        /* \"#utility.yul\":2138:2171   */\n      tag_223\n      jump\t// in\n    tag_262:\n        /* \"#utility.yul\":2038:2177   */\n      swap3\n      swap2\n      pop\n      pop\n      jump\t// out\n        /* \"#utility.yul\":2183:2260   */\n    tag_225:\n        /* \"#utility.yul\":2220:2227   */\n      0x00\n        /* \"#utility.yul\":2249:2254   */\n      dup2\n        /* \"#utility.yul\":2238:2254   */\n      swap1\n      pop\n        /* \"#utility.yul\":2183:2260   */\n      swap2\n      swap1\n      pop\n      jump\t// out\n        /* \"#utility.yul\":2266:2388   */\n    tag_226:\n        /* \"#utility.yul\":2339:2363   */\n      tag_265\n        /* \"#utility.yul\":2357:2362   */\n      dup2\n        /* \"#utility.yul\":2339:2363   */\n      tag_225\n      jump\t// in\n    tag_265:\n        /* \"#utility.yul\":2332:2337   */\n      dup2\n        /* \"#utility.yul\":2329:2364   */\n      eq\n        /* \"#utility.yul\":2319:2382   */\n      tag_266\n      jumpi\n        /* \"#utility.yul\":2378:2379   */\n      0x00\n        /* \"#utility.yul\":2375:2376   */\n      dup1\n        /* \"#utility.yul\":2368:2380   */\n      revert\n        /* \"#utility.yul\":2319:2382   */\n    tag_266:\n        /* \"#utility.yul\":2266:2388   */\n      pop\n      jump\t// out\n        /* \"#utility.yul\":2394:2533   */\n    tag_227:\n        /* \"#utility.yul\":2440:2445   */\n      0x00\n        /* \"#utility.yul\":2478:2484   */\n      dup2\n        /* \"#utility.yul\":2465:2485   */\n      calldataload\n        /* \"#utility.yul\":2456:2485   */\n      swap1\n      pop\n        /* \"#utility.yul\":2494:2527   */\n      tag_268\n        /* \"#utility.yul\":2521:2526   */\n      dup2\n        /* \"#utility.yul\":2494:2527   */\n      tag_226\n      jump\t// in\n    tag_268:\n        /* \"#utility.yul\":2394:2533   */\n      swap3\n      swap2\n      pop\n      pop\n      jump\t// out\n        /* \"#utility.yul\":2539:3013   */\n    tag_30:\n        /* \"#utility.yul\":2607:2613   */\n      0x00\n        /* \"#utility.yul\":2615:2621   */\n      dup1\n        /* \"#utility.yul\":2664:2666   */\n      0x40\n        /* \"#utility.yul\":2652:2661   */\n      dup4\n        /* \"#utility.yul\":2643:2650   */\n      dup6\n        /* \"#utility.yul\":2639:2662   */\n      sub\n        /* \"#utility.yul\":2635:2667   */\n      slt\n        /* \"#utility.yul\":2632:2751   */\n      iszero\n      tag_270\n      jumpi\n        /* \"#utility.yul\":2670:2749   */\n      tag_271\n      tag_219\n      jump\t// in\n    tag_271:\n        /* \"#utility.yul\":2632:2751   */\n    tag_270:\n        /* \"#utility.yul\":2790:2791   */\n      0x00\n        /* \"#utility.yul\":2815:2868   */\n      tag_272\n        /* \"#utility.yul\":2860:2867   */\n      dup6\n        /* \"#utility.yul\":2851:2857   */\n      dup3\n        /* \"#utility.yul\":2840:2849   */\n      dup7\n        /* \"#utility.yul\":2836:2858   */\n      add\n        /* \"#utility.yul\":2815:2868   */\n      tag_224\n      jump\t// in\n    tag_272:\n        /* \"#utility.yul\":2805:2868   */\n      swap3\n      pop\n        /* \"#utility.yul\":2761:2878   */\n      pop\n        /* \"#utility.yul\":2917:2919   */\n      0x20\n        /* \"#utility.yul\":2943:2996   */\n      tag_273\n        /* \"#utility.yul\":2988:2995   */\n      dup6\n        /* \"#utility.yul\":2979:2985   */\n      dup3\n        /* \"#utility.yul\":2968:2977   */\n      dup7\n        /* \"#utility.yul\":2964:2986   */\n      add\n        /* \"#utility.yul\":2943:2996   */\n      tag_227\n      jump\t// in\n    tag_273:\n        /* \"#utility.yul\":2933:2996   */\n      swap2\n      pop\n        /* \"#utility.yul\":2888:3006   */\n      pop\n        /* \"#utility.yul\":2539:3013   */\n      swap3\n      pop\n      swap3\n      swap1\n      pop\n      jump\t// out\n        /* \"#utility.yul\":3019:3109   */\n    tag_228:\n        /* \"#utility.yul\":3053:3060   */\n      0x00\n        /* \"#utility.yul\":3096:3101   */\n      dup2\n        /* \"#utility.yul\":3089:3102   */\n      iszero\n        /* \"#utility.yul\":3082:3103   */\n      iszero\n        /* \"#utility.yul\":3071:3103   */\n      swap1\n      pop\n        /* \"#utility.yul\":3019:3109   */\n      swap2\n      swap1\n      pop\n      jump\t// out\n        /* \"#utility.yul\":3115:3224   */\n    tag_229:\n        /* \"#utility.yul\":3196:3217   */\n      tag_276\n        /* \"#utility.yul\":3211:3216   */\n      dup2\n        /* \"#utility.yul\":3196:3217   */\n      tag_228\n      jump\t// in\n    tag_276:\n        /* \"#utility.yul\":3191:3194   */\n      dup3\n        /* \"#utility.yul\":3184:3218   */\n      mstore\n        /* \"#utility.yul\":3115:3224   */\n      pop\n      pop\n      jump\t// out\n        /* \"#utility.yul\":3230:3440   */\n    tag_33:\n        /* \"#utility.yul\":3317:3321   */\n      0x00\n        /* \"#utility.yul\":3355:3357   */\n      0x20\n        /* \"#utility.yul\":3344:3353   */\n      dup3\n        /* \"#utility.yul\":3340:3358   */\n      add\n        /* \"#utility.yul\":3332:3358   */\n      swap1\n      pop\n        /* \"#utility.yul\":3368:3433   */\n      tag_278\n        /* \"#utility.yul\":3430:3431   */\n      0x00\n        /* \"#utility.yul\":3419:3428   */\n      dup4\n        /* \"#utility.yul\":3415:3432   */\n      add\n        /* \"#utility.yul\":3406:3412   */\n      dup5\n        /* \"#utility.yul\":3368:3433   */\n      tag_229\n      jump\t// in\n    tag_278:\n        /* \"#utility.yul\":3230:3440   */\n      swap3\n      swap2\n      pop\n      pop\n      jump\t// out\n        /* \"#utility.yul\":3446:3564   */\n    tag_230:\n        /* \"#utility.yul\":3533:3557   */\n      tag_280\n        /* \"#utility.yul\":3551:3556   */\n      dup2\n        /* \"#utility.yul\":3533:3557   */\n      tag_225\n      jump\t// in\n    tag_280:\n        /* \"#utility.yul\":3528:3531   */\n      dup3\n        /* \"#utility.yul\":3521:3558   */\n      mstore\n        /* \"#utility.yul\":3446:3564   */\n      pop\n      pop\n      jump\t// out\n        /* \"#utility.yul\":3570:3792   */\n    tag_37:\n        /* \"#utility.yul\":3663:3667   */\n      0x00\n        /* \"#utility.yul\":3701:3703   */\n      0x20\n        /* \"#utility.yul\":3690:3699   */\n      dup3\n        /* \"#utility.yul\":3686:3704   */\n      add\n        /* \"#utility.yul\":3678:3704   */\n      swap1\n      pop\n        /* \"#utility.yul\":3714:3785   */\n      tag_282\n        /* \"#utility.yul\":3782:3783   */\n      0x00\n        /* \"#utility.yul\":3771:3780   */\n      dup4\n        /* \"#utility.yul\":3767:3784   */\n      add\n        /* \"#utility.yul\":3758:3764   */\n      dup5\n        /* \"#utility.yul\":3714:3785   */\n      tag_230\n      jump\t// in\n    tag_282:\n        /* \"#utility.yul\":3570:3792   */\n      swap3\n      swap2\n      pop\n      pop\n      jump\t// out\n        /* \"#utility.yul\":3798:4417   */\n    tag_43:\n        /* \"#utility.yul\":3875:3881   */\n      0x00\n        /* \"#utility.yul\":3883:3889   */\n      dup1\n        /* \"#utility.yul\":3891:3897   */\n      0x00\n        /* \"#utility.yul\":3940:3942   */\n      0x60\n        /* \"#utility.yul\":3928:3937   */\n      dup5\n        /* \"#utility.yul\":3919:3926   */\n      dup7\n        /* \"#utility.yul\":3915:3938   */\n      sub\n        /* \"#utility.yul\":3911:3943   */\n      slt\n        /* \"#utility.yul\":3908:4027   */\n      iszero\n      tag_284\n      jumpi\n        /* \"#utility.yul\":3946:4025   */\n      tag_285\n      tag_219\n      jump\t// in\n    tag_285:\n        /* \"#utility.yul\":3908:4027   */\n    tag_284:\n        /* \"#utility.yul\":4066:4067   */\n      0x00\n        /* \"#utility.yul\":4091:4144   */\n      tag_286\n        /* \"#utility.yul\":4136:4143   */\n      dup7\n        /* \"#utility.yul\":4127:4133   */\n      dup3\n        /* \"#utility.yul\":4116:4125   */\n      dup8\n        /* \"#utility.yul\":4112:4134   */\n      add\n        /* \"#utility.yul\":4091:4144   */\n      tag_224\n      jump\t// in\n    tag_286:\n        /* \"#utility.yul\":4081:4144   */\n      swap4\n      pop\n        /* \"#utility.yul\":4037:4154   */\n      pop\n        /* \"#utility.yul\":4193:4195   */\n      0x20\n        /* \"#utility.yul\":4219:4272   */\n      tag_287\n        /* \"#utility.yul\":4264:4271   */\n      dup7\n        /* \"#utility.yul\":4255:4261   */\n      dup3\n        /* \"#utility.yul\":4244:4253   */\n      dup8\n        /* \"#utility.yul\":4240:4262   */\n      add\n        /* \"#utility.yul\":4219:4272   */\n      tag_224\n      jump\t// in\n    tag_287:\n        /* \"#utility.yul\":4209:4272   */\n      swap3\n      pop\n        /* \"#utility.yul\":4164:4282   */\n      pop\n        /* \"#utility.yul\":4321:4323   */\n      0x40\n        /* \"#utility.yul\":4347:4400   */\n      tag_288\n        /* \"#utility.yul\":4392:4399   */\n      dup7\n        /* \"#utility.yul\":4383:4389   */\n      dup3\n        /* \"#utility.yul\":4372:4381   */\n      dup8\n        /* \"#utility.yul\":4368:4390   */\n      add\n        /* \"#utility.yul\":4347:4400   */\n      tag_227\n      jump\t// in\n    tag_288:\n        /* \"#utility.yul\":4337:4400   */\n      swap2\n      pop\n        /* \"#utility.yul\":4292:4410   */\n      pop\n        /* \"#utility.yul\":3798:4417   */\n      swap3\n      pop\n      swap3\n      pop\n      swap3\n      jump\t// out\n        /* \"#utility.yul\":4423:4509   */\n    tag_231:\n        /* \"#utility.yul\":4458:4465   */\n      0x00\n        /* \"#utility.yul\":4498:4502   */\n      0xff\n        /* \"#utility.yul\":4491:4496   */\n      dup3\n        /* \"#utility.yul\":4487:4503   */\n      and\n        /* \"#utility.yul\":4476:4503   */\n      swap1\n      pop\n        /* \"#utility.yul\":4423:4509   */\n      swap2\n      swap1\n      pop\n      jump\t// out\n        /* \"#utility.yul\":4515:4627   */\n    tag_232:\n        /* \"#utility.yul\":4598:4620   */\n      tag_291\n        /* \"#utility.yul\":4614:4619   */\n      dup2\n        /* \"#utility.yul\":4598:4620   */\n      tag_231\n      jump\t// in\n    tag_291:\n        /* \"#utility.yul\":4593:4596   */\n      dup3\n        /* \"#utility.yul\":4586:4621   */\n      mstore\n        /* \"#utility.yul\":4515:4627   */\n      pop\n      pop\n      jump\t// out\n        /* \"#utility.yul\":4633:4847   */\n    tag_49:\n        /* \"#utility.yul\":4722:4726   */\n      0x00\n        /* \"#utility.yul\":4760:4762   */\n      0x20\n        /* \"#utility.yul\":4749:4758   */\n      dup3\n        /* \"#utility.yul\":4745:4763   */\n      add\n        /* \"#utility.yul\":4737:4763   */\n      swap1\n      pop\n        /* \"#utility.yul\":4773:4840   */\n      tag_293\n        /* \"#utility.yul\":4837:4838   */\n      0x00\n        /* \"#utility.yul\":4826:4835   */\n      dup4\n        /* \"#utility.yul\":4822:4839   */\n      add\n        /* \"#utility.yul\":4813:4819   */\n      dup5\n        /* \"#utility.yul\":4773:4840   */\n      tag_232\n      jump\t// in\n    tag_293:\n        /* \"#utility.yul\":4633:4847   */\n      swap3\n      swap2\n      pop\n      pop\n      jump\t// out\n        /* \"#utility.yul\":4853:5182   */\n    tag_55:\n        /* \"#utility.yul\":4912:4918   */\n      0x00\n        /* \"#utility.yul\":4961:4963   */\n      0x20\n        /* \"#utility.yul\":4949:4958   */\n      dup3\n        /* \"#utility.yul\":4940:4947   */\n      dup5\n        /* \"#utility.yul\":4936:4959   */\n      sub\n        /* \"#utility.yul\":4932:4964   */\n      slt\n        /* \"#utility.yul\":4929:5048   */\n      iszero\n      tag_295\n      jumpi\n        /* \"#utility.yul\":4967:5046   */\n      tag_296\n      tag_219\n      jump\t// in\n    tag_296:\n        /* \"#utility.yul\":4929:5048   */\n    tag_295:\n        /* \"#utility.yul\":5087:5088   */\n      0x00\n        /* \"#utility.yul\":5112:5165   */\n      tag_297\n        /* \"#utility.yul\":5157:5164   */\n      dup5\n        /* \"#utility.yul\":5148:5154   */\n      dup3\n        /* \"#utility.yul\":5137:5146   */\n      dup6\n        /* \"#utility.yul\":5133:5155   */\n      add\n        /* \"#utility.yul\":5112:5165   */\n      tag_224\n      jump\t// in\n    tag_297:\n        /* \"#utility.yul\":5102:5165   */\n      swap2\n      pop\n        /* \"#utility.yul\":5058:5175   */\n      pop\n        /* \"#utility.yul\":4853:5182   */\n      swap3\n      swap2\n      pop\n      pop\n      jump\t// out\n        /* \"#utility.yul\":5188:5306   */\n    tag_233:\n        /* \"#utility.yul\":5275:5299   */\n      tag_299\n        /* \"#utility.yul\":5293:5298   */\n      dup2\n        /* \"#utility.yul\":5275:5299   */\n      tag_222\n      jump\t// in\n    tag_299:\n        /* \"#utility.yul\":5270:5273   */\n      dup3\n        /* \"#utility.yul\":5263:5300   */\n      mstore\n        /* \"#utility.yul\":5188:5306   */\n      pop\n      pop\n      jump\t// out\n        /* \"#utility.yul\":5312:5534   */\n    tag_71:\n        /* \"#utility.yul\":5405:5409   */\n      0x00\n        /* \"#utility.yul\":5443:5445   */\n      0x20\n        /* \"#utility.yul\":5432:5441   */\n      dup3\n        /* \"#utility.yul\":5428:5446   */\n      add\n        /* \"#utility.yul\":5420:5446   */\n      swap1\n      pop\n        /* \"#utility.yul\":5456:5527   */\n      tag_301\n        /* \"#utility.yul\":5524:5525   */\n      0x00\n        /* \"#utility.yul\":5513:5522   */\n      dup4\n        /* \"#utility.yul\":5509:5526   */\n      add\n        /* \"#utility.yul\":5500:5506   */\n      dup5\n        /* \"#utility.yul\":5456:5527   */\n      tag_233\n      jump\t// in\n    tag_301:\n        /* \"#utility.yul\":5312:5534   */\n      swap3\n      swap2\n      pop\n      pop\n      jump\t// out\n        /* \"#utility.yul\":5540:6014   */\n    tag_88:\n        /* \"#utility.yul\":5608:5614   */\n      0x00\n        /* \"#utility.yul\":5616:5622   */\n      dup1\n        /* \"#utility.yul\":5665:5667   */\n      0x40\n        /* \"#utility.yul\":5653:5662   */\n      dup4\n        /* \"#utility.yul\":5644:5651   */\n      dup6\n        /* \"#utility.yul\":5640:5663   */\n      sub\n        /* \"#utility.yul\":5636:5668   */\n      slt\n        /* \"#utility.yul\":5633:5752   */\n      iszero\n      tag_303\n      jumpi\n        /* \"#utility.yul\":5671:5750   */\n      tag_304\n      tag_219\n      jump\t// in\n    tag_304:\n        /* \"#utility.yul\":5633:5752   */\n    tag_303:\n        /* \"#utility.yul\":5791:5792   */\n      0x00\n        /* \"#utility.yul\":5816:5869   */\n      tag_305\n        /* \"#utility.yul\":5861:5868   */\n      dup6\n        /* \"#utility.yul\":5852:5858   */\n      dup3\n        /* \"#utility.yul\":5841:5850   */\n      dup7\n        /* \"#utility.yul\":5837:5859   */\n      add\n        /* \"#utility.yul\":5816:5869   */\n      tag_224\n      jump\t// in\n    tag_305:\n        /* \"#utility.yul\":5806:5869   */\n      swap3\n      pop\n        /* \"#utility.yul\":5762:5879   */\n      pop\n        /* \"#utility.yul\":5918:5920   */\n      0x20\n        /* \"#utility.yul\":5944:5997   */\n      tag_306\n        /* \"#utility.yul\":5989:5996   */\n      dup6\n        /* \"#utility.yul\":5980:5986   */\n      dup3\n        /* \"#utility.yul\":5969:5978   */\n      dup7\n        /* \"#utility.yul\":5965:5987   */\n      add\n        /* \"#utility.yul\":5944:5997   */\n      tag_224\n      jump\t// in\n    tag_306:\n        /* \"#utility.yul\":5934:5997   */\n      swap2\n      pop\n        /* \"#utility.yul\":5889:6007   */\n      pop\n        /* \"#utility.yul\":5540:6014   */\n      swap3\n      pop\n      swap3\n      swap1\n      pop\n      jump\t// out\n        /* \"#utility.yul\":6020:6200   */\n    tag_234:\n        /* \"#utility.yul\":6068:6145   */\n      0x4e487b7100000000000000000000000000000000000000000000000000000000\n        /* \"#utility.yul\":6065:6066   */\n      0x00\n        /* \"#utility.yul\":6058:6146   */\n      mstore\n        /* \"#utility.yul\":6165:6169   */\n      0x22\n        /* \"#utility.yul\":6162:6163   */\n      0x04\n        /* \"#utility.yul\":6155:6170   */\n      mstore\n        /* \"#utility.yul\":6189:6193   */\n      0x24\n        /* \"#utility.yul\":6186:6187   */\n      0x00\n        /* \"#utility.yul\":6179:6194   */\n      revert\n        /* \"#utility.yul\":6206:6526   */\n    tag_96:\n        /* \"#utility.yul\":6250:6256   */\n      0x00\n        /* \"#utility.yul\":6287:6288   */\n      0x02\n        /* \"#utility.yul\":6281:6285   */\n      dup3\n        /* \"#utility.yul\":6277:6289   */\n      div\n        /* \"#utility.yul\":6267:6289   */\n      swap1\n      pop\n        /* \"#utility.yul\":6334:6335   */\n      0x01\n        /* \"#utility.yul\":6328:6332   */\n      dup3\n        /* \"#utility.yul\":6324:6336   */\n      and\n        /* \"#utility.yul\":6355:6373   */\n      dup1\n        /* \"#utility.yul\":6345:6426   */\n      tag_309\n      jumpi\n        /* \"#utility.yul\":6411:6415   */\n      0x7f\n        /* \"#utility.yul\":6403:6409   */\n      dup3\n        /* \"#utility.yul\":6399:6416   */\n      and\n        /* \"#utility.yul\":6389:6416   */\n      swap2\n      pop\n        /* \"#utility.yul\":6345:6426   */\n    tag_309:\n        /* \"#utility.yul\":6473:6475   */\n      0x20\n        /* \"#utility.yul\":6465:6471   */\n      dup3\n        /* \"#utility.yul\":6462:6476   */\n      lt\n        /* \"#utility.yul\":6442:6460   */\n      dup2\n        /* \"#utility.yul\":6439:6477   */\n      sub\n        /* \"#utility.yul\":6436:6520   */\n      tag_310\n      jumpi\n        /* \"#utility.yul\":6492:6510   */\n      tag_311\n      tag_234\n      jump\t// in\n    tag_311:\n        /* \"#utility.yul\":6436:6520   */\n    tag_310:\n        /* \"#utility.yul\":6257:6526   */\n      pop\n        /* \"#utility.yul\":6206:6526   */\n      swap2\n      swap1\n      pop\n      jump\t// out\n        /* \"#utility.yul\":6532:6712   */\n    tag_235:\n        /* \"#utility.yul\":6580:6657   */\n      0x4e487b7100000000000000000000000000000000000000000000000000000000\n        /* \"#utility.yul\":6577:6578   */\n      0x00\n        /* \"#utility.yul\":6570:6658   */\n      mstore\n        /* \"#utility.yul\":6677:6681   */\n      0x12\n        /* \"#utility.yul\":6674:6675   */\n      0x04\n        /* \"#utility.yul\":6667:6682   */\n      mstore\n        /* \"#utility.yul\":6701:6705   */\n      0x24\n        /* \"#utility.yul\":6698:6699   */\n      0x00\n        /* \"#utility.yul\":6691:6706   */\n      revert\n        /* \"#utility.yul\":6718:6898   */\n    tag_236:\n        /* \"#utility.yul\":6766:6843   */\n      0x4e487b7100000000000000000000000000000000000000000000000000000000\n        /* \"#utility.yul\":6763:6764   */\n      0x00\n        /* \"#utility.yul\":6756:6844   */\n      mstore\n        /* \"#utility.yul\":6863:6867   */\n      0x11\n        /* \"#utility.yul\":6860:6861   */\n      0x04\n        /* \"#utility.yul\":6853:6868   */\n      mstore\n        /* \"#utility.yul\":6887:6891   */\n      0x24\n        /* \"#utility.yul\":6884:6885   */\n      0x00\n        /* \"#utility.yul\":6877:6892   */\n      revert\n        /* \"#utility.yul\":6904:7089   */\n    tag_110:\n        /* \"#utility.yul\":6944:6945   */\n      0x00\n        /* \"#utility.yul\":6961:6981   */\n      tag_315\n        /* \"#utility.yul\":6979:6980   */\n      dup3\n        /* \"#utility.yul\":6961:6981   */\n      tag_225\n      jump\t// in\n    tag_315:\n        /* \"#utility.yul\":6956:6981   */\n      swap2\n      pop\n        /* \"#utility.yul\":6995:7015   */\n      tag_316\n        /* \"#utility.yul\":7013:7014   */\n      dup4\n        /* \"#utility.yul\":6995:7015   */\n      tag_225\n      jump\t// in\n    tag_316:\n        /* \"#utility.yul\":6990:7015   */\n      swap3\n      pop\n        /* \"#utility.yul\":7034:7035   */\n      dup3\n        /* \"#utility.yul\":7024:7059   */\n      tag_317\n      jumpi\n        /* \"#utility.yul\":7039:7057   */\n      tag_318\n      tag_235\n      jump\t// in\n    tag_318:\n        /* \"#utility.yul\":7024:7059   */\n    tag_317:\n        /* \"#utility.yul\":7081:7082   */\n      dup3\n        /* \"#utility.yul\":7078:7079   */\n      dup3\n        /* \"#utility.yul\":7074:7083   */\n      div\n        /* \"#utility.yul\":7069:7083   */\n      swap1\n      pop\n        /* \"#utility.yul\":6904:7089   */\n      swap3\n      swap2\n      pop\n      pop\n      jump\t// out\n        /* \"#utility.yul\":7095:7505   */\n    tag_124:\n        /* \"#utility.yul\":7135:7142   */\n      0x00\n        /* \"#utility.yul\":7158:7178   */\n      tag_320\n        /* \"#utility.yul\":7176:7177   */\n      dup3\n        /* \"#utility.yul\":7158:7178   */\n      tag_225\n      jump\t// in\n    tag_320:\n        /* \"#utility.yul\":7153:7178   */\n      swap2\n      pop\n        /* \"#utility.yul\":7192:7212   */\n      tag_321\n        /* \"#utility.yul\":7210:7211   */\n      dup4\n        /* \"#utility.yul\":7192:7212   */\n      tag_225\n      jump\t// in\n    tag_321:\n        /* \"#utility.yul\":7187:7212   */\n      swap3\n      pop\n        /* \"#utility.yul\":7247:7248   */\n      dup3\n        /* \"#utility.yul\":7244:7245   */\n      dup3\n        /* \"#utility.yul\":7240:7249   */\n      mul\n        /* \"#utility.yul\":7269:7299   */\n      tag_322\n        /* \"#utility.yul\":7287:7298   */\n      dup2\n        /* \"#utility.yul\":7269:7299   */\n      tag_225\n      jump\t// in\n    tag_322:\n        /* \"#utility.yul\":7258:7299   */\n      swap2\n      pop\n        /* \"#utility.yul\":7448:7449   */\n      dup3\n        /* \"#utility.yul\":7439:7446   */\n      dup3\n        /* \"#utility.yul\":7435:7450   */\n      div\n        /* \"#utility.yul\":7432:7433   */\n      dup5\n        /* \"#utility.yul\":7429:7451   */\n      eq\n        /* \"#utility.yul\":7409:7410   */\n      dup4\n        /* \"#utility.yul\":7402:7411   */\n      iszero\n        /* \"#utility.yul\":7382:7465   */\n      or\n        /* \"#utility.yul\":7359:7498   */\n      tag_323\n      jumpi\n        /* \"#utility.yul\":7478:7496   */\n      tag_324\n      tag_236\n      jump\t// in\n    tag_324:\n        /* \"#utility.yul\":7359:7498   */\n    tag_323:\n        /* \"#utility.yul\":7143:7505   */\n      pop\n        /* \"#utility.yul\":7095:7505   */\n      swap3\n      swap2\n      pop\n      pop\n      jump\t// out\n        /* \"#utility.yul\":7511:7953   */\n    tag_172:\n        /* \"#utility.yul\":7660:7664   */\n      0x00\n        /* \"#utility.yul\":7698:7700   */\n      0x60\n        /* \"#utility.yul\":7687:7696   */\n      dup3\n        /* \"#utility.yul\":7683:7701   */\n      add\n        /* \"#utility.yul\":7675:7701   */\n      swap1\n      pop\n        /* \"#utility.yul\":7711:7782   */\n      tag_326\n        /* \"#utility.yul\":7779:7780   */\n      0x00\n        /* \"#utility.yul\":7768:7777   */\n      dup4\n        /* \"#utility.yul\":7764:7781   */\n      add\n        /* \"#utility.yul\":7755:7761   */\n      dup7\n        /* \"#utility.yul\":7711:7782   */\n      tag_233\n      jump\t// in\n    tag_326:\n        /* \"#utility.yul\":7792:7864   */\n      tag_327\n        /* \"#utility.yul\":7860:7862   */\n      0x20\n        /* \"#utility.yul\":7849:7858   */\n      dup4\n        /* \"#utility.yul\":7845:7863   */\n      add\n        /* \"#utility.yul\":7836:7842   */\n      dup6\n        /* \"#utility.yul\":7792:7864   */\n      tag_230\n      jump\t// in\n    tag_327:\n        /* \"#utility.yul\":7874:7946   */\n      tag_328\n        /* \"#utility.yul\":7942:7944   */\n      0x40\n        /* \"#utility.yul\":7931:7940   */\n      dup4\n        /* \"#utility.yul\":7927:7945   */\n      add\n        /* \"#utility.yul\":7918:7924   */\n      dup5\n        /* \"#utility.yul\":7874:7946   */\n      tag_230\n      jump\t// in\n    tag_328:\n        /* \"#utility.yul\":7511:7953   */\n      swap5\n      swap4\n      pop\n      pop\n      pop\n      pop\n      jump\t// out\n        /* \"#utility.yul\":7959:8150   */\n    tag_206:\n        /* \"#utility.yul\":7999:8002   */\n      0x00\n        /* \"#utility.yul\":8018:8038   */\n      tag_330\n        /* \"#utility.yul\":8036:8037   */\n      dup3\n        /* \"#utility.yul\":8018:8038   */\n      tag_225\n      jump\t// in\n    tag_330:\n        /* \"#utility.yul\":8013:8038   */\n      swap2\n      pop\n        /* \"#utility.yul\":8052:8072   */\n      tag_331\n        /* \"#utility.yul\":8070:8071   */\n      dup4\n        /* \"#utility.yul\":8052:8072   */\n      tag_225\n      jump\t// in\n    tag_331:\n        /* \"#utility.yul\":8047:8072   */\n      swap3\n      pop\n        /* \"#utility.yul\":8095:8096   */\n      dup3\n        /* \"#utility.yul\":8092:8093   */\n      dup3\n        /* \"#utility.yul\":8088:8097   */\n      add\n        /* \"#utility.yul\":8081:8097   */\n      swap1\n      pop\n        /* \"#utility.yul\":8116:8119   */\n      dup1\n        /* \"#utility.yul\":8113:8114   */\n      dup3\n        /* \"#utility.yul\":8110:8120   */\n      gt\n        /* \"#utility.yul\":8107:8143   */\n      iszero\n      tag_332\n      jumpi\n        /* \"#utility.yul\":8123:8141   */\n      tag_333\n      tag_236\n      jump\t// in\n    tag_333:\n        /* \"#utility.yul\":8107:8143   */\n    tag_332:\n        /* \"#utility.yul\":7959:8150   */\n      swap3\n      swap2\n      pop\n      pop\n      jump\t// out\n\n    auxdata: 0xa2646970667358221220c5785e20bcef3c0a58da5c4a13ad190220eb74e0c6c1b41cfad789babd3a717364736f6c63430008140033\n}\n",
				"bytecode": {
					"linkReferences": {},
					"object": "608060405234801562000010575f80fd5b50336040518060400160405280600981526020017f55534420546f6b656e00000000000000000000000000000000000000000000008152506040518060400160405280600481526020017f555344740000000000000000000000000000000000000000000000000000000081525081600390816200008f91906200071b565b508060049081620000a191906200071b565b5050505f73ffffffffffffffffffffffffffffffffffffffff168173ffffffffffffffffffffffffffffffffffffffff160362000117575f6040517f1e4fbdf70000000000000000000000000000000000000000000000000000000081526004016200010e919062000842565b60405180910390fd5b62000128816200014660201b60201c565b50620001403364e8d4a510006200020960201b60201c565b6200092b565b5f60055f9054906101000a900473ffffffffffffffffffffffffffffffffffffffff1690508160055f6101000a81548173ffffffffffffffffffffffffffffffffffffffff021916908373ffffffffffffffffffffffffffffffffffffffff1602179055508173ffffffffffffffffffffffffffffffffffffffff168173ffffffffffffffffffffffffffffffffffffffff167f8be0079c531659141344cd1fd0a4f28419497f9722a3daafe3b4186f6b6457e060405160405180910390a35050565b5f73ffffffffffffffffffffffffffffffffffffffff168273ffffffffffffffffffffffffffffffffffffffff16036200027c575f6040517fec442f0500000000000000000000000000000000000000000000000000000000815260040162000273919062000842565b60405180910390fd5b6200028f5f83836200029360201b60201c565b5050565b5f73ffffffffffffffffffffffffffffffffffffffff168373ffffffffffffffffffffffffffffffffffffffff1603620002e7578060025f828254620002da91906200088a565b92505081905550620003b8565b5f805f8573ffffffffffffffffffffffffffffffffffffffff1673ffffffffffffffffffffffffffffffffffffffff1681526020019081526020015f205490508181101562000373578381836040517fe450d38c0000000000000000000000000000000000000000000000000000000081526004016200036a93929190620008d5565b60405180910390fd5b8181035f808673ffffffffffffffffffffffffffffffffffffffff1673ffffffffffffffffffffffffffffffffffffffff1681526020019081526020015f2081905550505b5f73ffffffffffffffffffffffffffffffffffffffff168273ffffffffffffffffffffffffffffffffffffffff160362000401578060025f82825403925050819055506200044b565b805f808473ffffffffffffffffffffffffffffffffffffffff1673ffffffffffffffffffffffffffffffffffffffff1681526020019081526020015f205f82825401925050819055505b8173ffffffffffffffffffffffffffffffffffffffff168373ffffffffffffffffffffffffffffffffffffffff167fddf252ad1be2c89b69c2b068fc378daa952ba7f163c4a11628f55a4df523b3ef83604051620004aa919062000910565b60405180910390a3505050565b5f81519050919050565b7f4e487b71000000000000000000000000000000000000000000000000000000005f52604160045260245ffd5b7f4e487b71000000000000000000000000000000000000000000000000000000005f52602260045260245ffd5b5f60028204905060018216806200053357607f821691505b602082108103620005495762000548620004ee565b5b50919050565b5f819050815f5260205f209050919050565b5f6020601f8301049050919050565b5f82821b905092915050565b5f60088302620005ad7fffffffffffffffffffffffffffffffffffffffffffffffffffffffffffffffff8262000570565b620005b9868362000570565b95508019841693508086168417925050509392505050565b5f819050919050565b5f819050919050565b5f62000603620005fd620005f784620005d1565b620005da565b620005d1565b9050919050565b5f819050919050565b6200061e83620005e3565b620006366200062d826200060a565b8484546200057c565b825550505050565b5f90565b6200064c6200063e565b6200065981848462000613565b505050565b5b818110156200068057620006745f8262000642565b6001810190506200065f565b5050565b601f821115620006cf5762000699816200054f565b620006a48462000561565b81016020851015620006b4578190505b620006cc620006c38562000561565b8301826200065e565b50505b505050565b5f82821c905092915050565b5f620006f15f1984600802620006d4565b1980831691505092915050565b5f6200070b8383620006e0565b9150826002028217905092915050565b6200072682620004b7565b67ffffffffffffffff811115620007425762000741620004c1565b5b6200074e82546200051b565b6200075b82828562000684565b5f60209050601f83116001811462000791575f84156200077c578287015190505b620007888582620006fe565b865550620007f7565b601f198416620007a1866200054f565b5f5b82811015620007ca57848901518255600182019150602085019450602081019050620007a3565b86831015620007ea5784890151620007e6601f891682620006e0565b8355505b6001600288020188555050505b505050505050565b5f73ffffffffffffffffffffffffffffffffffffffff82169050919050565b5f6200082a82620007ff565b9050919050565b6200083c816200081e565b82525050565b5f602082019050620008575f83018462000831565b92915050565b7f4e487b71000000000000000000000000000000000000000000000000000000005f52601160045260245ffd5b5f6200089682620005d1565b9150620008a383620005d1565b9250828201905080821115620008be57620008bd6200085d565b5b92915050565b620008cf81620005d1565b82525050565b5f606082019050620008ea5f83018662000831565b620008f96020830185620008c4565b620009086040830184620008c4565b949350505050565b5f602082019050620009255f830184620008c4565b92915050565b61140580620009395f395ff3fe608060405234801561000f575f80fd5b5060043610610114575f3560e01c80637dc6e927116100a05780639dc29fac1161006f5780639dc29fac146102e2578063a9059cbb146102fe578063dd0be52d1461032e578063dd62ed3e1461035e578063f2fde38b1461038e57610114565b80637dc6e92714610246578063828a295f146102765780638da5cb5b146102a657806395d89b41146102c457610114565b806323b872dd116100e757806323b872dd146101a2578063313ce567146101d257806340c10f19146101f057806370a082311461020c578063715018a61461023c57610114565b806306fdde0314610118578063095ea7b31461013657806318160ddd1461016657806321ce771914610184575b5f80fd5b6101206103aa565b60405161012d9190610fe0565b60405180910390f35b610150600480360381019061014b9190611091565b61043a565b60405161015d91906110e9565b60405180910390f35b61016e61045c565b60405161017b9190611111565b60405180910390f35b61018c610465565b6040516101999190611111565b60405180910390f35b6101bc60048036038101906101b7919061112a565b610481565b6040516101c991906110e9565b60405180910390f35b6101da6104af565b6040516101e79190611195565b60405180910390f35b61020a60048036038101906102059190611091565b6104b7565b005b610226600480360381019061022191906111ae565b6104db565b6040516102339190611111565b60405180910390f35b610244610520565b005b610260600480360381019061025b9190611091565b610533565b60405161026d91906110e9565b60405180910390f35b610290600480360381019061028b91906111ae565b610554565b60405161029d9190611111565b60405180910390f35b6102ae610573565b6040516102bb91906111e8565b60405180910390f35b6102cc61059b565b6040516102d99190610fe0565b60405180910390f35b6102fc60048036038101906102f79190611091565b61062b565b005b61031860048036038101906103139190611091565b610641565b60405161032591906110e9565b60405180910390f35b61034860048036038101906103439190611091565b610663565b60405161035591906110e9565b60405180910390f35b61037860048036038101906103739190611201565b610684565b6040516103859190611111565b60405180910390f35b6103a860048036038101906103a391906111ae565b610706565b005b6060600380546103b99061126c565b80601f01602080910402602001604051908101604052809291908181526020018280546103e59061126c565b80156104305780601f1061040757610100808354040283529160200191610430565b820191905f5260205f20905b81548152906001019060200180831161041357829003601f168201915b5050505050905090565b5f8061044461078a565b9050610451818585610791565b600191505092915050565b5f600254905090565b5f620f424061047261045c565b61047c91906112f6565b905090565b5f8061048b61078a565b90506104988582856107a3565b6104a3858585610836565b60019150509392505050565b5f6006905090565b6104bf610926565b6104d782620f4240836104d29190611326565b6109ad565b5050565b5f805f8373ffffffffffffffffffffffffffffffffffffffff1673ffffffffffffffffffffffffffffffffffffffff1681526020019081526020015f20549050919050565b610528610926565b6105315f610a2c565b565b5f61054c83620f4240846105479190611326565b61043a565b905092915050565b5f620f4240610562836104db565b61056c91906112f6565b9050919050565b5f60055f9054906101000a900473ffffffffffffffffffffffffffffffffffffffff16905090565b6060600480546105aa9061126c565b80601f01602080910402602001604051908101604052809291908181526020018280546105d69061126c565b80156106215780601f106105f857610100808354040283529160200191610621565b820191905f5260205f20905b81548152906001019060200180831161060457829003601f168201915b5050505050905090565b610633610926565b61063d8282610aef565b5050565b5f8061064b61078a565b9050610658818585610836565b600191505092915050565b5f61067c83620f4240846106779190611326565b610641565b905092915050565b5f60015f8473ffffffffffffffffffffffffffffffffffffffff1673ffffffffffffffffffffffffffffffffffffffff1681526020019081526020015f205f8373ffffffffffffffffffffffffffffffffffffffff1673ffffffffffffffffffffffffffffffffffffffff1681526020019081526020015f2054905092915050565b61070e610926565b5f73ffffffffffffffffffffffffffffffffffffffff168173ffffffffffffffffffffffffffffffffffffffff160361077e575f6040517f1e4fbdf700000000000000000000000000000000000000000000000000000000815260040161077591906111e8565b60405180910390fd5b61078781610a2c565b50565b5f33905090565b61079e8383836001610b6e565b505050565b5f6107ae8484610684565b90507fffffffffffffffffffffffffffffffffffffffffffffffffffffffffffffffff8110156108305781811015610821578281836040517ffb8f41b200000000000000000000000000000000000000000000000000000000815260040161081893929190611367565b60405180910390fd5b61082f84848484035f610b6e565b5b50505050565b5f73ffffffffffffffffffffffffffffffffffffffff168373ffffffffffffffffffffffffffffffffffffffff16036108a6575f6040517f96c6fd1e00000000000000000000000000000000000000000000000000000000815260040161089d91906111e8565b60405180910390fd5b5f73ffffffffffffffffffffffffffffffffffffffff168273ffffffffffffffffffffffffffffffffffffffff1603610916575f6040517fec442f0500000000000000000000000000000000000000000000000000000000815260040161090d91906111e8565b60405180910390fd5b610921838383610d3d565b505050565b61092e61078a565b73ffffffffffffffffffffffffffffffffffffffff1661094c610573565b73ffffffffffffffffffffffffffffffffffffffff16146109ab5761096f61078a565b6040517f118cdaa70000000000000000000000000000000000000000000000000000000081526004016109a291906111e8565b60405180910390fd5b565b5f73ffffffffffffffffffffffffffffffffffffffff168273ffffffffffffffffffffffffffffffffffffffff1603610a1d575f6040517fec442f05000000000000000000000000000000000000000000000000000000008152600401610a1491906111e8565b60405180910390fd5b610a285f8383610d3d565b5050565b5f60055f9054906101000a900473ffffffffffffffffffffffffffffffffffffffff1690508160055f6101000a81548173ffffffffffffffffffffffffffffffffffffffff021916908373ffffffffffffffffffffffffffffffffffffffff1602179055508173ffffffffffffffffffffffffffffffffffffffff168173ffffffffffffffffffffffffffffffffffffffff167f8be0079c531659141344cd1fd0a4f28419497f9722a3daafe3b4186f6b6457e060405160405180910390a35050565b5f73ffffffffffffffffffffffffffffffffffffffff168273ffffffffffffffffffffffffffffffffffffffff1603610b5f575f6040517f96c6fd1e000000000000000000000000000000000000000000000000000000008152600401610b5691906111e8565b60405180910390fd5b610b6a825f83610d3d565b5050565b5f73ffffffffffffffffffffffffffffffffffffffff168473ffffffffffffffffffffffffffffffffffffffff1603610bde575f6040517fe602df05000000000000000000000000000000000000000000000000000000008152600401610bd591906111e8565b60405180910390fd5b5f73ffffffffffffffffffffffffffffffffffffffff168373ffffffffffffffffffffffffffffffffffffffff1603610c4e575f6040517f94280d62000000000000000000000000000000000000000000000000000000008152600401610c4591906111e8565b60405180910390fd5b8160015f8673ffffffffffffffffffffffffffffffffffffffff1673ffffffffffffffffffffffffffffffffffffffff1681526020019081526020015f205f8573ffffffffffffffffffffffffffffffffffffffff1673ffffffffffffffffffffffffffffffffffffffff1681526020019081526020015f20819055508015610d37578273ffffffffffffffffffffffffffffffffffffffff168473ffffffffffffffffffffffffffffffffffffffff167f8c5be1e5ebec7d5bd14f71427d1e84f3dd0314c0f7b2291e5b200ac8c7c3b92584604051610d2e9190611111565b60405180910390a35b50505050565b5f73ffffffffffffffffffffffffffffffffffffffff168373ffffffffffffffffffffffffffffffffffffffff1603610d8d578060025f828254610d81919061139c565b92505081905550610e5b565b5f805f8573ffffffffffffffffffffffffffffffffffffffff1673ffffffffffffffffffffffffffffffffffffffff1681526020019081526020015f2054905081811015610e16578381836040517fe450d38c000000000000000000000000000000000000000000000000000000008152600401610e0d93929190611367565b60405180910390fd5b8181035f808673ffffffffffffffffffffffffffffffffffffffff1673ffffffffffffffffffffffffffffffffffffffff1681526020019081526020015f2081905550505b5f73ffffffffffffffffffffffffffffffffffffffff168273ffffffffffffffffffffffffffffffffffffffff1603610ea2578060025f8282540392505081905550610eec565b805f808473ffffffffffffffffffffffffffffffffffffffff1673ffffffffffffffffffffffffffffffffffffffff1681526020019081526020015f205f82825401925050819055505b8173ffffffffffffffffffffffffffffffffffffffff168373ffffffffffffffffffffffffffffffffffffffff167fddf252ad1be2c89b69c2b068fc378daa952ba7f163c4a11628f55a4df523b3ef83604051610f499190611111565b60405180910390a3505050565b5f81519050919050565b5f82825260208201905092915050565b5f5b83811015610f8d578082015181840152602081019050610f72565b5f8484015250505050565b5f601f19601f8301169050919050565b5f610fb282610f56565b610fbc8185610f60565b9350610fcc818560208601610f70565b610fd581610f98565b840191505092915050565b5f6020820190508181035f830152610ff88184610fa8565b905092915050565b5f80fd5b5f73ffffffffffffffffffffffffffffffffffffffff82169050919050565b5f61102d82611004565b9050919050565b61103d81611023565b8114611047575f80fd5b50565b5f8135905061105881611034565b92915050565b5f819050919050565b6110708161105e565b811461107a575f80fd5b50565b5f8135905061108b81611067565b92915050565b5f80604083850312156110a7576110a6611000565b5b5f6110b48582860161104a565b92505060206110c58582860161107d565b9150509250929050565b5f8115159050919050565b6110e3816110cf565b82525050565b5f6020820190506110fc5f8301846110da565b92915050565b61110b8161105e565b82525050565b5f6020820190506111245f830184611102565b92915050565b5f805f6060848603121561114157611140611000565b5b5f61114e8682870161104a565b935050602061115f8682870161104a565b92505060406111708682870161107d565b9150509250925092565b5f60ff82169050919050565b61118f8161117a565b82525050565b5f6020820190506111a85f830184611186565b92915050565b5f602082840312156111c3576111c2611000565b5b5f6111d08482850161104a565b91505092915050565b6111e281611023565b82525050565b5f6020820190506111fb5f8301846111d9565b92915050565b5f806040838503121561121757611216611000565b5b5f6112248582860161104a565b92505060206112358582860161104a565b9150509250929050565b7f4e487b71000000000000000000000000000000000000000000000000000000005f52602260045260245ffd5b5f600282049050600182168061128357607f821691505b6020821081036112965761129561123f565b5b50919050565b7f4e487b71000000000000000000000000000000000000000000000000000000005f52601260045260245ffd5b7f4e487b71000000000000000000000000000000000000000000000000000000005f52601160045260245ffd5b5f6113008261105e565b915061130b8361105e565b92508261131b5761131a61129c565b5b828204905092915050565b5f6113308261105e565b915061133b8361105e565b92508282026113498161105e565b915082820484148315176113605761135f6112c9565b5b5092915050565b5f60608201905061137a5f8301866111d9565b6113876020830185611102565b6113946040830184611102565b949350505050565b5f6113a68261105e565b91506113b18361105e565b92508282019050808211156113c9576113c86112c9565b5b9291505056fea2646970667358221220c5785e20bcef3c0a58da5c4a13ad190220eb74e0c6c1b41cfad789babd3a717364736f6c63430008140033",
					"opcodes": "PUSH1 0x80 PUSH1 0x40 MSTORE CALLVALUE DUP1 ISZERO PUSH3 0x10 JUMPI PUSH0 DUP1 REVERT JUMPDEST POP CALLER PUSH1 0x40 MLOAD DUP1 PUSH1 0x40 ADD PUSH1 0x40 MSTORE DUP1 PUSH1 0x9 DUP2 MSTORE PUSH1 0x20 ADD PUSH32 0x55534420546F6B656E0000000000000000000000000000000000000000000000 DUP2 MSTORE POP PUSH1 0x40 MLOAD DUP1 PUSH1 0x40 ADD PUSH1 0x40 MSTORE DUP1 PUSH1 0x4 DUP2 MSTORE PUSH1 0x20 ADD PUSH32 0x5553447400000000000000000000000000000000000000000000000000000000 DUP2 MSTORE POP DUP2 PUSH1 0x3 SWAP1 DUP2 PUSH3 0x8F SWAP2 SWAP1 PUSH3 0x71B JUMP JUMPDEST POP DUP1 PUSH1 0x4 SWAP1 DUP2 PUSH3 0xA1 SWAP2 SWAP1 PUSH3 0x71B JUMP JUMPDEST POP POP POP PUSH0 PUSH20 0xFFFFFFFFFFFFFFFFFFFFFFFFFFFFFFFFFFFFFFFF AND DUP2 PUSH20 0xFFFFFFFFFFFFFFFFFFFFFFFFFFFFFFFFFFFFFFFF AND SUB PUSH3 0x117 JUMPI PUSH0 PUSH1 0x40 MLOAD PUSH32 0x1E4FBDF700000000000000000000000000000000000000000000000000000000 DUP2 MSTORE PUSH1 0x4 ADD PUSH3 0x10E SWAP2 SWAP1 PUSH3 0x842 JUMP JUMPDEST PUSH1 0x40 MLOAD DUP1 SWAP2 SUB SWAP1 REVERT JUMPDEST PUSH3 0x128 DUP2 PUSH3 0x146 PUSH1 0x20 SHL PUSH1 0x20 SHR JUMP JUMPDEST POP PUSH3 0x140 CALLER PUSH5 0xE8D4A51000 PUSH3 0x209 PUSH1 0x20 SHL PUSH1 0x20 SHR JUMP JUMPDEST PUSH3 0x92B JUMP JUMPDEST PUSH0 PUSH1 0x5 PUSH0 SWAP1 SLOAD SWAP1 PUSH2 0x100 EXP SWAP1 DIV PUSH20 0xFFFFFFFFFFFFFFFFFFFFFFFFFFFFFFFFFFFFFFFF AND SWAP1 POP DUP2 PUSH1 0x5 PUSH0 PUSH2 0x100 EXP DUP2 SLOAD DUP2 PUSH20 0xFFFFFFFFFFFFFFFFFFFFFFFFFFFFFFFFFFFFFFFF MUL NOT AND SWAP1 DUP4 PUSH20 0xFFFFFFFFFFFFFFFFFFFFFFFFFFFFFFFFFFFFFFFF AND MUL OR SWAP1 SSTORE POP DUP2 PUSH20 0xFFFFFFFFFFFFFFFFFFFFFFFFFFFFFFFFFFFFFFFF AND DUP2 PUSH20 0xFFFFFFFFFFFFFFFFFFFFFFFFFFFFFFFFFFFFFFFF AND PUSH32 0x8BE0079C531659141344CD1FD0A4F28419497F9722A3DAAFE3B4186F6B6457E0 PUSH1 0x40 MLOAD PUSH1 0x40 MLOAD DUP1 SWAP2 SUB SWAP1 LOG3 POP POP JUMP JUMPDEST PUSH0 PUSH20 0xFFFFFFFFFFFFFFFFFFFFFFFFFFFFFFFFFFFFFFFF AND DUP3 PUSH20 0xFFFFFFFFFFFFFFFFFFFFFFFFFFFFFFFFFFFFFFFF AND SUB PUSH3 0x27C JUMPI PUSH0 PUSH1 0x40 MLOAD PUSH32 0xEC442F0500000000000000000000000000000000000000000000000000000000 DUP2 MSTORE PUSH1 0x4 ADD PUSH3 0x273 SWAP2 SWAP1 PUSH3 0x842 JUMP JUMPDEST PUSH1 0x40 MLOAD DUP1 SWAP2 SUB SWAP1 REVERT JUMPDEST PUSH3 0x28F PUSH0 DUP4 DUP4 PUSH3 0x293 PUSH1 0x20 SHL PUSH1 0x20 SHR JUMP JUMPDEST POP POP JUMP JUMPDEST PUSH0 PUSH20 0xFFFFFFFFFFFFFFFFFFFFFFFFFFFFFFFFFFFFFFFF AND DUP4 PUSH20 0xFFFFFFFFFFFFFFFFFFFFFFFFFFFFFFFFFFFFFFFF AND SUB PUSH3 0x2E7 JUMPI DUP1 PUSH1 0x2 PUSH0 DUP3 DUP3 SLOAD PUSH3 0x2DA SWAP2 SWAP1 PUSH3 0x88A JUMP JUMPDEST SWAP3 POP POP DUP2 SWAP1 SSTORE POP PUSH3 0x3B8 JUMP JUMPDEST PUSH0 DUP1 PUSH0 DUP6 PUSH20 0xFFFFFFFFFFFFFFFFFFFFFFFFFFFFFFFFFFFFFFFF AND PUSH20 0xFFFFFFFFFFFFFFFFFFFFFFFFFFFFFFFFFFFFFFFF AND DUP2 MSTORE PUSH1 0x20 ADD SWAP1 DUP2 MSTORE PUSH1 0x20 ADD PUSH0 KECCAK256 SLOAD SWAP1 POP DUP2 DUP2 LT ISZERO PUSH3 0x373 JUMPI DUP4 DUP2 DUP4 PUSH1 0x40 MLOAD PUSH32 0xE450D38C00000000000000000000000000000000000000000000000000000000 DUP2 MSTORE PUSH1 0x4 ADD PUSH3 0x36A SWAP4 SWAP3 SWAP2 SWAP1 PUSH3 0x8D5 JUMP JUMPDEST PUSH1 0x40 MLOAD DUP1 SWAP2 SUB SWAP1 REVERT JUMPDEST DUP2 DUP2 SUB PUSH0 DUP1 DUP7 PUSH20 0xFFFFFFFFFFFFFFFFFFFFFFFFFFFFFFFFFFFFFFFF AND PUSH20 0xFFFFFFFFFFFFFFFFFFFFFFFFFFFFFFFFFFFFFFFF AND DUP2 MSTORE PUSH1 0x20 ADD SWAP1 DUP2 MSTORE PUSH1 0x20 ADD PUSH0 KECCAK256 DUP2 SWAP1 SSTORE POP POP JUMPDEST PUSH0 PUSH20 0xFFFFFFFFFFFFFFFFFFFFFFFFFFFFFFFFFFFFFFFF AND DUP3 PUSH20 0xFFFFFFFFFFFFFFFFFFFFFFFFFFFFFFFFFFFFFFFF AND SUB PUSH3 0x401 JUMPI DUP1 PUSH1 0x2 PUSH0 DUP3 DUP3 SLOAD SUB SWAP3 POP POP DUP2 SWAP1 SSTORE POP PUSH3 0x44B JUMP JUMPDEST DUP1 PUSH0 DUP1 DUP5 PUSH20 0xFFFFFFFFFFFFFFFFFFFFFFFFFFFFFFFFFFFFFFFF AND PUSH20 0xFFFFFFFFFFFFFFFFFFFFFFFFFFFFFFFFFFFFFFFF AND DUP2 MSTORE PUSH1 0x20 ADD SWAP1 DUP2 MSTORE PUSH1 0x20 ADD PUSH0 KECCAK256 PUSH0 DUP3 DUP3 SLOAD ADD SWAP3 POP POP DUP2 SWAP1 SSTORE POP JUMPDEST DUP2 PUSH20 0xFFFFFFFFFFFFFFFFFFFFFFFFFFFFFFFFFFFFFFFF AND DUP4 PUSH20 0xFFFFFFFFFFFFFFFFFFFFFFFFFFFFFFFFFFFFFFFF AND PUSH32 0xDDF252AD1BE2C89B69C2B068FC378DAA952BA7F163C4A11628F55A4DF523B3EF DUP4 PUSH1 0x40 MLOAD PUSH3 0x4AA SWAP2 SWAP1 PUSH3 0x910 JUMP JUMPDEST PUSH1 0x40 MLOAD DUP1 SWAP2 SUB SWAP1 LOG3 POP POP POP JUMP JUMPDEST PUSH0 DUP2 MLOAD SWAP1 POP SWAP2 SWAP1 POP JUMP JUMPDEST PUSH32 0x4E487B7100000000000000000000000000000000000000000000000000000000 PUSH0 MSTORE PUSH1 0x41 PUSH1 0x4 MSTORE PUSH1 0x24 PUSH0 REVERT JUMPDEST PUSH32 0x4E487B7100000000000000000000000000000000000000000000000000000000 PUSH0 MSTORE PUSH1 0x22 PUSH1 0x4 MSTORE PUSH1 0x24 PUSH0 REVERT JUMPDEST PUSH0 PUSH1 0x2 DUP3 DIV SWAP1 POP PUSH1 0x1 DUP3 AND DUP1 PUSH3 0x533 JUMPI PUSH1 0x7F DUP3 AND SWAP2 POP JUMPDEST PUSH1 0x20 DUP3 LT DUP2 SUB PUSH3 0x549 JUMPI PUSH3 0x548 PUSH3 0x4EE JUMP JUMPDEST JUMPDEST POP SWAP2 SWAP1 POP JUMP JUMPDEST PUSH0 DUP2 SWAP1 POP DUP2 PUSH0 MSTORE PUSH1 0x20 PUSH0 KECCAK256 SWAP1 POP SWAP2 SWAP1 POP JUMP JUMPDEST PUSH0 PUSH1 0x20 PUSH1 0x1F DUP4 ADD DIV SWAP1 POP SWAP2 SWAP1 POP JUMP JUMPDEST PUSH0 DUP3 DUP3 SHL SWAP1 POP SWAP3 SWAP2 POP POP JUMP JUMPDEST PUSH0 PUSH1 0x8 DUP4 MUL PUSH3 0x5AD PUSH32 0xFFFFFFFFFFFFFFFFFFFFFFFFFFFFFFFFFFFFFFFFFFFFFFFFFFFFFFFFFFFFFFFF DUP3 PUSH3 0x570 JUMP JUMPDEST PUSH3 0x5B9 DUP7 DUP4 PUSH3 0x570 JUMP JUMPDEST SWAP6 POP DUP1 NOT DUP5 AND SWAP4 POP DUP1 DUP7 AND DUP5 OR SWAP3 POP POP POP SWAP4 SWAP3 POP POP POP JUMP JUMPDEST PUSH0 DUP2 SWAP1 POP SWAP2 SWAP1 POP JUMP JUMPDEST PUSH0 DUP2 SWAP1 POP SWAP2 SWAP1 POP JUMP JUMPDEST PUSH0 PUSH3 0x603 PUSH3 0x5FD PUSH3 0x5F7 DUP5 PUSH3 0x5D1 JUMP JUMPDEST PUSH3 0x5DA JUMP JUMPDEST PUSH3 0x5D1 JUMP JUMPDEST SWAP1 POP SWAP2 SWAP1 POP JUMP JUMPDEST PUSH0 DUP2 SWAP1 POP SWAP2 SWAP1 POP JUMP JUMPDEST PUSH3 0x61E DUP4 PUSH3 0x5E3 JUMP JUMPDEST PUSH3 0x636 PUSH3 0x62D DUP3 PUSH3 0x60A JUMP JUMPDEST DUP5 DUP5 SLOAD PUSH3 0x57C JUMP JUMPDEST DUP3 SSTORE POP POP POP POP JUMP JUMPDEST PUSH0 SWAP1 JUMP JUMPDEST PUSH3 0x64C PUSH3 0x63E JUMP JUMPDEST PUSH3 0x659 DUP2 DUP5 DUP5 PUSH3 0x613 JUMP JUMPDEST POP POP POP JUMP JUMPDEST JUMPDEST DUP2 DUP2 LT ISZERO PUSH3 0x680 JUMPI PUSH3 0x674 PUSH0 DUP3 PUSH3 0x642 JUMP JUMPDEST PUSH1 0x1 DUP2 ADD SWAP1 POP PUSH3 0x65F JUMP JUMPDEST POP POP JUMP JUMPDEST PUSH1 0x1F DUP3 GT ISZERO PUSH3 0x6CF JUMPI PUSH3 0x699 DUP2 PUSH3 0x54F JUMP JUMPDEST PUSH3 0x6A4 DUP5 PUSH3 0x561 JUMP JUMPDEST DUP2 ADD PUSH1 0x20 DUP6 LT ISZERO PUSH3 0x6B4 JUMPI DUP2 SWAP1 POP JUMPDEST PUSH3 0x6CC PUSH3 0x6C3 DUP6 PUSH3 0x561 JUMP JUMPDEST DUP4 ADD DUP3 PUSH3 0x65E JUMP JUMPDEST POP POP JUMPDEST POP POP POP JUMP JUMPDEST PUSH0 DUP3 DUP3 SHR SWAP1 POP SWAP3 SWAP2 POP POP JUMP JUMPDEST PUSH0 PUSH3 0x6F1 PUSH0 NOT DUP5 PUSH1 0x8 MUL PUSH3 0x6D4 JUMP JUMPDEST NOT DUP1 DUP4 AND SWAP2 POP POP SWAP3 SWAP2 POP POP JUMP JUMPDEST PUSH0 PUSH3 0x70B DUP4 DUP4 PUSH3 0x6E0 JUMP JUMPDEST SWAP2 POP DUP3 PUSH1 0x2 MUL DUP3 OR SWAP1 POP SWAP3 SWAP2 POP POP JUMP JUMPDEST PUSH3 0x726 DUP3 PUSH3 0x4B7 JUMP JUMPDEST PUSH8 0xFFFFFFFFFFFFFFFF DUP2 GT ISZERO PUSH3 0x742 JUMPI PUSH3 0x741 PUSH3 0x4C1 JUMP JUMPDEST JUMPDEST PUSH3 0x74E DUP3 SLOAD PUSH3 0x51B JUMP JUMPDEST PUSH3 0x75B DUP3 DUP3 DUP6 PUSH3 0x684 JUMP JUMPDEST PUSH0 PUSH1 0x20 SWAP1 POP PUSH1 0x1F DUP4 GT PUSH1 0x1 DUP2 EQ PUSH3 0x791 JUMPI PUSH0 DUP5 ISZERO PUSH3 0x77C JUMPI DUP3 DUP8 ADD MLOAD SWAP1 POP JUMPDEST PUSH3 0x788 DUP6 DUP3 PUSH3 0x6FE JUMP JUMPDEST DUP7 SSTORE POP PUSH3 0x7F7 JUMP JUMPDEST PUSH1 0x1F NOT DUP5 AND PUSH3 0x7A1 DUP7 PUSH3 0x54F JUMP JUMPDEST PUSH0 JUMPDEST DUP3 DUP2 LT ISZERO PUSH3 0x7CA JUMPI DUP5 DUP10 ADD MLOAD DUP3 SSTORE PUSH1 0x1 DUP3 ADD SWAP2 POP PUSH1 0x20 DUP6 ADD SWAP5 POP PUSH1 0x20 DUP2 ADD SWAP1 POP PUSH3 0x7A3 JUMP JUMPDEST DUP7 DUP4 LT ISZERO PUSH3 0x7EA JUMPI DUP5 DUP10 ADD MLOAD PUSH3 0x7E6 PUSH1 0x1F DUP10 AND DUP3 PUSH3 0x6E0 JUMP JUMPDEST DUP4 SSTORE POP JUMPDEST PUSH1 0x1 PUSH1 0x2 DUP9 MUL ADD DUP9 SSTORE POP POP POP JUMPDEST POP POP POP POP POP POP JUMP JUMPDEST PUSH0 PUSH20 0xFFFFFFFFFFFFFFFFFFFFFFFFFFFFFFFFFFFFFFFF DUP3 AND SWAP1 POP SWAP2 SWAP1 POP JUMP JUMPDEST PUSH0 PUSH3 0x82A DUP3 PUSH3 0x7FF JUMP JUMPDEST SWAP1 POP SWAP2 SWAP1 POP JUMP JUMPDEST PUSH3 0x83C DUP2 PUSH3 0x81E JUMP JUMPDEST DUP3 MSTORE POP POP JUMP JUMPDEST PUSH0 PUSH1 0x20 DUP3 ADD SWAP1 POP PUSH3 0x857 PUSH0 DUP4 ADD DUP5 PUSH3 0x831 JUMP JUMPDEST SWAP3 SWAP2 POP POP JUMP JUMPDEST PUSH32 0x4E487B7100000000000000000000000000000000000000000000000000000000 PUSH0 MSTORE PUSH1 0x11 PUSH1 0x4 MSTORE PUSH1 0x24 PUSH0 REVERT JUMPDEST PUSH0 PUSH3 0x896 DUP3 PUSH3 0x5D1 JUMP JUMPDEST SWAP2 POP PUSH3 0x8A3 DUP4 PUSH3 0x5D1 JUMP JUMPDEST SWAP3 POP DUP3 DUP3 ADD SWAP1 POP DUP1 DUP3 GT ISZERO PUSH3 0x8BE JUMPI PUSH3 0x8BD PUSH3 0x85D JUMP JUMPDEST JUMPDEST SWAP3 SWAP2 POP POP JUMP JUMPDEST PUSH3 0x8CF DUP2 PUSH3 0x5D1 JUMP JUMPDEST DUP3 MSTORE POP POP JUMP JUMPDEST PUSH0 PUSH1 0x60 DUP3 ADD SWAP1 POP PUSH3 0x8EA PUSH0 DUP4 ADD DUP7 PUSH3 0x831 JUMP JUMPDEST PUSH3 0x8F9 PUSH1 0x20 DUP4 ADD DUP6 PUSH3 0x8C4 JUMP JUMPDEST PUSH3 0x908 PUSH1 0x40 DUP4 ADD DUP5 PUSH3 0x8C4 JUMP JUMPDEST SWAP5 SWAP4 POP POP POP POP JUMP JUMPDEST PUSH0 PUSH1 0x20 DUP3 ADD SWAP1 POP PUSH3 0x925 PUSH0 DUP4 ADD DUP5 PUSH3 0x8C4 JUMP JUMPDEST SWAP3 SWAP2 POP POP JUMP JUMPDEST PUSH2 0x1405 DUP1 PUSH3 0x939 PUSH0 CODECOPY PUSH0 RETURN INVALID PUSH1 0x80 PUSH1 0x40 MSTORE CALLVALUE DUP1 ISZERO PUSH2 0xF JUMPI PUSH0 DUP1 REVERT JUMPDEST POP PUSH1 0x4 CALLDATASIZE LT PUSH2 0x114 JUMPI PUSH0 CALLDATALOAD PUSH1 0xE0 SHR DUP1 PUSH4 0x7DC6E927 GT PUSH2 0xA0 JUMPI DUP1 PUSH4 0x9DC29FAC GT PUSH2 0x6F JUMPI DUP1 PUSH4 0x9DC29FAC EQ PUSH2 0x2E2 JUMPI DUP1 PUSH4 0xA9059CBB EQ PUSH2 0x2FE JUMPI DUP1 PUSH4 0xDD0BE52D EQ PUSH2 0x32E JUMPI DUP1 PUSH4 0xDD62ED3E EQ PUSH2 0x35E JUMPI DUP1 PUSH4 0xF2FDE38B EQ PUSH2 0x38E JUMPI PUSH2 0x114 JUMP JUMPDEST DUP1 PUSH4 0x7DC6E927 EQ PUSH2 0x246 JUMPI DUP1 PUSH4 0x828A295F EQ PUSH2 0x276 JUMPI DUP1 PUSH4 0x8DA5CB5B EQ PUSH2 0x2A6 JUMPI DUP1 PUSH4 0x95D89B41 EQ PUSH2 0x2C4 JUMPI PUSH2 0x114 JUMP JUMPDEST DUP1 PUSH4 0x23B872DD GT PUSH2 0xE7 JUMPI DUP1 PUSH4 0x23B872DD EQ PUSH2 0x1A2 JUMPI DUP1 PUSH4 0x313CE567 EQ PUSH2 0x1D2 JUMPI DUP1 PUSH4 0x40C10F19 EQ PUSH2 0x1F0 JUMPI DUP1 PUSH4 0x70A08231 EQ PUSH2 0x20C JUMPI DUP1 PUSH4 0x715018A6 EQ PUSH2 0x23C JUMPI PUSH2 0x114 JUMP JUMPDEST DUP1 PUSH4 0x6FDDE03 EQ PUSH2 0x118 JUMPI DUP1 PUSH4 0x95EA7B3 EQ PUSH2 0x136 JUMPI DUP1 PUSH4 0x18160DDD EQ PUSH2 0x166 JUMPI DUP1 PUSH4 0x21CE7719 EQ PUSH2 0x184 JUMPI JUMPDEST PUSH0 DUP1 REVERT JUMPDEST PUSH2 0x120 PUSH2 0x3AA JUMP JUMPDEST PUSH1 0x40 MLOAD PUSH2 0x12D SWAP2 SWAP1 PUSH2 0xFE0 JUMP JUMPDEST PUSH1 0x40 MLOAD DUP1 SWAP2 SUB SWAP1 RETURN JUMPDEST PUSH2 0x150 PUSH1 0x4 DUP1 CALLDATASIZE SUB DUP2 ADD SWAP1 PUSH2 0x14B SWAP2 SWAP1 PUSH2 0x1091 JUMP JUMPDEST PUSH2 0x43A JUMP JUMPDEST PUSH1 0x40 MLOAD PUSH2 0x15D SWAP2 SWAP1 PUSH2 0x10E9 JUMP JUMPDEST PUSH1 0x40 MLOAD DUP1 SWAP2 SUB SWAP1 RETURN JUMPDEST PUSH2 0x16E PUSH2 0x45C JUMP JUMPDEST PUSH1 0x40 MLOAD PUSH2 0x17B SWAP2 SWAP1 PUSH2 0x1111 JUMP JUMPDEST PUSH1 0x40 MLOAD DUP1 SWAP2 SUB SWAP1 RETURN JUMPDEST PUSH2 0x18C PUSH2 0x465 JUMP JUMPDEST PUSH1 0x40 MLOAD PUSH2 0x199 SWAP2 SWAP1 PUSH2 0x1111 JUMP JUMPDEST PUSH1 0x40 MLOAD DUP1 SWAP2 SUB SWAP1 RETURN JUMPDEST PUSH2 0x1BC PUSH1 0x4 DUP1 CALLDATASIZE SUB DUP2 ADD SWAP1 PUSH2 0x1B7 SWAP2 SWAP1 PUSH2 0x112A JUMP JUMPDEST PUSH2 0x481 JUMP JUMPDEST PUSH1 0x40 MLOAD PUSH2 0x1C9 SWAP2 SWAP1 PUSH2 0x10E9 JUMP JUMPDEST PUSH1 0x40 MLOAD DUP1 SWAP2 SUB SWAP1 RETURN JUMPDEST PUSH2 0x1DA PUSH2 0x4AF JUMP JUMPDEST PUSH1 0x40 MLOAD PUSH2 0x1E7 SWAP2 SWAP1 PUSH2 0x1195 JUMP JUMPDEST PUSH1 0x40 MLOAD DUP1 SWAP2 SUB SWAP1 RETURN JUMPDEST PUSH2 0x20A PUSH1 0x4 DUP1 CALLDATASIZE SUB DUP2 ADD SWAP1 PUSH2 0x205 SWAP2 SWAP1 PUSH2 0x1091 JUMP JUMPDEST PUSH2 0x4B7 JUMP JUMPDEST STOP JUMPDEST PUSH2 0x226 PUSH1 0x4 DUP1 CALLDATASIZE SUB DUP2 ADD SWAP1 PUSH2 0x221 SWAP2 SWAP1 PUSH2 0x11AE JUMP JUMPDEST PUSH2 0x4DB JUMP JUMPDEST PUSH1 0x40 MLOAD PUSH2 0x233 SWAP2 SWAP1 PUSH2 0x1111 JUMP JUMPDEST PUSH1 0x40 MLOAD DUP1 SWAP2 SUB SWAP1 RETURN JUMPDEST PUSH2 0x244 PUSH2 0x520 JUMP JUMPDEST STOP JUMPDEST PUSH2 0x260 PUSH1 0x4 DUP1 CALLDATASIZE SUB DUP2 ADD SWAP1 PUSH2 0x25B SWAP2 SWAP1 PUSH2 0x1091 JUMP JUMPDEST PUSH2 0x533 JUMP JUMPDEST PUSH1 0x40 MLOAD PUSH2 0x26D SWAP2 SWAP1 PUSH2 0x10E9 JUMP JUMPDEST PUSH1 0x40 MLOAD DUP1 SWAP2 SUB SWAP1 RETURN JUMPDEST PUSH2 0x290 PUSH1 0x4 DUP1 CALLDATASIZE SUB DUP2 ADD SWAP1 PUSH2 0x28B SWAP2 SWAP1 PUSH2 0x11AE JUMP JUMPDEST PUSH2 0x554 JUMP JUMPDEST PUSH1 0x40 MLOAD PUSH2 0x29D SWAP2 SWAP1 PUSH2 0x1111 JUMP JUMPDEST PUSH1 0x40 MLOAD DUP1 SWAP2 SUB SWAP1 RETURN JUMPDEST PUSH2 0x2AE PUSH2 0x573 JUMP JUMPDEST PUSH1 0x40 MLOAD PUSH2 0x2BB SWAP2 SWAP1 PUSH2 0x11E8 JUMP JUMPDEST PUSH1 0x40 MLOAD DUP1 SWAP2 SUB SWAP1 RETURN JUMPDEST PUSH2 0x2CC PUSH2 0x59B JUMP JUMPDEST PUSH1 0x40 MLOAD PUSH2 0x2D9 SWAP2 SWAP1 PUSH2 0xFE0 JUMP JUMPDEST PUSH1 0x40 MLOAD DUP1 SWAP2 SUB SWAP1 RETURN JUMPDEST PUSH2 0x2FC PUSH1 0x4 DUP1 CALLDATASIZE SUB DUP2 ADD SWAP1 PUSH2 0x2F7 SWAP2 SWAP1 PUSH2 0x1091 JUMP JUMPDEST PUSH2 0x62B JUMP JUMPDEST STOP JUMPDEST PUSH2 0x318 PUSH1 0x4 DUP1 CALLDATASIZE SUB DUP2 ADD SWAP1 PUSH2 0x313 SWAP2 SWAP1 PUSH2 0x1091 JUMP JUMPDEST PUSH2 0x641 JUMP JUMPDEST PUSH1 0x40 MLOAD PUSH2 0x325 SWAP2 SWAP1 PUSH2 0x10E9 JUMP JUMPDEST PUSH1 0x40 MLOAD DUP1 SWAP2 SUB SWAP1 RETURN JUMPDEST PUSH2 0x348 PUSH1 0x4 DUP1 CALLDATASIZE SUB DUP2 ADD SWAP1 PUSH2 0x343 SWAP2 SWAP1 PUSH2 0x1091 JUMP JUMPDEST PUSH2 0x663 JUMP JUMPDEST PUSH1 0x40 MLOAD PUSH2 0x355 SWAP2 SWAP1 PUSH2 0x10E9 JUMP JUMPDEST PUSH1 0x40 MLOAD DUP1 SWAP2 SUB SWAP1 RETURN JUMPDEST PUSH2 0x378 PUSH1 0x4 DUP1 CALLDATASIZE SUB DUP2 ADD SWAP1 PUSH2 0x373 SWAP2 SWAP1 PUSH2 0x1201 JUMP JUMPDEST PUSH2 0x684 JUMP JUMPDEST PUSH1 0x40 MLOAD PUSH2 0x385 SWAP2 SWAP1 PUSH2 0x1111 JUMP JUMPDEST PUSH1 0x40 MLOAD DUP1 SWAP2 SUB SWAP1 RETURN JUMPDEST PUSH2 0x3A8 PUSH1 0x4 DUP1 CALLDATASIZE SUB DUP2 ADD SWAP1 PUSH2 0x3A3 SWAP2 SWAP1 PUSH2 0x11AE JUMP JUMPDEST PUSH2 0x706 JUMP JUMPDEST STOP JUMPDEST PUSH1 0x60 PUSH1 0x3 DUP1 SLOAD PUSH2 0x3B9 SWAP1 PUSH2 0x126C JUMP JUMPDEST DUP1 PUSH1 0x1F ADD PUSH1 0x20 DUP1 SWAP2 DIV MUL PUSH1 0x20 ADD PUSH1 0x40 MLOAD SWAP1 DUP2 ADD PUSH1 0x40 MSTORE DUP1 SWAP3 SWAP2 SWAP1 DUP2 DUP2 MSTORE PUSH1 0x20 ADD DUP3 DUP1 SLOAD PUSH2 0x3E5 SWAP1 PUSH2 0x126C JUMP JUMPDEST DUP1 ISZERO PUSH2 0x430 JUMPI DUP1 PUSH1 0x1F LT PUSH2 0x407 JUMPI PUSH2 0x100 DUP1 DUP4 SLOAD DIV MUL DUP4 MSTORE SWAP2 PUSH1 0x20 ADD SWAP2 PUSH2 0x430 JUMP JUMPDEST DUP3 ADD SWAP2 SWAP1 PUSH0 MSTORE PUSH1 0x20 PUSH0 KECCAK256 SWAP1 JUMPDEST DUP2 SLOAD DUP2 MSTORE SWAP1 PUSH1 0x1 ADD SWAP1 PUSH1 0x20 ADD DUP1 DUP4 GT PUSH2 0x413 JUMPI DUP3 SWAP1 SUB PUSH1 0x1F AND DUP3 ADD SWAP2 JUMPDEST POP POP POP POP POP SWAP1 POP SWAP1 JUMP JUMPDEST PUSH0 DUP1 PUSH2 0x444 PUSH2 0x78A JUMP JUMPDEST SWAP1 POP PUSH2 0x451 DUP2 DUP6 DUP6 PUSH2 0x791 JUMP JUMPDEST PUSH1 0x1 SWAP2 POP POP SWAP3 SWAP2 POP POP JUMP JUMPDEST PUSH0 PUSH1 0x2 SLOAD SWAP1 POP SWAP1 JUMP JUMPDEST PUSH0 PUSH3 0xF4240 PUSH2 0x472 PUSH2 0x45C JUMP JUMPDEST PUSH2 0x47C SWAP2 SWAP1 PUSH2 0x12F6 JUMP JUMPDEST SWAP1 POP SWAP1 JUMP JUMPDEST PUSH0 DUP1 PUSH2 0x48B PUSH2 0x78A JUMP JUMPDEST SWAP1 POP PUSH2 0x498 DUP6 DUP3 DUP6 PUSH2 0x7A3 JUMP JUMPDEST PUSH2 0x4A3 DUP6 DUP6 DUP6 PUSH2 0x836 JUMP JUMPDEST PUSH1 0x1 SWAP2 POP POP SWAP4 SWAP3 POP POP POP JUMP JUMPDEST PUSH0 PUSH1 0x6 SWAP1 POP SWAP1 JUMP JUMPDEST PUSH2 0x4BF PUSH2 0x926 JUMP JUMPDEST PUSH2 0x4D7 DUP3 PUSH3 0xF4240 DUP4 PUSH2 0x4D2 SWAP2 SWAP1 PUSH2 0x1326 JUMP JUMPDEST PUSH2 0x9AD JUMP JUMPDEST POP POP JUMP JUMPDEST PUSH0 DUP1 PUSH0 DUP4 PUSH20 0xFFFFFFFFFFFFFFFFFFFFFFFFFFFFFFFFFFFFFFFF AND PUSH20 0xFFFFFFFFFFFFFFFFFFFFFFFFFFFFFFFFFFFFFFFF AND DUP2 MSTORE PUSH1 0x20 ADD SWAP1 DUP2 MSTORE PUSH1 0x20 ADD PUSH0 KECCAK256 SLOAD SWAP1 POP SWAP2 SWAP1 POP JUMP JUMPDEST PUSH2 0x528 PUSH2 0x926 JUMP JUMPDEST PUSH2 0x531 PUSH0 PUSH2 0xA2C JUMP JUMPDEST JUMP JUMPDEST PUSH0 PUSH2 0x54C DUP4 PUSH3 0xF4240 DUP5 PUSH2 0x547 SWAP2 SWAP1 PUSH2 0x1326 JUMP JUMPDEST PUSH2 0x43A JUMP JUMPDEST SWAP1 POP SWAP3 SWAP2 POP POP JUMP JUMPDEST PUSH0 PUSH3 0xF4240 PUSH2 0x562 DUP4 PUSH2 0x4DB JUMP JUMPDEST PUSH2 0x56C SWAP2 SWAP1 PUSH2 0x12F6 JUMP JUMPDEST SWAP1 POP SWAP2 SWAP1 POP JUMP JUMPDEST PUSH0 PUSH1 0x5 PUSH0 SWAP1 SLOAD SWAP1 PUSH2 0x100 EXP SWAP1 DIV PUSH20 0xFFFFFFFFFFFFFFFFFFFFFFFFFFFFFFFFFFFFFFFF AND SWAP1 POP SWAP1 JUMP JUMPDEST PUSH1 0x60 PUSH1 0x4 DUP1 SLOAD PUSH2 0x5AA SWAP1 PUSH2 0x126C JUMP JUMPDEST DUP1 PUSH1 0x1F ADD PUSH1 0x20 DUP1 SWAP2 DIV MUL PUSH1 0x20 ADD PUSH1 0x40 MLOAD SWAP1 DUP2 ADD PUSH1 0x40 MSTORE DUP1 SWAP3 SWAP2 SWAP1 DUP2 DUP2 MSTORE PUSH1 0x20 ADD DUP3 DUP1 SLOAD PUSH2 0x5D6 SWAP1 PUSH2 0x126C JUMP JUMPDEST DUP1 ISZERO PUSH2 0x621 JUMPI DUP1 PUSH1 0x1F LT PUSH2 0x5F8 JUMPI PUSH2 0x100 DUP1 DUP4 SLOAD DIV MUL DUP4 MSTORE SWAP2 PUSH1 0x20 ADD SWAP2 PUSH2 0x621 JUMP JUMPDEST DUP3 ADD SWAP2 SWAP1 PUSH0 MSTORE PUSH1 0x20 PUSH0 KECCAK256 SWAP1 JUMPDEST DUP2 SLOAD DUP2 MSTORE SWAP1 PUSH1 0x1 ADD SWAP1 PUSH1 0x20 ADD DUP1 DUP4 GT PUSH2 0x604 JUMPI DUP3 SWAP1 SUB PUSH1 0x1F AND DUP3 ADD SWAP2 JUMPDEST POP POP POP POP POP SWAP1 POP SWAP1 JUMP JUMPDEST PUSH2 0x633 PUSH2 0x926 JUMP JUMPDEST PUSH2 0x63D DUP3 DUP3 PUSH2 0xAEF JUMP JUMPDEST POP POP JUMP JUMPDEST PUSH0 DUP1 PUSH2 0x64B PUSH2 0x78A JUMP JUMPDEST SWAP1 POP PUSH2 0x658 DUP2 DUP6 DUP6 PUSH2 0x836 JUMP JUMPDEST PUSH1 0x1 SWAP2 POP POP SWAP3 SWAP2 POP POP JUMP JUMPDEST PUSH0 PUSH2 0x67C DUP4 PUSH3 0xF4240 DUP5 PUSH2 0x677 SWAP2 SWAP1 PUSH2 0x1326 JUMP JUMPDEST PUSH2 0x641 JUMP JUMPDEST SWAP1 POP SWAP3 SWAP2 POP POP JUMP JUMPDEST PUSH0 PUSH1 0x1 PUSH0 DUP5 PUSH20 0xFFFFFFFFFFFFFFFFFFFFFFFFFFFFFFFFFFFFFFFF AND PUSH20 0xFFFFFFFFFFFFFFFFFFFFFFFFFFFFFFFFFFFFFFFF AND DUP2 MSTORE PUSH1 0x20 ADD SWAP1 DUP2 MSTORE PUSH1 0x20 ADD PUSH0 KECCAK256 PUSH0 DUP4 PUSH20 0xFFFFFFFFFFFFFFFFFFFFFFFFFFFFFFFFFFFFFFFF AND PUSH20 0xFFFFFFFFFFFFFFFFFFFFFFFFFFFFFFFFFFFFFFFF AND DUP2 MSTORE PUSH1 0x20 ADD SWAP1 DUP2 MSTORE PUSH1 0x20 ADD PUSH0 KECCAK256 SLOAD SWAP1 POP SWAP3 SWAP2 POP POP JUMP JUMPDEST PUSH2 0x70E PUSH2 0x926 JUMP JUMPDEST PUSH0 PUSH20 0xFFFFFFFFFFFFFFFFFFFFFFFFFFFFFFFFFFFFFFFF AND DUP2 PUSH20 0xFFFFFFFFFFFFFFFFFFFFFFFFFFFFFFFFFFFFFFFF AND SUB PUSH2 0x77E JUMPI PUSH0 PUSH1 0x40 MLOAD PUSH32 0x1E4FBDF700000000000000000000000000000000000000000000000000000000 DUP2 MSTORE PUSH1 0x4 ADD PUSH2 0x775 SWAP2 SWAP1 PUSH2 0x11E8 JUMP JUMPDEST PUSH1 0x40 MLOAD DUP1 SWAP2 SUB SWAP1 REVERT JUMPDEST PUSH2 0x787 DUP2 PUSH2 0xA2C JUMP JUMPDEST POP JUMP JUMPDEST PUSH0 CALLER SWAP1 POP SWAP1 JUMP JUMPDEST PUSH2 0x79E DUP4 DUP4 DUP4 PUSH1 0x1 PUSH2 0xB6E JUMP JUMPDEST POP POP POP JUMP JUMPDEST PUSH0 PUSH2 0x7AE DUP5 DUP5 PUSH2 0x684 JUMP JUMPDEST SWAP1 POP PUSH32 0xFFFFFFFFFFFFFFFFFFFFFFFFFFFFFFFFFFFFFFFFFFFFFFFFFFFFFFFFFFFFFFFF DUP2 LT ISZERO PUSH2 0x830 JUMPI DUP2 DUP2 LT ISZERO PUSH2 0x821 JUMPI DUP3 DUP2 DUP4 PUSH1 0x40 MLOAD PUSH32 0xFB8F41B200000000000000000000000000000000000000000000000000000000 DUP2 MSTORE PUSH1 0x4 ADD PUSH2 0x818 SWAP4 SWAP3 SWAP2 SWAP1 PUSH2 0x1367 JUMP JUMPDEST PUSH1 0x40 MLOAD DUP1 SWAP2 SUB SWAP1 REVERT JUMPDEST PUSH2 0x82F DUP5 DUP5 DUP5 DUP5 SUB PUSH0 PUSH2 0xB6E JUMP JUMPDEST JUMPDEST POP POP POP POP JUMP JUMPDEST PUSH0 PUSH20 0xFFFFFFFFFFFFFFFFFFFFFFFFFFFFFFFFFFFFFFFF AND DUP4 PUSH20 0xFFFFFFFFFFFFFFFFFFFFFFFFFFFFFFFFFFFFFFFF AND SUB PUSH2 0x8A6 JUMPI PUSH0 PUSH1 0x40 MLOAD PUSH32 0x96C6FD1E00000000000000000000000000000000000000000000000000000000 DUP2 MSTORE PUSH1 0x4 ADD PUSH2 0x89D SWAP2 SWAP1 PUSH2 0x11E8 JUMP JUMPDEST PUSH1 0x40 MLOAD DUP1 SWAP2 SUB SWAP1 REVERT JUMPDEST PUSH0 PUSH20 0xFFFFFFFFFFFFFFFFFFFFFFFFFFFFFFFFFFFFFFFF AND DUP3 PUSH20 0xFFFFFFFFFFFFFFFFFFFFFFFFFFFFFFFFFFFFFFFF AND SUB PUSH2 0x916 JUMPI PUSH0 PUSH1 0x40 MLOAD PUSH32 0xEC442F0500000000000000000000000000000000000000000000000000000000 DUP2 MSTORE PUSH1 0x4 ADD PUSH2 0x90D SWAP2 SWAP1 PUSH2 0x11E8 JUMP JUMPDEST PUSH1 0x40 MLOAD DUP1 SWAP2 SUB SWAP1 REVERT JUMPDEST PUSH2 0x921 DUP4 DUP4 DUP4 PUSH2 0xD3D JUMP JUMPDEST POP POP POP JUMP JUMPDEST PUSH2 0x92E PUSH2 0x78A JUMP JUMPDEST PUSH20 0xFFFFFFFFFFFFFFFFFFFFFFFFFFFFFFFFFFFFFFFF AND PUSH2 0x94C PUSH2 0x573 JUMP JUMPDEST PUSH20 0xFFFFFFFFFFFFFFFFFFFFFFFFFFFFFFFFFFFFFFFF AND EQ PUSH2 0x9AB JUMPI PUSH2 0x96F PUSH2 0x78A JUMP JUMPDEST PUSH1 0x40 MLOAD PUSH32 0x118CDAA700000000000000000000000000000000000000000000000000000000 DUP2 MSTORE PUSH1 0x4 ADD PUSH2 0x9A2 SWAP2 SWAP1 PUSH2 0x11E8 JUMP JUMPDEST PUSH1 0x40 MLOAD DUP1 SWAP2 SUB SWAP1 REVERT JUMPDEST JUMP JUMPDEST PUSH0 PUSH20 0xFFFFFFFFFFFFFFFFFFFFFFFFFFFFFFFFFFFFFFFF AND DUP3 PUSH20 0xFFFFFFFFFFFFFFFFFFFFFFFFFFFFFFFFFFFFFFFF AND SUB PUSH2 0xA1D JUMPI PUSH0 PUSH1 0x40 MLOAD PUSH32 0xEC442F0500000000000000000000000000000000000000000000000000000000 DUP2 MSTORE PUSH1 0x4 ADD PUSH2 0xA14 SWAP2 SWAP1 PUSH2 0x11E8 JUMP JUMPDEST PUSH1 0x40 MLOAD DUP1 SWAP2 SUB SWAP1 REVERT JUMPDEST PUSH2 0xA28 PUSH0 DUP4 DUP4 PUSH2 0xD3D JUMP JUMPDEST POP POP JUMP JUMPDEST PUSH0 PUSH1 0x5 PUSH0 SWAP1 SLOAD SWAP1 PUSH2 0x100 EXP SWAP1 DIV PUSH20 0xFFFFFFFFFFFFFFFFFFFFFFFFFFFFFFFFFFFFFFFF AND SWAP1 POP DUP2 PUSH1 0x5 PUSH0 PUSH2 0x100 EXP DUP2 SLOAD DUP2 PUSH20 0xFFFFFFFFFFFFFFFFFFFFFFFFFFFFFFFFFFFFFFFF MUL NOT AND SWAP1 DUP4 PUSH20 0xFFFFFFFFFFFFFFFFFFFFFFFFFFFFFFFFFFFFFFFF AND MUL OR SWAP1 SSTORE POP DUP2 PUSH20 0xFFFFFFFFFFFFFFFFFFFFFFFFFFFFFFFFFFFFFFFF AND DUP2 PUSH20 0xFFFFFFFFFFFFFFFFFFFFFFFFFFFFFFFFFFFFFFFF AND PUSH32 0x8BE0079C531659141344CD1FD0A4F28419497F9722A3DAAFE3B4186F6B6457E0 PUSH1 0x40 MLOAD PUSH1 0x40 MLOAD DUP1 SWAP2 SUB SWAP1 LOG3 POP POP JUMP JUMPDEST PUSH0 PUSH20 0xFFFFFFFFFFFFFFFFFFFFFFFFFFFFFFFFFFFFFFFF AND DUP3 PUSH20 0xFFFFFFFFFFFFFFFFFFFFFFFFFFFFFFFFFFFFFFFF AND SUB PUSH2 0xB5F JUMPI PUSH0 PUSH1 0x40 MLOAD PUSH32 0x96C6FD1E00000000000000000000000000000000000000000000000000000000 DUP2 MSTORE PUSH1 0x4 ADD PUSH2 0xB56 SWAP2 SWAP1 PUSH2 0x11E8 JUMP JUMPDEST PUSH1 0x40 MLOAD DUP1 SWAP2 SUB SWAP1 REVERT JUMPDEST PUSH2 0xB6A DUP3 PUSH0 DUP4 PUSH2 0xD3D JUMP JUMPDEST POP POP JUMP JUMPDEST PUSH0 PUSH20 0xFFFFFFFFFFFFFFFFFFFFFFFFFFFFFFFFFFFFFFFF AND DUP5 PUSH20 0xFFFFFFFFFFFFFFFFFFFFFFFFFFFFFFFFFFFFFFFF AND SUB PUSH2 0xBDE JUMPI PUSH0 PUSH1 0x40 MLOAD PUSH32 0xE602DF0500000000000000000000000000000000000000000000000000000000 DUP2 MSTORE PUSH1 0x4 ADD PUSH2 0xBD5 SWAP2 SWAP1 PUSH2 0x11E8 JUMP JUMPDEST PUSH1 0x40 MLOAD DUP1 SWAP2 SUB SWAP1 REVERT JUMPDEST PUSH0 PUSH20 0xFFFFFFFFFFFFFFFFFFFFFFFFFFFFFFFFFFFFFFFF AND DUP4 PUSH20 0xFFFFFFFFFFFFFFFFFFFFFFFFFFFFFFFFFFFFFFFF AND SUB PUSH2 0xC4E JUMPI PUSH0 PUSH1 0x40 MLOAD PUSH32 0x94280D6200000000000000000000000000000000000000000000000000000000 DUP2 MSTORE PUSH1 0x4 ADD PUSH2 0xC45 SWAP2 SWAP1 PUSH2 0x11E8 JUMP JUMPDEST PUSH1 0x40 MLOAD DUP1 SWAP2 SUB SWAP1 REVERT JUMPDEST DUP2 PUSH1 0x1 PUSH0 DUP7 PUSH20 0xFFFFFFFFFFFFFFFFFFFFFFFFFFFFFFFFFFFFFFFF AND PUSH20 0xFFFFFFFFFFFFFFFFFFFFFFFFFFFFFFFFFFFFFFFF AND DUP2 MSTORE PUSH1 0x20 ADD SWAP1 DUP2 MSTORE PUSH1 0x20 ADD PUSH0 KECCAK256 PUSH0 DUP6 PUSH20 0xFFFFFFFFFFFFFFFFFFFFFFFFFFFFFFFFFFFFFFFF AND PUSH20 0xFFFFFFFFFFFFFFFFFFFFFFFFFFFFFFFFFFFFFFFF AND DUP2 MSTORE PUSH1 0x20 ADD SWAP1 DUP2 MSTORE PUSH1 0x20 ADD PUSH0 KECCAK256 DUP2 SWAP1 SSTORE POP DUP1 ISZERO PUSH2 0xD37 JUMPI DUP3 PUSH20 0xFFFFFFFFFFFFFFFFFFFFFFFFFFFFFFFFFFFFFFFF AND DUP5 PUSH20 0xFFFFFFFFFFFFFFFFFFFFFFFFFFFFFFFFFFFFFFFF AND PUSH32 0x8C5BE1E5EBEC7D5BD14F71427D1E84F3DD0314C0F7B2291E5B200AC8C7C3B925 DUP5 PUSH1 0x40 MLOAD PUSH2 0xD2E SWAP2 SWAP1 PUSH2 0x1111 JUMP JUMPDEST PUSH1 0x40 MLOAD DUP1 SWAP2 SUB SWAP1 LOG3 JUMPDEST POP POP POP POP JUMP JUMPDEST PUSH0 PUSH20 0xFFFFFFFFFFFFFFFFFFFFFFFFFFFFFFFFFFFFFFFF AND DUP4 PUSH20 0xFFFFFFFFFFFFFFFFFFFFFFFFFFFFFFFFFFFFFFFF AND SUB PUSH2 0xD8D JUMPI DUP1 PUSH1 0x2 PUSH0 DUP3 DUP3 SLOAD PUSH2 0xD81 SWAP2 SWAP1 PUSH2 0x139C JUMP JUMPDEST SWAP3 POP POP DUP2 SWAP1 SSTORE POP PUSH2 0xE5B JUMP JUMPDEST PUSH0 DUP1 PUSH0 DUP6 PUSH20 0xFFFFFFFFFFFFFFFFFFFFFFFFFFFFFFFFFFFFFFFF AND PUSH20 0xFFFFFFFFFFFFFFFFFFFFFFFFFFFFFFFFFFFFFFFF AND DUP2 MSTORE PUSH1 0x20 ADD SWAP1 DUP2 MSTORE PUSH1 0x20 ADD PUSH0 KECCAK256 SLOAD SWAP1 POP DUP2 DUP2 LT ISZERO PUSH2 0xE16 JUMPI DUP4 DUP2 DUP4 PUSH1 0x40 MLOAD PUSH32 0xE450D38C00000000000000000000000000000000000000000000000000000000 DUP2 MSTORE PUSH1 0x4 ADD PUSH2 0xE0D SWAP4 SWAP3 SWAP2 SWAP1 PUSH2 0x1367 JUMP JUMPDEST PUSH1 0x40 MLOAD DUP1 SWAP2 SUB SWAP1 REVERT JUMPDEST DUP2 DUP2 SUB PUSH0 DUP1 DUP7 PUSH20 0xFFFFFFFFFFFFFFFFFFFFFFFFFFFFFFFFFFFFFFFF AND PUSH20 0xFFFFFFFFFFFFFFFFFFFFFFFFFFFFFFFFFFFFFFFF AND DUP2 MSTORE PUSH1 0x20 ADD SWAP1 DUP2 MSTORE PUSH1 0x20 ADD PUSH0 KECCAK256 DUP2 SWAP1 SSTORE POP POP JUMPDEST PUSH0 PUSH20 0xFFFFFFFFFFFFFFFFFFFFFFFFFFFFFFFFFFFFFFFF AND DUP3 PUSH20 0xFFFFFFFFFFFFFFFFFFFFFFFFFFFFFFFFFFFFFFFF AND SUB PUSH2 0xEA2 JUMPI DUP1 PUSH1 0x2 PUSH0 DUP3 DUP3 SLOAD SUB SWAP3 POP POP DUP2 SWAP1 SSTORE POP PUSH2 0xEEC JUMP JUMPDEST DUP1 PUSH0 DUP1 DUP5 PUSH20 0xFFFFFFFFFFFFFFFFFFFFFFFFFFFFFFFFFFFFFFFF AND PUSH20 0xFFFFFFFFFFFFFFFFFFFFFFFFFFFFFFFFFFFFFFFF AND DUP2 MSTORE PUSH1 0x20 ADD SWAP1 DUP2 MSTORE PUSH1 0x20 ADD PUSH0 KECCAK256 PUSH0 DUP3 DUP3 SLOAD ADD SWAP3 POP POP DUP2 SWAP1 SSTORE POP JUMPDEST DUP2 PUSH20 0xFFFFFFFFFFFFFFFFFFFFFFFFFFFFFFFFFFFFFFFF AND DUP4 PUSH20 0xFFFFFFFFFFFFFFFFFFFFFFFFFFFFFFFFFFFFFFFF AND PUSH32 0xDDF252AD1BE2C89B69C2B068FC378DAA952BA7F163C4A11628F55A4DF523B3EF DUP4 PUSH1 0x40 MLOAD PUSH2 0xF49 SWAP2 SWAP1 PUSH2 0x1111 JUMP JUMPDEST PUSH1 0x40 MLOAD DUP1 SWAP2 SUB SWAP1 LOG3 POP POP POP JUMP JUMPDEST PUSH0 DUP2 MLOAD SWAP1 POP SWAP2 SWAP1 POP JUMP JUMPDEST PUSH0 DUP3 DUP3 MSTORE PUSH1 0x20 DUP3 ADD SWAP1 POP SWAP3 SWAP2 POP POP JUMP JUMPDEST PUSH0 JUMPDEST DUP4 DUP2 LT ISZERO PUSH2 0xF8D JUMPI DUP1 DUP3 ADD MLOAD DUP2 DUP5 ADD MSTORE PUSH1 0x20 DUP2 ADD SWAP1 POP PUSH2 0xF72 JUMP JUMPDEST PUSH0 DUP5 DUP5 ADD MSTORE POP POP POP POP JUMP JUMPDEST PUSH0 PUSH1 0x1F NOT PUSH1 0x1F DUP4 ADD AND SWAP1 POP SWAP2 SWAP1 POP JUMP JUMPDEST PUSH0 PUSH2 0xFB2 DUP3 PUSH2 0xF56 JUMP JUMPDEST PUSH2 0xFBC DUP2 DUP6 PUSH2 0xF60 JUMP JUMPDEST SWAP4 POP PUSH2 0xFCC DUP2 DUP6 PUSH1 0x20 DUP7 ADD PUSH2 0xF70 JUMP JUMPDEST PUSH2 0xFD5 DUP2 PUSH2 0xF98 JUMP JUMPDEST DUP5 ADD SWAP2 POP POP SWAP3 SWAP2 POP POP JUMP JUMPDEST PUSH0 PUSH1 0x20 DUP3 ADD SWAP1 POP DUP2 DUP2 SUB PUSH0 DUP4 ADD MSTORE PUSH2 0xFF8 DUP2 DUP5 PUSH2 0xFA8 JUMP JUMPDEST SWAP1 POP SWAP3 SWAP2 POP POP JUMP JUMPDEST PUSH0 DUP1 REVERT JUMPDEST PUSH0 PUSH20 0xFFFFFFFFFFFFFFFFFFFFFFFFFFFFFFFFFFFFFFFF DUP3 AND SWAP1 POP SWAP2 SWAP1 POP JUMP JUMPDEST PUSH0 PUSH2 0x102D DUP3 PUSH2 0x1004 JUMP JUMPDEST SWAP1 POP SWAP2 SWAP1 POP JUMP JUMPDEST PUSH2 0x103D DUP2 PUSH2 0x1023 JUMP JUMPDEST DUP2 EQ PUSH2 0x1047 JUMPI PUSH0 DUP1 REVERT JUMPDEST POP JUMP JUMPDEST PUSH0 DUP2 CALLDATALOAD SWAP1 POP PUSH2 0x1058 DUP2 PUSH2 0x1034 JUMP JUMPDEST SWAP3 SWAP2 POP POP JUMP JUMPDEST PUSH0 DUP2 SWAP1 POP SWAP2 SWAP1 POP JUMP JUMPDEST PUSH2 0x1070 DUP2 PUSH2 0x105E JUMP JUMPDEST DUP2 EQ PUSH2 0x107A JUMPI PUSH0 DUP1 REVERT JUMPDEST POP JUMP JUMPDEST PUSH0 DUP2 CALLDATALOAD SWAP1 POP PUSH2 0x108B DUP2 PUSH2 0x1067 JUMP JUMPDEST SWAP3 SWAP2 POP POP JUMP JUMPDEST PUSH0 DUP1 PUSH1 0x40 DUP4 DUP6 SUB SLT ISZERO PUSH2 0x10A7 JUMPI PUSH2 0x10A6 PUSH2 0x1000 JUMP JUMPDEST JUMPDEST PUSH0 PUSH2 0x10B4 DUP6 DUP3 DUP7 ADD PUSH2 0x104A JUMP JUMPDEST SWAP3 POP POP PUSH1 0x20 PUSH2 0x10C5 DUP6 DUP3 DUP7 ADD PUSH2 0x107D JUMP JUMPDEST SWAP2 POP POP SWAP3 POP SWAP3 SWAP1 POP JUMP JUMPDEST PUSH0 DUP2 ISZERO ISZERO SWAP1 POP SWAP2 SWAP1 POP JUMP JUMPDEST PUSH2 0x10E3 DUP2 PUSH2 0x10CF JUMP JUMPDEST DUP3 MSTORE POP POP JUMP JUMPDEST PUSH0 PUSH1 0x20 DUP3 ADD SWAP1 POP PUSH2 0x10FC PUSH0 DUP4 ADD DUP5 PUSH2 0x10DA JUMP JUMPDEST SWAP3 SWAP2 POP POP JUMP JUMPDEST PUSH2 0x110B DUP2 PUSH2 0x105E JUMP JUMPDEST DUP3 MSTORE POP POP JUMP JUMPDEST PUSH0 PUSH1 0x20 DUP3 ADD SWAP1 POP PUSH2 0x1124 PUSH0 DUP4 ADD DUP5 PUSH2 0x1102 JUMP JUMPDEST SWAP3 SWAP2 POP POP JUMP JUMPDEST PUSH0 DUP1 PUSH0 PUSH1 0x60 DUP5 DUP7 SUB SLT ISZERO PUSH2 0x1141 JUMPI PUSH2 0x1140 PUSH2 0x1000 JUMP JUMPDEST JUMPDEST PUSH0 PUSH2 0x114E DUP7 DUP3 DUP8 ADD PUSH2 0x104A JUMP JUMPDEST SWAP4 POP POP PUSH1 0x20 PUSH2 0x115F DUP7 DUP3 DUP8 ADD PUSH2 0x104A JUMP JUMPDEST SWAP3 POP POP PUSH1 0x40 PUSH2 0x1170 DUP7 DUP3 DUP8 ADD PUSH2 0x107D JUMP JUMPDEST SWAP2 POP POP SWAP3 POP SWAP3 POP SWAP3 JUMP JUMPDEST PUSH0 PUSH1 0xFF DUP3 AND SWAP1 POP SWAP2 SWAP1 POP JUMP JUMPDEST PUSH2 0x118F DUP2 PUSH2 0x117A JUMP JUMPDEST DUP3 MSTORE POP POP JUMP JUMPDEST PUSH0 PUSH1 0x20 DUP3 ADD SWAP1 POP PUSH2 0x11A8 PUSH0 DUP4 ADD DUP5 PUSH2 0x1186 JUMP JUMPDEST SWAP3 SWAP2 POP POP JUMP JUMPDEST PUSH0 PUSH1 0x20 DUP3 DUP5 SUB SLT ISZERO PUSH2 0x11C3 JUMPI PUSH2 0x11C2 PUSH2 0x1000 JUMP JUMPDEST JUMPDEST PUSH0 PUSH2 0x11D0 DUP5 DUP3 DUP6 ADD PUSH2 0x104A JUMP JUMPDEST SWAP2 POP POP SWAP3 SWAP2 POP POP JUMP JUMPDEST PUSH2 0x11E2 DUP2 PUSH2 0x1023 JUMP JUMPDEST DUP3 MSTORE POP POP JUMP JUMPDEST PUSH0 PUSH1 0x20 DUP3 ADD SWAP1 POP PUSH2 0x11FB PUSH0 DUP4 ADD DUP5 PUSH2 0x11D9 JUMP JUMPDEST SWAP3 SWAP2 POP POP JUMP JUMPDEST PUSH0 DUP1 PUSH1 0x40 DUP4 DUP6 SUB SLT ISZERO PUSH2 0x1217 JUMPI PUSH2 0x1216 PUSH2 0x1000 JUMP JUMPDEST JUMPDEST PUSH0 PUSH2 0x1224 DUP6 DUP3 DUP7 ADD PUSH2 0x104A JUMP JUMPDEST SWAP3 POP POP PUSH1 0x20 PUSH2 0x1235 DUP6 DUP3 DUP7 ADD PUSH2 0x104A JUMP JUMPDEST SWAP2 POP POP SWAP3 POP SWAP3 SWAP1 POP JUMP JUMPDEST PUSH32 0x4E487B7100000000000000000000000000000000000000000000000000000000 PUSH0 MSTORE PUSH1 0x22 PUSH1 0x4 MSTORE PUSH1 0x24 PUSH0 REVERT JUMPDEST PUSH0 PUSH1 0x2 DUP3 DIV SWAP1 POP PUSH1 0x1 DUP3 AND DUP1 PUSH2 0x1283 JUMPI PUSH1 0x7F DUP3 AND SWAP2 POP JUMPDEST PUSH1 0x20 DUP3 LT DUP2 SUB PUSH2 0x1296 JUMPI PUSH2 0x1295 PUSH2 0x123F JUMP JUMPDEST JUMPDEST POP SWAP2 SWAP1 POP JUMP JUMPDEST PUSH32 0x4E487B7100000000000000000000000000000000000000000000000000000000 PUSH0 MSTORE PUSH1 0x12 PUSH1 0x4 MSTORE PUSH1 0x24 PUSH0 REVERT JUMPDEST PUSH32 0x4E487B7100000000000000000000000000000000000000000000000000000000 PUSH0 MSTORE PUSH1 0x11 PUSH1 0x4 MSTORE PUSH1 0x24 PUSH0 REVERT JUMPDEST PUSH0 PUSH2 0x1300 DUP3 PUSH2 0x105E JUMP JUMPDEST SWAP2 POP PUSH2 0x130B DUP4 PUSH2 0x105E JUMP JUMPDEST SWAP3 POP DUP3 PUSH2 0x131B JUMPI PUSH2 0x131A PUSH2 0x129C JUMP JUMPDEST JUMPDEST DUP3 DUP3 DIV SWAP1 POP SWAP3 SWAP2 POP POP JUMP JUMPDEST PUSH0 PUSH2 0x1330 DUP3 PUSH2 0x105E JUMP JUMPDEST SWAP2 POP PUSH2 0x133B DUP4 PUSH2 0x105E JUMP JUMPDEST SWAP3 POP DUP3 DUP3 MUL PUSH2 0x1349 DUP2 PUSH2 0x105E JUMP JUMPDEST SWAP2 POP DUP3 DUP3 DIV DUP5 EQ DUP4 ISZERO OR PUSH2 0x1360 JUMPI PUSH2 0x135F PUSH2 0x12C9 JUMP JUMPDEST JUMPDEST POP SWAP3 SWAP2 POP POP JUMP JUMPDEST PUSH0 PUSH1 0x60 DUP3 ADD SWAP1 POP PUSH2 0x137A PUSH0 DUP4 ADD DUP7 PUSH2 0x11D9 JUMP JUMPDEST PUSH2 0x1387 PUSH1 0x20 DUP4 ADD DUP6 PUSH2 0x1102 JUMP JUMPDEST PUSH2 0x1394 PUSH1 0x40 DUP4 ADD DUP5 PUSH2 0x1102 JUMP JUMPDEST SWAP5 SWAP4 POP POP POP POP JUMP JUMPDEST PUSH0 PUSH2 0x13A6 DUP3 PUSH2 0x105E JUMP JUMPDEST SWAP2 POP PUSH2 0x13B1 DUP4 PUSH2 0x105E JUMP JUMPDEST SWAP3 POP DUP3 DUP3 ADD SWAP1 POP DUP1 DUP3 GT ISZERO PUSH2 0x13C9 JUMPI PUSH2 0x13C8 PUSH2 0x12C9 JUMP JUMPDEST JUMPDEST SWAP3 SWAP2 POP POP JUMP INVALID LOG2 PUSH5 0x6970667358 0x22 SLT KECCAK256 0xC5 PUSH25 0x5E20BCEF3C0A58DA5C4A13AD190220EB74E0C6C1B41CFAD789 0xBA 0xBD GASPRICE PUSH18 0x7364736F6C63430008140033000000000000 "
				},
				"gasEstimates": {
					"creation": {
						"codeDepositCost": "1025000",
						"executionCost": "infinite",
						"totalCost": "infinite"
					},
					"external": {
						"allowance(address,address)": "infinite",
						"approve(address,uint256)": "infinite",
						"approveUSD(address,uint256)": "infinite",
						"balanceOf(address)": "2918",
						"balanceUSD(address)": "infinite",
						"burn(address,uint256)": "infinite",
						"decimals()": "383",
						"mint(address,uint256)": "infinite",
						"name()": "infinite",
						"owner()": "2582",
						"renounceOwnership()": "infinite",
						"symbol()": "infinite",
						"totalSupply()": "2500",
						"totalSupplyUSD()": "infinite",
						"transfer(address,uint256)": "infinite",
						"transferFrom(address,address,uint256)": "infinite",
						"transferOwnership(address)": "infinite",
						"transferUSD(address,uint256)": "infinite"
					}
				},
				"methodIdentifiers": {
					"allowance(address,address)": "dd62ed3e",
					"approve(address,uint256)": "095ea7b3",
					"approveUSD(address,uint256)": "7dc6e927",
					"balanceOf(address)": "70a08231",
					"balanceUSD(address)": "828a295f",
					"burn(address,uint256)": "9dc29fac",
					"decimals()": "313ce567",
					"mint(address,uint256)": "40c10f19",
					"name()": "06fdde03",
					"owner()": "8da5cb5b",
					"renounceOwnership()": "715018a6",
					"symbol()": "95d89b41",
					"totalSupply()": "18160ddd",
					"totalSupplyUSD()": "21ce7719",
					"transfer(address,uint256)": "a9059cbb",
					"transferFrom(address,address,uint256)": "23b872dd",
					"transferOwnership(address)": "f2fde38b",
					"transferUSD(address,uint256)": "dd0be52d"
				}
			},
			"storageLayout": {
				"storage": [
					{
						"astId": 279,
						"contract": "contracts/TokenUSDt_flattened.sol:USDt",
						"label": "_balances",
						"offset": 0,
						"slot": "0",
						"type": "t_mapping(t_address,t_uint256)"
					},
					{
						"astId": 285,
						"contract": "contracts/TokenUSDt_flattened.sol:USDt",
						"label": "_allowances",
						"offset": 0,
						"slot": "1",
						"type": "t_mapping(t_address,t_mapping(t_address,t_uint256))"
					},
					{
						"astId": 287,
						"contract": "contracts/TokenUSDt_flattened.sol:USDt",
						"label": "_totalSupply",
						"offset": 0,
						"slot": "2",
						"type": "t_uint256"
					},
					{
						"astId": 289,
						"contract": "contracts/TokenUSDt_flattened.sol:USDt",
						"label": "_name",
						"offset": 0,
						"slot": "3",
						"type": "t_string_storage"
					},
					{
						"astId": 291,
						"contract": "contracts/TokenUSDt_flattened.sol:USDt",
						"label": "_symbol",
						"offset": 0,
						"slot": "4",
						"type": "t_string_storage"
					},
					{
						"astId": 777,
						"contract": "contracts/TokenUSDt_flattened.sol:USDt",
						"label": "_owner",
						"offset": 0,
						"slot": "5",
						"type": "t_address"
					}
				],
				"types": {
					"t_address": {
						"encoding": "inplace",
						"label": "address",
						"numberOfBytes": "20"
					},
					"t_mapping(t_address,t_mapping(t_address,t_uint256))": {
						"encoding": "mapping",
						"key": "t_address",
						"label": "mapping(address => mapping(address => uint256))",
						"numberOfBytes": "32",
						"value": "t_mapping(t_address,t_uint256)"
					},
					"t_mapping(t_address,t_uint256)": {
						"encoding": "mapping",
						"key": "t_address",
						"label": "mapping(address => uint256)",
						"numberOfBytes": "32",
						"value": "t_uint256"
					},
					"t_string_storage": {
						"encoding": "bytes",
						"label": "string",
						"numberOfBytes": "32"
					},
					"t_uint256": {
						"encoding": "inplace",
						"label": "uint256",
						"numberOfBytes": "32"
					}
				}
			},
			"userdoc": {
				"kind": "user",
				"methods": {},
				"version": 1
			}
		}
	}
}