{
	"contracts/0050PriceOracle.sol": {
		"PriceOracle0050": {
			"abi": [
				{
					"inputs": [],
					"stateMutability": "nonpayable",
					"type": "constructor"
				},
				{
					"inputs": [],
					"name": "EmptySource",
					"type": "error"
				},
				{
					"inputs": [],
					"name": "NoInlineSecrets",
					"type": "error"
				},
				{
					"inputs": [],
					"name": "OnlyRouterCanFulfill",
					"type": "error"
				},
				{
					"anonymous": false,
					"inputs": [
						{
							"indexed": true,
							"internalType": "address",
							"name": "from",
							"type": "address"
						},
						{
							"indexed": true,
							"internalType": "address",
							"name": "to",
							"type": "address"
						}
					],
					"name": "OwnershipTransferRequested",
					"type": "event"
				},
				{
					"anonymous": false,
					"inputs": [
						{
							"indexed": true,
							"internalType": "address",
							"name": "from",
							"type": "address"
						},
						{
							"indexed": true,
							"internalType": "address",
							"name": "to",
							"type": "address"
						}
					],
					"name": "OwnershipTransferred",
					"type": "event"
				},
				{
					"anonymous": false,
					"inputs": [
						{
							"indexed": true,
							"internalType": "bytes32",
							"name": "requestId",
							"type": "bytes32"
						}
					],
					"name": "PriceRequested",
					"type": "event"
				},
				{
					"anonymous": false,
					"inputs": [
						{
							"indexed": false,
							"internalType": "uint256",
							"name": "newPrice",
							"type": "uint256"
						},
						{
							"indexed": false,
							"internalType": "uint256",
							"name": "timestamp",
							"type": "uint256"
						}
					],
					"name": "PriceUpdated",
					"type": "event"
				},
				{
					"anonymous": false,
					"inputs": [
						{
							"indexed": true,
							"internalType": "bytes32",
							"name": "requestId",
							"type": "bytes32"
						},
						{
							"indexed": false,
							"internalType": "bytes",
							"name": "error",
							"type": "bytes"
						}
					],
					"name": "RequestFailed",
					"type": "event"
				},
				{
					"anonymous": false,
					"inputs": [
						{
							"indexed": true,
							"internalType": "bytes32",
							"name": "id",
							"type": "bytes32"
						}
					],
					"name": "RequestFulfilled",
					"type": "event"
				},
				{
					"anonymous": false,
					"inputs": [
						{
							"indexed": true,
							"internalType": "bytes32",
							"name": "id",
							"type": "bytes32"
						}
					],
					"name": "RequestSent",
					"type": "event"
				},
				{
					"inputs": [],
					"name": "acceptOwnership",
					"outputs": [],
					"stateMutability": "nonpayable",
					"type": "function"
				},
				{
					"inputs": [],
					"name": "donID",
					"outputs": [
						{
							"internalType": "bytes32",
							"name": "",
							"type": "bytes32"
						}
					],
					"stateMutability": "view",
					"type": "function"
				},
				{
					"inputs": [],
					"name": "gasLimit",
					"outputs": [
						{
							"internalType": "uint32",
							"name": "",
							"type": "uint32"
						}
					],
					"stateMutability": "view",
					"type": "function"
				},
				{
					"inputs": [],
					"name": "getLatestPrice",
					"outputs": [
						{
							"internalType": "uint256",
							"name": "",
							"type": "uint256"
						}
					],
					"stateMutability": "view",
					"type": "function"
				},
				{
					"inputs": [],
					"name": "getLatestPriceUSD",
					"outputs": [
						{
							"internalType": "uint256",
							"name": "",
							"type": "uint256"
						}
					],
					"stateMutability": "view",
					"type": "function"
				},
				{
					"inputs": [],
					"name": "getOracleInfo",
					"outputs": [
						{
							"internalType": "uint256",
							"name": "price",
							"type": "uint256"
						},
						{
							"internalType": "uint256",
							"name": "priceUSD",
							"type": "uint256"
						},
						{
							"internalType": "uint256",
							"name": "lastUpdate",
							"type": "uint256"
						},
						{
							"internalType": "uint256",
							"name": "timeSinceUpdate",
							"type": "uint256"
						},
						{
							"internalType": "bytes32",
							"name": "lastRequest",
							"type": "bytes32"
						}
					],
					"stateMutability": "view",
					"type": "function"
				},
				{
					"inputs": [
						{
							"internalType": "bytes32",
							"name": "requestId",
							"type": "bytes32"
						},
						{
							"internalType": "bytes",
							"name": "response",
							"type": "bytes"
						},
						{
							"internalType": "bytes",
							"name": "err",
							"type": "bytes"
						}
					],
					"name": "handleOracleFulfillment",
					"outputs": [],
					"stateMutability": "nonpayable",
					"type": "function"
				},
				{
					"inputs": [],
					"name": "isPriceStale",
					"outputs": [
						{
							"internalType": "bool",
							"name": "",
							"type": "bool"
						}
					],
					"stateMutability": "view",
					"type": "function"
				},
				{
					"inputs": [],
					"name": "lastRequestId",
					"outputs": [
						{
							"internalType": "bytes32",
							"name": "",
							"type": "bytes32"
						}
					],
					"stateMutability": "view",
					"type": "function"
				},
				{
					"inputs": [],
					"name": "lastUpdateTime",
					"outputs": [
						{
							"internalType": "uint256",
							"name": "",
							"type": "uint256"
						}
					],
					"stateMutability": "view",
					"type": "function"
				},
				{
					"inputs": [],
					"name": "owner",
					"outputs": [
						{
							"internalType": "address",
							"name": "",
							"type": "address"
						}
					],
					"stateMutability": "view",
					"type": "function"
				},
				{
					"inputs": [],
					"name": "requestPriceUpdate",
					"outputs": [
						{
							"internalType": "bytes32",
							"name": "requestId",
							"type": "bytes32"
						}
					],
					"stateMutability": "nonpayable",
					"type": "function"
				},
				{
					"inputs": [],
					"name": "subscriptionId",
					"outputs": [
						{
							"internalType": "uint64",
							"name": "",
							"type": "uint64"
						}
					],
					"stateMutability": "view",
					"type": "function"
				},
				{
					"inputs": [
						{
							"internalType": "address",
							"name": "to",
							"type": "address"
						}
					],
					"name": "transferOwnership",
					"outputs": [],
					"stateMutability": "nonpayable",
					"type": "function"
				},
				{
					"inputs": [
						{
							"internalType": "uint64",
							"name": "_subscriptionId",
							"type": "uint64"
						},
						{
							"internalType": "uint32",
							"name": "_gasLimit",
							"type": "uint32"
						},
						{
							"internalType": "bytes32",
							"name": "_donID",
							"type": "bytes32"
						}
					],
					"name": "updateConfig",
					"outputs": [],
					"stateMutability": "nonpayable",
					"type": "function"
				},
				{
					"inputs": [
						{
							"internalType": "uint256",
							"name": "_newPriceUSD",
							"type": "uint256"
						}
					],
					"name": "updatePriceManual",
					"outputs": [],
					"stateMutability": "nonpayable",
					"type": "function"
				}
			],
			"devdoc": {
				"kind": "dev",
				"methods": {
					"handleOracleFulfillment(bytes32,bytes,bytes)": {
						"details": "Either response or error parameter will be set, but never both.",
						"params": {
							"err": "Aggregated error either from the request's source code or from the execution pipeline.",
							"requestId": "The requestId returned by FunctionsClient.sendRequest().",
							"response": "Aggregated response from the request's source code."
						}
					}
				},
				"version": 1
			},
			"evm": {
				"assembly": "    /* \"contracts/0050PriceOracle.sol\":373:4553  contract PriceOracle0050 is FunctionsClient, ConfirmedOwner {... */\n  mstore(0x40, 0xa0)\n    /* \"contracts/0050PriceOracle.sol\":711:717  300000 */\n  0x0493e0\n    /* \"contracts/0050PriceOracle.sol\":686:717  uint32 public gasLimit = 300000 */\n  0x05\n  exp(0x0100, 0x08)\n  dup2\n  sload\n  dup2\n  0xffffffff\n  mul\n  not\n  and\n  swap1\n  dup4\n  0xffffffff\n  and\n  mul\n  or\n  swap1\n  sstore\n  pop\n    /* \"contracts/0050PriceOracle.sol\":1008:1537  string private source = ... */\n  mload(0x40)\n  dup1\n  0x01a0\n  add\n  0x40\n  mstore\n  dup1\n  0x0169\n  dup2\n  mstore\n  0x20\n  add\n  data_fd27a0d89f09d1b3e812531a97aeb32166256a76eb28ff5ff9f29b247904d467\n  0x0169\n  swap2\n  codecopy\n  0x07\n  swap1\n  dup2\n  tag_1\n  swap2\n  swap1\n  tag_2\n  jump\t// in\ntag_1:\n  pop\n    /* \"contracts/0050PriceOracle.sol\":1550:1948  constructor() FunctionsClient(0xb83E47C2bC239B3bf370bc41e1459A34b41238D0) ConfirmedOwner(msg.sender) {... */\n  callvalue\n  dup1\n  iszero\n  tag_3\n  jumpi\n  0x00\n  dup1\n  revert\ntag_3:\n  pop\n    /* \"contracts/0050PriceOracle.sol\":1639:1649  msg.sender */\n  caller\n    /* \"@chainlink/contracts/src/v0.8/shared/access/ConfirmedOwner.sol\":355:363  newOwner */\n  dup1\n    /* \"@chainlink/contracts/src/v0.8/shared/access/ConfirmedOwner.sol\":373:374  0 */\n  0x00\n    /* \"contracts/0050PriceOracle.sol\":1580:1622  0xb83E47C2bC239B3bf370bc41e1459A34b41238D0 */\n  0xb83e47c2bc239b3bf370bc41e1459a34b41238d0\n    /* \"@chainlink/contracts/src/v0.8/functions/v1_0_0/FunctionsClient.sol\":764:770  router */\n  dup1\n    /* \"@chainlink/contracts/src/v0.8/functions/v1_0_0/FunctionsClient.sol\":736:771  i_router = IFunctionsRouter(router) */\n  0xffffffffffffffffffffffffffffffffffffffff\n  and\n  0x80\n  dup2\n  0xffffffffffffffffffffffffffffffffffffffff\n  and\n  dup2\n  mstore\n  pop\n  pop\n    /* \"@chainlink/contracts/src/v0.8/functions/v1_0_0/FunctionsClient.sol\":702:776  constructor(address router) {... */\n  pop\n    /* \"@chainlink/contracts/src/v0.8/shared/access/ConfirmedOwnerWithProposal.sol\":618:619  0 */\n  0x00\n    /* \"@chainlink/contracts/src/v0.8/shared/access/ConfirmedOwnerWithProposal.sol\":598:620  newOwner != address(0) */\n  0xffffffffffffffffffffffffffffffffffffffff\n  and\n    /* \"@chainlink/contracts/src/v0.8/shared/access/ConfirmedOwnerWithProposal.sol\":598:606  newOwner */\n  dup3\n    /* \"@chainlink/contracts/src/v0.8/shared/access/ConfirmedOwnerWithProposal.sol\":598:620  newOwner != address(0) */\n  0xffffffffffffffffffffffffffffffffffffffff\n  and\n  sub\n    /* \"@chainlink/contracts/src/v0.8/shared/access/ConfirmedOwnerWithProposal.sol\":590:649  require(newOwner != address(0), \"Cannot set owner to zero\") */\n  tag_10\n  jumpi\n  mload(0x40)\n  0x08c379a000000000000000000000000000000000000000000000000000000000\n  dup2\n  mstore\n  0x04\n  add\n  tag_11\n  swap1\n  tag_12\n  jump\t// in\ntag_11:\n  mload(0x40)\n  dup1\n  swap2\n  sub\n  swap1\n  revert\ntag_10:\n    /* \"@chainlink/contracts/src/v0.8/shared/access/ConfirmedOwnerWithProposal.sol\":666:674  newOwner */\n  dup2\n    /* \"@chainlink/contracts/src/v0.8/shared/access/ConfirmedOwnerWithProposal.sol\":656:663  s_owner */\n  0x00\n  dup1\n    /* \"@chainlink/contracts/src/v0.8/shared/access/ConfirmedOwnerWithProposal.sol\":656:674  s_owner = newOwner */\n  0x0100\n  exp\n  dup2\n  sload\n  dup2\n  0xffffffffffffffffffffffffffffffffffffffff\n  mul\n  not\n  and\n  swap1\n  dup4\n  0xffffffffffffffffffffffffffffffffffffffff\n  and\n  mul\n  or\n  swap1\n  sstore\n  pop\n    /* \"@chainlink/contracts/src/v0.8/shared/access/ConfirmedOwnerWithProposal.sol\":708:709  0 */\n  0x00\n    /* \"@chainlink/contracts/src/v0.8/shared/access/ConfirmedOwnerWithProposal.sol\":684:710  pendingOwner != address(0) */\n  0xffffffffffffffffffffffffffffffffffffffff\n  and\n    /* \"@chainlink/contracts/src/v0.8/shared/access/ConfirmedOwnerWithProposal.sol\":684:696  pendingOwner */\n  dup2\n    /* \"@chainlink/contracts/src/v0.8/shared/access/ConfirmedOwnerWithProposal.sol\":684:710  pendingOwner != address(0) */\n  0xffffffffffffffffffffffffffffffffffffffff\n  and\n  eq\n    /* \"@chainlink/contracts/src/v0.8/shared/access/ConfirmedOwnerWithProposal.sol\":680:759  if (pendingOwner != address(0)) {... */\n  tag_13\n  jumpi\n    /* \"@chainlink/contracts/src/v0.8/shared/access/ConfirmedOwnerWithProposal.sol\":720:752  _transferOwnership(pendingOwner) */\n  tag_14\n    /* \"@chainlink/contracts/src/v0.8/shared/access/ConfirmedOwnerWithProposal.sol\":739:751  pendingOwner */\n  dup2\n    /* \"@chainlink/contracts/src/v0.8/shared/access/ConfirmedOwnerWithProposal.sol\":720:738  _transferOwnership */\n  shl(0x20, tag_15)\n    /* \"@chainlink/contracts/src/v0.8/shared/access/ConfirmedOwnerWithProposal.sol\":720:752  _transferOwnership(pendingOwner) */\n  0x20\n  shr\n  jump\t// in\ntag_14:\n    /* \"@chainlink/contracts/src/v0.8/shared/access/ConfirmedOwnerWithProposal.sol\":680:759  if (pendingOwner != address(0)) {... */\ntag_13:\n    /* \"@chainlink/contracts/src/v0.8/shared/access/ConfirmedOwnerWithProposal.sol\":481:763  constructor(address newOwner, address pendingOwner) {... */\n  pop\n  pop\n    /* \"@chainlink/contracts/src/v0.8/shared/access/ConfirmedOwner.sol\":298:379  constructor(address newOwner) ConfirmedOwnerWithProposal(newOwner, address(0)) {} */\n  pop\n    /* \"contracts/0050PriceOracle.sol\":1679:1683  5639 */\n  0x1607\n    /* \"contracts/0050PriceOracle.sol\":1662:1676  subscriptionId */\n  0x05\n  0x00\n    /* \"contracts/0050PriceOracle.sol\":1662:1683  subscriptionId = 5639 */\n  0x0100\n  exp\n  dup2\n  sload\n  dup2\n  0xffffffffffffffff\n  mul\n  not\n  and\n  swap1\n  dup4\n  0xffffffffffffffff\n  and\n  mul\n  or\n  swap1\n  sstore\n  pop\n    /* \"contracts/0050PriceOracle.sol\":1720:1786  0x66756e2d657468657265756d2d7365706f6c69612d3100000000000000000000 */\n  0x66756e2d657468657265756d2d7365706f6c69612d3100000000000000000000\n    /* \"contracts/0050PriceOracle.sol\":1712:1786  donID = 0x66756e2d657468657265756d2d7365706f6c69612d3100000000000000000000 */\n  0x00\n  shl\n    /* \"contracts/0050PriceOracle.sol\":1712:1717  donID */\n  0x06\n    /* \"contracts/0050PriceOracle.sol\":1712:1786  donID = 0x66756e2d657468657265756d2d7365706f6c69612d3100000000000000000000 */\n  dup2\n  swap1\n  sstore\n  pop\n    /* \"contracts/0050PriceOracle.sol\":1888:1897  20 * 1e18 */\n  0x01158e460913d00000\n    /* \"contracts/0050PriceOracle.sol\":1873:1885  currentPrice */\n  0x02\n    /* \"contracts/0050PriceOracle.sol\":1873:1897  currentPrice = 20 * 1e18 */\n  dup2\n  swap1\n  sstore\n  pop\n    /* \"contracts/0050PriceOracle.sol\":1925:1940  block.timestamp */\n  timestamp\n    /* \"contracts/0050PriceOracle.sol\":1908:1922  lastUpdateTime */\n  0x03\n    /* \"contracts/0050PriceOracle.sol\":1908:1940  lastUpdateTime = block.timestamp */\n  dup2\n  swap1\n  sstore\n  pop\n    /* \"contracts/0050PriceOracle.sol\":373:4553  contract PriceOracle0050 is FunctionsClient, ConfirmedOwner {... */\n  jump(tag_18)\n    /* \"@chainlink/contracts/src/v0.8/shared/access/ConfirmedOwnerWithProposal.sol\":1536:1775  function _transferOwnership(address to) private {... */\ntag_15:\n    /* \"@chainlink/contracts/src/v0.8/shared/access/ConfirmedOwnerWithProposal.sol\":1655:1665  msg.sender */\n  caller\n    /* \"@chainlink/contracts/src/v0.8/shared/access/ConfirmedOwnerWithProposal.sol\":1649:1665  to != msg.sender */\n  0xffffffffffffffffffffffffffffffffffffffff\n  and\n    /* \"@chainlink/contracts/src/v0.8/shared/access/ConfirmedOwnerWithProposal.sol\":1649:1651  to */\n  dup2\n    /* \"@chainlink/contracts/src/v0.8/shared/access/ConfirmedOwnerWithProposal.sol\":1649:1665  to != msg.sender */\n  0xffffffffffffffffffffffffffffffffffffffff\n  and\n  sub\n    /* \"@chainlink/contracts/src/v0.8/shared/access/ConfirmedOwnerWithProposal.sol\":1641:1693  require(to != msg.sender, \"Cannot transfer to self\") */\n  tag_20\n  jumpi\n  mload(0x40)\n  0x08c379a000000000000000000000000000000000000000000000000000000000\n  dup2\n  mstore\n  0x04\n  add\n  tag_21\n  swap1\n  tag_22\n  jump\t// in\ntag_21:\n  mload(0x40)\n  dup1\n  swap2\n  sub\n  swap1\n  revert\ntag_20:\n    /* \"@chainlink/contracts/src/v0.8/shared/access/ConfirmedOwnerWithProposal.sol\":1717:1719  to */\n  dup1\n    /* \"@chainlink/contracts/src/v0.8/shared/access/ConfirmedOwnerWithProposal.sol\":1700:1714  s_pendingOwner */\n  0x01\n  0x00\n    /* \"@chainlink/contracts/src/v0.8/shared/access/ConfirmedOwnerWithProposal.sol\":1700:1719  s_pendingOwner = to */\n  0x0100\n  exp\n  dup2\n  sload\n  dup2\n  0xffffffffffffffffffffffffffffffffffffffff\n  mul\n  not\n  and\n  swap1\n  dup4\n  0xffffffffffffffffffffffffffffffffffffffff\n  and\n  mul\n  or\n  swap1\n  sstore\n  pop\n    /* \"@chainlink/contracts/src/v0.8/shared/access/ConfirmedOwnerWithProposal.sol\":1767:1769  to */\n  dup1\n    /* \"@chainlink/contracts/src/v0.8/shared/access/ConfirmedOwnerWithProposal.sol\":1731:1770  OwnershipTransferRequested(s_owner, to) */\n  0xffffffffffffffffffffffffffffffffffffffff\n  and\n    /* \"@chainlink/contracts/src/v0.8/shared/access/ConfirmedOwnerWithProposal.sol\":1758:1765  s_owner */\n  0x00\n  dup1\n  sload\n  swap1\n  0x0100\n  exp\n  swap1\n  div\n  0xffffffffffffffffffffffffffffffffffffffff\n  and\n    /* \"@chainlink/contracts/src/v0.8/shared/access/ConfirmedOwnerWithProposal.sol\":1731:1770  OwnershipTransferRequested(s_owner, to) */\n  0xffffffffffffffffffffffffffffffffffffffff\n  and\n  0xed8889f560326eb138920d842192f0eb3dd22b4f139c87a2c57538e05bae1278\n  mload(0x40)\n  mload(0x40)\n  dup1\n  swap2\n  sub\n  swap1\n  log3\n    /* \"@chainlink/contracts/src/v0.8/shared/access/ConfirmedOwnerWithProposal.sol\":1536:1775  function _transferOwnership(address to) private {... */\n  pop\n  jump\t// out\n    /* \"#utility.yul\":7:106   */\ntag_23:\n    /* \"#utility.yul\":59:65   */\n  0x00\n    /* \"#utility.yul\":93:98   */\n  dup2\n    /* \"#utility.yul\":87:99   */\n  mload\n    /* \"#utility.yul\":77:99   */\n  swap1\n  pop\n    /* \"#utility.yul\":7:106   */\n  swap2\n  swap1\n  pop\n  jump\t// out\n    /* \"#utility.yul\":112:292   */\ntag_24:\n    /* \"#utility.yul\":160:237   */\n  0x4e487b7100000000000000000000000000000000000000000000000000000000\n    /* \"#utility.yul\":157:158   */\n  0x00\n    /* \"#utility.yul\":150:238   */\n  mstore\n    /* \"#utility.yul\":257:261   */\n  0x41\n    /* \"#utility.yul\":254:255   */\n  0x04\n    /* \"#utility.yul\":247:262   */\n  mstore\n    /* \"#utility.yul\":281:285   */\n  0x24\n    /* \"#utility.yul\":278:279   */\n  0x00\n    /* \"#utility.yul\":271:286   */\n  revert\n    /* \"#utility.yul\":298:478   */\ntag_25:\n    /* \"#utility.yul\":346:423   */\n  0x4e487b7100000000000000000000000000000000000000000000000000000000\n    /* \"#utility.yul\":343:344   */\n  0x00\n    /* \"#utility.yul\":336:424   */\n  mstore\n    /* \"#utility.yul\":443:447   */\n  0x22\n    /* \"#utility.yul\":440:441   */\n  0x04\n    /* \"#utility.yul\":433:448   */\n  mstore\n    /* \"#utility.yul\":467:471   */\n  0x24\n    /* \"#utility.yul\":464:465   */\n  0x00\n    /* \"#utility.yul\":457:472   */\n  revert\n    /* \"#utility.yul\":484:804   */\ntag_26:\n    /* \"#utility.yul\":528:534   */\n  0x00\n    /* \"#utility.yul\":565:566   */\n  0x02\n    /* \"#utility.yul\":559:563   */\n  dup3\n    /* \"#utility.yul\":555:567   */\n  div\n    /* \"#utility.yul\":545:567   */\n  swap1\n  pop\n    /* \"#utility.yul\":612:613   */\n  0x01\n    /* \"#utility.yul\":606:610   */\n  dup3\n    /* \"#utility.yul\":602:614   */\n  and\n    /* \"#utility.yul\":633:651   */\n  dup1\n    /* \"#utility.yul\":623:704   */\n  tag_53\n  jumpi\n    /* \"#utility.yul\":689:693   */\n  0x7f\n    /* \"#utility.yul\":681:687   */\n  dup3\n    /* \"#utility.yul\":677:694   */\n  and\n    /* \"#utility.yul\":667:694   */\n  swap2\n  pop\n    /* \"#utility.yul\":623:704   */\ntag_53:\n    /* \"#utility.yul\":751:753   */\n  0x20\n    /* \"#utility.yul\":743:749   */\n  dup3\n    /* \"#utility.yul\":740:754   */\n  lt\n    /* \"#utility.yul\":720:738   */\n  dup2\n    /* \"#utility.yul\":717:755   */\n  sub\n    /* \"#utility.yul\":714:798   */\n  tag_54\n  jumpi\n    /* \"#utility.yul\":770:788   */\n  tag_55\n  tag_25\n  jump\t// in\ntag_55:\n    /* \"#utility.yul\":714:798   */\ntag_54:\n    /* \"#utility.yul\":535:804   */\n  pop\n    /* \"#utility.yul\":484:804   */\n  swap2\n  swap1\n  pop\n  jump\t// out\n    /* \"#utility.yul\":810:951   */\ntag_27:\n    /* \"#utility.yul\":859:863   */\n  0x00\n    /* \"#utility.yul\":882:885   */\n  dup2\n    /* \"#utility.yul\":874:885   */\n  swap1\n  pop\n    /* \"#utility.yul\":905:908   */\n  dup2\n    /* \"#utility.yul\":902:903   */\n  0x00\n    /* \"#utility.yul\":895:909   */\n  mstore\n    /* \"#utility.yul\":939:943   */\n  0x20\n    /* \"#utility.yul\":936:937   */\n  0x00\n    /* \"#utility.yul\":926:944   */\n  keccak256\n    /* \"#utility.yul\":918:944   */\n  swap1\n  pop\n    /* \"#utility.yul\":810:951   */\n  swap2\n  swap1\n  pop\n  jump\t// out\n    /* \"#utility.yul\":957:1050   */\ntag_28:\n    /* \"#utility.yul\":994:1000   */\n  0x00\n    /* \"#utility.yul\":1041:1043   */\n  0x20\n    /* \"#utility.yul\":1036:1038   */\n  0x1f\n    /* \"#utility.yul\":1029:1034   */\n  dup4\n    /* \"#utility.yul\":1025:1039   */\n  add\n    /* \"#utility.yul\":1021:1044   */\n  div\n    /* \"#utility.yul\":1011:1044   */\n  swap1\n  pop\n    /* \"#utility.yul\":957:1050   */\n  swap2\n  swap1\n  pop\n  jump\t// out\n    /* \"#utility.yul\":1056:1163   */\ntag_29:\n    /* \"#utility.yul\":1100:1108   */\n  0x00\n    /* \"#utility.yul\":1150:1155   */\n  dup3\n    /* \"#utility.yul\":1144:1148   */\n  dup3\n    /* \"#utility.yul\":1140:1156   */\n  shl\n    /* \"#utility.yul\":1119:1156   */\n  swap1\n  pop\n    /* \"#utility.yul\":1056:1163   */\n  swap3\n  swap2\n  pop\n  pop\n  jump\t// out\n    /* \"#utility.yul\":1169:1562   */\ntag_30:\n    /* \"#utility.yul\":1238:1244   */\n  0x00\n    /* \"#utility.yul\":1288:1289   */\n  0x08\n    /* \"#utility.yul\":1276:1286   */\n  dup4\n    /* \"#utility.yul\":1272:1290   */\n  mul\n    /* \"#utility.yul\":1311:1408   */\n  tag_60\n    /* \"#utility.yul\":1341:1407   */\n  0xffffffffffffffffffffffffffffffffffffffffffffffffffffffffffffffff\n    /* \"#utility.yul\":1330:1339   */\n  dup3\n    /* \"#utility.yul\":1311:1408   */\n  tag_29\n  jump\t// in\ntag_60:\n    /* \"#utility.yul\":1429:1468   */\n  tag_61\n    /* \"#utility.yul\":1459:1467   */\n  dup7\n    /* \"#utility.yul\":1448:1457   */\n  dup4\n    /* \"#utility.yul\":1429:1468   */\n  tag_29\n  jump\t// in\ntag_61:\n    /* \"#utility.yul\":1417:1468   */\n  swap6\n  pop\n    /* \"#utility.yul\":1501:1505   */\n  dup1\n    /* \"#utility.yul\":1497:1506   */\n  not\n    /* \"#utility.yul\":1490:1495   */\n  dup5\n    /* \"#utility.yul\":1486:1507   */\n  and\n    /* \"#utility.yul\":1477:1507   */\n  swap4\n  pop\n    /* \"#utility.yul\":1550:1554   */\n  dup1\n    /* \"#utility.yul\":1540:1548   */\n  dup7\n    /* \"#utility.yul\":1536:1555   */\n  and\n    /* \"#utility.yul\":1529:1534   */\n  dup5\n    /* \"#utility.yul\":1526:1556   */\n  or\n    /* \"#utility.yul\":1516:1556   */\n  swap3\n  pop\n    /* \"#utility.yul\":1245:1562   */\n  pop\n  pop\n    /* \"#utility.yul\":1169:1562   */\n  swap4\n  swap3\n  pop\n  pop\n  pop\n  jump\t// out\n    /* \"#utility.yul\":1568:1645   */\ntag_31:\n    /* \"#utility.yul\":1605:1612   */\n  0x00\n    /* \"#utility.yul\":1634:1639   */\n  dup2\n    /* \"#utility.yul\":1623:1639   */\n  swap1\n  pop\n    /* \"#utility.yul\":1568:1645   */\n  swap2\n  swap1\n  pop\n  jump\t// out\n    /* \"#utility.yul\":1651:1711   */\ntag_32:\n    /* \"#utility.yul\":1679:1682   */\n  0x00\n    /* \"#utility.yul\":1700:1705   */\n  dup2\n    /* \"#utility.yul\":1693:1705   */\n  swap1\n  pop\n    /* \"#utility.yul\":1651:1711   */\n  swap2\n  swap1\n  pop\n  jump\t// out\n    /* \"#utility.yul\":1717:1859   */\ntag_33:\n    /* \"#utility.yul\":1767:1776   */\n  0x00\n    /* \"#utility.yul\":1800:1853   */\n  tag_65\n    /* \"#utility.yul\":1818:1852   */\n  tag_66\n    /* \"#utility.yul\":1827:1851   */\n  tag_67\n    /* \"#utility.yul\":1845:1850   */\n  dup5\n    /* \"#utility.yul\":1827:1851   */\n  tag_31\n  jump\t// in\ntag_67:\n    /* \"#utility.yul\":1818:1852   */\n  tag_32\n  jump\t// in\ntag_66:\n    /* \"#utility.yul\":1800:1853   */\n  tag_31\n  jump\t// in\ntag_65:\n    /* \"#utility.yul\":1787:1853   */\n  swap1\n  pop\n    /* \"#utility.yul\":1717:1859   */\n  swap2\n  swap1\n  pop\n  jump\t// out\n    /* \"#utility.yul\":1865:1940   */\ntag_34:\n    /* \"#utility.yul\":1908:1911   */\n  0x00\n    /* \"#utility.yul\":1929:1934   */\n  dup2\n    /* \"#utility.yul\":1922:1934   */\n  swap1\n  pop\n    /* \"#utility.yul\":1865:1940   */\n  swap2\n  swap1\n  pop\n  jump\t// out\n    /* \"#utility.yul\":1946:2215   */\ntag_35:\n    /* \"#utility.yul\":2056:2095   */\n  tag_70\n    /* \"#utility.yul\":2087:2094   */\n  dup4\n    /* \"#utility.yul\":2056:2095   */\n  tag_33\n  jump\t// in\ntag_70:\n    /* \"#utility.yul\":2117:2208   */\n  tag_71\n    /* \"#utility.yul\":2166:2207   */\n  tag_72\n    /* \"#utility.yul\":2190:2206   */\n  dup3\n    /* \"#utility.yul\":2166:2207   */\n  tag_34\n  jump\t// in\ntag_72:\n    /* \"#utility.yul\":2158:2164   */\n  dup5\n    /* \"#utility.yul\":2151:2155   */\n  dup5\n    /* \"#utility.yul\":2145:2156   */\n  sload\n    /* \"#utility.yul\":2117:2208   */\n  tag_30\n  jump\t// in\ntag_71:\n    /* \"#utility.yul\":2111:2115   */\n  dup3\n    /* \"#utility.yul\":2104:2209   */\n  sstore\n    /* \"#utility.yul\":2022:2215   */\n  pop\n    /* \"#utility.yul\":1946:2215   */\n  pop\n  pop\n  pop\n  jump\t// out\n    /* \"#utility.yul\":2221:2294   */\ntag_36:\n    /* \"#utility.yul\":2266:2269   */\n  0x00\n    /* \"#utility.yul\":2221:2294   */\n  swap1\n  jump\t// out\n    /* \"#utility.yul\":2300:2489   */\ntag_37:\n    /* \"#utility.yul\":2377:2409   */\n  tag_75\n  tag_36\n  jump\t// in\ntag_75:\n    /* \"#utility.yul\":2418:2483   */\n  tag_76\n    /* \"#utility.yul\":2476:2482   */\n  dup2\n    /* \"#utility.yul\":2468:2474   */\n  dup5\n    /* \"#utility.yul\":2462:2466   */\n  dup5\n    /* \"#utility.yul\":2418:2483   */\n  tag_35\n  jump\t// in\ntag_76:\n    /* \"#utility.yul\":2353:2489   */\n  pop\n    /* \"#utility.yul\":2300:2489   */\n  pop\n  pop\n  jump\t// out\n    /* \"#utility.yul\":2495:2681   */\ntag_38:\n    /* \"#utility.yul\":2555:2675   */\ntag_78:\n    /* \"#utility.yul\":2572:2575   */\n  dup2\n    /* \"#utility.yul\":2565:2570   */\n  dup2\n    /* \"#utility.yul\":2562:2576   */\n  lt\n    /* \"#utility.yul\":2555:2675   */\n  iszero\n  tag_80\n  jumpi\n    /* \"#utility.yul\":2626:2665   */\n  tag_81\n    /* \"#utility.yul\":2663:2664   */\n  0x00\n    /* \"#utility.yul\":2656:2661   */\n  dup3\n    /* \"#utility.yul\":2626:2665   */\n  tag_37\n  jump\t// in\ntag_81:\n    /* \"#utility.yul\":2599:2600   */\n  0x01\n    /* \"#utility.yul\":2592:2597   */\n  dup2\n    /* \"#utility.yul\":2588:2601   */\n  add\n    /* \"#utility.yul\":2579:2601   */\n  swap1\n  pop\n    /* \"#utility.yul\":2555:2675   */\n  jump(tag_78)\ntag_80:\n    /* \"#utility.yul\":2495:2681   */\n  pop\n  pop\n  jump\t// out\n    /* \"#utility.yul\":2687:3230   */\ntag_39:\n    /* \"#utility.yul\":2788:2790   */\n  0x1f\n    /* \"#utility.yul\":2783:2786   */\n  dup3\n    /* \"#utility.yul\":2780:2791   */\n  gt\n    /* \"#utility.yul\":2777:3223   */\n  iszero\n  tag_83\n  jumpi\n    /* \"#utility.yul\":2822:2860   */\n  tag_84\n    /* \"#utility.yul\":2854:2859   */\n  dup2\n    /* \"#utility.yul\":2822:2860   */\n  tag_27\n  jump\t// in\ntag_84:\n    /* \"#utility.yul\":2906:2935   */\n  tag_85\n    /* \"#utility.yul\":2924:2934   */\n  dup5\n    /* \"#utility.yul\":2906:2935   */\n  tag_28\n  jump\t// in\ntag_85:\n    /* \"#utility.yul\":2896:2904   */\n  dup2\n    /* \"#utility.yul\":2892:2936   */\n  add\n    /* \"#utility.yul\":3089:3091   */\n  0x20\n    /* \"#utility.yul\":3077:3087   */\n  dup6\n    /* \"#utility.yul\":3074:3092   */\n  lt\n    /* \"#utility.yul\":3071:3120   */\n  iszero\n  tag_86\n  jumpi\n    /* \"#utility.yul\":3110:3118   */\n  dup2\n    /* \"#utility.yul\":3095:3118   */\n  swap1\n  pop\n    /* \"#utility.yul\":3071:3120   */\ntag_86:\n    /* \"#utility.yul\":3133:3213   */\n  tag_87\n    /* \"#utility.yul\":3189:3211   */\n  tag_88\n    /* \"#utility.yul\":3207:3210   */\n  dup6\n    /* \"#utility.yul\":3189:3211   */\n  tag_28\n  jump\t// in\ntag_88:\n    /* \"#utility.yul\":3179:3187   */\n  dup4\n    /* \"#utility.yul\":3175:3212   */\n  add\n    /* \"#utility.yul\":3162:3173   */\n  dup3\n    /* \"#utility.yul\":3133:3213   */\n  tag_38\n  jump\t// in\ntag_87:\n    /* \"#utility.yul\":2792:3223   */\n  pop\n  pop\n    /* \"#utility.yul\":2777:3223   */\ntag_83:\n    /* \"#utility.yul\":2687:3230   */\n  pop\n  pop\n  pop\n  jump\t// out\n    /* \"#utility.yul\":3236:3353   */\ntag_40:\n    /* \"#utility.yul\":3290:3298   */\n  0x00\n    /* \"#utility.yul\":3340:3345   */\n  dup3\n    /* \"#utility.yul\":3334:3338   */\n  dup3\n    /* \"#utility.yul\":3330:3346   */\n  shr\n    /* \"#utility.yul\":3309:3346   */\n  swap1\n  pop\n    /* \"#utility.yul\":3236:3353   */\n  swap3\n  swap2\n  pop\n  pop\n  jump\t// out\n    /* \"#utility.yul\":3359:3528   */\ntag_41:\n    /* \"#utility.yul\":3403:3409   */\n  0x00\n    /* \"#utility.yul\":3436:3487   */\n  tag_91\n    /* \"#utility.yul\":3484:3485   */\n  0x00\n    /* \"#utility.yul\":3480:3486   */\n  not\n    /* \"#utility.yul\":3472:3477   */\n  dup5\n    /* \"#utility.yul\":3469:3470   */\n  0x08\n    /* \"#utility.yul\":3465:3478   */\n  mul\n    /* \"#utility.yul\":3436:3487   */\n  tag_40\n  jump\t// in\ntag_91:\n    /* \"#utility.yul\":3432:3488   */\n  not\n    /* \"#utility.yul\":3517:3521   */\n  dup1\n    /* \"#utility.yul\":3511:3515   */\n  dup4\n    /* \"#utility.yul\":3507:3522   */\n  and\n    /* \"#utility.yul\":3497:3522   */\n  swap2\n  pop\n    /* \"#utility.yul\":3410:3528   */\n  pop\n    /* \"#utility.yul\":3359:3528   */\n  swap3\n  swap2\n  pop\n  pop\n  jump\t// out\n    /* \"#utility.yul\":3533:3828   */\ntag_42:\n    /* \"#utility.yul\":3609:3613   */\n  0x00\n    /* \"#utility.yul\":3755:3784   */\n  tag_93\n    /* \"#utility.yul\":3780:3783   */\n  dup4\n    /* \"#utility.yul\":3774:3778   */\n  dup4\n    /* \"#utility.yul\":3755:3784   */\n  tag_41\n  jump\t// in\ntag_93:\n    /* \"#utility.yul\":3747:3784   */\n  swap2\n  pop\n    /* \"#utility.yul\":3817:3820   */\n  dup3\n    /* \"#utility.yul\":3814:3815   */\n  0x02\n    /* \"#utility.yul\":3810:3821   */\n  mul\n    /* \"#utility.yul\":3804:3808   */\n  dup3\n    /* \"#utility.yul\":3801:3822   */\n  or\n    /* \"#utility.yul\":3793:3822   */\n  swap1\n  pop\n    /* \"#utility.yul\":3533:3828   */\n  swap3\n  swap2\n  pop\n  pop\n  jump\t// out\n    /* \"#utility.yul\":3833:5228   */\ntag_2:\n    /* \"#utility.yul\":3950:3987   */\n  tag_95\n    /* \"#utility.yul\":3983:3986   */\n  dup3\n    /* \"#utility.yul\":3950:3987   */\n  tag_23\n  jump\t// in\ntag_95:\n    /* \"#utility.yul\":4052:4070   */\n  0xffffffffffffffff\n    /* \"#utility.yul\":4044:4050   */\n  dup2\n    /* \"#utility.yul\":4041:4071   */\n  gt\n    /* \"#utility.yul\":4038:4094   */\n  iszero\n  tag_96\n  jumpi\n    /* \"#utility.yul\":4074:4092   */\n  tag_97\n  tag_24\n  jump\t// in\ntag_97:\n    /* \"#utility.yul\":4038:4094   */\ntag_96:\n    /* \"#utility.yul\":4118:4156   */\n  tag_98\n    /* \"#utility.yul\":4150:4154   */\n  dup3\n    /* \"#utility.yul\":4144:4155   */\n  sload\n    /* \"#utility.yul\":4118:4156   */\n  tag_26\n  jump\t// in\ntag_98:\n    /* \"#utility.yul\":4203:4270   */\n  tag_99\n    /* \"#utility.yul\":4263:4269   */\n  dup3\n    /* \"#utility.yul\":4255:4261   */\n  dup3\n    /* \"#utility.yul\":4249:4253   */\n  dup6\n    /* \"#utility.yul\":4203:4270   */\n  tag_39\n  jump\t// in\ntag_99:\n    /* \"#utility.yul\":4297:4298   */\n  0x00\n    /* \"#utility.yul\":4321:4325   */\n  0x20\n    /* \"#utility.yul\":4308:4325   */\n  swap1\n  pop\n    /* \"#utility.yul\":4353:4355   */\n  0x1f\n    /* \"#utility.yul\":4345:4351   */\n  dup4\n    /* \"#utility.yul\":4342:4356   */\n  gt\n    /* \"#utility.yul\":4370:4371   */\n  0x01\n    /* \"#utility.yul\":4365:4983   */\n  dup2\n  eq\n  tag_101\n  jumpi\n    /* \"#utility.yul\":5027:5028   */\n  0x00\n    /* \"#utility.yul\":5044:5050   */\n  dup5\n    /* \"#utility.yul\":5041:5118   */\n  iszero\n  tag_102\n  jumpi\n    /* \"#utility.yul\":5093:5102   */\n  dup3\n    /* \"#utility.yul\":5088:5091   */\n  dup8\n    /* \"#utility.yul\":5084:5103   */\n  add\n    /* \"#utility.yul\":5078:5104   */\n  mload\n    /* \"#utility.yul\":5069:5104   */\n  swap1\n  pop\n    /* \"#utility.yul\":5041:5118   */\ntag_102:\n    /* \"#utility.yul\":5144:5211   */\n  tag_103\n    /* \"#utility.yul\":5204:5210   */\n  dup6\n    /* \"#utility.yul\":5197:5202   */\n  dup3\n    /* \"#utility.yul\":5144:5211   */\n  tag_42\n  jump\t// in\ntag_103:\n    /* \"#utility.yul\":5138:5142   */\n  dup7\n    /* \"#utility.yul\":5131:5212   */\n  sstore\n    /* \"#utility.yul\":5000:5222   */\n  pop\n    /* \"#utility.yul\":4335:5222   */\n  jump(tag_100)\n    /* \"#utility.yul\":4365:4983   */\ntag_101:\n    /* \"#utility.yul\":4417:4421   */\n  0x1f\n    /* \"#utility.yul\":4413:4422   */\n  not\n    /* \"#utility.yul\":4405:4411   */\n  dup5\n    /* \"#utility.yul\":4401:4423   */\n  and\n    /* \"#utility.yul\":4451:4488   */\n  tag_104\n    /* \"#utility.yul\":4483:4487   */\n  dup7\n    /* \"#utility.yul\":4451:4488   */\n  tag_27\n  jump\t// in\ntag_104:\n    /* \"#utility.yul\":4510:4511   */\n  0x00\n    /* \"#utility.yul\":4524:4732   */\ntag_105:\n    /* \"#utility.yul\":4538:4545   */\n  dup3\n    /* \"#utility.yul\":4535:4536   */\n  dup2\n    /* \"#utility.yul\":4532:4546   */\n  lt\n    /* \"#utility.yul\":4524:4732   */\n  iszero\n  tag_107\n  jumpi\n    /* \"#utility.yul\":4617:4626   */\n  dup5\n    /* \"#utility.yul\":4612:4615   */\n  dup10\n    /* \"#utility.yul\":4608:4627   */\n  add\n    /* \"#utility.yul\":4602:4628   */\n  mload\n    /* \"#utility.yul\":4594:4600   */\n  dup3\n    /* \"#utility.yul\":4587:4629   */\n  sstore\n    /* \"#utility.yul\":4668:4669   */\n  0x01\n    /* \"#utility.yul\":4660:4666   */\n  dup3\n    /* \"#utility.yul\":4656:4670   */\n  add\n    /* \"#utility.yul\":4646:4670   */\n  swap2\n  pop\n    /* \"#utility.yul\":4715:4717   */\n  0x20\n    /* \"#utility.yul\":4704:4713   */\n  dup6\n    /* \"#utility.yul\":4700:4718   */\n  add\n    /* \"#utility.yul\":4687:4718   */\n  swap5\n  pop\n    /* \"#utility.yul\":4561:4565   */\n  0x20\n    /* \"#utility.yul\":4558:4559   */\n  dup2\n    /* \"#utility.yul\":4554:4566   */\n  add\n    /* \"#utility.yul\":4549:4566   */\n  swap1\n  pop\n    /* \"#utility.yul\":4524:4732   */\n  jump(tag_105)\ntag_107:\n    /* \"#utility.yul\":4760:4766   */\n  dup7\n    /* \"#utility.yul\":4751:4758   */\n  dup4\n    /* \"#utility.yul\":4748:4767   */\n  lt\n    /* \"#utility.yul\":4745:4924   */\n  iszero\n  tag_108\n  jumpi\n    /* \"#utility.yul\":4818:4827   */\n  dup5\n    /* \"#utility.yul\":4813:4816   */\n  dup10\n    /* \"#utility.yul\":4809:4828   */\n  add\n    /* \"#utility.yul\":4803:4829   */\n  mload\n    /* \"#utility.yul\":4861:4909   */\n  tag_109\n    /* \"#utility.yul\":4903:4907   */\n  0x1f\n    /* \"#utility.yul\":4895:4901   */\n  dup10\n    /* \"#utility.yul\":4891:4908   */\n  and\n    /* \"#utility.yul\":4880:4889   */\n  dup3\n    /* \"#utility.yul\":4861:4909   */\n  tag_41\n  jump\t// in\ntag_109:\n    /* \"#utility.yul\":4853:4859   */\n  dup4\n    /* \"#utility.yul\":4846:4910   */\n  sstore\n    /* \"#utility.yul\":4768:4924   */\n  pop\n    /* \"#utility.yul\":4745:4924   */\ntag_108:\n    /* \"#utility.yul\":4970:4971   */\n  0x01\n    /* \"#utility.yul\":4966:4967   */\n  0x02\n    /* \"#utility.yul\":4958:4964   */\n  dup9\n    /* \"#utility.yul\":4954:4968   */\n  mul\n    /* \"#utility.yul\":4950:4972   */\n  add\n    /* \"#utility.yul\":4944:4948   */\n  dup9\n    /* \"#utility.yul\":4937:4973   */\n  sstore\n    /* \"#utility.yul\":4372:4983   */\n  pop\n  pop\n  pop\n    /* \"#utility.yul\":4335:5222   */\ntag_100:\n  pop\n    /* \"#utility.yul\":3925:5228   */\n  pop\n  pop\n  pop\n    /* \"#utility.yul\":3833:5228   */\n  pop\n  pop\n  jump\t// out\n    /* \"#utility.yul\":5234:5403   */\ntag_43:\n    /* \"#utility.yul\":5318:5329   */\n  0x00\n    /* \"#utility.yul\":5352:5358   */\n  dup3\n    /* \"#utility.yul\":5347:5350   */\n  dup3\n    /* \"#utility.yul\":5340:5359   */\n  mstore\n    /* \"#utility.yul\":5392:5396   */\n  0x20\n    /* \"#utility.yul\":5387:5390   */\n  dup3\n    /* \"#utility.yul\":5383:5397   */\n  add\n    /* \"#utility.yul\":5368:5397   */\n  swap1\n  pop\n    /* \"#utility.yul\":5234:5403   */\n  swap3\n  swap2\n  pop\n  pop\n  jump\t// out\n    /* \"#utility.yul\":5409:5583   */\ntag_44:\n    /* \"#utility.yul\":5549:5575   */\n  0x43616e6e6f7420736574206f776e657220746f207a65726f0000000000000000\n    /* \"#utility.yul\":5545:5546   */\n  0x00\n    /* \"#utility.yul\":5537:5543   */\n  dup3\n    /* \"#utility.yul\":5533:5547   */\n  add\n    /* \"#utility.yul\":5526:5576   */\n  mstore\n    /* \"#utility.yul\":5409:5583   */\n  pop\n  jump\t// out\n    /* \"#utility.yul\":5589:5955   */\ntag_45:\n    /* \"#utility.yul\":5731:5734   */\n  0x00\n    /* \"#utility.yul\":5752:5819   */\n  tag_113\n    /* \"#utility.yul\":5816:5818   */\n  0x18\n    /* \"#utility.yul\":5811:5814   */\n  dup4\n    /* \"#utility.yul\":5752:5819   */\n  tag_43\n  jump\t// in\ntag_113:\n    /* \"#utility.yul\":5745:5819   */\n  swap2\n  pop\n    /* \"#utility.yul\":5828:5921   */\n  tag_114\n    /* \"#utility.yul\":5917:5920   */\n  dup3\n    /* \"#utility.yul\":5828:5921   */\n  tag_44\n  jump\t// in\ntag_114:\n    /* \"#utility.yul\":5946:5948   */\n  0x20\n    /* \"#utility.yul\":5941:5944   */\n  dup3\n    /* \"#utility.yul\":5937:5949   */\n  add\n    /* \"#utility.yul\":5930:5949   */\n  swap1\n  pop\n    /* \"#utility.yul\":5589:5955   */\n  swap2\n  swap1\n  pop\n  jump\t// out\n    /* \"#utility.yul\":5961:6380   */\ntag_12:\n    /* \"#utility.yul\":6127:6131   */\n  0x00\n    /* \"#utility.yul\":6165:6167   */\n  0x20\n    /* \"#utility.yul\":6154:6163   */\n  dup3\n    /* \"#utility.yul\":6150:6168   */\n  add\n    /* \"#utility.yul\":6142:6168   */\n  swap1\n  pop\n    /* \"#utility.yul\":6214:6223   */\n  dup2\n    /* \"#utility.yul\":6208:6212   */\n  dup2\n    /* \"#utility.yul\":6204:6224   */\n  sub\n    /* \"#utility.yul\":6200:6201   */\n  0x00\n    /* \"#utility.yul\":6189:6198   */\n  dup4\n    /* \"#utility.yul\":6185:6202   */\n  add\n    /* \"#utility.yul\":6178:6225   */\n  mstore\n    /* \"#utility.yul\":6242:6373   */\n  tag_116\n    /* \"#utility.yul\":6368:6372   */\n  dup2\n    /* \"#utility.yul\":6242:6373   */\n  tag_45\n  jump\t// in\ntag_116:\n    /* \"#utility.yul\":6234:6373   */\n  swap1\n  pop\n    /* \"#utility.yul\":5961:6380   */\n  swap2\n  swap1\n  pop\n  jump\t// out\n    /* \"#utility.yul\":6386:6559   */\ntag_46:\n    /* \"#utility.yul\":6526:6551   */\n  0x43616e6e6f74207472616e7366657220746f2073656c66000000000000000000\n    /* \"#utility.yul\":6522:6523   */\n  0x00\n    /* \"#utility.yul\":6514:6520   */\n  dup3\n    /* \"#utility.yul\":6510:6524   */\n  add\n    /* \"#utility.yul\":6503:6552   */\n  mstore\n    /* \"#utility.yul\":6386:6559   */\n  pop\n  jump\t// out\n    /* \"#utility.yul\":6565:6931   */\ntag_47:\n    /* \"#utility.yul\":6707:6710   */\n  0x00\n    /* \"#utility.yul\":6728:6795   */\n  tag_119\n    /* \"#utility.yul\":6792:6794   */\n  0x17\n    /* \"#utility.yul\":6787:6790   */\n  dup4\n    /* \"#utility.yul\":6728:6795   */\n  tag_43\n  jump\t// in\ntag_119:\n    /* \"#utility.yul\":6721:6795   */\n  swap2\n  pop\n    /* \"#utility.yul\":6804:6897   */\n  tag_120\n    /* \"#utility.yul\":6893:6896   */\n  dup3\n    /* \"#utility.yul\":6804:6897   */\n  tag_46\n  jump\t// in\ntag_120:\n    /* \"#utility.yul\":6922:6924   */\n  0x20\n    /* \"#utility.yul\":6917:6920   */\n  dup3\n    /* \"#utility.yul\":6913:6925   */\n  add\n    /* \"#utility.yul\":6906:6925   */\n  swap1\n  pop\n    /* \"#utility.yul\":6565:6931   */\n  swap2\n  swap1\n  pop\n  jump\t// out\n    /* \"#utility.yul\":6937:7356   */\ntag_22:\n    /* \"#utility.yul\":7103:7107   */\n  0x00\n    /* \"#utility.yul\":7141:7143   */\n  0x20\n    /* \"#utility.yul\":7130:7139   */\n  dup3\n    /* \"#utility.yul\":7126:7144   */\n  add\n    /* \"#utility.yul\":7118:7144   */\n  swap1\n  pop\n    /* \"#utility.yul\":7190:7199   */\n  dup2\n    /* \"#utility.yul\":7184:7188   */\n  dup2\n    /* \"#utility.yul\":7180:7200   */\n  sub\n    /* \"#utility.yul\":7176:7177   */\n  0x00\n    /* \"#utility.yul\":7165:7174   */\n  dup4\n    /* \"#utility.yul\":7161:7178   */\n  add\n    /* \"#utility.yul\":7154:7201   */\n  mstore\n    /* \"#utility.yul\":7218:7349   */\n  tag_122\n    /* \"#utility.yul\":7344:7348   */\n  dup2\n    /* \"#utility.yul\":7218:7349   */\n  tag_47\n  jump\t// in\ntag_122:\n    /* \"#utility.yul\":7210:7349   */\n  swap1\n  pop\n    /* \"#utility.yul\":6937:7356   */\n  swap2\n  swap1\n  pop\n  jump\t// out\n    /* \"contracts/0050PriceOracle.sol\":373:4553  contract PriceOracle0050 is FunctionsClient, ConfirmedOwner {... */\ntag_18:\n  mload(0x80)\n  codecopy(0x00, dataOffset(sub_0), dataSize(sub_0))\n  0x00\n  assignImmutable(\"0x8e8fab5f003314da8d1873ea7720e8d9f47650136d916064d1edb8a11d682624\")\n  return(0x00, dataSize(sub_0))\nstop\ndata_fd27a0d89f09d1b3e812531a97aeb32166256a76eb28ff5ff9f29b247904d467 636f6e737420726573706f6e7365203d2061776169742046756e6374696f6e732e6d616b654874747052657175657374287b75726c3a202768747470733a2f2f7175657279312e66696e616e63652e7961686f6f2e636f6d2f76382f66696e616e63652f63686172742f303035302e5457277d293b69662028726573706f6e73652e6572726f7229207b7468726f77204572726f72282752657175657374206661696c656427293b7d636f6e737420726573756c74203d20726573706f6e73652e646174612e63686172742e726573756c745b305d3b636f6e7374207072696365203d20726573756c742e6d6574612e726567756c61724d61726b657450726963653b6966202821707269636529207b7468726f77204572726f7228275072696365206e6f7420666f756e6427293b7d72657475726e2046756e6374696f6e732e656e636f646555696e74323536284d6174682e726f756e64287072696365202a203165313829293b\n\nsub_0: assembly {\n        /* \"contracts/0050PriceOracle.sol\":373:4553  contract PriceOracle0050 is FunctionsClient, ConfirmedOwner {... */\n      mstore(0x40, 0x80)\n      callvalue\n      dup1\n      iszero\n      tag_1\n      jumpi\n      0x00\n      dup1\n      revert\n    tag_1:\n      pop\n      jumpi(tag_2, lt(calldatasize, 0x04))\n      shr(0xe0, calldataload(0x00))\n      dup1\n      0x9c84cd10\n      gt\n      tag_19\n      jumpi\n      dup1\n      0xec2b70a4\n      gt\n      tag_20\n      jumpi\n      dup1\n      0xec2b70a4\n      eq\n      tag_15\n      jumpi\n      dup1\n      0xf2fde38b\n      eq\n      tag_16\n      jumpi\n      dup1\n      0xf68016b7\n      eq\n      tag_17\n      jumpi\n      dup1\n      0xfc2a88c3\n      eq\n      tag_18\n      jumpi\n      jump(tag_2)\n    tag_20:\n      dup1\n      0x9c84cd10\n      eq\n      tag_11\n      jumpi\n      dup1\n      0xafdb0556\n      eq\n      tag_12\n      jumpi\n      dup1\n      0xc8f33c91\n      eq\n      tag_13\n      jumpi\n      dup1\n      0xd0f784f0\n      eq\n      tag_14\n      jumpi\n      jump(tag_2)\n    tag_19:\n      dup1\n      0x6e74336b\n      gt\n      tag_21\n      jumpi\n      dup1\n      0x6e74336b\n      eq\n      tag_7\n      jumpi\n      dup1\n      0x79ba5097\n      eq\n      tag_8\n      jumpi\n      dup1\n      0x8da5cb5b\n      eq\n      tag_9\n      jumpi\n      dup1\n      0x8e15f473\n      eq\n      tag_10\n      jumpi\n      jump(tag_2)\n    tag_21:\n      dup1\n      0x05239ca1\n      eq\n      tag_3\n      jumpi\n      dup1\n      0x09c1ba2e\n      eq\n      tag_4\n      jumpi\n      dup1\n      0x0ca76175\n      eq\n      tag_5\n      jumpi\n      dup1\n      0x2f5df725\n      eq\n      tag_6\n      jumpi\n    tag_2:\n      0x00\n      dup1\n      revert\n        /* \"contracts/0050PriceOracle.sol\":3315:3606  function updatePriceManual(uint256 _newPriceUSD) external onlyOwner {... */\n    tag_3:\n      tag_22\n      0x04\n      dup1\n      calldatasize\n      sub\n      dup2\n      add\n      swap1\n      tag_23\n      swap2\n      swap1\n      tag_24\n      jump\t// in\n    tag_23:\n      tag_25\n      jump\t// in\n    tag_22:\n      stop\n        /* \"contracts/0050PriceOracle.sol\":651:679  uint64 public subscriptionId */\n    tag_4:\n      tag_26\n      tag_27\n      jump\t// in\n    tag_26:\n      mload(0x40)\n      tag_28\n      swap2\n      swap1\n      tag_29\n      jump\t// in\n    tag_28:\n      mload(0x40)\n      dup1\n      swap2\n      sub\n      swap1\n      return\n        /* \"@chainlink/contracts/src/v0.8/functions/v1_0_0/FunctionsClient.sol\":2078:2364  function handleOracleFulfillment(bytes32 requestId, bytes memory response, bytes memory err) external override {... */\n    tag_5:\n      tag_30\n      0x04\n      dup1\n      calldatasize\n      sub\n      dup2\n      add\n      swap1\n      tag_31\n      swap2\n      swap1\n      tag_32\n      jump\t// in\n    tag_31:\n      tag_33\n      jump\t// in\n    tag_30:\n      stop\n        /* \"contracts/0050PriceOracle.sol\":4419:4550  function isPriceStale() external view returns (bool) {... */\n    tag_6:\n      tag_34\n      tag_35\n      jump\t// in\n    tag_34:\n      mload(0x40)\n      tag_36\n      swap2\n      swap1\n      tag_37\n      jump\t// in\n    tag_36:\n      mload(0x40)\n      dup1\n      swap2\n      sub\n      swap1\n      return\n        /* \"contracts/0050PriceOracle.sol\":724:744  bytes32 public donID */\n    tag_7:\n      tag_38\n      tag_39\n      jump\t// in\n    tag_38:\n      mload(0x40)\n      tag_40\n      swap2\n      swap1\n      tag_41\n      jump\t// in\n    tag_40:\n      mload(0x40)\n      dup1\n      swap2\n      sub\n      swap1\n      return\n        /* \"@chainlink/contracts/src/v0.8/shared/access/ConfirmedOwnerWithProposal.sol\":1026:1342  function acceptOwnership() external override {... */\n    tag_8:\n      tag_42\n      tag_43\n      jump\t// in\n    tag_42:\n      stop\n        /* \"@chainlink/contracts/src/v0.8/shared/access/ConfirmedOwnerWithProposal.sol\":1382:1463  function owner() public view override returns (address) {... */\n    tag_9:\n      tag_44\n      tag_45\n      jump\t// in\n    tag_44:\n      mload(0x40)\n      tag_46\n      swap2\n      swap1\n      tag_47\n      jump\t// in\n    tag_46:\n      mload(0x40)\n      dup1\n      swap2\n      sub\n      swap1\n      return\n        /* \"contracts/0050PriceOracle.sol\":2004:2100  function getLatestPrice() external view returns (uint256) {... */\n    tag_10:\n      tag_48\n      tag_49\n      jump\t// in\n    tag_48:\n      mload(0x40)\n      tag_50\n      swap2\n      swap1\n      tag_51\n      jump\t// in\n    tag_50:\n      mload(0x40)\n      dup1\n      swap2\n      sub\n      swap1\n      return\n        /* \"contracts/0050PriceOracle.sol\":3954:4355  function getOracleInfo() external view returns (... */\n    tag_11:\n      tag_52\n      tag_53\n      jump\t// in\n    tag_52:\n      mload(0x40)\n      tag_54\n      swap6\n      swap5\n      swap4\n      swap3\n      swap2\n      swap1\n      tag_55\n      jump\t// in\n    tag_54:\n      mload(0x40)\n      dup1\n      swap2\n      sub\n      swap1\n      return\n        /* \"contracts/0050PriceOracle.sol\":2293:2746  function requestPriceUpdate() external returns (bytes32 requestId) {... */\n    tag_12:\n      tag_56\n      tag_57\n      jump\t// in\n    tag_56:\n      mload(0x40)\n      tag_58\n      swap2\n      swap1\n      tag_41\n      jump\t// in\n    tag_58:\n      mload(0x40)\n      dup1\n      swap2\n      sub\n      swap1\n      return\n        /* \"contracts/0050PriceOracle.sol\":539:568  uint256 public lastUpdateTime */\n    tag_13:\n      tag_59\n      tag_60\n      jump\t// in\n    tag_59:\n      mload(0x40)\n      tag_61\n      swap2\n      swap1\n      tag_51\n      jump\t// in\n    tag_61:\n      mload(0x40)\n      dup1\n      swap2\n      sub\n      swap1\n      return\n        /* \"contracts/0050PriceOracle.sol\":3654:3894  function updateConfig(... */\n    tag_14:\n      tag_62\n      0x04\n      dup1\n      calldatasize\n      sub\n      dup2\n      add\n      swap1\n      tag_63\n      swap2\n      swap1\n      tag_64\n      jump\t// in\n    tag_63:\n      tag_65\n      jump\t// in\n    tag_62:\n      stop\n        /* \"contracts/0050PriceOracle.sol\":2148:2254  function getLatestPriceUSD() external view returns (uint256) {... */\n    tag_15:\n      tag_66\n      tag_67\n      jump\t// in\n    tag_66:\n      mload(0x40)\n      tag_68\n      swap2\n      swap1\n      tag_51\n      jump\t// in\n    tag_68:\n      mload(0x40)\n      dup1\n      swap2\n      sub\n      swap1\n      return\n        /* \"@chainlink/contracts/src/v0.8/shared/access/ConfirmedOwnerWithProposal.sol\":847:945  function transferOwnership(address to) public override onlyOwner {... */\n    tag_16:\n      tag_69\n      0x04\n      dup1\n      calldatasize\n      sub\n      dup2\n      add\n      swap1\n      tag_70\n      swap2\n      swap1\n      tag_71\n      jump\t// in\n    tag_70:\n      tag_72\n      jump\t// in\n    tag_69:\n      stop\n        /* \"contracts/0050PriceOracle.sol\":686:717  uint32 public gasLimit = 300000 */\n    tag_17:\n      tag_73\n      tag_74\n      jump\t// in\n    tag_73:\n      mload(0x40)\n      tag_75\n      swap2\n      swap1\n      tag_76\n      jump\t// in\n    tag_75:\n      mload(0x40)\n      dup1\n      swap2\n      sub\n      swap1\n      return\n        /* \"contracts/0050PriceOracle.sol\":575:603  bytes32 public lastRequestId */\n    tag_18:\n      tag_77\n      tag_78\n      jump\t// in\n    tag_77:\n      mload(0x40)\n      tag_79\n      swap2\n      swap1\n      tag_41\n      jump\t// in\n    tag_79:\n      mload(0x40)\n      dup1\n      swap2\n      sub\n      swap1\n      return\n        /* \"contracts/0050PriceOracle.sol\":3315:3606  function updatePriceManual(uint256 _newPriceUSD) external onlyOwner {... */\n    tag_25:\n        /* \"@chainlink/contracts/src/v0.8/shared/access/ConfirmedOwnerWithProposal.sol\":2075:2095  _validateOwnership() */\n      tag_81\n        /* \"@chainlink/contracts/src/v0.8/shared/access/ConfirmedOwnerWithProposal.sol\":2075:2093  _validateOwnership */\n      tag_82\n        /* \"@chainlink/contracts/src/v0.8/shared/access/ConfirmedOwnerWithProposal.sol\":2075:2095  _validateOwnership() */\n      jump\t// in\n    tag_81:\n        /* \"contracts/0050PriceOracle.sol\":3417:3418  0 */\n      0x00\n        /* \"contracts/0050PriceOracle.sol\":3402:3414  _newPriceUSD */\n      dup2\n        /* \"contracts/0050PriceOracle.sol\":3402:3418  _newPriceUSD > 0 */\n      gt\n        /* \"contracts/0050PriceOracle.sol\":3394:3451  require(_newPriceUSD > 0, \"Price must be greater than 0\") */\n      tag_84\n      jumpi\n      mload(0x40)\n      0x08c379a000000000000000000000000000000000000000000000000000000000\n      dup2\n      mstore\n      0x04\n      add\n      tag_85\n      swap1\n      tag_86\n      jump\t// in\n    tag_85:\n      mload(0x40)\n      dup1\n      swap2\n      sub\n      swap1\n      revert\n    tag_84:\n        /* \"contracts/0050PriceOracle.sol\":3492:3496  1e18 */\n      0x0de0b6b3a7640000\n        /* \"contracts/0050PriceOracle.sol\":3477:3489  _newPriceUSD */\n      dup2\n        /* \"contracts/0050PriceOracle.sol\":3477:3496  _newPriceUSD * 1e18 */\n      tag_87\n      swap2\n      swap1\n      tag_88\n      jump\t// in\n    tag_87:\n        /* \"contracts/0050PriceOracle.sol\":3462:3474  currentPrice */\n      0x02\n        /* \"contracts/0050PriceOracle.sol\":3462:3496  currentPrice = _newPriceUSD * 1e18 */\n      dup2\n      swap1\n      sstore\n      pop\n        /* \"contracts/0050PriceOracle.sol\":3524:3539  block.timestamp */\n      timestamp\n        /* \"contracts/0050PriceOracle.sol\":3507:3521  lastUpdateTime */\n      0x03\n        /* \"contracts/0050PriceOracle.sol\":3507:3539  lastUpdateTime = block.timestamp */\n      dup2\n      swap1\n      sstore\n      pop\n        /* \"contracts/0050PriceOracle.sol\":3555:3598  PriceUpdated(currentPrice, block.timestamp) */\n      0x945c1c4e99aa89f648fbfe3df471b916f719e16d960fcec0737d4d56bd696838\n        /* \"contracts/0050PriceOracle.sol\":3568:3580  currentPrice */\n      sload(0x02)\n        /* \"contracts/0050PriceOracle.sol\":3582:3597  block.timestamp */\n      timestamp\n        /* \"contracts/0050PriceOracle.sol\":3555:3598  PriceUpdated(currentPrice, block.timestamp) */\n      mload(0x40)\n      tag_89\n      swap3\n      swap2\n      swap1\n      tag_90\n      jump\t// in\n    tag_89:\n      mload(0x40)\n      dup1\n      swap2\n      sub\n      swap1\n      log1\n        /* \"contracts/0050PriceOracle.sol\":3315:3606  function updatePriceManual(uint256 _newPriceUSD) external onlyOwner {... */\n      pop\n      jump\t// out\n        /* \"contracts/0050PriceOracle.sol\":651:679  uint64 public subscriptionId */\n    tag_27:\n      0x05\n      0x00\n      swap1\n      sload\n      swap1\n      0x0100\n      exp\n      swap1\n      div\n      0xffffffffffffffff\n      and\n      dup2\n      jump\t// out\n        /* \"@chainlink/contracts/src/v0.8/functions/v1_0_0/FunctionsClient.sol\":2078:2364  function handleOracleFulfillment(bytes32 requestId, bytes memory response, bytes memory err) external override {... */\n    tag_33:\n        /* \"@chainlink/contracts/src/v0.8/functions/v1_0_0/FunctionsClient.sol\":2221:2229  i_router */\n      immutable(\"0x8e8fab5f003314da8d1873ea7720e8d9f47650136d916064d1edb8a11d682624\")\n        /* \"@chainlink/contracts/src/v0.8/functions/v1_0_0/FunctionsClient.sol\":2199:2230  msg.sender != address(i_router) */\n      0xffffffffffffffffffffffffffffffffffffffff\n      and\n        /* \"@chainlink/contracts/src/v0.8/functions/v1_0_0/FunctionsClient.sol\":2199:2209  msg.sender */\n      caller\n        /* \"@chainlink/contracts/src/v0.8/functions/v1_0_0/FunctionsClient.sol\":2199:2230  msg.sender != address(i_router) */\n      0xffffffffffffffffffffffffffffffffffffffff\n      and\n      eq\n        /* \"@chainlink/contracts/src/v0.8/functions/v1_0_0/FunctionsClient.sol\":2195:2276  if (msg.sender != address(i_router)) {... */\n      tag_92\n      jumpi\n        /* \"@chainlink/contracts/src/v0.8/functions/v1_0_0/FunctionsClient.sol\":2247:2269  OnlyRouterCanFulfill() */\n      mload(0x40)\n      0xc6829f8300000000000000000000000000000000000000000000000000000000\n      dup2\n      mstore\n      0x04\n      add\n      mload(0x40)\n      dup1\n      swap2\n      sub\n      swap1\n      revert\n        /* \"@chainlink/contracts/src/v0.8/functions/v1_0_0/FunctionsClient.sol\":2195:2276  if (msg.sender != address(i_router)) {... */\n    tag_92:\n        /* \"@chainlink/contracts/src/v0.8/functions/v1_0_0/FunctionsClient.sol\":2281:2321  fulfillRequest(requestId, response, err) */\n      tag_93\n        /* \"@chainlink/contracts/src/v0.8/functions/v1_0_0/FunctionsClient.sol\":2296:2305  requestId */\n      dup4\n        /* \"@chainlink/contracts/src/v0.8/functions/v1_0_0/FunctionsClient.sol\":2307:2315  response */\n      dup4\n        /* \"@chainlink/contracts/src/v0.8/functions/v1_0_0/FunctionsClient.sol\":2317:2320  err */\n      dup4\n        /* \"@chainlink/contracts/src/v0.8/functions/v1_0_0/FunctionsClient.sol\":2281:2295  fulfillRequest */\n      tag_94\n        /* \"@chainlink/contracts/src/v0.8/functions/v1_0_0/FunctionsClient.sol\":2281:2321  fulfillRequest(requestId, response, err) */\n      jump\t// in\n    tag_93:\n        /* \"@chainlink/contracts/src/v0.8/functions/v1_0_0/FunctionsClient.sol\":2349:2358  requestId */\n      dup3\n        /* \"@chainlink/contracts/src/v0.8/functions/v1_0_0/FunctionsClient.sol\":2332:2359  RequestFulfilled(requestId) */\n      0x85e1543bf2f84fe80c6badbce3648c8539ad1df4d2b3d822938ca0538be727e6\n      mload(0x40)\n      mload(0x40)\n      dup1\n      swap2\n      sub\n      swap1\n      log2\n        /* \"@chainlink/contracts/src/v0.8/functions/v1_0_0/FunctionsClient.sol\":2078:2364  function handleOracleFulfillment(bytes32 requestId, bytes memory response, bytes memory err) external override {... */\n      pop\n      pop\n      pop\n      jump\t// out\n        /* \"contracts/0050PriceOracle.sol\":4419:4550  function isPriceStale() external view returns (bool) {... */\n    tag_35:\n        /* \"contracts/0050PriceOracle.sol\":4466:4470  bool */\n      0x00\n        /* \"contracts/0050PriceOracle.sol\":4527:4531  3600 */\n      0x0e10\n        /* \"contracts/0050PriceOracle.sol\":4509:4523  lastUpdateTime */\n      sload(0x03)\n        /* \"contracts/0050PriceOracle.sol\":4491:4506  block.timestamp */\n      timestamp\n        /* \"contracts/0050PriceOracle.sol\":4491:4523  block.timestamp - lastUpdateTime */\n      tag_96\n      swap2\n      swap1\n      tag_97\n      jump\t// in\n    tag_96:\n        /* \"contracts/0050PriceOracle.sol\":4490:4531  (block.timestamp - lastUpdateTime) > 3600 */\n      gt\n        /* \"contracts/0050PriceOracle.sol\":4483:4531  return (block.timestamp - lastUpdateTime) > 3600 */\n      swap1\n      pop\n        /* \"contracts/0050PriceOracle.sol\":4419:4550  function isPriceStale() external view returns (bool) {... */\n      swap1\n      jump\t// out\n        /* \"contracts/0050PriceOracle.sol\":724:744  bytes32 public donID */\n    tag_39:\n      sload(0x06)\n      dup2\n      jump\t// out\n        /* \"@chainlink/contracts/src/v0.8/shared/access/ConfirmedOwnerWithProposal.sol\":1026:1342  function acceptOwnership() external override {... */\n    tag_43:\n        /* \"@chainlink/contracts/src/v0.8/shared/access/ConfirmedOwnerWithProposal.sol\":1150:1164  s_pendingOwner */\n      0x01\n      0x00\n      swap1\n      sload\n      swap1\n      0x0100\n      exp\n      swap1\n      div\n      0xffffffffffffffffffffffffffffffffffffffff\n      and\n        /* \"@chainlink/contracts/src/v0.8/shared/access/ConfirmedOwnerWithProposal.sol\":1136:1164  msg.sender == s_pendingOwner */\n      0xffffffffffffffffffffffffffffffffffffffff\n      and\n        /* \"@chainlink/contracts/src/v0.8/shared/access/ConfirmedOwnerWithProposal.sol\":1136:1146  msg.sender */\n      caller\n        /* \"@chainlink/contracts/src/v0.8/shared/access/ConfirmedOwnerWithProposal.sol\":1136:1164  msg.sender == s_pendingOwner */\n      0xffffffffffffffffffffffffffffffffffffffff\n      and\n      eq\n        /* \"@chainlink/contracts/src/v0.8/shared/access/ConfirmedOwnerWithProposal.sol\":1128:1191  require(msg.sender == s_pendingOwner, \"Must be proposed owner\") */\n      tag_99\n      jumpi\n      mload(0x40)\n      0x08c379a000000000000000000000000000000000000000000000000000000000\n      dup2\n      mstore\n      0x04\n      add\n      tag_100\n      swap1\n      tag_101\n      jump\t// in\n    tag_100:\n      mload(0x40)\n      dup1\n      swap2\n      sub\n      swap1\n      revert\n    tag_99:\n        /* \"@chainlink/contracts/src/v0.8/shared/access/ConfirmedOwnerWithProposal.sol\":1198:1214  address oldOwner */\n      0x00\n        /* \"@chainlink/contracts/src/v0.8/shared/access/ConfirmedOwnerWithProposal.sol\":1217:1224  s_owner */\n      dup1\n      0x00\n      swap1\n      sload\n      swap1\n      0x0100\n      exp\n      swap1\n      div\n      0xffffffffffffffffffffffffffffffffffffffff\n      and\n        /* \"@chainlink/contracts/src/v0.8/shared/access/ConfirmedOwnerWithProposal.sol\":1198:1224  address oldOwner = s_owner */\n      swap1\n      pop\n        /* \"@chainlink/contracts/src/v0.8/shared/access/ConfirmedOwnerWithProposal.sol\":1240:1250  msg.sender */\n      caller\n        /* \"@chainlink/contracts/src/v0.8/shared/access/ConfirmedOwnerWithProposal.sol\":1230:1237  s_owner */\n      0x00\n      dup1\n        /* \"@chainlink/contracts/src/v0.8/shared/access/ConfirmedOwnerWithProposal.sol\":1230:1250  s_owner = msg.sender */\n      0x0100\n      exp\n      dup2\n      sload\n      dup2\n      0xffffffffffffffffffffffffffffffffffffffff\n      mul\n      not\n      and\n      swap1\n      dup4\n      0xffffffffffffffffffffffffffffffffffffffff\n      and\n      mul\n      or\n      swap1\n      sstore\n      pop\n        /* \"@chainlink/contracts/src/v0.8/shared/access/ConfirmedOwnerWithProposal.sol\":1281:1282  0 */\n      0x00\n        /* \"@chainlink/contracts/src/v0.8/shared/access/ConfirmedOwnerWithProposal.sol\":1256:1270  s_pendingOwner */\n      0x01\n      0x00\n        /* \"@chainlink/contracts/src/v0.8/shared/access/ConfirmedOwnerWithProposal.sol\":1256:1283  s_pendingOwner = address(0) */\n      0x0100\n      exp\n      dup2\n      sload\n      dup2\n      0xffffffffffffffffffffffffffffffffffffffff\n      mul\n      not\n      and\n      swap1\n      dup4\n      0xffffffffffffffffffffffffffffffffffffffff\n      and\n      mul\n      or\n      swap1\n      sstore\n      pop\n        /* \"@chainlink/contracts/src/v0.8/shared/access/ConfirmedOwnerWithProposal.sol\":1326:1336  msg.sender */\n      caller\n        /* \"@chainlink/contracts/src/v0.8/shared/access/ConfirmedOwnerWithProposal.sol\":1295:1337  OwnershipTransferred(oldOwner, msg.sender) */\n      0xffffffffffffffffffffffffffffffffffffffff\n      and\n        /* \"@chainlink/contracts/src/v0.8/shared/access/ConfirmedOwnerWithProposal.sol\":1316:1324  oldOwner */\n      dup2\n        /* \"@chainlink/contracts/src/v0.8/shared/access/ConfirmedOwnerWithProposal.sol\":1295:1337  OwnershipTransferred(oldOwner, msg.sender) */\n      0xffffffffffffffffffffffffffffffffffffffff\n      and\n      0x8be0079c531659141344cd1fd0a4f28419497f9722a3daafe3b4186f6b6457e0\n      mload(0x40)\n      mload(0x40)\n      dup1\n      swap2\n      sub\n      swap1\n      log3\n        /* \"@chainlink/contracts/src/v0.8/shared/access/ConfirmedOwnerWithProposal.sol\":1071:1342  {... */\n      pop\n        /* \"@chainlink/contracts/src/v0.8/shared/access/ConfirmedOwnerWithProposal.sol\":1026:1342  function acceptOwnership() external override {... */\n      jump\t// out\n        /* \"@chainlink/contracts/src/v0.8/shared/access/ConfirmedOwnerWithProposal.sol\":1382:1463  function owner() public view override returns (address) {... */\n    tag_45:\n        /* \"@chainlink/contracts/src/v0.8/shared/access/ConfirmedOwnerWithProposal.sol\":1429:1436  address */\n      0x00\n        /* \"@chainlink/contracts/src/v0.8/shared/access/ConfirmedOwnerWithProposal.sol\":1451:1458  s_owner */\n      dup1\n      0x00\n      swap1\n      sload\n      swap1\n      0x0100\n      exp\n      swap1\n      div\n      0xffffffffffffffffffffffffffffffffffffffff\n      and\n        /* \"@chainlink/contracts/src/v0.8/shared/access/ConfirmedOwnerWithProposal.sol\":1444:1458  return s_owner */\n      swap1\n      pop\n        /* \"@chainlink/contracts/src/v0.8/shared/access/ConfirmedOwnerWithProposal.sol\":1382:1463  function owner() public view override returns (address) {... */\n      swap1\n      jump\t// out\n        /* \"contracts/0050PriceOracle.sol\":2004:2100  function getLatestPrice() external view returns (uint256) {... */\n    tag_49:\n        /* \"contracts/0050PriceOracle.sol\":2053:2060  uint256 */\n      0x00\n        /* \"contracts/0050PriceOracle.sol\":2080:2092  currentPrice */\n      sload(0x02)\n        /* \"contracts/0050PriceOracle.sol\":2073:2092  return currentPrice */\n      swap1\n      pop\n        /* \"contracts/0050PriceOracle.sol\":2004:2100  function getLatestPrice() external view returns (uint256) {... */\n      swap1\n      jump\t// out\n        /* \"contracts/0050PriceOracle.sol\":3954:4355  function getOracleInfo() external view returns (... */\n    tag_53:\n        /* \"contracts/0050PriceOracle.sol\":4012:4025  uint256 price */\n      0x00\n        /* \"contracts/0050PriceOracle.sol\":4036:4052  uint256 priceUSD */\n      dup1\n        /* \"contracts/0050PriceOracle.sol\":4063:4081  uint256 lastUpdate */\n      0x00\n        /* \"contracts/0050PriceOracle.sol\":4092:4115  uint256 timeSinceUpdate */\n      dup1\n        /* \"contracts/0050PriceOracle.sol\":4126:4145  bytes32 lastRequest */\n      0x00\n        /* \"contracts/0050PriceOracle.sol\":4186:4198  currentPrice */\n      sload(0x02)\n        /* \"contracts/0050PriceOracle.sol\":4228:4232  1e18 */\n      0x0de0b6b3a7640000\n        /* \"contracts/0050PriceOracle.sol\":4213:4225  currentPrice */\n      sload(0x02)\n        /* \"contracts/0050PriceOracle.sol\":4213:4232  currentPrice / 1e18 */\n      tag_105\n      swap2\n      swap1\n      tag_106\n      jump\t// in\n    tag_105:\n        /* \"contracts/0050PriceOracle.sol\":4247:4261  lastUpdateTime */\n      sload(0x03)\n        /* \"contracts/0050PriceOracle.sol\":4294:4308  lastUpdateTime */\n      sload(0x03)\n        /* \"contracts/0050PriceOracle.sol\":4276:4291  block.timestamp */\n      timestamp\n        /* \"contracts/0050PriceOracle.sol\":4276:4308  block.timestamp - lastUpdateTime */\n      tag_107\n      swap2\n      swap1\n      tag_97\n      jump\t// in\n    tag_107:\n        /* \"contracts/0050PriceOracle.sol\":4323:4336  lastRequestId */\n      sload(0x04)\n        /* \"contracts/0050PriceOracle.sol\":4164:4347  return (... */\n      swap5\n      pop\n      swap5\n      pop\n      swap5\n      pop\n      swap5\n      pop\n      swap5\n      pop\n        /* \"contracts/0050PriceOracle.sol\":3954:4355  function getOracleInfo() external view returns (... */\n      swap1\n      swap2\n      swap3\n      swap4\n      swap5\n      jump\t// out\n        /* \"contracts/0050PriceOracle.sol\":2293:2746  function requestPriceUpdate() external returns (bytes32 requestId) {... */\n    tag_57:\n        /* \"contracts/0050PriceOracle.sol\":2341:2358  bytes32 requestId */\n      0x00\n        /* \"contracts/0050PriceOracle.sol\":2371:2406  FunctionsRequest.Request memory req */\n      tag_109\n      tag_110\n      jump\t// in\n    tag_109:\n        /* \"contracts/0050PriceOracle.sol\":2417:2465  req.initializeRequestForInlineJavaScript(source) */\n      tag_111\n        /* \"contracts/0050PriceOracle.sol\":2458:2464  source */\n      0x07\n        /* \"contracts/0050PriceOracle.sol\":2417:2465  req.initializeRequestForInlineJavaScript(source) */\n      dup1\n      sload\n      tag_112\n      swap1\n      tag_113\n      jump\t// in\n    tag_112:\n      dup1\n      0x1f\n      add\n      0x20\n      dup1\n      swap2\n      div\n      mul\n      0x20\n      add\n      mload(0x40)\n      swap1\n      dup2\n      add\n      0x40\n      mstore\n      dup1\n      swap3\n      swap2\n      swap1\n      dup2\n      dup2\n      mstore\n      0x20\n      add\n      dup3\n      dup1\n      sload\n      tag_114\n      swap1\n      tag_113\n      jump\t// in\n    tag_114:\n      dup1\n      iszero\n      tag_115\n      jumpi\n      dup1\n      0x1f\n      lt\n      tag_116\n      jumpi\n      0x0100\n      dup1\n      dup4\n      sload\n      div\n      mul\n      dup4\n      mstore\n      swap2\n      0x20\n      add\n      swap2\n      jump(tag_115)\n    tag_116:\n      dup3\n      add\n      swap2\n      swap1\n      0x00\n      mstore\n      keccak256(0x00, 0x20)\n      swap1\n    tag_117:\n      dup2\n      sload\n      dup2\n      mstore\n      swap1\n      0x01\n      add\n      swap1\n      0x20\n      add\n      dup1\n      dup4\n      gt\n      tag_117\n      jumpi\n      dup3\n      swap1\n      sub\n      0x1f\n      and\n      dup3\n      add\n      swap2\n    tag_115:\n      pop\n      pop\n      pop\n      pop\n      pop\n        /* \"contracts/0050PriceOracle.sol\":2417:2420  req */\n      dup3\n        /* \"contracts/0050PriceOracle.sol\":2417:2457  req.initializeRequestForInlineJavaScript */\n      tag_118\n      swap1\n        /* \"contracts/0050PriceOracle.sol\":2417:2465  req.initializeRequestForInlineJavaScript(source) */\n      swap2\n      swap1\n      0xffffffff\n      and\n      jump\t// in\n    tag_111:\n        /* \"contracts/0050PriceOracle.sol\":2498:2624  _sendRequest(... */\n      tag_119\n        /* \"contracts/0050PriceOracle.sol\":2525:2541  req.encodeCBOR() */\n      tag_120\n        /* \"contracts/0050PriceOracle.sol\":2525:2528  req */\n      dup3\n        /* \"contracts/0050PriceOracle.sol\":2525:2539  req.encodeCBOR */\n      tag_121\n        /* \"contracts/0050PriceOracle.sol\":2525:2541  req.encodeCBOR() */\n      jump\t// in\n    tag_120:\n        /* \"contracts/0050PriceOracle.sol\":2556:2570  subscriptionId */\n      0x05\n      0x00\n      swap1\n      sload\n      swap1\n      0x0100\n      exp\n      swap1\n      div\n      0xffffffffffffffff\n      and\n        /* \"contracts/0050PriceOracle.sol\":2585:2593  gasLimit */\n      0x05\n      0x08\n      swap1\n      sload\n      swap1\n      0x0100\n      exp\n      swap1\n      div\n      0xffffffff\n      and\n        /* \"contracts/0050PriceOracle.sol\":2608:2613  donID */\n      sload(0x06)\n        /* \"contracts/0050PriceOracle.sol\":2498:2510  _sendRequest */\n      tag_122\n        /* \"contracts/0050PriceOracle.sol\":2498:2624  _sendRequest(... */\n      jump\t// in\n    tag_119:\n        /* \"contracts/0050PriceOracle.sol\":2486:2624  requestId = _sendRequest(... */\n      swap2\n      pop\n        /* \"contracts/0050PriceOracle.sol\":2661:2670  requestId */\n      dup2\n        /* \"contracts/0050PriceOracle.sol\":2645:2658  lastRequestId */\n      0x04\n        /* \"contracts/0050PriceOracle.sol\":2645:2670  lastRequestId = requestId */\n      dup2\n      swap1\n      sstore\n      pop\n        /* \"contracts/0050PriceOracle.sol\":2701:2710  requestId */\n      dup2\n        /* \"contracts/0050PriceOracle.sol\":2686:2711  PriceRequested(requestId) */\n      0x655f2dca0174ce451aa939c62ea493c734778cc67c6783626b08ad34985e6c61\n      mload(0x40)\n      mload(0x40)\n      dup1\n      swap2\n      sub\n      swap1\n      log2\n        /* \"contracts/0050PriceOracle.sol\":2722:2738  return requestId */\n      pop\n        /* \"contracts/0050PriceOracle.sol\":2293:2746  function requestPriceUpdate() external returns (bytes32 requestId) {... */\n      swap1\n      jump\t// out\n        /* \"contracts/0050PriceOracle.sol\":539:568  uint256 public lastUpdateTime */\n    tag_60:\n      sload(0x03)\n      dup2\n      jump\t// out\n        /* \"contracts/0050PriceOracle.sol\":3654:3894  function updateConfig(... */\n    tag_65:\n        /* \"@chainlink/contracts/src/v0.8/shared/access/ConfirmedOwnerWithProposal.sol\":2075:2095  _validateOwnership() */\n      tag_124\n        /* \"@chainlink/contracts/src/v0.8/shared/access/ConfirmedOwnerWithProposal.sol\":2075:2093  _validateOwnership */\n      tag_82\n        /* \"@chainlink/contracts/src/v0.8/shared/access/ConfirmedOwnerWithProposal.sol\":2075:2095  _validateOwnership() */\n      jump\t// in\n    tag_124:\n        /* \"contracts/0050PriceOracle.sol\":3815:3830  _subscriptionId */\n      dup3\n        /* \"contracts/0050PriceOracle.sol\":3798:3812  subscriptionId */\n      0x05\n      0x00\n        /* \"contracts/0050PriceOracle.sol\":3798:3830  subscriptionId = _subscriptionId */\n      0x0100\n      exp\n      dup2\n      sload\n      dup2\n      0xffffffffffffffff\n      mul\n      not\n      and\n      swap1\n      dup4\n      0xffffffffffffffff\n      and\n      mul\n      or\n      swap1\n      sstore\n      pop\n        /* \"contracts/0050PriceOracle.sol\":3852:3861  _gasLimit */\n      dup2\n        /* \"contracts/0050PriceOracle.sol\":3841:3849  gasLimit */\n      0x05\n      0x08\n        /* \"contracts/0050PriceOracle.sol\":3841:3861  gasLimit = _gasLimit */\n      0x0100\n      exp\n      dup2\n      sload\n      dup2\n      0xffffffff\n      mul\n      not\n      and\n      swap1\n      dup4\n      0xffffffff\n      and\n      mul\n      or\n      swap1\n      sstore\n      pop\n        /* \"contracts/0050PriceOracle.sol\":3880:3886  _donID */\n      dup1\n        /* \"contracts/0050PriceOracle.sol\":3872:3877  donID */\n      0x06\n        /* \"contracts/0050PriceOracle.sol\":3872:3886  donID = _donID */\n      dup2\n      swap1\n      sstore\n      pop\n        /* \"contracts/0050PriceOracle.sol\":3654:3894  function updateConfig(... */\n      pop\n      pop\n      pop\n      jump\t// out\n        /* \"contracts/0050PriceOracle.sol\":2148:2254  function getLatestPriceUSD() external view returns (uint256) {... */\n    tag_67:\n        /* \"contracts/0050PriceOracle.sol\":2200:2207  uint256 */\n      0x00\n        /* \"contracts/0050PriceOracle.sol\":2242:2246  1e18 */\n      0x0de0b6b3a7640000\n        /* \"contracts/0050PriceOracle.sol\":2227:2239  currentPrice */\n      sload(0x02)\n        /* \"contracts/0050PriceOracle.sol\":2227:2246  currentPrice / 1e18 */\n      tag_127\n      swap2\n      swap1\n      tag_106\n      jump\t// in\n    tag_127:\n        /* \"contracts/0050PriceOracle.sol\":2220:2246  return currentPrice / 1e18 */\n      swap1\n      pop\n        /* \"contracts/0050PriceOracle.sol\":2148:2254  function getLatestPriceUSD() external view returns (uint256) {... */\n      swap1\n      jump\t// out\n        /* \"@chainlink/contracts/src/v0.8/shared/access/ConfirmedOwnerWithProposal.sol\":847:945  function transferOwnership(address to) public override onlyOwner {... */\n    tag_72:\n        /* \"@chainlink/contracts/src/v0.8/shared/access/ConfirmedOwnerWithProposal.sol\":2075:2095  _validateOwnership() */\n      tag_129\n        /* \"@chainlink/contracts/src/v0.8/shared/access/ConfirmedOwnerWithProposal.sol\":2075:2093  _validateOwnership */\n      tag_82\n        /* \"@chainlink/contracts/src/v0.8/shared/access/ConfirmedOwnerWithProposal.sol\":2075:2095  _validateOwnership() */\n      jump\t// in\n    tag_129:\n        /* \"@chainlink/contracts/src/v0.8/shared/access/ConfirmedOwnerWithProposal.sol\":918:940  _transferOwnership(to) */\n      tag_131\n        /* \"@chainlink/contracts/src/v0.8/shared/access/ConfirmedOwnerWithProposal.sol\":937:939  to */\n      dup2\n        /* \"@chainlink/contracts/src/v0.8/shared/access/ConfirmedOwnerWithProposal.sol\":918:936  _transferOwnership */\n      tag_132\n        /* \"@chainlink/contracts/src/v0.8/shared/access/ConfirmedOwnerWithProposal.sol\":918:940  _transferOwnership(to) */\n      jump\t// in\n    tag_131:\n        /* \"@chainlink/contracts/src/v0.8/shared/access/ConfirmedOwnerWithProposal.sol\":847:945  function transferOwnership(address to) public override onlyOwner {... */\n      pop\n      jump\t// out\n        /* \"contracts/0050PriceOracle.sol\":686:717  uint32 public gasLimit = 300000 */\n    tag_74:\n      0x05\n      0x08\n      swap1\n      sload\n      swap1\n      0x0100\n      exp\n      swap1\n      div\n      0xffffffff\n      and\n      dup2\n      jump\t// out\n        /* \"contracts/0050PriceOracle.sol\":575:603  bytes32 public lastRequestId */\n    tag_78:\n      sload(0x04)\n      dup2\n      jump\t// out\n        /* \"@chainlink/contracts/src/v0.8/shared/access/ConfirmedOwnerWithProposal.sol\":1809:1971  function _validateOwnership() internal view {... */\n    tag_82:\n        /* \"@chainlink/contracts/src/v0.8/shared/access/ConfirmedOwnerWithProposal.sol\":1932:1939  s_owner */\n      0x00\n      dup1\n      sload\n      swap1\n      0x0100\n      exp\n      swap1\n      div\n      0xffffffffffffffffffffffffffffffffffffffff\n      and\n        /* \"@chainlink/contracts/src/v0.8/shared/access/ConfirmedOwnerWithProposal.sol\":1918:1939  msg.sender == s_owner */\n      0xffffffffffffffffffffffffffffffffffffffff\n      and\n        /* \"@chainlink/contracts/src/v0.8/shared/access/ConfirmedOwnerWithProposal.sol\":1918:1928  msg.sender */\n      caller\n        /* \"@chainlink/contracts/src/v0.8/shared/access/ConfirmedOwnerWithProposal.sol\":1918:1939  msg.sender == s_owner */\n      0xffffffffffffffffffffffffffffffffffffffff\n      and\n      eq\n        /* \"@chainlink/contracts/src/v0.8/shared/access/ConfirmedOwnerWithProposal.sol\":1910:1966  require(msg.sender == s_owner, \"Only callable by owner\") */\n      tag_134\n      jumpi\n      mload(0x40)\n      0x08c379a000000000000000000000000000000000000000000000000000000000\n      dup2\n      mstore\n      0x04\n      add\n      tag_135\n      swap1\n      tag_136\n      jump\t// in\n    tag_135:\n      mload(0x40)\n      dup1\n      swap2\n      sub\n      swap1\n      revert\n    tag_134:\n        /* \"@chainlink/contracts/src/v0.8/shared/access/ConfirmedOwnerWithProposal.sol\":1809:1971  function _validateOwnership() internal view {... */\n      jump\t// out\n        /* \"contracts/0050PriceOracle.sol\":2799:3258  function fulfillRequest(... */\n    tag_94:\n        /* \"contracts/0050PriceOracle.sol\":2963:2964  0 */\n      0x00\n        /* \"contracts/0050PriceOracle.sol\":2950:2953  err */\n      dup2\n        /* \"contracts/0050PriceOracle.sol\":2950:2960  err.length */\n      mload\n        /* \"contracts/0050PriceOracle.sol\":2950:2964  err.length > 0 */\n      gt\n        /* \"contracts/0050PriceOracle.sol\":2946:3048  if (err.length > 0) {... */\n      iszero\n      tag_138\n      jumpi\n        /* \"contracts/0050PriceOracle.sol\":3000:3009  requestId */\n      dup3\n        /* \"contracts/0050PriceOracle.sol\":2986:3015  RequestFailed(requestId, err) */\n      0x61982c98cbc49d11759a948f460b92bca26bdf12ceee12c310f117eb2ca9a9cb\n        /* \"contracts/0050PriceOracle.sol\":3011:3014  err */\n      dup3\n        /* \"contracts/0050PriceOracle.sol\":2986:3015  RequestFailed(requestId, err) */\n      mload(0x40)\n      tag_139\n      swap2\n      swap1\n      tag_140\n      jump\t// in\n    tag_139:\n      mload(0x40)\n      dup1\n      swap2\n      sub\n      swap1\n      log2\n        /* \"contracts/0050PriceOracle.sol\":3030:3037  return; */\n      jump(tag_137)\n        /* \"contracts/0050PriceOracle.sol\":2946:3048  if (err.length > 0) {... */\n    tag_138:\n        /* \"contracts/0050PriceOracle.sol\":3068:3084  uint256 newPrice */\n      0x00\n        /* \"contracts/0050PriceOracle.sol\":3098:3106  response */\n      dup3\n        /* \"contracts/0050PriceOracle.sol\":3087:3118  abi.decode(response, (uint256)) */\n      dup1\n      0x20\n      add\n      swap1\n      mload\n      dup2\n      add\n      swap1\n      tag_141\n      swap2\n      swap1\n      tag_142\n      jump\t// in\n    tag_141:\n        /* \"contracts/0050PriceOracle.sol\":3068:3118  uint256 newPrice = abi.decode(response, (uint256)) */\n      swap1\n      pop\n        /* \"contracts/0050PriceOracle.sol\":3144:3152  newPrice */\n      dup1\n        /* \"contracts/0050PriceOracle.sol\":3129:3141  currentPrice */\n      0x02\n        /* \"contracts/0050PriceOracle.sol\":3129:3152  currentPrice = newPrice */\n      dup2\n      swap1\n      sstore\n      pop\n        /* \"contracts/0050PriceOracle.sol\":3180:3195  block.timestamp */\n      timestamp\n        /* \"contracts/0050PriceOracle.sol\":3163:3177  lastUpdateTime */\n      0x03\n        /* \"contracts/0050PriceOracle.sol\":3163:3195  lastUpdateTime = block.timestamp */\n      dup2\n      swap1\n      sstore\n      pop\n        /* \"contracts/0050PriceOracle.sol\":3211:3250  PriceUpdated(newPrice, block.timestamp) */\n      0x945c1c4e99aa89f648fbfe3df471b916f719e16d960fcec0737d4d56bd696838\n        /* \"contracts/0050PriceOracle.sol\":3224:3232  newPrice */\n      dup2\n        /* \"contracts/0050PriceOracle.sol\":3234:3249  block.timestamp */\n      timestamp\n        /* \"contracts/0050PriceOracle.sol\":3211:3250  PriceUpdated(newPrice, block.timestamp) */\n      mload(0x40)\n      tag_143\n      swap3\n      swap2\n      swap1\n      tag_90\n      jump\t// in\n    tag_143:\n      mload(0x40)\n      dup1\n      swap2\n      sub\n      swap1\n      log1\n        /* \"contracts/0050PriceOracle.sol\":2935:3258  {... */\n      pop\n        /* \"contracts/0050PriceOracle.sol\":2799:3258  function fulfillRequest(... */\n    tag_137:\n      pop\n      pop\n      pop\n      jump\t// out\n        /* \"@chainlink/contracts/src/v0.8/functions/v1_0_0/libraries/FunctionsRequest.sol\":4323:4530  function initializeRequestForInlineJavaScript(Request memory self, string memory javaScriptSource) internal pure {... */\n    tag_118:\n        /* \"@chainlink/contracts/src/v0.8/functions/v1_0_0/libraries/FunctionsRequest.sol\":4442:4525  initializeRequest(self, Location.Inline, CodeLanguage.JavaScript, javaScriptSource) */\n      tag_145\n        /* \"@chainlink/contracts/src/v0.8/functions/v1_0_0/libraries/FunctionsRequest.sol\":4460:4464  self */\n      dup3\n        /* \"@chainlink/contracts/src/v0.8/functions/v1_0_0/libraries/FunctionsRequest.sol\":4466:4481  Location.Inline */\n      0x00\n        /* \"@chainlink/contracts/src/v0.8/functions/v1_0_0/libraries/FunctionsRequest.sol\":4483:4506  CodeLanguage.JavaScript */\n      dup1\n        /* \"@chainlink/contracts/src/v0.8/functions/v1_0_0/libraries/FunctionsRequest.sol\":4508:4524  javaScriptSource */\n      dup5\n        /* \"@chainlink/contracts/src/v0.8/functions/v1_0_0/libraries/FunctionsRequest.sol\":4442:4459  initializeRequest */\n      tag_146\n        /* \"@chainlink/contracts/src/v0.8/functions/v1_0_0/libraries/FunctionsRequest.sol\":4442:4525  initializeRequest(self, Location.Inline, CodeLanguage.JavaScript, javaScriptSource) */\n      jump\t// in\n    tag_145:\n        /* \"@chainlink/contracts/src/v0.8/functions/v1_0_0/libraries/FunctionsRequest.sol\":4323:4530  function initializeRequestForInlineJavaScript(Request memory self, string memory javaScriptSource) internal pure {... */\n      pop\n      pop\n      jump\t// out\n        /* \"@chainlink/contracts/src/v0.8/functions/v1_0_0/libraries/FunctionsRequest.sol\":2158:3428  function encodeCBOR(Request memory self) internal pure returns (bytes memory) {... */\n    tag_121:\n        /* \"@chainlink/contracts/src/v0.8/functions/v1_0_0/libraries/FunctionsRequest.sol\":2222:2234  bytes memory */\n      0x60\n        /* \"@chainlink/contracts/src/v0.8/functions/v1_0_0/libraries/FunctionsRequest.sol\":2242:2271  CBOR.CBORBuffer memory buffer */\n      0x00\n        /* \"@chainlink/contracts/src/v0.8/functions/v1_0_0/libraries/FunctionsRequest.sol\":2274:2306  CBOR.create(DEFAULT_BUFFER_SIZE) */\n      tag_148\n        /* \"@chainlink/contracts/src/v0.8/functions/v1_0_0/libraries/FunctionsRequest.sol\":375:378  256 */\n      0x0100\n        /* \"@chainlink/contracts/src/v0.8/functions/v1_0_0/libraries/FunctionsRequest.sol\":2274:2285  CBOR.create */\n      tag_149\n        /* \"@chainlink/contracts/src/v0.8/functions/v1_0_0/libraries/FunctionsRequest.sol\":2274:2306  CBOR.create(DEFAULT_BUFFER_SIZE) */\n      jump\t// in\n    tag_148:\n        /* \"@chainlink/contracts/src/v0.8/functions/v1_0_0/libraries/FunctionsRequest.sol\":2242:2306  CBOR.CBORBuffer memory buffer = CBOR.create(DEFAULT_BUFFER_SIZE) */\n      swap1\n      pop\n        /* \"@chainlink/contracts/src/v0.8/functions/v1_0_0/libraries/FunctionsRequest.sol\":2313:2347  buffer.writeString(\"codeLocation\") */\n      tag_150\n      mload(0x40)\n      dup1\n      0x40\n      add\n      0x40\n      mstore\n      dup1\n      0x0c\n      dup2\n      mstore\n      0x20\n      add\n      0x636f64654c6f636174696f6e0000000000000000000000000000000000000000\n      dup2\n      mstore\n      pop\n        /* \"@chainlink/contracts/src/v0.8/functions/v1_0_0/libraries/FunctionsRequest.sol\":2313:2319  buffer */\n      dup3\n        /* \"@chainlink/contracts/src/v0.8/functions/v1_0_0/libraries/FunctionsRequest.sol\":2313:2331  buffer.writeString */\n      tag_151\n      swap1\n        /* \"@chainlink/contracts/src/v0.8/functions/v1_0_0/libraries/FunctionsRequest.sol\":2313:2347  buffer.writeString(\"codeLocation\") */\n      swap2\n      swap1\n      0xffffffff\n      and\n      jump\t// in\n    tag_150:\n        /* \"@chainlink/contracts/src/v0.8/functions/v1_0_0/libraries/FunctionsRequest.sol\":2353:2400  buffer.writeUInt256(uint256(self.codeLocation)) */\n      tag_152\n        /* \"@chainlink/contracts/src/v0.8/functions/v1_0_0/libraries/FunctionsRequest.sol\":2381:2385  self */\n      dup4\n        /* \"@chainlink/contracts/src/v0.8/functions/v1_0_0/libraries/FunctionsRequest.sol\":2381:2398  self.codeLocation */\n      0x00\n      add\n      mload\n        /* \"@chainlink/contracts/src/v0.8/functions/v1_0_0/libraries/FunctionsRequest.sol\":2373:2399  uint256(self.codeLocation) */\n      0x02\n      dup2\n      gt\n      iszero\n      tag_153\n      jumpi\n      tag_154\n      tag_155\n      jump\t// in\n    tag_154:\n    tag_153:\n        /* \"@chainlink/contracts/src/v0.8/functions/v1_0_0/libraries/FunctionsRequest.sol\":2353:2359  buffer */\n      dup3\n        /* \"@chainlink/contracts/src/v0.8/functions/v1_0_0/libraries/FunctionsRequest.sol\":2353:2372  buffer.writeUInt256 */\n      tag_156\n      swap1\n        /* \"@chainlink/contracts/src/v0.8/functions/v1_0_0/libraries/FunctionsRequest.sol\":2353:2400  buffer.writeUInt256(uint256(self.codeLocation)) */\n      swap2\n      swap1\n      0xffffffff\n      and\n      jump\t// in\n    tag_152:\n        /* \"@chainlink/contracts/src/v0.8/functions/v1_0_0/libraries/FunctionsRequest.sol\":2407:2437  buffer.writeString(\"language\") */\n      tag_157\n      mload(0x40)\n      dup1\n      0x40\n      add\n      0x40\n      mstore\n      dup1\n      0x08\n      dup2\n      mstore\n      0x20\n      add\n      0x6c616e6775616765000000000000000000000000000000000000000000000000\n      dup2\n      mstore\n      pop\n        /* \"@chainlink/contracts/src/v0.8/functions/v1_0_0/libraries/FunctionsRequest.sol\":2407:2413  buffer */\n      dup3\n        /* \"@chainlink/contracts/src/v0.8/functions/v1_0_0/libraries/FunctionsRequest.sol\":2407:2425  buffer.writeString */\n      tag_151\n      swap1\n        /* \"@chainlink/contracts/src/v0.8/functions/v1_0_0/libraries/FunctionsRequest.sol\":2407:2437  buffer.writeString(\"language\") */\n      swap2\n      swap1\n      0xffffffff\n      and\n      jump\t// in\n    tag_157:\n        /* \"@chainlink/contracts/src/v0.8/functions/v1_0_0/libraries/FunctionsRequest.sol\":2443:2486  buffer.writeUInt256(uint256(self.language)) */\n      tag_158\n        /* \"@chainlink/contracts/src/v0.8/functions/v1_0_0/libraries/FunctionsRequest.sol\":2471:2475  self */\n      dup4\n        /* \"@chainlink/contracts/src/v0.8/functions/v1_0_0/libraries/FunctionsRequest.sol\":2471:2484  self.language */\n      0x40\n      add\n      mload\n        /* \"@chainlink/contracts/src/v0.8/functions/v1_0_0/libraries/FunctionsRequest.sol\":2463:2485  uint256(self.language) */\n      0x00\n      dup2\n      gt\n      iszero\n      tag_159\n      jumpi\n      tag_160\n      tag_155\n      jump\t// in\n    tag_160:\n    tag_159:\n        /* \"@chainlink/contracts/src/v0.8/functions/v1_0_0/libraries/FunctionsRequest.sol\":2443:2449  buffer */\n      dup3\n        /* \"@chainlink/contracts/src/v0.8/functions/v1_0_0/libraries/FunctionsRequest.sol\":2443:2462  buffer.writeUInt256 */\n      tag_156\n      swap1\n        /* \"@chainlink/contracts/src/v0.8/functions/v1_0_0/libraries/FunctionsRequest.sol\":2443:2486  buffer.writeUInt256(uint256(self.language)) */\n      swap2\n      swap1\n      0xffffffff\n      and\n      jump\t// in\n    tag_158:\n        /* \"@chainlink/contracts/src/v0.8/functions/v1_0_0/libraries/FunctionsRequest.sol\":2493:2521  buffer.writeString(\"source\") */\n      tag_161\n      mload(0x40)\n      dup1\n      0x40\n      add\n      0x40\n      mstore\n      dup1\n      0x06\n      dup2\n      mstore\n      0x20\n      add\n      0x736f757263650000000000000000000000000000000000000000000000000000\n      dup2\n      mstore\n      pop\n        /* \"@chainlink/contracts/src/v0.8/functions/v1_0_0/libraries/FunctionsRequest.sol\":2493:2499  buffer */\n      dup3\n        /* \"@chainlink/contracts/src/v0.8/functions/v1_0_0/libraries/FunctionsRequest.sol\":2493:2511  buffer.writeString */\n      tag_151\n      swap1\n        /* \"@chainlink/contracts/src/v0.8/functions/v1_0_0/libraries/FunctionsRequest.sol\":2493:2521  buffer.writeString(\"source\") */\n      swap2\n      swap1\n      0xffffffff\n      and\n      jump\t// in\n    tag_161:\n        /* \"@chainlink/contracts/src/v0.8/functions/v1_0_0/libraries/FunctionsRequest.sol\":2527:2558  buffer.writeString(self.source) */\n      tag_162\n        /* \"@chainlink/contracts/src/v0.8/functions/v1_0_0/libraries/FunctionsRequest.sol\":2546:2550  self */\n      dup4\n        /* \"@chainlink/contracts/src/v0.8/functions/v1_0_0/libraries/FunctionsRequest.sol\":2546:2557  self.source */\n      0x60\n      add\n      mload\n        /* \"@chainlink/contracts/src/v0.8/functions/v1_0_0/libraries/FunctionsRequest.sol\":2527:2533  buffer */\n      dup3\n        /* \"@chainlink/contracts/src/v0.8/functions/v1_0_0/libraries/FunctionsRequest.sol\":2527:2545  buffer.writeString */\n      tag_151\n      swap1\n        /* \"@chainlink/contracts/src/v0.8/functions/v1_0_0/libraries/FunctionsRequest.sol\":2527:2558  buffer.writeString(self.source) */\n      swap2\n      swap1\n      0xffffffff\n      and\n      jump\t// in\n    tag_162:\n        /* \"@chainlink/contracts/src/v0.8/functions/v1_0_0/libraries/FunctionsRequest.sol\":2588:2589  0 */\n      0x00\n        /* \"@chainlink/contracts/src/v0.8/functions/v1_0_0/libraries/FunctionsRequest.sol\":2569:2573  self */\n      dup4\n        /* \"@chainlink/contracts/src/v0.8/functions/v1_0_0/libraries/FunctionsRequest.sol\":2569:2578  self.args */\n      0xa0\n      add\n      mload\n        /* \"@chainlink/contracts/src/v0.8/functions/v1_0_0/libraries/FunctionsRequest.sol\":2569:2585  self.args.length */\n      mload\n        /* \"@chainlink/contracts/src/v0.8/functions/v1_0_0/libraries/FunctionsRequest.sol\":2569:2589  self.args.length > 0 */\n      gt\n        /* \"@chainlink/contracts/src/v0.8/functions/v1_0_0/libraries/FunctionsRequest.sol\":2565:2792  if (self.args.length > 0) {... */\n      iszero\n      tag_163\n      jumpi\n        /* \"@chainlink/contracts/src/v0.8/functions/v1_0_0/libraries/FunctionsRequest.sol\":2599:2625  buffer.writeString(\"args\") */\n      tag_164\n      mload(0x40)\n      dup1\n      0x40\n      add\n      0x40\n      mstore\n      dup1\n      0x04\n      dup2\n      mstore\n      0x20\n      add\n      0x6172677300000000000000000000000000000000000000000000000000000000\n      dup2\n      mstore\n      pop\n        /* \"@chainlink/contracts/src/v0.8/functions/v1_0_0/libraries/FunctionsRequest.sol\":2599:2605  buffer */\n      dup3\n        /* \"@chainlink/contracts/src/v0.8/functions/v1_0_0/libraries/FunctionsRequest.sol\":2599:2617  buffer.writeString */\n      tag_151\n      swap1\n        /* \"@chainlink/contracts/src/v0.8/functions/v1_0_0/libraries/FunctionsRequest.sol\":2599:2625  buffer.writeString(\"args\") */\n      swap2\n      swap1\n      0xffffffff\n      and\n      jump\t// in\n    tag_164:\n        /* \"@chainlink/contracts/src/v0.8/functions/v1_0_0/libraries/FunctionsRequest.sol\":2633:2652  buffer.startArray() */\n      tag_165\n        /* \"@chainlink/contracts/src/v0.8/functions/v1_0_0/libraries/FunctionsRequest.sol\":2633:2639  buffer */\n      dup2\n        /* \"@chainlink/contracts/src/v0.8/functions/v1_0_0/libraries/FunctionsRequest.sol\":2633:2650  buffer.startArray */\n      tag_166\n        /* \"@chainlink/contracts/src/v0.8/functions/v1_0_0/libraries/FunctionsRequest.sol\":2633:2652  buffer.startArray() */\n      jump\t// in\n    tag_165:\n        /* \"@chainlink/contracts/src/v0.8/functions/v1_0_0/libraries/FunctionsRequest.sol\":2665:2674  uint256 i */\n      0x00\n        /* \"@chainlink/contracts/src/v0.8/functions/v1_0_0/libraries/FunctionsRequest.sol\":2660:2758  for (uint256 i = 0; i < self.args.length; ++i) {... */\n    tag_167:\n        /* \"@chainlink/contracts/src/v0.8/functions/v1_0_0/libraries/FunctionsRequest.sol\":2684:2688  self */\n      dup4\n        /* \"@chainlink/contracts/src/v0.8/functions/v1_0_0/libraries/FunctionsRequest.sol\":2684:2693  self.args */\n      0xa0\n      add\n      mload\n        /* \"@chainlink/contracts/src/v0.8/functions/v1_0_0/libraries/FunctionsRequest.sol\":2684:2700  self.args.length */\n      mload\n        /* \"@chainlink/contracts/src/v0.8/functions/v1_0_0/libraries/FunctionsRequest.sol\":2680:2681  i */\n      dup2\n        /* \"@chainlink/contracts/src/v0.8/functions/v1_0_0/libraries/FunctionsRequest.sol\":2680:2700  i < self.args.length */\n      lt\n        /* \"@chainlink/contracts/src/v0.8/functions/v1_0_0/libraries/FunctionsRequest.sol\":2660:2758  for (uint256 i = 0; i < self.args.length; ++i) {... */\n      iszero\n      tag_168\n      jumpi\n        /* \"@chainlink/contracts/src/v0.8/functions/v1_0_0/libraries/FunctionsRequest.sol\":2717:2749  buffer.writeString(self.args[i]) */\n      tag_170\n        /* \"@chainlink/contracts/src/v0.8/functions/v1_0_0/libraries/FunctionsRequest.sol\":2736:2740  self */\n      dup5\n        /* \"@chainlink/contracts/src/v0.8/functions/v1_0_0/libraries/FunctionsRequest.sol\":2736:2745  self.args */\n      0xa0\n      add\n      mload\n        /* \"@chainlink/contracts/src/v0.8/functions/v1_0_0/libraries/FunctionsRequest.sol\":2746:2747  i */\n      dup3\n        /* \"@chainlink/contracts/src/v0.8/functions/v1_0_0/libraries/FunctionsRequest.sol\":2736:2748  self.args[i] */\n      dup2\n      mload\n      dup2\n      lt\n      tag_171\n      jumpi\n      tag_172\n      tag_173\n      jump\t// in\n    tag_172:\n    tag_171:\n      0x20\n      mul\n      0x20\n      add\n      add\n      mload\n        /* \"@chainlink/contracts/src/v0.8/functions/v1_0_0/libraries/FunctionsRequest.sol\":2717:2723  buffer */\n      dup4\n        /* \"@chainlink/contracts/src/v0.8/functions/v1_0_0/libraries/FunctionsRequest.sol\":2717:2735  buffer.writeString */\n      tag_151\n      swap1\n        /* \"@chainlink/contracts/src/v0.8/functions/v1_0_0/libraries/FunctionsRequest.sol\":2717:2749  buffer.writeString(self.args[i]) */\n      swap2\n      swap1\n      0xffffffff\n      and\n      jump\t// in\n    tag_170:\n        /* \"@chainlink/contracts/src/v0.8/functions/v1_0_0/libraries/FunctionsRequest.sol\":2702:2705  ++i */\n      dup1\n      tag_174\n      swap1\n      tag_175\n      jump\t// in\n    tag_174:\n      swap1\n      pop\n        /* \"@chainlink/contracts/src/v0.8/functions/v1_0_0/libraries/FunctionsRequest.sol\":2660:2758  for (uint256 i = 0; i < self.args.length; ++i) {... */\n      jump(tag_167)\n    tag_168:\n      pop\n        /* \"@chainlink/contracts/src/v0.8/functions/v1_0_0/libraries/FunctionsRequest.sol\":2765:2785  buffer.endSequence() */\n      tag_176\n        /* \"@chainlink/contracts/src/v0.8/functions/v1_0_0/libraries/FunctionsRequest.sol\":2765:2771  buffer */\n      dup2\n        /* \"@chainlink/contracts/src/v0.8/functions/v1_0_0/libraries/FunctionsRequest.sol\":2765:2783  buffer.endSequence */\n      tag_177\n        /* \"@chainlink/contracts/src/v0.8/functions/v1_0_0/libraries/FunctionsRequest.sol\":2765:2785  buffer.endSequence() */\n      jump\t// in\n    tag_176:\n        /* \"@chainlink/contracts/src/v0.8/functions/v1_0_0/libraries/FunctionsRequest.sol\":2565:2792  if (self.args.length > 0) {... */\n    tag_163:\n        /* \"@chainlink/contracts/src/v0.8/functions/v1_0_0/libraries/FunctionsRequest.sol\":2842:2843  0 */\n      0x00\n        /* \"@chainlink/contracts/src/v0.8/functions/v1_0_0/libraries/FunctionsRequest.sol\":2802:2806  self */\n      dup4\n        /* \"@chainlink/contracts/src/v0.8/functions/v1_0_0/libraries/FunctionsRequest.sol\":2802:2832  self.encryptedSecretsReference */\n      0x80\n      add\n      mload\n        /* \"@chainlink/contracts/src/v0.8/functions/v1_0_0/libraries/FunctionsRequest.sol\":2802:2839  self.encryptedSecretsReference.length */\n      mload\n        /* \"@chainlink/contracts/src/v0.8/functions/v1_0_0/libraries/FunctionsRequest.sol\":2802:2843  self.encryptedSecretsReference.length > 0 */\n      gt\n        /* \"@chainlink/contracts/src/v0.8/functions/v1_0_0/libraries/FunctionsRequest.sol\":2798:3144  if (self.encryptedSecretsReference.length > 0) {... */\n      iszero\n      tag_178\n      jumpi\n        /* \"@chainlink/contracts/src/v0.8/functions/v1_0_0/libraries/FunctionsRequest.sol\":2881:2896  Location.Inline */\n      0x00\n        /* \"@chainlink/contracts/src/v0.8/functions/v1_0_0/libraries/FunctionsRequest.sol\":2857:2896  self.secretsLocation == Location.Inline */\n      0x02\n      dup2\n      gt\n      iszero\n      tag_179\n      jumpi\n      tag_180\n      tag_155\n      jump\t// in\n    tag_180:\n    tag_179:\n        /* \"@chainlink/contracts/src/v0.8/functions/v1_0_0/libraries/FunctionsRequest.sol\":2857:2861  self */\n      dup4\n        /* \"@chainlink/contracts/src/v0.8/functions/v1_0_0/libraries/FunctionsRequest.sol\":2857:2877  self.secretsLocation */\n      0x20\n      add\n      mload\n        /* \"@chainlink/contracts/src/v0.8/functions/v1_0_0/libraries/FunctionsRequest.sol\":2857:2896  self.secretsLocation == Location.Inline */\n      0x02\n      dup2\n      gt\n      iszero\n      tag_181\n      jumpi\n      tag_182\n      tag_155\n      jump\t// in\n    tag_182:\n    tag_181:\n      sub\n        /* \"@chainlink/contracts/src/v0.8/functions/v1_0_0/libraries/FunctionsRequest.sol\":2853:2941  if (self.secretsLocation == Location.Inline) {... */\n      tag_183\n      jumpi\n        /* \"@chainlink/contracts/src/v0.8/functions/v1_0_0/libraries/FunctionsRequest.sol\":2915:2932  NoInlineSecrets() */\n      mload(0x40)\n      0xa80d31f700000000000000000000000000000000000000000000000000000000\n      dup2\n      mstore\n      0x04\n      add\n      mload(0x40)\n      dup1\n      swap2\n      sub\n      swap1\n      revert\n        /* \"@chainlink/contracts/src/v0.8/functions/v1_0_0/libraries/FunctionsRequest.sol\":2853:2941  if (self.secretsLocation == Location.Inline) {... */\n    tag_183:\n        /* \"@chainlink/contracts/src/v0.8/functions/v1_0_0/libraries/FunctionsRequest.sol\":2948:2985  buffer.writeString(\"secretsLocation\") */\n      tag_184\n      mload(0x40)\n      dup1\n      0x40\n      add\n      0x40\n      mstore\n      dup1\n      0x0f\n      dup2\n      mstore\n      0x20\n      add\n      0x736563726574734c6f636174696f6e0000000000000000000000000000000000\n      dup2\n      mstore\n      pop\n        /* \"@chainlink/contracts/src/v0.8/functions/v1_0_0/libraries/FunctionsRequest.sol\":2948:2954  buffer */\n      dup3\n        /* \"@chainlink/contracts/src/v0.8/functions/v1_0_0/libraries/FunctionsRequest.sol\":2948:2966  buffer.writeString */\n      tag_151\n      swap1\n        /* \"@chainlink/contracts/src/v0.8/functions/v1_0_0/libraries/FunctionsRequest.sol\":2948:2985  buffer.writeString(\"secretsLocation\") */\n      swap2\n      swap1\n      0xffffffff\n      and\n      jump\t// in\n    tag_184:\n        /* \"@chainlink/contracts/src/v0.8/functions/v1_0_0/libraries/FunctionsRequest.sol\":2993:3043  buffer.writeUInt256(uint256(self.secretsLocation)) */\n      tag_185\n        /* \"@chainlink/contracts/src/v0.8/functions/v1_0_0/libraries/FunctionsRequest.sol\":3021:3025  self */\n      dup4\n        /* \"@chainlink/contracts/src/v0.8/functions/v1_0_0/libraries/FunctionsRequest.sol\":3021:3041  self.secretsLocation */\n      0x20\n      add\n      mload\n        /* \"@chainlink/contracts/src/v0.8/functions/v1_0_0/libraries/FunctionsRequest.sol\":3013:3042  uint256(self.secretsLocation) */\n      0x02\n      dup2\n      gt\n      iszero\n      tag_186\n      jumpi\n      tag_187\n      tag_155\n      jump\t// in\n    tag_187:\n    tag_186:\n        /* \"@chainlink/contracts/src/v0.8/functions/v1_0_0/libraries/FunctionsRequest.sol\":2993:2999  buffer */\n      dup3\n        /* \"@chainlink/contracts/src/v0.8/functions/v1_0_0/libraries/FunctionsRequest.sol\":2993:3012  buffer.writeUInt256 */\n      tag_156\n      swap1\n        /* \"@chainlink/contracts/src/v0.8/functions/v1_0_0/libraries/FunctionsRequest.sol\":2993:3043  buffer.writeUInt256(uint256(self.secretsLocation)) */\n      swap2\n      swap1\n      0xffffffff\n      and\n      jump\t// in\n    tag_185:\n        /* \"@chainlink/contracts/src/v0.8/functions/v1_0_0/libraries/FunctionsRequest.sol\":3051:3080  buffer.writeString(\"secrets\") */\n      tag_188\n      mload(0x40)\n      dup1\n      0x40\n      add\n      0x40\n      mstore\n      dup1\n      0x07\n      dup2\n      mstore\n      0x20\n      add\n      0x7365637265747300000000000000000000000000000000000000000000000000\n      dup2\n      mstore\n      pop\n        /* \"@chainlink/contracts/src/v0.8/functions/v1_0_0/libraries/FunctionsRequest.sol\":3051:3057  buffer */\n      dup3\n        /* \"@chainlink/contracts/src/v0.8/functions/v1_0_0/libraries/FunctionsRequest.sol\":3051:3069  buffer.writeString */\n      tag_151\n      swap1\n        /* \"@chainlink/contracts/src/v0.8/functions/v1_0_0/libraries/FunctionsRequest.sol\":3051:3080  buffer.writeString(\"secrets\") */\n      swap2\n      swap1\n      0xffffffff\n      and\n      jump\t// in\n    tag_188:\n        /* \"@chainlink/contracts/src/v0.8/functions/v1_0_0/libraries/FunctionsRequest.sol\":3088:3137  buffer.writeBytes(self.encryptedSecretsReference) */\n      tag_189\n        /* \"@chainlink/contracts/src/v0.8/functions/v1_0_0/libraries/FunctionsRequest.sol\":3106:3110  self */\n      dup4\n        /* \"@chainlink/contracts/src/v0.8/functions/v1_0_0/libraries/FunctionsRequest.sol\":3106:3136  self.encryptedSecretsReference */\n      0x80\n      add\n      mload\n        /* \"@chainlink/contracts/src/v0.8/functions/v1_0_0/libraries/FunctionsRequest.sol\":3088:3094  buffer */\n      dup3\n        /* \"@chainlink/contracts/src/v0.8/functions/v1_0_0/libraries/FunctionsRequest.sol\":3088:3105  buffer.writeBytes */\n      tag_190\n      swap1\n        /* \"@chainlink/contracts/src/v0.8/functions/v1_0_0/libraries/FunctionsRequest.sol\":3088:3137  buffer.writeBytes(self.encryptedSecretsReference) */\n      swap2\n      swap1\n      0xffffffff\n      and\n      jump\t// in\n    tag_189:\n        /* \"@chainlink/contracts/src/v0.8/functions/v1_0_0/libraries/FunctionsRequest.sol\":2798:3144  if (self.encryptedSecretsReference.length > 0) {... */\n    tag_178:\n        /* \"@chainlink/contracts/src/v0.8/functions/v1_0_0/libraries/FunctionsRequest.sol\":3178:3179  0 */\n      0x00\n        /* \"@chainlink/contracts/src/v0.8/functions/v1_0_0/libraries/FunctionsRequest.sol\":3154:3158  self */\n      dup4\n        /* \"@chainlink/contracts/src/v0.8/functions/v1_0_0/libraries/FunctionsRequest.sol\":3154:3168  self.bytesArgs */\n      0xc0\n      add\n      mload\n        /* \"@chainlink/contracts/src/v0.8/functions/v1_0_0/libraries/FunctionsRequest.sol\":3154:3175  self.bytesArgs.length */\n      mload\n        /* \"@chainlink/contracts/src/v0.8/functions/v1_0_0/libraries/FunctionsRequest.sol\":3154:3179  self.bytesArgs.length > 0 */\n      gt\n        /* \"@chainlink/contracts/src/v0.8/functions/v1_0_0/libraries/FunctionsRequest.sol\":3150:3396  if (self.bytesArgs.length > 0) {... */\n      iszero\n      tag_191\n      jumpi\n        /* \"@chainlink/contracts/src/v0.8/functions/v1_0_0/libraries/FunctionsRequest.sol\":3189:3220  buffer.writeString(\"bytesArgs\") */\n      tag_192\n      mload(0x40)\n      dup1\n      0x40\n      add\n      0x40\n      mstore\n      dup1\n      0x09\n      dup2\n      mstore\n      0x20\n      add\n      0x6279746573417267730000000000000000000000000000000000000000000000\n      dup2\n      mstore\n      pop\n        /* \"@chainlink/contracts/src/v0.8/functions/v1_0_0/libraries/FunctionsRequest.sol\":3189:3195  buffer */\n      dup3\n        /* \"@chainlink/contracts/src/v0.8/functions/v1_0_0/libraries/FunctionsRequest.sol\":3189:3207  buffer.writeString */\n      tag_151\n      swap1\n        /* \"@chainlink/contracts/src/v0.8/functions/v1_0_0/libraries/FunctionsRequest.sol\":3189:3220  buffer.writeString(\"bytesArgs\") */\n      swap2\n      swap1\n      0xffffffff\n      and\n      jump\t// in\n    tag_192:\n        /* \"@chainlink/contracts/src/v0.8/functions/v1_0_0/libraries/FunctionsRequest.sol\":3228:3247  buffer.startArray() */\n      tag_193\n        /* \"@chainlink/contracts/src/v0.8/functions/v1_0_0/libraries/FunctionsRequest.sol\":3228:3234  buffer */\n      dup2\n        /* \"@chainlink/contracts/src/v0.8/functions/v1_0_0/libraries/FunctionsRequest.sol\":3228:3245  buffer.startArray */\n      tag_166\n        /* \"@chainlink/contracts/src/v0.8/functions/v1_0_0/libraries/FunctionsRequest.sol\":3228:3247  buffer.startArray() */\n      jump\t// in\n    tag_193:\n        /* \"@chainlink/contracts/src/v0.8/functions/v1_0_0/libraries/FunctionsRequest.sol\":3260:3269  uint256 i */\n      0x00\n        /* \"@chainlink/contracts/src/v0.8/functions/v1_0_0/libraries/FunctionsRequest.sol\":3255:3362  for (uint256 i = 0; i < self.bytesArgs.length; ++i) {... */\n    tag_194:\n        /* \"@chainlink/contracts/src/v0.8/functions/v1_0_0/libraries/FunctionsRequest.sol\":3279:3283  self */\n      dup4\n        /* \"@chainlink/contracts/src/v0.8/functions/v1_0_0/libraries/FunctionsRequest.sol\":3279:3293  self.bytesArgs */\n      0xc0\n      add\n      mload\n        /* \"@chainlink/contracts/src/v0.8/functions/v1_0_0/libraries/FunctionsRequest.sol\":3279:3300  self.bytesArgs.length */\n      mload\n        /* \"@chainlink/contracts/src/v0.8/functions/v1_0_0/libraries/FunctionsRequest.sol\":3275:3276  i */\n      dup2\n        /* \"@chainlink/contracts/src/v0.8/functions/v1_0_0/libraries/FunctionsRequest.sol\":3275:3300  i < self.bytesArgs.length */\n      lt\n        /* \"@chainlink/contracts/src/v0.8/functions/v1_0_0/libraries/FunctionsRequest.sol\":3255:3362  for (uint256 i = 0; i < self.bytesArgs.length; ++i) {... */\n      iszero\n      tag_195\n      jumpi\n        /* \"@chainlink/contracts/src/v0.8/functions/v1_0_0/libraries/FunctionsRequest.sol\":3317:3353  buffer.writeBytes(self.bytesArgs[i]) */\n      tag_197\n        /* \"@chainlink/contracts/src/v0.8/functions/v1_0_0/libraries/FunctionsRequest.sol\":3335:3339  self */\n      dup5\n        /* \"@chainlink/contracts/src/v0.8/functions/v1_0_0/libraries/FunctionsRequest.sol\":3335:3349  self.bytesArgs */\n      0xc0\n      add\n      mload\n        /* \"@chainlink/contracts/src/v0.8/functions/v1_0_0/libraries/FunctionsRequest.sol\":3350:3351  i */\n      dup3\n        /* \"@chainlink/contracts/src/v0.8/functions/v1_0_0/libraries/FunctionsRequest.sol\":3335:3352  self.bytesArgs[i] */\n      dup2\n      mload\n      dup2\n      lt\n      tag_198\n      jumpi\n      tag_199\n      tag_173\n      jump\t// in\n    tag_199:\n    tag_198:\n      0x20\n      mul\n      0x20\n      add\n      add\n      mload\n        /* \"@chainlink/contracts/src/v0.8/functions/v1_0_0/libraries/FunctionsRequest.sol\":3317:3323  buffer */\n      dup4\n        /* \"@chainlink/contracts/src/v0.8/functions/v1_0_0/libraries/FunctionsRequest.sol\":3317:3334  buffer.writeBytes */\n      tag_190\n      swap1\n        /* \"@chainlink/contracts/src/v0.8/functions/v1_0_0/libraries/FunctionsRequest.sol\":3317:3353  buffer.writeBytes(self.bytesArgs[i]) */\n      swap2\n      swap1\n      0xffffffff\n      and\n      jump\t// in\n    tag_197:\n        /* \"@chainlink/contracts/src/v0.8/functions/v1_0_0/libraries/FunctionsRequest.sol\":3302:3305  ++i */\n      dup1\n      tag_200\n      swap1\n      tag_175\n      jump\t// in\n    tag_200:\n      swap1\n      pop\n        /* \"@chainlink/contracts/src/v0.8/functions/v1_0_0/libraries/FunctionsRequest.sol\":3255:3362  for (uint256 i = 0; i < self.bytesArgs.length; ++i) {... */\n      jump(tag_194)\n    tag_195:\n      pop\n        /* \"@chainlink/contracts/src/v0.8/functions/v1_0_0/libraries/FunctionsRequest.sol\":3369:3389  buffer.endSequence() */\n      tag_201\n        /* \"@chainlink/contracts/src/v0.8/functions/v1_0_0/libraries/FunctionsRequest.sol\":3369:3375  buffer */\n      dup2\n        /* \"@chainlink/contracts/src/v0.8/functions/v1_0_0/libraries/FunctionsRequest.sol\":3369:3387  buffer.endSequence */\n      tag_177\n        /* \"@chainlink/contracts/src/v0.8/functions/v1_0_0/libraries/FunctionsRequest.sol\":3369:3389  buffer.endSequence() */\n      jump\t// in\n    tag_201:\n        /* \"@chainlink/contracts/src/v0.8/functions/v1_0_0/libraries/FunctionsRequest.sol\":3150:3396  if (self.bytesArgs.length > 0) {... */\n    tag_191:\n        /* \"@chainlink/contracts/src/v0.8/functions/v1_0_0/libraries/FunctionsRequest.sol\":3409:3415  buffer */\n      dup1\n        /* \"@chainlink/contracts/src/v0.8/functions/v1_0_0/libraries/FunctionsRequest.sol\":3409:3419  buffer.buf */\n      0x00\n      add\n      mload\n        /* \"@chainlink/contracts/src/v0.8/functions/v1_0_0/libraries/FunctionsRequest.sol\":3409:3423  buffer.buf.buf */\n      0x00\n      add\n      mload\n        /* \"@chainlink/contracts/src/v0.8/functions/v1_0_0/libraries/FunctionsRequest.sol\":3402:3423  return buffer.buf.buf */\n      swap2\n      pop\n      pop\n        /* \"@chainlink/contracts/src/v0.8/functions/v1_0_0/libraries/FunctionsRequest.sol\":2158:3428  function encodeCBOR(Request memory self) internal pure returns (bytes memory) {... */\n      swap2\n      swap1\n      pop\n      jump\t// out\n        /* \"@chainlink/contracts/src/v0.8/functions/v1_0_0/FunctionsClient.sol\":1158:1537  function _sendRequest(... */\n    tag_122:\n        /* \"@chainlink/contracts/src/v0.8/functions/v1_0_0/FunctionsClient.sol\":1300:1307  bytes32 */\n      0x00\n        /* \"@chainlink/contracts/src/v0.8/functions/v1_0_0/FunctionsClient.sol\":1315:1332  bytes32 requestId */\n      dup1\n        /* \"@chainlink/contracts/src/v0.8/functions/v1_0_0/FunctionsClient.sol\":1335:1343  i_router */\n      immutable(\"0x8e8fab5f003314da8d1873ea7720e8d9f47650136d916064d1edb8a11d682624\")\n        /* \"@chainlink/contracts/src/v0.8/functions/v1_0_0/FunctionsClient.sol\":1335:1355  i_router.sendRequest */\n      0xffffffffffffffffffffffffffffffffffffffff\n      and\n      0x461d2762\n        /* \"@chainlink/contracts/src/v0.8/functions/v1_0_0/FunctionsClient.sol\":1363:1377  subscriptionId */\n      dup7\n        /* \"@chainlink/contracts/src/v0.8/functions/v1_0_0/FunctionsClient.sol\":1385:1389  data */\n      dup9\n        /* \"@chainlink/contracts/src/v0.8/functions/v1_0_0/libraries/FunctionsRequest.sol\":322:323  1 */\n      0x01\n        /* \"@chainlink/contracts/src/v0.8/functions/v1_0_0/FunctionsClient.sol\":1442:1458  callbackGasLimit */\n      dup9\n        /* \"@chainlink/contracts/src/v0.8/functions/v1_0_0/FunctionsClient.sol\":1466:1471  donId */\n      dup9\n        /* \"@chainlink/contracts/src/v0.8/functions/v1_0_0/FunctionsClient.sol\":1335:1477  i_router.sendRequest(... */\n      mload(0x40)\n      dup7\n      0xffffffff\n      and\n      0xe0\n      shl\n      dup2\n      mstore\n      0x04\n      add\n      tag_203\n      swap6\n      swap5\n      swap4\n      swap3\n      swap2\n      swap1\n      tag_204\n      jump\t// in\n    tag_203:\n      0x20\n      mload(0x40)\n      dup1\n      dup4\n      sub\n      dup2\n      0x00\n      dup8\n      gas\n      call\n      iszero\n      dup1\n      iszero\n      tag_206\n      jumpi\n      returndatasize\n      0x00\n      dup1\n      returndatacopy\n      revert(0x00, returndatasize)\n    tag_206:\n      pop\n      pop\n      pop\n      pop\n      mload(0x40)\n      returndatasize\n      not(0x1f)\n      0x1f\n      dup3\n      add\n      and\n      dup3\n      add\n      dup1\n      0x40\n      mstore\n      pop\n      dup2\n      add\n      swap1\n      tag_207\n      swap2\n      swap1\n      tag_208\n      jump\t// in\n    tag_207:\n        /* \"@chainlink/contracts/src/v0.8/functions/v1_0_0/FunctionsClient.sol\":1315:1477  bytes32 requestId = i_router.sendRequest(... */\n      swap1\n      pop\n        /* \"@chainlink/contracts/src/v0.8/functions/v1_0_0/FunctionsClient.sol\":1500:1509  requestId */\n      dup1\n        /* \"@chainlink/contracts/src/v0.8/functions/v1_0_0/FunctionsClient.sol\":1488:1510  RequestSent(requestId) */\n      0x1131472297a800fee664d1d89cfa8f7676ff07189ecc53f80bbb5f4969099db8\n      mload(0x40)\n      mload(0x40)\n      dup1\n      swap2\n      sub\n      swap1\n      log2\n        /* \"@chainlink/contracts/src/v0.8/functions/v1_0_0/FunctionsClient.sol\":1523:1532  requestId */\n      dup1\n        /* \"@chainlink/contracts/src/v0.8/functions/v1_0_0/FunctionsClient.sol\":1516:1532  return requestId */\n      swap2\n      pop\n      pop\n        /* \"@chainlink/contracts/src/v0.8/functions/v1_0_0/FunctionsClient.sol\":1158:1537  function _sendRequest(... */\n      swap5\n      swap4\n      pop\n      pop\n      pop\n      pop\n      jump\t// out\n        /* \"@chainlink/contracts/src/v0.8/shared/access/ConfirmedOwnerWithProposal.sol\":1536:1775  function _transferOwnership(address to) private {... */\n    tag_132:\n        /* \"@chainlink/contracts/src/v0.8/shared/access/ConfirmedOwnerWithProposal.sol\":1655:1665  msg.sender */\n      caller\n        /* \"@chainlink/contracts/src/v0.8/shared/access/ConfirmedOwnerWithProposal.sol\":1649:1665  to != msg.sender */\n      0xffffffffffffffffffffffffffffffffffffffff\n      and\n        /* \"@chainlink/contracts/src/v0.8/shared/access/ConfirmedOwnerWithProposal.sol\":1649:1651  to */\n      dup2\n        /* \"@chainlink/contracts/src/v0.8/shared/access/ConfirmedOwnerWithProposal.sol\":1649:1665  to != msg.sender */\n      0xffffffffffffffffffffffffffffffffffffffff\n      and\n      sub\n        /* \"@chainlink/contracts/src/v0.8/shared/access/ConfirmedOwnerWithProposal.sol\":1641:1693  require(to != msg.sender, \"Cannot transfer to self\") */\n      tag_210\n      jumpi\n      mload(0x40)\n      0x08c379a000000000000000000000000000000000000000000000000000000000\n      dup2\n      mstore\n      0x04\n      add\n      tag_211\n      swap1\n      tag_212\n      jump\t// in\n    tag_211:\n      mload(0x40)\n      dup1\n      swap2\n      sub\n      swap1\n      revert\n    tag_210:\n        /* \"@chainlink/contracts/src/v0.8/shared/access/ConfirmedOwnerWithProposal.sol\":1717:1719  to */\n      dup1\n        /* \"@chainlink/contracts/src/v0.8/shared/access/ConfirmedOwnerWithProposal.sol\":1700:1714  s_pendingOwner */\n      0x01\n      0x00\n        /* \"@chainlink/contracts/src/v0.8/shared/access/ConfirmedOwnerWithProposal.sol\":1700:1719  s_pendingOwner = to */\n      0x0100\n      exp\n      dup2\n      sload\n      dup2\n      0xffffffffffffffffffffffffffffffffffffffff\n      mul\n      not\n      and\n      swap1\n      dup4\n      0xffffffffffffffffffffffffffffffffffffffff\n      and\n      mul\n      or\n      swap1\n      sstore\n      pop\n        /* \"@chainlink/contracts/src/v0.8/shared/access/ConfirmedOwnerWithProposal.sol\":1767:1769  to */\n      dup1\n        /* \"@chainlink/contracts/src/v0.8/shared/access/ConfirmedOwnerWithProposal.sol\":1731:1770  OwnershipTransferRequested(s_owner, to) */\n      0xffffffffffffffffffffffffffffffffffffffff\n      and\n        /* \"@chainlink/contracts/src/v0.8/shared/access/ConfirmedOwnerWithProposal.sol\":1758:1765  s_owner */\n      0x00\n      dup1\n      sload\n      swap1\n      0x0100\n      exp\n      swap1\n      div\n      0xffffffffffffffffffffffffffffffffffffffff\n      and\n        /* \"@chainlink/contracts/src/v0.8/shared/access/ConfirmedOwnerWithProposal.sol\":1731:1770  OwnershipTransferRequested(s_owner, to) */\n      0xffffffffffffffffffffffffffffffffffffffff\n      and\n      0xed8889f560326eb138920d842192f0eb3dd22b4f139c87a2c57538e05bae1278\n      mload(0x40)\n      mload(0x40)\n      dup1\n      swap2\n      sub\n      swap1\n      log3\n        /* \"@chainlink/contracts/src/v0.8/shared/access/ConfirmedOwnerWithProposal.sol\":1536:1775  function _transferOwnership(address to) private {... */\n      pop\n      jump\t// out\n        /* \"@chainlink/contracts/src/v0.8/functions/v1_0_0/libraries/FunctionsRequest.sol\":3777:4084  function initializeRequest(... */\n    tag_146:\n        /* \"@chainlink/contracts/src/v0.8/functions/v1_0_0/libraries/FunctionsRequest.sol\":3961:3962  0 */\n      0x00\n        /* \"@chainlink/contracts/src/v0.8/functions/v1_0_0/libraries/FunctionsRequest.sol\":3943:3949  source */\n      dup2\n        /* \"@chainlink/contracts/src/v0.8/functions/v1_0_0/libraries/FunctionsRequest.sol\":3937:3957  bytes(source).length */\n      mload\n        /* \"@chainlink/contracts/src/v0.8/functions/v1_0_0/libraries/FunctionsRequest.sol\":3937:3962  bytes(source).length == 0 */\n      sub\n        /* \"@chainlink/contracts/src/v0.8/functions/v1_0_0/libraries/FunctionsRequest.sol\":3933:3984  if (bytes(source).length == 0) revert EmptySource() */\n      tag_214\n      jumpi\n        /* \"@chainlink/contracts/src/v0.8/functions/v1_0_0/libraries/FunctionsRequest.sol\":3971:3984  EmptySource() */\n      mload(0x40)\n      0x22ce3edd00000000000000000000000000000000000000000000000000000000\n      dup2\n      mstore\n      0x04\n      add\n      mload(0x40)\n      dup1\n      swap2\n      sub\n      swap1\n      revert\n        /* \"@chainlink/contracts/src/v0.8/functions/v1_0_0/libraries/FunctionsRequest.sol\":3933:3984  if (bytes(source).length == 0) revert EmptySource() */\n    tag_214:\n        /* \"@chainlink/contracts/src/v0.8/functions/v1_0_0/libraries/FunctionsRequest.sol\":4011:4023  codeLocation */\n      dup3\n        /* \"@chainlink/contracts/src/v0.8/functions/v1_0_0/libraries/FunctionsRequest.sol\":3991:3995  self */\n      dup5\n        /* \"@chainlink/contracts/src/v0.8/functions/v1_0_0/libraries/FunctionsRequest.sol\":3991:4008  self.codeLocation */\n      0x00\n      add\n        /* \"@chainlink/contracts/src/v0.8/functions/v1_0_0/libraries/FunctionsRequest.sol\":3991:4023  self.codeLocation = codeLocation */\n      swap1\n      0x02\n      dup2\n      gt\n      iszero\n      tag_215\n      jumpi\n      tag_216\n      tag_155\n      jump\t// in\n    tag_216:\n    tag_215:\n      swap1\n      dup2\n      0x02\n      dup2\n      gt\n      iszero\n      tag_217\n      jumpi\n      tag_218\n      tag_155\n      jump\t// in\n    tag_218:\n    tag_217:\n      dup2\n      mstore\n      pop\n      pop\n        /* \"@chainlink/contracts/src/v0.8/functions/v1_0_0/libraries/FunctionsRequest.sol\":4045:4053  language */\n      dup2\n        /* \"@chainlink/contracts/src/v0.8/functions/v1_0_0/libraries/FunctionsRequest.sol\":4029:4033  self */\n      dup5\n        /* \"@chainlink/contracts/src/v0.8/functions/v1_0_0/libraries/FunctionsRequest.sol\":4029:4042  self.language */\n      0x40\n      add\n        /* \"@chainlink/contracts/src/v0.8/functions/v1_0_0/libraries/FunctionsRequest.sol\":4029:4053  self.language = language */\n      swap1\n      0x00\n      dup2\n      gt\n      iszero\n      tag_219\n      jumpi\n      tag_220\n      tag_155\n      jump\t// in\n    tag_220:\n    tag_219:\n      swap1\n      dup2\n      0x00\n      dup2\n      gt\n      iszero\n      tag_221\n      jumpi\n      tag_222\n      tag_155\n      jump\t// in\n    tag_222:\n    tag_221:\n      dup2\n      mstore\n      pop\n      pop\n        /* \"@chainlink/contracts/src/v0.8/functions/v1_0_0/libraries/FunctionsRequest.sol\":4073:4079  source */\n      dup1\n        /* \"@chainlink/contracts/src/v0.8/functions/v1_0_0/libraries/FunctionsRequest.sol\":4059:4063  self */\n      dup5\n        /* \"@chainlink/contracts/src/v0.8/functions/v1_0_0/libraries/FunctionsRequest.sol\":4059:4070  self.source */\n      0x60\n      add\n        /* \"@chainlink/contracts/src/v0.8/functions/v1_0_0/libraries/FunctionsRequest.sol\":4059:4079  self.source = source */\n      dup2\n      swap1\n      mstore\n      pop\n        /* \"@chainlink/contracts/src/v0.8/functions/v1_0_0/libraries/FunctionsRequest.sol\":3777:4084  function initializeRequest(... */\n      pop\n      pop\n      pop\n      pop\n      jump\t// out\n        /* \"@chainlink/contracts/src/v0.8/vendor/solidity-cborutils/v2.0.0/CBOR.sol\":1490:1663  function create(uint256 capacity) internal pure returns(CBORBuffer memory cbor) {... */\n    tag_149:\n        /* \"@chainlink/contracts/src/v0.8/vendor/solidity-cborutils/v2.0.0/CBOR.sol\":1546:1568  CBORBuffer memory cbor */\n      tag_223\n      tag_224\n      jump\t// in\n    tag_223:\n        /* \"@chainlink/contracts/src/v0.8/vendor/solidity-cborutils/v2.0.0/CBOR.sol\":1580:1611  Buffer.init(cbor.buf, capacity) */\n      tag_226\n        /* \"@chainlink/contracts/src/v0.8/vendor/solidity-cborutils/v2.0.0/CBOR.sol\":1592:1596  cbor */\n      dup2\n        /* \"@chainlink/contracts/src/v0.8/vendor/solidity-cborutils/v2.0.0/CBOR.sol\":1592:1600  cbor.buf */\n      0x00\n      add\n      mload\n        /* \"@chainlink/contracts/src/v0.8/vendor/solidity-cborutils/v2.0.0/CBOR.sol\":1602:1610  capacity */\n      dup4\n        /* \"@chainlink/contracts/src/v0.8/vendor/solidity-cborutils/v2.0.0/CBOR.sol\":1580:1591  Buffer.init */\n      tag_227\n        /* \"@chainlink/contracts/src/v0.8/vendor/solidity-cborutils/v2.0.0/CBOR.sol\":1580:1611  Buffer.init(cbor.buf, capacity) */\n      jump\t// in\n    tag_226:\n      pop\n        /* \"@chainlink/contracts/src/v0.8/vendor/solidity-cborutils/v2.0.0/CBOR.sol\":1634:1635  0 */\n      0x00\n        /* \"@chainlink/contracts/src/v0.8/vendor/solidity-cborutils/v2.0.0/CBOR.sol\":1621:1625  cbor */\n      dup2\n        /* \"@chainlink/contracts/src/v0.8/vendor/solidity-cborutils/v2.0.0/CBOR.sol\":1621:1631  cbor.depth */\n      0x20\n      add\n        /* \"@chainlink/contracts/src/v0.8/vendor/solidity-cborutils/v2.0.0/CBOR.sol\":1621:1635  cbor.depth = 0 */\n      dup2\n      dup2\n      mstore\n      pop\n      pop\n        /* \"@chainlink/contracts/src/v0.8/vendor/solidity-cborutils/v2.0.0/CBOR.sol\":1490:1663  function create(uint256 capacity) internal pure returns(CBORBuffer memory cbor) {... */\n      swap2\n      swap1\n      pop\n      jump\t// out\n        /* \"@chainlink/contracts/src/v0.8/vendor/solidity-cborutils/v2.0.0/CBOR.sol\":3021:3225  function writeString(CBORBuffer memory buf, string memory value) internal pure {... */\n    tag_151:\n        /* \"@chainlink/contracts/src/v0.8/vendor/solidity-cborutils/v2.0.0/CBOR.sol\":3110:3180  writeFixedNumeric(buf, MAJOR_TYPE_STRING, uint64(bytes(value).length)) */\n      tag_229\n        /* \"@chainlink/contracts/src/v0.8/vendor/solidity-cborutils/v2.0.0/CBOR.sol\":3128:3131  buf */\n      dup3\n        /* \"@chainlink/contracts/src/v0.8/vendor/solidity-cborutils/v2.0.0/CBOR.sol\":998:999  3 */\n      0x03\n        /* \"@chainlink/contracts/src/v0.8/vendor/solidity-cborutils/v2.0.0/CBOR.sol\":3165:3170  value */\n      dup4\n        /* \"@chainlink/contracts/src/v0.8/vendor/solidity-cborutils/v2.0.0/CBOR.sol\":3159:3178  bytes(value).length */\n      mload\n        /* \"@chainlink/contracts/src/v0.8/vendor/solidity-cborutils/v2.0.0/CBOR.sol\":3110:3127  writeFixedNumeric */\n      tag_230\n        /* \"@chainlink/contracts/src/v0.8/vendor/solidity-cborutils/v2.0.0/CBOR.sol\":3110:3180  writeFixedNumeric(buf, MAJOR_TYPE_STRING, uint64(bytes(value).length)) */\n      jump\t// in\n    tag_229:\n        /* \"@chainlink/contracts/src/v0.8/vendor/solidity-cborutils/v2.0.0/CBOR.sol\":3190:3218  buf.buf.append(bytes(value)) */\n      tag_231\n        /* \"@chainlink/contracts/src/v0.8/vendor/solidity-cborutils/v2.0.0/CBOR.sol\":3211:3216  value */\n      dup2\n        /* \"@chainlink/contracts/src/v0.8/vendor/solidity-cborutils/v2.0.0/CBOR.sol\":3190:3193  buf */\n      dup4\n        /* \"@chainlink/contracts/src/v0.8/vendor/solidity-cborutils/v2.0.0/CBOR.sol\":3190:3197  buf.buf */\n      0x00\n      add\n      mload\n        /* \"@chainlink/contracts/src/v0.8/vendor/solidity-cborutils/v2.0.0/CBOR.sol\":3190:3204  buf.buf.append */\n      tag_232\n      swap1\n        /* \"@chainlink/contracts/src/v0.8/vendor/solidity-cborutils/v2.0.0/CBOR.sol\":3190:3218  buf.buf.append(bytes(value)) */\n      swap2\n      swap1\n      0xffffffff\n      and\n      jump\t// in\n    tag_231:\n      pop\n        /* \"@chainlink/contracts/src/v0.8/vendor/solidity-cborutils/v2.0.0/CBOR.sol\":3021:3225  function writeString(CBORBuffer memory buf, string memory value) internal pure {... */\n      pop\n      pop\n      jump\t// out\n        /* \"@chainlink/contracts/src/v0.8/vendor/solidity-cborutils/v2.0.0/CBOR.sol\":1832:2034  function writeUInt256(CBORBuffer memory buf, uint256 value) internal pure {... */\n    tag_156:\n        /* \"@chainlink/contracts/src/v0.8/vendor/solidity-cborutils/v2.0.0/CBOR.sol\":1916:1983  buf.buf.appendUint8(uint8((MAJOR_TYPE_TAG << 5) | TAG_TYPE_BIGNUM)) */\n      tag_234\n        /* \"@chainlink/contracts/src/v0.8/vendor/solidity-cborutils/v2.0.0/CBOR.sol\":1246:1247  2 */\n      0x02\n        /* \"@chainlink/contracts/src/v0.8/vendor/solidity-cborutils/v2.0.0/CBOR.sol\":1961:1962  5 */\n      0x05\n        /* \"@chainlink/contracts/src/v0.8/vendor/solidity-cborutils/v2.0.0/CBOR.sol\":1141:1142  6 */\n      0x06\n        /* \"@chainlink/contracts/src/v0.8/vendor/solidity-cborutils/v2.0.0/CBOR.sol\":1943:1962  MAJOR_TYPE_TAG << 5 */\n      0xff\n      and\n      swap1\n      shl\n        /* \"@chainlink/contracts/src/v0.8/vendor/solidity-cborutils/v2.0.0/CBOR.sol\":1942:1981  (MAJOR_TYPE_TAG << 5) | TAG_TYPE_BIGNUM */\n      or\n        /* \"@chainlink/contracts/src/v0.8/vendor/solidity-cborutils/v2.0.0/CBOR.sol\":1916:1919  buf */\n      dup4\n        /* \"@chainlink/contracts/src/v0.8/vendor/solidity-cborutils/v2.0.0/CBOR.sol\":1916:1923  buf.buf */\n      0x00\n      add\n      mload\n        /* \"@chainlink/contracts/src/v0.8/vendor/solidity-cborutils/v2.0.0/CBOR.sol\":1916:1935  buf.buf.appendUint8 */\n      tag_235\n      swap1\n        /* \"@chainlink/contracts/src/v0.8/vendor/solidity-cborutils/v2.0.0/CBOR.sol\":1916:1983  buf.buf.appendUint8(uint8((MAJOR_TYPE_TAG << 5) | TAG_TYPE_BIGNUM)) */\n      swap2\n      swap1\n      0xffffffff\n      and\n      jump\t// in\n    tag_234:\n      pop\n        /* \"@chainlink/contracts/src/v0.8/vendor/solidity-cborutils/v2.0.0/CBOR.sol\":1993:2027  writeBytes(buf, abi.encode(value)) */\n      tag_236\n        /* \"@chainlink/contracts/src/v0.8/vendor/solidity-cborutils/v2.0.0/CBOR.sol\":2004:2007  buf */\n      dup3\n        /* \"@chainlink/contracts/src/v0.8/vendor/solidity-cborutils/v2.0.0/CBOR.sol\":2020:2025  value */\n      dup3\n        /* \"@chainlink/contracts/src/v0.8/vendor/solidity-cborutils/v2.0.0/CBOR.sol\":2009:2026  abi.encode(value) */\n      add(0x20, mload(0x40))\n      tag_237\n      swap2\n      swap1\n      tag_51\n      jump\t// in\n    tag_237:\n      mload(0x40)\n      0x20\n      dup2\n      dup4\n      sub\n      sub\n      dup2\n      mstore\n      swap1\n      0x40\n      mstore\n        /* \"@chainlink/contracts/src/v0.8/vendor/solidity-cborutils/v2.0.0/CBOR.sol\":1993:2003  writeBytes */\n      tag_190\n        /* \"@chainlink/contracts/src/v0.8/vendor/solidity-cborutils/v2.0.0/CBOR.sol\":1993:2027  writeBytes(buf, abi.encode(value)) */\n      jump\t// in\n    tag_236:\n        /* \"@chainlink/contracts/src/v0.8/vendor/solidity-cborutils/v2.0.0/CBOR.sol\":1832:2034  function writeUInt256(CBORBuffer memory buf, uint256 value) internal pure {... */\n      pop\n      pop\n      jump\t// out\n        /* \"@chainlink/contracts/src/v0.8/vendor/solidity-cborutils/v2.0.0/CBOR.sol\":3607:3753  function startArray(CBORBuffer memory buf) internal pure {... */\n    tag_166:\n        /* \"@chainlink/contracts/src/v0.8/vendor/solidity-cborutils/v2.0.0/CBOR.sol\":3674:3722  writeIndefiniteLengthType(buf, MAJOR_TYPE_ARRAY) */\n      tag_239\n        /* \"@chainlink/contracts/src/v0.8/vendor/solidity-cborutils/v2.0.0/CBOR.sol\":3700:3703  buf */\n      dup2\n        /* \"@chainlink/contracts/src/v0.8/vendor/solidity-cborutils/v2.0.0/CBOR.sol\":1047:1048  4 */\n      0x04\n        /* \"@chainlink/contracts/src/v0.8/vendor/solidity-cborutils/v2.0.0/CBOR.sol\":3674:3699  writeIndefiniteLengthType */\n      tag_240\n        /* \"@chainlink/contracts/src/v0.8/vendor/solidity-cborutils/v2.0.0/CBOR.sol\":3674:3722  writeIndefiniteLengthType(buf, MAJOR_TYPE_ARRAY) */\n      jump\t// in\n    tag_239:\n        /* \"@chainlink/contracts/src/v0.8/vendor/solidity-cborutils/v2.0.0/CBOR.sol\":3745:3746  1 */\n      0x01\n        /* \"@chainlink/contracts/src/v0.8/vendor/solidity-cborutils/v2.0.0/CBOR.sol\":3732:3735  buf */\n      dup2\n        /* \"@chainlink/contracts/src/v0.8/vendor/solidity-cborutils/v2.0.0/CBOR.sol\":3732:3741  buf.depth */\n      0x20\n      add\n        /* \"@chainlink/contracts/src/v0.8/vendor/solidity-cborutils/v2.0.0/CBOR.sol\":3732:3746  buf.depth += 1 */\n      dup2\n      dup2\n      mload\n      tag_241\n      swap2\n      swap1\n      tag_242\n      jump\t// in\n    tag_241:\n      swap2\n      pop\n      dup2\n      dup2\n      mstore\n      pop\n      pop\n        /* \"@chainlink/contracts/src/v0.8/vendor/solidity-cborutils/v2.0.0/CBOR.sol\":3607:3753  function startArray(CBORBuffer memory buf) internal pure {... */\n      pop\n      jump\t// out\n        /* \"@chainlink/contracts/src/v0.8/vendor/solidity-cborutils/v2.0.0/CBOR.sol\":4211:4365  function endSequence(CBORBuffer memory buf) internal pure {... */\n    tag_177:\n        /* \"@chainlink/contracts/src/v0.8/vendor/solidity-cborutils/v2.0.0/CBOR.sol\":4279:4334  writeIndefiniteLengthType(buf, MAJOR_TYPE_CONTENT_FREE) */\n      tag_244\n        /* \"@chainlink/contracts/src/v0.8/vendor/solidity-cborutils/v2.0.0/CBOR.sol\":4305:4308  buf */\n      dup2\n        /* \"@chainlink/contracts/src/v0.8/vendor/solidity-cborutils/v2.0.0/CBOR.sol\":1197:1198  7 */\n      0x07\n        /* \"@chainlink/contracts/src/v0.8/vendor/solidity-cborutils/v2.0.0/CBOR.sol\":4279:4304  writeIndefiniteLengthType */\n      tag_240\n        /* \"@chainlink/contracts/src/v0.8/vendor/solidity-cborutils/v2.0.0/CBOR.sol\":4279:4334  writeIndefiniteLengthType(buf, MAJOR_TYPE_CONTENT_FREE) */\n      jump\t// in\n    tag_244:\n        /* \"@chainlink/contracts/src/v0.8/vendor/solidity-cborutils/v2.0.0/CBOR.sol\":4357:4358  1 */\n      0x01\n        /* \"@chainlink/contracts/src/v0.8/vendor/solidity-cborutils/v2.0.0/CBOR.sol\":4344:4347  buf */\n      dup2\n        /* \"@chainlink/contracts/src/v0.8/vendor/solidity-cborutils/v2.0.0/CBOR.sol\":4344:4353  buf.depth */\n      0x20\n      add\n        /* \"@chainlink/contracts/src/v0.8/vendor/solidity-cborutils/v2.0.0/CBOR.sol\":4344:4358  buf.depth -= 1 */\n      dup2\n      dup2\n      mload\n      tag_245\n      swap2\n      swap1\n      tag_97\n      jump\t// in\n    tag_245:\n      swap2\n      pop\n      dup2\n      dup2\n      mstore\n      pop\n      pop\n        /* \"@chainlink/contracts/src/v0.8/vendor/solidity-cborutils/v2.0.0/CBOR.sol\":4211:4365  function endSequence(CBORBuffer memory buf) internal pure {... */\n      pop\n      jump\t// out\n        /* \"@chainlink/contracts/src/v0.8/vendor/solidity-cborutils/v2.0.0/CBOR.sol\":2828:3015  function writeBytes(CBORBuffer memory buf, bytes memory value) internal pure {... */\n    tag_190:\n        /* \"@chainlink/contracts/src/v0.8/vendor/solidity-cborutils/v2.0.0/CBOR.sol\":2915:2977  writeFixedNumeric(buf, MAJOR_TYPE_BYTES, uint64(value.length)) */\n      tag_247\n        /* \"@chainlink/contracts/src/v0.8/vendor/solidity-cborutils/v2.0.0/CBOR.sol\":2933:2936  buf */\n      dup3\n        /* \"@chainlink/contracts/src/v0.8/vendor/solidity-cborutils/v2.0.0/CBOR.sol\":948:949  2 */\n      0x02\n        /* \"@chainlink/contracts/src/v0.8/vendor/solidity-cborutils/v2.0.0/CBOR.sol\":2963:2968  value */\n      dup4\n        /* \"@chainlink/contracts/src/v0.8/vendor/solidity-cborutils/v2.0.0/CBOR.sol\":2963:2975  value.length */\n      mload\n        /* \"@chainlink/contracts/src/v0.8/vendor/solidity-cborutils/v2.0.0/CBOR.sol\":2915:2932  writeFixedNumeric */\n      tag_230\n        /* \"@chainlink/contracts/src/v0.8/vendor/solidity-cborutils/v2.0.0/CBOR.sol\":2915:2977  writeFixedNumeric(buf, MAJOR_TYPE_BYTES, uint64(value.length)) */\n      jump\t// in\n    tag_247:\n        /* \"@chainlink/contracts/src/v0.8/vendor/solidity-cborutils/v2.0.0/CBOR.sol\":2987:3008  buf.buf.append(value) */\n      tag_248\n        /* \"@chainlink/contracts/src/v0.8/vendor/solidity-cborutils/v2.0.0/CBOR.sol\":3002:3007  value */\n      dup2\n        /* \"@chainlink/contracts/src/v0.8/vendor/solidity-cborutils/v2.0.0/CBOR.sol\":2987:2990  buf */\n      dup4\n        /* \"@chainlink/contracts/src/v0.8/vendor/solidity-cborutils/v2.0.0/CBOR.sol\":2987:2994  buf.buf */\n      0x00\n      add\n      mload\n        /* \"@chainlink/contracts/src/v0.8/vendor/solidity-cborutils/v2.0.0/CBOR.sol\":2987:3001  buf.buf.append */\n      tag_232\n      swap1\n        /* \"@chainlink/contracts/src/v0.8/vendor/solidity-cborutils/v2.0.0/CBOR.sol\":2987:3008  buf.buf.append(value) */\n      swap2\n      swap1\n      0xffffffff\n      and\n      jump\t// in\n    tag_248:\n      pop\n        /* \"@chainlink/contracts/src/v0.8/vendor/solidity-cborutils/v2.0.0/CBOR.sol\":2828:3015  function writeBytes(CBORBuffer memory buf, bytes memory value) internal pure {... */\n      pop\n      pop\n      jump\t// out\n        /* \"@chainlink/contracts/src/v0.8/vendor/@ensdomains/buffer/v0.1.0/Buffer.sol\":1020:1575  function init(buffer memory buf, uint capacity) internal pure returns(buffer memory) {... */\n    tag_227:\n        /* \"@chainlink/contracts/src/v0.8/vendor/@ensdomains/buffer/v0.1.0/Buffer.sol\":1090:1103  buffer memory */\n      tag_249\n      tag_250\n      jump\t// in\n    tag_249:\n        /* \"@chainlink/contracts/src/v0.8/vendor/@ensdomains/buffer/v0.1.0/Buffer.sol\":1136:1137  0 */\n      0x00\n        /* \"@chainlink/contracts/src/v0.8/vendor/@ensdomains/buffer/v0.1.0/Buffer.sol\":1130:1132  32 */\n      0x20\n        /* \"@chainlink/contracts/src/v0.8/vendor/@ensdomains/buffer/v0.1.0/Buffer.sol\":1119:1127  capacity */\n      dup4\n        /* \"@chainlink/contracts/src/v0.8/vendor/@ensdomains/buffer/v0.1.0/Buffer.sol\":1119:1132  capacity % 32 */\n      tag_252\n      swap2\n      swap1\n      tag_253\n      jump\t// in\n    tag_252:\n        /* \"@chainlink/contracts/src/v0.8/vendor/@ensdomains/buffer/v0.1.0/Buffer.sol\":1119:1137  capacity % 32 != 0 */\n      eq\n        /* \"@chainlink/contracts/src/v0.8/vendor/@ensdomains/buffer/v0.1.0/Buffer.sol\":1115:1196  if (capacity % 32 != 0) {... */\n      tag_254\n      jumpi\n        /* \"@chainlink/contracts/src/v0.8/vendor/@ensdomains/buffer/v0.1.0/Buffer.sol\":1182:1184  32 */\n      0x20\n        /* \"@chainlink/contracts/src/v0.8/vendor/@ensdomains/buffer/v0.1.0/Buffer.sol\":1171:1179  capacity */\n      dup3\n        /* \"@chainlink/contracts/src/v0.8/vendor/@ensdomains/buffer/v0.1.0/Buffer.sol\":1171:1184  capacity % 32 */\n      tag_255\n      swap2\n      swap1\n      tag_253\n      jump\t// in\n    tag_255:\n        /* \"@chainlink/contracts/src/v0.8/vendor/@ensdomains/buffer/v0.1.0/Buffer.sol\":1165:1167  32 */\n      0x20\n        /* \"@chainlink/contracts/src/v0.8/vendor/@ensdomains/buffer/v0.1.0/Buffer.sol\":1165:1185  32 - (capacity % 32) */\n      tag_256\n      swap2\n      swap1\n      tag_97\n      jump\t// in\n    tag_256:\n        /* \"@chainlink/contracts/src/v0.8/vendor/@ensdomains/buffer/v0.1.0/Buffer.sol\":1153:1185  capacity += 32 - (capacity % 32) */\n      dup3\n      tag_257\n      swap2\n      swap1\n      tag_242\n      jump\t// in\n    tag_257:\n      swap2\n      pop\n        /* \"@chainlink/contracts/src/v0.8/vendor/@ensdomains/buffer/v0.1.0/Buffer.sol\":1115:1196  if (capacity % 32 != 0) {... */\n    tag_254:\n        /* \"@chainlink/contracts/src/v0.8/vendor/@ensdomains/buffer/v0.1.0/Buffer.sol\":1266:1274  capacity */\n      dup2\n        /* \"@chainlink/contracts/src/v0.8/vendor/@ensdomains/buffer/v0.1.0/Buffer.sol\":1251:1254  buf */\n      dup4\n        /* \"@chainlink/contracts/src/v0.8/vendor/@ensdomains/buffer/v0.1.0/Buffer.sol\":1251:1263  buf.capacity */\n      0x20\n      add\n        /* \"@chainlink/contracts/src/v0.8/vendor/@ensdomains/buffer/v0.1.0/Buffer.sol\":1251:1274  buf.capacity = capacity */\n      dup2\n      dup2\n      mstore\n      pop\n      pop\n        /* \"@chainlink/contracts/src/v0.8/vendor/@ensdomains/buffer/v0.1.0/Buffer.sol\":1324:1328  0x40 */\n      0x40\n        /* \"@chainlink/contracts/src/v0.8/vendor/@ensdomains/buffer/v0.1.0/Buffer.sol\":1318:1329  mload(0x40) */\n      mload\n        /* \"@chainlink/contracts/src/v0.8/vendor/@ensdomains/buffer/v0.1.0/Buffer.sol\":1354:1357  ptr */\n      dup1\n        /* \"@chainlink/contracts/src/v0.8/vendor/@ensdomains/buffer/v0.1.0/Buffer.sol\":1349:1352  buf */\n      dup5\n        /* \"@chainlink/contracts/src/v0.8/vendor/@ensdomains/buffer/v0.1.0/Buffer.sol\":1342:1358  mstore(buf, ptr) */\n      mstore\n        /* \"@chainlink/contracts/src/v0.8/vendor/@ensdomains/buffer/v0.1.0/Buffer.sol\":1383:1384  0 */\n      0x00\n        /* \"@chainlink/contracts/src/v0.8/vendor/@ensdomains/buffer/v0.1.0/Buffer.sol\":1378:1381  ptr */\n      dup2\n        /* \"@chainlink/contracts/src/v0.8/vendor/@ensdomains/buffer/v0.1.0/Buffer.sol\":1371:1385  mstore(ptr, 0) */\n      mstore\n        /* \"@chainlink/contracts/src/v0.8/vendor/@ensdomains/buffer/v0.1.0/Buffer.sol\":1426:1434  capacity */\n      dup3\n        /* \"@chainlink/contracts/src/v0.8/vendor/@ensdomains/buffer/v0.1.0/Buffer.sol\":1421:1424  ptr */\n      dup2\n        /* \"@chainlink/contracts/src/v0.8/vendor/@ensdomains/buffer/v0.1.0/Buffer.sol\":1417:1435  add(ptr, capacity) */\n      add\n        /* \"@chainlink/contracts/src/v0.8/vendor/@ensdomains/buffer/v0.1.0/Buffer.sol\":1413:1415  32 */\n      0x20\n        /* \"@chainlink/contracts/src/v0.8/vendor/@ensdomains/buffer/v0.1.0/Buffer.sol\":1409:1436  add(32, add(ptr, capacity)) */\n      add\n        /* \"@chainlink/contracts/src/v0.8/vendor/@ensdomains/buffer/v0.1.0/Buffer.sol\":1460:1463  ptr */\n      dup2\n        /* \"@chainlink/contracts/src/v0.8/vendor/@ensdomains/buffer/v0.1.0/Buffer.sol\":1455:1458  fpm */\n      dup2\n        /* \"@chainlink/contracts/src/v0.8/vendor/@ensdomains/buffer/v0.1.0/Buffer.sol\":1452:1464  lt(fpm, ptr) */\n      lt\n        /* \"@chainlink/contracts/src/v0.8/vendor/@ensdomains/buffer/v0.1.0/Buffer.sol\":1449:1509  if lt(fpm, ptr) {... */\n      iszero\n      tag_258\n      jumpi\n        /* \"@chainlink/contracts/src/v0.8/vendor/@ensdomains/buffer/v0.1.0/Buffer.sol\":1493:1494  0 */\n      0x00\n        /* \"@chainlink/contracts/src/v0.8/vendor/@ensdomains/buffer/v0.1.0/Buffer.sol\":1490:1491  0 */\n      dup1\n        /* \"@chainlink/contracts/src/v0.8/vendor/@ensdomains/buffer/v0.1.0/Buffer.sol\":1483:1495  revert(0, 0) */\n      revert\n        /* \"@chainlink/contracts/src/v0.8/vendor/@ensdomains/buffer/v0.1.0/Buffer.sol\":1449:1509  if lt(fpm, ptr) {... */\n    tag_258:\n        /* \"@chainlink/contracts/src/v0.8/vendor/@ensdomains/buffer/v0.1.0/Buffer.sol\":1535:1538  fpm */\n      dup1\n        /* \"@chainlink/contracts/src/v0.8/vendor/@ensdomains/buffer/v0.1.0/Buffer.sol\":1529:1533  0x40 */\n      0x40\n        /* \"@chainlink/contracts/src/v0.8/vendor/@ensdomains/buffer/v0.1.0/Buffer.sol\":1522:1539  mstore(0x40, fpm) */\n      mstore\n        /* \"@chainlink/contracts/src/v0.8/vendor/@ensdomains/buffer/v0.1.0/Buffer.sol\":1293:1549  {... */\n      pop\n      pop\n        /* \"@chainlink/contracts/src/v0.8/vendor/@ensdomains/buffer/v0.1.0/Buffer.sol\":1565:1568  buf */\n      dup3\n        /* \"@chainlink/contracts/src/v0.8/vendor/@ensdomains/buffer/v0.1.0/Buffer.sol\":1558:1568  return buf */\n      swap1\n      pop\n        /* \"@chainlink/contracts/src/v0.8/vendor/@ensdomains/buffer/v0.1.0/Buffer.sol\":1020:1575  function init(buffer memory buf, uint capacity) internal pure returns(buffer memory) {... */\n      swap3\n      swap2\n      pop\n      pop\n      jump\t// out\n        /* \"@chainlink/contracts/src/v0.8/vendor/solidity-cborutils/v2.0.0/CBOR.sol\":6156:6915  function writeFixedNumeric(... */\n    tag_230:\n        /* \"@chainlink/contracts/src/v0.8/vendor/solidity-cborutils/v2.0.0/CBOR.sol\":6299:6301  23 */\n      0x17\n        /* \"@chainlink/contracts/src/v0.8/vendor/solidity-cborutils/v2.0.0/CBOR.sol\":6290:6295  value */\n      dup2\n        /* \"@chainlink/contracts/src/v0.8/vendor/solidity-cborutils/v2.0.0/CBOR.sol\":6290:6301  value <= 23 */\n      0xffffffffffffffff\n      and\n      gt\n        /* \"@chainlink/contracts/src/v0.8/vendor/solidity-cborutils/v2.0.0/CBOR.sol\":6286:6909  if (value <= 23) {... */\n      tag_260\n      jumpi\n        /* \"@chainlink/contracts/src/v0.8/vendor/solidity-cborutils/v2.0.0/CBOR.sol\":6317:6365  buf.buf.appendUint8(uint8((major << 5) | value)) */\n      tag_261\n        /* \"@chainlink/contracts/src/v0.8/vendor/solidity-cborutils/v2.0.0/CBOR.sol\":6358:6363  value */\n      dup2\n        /* \"@chainlink/contracts/src/v0.8/vendor/solidity-cborutils/v2.0.0/CBOR.sol\":6353:6354  5 */\n      0x05\n        /* \"@chainlink/contracts/src/v0.8/vendor/solidity-cborutils/v2.0.0/CBOR.sol\":6344:6349  major */\n      dup5\n        /* \"@chainlink/contracts/src/v0.8/vendor/solidity-cborutils/v2.0.0/CBOR.sol\":6344:6354  major << 5 */\n      0xff\n      and\n      swap1\n      shl\n        /* \"@chainlink/contracts/src/v0.8/vendor/solidity-cborutils/v2.0.0/CBOR.sol\":6343:6363  (major << 5) | value */\n      0xff\n      and\n      or\n        /* \"@chainlink/contracts/src/v0.8/vendor/solidity-cborutils/v2.0.0/CBOR.sol\":6317:6320  buf */\n      dup5\n        /* \"@chainlink/contracts/src/v0.8/vendor/solidity-cborutils/v2.0.0/CBOR.sol\":6317:6324  buf.buf */\n      0x00\n      add\n      mload\n        /* \"@chainlink/contracts/src/v0.8/vendor/solidity-cborutils/v2.0.0/CBOR.sol\":6317:6336  buf.buf.appendUint8 */\n      tag_235\n      swap1\n        /* \"@chainlink/contracts/src/v0.8/vendor/solidity-cborutils/v2.0.0/CBOR.sol\":6317:6365  buf.buf.appendUint8(uint8((major << 5) | value)) */\n      swap2\n      swap1\n      0xffffffff\n      and\n      jump\t// in\n    tag_261:\n      pop\n        /* \"@chainlink/contracts/src/v0.8/vendor/solidity-cborutils/v2.0.0/CBOR.sol\":6286:6909  if (value <= 23) {... */\n      jump(tag_262)\n    tag_260:\n        /* \"@chainlink/contracts/src/v0.8/vendor/solidity-cborutils/v2.0.0/CBOR.sol\":6395:6399  0xFF */\n      0xff\n        /* \"@chainlink/contracts/src/v0.8/vendor/solidity-cborutils/v2.0.0/CBOR.sol\":6386:6391  value */\n      dup2\n        /* \"@chainlink/contracts/src/v0.8/vendor/solidity-cborutils/v2.0.0/CBOR.sol\":6386:6399  value <= 0xFF */\n      0xffffffffffffffff\n      and\n      gt\n        /* \"@chainlink/contracts/src/v0.8/vendor/solidity-cborutils/v2.0.0/CBOR.sol\":6382:6909  if (value <= 0xFF) {... */\n      tag_263\n      jumpi\n        /* \"@chainlink/contracts/src/v0.8/vendor/solidity-cborutils/v2.0.0/CBOR.sol\":6415:6460  buf.buf.appendUint8(uint8((major << 5) | 24)) */\n      tag_264\n        /* \"@chainlink/contracts/src/v0.8/vendor/solidity-cborutils/v2.0.0/CBOR.sol\":6456:6458  24 */\n      0x18\n        /* \"@chainlink/contracts/src/v0.8/vendor/solidity-cborutils/v2.0.0/CBOR.sol\":6451:6452  5 */\n      0x05\n        /* \"@chainlink/contracts/src/v0.8/vendor/solidity-cborutils/v2.0.0/CBOR.sol\":6442:6447  major */\n      dup5\n        /* \"@chainlink/contracts/src/v0.8/vendor/solidity-cborutils/v2.0.0/CBOR.sol\":6442:6452  major << 5 */\n      0xff\n      and\n      swap1\n      shl\n        /* \"@chainlink/contracts/src/v0.8/vendor/solidity-cborutils/v2.0.0/CBOR.sol\":6441:6458  (major << 5) | 24 */\n      or\n        /* \"@chainlink/contracts/src/v0.8/vendor/solidity-cborutils/v2.0.0/CBOR.sol\":6415:6418  buf */\n      dup5\n        /* \"@chainlink/contracts/src/v0.8/vendor/solidity-cborutils/v2.0.0/CBOR.sol\":6415:6422  buf.buf */\n      0x00\n      add\n      mload\n        /* \"@chainlink/contracts/src/v0.8/vendor/solidity-cborutils/v2.0.0/CBOR.sol\":6415:6434  buf.buf.appendUint8 */\n      tag_235\n      swap1\n        /* \"@chainlink/contracts/src/v0.8/vendor/solidity-cborutils/v2.0.0/CBOR.sol\":6415:6460  buf.buf.appendUint8(uint8((major << 5) | 24)) */\n      swap2\n      swap1\n      0xffffffff\n      and\n      jump\t// in\n    tag_264:\n      pop\n        /* \"@chainlink/contracts/src/v0.8/vendor/solidity-cborutils/v2.0.0/CBOR.sol\":6474:6501  buf.buf.appendInt(value, 1) */\n      tag_265\n        /* \"@chainlink/contracts/src/v0.8/vendor/solidity-cborutils/v2.0.0/CBOR.sol\":6492:6497  value */\n      dup2\n        /* \"@chainlink/contracts/src/v0.8/vendor/solidity-cborutils/v2.0.0/CBOR.sol\":6474:6501  buf.buf.appendInt(value, 1) */\n      0xffffffffffffffff\n      and\n        /* \"@chainlink/contracts/src/v0.8/vendor/solidity-cborutils/v2.0.0/CBOR.sol\":6499:6500  1 */\n      0x01\n        /* \"@chainlink/contracts/src/v0.8/vendor/solidity-cborutils/v2.0.0/CBOR.sol\":6474:6477  buf */\n      dup6\n        /* \"@chainlink/contracts/src/v0.8/vendor/solidity-cborutils/v2.0.0/CBOR.sol\":6474:6481  buf.buf */\n      0x00\n      add\n      mload\n        /* \"@chainlink/contracts/src/v0.8/vendor/solidity-cborutils/v2.0.0/CBOR.sol\":6474:6491  buf.buf.appendInt */\n      tag_266\n      swap1\n        /* \"@chainlink/contracts/src/v0.8/vendor/solidity-cborutils/v2.0.0/CBOR.sol\":6474:6501  buf.buf.appendInt(value, 1) */\n      swap3\n      swap2\n      swap1\n      0xffffffff\n      and\n      jump\t// in\n    tag_265:\n      pop\n        /* \"@chainlink/contracts/src/v0.8/vendor/solidity-cborutils/v2.0.0/CBOR.sol\":6382:6909  if (value <= 0xFF) {... */\n      jump(tag_267)\n    tag_263:\n        /* \"@chainlink/contracts/src/v0.8/vendor/solidity-cborutils/v2.0.0/CBOR.sol\":6531:6537  0xFFFF */\n      0xffff\n        /* \"@chainlink/contracts/src/v0.8/vendor/solidity-cborutils/v2.0.0/CBOR.sol\":6522:6527  value */\n      dup2\n        /* \"@chainlink/contracts/src/v0.8/vendor/solidity-cborutils/v2.0.0/CBOR.sol\":6522:6537  value <= 0xFFFF */\n      0xffffffffffffffff\n      and\n      gt\n        /* \"@chainlink/contracts/src/v0.8/vendor/solidity-cborutils/v2.0.0/CBOR.sol\":6518:6909  if (value <= 0xFFFF) {... */\n      tag_268\n      jumpi\n        /* \"@chainlink/contracts/src/v0.8/vendor/solidity-cborutils/v2.0.0/CBOR.sol\":6553:6598  buf.buf.appendUint8(uint8((major << 5) | 25)) */\n      tag_269\n        /* \"@chainlink/contracts/src/v0.8/vendor/solidity-cborutils/v2.0.0/CBOR.sol\":6594:6596  25 */\n      0x19\n        /* \"@chainlink/contracts/src/v0.8/vendor/solidity-cborutils/v2.0.0/CBOR.sol\":6589:6590  5 */\n      0x05\n        /* \"@chainlink/contracts/src/v0.8/vendor/solidity-cborutils/v2.0.0/CBOR.sol\":6580:6585  major */\n      dup5\n        /* \"@chainlink/contracts/src/v0.8/vendor/solidity-cborutils/v2.0.0/CBOR.sol\":6580:6590  major << 5 */\n      0xff\n      and\n      swap1\n      shl\n        /* \"@chainlink/contracts/src/v0.8/vendor/solidity-cborutils/v2.0.0/CBOR.sol\":6579:6596  (major << 5) | 25 */\n      or\n        /* \"@chainlink/contracts/src/v0.8/vendor/solidity-cborutils/v2.0.0/CBOR.sol\":6553:6556  buf */\n      dup5\n        /* \"@chainlink/contracts/src/v0.8/vendor/solidity-cborutils/v2.0.0/CBOR.sol\":6553:6560  buf.buf */\n      0x00\n      add\n      mload\n        /* \"@chainlink/contracts/src/v0.8/vendor/solidity-cborutils/v2.0.0/CBOR.sol\":6553:6572  buf.buf.appendUint8 */\n      tag_235\n      swap1\n        /* \"@chainlink/contracts/src/v0.8/vendor/solidity-cborutils/v2.0.0/CBOR.sol\":6553:6598  buf.buf.appendUint8(uint8((major << 5) | 25)) */\n      swap2\n      swap1\n      0xffffffff\n      and\n      jump\t// in\n    tag_269:\n      pop\n        /* \"@chainlink/contracts/src/v0.8/vendor/solidity-cborutils/v2.0.0/CBOR.sol\":6612:6639  buf.buf.appendInt(value, 2) */\n      tag_270\n        /* \"@chainlink/contracts/src/v0.8/vendor/solidity-cborutils/v2.0.0/CBOR.sol\":6630:6635  value */\n      dup2\n        /* \"@chainlink/contracts/src/v0.8/vendor/solidity-cborutils/v2.0.0/CBOR.sol\":6612:6639  buf.buf.appendInt(value, 2) */\n      0xffffffffffffffff\n      and\n        /* \"@chainlink/contracts/src/v0.8/vendor/solidity-cborutils/v2.0.0/CBOR.sol\":6637:6638  2 */\n      0x02\n        /* \"@chainlink/contracts/src/v0.8/vendor/solidity-cborutils/v2.0.0/CBOR.sol\":6612:6615  buf */\n      dup6\n        /* \"@chainlink/contracts/src/v0.8/vendor/solidity-cborutils/v2.0.0/CBOR.sol\":6612:6619  buf.buf */\n      0x00\n      add\n      mload\n        /* \"@chainlink/contracts/src/v0.8/vendor/solidity-cborutils/v2.0.0/CBOR.sol\":6612:6629  buf.buf.appendInt */\n      tag_266\n      swap1\n        /* \"@chainlink/contracts/src/v0.8/vendor/solidity-cborutils/v2.0.0/CBOR.sol\":6612:6639  buf.buf.appendInt(value, 2) */\n      swap3\n      swap2\n      swap1\n      0xffffffff\n      and\n      jump\t// in\n    tag_270:\n      pop\n        /* \"@chainlink/contracts/src/v0.8/vendor/solidity-cborutils/v2.0.0/CBOR.sol\":6518:6909  if (value <= 0xFFFF) {... */\n      jump(tag_271)\n    tag_268:\n        /* \"@chainlink/contracts/src/v0.8/vendor/solidity-cborutils/v2.0.0/CBOR.sol\":6669:6679  0xFFFFFFFF */\n      0xffffffff\n        /* \"@chainlink/contracts/src/v0.8/vendor/solidity-cborutils/v2.0.0/CBOR.sol\":6660:6665  value */\n      dup2\n        /* \"@chainlink/contracts/src/v0.8/vendor/solidity-cborutils/v2.0.0/CBOR.sol\":6660:6679  value <= 0xFFFFFFFF */\n      0xffffffffffffffff\n      and\n      gt\n        /* \"@chainlink/contracts/src/v0.8/vendor/solidity-cborutils/v2.0.0/CBOR.sol\":6656:6909  if (value <= 0xFFFFFFFF) {... */\n      tag_272\n      jumpi\n        /* \"@chainlink/contracts/src/v0.8/vendor/solidity-cborutils/v2.0.0/CBOR.sol\":6695:6740  buf.buf.appendUint8(uint8((major << 5) | 26)) */\n      tag_273\n        /* \"@chainlink/contracts/src/v0.8/vendor/solidity-cborutils/v2.0.0/CBOR.sol\":6736:6738  26 */\n      0x1a\n        /* \"@chainlink/contracts/src/v0.8/vendor/solidity-cborutils/v2.0.0/CBOR.sol\":6731:6732  5 */\n      0x05\n        /* \"@chainlink/contracts/src/v0.8/vendor/solidity-cborutils/v2.0.0/CBOR.sol\":6722:6727  major */\n      dup5\n        /* \"@chainlink/contracts/src/v0.8/vendor/solidity-cborutils/v2.0.0/CBOR.sol\":6722:6732  major << 5 */\n      0xff\n      and\n      swap1\n      shl\n        /* \"@chainlink/contracts/src/v0.8/vendor/solidity-cborutils/v2.0.0/CBOR.sol\":6721:6738  (major << 5) | 26 */\n      or\n        /* \"@chainlink/contracts/src/v0.8/vendor/solidity-cborutils/v2.0.0/CBOR.sol\":6695:6698  buf */\n      dup5\n        /* \"@chainlink/contracts/src/v0.8/vendor/solidity-cborutils/v2.0.0/CBOR.sol\":6695:6702  buf.buf */\n      0x00\n      add\n      mload\n        /* \"@chainlink/contracts/src/v0.8/vendor/solidity-cborutils/v2.0.0/CBOR.sol\":6695:6714  buf.buf.appendUint8 */\n      tag_235\n      swap1\n        /* \"@chainlink/contracts/src/v0.8/vendor/solidity-cborutils/v2.0.0/CBOR.sol\":6695:6740  buf.buf.appendUint8(uint8((major << 5) | 26)) */\n      swap2\n      swap1\n      0xffffffff\n      and\n      jump\t// in\n    tag_273:\n      pop\n        /* \"@chainlink/contracts/src/v0.8/vendor/solidity-cborutils/v2.0.0/CBOR.sol\":6754:6781  buf.buf.appendInt(value, 4) */\n      tag_274\n        /* \"@chainlink/contracts/src/v0.8/vendor/solidity-cborutils/v2.0.0/CBOR.sol\":6772:6777  value */\n      dup2\n        /* \"@chainlink/contracts/src/v0.8/vendor/solidity-cborutils/v2.0.0/CBOR.sol\":6754:6781  buf.buf.appendInt(value, 4) */\n      0xffffffffffffffff\n      and\n        /* \"@chainlink/contracts/src/v0.8/vendor/solidity-cborutils/v2.0.0/CBOR.sol\":6779:6780  4 */\n      0x04\n        /* \"@chainlink/contracts/src/v0.8/vendor/solidity-cborutils/v2.0.0/CBOR.sol\":6754:6757  buf */\n      dup6\n        /* \"@chainlink/contracts/src/v0.8/vendor/solidity-cborutils/v2.0.0/CBOR.sol\":6754:6761  buf.buf */\n      0x00\n      add\n      mload\n        /* \"@chainlink/contracts/src/v0.8/vendor/solidity-cborutils/v2.0.0/CBOR.sol\":6754:6771  buf.buf.appendInt */\n      tag_266\n      swap1\n        /* \"@chainlink/contracts/src/v0.8/vendor/solidity-cborutils/v2.0.0/CBOR.sol\":6754:6781  buf.buf.appendInt(value, 4) */\n      swap3\n      swap2\n      swap1\n      0xffffffff\n      and\n      jump\t// in\n    tag_274:\n      pop\n        /* \"@chainlink/contracts/src/v0.8/vendor/solidity-cborutils/v2.0.0/CBOR.sol\":6656:6909  if (value <= 0xFFFFFFFF) {... */\n      jump(tag_275)\n    tag_272:\n        /* \"@chainlink/contracts/src/v0.8/vendor/solidity-cborutils/v2.0.0/CBOR.sol\":6812:6857  buf.buf.appendUint8(uint8((major << 5) | 27)) */\n      tag_276\n        /* \"@chainlink/contracts/src/v0.8/vendor/solidity-cborutils/v2.0.0/CBOR.sol\":6853:6855  27 */\n      0x1b\n        /* \"@chainlink/contracts/src/v0.8/vendor/solidity-cborutils/v2.0.0/CBOR.sol\":6848:6849  5 */\n      0x05\n        /* \"@chainlink/contracts/src/v0.8/vendor/solidity-cborutils/v2.0.0/CBOR.sol\":6839:6844  major */\n      dup5\n        /* \"@chainlink/contracts/src/v0.8/vendor/solidity-cborutils/v2.0.0/CBOR.sol\":6839:6849  major << 5 */\n      0xff\n      and\n      swap1\n      shl\n        /* \"@chainlink/contracts/src/v0.8/vendor/solidity-cborutils/v2.0.0/CBOR.sol\":6838:6855  (major << 5) | 27 */\n      or\n        /* \"@chainlink/contracts/src/v0.8/vendor/solidity-cborutils/v2.0.0/CBOR.sol\":6812:6815  buf */\n      dup5\n        /* \"@chainlink/contracts/src/v0.8/vendor/solidity-cborutils/v2.0.0/CBOR.sol\":6812:6819  buf.buf */\n      0x00\n      add\n      mload\n        /* \"@chainlink/contracts/src/v0.8/vendor/solidity-cborutils/v2.0.0/CBOR.sol\":6812:6831  buf.buf.appendUint8 */\n      tag_235\n      swap1\n        /* \"@chainlink/contracts/src/v0.8/vendor/solidity-cborutils/v2.0.0/CBOR.sol\":6812:6857  buf.buf.appendUint8(uint8((major << 5) | 27)) */\n      swap2\n      swap1\n      0xffffffff\n      and\n      jump\t// in\n    tag_276:\n      pop\n        /* \"@chainlink/contracts/src/v0.8/vendor/solidity-cborutils/v2.0.0/CBOR.sol\":6871:6898  buf.buf.appendInt(value, 8) */\n      tag_277\n        /* \"@chainlink/contracts/src/v0.8/vendor/solidity-cborutils/v2.0.0/CBOR.sol\":6889:6894  value */\n      dup2\n        /* \"@chainlink/contracts/src/v0.8/vendor/solidity-cborutils/v2.0.0/CBOR.sol\":6871:6898  buf.buf.appendInt(value, 8) */\n      0xffffffffffffffff\n      and\n        /* \"@chainlink/contracts/src/v0.8/vendor/solidity-cborutils/v2.0.0/CBOR.sol\":6896:6897  8 */\n      0x08\n        /* \"@chainlink/contracts/src/v0.8/vendor/solidity-cborutils/v2.0.0/CBOR.sol\":6871:6874  buf */\n      dup6\n        /* \"@chainlink/contracts/src/v0.8/vendor/solidity-cborutils/v2.0.0/CBOR.sol\":6871:6878  buf.buf */\n      0x00\n      add\n      mload\n        /* \"@chainlink/contracts/src/v0.8/vendor/solidity-cborutils/v2.0.0/CBOR.sol\":6871:6888  buf.buf.appendInt */\n      tag_266\n      swap1\n        /* \"@chainlink/contracts/src/v0.8/vendor/solidity-cborutils/v2.0.0/CBOR.sol\":6871:6898  buf.buf.appendInt(value, 8) */\n      swap3\n      swap2\n      swap1\n      0xffffffff\n      and\n      jump\t// in\n    tag_277:\n      pop\n        /* \"@chainlink/contracts/src/v0.8/vendor/solidity-cborutils/v2.0.0/CBOR.sol\":6656:6909  if (value <= 0xFFFFFFFF) {... */\n    tag_275:\n        /* \"@chainlink/contracts/src/v0.8/vendor/solidity-cborutils/v2.0.0/CBOR.sol\":6518:6909  if (value <= 0xFFFF) {... */\n    tag_271:\n        /* \"@chainlink/contracts/src/v0.8/vendor/solidity-cborutils/v2.0.0/CBOR.sol\":6382:6909  if (value <= 0xFF) {... */\n    tag_267:\n        /* \"@chainlink/contracts/src/v0.8/vendor/solidity-cborutils/v2.0.0/CBOR.sol\":6286:6909  if (value <= 23) {... */\n    tag_262:\n        /* \"@chainlink/contracts/src/v0.8/vendor/solidity-cborutils/v2.0.0/CBOR.sol\":6156:6915  function writeFixedNumeric(... */\n      pop\n      pop\n      pop\n      jump\t// out\n        /* \"@chainlink/contracts/src/v0.8/vendor/@ensdomains/buffer/v0.1.0/Buffer.sol\":4539:4685  function append(buffer memory buf, bytes memory data) internal pure returns (buffer memory) {... */\n    tag_232:\n        /* \"@chainlink/contracts/src/v0.8/vendor/@ensdomains/buffer/v0.1.0/Buffer.sol\":4616:4629  buffer memory */\n      tag_278\n      tag_250\n      jump\t// in\n    tag_278:\n        /* \"@chainlink/contracts/src/v0.8/vendor/@ensdomains/buffer/v0.1.0/Buffer.sol\":4648:4678  append(buf, data, data.length) */\n      tag_280\n        /* \"@chainlink/contracts/src/v0.8/vendor/@ensdomains/buffer/v0.1.0/Buffer.sol\":4655:4658  buf */\n      dup4\n        /* \"@chainlink/contracts/src/v0.8/vendor/@ensdomains/buffer/v0.1.0/Buffer.sol\":4660:4664  data */\n      dup4\n        /* \"@chainlink/contracts/src/v0.8/vendor/@ensdomains/buffer/v0.1.0/Buffer.sol\":4666:4670  data */\n      dup5\n        /* \"@chainlink/contracts/src/v0.8/vendor/@ensdomains/buffer/v0.1.0/Buffer.sol\":4666:4677  data.length */\n      mload\n        /* \"@chainlink/contracts/src/v0.8/vendor/@ensdomains/buffer/v0.1.0/Buffer.sol\":4648:4654  append */\n      tag_281\n        /* \"@chainlink/contracts/src/v0.8/vendor/@ensdomains/buffer/v0.1.0/Buffer.sol\":4648:4678  append(buf, data, data.length) */\n      jump\t// in\n    tag_280:\n        /* \"@chainlink/contracts/src/v0.8/vendor/@ensdomains/buffer/v0.1.0/Buffer.sol\":4641:4678  return append(buf, data, data.length) */\n      swap1\n      pop\n        /* \"@chainlink/contracts/src/v0.8/vendor/@ensdomains/buffer/v0.1.0/Buffer.sol\":4539:4685  function append(buffer memory buf, bytes memory data) internal pure returns (buffer memory) {... */\n      swap3\n      swap2\n      pop\n      pop\n      jump\t// out\n        /* \"@chainlink/contracts/src/v0.8/vendor/@ensdomains/buffer/v0.1.0/Buffer.sol\":4948:5647  function appendUint8(buffer memory buf, uint8 data) internal pure returns(buffer memory) {... */\n    tag_235:\n        /* \"@chainlink/contracts/src/v0.8/vendor/@ensdomains/buffer/v0.1.0/Buffer.sol\":5022:5035  buffer memory */\n      tag_282\n      tag_250\n      jump\t// in\n    tag_282:\n        /* \"@chainlink/contracts/src/v0.8/vendor/@ensdomains/buffer/v0.1.0/Buffer.sol\":5047:5055  uint off */\n      0x00\n        /* \"@chainlink/contracts/src/v0.8/vendor/@ensdomains/buffer/v0.1.0/Buffer.sol\":5058:5061  buf */\n      dup4\n        /* \"@chainlink/contracts/src/v0.8/vendor/@ensdomains/buffer/v0.1.0/Buffer.sol\":5058:5065  buf.buf */\n      0x00\n      add\n      mload\n        /* \"@chainlink/contracts/src/v0.8/vendor/@ensdomains/buffer/v0.1.0/Buffer.sol\":5058:5072  buf.buf.length */\n      mload\n        /* \"@chainlink/contracts/src/v0.8/vendor/@ensdomains/buffer/v0.1.0/Buffer.sol\":5047:5072  uint off = buf.buf.length */\n      swap1\n      pop\n        /* \"@chainlink/contracts/src/v0.8/vendor/@ensdomains/buffer/v0.1.0/Buffer.sol\":5082:5097  uint offPlusOne */\n      0x00\n        /* \"@chainlink/contracts/src/v0.8/vendor/@ensdomains/buffer/v0.1.0/Buffer.sol\":5106:5107  1 */\n      0x01\n        /* \"@chainlink/contracts/src/v0.8/vendor/@ensdomains/buffer/v0.1.0/Buffer.sol\":5100:5103  off */\n      dup3\n        /* \"@chainlink/contracts/src/v0.8/vendor/@ensdomains/buffer/v0.1.0/Buffer.sol\":5100:5107  off + 1 */\n      tag_284\n      swap2\n      swap1\n      tag_242\n      jump\t// in\n    tag_284:\n        /* \"@chainlink/contracts/src/v0.8/vendor/@ensdomains/buffer/v0.1.0/Buffer.sol\":5082:5107  uint offPlusOne = off + 1 */\n      swap1\n      pop\n        /* \"@chainlink/contracts/src/v0.8/vendor/@ensdomains/buffer/v0.1.0/Buffer.sol\":5128:5131  buf */\n      dup5\n        /* \"@chainlink/contracts/src/v0.8/vendor/@ensdomains/buffer/v0.1.0/Buffer.sol\":5128:5140  buf.capacity */\n      0x20\n      add\n      mload\n        /* \"@chainlink/contracts/src/v0.8/vendor/@ensdomains/buffer/v0.1.0/Buffer.sol\":5121:5124  off */\n      dup3\n        /* \"@chainlink/contracts/src/v0.8/vendor/@ensdomains/buffer/v0.1.0/Buffer.sol\":5121:5140  off >= buf.capacity */\n      lt\n        /* \"@chainlink/contracts/src/v0.8/vendor/@ensdomains/buffer/v0.1.0/Buffer.sol\":5117:5194  if (off >= buf.capacity) {... */\n      tag_285\n      jumpi\n        /* \"@chainlink/contracts/src/v0.8/vendor/@ensdomains/buffer/v0.1.0/Buffer.sol\":5156:5183  resize(buf, offPlusOne * 2) */\n      tag_286\n        /* \"@chainlink/contracts/src/v0.8/vendor/@ensdomains/buffer/v0.1.0/Buffer.sol\":5163:5166  buf */\n      dup6\n        /* \"@chainlink/contracts/src/v0.8/vendor/@ensdomains/buffer/v0.1.0/Buffer.sol\":5181:5182  2 */\n      0x02\n        /* \"@chainlink/contracts/src/v0.8/vendor/@ensdomains/buffer/v0.1.0/Buffer.sol\":5168:5178  offPlusOne */\n      dup4\n        /* \"@chainlink/contracts/src/v0.8/vendor/@ensdomains/buffer/v0.1.0/Buffer.sol\":5168:5182  offPlusOne * 2 */\n      tag_287\n      swap2\n      swap1\n      tag_88\n      jump\t// in\n    tag_287:\n        /* \"@chainlink/contracts/src/v0.8/vendor/@ensdomains/buffer/v0.1.0/Buffer.sol\":5156:5162  resize */\n      tag_288\n        /* \"@chainlink/contracts/src/v0.8/vendor/@ensdomains/buffer/v0.1.0/Buffer.sol\":5156:5183  resize(buf, offPlusOne * 2) */\n      jump\t// in\n    tag_286:\n        /* \"@chainlink/contracts/src/v0.8/vendor/@ensdomains/buffer/v0.1.0/Buffer.sol\":5117:5194  if (off >= buf.capacity) {... */\n    tag_285:\n        /* \"@chainlink/contracts/src/v0.8/vendor/@ensdomains/buffer/v0.1.0/Buffer.sol\":5296:5299  buf */\n      dup5\n        /* \"@chainlink/contracts/src/v0.8/vendor/@ensdomains/buffer/v0.1.0/Buffer.sol\":5290:5300  mload(buf) */\n      mload\n        /* \"@chainlink/contracts/src/v0.8/vendor/@ensdomains/buffer/v0.1.0/Buffer.sol\":5417:5419  32 */\n      0x20\n        /* \"@chainlink/contracts/src/v0.8/vendor/@ensdomains/buffer/v0.1.0/Buffer.sol\":5411:5414  off */\n      dup4\n        /* \"@chainlink/contracts/src/v0.8/vendor/@ensdomains/buffer/v0.1.0/Buffer.sol\":5403:5409  bufptr */\n      dup3\n        /* \"@chainlink/contracts/src/v0.8/vendor/@ensdomains/buffer/v0.1.0/Buffer.sol\":5399:5415  add(bufptr, off) */\n      add\n        /* \"@chainlink/contracts/src/v0.8/vendor/@ensdomains/buffer/v0.1.0/Buffer.sol\":5395:5420  add(add(bufptr, off), 32) */\n      add\n        /* \"@chainlink/contracts/src/v0.8/vendor/@ensdomains/buffer/v0.1.0/Buffer.sol\":5447:5451  data */\n      dup6\n        /* \"@chainlink/contracts/src/v0.8/vendor/@ensdomains/buffer/v0.1.0/Buffer.sol\":5441:5445  dest */\n      dup2\n        /* \"@chainlink/contracts/src/v0.8/vendor/@ensdomains/buffer/v0.1.0/Buffer.sol\":5433:5452  mstore8(dest, data) */\n      mstore8\n        /* \"@chainlink/contracts/src/v0.8/vendor/@ensdomains/buffer/v0.1.0/Buffer.sol\":5543:5549  bufptr */\n      dup2\n        /* \"@chainlink/contracts/src/v0.8/vendor/@ensdomains/buffer/v0.1.0/Buffer.sol\":5537:5550  mload(bufptr) */\n      mload\n        /* \"@chainlink/contracts/src/v0.8/vendor/@ensdomains/buffer/v0.1.0/Buffer.sol\":5525:5535  offPlusOne */\n      dup4\n        /* \"@chainlink/contracts/src/v0.8/vendor/@ensdomains/buffer/v0.1.0/Buffer.sol\":5522:5551  gt(offPlusOne, mload(bufptr)) */\n      gt\n        /* \"@chainlink/contracts/src/v0.8/vendor/@ensdomains/buffer/v0.1.0/Buffer.sol\":5519:5610  if gt(offPlusOne, mload(bufptr)) {... */\n      iszero\n      tag_289\n      jumpi\n        /* \"@chainlink/contracts/src/v0.8/vendor/@ensdomains/buffer/v0.1.0/Buffer.sol\":5585:5595  offPlusOne */\n      dup3\n        /* \"@chainlink/contracts/src/v0.8/vendor/@ensdomains/buffer/v0.1.0/Buffer.sol\":5577:5583  bufptr */\n      dup3\n        /* \"@chainlink/contracts/src/v0.8/vendor/@ensdomains/buffer/v0.1.0/Buffer.sol\":5570:5596  mstore(bufptr, offPlusOne) */\n      mstore\n        /* \"@chainlink/contracts/src/v0.8/vendor/@ensdomains/buffer/v0.1.0/Buffer.sol\":5519:5610  if gt(offPlusOne, mload(bufptr)) {... */\n    tag_289:\n        /* \"@chainlink/contracts/src/v0.8/vendor/@ensdomains/buffer/v0.1.0/Buffer.sol\":5213:5620  {... */\n      pop\n      pop\n        /* \"@chainlink/contracts/src/v0.8/vendor/@ensdomains/buffer/v0.1.0/Buffer.sol\":5637:5640  buf */\n      dup5\n        /* \"@chainlink/contracts/src/v0.8/vendor/@ensdomains/buffer/v0.1.0/Buffer.sol\":5630:5640  return buf */\n      swap3\n      pop\n      pop\n      pop\n        /* \"@chainlink/contracts/src/v0.8/vendor/@ensdomains/buffer/v0.1.0/Buffer.sol\":4948:5647  function appendUint8(buffer memory buf, uint8 data) internal pure returns(buffer memory) {... */\n      swap3\n      swap2\n      pop\n      pop\n      jump\t// out\n        /* \"@chainlink/contracts/src/v0.8/vendor/solidity-cborutils/v2.0.0/CBOR.sol\":6921:7087  function writeIndefiniteLengthType(CBORBuffer memory buf, uint8 major)... */\n    tag_240:\n        /* \"@chainlink/contracts/src/v0.8/vendor/solidity-cborutils/v2.0.0/CBOR.sol\":7035:7080  buf.buf.appendUint8(uint8((major << 5) | 31)) */\n      tag_291\n        /* \"@chainlink/contracts/src/v0.8/vendor/solidity-cborutils/v2.0.0/CBOR.sol\":7076:7078  31 */\n      0x1f\n        /* \"@chainlink/contracts/src/v0.8/vendor/solidity-cborutils/v2.0.0/CBOR.sol\":7071:7072  5 */\n      0x05\n        /* \"@chainlink/contracts/src/v0.8/vendor/solidity-cborutils/v2.0.0/CBOR.sol\":7062:7067  major */\n      dup4\n        /* \"@chainlink/contracts/src/v0.8/vendor/solidity-cborutils/v2.0.0/CBOR.sol\":7062:7072  major << 5 */\n      0xff\n      and\n      swap1\n      shl\n        /* \"@chainlink/contracts/src/v0.8/vendor/solidity-cborutils/v2.0.0/CBOR.sol\":7061:7078  (major << 5) | 31 */\n      or\n        /* \"@chainlink/contracts/src/v0.8/vendor/solidity-cborutils/v2.0.0/CBOR.sol\":7035:7038  buf */\n      dup4\n        /* \"@chainlink/contracts/src/v0.8/vendor/solidity-cborutils/v2.0.0/CBOR.sol\":7035:7042  buf.buf */\n      0x00\n      add\n      mload\n        /* \"@chainlink/contracts/src/v0.8/vendor/solidity-cborutils/v2.0.0/CBOR.sol\":7035:7054  buf.buf.appendUint8 */\n      tag_235\n      swap1\n        /* \"@chainlink/contracts/src/v0.8/vendor/solidity-cborutils/v2.0.0/CBOR.sol\":7035:7080  buf.buf.appendUint8(uint8((major << 5) | 31)) */\n      swap2\n      swap1\n      0xffffffff\n      and\n      jump\t// in\n    tag_291:\n      pop\n        /* \"@chainlink/contracts/src/v0.8/vendor/solidity-cborutils/v2.0.0/CBOR.sol\":6921:7087  function writeIndefiniteLengthType(CBORBuffer memory buf, uint8 major)... */\n      pop\n      pop\n      jump\t// out\n        /* \"@chainlink/contracts/src/v0.8/vendor/@ensdomains/buffer/v0.1.0/Buffer.sol\":8083:8878  function appendInt(buffer memory buf, uint data, uint len) internal pure returns(buffer memory) {... */\n    tag_266:\n        /* \"@chainlink/contracts/src/v0.8/vendor/@ensdomains/buffer/v0.1.0/Buffer.sol\":8164:8177  buffer memory */\n      tag_292\n      tag_250\n      jump\t// in\n    tag_292:\n        /* \"@chainlink/contracts/src/v0.8/vendor/@ensdomains/buffer/v0.1.0/Buffer.sol\":8189:8197  uint off */\n      0x00\n        /* \"@chainlink/contracts/src/v0.8/vendor/@ensdomains/buffer/v0.1.0/Buffer.sol\":8200:8203  buf */\n      dup5\n        /* \"@chainlink/contracts/src/v0.8/vendor/@ensdomains/buffer/v0.1.0/Buffer.sol\":8200:8207  buf.buf */\n      0x00\n      add\n      mload\n        /* \"@chainlink/contracts/src/v0.8/vendor/@ensdomains/buffer/v0.1.0/Buffer.sol\":8200:8214  buf.buf.length */\n      mload\n        /* \"@chainlink/contracts/src/v0.8/vendor/@ensdomains/buffer/v0.1.0/Buffer.sol\":8189:8214  uint off = buf.buf.length */\n      swap1\n      pop\n        /* \"@chainlink/contracts/src/v0.8/vendor/@ensdomains/buffer/v0.1.0/Buffer.sol\":8224:8240  uint newCapacity */\n      0x00\n        /* \"@chainlink/contracts/src/v0.8/vendor/@ensdomains/buffer/v0.1.0/Buffer.sol\":8249:8252  off */\n      dup2\n        /* \"@chainlink/contracts/src/v0.8/vendor/@ensdomains/buffer/v0.1.0/Buffer.sol\":8243:8246  len */\n      dup5\n        /* \"@chainlink/contracts/src/v0.8/vendor/@ensdomains/buffer/v0.1.0/Buffer.sol\":8243:8252  len + off */\n      tag_294\n      swap2\n      swap1\n      tag_242\n      jump\t// in\n    tag_294:\n        /* \"@chainlink/contracts/src/v0.8/vendor/@ensdomains/buffer/v0.1.0/Buffer.sol\":8224:8252  uint newCapacity = len + off */\n      swap1\n      pop\n        /* \"@chainlink/contracts/src/v0.8/vendor/@ensdomains/buffer/v0.1.0/Buffer.sol\":8280:8283  buf */\n      dup6\n        /* \"@chainlink/contracts/src/v0.8/vendor/@ensdomains/buffer/v0.1.0/Buffer.sol\":8280:8292  buf.capacity */\n      0x20\n      add\n      mload\n        /* \"@chainlink/contracts/src/v0.8/vendor/@ensdomains/buffer/v0.1.0/Buffer.sol\":8266:8277  newCapacity */\n      dup2\n        /* \"@chainlink/contracts/src/v0.8/vendor/@ensdomains/buffer/v0.1.0/Buffer.sol\":8266:8292  newCapacity > buf.capacity */\n      gt\n        /* \"@chainlink/contracts/src/v0.8/vendor/@ensdomains/buffer/v0.1.0/Buffer.sol\":8262:8347  if (newCapacity > buf.capacity) {... */\n      iszero\n      tag_295\n      jumpi\n        /* \"@chainlink/contracts/src/v0.8/vendor/@ensdomains/buffer/v0.1.0/Buffer.sol\":8308:8336  resize(buf, newCapacity * 2) */\n      tag_296\n        /* \"@chainlink/contracts/src/v0.8/vendor/@ensdomains/buffer/v0.1.0/Buffer.sol\":8315:8318  buf */\n      dup7\n        /* \"@chainlink/contracts/src/v0.8/vendor/@ensdomains/buffer/v0.1.0/Buffer.sol\":8334:8335  2 */\n      0x02\n        /* \"@chainlink/contracts/src/v0.8/vendor/@ensdomains/buffer/v0.1.0/Buffer.sol\":8320:8331  newCapacity */\n      dup4\n        /* \"@chainlink/contracts/src/v0.8/vendor/@ensdomains/buffer/v0.1.0/Buffer.sol\":8320:8335  newCapacity * 2 */\n      tag_297\n      swap2\n      swap1\n      tag_88\n      jump\t// in\n    tag_297:\n        /* \"@chainlink/contracts/src/v0.8/vendor/@ensdomains/buffer/v0.1.0/Buffer.sol\":8308:8314  resize */\n      tag_288\n        /* \"@chainlink/contracts/src/v0.8/vendor/@ensdomains/buffer/v0.1.0/Buffer.sol\":8308:8336  resize(buf, newCapacity * 2) */\n      jump\t// in\n    tag_296:\n        /* \"@chainlink/contracts/src/v0.8/vendor/@ensdomains/buffer/v0.1.0/Buffer.sol\":8262:8347  if (newCapacity > buf.capacity) {... */\n    tag_295:\n        /* \"@chainlink/contracts/src/v0.8/vendor/@ensdomains/buffer/v0.1.0/Buffer.sol\":8357:8366  uint mask */\n      0x00\n        /* \"@chainlink/contracts/src/v0.8/vendor/@ensdomains/buffer/v0.1.0/Buffer.sol\":8384:8385  1 */\n      0x01\n        /* \"@chainlink/contracts/src/v0.8/vendor/@ensdomains/buffer/v0.1.0/Buffer.sol\":8377:8380  len */\n      dup6\n        /* \"@chainlink/contracts/src/v0.8/vendor/@ensdomains/buffer/v0.1.0/Buffer.sol\":8370:8373  256 */\n      0x0100\n        /* \"@chainlink/contracts/src/v0.8/vendor/@ensdomains/buffer/v0.1.0/Buffer.sol\":8370:8380  256 ** len */\n      tag_298\n      swap2\n      swap1\n      tag_299\n      jump\t// in\n    tag_298:\n        /* \"@chainlink/contracts/src/v0.8/vendor/@ensdomains/buffer/v0.1.0/Buffer.sol\":8369:8385  (256 ** len) - 1 */\n      tag_300\n      swap2\n      swap1\n      tag_97\n      jump\t// in\n    tag_300:\n        /* \"@chainlink/contracts/src/v0.8/vendor/@ensdomains/buffer/v0.1.0/Buffer.sol\":8357:8385  uint mask = (256 ** len) - 1 */\n      swap1\n      pop\n        /* \"@chainlink/contracts/src/v0.8/vendor/@ensdomains/buffer/v0.1.0/Buffer.sol\":8487:8490  buf */\n      dup7\n        /* \"@chainlink/contracts/src/v0.8/vendor/@ensdomains/buffer/v0.1.0/Buffer.sol\":8481:8491  mload(buf) */\n      mload\n        /* \"@chainlink/contracts/src/v0.8/vendor/@ensdomains/buffer/v0.1.0/Buffer.sol\":8606:8617  newCapacity */\n      dup3\n        /* \"@chainlink/contracts/src/v0.8/vendor/@ensdomains/buffer/v0.1.0/Buffer.sol\":8598:8604  bufptr */\n      dup2\n        /* \"@chainlink/contracts/src/v0.8/vendor/@ensdomains/buffer/v0.1.0/Buffer.sol\":8594:8618  add(bufptr, newCapacity) */\n      add\n        /* \"@chainlink/contracts/src/v0.8/vendor/@ensdomains/buffer/v0.1.0/Buffer.sol\":8676:8680  data */\n      dup8\n        /* \"@chainlink/contracts/src/v0.8/vendor/@ensdomains/buffer/v0.1.0/Buffer.sol\":8668:8672  mask */\n      dup4\n        /* \"@chainlink/contracts/src/v0.8/vendor/@ensdomains/buffer/v0.1.0/Buffer.sol\":8664:8673  not(mask) */\n      not\n        /* \"@chainlink/contracts/src/v0.8/vendor/@ensdomains/buffer/v0.1.0/Buffer.sol\":8657:8661  dest */\n      dup3\n        /* \"@chainlink/contracts/src/v0.8/vendor/@ensdomains/buffer/v0.1.0/Buffer.sol\":8651:8662  mload(dest) */\n      mload\n        /* \"@chainlink/contracts/src/v0.8/vendor/@ensdomains/buffer/v0.1.0/Buffer.sol\":8647:8674  and(mload(dest), not(mask)) */\n      and\n        /* \"@chainlink/contracts/src/v0.8/vendor/@ensdomains/buffer/v0.1.0/Buffer.sol\":8644:8681  or(and(mload(dest), not(mask)), data) */\n      or\n        /* \"@chainlink/contracts/src/v0.8/vendor/@ensdomains/buffer/v0.1.0/Buffer.sol\":8638:8642  dest */\n      dup2\n        /* \"@chainlink/contracts/src/v0.8/vendor/@ensdomains/buffer/v0.1.0/Buffer.sol\":8631:8682  mstore(dest, or(and(mload(dest), not(mask)), data)) */\n      mstore\n        /* \"@chainlink/contracts/src/v0.8/vendor/@ensdomains/buffer/v0.1.0/Buffer.sol\":8774:8780  bufptr */\n      dup2\n        /* \"@chainlink/contracts/src/v0.8/vendor/@ensdomains/buffer/v0.1.0/Buffer.sol\":8768:8781  mload(bufptr) */\n      mload\n        /* \"@chainlink/contracts/src/v0.8/vendor/@ensdomains/buffer/v0.1.0/Buffer.sol\":8755:8766  newCapacity */\n      dup5\n        /* \"@chainlink/contracts/src/v0.8/vendor/@ensdomains/buffer/v0.1.0/Buffer.sol\":8752:8782  gt(newCapacity, mload(bufptr)) */\n      gt\n        /* \"@chainlink/contracts/src/v0.8/vendor/@ensdomains/buffer/v0.1.0/Buffer.sol\":8749:8842  if gt(newCapacity, mload(bufptr)) {... */\n      iszero\n      tag_301\n      jumpi\n        /* \"@chainlink/contracts/src/v0.8/vendor/@ensdomains/buffer/v0.1.0/Buffer.sol\":8816:8827  newCapacity */\n      dup4\n        /* \"@chainlink/contracts/src/v0.8/vendor/@ensdomains/buffer/v0.1.0/Buffer.sol\":8808:8814  bufptr */\n      dup3\n        /* \"@chainlink/contracts/src/v0.8/vendor/@ensdomains/buffer/v0.1.0/Buffer.sol\":8801:8828  mstore(bufptr, newCapacity) */\n      mstore\n        /* \"@chainlink/contracts/src/v0.8/vendor/@ensdomains/buffer/v0.1.0/Buffer.sol\":8749:8842  if gt(newCapacity, mload(bufptr)) {... */\n    tag_301:\n        /* \"@chainlink/contracts/src/v0.8/vendor/@ensdomains/buffer/v0.1.0/Buffer.sol\":8404:8852  {... */\n      pop\n      pop\n        /* \"@chainlink/contracts/src/v0.8/vendor/@ensdomains/buffer/v0.1.0/Buffer.sol\":8868:8871  buf */\n      dup7\n        /* \"@chainlink/contracts/src/v0.8/vendor/@ensdomains/buffer/v0.1.0/Buffer.sol\":8861:8871  return buf */\n      swap4\n      pop\n      pop\n      pop\n      pop\n        /* \"@chainlink/contracts/src/v0.8/vendor/@ensdomains/buffer/v0.1.0/Buffer.sol\":8083:8878  function appendInt(buffer memory buf, uint data, uint len) internal pure returns(buffer memory) {... */\n      swap4\n      swap3\n      pop\n      pop\n      pop\n      jump\t// out\n        /* \"@chainlink/contracts/src/v0.8/vendor/@ensdomains/buffer/v0.1.0/Buffer.sol\":2844:4271  function append(buffer memory buf, bytes memory data, uint len) internal pure returns(buffer memory) {... */\n    tag_281:\n        /* \"@chainlink/contracts/src/v0.8/vendor/@ensdomains/buffer/v0.1.0/Buffer.sol\":2930:2943  buffer memory */\n      tag_302\n      tag_250\n      jump\t// in\n    tag_302:\n        /* \"@chainlink/contracts/src/v0.8/vendor/@ensdomains/buffer/v0.1.0/Buffer.sol\":2970:2974  data */\n      dup3\n        /* \"@chainlink/contracts/src/v0.8/vendor/@ensdomains/buffer/v0.1.0/Buffer.sol\":2970:2981  data.length */\n      mload\n        /* \"@chainlink/contracts/src/v0.8/vendor/@ensdomains/buffer/v0.1.0/Buffer.sol\":2963:2966  len */\n      dup3\n        /* \"@chainlink/contracts/src/v0.8/vendor/@ensdomains/buffer/v0.1.0/Buffer.sol\":2963:2981  len <= data.length */\n      gt\n      iszero\n        /* \"@chainlink/contracts/src/v0.8/vendor/@ensdomains/buffer/v0.1.0/Buffer.sol\":2955:2982  require(len <= data.length) */\n      tag_304\n      jumpi\n      0x00\n      dup1\n      revert\n    tag_304:\n        /* \"@chainlink/contracts/src/v0.8/vendor/@ensdomains/buffer/v0.1.0/Buffer.sol\":2993:3001  uint off */\n      0x00\n        /* \"@chainlink/contracts/src/v0.8/vendor/@ensdomains/buffer/v0.1.0/Buffer.sol\":3004:3007  buf */\n      dup5\n        /* \"@chainlink/contracts/src/v0.8/vendor/@ensdomains/buffer/v0.1.0/Buffer.sol\":3004:3011  buf.buf */\n      0x00\n      add\n      mload\n        /* \"@chainlink/contracts/src/v0.8/vendor/@ensdomains/buffer/v0.1.0/Buffer.sol\":3004:3018  buf.buf.length */\n      mload\n        /* \"@chainlink/contracts/src/v0.8/vendor/@ensdomains/buffer/v0.1.0/Buffer.sol\":2993:3018  uint off = buf.buf.length */\n      swap1\n      pop\n        /* \"@chainlink/contracts/src/v0.8/vendor/@ensdomains/buffer/v0.1.0/Buffer.sol\":3028:3044  uint newCapacity */\n      0x00\n        /* \"@chainlink/contracts/src/v0.8/vendor/@ensdomains/buffer/v0.1.0/Buffer.sol\":3053:3056  len */\n      dup4\n        /* \"@chainlink/contracts/src/v0.8/vendor/@ensdomains/buffer/v0.1.0/Buffer.sol\":3047:3050  off */\n      dup3\n        /* \"@chainlink/contracts/src/v0.8/vendor/@ensdomains/buffer/v0.1.0/Buffer.sol\":3047:3056  off + len */\n      tag_305\n      swap2\n      swap1\n      tag_242\n      jump\t// in\n    tag_305:\n        /* \"@chainlink/contracts/src/v0.8/vendor/@ensdomains/buffer/v0.1.0/Buffer.sol\":3028:3056  uint newCapacity = off + len */\n      swap1\n      pop\n        /* \"@chainlink/contracts/src/v0.8/vendor/@ensdomains/buffer/v0.1.0/Buffer.sol\":3084:3087  buf */\n      dup6\n        /* \"@chainlink/contracts/src/v0.8/vendor/@ensdomains/buffer/v0.1.0/Buffer.sol\":3084:3096  buf.capacity */\n      0x20\n      add\n      mload\n        /* \"@chainlink/contracts/src/v0.8/vendor/@ensdomains/buffer/v0.1.0/Buffer.sol\":3070:3081  newCapacity */\n      dup2\n        /* \"@chainlink/contracts/src/v0.8/vendor/@ensdomains/buffer/v0.1.0/Buffer.sol\":3070:3096  newCapacity > buf.capacity */\n      gt\n        /* \"@chainlink/contracts/src/v0.8/vendor/@ensdomains/buffer/v0.1.0/Buffer.sol\":3066:3151  if (newCapacity > buf.capacity) {... */\n      iszero\n      tag_306\n      jumpi\n        /* \"@chainlink/contracts/src/v0.8/vendor/@ensdomains/buffer/v0.1.0/Buffer.sol\":3112:3140  resize(buf, newCapacity * 2) */\n      tag_307\n        /* \"@chainlink/contracts/src/v0.8/vendor/@ensdomains/buffer/v0.1.0/Buffer.sol\":3119:3122  buf */\n      dup7\n        /* \"@chainlink/contracts/src/v0.8/vendor/@ensdomains/buffer/v0.1.0/Buffer.sol\":3138:3139  2 */\n      0x02\n        /* \"@chainlink/contracts/src/v0.8/vendor/@ensdomains/buffer/v0.1.0/Buffer.sol\":3124:3135  newCapacity */\n      dup4\n        /* \"@chainlink/contracts/src/v0.8/vendor/@ensdomains/buffer/v0.1.0/Buffer.sol\":3124:3139  newCapacity * 2 */\n      tag_308\n      swap2\n      swap1\n      tag_88\n      jump\t// in\n    tag_308:\n        /* \"@chainlink/contracts/src/v0.8/vendor/@ensdomains/buffer/v0.1.0/Buffer.sol\":3112:3118  resize */\n      tag_288\n        /* \"@chainlink/contracts/src/v0.8/vendor/@ensdomains/buffer/v0.1.0/Buffer.sol\":3112:3140  resize(buf, newCapacity * 2) */\n      jump\t// in\n    tag_307:\n        /* \"@chainlink/contracts/src/v0.8/vendor/@ensdomains/buffer/v0.1.0/Buffer.sol\":3066:3151  if (newCapacity > buf.capacity) {... */\n    tag_306:\n        /* \"@chainlink/contracts/src/v0.8/vendor/@ensdomains/buffer/v0.1.0/Buffer.sol\":3161:3170  uint dest */\n      0x00\n        /* \"@chainlink/contracts/src/v0.8/vendor/@ensdomains/buffer/v0.1.0/Buffer.sol\":3180:3188  uint src */\n      dup1\n        /* \"@chainlink/contracts/src/v0.8/vendor/@ensdomains/buffer/v0.1.0/Buffer.sol\":3290:3293  buf */\n      dup8\n        /* \"@chainlink/contracts/src/v0.8/vendor/@ensdomains/buffer/v0.1.0/Buffer.sol\":3284:3294  mload(buf) */\n      mload\n        /* \"@chainlink/contracts/src/v0.8/vendor/@ensdomains/buffer/v0.1.0/Buffer.sol\":3373:3379  bufptr */\n      dup1\n        /* \"@chainlink/contracts/src/v0.8/vendor/@ensdomains/buffer/v0.1.0/Buffer.sol\":3367:3380  mload(bufptr) */\n      mload\n        /* \"@chainlink/contracts/src/v0.8/vendor/@ensdomains/buffer/v0.1.0/Buffer.sol\":3501:3504  off */\n      dup6\n        /* \"@chainlink/contracts/src/v0.8/vendor/@ensdomains/buffer/v0.1.0/Buffer.sol\":3496:3498  32 */\n      0x20\n        /* \"@chainlink/contracts/src/v0.8/vendor/@ensdomains/buffer/v0.1.0/Buffer.sol\":3488:3494  bufptr */\n      dup4\n        /* \"@chainlink/contracts/src/v0.8/vendor/@ensdomains/buffer/v0.1.0/Buffer.sol\":3484:3499  add(bufptr, 32) */\n      add\n        /* \"@chainlink/contracts/src/v0.8/vendor/@ensdomains/buffer/v0.1.0/Buffer.sol\":3480:3505  add(add(bufptr, 32), off) */\n      add\n        /* \"@chainlink/contracts/src/v0.8/vendor/@ensdomains/buffer/v0.1.0/Buffer.sol\":3472:3505  dest := add(add(bufptr, 32), off) */\n      swap4\n      pop\n        /* \"@chainlink/contracts/src/v0.8/vendor/@ensdomains/buffer/v0.1.0/Buffer.sol\":3595:3601  buflen */\n      dup1\n        /* \"@chainlink/contracts/src/v0.8/vendor/@ensdomains/buffer/v0.1.0/Buffer.sol\":3582:3593  newCapacity */\n      dup6\n        /* \"@chainlink/contracts/src/v0.8/vendor/@ensdomains/buffer/v0.1.0/Buffer.sol\":3579:3602  gt(newCapacity, buflen) */\n      gt\n        /* \"@chainlink/contracts/src/v0.8/vendor/@ensdomains/buffer/v0.1.0/Buffer.sol\":3576:3662  if gt(newCapacity, buflen) {... */\n      iszero\n      tag_309\n      jumpi\n        /* \"@chainlink/contracts/src/v0.8/vendor/@ensdomains/buffer/v0.1.0/Buffer.sol\":3636:3647  newCapacity */\n      dup5\n        /* \"@chainlink/contracts/src/v0.8/vendor/@ensdomains/buffer/v0.1.0/Buffer.sol\":3628:3634  bufptr */\n      dup3\n        /* \"@chainlink/contracts/src/v0.8/vendor/@ensdomains/buffer/v0.1.0/Buffer.sol\":3621:3648  mstore(bufptr, newCapacity) */\n      mstore\n        /* \"@chainlink/contracts/src/v0.8/vendor/@ensdomains/buffer/v0.1.0/Buffer.sol\":3576:3662  if gt(newCapacity, buflen) {... */\n    tag_309:\n        /* \"@chainlink/contracts/src/v0.8/vendor/@ensdomains/buffer/v0.1.0/Buffer.sol\":3692:3694  32 */\n      0x20\n        /* \"@chainlink/contracts/src/v0.8/vendor/@ensdomains/buffer/v0.1.0/Buffer.sol\":3686:3690  data */\n      dup10\n        /* \"@chainlink/contracts/src/v0.8/vendor/@ensdomains/buffer/v0.1.0/Buffer.sol\":3682:3695  add(data, 32) */\n      add\n        /* \"@chainlink/contracts/src/v0.8/vendor/@ensdomains/buffer/v0.1.0/Buffer.sol\":3675:3695  src := add(data, 32) */\n      swap3\n      pop\n        /* \"@chainlink/contracts/src/v0.8/vendor/@ensdomains/buffer/v0.1.0/Buffer.sol\":3207:3705  {... */\n      pop\n      pop\n        /* \"@chainlink/contracts/src/v0.8/vendor/@ensdomains/buffer/v0.1.0/Buffer.sol\":3765:3930  for (; len >= 32; len -= 32) {... */\n    tag_310:\n        /* \"@chainlink/contracts/src/v0.8/vendor/@ensdomains/buffer/v0.1.0/Buffer.sol\":3779:3781  32 */\n      0x20\n        /* \"@chainlink/contracts/src/v0.8/vendor/@ensdomains/buffer/v0.1.0/Buffer.sol\":3772:3775  len */\n      dup7\n        /* \"@chainlink/contracts/src/v0.8/vendor/@ensdomains/buffer/v0.1.0/Buffer.sol\":3772:3781  len >= 32 */\n      lt\n        /* \"@chainlink/contracts/src/v0.8/vendor/@ensdomains/buffer/v0.1.0/Buffer.sol\":3765:3930  for (; len >= 32; len -= 32) {... */\n      tag_311\n      jumpi\n        /* \"@chainlink/contracts/src/v0.8/vendor/@ensdomains/buffer/v0.1.0/Buffer.sol\":3854:3857  src */\n      dup1\n        /* \"@chainlink/contracts/src/v0.8/vendor/@ensdomains/buffer/v0.1.0/Buffer.sol\":3848:3858  mload(src) */\n      mload\n        /* \"@chainlink/contracts/src/v0.8/vendor/@ensdomains/buffer/v0.1.0/Buffer.sol\":3842:3846  dest */\n      dup3\n        /* \"@chainlink/contracts/src/v0.8/vendor/@ensdomains/buffer/v0.1.0/Buffer.sol\":3835:3859  mstore(dest, mload(src)) */\n      mstore\n        /* \"@chainlink/contracts/src/v0.8/vendor/@ensdomains/buffer/v0.1.0/Buffer.sol\":3894:3896  32 */\n      0x20\n        /* \"@chainlink/contracts/src/v0.8/vendor/@ensdomains/buffer/v0.1.0/Buffer.sol\":3886:3896  dest += 32 */\n      dup3\n      tag_313\n      swap2\n      swap1\n      tag_242\n      jump\t// in\n    tag_313:\n      swap2\n      pop\n        /* \"@chainlink/contracts/src/v0.8/vendor/@ensdomains/buffer/v0.1.0/Buffer.sol\":3917:3919  32 */\n      0x20\n        /* \"@chainlink/contracts/src/v0.8/vendor/@ensdomains/buffer/v0.1.0/Buffer.sol\":3910:3919  src += 32 */\n      dup2\n      tag_314\n      swap2\n      swap1\n      tag_242\n      jump\t// in\n    tag_314:\n      swap1\n      pop\n        /* \"@chainlink/contracts/src/v0.8/vendor/@ensdomains/buffer/v0.1.0/Buffer.sol\":3790:3792  32 */\n      0x20\n        /* \"@chainlink/contracts/src/v0.8/vendor/@ensdomains/buffer/v0.1.0/Buffer.sol\":3783:3792  len -= 32 */\n      dup7\n      tag_315\n      swap2\n      swap1\n      tag_97\n      jump\t// in\n    tag_315:\n      swap6\n      pop\n        /* \"@chainlink/contracts/src/v0.8/vendor/@ensdomains/buffer/v0.1.0/Buffer.sol\":3765:3930  for (; len >= 32; len -= 32) {... */\n      jump(tag_310)\n    tag_311:\n        /* \"@chainlink/contracts/src/v0.8/vendor/@ensdomains/buffer/v0.1.0/Buffer.sol\":3996:4005  uint mask */\n      0x00\n        /* \"@chainlink/contracts/src/v0.8/vendor/@ensdomains/buffer/v0.1.0/Buffer.sol\":4030:4031  1 */\n      0x01\n        /* \"@chainlink/contracts/src/v0.8/vendor/@ensdomains/buffer/v0.1.0/Buffer.sol\":4022:4025  len */\n      dup8\n        /* \"@chainlink/contracts/src/v0.8/vendor/@ensdomains/buffer/v0.1.0/Buffer.sol\":4017:4019  32 */\n      0x20\n        /* \"@chainlink/contracts/src/v0.8/vendor/@ensdomains/buffer/v0.1.0/Buffer.sol\":4017:4025  32 - len */\n      sub\n        /* \"@chainlink/contracts/src/v0.8/vendor/@ensdomains/buffer/v0.1.0/Buffer.sol\":4009:4012  256 */\n      0x0100\n        /* \"@chainlink/contracts/src/v0.8/vendor/@ensdomains/buffer/v0.1.0/Buffer.sol\":4009:4026  256 ** (32 - len) */\n      exp\n        /* \"@chainlink/contracts/src/v0.8/vendor/@ensdomains/buffer/v0.1.0/Buffer.sol\":4008:4031  (256 ** (32 - len)) - 1 */\n      sub\n        /* \"@chainlink/contracts/src/v0.8/vendor/@ensdomains/buffer/v0.1.0/Buffer.sol\":3996:4031  uint mask = (256 ** (32 - len)) - 1 */\n      swap1\n      pop\n        /* \"@chainlink/contracts/src/v0.8/vendor/@ensdomains/buffer/v0.1.0/Buffer.sol\":4107:4111  mask */\n      dup1\n        /* \"@chainlink/contracts/src/v0.8/vendor/@ensdomains/buffer/v0.1.0/Buffer.sol\":4103:4112  not(mask) */\n      not\n        /* \"@chainlink/contracts/src/v0.8/vendor/@ensdomains/buffer/v0.1.0/Buffer.sol\":4097:4100  src */\n      dup3\n        /* \"@chainlink/contracts/src/v0.8/vendor/@ensdomains/buffer/v0.1.0/Buffer.sol\":4091:4101  mload(src) */\n      mload\n        /* \"@chainlink/contracts/src/v0.8/vendor/@ensdomains/buffer/v0.1.0/Buffer.sol\":4087:4113  and(mload(src), not(mask)) */\n      and\n        /* \"@chainlink/contracts/src/v0.8/vendor/@ensdomains/buffer/v0.1.0/Buffer.sol\":4163:4167  mask */\n      dup2\n        /* \"@chainlink/contracts/src/v0.8/vendor/@ensdomains/buffer/v0.1.0/Buffer.sol\":4156:4160  dest */\n      dup5\n        /* \"@chainlink/contracts/src/v0.8/vendor/@ensdomains/buffer/v0.1.0/Buffer.sol\":4150:4161  mload(dest) */\n      mload\n        /* \"@chainlink/contracts/src/v0.8/vendor/@ensdomains/buffer/v0.1.0/Buffer.sol\":4146:4168  and(mload(dest), mask) */\n      and\n        /* \"@chainlink/contracts/src/v0.8/vendor/@ensdomains/buffer/v0.1.0/Buffer.sol\":4211:4218  srcpart */\n      dup2\n        /* \"@chainlink/contracts/src/v0.8/vendor/@ensdomains/buffer/v0.1.0/Buffer.sol\":4201:4209  destpart */\n      dup2\n        /* \"@chainlink/contracts/src/v0.8/vendor/@ensdomains/buffer/v0.1.0/Buffer.sol\":4198:4219  or(destpart, srcpart) */\n      or\n        /* \"@chainlink/contracts/src/v0.8/vendor/@ensdomains/buffer/v0.1.0/Buffer.sol\":4192:4196  dest */\n      dup6\n        /* \"@chainlink/contracts/src/v0.8/vendor/@ensdomains/buffer/v0.1.0/Buffer.sol\":4185:4220  mstore(dest, or(destpart, srcpart)) */\n      mstore\n        /* \"@chainlink/contracts/src/v0.8/vendor/@ensdomains/buffer/v0.1.0/Buffer.sol\":4054:4234  {... */\n      pop\n      pop\n      pop\n        /* \"@chainlink/contracts/src/v0.8/vendor/@ensdomains/buffer/v0.1.0/Buffer.sol\":4261:4264  buf */\n      dup8\n        /* \"@chainlink/contracts/src/v0.8/vendor/@ensdomains/buffer/v0.1.0/Buffer.sol\":4254:4264  return buf */\n      swap5\n      pop\n      pop\n      pop\n      pop\n      pop\n        /* \"@chainlink/contracts/src/v0.8/vendor/@ensdomains/buffer/v0.1.0/Buffer.sol\":2844:4271  function append(buffer memory buf, bytes memory data, uint len) internal pure returns(buffer memory) {... */\n      swap4\n      swap3\n      pop\n      pop\n      pop\n      jump\t// out\n        /* \"@chainlink/contracts/src/v0.8/vendor/@ensdomains/buffer/v0.1.0/Buffer.sol\":2004:2171  function resize(buffer memory buf, uint capacity) private pure {... */\n    tag_288:\n        /* \"@chainlink/contracts/src/v0.8/vendor/@ensdomains/buffer/v0.1.0/Buffer.sol\":2077:2096  bytes memory oldbuf */\n      0x00\n        /* \"@chainlink/contracts/src/v0.8/vendor/@ensdomains/buffer/v0.1.0/Buffer.sol\":2099:2102  buf */\n      dup3\n        /* \"@chainlink/contracts/src/v0.8/vendor/@ensdomains/buffer/v0.1.0/Buffer.sol\":2099:2106  buf.buf */\n      0x00\n      add\n      mload\n        /* \"@chainlink/contracts/src/v0.8/vendor/@ensdomains/buffer/v0.1.0/Buffer.sol\":2077:2106  bytes memory oldbuf = buf.buf */\n      swap1\n      pop\n        /* \"@chainlink/contracts/src/v0.8/vendor/@ensdomains/buffer/v0.1.0/Buffer.sol\":2116:2135  init(buf, capacity) */\n      tag_317\n        /* \"@chainlink/contracts/src/v0.8/vendor/@ensdomains/buffer/v0.1.0/Buffer.sol\":2121:2124  buf */\n      dup4\n        /* \"@chainlink/contracts/src/v0.8/vendor/@ensdomains/buffer/v0.1.0/Buffer.sol\":2126:2134  capacity */\n      dup4\n        /* \"@chainlink/contracts/src/v0.8/vendor/@ensdomains/buffer/v0.1.0/Buffer.sol\":2116:2120  init */\n      tag_227\n        /* \"@chainlink/contracts/src/v0.8/vendor/@ensdomains/buffer/v0.1.0/Buffer.sol\":2116:2135  init(buf, capacity) */\n      jump\t// in\n    tag_317:\n      pop\n        /* \"@chainlink/contracts/src/v0.8/vendor/@ensdomains/buffer/v0.1.0/Buffer.sol\":2145:2164  append(buf, oldbuf) */\n      tag_318\n        /* \"@chainlink/contracts/src/v0.8/vendor/@ensdomains/buffer/v0.1.0/Buffer.sol\":2152:2155  buf */\n      dup4\n        /* \"@chainlink/contracts/src/v0.8/vendor/@ensdomains/buffer/v0.1.0/Buffer.sol\":2157:2163  oldbuf */\n      dup3\n        /* \"@chainlink/contracts/src/v0.8/vendor/@ensdomains/buffer/v0.1.0/Buffer.sol\":2145:2151  append */\n      tag_232\n        /* \"@chainlink/contracts/src/v0.8/vendor/@ensdomains/buffer/v0.1.0/Buffer.sol\":2145:2164  append(buf, oldbuf) */\n      jump\t// in\n    tag_318:\n      pop\n        /* \"@chainlink/contracts/src/v0.8/vendor/@ensdomains/buffer/v0.1.0/Buffer.sol\":2067:2171  {... */\n      pop\n        /* \"@chainlink/contracts/src/v0.8/vendor/@ensdomains/buffer/v0.1.0/Buffer.sol\":2004:2171  function resize(buffer memory buf, uint capacity) private pure {... */\n      pop\n      pop\n      jump\t// out\n    tag_110:\n      mload(0x40)\n      dup1\n      0xe0\n      add\n      0x40\n      mstore\n      dup1\n      0x00\n      0x02\n      dup2\n      gt\n      iszero\n      tag_319\n      jumpi\n      tag_320\n      tag_155\n      jump\t// in\n    tag_320:\n    tag_319:\n      dup2\n      mstore\n      0x20\n      add\n      0x00\n      0x02\n      dup2\n      gt\n      iszero\n      tag_321\n      jumpi\n      tag_322\n      tag_155\n      jump\t// in\n    tag_322:\n    tag_321:\n      dup2\n      mstore\n      0x20\n      add\n      0x00\n      dup1\n      dup2\n      gt\n      iszero\n      tag_323\n      jumpi\n      tag_324\n      tag_155\n      jump\t// in\n    tag_324:\n    tag_323:\n      dup2\n      mstore\n      0x20\n      add\n      0x60\n      dup2\n      mstore\n      0x20\n      add\n      0x60\n      dup2\n      mstore\n      0x20\n      add\n      0x60\n      dup2\n      mstore\n      0x20\n      add\n      0x60\n      dup2\n      mstore\n      pop\n      swap1\n      jump\t// out\n    tag_224:\n      mload(0x40)\n      dup1\n      0x40\n      add\n      0x40\n      mstore\n      dup1\n      tag_325\n      tag_250\n      jump\t// in\n    tag_325:\n      dup2\n      mstore\n      0x20\n      add\n      0x00\n      dup2\n      mstore\n      pop\n      swap1\n      jump\t// out\n    tag_250:\n      mload(0x40)\n      dup1\n      0x40\n      add\n      0x40\n      mstore\n      dup1\n      0x60\n      dup2\n      mstore\n      0x20\n      add\n      0x00\n      dup2\n      mstore\n      pop\n      swap1\n      jump\t// out\n        /* \"#utility.yul\":7:82   */\n    tag_326:\n        /* \"#utility.yul\":40:46   */\n      0x00\n        /* \"#utility.yul\":73:75   */\n      0x40\n        /* \"#utility.yul\":67:76   */\n      mload\n        /* \"#utility.yul\":57:76   */\n      swap1\n      pop\n        /* \"#utility.yul\":7:82   */\n      swap1\n      jump\t// out\n        /* \"#utility.yul\":88:205   */\n    tag_327:\n        /* \"#utility.yul\":197:198   */\n      0x00\n        /* \"#utility.yul\":194:195   */\n      dup1\n        /* \"#utility.yul\":187:199   */\n      revert\n        /* \"#utility.yul\":211:328   */\n    tag_328:\n        /* \"#utility.yul\":320:321   */\n      0x00\n        /* \"#utility.yul\":317:318   */\n      dup1\n        /* \"#utility.yul\":310:322   */\n      revert\n        /* \"#utility.yul\":334:411   */\n    tag_329:\n        /* \"#utility.yul\":371:378   */\n      0x00\n        /* \"#utility.yul\":400:405   */\n      dup2\n        /* \"#utility.yul\":389:405   */\n      swap1\n      pop\n        /* \"#utility.yul\":334:411   */\n      swap2\n      swap1\n      pop\n      jump\t// out\n        /* \"#utility.yul\":417:539   */\n    tag_330:\n        /* \"#utility.yul\":490:514   */\n      tag_391\n        /* \"#utility.yul\":508:513   */\n      dup2\n        /* \"#utility.yul\":490:514   */\n      tag_329\n      jump\t// in\n    tag_391:\n        /* \"#utility.yul\":483:488   */\n      dup2\n        /* \"#utility.yul\":480:515   */\n      eq\n        /* \"#utility.yul\":470:533   */\n      tag_392\n      jumpi\n        /* \"#utility.yul\":529:530   */\n      0x00\n        /* \"#utility.yul\":526:527   */\n      dup1\n        /* \"#utility.yul\":519:531   */\n      revert\n        /* \"#utility.yul\":470:533   */\n    tag_392:\n        /* \"#utility.yul\":417:539   */\n      pop\n      jump\t// out\n        /* \"#utility.yul\":545:684   */\n    tag_331:\n        /* \"#utility.yul\":591:596   */\n      0x00\n        /* \"#utility.yul\":629:635   */\n      dup2\n        /* \"#utility.yul\":616:636   */\n      calldataload\n        /* \"#utility.yul\":607:636   */\n      swap1\n      pop\n        /* \"#utility.yul\":645:678   */\n      tag_394\n        /* \"#utility.yul\":672:677   */\n      dup2\n        /* \"#utility.yul\":645:678   */\n      tag_330\n      jump\t// in\n    tag_394:\n        /* \"#utility.yul\":545:684   */\n      swap3\n      swap2\n      pop\n      pop\n      jump\t// out\n        /* \"#utility.yul\":690:1019   */\n    tag_24:\n        /* \"#utility.yul\":749:755   */\n      0x00\n        /* \"#utility.yul\":798:800   */\n      0x20\n        /* \"#utility.yul\":786:795   */\n      dup3\n        /* \"#utility.yul\":777:784   */\n      dup5\n        /* \"#utility.yul\":773:796   */\n      sub\n        /* \"#utility.yul\":769:801   */\n      slt\n        /* \"#utility.yul\":766:885   */\n      iszero\n      tag_396\n      jumpi\n        /* \"#utility.yul\":804:883   */\n      tag_397\n      tag_327\n      jump\t// in\n    tag_397:\n        /* \"#utility.yul\":766:885   */\n    tag_396:\n        /* \"#utility.yul\":924:925   */\n      0x00\n        /* \"#utility.yul\":949:1002   */\n      tag_398\n        /* \"#utility.yul\":994:1001   */\n      dup5\n        /* \"#utility.yul\":985:991   */\n      dup3\n        /* \"#utility.yul\":974:983   */\n      dup6\n        /* \"#utility.yul\":970:992   */\n      add\n        /* \"#utility.yul\":949:1002   */\n      tag_331\n      jump\t// in\n    tag_398:\n        /* \"#utility.yul\":939:1002   */\n      swap2\n      pop\n        /* \"#utility.yul\":895:1012   */\n      pop\n        /* \"#utility.yul\":690:1019   */\n      swap3\n      swap2\n      pop\n      pop\n      jump\t// out\n        /* \"#utility.yul\":1025:1126   */\n    tag_332:\n        /* \"#utility.yul\":1061:1068   */\n      0x00\n        /* \"#utility.yul\":1101:1119   */\n      0xffffffffffffffff\n        /* \"#utility.yul\":1094:1099   */\n      dup3\n        /* \"#utility.yul\":1090:1120   */\n      and\n        /* \"#utility.yul\":1079:1120   */\n      swap1\n      pop\n        /* \"#utility.yul\":1025:1126   */\n      swap2\n      swap1\n      pop\n      jump\t// out\n        /* \"#utility.yul\":1132:1247   */\n    tag_333:\n        /* \"#utility.yul\":1217:1240   */\n      tag_401\n        /* \"#utility.yul\":1234:1239   */\n      dup2\n        /* \"#utility.yul\":1217:1240   */\n      tag_332\n      jump\t// in\n    tag_401:\n        /* \"#utility.yul\":1212:1215   */\n      dup3\n        /* \"#utility.yul\":1205:1241   */\n      mstore\n        /* \"#utility.yul\":1132:1247   */\n      pop\n      pop\n      jump\t// out\n        /* \"#utility.yul\":1253:1471   */\n    tag_29:\n        /* \"#utility.yul\":1344:1348   */\n      0x00\n        /* \"#utility.yul\":1382:1384   */\n      0x20\n        /* \"#utility.yul\":1371:1380   */\n      dup3\n        /* \"#utility.yul\":1367:1385   */\n      add\n        /* \"#utility.yul\":1359:1385   */\n      swap1\n      pop\n        /* \"#utility.yul\":1395:1464   */\n      tag_403\n        /* \"#utility.yul\":1461:1462   */\n      0x00\n        /* \"#utility.yul\":1450:1459   */\n      dup4\n        /* \"#utility.yul\":1446:1463   */\n      add\n        /* \"#utility.yul\":1437:1443   */\n      dup5\n        /* \"#utility.yul\":1395:1464   */\n      tag_333\n      jump\t// in\n    tag_403:\n        /* \"#utility.yul\":1253:1471   */\n      swap3\n      swap2\n      pop\n      pop\n      jump\t// out\n        /* \"#utility.yul\":1477:1554   */\n    tag_334:\n        /* \"#utility.yul\":1514:1521   */\n      0x00\n        /* \"#utility.yul\":1543:1548   */\n      dup2\n        /* \"#utility.yul\":1532:1548   */\n      swap1\n      pop\n        /* \"#utility.yul\":1477:1554   */\n      swap2\n      swap1\n      pop\n      jump\t// out\n        /* \"#utility.yul\":1560:1682   */\n    tag_335:\n        /* \"#utility.yul\":1633:1657   */\n      tag_406\n        /* \"#utility.yul\":1651:1656   */\n      dup2\n        /* \"#utility.yul\":1633:1657   */\n      tag_334\n      jump\t// in\n    tag_406:\n        /* \"#utility.yul\":1626:1631   */\n      dup2\n        /* \"#utility.yul\":1623:1658   */\n      eq\n        /* \"#utility.yul\":1613:1676   */\n      tag_407\n      jumpi\n        /* \"#utility.yul\":1672:1673   */\n      0x00\n        /* \"#utility.yul\":1669:1670   */\n      dup1\n        /* \"#utility.yul\":1662:1674   */\n      revert\n        /* \"#utility.yul\":1613:1676   */\n    tag_407:\n        /* \"#utility.yul\":1560:1682   */\n      pop\n      jump\t// out\n        /* \"#utility.yul\":1688:1827   */\n    tag_336:\n        /* \"#utility.yul\":1734:1739   */\n      0x00\n        /* \"#utility.yul\":1772:1778   */\n      dup2\n        /* \"#utility.yul\":1759:1779   */\n      calldataload\n        /* \"#utility.yul\":1750:1779   */\n      swap1\n      pop\n        /* \"#utility.yul\":1788:1821   */\n      tag_409\n        /* \"#utility.yul\":1815:1820   */\n      dup2\n        /* \"#utility.yul\":1788:1821   */\n      tag_335\n      jump\t// in\n    tag_409:\n        /* \"#utility.yul\":1688:1827   */\n      swap3\n      swap2\n      pop\n      pop\n      jump\t// out\n        /* \"#utility.yul\":1833:1950   */\n    tag_337:\n        /* \"#utility.yul\":1942:1943   */\n      0x00\n        /* \"#utility.yul\":1939:1940   */\n      dup1\n        /* \"#utility.yul\":1932:1944   */\n      revert\n        /* \"#utility.yul\":1956:2073   */\n    tag_338:\n        /* \"#utility.yul\":2065:2066   */\n      0x00\n        /* \"#utility.yul\":2062:2063   */\n      dup1\n        /* \"#utility.yul\":2055:2067   */\n      revert\n        /* \"#utility.yul\":2079:2181   */\n    tag_339:\n        /* \"#utility.yul\":2120:2126   */\n      0x00\n        /* \"#utility.yul\":2171:2173   */\n      0x1f\n        /* \"#utility.yul\":2167:2174   */\n      not\n        /* \"#utility.yul\":2162:2164   */\n      0x1f\n        /* \"#utility.yul\":2155:2160   */\n      dup4\n        /* \"#utility.yul\":2151:2165   */\n      add\n        /* \"#utility.yul\":2147:2175   */\n      and\n        /* \"#utility.yul\":2137:2175   */\n      swap1\n      pop\n        /* \"#utility.yul\":2079:2181   */\n      swap2\n      swap1\n      pop\n      jump\t// out\n        /* \"#utility.yul\":2187:2367   */\n    tag_340:\n        /* \"#utility.yul\":2235:2312   */\n      0x4e487b7100000000000000000000000000000000000000000000000000000000\n        /* \"#utility.yul\":2232:2233   */\n      0x00\n        /* \"#utility.yul\":2225:2313   */\n      mstore\n        /* \"#utility.yul\":2332:2336   */\n      0x41\n        /* \"#utility.yul\":2329:2330   */\n      0x04\n        /* \"#utility.yul\":2322:2337   */\n      mstore\n        /* \"#utility.yul\":2356:2360   */\n      0x24\n        /* \"#utility.yul\":2353:2354   */\n      0x00\n        /* \"#utility.yul\":2346:2361   */\n      revert\n        /* \"#utility.yul\":2373:2654   */\n    tag_341:\n        /* \"#utility.yul\":2456:2483   */\n      tag_415\n        /* \"#utility.yul\":2478:2482   */\n      dup3\n        /* \"#utility.yul\":2456:2483   */\n      tag_339\n      jump\t// in\n    tag_415:\n        /* \"#utility.yul\":2448:2454   */\n      dup2\n        /* \"#utility.yul\":2444:2484   */\n      add\n        /* \"#utility.yul\":2586:2592   */\n      dup2\n        /* \"#utility.yul\":2574:2584   */\n      dup2\n        /* \"#utility.yul\":2571:2593   */\n      lt\n        /* \"#utility.yul\":2550:2568   */\n      0xffffffffffffffff\n        /* \"#utility.yul\":2538:2548   */\n      dup3\n        /* \"#utility.yul\":2535:2569   */\n      gt\n        /* \"#utility.yul\":2532:2594   */\n      or\n        /* \"#utility.yul\":2529:2617   */\n      iszero\n      tag_416\n      jumpi\n        /* \"#utility.yul\":2597:2615   */\n      tag_417\n      tag_340\n      jump\t// in\n    tag_417:\n        /* \"#utility.yul\":2529:2617   */\n    tag_416:\n        /* \"#utility.yul\":2637:2647   */\n      dup1\n        /* \"#utility.yul\":2633:2635   */\n      0x40\n        /* \"#utility.yul\":2626:2648   */\n      mstore\n        /* \"#utility.yul\":2416:2654   */\n      pop\n        /* \"#utility.yul\":2373:2654   */\n      pop\n      pop\n      jump\t// out\n        /* \"#utility.yul\":2660:2789   */\n    tag_342:\n        /* \"#utility.yul\":2694:2700   */\n      0x00\n        /* \"#utility.yul\":2721:2741   */\n      tag_419\n      tag_326\n      jump\t// in\n    tag_419:\n        /* \"#utility.yul\":2711:2741   */\n      swap1\n      pop\n        /* \"#utility.yul\":2750:2783   */\n      tag_420\n        /* \"#utility.yul\":2778:2782   */\n      dup3\n        /* \"#utility.yul\":2770:2776   */\n      dup3\n        /* \"#utility.yul\":2750:2783   */\n      tag_341\n      jump\t// in\n    tag_420:\n        /* \"#utility.yul\":2660:2789   */\n      swap2\n      swap1\n      pop\n      jump\t// out\n        /* \"#utility.yul\":2795:3102   */\n    tag_343:\n        /* \"#utility.yul\":2856:2860   */\n      0x00\n        /* \"#utility.yul\":2946:2964   */\n      0xffffffffffffffff\n        /* \"#utility.yul\":2938:2944   */\n      dup3\n        /* \"#utility.yul\":2935:2965   */\n      gt\n        /* \"#utility.yul\":2932:2988   */\n      iszero\n      tag_422\n      jumpi\n        /* \"#utility.yul\":2968:2986   */\n      tag_423\n      tag_340\n      jump\t// in\n    tag_423:\n        /* \"#utility.yul\":2932:2988   */\n    tag_422:\n        /* \"#utility.yul\":3006:3035   */\n      tag_424\n        /* \"#utility.yul\":3028:3034   */\n      dup3\n        /* \"#utility.yul\":3006:3035   */\n      tag_339\n      jump\t// in\n    tag_424:\n        /* \"#utility.yul\":2998:3035   */\n      swap1\n      pop\n        /* \"#utility.yul\":3090:3094   */\n      0x20\n        /* \"#utility.yul\":3084:3088   */\n      dup2\n        /* \"#utility.yul\":3080:3095   */\n      add\n        /* \"#utility.yul\":3072:3095   */\n      swap1\n      pop\n        /* \"#utility.yul\":2795:3102   */\n      swap2\n      swap1\n      pop\n      jump\t// out\n        /* \"#utility.yul\":3108:3254   */\n    tag_344:\n        /* \"#utility.yul\":3205:3211   */\n      dup3\n        /* \"#utility.yul\":3200:3203   */\n      dup2\n        /* \"#utility.yul\":3195:3198   */\n      dup4\n        /* \"#utility.yul\":3182:3212   */\n      calldatacopy\n        /* \"#utility.yul\":3246:3247   */\n      0x00\n        /* \"#utility.yul\":3237:3243   */\n      dup4\n        /* \"#utility.yul\":3232:3235   */\n      dup4\n        /* \"#utility.yul\":3228:3244   */\n      add\n        /* \"#utility.yul\":3221:3248   */\n      mstore\n        /* \"#utility.yul\":3108:3254   */\n      pop\n      pop\n      pop\n      jump\t// out\n        /* \"#utility.yul\":3260:3683   */\n    tag_345:\n        /* \"#utility.yul\":3337:3342   */\n      0x00\n        /* \"#utility.yul\":3362:3427   */\n      tag_427\n        /* \"#utility.yul\":3378:3426   */\n      tag_428\n        /* \"#utility.yul\":3419:3425   */\n      dup5\n        /* \"#utility.yul\":3378:3426   */\n      tag_343\n      jump\t// in\n    tag_428:\n        /* \"#utility.yul\":3362:3427   */\n      tag_342\n      jump\t// in\n    tag_427:\n        /* \"#utility.yul\":3353:3427   */\n      swap1\n      pop\n        /* \"#utility.yul\":3450:3456   */\n      dup3\n        /* \"#utility.yul\":3443:3448   */\n      dup2\n        /* \"#utility.yul\":3436:3457   */\n      mstore\n        /* \"#utility.yul\":3488:3492   */\n      0x20\n        /* \"#utility.yul\":3481:3486   */\n      dup2\n        /* \"#utility.yul\":3477:3493   */\n      add\n        /* \"#utility.yul\":3526:3529   */\n      dup5\n        /* \"#utility.yul\":3517:3523   */\n      dup5\n        /* \"#utility.yul\":3512:3515   */\n      dup5\n        /* \"#utility.yul\":3508:3524   */\n      add\n        /* \"#utility.yul\":3505:3530   */\n      gt\n        /* \"#utility.yul\":3502:3614   */\n      iszero\n      tag_429\n      jumpi\n        /* \"#utility.yul\":3533:3612   */\n      tag_430\n      tag_338\n      jump\t// in\n    tag_430:\n        /* \"#utility.yul\":3502:3614   */\n    tag_429:\n        /* \"#utility.yul\":3623:3677   */\n      tag_431\n        /* \"#utility.yul\":3670:3676   */\n      dup5\n        /* \"#utility.yul\":3665:3668   */\n      dup3\n        /* \"#utility.yul\":3660:3663   */\n      dup6\n        /* \"#utility.yul\":3623:3677   */\n      tag_344\n      jump\t// in\n    tag_431:\n        /* \"#utility.yul\":3343:3683   */\n      pop\n        /* \"#utility.yul\":3260:3683   */\n      swap4\n      swap3\n      pop\n      pop\n      pop\n      jump\t// out\n        /* \"#utility.yul\":3702:4040   */\n    tag_346:\n        /* \"#utility.yul\":3757:3762   */\n      0x00\n        /* \"#utility.yul\":3806:3809   */\n      dup3\n        /* \"#utility.yul\":3799:3803   */\n      0x1f\n        /* \"#utility.yul\":3791:3797   */\n      dup4\n        /* \"#utility.yul\":3787:3804   */\n      add\n        /* \"#utility.yul\":3783:3810   */\n      slt\n        /* \"#utility.yul\":3773:3895   */\n      tag_433\n      jumpi\n        /* \"#utility.yul\":3814:3893   */\n      tag_434\n      tag_337\n      jump\t// in\n    tag_434:\n        /* \"#utility.yul\":3773:3895   */\n    tag_433:\n        /* \"#utility.yul\":3931:3937   */\n      dup2\n        /* \"#utility.yul\":3918:3938   */\n      calldataload\n        /* \"#utility.yul\":3956:4034   */\n      tag_435\n        /* \"#utility.yul\":4030:4033   */\n      dup5\n        /* \"#utility.yul\":4022:4028   */\n      dup3\n        /* \"#utility.yul\":4015:4019   */\n      0x20\n        /* \"#utility.yul\":4007:4013   */\n      dup7\n        /* \"#utility.yul\":4003:4020   */\n      add\n        /* \"#utility.yul\":3956:4034   */\n      tag_345\n      jump\t// in\n    tag_435:\n        /* \"#utility.yul\":3947:4034   */\n      swap2\n      pop\n        /* \"#utility.yul\":3763:4040   */\n      pop\n        /* \"#utility.yul\":3702:4040   */\n      swap3\n      swap2\n      pop\n      pop\n      jump\t// out\n        /* \"#utility.yul\":4046:5021   */\n    tag_32:\n        /* \"#utility.yul\":4141:4147   */\n      0x00\n        /* \"#utility.yul\":4149:4155   */\n      dup1\n        /* \"#utility.yul\":4157:4163   */\n      0x00\n        /* \"#utility.yul\":4206:4208   */\n      0x60\n        /* \"#utility.yul\":4194:4203   */\n      dup5\n        /* \"#utility.yul\":4185:4192   */\n      dup7\n        /* \"#utility.yul\":4181:4204   */\n      sub\n        /* \"#utility.yul\":4177:4209   */\n      slt\n        /* \"#utility.yul\":4174:4293   */\n      iszero\n      tag_437\n      jumpi\n        /* \"#utility.yul\":4212:4291   */\n      tag_438\n      tag_327\n      jump\t// in\n    tag_438:\n        /* \"#utility.yul\":4174:4293   */\n    tag_437:\n        /* \"#utility.yul\":4332:4333   */\n      0x00\n        /* \"#utility.yul\":4357:4410   */\n      tag_439\n        /* \"#utility.yul\":4402:4409   */\n      dup7\n        /* \"#utility.yul\":4393:4399   */\n      dup3\n        /* \"#utility.yul\":4382:4391   */\n      dup8\n        /* \"#utility.yul\":4378:4400   */\n      add\n        /* \"#utility.yul\":4357:4410   */\n      tag_336\n      jump\t// in\n    tag_439:\n        /* \"#utility.yul\":4347:4410   */\n      swap4\n      pop\n        /* \"#utility.yul\":4303:4420   */\n      pop\n        /* \"#utility.yul\":4487:4489   */\n      0x20\n        /* \"#utility.yul\":4476:4485   */\n      dup5\n        /* \"#utility.yul\":4472:4490   */\n      add\n        /* \"#utility.yul\":4459:4491   */\n      calldataload\n        /* \"#utility.yul\":4518:4536   */\n      0xffffffffffffffff\n        /* \"#utility.yul\":4510:4516   */\n      dup2\n        /* \"#utility.yul\":4507:4537   */\n      gt\n        /* \"#utility.yul\":4504:4621   */\n      iszero\n      tag_440\n      jumpi\n        /* \"#utility.yul\":4540:4619   */\n      tag_441\n      tag_328\n      jump\t// in\n    tag_441:\n        /* \"#utility.yul\":4504:4621   */\n    tag_440:\n        /* \"#utility.yul\":4645:4707   */\n      tag_442\n        /* \"#utility.yul\":4699:4706   */\n      dup7\n        /* \"#utility.yul\":4690:4696   */\n      dup3\n        /* \"#utility.yul\":4679:4688   */\n      dup8\n        /* \"#utility.yul\":4675:4697   */\n      add\n        /* \"#utility.yul\":4645:4707   */\n      tag_346\n      jump\t// in\n    tag_442:\n        /* \"#utility.yul\":4635:4707   */\n      swap3\n      pop\n        /* \"#utility.yul\":4430:4717   */\n      pop\n        /* \"#utility.yul\":4784:4786   */\n      0x40\n        /* \"#utility.yul\":4773:4782   */\n      dup5\n        /* \"#utility.yul\":4769:4787   */\n      add\n        /* \"#utility.yul\":4756:4788   */\n      calldataload\n        /* \"#utility.yul\":4815:4833   */\n      0xffffffffffffffff\n        /* \"#utility.yul\":4807:4813   */\n      dup2\n        /* \"#utility.yul\":4804:4834   */\n      gt\n        /* \"#utility.yul\":4801:4918   */\n      iszero\n      tag_443\n      jumpi\n        /* \"#utility.yul\":4837:4916   */\n      tag_444\n      tag_328\n      jump\t// in\n    tag_444:\n        /* \"#utility.yul\":4801:4918   */\n    tag_443:\n        /* \"#utility.yul\":4942:5004   */\n      tag_445\n        /* \"#utility.yul\":4996:5003   */\n      dup7\n        /* \"#utility.yul\":4987:4993   */\n      dup3\n        /* \"#utility.yul\":4976:4985   */\n      dup8\n        /* \"#utility.yul\":4972:4994   */\n      add\n        /* \"#utility.yul\":4942:5004   */\n      tag_346\n      jump\t// in\n    tag_445:\n        /* \"#utility.yul\":4932:5004   */\n      swap2\n      pop\n        /* \"#utility.yul\":4727:5014   */\n      pop\n        /* \"#utility.yul\":4046:5021   */\n      swap3\n      pop\n      swap3\n      pop\n      swap3\n      jump\t// out\n        /* \"#utility.yul\":5027:5117   */\n    tag_347:\n        /* \"#utility.yul\":5061:5068   */\n      0x00\n        /* \"#utility.yul\":5104:5109   */\n      dup2\n        /* \"#utility.yul\":5097:5110   */\n      iszero\n        /* \"#utility.yul\":5090:5111   */\n      iszero\n        /* \"#utility.yul\":5079:5111   */\n      swap1\n      pop\n        /* \"#utility.yul\":5027:5117   */\n      swap2\n      swap1\n      pop\n      jump\t// out\n        /* \"#utility.yul\":5123:5232   */\n    tag_348:\n        /* \"#utility.yul\":5204:5225   */\n      tag_448\n        /* \"#utility.yul\":5219:5224   */\n      dup2\n        /* \"#utility.yul\":5204:5225   */\n      tag_347\n      jump\t// in\n    tag_448:\n        /* \"#utility.yul\":5199:5202   */\n      dup3\n        /* \"#utility.yul\":5192:5226   */\n      mstore\n        /* \"#utility.yul\":5123:5232   */\n      pop\n      pop\n      jump\t// out\n        /* \"#utility.yul\":5238:5448   */\n    tag_37:\n        /* \"#utility.yul\":5325:5329   */\n      0x00\n        /* \"#utility.yul\":5363:5365   */\n      0x20\n        /* \"#utility.yul\":5352:5361   */\n      dup3\n        /* \"#utility.yul\":5348:5366   */\n      add\n        /* \"#utility.yul\":5340:5366   */\n      swap1\n      pop\n        /* \"#utility.yul\":5376:5441   */\n      tag_450\n        /* \"#utility.yul\":5438:5439   */\n      0x00\n        /* \"#utility.yul\":5427:5436   */\n      dup4\n        /* \"#utility.yul\":5423:5440   */\n      add\n        /* \"#utility.yul\":5414:5420   */\n      dup5\n        /* \"#utility.yul\":5376:5441   */\n      tag_348\n      jump\t// in\n    tag_450:\n        /* \"#utility.yul\":5238:5448   */\n      swap3\n      swap2\n      pop\n      pop\n      jump\t// out\n        /* \"#utility.yul\":5454:5572   */\n    tag_349:\n        /* \"#utility.yul\":5541:5565   */\n      tag_452\n        /* \"#utility.yul\":5559:5564   */\n      dup2\n        /* \"#utility.yul\":5541:5565   */\n      tag_334\n      jump\t// in\n    tag_452:\n        /* \"#utility.yul\":5536:5539   */\n      dup3\n        /* \"#utility.yul\":5529:5566   */\n      mstore\n        /* \"#utility.yul\":5454:5572   */\n      pop\n      pop\n      jump\t// out\n        /* \"#utility.yul\":5578:5800   */\n    tag_41:\n        /* \"#utility.yul\":5671:5675   */\n      0x00\n        /* \"#utility.yul\":5709:5711   */\n      0x20\n        /* \"#utility.yul\":5698:5707   */\n      dup3\n        /* \"#utility.yul\":5694:5712   */\n      add\n        /* \"#utility.yul\":5686:5712   */\n      swap1\n      pop\n        /* \"#utility.yul\":5722:5793   */\n      tag_454\n        /* \"#utility.yul\":5790:5791   */\n      0x00\n        /* \"#utility.yul\":5779:5788   */\n      dup4\n        /* \"#utility.yul\":5775:5792   */\n      add\n        /* \"#utility.yul\":5766:5772   */\n      dup5\n        /* \"#utility.yul\":5722:5793   */\n      tag_349\n      jump\t// in\n    tag_454:\n        /* \"#utility.yul\":5578:5800   */\n      swap3\n      swap2\n      pop\n      pop\n      jump\t// out\n        /* \"#utility.yul\":5806:5932   */\n    tag_350:\n        /* \"#utility.yul\":5843:5850   */\n      0x00\n        /* \"#utility.yul\":5883:5925   */\n      0xffffffffffffffffffffffffffffffffffffffff\n        /* \"#utility.yul\":5876:5881   */\n      dup3\n        /* \"#utility.yul\":5872:5926   */\n      and\n        /* \"#utility.yul\":5861:5926   */\n      swap1\n      pop\n        /* \"#utility.yul\":5806:5932   */\n      swap2\n      swap1\n      pop\n      jump\t// out\n        /* \"#utility.yul\":5938:6034   */\n    tag_351:\n        /* \"#utility.yul\":5975:5982   */\n      0x00\n        /* \"#utility.yul\":6004:6028   */\n      tag_457\n        /* \"#utility.yul\":6022:6027   */\n      dup3\n        /* \"#utility.yul\":6004:6028   */\n      tag_350\n      jump\t// in\n    tag_457:\n        /* \"#utility.yul\":5993:6028   */\n      swap1\n      pop\n        /* \"#utility.yul\":5938:6034   */\n      swap2\n      swap1\n      pop\n      jump\t// out\n        /* \"#utility.yul\":6040:6158   */\n    tag_352:\n        /* \"#utility.yul\":6127:6151   */\n      tag_459\n        /* \"#utility.yul\":6145:6150   */\n      dup2\n        /* \"#utility.yul\":6127:6151   */\n      tag_351\n      jump\t// in\n    tag_459:\n        /* \"#utility.yul\":6122:6125   */\n      dup3\n        /* \"#utility.yul\":6115:6152   */\n      mstore\n        /* \"#utility.yul\":6040:6158   */\n      pop\n      pop\n      jump\t// out\n        /* \"#utility.yul\":6164:6386   */\n    tag_47:\n        /* \"#utility.yul\":6257:6261   */\n      0x00\n        /* \"#utility.yul\":6295:6297   */\n      0x20\n        /* \"#utility.yul\":6284:6293   */\n      dup3\n        /* \"#utility.yul\":6280:6298   */\n      add\n        /* \"#utility.yul\":6272:6298   */\n      swap1\n      pop\n        /* \"#utility.yul\":6308:6379   */\n      tag_461\n        /* \"#utility.yul\":6376:6377   */\n      0x00\n        /* \"#utility.yul\":6365:6374   */\n      dup4\n        /* \"#utility.yul\":6361:6378   */\n      add\n        /* \"#utility.yul\":6352:6358   */\n      dup5\n        /* \"#utility.yul\":6308:6379   */\n      tag_352\n      jump\t// in\n    tag_461:\n        /* \"#utility.yul\":6164:6386   */\n      swap3\n      swap2\n      pop\n      pop\n      jump\t// out\n        /* \"#utility.yul\":6392:6510   */\n    tag_353:\n        /* \"#utility.yul\":6479:6503   */\n      tag_463\n        /* \"#utility.yul\":6497:6502   */\n      dup2\n        /* \"#utility.yul\":6479:6503   */\n      tag_329\n      jump\t// in\n    tag_463:\n        /* \"#utility.yul\":6474:6477   */\n      dup3\n        /* \"#utility.yul\":6467:6504   */\n      mstore\n        /* \"#utility.yul\":6392:6510   */\n      pop\n      pop\n      jump\t// out\n        /* \"#utility.yul\":6516:6738   */\n    tag_51:\n        /* \"#utility.yul\":6609:6613   */\n      0x00\n        /* \"#utility.yul\":6647:6649   */\n      0x20\n        /* \"#utility.yul\":6636:6645   */\n      dup3\n        /* \"#utility.yul\":6632:6650   */\n      add\n        /* \"#utility.yul\":6624:6650   */\n      swap1\n      pop\n        /* \"#utility.yul\":6660:6731   */\n      tag_465\n        /* \"#utility.yul\":6728:6729   */\n      0x00\n        /* \"#utility.yul\":6717:6726   */\n      dup4\n        /* \"#utility.yul\":6713:6730   */\n      add\n        /* \"#utility.yul\":6704:6710   */\n      dup5\n        /* \"#utility.yul\":6660:6731   */\n      tag_353\n      jump\t// in\n    tag_465:\n        /* \"#utility.yul\":6516:6738   */\n      swap3\n      swap2\n      pop\n      pop\n      jump\t// out\n        /* \"#utility.yul\":6744:7408   */\n    tag_55:\n        /* \"#utility.yul\":6949:6953   */\n      0x00\n        /* \"#utility.yul\":6987:6990   */\n      0xa0\n        /* \"#utility.yul\":6976:6985   */\n      dup3\n        /* \"#utility.yul\":6972:6991   */\n      add\n        /* \"#utility.yul\":6964:6991   */\n      swap1\n      pop\n        /* \"#utility.yul\":7001:7072   */\n      tag_467\n        /* \"#utility.yul\":7069:7070   */\n      0x00\n        /* \"#utility.yul\":7058:7067   */\n      dup4\n        /* \"#utility.yul\":7054:7071   */\n      add\n        /* \"#utility.yul\":7045:7051   */\n      dup9\n        /* \"#utility.yul\":7001:7072   */\n      tag_353\n      jump\t// in\n    tag_467:\n        /* \"#utility.yul\":7082:7154   */\n      tag_468\n        /* \"#utility.yul\":7150:7152   */\n      0x20\n        /* \"#utility.yul\":7139:7148   */\n      dup4\n        /* \"#utility.yul\":7135:7153   */\n      add\n        /* \"#utility.yul\":7126:7132   */\n      dup8\n        /* \"#utility.yul\":7082:7154   */\n      tag_353\n      jump\t// in\n    tag_468:\n        /* \"#utility.yul\":7164:7236   */\n      tag_469\n        /* \"#utility.yul\":7232:7234   */\n      0x40\n        /* \"#utility.yul\":7221:7230   */\n      dup4\n        /* \"#utility.yul\":7217:7235   */\n      add\n        /* \"#utility.yul\":7208:7214   */\n      dup7\n        /* \"#utility.yul\":7164:7236   */\n      tag_353\n      jump\t// in\n    tag_469:\n        /* \"#utility.yul\":7246:7318   */\n      tag_470\n        /* \"#utility.yul\":7314:7316   */\n      0x60\n        /* \"#utility.yul\":7303:7312   */\n      dup4\n        /* \"#utility.yul\":7299:7317   */\n      add\n        /* \"#utility.yul\":7290:7296   */\n      dup6\n        /* \"#utility.yul\":7246:7318   */\n      tag_353\n      jump\t// in\n    tag_470:\n        /* \"#utility.yul\":7328:7401   */\n      tag_471\n        /* \"#utility.yul\":7396:7399   */\n      0x80\n        /* \"#utility.yul\":7385:7394   */\n      dup4\n        /* \"#utility.yul\":7381:7400   */\n      add\n        /* \"#utility.yul\":7372:7378   */\n      dup5\n        /* \"#utility.yul\":7328:7401   */\n      tag_349\n      jump\t// in\n    tag_471:\n        /* \"#utility.yul\":6744:7408   */\n      swap7\n      swap6\n      pop\n      pop\n      pop\n      pop\n      pop\n      pop\n      jump\t// out\n        /* \"#utility.yul\":7414:7534   */\n    tag_354:\n        /* \"#utility.yul\":7486:7509   */\n      tag_473\n        /* \"#utility.yul\":7503:7508   */\n      dup2\n        /* \"#utility.yul\":7486:7509   */\n      tag_332\n      jump\t// in\n    tag_473:\n        /* \"#utility.yul\":7479:7484   */\n      dup2\n        /* \"#utility.yul\":7476:7510   */\n      eq\n        /* \"#utility.yul\":7466:7528   */\n      tag_474\n      jumpi\n        /* \"#utility.yul\":7524:7525   */\n      0x00\n        /* \"#utility.yul\":7521:7522   */\n      dup1\n        /* \"#utility.yul\":7514:7526   */\n      revert\n        /* \"#utility.yul\":7466:7528   */\n    tag_474:\n        /* \"#utility.yul\":7414:7534   */\n      pop\n      jump\t// out\n        /* \"#utility.yul\":7540:7677   */\n    tag_355:\n        /* \"#utility.yul\":7585:7590   */\n      0x00\n        /* \"#utility.yul\":7623:7629   */\n      dup2\n        /* \"#utility.yul\":7610:7630   */\n      calldataload\n        /* \"#utility.yul\":7601:7630   */\n      swap1\n      pop\n        /* \"#utility.yul\":7639:7671   */\n      tag_476\n        /* \"#utility.yul\":7665:7670   */\n      dup2\n        /* \"#utility.yul\":7639:7671   */\n      tag_354\n      jump\t// in\n    tag_476:\n        /* \"#utility.yul\":7540:7677   */\n      swap3\n      swap2\n      pop\n      pop\n      jump\t// out\n        /* \"#utility.yul\":7683:7776   */\n    tag_356:\n        /* \"#utility.yul\":7719:7726   */\n      0x00\n        /* \"#utility.yul\":7759:7769   */\n      0xffffffff\n        /* \"#utility.yul\":7752:7757   */\n      dup3\n        /* \"#utility.yul\":7748:7770   */\n      and\n        /* \"#utility.yul\":7737:7770   */\n      swap1\n      pop\n        /* \"#utility.yul\":7683:7776   */\n      swap2\n      swap1\n      pop\n      jump\t// out\n        /* \"#utility.yul\":7782:7902   */\n    tag_357:\n        /* \"#utility.yul\":7854:7877   */\n      tag_479\n        /* \"#utility.yul\":7871:7876   */\n      dup2\n        /* \"#utility.yul\":7854:7877   */\n      tag_356\n      jump\t// in\n    tag_479:\n        /* \"#utility.yul\":7847:7852   */\n      dup2\n        /* \"#utility.yul\":7844:7878   */\n      eq\n        /* \"#utility.yul\":7834:7896   */\n      tag_480\n      jumpi\n        /* \"#utility.yul\":7892:7893   */\n      0x00\n        /* \"#utility.yul\":7889:7890   */\n      dup1\n        /* \"#utility.yul\":7882:7894   */\n      revert\n        /* \"#utility.yul\":7834:7896   */\n    tag_480:\n        /* \"#utility.yul\":7782:7902   */\n      pop\n      jump\t// out\n        /* \"#utility.yul\":7908:8045   */\n    tag_358:\n        /* \"#utility.yul\":7953:7958   */\n      0x00\n        /* \"#utility.yul\":7991:7997   */\n      dup2\n        /* \"#utility.yul\":7978:7998   */\n      calldataload\n        /* \"#utility.yul\":7969:7998   */\n      swap1\n      pop\n        /* \"#utility.yul\":8007:8039   */\n      tag_482\n        /* \"#utility.yul\":8033:8038   */\n      dup2\n        /* \"#utility.yul\":8007:8039   */\n      tag_357\n      jump\t// in\n    tag_482:\n        /* \"#utility.yul\":7908:8045   */\n      swap3\n      swap2\n      pop\n      pop\n      jump\t// out\n        /* \"#utility.yul\":8051:8666   */\n    tag_64:\n        /* \"#utility.yul\":8126:8132   */\n      0x00\n        /* \"#utility.yul\":8134:8140   */\n      dup1\n        /* \"#utility.yul\":8142:8148   */\n      0x00\n        /* \"#utility.yul\":8191:8193   */\n      0x60\n        /* \"#utility.yul\":8179:8188   */\n      dup5\n        /* \"#utility.yul\":8170:8177   */\n      dup7\n        /* \"#utility.yul\":8166:8189   */\n      sub\n        /* \"#utility.yul\":8162:8194   */\n      slt\n        /* \"#utility.yul\":8159:8278   */\n      iszero\n      tag_484\n      jumpi\n        /* \"#utility.yul\":8197:8276   */\n      tag_485\n      tag_327\n      jump\t// in\n    tag_485:\n        /* \"#utility.yul\":8159:8278   */\n    tag_484:\n        /* \"#utility.yul\":8317:8318   */\n      0x00\n        /* \"#utility.yul\":8342:8394   */\n      tag_486\n        /* \"#utility.yul\":8386:8393   */\n      dup7\n        /* \"#utility.yul\":8377:8383   */\n      dup3\n        /* \"#utility.yul\":8366:8375   */\n      dup8\n        /* \"#utility.yul\":8362:8384   */\n      add\n        /* \"#utility.yul\":8342:8394   */\n      tag_355\n      jump\t// in\n    tag_486:\n        /* \"#utility.yul\":8332:8394   */\n      swap4\n      pop\n        /* \"#utility.yul\":8288:8404   */\n      pop\n        /* \"#utility.yul\":8443:8445   */\n      0x20\n        /* \"#utility.yul\":8469:8521   */\n      tag_487\n        /* \"#utility.yul\":8513:8520   */\n      dup7\n        /* \"#utility.yul\":8504:8510   */\n      dup3\n        /* \"#utility.yul\":8493:8502   */\n      dup8\n        /* \"#utility.yul\":8489:8511   */\n      add\n        /* \"#utility.yul\":8469:8521   */\n      tag_358\n      jump\t// in\n    tag_487:\n        /* \"#utility.yul\":8459:8521   */\n      swap3\n      pop\n        /* \"#utility.yul\":8414:8531   */\n      pop\n        /* \"#utility.yul\":8570:8572   */\n      0x40\n        /* \"#utility.yul\":8596:8649   */\n      tag_488\n        /* \"#utility.yul\":8641:8648   */\n      dup7\n        /* \"#utility.yul\":8632:8638   */\n      dup3\n        /* \"#utility.yul\":8621:8630   */\n      dup8\n        /* \"#utility.yul\":8617:8639   */\n      add\n        /* \"#utility.yul\":8596:8649   */\n      tag_336\n      jump\t// in\n    tag_488:\n        /* \"#utility.yul\":8586:8649   */\n      swap2\n      pop\n        /* \"#utility.yul\":8541:8659   */\n      pop\n        /* \"#utility.yul\":8051:8666   */\n      swap3\n      pop\n      swap3\n      pop\n      swap3\n      jump\t// out\n        /* \"#utility.yul\":8672:8794   */\n    tag_359:\n        /* \"#utility.yul\":8745:8769   */\n      tag_490\n        /* \"#utility.yul\":8763:8768   */\n      dup2\n        /* \"#utility.yul\":8745:8769   */\n      tag_351\n      jump\t// in\n    tag_490:\n        /* \"#utility.yul\":8738:8743   */\n      dup2\n        /* \"#utility.yul\":8735:8770   */\n      eq\n        /* \"#utility.yul\":8725:8788   */\n      tag_491\n      jumpi\n        /* \"#utility.yul\":8784:8785   */\n      0x00\n        /* \"#utility.yul\":8781:8782   */\n      dup1\n        /* \"#utility.yul\":8774:8786   */\n      revert\n        /* \"#utility.yul\":8725:8788   */\n    tag_491:\n        /* \"#utility.yul\":8672:8794   */\n      pop\n      jump\t// out\n        /* \"#utility.yul\":8800:8939   */\n    tag_360:\n        /* \"#utility.yul\":8846:8851   */\n      0x00\n        /* \"#utility.yul\":8884:8890   */\n      dup2\n        /* \"#utility.yul\":8871:8891   */\n      calldataload\n        /* \"#utility.yul\":8862:8891   */\n      swap1\n      pop\n        /* \"#utility.yul\":8900:8933   */\n      tag_493\n        /* \"#utility.yul\":8927:8932   */\n      dup2\n        /* \"#utility.yul\":8900:8933   */\n      tag_359\n      jump\t// in\n    tag_493:\n        /* \"#utility.yul\":8800:8939   */\n      swap3\n      swap2\n      pop\n      pop\n      jump\t// out\n        /* \"#utility.yul\":8945:9274   */\n    tag_71:\n        /* \"#utility.yul\":9004:9010   */\n      0x00\n        /* \"#utility.yul\":9053:9055   */\n      0x20\n        /* \"#utility.yul\":9041:9050   */\n      dup3\n        /* \"#utility.yul\":9032:9039   */\n      dup5\n        /* \"#utility.yul\":9028:9051   */\n      sub\n        /* \"#utility.yul\":9024:9056   */\n      slt\n        /* \"#utility.yul\":9021:9140   */\n      iszero\n      tag_495\n      jumpi\n        /* \"#utility.yul\":9059:9138   */\n      tag_496\n      tag_327\n      jump\t// in\n    tag_496:\n        /* \"#utility.yul\":9021:9140   */\n    tag_495:\n        /* \"#utility.yul\":9179:9180   */\n      0x00\n        /* \"#utility.yul\":9204:9257   */\n      tag_497\n        /* \"#utility.yul\":9249:9256   */\n      dup5\n        /* \"#utility.yul\":9240:9246   */\n      dup3\n        /* \"#utility.yul\":9229:9238   */\n      dup6\n        /* \"#utility.yul\":9225:9247   */\n      add\n        /* \"#utility.yul\":9204:9257   */\n      tag_360\n      jump\t// in\n    tag_497:\n        /* \"#utility.yul\":9194:9257   */\n      swap2\n      pop\n        /* \"#utility.yul\":9150:9267   */\n      pop\n        /* \"#utility.yul\":8945:9274   */\n      swap3\n      swap2\n      pop\n      pop\n      jump\t// out\n        /* \"#utility.yul\":9280:9395   */\n    tag_361:\n        /* \"#utility.yul\":9365:9388   */\n      tag_499\n        /* \"#utility.yul\":9382:9387   */\n      dup2\n        /* \"#utility.yul\":9365:9388   */\n      tag_356\n      jump\t// in\n    tag_499:\n        /* \"#utility.yul\":9360:9363   */\n      dup3\n        /* \"#utility.yul\":9353:9389   */\n      mstore\n        /* \"#utility.yul\":9280:9395   */\n      pop\n      pop\n      jump\t// out\n        /* \"#utility.yul\":9401:9619   */\n    tag_76:\n        /* \"#utility.yul\":9492:9496   */\n      0x00\n        /* \"#utility.yul\":9530:9532   */\n      0x20\n        /* \"#utility.yul\":9519:9528   */\n      dup3\n        /* \"#utility.yul\":9515:9533   */\n      add\n        /* \"#utility.yul\":9507:9533   */\n      swap1\n      pop\n        /* \"#utility.yul\":9543:9612   */\n      tag_501\n        /* \"#utility.yul\":9609:9610   */\n      0x00\n        /* \"#utility.yul\":9598:9607   */\n      dup4\n        /* \"#utility.yul\":9594:9611   */\n      add\n        /* \"#utility.yul\":9585:9591   */\n      dup5\n        /* \"#utility.yul\":9543:9612   */\n      tag_361\n      jump\t// in\n    tag_501:\n        /* \"#utility.yul\":9401:9619   */\n      swap3\n      swap2\n      pop\n      pop\n      jump\t// out\n        /* \"#utility.yul\":9625:9794   */\n    tag_362:\n        /* \"#utility.yul\":9709:9720   */\n      0x00\n        /* \"#utility.yul\":9743:9749   */\n      dup3\n        /* \"#utility.yul\":9738:9741   */\n      dup3\n        /* \"#utility.yul\":9731:9750   */\n      mstore\n        /* \"#utility.yul\":9783:9787   */\n      0x20\n        /* \"#utility.yul\":9778:9781   */\n      dup3\n        /* \"#utility.yul\":9774:9788   */\n      add\n        /* \"#utility.yul\":9759:9788   */\n      swap1\n      pop\n        /* \"#utility.yul\":9625:9794   */\n      swap3\n      swap2\n      pop\n      pop\n      jump\t// out\n        /* \"#utility.yul\":9800:9978   */\n    tag_363:\n        /* \"#utility.yul\":9940:9970   */\n      0x5072696365206d7573742062652067726561746572207468616e203000000000\n        /* \"#utility.yul\":9936:9937   */\n      0x00\n        /* \"#utility.yul\":9928:9934   */\n      dup3\n        /* \"#utility.yul\":9924:9938   */\n      add\n        /* \"#utility.yul\":9917:9971   */\n      mstore\n        /* \"#utility.yul\":9800:9978   */\n      pop\n      jump\t// out\n        /* \"#utility.yul\":9984:10350   */\n    tag_364:\n        /* \"#utility.yul\":10126:10129   */\n      0x00\n        /* \"#utility.yul\":10147:10214   */\n      tag_505\n        /* \"#utility.yul\":10211:10213   */\n      0x1c\n        /* \"#utility.yul\":10206:10209   */\n      dup4\n        /* \"#utility.yul\":10147:10214   */\n      tag_362\n      jump\t// in\n    tag_505:\n        /* \"#utility.yul\":10140:10214   */\n      swap2\n      pop\n        /* \"#utility.yul\":10223:10316   */\n      tag_506\n        /* \"#utility.yul\":10312:10315   */\n      dup3\n        /* \"#utility.yul\":10223:10316   */\n      tag_363\n      jump\t// in\n    tag_506:\n        /* \"#utility.yul\":10341:10343   */\n      0x20\n        /* \"#utility.yul\":10336:10339   */\n      dup3\n        /* \"#utility.yul\":10332:10344   */\n      add\n        /* \"#utility.yul\":10325:10344   */\n      swap1\n      pop\n        /* \"#utility.yul\":9984:10350   */\n      swap2\n      swap1\n      pop\n      jump\t// out\n        /* \"#utility.yul\":10356:10775   */\n    tag_86:\n        /* \"#utility.yul\":10522:10526   */\n      0x00\n        /* \"#utility.yul\":10560:10562   */\n      0x20\n        /* \"#utility.yul\":10549:10558   */\n      dup3\n        /* \"#utility.yul\":10545:10563   */\n      add\n        /* \"#utility.yul\":10537:10563   */\n      swap1\n      pop\n        /* \"#utility.yul\":10609:10618   */\n      dup2\n        /* \"#utility.yul\":10603:10607   */\n      dup2\n        /* \"#utility.yul\":10599:10619   */\n      sub\n        /* \"#utility.yul\":10595:10596   */\n      0x00\n        /* \"#utility.yul\":10584:10593   */\n      dup4\n        /* \"#utility.yul\":10580:10597   */\n      add\n        /* \"#utility.yul\":10573:10620   */\n      mstore\n        /* \"#utility.yul\":10637:10768   */\n      tag_508\n        /* \"#utility.yul\":10763:10767   */\n      dup2\n        /* \"#utility.yul\":10637:10768   */\n      tag_364\n      jump\t// in\n    tag_508:\n        /* \"#utility.yul\":10629:10768   */\n      swap1\n      pop\n        /* \"#utility.yul\":10356:10775   */\n      swap2\n      swap1\n      pop\n      jump\t// out\n        /* \"#utility.yul\":10781:10961   */\n    tag_365:\n        /* \"#utility.yul\":10829:10906   */\n      0x4e487b7100000000000000000000000000000000000000000000000000000000\n        /* \"#utility.yul\":10826:10827   */\n      0x00\n        /* \"#utility.yul\":10819:10907   */\n      mstore\n        /* \"#utility.yul\":10926:10930   */\n      0x11\n        /* \"#utility.yul\":10923:10924   */\n      0x04\n        /* \"#utility.yul\":10916:10931   */\n      mstore\n        /* \"#utility.yul\":10950:10954   */\n      0x24\n        /* \"#utility.yul\":10947:10948   */\n      0x00\n        /* \"#utility.yul\":10940:10955   */\n      revert\n        /* \"#utility.yul\":10967:11377   */\n    tag_88:\n        /* \"#utility.yul\":11007:11014   */\n      0x00\n        /* \"#utility.yul\":11030:11050   */\n      tag_511\n        /* \"#utility.yul\":11048:11049   */\n      dup3\n        /* \"#utility.yul\":11030:11050   */\n      tag_329\n      jump\t// in\n    tag_511:\n        /* \"#utility.yul\":11025:11050   */\n      swap2\n      pop\n        /* \"#utility.yul\":11064:11084   */\n      tag_512\n        /* \"#utility.yul\":11082:11083   */\n      dup4\n        /* \"#utility.yul\":11064:11084   */\n      tag_329\n      jump\t// in\n    tag_512:\n        /* \"#utility.yul\":11059:11084   */\n      swap3\n      pop\n        /* \"#utility.yul\":11119:11120   */\n      dup3\n        /* \"#utility.yul\":11116:11117   */\n      dup3\n        /* \"#utility.yul\":11112:11121   */\n      mul\n        /* \"#utility.yul\":11141:11171   */\n      tag_513\n        /* \"#utility.yul\":11159:11170   */\n      dup2\n        /* \"#utility.yul\":11141:11171   */\n      tag_329\n      jump\t// in\n    tag_513:\n        /* \"#utility.yul\":11130:11171   */\n      swap2\n      pop\n        /* \"#utility.yul\":11320:11321   */\n      dup3\n        /* \"#utility.yul\":11311:11318   */\n      dup3\n        /* \"#utility.yul\":11307:11322   */\n      div\n        /* \"#utility.yul\":11304:11305   */\n      dup5\n        /* \"#utility.yul\":11301:11323   */\n      eq\n        /* \"#utility.yul\":11281:11282   */\n      dup4\n        /* \"#utility.yul\":11274:11283   */\n      iszero\n        /* \"#utility.yul\":11254:11337   */\n      or\n        /* \"#utility.yul\":11231:11370   */\n      tag_514\n      jumpi\n        /* \"#utility.yul\":11350:11368   */\n      tag_515\n      tag_365\n      jump\t// in\n    tag_515:\n        /* \"#utility.yul\":11231:11370   */\n    tag_514:\n        /* \"#utility.yul\":11015:11377   */\n      pop\n        /* \"#utility.yul\":10967:11377   */\n      swap3\n      swap2\n      pop\n      pop\n      jump\t// out\n        /* \"#utility.yul\":11383:11715   */\n    tag_90:\n        /* \"#utility.yul\":11504:11508   */\n      0x00\n        /* \"#utility.yul\":11542:11544   */\n      0x40\n        /* \"#utility.yul\":11531:11540   */\n      dup3\n        /* \"#utility.yul\":11527:11545   */\n      add\n        /* \"#utility.yul\":11519:11545   */\n      swap1\n      pop\n        /* \"#utility.yul\":11555:11626   */\n      tag_517\n        /* \"#utility.yul\":11623:11624   */\n      0x00\n        /* \"#utility.yul\":11612:11621   */\n      dup4\n        /* \"#utility.yul\":11608:11625   */\n      add\n        /* \"#utility.yul\":11599:11605   */\n      dup6\n        /* \"#utility.yul\":11555:11626   */\n      tag_353\n      jump\t// in\n    tag_517:\n        /* \"#utility.yul\":11636:11708   */\n      tag_518\n        /* \"#utility.yul\":11704:11706   */\n      0x20\n        /* \"#utility.yul\":11693:11702   */\n      dup4\n        /* \"#utility.yul\":11689:11707   */\n      add\n        /* \"#utility.yul\":11680:11686   */\n      dup5\n        /* \"#utility.yul\":11636:11708   */\n      tag_353\n      jump\t// in\n    tag_518:\n        /* \"#utility.yul\":11383:11715   */\n      swap4\n      swap3\n      pop\n      pop\n      pop\n      jump\t// out\n        /* \"#utility.yul\":11721:11915   */\n    tag_97:\n        /* \"#utility.yul\":11761:11765   */\n      0x00\n        /* \"#utility.yul\":11781:11801   */\n      tag_520\n        /* \"#utility.yul\":11799:11800   */\n      dup3\n        /* \"#utility.yul\":11781:11801   */\n      tag_329\n      jump\t// in\n    tag_520:\n        /* \"#utility.yul\":11776:11801   */\n      swap2\n      pop\n        /* \"#utility.yul\":11815:11835   */\n      tag_521\n        /* \"#utility.yul\":11833:11834   */\n      dup4\n        /* \"#utility.yul\":11815:11835   */\n      tag_329\n      jump\t// in\n    tag_521:\n        /* \"#utility.yul\":11810:11835   */\n      swap3\n      pop\n        /* \"#utility.yul\":11859:11860   */\n      dup3\n        /* \"#utility.yul\":11856:11857   */\n      dup3\n        /* \"#utility.yul\":11852:11861   */\n      sub\n        /* \"#utility.yul\":11844:11861   */\n      swap1\n      pop\n        /* \"#utility.yul\":11883:11884   */\n      dup2\n        /* \"#utility.yul\":11877:11881   */\n      dup2\n        /* \"#utility.yul\":11874:11885   */\n      gt\n        /* \"#utility.yul\":11871:11908   */\n      iszero\n      tag_522\n      jumpi\n        /* \"#utility.yul\":11888:11906   */\n      tag_523\n      tag_365\n      jump\t// in\n    tag_523:\n        /* \"#utility.yul\":11871:11908   */\n    tag_522:\n        /* \"#utility.yul\":11721:11915   */\n      swap3\n      swap2\n      pop\n      pop\n      jump\t// out\n        /* \"#utility.yul\":11921:12093   */\n    tag_366:\n        /* \"#utility.yul\":12061:12085   */\n      0x4d7573742062652070726f706f736564206f776e657200000000000000000000\n        /* \"#utility.yul\":12057:12058   */\n      0x00\n        /* \"#utility.yul\":12049:12055   */\n      dup3\n        /* \"#utility.yul\":12045:12059   */\n      add\n        /* \"#utility.yul\":12038:12086   */\n      mstore\n        /* \"#utility.yul\":11921:12093   */\n      pop\n      jump\t// out\n        /* \"#utility.yul\":12099:12465   */\n    tag_367:\n        /* \"#utility.yul\":12241:12244   */\n      0x00\n        /* \"#utility.yul\":12262:12329   */\n      tag_526\n        /* \"#utility.yul\":12326:12328   */\n      0x16\n        /* \"#utility.yul\":12321:12324   */\n      dup4\n        /* \"#utility.yul\":12262:12329   */\n      tag_362\n      jump\t// in\n    tag_526:\n        /* \"#utility.yul\":12255:12329   */\n      swap2\n      pop\n        /* \"#utility.yul\":12338:12431   */\n      tag_527\n        /* \"#utility.yul\":12427:12430   */\n      dup3\n        /* \"#utility.yul\":12338:12431   */\n      tag_366\n      jump\t// in\n    tag_527:\n        /* \"#utility.yul\":12456:12458   */\n      0x20\n        /* \"#utility.yul\":12451:12454   */\n      dup3\n        /* \"#utility.yul\":12447:12459   */\n      add\n        /* \"#utility.yul\":12440:12459   */\n      swap1\n      pop\n        /* \"#utility.yul\":12099:12465   */\n      swap2\n      swap1\n      pop\n      jump\t// out\n        /* \"#utility.yul\":12471:12890   */\n    tag_101:\n        /* \"#utility.yul\":12637:12641   */\n      0x00\n        /* \"#utility.yul\":12675:12677   */\n      0x20\n        /* \"#utility.yul\":12664:12673   */\n      dup3\n        /* \"#utility.yul\":12660:12678   */\n      add\n        /* \"#utility.yul\":12652:12678   */\n      swap1\n      pop\n        /* \"#utility.yul\":12724:12733   */\n      dup2\n        /* \"#utility.yul\":12718:12722   */\n      dup2\n        /* \"#utility.yul\":12714:12734   */\n      sub\n        /* \"#utility.yul\":12710:12711   */\n      0x00\n        /* \"#utility.yul\":12699:12708   */\n      dup4\n        /* \"#utility.yul\":12695:12712   */\n      add\n        /* \"#utility.yul\":12688:12735   */\n      mstore\n        /* \"#utility.yul\":12752:12883   */\n      tag_529\n        /* \"#utility.yul\":12878:12882   */\n      dup2\n        /* \"#utility.yul\":12752:12883   */\n      tag_367\n      jump\t// in\n    tag_529:\n        /* \"#utility.yul\":12744:12883   */\n      swap1\n      pop\n        /* \"#utility.yul\":12471:12890   */\n      swap2\n      swap1\n      pop\n      jump\t// out\n        /* \"#utility.yul\":12896:13076   */\n    tag_368:\n        /* \"#utility.yul\":12944:13021   */\n      0x4e487b7100000000000000000000000000000000000000000000000000000000\n        /* \"#utility.yul\":12941:12942   */\n      0x00\n        /* \"#utility.yul\":12934:13022   */\n      mstore\n        /* \"#utility.yul\":13041:13045   */\n      0x12\n        /* \"#utility.yul\":13038:13039   */\n      0x04\n        /* \"#utility.yul\":13031:13046   */\n      mstore\n        /* \"#utility.yul\":13065:13069   */\n      0x24\n        /* \"#utility.yul\":13062:13063   */\n      0x00\n        /* \"#utility.yul\":13055:13070   */\n      revert\n        /* \"#utility.yul\":13082:13267   */\n    tag_106:\n        /* \"#utility.yul\":13122:13123   */\n      0x00\n        /* \"#utility.yul\":13139:13159   */\n      tag_532\n        /* \"#utility.yul\":13157:13158   */\n      dup3\n        /* \"#utility.yul\":13139:13159   */\n      tag_329\n      jump\t// in\n    tag_532:\n        /* \"#utility.yul\":13134:13159   */\n      swap2\n      pop\n        /* \"#utility.yul\":13173:13193   */\n      tag_533\n        /* \"#utility.yul\":13191:13192   */\n      dup4\n        /* \"#utility.yul\":13173:13193   */\n      tag_329\n      jump\t// in\n    tag_533:\n        /* \"#utility.yul\":13168:13193   */\n      swap3\n      pop\n        /* \"#utility.yul\":13212:13213   */\n      dup3\n        /* \"#utility.yul\":13202:13237   */\n      tag_534\n      jumpi\n        /* \"#utility.yul\":13217:13235   */\n      tag_535\n      tag_368\n      jump\t// in\n    tag_535:\n        /* \"#utility.yul\":13202:13237   */\n    tag_534:\n        /* \"#utility.yul\":13259:13260   */\n      dup3\n        /* \"#utility.yul\":13256:13257   */\n      dup3\n        /* \"#utility.yul\":13252:13261   */\n      div\n        /* \"#utility.yul\":13247:13261   */\n      swap1\n      pop\n        /* \"#utility.yul\":13082:13267   */\n      swap3\n      swap2\n      pop\n      pop\n      jump\t// out\n        /* \"#utility.yul\":13273:13453   */\n    tag_369:\n        /* \"#utility.yul\":13321:13398   */\n      0x4e487b7100000000000000000000000000000000000000000000000000000000\n        /* \"#utility.yul\":13318:13319   */\n      0x00\n        /* \"#utility.yul\":13311:13399   */\n      mstore\n        /* \"#utility.yul\":13418:13422   */\n      0x22\n        /* \"#utility.yul\":13415:13416   */\n      0x04\n        /* \"#utility.yul\":13408:13423   */\n      mstore\n        /* \"#utility.yul\":13442:13446   */\n      0x24\n        /* \"#utility.yul\":13439:13440   */\n      0x00\n        /* \"#utility.yul\":13432:13447   */\n      revert\n        /* \"#utility.yul\":13459:13779   */\n    tag_113:\n        /* \"#utility.yul\":13503:13509   */\n      0x00\n        /* \"#utility.yul\":13540:13541   */\n      0x02\n        /* \"#utility.yul\":13534:13538   */\n      dup3\n        /* \"#utility.yul\":13530:13542   */\n      div\n        /* \"#utility.yul\":13520:13542   */\n      swap1\n      pop\n        /* \"#utility.yul\":13587:13588   */\n      0x01\n        /* \"#utility.yul\":13581:13585   */\n      dup3\n        /* \"#utility.yul\":13577:13589   */\n      and\n        /* \"#utility.yul\":13608:13626   */\n      dup1\n        /* \"#utility.yul\":13598:13679   */\n      tag_538\n      jumpi\n        /* \"#utility.yul\":13664:13668   */\n      0x7f\n        /* \"#utility.yul\":13656:13662   */\n      dup3\n        /* \"#utility.yul\":13652:13669   */\n      and\n        /* \"#utility.yul\":13642:13669   */\n      swap2\n      pop\n        /* \"#utility.yul\":13598:13679   */\n    tag_538:\n        /* \"#utility.yul\":13726:13728   */\n      0x20\n        /* \"#utility.yul\":13718:13724   */\n      dup3\n        /* \"#utility.yul\":13715:13729   */\n      lt\n        /* \"#utility.yul\":13695:13713   */\n      dup2\n        /* \"#utility.yul\":13692:13730   */\n      sub\n        /* \"#utility.yul\":13689:13773   */\n      tag_539\n      jumpi\n        /* \"#utility.yul\":13745:13763   */\n      tag_540\n      tag_369\n      jump\t// in\n    tag_540:\n        /* \"#utility.yul\":13689:13773   */\n    tag_539:\n        /* \"#utility.yul\":13510:13779   */\n      pop\n        /* \"#utility.yul\":13459:13779   */\n      swap2\n      swap1\n      pop\n      jump\t// out\n        /* \"#utility.yul\":13785:13957   */\n    tag_370:\n        /* \"#utility.yul\":13925:13949   */\n      0x4f6e6c792063616c6c61626c65206279206f776e657200000000000000000000\n        /* \"#utility.yul\":13921:13922   */\n      0x00\n        /* \"#utility.yul\":13913:13919   */\n      dup3\n        /* \"#utility.yul\":13909:13923   */\n      add\n        /* \"#utility.yul\":13902:13950   */\n      mstore\n        /* \"#utility.yul\":13785:13957   */\n      pop\n      jump\t// out\n        /* \"#utility.yul\":13963:14329   */\n    tag_371:\n        /* \"#utility.yul\":14105:14108   */\n      0x00\n        /* \"#utility.yul\":14126:14193   */\n      tag_543\n        /* \"#utility.yul\":14190:14192   */\n      0x16\n        /* \"#utility.yul\":14185:14188   */\n      dup4\n        /* \"#utility.yul\":14126:14193   */\n      tag_362\n      jump\t// in\n    tag_543:\n        /* \"#utility.yul\":14119:14193   */\n      swap2\n      pop\n        /* \"#utility.yul\":14202:14295   */\n      tag_544\n        /* \"#utility.yul\":14291:14294   */\n      dup3\n        /* \"#utility.yul\":14202:14295   */\n      tag_370\n      jump\t// in\n    tag_544:\n        /* \"#utility.yul\":14320:14322   */\n      0x20\n        /* \"#utility.yul\":14315:14318   */\n      dup3\n        /* \"#utility.yul\":14311:14323   */\n      add\n        /* \"#utility.yul\":14304:14323   */\n      swap1\n      pop\n        /* \"#utility.yul\":13963:14329   */\n      swap2\n      swap1\n      pop\n      jump\t// out\n        /* \"#utility.yul\":14335:14754   */\n    tag_136:\n        /* \"#utility.yul\":14501:14505   */\n      0x00\n        /* \"#utility.yul\":14539:14541   */\n      0x20\n        /* \"#utility.yul\":14528:14537   */\n      dup3\n        /* \"#utility.yul\":14524:14542   */\n      add\n        /* \"#utility.yul\":14516:14542   */\n      swap1\n      pop\n        /* \"#utility.yul\":14588:14597   */\n      dup2\n        /* \"#utility.yul\":14582:14586   */\n      dup2\n        /* \"#utility.yul\":14578:14598   */\n      sub\n        /* \"#utility.yul\":14574:14575   */\n      0x00\n        /* \"#utility.yul\":14563:14572   */\n      dup4\n        /* \"#utility.yul\":14559:14576   */\n      add\n        /* \"#utility.yul\":14552:14599   */\n      mstore\n        /* \"#utility.yul\":14616:14747   */\n      tag_546\n        /* \"#utility.yul\":14742:14746   */\n      dup2\n        /* \"#utility.yul\":14616:14747   */\n      tag_371\n      jump\t// in\n    tag_546:\n        /* \"#utility.yul\":14608:14747   */\n      swap1\n      pop\n        /* \"#utility.yul\":14335:14754   */\n      swap2\n      swap1\n      pop\n      jump\t// out\n        /* \"#utility.yul\":14760:14858   */\n    tag_372:\n        /* \"#utility.yul\":14811:14817   */\n      0x00\n        /* \"#utility.yul\":14845:14850   */\n      dup2\n        /* \"#utility.yul\":14839:14851   */\n      mload\n        /* \"#utility.yul\":14829:14851   */\n      swap1\n      pop\n        /* \"#utility.yul\":14760:14858   */\n      swap2\n      swap1\n      pop\n      jump\t// out\n        /* \"#utility.yul\":14864:15032   */\n    tag_373:\n        /* \"#utility.yul\":14947:14958   */\n      0x00\n        /* \"#utility.yul\":14981:14987   */\n      dup3\n        /* \"#utility.yul\":14976:14979   */\n      dup3\n        /* \"#utility.yul\":14969:14988   */\n      mstore\n        /* \"#utility.yul\":15021:15025   */\n      0x20\n        /* \"#utility.yul\":15016:15019   */\n      dup3\n        /* \"#utility.yul\":15012:15026   */\n      add\n        /* \"#utility.yul\":14997:15026   */\n      swap1\n      pop\n        /* \"#utility.yul\":14864:15032   */\n      swap3\n      swap2\n      pop\n      pop\n      jump\t// out\n        /* \"#utility.yul\":15038:15284   */\n    tag_374:\n        /* \"#utility.yul\":15119:15120   */\n      0x00\n        /* \"#utility.yul\":15129:15242   */\n    tag_550:\n        /* \"#utility.yul\":15143:15149   */\n      dup4\n        /* \"#utility.yul\":15140:15141   */\n      dup2\n        /* \"#utility.yul\":15137:15150   */\n      lt\n        /* \"#utility.yul\":15129:15242   */\n      iszero\n      tag_552\n      jumpi\n        /* \"#utility.yul\":15228:15229   */\n      dup1\n        /* \"#utility.yul\":15223:15226   */\n      dup3\n        /* \"#utility.yul\":15219:15230   */\n      add\n        /* \"#utility.yul\":15213:15231   */\n      mload\n        /* \"#utility.yul\":15209:15210   */\n      dup2\n        /* \"#utility.yul\":15204:15207   */\n      dup5\n        /* \"#utility.yul\":15200:15211   */\n      add\n        /* \"#utility.yul\":15193:15232   */\n      mstore\n        /* \"#utility.yul\":15165:15167   */\n      0x20\n        /* \"#utility.yul\":15162:15163   */\n      dup2\n        /* \"#utility.yul\":15158:15168   */\n      add\n        /* \"#utility.yul\":15153:15168   */\n      swap1\n      pop\n        /* \"#utility.yul\":15129:15242   */\n      jump(tag_550)\n    tag_552:\n        /* \"#utility.yul\":15276:15277   */\n      0x00\n        /* \"#utility.yul\":15267:15273   */\n      dup5\n        /* \"#utility.yul\":15262:15265   */\n      dup5\n        /* \"#utility.yul\":15258:15274   */\n      add\n        /* \"#utility.yul\":15251:15278   */\n      mstore\n        /* \"#utility.yul\":15100:15284   */\n      pop\n        /* \"#utility.yul\":15038:15284   */\n      pop\n      pop\n      pop\n      jump\t// out\n        /* \"#utility.yul\":15290:15663   */\n    tag_375:\n        /* \"#utility.yul\":15376:15379   */\n      0x00\n        /* \"#utility.yul\":15404:15442   */\n      tag_554\n        /* \"#utility.yul\":15436:15441   */\n      dup3\n        /* \"#utility.yul\":15404:15442   */\n      tag_372\n      jump\t// in\n    tag_554:\n        /* \"#utility.yul\":15458:15528   */\n      tag_555\n        /* \"#utility.yul\":15521:15527   */\n      dup2\n        /* \"#utility.yul\":15516:15519   */\n      dup6\n        /* \"#utility.yul\":15458:15528   */\n      tag_373\n      jump\t// in\n    tag_555:\n        /* \"#utility.yul\":15451:15528   */\n      swap4\n      pop\n        /* \"#utility.yul\":15537:15602   */\n      tag_556\n        /* \"#utility.yul\":15595:15601   */\n      dup2\n        /* \"#utility.yul\":15590:15593   */\n      dup6\n        /* \"#utility.yul\":15583:15587   */\n      0x20\n        /* \"#utility.yul\":15576:15581   */\n      dup7\n        /* \"#utility.yul\":15572:15588   */\n      add\n        /* \"#utility.yul\":15537:15602   */\n      tag_374\n      jump\t// in\n    tag_556:\n        /* \"#utility.yul\":15627:15656   */\n      tag_557\n        /* \"#utility.yul\":15649:15655   */\n      dup2\n        /* \"#utility.yul\":15627:15656   */\n      tag_339\n      jump\t// in\n    tag_557:\n        /* \"#utility.yul\":15622:15625   */\n      dup5\n        /* \"#utility.yul\":15618:15657   */\n      add\n        /* \"#utility.yul\":15611:15657   */\n      swap2\n      pop\n        /* \"#utility.yul\":15380:15663   */\n      pop\n        /* \"#utility.yul\":15290:15663   */\n      swap3\n      swap2\n      pop\n      pop\n      jump\t// out\n        /* \"#utility.yul\":15669:15978   */\n    tag_140:\n        /* \"#utility.yul\":15780:15784   */\n      0x00\n        /* \"#utility.yul\":15818:15820   */\n      0x20\n        /* \"#utility.yul\":15807:15816   */\n      dup3\n        /* \"#utility.yul\":15803:15821   */\n      add\n        /* \"#utility.yul\":15795:15821   */\n      swap1\n      pop\n        /* \"#utility.yul\":15867:15876   */\n      dup2\n        /* \"#utility.yul\":15861:15865   */\n      dup2\n        /* \"#utility.yul\":15857:15877   */\n      sub\n        /* \"#utility.yul\":15853:15854   */\n      0x00\n        /* \"#utility.yul\":15842:15851   */\n      dup4\n        /* \"#utility.yul\":15838:15855   */\n      add\n        /* \"#utility.yul\":15831:15878   */\n      mstore\n        /* \"#utility.yul\":15895:15971   */\n      tag_559\n        /* \"#utility.yul\":15966:15970   */\n      dup2\n        /* \"#utility.yul\":15957:15963   */\n      dup5\n        /* \"#utility.yul\":15895:15971   */\n      tag_375\n      jump\t// in\n    tag_559:\n        /* \"#utility.yul\":15887:15971   */\n      swap1\n      pop\n        /* \"#utility.yul\":15669:15978   */\n      swap3\n      swap2\n      pop\n      pop\n      jump\t// out\n        /* \"#utility.yul\":15984:16127   */\n    tag_376:\n        /* \"#utility.yul\":16041:16046   */\n      0x00\n        /* \"#utility.yul\":16072:16078   */\n      dup2\n        /* \"#utility.yul\":16066:16079   */\n      mload\n        /* \"#utility.yul\":16057:16079   */\n      swap1\n      pop\n        /* \"#utility.yul\":16088:16121   */\n      tag_561\n        /* \"#utility.yul\":16115:16120   */\n      dup2\n        /* \"#utility.yul\":16088:16121   */\n      tag_330\n      jump\t// in\n    tag_561:\n        /* \"#utility.yul\":15984:16127   */\n      swap3\n      swap2\n      pop\n      pop\n      jump\t// out\n        /* \"#utility.yul\":16133:16484   */\n    tag_142:\n        /* \"#utility.yul\":16203:16209   */\n      0x00\n        /* \"#utility.yul\":16252:16254   */\n      0x20\n        /* \"#utility.yul\":16240:16249   */\n      dup3\n        /* \"#utility.yul\":16231:16238   */\n      dup5\n        /* \"#utility.yul\":16227:16250   */\n      sub\n        /* \"#utility.yul\":16223:16255   */\n      slt\n        /* \"#utility.yul\":16220:16339   */\n      iszero\n      tag_563\n      jumpi\n        /* \"#utility.yul\":16258:16337   */\n      tag_564\n      tag_327\n      jump\t// in\n    tag_564:\n        /* \"#utility.yul\":16220:16339   */\n    tag_563:\n        /* \"#utility.yul\":16378:16379   */\n      0x00\n        /* \"#utility.yul\":16403:16467   */\n      tag_565\n        /* \"#utility.yul\":16459:16466   */\n      dup5\n        /* \"#utility.yul\":16450:16456   */\n      dup3\n        /* \"#utility.yul\":16439:16448   */\n      dup6\n        /* \"#utility.yul\":16435:16457   */\n      add\n        /* \"#utility.yul\":16403:16467   */\n      tag_376\n      jump\t// in\n    tag_565:\n        /* \"#utility.yul\":16393:16467   */\n      swap2\n      pop\n        /* \"#utility.yul\":16349:16477   */\n      pop\n        /* \"#utility.yul\":16133:16484   */\n      swap3\n      swap2\n      pop\n      pop\n      jump\t// out\n        /* \"#utility.yul\":16490:16670   */\n    tag_155:\n        /* \"#utility.yul\":16538:16615   */\n      0x4e487b7100000000000000000000000000000000000000000000000000000000\n        /* \"#utility.yul\":16535:16536   */\n      0x00\n        /* \"#utility.yul\":16528:16616   */\n      mstore\n        /* \"#utility.yul\":16635:16639   */\n      0x21\n        /* \"#utility.yul\":16632:16633   */\n      0x04\n        /* \"#utility.yul\":16625:16640   */\n      mstore\n        /* \"#utility.yul\":16659:16663   */\n      0x24\n        /* \"#utility.yul\":16656:16657   */\n      0x00\n        /* \"#utility.yul\":16649:16664   */\n      revert\n        /* \"#utility.yul\":16676:16856   */\n    tag_173:\n        /* \"#utility.yul\":16724:16801   */\n      0x4e487b7100000000000000000000000000000000000000000000000000000000\n        /* \"#utility.yul\":16721:16722   */\n      0x00\n        /* \"#utility.yul\":16714:16802   */\n      mstore\n        /* \"#utility.yul\":16821:16825   */\n      0x32\n        /* \"#utility.yul\":16818:16819   */\n      0x04\n        /* \"#utility.yul\":16811:16826   */\n      mstore\n        /* \"#utility.yul\":16845:16849   */\n      0x24\n        /* \"#utility.yul\":16842:16843   */\n      0x00\n        /* \"#utility.yul\":16835:16850   */\n      revert\n        /* \"#utility.yul\":16862:17095   */\n    tag_175:\n        /* \"#utility.yul\":16901:16904   */\n      0x00\n        /* \"#utility.yul\":16924:16948   */\n      tag_569\n        /* \"#utility.yul\":16942:16947   */\n      dup3\n        /* \"#utility.yul\":16924:16948   */\n      tag_329\n      jump\t// in\n    tag_569:\n        /* \"#utility.yul\":16915:16948   */\n      swap2\n      pop\n        /* \"#utility.yul\":16970:17036   */\n      0xffffffffffffffffffffffffffffffffffffffffffffffffffffffffffffffff\n        /* \"#utility.yul\":16963:16968   */\n      dup3\n        /* \"#utility.yul\":16960:17037   */\n      sub\n        /* \"#utility.yul\":16957:17060   */\n      tag_570\n      jumpi\n        /* \"#utility.yul\":17040:17058   */\n      tag_571\n      tag_365\n      jump\t// in\n    tag_571:\n        /* \"#utility.yul\":16957:17060   */\n    tag_570:\n        /* \"#utility.yul\":17087:17088   */\n      0x01\n        /* \"#utility.yul\":17080:17085   */\n      dup3\n        /* \"#utility.yul\":17076:17089   */\n      add\n        /* \"#utility.yul\":17069:17089   */\n      swap1\n      pop\n        /* \"#utility.yul\":16862:17095   */\n      swap2\n      swap1\n      pop\n      jump\t// out\n        /* \"#utility.yul\":17101:17190   */\n    tag_377:\n        /* \"#utility.yul\":17137:17144   */\n      0x00\n        /* \"#utility.yul\":17177:17183   */\n      0xffff\n        /* \"#utility.yul\":17170:17175   */\n      dup3\n        /* \"#utility.yul\":17166:17184   */\n      and\n        /* \"#utility.yul\":17155:17184   */\n      swap1\n      pop\n        /* \"#utility.yul\":17101:17190   */\n      swap2\n      swap1\n      pop\n      jump\t// out\n        /* \"#utility.yul\":17196:17311   */\n    tag_378:\n        /* \"#utility.yul\":17281:17304   */\n      tag_574\n        /* \"#utility.yul\":17298:17303   */\n      dup2\n        /* \"#utility.yul\":17281:17304   */\n      tag_377\n      jump\t// in\n    tag_574:\n        /* \"#utility.yul\":17276:17279   */\n      dup3\n        /* \"#utility.yul\":17269:17305   */\n      mstore\n        /* \"#utility.yul\":17196:17311   */\n      pop\n      pop\n      jump\t// out\n        /* \"#utility.yul\":17317:18056   */\n    tag_204:\n        /* \"#utility.yul\":17534:17538   */\n      0x00\n        /* \"#utility.yul\":17572:17575   */\n      0xa0\n        /* \"#utility.yul\":17561:17570   */\n      dup3\n        /* \"#utility.yul\":17557:17576   */\n      add\n        /* \"#utility.yul\":17549:17576   */\n      swap1\n      pop\n        /* \"#utility.yul\":17586:17655   */\n      tag_576\n        /* \"#utility.yul\":17652:17653   */\n      0x00\n        /* \"#utility.yul\":17641:17650   */\n      dup4\n        /* \"#utility.yul\":17637:17654   */\n      add\n        /* \"#utility.yul\":17628:17634   */\n      dup9\n        /* \"#utility.yul\":17586:17655   */\n      tag_333\n      jump\t// in\n    tag_576:\n        /* \"#utility.yul\":17702:17711   */\n      dup2\n        /* \"#utility.yul\":17696:17700   */\n      dup2\n        /* \"#utility.yul\":17692:17712   */\n      sub\n        /* \"#utility.yul\":17687:17689   */\n      0x20\n        /* \"#utility.yul\":17676:17685   */\n      dup4\n        /* \"#utility.yul\":17672:17690   */\n      add\n        /* \"#utility.yul\":17665:17713   */\n      mstore\n        /* \"#utility.yul\":17730:17806   */\n      tag_577\n        /* \"#utility.yul\":17801:17805   */\n      dup2\n        /* \"#utility.yul\":17792:17798   */\n      dup8\n        /* \"#utility.yul\":17730:17806   */\n      tag_375\n      jump\t// in\n    tag_577:\n        /* \"#utility.yul\":17722:17806   */\n      swap1\n      pop\n        /* \"#utility.yul\":17816:17886   */\n      tag_578\n        /* \"#utility.yul\":17882:17884   */\n      0x40\n        /* \"#utility.yul\":17871:17880   */\n      dup4\n        /* \"#utility.yul\":17867:17885   */\n      add\n        /* \"#utility.yul\":17858:17864   */\n      dup7\n        /* \"#utility.yul\":17816:17886   */\n      tag_378\n      jump\t// in\n    tag_578:\n        /* \"#utility.yul\":17896:17966   */\n      tag_579\n        /* \"#utility.yul\":17962:17964   */\n      0x60\n        /* \"#utility.yul\":17951:17960   */\n      dup4\n        /* \"#utility.yul\":17947:17965   */\n      add\n        /* \"#utility.yul\":17938:17944   */\n      dup6\n        /* \"#utility.yul\":17896:17966   */\n      tag_361\n      jump\t// in\n    tag_579:\n        /* \"#utility.yul\":17976:18049   */\n      tag_580\n        /* \"#utility.yul\":18044:18047   */\n      0x80\n        /* \"#utility.yul\":18033:18042   */\n      dup4\n        /* \"#utility.yul\":18029:18048   */\n      add\n        /* \"#utility.yul\":18020:18026   */\n      dup5\n        /* \"#utility.yul\":17976:18049   */\n      tag_349\n      jump\t// in\n    tag_580:\n        /* \"#utility.yul\":17317:18056   */\n      swap7\n      swap6\n      pop\n      pop\n      pop\n      pop\n      pop\n      pop\n      jump\t// out\n        /* \"#utility.yul\":18062:18205   */\n    tag_379:\n        /* \"#utility.yul\":18119:18124   */\n      0x00\n        /* \"#utility.yul\":18150:18156   */\n      dup2\n        /* \"#utility.yul\":18144:18157   */\n      mload\n        /* \"#utility.yul\":18135:18157   */\n      swap1\n      pop\n        /* \"#utility.yul\":18166:18199   */\n      tag_582\n        /* \"#utility.yul\":18193:18198   */\n      dup2\n        /* \"#utility.yul\":18166:18199   */\n      tag_335\n      jump\t// in\n    tag_582:\n        /* \"#utility.yul\":18062:18205   */\n      swap3\n      swap2\n      pop\n      pop\n      jump\t// out\n        /* \"#utility.yul\":18211:18562   */\n    tag_208:\n        /* \"#utility.yul\":18281:18287   */\n      0x00\n        /* \"#utility.yul\":18330:18332   */\n      0x20\n        /* \"#utility.yul\":18318:18327   */\n      dup3\n        /* \"#utility.yul\":18309:18316   */\n      dup5\n        /* \"#utility.yul\":18305:18328   */\n      sub\n        /* \"#utility.yul\":18301:18333   */\n      slt\n        /* \"#utility.yul\":18298:18417   */\n      iszero\n      tag_584\n      jumpi\n        /* \"#utility.yul\":18336:18415   */\n      tag_585\n      tag_327\n      jump\t// in\n    tag_585:\n        /* \"#utility.yul\":18298:18417   */\n    tag_584:\n        /* \"#utility.yul\":18456:18457   */\n      0x00\n        /* \"#utility.yul\":18481:18545   */\n      tag_586\n        /* \"#utility.yul\":18537:18544   */\n      dup5\n        /* \"#utility.yul\":18528:18534   */\n      dup3\n        /* \"#utility.yul\":18517:18526   */\n      dup6\n        /* \"#utility.yul\":18513:18535   */\n      add\n        /* \"#utility.yul\":18481:18545   */\n      tag_379\n      jump\t// in\n    tag_586:\n        /* \"#utility.yul\":18471:18545   */\n      swap2\n      pop\n        /* \"#utility.yul\":18427:18555   */\n      pop\n        /* \"#utility.yul\":18211:18562   */\n      swap3\n      swap2\n      pop\n      pop\n      jump\t// out\n        /* \"#utility.yul\":18568:18741   */\n    tag_380:\n        /* \"#utility.yul\":18708:18733   */\n      0x43616e6e6f74207472616e7366657220746f2073656c66000000000000000000\n        /* \"#utility.yul\":18704:18705   */\n      0x00\n        /* \"#utility.yul\":18696:18702   */\n      dup3\n        /* \"#utility.yul\":18692:18706   */\n      add\n        /* \"#utility.yul\":18685:18734   */\n      mstore\n        /* \"#utility.yul\":18568:18741   */\n      pop\n      jump\t// out\n        /* \"#utility.yul\":18747:19113   */\n    tag_381:\n        /* \"#utility.yul\":18889:18892   */\n      0x00\n        /* \"#utility.yul\":18910:18977   */\n      tag_589\n        /* \"#utility.yul\":18974:18976   */\n      0x17\n        /* \"#utility.yul\":18969:18972   */\n      dup4\n        /* \"#utility.yul\":18910:18977   */\n      tag_362\n      jump\t// in\n    tag_589:\n        /* \"#utility.yul\":18903:18977   */\n      swap2\n      pop\n        /* \"#utility.yul\":18986:19079   */\n      tag_590\n        /* \"#utility.yul\":19075:19078   */\n      dup3\n        /* \"#utility.yul\":18986:19079   */\n      tag_380\n      jump\t// in\n    tag_590:\n        /* \"#utility.yul\":19104:19106   */\n      0x20\n        /* \"#utility.yul\":19099:19102   */\n      dup3\n        /* \"#utility.yul\":19095:19107   */\n      add\n        /* \"#utility.yul\":19088:19107   */\n      swap1\n      pop\n        /* \"#utility.yul\":18747:19113   */\n      swap2\n      swap1\n      pop\n      jump\t// out\n        /* \"#utility.yul\":19119:19538   */\n    tag_212:\n        /* \"#utility.yul\":19285:19289   */\n      0x00\n        /* \"#utility.yul\":19323:19325   */\n      0x20\n        /* \"#utility.yul\":19312:19321   */\n      dup3\n        /* \"#utility.yul\":19308:19326   */\n      add\n        /* \"#utility.yul\":19300:19326   */\n      swap1\n      pop\n        /* \"#utility.yul\":19372:19381   */\n      dup2\n        /* \"#utility.yul\":19366:19370   */\n      dup2\n        /* \"#utility.yul\":19362:19382   */\n      sub\n        /* \"#utility.yul\":19358:19359   */\n      0x00\n        /* \"#utility.yul\":19347:19356   */\n      dup4\n        /* \"#utility.yul\":19343:19360   */\n      add\n        /* \"#utility.yul\":19336:19383   */\n      mstore\n        /* \"#utility.yul\":19400:19531   */\n      tag_592\n        /* \"#utility.yul\":19526:19530   */\n      dup2\n        /* \"#utility.yul\":19400:19531   */\n      tag_381\n      jump\t// in\n    tag_592:\n        /* \"#utility.yul\":19392:19531   */\n      swap1\n      pop\n        /* \"#utility.yul\":19119:19538   */\n      swap2\n      swap1\n      pop\n      jump\t// out\n        /* \"#utility.yul\":19544:19735   */\n    tag_242:\n        /* \"#utility.yul\":19584:19587   */\n      0x00\n        /* \"#utility.yul\":19603:19623   */\n      tag_594\n        /* \"#utility.yul\":19621:19622   */\n      dup3\n        /* \"#utility.yul\":19603:19623   */\n      tag_329\n      jump\t// in\n    tag_594:\n        /* \"#utility.yul\":19598:19623   */\n      swap2\n      pop\n        /* \"#utility.yul\":19637:19657   */\n      tag_595\n        /* \"#utility.yul\":19655:19656   */\n      dup4\n        /* \"#utility.yul\":19637:19657   */\n      tag_329\n      jump\t// in\n    tag_595:\n        /* \"#utility.yul\":19632:19657   */\n      swap3\n      pop\n        /* \"#utility.yul\":19680:19681   */\n      dup3\n        /* \"#utility.yul\":19677:19678   */\n      dup3\n        /* \"#utility.yul\":19673:19682   */\n      add\n        /* \"#utility.yul\":19666:19682   */\n      swap1\n      pop\n        /* \"#utility.yul\":19701:19704   */\n      dup1\n        /* \"#utility.yul\":19698:19699   */\n      dup3\n        /* \"#utility.yul\":19695:19705   */\n      gt\n        /* \"#utility.yul\":19692:19728   */\n      iszero\n      tag_596\n      jumpi\n        /* \"#utility.yul\":19708:19726   */\n      tag_597\n      tag_365\n      jump\t// in\n    tag_597:\n        /* \"#utility.yul\":19692:19728   */\n    tag_596:\n        /* \"#utility.yul\":19544:19735   */\n      swap3\n      swap2\n      pop\n      pop\n      jump\t// out\n        /* \"#utility.yul\":19741:19917   */\n    tag_253:\n        /* \"#utility.yul\":19773:19774   */\n      0x00\n        /* \"#utility.yul\":19790:19810   */\n      tag_599\n        /* \"#utility.yul\":19808:19809   */\n      dup3\n        /* \"#utility.yul\":19790:19810   */\n      tag_329\n      jump\t// in\n    tag_599:\n        /* \"#utility.yul\":19785:19810   */\n      swap2\n      pop\n        /* \"#utility.yul\":19824:19844   */\n      tag_600\n        /* \"#utility.yul\":19842:19843   */\n      dup4\n        /* \"#utility.yul\":19824:19844   */\n      tag_329\n      jump\t// in\n    tag_600:\n        /* \"#utility.yul\":19819:19844   */\n      swap3\n      pop\n        /* \"#utility.yul\":19863:19864   */\n      dup3\n        /* \"#utility.yul\":19853:19888   */\n      tag_601\n      jumpi\n        /* \"#utility.yul\":19868:19886   */\n      tag_602\n      tag_368\n      jump\t// in\n    tag_602:\n        /* \"#utility.yul\":19853:19888   */\n    tag_601:\n        /* \"#utility.yul\":19909:19910   */\n      dup3\n        /* \"#utility.yul\":19906:19907   */\n      dup3\n        /* \"#utility.yul\":19902:19911   */\n      mod\n        /* \"#utility.yul\":19897:19911   */\n      swap1\n      pop\n        /* \"#utility.yul\":19741:19917   */\n      swap3\n      swap2\n      pop\n      pop\n      jump\t// out\n        /* \"#utility.yul\":19923:20025   */\n    tag_382:\n        /* \"#utility.yul\":19965:19973   */\n      0x00\n        /* \"#utility.yul\":20012:20017   */\n      dup2\n        /* \"#utility.yul\":20009:20010   */\n      0x01\n        /* \"#utility.yul\":20005:20018   */\n      shr\n        /* \"#utility.yul\":19984:20018   */\n      swap1\n      pop\n        /* \"#utility.yul\":19923:20025   */\n      swap2\n      swap1\n      pop\n      jump\t// out\n        /* \"#utility.yul\":20031:20879   */\n    tag_383:\n        /* \"#utility.yul\":20092:20097   */\n      0x00\n        /* \"#utility.yul\":20099:20103   */\n      dup1\n        /* \"#utility.yul\":20123:20129   */\n      dup3\n        /* \"#utility.yul\":20114:20129   */\n      swap2\n      pop\n        /* \"#utility.yul\":20147:20152   */\n      dup4\n        /* \"#utility.yul\":20138:20152   */\n      swap1\n      pop\n        /* \"#utility.yul\":20161:20873   */\n    tag_605:\n        /* \"#utility.yul\":20182:20183   */\n      0x01\n        /* \"#utility.yul\":20172:20180   */\n      dup6\n        /* \"#utility.yul\":20169:20184   */\n      gt\n        /* \"#utility.yul\":20161:20873   */\n      iszero\n      tag_607\n      jumpi\n        /* \"#utility.yul\":20277:20281   */\n      dup1\n        /* \"#utility.yul\":20272:20275   */\n      dup7\n        /* \"#utility.yul\":20268:20282   */\n      div\n        /* \"#utility.yul\":20262:20266   */\n      dup2\n        /* \"#utility.yul\":20259:20283   */\n      gt\n        /* \"#utility.yul\":20256:20306   */\n      iszero\n      tag_608\n      jumpi\n        /* \"#utility.yul\":20286:20304   */\n      tag_609\n      tag_365\n      jump\t// in\n    tag_609:\n        /* \"#utility.yul\":20256:20306   */\n    tag_608:\n        /* \"#utility.yul\":20336:20337   */\n      0x01\n        /* \"#utility.yul\":20326:20334   */\n      dup6\n        /* \"#utility.yul\":20322:20338   */\n      and\n        /* \"#utility.yul\":20319:20770   */\n      iszero\n      tag_610\n      jumpi\n        /* \"#utility.yul\":20751:20755   */\n      dup1\n        /* \"#utility.yul\":20744:20749   */\n      dup3\n        /* \"#utility.yul\":20740:20756   */\n      mul\n        /* \"#utility.yul\":20731:20756   */\n      swap2\n      pop\n        /* \"#utility.yul\":20319:20770   */\n    tag_610:\n        /* \"#utility.yul\":20801:20805   */\n      dup1\n        /* \"#utility.yul\":20795:20799   */\n      dup2\n        /* \"#utility.yul\":20791:20806   */\n      mul\n        /* \"#utility.yul\":20783:20806   */\n      swap1\n      pop\n        /* \"#utility.yul\":20831:20863   */\n      tag_611\n        /* \"#utility.yul\":20854:20862   */\n      dup6\n        /* \"#utility.yul\":20831:20863   */\n      tag_382\n      jump\t// in\n    tag_611:\n        /* \"#utility.yul\":20819:20863   */\n      swap5\n      pop\n        /* \"#utility.yul\":20161:20873   */\n      jump(tag_605)\n    tag_607:\n        /* \"#utility.yul\":20031:20879   */\n      swap5\n      pop\n      swap5\n      swap3\n      pop\n      pop\n      pop\n      jump\t// out\n        /* \"#utility.yul\":20885:21958   */\n    tag_384:\n        /* \"#utility.yul\":20939:20944   */\n      0x00\n        /* \"#utility.yul\":21130:21138   */\n      dup3\n        /* \"#utility.yul\":21120:21160   */\n      tag_613\n      jumpi\n        /* \"#utility.yul\":21151:21152   */\n      0x01\n        /* \"#utility.yul\":21142:21152   */\n      swap1\n      pop\n        /* \"#utility.yul\":21153:21158   */\n      jump(tag_612)\n        /* \"#utility.yul\":21120:21160   */\n    tag_613:\n        /* \"#utility.yul\":21179:21183   */\n      dup2\n        /* \"#utility.yul\":21169:21205   */\n      tag_614\n      jumpi\n        /* \"#utility.yul\":21196:21197   */\n      0x00\n        /* \"#utility.yul\":21187:21197   */\n      swap1\n      pop\n        /* \"#utility.yul\":21198:21203   */\n      jump(tag_612)\n        /* \"#utility.yul\":21169:21205   */\n    tag_614:\n        /* \"#utility.yul\":21265:21269   */\n      dup2\n        /* \"#utility.yul\":21313:21314   */\n      0x01\n        /* \"#utility.yul\":21308:21335   */\n      dup2\n      eq\n      tag_616\n      jumpi\n        /* \"#utility.yul\":21349:21350   */\n      0x02\n        /* \"#utility.yul\":21344:21535   */\n      dup2\n      eq\n      tag_617\n      jumpi\n        /* \"#utility.yul\":21258:21535   */\n      jump(tag_615)\n        /* \"#utility.yul\":21308:21335   */\n    tag_616:\n        /* \"#utility.yul\":21326:21327   */\n      0x01\n        /* \"#utility.yul\":21317:21327   */\n      swap2\n      pop\n        /* \"#utility.yul\":21328:21333   */\n      pop\n      jump(tag_612)\n        /* \"#utility.yul\":21344:21535   */\n    tag_617:\n        /* \"#utility.yul\":21389:21392   */\n      0xff\n        /* \"#utility.yul\":21379:21387   */\n      dup5\n        /* \"#utility.yul\":21376:21393   */\n      gt\n        /* \"#utility.yul\":21373:21416   */\n      iszero\n      tag_618\n      jumpi\n        /* \"#utility.yul\":21396:21414   */\n      tag_619\n      tag_365\n      jump\t// in\n    tag_619:\n        /* \"#utility.yul\":21373:21416   */\n    tag_618:\n        /* \"#utility.yul\":21445:21453   */\n      dup4\n        /* \"#utility.yul\":21442:21443   */\n      0x02\n        /* \"#utility.yul\":21438:21454   */\n      exp\n        /* \"#utility.yul\":21429:21454   */\n      swap2\n      pop\n        /* \"#utility.yul\":21480:21483   */\n      dup5\n        /* \"#utility.yul\":21473:21478   */\n      dup3\n        /* \"#utility.yul\":21470:21484   */\n      gt\n        /* \"#utility.yul\":21467:21507   */\n      iszero\n      tag_620\n      jumpi\n        /* \"#utility.yul\":21487:21505   */\n      tag_621\n      tag_365\n      jump\t// in\n    tag_621:\n        /* \"#utility.yul\":21467:21507   */\n    tag_620:\n        /* \"#utility.yul\":21520:21525   */\n      pop\n      jump(tag_612)\n        /* \"#utility.yul\":21258:21535   */\n    tag_615:\n      pop\n        /* \"#utility.yul\":21644:21646   */\n      0x20\n        /* \"#utility.yul\":21634:21642   */\n      dup4\n        /* \"#utility.yul\":21631:21647   */\n      lt\n        /* \"#utility.yul\":21625:21628   */\n      0x0133\n        /* \"#utility.yul\":21619:21623   */\n      dup4\n        /* \"#utility.yul\":21616:21629   */\n      lt\n        /* \"#utility.yul\":21612:21648   */\n      and\n        /* \"#utility.yul\":21594:21596   */\n      0x4e\n        /* \"#utility.yul\":21584:21592   */\n      dup5\n        /* \"#utility.yul\":21581:21597   */\n      lt\n        /* \"#utility.yul\":21576:21578   */\n      0x0b\n        /* \"#utility.yul\":21570:21574   */\n      dup5\n        /* \"#utility.yul\":21567:21579   */\n      lt\n        /* \"#utility.yul\":21563:21598   */\n      and\n        /* \"#utility.yul\":21547:21658   */\n      or\n        /* \"#utility.yul\":21544:21790   */\n      iszero\n      tag_622\n      jumpi\n        /* \"#utility.yul\":21700:21708   */\n      dup3\n        /* \"#utility.yul\":21694:21698   */\n      dup3\n        /* \"#utility.yul\":21690:21709   */\n      exp\n        /* \"#utility.yul\":21681:21709   */\n      swap1\n      pop\n        /* \"#utility.yul\":21735:21738   */\n      dup4\n        /* \"#utility.yul\":21728:21733   */\n      dup2\n        /* \"#utility.yul\":21725:21739   */\n      gt\n        /* \"#utility.yul\":21722:21762   */\n      iszero\n      tag_623\n      jumpi\n        /* \"#utility.yul\":21742:21760   */\n      tag_624\n      tag_365\n      jump\t// in\n    tag_624:\n        /* \"#utility.yul\":21722:21762   */\n    tag_623:\n        /* \"#utility.yul\":21775:21780   */\n      jump(tag_612)\n        /* \"#utility.yul\":21544:21790   */\n    tag_622:\n        /* \"#utility.yul\":21815:21857   */\n      tag_625\n        /* \"#utility.yul\":21853:21856   */\n      dup5\n        /* \"#utility.yul\":21843:21851   */\n      dup5\n        /* \"#utility.yul\":21837:21841   */\n      dup5\n        /* \"#utility.yul\":21834:21835   */\n      0x01\n        /* \"#utility.yul\":21815:21857   */\n      tag_383\n      jump\t// in\n    tag_625:\n        /* \"#utility.yul\":21800:21857   */\n      swap3\n      pop\n      swap1\n      pop\n        /* \"#utility.yul\":21889:21893   */\n      dup2\n        /* \"#utility.yul\":21884:21887   */\n      dup5\n        /* \"#utility.yul\":21880:21894   */\n      div\n        /* \"#utility.yul\":21873:21878   */\n      dup2\n        /* \"#utility.yul\":21870:21895   */\n      gt\n        /* \"#utility.yul\":21867:21918   */\n      iszero\n      tag_626\n      jumpi\n        /* \"#utility.yul\":21898:21916   */\n      tag_627\n      tag_365\n      jump\t// in\n    tag_627:\n        /* \"#utility.yul\":21867:21918   */\n    tag_626:\n        /* \"#utility.yul\":21947:21951   */\n      dup2\n        /* \"#utility.yul\":21940:21945   */\n      dup2\n        /* \"#utility.yul\":21936:21952   */\n      mul\n        /* \"#utility.yul\":21927:21952   */\n      swap1\n      pop\n        /* \"#utility.yul\":20885:21958   */\n    tag_612:\n      swap4\n      swap3\n      pop\n      pop\n      pop\n      jump\t// out\n        /* \"#utility.yul\":21964:22249   */\n    tag_299:\n        /* \"#utility.yul\":22024:22029   */\n      0x00\n        /* \"#utility.yul\":22048:22071   */\n      tag_629\n        /* \"#utility.yul\":22066:22070   */\n      dup3\n        /* \"#utility.yul\":22048:22071   */\n      tag_329\n      jump\t// in\n    tag_629:\n        /* \"#utility.yul\":22040:22071   */\n      swap2\n      pop\n        /* \"#utility.yul\":22092:22119   */\n      tag_630\n        /* \"#utility.yul\":22110:22118   */\n      dup4\n        /* \"#utility.yul\":22092:22119   */\n      tag_329\n      jump\t// in\n    tag_630:\n        /* \"#utility.yul\":22080:22119   */\n      swap3\n      pop\n        /* \"#utility.yul\":22138:22242   */\n      tag_631\n        /* \"#utility.yul\":22175:22241   */\n      0xffffffffffffffffffffffffffffffffffffffffffffffffffffffffffffffff\n        /* \"#utility.yul\":22165:22173   */\n      dup5\n        /* \"#utility.yul\":22159:22163   */\n      dup5\n        /* \"#utility.yul\":22138:22242   */\n      tag_384\n      jump\t// in\n    tag_631:\n        /* \"#utility.yul\":22129:22242   */\n      swap1\n      pop\n        /* \"#utility.yul\":21964:22249   */\n      swap3\n      swap2\n      pop\n      pop\n      jump\t// out\n\n    auxdata: 0xa2646970667358221220121b86cc53d6124d345eb9efd19cfafba469553f8a48a28f69f5a8c1e598a58464736f6c63430008140033\n}\n",
				"bytecode": {
					"linkReferences": {},
					"object": "60a0604052620493e0600560086101000a81548163ffffffff021916908363ffffffff160217905550604051806101a00160405280610169815260200162002a4b610169913960079081620000559190620005aa565b5034801562000062575f80fd5b5033805f73b83e47c2bc239b3bf370bc41e1459a34b41238d08073ffffffffffffffffffffffffffffffffffffffff1660808173ffffffffffffffffffffffffffffffffffffffff1681525050505f73ffffffffffffffffffffffffffffffffffffffff168273ffffffffffffffffffffffffffffffffffffffff160362000121576040517f08c379a00000000000000000000000000000000000000000000000000000000081526004016200011890620006ec565b60405180910390fd5b815f806101000a81548173ffffffffffffffffffffffffffffffffffffffff021916908373ffffffffffffffffffffffffffffffffffffffff1602179055505f73ffffffffffffffffffffffffffffffffffffffff168173ffffffffffffffffffffffffffffffffffffffff1614620001a657620001a5816200021960201b60201c565b5b50505061160760055f6101000a81548167ffffffffffffffff021916908367ffffffffffffffff1602179055507f66756e2d657468657265756d2d7365706f6c69612d31000000000000000000005f1b6006819055506801158e460913d00000600281905550426003819055506200077a565b3373ffffffffffffffffffffffffffffffffffffffff168173ffffffffffffffffffffffffffffffffffffffff16036200028a576040517f08c379a000000000000000000000000000000000000000000000000000000000815260040162000281906200075a565b60405180910390fd5b8060015f6101000a81548173ffffffffffffffffffffffffffffffffffffffff021916908373ffffffffffffffffffffffffffffffffffffffff1602179055508073ffffffffffffffffffffffffffffffffffffffff165f8054906101000a900473ffffffffffffffffffffffffffffffffffffffff1673ffffffffffffffffffffffffffffffffffffffff167fed8889f560326eb138920d842192f0eb3dd22b4f139c87a2c57538e05bae127860405160405180910390a350565b5f81519050919050565b7f4e487b71000000000000000000000000000000000000000000000000000000005f52604160045260245ffd5b7f4e487b71000000000000000000000000000000000000000000000000000000005f52602260045260245ffd5b5f6002820490506001821680620003c257607f821691505b602082108103620003d857620003d76200037d565b5b50919050565b5f819050815f5260205f209050919050565b5f6020601f8301049050919050565b5f82821b905092915050565b5f600883026200043c7fffffffffffffffffffffffffffffffffffffffffffffffffffffffffffffffff82620003ff565b620004488683620003ff565b95508019841693508086168417925050509392505050565b5f819050919050565b5f819050919050565b5f620004926200048c620004868462000460565b62000469565b62000460565b9050919050565b5f819050919050565b620004ad8362000472565b620004c5620004bc8262000499565b8484546200040b565b825550505050565b5f90565b620004db620004cd565b620004e8818484620004a2565b505050565b5b818110156200050f57620005035f82620004d1565b600181019050620004ee565b5050565b601f8211156200055e576200052881620003de565b6200053384620003f0565b8101602085101562000543578190505b6200055b6200055285620003f0565b830182620004ed565b50505b505050565b5f82821c905092915050565b5f620005805f198460080262000563565b1980831691505092915050565b5f6200059a83836200056f565b9150826002028217905092915050565b620005b58262000346565b67ffffffffffffffff811115620005d157620005d062000350565b5b620005dd8254620003aa565b620005ea82828562000513565b5f60209050601f83116001811462000620575f84156200060b578287015190505b6200061785826200058d565b86555062000686565b601f1984166200063086620003de565b5f5b82811015620006595784890151825560018201915060208501945060208101905062000632565b8683101562000679578489015162000675601f8916826200056f565b8355505b6001600288020188555050505b505050505050565b5f82825260208201905092915050565b7f43616e6e6f7420736574206f776e657220746f207a65726f00000000000000005f82015250565b5f620006d46018836200068e565b9150620006e1826200069e565b602082019050919050565b5f6020820190508181035f8301526200070581620006c6565b9050919050565b7f43616e6e6f74207472616e7366657220746f2073656c660000000000000000005f82015250565b5f620007426017836200068e565b91506200074f826200070c565b602082019050919050565b5f6020820190508181035f830152620007738162000734565b9050919050565b6080516122b16200079a5f395f818161038e0152610d9701526122b15ff3fe608060405234801561000f575f80fd5b50600436106100fe575f3560e01c80639c84cd1011610095578063ec2b70a411610064578063ec2b70a414610254578063f2fde38b14610272578063f68016b71461028e578063fc2a88c3146102ac576100fe565b80639c84cd10146101da578063afdb0556146101fc578063c8f33c911461021a578063d0f784f014610238576100fe565b80636e74336b116100d15780636e74336b1461017657806379ba5097146101945780638da5cb5b1461019e5780638e15f473146101bc576100fe565b806305239ca11461010257806309c1ba2e1461011e5780630ca761751461013c5780632f5df72514610158575b5f80fd5b61011c60048036038101906101179190611687565b6102ca565b005b610126610373565b60405161013391906116d4565b60405180910390f35b6101566004803603810190610151919061185c565b61038c565b005b61016061044e565b60405161016d91906118fe565b60405180910390f35b61017e610466565b60405161018b9190611926565b60405180910390f35b61019c61046c565b005b6101a66105fb565b6040516101b3919061197e565b60405180910390f35b6101c4610622565b6040516101d191906119a6565b60405180910390f35b6101e261062b565b6040516101f39594939291906119bf565b60405180910390f35b61020461066e565b6040516102119190611926565b60405180910390f35b610222610789565b60405161022f91906119a6565b60405180910390f35b610252600480360381019061024d9190611a73565b61078f565b005b61025c6107ec565b60405161026991906119a6565b60405180910390f35b61028c60048036038101906102879190611aed565b610808565b005b61029661081c565b6040516102a39190611b27565b60405180910390f35b6102b4610832565b6040516102c19190611926565b60405180910390f35b6102d2610838565b5f8111610314576040517f08c379a000000000000000000000000000000000000000000000000000000000815260040161030b90611b9a565b60405180910390fd5b670de0b6b3a7640000816103289190611be5565b600281905550426003819055507f945c1c4e99aa89f648fbfe3df471b916f719e16d960fcec0737d4d56bd69683860025442604051610368929190611c26565b60405180910390a150565b60055f9054906101000a900467ffffffffffffffff1681565b7f000000000000000000000000000000000000000000000000000000000000000073ffffffffffffffffffffffffffffffffffffffff163373ffffffffffffffffffffffffffffffffffffffff1614610411576040517fc6829f8300000000000000000000000000000000000000000000000000000000815260040160405180910390fd5b61041c8383836108c7565b827f85e1543bf2f84fe80c6badbce3648c8539ad1df4d2b3d822938ca0538be727e660405160405180910390a2505050565b5f610e10600354426104609190611c4d565b11905090565b60065481565b60015f9054906101000a900473ffffffffffffffffffffffffffffffffffffffff1673ffffffffffffffffffffffffffffffffffffffff163373ffffffffffffffffffffffffffffffffffffffff16146104fb576040517f08c379a00000000000000000000000000000000000000000000000000000000081526004016104f290611cca565b60405180910390fd5b5f805f9054906101000a900473ffffffffffffffffffffffffffffffffffffffff169050335f806101000a81548173ffffffffffffffffffffffffffffffffffffffff021916908373ffffffffffffffffffffffffffffffffffffffff1602179055505f60015f6101000a81548173ffffffffffffffffffffffffffffffffffffffff021916908373ffffffffffffffffffffffffffffffffffffffff1602179055503373ffffffffffffffffffffffffffffffffffffffff168173ffffffffffffffffffffffffffffffffffffffff167f8be0079c531659141344cd1fd0a4f28419497f9722a3daafe3b4186f6b6457e060405160405180910390a350565b5f805f9054906101000a900473ffffffffffffffffffffffffffffffffffffffff16905090565b5f600254905090565b5f805f805f600254670de0b6b3a76400006002546106499190611d15565b6003546003544261065a9190611c4d565b600454945094509450945094509091929394565b5f61067761159c565b6107126007805461068790611d72565b80601f01602080910402602001604051908101604052809291908181526020018280546106b390611d72565b80156106fe5780601f106106d5576101008083540402835291602001916106fe565b820191905f5260205f20905b8154815290600101906020018083116106e157829003601f168201915b50505050508261097290919063ffffffff16565b61074f61071e82610982565b60055f9054906101000a900467ffffffffffffffff16600560089054906101000a900463ffffffff16600654610d93565b915081600481905550817f655f2dca0174ce451aa939c62ea493c734778cc67c6783626b08ad34985e6c6160405160405180910390a25090565b60035481565b610797610838565b8260055f6101000a81548167ffffffffffffffff021916908367ffffffffffffffff16021790555081600560086101000a81548163ffffffff021916908363ffffffff16021790555080600681905550505050565b5f670de0b6b3a76400006002546108039190611d15565b905090565b610810610838565b61081981610e72565b50565b600560089054906101000a900463ffffffff1681565b60045481565b5f8054906101000a900473ffffffffffffffffffffffffffffffffffffffff1673ffffffffffffffffffffffffffffffffffffffff163373ffffffffffffffffffffffffffffffffffffffff16146108c5576040517f08c379a00000000000000000000000000000000000000000000000000000000081526004016108bc90611dec565b60405180910390fd5b565b5f8151111561090d57827f61982c98cbc49d11759a948f460b92bca26bdf12ceee12c310f117eb2ca9a9cb826040516109009190611e84565b60405180910390a261096d565b5f828060200190518101906109229190611eb8565b905080600281905550426003819055507f945c1c4e99aa89f648fbfe3df471b916f719e16d960fcec0737d4d56bd6968388142604051610963929190611c26565b60405180910390a1505b505050565b61097e825f8084610f9c565b5050565b60605f610990610100611042565b90506109da6040518060400160405280600c81526020017f636f64654c6f636174696f6e00000000000000000000000000000000000000008152508261106790919063ffffffff16565b610a02835f015160028111156109f3576109f2611ee3565b5b8261108f90919063ffffffff16565b610a4a6040518060400160405280600881526020017f6c616e67756167650000000000000000000000000000000000000000000000008152508261106790919063ffffffff16565b610a7283604001515f811115610a6357610a62611ee3565b5b8261108f90919063ffffffff16565b610aba6040518060400160405280600681526020017f736f7572636500000000000000000000000000000000000000000000000000008152508261106790919063ffffffff16565b610ad183606001518261106790919063ffffffff16565b5f8360a00151511115610b8b57610b266040518060400160405280600481526020017f61726773000000000000000000000000000000000000000000000000000000008152508261106790919063ffffffff16565b610b2f816110de565b5f5b8360a0015151811015610b8057610b6f8460a001518281518110610b5857610b57611f10565b5b60200260200101518361106790919063ffffffff16565b80610b7990611f3d565b9050610b31565b50610b8a81611106565b5b5f8360800151511115610cca575f6002811115610bab57610baa611ee3565b5b83602001516002811115610bc257610bc1611ee3565b5b03610bf9576040517fa80d31f700000000000000000000000000000000000000000000000000000000815260040160405180910390fd5b610c416040518060400160405280600f81526020017f736563726574734c6f636174696f6e00000000000000000000000000000000008152508261106790919063ffffffff16565b610c6a83602001516002811115610c5b57610c5a611ee3565b5b8261108f90919063ffffffff16565b610cb26040518060400160405280600781526020017f73656372657473000000000000000000000000000000000000000000000000008152508261106790919063ffffffff16565b610cc983608001518261112e90919063ffffffff16565b5b5f8360c00151511115610d8457610d1f6040518060400160405280600981526020017f62797465734172677300000000000000000000000000000000000000000000008152508261106790919063ffffffff16565b610d28816110de565b5f5b8360c0015151811015610d7957610d688460c001518281518110610d5157610d50611f10565b5b60200260200101518361112e90919063ffffffff16565b80610d7290611f3d565b9050610d2a565b50610d8381611106565b5b805f01515f0151915050919050565b5f807f000000000000000000000000000000000000000000000000000000000000000073ffffffffffffffffffffffffffffffffffffffff1663461d27628688600188886040518663ffffffff1660e01b8152600401610df7959493929190611fa0565b6020604051808303815f875af1158015610e13573d5f803e3d5ffd5b505050506040513d601f19601f82011682018060405250810190610e37919061200c565b9050807f1131472297a800fee664d1d89cfa8f7676ff07189ecc53f80bbb5f4969099db860405160405180910390a280915050949350505050565b3373ffffffffffffffffffffffffffffffffffffffff168173ffffffffffffffffffffffffffffffffffffffff1603610ee0576040517f08c379a0000000000000000000000000000000000000000000000000000000008152600401610ed790612081565b60405180910390fd5b8060015f6101000a81548173ffffffffffffffffffffffffffffffffffffffff021916908373ffffffffffffffffffffffffffffffffffffffff1602179055508073ffffffffffffffffffffffffffffffffffffffff165f8054906101000a900473ffffffffffffffffffffffffffffffffffffffff1673ffffffffffffffffffffffffffffffffffffffff167fed8889f560326eb138920d842192f0eb3dd22b4f139c87a2c57538e05bae127860405160405180910390a350565b5f815103610fd6576040517f22ce3edd00000000000000000000000000000000000000000000000000000000815260040160405180910390fd5b82845f01906002811115610fed57610fec611ee3565b5b9081600281111561100157611000611ee3565b5b815250508184604001905f81111561101c5761101b611ee3565b5b90815f81111561102f5761102e611ee3565b5b8152505080846060018190525050505050565b61104a61160b565b611057815f015183611156565b505f816020018181525050919050565b61107482600383516111cc565b61108a81835f015161136c90919063ffffffff16565b505050565b6110b060026005600660ff16901b17835f015161138890919063ffffffff16565b506110da82826040516020016110c691906119a6565b60405160208183030381529060405261112e565b5050565b6110e98160046113ef565b6001816020018181516110fc919061209f565b9150818152505050565b6111118160076113ef565b6001816020018181516111249190611c4d565b9150818152505050565b61113b82600283516111cc565b61115181835f015161136c90919063ffffffff16565b505050565b61115e61162a565b5f60208361116c91906120d2565b146111985760208261117e91906120d2565b602061118a9190611c4d565b82611195919061209f565b91505b818360200181815250506040518084525f8152828101602001818110156111bd575f80fd5b80604052505082905092915050565b60178167ffffffffffffffff1611611206576112008160058460ff16901b60ff1617845f015161138890919063ffffffff16565b50611367565b60ff8167ffffffffffffffff161161126257611238601860058460ff16901b17845f015161138890919063ffffffff16565b5061125c8167ffffffffffffffff166001855f01516114149092919063ffffffff16565b50611366565b61ffff8167ffffffffffffffff16116112bf57611295601960058460ff16901b17845f015161138890919063ffffffff16565b506112b98167ffffffffffffffff166002855f01516114149092919063ffffffff16565b50611365565b63ffffffff8167ffffffffffffffff161161131e576112f4601a60058460ff16901b17845f015161138890919063ffffffff16565b506113188167ffffffffffffffff166004855f01516114149092919063ffffffff16565b50611364565b61133e601b60058460ff16901b17845f015161138890919063ffffffff16565b506113628167ffffffffffffffff166008855f01516114149092919063ffffffff16565b505b5b5b5b505050565b61137461162a565b6113808383845161149d565b905092915050565b61139061162a565b5f835f01515190505f6001826113a6919061209f565b9050846020015182106113ca576113c9856002836113c49190611be5565b61157a565b5b845160208382010185815381518311156113e2578282525b5050849250505092915050565b61140f601f60058360ff16901b17835f015161138890919063ffffffff16565b505050565b61141c61162a565b5f845f01515190505f8184611431919061209f565b9050856020015181111561145657611455866002836114509190611be5565b61157a565b5b5f6001856101006114679190612231565b6114719190611c4d565b90508651828101878319825116178152815184111561148e578382525b50508693505050509392505050565b6114a561162a565b82518211156114b2575f80fd5b5f845f01515190505f83826114c7919061209f565b905085602001518111156114ec576114eb866002836114e69190611be5565b61157a565b5b5f8087518051856020830101935080851115611506578482525b60208901925050505b6020861061154d5780518252602082611528919061209f565b9150602081611537919061209f565b90506020866115469190611c4d565b955061150f565b5f6001876020036101000a0390508019825116818451168181178552505050879450505050509392505050565b5f825f0151905061158b8383611156565b50611596838261136c565b50505050565b6040518060e001604052805f60028111156115ba576115b9611ee3565b5b81526020015f60028111156115d2576115d1611ee3565b5b81526020015f808111156115e9576115e8611ee3565b5b8152602001606081526020016060815260200160608152602001606081525090565b604051806040016040528061161e61162a565b81526020015f81525090565b6040518060400160405280606081526020015f81525090565b5f604051905090565b5f80fd5b5f80fd5b5f819050919050565b61166681611654565b8114611670575f80fd5b50565b5f813590506116818161165d565b92915050565b5f6020828403121561169c5761169b61164c565b5b5f6116a984828501611673565b91505092915050565b5f67ffffffffffffffff82169050919050565b6116ce816116b2565b82525050565b5f6020820190506116e75f8301846116c5565b92915050565b5f819050919050565b6116ff816116ed565b8114611709575f80fd5b50565b5f8135905061171a816116f6565b92915050565b5f80fd5b5f80fd5b5f601f19601f8301169050919050565b7f4e487b71000000000000000000000000000000000000000000000000000000005f52604160045260245ffd5b61176e82611728565b810181811067ffffffffffffffff8211171561178d5761178c611738565b5b80604052505050565b5f61179f611643565b90506117ab8282611765565b919050565b5f67ffffffffffffffff8211156117ca576117c9611738565b5b6117d382611728565b9050602081019050919050565b828183375f83830152505050565b5f6118006117fb846117b0565b611796565b90508281526020810184848401111561181c5761181b611724565b5b6118278482856117e0565b509392505050565b5f82601f83011261184357611842611720565b5b81356118538482602086016117ee565b91505092915050565b5f805f606084860312156118735761187261164c565b5b5f6118808682870161170c565b935050602084013567ffffffffffffffff8111156118a1576118a0611650565b5b6118ad8682870161182f565b925050604084013567ffffffffffffffff8111156118ce576118cd611650565b5b6118da8682870161182f565b9150509250925092565b5f8115159050919050565b6118f8816118e4565b82525050565b5f6020820190506119115f8301846118ef565b92915050565b611920816116ed565b82525050565b5f6020820190506119395f830184611917565b92915050565b5f73ffffffffffffffffffffffffffffffffffffffff82169050919050565b5f6119688261193f565b9050919050565b6119788161195e565b82525050565b5f6020820190506119915f83018461196f565b92915050565b6119a081611654565b82525050565b5f6020820190506119b95f830184611997565b92915050565b5f60a0820190506119d25f830188611997565b6119df6020830187611997565b6119ec6040830186611997565b6119f96060830185611997565b611a066080830184611917565b9695505050505050565b611a19816116b2565b8114611a23575f80fd5b50565b5f81359050611a3481611a10565b92915050565b5f63ffffffff82169050919050565b611a5281611a3a565b8114611a5c575f80fd5b50565b5f81359050611a6d81611a49565b92915050565b5f805f60608486031215611a8a57611a8961164c565b5b5f611a9786828701611a26565b9350506020611aa886828701611a5f565b9250506040611ab98682870161170c565b9150509250925092565b611acc8161195e565b8114611ad6575f80fd5b50565b5f81359050611ae781611ac3565b92915050565b5f60208284031215611b0257611b0161164c565b5b5f611b0f84828501611ad9565b91505092915050565b611b2181611a3a565b82525050565b5f602082019050611b3a5f830184611b18565b92915050565b5f82825260208201905092915050565b7f5072696365206d7573742062652067726561746572207468616e2030000000005f82015250565b5f611b84601c83611b40565b9150611b8f82611b50565b602082019050919050565b5f6020820190508181035f830152611bb181611b78565b9050919050565b7f4e487b71000000000000000000000000000000000000000000000000000000005f52601160045260245ffd5b5f611bef82611654565b9150611bfa83611654565b9250828202611c0881611654565b91508282048414831517611c1f57611c1e611bb8565b5b5092915050565b5f604082019050611c395f830185611997565b611c466020830184611997565b9392505050565b5f611c5782611654565b9150611c6283611654565b9250828203905081811115611c7a57611c79611bb8565b5b92915050565b7f4d7573742062652070726f706f736564206f776e6572000000000000000000005f82015250565b5f611cb4601683611b40565b9150611cbf82611c80565b602082019050919050565b5f6020820190508181035f830152611ce181611ca8565b9050919050565b7f4e487b71000000000000000000000000000000000000000000000000000000005f52601260045260245ffd5b5f611d1f82611654565b9150611d2a83611654565b925082611d3a57611d39611ce8565b5b828204905092915050565b7f4e487b71000000000000000000000000000000000000000000000000000000005f52602260045260245ffd5b5f6002820490506001821680611d8957607f821691505b602082108103611d9c57611d9b611d45565b5b50919050565b7f4f6e6c792063616c6c61626c65206279206f776e6572000000000000000000005f82015250565b5f611dd6601683611b40565b9150611de182611da2565b602082019050919050565b5f6020820190508181035f830152611e0381611dca565b9050919050565b5f81519050919050565b5f82825260208201905092915050565b5f5b83811015611e41578082015181840152602081019050611e26565b5f8484015250505050565b5f611e5682611e0a565b611e608185611e14565b9350611e70818560208601611e24565b611e7981611728565b840191505092915050565b5f6020820190508181035f830152611e9c8184611e4c565b905092915050565b5f81519050611eb28161165d565b92915050565b5f60208284031215611ecd57611ecc61164c565b5b5f611eda84828501611ea4565b91505092915050565b7f4e487b71000000000000000000000000000000000000000000000000000000005f52602160045260245ffd5b7f4e487b71000000000000000000000000000000000000000000000000000000005f52603260045260245ffd5b5f611f4782611654565b91507fffffffffffffffffffffffffffffffffffffffffffffffffffffffffffffffff8203611f7957611f78611bb8565b5b600182019050919050565b5f61ffff82169050919050565b611f9a81611f84565b82525050565b5f60a082019050611fb35f8301886116c5565b8181036020830152611fc58187611e4c565b9050611fd46040830186611f91565b611fe16060830185611b18565b611fee6080830184611917565b9695505050505050565b5f81519050612006816116f6565b92915050565b5f602082840312156120215761202061164c565b5b5f61202e84828501611ff8565b91505092915050565b7f43616e6e6f74207472616e7366657220746f2073656c660000000000000000005f82015250565b5f61206b601783611b40565b915061207682612037565b602082019050919050565b5f6020820190508181035f8301526120988161205f565b9050919050565b5f6120a982611654565b91506120b483611654565b92508282019050808211156120cc576120cb611bb8565b5b92915050565b5f6120dc82611654565b91506120e783611654565b9250826120f7576120f6611ce8565b5b828206905092915050565b5f8160011c9050919050565b5f808291508390505b60018511156121575780860481111561213357612132611bb8565b5b60018516156121425780820291505b808102905061215085612102565b9450612117565b94509492505050565b5f8261216f576001905061222a565b8161217c575f905061222a565b8160018114612192576002811461219c576121cb565b600191505061222a565b60ff8411156121ae576121ad611bb8565b5b8360020a9150848211156121c5576121c4611bb8565b5b5061222a565b5060208310610133831016604e8410600b84101617156122005782820a9050838111156121fb576121fa611bb8565b5b61222a565b61220d848484600161210e565b9250905081840481111561222457612223611bb8565b5b81810290505b9392505050565b5f61223b82611654565b915061224683611654565b92506122737fffffffffffffffffffffffffffffffffffffffffffffffffffffffffffffffff8484612160565b90509291505056fea2646970667358221220121b86cc53d6124d345eb9efd19cfafba469553f8a48a28f69f5a8c1e598a58464736f6c63430008140033636f6e737420726573706f6e7365203d2061776169742046756e6374696f6e732e6d616b654874747052657175657374287b75726c3a202768747470733a2f2f7175657279312e66696e616e63652e7961686f6f2e636f6d2f76382f66696e616e63652f63686172742f303035302e5457277d293b69662028726573706f6e73652e6572726f7229207b7468726f77204572726f72282752657175657374206661696c656427293b7d636f6e737420726573756c74203d20726573706f6e73652e646174612e63686172742e726573756c745b305d3b636f6e7374207072696365203d20726573756c742e6d6574612e726567756c61724d61726b657450726963653b6966202821707269636529207b7468726f77204572726f7228275072696365206e6f7420666f756e6427293b7d72657475726e2046756e6374696f6e732e656e636f646555696e74323536284d6174682e726f756e64287072696365202a203165313829293b",
					"opcodes": "PUSH1 0xA0 PUSH1 0x40 MSTORE PUSH3 0x493E0 PUSH1 0x5 PUSH1 0x8 PUSH2 0x100 EXP DUP2 SLOAD DUP2 PUSH4 0xFFFFFFFF MUL NOT AND SWAP1 DUP4 PUSH4 0xFFFFFFFF AND MUL OR SWAP1 SSTORE POP PUSH1 0x40 MLOAD DUP1 PUSH2 0x1A0 ADD PUSH1 0x40 MSTORE DUP1 PUSH2 0x169 DUP2 MSTORE PUSH1 0x20 ADD PUSH3 0x2A4B PUSH2 0x169 SWAP2 CODECOPY PUSH1 0x7 SWAP1 DUP2 PUSH3 0x55 SWAP2 SWAP1 PUSH3 0x5AA JUMP JUMPDEST POP CALLVALUE DUP1 ISZERO PUSH3 0x62 JUMPI PUSH0 DUP1 REVERT JUMPDEST POP CALLER DUP1 PUSH0 PUSH20 0xB83E47C2BC239B3BF370BC41E1459A34B41238D0 DUP1 PUSH20 0xFFFFFFFFFFFFFFFFFFFFFFFFFFFFFFFFFFFFFFFF AND PUSH1 0x80 DUP2 PUSH20 0xFFFFFFFFFFFFFFFFFFFFFFFFFFFFFFFFFFFFFFFF AND DUP2 MSTORE POP POP POP PUSH0 PUSH20 0xFFFFFFFFFFFFFFFFFFFFFFFFFFFFFFFFFFFFFFFF AND DUP3 PUSH20 0xFFFFFFFFFFFFFFFFFFFFFFFFFFFFFFFFFFFFFFFF AND SUB PUSH3 0x121 JUMPI PUSH1 0x40 MLOAD PUSH32 0x8C379A000000000000000000000000000000000000000000000000000000000 DUP2 MSTORE PUSH1 0x4 ADD PUSH3 0x118 SWAP1 PUSH3 0x6EC JUMP JUMPDEST PUSH1 0x40 MLOAD DUP1 SWAP2 SUB SWAP1 REVERT JUMPDEST DUP2 PUSH0 DUP1 PUSH2 0x100 EXP DUP2 SLOAD DUP2 PUSH20 0xFFFFFFFFFFFFFFFFFFFFFFFFFFFFFFFFFFFFFFFF MUL NOT AND SWAP1 DUP4 PUSH20 0xFFFFFFFFFFFFFFFFFFFFFFFFFFFFFFFFFFFFFFFF AND MUL OR SWAP1 SSTORE POP PUSH0 PUSH20 0xFFFFFFFFFFFFFFFFFFFFFFFFFFFFFFFFFFFFFFFF AND DUP2 PUSH20 0xFFFFFFFFFFFFFFFFFFFFFFFFFFFFFFFFFFFFFFFF AND EQ PUSH3 0x1A6 JUMPI PUSH3 0x1A5 DUP2 PUSH3 0x219 PUSH1 0x20 SHL PUSH1 0x20 SHR JUMP JUMPDEST JUMPDEST POP POP POP PUSH2 0x1607 PUSH1 0x5 PUSH0 PUSH2 0x100 EXP DUP2 SLOAD DUP2 PUSH8 0xFFFFFFFFFFFFFFFF MUL NOT AND SWAP1 DUP4 PUSH8 0xFFFFFFFFFFFFFFFF AND MUL OR SWAP1 SSTORE POP PUSH32 0x66756E2D657468657265756D2D7365706F6C69612D3100000000000000000000 PUSH0 SHL PUSH1 0x6 DUP2 SWAP1 SSTORE POP PUSH9 0x1158E460913D00000 PUSH1 0x2 DUP2 SWAP1 SSTORE POP TIMESTAMP PUSH1 0x3 DUP2 SWAP1 SSTORE POP PUSH3 0x77A JUMP JUMPDEST CALLER PUSH20 0xFFFFFFFFFFFFFFFFFFFFFFFFFFFFFFFFFFFFFFFF AND DUP2 PUSH20 0xFFFFFFFFFFFFFFFFFFFFFFFFFFFFFFFFFFFFFFFF AND SUB PUSH3 0x28A JUMPI PUSH1 0x40 MLOAD PUSH32 0x8C379A000000000000000000000000000000000000000000000000000000000 DUP2 MSTORE PUSH1 0x4 ADD PUSH3 0x281 SWAP1 PUSH3 0x75A JUMP JUMPDEST PUSH1 0x40 MLOAD DUP1 SWAP2 SUB SWAP1 REVERT JUMPDEST DUP1 PUSH1 0x1 PUSH0 PUSH2 0x100 EXP DUP2 SLOAD DUP2 PUSH20 0xFFFFFFFFFFFFFFFFFFFFFFFFFFFFFFFFFFFFFFFF MUL NOT AND SWAP1 DUP4 PUSH20 0xFFFFFFFFFFFFFFFFFFFFFFFFFFFFFFFFFFFFFFFF AND MUL OR SWAP1 SSTORE POP DUP1 PUSH20 0xFFFFFFFFFFFFFFFFFFFFFFFFFFFFFFFFFFFFFFFF AND PUSH0 DUP1 SLOAD SWAP1 PUSH2 0x100 EXP SWAP1 DIV PUSH20 0xFFFFFFFFFFFFFFFFFFFFFFFFFFFFFFFFFFFFFFFF AND PUSH20 0xFFFFFFFFFFFFFFFFFFFFFFFFFFFFFFFFFFFFFFFF AND PUSH32 0xED8889F560326EB138920D842192F0EB3DD22B4F139C87A2C57538E05BAE1278 PUSH1 0x40 MLOAD PUSH1 0x40 MLOAD DUP1 SWAP2 SUB SWAP1 LOG3 POP JUMP JUMPDEST PUSH0 DUP2 MLOAD SWAP1 POP SWAP2 SWAP1 POP JUMP JUMPDEST PUSH32 0x4E487B7100000000000000000000000000000000000000000000000000000000 PUSH0 MSTORE PUSH1 0x41 PUSH1 0x4 MSTORE PUSH1 0x24 PUSH0 REVERT JUMPDEST PUSH32 0x4E487B7100000000000000000000000000000000000000000000000000000000 PUSH0 MSTORE PUSH1 0x22 PUSH1 0x4 MSTORE PUSH1 0x24 PUSH0 REVERT JUMPDEST PUSH0 PUSH1 0x2 DUP3 DIV SWAP1 POP PUSH1 0x1 DUP3 AND DUP1 PUSH3 0x3C2 JUMPI PUSH1 0x7F DUP3 AND SWAP2 POP JUMPDEST PUSH1 0x20 DUP3 LT DUP2 SUB PUSH3 0x3D8 JUMPI PUSH3 0x3D7 PUSH3 0x37D JUMP JUMPDEST JUMPDEST POP SWAP2 SWAP1 POP JUMP JUMPDEST PUSH0 DUP2 SWAP1 POP DUP2 PUSH0 MSTORE PUSH1 0x20 PUSH0 KECCAK256 SWAP1 POP SWAP2 SWAP1 POP JUMP JUMPDEST PUSH0 PUSH1 0x20 PUSH1 0x1F DUP4 ADD DIV SWAP1 POP SWAP2 SWAP1 POP JUMP JUMPDEST PUSH0 DUP3 DUP3 SHL SWAP1 POP SWAP3 SWAP2 POP POP JUMP JUMPDEST PUSH0 PUSH1 0x8 DUP4 MUL PUSH3 0x43C PUSH32 0xFFFFFFFFFFFFFFFFFFFFFFFFFFFFFFFFFFFFFFFFFFFFFFFFFFFFFFFFFFFFFFFF DUP3 PUSH3 0x3FF JUMP JUMPDEST PUSH3 0x448 DUP7 DUP4 PUSH3 0x3FF JUMP JUMPDEST SWAP6 POP DUP1 NOT DUP5 AND SWAP4 POP DUP1 DUP7 AND DUP5 OR SWAP3 POP POP POP SWAP4 SWAP3 POP POP POP JUMP JUMPDEST PUSH0 DUP2 SWAP1 POP SWAP2 SWAP1 POP JUMP JUMPDEST PUSH0 DUP2 SWAP1 POP SWAP2 SWAP1 POP JUMP JUMPDEST PUSH0 PUSH3 0x492 PUSH3 0x48C PUSH3 0x486 DUP5 PUSH3 0x460 JUMP JUMPDEST PUSH3 0x469 JUMP JUMPDEST PUSH3 0x460 JUMP JUMPDEST SWAP1 POP SWAP2 SWAP1 POP JUMP JUMPDEST PUSH0 DUP2 SWAP1 POP SWAP2 SWAP1 POP JUMP JUMPDEST PUSH3 0x4AD DUP4 PUSH3 0x472 JUMP JUMPDEST PUSH3 0x4C5 PUSH3 0x4BC DUP3 PUSH3 0x499 JUMP JUMPDEST DUP5 DUP5 SLOAD PUSH3 0x40B JUMP JUMPDEST DUP3 SSTORE POP POP POP POP JUMP JUMPDEST PUSH0 SWAP1 JUMP JUMPDEST PUSH3 0x4DB PUSH3 0x4CD JUMP JUMPDEST PUSH3 0x4E8 DUP2 DUP5 DUP5 PUSH3 0x4A2 JUMP JUMPDEST POP POP POP JUMP JUMPDEST JUMPDEST DUP2 DUP2 LT ISZERO PUSH3 0x50F JUMPI PUSH3 0x503 PUSH0 DUP3 PUSH3 0x4D1 JUMP JUMPDEST PUSH1 0x1 DUP2 ADD SWAP1 POP PUSH3 0x4EE JUMP JUMPDEST POP POP JUMP JUMPDEST PUSH1 0x1F DUP3 GT ISZERO PUSH3 0x55E JUMPI PUSH3 0x528 DUP2 PUSH3 0x3DE JUMP JUMPDEST PUSH3 0x533 DUP5 PUSH3 0x3F0 JUMP JUMPDEST DUP2 ADD PUSH1 0x20 DUP6 LT ISZERO PUSH3 0x543 JUMPI DUP2 SWAP1 POP JUMPDEST PUSH3 0x55B PUSH3 0x552 DUP6 PUSH3 0x3F0 JUMP JUMPDEST DUP4 ADD DUP3 PUSH3 0x4ED JUMP JUMPDEST POP POP JUMPDEST POP POP POP JUMP JUMPDEST PUSH0 DUP3 DUP3 SHR SWAP1 POP SWAP3 SWAP2 POP POP JUMP JUMPDEST PUSH0 PUSH3 0x580 PUSH0 NOT DUP5 PUSH1 0x8 MUL PUSH3 0x563 JUMP JUMPDEST NOT DUP1 DUP4 AND SWAP2 POP POP SWAP3 SWAP2 POP POP JUMP JUMPDEST PUSH0 PUSH3 0x59A DUP4 DUP4 PUSH3 0x56F JUMP JUMPDEST SWAP2 POP DUP3 PUSH1 0x2 MUL DUP3 OR SWAP1 POP SWAP3 SWAP2 POP POP JUMP JUMPDEST PUSH3 0x5B5 DUP3 PUSH3 0x346 JUMP JUMPDEST PUSH8 0xFFFFFFFFFFFFFFFF DUP2 GT ISZERO PUSH3 0x5D1 JUMPI PUSH3 0x5D0 PUSH3 0x350 JUMP JUMPDEST JUMPDEST PUSH3 0x5DD DUP3 SLOAD PUSH3 0x3AA JUMP JUMPDEST PUSH3 0x5EA DUP3 DUP3 DUP6 PUSH3 0x513 JUMP JUMPDEST PUSH0 PUSH1 0x20 SWAP1 POP PUSH1 0x1F DUP4 GT PUSH1 0x1 DUP2 EQ PUSH3 0x620 JUMPI PUSH0 DUP5 ISZERO PUSH3 0x60B JUMPI DUP3 DUP8 ADD MLOAD SWAP1 POP JUMPDEST PUSH3 0x617 DUP6 DUP3 PUSH3 0x58D JUMP JUMPDEST DUP7 SSTORE POP PUSH3 0x686 JUMP JUMPDEST PUSH1 0x1F NOT DUP5 AND PUSH3 0x630 DUP7 PUSH3 0x3DE JUMP JUMPDEST PUSH0 JUMPDEST DUP3 DUP2 LT ISZERO PUSH3 0x659 JUMPI DUP5 DUP10 ADD MLOAD DUP3 SSTORE PUSH1 0x1 DUP3 ADD SWAP2 POP PUSH1 0x20 DUP6 ADD SWAP5 POP PUSH1 0x20 DUP2 ADD SWAP1 POP PUSH3 0x632 JUMP JUMPDEST DUP7 DUP4 LT ISZERO PUSH3 0x679 JUMPI DUP5 DUP10 ADD MLOAD PUSH3 0x675 PUSH1 0x1F DUP10 AND DUP3 PUSH3 0x56F JUMP JUMPDEST DUP4 SSTORE POP JUMPDEST PUSH1 0x1 PUSH1 0x2 DUP9 MUL ADD DUP9 SSTORE POP POP POP JUMPDEST POP POP POP POP POP POP JUMP JUMPDEST PUSH0 DUP3 DUP3 MSTORE PUSH1 0x20 DUP3 ADD SWAP1 POP SWAP3 SWAP2 POP POP JUMP JUMPDEST PUSH32 0x43616E6E6F7420736574206F776E657220746F207A65726F0000000000000000 PUSH0 DUP3 ADD MSTORE POP JUMP JUMPDEST PUSH0 PUSH3 0x6D4 PUSH1 0x18 DUP4 PUSH3 0x68E JUMP JUMPDEST SWAP2 POP PUSH3 0x6E1 DUP3 PUSH3 0x69E JUMP JUMPDEST PUSH1 0x20 DUP3 ADD SWAP1 POP SWAP2 SWAP1 POP JUMP JUMPDEST PUSH0 PUSH1 0x20 DUP3 ADD SWAP1 POP DUP2 DUP2 SUB PUSH0 DUP4 ADD MSTORE PUSH3 0x705 DUP2 PUSH3 0x6C6 JUMP JUMPDEST SWAP1 POP SWAP2 SWAP1 POP JUMP JUMPDEST PUSH32 0x43616E6E6F74207472616E7366657220746F2073656C66000000000000000000 PUSH0 DUP3 ADD MSTORE POP JUMP JUMPDEST PUSH0 PUSH3 0x742 PUSH1 0x17 DUP4 PUSH3 0x68E JUMP JUMPDEST SWAP2 POP PUSH3 0x74F DUP3 PUSH3 0x70C JUMP JUMPDEST PUSH1 0x20 DUP3 ADD SWAP1 POP SWAP2 SWAP1 POP JUMP JUMPDEST PUSH0 PUSH1 0x20 DUP3 ADD SWAP1 POP DUP2 DUP2 SUB PUSH0 DUP4 ADD MSTORE PUSH3 0x773 DUP2 PUSH3 0x734 JUMP JUMPDEST SWAP1 POP SWAP2 SWAP1 POP JUMP JUMPDEST PUSH1 0x80 MLOAD PUSH2 0x22B1 PUSH3 0x79A PUSH0 CODECOPY PUSH0 DUP2 DUP2 PUSH2 0x38E ADD MSTORE PUSH2 0xD97 ADD MSTORE PUSH2 0x22B1 PUSH0 RETURN INVALID PUSH1 0x80 PUSH1 0x40 MSTORE CALLVALUE DUP1 ISZERO PUSH2 0xF JUMPI PUSH0 DUP1 REVERT JUMPDEST POP PUSH1 0x4 CALLDATASIZE LT PUSH2 0xFE JUMPI PUSH0 CALLDATALOAD PUSH1 0xE0 SHR DUP1 PUSH4 0x9C84CD10 GT PUSH2 0x95 JUMPI DUP1 PUSH4 0xEC2B70A4 GT PUSH2 0x64 JUMPI DUP1 PUSH4 0xEC2B70A4 EQ PUSH2 0x254 JUMPI DUP1 PUSH4 0xF2FDE38B EQ PUSH2 0x272 JUMPI DUP1 PUSH4 0xF68016B7 EQ PUSH2 0x28E JUMPI DUP1 PUSH4 0xFC2A88C3 EQ PUSH2 0x2AC JUMPI PUSH2 0xFE JUMP JUMPDEST DUP1 PUSH4 0x9C84CD10 EQ PUSH2 0x1DA JUMPI DUP1 PUSH4 0xAFDB0556 EQ PUSH2 0x1FC JUMPI DUP1 PUSH4 0xC8F33C91 EQ PUSH2 0x21A JUMPI DUP1 PUSH4 0xD0F784F0 EQ PUSH2 0x238 JUMPI PUSH2 0xFE JUMP JUMPDEST DUP1 PUSH4 0x6E74336B GT PUSH2 0xD1 JUMPI DUP1 PUSH4 0x6E74336B EQ PUSH2 0x176 JUMPI DUP1 PUSH4 0x79BA5097 EQ PUSH2 0x194 JUMPI DUP1 PUSH4 0x8DA5CB5B EQ PUSH2 0x19E JUMPI DUP1 PUSH4 0x8E15F473 EQ PUSH2 0x1BC JUMPI PUSH2 0xFE JUMP JUMPDEST DUP1 PUSH4 0x5239CA1 EQ PUSH2 0x102 JUMPI DUP1 PUSH4 0x9C1BA2E EQ PUSH2 0x11E JUMPI DUP1 PUSH4 0xCA76175 EQ PUSH2 0x13C JUMPI DUP1 PUSH4 0x2F5DF725 EQ PUSH2 0x158 JUMPI JUMPDEST PUSH0 DUP1 REVERT JUMPDEST PUSH2 0x11C PUSH1 0x4 DUP1 CALLDATASIZE SUB DUP2 ADD SWAP1 PUSH2 0x117 SWAP2 SWAP1 PUSH2 0x1687 JUMP JUMPDEST PUSH2 0x2CA JUMP JUMPDEST STOP JUMPDEST PUSH2 0x126 PUSH2 0x373 JUMP JUMPDEST PUSH1 0x40 MLOAD PUSH2 0x133 SWAP2 SWAP1 PUSH2 0x16D4 JUMP JUMPDEST PUSH1 0x40 MLOAD DUP1 SWAP2 SUB SWAP1 RETURN JUMPDEST PUSH2 0x156 PUSH1 0x4 DUP1 CALLDATASIZE SUB DUP2 ADD SWAP1 PUSH2 0x151 SWAP2 SWAP1 PUSH2 0x185C JUMP JUMPDEST PUSH2 0x38C JUMP JUMPDEST STOP JUMPDEST PUSH2 0x160 PUSH2 0x44E JUMP JUMPDEST PUSH1 0x40 MLOAD PUSH2 0x16D SWAP2 SWAP1 PUSH2 0x18FE JUMP JUMPDEST PUSH1 0x40 MLOAD DUP1 SWAP2 SUB SWAP1 RETURN JUMPDEST PUSH2 0x17E PUSH2 0x466 JUMP JUMPDEST PUSH1 0x40 MLOAD PUSH2 0x18B SWAP2 SWAP1 PUSH2 0x1926 JUMP JUMPDEST PUSH1 0x40 MLOAD DUP1 SWAP2 SUB SWAP1 RETURN JUMPDEST PUSH2 0x19C PUSH2 0x46C JUMP JUMPDEST STOP JUMPDEST PUSH2 0x1A6 PUSH2 0x5FB JUMP JUMPDEST PUSH1 0x40 MLOAD PUSH2 0x1B3 SWAP2 SWAP1 PUSH2 0x197E JUMP JUMPDEST PUSH1 0x40 MLOAD DUP1 SWAP2 SUB SWAP1 RETURN JUMPDEST PUSH2 0x1C4 PUSH2 0x622 JUMP JUMPDEST PUSH1 0x40 MLOAD PUSH2 0x1D1 SWAP2 SWAP1 PUSH2 0x19A6 JUMP JUMPDEST PUSH1 0x40 MLOAD DUP1 SWAP2 SUB SWAP1 RETURN JUMPDEST PUSH2 0x1E2 PUSH2 0x62B JUMP JUMPDEST PUSH1 0x40 MLOAD PUSH2 0x1F3 SWAP6 SWAP5 SWAP4 SWAP3 SWAP2 SWAP1 PUSH2 0x19BF JUMP JUMPDEST PUSH1 0x40 MLOAD DUP1 SWAP2 SUB SWAP1 RETURN JUMPDEST PUSH2 0x204 PUSH2 0x66E JUMP JUMPDEST PUSH1 0x40 MLOAD PUSH2 0x211 SWAP2 SWAP1 PUSH2 0x1926 JUMP JUMPDEST PUSH1 0x40 MLOAD DUP1 SWAP2 SUB SWAP1 RETURN JUMPDEST PUSH2 0x222 PUSH2 0x789 JUMP JUMPDEST PUSH1 0x40 MLOAD PUSH2 0x22F SWAP2 SWAP1 PUSH2 0x19A6 JUMP JUMPDEST PUSH1 0x40 MLOAD DUP1 SWAP2 SUB SWAP1 RETURN JUMPDEST PUSH2 0x252 PUSH1 0x4 DUP1 CALLDATASIZE SUB DUP2 ADD SWAP1 PUSH2 0x24D SWAP2 SWAP1 PUSH2 0x1A73 JUMP JUMPDEST PUSH2 0x78F JUMP JUMPDEST STOP JUMPDEST PUSH2 0x25C PUSH2 0x7EC JUMP JUMPDEST PUSH1 0x40 MLOAD PUSH2 0x269 SWAP2 SWAP1 PUSH2 0x19A6 JUMP JUMPDEST PUSH1 0x40 MLOAD DUP1 SWAP2 SUB SWAP1 RETURN JUMPDEST PUSH2 0x28C PUSH1 0x4 DUP1 CALLDATASIZE SUB DUP2 ADD SWAP1 PUSH2 0x287 SWAP2 SWAP1 PUSH2 0x1AED JUMP JUMPDEST PUSH2 0x808 JUMP JUMPDEST STOP JUMPDEST PUSH2 0x296 PUSH2 0x81C JUMP JUMPDEST PUSH1 0x40 MLOAD PUSH2 0x2A3 SWAP2 SWAP1 PUSH2 0x1B27 JUMP JUMPDEST PUSH1 0x40 MLOAD DUP1 SWAP2 SUB SWAP1 RETURN JUMPDEST PUSH2 0x2B4 PUSH2 0x832 JUMP JUMPDEST PUSH1 0x40 MLOAD PUSH2 0x2C1 SWAP2 SWAP1 PUSH2 0x1926 JUMP JUMPDEST PUSH1 0x40 MLOAD DUP1 SWAP2 SUB SWAP1 RETURN JUMPDEST PUSH2 0x2D2 PUSH2 0x838 JUMP JUMPDEST PUSH0 DUP2 GT PUSH2 0x314 JUMPI PUSH1 0x40 MLOAD PUSH32 0x8C379A000000000000000000000000000000000000000000000000000000000 DUP2 MSTORE PUSH1 0x4 ADD PUSH2 0x30B SWAP1 PUSH2 0x1B9A JUMP JUMPDEST PUSH1 0x40 MLOAD DUP1 SWAP2 SUB SWAP1 REVERT JUMPDEST PUSH8 0xDE0B6B3A7640000 DUP2 PUSH2 0x328 SWAP2 SWAP1 PUSH2 0x1BE5 JUMP JUMPDEST PUSH1 0x2 DUP2 SWAP1 SSTORE POP TIMESTAMP PUSH1 0x3 DUP2 SWAP1 SSTORE POP PUSH32 0x945C1C4E99AA89F648FBFE3DF471B916F719E16D960FCEC0737D4D56BD696838 PUSH1 0x2 SLOAD TIMESTAMP PUSH1 0x40 MLOAD PUSH2 0x368 SWAP3 SWAP2 SWAP1 PUSH2 0x1C26 JUMP JUMPDEST PUSH1 0x40 MLOAD DUP1 SWAP2 SUB SWAP1 LOG1 POP JUMP JUMPDEST PUSH1 0x5 PUSH0 SWAP1 SLOAD SWAP1 PUSH2 0x100 EXP SWAP1 DIV PUSH8 0xFFFFFFFFFFFFFFFF AND DUP2 JUMP JUMPDEST PUSH32 0x0 PUSH20 0xFFFFFFFFFFFFFFFFFFFFFFFFFFFFFFFFFFFFFFFF AND CALLER PUSH20 0xFFFFFFFFFFFFFFFFFFFFFFFFFFFFFFFFFFFFFFFF AND EQ PUSH2 0x411 JUMPI PUSH1 0x40 MLOAD PUSH32 0xC6829F8300000000000000000000000000000000000000000000000000000000 DUP2 MSTORE PUSH1 0x4 ADD PUSH1 0x40 MLOAD DUP1 SWAP2 SUB SWAP1 REVERT JUMPDEST PUSH2 0x41C DUP4 DUP4 DUP4 PUSH2 0x8C7 JUMP JUMPDEST DUP3 PUSH32 0x85E1543BF2F84FE80C6BADBCE3648C8539AD1DF4D2B3D822938CA0538BE727E6 PUSH1 0x40 MLOAD PUSH1 0x40 MLOAD DUP1 SWAP2 SUB SWAP1 LOG2 POP POP POP JUMP JUMPDEST PUSH0 PUSH2 0xE10 PUSH1 0x3 SLOAD TIMESTAMP PUSH2 0x460 SWAP2 SWAP1 PUSH2 0x1C4D JUMP JUMPDEST GT SWAP1 POP SWAP1 JUMP JUMPDEST PUSH1 0x6 SLOAD DUP2 JUMP JUMPDEST PUSH1 0x1 PUSH0 SWAP1 SLOAD SWAP1 PUSH2 0x100 EXP SWAP1 DIV PUSH20 0xFFFFFFFFFFFFFFFFFFFFFFFFFFFFFFFFFFFFFFFF AND PUSH20 0xFFFFFFFFFFFFFFFFFFFFFFFFFFFFFFFFFFFFFFFF AND CALLER PUSH20 0xFFFFFFFFFFFFFFFFFFFFFFFFFFFFFFFFFFFFFFFF AND EQ PUSH2 0x4FB JUMPI PUSH1 0x40 MLOAD PUSH32 0x8C379A000000000000000000000000000000000000000000000000000000000 DUP2 MSTORE PUSH1 0x4 ADD PUSH2 0x4F2 SWAP1 PUSH2 0x1CCA JUMP JUMPDEST PUSH1 0x40 MLOAD DUP1 SWAP2 SUB SWAP1 REVERT JUMPDEST PUSH0 DUP1 PUSH0 SWAP1 SLOAD SWAP1 PUSH2 0x100 EXP SWAP1 DIV PUSH20 0xFFFFFFFFFFFFFFFFFFFFFFFFFFFFFFFFFFFFFFFF AND SWAP1 POP CALLER PUSH0 DUP1 PUSH2 0x100 EXP DUP2 SLOAD DUP2 PUSH20 0xFFFFFFFFFFFFFFFFFFFFFFFFFFFFFFFFFFFFFFFF MUL NOT AND SWAP1 DUP4 PUSH20 0xFFFFFFFFFFFFFFFFFFFFFFFFFFFFFFFFFFFFFFFF AND MUL OR SWAP1 SSTORE POP PUSH0 PUSH1 0x1 PUSH0 PUSH2 0x100 EXP DUP2 SLOAD DUP2 PUSH20 0xFFFFFFFFFFFFFFFFFFFFFFFFFFFFFFFFFFFFFFFF MUL NOT AND SWAP1 DUP4 PUSH20 0xFFFFFFFFFFFFFFFFFFFFFFFFFFFFFFFFFFFFFFFF AND MUL OR SWAP1 SSTORE POP CALLER PUSH20 0xFFFFFFFFFFFFFFFFFFFFFFFFFFFFFFFFFFFFFFFF AND DUP2 PUSH20 0xFFFFFFFFFFFFFFFFFFFFFFFFFFFFFFFFFFFFFFFF AND PUSH32 0x8BE0079C531659141344CD1FD0A4F28419497F9722A3DAAFE3B4186F6B6457E0 PUSH1 0x40 MLOAD PUSH1 0x40 MLOAD DUP1 SWAP2 SUB SWAP1 LOG3 POP JUMP JUMPDEST PUSH0 DUP1 PUSH0 SWAP1 SLOAD SWAP1 PUSH2 0x100 EXP SWAP1 DIV PUSH20 0xFFFFFFFFFFFFFFFFFFFFFFFFFFFFFFFFFFFFFFFF AND SWAP1 POP SWAP1 JUMP JUMPDEST PUSH0 PUSH1 0x2 SLOAD SWAP1 POP SWAP1 JUMP JUMPDEST PUSH0 DUP1 PUSH0 DUP1 PUSH0 PUSH1 0x2 SLOAD PUSH8 0xDE0B6B3A7640000 PUSH1 0x2 SLOAD PUSH2 0x649 SWAP2 SWAP1 PUSH2 0x1D15 JUMP JUMPDEST PUSH1 0x3 SLOAD PUSH1 0x3 SLOAD TIMESTAMP PUSH2 0x65A SWAP2 SWAP1 PUSH2 0x1C4D JUMP JUMPDEST PUSH1 0x4 SLOAD SWAP5 POP SWAP5 POP SWAP5 POP SWAP5 POP SWAP5 POP SWAP1 SWAP2 SWAP3 SWAP4 SWAP5 JUMP JUMPDEST PUSH0 PUSH2 0x677 PUSH2 0x159C JUMP JUMPDEST PUSH2 0x712 PUSH1 0x7 DUP1 SLOAD PUSH2 0x687 SWAP1 PUSH2 0x1D72 JUMP JUMPDEST DUP1 PUSH1 0x1F ADD PUSH1 0x20 DUP1 SWAP2 DIV MUL PUSH1 0x20 ADD PUSH1 0x40 MLOAD SWAP1 DUP2 ADD PUSH1 0x40 MSTORE DUP1 SWAP3 SWAP2 SWAP1 DUP2 DUP2 MSTORE PUSH1 0x20 ADD DUP3 DUP1 SLOAD PUSH2 0x6B3 SWAP1 PUSH2 0x1D72 JUMP JUMPDEST DUP1 ISZERO PUSH2 0x6FE JUMPI DUP1 PUSH1 0x1F LT PUSH2 0x6D5 JUMPI PUSH2 0x100 DUP1 DUP4 SLOAD DIV MUL DUP4 MSTORE SWAP2 PUSH1 0x20 ADD SWAP2 PUSH2 0x6FE JUMP JUMPDEST DUP3 ADD SWAP2 SWAP1 PUSH0 MSTORE PUSH1 0x20 PUSH0 KECCAK256 SWAP1 JUMPDEST DUP2 SLOAD DUP2 MSTORE SWAP1 PUSH1 0x1 ADD SWAP1 PUSH1 0x20 ADD DUP1 DUP4 GT PUSH2 0x6E1 JUMPI DUP3 SWAP1 SUB PUSH1 0x1F AND DUP3 ADD SWAP2 JUMPDEST POP POP POP POP POP DUP3 PUSH2 0x972 SWAP1 SWAP2 SWAP1 PUSH4 0xFFFFFFFF AND JUMP JUMPDEST PUSH2 0x74F PUSH2 0x71E DUP3 PUSH2 0x982 JUMP JUMPDEST PUSH1 0x5 PUSH0 SWAP1 SLOAD SWAP1 PUSH2 0x100 EXP SWAP1 DIV PUSH8 0xFFFFFFFFFFFFFFFF AND PUSH1 0x5 PUSH1 0x8 SWAP1 SLOAD SWAP1 PUSH2 0x100 EXP SWAP1 DIV PUSH4 0xFFFFFFFF AND PUSH1 0x6 SLOAD PUSH2 0xD93 JUMP JUMPDEST SWAP2 POP DUP2 PUSH1 0x4 DUP2 SWAP1 SSTORE POP DUP2 PUSH32 0x655F2DCA0174CE451AA939C62EA493C734778CC67C6783626B08AD34985E6C61 PUSH1 0x40 MLOAD PUSH1 0x40 MLOAD DUP1 SWAP2 SUB SWAP1 LOG2 POP SWAP1 JUMP JUMPDEST PUSH1 0x3 SLOAD DUP2 JUMP JUMPDEST PUSH2 0x797 PUSH2 0x838 JUMP JUMPDEST DUP3 PUSH1 0x5 PUSH0 PUSH2 0x100 EXP DUP2 SLOAD DUP2 PUSH8 0xFFFFFFFFFFFFFFFF MUL NOT AND SWAP1 DUP4 PUSH8 0xFFFFFFFFFFFFFFFF AND MUL OR SWAP1 SSTORE POP DUP2 PUSH1 0x5 PUSH1 0x8 PUSH2 0x100 EXP DUP2 SLOAD DUP2 PUSH4 0xFFFFFFFF MUL NOT AND SWAP1 DUP4 PUSH4 0xFFFFFFFF AND MUL OR SWAP1 SSTORE POP DUP1 PUSH1 0x6 DUP2 SWAP1 SSTORE POP POP POP POP JUMP JUMPDEST PUSH0 PUSH8 0xDE0B6B3A7640000 PUSH1 0x2 SLOAD PUSH2 0x803 SWAP2 SWAP1 PUSH2 0x1D15 JUMP JUMPDEST SWAP1 POP SWAP1 JUMP JUMPDEST PUSH2 0x810 PUSH2 0x838 JUMP JUMPDEST PUSH2 0x819 DUP2 PUSH2 0xE72 JUMP JUMPDEST POP JUMP JUMPDEST PUSH1 0x5 PUSH1 0x8 SWAP1 SLOAD SWAP1 PUSH2 0x100 EXP SWAP1 DIV PUSH4 0xFFFFFFFF AND DUP2 JUMP JUMPDEST PUSH1 0x4 SLOAD DUP2 JUMP JUMPDEST PUSH0 DUP1 SLOAD SWAP1 PUSH2 0x100 EXP SWAP1 DIV PUSH20 0xFFFFFFFFFFFFFFFFFFFFFFFFFFFFFFFFFFFFFFFF AND PUSH20 0xFFFFFFFFFFFFFFFFFFFFFFFFFFFFFFFFFFFFFFFF AND CALLER PUSH20 0xFFFFFFFFFFFFFFFFFFFFFFFFFFFFFFFFFFFFFFFF AND EQ PUSH2 0x8C5 JUMPI PUSH1 0x40 MLOAD PUSH32 0x8C379A000000000000000000000000000000000000000000000000000000000 DUP2 MSTORE PUSH1 0x4 ADD PUSH2 0x8BC SWAP1 PUSH2 0x1DEC JUMP JUMPDEST PUSH1 0x40 MLOAD DUP1 SWAP2 SUB SWAP1 REVERT JUMPDEST JUMP JUMPDEST PUSH0 DUP2 MLOAD GT ISZERO PUSH2 0x90D JUMPI DUP3 PUSH32 0x61982C98CBC49D11759A948F460B92BCA26BDF12CEEE12C310F117EB2CA9A9CB DUP3 PUSH1 0x40 MLOAD PUSH2 0x900 SWAP2 SWAP1 PUSH2 0x1E84 JUMP JUMPDEST PUSH1 0x40 MLOAD DUP1 SWAP2 SUB SWAP1 LOG2 PUSH2 0x96D JUMP JUMPDEST PUSH0 DUP3 DUP1 PUSH1 0x20 ADD SWAP1 MLOAD DUP2 ADD SWAP1 PUSH2 0x922 SWAP2 SWAP1 PUSH2 0x1EB8 JUMP JUMPDEST SWAP1 POP DUP1 PUSH1 0x2 DUP2 SWAP1 SSTORE POP TIMESTAMP PUSH1 0x3 DUP2 SWAP1 SSTORE POP PUSH32 0x945C1C4E99AA89F648FBFE3DF471B916F719E16D960FCEC0737D4D56BD696838 DUP2 TIMESTAMP PUSH1 0x40 MLOAD PUSH2 0x963 SWAP3 SWAP2 SWAP1 PUSH2 0x1C26 JUMP JUMPDEST PUSH1 0x40 MLOAD DUP1 SWAP2 SUB SWAP1 LOG1 POP JUMPDEST POP POP POP JUMP JUMPDEST PUSH2 0x97E DUP3 PUSH0 DUP1 DUP5 PUSH2 0xF9C JUMP JUMPDEST POP POP JUMP JUMPDEST PUSH1 0x60 PUSH0 PUSH2 0x990 PUSH2 0x100 PUSH2 0x1042 JUMP JUMPDEST SWAP1 POP PUSH2 0x9DA PUSH1 0x40 MLOAD DUP1 PUSH1 0x40 ADD PUSH1 0x40 MSTORE DUP1 PUSH1 0xC DUP2 MSTORE PUSH1 0x20 ADD PUSH32 0x636F64654C6F636174696F6E0000000000000000000000000000000000000000 DUP2 MSTORE POP DUP3 PUSH2 0x1067 SWAP1 SWAP2 SWAP1 PUSH4 0xFFFFFFFF AND JUMP JUMPDEST PUSH2 0xA02 DUP4 PUSH0 ADD MLOAD PUSH1 0x2 DUP2 GT ISZERO PUSH2 0x9F3 JUMPI PUSH2 0x9F2 PUSH2 0x1EE3 JUMP JUMPDEST JUMPDEST DUP3 PUSH2 0x108F SWAP1 SWAP2 SWAP1 PUSH4 0xFFFFFFFF AND JUMP JUMPDEST PUSH2 0xA4A PUSH1 0x40 MLOAD DUP1 PUSH1 0x40 ADD PUSH1 0x40 MSTORE DUP1 PUSH1 0x8 DUP2 MSTORE PUSH1 0x20 ADD PUSH32 0x6C616E6775616765000000000000000000000000000000000000000000000000 DUP2 MSTORE POP DUP3 PUSH2 0x1067 SWAP1 SWAP2 SWAP1 PUSH4 0xFFFFFFFF AND JUMP JUMPDEST PUSH2 0xA72 DUP4 PUSH1 0x40 ADD MLOAD PUSH0 DUP2 GT ISZERO PUSH2 0xA63 JUMPI PUSH2 0xA62 PUSH2 0x1EE3 JUMP JUMPDEST JUMPDEST DUP3 PUSH2 0x108F SWAP1 SWAP2 SWAP1 PUSH4 0xFFFFFFFF AND JUMP JUMPDEST PUSH2 0xABA PUSH1 0x40 MLOAD DUP1 PUSH1 0x40 ADD PUSH1 0x40 MSTORE DUP1 PUSH1 0x6 DUP2 MSTORE PUSH1 0x20 ADD PUSH32 0x736F757263650000000000000000000000000000000000000000000000000000 DUP2 MSTORE POP DUP3 PUSH2 0x1067 SWAP1 SWAP2 SWAP1 PUSH4 0xFFFFFFFF AND JUMP JUMPDEST PUSH2 0xAD1 DUP4 PUSH1 0x60 ADD MLOAD DUP3 PUSH2 0x1067 SWAP1 SWAP2 SWAP1 PUSH4 0xFFFFFFFF AND JUMP JUMPDEST PUSH0 DUP4 PUSH1 0xA0 ADD MLOAD MLOAD GT ISZERO PUSH2 0xB8B JUMPI PUSH2 0xB26 PUSH1 0x40 MLOAD DUP1 PUSH1 0x40 ADD PUSH1 0x40 MSTORE DUP1 PUSH1 0x4 DUP2 MSTORE PUSH1 0x20 ADD PUSH32 0x6172677300000000000000000000000000000000000000000000000000000000 DUP2 MSTORE POP DUP3 PUSH2 0x1067 SWAP1 SWAP2 SWAP1 PUSH4 0xFFFFFFFF AND JUMP JUMPDEST PUSH2 0xB2F DUP2 PUSH2 0x10DE JUMP JUMPDEST PUSH0 JUMPDEST DUP4 PUSH1 0xA0 ADD MLOAD MLOAD DUP2 LT ISZERO PUSH2 0xB80 JUMPI PUSH2 0xB6F DUP5 PUSH1 0xA0 ADD MLOAD DUP3 DUP2 MLOAD DUP2 LT PUSH2 0xB58 JUMPI PUSH2 0xB57 PUSH2 0x1F10 JUMP JUMPDEST JUMPDEST PUSH1 0x20 MUL PUSH1 0x20 ADD ADD MLOAD DUP4 PUSH2 0x1067 SWAP1 SWAP2 SWAP1 PUSH4 0xFFFFFFFF AND JUMP JUMPDEST DUP1 PUSH2 0xB79 SWAP1 PUSH2 0x1F3D JUMP JUMPDEST SWAP1 POP PUSH2 0xB31 JUMP JUMPDEST POP PUSH2 0xB8A DUP2 PUSH2 0x1106 JUMP JUMPDEST JUMPDEST PUSH0 DUP4 PUSH1 0x80 ADD MLOAD MLOAD GT ISZERO PUSH2 0xCCA JUMPI PUSH0 PUSH1 0x2 DUP2 GT ISZERO PUSH2 0xBAB JUMPI PUSH2 0xBAA PUSH2 0x1EE3 JUMP JUMPDEST JUMPDEST DUP4 PUSH1 0x20 ADD MLOAD PUSH1 0x2 DUP2 GT ISZERO PUSH2 0xBC2 JUMPI PUSH2 0xBC1 PUSH2 0x1EE3 JUMP JUMPDEST JUMPDEST SUB PUSH2 0xBF9 JUMPI PUSH1 0x40 MLOAD PUSH32 0xA80D31F700000000000000000000000000000000000000000000000000000000 DUP2 MSTORE PUSH1 0x4 ADD PUSH1 0x40 MLOAD DUP1 SWAP2 SUB SWAP1 REVERT JUMPDEST PUSH2 0xC41 PUSH1 0x40 MLOAD DUP1 PUSH1 0x40 ADD PUSH1 0x40 MSTORE DUP1 PUSH1 0xF DUP2 MSTORE PUSH1 0x20 ADD PUSH32 0x736563726574734C6F636174696F6E0000000000000000000000000000000000 DUP2 MSTORE POP DUP3 PUSH2 0x1067 SWAP1 SWAP2 SWAP1 PUSH4 0xFFFFFFFF AND JUMP JUMPDEST PUSH2 0xC6A DUP4 PUSH1 0x20 ADD MLOAD PUSH1 0x2 DUP2 GT ISZERO PUSH2 0xC5B JUMPI PUSH2 0xC5A PUSH2 0x1EE3 JUMP JUMPDEST JUMPDEST DUP3 PUSH2 0x108F SWAP1 SWAP2 SWAP1 PUSH4 0xFFFFFFFF AND JUMP JUMPDEST PUSH2 0xCB2 PUSH1 0x40 MLOAD DUP1 PUSH1 0x40 ADD PUSH1 0x40 MSTORE DUP1 PUSH1 0x7 DUP2 MSTORE PUSH1 0x20 ADD PUSH32 0x7365637265747300000000000000000000000000000000000000000000000000 DUP2 MSTORE POP DUP3 PUSH2 0x1067 SWAP1 SWAP2 SWAP1 PUSH4 0xFFFFFFFF AND JUMP JUMPDEST PUSH2 0xCC9 DUP4 PUSH1 0x80 ADD MLOAD DUP3 PUSH2 0x112E SWAP1 SWAP2 SWAP1 PUSH4 0xFFFFFFFF AND JUMP JUMPDEST JUMPDEST PUSH0 DUP4 PUSH1 0xC0 ADD MLOAD MLOAD GT ISZERO PUSH2 0xD84 JUMPI PUSH2 0xD1F PUSH1 0x40 MLOAD DUP1 PUSH1 0x40 ADD PUSH1 0x40 MSTORE DUP1 PUSH1 0x9 DUP2 MSTORE PUSH1 0x20 ADD PUSH32 0x6279746573417267730000000000000000000000000000000000000000000000 DUP2 MSTORE POP DUP3 PUSH2 0x1067 SWAP1 SWAP2 SWAP1 PUSH4 0xFFFFFFFF AND JUMP JUMPDEST PUSH2 0xD28 DUP2 PUSH2 0x10DE JUMP JUMPDEST PUSH0 JUMPDEST DUP4 PUSH1 0xC0 ADD MLOAD MLOAD DUP2 LT ISZERO PUSH2 0xD79 JUMPI PUSH2 0xD68 DUP5 PUSH1 0xC0 ADD MLOAD DUP3 DUP2 MLOAD DUP2 LT PUSH2 0xD51 JUMPI PUSH2 0xD50 PUSH2 0x1F10 JUMP JUMPDEST JUMPDEST PUSH1 0x20 MUL PUSH1 0x20 ADD ADD MLOAD DUP4 PUSH2 0x112E SWAP1 SWAP2 SWAP1 PUSH4 0xFFFFFFFF AND JUMP JUMPDEST DUP1 PUSH2 0xD72 SWAP1 PUSH2 0x1F3D JUMP JUMPDEST SWAP1 POP PUSH2 0xD2A JUMP JUMPDEST POP PUSH2 0xD83 DUP2 PUSH2 0x1106 JUMP JUMPDEST JUMPDEST DUP1 PUSH0 ADD MLOAD PUSH0 ADD MLOAD SWAP2 POP POP SWAP2 SWAP1 POP JUMP JUMPDEST PUSH0 DUP1 PUSH32 0x0 PUSH20 0xFFFFFFFFFFFFFFFFFFFFFFFFFFFFFFFFFFFFFFFF AND PUSH4 0x461D2762 DUP7 DUP9 PUSH1 0x1 DUP9 DUP9 PUSH1 0x40 MLOAD DUP7 PUSH4 0xFFFFFFFF AND PUSH1 0xE0 SHL DUP2 MSTORE PUSH1 0x4 ADD PUSH2 0xDF7 SWAP6 SWAP5 SWAP4 SWAP3 SWAP2 SWAP1 PUSH2 0x1FA0 JUMP JUMPDEST PUSH1 0x20 PUSH1 0x40 MLOAD DUP1 DUP4 SUB DUP2 PUSH0 DUP8 GAS CALL ISZERO DUP1 ISZERO PUSH2 0xE13 JUMPI RETURNDATASIZE PUSH0 DUP1 RETURNDATACOPY RETURNDATASIZE PUSH0 REVERT JUMPDEST POP POP POP POP PUSH1 0x40 MLOAD RETURNDATASIZE PUSH1 0x1F NOT PUSH1 0x1F DUP3 ADD AND DUP3 ADD DUP1 PUSH1 0x40 MSTORE POP DUP2 ADD SWAP1 PUSH2 0xE37 SWAP2 SWAP1 PUSH2 0x200C JUMP JUMPDEST SWAP1 POP DUP1 PUSH32 0x1131472297A800FEE664D1D89CFA8F7676FF07189ECC53F80BBB5F4969099DB8 PUSH1 0x40 MLOAD PUSH1 0x40 MLOAD DUP1 SWAP2 SUB SWAP1 LOG2 DUP1 SWAP2 POP POP SWAP5 SWAP4 POP POP POP POP JUMP JUMPDEST CALLER PUSH20 0xFFFFFFFFFFFFFFFFFFFFFFFFFFFFFFFFFFFFFFFF AND DUP2 PUSH20 0xFFFFFFFFFFFFFFFFFFFFFFFFFFFFFFFFFFFFFFFF AND SUB PUSH2 0xEE0 JUMPI PUSH1 0x40 MLOAD PUSH32 0x8C379A000000000000000000000000000000000000000000000000000000000 DUP2 MSTORE PUSH1 0x4 ADD PUSH2 0xED7 SWAP1 PUSH2 0x2081 JUMP JUMPDEST PUSH1 0x40 MLOAD DUP1 SWAP2 SUB SWAP1 REVERT JUMPDEST DUP1 PUSH1 0x1 PUSH0 PUSH2 0x100 EXP DUP2 SLOAD DUP2 PUSH20 0xFFFFFFFFFFFFFFFFFFFFFFFFFFFFFFFFFFFFFFFF MUL NOT AND SWAP1 DUP4 PUSH20 0xFFFFFFFFFFFFFFFFFFFFFFFFFFFFFFFFFFFFFFFF AND MUL OR SWAP1 SSTORE POP DUP1 PUSH20 0xFFFFFFFFFFFFFFFFFFFFFFFFFFFFFFFFFFFFFFFF AND PUSH0 DUP1 SLOAD SWAP1 PUSH2 0x100 EXP SWAP1 DIV PUSH20 0xFFFFFFFFFFFFFFFFFFFFFFFFFFFFFFFFFFFFFFFF AND PUSH20 0xFFFFFFFFFFFFFFFFFFFFFFFFFFFFFFFFFFFFFFFF AND PUSH32 0xED8889F560326EB138920D842192F0EB3DD22B4F139C87A2C57538E05BAE1278 PUSH1 0x40 MLOAD PUSH1 0x40 MLOAD DUP1 SWAP2 SUB SWAP1 LOG3 POP JUMP JUMPDEST PUSH0 DUP2 MLOAD SUB PUSH2 0xFD6 JUMPI PUSH1 0x40 MLOAD PUSH32 0x22CE3EDD00000000000000000000000000000000000000000000000000000000 DUP2 MSTORE PUSH1 0x4 ADD PUSH1 0x40 MLOAD DUP1 SWAP2 SUB SWAP1 REVERT JUMPDEST DUP3 DUP5 PUSH0 ADD SWAP1 PUSH1 0x2 DUP2 GT ISZERO PUSH2 0xFED JUMPI PUSH2 0xFEC PUSH2 0x1EE3 JUMP JUMPDEST JUMPDEST SWAP1 DUP2 PUSH1 0x2 DUP2 GT ISZERO PUSH2 0x1001 JUMPI PUSH2 0x1000 PUSH2 0x1EE3 JUMP JUMPDEST JUMPDEST DUP2 MSTORE POP POP DUP2 DUP5 PUSH1 0x40 ADD SWAP1 PUSH0 DUP2 GT ISZERO PUSH2 0x101C JUMPI PUSH2 0x101B PUSH2 0x1EE3 JUMP JUMPDEST JUMPDEST SWAP1 DUP2 PUSH0 DUP2 GT ISZERO PUSH2 0x102F JUMPI PUSH2 0x102E PUSH2 0x1EE3 JUMP JUMPDEST JUMPDEST DUP2 MSTORE POP POP DUP1 DUP5 PUSH1 0x60 ADD DUP2 SWAP1 MSTORE POP POP POP POP POP JUMP JUMPDEST PUSH2 0x104A PUSH2 0x160B JUMP JUMPDEST PUSH2 0x1057 DUP2 PUSH0 ADD MLOAD DUP4 PUSH2 0x1156 JUMP JUMPDEST POP PUSH0 DUP2 PUSH1 0x20 ADD DUP2 DUP2 MSTORE POP POP SWAP2 SWAP1 POP JUMP JUMPDEST PUSH2 0x1074 DUP3 PUSH1 0x3 DUP4 MLOAD PUSH2 0x11CC JUMP JUMPDEST PUSH2 0x108A DUP2 DUP4 PUSH0 ADD MLOAD PUSH2 0x136C SWAP1 SWAP2 SWAP1 PUSH4 0xFFFFFFFF AND JUMP JUMPDEST POP POP POP JUMP JUMPDEST PUSH2 0x10B0 PUSH1 0x2 PUSH1 0x5 PUSH1 0x6 PUSH1 0xFF AND SWAP1 SHL OR DUP4 PUSH0 ADD MLOAD PUSH2 0x1388 SWAP1 SWAP2 SWAP1 PUSH4 0xFFFFFFFF AND JUMP JUMPDEST POP PUSH2 0x10DA DUP3 DUP3 PUSH1 0x40 MLOAD PUSH1 0x20 ADD PUSH2 0x10C6 SWAP2 SWAP1 PUSH2 0x19A6 JUMP JUMPDEST PUSH1 0x40 MLOAD PUSH1 0x20 DUP2 DUP4 SUB SUB DUP2 MSTORE SWAP1 PUSH1 0x40 MSTORE PUSH2 0x112E JUMP JUMPDEST POP POP JUMP JUMPDEST PUSH2 0x10E9 DUP2 PUSH1 0x4 PUSH2 0x13EF JUMP JUMPDEST PUSH1 0x1 DUP2 PUSH1 0x20 ADD DUP2 DUP2 MLOAD PUSH2 0x10FC SWAP2 SWAP1 PUSH2 0x209F JUMP JUMPDEST SWAP2 POP DUP2 DUP2 MSTORE POP POP POP JUMP JUMPDEST PUSH2 0x1111 DUP2 PUSH1 0x7 PUSH2 0x13EF JUMP JUMPDEST PUSH1 0x1 DUP2 PUSH1 0x20 ADD DUP2 DUP2 MLOAD PUSH2 0x1124 SWAP2 SWAP1 PUSH2 0x1C4D JUMP JUMPDEST SWAP2 POP DUP2 DUP2 MSTORE POP POP POP JUMP JUMPDEST PUSH2 0x113B DUP3 PUSH1 0x2 DUP4 MLOAD PUSH2 0x11CC JUMP JUMPDEST PUSH2 0x1151 DUP2 DUP4 PUSH0 ADD MLOAD PUSH2 0x136C SWAP1 SWAP2 SWAP1 PUSH4 0xFFFFFFFF AND JUMP JUMPDEST POP POP POP JUMP JUMPDEST PUSH2 0x115E PUSH2 0x162A JUMP JUMPDEST PUSH0 PUSH1 0x20 DUP4 PUSH2 0x116C SWAP2 SWAP1 PUSH2 0x20D2 JUMP JUMPDEST EQ PUSH2 0x1198 JUMPI PUSH1 0x20 DUP3 PUSH2 0x117E SWAP2 SWAP1 PUSH2 0x20D2 JUMP JUMPDEST PUSH1 0x20 PUSH2 0x118A SWAP2 SWAP1 PUSH2 0x1C4D JUMP JUMPDEST DUP3 PUSH2 0x1195 SWAP2 SWAP1 PUSH2 0x209F JUMP JUMPDEST SWAP2 POP JUMPDEST DUP2 DUP4 PUSH1 0x20 ADD DUP2 DUP2 MSTORE POP POP PUSH1 0x40 MLOAD DUP1 DUP5 MSTORE PUSH0 DUP2 MSTORE DUP3 DUP2 ADD PUSH1 0x20 ADD DUP2 DUP2 LT ISZERO PUSH2 0x11BD JUMPI PUSH0 DUP1 REVERT JUMPDEST DUP1 PUSH1 0x40 MSTORE POP POP DUP3 SWAP1 POP SWAP3 SWAP2 POP POP JUMP JUMPDEST PUSH1 0x17 DUP2 PUSH8 0xFFFFFFFFFFFFFFFF AND GT PUSH2 0x1206 JUMPI PUSH2 0x1200 DUP2 PUSH1 0x5 DUP5 PUSH1 0xFF AND SWAP1 SHL PUSH1 0xFF AND OR DUP5 PUSH0 ADD MLOAD PUSH2 0x1388 SWAP1 SWAP2 SWAP1 PUSH4 0xFFFFFFFF AND JUMP JUMPDEST POP PUSH2 0x1367 JUMP JUMPDEST PUSH1 0xFF DUP2 PUSH8 0xFFFFFFFFFFFFFFFF AND GT PUSH2 0x1262 JUMPI PUSH2 0x1238 PUSH1 0x18 PUSH1 0x5 DUP5 PUSH1 0xFF AND SWAP1 SHL OR DUP5 PUSH0 ADD MLOAD PUSH2 0x1388 SWAP1 SWAP2 SWAP1 PUSH4 0xFFFFFFFF AND JUMP JUMPDEST POP PUSH2 0x125C DUP2 PUSH8 0xFFFFFFFFFFFFFFFF AND PUSH1 0x1 DUP6 PUSH0 ADD MLOAD PUSH2 0x1414 SWAP1 SWAP3 SWAP2 SWAP1 PUSH4 0xFFFFFFFF AND JUMP JUMPDEST POP PUSH2 0x1366 JUMP JUMPDEST PUSH2 0xFFFF DUP2 PUSH8 0xFFFFFFFFFFFFFFFF AND GT PUSH2 0x12BF JUMPI PUSH2 0x1295 PUSH1 0x19 PUSH1 0x5 DUP5 PUSH1 0xFF AND SWAP1 SHL OR DUP5 PUSH0 ADD MLOAD PUSH2 0x1388 SWAP1 SWAP2 SWAP1 PUSH4 0xFFFFFFFF AND JUMP JUMPDEST POP PUSH2 0x12B9 DUP2 PUSH8 0xFFFFFFFFFFFFFFFF AND PUSH1 0x2 DUP6 PUSH0 ADD MLOAD PUSH2 0x1414 SWAP1 SWAP3 SWAP2 SWAP1 PUSH4 0xFFFFFFFF AND JUMP JUMPDEST POP PUSH2 0x1365 JUMP JUMPDEST PUSH4 0xFFFFFFFF DUP2 PUSH8 0xFFFFFFFFFFFFFFFF AND GT PUSH2 0x131E JUMPI PUSH2 0x12F4 PUSH1 0x1A PUSH1 0x5 DUP5 PUSH1 0xFF AND SWAP1 SHL OR DUP5 PUSH0 ADD MLOAD PUSH2 0x1388 SWAP1 SWAP2 SWAP1 PUSH4 0xFFFFFFFF AND JUMP JUMPDEST POP PUSH2 0x1318 DUP2 PUSH8 0xFFFFFFFFFFFFFFFF AND PUSH1 0x4 DUP6 PUSH0 ADD MLOAD PUSH2 0x1414 SWAP1 SWAP3 SWAP2 SWAP1 PUSH4 0xFFFFFFFF AND JUMP JUMPDEST POP PUSH2 0x1364 JUMP JUMPDEST PUSH2 0x133E PUSH1 0x1B PUSH1 0x5 DUP5 PUSH1 0xFF AND SWAP1 SHL OR DUP5 PUSH0 ADD MLOAD PUSH2 0x1388 SWAP1 SWAP2 SWAP1 PUSH4 0xFFFFFFFF AND JUMP JUMPDEST POP PUSH2 0x1362 DUP2 PUSH8 0xFFFFFFFFFFFFFFFF AND PUSH1 0x8 DUP6 PUSH0 ADD MLOAD PUSH2 0x1414 SWAP1 SWAP3 SWAP2 SWAP1 PUSH4 0xFFFFFFFF AND JUMP JUMPDEST POP JUMPDEST JUMPDEST JUMPDEST JUMPDEST POP POP POP JUMP JUMPDEST PUSH2 0x1374 PUSH2 0x162A JUMP JUMPDEST PUSH2 0x1380 DUP4 DUP4 DUP5 MLOAD PUSH2 0x149D JUMP JUMPDEST SWAP1 POP SWAP3 SWAP2 POP POP JUMP JUMPDEST PUSH2 0x1390 PUSH2 0x162A JUMP JUMPDEST PUSH0 DUP4 PUSH0 ADD MLOAD MLOAD SWAP1 POP PUSH0 PUSH1 0x1 DUP3 PUSH2 0x13A6 SWAP2 SWAP1 PUSH2 0x209F JUMP JUMPDEST SWAP1 POP DUP5 PUSH1 0x20 ADD MLOAD DUP3 LT PUSH2 0x13CA JUMPI PUSH2 0x13C9 DUP6 PUSH1 0x2 DUP4 PUSH2 0x13C4 SWAP2 SWAP1 PUSH2 0x1BE5 JUMP JUMPDEST PUSH2 0x157A JUMP JUMPDEST JUMPDEST DUP5 MLOAD PUSH1 0x20 DUP4 DUP3 ADD ADD DUP6 DUP2 MSTORE8 DUP2 MLOAD DUP4 GT ISZERO PUSH2 0x13E2 JUMPI DUP3 DUP3 MSTORE JUMPDEST POP POP DUP5 SWAP3 POP POP POP SWAP3 SWAP2 POP POP JUMP JUMPDEST PUSH2 0x140F PUSH1 0x1F PUSH1 0x5 DUP4 PUSH1 0xFF AND SWAP1 SHL OR DUP4 PUSH0 ADD MLOAD PUSH2 0x1388 SWAP1 SWAP2 SWAP1 PUSH4 0xFFFFFFFF AND JUMP JUMPDEST POP POP POP JUMP JUMPDEST PUSH2 0x141C PUSH2 0x162A JUMP JUMPDEST PUSH0 DUP5 PUSH0 ADD MLOAD MLOAD SWAP1 POP PUSH0 DUP2 DUP5 PUSH2 0x1431 SWAP2 SWAP1 PUSH2 0x209F JUMP JUMPDEST SWAP1 POP DUP6 PUSH1 0x20 ADD MLOAD DUP2 GT ISZERO PUSH2 0x1456 JUMPI PUSH2 0x1455 DUP7 PUSH1 0x2 DUP4 PUSH2 0x1450 SWAP2 SWAP1 PUSH2 0x1BE5 JUMP JUMPDEST PUSH2 0x157A JUMP JUMPDEST JUMPDEST PUSH0 PUSH1 0x1 DUP6 PUSH2 0x100 PUSH2 0x1467 SWAP2 SWAP1 PUSH2 0x2231 JUMP JUMPDEST PUSH2 0x1471 SWAP2 SWAP1 PUSH2 0x1C4D JUMP JUMPDEST SWAP1 POP DUP7 MLOAD DUP3 DUP2 ADD DUP8 DUP4 NOT DUP3 MLOAD AND OR DUP2 MSTORE DUP2 MLOAD DUP5 GT ISZERO PUSH2 0x148E JUMPI DUP4 DUP3 MSTORE JUMPDEST POP POP DUP7 SWAP4 POP POP POP POP SWAP4 SWAP3 POP POP POP JUMP JUMPDEST PUSH2 0x14A5 PUSH2 0x162A JUMP JUMPDEST DUP3 MLOAD DUP3 GT ISZERO PUSH2 0x14B2 JUMPI PUSH0 DUP1 REVERT JUMPDEST PUSH0 DUP5 PUSH0 ADD MLOAD MLOAD SWAP1 POP PUSH0 DUP4 DUP3 PUSH2 0x14C7 SWAP2 SWAP1 PUSH2 0x209F JUMP JUMPDEST SWAP1 POP DUP6 PUSH1 0x20 ADD MLOAD DUP2 GT ISZERO PUSH2 0x14EC JUMPI PUSH2 0x14EB DUP7 PUSH1 0x2 DUP4 PUSH2 0x14E6 SWAP2 SWAP1 PUSH2 0x1BE5 JUMP JUMPDEST PUSH2 0x157A JUMP JUMPDEST JUMPDEST PUSH0 DUP1 DUP8 MLOAD DUP1 MLOAD DUP6 PUSH1 0x20 DUP4 ADD ADD SWAP4 POP DUP1 DUP6 GT ISZERO PUSH2 0x1506 JUMPI DUP5 DUP3 MSTORE JUMPDEST PUSH1 0x20 DUP10 ADD SWAP3 POP POP POP JUMPDEST PUSH1 0x20 DUP7 LT PUSH2 0x154D JUMPI DUP1 MLOAD DUP3 MSTORE PUSH1 0x20 DUP3 PUSH2 0x1528 SWAP2 SWAP1 PUSH2 0x209F JUMP JUMPDEST SWAP2 POP PUSH1 0x20 DUP2 PUSH2 0x1537 SWAP2 SWAP1 PUSH2 0x209F JUMP JUMPDEST SWAP1 POP PUSH1 0x20 DUP7 PUSH2 0x1546 SWAP2 SWAP1 PUSH2 0x1C4D JUMP JUMPDEST SWAP6 POP PUSH2 0x150F JUMP JUMPDEST PUSH0 PUSH1 0x1 DUP8 PUSH1 0x20 SUB PUSH2 0x100 EXP SUB SWAP1 POP DUP1 NOT DUP3 MLOAD AND DUP2 DUP5 MLOAD AND DUP2 DUP2 OR DUP6 MSTORE POP POP POP DUP8 SWAP5 POP POP POP POP POP SWAP4 SWAP3 POP POP POP JUMP JUMPDEST PUSH0 DUP3 PUSH0 ADD MLOAD SWAP1 POP PUSH2 0x158B DUP4 DUP4 PUSH2 0x1156 JUMP JUMPDEST POP PUSH2 0x1596 DUP4 DUP3 PUSH2 0x136C JUMP JUMPDEST POP POP POP POP JUMP JUMPDEST PUSH1 0x40 MLOAD DUP1 PUSH1 0xE0 ADD PUSH1 0x40 MSTORE DUP1 PUSH0 PUSH1 0x2 DUP2 GT ISZERO PUSH2 0x15BA JUMPI PUSH2 0x15B9 PUSH2 0x1EE3 JUMP JUMPDEST JUMPDEST DUP2 MSTORE PUSH1 0x20 ADD PUSH0 PUSH1 0x2 DUP2 GT ISZERO PUSH2 0x15D2 JUMPI PUSH2 0x15D1 PUSH2 0x1EE3 JUMP JUMPDEST JUMPDEST DUP2 MSTORE PUSH1 0x20 ADD PUSH0 DUP1 DUP2 GT ISZERO PUSH2 0x15E9 JUMPI PUSH2 0x15E8 PUSH2 0x1EE3 JUMP JUMPDEST JUMPDEST DUP2 MSTORE PUSH1 0x20 ADD PUSH1 0x60 DUP2 MSTORE PUSH1 0x20 ADD PUSH1 0x60 DUP2 MSTORE PUSH1 0x20 ADD PUSH1 0x60 DUP2 MSTORE PUSH1 0x20 ADD PUSH1 0x60 DUP2 MSTORE POP SWAP1 JUMP JUMPDEST PUSH1 0x40 MLOAD DUP1 PUSH1 0x40 ADD PUSH1 0x40 MSTORE DUP1 PUSH2 0x161E PUSH2 0x162A JUMP JUMPDEST DUP2 MSTORE PUSH1 0x20 ADD PUSH0 DUP2 MSTORE POP SWAP1 JUMP JUMPDEST PUSH1 0x40 MLOAD DUP1 PUSH1 0x40 ADD PUSH1 0x40 MSTORE DUP1 PUSH1 0x60 DUP2 MSTORE PUSH1 0x20 ADD PUSH0 DUP2 MSTORE POP SWAP1 JUMP JUMPDEST PUSH0 PUSH1 0x40 MLOAD SWAP1 POP SWAP1 JUMP JUMPDEST PUSH0 DUP1 REVERT JUMPDEST PUSH0 DUP1 REVERT JUMPDEST PUSH0 DUP2 SWAP1 POP SWAP2 SWAP1 POP JUMP JUMPDEST PUSH2 0x1666 DUP2 PUSH2 0x1654 JUMP JUMPDEST DUP2 EQ PUSH2 0x1670 JUMPI PUSH0 DUP1 REVERT JUMPDEST POP JUMP JUMPDEST PUSH0 DUP2 CALLDATALOAD SWAP1 POP PUSH2 0x1681 DUP2 PUSH2 0x165D JUMP JUMPDEST SWAP3 SWAP2 POP POP JUMP JUMPDEST PUSH0 PUSH1 0x20 DUP3 DUP5 SUB SLT ISZERO PUSH2 0x169C JUMPI PUSH2 0x169B PUSH2 0x164C JUMP JUMPDEST JUMPDEST PUSH0 PUSH2 0x16A9 DUP5 DUP3 DUP6 ADD PUSH2 0x1673 JUMP JUMPDEST SWAP2 POP POP SWAP3 SWAP2 POP POP JUMP JUMPDEST PUSH0 PUSH8 0xFFFFFFFFFFFFFFFF DUP3 AND SWAP1 POP SWAP2 SWAP1 POP JUMP JUMPDEST PUSH2 0x16CE DUP2 PUSH2 0x16B2 JUMP JUMPDEST DUP3 MSTORE POP POP JUMP JUMPDEST PUSH0 PUSH1 0x20 DUP3 ADD SWAP1 POP PUSH2 0x16E7 PUSH0 DUP4 ADD DUP5 PUSH2 0x16C5 JUMP JUMPDEST SWAP3 SWAP2 POP POP JUMP JUMPDEST PUSH0 DUP2 SWAP1 POP SWAP2 SWAP1 POP JUMP JUMPDEST PUSH2 0x16FF DUP2 PUSH2 0x16ED JUMP JUMPDEST DUP2 EQ PUSH2 0x1709 JUMPI PUSH0 DUP1 REVERT JUMPDEST POP JUMP JUMPDEST PUSH0 DUP2 CALLDATALOAD SWAP1 POP PUSH2 0x171A DUP2 PUSH2 0x16F6 JUMP JUMPDEST SWAP3 SWAP2 POP POP JUMP JUMPDEST PUSH0 DUP1 REVERT JUMPDEST PUSH0 DUP1 REVERT JUMPDEST PUSH0 PUSH1 0x1F NOT PUSH1 0x1F DUP4 ADD AND SWAP1 POP SWAP2 SWAP1 POP JUMP JUMPDEST PUSH32 0x4E487B7100000000000000000000000000000000000000000000000000000000 PUSH0 MSTORE PUSH1 0x41 PUSH1 0x4 MSTORE PUSH1 0x24 PUSH0 REVERT JUMPDEST PUSH2 0x176E DUP3 PUSH2 0x1728 JUMP JUMPDEST DUP2 ADD DUP2 DUP2 LT PUSH8 0xFFFFFFFFFFFFFFFF DUP3 GT OR ISZERO PUSH2 0x178D JUMPI PUSH2 0x178C PUSH2 0x1738 JUMP JUMPDEST JUMPDEST DUP1 PUSH1 0x40 MSTORE POP POP POP JUMP JUMPDEST PUSH0 PUSH2 0x179F PUSH2 0x1643 JUMP JUMPDEST SWAP1 POP PUSH2 0x17AB DUP3 DUP3 PUSH2 0x1765 JUMP JUMPDEST SWAP2 SWAP1 POP JUMP JUMPDEST PUSH0 PUSH8 0xFFFFFFFFFFFFFFFF DUP3 GT ISZERO PUSH2 0x17CA JUMPI PUSH2 0x17C9 PUSH2 0x1738 JUMP JUMPDEST JUMPDEST PUSH2 0x17D3 DUP3 PUSH2 0x1728 JUMP JUMPDEST SWAP1 POP PUSH1 0x20 DUP2 ADD SWAP1 POP SWAP2 SWAP1 POP JUMP JUMPDEST DUP3 DUP2 DUP4 CALLDATACOPY PUSH0 DUP4 DUP4 ADD MSTORE POP POP POP JUMP JUMPDEST PUSH0 PUSH2 0x1800 PUSH2 0x17FB DUP5 PUSH2 0x17B0 JUMP JUMPDEST PUSH2 0x1796 JUMP JUMPDEST SWAP1 POP DUP3 DUP2 MSTORE PUSH1 0x20 DUP2 ADD DUP5 DUP5 DUP5 ADD GT ISZERO PUSH2 0x181C JUMPI PUSH2 0x181B PUSH2 0x1724 JUMP JUMPDEST JUMPDEST PUSH2 0x1827 DUP5 DUP3 DUP6 PUSH2 0x17E0 JUMP JUMPDEST POP SWAP4 SWAP3 POP POP POP JUMP JUMPDEST PUSH0 DUP3 PUSH1 0x1F DUP4 ADD SLT PUSH2 0x1843 JUMPI PUSH2 0x1842 PUSH2 0x1720 JUMP JUMPDEST JUMPDEST DUP2 CALLDATALOAD PUSH2 0x1853 DUP5 DUP3 PUSH1 0x20 DUP7 ADD PUSH2 0x17EE JUMP JUMPDEST SWAP2 POP POP SWAP3 SWAP2 POP POP JUMP JUMPDEST PUSH0 DUP1 PUSH0 PUSH1 0x60 DUP5 DUP7 SUB SLT ISZERO PUSH2 0x1873 JUMPI PUSH2 0x1872 PUSH2 0x164C JUMP JUMPDEST JUMPDEST PUSH0 PUSH2 0x1880 DUP7 DUP3 DUP8 ADD PUSH2 0x170C JUMP JUMPDEST SWAP4 POP POP PUSH1 0x20 DUP5 ADD CALLDATALOAD PUSH8 0xFFFFFFFFFFFFFFFF DUP2 GT ISZERO PUSH2 0x18A1 JUMPI PUSH2 0x18A0 PUSH2 0x1650 JUMP JUMPDEST JUMPDEST PUSH2 0x18AD DUP7 DUP3 DUP8 ADD PUSH2 0x182F JUMP JUMPDEST SWAP3 POP POP PUSH1 0x40 DUP5 ADD CALLDATALOAD PUSH8 0xFFFFFFFFFFFFFFFF DUP2 GT ISZERO PUSH2 0x18CE JUMPI PUSH2 0x18CD PUSH2 0x1650 JUMP JUMPDEST JUMPDEST PUSH2 0x18DA DUP7 DUP3 DUP8 ADD PUSH2 0x182F JUMP JUMPDEST SWAP2 POP POP SWAP3 POP SWAP3 POP SWAP3 JUMP JUMPDEST PUSH0 DUP2 ISZERO ISZERO SWAP1 POP SWAP2 SWAP1 POP JUMP JUMPDEST PUSH2 0x18F8 DUP2 PUSH2 0x18E4 JUMP JUMPDEST DUP3 MSTORE POP POP JUMP JUMPDEST PUSH0 PUSH1 0x20 DUP3 ADD SWAP1 POP PUSH2 0x1911 PUSH0 DUP4 ADD DUP5 PUSH2 0x18EF JUMP JUMPDEST SWAP3 SWAP2 POP POP JUMP JUMPDEST PUSH2 0x1920 DUP2 PUSH2 0x16ED JUMP JUMPDEST DUP3 MSTORE POP POP JUMP JUMPDEST PUSH0 PUSH1 0x20 DUP3 ADD SWAP1 POP PUSH2 0x1939 PUSH0 DUP4 ADD DUP5 PUSH2 0x1917 JUMP JUMPDEST SWAP3 SWAP2 POP POP JUMP JUMPDEST PUSH0 PUSH20 0xFFFFFFFFFFFFFFFFFFFFFFFFFFFFFFFFFFFFFFFF DUP3 AND SWAP1 POP SWAP2 SWAP1 POP JUMP JUMPDEST PUSH0 PUSH2 0x1968 DUP3 PUSH2 0x193F JUMP JUMPDEST SWAP1 POP SWAP2 SWAP1 POP JUMP JUMPDEST PUSH2 0x1978 DUP2 PUSH2 0x195E JUMP JUMPDEST DUP3 MSTORE POP POP JUMP JUMPDEST PUSH0 PUSH1 0x20 DUP3 ADD SWAP1 POP PUSH2 0x1991 PUSH0 DUP4 ADD DUP5 PUSH2 0x196F JUMP JUMPDEST SWAP3 SWAP2 POP POP JUMP JUMPDEST PUSH2 0x19A0 DUP2 PUSH2 0x1654 JUMP JUMPDEST DUP3 MSTORE POP POP JUMP JUMPDEST PUSH0 PUSH1 0x20 DUP3 ADD SWAP1 POP PUSH2 0x19B9 PUSH0 DUP4 ADD DUP5 PUSH2 0x1997 JUMP JUMPDEST SWAP3 SWAP2 POP POP JUMP JUMPDEST PUSH0 PUSH1 0xA0 DUP3 ADD SWAP1 POP PUSH2 0x19D2 PUSH0 DUP4 ADD DUP9 PUSH2 0x1997 JUMP JUMPDEST PUSH2 0x19DF PUSH1 0x20 DUP4 ADD DUP8 PUSH2 0x1997 JUMP JUMPDEST PUSH2 0x19EC PUSH1 0x40 DUP4 ADD DUP7 PUSH2 0x1997 JUMP JUMPDEST PUSH2 0x19F9 PUSH1 0x60 DUP4 ADD DUP6 PUSH2 0x1997 JUMP JUMPDEST PUSH2 0x1A06 PUSH1 0x80 DUP4 ADD DUP5 PUSH2 0x1917 JUMP JUMPDEST SWAP7 SWAP6 POP POP POP POP POP POP JUMP JUMPDEST PUSH2 0x1A19 DUP2 PUSH2 0x16B2 JUMP JUMPDEST DUP2 EQ PUSH2 0x1A23 JUMPI PUSH0 DUP1 REVERT JUMPDEST POP JUMP JUMPDEST PUSH0 DUP2 CALLDATALOAD SWAP1 POP PUSH2 0x1A34 DUP2 PUSH2 0x1A10 JUMP JUMPDEST SWAP3 SWAP2 POP POP JUMP JUMPDEST PUSH0 PUSH4 0xFFFFFFFF DUP3 AND SWAP1 POP SWAP2 SWAP1 POP JUMP JUMPDEST PUSH2 0x1A52 DUP2 PUSH2 0x1A3A JUMP JUMPDEST DUP2 EQ PUSH2 0x1A5C JUMPI PUSH0 DUP1 REVERT JUMPDEST POP JUMP JUMPDEST PUSH0 DUP2 CALLDATALOAD SWAP1 POP PUSH2 0x1A6D DUP2 PUSH2 0x1A49 JUMP JUMPDEST SWAP3 SWAP2 POP POP JUMP JUMPDEST PUSH0 DUP1 PUSH0 PUSH1 0x60 DUP5 DUP7 SUB SLT ISZERO PUSH2 0x1A8A JUMPI PUSH2 0x1A89 PUSH2 0x164C JUMP JUMPDEST JUMPDEST PUSH0 PUSH2 0x1A97 DUP7 DUP3 DUP8 ADD PUSH2 0x1A26 JUMP JUMPDEST SWAP4 POP POP PUSH1 0x20 PUSH2 0x1AA8 DUP7 DUP3 DUP8 ADD PUSH2 0x1A5F JUMP JUMPDEST SWAP3 POP POP PUSH1 0x40 PUSH2 0x1AB9 DUP7 DUP3 DUP8 ADD PUSH2 0x170C JUMP JUMPDEST SWAP2 POP POP SWAP3 POP SWAP3 POP SWAP3 JUMP JUMPDEST PUSH2 0x1ACC DUP2 PUSH2 0x195E JUMP JUMPDEST DUP2 EQ PUSH2 0x1AD6 JUMPI PUSH0 DUP1 REVERT JUMPDEST POP JUMP JUMPDEST PUSH0 DUP2 CALLDATALOAD SWAP1 POP PUSH2 0x1AE7 DUP2 PUSH2 0x1AC3 JUMP JUMPDEST SWAP3 SWAP2 POP POP JUMP JUMPDEST PUSH0 PUSH1 0x20 DUP3 DUP5 SUB SLT ISZERO PUSH2 0x1B02 JUMPI PUSH2 0x1B01 PUSH2 0x164C JUMP JUMPDEST JUMPDEST PUSH0 PUSH2 0x1B0F DUP5 DUP3 DUP6 ADD PUSH2 0x1AD9 JUMP JUMPDEST SWAP2 POP POP SWAP3 SWAP2 POP POP JUMP JUMPDEST PUSH2 0x1B21 DUP2 PUSH2 0x1A3A JUMP JUMPDEST DUP3 MSTORE POP POP JUMP JUMPDEST PUSH0 PUSH1 0x20 DUP3 ADD SWAP1 POP PUSH2 0x1B3A PUSH0 DUP4 ADD DUP5 PUSH2 0x1B18 JUMP JUMPDEST SWAP3 SWAP2 POP POP JUMP JUMPDEST PUSH0 DUP3 DUP3 MSTORE PUSH1 0x20 DUP3 ADD SWAP1 POP SWAP3 SWAP2 POP POP JUMP JUMPDEST PUSH32 0x5072696365206D7573742062652067726561746572207468616E203000000000 PUSH0 DUP3 ADD MSTORE POP JUMP JUMPDEST PUSH0 PUSH2 0x1B84 PUSH1 0x1C DUP4 PUSH2 0x1B40 JUMP JUMPDEST SWAP2 POP PUSH2 0x1B8F DUP3 PUSH2 0x1B50 JUMP JUMPDEST PUSH1 0x20 DUP3 ADD SWAP1 POP SWAP2 SWAP1 POP JUMP JUMPDEST PUSH0 PUSH1 0x20 DUP3 ADD SWAP1 POP DUP2 DUP2 SUB PUSH0 DUP4 ADD MSTORE PUSH2 0x1BB1 DUP2 PUSH2 0x1B78 JUMP JUMPDEST SWAP1 POP SWAP2 SWAP1 POP JUMP JUMPDEST PUSH32 0x4E487B7100000000000000000000000000000000000000000000000000000000 PUSH0 MSTORE PUSH1 0x11 PUSH1 0x4 MSTORE PUSH1 0x24 PUSH0 REVERT JUMPDEST PUSH0 PUSH2 0x1BEF DUP3 PUSH2 0x1654 JUMP JUMPDEST SWAP2 POP PUSH2 0x1BFA DUP4 PUSH2 0x1654 JUMP JUMPDEST SWAP3 POP DUP3 DUP3 MUL PUSH2 0x1C08 DUP2 PUSH2 0x1654 JUMP JUMPDEST SWAP2 POP DUP3 DUP3 DIV DUP5 EQ DUP4 ISZERO OR PUSH2 0x1C1F JUMPI PUSH2 0x1C1E PUSH2 0x1BB8 JUMP JUMPDEST JUMPDEST POP SWAP3 SWAP2 POP POP JUMP JUMPDEST PUSH0 PUSH1 0x40 DUP3 ADD SWAP1 POP PUSH2 0x1C39 PUSH0 DUP4 ADD DUP6 PUSH2 0x1997 JUMP JUMPDEST PUSH2 0x1C46 PUSH1 0x20 DUP4 ADD DUP5 PUSH2 0x1997 JUMP JUMPDEST SWAP4 SWAP3 POP POP POP JUMP JUMPDEST PUSH0 PUSH2 0x1C57 DUP3 PUSH2 0x1654 JUMP JUMPDEST SWAP2 POP PUSH2 0x1C62 DUP4 PUSH2 0x1654 JUMP JUMPDEST SWAP3 POP DUP3 DUP3 SUB SWAP1 POP DUP2 DUP2 GT ISZERO PUSH2 0x1C7A JUMPI PUSH2 0x1C79 PUSH2 0x1BB8 JUMP JUMPDEST JUMPDEST SWAP3 SWAP2 POP POP JUMP JUMPDEST PUSH32 0x4D7573742062652070726F706F736564206F776E657200000000000000000000 PUSH0 DUP3 ADD MSTORE POP JUMP JUMPDEST PUSH0 PUSH2 0x1CB4 PUSH1 0x16 DUP4 PUSH2 0x1B40 JUMP JUMPDEST SWAP2 POP PUSH2 0x1CBF DUP3 PUSH2 0x1C80 JUMP JUMPDEST PUSH1 0x20 DUP3 ADD SWAP1 POP SWAP2 SWAP1 POP JUMP JUMPDEST PUSH0 PUSH1 0x20 DUP3 ADD SWAP1 POP DUP2 DUP2 SUB PUSH0 DUP4 ADD MSTORE PUSH2 0x1CE1 DUP2 PUSH2 0x1CA8 JUMP JUMPDEST SWAP1 POP SWAP2 SWAP1 POP JUMP JUMPDEST PUSH32 0x4E487B7100000000000000000000000000000000000000000000000000000000 PUSH0 MSTORE PUSH1 0x12 PUSH1 0x4 MSTORE PUSH1 0x24 PUSH0 REVERT JUMPDEST PUSH0 PUSH2 0x1D1F DUP3 PUSH2 0x1654 JUMP JUMPDEST SWAP2 POP PUSH2 0x1D2A DUP4 PUSH2 0x1654 JUMP JUMPDEST SWAP3 POP DUP3 PUSH2 0x1D3A JUMPI PUSH2 0x1D39 PUSH2 0x1CE8 JUMP JUMPDEST JUMPDEST DUP3 DUP3 DIV SWAP1 POP SWAP3 SWAP2 POP POP JUMP JUMPDEST PUSH32 0x4E487B7100000000000000000000000000000000000000000000000000000000 PUSH0 MSTORE PUSH1 0x22 PUSH1 0x4 MSTORE PUSH1 0x24 PUSH0 REVERT JUMPDEST PUSH0 PUSH1 0x2 DUP3 DIV SWAP1 POP PUSH1 0x1 DUP3 AND DUP1 PUSH2 0x1D89 JUMPI PUSH1 0x7F DUP3 AND SWAP2 POP JUMPDEST PUSH1 0x20 DUP3 LT DUP2 SUB PUSH2 0x1D9C JUMPI PUSH2 0x1D9B PUSH2 0x1D45 JUMP JUMPDEST JUMPDEST POP SWAP2 SWAP1 POP JUMP JUMPDEST PUSH32 0x4F6E6C792063616C6C61626C65206279206F776E657200000000000000000000 PUSH0 DUP3 ADD MSTORE POP JUMP JUMPDEST PUSH0 PUSH2 0x1DD6 PUSH1 0x16 DUP4 PUSH2 0x1B40 JUMP JUMPDEST SWAP2 POP PUSH2 0x1DE1 DUP3 PUSH2 0x1DA2 JUMP JUMPDEST PUSH1 0x20 DUP3 ADD SWAP1 POP SWAP2 SWAP1 POP JUMP JUMPDEST PUSH0 PUSH1 0x20 DUP3 ADD SWAP1 POP DUP2 DUP2 SUB PUSH0 DUP4 ADD MSTORE PUSH2 0x1E03 DUP2 PUSH2 0x1DCA JUMP JUMPDEST SWAP1 POP SWAP2 SWAP1 POP JUMP JUMPDEST PUSH0 DUP2 MLOAD SWAP1 POP SWAP2 SWAP1 POP JUMP JUMPDEST PUSH0 DUP3 DUP3 MSTORE PUSH1 0x20 DUP3 ADD SWAP1 POP SWAP3 SWAP2 POP POP JUMP JUMPDEST PUSH0 JUMPDEST DUP4 DUP2 LT ISZERO PUSH2 0x1E41 JUMPI DUP1 DUP3 ADD MLOAD DUP2 DUP5 ADD MSTORE PUSH1 0x20 DUP2 ADD SWAP1 POP PUSH2 0x1E26 JUMP JUMPDEST PUSH0 DUP5 DUP5 ADD MSTORE POP POP POP POP JUMP JUMPDEST PUSH0 PUSH2 0x1E56 DUP3 PUSH2 0x1E0A JUMP JUMPDEST PUSH2 0x1E60 DUP2 DUP6 PUSH2 0x1E14 JUMP JUMPDEST SWAP4 POP PUSH2 0x1E70 DUP2 DUP6 PUSH1 0x20 DUP7 ADD PUSH2 0x1E24 JUMP JUMPDEST PUSH2 0x1E79 DUP2 PUSH2 0x1728 JUMP JUMPDEST DUP5 ADD SWAP2 POP POP SWAP3 SWAP2 POP POP JUMP JUMPDEST PUSH0 PUSH1 0x20 DUP3 ADD SWAP1 POP DUP2 DUP2 SUB PUSH0 DUP4 ADD MSTORE PUSH2 0x1E9C DUP2 DUP5 PUSH2 0x1E4C JUMP JUMPDEST SWAP1 POP SWAP3 SWAP2 POP POP JUMP JUMPDEST PUSH0 DUP2 MLOAD SWAP1 POP PUSH2 0x1EB2 DUP2 PUSH2 0x165D JUMP JUMPDEST SWAP3 SWAP2 POP POP JUMP JUMPDEST PUSH0 PUSH1 0x20 DUP3 DUP5 SUB SLT ISZERO PUSH2 0x1ECD JUMPI PUSH2 0x1ECC PUSH2 0x164C JUMP JUMPDEST JUMPDEST PUSH0 PUSH2 0x1EDA DUP5 DUP3 DUP6 ADD PUSH2 0x1EA4 JUMP JUMPDEST SWAP2 POP POP SWAP3 SWAP2 POP POP JUMP JUMPDEST PUSH32 0x4E487B7100000000000000000000000000000000000000000000000000000000 PUSH0 MSTORE PUSH1 0x21 PUSH1 0x4 MSTORE PUSH1 0x24 PUSH0 REVERT JUMPDEST PUSH32 0x4E487B7100000000000000000000000000000000000000000000000000000000 PUSH0 MSTORE PUSH1 0x32 PUSH1 0x4 MSTORE PUSH1 0x24 PUSH0 REVERT JUMPDEST PUSH0 PUSH2 0x1F47 DUP3 PUSH2 0x1654 JUMP JUMPDEST SWAP2 POP PUSH32 0xFFFFFFFFFFFFFFFFFFFFFFFFFFFFFFFFFFFFFFFFFFFFFFFFFFFFFFFFFFFFFFFF DUP3 SUB PUSH2 0x1F79 JUMPI PUSH2 0x1F78 PUSH2 0x1BB8 JUMP JUMPDEST JUMPDEST PUSH1 0x1 DUP3 ADD SWAP1 POP SWAP2 SWAP1 POP JUMP JUMPDEST PUSH0 PUSH2 0xFFFF DUP3 AND SWAP1 POP SWAP2 SWAP1 POP JUMP JUMPDEST PUSH2 0x1F9A DUP2 PUSH2 0x1F84 JUMP JUMPDEST DUP3 MSTORE POP POP JUMP JUMPDEST PUSH0 PUSH1 0xA0 DUP3 ADD SWAP1 POP PUSH2 0x1FB3 PUSH0 DUP4 ADD DUP9 PUSH2 0x16C5 JUMP JUMPDEST DUP2 DUP2 SUB PUSH1 0x20 DUP4 ADD MSTORE PUSH2 0x1FC5 DUP2 DUP8 PUSH2 0x1E4C JUMP JUMPDEST SWAP1 POP PUSH2 0x1FD4 PUSH1 0x40 DUP4 ADD DUP7 PUSH2 0x1F91 JUMP JUMPDEST PUSH2 0x1FE1 PUSH1 0x60 DUP4 ADD DUP6 PUSH2 0x1B18 JUMP JUMPDEST PUSH2 0x1FEE PUSH1 0x80 DUP4 ADD DUP5 PUSH2 0x1917 JUMP JUMPDEST SWAP7 SWAP6 POP POP POP POP POP POP JUMP JUMPDEST PUSH0 DUP2 MLOAD SWAP1 POP PUSH2 0x2006 DUP2 PUSH2 0x16F6 JUMP JUMPDEST SWAP3 SWAP2 POP POP JUMP JUMPDEST PUSH0 PUSH1 0x20 DUP3 DUP5 SUB SLT ISZERO PUSH2 0x2021 JUMPI PUSH2 0x2020 PUSH2 0x164C JUMP JUMPDEST JUMPDEST PUSH0 PUSH2 0x202E DUP5 DUP3 DUP6 ADD PUSH2 0x1FF8 JUMP JUMPDEST SWAP2 POP POP SWAP3 SWAP2 POP POP JUMP JUMPDEST PUSH32 0x43616E6E6F74207472616E7366657220746F2073656C66000000000000000000 PUSH0 DUP3 ADD MSTORE POP JUMP JUMPDEST PUSH0 PUSH2 0x206B PUSH1 0x17 DUP4 PUSH2 0x1B40 JUMP JUMPDEST SWAP2 POP PUSH2 0x2076 DUP3 PUSH2 0x2037 JUMP JUMPDEST PUSH1 0x20 DUP3 ADD SWAP1 POP SWAP2 SWAP1 POP JUMP JUMPDEST PUSH0 PUSH1 0x20 DUP3 ADD SWAP1 POP DUP2 DUP2 SUB PUSH0 DUP4 ADD MSTORE PUSH2 0x2098 DUP2 PUSH2 0x205F JUMP JUMPDEST SWAP1 POP SWAP2 SWAP1 POP JUMP JUMPDEST PUSH0 PUSH2 0x20A9 DUP3 PUSH2 0x1654 JUMP JUMPDEST SWAP2 POP PUSH2 0x20B4 DUP4 PUSH2 0x1654 JUMP JUMPDEST SWAP3 POP DUP3 DUP3 ADD SWAP1 POP DUP1 DUP3 GT ISZERO PUSH2 0x20CC JUMPI PUSH2 0x20CB PUSH2 0x1BB8 JUMP JUMPDEST JUMPDEST SWAP3 SWAP2 POP POP JUMP JUMPDEST PUSH0 PUSH2 0x20DC DUP3 PUSH2 0x1654 JUMP JUMPDEST SWAP2 POP PUSH2 0x20E7 DUP4 PUSH2 0x1654 JUMP JUMPDEST SWAP3 POP DUP3 PUSH2 0x20F7 JUMPI PUSH2 0x20F6 PUSH2 0x1CE8 JUMP JUMPDEST JUMPDEST DUP3 DUP3 MOD SWAP1 POP SWAP3 SWAP2 POP POP JUMP JUMPDEST PUSH0 DUP2 PUSH1 0x1 SHR SWAP1 POP SWAP2 SWAP1 POP JUMP JUMPDEST PUSH0 DUP1 DUP3 SWAP2 POP DUP4 SWAP1 POP JUMPDEST PUSH1 0x1 DUP6 GT ISZERO PUSH2 0x2157 JUMPI DUP1 DUP7 DIV DUP2 GT ISZERO PUSH2 0x2133 JUMPI PUSH2 0x2132 PUSH2 0x1BB8 JUMP JUMPDEST JUMPDEST PUSH1 0x1 DUP6 AND ISZERO PUSH2 0x2142 JUMPI DUP1 DUP3 MUL SWAP2 POP JUMPDEST DUP1 DUP2 MUL SWAP1 POP PUSH2 0x2150 DUP6 PUSH2 0x2102 JUMP JUMPDEST SWAP5 POP PUSH2 0x2117 JUMP JUMPDEST SWAP5 POP SWAP5 SWAP3 POP POP POP JUMP JUMPDEST PUSH0 DUP3 PUSH2 0x216F JUMPI PUSH1 0x1 SWAP1 POP PUSH2 0x222A JUMP JUMPDEST DUP2 PUSH2 0x217C JUMPI PUSH0 SWAP1 POP PUSH2 0x222A JUMP JUMPDEST DUP2 PUSH1 0x1 DUP2 EQ PUSH2 0x2192 JUMPI PUSH1 0x2 DUP2 EQ PUSH2 0x219C JUMPI PUSH2 0x21CB JUMP JUMPDEST PUSH1 0x1 SWAP2 POP POP PUSH2 0x222A JUMP JUMPDEST PUSH1 0xFF DUP5 GT ISZERO PUSH2 0x21AE JUMPI PUSH2 0x21AD PUSH2 0x1BB8 JUMP JUMPDEST JUMPDEST DUP4 PUSH1 0x2 EXP SWAP2 POP DUP5 DUP3 GT ISZERO PUSH2 0x21C5 JUMPI PUSH2 0x21C4 PUSH2 0x1BB8 JUMP JUMPDEST JUMPDEST POP PUSH2 0x222A JUMP JUMPDEST POP PUSH1 0x20 DUP4 LT PUSH2 0x133 DUP4 LT AND PUSH1 0x4E DUP5 LT PUSH1 0xB DUP5 LT AND OR ISZERO PUSH2 0x2200 JUMPI DUP3 DUP3 EXP SWAP1 POP DUP4 DUP2 GT ISZERO PUSH2 0x21FB JUMPI PUSH2 0x21FA PUSH2 0x1BB8 JUMP JUMPDEST JUMPDEST PUSH2 0x222A JUMP JUMPDEST PUSH2 0x220D DUP5 DUP5 DUP5 PUSH1 0x1 PUSH2 0x210E JUMP JUMPDEST SWAP3 POP SWAP1 POP DUP2 DUP5 DIV DUP2 GT ISZERO PUSH2 0x2224 JUMPI PUSH2 0x2223 PUSH2 0x1BB8 JUMP JUMPDEST JUMPDEST DUP2 DUP2 MUL SWAP1 POP JUMPDEST SWAP4 SWAP3 POP POP POP JUMP JUMPDEST PUSH0 PUSH2 0x223B DUP3 PUSH2 0x1654 JUMP JUMPDEST SWAP2 POP PUSH2 0x2246 DUP4 PUSH2 0x1654 JUMP JUMPDEST SWAP3 POP PUSH2 0x2273 PUSH32 0xFFFFFFFFFFFFFFFFFFFFFFFFFFFFFFFFFFFFFFFFFFFFFFFFFFFFFFFFFFFFFFFF DUP5 DUP5 PUSH2 0x2160 JUMP JUMPDEST SWAP1 POP SWAP3 SWAP2 POP POP JUMP INVALID LOG2 PUSH5 0x6970667358 0x22 SLT KECCAK256 SLT SHL DUP7 0xCC MSTORE8 0xD6 SLT 0x4D CALLVALUE 0x5E 0xB9 0xEF 0xD1 SWAP13 STATICCALL 0xFB LOG4 PUSH10 0x553F8A48A28F69F5A8C1 0xE5 SWAP9 0xA5 DUP5 PUSH5 0x736F6C6343 STOP ADDMOD EQ STOP CALLER PUSH4 0x6F6E7374 KECCAK256 PUSH19 0x6573706F6E7365203D2061776169742046756E PUSH4 0x74696F6E PUSH20 0x2E6D616B654874747052657175657374287B7572 PUSH13 0x3A202768747470733A2F2F7175 PUSH6 0x7279312E6669 PUSH15 0x616E63652E7961686F6F2E636F6D2F PUSH23 0x382F66696E616E63652F63686172742F303035302E5457 0x27 PUSH30 0x293B69662028726573706F6E73652E6572726F7229207B7468726F772045 PUSH19 0x726F72282752657175657374206661696C6564 0x27 0x29 EXTCODESIZE PUSH30 0x636F6E737420726573756C74203D20726573706F6E73652E646174612E63 PUSH9 0x6172742E726573756C PUSH21 0x5B305D3B636F6E7374207072696365203D20726573 PUSH22 0x6C742E6D6574612E726567756C61724D61726B657450 PUSH19 0x6963653B6966202821707269636529207B7468 PUSH19 0x6F77204572726F7228275072696365206E6F74 KECCAK256 PUSH7 0x6F756E6427293B PUSH30 0x72657475726E2046756E6374696F6E732E656E636F646555696E74323536 0x28 0x4D PUSH2 0x7468 0x2E PUSH19 0x6F756E64287072696365202A20316531382929 EXTCODESIZE "
				},
				"gasEstimates": {
					"creation": {
						"codeDepositCost": "1776200",
						"executionCost": "infinite",
						"totalCost": "infinite"
					},
					"external": {
						"acceptOwnership()": "54578",
						"donID()": "2448",
						"gasLimit()": "2583",
						"getLatestPrice()": "2521",
						"getLatestPriceUSD()": "infinite",
						"getOracleInfo()": "infinite",
						"handleOracleFulfillment(bytes32,bytes,bytes)": "infinite",
						"isPriceStale()": "infinite",
						"lastRequestId()": "2513",
						"lastUpdateTime()": "2492",
						"owner()": "2582",
						"requestPriceUpdate()": "infinite",
						"subscriptionId()": "2512",
						"transferOwnership(address)": "30689",
						"updateConfig(uint64,uint32,bytes32)": "73727",
						"updatePriceManual(uint256)": "infinite"
					},
					"internal": {
						"fulfillRequest(bytes32,bytes memory,bytes memory)": "infinite"
					}
				},
				"methodIdentifiers": {
					"acceptOwnership()": "79ba5097",
					"donID()": "6e74336b",
					"gasLimit()": "f68016b7",
					"getLatestPrice()": "8e15f473",
					"getLatestPriceUSD()": "ec2b70a4",
					"getOracleInfo()": "9c84cd10",
					"handleOracleFulfillment(bytes32,bytes,bytes)": "0ca76175",
					"isPriceStale()": "2f5df725",
					"lastRequestId()": "fc2a88c3",
					"lastUpdateTime()": "c8f33c91",
					"owner()": "8da5cb5b",
					"requestPriceUpdate()": "afdb0556",
					"subscriptionId()": "09c1ba2e",
					"transferOwnership(address)": "f2fde38b",
					"updateConfig(uint64,uint32,bytes32)": "d0f784f0",
					"updatePriceManual(uint256)": "05239ca1"
				}
			},
			"storageLayout": {
				"storage": [
					{
						"astId": 816,
						"contract": "contracts/0050PriceOracle.sol:PriceOracle0050",
						"label": "s_owner",
						"offset": 0,
						"slot": "0",
						"type": "t_address"
					},
					{
						"astId": 818,
						"contract": "contracts/0050PriceOracle.sol:PriceOracle0050",
						"label": "s_pendingOwner",
						"offset": 0,
						"slot": "1",
						"type": "t_address"
					},
					{
						"astId": 2285,
						"contract": "contracts/0050PriceOracle.sol:PriceOracle0050",
						"label": "currentPrice",
						"offset": 0,
						"slot": "2",
						"type": "t_uint256"
					},
					{
						"astId": 2287,
						"contract": "contracts/0050PriceOracle.sol:PriceOracle0050",
						"label": "lastUpdateTime",
						"offset": 0,
						"slot": "3",
						"type": "t_uint256"
					},
					{
						"astId": 2289,
						"contract": "contracts/0050PriceOracle.sol:PriceOracle0050",
						"label": "lastRequestId",
						"offset": 0,
						"slot": "4",
						"type": "t_bytes32"
					},
					{
						"astId": 2291,
						"contract": "contracts/0050PriceOracle.sol:PriceOracle0050",
						"label": "subscriptionId",
						"offset": 0,
						"slot": "5",
						"type": "t_uint64"
					},
					{
						"astId": 2294,
						"contract": "contracts/0050PriceOracle.sol:PriceOracle0050",
						"label": "gasLimit",
						"offset": 8,
						"slot": "5",
						"type": "t_uint32"
					},
					{
						"astId": 2296,
						"contract": "contracts/0050PriceOracle.sol:PriceOracle0050",
						"label": "donID",
						"offset": 0,
						"slot": "6",
						"type": "t_bytes32"
					},
					{
						"astId": 2315,
						"contract": "contracts/0050PriceOracle.sol:PriceOracle0050",
						"label": "source",
						"offset": 0,
						"slot": "7",
						"type": "t_string_storage"
					}
				],
				"types": {
					"t_address": {
						"encoding": "inplace",
						"label": "address",
						"numberOfBytes": "20"
					},
					"t_bytes32": {
						"encoding": "inplace",
						"label": "bytes32",
						"numberOfBytes": "32"
					},
					"t_string_storage": {
						"encoding": "bytes",
						"label": "string",
						"numberOfBytes": "32"
					},
					"t_uint256": {
						"encoding": "inplace",
						"label": "uint256",
						"numberOfBytes": "32"
					},
					"t_uint32": {
						"encoding": "inplace",
						"label": "uint32",
						"numberOfBytes": "4"
					},
					"t_uint64": {
						"encoding": "inplace",
						"label": "uint64",
						"numberOfBytes": "8"
					}
				}
			},
			"userdoc": {
				"kind": "user",
				"methods": {
					"acceptOwnership()": {
						"notice": "Allows an ownership transfer to be completed by the recipient."
					},
					"handleOracleFulfillment(bytes32,bytes,bytes)": {
						"notice": "Chainlink Functions response handler called by the Functions Router during fullilment from the designated transmitter node in an OCR round."
					},
					"owner()": {
						"notice": "Get the current owner"
					},
					"transferOwnership(address)": {
						"notice": "Allows an owner to begin transferring ownership to a new address."
					}
				},
				"version": 1
			}
		}
	}
}