{
	"contracts/0050PriceUSDOracle.sol": {
		"PriceOracle0050": {
			"abi": [
				{
					"inputs": [],
					"stateMutability": "nonpayable",
					"type": "constructor"
				},
				{
					"inputs": [],
					"name": "EmptySource",
					"type": "error"
				},
				{
					"inputs": [],
					"name": "NoInlineSecrets",
					"type": "error"
				},
				{
					"inputs": [],
					"name": "OnlyRouterCanFulfill",
					"type": "error"
				},
				{
					"anonymous": false,
					"inputs": [
						{
							"indexed": true,
							"internalType": "address",
							"name": "from",
							"type": "address"
						},
						{
							"indexed": true,
							"internalType": "address",
							"name": "to",
							"type": "address"
						}
					],
					"name": "OwnershipTransferRequested",
					"type": "event"
				},
				{
					"anonymous": false,
					"inputs": [
						{
							"indexed": true,
							"internalType": "address",
							"name": "from",
							"type": "address"
						},
						{
							"indexed": true,
							"internalType": "address",
							"name": "to",
							"type": "address"
						}
					],
					"name": "OwnershipTransferred",
					"type": "event"
				},
				{
					"anonymous": false,
					"inputs": [
						{
							"indexed": true,
							"internalType": "bytes32",
							"name": "requestId",
							"type": "bytes32"
						}
					],
					"name": "PriceRequested",
					"type": "event"
				},
				{
					"anonymous": false,
					"inputs": [
						{
							"indexed": false,
							"internalType": "uint256",
							"name": "newPrice",
							"type": "uint256"
						},
						{
							"indexed": false,
							"internalType": "uint256",
							"name": "timestamp",
							"type": "uint256"
						}
					],
					"name": "PriceUpdated",
					"type": "event"
				},
				{
					"anonymous": false,
					"inputs": [
						{
							"indexed": true,
							"internalType": "bytes32",
							"name": "requestId",
							"type": "bytes32"
						},
						{
							"indexed": false,
							"internalType": "bytes",
							"name": "error",
							"type": "bytes"
						}
					],
					"name": "RequestFailed",
					"type": "event"
				},
				{
					"anonymous": false,
					"inputs": [
						{
							"indexed": true,
							"internalType": "bytes32",
							"name": "id",
							"type": "bytes32"
						}
					],
					"name": "RequestFulfilled",
					"type": "event"
				},
				{
					"anonymous": false,
					"inputs": [
						{
							"indexed": true,
							"internalType": "bytes32",
							"name": "id",
							"type": "bytes32"
						}
					],
					"name": "RequestSent",
					"type": "event"
				},
				{
					"inputs": [],
					"name": "acceptOwnership",
					"outputs": [],
					"stateMutability": "nonpayable",
					"type": "function"
				},
				{
					"inputs": [],
					"name": "donID",
					"outputs": [
						{
							"internalType": "bytes32",
							"name": "",
							"type": "bytes32"
						}
					],
					"stateMutability": "view",
					"type": "function"
				},
				{
					"inputs": [],
					"name": "gasLimit",
					"outputs": [
						{
							"internalType": "uint32",
							"name": "",
							"type": "uint32"
						}
					],
					"stateMutability": "view",
					"type": "function"
				},
				{
					"inputs": [],
					"name": "getCalculationDetails",
					"outputs": [
						{
							"internalType": "uint256",
							"name": "rawPrice",
							"type": "uint256"
						},
						{
							"internalType": "uint256",
							"name": "calculatedUSDCents",
							"type": "uint256"
						},
						{
							"internalType": "uint256",
							"name": "precisePriceE18",
							"type": "uint256"
						},
						{
							"internalType": "string",
							"name": "calculation",
							"type": "string"
						}
					],
					"stateMutability": "view",
					"type": "function"
				},
				{
					"inputs": [],
					"name": "getLatestPrice",
					"outputs": [
						{
							"internalType": "uint256",
							"name": "",
							"type": "uint256"
						}
					],
					"stateMutability": "view",
					"type": "function"
				},
				{
					"inputs": [],
					"name": "getLatestPricePrecise",
					"outputs": [
						{
							"internalType": "uint256",
							"name": "",
							"type": "uint256"
						}
					],
					"stateMutability": "view",
					"type": "function"
				},
				{
					"inputs": [],
					"name": "getLatestPriceUSD",
					"outputs": [
						{
							"internalType": "uint256",
							"name": "",
							"type": "uint256"
						}
					],
					"stateMutability": "view",
					"type": "function"
				},
				{
					"inputs": [],
					"name": "getOracleInfo",
					"outputs": [
						{
							"internalType": "uint256",
							"name": "price",
							"type": "uint256"
						},
						{
							"internalType": "uint256",
							"name": "priceCents",
							"type": "uint256"
						},
						{
							"internalType": "uint256",
							"name": "lastUpdate",
							"type": "uint256"
						},
						{
							"internalType": "uint256",
							"name": "timeSinceUpdate",
							"type": "uint256"
						},
						{
							"internalType": "bytes32",
							"name": "lastRequest",
							"type": "bytes32"
						}
					],
					"stateMutability": "view",
					"type": "function"
				},
				{
					"inputs": [
						{
							"internalType": "bytes32",
							"name": "requestId",
							"type": "bytes32"
						},
						{
							"internalType": "bytes",
							"name": "response",
							"type": "bytes"
						},
						{
							"internalType": "bytes",
							"name": "err",
							"type": "bytes"
						}
					],
					"name": "handleOracleFulfillment",
					"outputs": [],
					"stateMutability": "nonpayable",
					"type": "function"
				},
				{
					"inputs": [],
					"name": "isPriceStale",
					"outputs": [
						{
							"internalType": "bool",
							"name": "",
							"type": "bool"
						}
					],
					"stateMutability": "view",
					"type": "function"
				},
				{
					"inputs": [],
					"name": "lastRequestId",
					"outputs": [
						{
							"internalType": "bytes32",
							"name": "",
							"type": "bytes32"
						}
					],
					"stateMutability": "view",
					"type": "function"
				},
				{
					"inputs": [],
					"name": "lastUpdateTime",
					"outputs": [
						{
							"internalType": "uint256",
							"name": "",
							"type": "uint256"
						}
					],
					"stateMutability": "view",
					"type": "function"
				},
				{
					"inputs": [],
					"name": "owner",
					"outputs": [
						{
							"internalType": "address",
							"name": "",
							"type": "address"
						}
					],
					"stateMutability": "view",
					"type": "function"
				},
				{
					"inputs": [],
					"name": "requestPriceUpdate",
					"outputs": [
						{
							"internalType": "bytes32",
							"name": "requestId",
							"type": "bytes32"
						}
					],
					"stateMutability": "nonpayable",
					"type": "function"
				},
				{
					"inputs": [],
					"name": "subscriptionId",
					"outputs": [
						{
							"internalType": "uint64",
							"name": "",
							"type": "uint64"
						}
					],
					"stateMutability": "view",
					"type": "function"
				},
				{
					"inputs": [
						{
							"internalType": "address",
							"name": "to",
							"type": "address"
						}
					],
					"name": "transferOwnership",
					"outputs": [],
					"stateMutability": "nonpayable",
					"type": "function"
				},
				{
					"inputs": [
						{
							"internalType": "uint64",
							"name": "_subscriptionId",
							"type": "uint64"
						},
						{
							"internalType": "uint32",
							"name": "_gasLimit",
							"type": "uint32"
						},
						{
							"internalType": "bytes32",
							"name": "_donID",
							"type": "bytes32"
						}
					],
					"name": "updateConfig",
					"outputs": [],
					"stateMutability": "nonpayable",
					"type": "function"
				},
				{
					"inputs": [
						{
							"internalType": "uint256",
							"name": "_newPriceUSD",
							"type": "uint256"
						}
					],
					"name": "updatePriceManual",
					"outputs": [],
					"stateMutability": "nonpayable",
					"type": "function"
				}
			],
			"devdoc": {
				"kind": "dev",
				"methods": {
					"handleOracleFulfillment(bytes32,bytes,bytes)": {
						"details": "Either response or error parameter will be set, but never both.",
						"params": {
							"err": "Aggregated error either from the request's source code or from the execution pipeline.",
							"requestId": "The requestId returned by FunctionsClient.sendRequest().",
							"response": "Aggregated response from the request's source code."
						}
					}
				},
				"version": 1
			},
			"evm": {
				"assembly": "    /* \"contracts/0050PriceUSDOracle.sol\":373:5687  contract PriceOracle0050 is FunctionsClient, ConfirmedOwner {... */\n  mstore(0x40, 0xa0)\n    /* \"contracts/0050PriceUSDOracle.sol\":711:717  300000 */\n  0x0493e0\n    /* \"contracts/0050PriceUSDOracle.sol\":686:717  uint32 public gasLimit = 300000 */\n  0x05\n  exp(0x0100, 0x08)\n  dup2\n  sload\n  dup2\n  0xffffffff\n  mul\n  not\n  and\n  swap1\n  dup4\n  0xffffffff\n  and\n  mul\n  or\n  swap1\n  sstore\n  pop\n    /* \"contracts/0050PriceUSDOracle.sol\":1028:1868  string private source = ... */\n  mload(0x40)\n  dup1\n  0x02c0\n  add\n  0x40\n  mstore\n  dup1\n  0x0288\n  dup2\n  mstore\n  0x20\n  add\n  data_ec96a567fa79c0a4239f4aaa8acb1906b4fa8fe71dbf9a8784403da94ba53587\n  0x0288\n  swap2\n  codecopy\n  0x07\n  swap1\n  dup2\n  tag_1\n  swap2\n  swap1\n  tag_2\n  jump\t// in\ntag_1:\n  pop\n    /* \"contracts/0050PriceUSDOracle.sol\":1881:2279  constructor() FunctionsClient(0xb83E47C2bC239B3bf370bc41e1459A34b41238D0) ConfirmedOwner(msg.sender) {... */\n  callvalue\n  dup1\n  iszero\n  tag_3\n  jumpi\n  0x00\n  dup1\n  revert\ntag_3:\n  pop\n    /* \"contracts/0050PriceUSDOracle.sol\":1970:1980  msg.sender */\n  caller\n    /* \"@chainlink/contracts/src/v0.8/shared/access/ConfirmedOwner.sol\":355:363  newOwner */\n  dup1\n    /* \"@chainlink/contracts/src/v0.8/shared/access/ConfirmedOwner.sol\":373:374  0 */\n  0x00\n    /* \"contracts/0050PriceUSDOracle.sol\":1911:1953  0xb83E47C2bC239B3bf370bc41e1459A34b41238D0 */\n  0xb83e47c2bc239b3bf370bc41e1459a34b41238d0\n    /* \"@chainlink/contracts/src/v0.8/functions/v1_0_0/FunctionsClient.sol\":764:770  router */\n  dup1\n    /* \"@chainlink/contracts/src/v0.8/functions/v1_0_0/FunctionsClient.sol\":736:771  i_router = IFunctionsRouter(router) */\n  0xffffffffffffffffffffffffffffffffffffffff\n  and\n  0x80\n  dup2\n  0xffffffffffffffffffffffffffffffffffffffff\n  and\n  dup2\n  mstore\n  pop\n  pop\n    /* \"@chainlink/contracts/src/v0.8/functions/v1_0_0/FunctionsClient.sol\":702:776  constructor(address router) {... */\n  pop\n    /* \"@chainlink/contracts/src/v0.8/shared/access/ConfirmedOwnerWithProposal.sol\":618:619  0 */\n  0x00\n    /* \"@chainlink/contracts/src/v0.8/shared/access/ConfirmedOwnerWithProposal.sol\":598:620  newOwner != address(0) */\n  0xffffffffffffffffffffffffffffffffffffffff\n  and\n    /* \"@chainlink/contracts/src/v0.8/shared/access/ConfirmedOwnerWithProposal.sol\":598:606  newOwner */\n  dup3\n    /* \"@chainlink/contracts/src/v0.8/shared/access/ConfirmedOwnerWithProposal.sol\":598:620  newOwner != address(0) */\n  0xffffffffffffffffffffffffffffffffffffffff\n  and\n  sub\n    /* \"@chainlink/contracts/src/v0.8/shared/access/ConfirmedOwnerWithProposal.sol\":590:649  require(newOwner != address(0), \"Cannot set owner to zero\") */\n  tag_10\n  jumpi\n  mload(0x40)\n  0x08c379a000000000000000000000000000000000000000000000000000000000\n  dup2\n  mstore\n  0x04\n  add\n  tag_11\n  swap1\n  tag_12\n  jump\t// in\ntag_11:\n  mload(0x40)\n  dup1\n  swap2\n  sub\n  swap1\n  revert\ntag_10:\n    /* \"@chainlink/contracts/src/v0.8/shared/access/ConfirmedOwnerWithProposal.sol\":666:674  newOwner */\n  dup2\n    /* \"@chainlink/contracts/src/v0.8/shared/access/ConfirmedOwnerWithProposal.sol\":656:663  s_owner */\n  0x00\n  dup1\n    /* \"@chainlink/contracts/src/v0.8/shared/access/ConfirmedOwnerWithProposal.sol\":656:674  s_owner = newOwner */\n  0x0100\n  exp\n  dup2\n  sload\n  dup2\n  0xffffffffffffffffffffffffffffffffffffffff\n  mul\n  not\n  and\n  swap1\n  dup4\n  0xffffffffffffffffffffffffffffffffffffffff\n  and\n  mul\n  or\n  swap1\n  sstore\n  pop\n    /* \"@chainlink/contracts/src/v0.8/shared/access/ConfirmedOwnerWithProposal.sol\":708:709  0 */\n  0x00\n    /* \"@chainlink/contracts/src/v0.8/shared/access/ConfirmedOwnerWithProposal.sol\":684:710  pendingOwner != address(0) */\n  0xffffffffffffffffffffffffffffffffffffffff\n  and\n    /* \"@chainlink/contracts/src/v0.8/shared/access/ConfirmedOwnerWithProposal.sol\":684:696  pendingOwner */\n  dup2\n    /* \"@chainlink/contracts/src/v0.8/shared/access/ConfirmedOwnerWithProposal.sol\":684:710  pendingOwner != address(0) */\n  0xffffffffffffffffffffffffffffffffffffffff\n  and\n  eq\n    /* \"@chainlink/contracts/src/v0.8/shared/access/ConfirmedOwnerWithProposal.sol\":680:759  if (pendingOwner != address(0)) {... */\n  tag_13\n  jumpi\n    /* \"@chainlink/contracts/src/v0.8/shared/access/ConfirmedOwnerWithProposal.sol\":720:752  _transferOwnership(pendingOwner) */\n  tag_14\n    /* \"@chainlink/contracts/src/v0.8/shared/access/ConfirmedOwnerWithProposal.sol\":739:751  pendingOwner */\n  dup2\n    /* \"@chainlink/contracts/src/v0.8/shared/access/ConfirmedOwnerWithProposal.sol\":720:738  _transferOwnership */\n  shl(0x20, tag_15)\n    /* \"@chainlink/contracts/src/v0.8/shared/access/ConfirmedOwnerWithProposal.sol\":720:752  _transferOwnership(pendingOwner) */\n  0x20\n  shr\n  jump\t// in\ntag_14:\n    /* \"@chainlink/contracts/src/v0.8/shared/access/ConfirmedOwnerWithProposal.sol\":680:759  if (pendingOwner != address(0)) {... */\ntag_13:\n    /* \"@chainlink/contracts/src/v0.8/shared/access/ConfirmedOwnerWithProposal.sol\":481:763  constructor(address newOwner, address pendingOwner) {... */\n  pop\n  pop\n    /* \"@chainlink/contracts/src/v0.8/shared/access/ConfirmedOwner.sol\":298:379  constructor(address newOwner) ConfirmedOwnerWithProposal(newOwner, address(0)) {} */\n  pop\n    /* \"contracts/0050PriceUSDOracle.sol\":2010:2014  5639 */\n  0x1607\n    /* \"contracts/0050PriceUSDOracle.sol\":1993:2007  subscriptionId */\n  0x05\n  0x00\n    /* \"contracts/0050PriceUSDOracle.sol\":1993:2014  subscriptionId = 5639 */\n  0x0100\n  exp\n  dup2\n  sload\n  dup2\n  0xffffffffffffffff\n  mul\n  not\n  and\n  swap1\n  dup4\n  0xffffffffffffffff\n  and\n  mul\n  or\n  swap1\n  sstore\n  pop\n    /* \"contracts/0050PriceUSDOracle.sol\":2051:2117  0x66756e2d657468657265756d2d7365706f6c69612d3100000000000000000000 */\n  0x66756e2d657468657265756d2d7365706f6c69612d3100000000000000000000\n    /* \"contracts/0050PriceUSDOracle.sol\":2043:2117  donID = 0x66756e2d657468657265756d2d7365706f6c69612d3100000000000000000000 */\n  0x00\n  shl\n    /* \"contracts/0050PriceUSDOracle.sol\":2043:2048  donID */\n  0x06\n    /* \"contracts/0050PriceUSDOracle.sol\":2043:2117  donID = 0x66756e2d657468657265756d2d7365706f6c69612d3100000000000000000000 */\n  dup2\n  swap1\n  sstore\n  pop\n    /* \"contracts/0050PriceUSDOracle.sol\":2219:2228  20 * 1e18 */\n  0x01158e460913d00000\n    /* \"contracts/0050PriceUSDOracle.sol\":2204:2216  currentPrice */\n  0x02\n    /* \"contracts/0050PriceUSDOracle.sol\":2204:2228  currentPrice = 20 * 1e18 */\n  dup2\n  swap1\n  sstore\n  pop\n    /* \"contracts/0050PriceUSDOracle.sol\":2256:2271  block.timestamp */\n  timestamp\n    /* \"contracts/0050PriceUSDOracle.sol\":2239:2253  lastUpdateTime */\n  0x03\n    /* \"contracts/0050PriceUSDOracle.sol\":2239:2271  lastUpdateTime = block.timestamp */\n  dup2\n  swap1\n  sstore\n  pop\n    /* \"contracts/0050PriceUSDOracle.sol\":373:5687  contract PriceOracle0050 is FunctionsClient, ConfirmedOwner {... */\n  jump(tag_18)\n    /* \"@chainlink/contracts/src/v0.8/shared/access/ConfirmedOwnerWithProposal.sol\":1536:1775  function _transferOwnership(address to) private {... */\ntag_15:\n    /* \"@chainlink/contracts/src/v0.8/shared/access/ConfirmedOwnerWithProposal.sol\":1655:1665  msg.sender */\n  caller\n    /* \"@chainlink/contracts/src/v0.8/shared/access/ConfirmedOwnerWithProposal.sol\":1649:1665  to != msg.sender */\n  0xffffffffffffffffffffffffffffffffffffffff\n  and\n    /* \"@chainlink/contracts/src/v0.8/shared/access/ConfirmedOwnerWithProposal.sol\":1649:1651  to */\n  dup2\n    /* \"@chainlink/contracts/src/v0.8/shared/access/ConfirmedOwnerWithProposal.sol\":1649:1665  to != msg.sender */\n  0xffffffffffffffffffffffffffffffffffffffff\n  and\n  sub\n    /* \"@chainlink/contracts/src/v0.8/shared/access/ConfirmedOwnerWithProposal.sol\":1641:1693  require(to != msg.sender, \"Cannot transfer to self\") */\n  tag_20\n  jumpi\n  mload(0x40)\n  0x08c379a000000000000000000000000000000000000000000000000000000000\n  dup2\n  mstore\n  0x04\n  add\n  tag_21\n  swap1\n  tag_22\n  jump\t// in\ntag_21:\n  mload(0x40)\n  dup1\n  swap2\n  sub\n  swap1\n  revert\ntag_20:\n    /* \"@chainlink/contracts/src/v0.8/shared/access/ConfirmedOwnerWithProposal.sol\":1717:1719  to */\n  dup1\n    /* \"@chainlink/contracts/src/v0.8/shared/access/ConfirmedOwnerWithProposal.sol\":1700:1714  s_pendingOwner */\n  0x01\n  0x00\n    /* \"@chainlink/contracts/src/v0.8/shared/access/ConfirmedOwnerWithProposal.sol\":1700:1719  s_pendingOwner = to */\n  0x0100\n  exp\n  dup2\n  sload\n  dup2\n  0xffffffffffffffffffffffffffffffffffffffff\n  mul\n  not\n  and\n  swap1\n  dup4\n  0xffffffffffffffffffffffffffffffffffffffff\n  and\n  mul\n  or\n  swap1\n  sstore\n  pop\n    /* \"@chainlink/contracts/src/v0.8/shared/access/ConfirmedOwnerWithProposal.sol\":1767:1769  to */\n  dup1\n    /* \"@chainlink/contracts/src/v0.8/shared/access/ConfirmedOwnerWithProposal.sol\":1731:1770  OwnershipTransferRequested(s_owner, to) */\n  0xffffffffffffffffffffffffffffffffffffffff\n  and\n    /* \"@chainlink/contracts/src/v0.8/shared/access/ConfirmedOwnerWithProposal.sol\":1758:1765  s_owner */\n  0x00\n  dup1\n  sload\n  swap1\n  0x0100\n  exp\n  swap1\n  div\n  0xffffffffffffffffffffffffffffffffffffffff\n  and\n    /* \"@chainlink/contracts/src/v0.8/shared/access/ConfirmedOwnerWithProposal.sol\":1731:1770  OwnershipTransferRequested(s_owner, to) */\n  0xffffffffffffffffffffffffffffffffffffffff\n  and\n  0xed8889f560326eb138920d842192f0eb3dd22b4f139c87a2c57538e05bae1278\n  mload(0x40)\n  mload(0x40)\n  dup1\n  swap2\n  sub\n  swap1\n  log3\n    /* \"@chainlink/contracts/src/v0.8/shared/access/ConfirmedOwnerWithProposal.sol\":1536:1775  function _transferOwnership(address to) private {... */\n  pop\n  jump\t// out\n    /* \"#utility.yul\":7:106   */\ntag_23:\n    /* \"#utility.yul\":59:65   */\n  0x00\n    /* \"#utility.yul\":93:98   */\n  dup2\n    /* \"#utility.yul\":87:99   */\n  mload\n    /* \"#utility.yul\":77:99   */\n  swap1\n  pop\n    /* \"#utility.yul\":7:106   */\n  swap2\n  swap1\n  pop\n  jump\t// out\n    /* \"#utility.yul\":112:292   */\ntag_24:\n    /* \"#utility.yul\":160:237   */\n  0x4e487b7100000000000000000000000000000000000000000000000000000000\n    /* \"#utility.yul\":157:158   */\n  0x00\n    /* \"#utility.yul\":150:238   */\n  mstore\n    /* \"#utility.yul\":257:261   */\n  0x41\n    /* \"#utility.yul\":254:255   */\n  0x04\n    /* \"#utility.yul\":247:262   */\n  mstore\n    /* \"#utility.yul\":281:285   */\n  0x24\n    /* \"#utility.yul\":278:279   */\n  0x00\n    /* \"#utility.yul\":271:286   */\n  revert\n    /* \"#utility.yul\":298:478   */\ntag_25:\n    /* \"#utility.yul\":346:423   */\n  0x4e487b7100000000000000000000000000000000000000000000000000000000\n    /* \"#utility.yul\":343:344   */\n  0x00\n    /* \"#utility.yul\":336:424   */\n  mstore\n    /* \"#utility.yul\":443:447   */\n  0x22\n    /* \"#utility.yul\":440:441   */\n  0x04\n    /* \"#utility.yul\":433:448   */\n  mstore\n    /* \"#utility.yul\":467:471   */\n  0x24\n    /* \"#utility.yul\":464:465   */\n  0x00\n    /* \"#utility.yul\":457:472   */\n  revert\n    /* \"#utility.yul\":484:804   */\ntag_26:\n    /* \"#utility.yul\":528:534   */\n  0x00\n    /* \"#utility.yul\":565:566   */\n  0x02\n    /* \"#utility.yul\":559:563   */\n  dup3\n    /* \"#utility.yul\":555:567   */\n  div\n    /* \"#utility.yul\":545:567   */\n  swap1\n  pop\n    /* \"#utility.yul\":612:613   */\n  0x01\n    /* \"#utility.yul\":606:610   */\n  dup3\n    /* \"#utility.yul\":602:614   */\n  and\n    /* \"#utility.yul\":633:651   */\n  dup1\n    /* \"#utility.yul\":623:704   */\n  tag_53\n  jumpi\n    /* \"#utility.yul\":689:693   */\n  0x7f\n    /* \"#utility.yul\":681:687   */\n  dup3\n    /* \"#utility.yul\":677:694   */\n  and\n    /* \"#utility.yul\":667:694   */\n  swap2\n  pop\n    /* \"#utility.yul\":623:704   */\ntag_53:\n    /* \"#utility.yul\":751:753   */\n  0x20\n    /* \"#utility.yul\":743:749   */\n  dup3\n    /* \"#utility.yul\":740:754   */\n  lt\n    /* \"#utility.yul\":720:738   */\n  dup2\n    /* \"#utility.yul\":717:755   */\n  sub\n    /* \"#utility.yul\":714:798   */\n  tag_54\n  jumpi\n    /* \"#utility.yul\":770:788   */\n  tag_55\n  tag_25\n  jump\t// in\ntag_55:\n    /* \"#utility.yul\":714:798   */\ntag_54:\n    /* \"#utility.yul\":535:804   */\n  pop\n    /* \"#utility.yul\":484:804   */\n  swap2\n  swap1\n  pop\n  jump\t// out\n    /* \"#utility.yul\":810:951   */\ntag_27:\n    /* \"#utility.yul\":859:863   */\n  0x00\n    /* \"#utility.yul\":882:885   */\n  dup2\n    /* \"#utility.yul\":874:885   */\n  swap1\n  pop\n    /* \"#utility.yul\":905:908   */\n  dup2\n    /* \"#utility.yul\":902:903   */\n  0x00\n    /* \"#utility.yul\":895:909   */\n  mstore\n    /* \"#utility.yul\":939:943   */\n  0x20\n    /* \"#utility.yul\":936:937   */\n  0x00\n    /* \"#utility.yul\":926:944   */\n  keccak256\n    /* \"#utility.yul\":918:944   */\n  swap1\n  pop\n    /* \"#utility.yul\":810:951   */\n  swap2\n  swap1\n  pop\n  jump\t// out\n    /* \"#utility.yul\":957:1050   */\ntag_28:\n    /* \"#utility.yul\":994:1000   */\n  0x00\n    /* \"#utility.yul\":1041:1043   */\n  0x20\n    /* \"#utility.yul\":1036:1038   */\n  0x1f\n    /* \"#utility.yul\":1029:1034   */\n  dup4\n    /* \"#utility.yul\":1025:1039   */\n  add\n    /* \"#utility.yul\":1021:1044   */\n  div\n    /* \"#utility.yul\":1011:1044   */\n  swap1\n  pop\n    /* \"#utility.yul\":957:1050   */\n  swap2\n  swap1\n  pop\n  jump\t// out\n    /* \"#utility.yul\":1056:1163   */\ntag_29:\n    /* \"#utility.yul\":1100:1108   */\n  0x00\n    /* \"#utility.yul\":1150:1155   */\n  dup3\n    /* \"#utility.yul\":1144:1148   */\n  dup3\n    /* \"#utility.yul\":1140:1156   */\n  shl\n    /* \"#utility.yul\":1119:1156   */\n  swap1\n  pop\n    /* \"#utility.yul\":1056:1163   */\n  swap3\n  swap2\n  pop\n  pop\n  jump\t// out\n    /* \"#utility.yul\":1169:1562   */\ntag_30:\n    /* \"#utility.yul\":1238:1244   */\n  0x00\n    /* \"#utility.yul\":1288:1289   */\n  0x08\n    /* \"#utility.yul\":1276:1286   */\n  dup4\n    /* \"#utility.yul\":1272:1290   */\n  mul\n    /* \"#utility.yul\":1311:1408   */\n  tag_60\n    /* \"#utility.yul\":1341:1407   */\n  0xffffffffffffffffffffffffffffffffffffffffffffffffffffffffffffffff\n    /* \"#utility.yul\":1330:1339   */\n  dup3\n    /* \"#utility.yul\":1311:1408   */\n  tag_29\n  jump\t// in\ntag_60:\n    /* \"#utility.yul\":1429:1468   */\n  tag_61\n    /* \"#utility.yul\":1459:1467   */\n  dup7\n    /* \"#utility.yul\":1448:1457   */\n  dup4\n    /* \"#utility.yul\":1429:1468   */\n  tag_29\n  jump\t// in\ntag_61:\n    /* \"#utility.yul\":1417:1468   */\n  swap6\n  pop\n    /* \"#utility.yul\":1501:1505   */\n  dup1\n    /* \"#utility.yul\":1497:1506   */\n  not\n    /* \"#utility.yul\":1490:1495   */\n  dup5\n    /* \"#utility.yul\":1486:1507   */\n  and\n    /* \"#utility.yul\":1477:1507   */\n  swap4\n  pop\n    /* \"#utility.yul\":1550:1554   */\n  dup1\n    /* \"#utility.yul\":1540:1548   */\n  dup7\n    /* \"#utility.yul\":1536:1555   */\n  and\n    /* \"#utility.yul\":1529:1534   */\n  dup5\n    /* \"#utility.yul\":1526:1556   */\n  or\n    /* \"#utility.yul\":1516:1556   */\n  swap3\n  pop\n    /* \"#utility.yul\":1245:1562   */\n  pop\n  pop\n    /* \"#utility.yul\":1169:1562   */\n  swap4\n  swap3\n  pop\n  pop\n  pop\n  jump\t// out\n    /* \"#utility.yul\":1568:1645   */\ntag_31:\n    /* \"#utility.yul\":1605:1612   */\n  0x00\n    /* \"#utility.yul\":1634:1639   */\n  dup2\n    /* \"#utility.yul\":1623:1639   */\n  swap1\n  pop\n    /* \"#utility.yul\":1568:1645   */\n  swap2\n  swap1\n  pop\n  jump\t// out\n    /* \"#utility.yul\":1651:1711   */\ntag_32:\n    /* \"#utility.yul\":1679:1682   */\n  0x00\n    /* \"#utility.yul\":1700:1705   */\n  dup2\n    /* \"#utility.yul\":1693:1705   */\n  swap1\n  pop\n    /* \"#utility.yul\":1651:1711   */\n  swap2\n  swap1\n  pop\n  jump\t// out\n    /* \"#utility.yul\":1717:1859   */\ntag_33:\n    /* \"#utility.yul\":1767:1776   */\n  0x00\n    /* \"#utility.yul\":1800:1853   */\n  tag_65\n    /* \"#utility.yul\":1818:1852   */\n  tag_66\n    /* \"#utility.yul\":1827:1851   */\n  tag_67\n    /* \"#utility.yul\":1845:1850   */\n  dup5\n    /* \"#utility.yul\":1827:1851   */\n  tag_31\n  jump\t// in\ntag_67:\n    /* \"#utility.yul\":1818:1852   */\n  tag_32\n  jump\t// in\ntag_66:\n    /* \"#utility.yul\":1800:1853   */\n  tag_31\n  jump\t// in\ntag_65:\n    /* \"#utility.yul\":1787:1853   */\n  swap1\n  pop\n    /* \"#utility.yul\":1717:1859   */\n  swap2\n  swap1\n  pop\n  jump\t// out\n    /* \"#utility.yul\":1865:1940   */\ntag_34:\n    /* \"#utility.yul\":1908:1911   */\n  0x00\n    /* \"#utility.yul\":1929:1934   */\n  dup2\n    /* \"#utility.yul\":1922:1934   */\n  swap1\n  pop\n    /* \"#utility.yul\":1865:1940   */\n  swap2\n  swap1\n  pop\n  jump\t// out\n    /* \"#utility.yul\":1946:2215   */\ntag_35:\n    /* \"#utility.yul\":2056:2095   */\n  tag_70\n    /* \"#utility.yul\":2087:2094   */\n  dup4\n    /* \"#utility.yul\":2056:2095   */\n  tag_33\n  jump\t// in\ntag_70:\n    /* \"#utility.yul\":2117:2208   */\n  tag_71\n    /* \"#utility.yul\":2166:2207   */\n  tag_72\n    /* \"#utility.yul\":2190:2206   */\n  dup3\n    /* \"#utility.yul\":2166:2207   */\n  tag_34\n  jump\t// in\ntag_72:\n    /* \"#utility.yul\":2158:2164   */\n  dup5\n    /* \"#utility.yul\":2151:2155   */\n  dup5\n    /* \"#utility.yul\":2145:2156   */\n  sload\n    /* \"#utility.yul\":2117:2208   */\n  tag_30\n  jump\t// in\ntag_71:\n    /* \"#utility.yul\":2111:2115   */\n  dup3\n    /* \"#utility.yul\":2104:2209   */\n  sstore\n    /* \"#utility.yul\":2022:2215   */\n  pop\n    /* \"#utility.yul\":1946:2215   */\n  pop\n  pop\n  pop\n  jump\t// out\n    /* \"#utility.yul\":2221:2294   */\ntag_36:\n    /* \"#utility.yul\":2266:2269   */\n  0x00\n    /* \"#utility.yul\":2221:2294   */\n  swap1\n  jump\t// out\n    /* \"#utility.yul\":2300:2489   */\ntag_37:\n    /* \"#utility.yul\":2377:2409   */\n  tag_75\n  tag_36\n  jump\t// in\ntag_75:\n    /* \"#utility.yul\":2418:2483   */\n  tag_76\n    /* \"#utility.yul\":2476:2482   */\n  dup2\n    /* \"#utility.yul\":2468:2474   */\n  dup5\n    /* \"#utility.yul\":2462:2466   */\n  dup5\n    /* \"#utility.yul\":2418:2483   */\n  tag_35\n  jump\t// in\ntag_76:\n    /* \"#utility.yul\":2353:2489   */\n  pop\n    /* \"#utility.yul\":2300:2489   */\n  pop\n  pop\n  jump\t// out\n    /* \"#utility.yul\":2495:2681   */\ntag_38:\n    /* \"#utility.yul\":2555:2675   */\ntag_78:\n    /* \"#utility.yul\":2572:2575   */\n  dup2\n    /* \"#utility.yul\":2565:2570   */\n  dup2\n    /* \"#utility.yul\":2562:2576   */\n  lt\n    /* \"#utility.yul\":2555:2675   */\n  iszero\n  tag_80\n  jumpi\n    /* \"#utility.yul\":2626:2665   */\n  tag_81\n    /* \"#utility.yul\":2663:2664   */\n  0x00\n    /* \"#utility.yul\":2656:2661   */\n  dup3\n    /* \"#utility.yul\":2626:2665   */\n  tag_37\n  jump\t// in\ntag_81:\n    /* \"#utility.yul\":2599:2600   */\n  0x01\n    /* \"#utility.yul\":2592:2597   */\n  dup2\n    /* \"#utility.yul\":2588:2601   */\n  add\n    /* \"#utility.yul\":2579:2601   */\n  swap1\n  pop\n    /* \"#utility.yul\":2555:2675   */\n  jump(tag_78)\ntag_80:\n    /* \"#utility.yul\":2495:2681   */\n  pop\n  pop\n  jump\t// out\n    /* \"#utility.yul\":2687:3230   */\ntag_39:\n    /* \"#utility.yul\":2788:2790   */\n  0x1f\n    /* \"#utility.yul\":2783:2786   */\n  dup3\n    /* \"#utility.yul\":2780:2791   */\n  gt\n    /* \"#utility.yul\":2777:3223   */\n  iszero\n  tag_83\n  jumpi\n    /* \"#utility.yul\":2822:2860   */\n  tag_84\n    /* \"#utility.yul\":2854:2859   */\n  dup2\n    /* \"#utility.yul\":2822:2860   */\n  tag_27\n  jump\t// in\ntag_84:\n    /* \"#utility.yul\":2906:2935   */\n  tag_85\n    /* \"#utility.yul\":2924:2934   */\n  dup5\n    /* \"#utility.yul\":2906:2935   */\n  tag_28\n  jump\t// in\ntag_85:\n    /* \"#utility.yul\":2896:2904   */\n  dup2\n    /* \"#utility.yul\":2892:2936   */\n  add\n    /* \"#utility.yul\":3089:3091   */\n  0x20\n    /* \"#utility.yul\":3077:3087   */\n  dup6\n    /* \"#utility.yul\":3074:3092   */\n  lt\n    /* \"#utility.yul\":3071:3120   */\n  iszero\n  tag_86\n  jumpi\n    /* \"#utility.yul\":3110:3118   */\n  dup2\n    /* \"#utility.yul\":3095:3118   */\n  swap1\n  pop\n    /* \"#utility.yul\":3071:3120   */\ntag_86:\n    /* \"#utility.yul\":3133:3213   */\n  tag_87\n    /* \"#utility.yul\":3189:3211   */\n  tag_88\n    /* \"#utility.yul\":3207:3210   */\n  dup6\n    /* \"#utility.yul\":3189:3211   */\n  tag_28\n  jump\t// in\ntag_88:\n    /* \"#utility.yul\":3179:3187   */\n  dup4\n    /* \"#utility.yul\":3175:3212   */\n  add\n    /* \"#utility.yul\":3162:3173   */\n  dup3\n    /* \"#utility.yul\":3133:3213   */\n  tag_38\n  jump\t// in\ntag_87:\n    /* \"#utility.yul\":2792:3223   */\n  pop\n  pop\n    /* \"#utility.yul\":2777:3223   */\ntag_83:\n    /* \"#utility.yul\":2687:3230   */\n  pop\n  pop\n  pop\n  jump\t// out\n    /* \"#utility.yul\":3236:3353   */\ntag_40:\n    /* \"#utility.yul\":3290:3298   */\n  0x00\n    /* \"#utility.yul\":3340:3345   */\n  dup3\n    /* \"#utility.yul\":3334:3338   */\n  dup3\n    /* \"#utility.yul\":3330:3346   */\n  shr\n    /* \"#utility.yul\":3309:3346   */\n  swap1\n  pop\n    /* \"#utility.yul\":3236:3353   */\n  swap3\n  swap2\n  pop\n  pop\n  jump\t// out\n    /* \"#utility.yul\":3359:3528   */\ntag_41:\n    /* \"#utility.yul\":3403:3409   */\n  0x00\n    /* \"#utility.yul\":3436:3487   */\n  tag_91\n    /* \"#utility.yul\":3484:3485   */\n  0x00\n    /* \"#utility.yul\":3480:3486   */\n  not\n    /* \"#utility.yul\":3472:3477   */\n  dup5\n    /* \"#utility.yul\":3469:3470   */\n  0x08\n    /* \"#utility.yul\":3465:3478   */\n  mul\n    /* \"#utility.yul\":3436:3487   */\n  tag_40\n  jump\t// in\ntag_91:\n    /* \"#utility.yul\":3432:3488   */\n  not\n    /* \"#utility.yul\":3517:3521   */\n  dup1\n    /* \"#utility.yul\":3511:3515   */\n  dup4\n    /* \"#utility.yul\":3507:3522   */\n  and\n    /* \"#utility.yul\":3497:3522   */\n  swap2\n  pop\n    /* \"#utility.yul\":3410:3528   */\n  pop\n    /* \"#utility.yul\":3359:3528   */\n  swap3\n  swap2\n  pop\n  pop\n  jump\t// out\n    /* \"#utility.yul\":3533:3828   */\ntag_42:\n    /* \"#utility.yul\":3609:3613   */\n  0x00\n    /* \"#utility.yul\":3755:3784   */\n  tag_93\n    /* \"#utility.yul\":3780:3783   */\n  dup4\n    /* \"#utility.yul\":3774:3778   */\n  dup4\n    /* \"#utility.yul\":3755:3784   */\n  tag_41\n  jump\t// in\ntag_93:\n    /* \"#utility.yul\":3747:3784   */\n  swap2\n  pop\n    /* \"#utility.yul\":3817:3820   */\n  dup3\n    /* \"#utility.yul\":3814:3815   */\n  0x02\n    /* \"#utility.yul\":3810:3821   */\n  mul\n    /* \"#utility.yul\":3804:3808   */\n  dup3\n    /* \"#utility.yul\":3801:3822   */\n  or\n    /* \"#utility.yul\":3793:3822   */\n  swap1\n  pop\n    /* \"#utility.yul\":3533:3828   */\n  swap3\n  swap2\n  pop\n  pop\n  jump\t// out\n    /* \"#utility.yul\":3833:5228   */\ntag_2:\n    /* \"#utility.yul\":3950:3987   */\n  tag_95\n    /* \"#utility.yul\":3983:3986   */\n  dup3\n    /* \"#utility.yul\":3950:3987   */\n  tag_23\n  jump\t// in\ntag_95:\n    /* \"#utility.yul\":4052:4070   */\n  0xffffffffffffffff\n    /* \"#utility.yul\":4044:4050   */\n  dup2\n    /* \"#utility.yul\":4041:4071   */\n  gt\n    /* \"#utility.yul\":4038:4094   */\n  iszero\n  tag_96\n  jumpi\n    /* \"#utility.yul\":4074:4092   */\n  tag_97\n  tag_24\n  jump\t// in\ntag_97:\n    /* \"#utility.yul\":4038:4094   */\ntag_96:\n    /* \"#utility.yul\":4118:4156   */\n  tag_98\n    /* \"#utility.yul\":4150:4154   */\n  dup3\n    /* \"#utility.yul\":4144:4155   */\n  sload\n    /* \"#utility.yul\":4118:4156   */\n  tag_26\n  jump\t// in\ntag_98:\n    /* \"#utility.yul\":4203:4270   */\n  tag_99\n    /* \"#utility.yul\":4263:4269   */\n  dup3\n    /* \"#utility.yul\":4255:4261   */\n  dup3\n    /* \"#utility.yul\":4249:4253   */\n  dup6\n    /* \"#utility.yul\":4203:4270   */\n  tag_39\n  jump\t// in\ntag_99:\n    /* \"#utility.yul\":4297:4298   */\n  0x00\n    /* \"#utility.yul\":4321:4325   */\n  0x20\n    /* \"#utility.yul\":4308:4325   */\n  swap1\n  pop\n    /* \"#utility.yul\":4353:4355   */\n  0x1f\n    /* \"#utility.yul\":4345:4351   */\n  dup4\n    /* \"#utility.yul\":4342:4356   */\n  gt\n    /* \"#utility.yul\":4370:4371   */\n  0x01\n    /* \"#utility.yul\":4365:4983   */\n  dup2\n  eq\n  tag_101\n  jumpi\n    /* \"#utility.yul\":5027:5028   */\n  0x00\n    /* \"#utility.yul\":5044:5050   */\n  dup5\n    /* \"#utility.yul\":5041:5118   */\n  iszero\n  tag_102\n  jumpi\n    /* \"#utility.yul\":5093:5102   */\n  dup3\n    /* \"#utility.yul\":5088:5091   */\n  dup8\n    /* \"#utility.yul\":5084:5103   */\n  add\n    /* \"#utility.yul\":5078:5104   */\n  mload\n    /* \"#utility.yul\":5069:5104   */\n  swap1\n  pop\n    /* \"#utility.yul\":5041:5118   */\ntag_102:\n    /* \"#utility.yul\":5144:5211   */\n  tag_103\n    /* \"#utility.yul\":5204:5210   */\n  dup6\n    /* \"#utility.yul\":5197:5202   */\n  dup3\n    /* \"#utility.yul\":5144:5211   */\n  tag_42\n  jump\t// in\ntag_103:\n    /* \"#utility.yul\":5138:5142   */\n  dup7\n    /* \"#utility.yul\":5131:5212   */\n  sstore\n    /* \"#utility.yul\":5000:5222   */\n  pop\n    /* \"#utility.yul\":4335:5222   */\n  jump(tag_100)\n    /* \"#utility.yul\":4365:4983   */\ntag_101:\n    /* \"#utility.yul\":4417:4421   */\n  0x1f\n    /* \"#utility.yul\":4413:4422   */\n  not\n    /* \"#utility.yul\":4405:4411   */\n  dup5\n    /* \"#utility.yul\":4401:4423   */\n  and\n    /* \"#utility.yul\":4451:4488   */\n  tag_104\n    /* \"#utility.yul\":4483:4487   */\n  dup7\n    /* \"#utility.yul\":4451:4488   */\n  tag_27\n  jump\t// in\ntag_104:\n    /* \"#utility.yul\":4510:4511   */\n  0x00\n    /* \"#utility.yul\":4524:4732   */\ntag_105:\n    /* \"#utility.yul\":4538:4545   */\n  dup3\n    /* \"#utility.yul\":4535:4536   */\n  dup2\n    /* \"#utility.yul\":4532:4546   */\n  lt\n    /* \"#utility.yul\":4524:4732   */\n  iszero\n  tag_107\n  jumpi\n    /* \"#utility.yul\":4617:4626   */\n  dup5\n    /* \"#utility.yul\":4612:4615   */\n  dup10\n    /* \"#utility.yul\":4608:4627   */\n  add\n    /* \"#utility.yul\":4602:4628   */\n  mload\n    /* \"#utility.yul\":4594:4600   */\n  dup3\n    /* \"#utility.yul\":4587:4629   */\n  sstore\n    /* \"#utility.yul\":4668:4669   */\n  0x01\n    /* \"#utility.yul\":4660:4666   */\n  dup3\n    /* \"#utility.yul\":4656:4670   */\n  add\n    /* \"#utility.yul\":4646:4670   */\n  swap2\n  pop\n    /* \"#utility.yul\":4715:4717   */\n  0x20\n    /* \"#utility.yul\":4704:4713   */\n  dup6\n    /* \"#utility.yul\":4700:4718   */\n  add\n    /* \"#utility.yul\":4687:4718   */\n  swap5\n  pop\n    /* \"#utility.yul\":4561:4565   */\n  0x20\n    /* \"#utility.yul\":4558:4559   */\n  dup2\n    /* \"#utility.yul\":4554:4566   */\n  add\n    /* \"#utility.yul\":4549:4566   */\n  swap1\n  pop\n    /* \"#utility.yul\":4524:4732   */\n  jump(tag_105)\ntag_107:\n    /* \"#utility.yul\":4760:4766   */\n  dup7\n    /* \"#utility.yul\":4751:4758   */\n  dup4\n    /* \"#utility.yul\":4748:4767   */\n  lt\n    /* \"#utility.yul\":4745:4924   */\n  iszero\n  tag_108\n  jumpi\n    /* \"#utility.yul\":4818:4827   */\n  dup5\n    /* \"#utility.yul\":4813:4816   */\n  dup10\n    /* \"#utility.yul\":4809:4828   */\n  add\n    /* \"#utility.yul\":4803:4829   */\n  mload\n    /* \"#utility.yul\":4861:4909   */\n  tag_109\n    /* \"#utility.yul\":4903:4907   */\n  0x1f\n    /* \"#utility.yul\":4895:4901   */\n  dup10\n    /* \"#utility.yul\":4891:4908   */\n  and\n    /* \"#utility.yul\":4880:4889   */\n  dup3\n    /* \"#utility.yul\":4861:4909   */\n  tag_41\n  jump\t// in\ntag_109:\n    /* \"#utility.yul\":4853:4859   */\n  dup4\n    /* \"#utility.yul\":4846:4910   */\n  sstore\n    /* \"#utility.yul\":4768:4924   */\n  pop\n    /* \"#utility.yul\":4745:4924   */\ntag_108:\n    /* \"#utility.yul\":4970:4971   */\n  0x01\n    /* \"#utility.yul\":4966:4967   */\n  0x02\n    /* \"#utility.yul\":4958:4964   */\n  dup9\n    /* \"#utility.yul\":4954:4968   */\n  mul\n    /* \"#utility.yul\":4950:4972   */\n  add\n    /* \"#utility.yul\":4944:4948   */\n  dup9\n    /* \"#utility.yul\":4937:4973   */\n  sstore\n    /* \"#utility.yul\":4372:4983   */\n  pop\n  pop\n  pop\n    /* \"#utility.yul\":4335:5222   */\ntag_100:\n  pop\n    /* \"#utility.yul\":3925:5228   */\n  pop\n  pop\n  pop\n    /* \"#utility.yul\":3833:5228   */\n  pop\n  pop\n  jump\t// out\n    /* \"#utility.yul\":5234:5403   */\ntag_43:\n    /* \"#utility.yul\":5318:5329   */\n  0x00\n    /* \"#utility.yul\":5352:5358   */\n  dup3\n    /* \"#utility.yul\":5347:5350   */\n  dup3\n    /* \"#utility.yul\":5340:5359   */\n  mstore\n    /* \"#utility.yul\":5392:5396   */\n  0x20\n    /* \"#utility.yul\":5387:5390   */\n  dup3\n    /* \"#utility.yul\":5383:5397   */\n  add\n    /* \"#utility.yul\":5368:5397   */\n  swap1\n  pop\n    /* \"#utility.yul\":5234:5403   */\n  swap3\n  swap2\n  pop\n  pop\n  jump\t// out\n    /* \"#utility.yul\":5409:5583   */\ntag_44:\n    /* \"#utility.yul\":5549:5575   */\n  0x43616e6e6f7420736574206f776e657220746f207a65726f0000000000000000\n    /* \"#utility.yul\":5545:5546   */\n  0x00\n    /* \"#utility.yul\":5537:5543   */\n  dup3\n    /* \"#utility.yul\":5533:5547   */\n  add\n    /* \"#utility.yul\":5526:5576   */\n  mstore\n    /* \"#utility.yul\":5409:5583   */\n  pop\n  jump\t// out\n    /* \"#utility.yul\":5589:5955   */\ntag_45:\n    /* \"#utility.yul\":5731:5734   */\n  0x00\n    /* \"#utility.yul\":5752:5819   */\n  tag_113\n    /* \"#utility.yul\":5816:5818   */\n  0x18\n    /* \"#utility.yul\":5811:5814   */\n  dup4\n    /* \"#utility.yul\":5752:5819   */\n  tag_43\n  jump\t// in\ntag_113:\n    /* \"#utility.yul\":5745:5819   */\n  swap2\n  pop\n    /* \"#utility.yul\":5828:5921   */\n  tag_114\n    /* \"#utility.yul\":5917:5920   */\n  dup3\n    /* \"#utility.yul\":5828:5921   */\n  tag_44\n  jump\t// in\ntag_114:\n    /* \"#utility.yul\":5946:5948   */\n  0x20\n    /* \"#utility.yul\":5941:5944   */\n  dup3\n    /* \"#utility.yul\":5937:5949   */\n  add\n    /* \"#utility.yul\":5930:5949   */\n  swap1\n  pop\n    /* \"#utility.yul\":5589:5955   */\n  swap2\n  swap1\n  pop\n  jump\t// out\n    /* \"#utility.yul\":5961:6380   */\ntag_12:\n    /* \"#utility.yul\":6127:6131   */\n  0x00\n    /* \"#utility.yul\":6165:6167   */\n  0x20\n    /* \"#utility.yul\":6154:6163   */\n  dup3\n    /* \"#utility.yul\":6150:6168   */\n  add\n    /* \"#utility.yul\":6142:6168   */\n  swap1\n  pop\n    /* \"#utility.yul\":6214:6223   */\n  dup2\n    /* \"#utility.yul\":6208:6212   */\n  dup2\n    /* \"#utility.yul\":6204:6224   */\n  sub\n    /* \"#utility.yul\":6200:6201   */\n  0x00\n    /* \"#utility.yul\":6189:6198   */\n  dup4\n    /* \"#utility.yul\":6185:6202   */\n  add\n    /* \"#utility.yul\":6178:6225   */\n  mstore\n    /* \"#utility.yul\":6242:6373   */\n  tag_116\n    /* \"#utility.yul\":6368:6372   */\n  dup2\n    /* \"#utility.yul\":6242:6373   */\n  tag_45\n  jump\t// in\ntag_116:\n    /* \"#utility.yul\":6234:6373   */\n  swap1\n  pop\n    /* \"#utility.yul\":5961:6380   */\n  swap2\n  swap1\n  pop\n  jump\t// out\n    /* \"#utility.yul\":6386:6559   */\ntag_46:\n    /* \"#utility.yul\":6526:6551   */\n  0x43616e6e6f74207472616e7366657220746f2073656c66000000000000000000\n    /* \"#utility.yul\":6522:6523   */\n  0x00\n    /* \"#utility.yul\":6514:6520   */\n  dup3\n    /* \"#utility.yul\":6510:6524   */\n  add\n    /* \"#utility.yul\":6503:6552   */\n  mstore\n    /* \"#utility.yul\":6386:6559   */\n  pop\n  jump\t// out\n    /* \"#utility.yul\":6565:6931   */\ntag_47:\n    /* \"#utility.yul\":6707:6710   */\n  0x00\n    /* \"#utility.yul\":6728:6795   */\n  tag_119\n    /* \"#utility.yul\":6792:6794   */\n  0x17\n    /* \"#utility.yul\":6787:6790   */\n  dup4\n    /* \"#utility.yul\":6728:6795   */\n  tag_43\n  jump\t// in\ntag_119:\n    /* \"#utility.yul\":6721:6795   */\n  swap2\n  pop\n    /* \"#utility.yul\":6804:6897   */\n  tag_120\n    /* \"#utility.yul\":6893:6896   */\n  dup3\n    /* \"#utility.yul\":6804:6897   */\n  tag_46\n  jump\t// in\ntag_120:\n    /* \"#utility.yul\":6922:6924   */\n  0x20\n    /* \"#utility.yul\":6917:6920   */\n  dup3\n    /* \"#utility.yul\":6913:6925   */\n  add\n    /* \"#utility.yul\":6906:6925   */\n  swap1\n  pop\n    /* \"#utility.yul\":6565:6931   */\n  swap2\n  swap1\n  pop\n  jump\t// out\n    /* \"#utility.yul\":6937:7356   */\ntag_22:\n    /* \"#utility.yul\":7103:7107   */\n  0x00\n    /* \"#utility.yul\":7141:7143   */\n  0x20\n    /* \"#utility.yul\":7130:7139   */\n  dup3\n    /* \"#utility.yul\":7126:7144   */\n  add\n    /* \"#utility.yul\":7118:7144   */\n  swap1\n  pop\n    /* \"#utility.yul\":7190:7199   */\n  dup2\n    /* \"#utility.yul\":7184:7188   */\n  dup2\n    /* \"#utility.yul\":7180:7200   */\n  sub\n    /* \"#utility.yul\":7176:7177   */\n  0x00\n    /* \"#utility.yul\":7165:7174   */\n  dup4\n    /* \"#utility.yul\":7161:7178   */\n  add\n    /* \"#utility.yul\":7154:7201   */\n  mstore\n    /* \"#utility.yul\":7218:7349   */\n  tag_122\n    /* \"#utility.yul\":7344:7348   */\n  dup2\n    /* \"#utility.yul\":7218:7349   */\n  tag_47\n  jump\t// in\ntag_122:\n    /* \"#utility.yul\":7210:7349   */\n  swap1\n  pop\n    /* \"#utility.yul\":6937:7356   */\n  swap2\n  swap1\n  pop\n  jump\t// out\n    /* \"contracts/0050PriceUSDOracle.sol\":373:5687  contract PriceOracle0050 is FunctionsClient, ConfirmedOwner {... */\ntag_18:\n  mload(0x80)\n  codecopy(0x00, dataOffset(sub_0), dataSize(sub_0))\n  0x00\n  assignImmutable(\"0x8e8fab5f003314da8d1873ea7720e8d9f47650136d916064d1edb8a11d682624\")\n  return(0x00, dataSize(sub_0))\nstop\ndata_ec96a567fa79c0a4239f4aaa8acb1906b4fa8fe71dbf9a8784403da94ba53587 636f6e7374205b74773530526573706f6e73652c20757364547764526573706f6e73655d203d2061776169742050726f6d6973652e616c6c285b46756e6374696f6e732e6d616b654874747052657175657374287b75726c3a202768747470733a2f2f7175657279312e66696e616e63652e7961686f6f2e636f6d2f76382f66696e616e63652f63686172742f303035302e5457277d292c46756e6374696f6e732e6d616b654874747052657175657374287b75726c3a202768747470733a2f2f7175657279312e66696e616e63652e7961686f6f2e636f6d2f76382f66696e616e63652f63686172742f5553445457443d58277d295d293b6966202874773530526573706f6e73652e6572726f72207c7c20757364547764526573706f6e73652e6572726f7229207b7468726f77204572726f72282752657175657374206661696c656427293b7d636f6e737420747735305072696365203d2074773530526573706f6e73652e646174612e63686172742e726573756c745b305d2e6d6574612e726567756c61724d61726b657450726963653b636f6e73742075736454776452617465203d20757364547764526573706f6e73652e646174612e63686172742e726573756c745b305d2e6d6574612e726567756c61724d61726b657450726963653b6966202821747735305072696365207c7c20217573645477645261746529207b7468726f77204572726f7228275072696365206e6f7420666f756e6427293b7d636f6e7374207573645072696365203d20747735305072696365202f20757364547764526174653b72657475726e2046756e6374696f6e732e656e636f646555696e74323536284d6174682e726f756e64287573645072696365202a203165313829293b\n\nsub_0: assembly {\n        /* \"contracts/0050PriceUSDOracle.sol\":373:5687  contract PriceOracle0050 is FunctionsClient, ConfirmedOwner {... */\n      mstore(0x40, 0x80)\n      callvalue\n      dup1\n      iszero\n      tag_1\n      jumpi\n      0x00\n      dup1\n      revert\n    tag_1:\n      pop\n      jumpi(tag_2, lt(calldatasize, 0x04))\n      shr(0xe0, calldataload(0x00))\n      dup1\n      0x9c84cd10\n      gt\n      tag_21\n      jumpi\n      dup1\n      0xec2b70a4\n      gt\n      tag_22\n      jumpi\n      dup1\n      0xec2b70a4\n      eq\n      tag_16\n      jumpi\n      dup1\n      0xf2fde38b\n      eq\n      tag_17\n      jumpi\n      dup1\n      0xf68016b7\n      eq\n      tag_18\n      jumpi\n      dup1\n      0xfc2a88c3\n      eq\n      tag_19\n      jumpi\n      dup1\n      0xff8e583a\n      eq\n      tag_20\n      jumpi\n      jump(tag_2)\n    tag_22:\n      dup1\n      0x9c84cd10\n      eq\n      tag_12\n      jumpi\n      dup1\n      0xafdb0556\n      eq\n      tag_13\n      jumpi\n      dup1\n      0xc8f33c91\n      eq\n      tag_14\n      jumpi\n      dup1\n      0xd0f784f0\n      eq\n      tag_15\n      jumpi\n      jump(tag_2)\n    tag_21:\n      dup1\n      0x2f5df725\n      gt\n      tag_23\n      jumpi\n      dup1\n      0x2f5df725\n      eq\n      tag_7\n      jumpi\n      dup1\n      0x6e74336b\n      eq\n      tag_8\n      jumpi\n      dup1\n      0x79ba5097\n      eq\n      tag_9\n      jumpi\n      dup1\n      0x8da5cb5b\n      eq\n      tag_10\n      jumpi\n      dup1\n      0x8e15f473\n      eq\n      tag_11\n      jumpi\n      jump(tag_2)\n    tag_23:\n      dup1\n      0x05239ca1\n      eq\n      tag_3\n      jumpi\n      dup1\n      0x09c1ba2e\n      eq\n      tag_4\n      jumpi\n      dup1\n      0x0ca76175\n      eq\n      tag_5\n      jumpi\n      dup1\n      0x26c4c889\n      eq\n      tag_6\n      jumpi\n    tag_2:\n      0x00\n      dup1\n      revert\n        /* \"contracts/0050PriceUSDOracle.sol\":3943:4234  function updatePriceManual(uint256 _newPriceUSD) external onlyOwner {... */\n    tag_3:\n      tag_24\n      0x04\n      dup1\n      calldatasize\n      sub\n      dup2\n      add\n      swap1\n      tag_25\n      swap2\n      swap1\n      tag_26\n      jump\t// in\n    tag_25:\n      tag_27\n      jump\t// in\n    tag_24:\n      stop\n        /* \"contracts/0050PriceUSDOracle.sol\":651:679  uint64 public subscriptionId */\n    tag_4:\n      tag_28\n      tag_29\n      jump\t// in\n    tag_28:\n      mload(0x40)\n      tag_30\n      swap2\n      swap1\n      tag_31\n      jump\t// in\n    tag_30:\n      mload(0x40)\n      dup1\n      swap2\n      sub\n      swap1\n      return\n        /* \"@chainlink/contracts/src/v0.8/functions/v1_0_0/FunctionsClient.sol\":2078:2364  function handleOracleFulfillment(bytes32 requestId, bytes memory response, bytes memory err) external override {... */\n    tag_5:\n      tag_32\n      0x04\n      dup1\n      calldatasize\n      sub\n      dup2\n      add\n      swap1\n      tag_33\n      swap2\n      swap1\n      tag_34\n      jump\t// in\n    tag_33:\n      tag_35\n      jump\t// in\n    tag_32:\n      stop\n        /* \"contracts/0050PriceUSDOracle.sol\":5072:5489  function getCalculationDetails() external view returns (... */\n    tag_6:\n      tag_36\n      tag_37\n      jump\t// in\n    tag_36:\n      mload(0x40)\n      tag_38\n      swap5\n      swap4\n      swap3\n      swap2\n      swap1\n      tag_39\n      jump\t// in\n    tag_38:\n      mload(0x40)\n      dup1\n      swap2\n      sub\n      swap1\n      return\n        /* \"contracts/0050PriceUSDOracle.sol\":5553:5684  function isPriceStale() external view returns (bool) {... */\n    tag_7:\n      tag_40\n      tag_41\n      jump\t// in\n    tag_40:\n      mload(0x40)\n      tag_42\n      swap2\n      swap1\n      tag_43\n      jump\t// in\n    tag_42:\n      mload(0x40)\n      dup1\n      swap2\n      sub\n      swap1\n      return\n        /* \"contracts/0050PriceUSDOracle.sol\":724:744  bytes32 public donID */\n    tag_8:\n      tag_44\n      tag_45\n      jump\t// in\n    tag_44:\n      mload(0x40)\n      tag_46\n      swap2\n      swap1\n      tag_47\n      jump\t// in\n    tag_46:\n      mload(0x40)\n      dup1\n      swap2\n      sub\n      swap1\n      return\n        /* \"@chainlink/contracts/src/v0.8/shared/access/ConfirmedOwnerWithProposal.sol\":1026:1342  function acceptOwnership() external override {... */\n    tag_9:\n      tag_48\n      tag_49\n      jump\t// in\n    tag_48:\n      stop\n        /* \"@chainlink/contracts/src/v0.8/shared/access/ConfirmedOwnerWithProposal.sol\":1382:1463  function owner() public view override returns (address) {... */\n    tag_10:\n      tag_50\n      tag_51\n      jump\t// in\n    tag_50:\n      mload(0x40)\n      tag_52\n      swap2\n      swap1\n      tag_53\n      jump\t// in\n    tag_52:\n      mload(0x40)\n      dup1\n      swap2\n      sub\n      swap1\n      return\n        /* \"contracts/0050PriceUSDOracle.sol\":2335:2431  function getLatestPrice() external view returns (uint256) {... */\n    tag_11:\n      tag_54\n      tag_55\n      jump\t// in\n    tag_54:\n      mload(0x40)\n      tag_56\n      swap2\n      swap1\n      tag_57\n      jump\t// in\n    tag_56:\n      mload(0x40)\n      dup1\n      swap2\n      sub\n      swap1\n      return\n        /* \"contracts/0050PriceUSDOracle.sol\":4582:5006  function getOracleInfo() external view returns (... */\n    tag_12:\n      tag_58\n      tag_59\n      jump\t// in\n    tag_58:\n      mload(0x40)\n      tag_60\n      swap6\n      swap5\n      swap4\n      swap3\n      swap2\n      swap1\n      tag_61\n      jump\t// in\n    tag_60:\n      mload(0x40)\n      dup1\n      swap2\n      sub\n      swap1\n      return\n        /* \"contracts/0050PriceUSDOracle.sol\":2921:3374  function requestPriceUpdate() external returns (bytes32 requestId) {... */\n    tag_13:\n      tag_62\n      tag_63\n      jump\t// in\n    tag_62:\n      mload(0x40)\n      tag_64\n      swap2\n      swap1\n      tag_47\n      jump\t// in\n    tag_64:\n      mload(0x40)\n      dup1\n      swap2\n      sub\n      swap1\n      return\n        /* \"contracts/0050PriceUSDOracle.sol\":539:568  uint256 public lastUpdateTime */\n    tag_14:\n      tag_65\n      tag_66\n      jump\t// in\n    tag_65:\n      mload(0x40)\n      tag_67\n      swap2\n      swap1\n      tag_57\n      jump\t// in\n    tag_67:\n      mload(0x40)\n      dup1\n      swap2\n      sub\n      swap1\n      return\n        /* \"contracts/0050PriceUSDOracle.sol\":4282:4522  function updateConfig(... */\n    tag_15:\n      tag_68\n      0x04\n      dup1\n      calldatasize\n      sub\n      dup2\n      add\n      swap1\n      tag_69\n      swap2\n      swap1\n      tag_70\n      jump\t// in\n    tag_69:\n      tag_71\n      jump\t// in\n    tag_68:\n      stop\n        /* \"contracts/0050PriceUSDOracle.sol\":2486:2684  function getLatestPriceUSD() external view returns (uint256) {... */\n    tag_16:\n      tag_72\n      tag_73\n      jump\t// in\n    tag_72:\n      mload(0x40)\n      tag_74\n      swap2\n      swap1\n      tag_57\n      jump\t// in\n    tag_74:\n      mload(0x40)\n      dup1\n      swap2\n      sub\n      swap1\n      return\n        /* \"@chainlink/contracts/src/v0.8/shared/access/ConfirmedOwnerWithProposal.sol\":847:945  function transferOwnership(address to) public override onlyOwner {... */\n    tag_17:\n      tag_75\n      0x04\n      dup1\n      calldatasize\n      sub\n      dup2\n      add\n      swap1\n      tag_76\n      swap2\n      swap1\n      tag_77\n      jump\t// in\n    tag_76:\n      tag_78\n      jump\t// in\n    tag_75:\n      stop\n        /* \"contracts/0050PriceUSDOracle.sol\":686:717  uint32 public gasLimit = 300000 */\n    tag_18:\n      tag_79\n      tag_80\n      jump\t// in\n    tag_79:\n      mload(0x40)\n      tag_81\n      swap2\n      swap1\n      tag_82\n      jump\t// in\n    tag_81:\n      mload(0x40)\n      dup1\n      swap2\n      sub\n      swap1\n      return\n        /* \"contracts/0050PriceUSDOracle.sol\":575:603  bytes32 public lastRequestId */\n    tag_19:\n      tag_83\n      tag_84\n      jump\t// in\n    tag_83:\n      mload(0x40)\n      tag_85\n      swap2\n      swap1\n      tag_47\n      jump\t// in\n    tag_85:\n      mload(0x40)\n      dup1\n      swap2\n      sub\n      swap1\n      return\n        /* \"contracts/0050PriceUSDOracle.sol\":2749:2882  function getLatestPricePrecise() external view returns (uint256) {... */\n    tag_20:\n      tag_86\n      tag_87\n      jump\t// in\n    tag_86:\n      mload(0x40)\n      tag_88\n      swap2\n      swap1\n      tag_57\n      jump\t// in\n    tag_88:\n      mload(0x40)\n      dup1\n      swap2\n      sub\n      swap1\n      return\n        /* \"contracts/0050PriceUSDOracle.sol\":3943:4234  function updatePriceManual(uint256 _newPriceUSD) external onlyOwner {... */\n    tag_27:\n        /* \"@chainlink/contracts/src/v0.8/shared/access/ConfirmedOwnerWithProposal.sol\":2075:2095  _validateOwnership() */\n      tag_90\n        /* \"@chainlink/contracts/src/v0.8/shared/access/ConfirmedOwnerWithProposal.sol\":2075:2093  _validateOwnership */\n      tag_91\n        /* \"@chainlink/contracts/src/v0.8/shared/access/ConfirmedOwnerWithProposal.sol\":2075:2095  _validateOwnership() */\n      jump\t// in\n    tag_90:\n        /* \"contracts/0050PriceUSDOracle.sol\":4045:4046  0 */\n      0x00\n        /* \"contracts/0050PriceUSDOracle.sol\":4030:4042  _newPriceUSD */\n      dup2\n        /* \"contracts/0050PriceUSDOracle.sol\":4030:4046  _newPriceUSD > 0 */\n      gt\n        /* \"contracts/0050PriceUSDOracle.sol\":4022:4079  require(_newPriceUSD > 0, \"Price must be greater than 0\") */\n      tag_93\n      jumpi\n      mload(0x40)\n      0x08c379a000000000000000000000000000000000000000000000000000000000\n      dup2\n      mstore\n      0x04\n      add\n      tag_94\n      swap1\n      tag_95\n      jump\t// in\n    tag_94:\n      mload(0x40)\n      dup1\n      swap2\n      sub\n      swap1\n      revert\n    tag_93:\n        /* \"contracts/0050PriceUSDOracle.sol\":4120:4124  1e18 */\n      0x0de0b6b3a7640000\n        /* \"contracts/0050PriceUSDOracle.sol\":4105:4117  _newPriceUSD */\n      dup2\n        /* \"contracts/0050PriceUSDOracle.sol\":4105:4124  _newPriceUSD * 1e18 */\n      tag_96\n      swap2\n      swap1\n      tag_97\n      jump\t// in\n    tag_96:\n        /* \"contracts/0050PriceUSDOracle.sol\":4090:4102  currentPrice */\n      0x02\n        /* \"contracts/0050PriceUSDOracle.sol\":4090:4124  currentPrice = _newPriceUSD * 1e18 */\n      dup2\n      swap1\n      sstore\n      pop\n        /* \"contracts/0050PriceUSDOracle.sol\":4152:4167  block.timestamp */\n      timestamp\n        /* \"contracts/0050PriceUSDOracle.sol\":4135:4149  lastUpdateTime */\n      0x03\n        /* \"contracts/0050PriceUSDOracle.sol\":4135:4167  lastUpdateTime = block.timestamp */\n      dup2\n      swap1\n      sstore\n      pop\n        /* \"contracts/0050PriceUSDOracle.sol\":4183:4226  PriceUpdated(currentPrice, block.timestamp) */\n      0x945c1c4e99aa89f648fbfe3df471b916f719e16d960fcec0737d4d56bd696838\n        /* \"contracts/0050PriceUSDOracle.sol\":4196:4208  currentPrice */\n      sload(0x02)\n        /* \"contracts/0050PriceUSDOracle.sol\":4210:4225  block.timestamp */\n      timestamp\n        /* \"contracts/0050PriceUSDOracle.sol\":4183:4226  PriceUpdated(currentPrice, block.timestamp) */\n      mload(0x40)\n      tag_98\n      swap3\n      swap2\n      swap1\n      tag_99\n      jump\t// in\n    tag_98:\n      mload(0x40)\n      dup1\n      swap2\n      sub\n      swap1\n      log1\n        /* \"contracts/0050PriceUSDOracle.sol\":3943:4234  function updatePriceManual(uint256 _newPriceUSD) external onlyOwner {... */\n      pop\n      jump\t// out\n        /* \"contracts/0050PriceUSDOracle.sol\":651:679  uint64 public subscriptionId */\n    tag_29:\n      0x05\n      0x00\n      swap1\n      sload\n      swap1\n      0x0100\n      exp\n      swap1\n      div\n      0xffffffffffffffff\n      and\n      dup2\n      jump\t// out\n        /* \"@chainlink/contracts/src/v0.8/functions/v1_0_0/FunctionsClient.sol\":2078:2364  function handleOracleFulfillment(bytes32 requestId, bytes memory response, bytes memory err) external override {... */\n    tag_35:\n        /* \"@chainlink/contracts/src/v0.8/functions/v1_0_0/FunctionsClient.sol\":2221:2229  i_router */\n      immutable(\"0x8e8fab5f003314da8d1873ea7720e8d9f47650136d916064d1edb8a11d682624\")\n        /* \"@chainlink/contracts/src/v0.8/functions/v1_0_0/FunctionsClient.sol\":2199:2230  msg.sender != address(i_router) */\n      0xffffffffffffffffffffffffffffffffffffffff\n      and\n        /* \"@chainlink/contracts/src/v0.8/functions/v1_0_0/FunctionsClient.sol\":2199:2209  msg.sender */\n      caller\n        /* \"@chainlink/contracts/src/v0.8/functions/v1_0_0/FunctionsClient.sol\":2199:2230  msg.sender != address(i_router) */\n      0xffffffffffffffffffffffffffffffffffffffff\n      and\n      eq\n        /* \"@chainlink/contracts/src/v0.8/functions/v1_0_0/FunctionsClient.sol\":2195:2276  if (msg.sender != address(i_router)) {... */\n      tag_101\n      jumpi\n        /* \"@chainlink/contracts/src/v0.8/functions/v1_0_0/FunctionsClient.sol\":2247:2269  OnlyRouterCanFulfill() */\n      mload(0x40)\n      0xc6829f8300000000000000000000000000000000000000000000000000000000\n      dup2\n      mstore\n      0x04\n      add\n      mload(0x40)\n      dup1\n      swap2\n      sub\n      swap1\n      revert\n        /* \"@chainlink/contracts/src/v0.8/functions/v1_0_0/FunctionsClient.sol\":2195:2276  if (msg.sender != address(i_router)) {... */\n    tag_101:\n        /* \"@chainlink/contracts/src/v0.8/functions/v1_0_0/FunctionsClient.sol\":2281:2321  fulfillRequest(requestId, response, err) */\n      tag_102\n        /* \"@chainlink/contracts/src/v0.8/functions/v1_0_0/FunctionsClient.sol\":2296:2305  requestId */\n      dup4\n        /* \"@chainlink/contracts/src/v0.8/functions/v1_0_0/FunctionsClient.sol\":2307:2315  response */\n      dup4\n        /* \"@chainlink/contracts/src/v0.8/functions/v1_0_0/FunctionsClient.sol\":2317:2320  err */\n      dup4\n        /* \"@chainlink/contracts/src/v0.8/functions/v1_0_0/FunctionsClient.sol\":2281:2295  fulfillRequest */\n      tag_103\n        /* \"@chainlink/contracts/src/v0.8/functions/v1_0_0/FunctionsClient.sol\":2281:2321  fulfillRequest(requestId, response, err) */\n      jump\t// in\n    tag_102:\n        /* \"@chainlink/contracts/src/v0.8/functions/v1_0_0/FunctionsClient.sol\":2349:2358  requestId */\n      dup3\n        /* \"@chainlink/contracts/src/v0.8/functions/v1_0_0/FunctionsClient.sol\":2332:2359  RequestFulfilled(requestId) */\n      0x85e1543bf2f84fe80c6badbce3648c8539ad1df4d2b3d822938ca0538be727e6\n      mload(0x40)\n      mload(0x40)\n      dup1\n      swap2\n      sub\n      swap1\n      log2\n        /* \"@chainlink/contracts/src/v0.8/functions/v1_0_0/FunctionsClient.sol\":2078:2364  function handleOracleFulfillment(bytes32 requestId, bytes memory response, bytes memory err) external override {... */\n      pop\n      pop\n      pop\n      jump\t// out\n        /* \"contracts/0050PriceUSDOracle.sol\":5072:5489  function getCalculationDetails() external view returns (... */\n    tag_37:\n        /* \"contracts/0050PriceUSDOracle.sol\":5138:5154  uint256 rawPrice */\n      0x00\n        /* \"contracts/0050PriceUSDOracle.sol\":5165:5191  uint256 calculatedUSDCents */\n      dup1\n        /* \"contracts/0050PriceUSDOracle.sol\":5202:5225  uint256 precisePriceE18 */\n      0x00\n        /* \"contracts/0050PriceUSDOracle.sol\":5236:5261  string memory calculation */\n      0x60\n        /* \"contracts/0050PriceUSDOracle.sol\":5302:5314  currentPrice */\n      sload(0x02)\n        /* \"contracts/0050PriceUSDOracle.sol\":5344:5348  1e16 */\n      0x2386f26fc10000\n        /* \"contracts/0050PriceUSDOracle.sol\":5329:5341  currentPrice */\n      sload(0x02)\n        /* \"contracts/0050PriceUSDOracle.sol\":5329:5348  currentPrice / 1e16 */\n      tag_105\n      swap2\n      swap1\n      tag_106\n      jump\t// in\n    tag_105:\n        /* \"contracts/0050PriceUSDOracle.sol\":5378:5390  currentPrice */\n      sload(0x02)\n        /* \"contracts/0050PriceUSDOracle.sol\":5280:5481  return (... */\n      mload(0x40)\n      dup1\n      0x60\n      add\n      0x40\n      mstore\n      dup1\n      0x2f\n      dup2\n      mstore\n      0x20\n      add\n      data_b4e3728531a6a78c2e6f832be80dc65af1c8e746943d6995899471c6dcfe9aaa\n      0x2f\n      swap2\n      codecopy\n      swap4\n      pop\n      swap4\n      pop\n      swap4\n      pop\n      swap4\n      pop\n        /* \"contracts/0050PriceUSDOracle.sol\":5072:5489  function getCalculationDetails() external view returns (... */\n      swap1\n      swap2\n      swap3\n      swap4\n      jump\t// out\n        /* \"contracts/0050PriceUSDOracle.sol\":5553:5684  function isPriceStale() external view returns (bool) {... */\n    tag_41:\n        /* \"contracts/0050PriceUSDOracle.sol\":5600:5604  bool */\n      0x00\n        /* \"contracts/0050PriceUSDOracle.sol\":5661:5665  3600 */\n      0x0e10\n        /* \"contracts/0050PriceUSDOracle.sol\":5643:5657  lastUpdateTime */\n      sload(0x03)\n        /* \"contracts/0050PriceUSDOracle.sol\":5625:5640  block.timestamp */\n      timestamp\n        /* \"contracts/0050PriceUSDOracle.sol\":5625:5657  block.timestamp - lastUpdateTime */\n      tag_108\n      swap2\n      swap1\n      tag_109\n      jump\t// in\n    tag_108:\n        /* \"contracts/0050PriceUSDOracle.sol\":5624:5665  (block.timestamp - lastUpdateTime) > 3600 */\n      gt\n        /* \"contracts/0050PriceUSDOracle.sol\":5617:5665  return (block.timestamp - lastUpdateTime) > 3600 */\n      swap1\n      pop\n        /* \"contracts/0050PriceUSDOracle.sol\":5553:5684  function isPriceStale() external view returns (bool) {... */\n      swap1\n      jump\t// out\n        /* \"contracts/0050PriceUSDOracle.sol\":724:744  bytes32 public donID */\n    tag_45:\n      sload(0x06)\n      dup2\n      jump\t// out\n        /* \"@chainlink/contracts/src/v0.8/shared/access/ConfirmedOwnerWithProposal.sol\":1026:1342  function acceptOwnership() external override {... */\n    tag_49:\n        /* \"@chainlink/contracts/src/v0.8/shared/access/ConfirmedOwnerWithProposal.sol\":1150:1164  s_pendingOwner */\n      0x01\n      0x00\n      swap1\n      sload\n      swap1\n      0x0100\n      exp\n      swap1\n      div\n      0xffffffffffffffffffffffffffffffffffffffff\n      and\n        /* \"@chainlink/contracts/src/v0.8/shared/access/ConfirmedOwnerWithProposal.sol\":1136:1164  msg.sender == s_pendingOwner */\n      0xffffffffffffffffffffffffffffffffffffffff\n      and\n        /* \"@chainlink/contracts/src/v0.8/shared/access/ConfirmedOwnerWithProposal.sol\":1136:1146  msg.sender */\n      caller\n        /* \"@chainlink/contracts/src/v0.8/shared/access/ConfirmedOwnerWithProposal.sol\":1136:1164  msg.sender == s_pendingOwner */\n      0xffffffffffffffffffffffffffffffffffffffff\n      and\n      eq\n        /* \"@chainlink/contracts/src/v0.8/shared/access/ConfirmedOwnerWithProposal.sol\":1128:1191  require(msg.sender == s_pendingOwner, \"Must be proposed owner\") */\n      tag_111\n      jumpi\n      mload(0x40)\n      0x08c379a000000000000000000000000000000000000000000000000000000000\n      dup2\n      mstore\n      0x04\n      add\n      tag_112\n      swap1\n      tag_113\n      jump\t// in\n    tag_112:\n      mload(0x40)\n      dup1\n      swap2\n      sub\n      swap1\n      revert\n    tag_111:\n        /* \"@chainlink/contracts/src/v0.8/shared/access/ConfirmedOwnerWithProposal.sol\":1198:1214  address oldOwner */\n      0x00\n        /* \"@chainlink/contracts/src/v0.8/shared/access/ConfirmedOwnerWithProposal.sol\":1217:1224  s_owner */\n      dup1\n      0x00\n      swap1\n      sload\n      swap1\n      0x0100\n      exp\n      swap1\n      div\n      0xffffffffffffffffffffffffffffffffffffffff\n      and\n        /* \"@chainlink/contracts/src/v0.8/shared/access/ConfirmedOwnerWithProposal.sol\":1198:1224  address oldOwner = s_owner */\n      swap1\n      pop\n        /* \"@chainlink/contracts/src/v0.8/shared/access/ConfirmedOwnerWithProposal.sol\":1240:1250  msg.sender */\n      caller\n        /* \"@chainlink/contracts/src/v0.8/shared/access/ConfirmedOwnerWithProposal.sol\":1230:1237  s_owner */\n      0x00\n      dup1\n        /* \"@chainlink/contracts/src/v0.8/shared/access/ConfirmedOwnerWithProposal.sol\":1230:1250  s_owner = msg.sender */\n      0x0100\n      exp\n      dup2\n      sload\n      dup2\n      0xffffffffffffffffffffffffffffffffffffffff\n      mul\n      not\n      and\n      swap1\n      dup4\n      0xffffffffffffffffffffffffffffffffffffffff\n      and\n      mul\n      or\n      swap1\n      sstore\n      pop\n        /* \"@chainlink/contracts/src/v0.8/shared/access/ConfirmedOwnerWithProposal.sol\":1281:1282  0 */\n      0x00\n        /* \"@chainlink/contracts/src/v0.8/shared/access/ConfirmedOwnerWithProposal.sol\":1256:1270  s_pendingOwner */\n      0x01\n      0x00\n        /* \"@chainlink/contracts/src/v0.8/shared/access/ConfirmedOwnerWithProposal.sol\":1256:1283  s_pendingOwner = address(0) */\n      0x0100\n      exp\n      dup2\n      sload\n      dup2\n      0xffffffffffffffffffffffffffffffffffffffff\n      mul\n      not\n      and\n      swap1\n      dup4\n      0xffffffffffffffffffffffffffffffffffffffff\n      and\n      mul\n      or\n      swap1\n      sstore\n      pop\n        /* \"@chainlink/contracts/src/v0.8/shared/access/ConfirmedOwnerWithProposal.sol\":1326:1336  msg.sender */\n      caller\n        /* \"@chainlink/contracts/src/v0.8/shared/access/ConfirmedOwnerWithProposal.sol\":1295:1337  OwnershipTransferred(oldOwner, msg.sender) */\n      0xffffffffffffffffffffffffffffffffffffffff\n      and\n        /* \"@chainlink/contracts/src/v0.8/shared/access/ConfirmedOwnerWithProposal.sol\":1316:1324  oldOwner */\n      dup2\n        /* \"@chainlink/contracts/src/v0.8/shared/access/ConfirmedOwnerWithProposal.sol\":1295:1337  OwnershipTransferred(oldOwner, msg.sender) */\n      0xffffffffffffffffffffffffffffffffffffffff\n      and\n      0x8be0079c531659141344cd1fd0a4f28419497f9722a3daafe3b4186f6b6457e0\n      mload(0x40)\n      mload(0x40)\n      dup1\n      swap2\n      sub\n      swap1\n      log3\n        /* \"@chainlink/contracts/src/v0.8/shared/access/ConfirmedOwnerWithProposal.sol\":1071:1342  {... */\n      pop\n        /* \"@chainlink/contracts/src/v0.8/shared/access/ConfirmedOwnerWithProposal.sol\":1026:1342  function acceptOwnership() external override {... */\n      jump\t// out\n        /* \"@chainlink/contracts/src/v0.8/shared/access/ConfirmedOwnerWithProposal.sol\":1382:1463  function owner() public view override returns (address) {... */\n    tag_51:\n        /* \"@chainlink/contracts/src/v0.8/shared/access/ConfirmedOwnerWithProposal.sol\":1429:1436  address */\n      0x00\n        /* \"@chainlink/contracts/src/v0.8/shared/access/ConfirmedOwnerWithProposal.sol\":1451:1458  s_owner */\n      dup1\n      0x00\n      swap1\n      sload\n      swap1\n      0x0100\n      exp\n      swap1\n      div\n      0xffffffffffffffffffffffffffffffffffffffff\n      and\n        /* \"@chainlink/contracts/src/v0.8/shared/access/ConfirmedOwnerWithProposal.sol\":1444:1458  return s_owner */\n      swap1\n      pop\n        /* \"@chainlink/contracts/src/v0.8/shared/access/ConfirmedOwnerWithProposal.sol\":1382:1463  function owner() public view override returns (address) {... */\n      swap1\n      jump\t// out\n        /* \"contracts/0050PriceUSDOracle.sol\":2335:2431  function getLatestPrice() external view returns (uint256) {... */\n    tag_55:\n        /* \"contracts/0050PriceUSDOracle.sol\":2384:2391  uint256 */\n      0x00\n        /* \"contracts/0050PriceUSDOracle.sol\":2411:2423  currentPrice */\n      sload(0x02)\n        /* \"contracts/0050PriceUSDOracle.sol\":2404:2423  return currentPrice */\n      swap1\n      pop\n        /* \"contracts/0050PriceUSDOracle.sol\":2335:2431  function getLatestPrice() external view returns (uint256) {... */\n      swap1\n      jump\t// out\n        /* \"contracts/0050PriceUSDOracle.sol\":4582:5006  function getOracleInfo() external view returns (... */\n    tag_59:\n        /* \"contracts/0050PriceUSDOracle.sol\":4640:4653  uint256 price */\n      0x00\n        /* \"contracts/0050PriceUSDOracle.sol\":4664:4682  uint256 priceCents */\n      dup1\n        /* \"contracts/0050PriceUSDOracle.sol\":4693:4711  uint256 lastUpdate */\n      0x00\n        /* \"contracts/0050PriceUSDOracle.sol\":4722:4745  uint256 timeSinceUpdate */\n      dup1\n        /* \"contracts/0050PriceUSDOracle.sol\":4756:4775  bytes32 lastRequest */\n      0x00\n        /* \"contracts/0050PriceUSDOracle.sol\":4816:4828  currentPrice */\n      sload(0x02)\n        /* \"contracts/0050PriceUSDOracle.sol\":4858:4862  1e16 */\n      0x2386f26fc10000\n        /* \"contracts/0050PriceUSDOracle.sol\":4843:4855  currentPrice */\n      sload(0x02)\n        /* \"contracts/0050PriceUSDOracle.sol\":4843:4862  currentPrice / 1e16 */\n      tag_117\n      swap2\n      swap1\n      tag_106\n      jump\t// in\n    tag_117:\n        /* \"contracts/0050PriceUSDOracle.sol\":4898:4912  lastUpdateTime */\n      sload(0x03)\n        /* \"contracts/0050PriceUSDOracle.sol\":4945:4959  lastUpdateTime */\n      sload(0x03)\n        /* \"contracts/0050PriceUSDOracle.sol\":4927:4942  block.timestamp */\n      timestamp\n        /* \"contracts/0050PriceUSDOracle.sol\":4927:4959  block.timestamp - lastUpdateTime */\n      tag_118\n      swap2\n      swap1\n      tag_109\n      jump\t// in\n    tag_118:\n        /* \"contracts/0050PriceUSDOracle.sol\":4974:4987  lastRequestId */\n      sload(0x04)\n        /* \"contracts/0050PriceUSDOracle.sol\":4794:4998  return (... */\n      swap5\n      pop\n      swap5\n      pop\n      swap5\n      pop\n      swap5\n      pop\n      swap5\n      pop\n        /* \"contracts/0050PriceUSDOracle.sol\":4582:5006  function getOracleInfo() external view returns (... */\n      swap1\n      swap2\n      swap3\n      swap4\n      swap5\n      jump\t// out\n        /* \"contracts/0050PriceUSDOracle.sol\":2921:3374  function requestPriceUpdate() external returns (bytes32 requestId) {... */\n    tag_63:\n        /* \"contracts/0050PriceUSDOracle.sol\":2969:2986  bytes32 requestId */\n      0x00\n        /* \"contracts/0050PriceUSDOracle.sol\":2999:3034  FunctionsRequest.Request memory req */\n      tag_120\n      tag_121\n      jump\t// in\n    tag_120:\n        /* \"contracts/0050PriceUSDOracle.sol\":3045:3093  req.initializeRequestForInlineJavaScript(source) */\n      tag_122\n        /* \"contracts/0050PriceUSDOracle.sol\":3086:3092  source */\n      0x07\n        /* \"contracts/0050PriceUSDOracle.sol\":3045:3093  req.initializeRequestForInlineJavaScript(source) */\n      dup1\n      sload\n      tag_123\n      swap1\n      tag_124\n      jump\t// in\n    tag_123:\n      dup1\n      0x1f\n      add\n      0x20\n      dup1\n      swap2\n      div\n      mul\n      0x20\n      add\n      mload(0x40)\n      swap1\n      dup2\n      add\n      0x40\n      mstore\n      dup1\n      swap3\n      swap2\n      swap1\n      dup2\n      dup2\n      mstore\n      0x20\n      add\n      dup3\n      dup1\n      sload\n      tag_125\n      swap1\n      tag_124\n      jump\t// in\n    tag_125:\n      dup1\n      iszero\n      tag_126\n      jumpi\n      dup1\n      0x1f\n      lt\n      tag_127\n      jumpi\n      0x0100\n      dup1\n      dup4\n      sload\n      div\n      mul\n      dup4\n      mstore\n      swap2\n      0x20\n      add\n      swap2\n      jump(tag_126)\n    tag_127:\n      dup3\n      add\n      swap2\n      swap1\n      0x00\n      mstore\n      keccak256(0x00, 0x20)\n      swap1\n    tag_128:\n      dup2\n      sload\n      dup2\n      mstore\n      swap1\n      0x01\n      add\n      swap1\n      0x20\n      add\n      dup1\n      dup4\n      gt\n      tag_128\n      jumpi\n      dup3\n      swap1\n      sub\n      0x1f\n      and\n      dup3\n      add\n      swap2\n    tag_126:\n      pop\n      pop\n      pop\n      pop\n      pop\n        /* \"contracts/0050PriceUSDOracle.sol\":3045:3048  req */\n      dup3\n        /* \"contracts/0050PriceUSDOracle.sol\":3045:3085  req.initializeRequestForInlineJavaScript */\n      tag_129\n      swap1\n        /* \"contracts/0050PriceUSDOracle.sol\":3045:3093  req.initializeRequestForInlineJavaScript(source) */\n      swap2\n      swap1\n      0xffffffff\n      and\n      jump\t// in\n    tag_122:\n        /* \"contracts/0050PriceUSDOracle.sol\":3126:3252  _sendRequest(... */\n      tag_130\n        /* \"contracts/0050PriceUSDOracle.sol\":3153:3169  req.encodeCBOR() */\n      tag_131\n        /* \"contracts/0050PriceUSDOracle.sol\":3153:3156  req */\n      dup3\n        /* \"contracts/0050PriceUSDOracle.sol\":3153:3167  req.encodeCBOR */\n      tag_132\n        /* \"contracts/0050PriceUSDOracle.sol\":3153:3169  req.encodeCBOR() */\n      jump\t// in\n    tag_131:\n        /* \"contracts/0050PriceUSDOracle.sol\":3184:3198  subscriptionId */\n      0x05\n      0x00\n      swap1\n      sload\n      swap1\n      0x0100\n      exp\n      swap1\n      div\n      0xffffffffffffffff\n      and\n        /* \"contracts/0050PriceUSDOracle.sol\":3213:3221  gasLimit */\n      0x05\n      0x08\n      swap1\n      sload\n      swap1\n      0x0100\n      exp\n      swap1\n      div\n      0xffffffff\n      and\n        /* \"contracts/0050PriceUSDOracle.sol\":3236:3241  donID */\n      sload(0x06)\n        /* \"contracts/0050PriceUSDOracle.sol\":3126:3138  _sendRequest */\n      tag_133\n        /* \"contracts/0050PriceUSDOracle.sol\":3126:3252  _sendRequest(... */\n      jump\t// in\n    tag_130:\n        /* \"contracts/0050PriceUSDOracle.sol\":3114:3252  requestId = _sendRequest(... */\n      swap2\n      pop\n        /* \"contracts/0050PriceUSDOracle.sol\":3289:3298  requestId */\n      dup2\n        /* \"contracts/0050PriceUSDOracle.sol\":3273:3286  lastRequestId */\n      0x04\n        /* \"contracts/0050PriceUSDOracle.sol\":3273:3298  lastRequestId = requestId */\n      dup2\n      swap1\n      sstore\n      pop\n        /* \"contracts/0050PriceUSDOracle.sol\":3329:3338  requestId */\n      dup2\n        /* \"contracts/0050PriceUSDOracle.sol\":3314:3339  PriceRequested(requestId) */\n      0x655f2dca0174ce451aa939c62ea493c734778cc67c6783626b08ad34985e6c61\n      mload(0x40)\n      mload(0x40)\n      dup1\n      swap2\n      sub\n      swap1\n      log2\n        /* \"contracts/0050PriceUSDOracle.sol\":3350:3366  return requestId */\n      pop\n        /* \"contracts/0050PriceUSDOracle.sol\":2921:3374  function requestPriceUpdate() external returns (bytes32 requestId) {... */\n      swap1\n      jump\t// out\n        /* \"contracts/0050PriceUSDOracle.sol\":539:568  uint256 public lastUpdateTime */\n    tag_66:\n      sload(0x03)\n      dup2\n      jump\t// out\n        /* \"contracts/0050PriceUSDOracle.sol\":4282:4522  function updateConfig(... */\n    tag_71:\n        /* \"@chainlink/contracts/src/v0.8/shared/access/ConfirmedOwnerWithProposal.sol\":2075:2095  _validateOwnership() */\n      tag_135\n        /* \"@chainlink/contracts/src/v0.8/shared/access/ConfirmedOwnerWithProposal.sol\":2075:2093  _validateOwnership */\n      tag_91\n        /* \"@chainlink/contracts/src/v0.8/shared/access/ConfirmedOwnerWithProposal.sol\":2075:2095  _validateOwnership() */\n      jump\t// in\n    tag_135:\n        /* \"contracts/0050PriceUSDOracle.sol\":4443:4458  _subscriptionId */\n      dup3\n        /* \"contracts/0050PriceUSDOracle.sol\":4426:4440  subscriptionId */\n      0x05\n      0x00\n        /* \"contracts/0050PriceUSDOracle.sol\":4426:4458  subscriptionId = _subscriptionId */\n      0x0100\n      exp\n      dup2\n      sload\n      dup2\n      0xffffffffffffffff\n      mul\n      not\n      and\n      swap1\n      dup4\n      0xffffffffffffffff\n      and\n      mul\n      or\n      swap1\n      sstore\n      pop\n        /* \"contracts/0050PriceUSDOracle.sol\":4480:4489  _gasLimit */\n      dup2\n        /* \"contracts/0050PriceUSDOracle.sol\":4469:4477  gasLimit */\n      0x05\n      0x08\n        /* \"contracts/0050PriceUSDOracle.sol\":4469:4489  gasLimit = _gasLimit */\n      0x0100\n      exp\n      dup2\n      sload\n      dup2\n      0xffffffff\n      mul\n      not\n      and\n      swap1\n      dup4\n      0xffffffff\n      and\n      mul\n      or\n      swap1\n      sstore\n      pop\n        /* \"contracts/0050PriceUSDOracle.sol\":4508:4514  _donID */\n      dup1\n        /* \"contracts/0050PriceUSDOracle.sol\":4500:4505  donID */\n      0x06\n        /* \"contracts/0050PriceUSDOracle.sol\":4500:4514  donID = _donID */\n      dup2\n      swap1\n      sstore\n      pop\n        /* \"contracts/0050PriceUSDOracle.sol\":4282:4522  function updateConfig(... */\n      pop\n      pop\n      pop\n      jump\t// out\n        /* \"contracts/0050PriceUSDOracle.sol\":2486:2684  function getLatestPriceUSD() external view returns (uint256) {... */\n    tag_73:\n        /* \"contracts/0050PriceUSDOracle.sol\":2538:2545  uint256 */\n      0x00\n        /* \"contracts/0050PriceUSDOracle.sol\":2641:2645  1e16 */\n      0x2386f26fc10000\n        /* \"contracts/0050PriceUSDOracle.sol\":2626:2638  currentPrice */\n      sload(0x02)\n        /* \"contracts/0050PriceUSDOracle.sol\":2626:2645  currentPrice / 1e16 */\n      tag_138\n      swap2\n      swap1\n      tag_106\n      jump\t// in\n    tag_138:\n        /* \"contracts/0050PriceUSDOracle.sol\":2619:2645  return currentPrice / 1e16 */\n      swap1\n      pop\n        /* \"contracts/0050PriceUSDOracle.sol\":2486:2684  function getLatestPriceUSD() external view returns (uint256) {... */\n      swap1\n      jump\t// out\n        /* \"@chainlink/contracts/src/v0.8/shared/access/ConfirmedOwnerWithProposal.sol\":847:945  function transferOwnership(address to) public override onlyOwner {... */\n    tag_78:\n        /* \"@chainlink/contracts/src/v0.8/shared/access/ConfirmedOwnerWithProposal.sol\":2075:2095  _validateOwnership() */\n      tag_140\n        /* \"@chainlink/contracts/src/v0.8/shared/access/ConfirmedOwnerWithProposal.sol\":2075:2093  _validateOwnership */\n      tag_91\n        /* \"@chainlink/contracts/src/v0.8/shared/access/ConfirmedOwnerWithProposal.sol\":2075:2095  _validateOwnership() */\n      jump\t// in\n    tag_140:\n        /* \"@chainlink/contracts/src/v0.8/shared/access/ConfirmedOwnerWithProposal.sol\":918:940  _transferOwnership(to) */\n      tag_142\n        /* \"@chainlink/contracts/src/v0.8/shared/access/ConfirmedOwnerWithProposal.sol\":937:939  to */\n      dup2\n        /* \"@chainlink/contracts/src/v0.8/shared/access/ConfirmedOwnerWithProposal.sol\":918:936  _transferOwnership */\n      tag_143\n        /* \"@chainlink/contracts/src/v0.8/shared/access/ConfirmedOwnerWithProposal.sol\":918:940  _transferOwnership(to) */\n      jump\t// in\n    tag_142:\n        /* \"@chainlink/contracts/src/v0.8/shared/access/ConfirmedOwnerWithProposal.sol\":847:945  function transferOwnership(address to) public override onlyOwner {... */\n      pop\n      jump\t// out\n        /* \"contracts/0050PriceUSDOracle.sol\":686:717  uint32 public gasLimit = 300000 */\n    tag_80:\n      0x05\n      0x08\n      swap1\n      sload\n      swap1\n      0x0100\n      exp\n      swap1\n      div\n      0xffffffff\n      and\n      dup2\n      jump\t// out\n        /* \"contracts/0050PriceUSDOracle.sol\":575:603  bytes32 public lastRequestId */\n    tag_84:\n      sload(0x04)\n      dup2\n      jump\t// out\n        /* \"contracts/0050PriceUSDOracle.sol\":2749:2882  function getLatestPricePrecise() external view returns (uint256) {... */\n    tag_87:\n        /* \"contracts/0050PriceUSDOracle.sol\":2805:2812  uint256 */\n      0x00\n        /* \"contracts/0050PriceUSDOracle.sol\":2832:2844  currentPrice */\n      sload(0x02)\n        /* \"contracts/0050PriceUSDOracle.sol\":2825:2844  return currentPrice */\n      swap1\n      pop\n        /* \"contracts/0050PriceUSDOracle.sol\":2749:2882  function getLatestPricePrecise() external view returns (uint256) {... */\n      swap1\n      jump\t// out\n        /* \"@chainlink/contracts/src/v0.8/shared/access/ConfirmedOwnerWithProposal.sol\":1809:1971  function _validateOwnership() internal view {... */\n    tag_91:\n        /* \"@chainlink/contracts/src/v0.8/shared/access/ConfirmedOwnerWithProposal.sol\":1932:1939  s_owner */\n      0x00\n      dup1\n      sload\n      swap1\n      0x0100\n      exp\n      swap1\n      div\n      0xffffffffffffffffffffffffffffffffffffffff\n      and\n        /* \"@chainlink/contracts/src/v0.8/shared/access/ConfirmedOwnerWithProposal.sol\":1918:1939  msg.sender == s_owner */\n      0xffffffffffffffffffffffffffffffffffffffff\n      and\n        /* \"@chainlink/contracts/src/v0.8/shared/access/ConfirmedOwnerWithProposal.sol\":1918:1928  msg.sender */\n      caller\n        /* \"@chainlink/contracts/src/v0.8/shared/access/ConfirmedOwnerWithProposal.sol\":1918:1939  msg.sender == s_owner */\n      0xffffffffffffffffffffffffffffffffffffffff\n      and\n      eq\n        /* \"@chainlink/contracts/src/v0.8/shared/access/ConfirmedOwnerWithProposal.sol\":1910:1966  require(msg.sender == s_owner, \"Only callable by owner\") */\n      tag_146\n      jumpi\n      mload(0x40)\n      0x08c379a000000000000000000000000000000000000000000000000000000000\n      dup2\n      mstore\n      0x04\n      add\n      tag_147\n      swap1\n      tag_148\n      jump\t// in\n    tag_147:\n      mload(0x40)\n      dup1\n      swap2\n      sub\n      swap1\n      revert\n    tag_146:\n        /* \"@chainlink/contracts/src/v0.8/shared/access/ConfirmedOwnerWithProposal.sol\":1809:1971  function _validateOwnership() internal view {... */\n      jump\t// out\n        /* \"contracts/0050PriceUSDOracle.sol\":3427:3886  function fulfillRequest(... */\n    tag_103:\n        /* \"contracts/0050PriceUSDOracle.sol\":3591:3592  0 */\n      0x00\n        /* \"contracts/0050PriceUSDOracle.sol\":3578:3581  err */\n      dup2\n        /* \"contracts/0050PriceUSDOracle.sol\":3578:3588  err.length */\n      mload\n        /* \"contracts/0050PriceUSDOracle.sol\":3578:3592  err.length > 0 */\n      gt\n        /* \"contracts/0050PriceUSDOracle.sol\":3574:3676  if (err.length > 0) {... */\n      iszero\n      tag_150\n      jumpi\n        /* \"contracts/0050PriceUSDOracle.sol\":3628:3637  requestId */\n      dup3\n        /* \"contracts/0050PriceUSDOracle.sol\":3614:3643  RequestFailed(requestId, err) */\n      0x61982c98cbc49d11759a948f460b92bca26bdf12ceee12c310f117eb2ca9a9cb\n        /* \"contracts/0050PriceUSDOracle.sol\":3639:3642  err */\n      dup3\n        /* \"contracts/0050PriceUSDOracle.sol\":3614:3643  RequestFailed(requestId, err) */\n      mload(0x40)\n      tag_151\n      swap2\n      swap1\n      tag_152\n      jump\t// in\n    tag_151:\n      mload(0x40)\n      dup1\n      swap2\n      sub\n      swap1\n      log2\n        /* \"contracts/0050PriceUSDOracle.sol\":3658:3665  return; */\n      jump(tag_149)\n        /* \"contracts/0050PriceUSDOracle.sol\":3574:3676  if (err.length > 0) {... */\n    tag_150:\n        /* \"contracts/0050PriceUSDOracle.sol\":3696:3712  uint256 newPrice */\n      0x00\n        /* \"contracts/0050PriceUSDOracle.sol\":3726:3734  response */\n      dup3\n        /* \"contracts/0050PriceUSDOracle.sol\":3715:3746  abi.decode(response, (uint256)) */\n      dup1\n      0x20\n      add\n      swap1\n      mload\n      dup2\n      add\n      swap1\n      tag_153\n      swap2\n      swap1\n      tag_154\n      jump\t// in\n    tag_153:\n        /* \"contracts/0050PriceUSDOracle.sol\":3696:3746  uint256 newPrice = abi.decode(response, (uint256)) */\n      swap1\n      pop\n        /* \"contracts/0050PriceUSDOracle.sol\":3772:3780  newPrice */\n      dup1\n        /* \"contracts/0050PriceUSDOracle.sol\":3757:3769  currentPrice */\n      0x02\n        /* \"contracts/0050PriceUSDOracle.sol\":3757:3780  currentPrice = newPrice */\n      dup2\n      swap1\n      sstore\n      pop\n        /* \"contracts/0050PriceUSDOracle.sol\":3808:3823  block.timestamp */\n      timestamp\n        /* \"contracts/0050PriceUSDOracle.sol\":3791:3805  lastUpdateTime */\n      0x03\n        /* \"contracts/0050PriceUSDOracle.sol\":3791:3823  lastUpdateTime = block.timestamp */\n      dup2\n      swap1\n      sstore\n      pop\n        /* \"contracts/0050PriceUSDOracle.sol\":3839:3878  PriceUpdated(newPrice, block.timestamp) */\n      0x945c1c4e99aa89f648fbfe3df471b916f719e16d960fcec0737d4d56bd696838\n        /* \"contracts/0050PriceUSDOracle.sol\":3852:3860  newPrice */\n      dup2\n        /* \"contracts/0050PriceUSDOracle.sol\":3862:3877  block.timestamp */\n      timestamp\n        /* \"contracts/0050PriceUSDOracle.sol\":3839:3878  PriceUpdated(newPrice, block.timestamp) */\n      mload(0x40)\n      tag_155\n      swap3\n      swap2\n      swap1\n      tag_99\n      jump\t// in\n    tag_155:\n      mload(0x40)\n      dup1\n      swap2\n      sub\n      swap1\n      log1\n        /* \"contracts/0050PriceUSDOracle.sol\":3563:3886  {... */\n      pop\n        /* \"contracts/0050PriceUSDOracle.sol\":3427:3886  function fulfillRequest(... */\n    tag_149:\n      pop\n      pop\n      pop\n      jump\t// out\n        /* \"@chainlink/contracts/src/v0.8/functions/v1_0_0/libraries/FunctionsRequest.sol\":4323:4530  function initializeRequestForInlineJavaScript(Request memory self, string memory javaScriptSource) internal pure {... */\n    tag_129:\n        /* \"@chainlink/contracts/src/v0.8/functions/v1_0_0/libraries/FunctionsRequest.sol\":4442:4525  initializeRequest(self, Location.Inline, CodeLanguage.JavaScript, javaScriptSource) */\n      tag_157\n        /* \"@chainlink/contracts/src/v0.8/functions/v1_0_0/libraries/FunctionsRequest.sol\":4460:4464  self */\n      dup3\n        /* \"@chainlink/contracts/src/v0.8/functions/v1_0_0/libraries/FunctionsRequest.sol\":4466:4481  Location.Inline */\n      0x00\n        /* \"@chainlink/contracts/src/v0.8/functions/v1_0_0/libraries/FunctionsRequest.sol\":4483:4506  CodeLanguage.JavaScript */\n      dup1\n        /* \"@chainlink/contracts/src/v0.8/functions/v1_0_0/libraries/FunctionsRequest.sol\":4508:4524  javaScriptSource */\n      dup5\n        /* \"@chainlink/contracts/src/v0.8/functions/v1_0_0/libraries/FunctionsRequest.sol\":4442:4459  initializeRequest */\n      tag_158\n        /* \"@chainlink/contracts/src/v0.8/functions/v1_0_0/libraries/FunctionsRequest.sol\":4442:4525  initializeRequest(self, Location.Inline, CodeLanguage.JavaScript, javaScriptSource) */\n      jump\t// in\n    tag_157:\n        /* \"@chainlink/contracts/src/v0.8/functions/v1_0_0/libraries/FunctionsRequest.sol\":4323:4530  function initializeRequestForInlineJavaScript(Request memory self, string memory javaScriptSource) internal pure {... */\n      pop\n      pop\n      jump\t// out\n        /* \"@chainlink/contracts/src/v0.8/functions/v1_0_0/libraries/FunctionsRequest.sol\":2158:3428  function encodeCBOR(Request memory self) internal pure returns (bytes memory) {... */\n    tag_132:\n        /* \"@chainlink/contracts/src/v0.8/functions/v1_0_0/libraries/FunctionsRequest.sol\":2222:2234  bytes memory */\n      0x60\n        /* \"@chainlink/contracts/src/v0.8/functions/v1_0_0/libraries/FunctionsRequest.sol\":2242:2271  CBOR.CBORBuffer memory buffer */\n      0x00\n        /* \"@chainlink/contracts/src/v0.8/functions/v1_0_0/libraries/FunctionsRequest.sol\":2274:2306  CBOR.create(DEFAULT_BUFFER_SIZE) */\n      tag_160\n        /* \"@chainlink/contracts/src/v0.8/functions/v1_0_0/libraries/FunctionsRequest.sol\":375:378  256 */\n      0x0100\n        /* \"@chainlink/contracts/src/v0.8/functions/v1_0_0/libraries/FunctionsRequest.sol\":2274:2285  CBOR.create */\n      tag_161\n        /* \"@chainlink/contracts/src/v0.8/functions/v1_0_0/libraries/FunctionsRequest.sol\":2274:2306  CBOR.create(DEFAULT_BUFFER_SIZE) */\n      jump\t// in\n    tag_160:\n        /* \"@chainlink/contracts/src/v0.8/functions/v1_0_0/libraries/FunctionsRequest.sol\":2242:2306  CBOR.CBORBuffer memory buffer = CBOR.create(DEFAULT_BUFFER_SIZE) */\n      swap1\n      pop\n        /* \"@chainlink/contracts/src/v0.8/functions/v1_0_0/libraries/FunctionsRequest.sol\":2313:2347  buffer.writeString(\"codeLocation\") */\n      tag_162\n      mload(0x40)\n      dup1\n      0x40\n      add\n      0x40\n      mstore\n      dup1\n      0x0c\n      dup2\n      mstore\n      0x20\n      add\n      0x636f64654c6f636174696f6e0000000000000000000000000000000000000000\n      dup2\n      mstore\n      pop\n        /* \"@chainlink/contracts/src/v0.8/functions/v1_0_0/libraries/FunctionsRequest.sol\":2313:2319  buffer */\n      dup3\n        /* \"@chainlink/contracts/src/v0.8/functions/v1_0_0/libraries/FunctionsRequest.sol\":2313:2331  buffer.writeString */\n      tag_163\n      swap1\n        /* \"@chainlink/contracts/src/v0.8/functions/v1_0_0/libraries/FunctionsRequest.sol\":2313:2347  buffer.writeString(\"codeLocation\") */\n      swap2\n      swap1\n      0xffffffff\n      and\n      jump\t// in\n    tag_162:\n        /* \"@chainlink/contracts/src/v0.8/functions/v1_0_0/libraries/FunctionsRequest.sol\":2353:2400  buffer.writeUInt256(uint256(self.codeLocation)) */\n      tag_164\n        /* \"@chainlink/contracts/src/v0.8/functions/v1_0_0/libraries/FunctionsRequest.sol\":2381:2385  self */\n      dup4\n        /* \"@chainlink/contracts/src/v0.8/functions/v1_0_0/libraries/FunctionsRequest.sol\":2381:2398  self.codeLocation */\n      0x00\n      add\n      mload\n        /* \"@chainlink/contracts/src/v0.8/functions/v1_0_0/libraries/FunctionsRequest.sol\":2373:2399  uint256(self.codeLocation) */\n      0x02\n      dup2\n      gt\n      iszero\n      tag_165\n      jumpi\n      tag_166\n      tag_167\n      jump\t// in\n    tag_166:\n    tag_165:\n        /* \"@chainlink/contracts/src/v0.8/functions/v1_0_0/libraries/FunctionsRequest.sol\":2353:2359  buffer */\n      dup3\n        /* \"@chainlink/contracts/src/v0.8/functions/v1_0_0/libraries/FunctionsRequest.sol\":2353:2372  buffer.writeUInt256 */\n      tag_168\n      swap1\n        /* \"@chainlink/contracts/src/v0.8/functions/v1_0_0/libraries/FunctionsRequest.sol\":2353:2400  buffer.writeUInt256(uint256(self.codeLocation)) */\n      swap2\n      swap1\n      0xffffffff\n      and\n      jump\t// in\n    tag_164:\n        /* \"@chainlink/contracts/src/v0.8/functions/v1_0_0/libraries/FunctionsRequest.sol\":2407:2437  buffer.writeString(\"language\") */\n      tag_169\n      mload(0x40)\n      dup1\n      0x40\n      add\n      0x40\n      mstore\n      dup1\n      0x08\n      dup2\n      mstore\n      0x20\n      add\n      0x6c616e6775616765000000000000000000000000000000000000000000000000\n      dup2\n      mstore\n      pop\n        /* \"@chainlink/contracts/src/v0.8/functions/v1_0_0/libraries/FunctionsRequest.sol\":2407:2413  buffer */\n      dup3\n        /* \"@chainlink/contracts/src/v0.8/functions/v1_0_0/libraries/FunctionsRequest.sol\":2407:2425  buffer.writeString */\n      tag_163\n      swap1\n        /* \"@chainlink/contracts/src/v0.8/functions/v1_0_0/libraries/FunctionsRequest.sol\":2407:2437  buffer.writeString(\"language\") */\n      swap2\n      swap1\n      0xffffffff\n      and\n      jump\t// in\n    tag_169:\n        /* \"@chainlink/contracts/src/v0.8/functions/v1_0_0/libraries/FunctionsRequest.sol\":2443:2486  buffer.writeUInt256(uint256(self.language)) */\n      tag_170\n        /* \"@chainlink/contracts/src/v0.8/functions/v1_0_0/libraries/FunctionsRequest.sol\":2471:2475  self */\n      dup4\n        /* \"@chainlink/contracts/src/v0.8/functions/v1_0_0/libraries/FunctionsRequest.sol\":2471:2484  self.language */\n      0x40\n      add\n      mload\n        /* \"@chainlink/contracts/src/v0.8/functions/v1_0_0/libraries/FunctionsRequest.sol\":2463:2485  uint256(self.language) */\n      0x00\n      dup2\n      gt\n      iszero\n      tag_171\n      jumpi\n      tag_172\n      tag_167\n      jump\t// in\n    tag_172:\n    tag_171:\n        /* \"@chainlink/contracts/src/v0.8/functions/v1_0_0/libraries/FunctionsRequest.sol\":2443:2449  buffer */\n      dup3\n        /* \"@chainlink/contracts/src/v0.8/functions/v1_0_0/libraries/FunctionsRequest.sol\":2443:2462  buffer.writeUInt256 */\n      tag_168\n      swap1\n        /* \"@chainlink/contracts/src/v0.8/functions/v1_0_0/libraries/FunctionsRequest.sol\":2443:2486  buffer.writeUInt256(uint256(self.language)) */\n      swap2\n      swap1\n      0xffffffff\n      and\n      jump\t// in\n    tag_170:\n        /* \"@chainlink/contracts/src/v0.8/functions/v1_0_0/libraries/FunctionsRequest.sol\":2493:2521  buffer.writeString(\"source\") */\n      tag_173\n      mload(0x40)\n      dup1\n      0x40\n      add\n      0x40\n      mstore\n      dup1\n      0x06\n      dup2\n      mstore\n      0x20\n      add\n      0x736f757263650000000000000000000000000000000000000000000000000000\n      dup2\n      mstore\n      pop\n        /* \"@chainlink/contracts/src/v0.8/functions/v1_0_0/libraries/FunctionsRequest.sol\":2493:2499  buffer */\n      dup3\n        /* \"@chainlink/contracts/src/v0.8/functions/v1_0_0/libraries/FunctionsRequest.sol\":2493:2511  buffer.writeString */\n      tag_163\n      swap1\n        /* \"@chainlink/contracts/src/v0.8/functions/v1_0_0/libraries/FunctionsRequest.sol\":2493:2521  buffer.writeString(\"source\") */\n      swap2\n      swap1\n      0xffffffff\n      and\n      jump\t// in\n    tag_173:\n        /* \"@chainlink/contracts/src/v0.8/functions/v1_0_0/libraries/FunctionsRequest.sol\":2527:2558  buffer.writeString(self.source) */\n      tag_174\n        /* \"@chainlink/contracts/src/v0.8/functions/v1_0_0/libraries/FunctionsRequest.sol\":2546:2550  self */\n      dup4\n        /* \"@chainlink/contracts/src/v0.8/functions/v1_0_0/libraries/FunctionsRequest.sol\":2546:2557  self.source */\n      0x60\n      add\n      mload\n        /* \"@chainlink/contracts/src/v0.8/functions/v1_0_0/libraries/FunctionsRequest.sol\":2527:2533  buffer */\n      dup3\n        /* \"@chainlink/contracts/src/v0.8/functions/v1_0_0/libraries/FunctionsRequest.sol\":2527:2545  buffer.writeString */\n      tag_163\n      swap1\n        /* \"@chainlink/contracts/src/v0.8/functions/v1_0_0/libraries/FunctionsRequest.sol\":2527:2558  buffer.writeString(self.source) */\n      swap2\n      swap1\n      0xffffffff\n      and\n      jump\t// in\n    tag_174:\n        /* \"@chainlink/contracts/src/v0.8/functions/v1_0_0/libraries/FunctionsRequest.sol\":2588:2589  0 */\n      0x00\n        /* \"@chainlink/contracts/src/v0.8/functions/v1_0_0/libraries/FunctionsRequest.sol\":2569:2573  self */\n      dup4\n        /* \"@chainlink/contracts/src/v0.8/functions/v1_0_0/libraries/FunctionsRequest.sol\":2569:2578  self.args */\n      0xa0\n      add\n      mload\n        /* \"@chainlink/contracts/src/v0.8/functions/v1_0_0/libraries/FunctionsRequest.sol\":2569:2585  self.args.length */\n      mload\n        /* \"@chainlink/contracts/src/v0.8/functions/v1_0_0/libraries/FunctionsRequest.sol\":2569:2589  self.args.length > 0 */\n      gt\n        /* \"@chainlink/contracts/src/v0.8/functions/v1_0_0/libraries/FunctionsRequest.sol\":2565:2792  if (self.args.length > 0) {... */\n      iszero\n      tag_175\n      jumpi\n        /* \"@chainlink/contracts/src/v0.8/functions/v1_0_0/libraries/FunctionsRequest.sol\":2599:2625  buffer.writeString(\"args\") */\n      tag_176\n      mload(0x40)\n      dup1\n      0x40\n      add\n      0x40\n      mstore\n      dup1\n      0x04\n      dup2\n      mstore\n      0x20\n      add\n      0x6172677300000000000000000000000000000000000000000000000000000000\n      dup2\n      mstore\n      pop\n        /* \"@chainlink/contracts/src/v0.8/functions/v1_0_0/libraries/FunctionsRequest.sol\":2599:2605  buffer */\n      dup3\n        /* \"@chainlink/contracts/src/v0.8/functions/v1_0_0/libraries/FunctionsRequest.sol\":2599:2617  buffer.writeString */\n      tag_163\n      swap1\n        /* \"@chainlink/contracts/src/v0.8/functions/v1_0_0/libraries/FunctionsRequest.sol\":2599:2625  buffer.writeString(\"args\") */\n      swap2\n      swap1\n      0xffffffff\n      and\n      jump\t// in\n    tag_176:\n        /* \"@chainlink/contracts/src/v0.8/functions/v1_0_0/libraries/FunctionsRequest.sol\":2633:2652  buffer.startArray() */\n      tag_177\n        /* \"@chainlink/contracts/src/v0.8/functions/v1_0_0/libraries/FunctionsRequest.sol\":2633:2639  buffer */\n      dup2\n        /* \"@chainlink/contracts/src/v0.8/functions/v1_0_0/libraries/FunctionsRequest.sol\":2633:2650  buffer.startArray */\n      tag_178\n        /* \"@chainlink/contracts/src/v0.8/functions/v1_0_0/libraries/FunctionsRequest.sol\":2633:2652  buffer.startArray() */\n      jump\t// in\n    tag_177:\n        /* \"@chainlink/contracts/src/v0.8/functions/v1_0_0/libraries/FunctionsRequest.sol\":2665:2674  uint256 i */\n      0x00\n        /* \"@chainlink/contracts/src/v0.8/functions/v1_0_0/libraries/FunctionsRequest.sol\":2660:2758  for (uint256 i = 0; i < self.args.length; ++i) {... */\n    tag_179:\n        /* \"@chainlink/contracts/src/v0.8/functions/v1_0_0/libraries/FunctionsRequest.sol\":2684:2688  self */\n      dup4\n        /* \"@chainlink/contracts/src/v0.8/functions/v1_0_0/libraries/FunctionsRequest.sol\":2684:2693  self.args */\n      0xa0\n      add\n      mload\n        /* \"@chainlink/contracts/src/v0.8/functions/v1_0_0/libraries/FunctionsRequest.sol\":2684:2700  self.args.length */\n      mload\n        /* \"@chainlink/contracts/src/v0.8/functions/v1_0_0/libraries/FunctionsRequest.sol\":2680:2681  i */\n      dup2\n        /* \"@chainlink/contracts/src/v0.8/functions/v1_0_0/libraries/FunctionsRequest.sol\":2680:2700  i < self.args.length */\n      lt\n        /* \"@chainlink/contracts/src/v0.8/functions/v1_0_0/libraries/FunctionsRequest.sol\":2660:2758  for (uint256 i = 0; i < self.args.length; ++i) {... */\n      iszero\n      tag_180\n      jumpi\n        /* \"@chainlink/contracts/src/v0.8/functions/v1_0_0/libraries/FunctionsRequest.sol\":2717:2749  buffer.writeString(self.args[i]) */\n      tag_182\n        /* \"@chainlink/contracts/src/v0.8/functions/v1_0_0/libraries/FunctionsRequest.sol\":2736:2740  self */\n      dup5\n        /* \"@chainlink/contracts/src/v0.8/functions/v1_0_0/libraries/FunctionsRequest.sol\":2736:2745  self.args */\n      0xa0\n      add\n      mload\n        /* \"@chainlink/contracts/src/v0.8/functions/v1_0_0/libraries/FunctionsRequest.sol\":2746:2747  i */\n      dup3\n        /* \"@chainlink/contracts/src/v0.8/functions/v1_0_0/libraries/FunctionsRequest.sol\":2736:2748  self.args[i] */\n      dup2\n      mload\n      dup2\n      lt\n      tag_183\n      jumpi\n      tag_184\n      tag_185\n      jump\t// in\n    tag_184:\n    tag_183:\n      0x20\n      mul\n      0x20\n      add\n      add\n      mload\n        /* \"@chainlink/contracts/src/v0.8/functions/v1_0_0/libraries/FunctionsRequest.sol\":2717:2723  buffer */\n      dup4\n        /* \"@chainlink/contracts/src/v0.8/functions/v1_0_0/libraries/FunctionsRequest.sol\":2717:2735  buffer.writeString */\n      tag_163\n      swap1\n        /* \"@chainlink/contracts/src/v0.8/functions/v1_0_0/libraries/FunctionsRequest.sol\":2717:2749  buffer.writeString(self.args[i]) */\n      swap2\n      swap1\n      0xffffffff\n      and\n      jump\t// in\n    tag_182:\n        /* \"@chainlink/contracts/src/v0.8/functions/v1_0_0/libraries/FunctionsRequest.sol\":2702:2705  ++i */\n      dup1\n      tag_186\n      swap1\n      tag_187\n      jump\t// in\n    tag_186:\n      swap1\n      pop\n        /* \"@chainlink/contracts/src/v0.8/functions/v1_0_0/libraries/FunctionsRequest.sol\":2660:2758  for (uint256 i = 0; i < self.args.length; ++i) {... */\n      jump(tag_179)\n    tag_180:\n      pop\n        /* \"@chainlink/contracts/src/v0.8/functions/v1_0_0/libraries/FunctionsRequest.sol\":2765:2785  buffer.endSequence() */\n      tag_188\n        /* \"@chainlink/contracts/src/v0.8/functions/v1_0_0/libraries/FunctionsRequest.sol\":2765:2771  buffer */\n      dup2\n        /* \"@chainlink/contracts/src/v0.8/functions/v1_0_0/libraries/FunctionsRequest.sol\":2765:2783  buffer.endSequence */\n      tag_189\n        /* \"@chainlink/contracts/src/v0.8/functions/v1_0_0/libraries/FunctionsRequest.sol\":2765:2785  buffer.endSequence() */\n      jump\t// in\n    tag_188:\n        /* \"@chainlink/contracts/src/v0.8/functions/v1_0_0/libraries/FunctionsRequest.sol\":2565:2792  if (self.args.length > 0) {... */\n    tag_175:\n        /* \"@chainlink/contracts/src/v0.8/functions/v1_0_0/libraries/FunctionsRequest.sol\":2842:2843  0 */\n      0x00\n        /* \"@chainlink/contracts/src/v0.8/functions/v1_0_0/libraries/FunctionsRequest.sol\":2802:2806  self */\n      dup4\n        /* \"@chainlink/contracts/src/v0.8/functions/v1_0_0/libraries/FunctionsRequest.sol\":2802:2832  self.encryptedSecretsReference */\n      0x80\n      add\n      mload\n        /* \"@chainlink/contracts/src/v0.8/functions/v1_0_0/libraries/FunctionsRequest.sol\":2802:2839  self.encryptedSecretsReference.length */\n      mload\n        /* \"@chainlink/contracts/src/v0.8/functions/v1_0_0/libraries/FunctionsRequest.sol\":2802:2843  self.encryptedSecretsReference.length > 0 */\n      gt\n        /* \"@chainlink/contracts/src/v0.8/functions/v1_0_0/libraries/FunctionsRequest.sol\":2798:3144  if (self.encryptedSecretsReference.length > 0) {... */\n      iszero\n      tag_190\n      jumpi\n        /* \"@chainlink/contracts/src/v0.8/functions/v1_0_0/libraries/FunctionsRequest.sol\":2881:2896  Location.Inline */\n      0x00\n        /* \"@chainlink/contracts/src/v0.8/functions/v1_0_0/libraries/FunctionsRequest.sol\":2857:2896  self.secretsLocation == Location.Inline */\n      0x02\n      dup2\n      gt\n      iszero\n      tag_191\n      jumpi\n      tag_192\n      tag_167\n      jump\t// in\n    tag_192:\n    tag_191:\n        /* \"@chainlink/contracts/src/v0.8/functions/v1_0_0/libraries/FunctionsRequest.sol\":2857:2861  self */\n      dup4\n        /* \"@chainlink/contracts/src/v0.8/functions/v1_0_0/libraries/FunctionsRequest.sol\":2857:2877  self.secretsLocation */\n      0x20\n      add\n      mload\n        /* \"@chainlink/contracts/src/v0.8/functions/v1_0_0/libraries/FunctionsRequest.sol\":2857:2896  self.secretsLocation == Location.Inline */\n      0x02\n      dup2\n      gt\n      iszero\n      tag_193\n      jumpi\n      tag_194\n      tag_167\n      jump\t// in\n    tag_194:\n    tag_193:\n      sub\n        /* \"@chainlink/contracts/src/v0.8/functions/v1_0_0/libraries/FunctionsRequest.sol\":2853:2941  if (self.secretsLocation == Location.Inline) {... */\n      tag_195\n      jumpi\n        /* \"@chainlink/contracts/src/v0.8/functions/v1_0_0/libraries/FunctionsRequest.sol\":2915:2932  NoInlineSecrets() */\n      mload(0x40)\n      0xa80d31f700000000000000000000000000000000000000000000000000000000\n      dup2\n      mstore\n      0x04\n      add\n      mload(0x40)\n      dup1\n      swap2\n      sub\n      swap1\n      revert\n        /* \"@chainlink/contracts/src/v0.8/functions/v1_0_0/libraries/FunctionsRequest.sol\":2853:2941  if (self.secretsLocation == Location.Inline) {... */\n    tag_195:\n        /* \"@chainlink/contracts/src/v0.8/functions/v1_0_0/libraries/FunctionsRequest.sol\":2948:2985  buffer.writeString(\"secretsLocation\") */\n      tag_196\n      mload(0x40)\n      dup1\n      0x40\n      add\n      0x40\n      mstore\n      dup1\n      0x0f\n      dup2\n      mstore\n      0x20\n      add\n      0x736563726574734c6f636174696f6e0000000000000000000000000000000000\n      dup2\n      mstore\n      pop\n        /* \"@chainlink/contracts/src/v0.8/functions/v1_0_0/libraries/FunctionsRequest.sol\":2948:2954  buffer */\n      dup3\n        /* \"@chainlink/contracts/src/v0.8/functions/v1_0_0/libraries/FunctionsRequest.sol\":2948:2966  buffer.writeString */\n      tag_163\n      swap1\n        /* \"@chainlink/contracts/src/v0.8/functions/v1_0_0/libraries/FunctionsRequest.sol\":2948:2985  buffer.writeString(\"secretsLocation\") */\n      swap2\n      swap1\n      0xffffffff\n      and\n      jump\t// in\n    tag_196:\n        /* \"@chainlink/contracts/src/v0.8/functions/v1_0_0/libraries/FunctionsRequest.sol\":2993:3043  buffer.writeUInt256(uint256(self.secretsLocation)) */\n      tag_197\n        /* \"@chainlink/contracts/src/v0.8/functions/v1_0_0/libraries/FunctionsRequest.sol\":3021:3025  self */\n      dup4\n        /* \"@chainlink/contracts/src/v0.8/functions/v1_0_0/libraries/FunctionsRequest.sol\":3021:3041  self.secretsLocation */\n      0x20\n      add\n      mload\n        /* \"@chainlink/contracts/src/v0.8/functions/v1_0_0/libraries/FunctionsRequest.sol\":3013:3042  uint256(self.secretsLocation) */\n      0x02\n      dup2\n      gt\n      iszero\n      tag_198\n      jumpi\n      tag_199\n      tag_167\n      jump\t// in\n    tag_199:\n    tag_198:\n        /* \"@chainlink/contracts/src/v0.8/functions/v1_0_0/libraries/FunctionsRequest.sol\":2993:2999  buffer */\n      dup3\n        /* \"@chainlink/contracts/src/v0.8/functions/v1_0_0/libraries/FunctionsRequest.sol\":2993:3012  buffer.writeUInt256 */\n      tag_168\n      swap1\n        /* \"@chainlink/contracts/src/v0.8/functions/v1_0_0/libraries/FunctionsRequest.sol\":2993:3043  buffer.writeUInt256(uint256(self.secretsLocation)) */\n      swap2\n      swap1\n      0xffffffff\n      and\n      jump\t// in\n    tag_197:\n        /* \"@chainlink/contracts/src/v0.8/functions/v1_0_0/libraries/FunctionsRequest.sol\":3051:3080  buffer.writeString(\"secrets\") */\n      tag_200\n      mload(0x40)\n      dup1\n      0x40\n      add\n      0x40\n      mstore\n      dup1\n      0x07\n      dup2\n      mstore\n      0x20\n      add\n      0x7365637265747300000000000000000000000000000000000000000000000000\n      dup2\n      mstore\n      pop\n        /* \"@chainlink/contracts/src/v0.8/functions/v1_0_0/libraries/FunctionsRequest.sol\":3051:3057  buffer */\n      dup3\n        /* \"@chainlink/contracts/src/v0.8/functions/v1_0_0/libraries/FunctionsRequest.sol\":3051:3069  buffer.writeString */\n      tag_163\n      swap1\n        /* \"@chainlink/contracts/src/v0.8/functions/v1_0_0/libraries/FunctionsRequest.sol\":3051:3080  buffer.writeString(\"secrets\") */\n      swap2\n      swap1\n      0xffffffff\n      and\n      jump\t// in\n    tag_200:\n        /* \"@chainlink/contracts/src/v0.8/functions/v1_0_0/libraries/FunctionsRequest.sol\":3088:3137  buffer.writeBytes(self.encryptedSecretsReference) */\n      tag_201\n        /* \"@chainlink/contracts/src/v0.8/functions/v1_0_0/libraries/FunctionsRequest.sol\":3106:3110  self */\n      dup4\n        /* \"@chainlink/contracts/src/v0.8/functions/v1_0_0/libraries/FunctionsRequest.sol\":3106:3136  self.encryptedSecretsReference */\n      0x80\n      add\n      mload\n        /* \"@chainlink/contracts/src/v0.8/functions/v1_0_0/libraries/FunctionsRequest.sol\":3088:3094  buffer */\n      dup3\n        /* \"@chainlink/contracts/src/v0.8/functions/v1_0_0/libraries/FunctionsRequest.sol\":3088:3105  buffer.writeBytes */\n      tag_202\n      swap1\n        /* \"@chainlink/contracts/src/v0.8/functions/v1_0_0/libraries/FunctionsRequest.sol\":3088:3137  buffer.writeBytes(self.encryptedSecretsReference) */\n      swap2\n      swap1\n      0xffffffff\n      and\n      jump\t// in\n    tag_201:\n        /* \"@chainlink/contracts/src/v0.8/functions/v1_0_0/libraries/FunctionsRequest.sol\":2798:3144  if (self.encryptedSecretsReference.length > 0) {... */\n    tag_190:\n        /* \"@chainlink/contracts/src/v0.8/functions/v1_0_0/libraries/FunctionsRequest.sol\":3178:3179  0 */\n      0x00\n        /* \"@chainlink/contracts/src/v0.8/functions/v1_0_0/libraries/FunctionsRequest.sol\":3154:3158  self */\n      dup4\n        /* \"@chainlink/contracts/src/v0.8/functions/v1_0_0/libraries/FunctionsRequest.sol\":3154:3168  self.bytesArgs */\n      0xc0\n      add\n      mload\n        /* \"@chainlink/contracts/src/v0.8/functions/v1_0_0/libraries/FunctionsRequest.sol\":3154:3175  self.bytesArgs.length */\n      mload\n        /* \"@chainlink/contracts/src/v0.8/functions/v1_0_0/libraries/FunctionsRequest.sol\":3154:3179  self.bytesArgs.length > 0 */\n      gt\n        /* \"@chainlink/contracts/src/v0.8/functions/v1_0_0/libraries/FunctionsRequest.sol\":3150:3396  if (self.bytesArgs.length > 0) {... */\n      iszero\n      tag_203\n      jumpi\n        /* \"@chainlink/contracts/src/v0.8/functions/v1_0_0/libraries/FunctionsRequest.sol\":3189:3220  buffer.writeString(\"bytesArgs\") */\n      tag_204\n      mload(0x40)\n      dup1\n      0x40\n      add\n      0x40\n      mstore\n      dup1\n      0x09\n      dup2\n      mstore\n      0x20\n      add\n      0x6279746573417267730000000000000000000000000000000000000000000000\n      dup2\n      mstore\n      pop\n        /* \"@chainlink/contracts/src/v0.8/functions/v1_0_0/libraries/FunctionsRequest.sol\":3189:3195  buffer */\n      dup3\n        /* \"@chainlink/contracts/src/v0.8/functions/v1_0_0/libraries/FunctionsRequest.sol\":3189:3207  buffer.writeString */\n      tag_163\n      swap1\n        /* \"@chainlink/contracts/src/v0.8/functions/v1_0_0/libraries/FunctionsRequest.sol\":3189:3220  buffer.writeString(\"bytesArgs\") */\n      swap2\n      swap1\n      0xffffffff\n      and\n      jump\t// in\n    tag_204:\n        /* \"@chainlink/contracts/src/v0.8/functions/v1_0_0/libraries/FunctionsRequest.sol\":3228:3247  buffer.startArray() */\n      tag_205\n        /* \"@chainlink/contracts/src/v0.8/functions/v1_0_0/libraries/FunctionsRequest.sol\":3228:3234  buffer */\n      dup2\n        /* \"@chainlink/contracts/src/v0.8/functions/v1_0_0/libraries/FunctionsRequest.sol\":3228:3245  buffer.startArray */\n      tag_178\n        /* \"@chainlink/contracts/src/v0.8/functions/v1_0_0/libraries/FunctionsRequest.sol\":3228:3247  buffer.startArray() */\n      jump\t// in\n    tag_205:\n        /* \"@chainlink/contracts/src/v0.8/functions/v1_0_0/libraries/FunctionsRequest.sol\":3260:3269  uint256 i */\n      0x00\n        /* \"@chainlink/contracts/src/v0.8/functions/v1_0_0/libraries/FunctionsRequest.sol\":3255:3362  for (uint256 i = 0; i < self.bytesArgs.length; ++i) {... */\n    tag_206:\n        /* \"@chainlink/contracts/src/v0.8/functions/v1_0_0/libraries/FunctionsRequest.sol\":3279:3283  self */\n      dup4\n        /* \"@chainlink/contracts/src/v0.8/functions/v1_0_0/libraries/FunctionsRequest.sol\":3279:3293  self.bytesArgs */\n      0xc0\n      add\n      mload\n        /* \"@chainlink/contracts/src/v0.8/functions/v1_0_0/libraries/FunctionsRequest.sol\":3279:3300  self.bytesArgs.length */\n      mload\n        /* \"@chainlink/contracts/src/v0.8/functions/v1_0_0/libraries/FunctionsRequest.sol\":3275:3276  i */\n      dup2\n        /* \"@chainlink/contracts/src/v0.8/functions/v1_0_0/libraries/FunctionsRequest.sol\":3275:3300  i < self.bytesArgs.length */\n      lt\n        /* \"@chainlink/contracts/src/v0.8/functions/v1_0_0/libraries/FunctionsRequest.sol\":3255:3362  for (uint256 i = 0; i < self.bytesArgs.length; ++i) {... */\n      iszero\n      tag_207\n      jumpi\n        /* \"@chainlink/contracts/src/v0.8/functions/v1_0_0/libraries/FunctionsRequest.sol\":3317:3353  buffer.writeBytes(self.bytesArgs[i]) */\n      tag_209\n        /* \"@chainlink/contracts/src/v0.8/functions/v1_0_0/libraries/FunctionsRequest.sol\":3335:3339  self */\n      dup5\n        /* \"@chainlink/contracts/src/v0.8/functions/v1_0_0/libraries/FunctionsRequest.sol\":3335:3349  self.bytesArgs */\n      0xc0\n      add\n      mload\n        /* \"@chainlink/contracts/src/v0.8/functions/v1_0_0/libraries/FunctionsRequest.sol\":3350:3351  i */\n      dup3\n        /* \"@chainlink/contracts/src/v0.8/functions/v1_0_0/libraries/FunctionsRequest.sol\":3335:3352  self.bytesArgs[i] */\n      dup2\n      mload\n      dup2\n      lt\n      tag_210\n      jumpi\n      tag_211\n      tag_185\n      jump\t// in\n    tag_211:\n    tag_210:\n      0x20\n      mul\n      0x20\n      add\n      add\n      mload\n        /* \"@chainlink/contracts/src/v0.8/functions/v1_0_0/libraries/FunctionsRequest.sol\":3317:3323  buffer */\n      dup4\n        /* \"@chainlink/contracts/src/v0.8/functions/v1_0_0/libraries/FunctionsRequest.sol\":3317:3334  buffer.writeBytes */\n      tag_202\n      swap1\n        /* \"@chainlink/contracts/src/v0.8/functions/v1_0_0/libraries/FunctionsRequest.sol\":3317:3353  buffer.writeBytes(self.bytesArgs[i]) */\n      swap2\n      swap1\n      0xffffffff\n      and\n      jump\t// in\n    tag_209:\n        /* \"@chainlink/contracts/src/v0.8/functions/v1_0_0/libraries/FunctionsRequest.sol\":3302:3305  ++i */\n      dup1\n      tag_212\n      swap1\n      tag_187\n      jump\t// in\n    tag_212:\n      swap1\n      pop\n        /* \"@chainlink/contracts/src/v0.8/functions/v1_0_0/libraries/FunctionsRequest.sol\":3255:3362  for (uint256 i = 0; i < self.bytesArgs.length; ++i) {... */\n      jump(tag_206)\n    tag_207:\n      pop\n        /* \"@chainlink/contracts/src/v0.8/functions/v1_0_0/libraries/FunctionsRequest.sol\":3369:3389  buffer.endSequence() */\n      tag_213\n        /* \"@chainlink/contracts/src/v0.8/functions/v1_0_0/libraries/FunctionsRequest.sol\":3369:3375  buffer */\n      dup2\n        /* \"@chainlink/contracts/src/v0.8/functions/v1_0_0/libraries/FunctionsRequest.sol\":3369:3387  buffer.endSequence */\n      tag_189\n        /* \"@chainlink/contracts/src/v0.8/functions/v1_0_0/libraries/FunctionsRequest.sol\":3369:3389  buffer.endSequence() */\n      jump\t// in\n    tag_213:\n        /* \"@chainlink/contracts/src/v0.8/functions/v1_0_0/libraries/FunctionsRequest.sol\":3150:3396  if (self.bytesArgs.length > 0) {... */\n    tag_203:\n        /* \"@chainlink/contracts/src/v0.8/functions/v1_0_0/libraries/FunctionsRequest.sol\":3409:3415  buffer */\n      dup1\n        /* \"@chainlink/contracts/src/v0.8/functions/v1_0_0/libraries/FunctionsRequest.sol\":3409:3419  buffer.buf */\n      0x00\n      add\n      mload\n        /* \"@chainlink/contracts/src/v0.8/functions/v1_0_0/libraries/FunctionsRequest.sol\":3409:3423  buffer.buf.buf */\n      0x00\n      add\n      mload\n        /* \"@chainlink/contracts/src/v0.8/functions/v1_0_0/libraries/FunctionsRequest.sol\":3402:3423  return buffer.buf.buf */\n      swap2\n      pop\n      pop\n        /* \"@chainlink/contracts/src/v0.8/functions/v1_0_0/libraries/FunctionsRequest.sol\":2158:3428  function encodeCBOR(Request memory self) internal pure returns (bytes memory) {... */\n      swap2\n      swap1\n      pop\n      jump\t// out\n        /* \"@chainlink/contracts/src/v0.8/functions/v1_0_0/FunctionsClient.sol\":1158:1537  function _sendRequest(... */\n    tag_133:\n        /* \"@chainlink/contracts/src/v0.8/functions/v1_0_0/FunctionsClient.sol\":1300:1307  bytes32 */\n      0x00\n        /* \"@chainlink/contracts/src/v0.8/functions/v1_0_0/FunctionsClient.sol\":1315:1332  bytes32 requestId */\n      dup1\n        /* \"@chainlink/contracts/src/v0.8/functions/v1_0_0/FunctionsClient.sol\":1335:1343  i_router */\n      immutable(\"0x8e8fab5f003314da8d1873ea7720e8d9f47650136d916064d1edb8a11d682624\")\n        /* \"@chainlink/contracts/src/v0.8/functions/v1_0_0/FunctionsClient.sol\":1335:1355  i_router.sendRequest */\n      0xffffffffffffffffffffffffffffffffffffffff\n      and\n      0x461d2762\n        /* \"@chainlink/contracts/src/v0.8/functions/v1_0_0/FunctionsClient.sol\":1363:1377  subscriptionId */\n      dup7\n        /* \"@chainlink/contracts/src/v0.8/functions/v1_0_0/FunctionsClient.sol\":1385:1389  data */\n      dup9\n        /* \"@chainlink/contracts/src/v0.8/functions/v1_0_0/libraries/FunctionsRequest.sol\":322:323  1 */\n      0x01\n        /* \"@chainlink/contracts/src/v0.8/functions/v1_0_0/FunctionsClient.sol\":1442:1458  callbackGasLimit */\n      dup9\n        /* \"@chainlink/contracts/src/v0.8/functions/v1_0_0/FunctionsClient.sol\":1466:1471  donId */\n      dup9\n        /* \"@chainlink/contracts/src/v0.8/functions/v1_0_0/FunctionsClient.sol\":1335:1477  i_router.sendRequest(... */\n      mload(0x40)\n      dup7\n      0xffffffff\n      and\n      0xe0\n      shl\n      dup2\n      mstore\n      0x04\n      add\n      tag_215\n      swap6\n      swap5\n      swap4\n      swap3\n      swap2\n      swap1\n      tag_216\n      jump\t// in\n    tag_215:\n      0x20\n      mload(0x40)\n      dup1\n      dup4\n      sub\n      dup2\n      0x00\n      dup8\n      gas\n      call\n      iszero\n      dup1\n      iszero\n      tag_218\n      jumpi\n      returndatasize\n      0x00\n      dup1\n      returndatacopy\n      revert(0x00, returndatasize)\n    tag_218:\n      pop\n      pop\n      pop\n      pop\n      mload(0x40)\n      returndatasize\n      not(0x1f)\n      0x1f\n      dup3\n      add\n      and\n      dup3\n      add\n      dup1\n      0x40\n      mstore\n      pop\n      dup2\n      add\n      swap1\n      tag_219\n      swap2\n      swap1\n      tag_220\n      jump\t// in\n    tag_219:\n        /* \"@chainlink/contracts/src/v0.8/functions/v1_0_0/FunctionsClient.sol\":1315:1477  bytes32 requestId = i_router.sendRequest(... */\n      swap1\n      pop\n        /* \"@chainlink/contracts/src/v0.8/functions/v1_0_0/FunctionsClient.sol\":1500:1509  requestId */\n      dup1\n        /* \"@chainlink/contracts/src/v0.8/functions/v1_0_0/FunctionsClient.sol\":1488:1510  RequestSent(requestId) */\n      0x1131472297a800fee664d1d89cfa8f7676ff07189ecc53f80bbb5f4969099db8\n      mload(0x40)\n      mload(0x40)\n      dup1\n      swap2\n      sub\n      swap1\n      log2\n        /* \"@chainlink/contracts/src/v0.8/functions/v1_0_0/FunctionsClient.sol\":1523:1532  requestId */\n      dup1\n        /* \"@chainlink/contracts/src/v0.8/functions/v1_0_0/FunctionsClient.sol\":1516:1532  return requestId */\n      swap2\n      pop\n      pop\n        /* \"@chainlink/contracts/src/v0.8/functions/v1_0_0/FunctionsClient.sol\":1158:1537  function _sendRequest(... */\n      swap5\n      swap4\n      pop\n      pop\n      pop\n      pop\n      jump\t// out\n        /* \"@chainlink/contracts/src/v0.8/shared/access/ConfirmedOwnerWithProposal.sol\":1536:1775  function _transferOwnership(address to) private {... */\n    tag_143:\n        /* \"@chainlink/contracts/src/v0.8/shared/access/ConfirmedOwnerWithProposal.sol\":1655:1665  msg.sender */\n      caller\n        /* \"@chainlink/contracts/src/v0.8/shared/access/ConfirmedOwnerWithProposal.sol\":1649:1665  to != msg.sender */\n      0xffffffffffffffffffffffffffffffffffffffff\n      and\n        /* \"@chainlink/contracts/src/v0.8/shared/access/ConfirmedOwnerWithProposal.sol\":1649:1651  to */\n      dup2\n        /* \"@chainlink/contracts/src/v0.8/shared/access/ConfirmedOwnerWithProposal.sol\":1649:1665  to != msg.sender */\n      0xffffffffffffffffffffffffffffffffffffffff\n      and\n      sub\n        /* \"@chainlink/contracts/src/v0.8/shared/access/ConfirmedOwnerWithProposal.sol\":1641:1693  require(to != msg.sender, \"Cannot transfer to self\") */\n      tag_222\n      jumpi\n      mload(0x40)\n      0x08c379a000000000000000000000000000000000000000000000000000000000\n      dup2\n      mstore\n      0x04\n      add\n      tag_223\n      swap1\n      tag_224\n      jump\t// in\n    tag_223:\n      mload(0x40)\n      dup1\n      swap2\n      sub\n      swap1\n      revert\n    tag_222:\n        /* \"@chainlink/contracts/src/v0.8/shared/access/ConfirmedOwnerWithProposal.sol\":1717:1719  to */\n      dup1\n        /* \"@chainlink/contracts/src/v0.8/shared/access/ConfirmedOwnerWithProposal.sol\":1700:1714  s_pendingOwner */\n      0x01\n      0x00\n        /* \"@chainlink/contracts/src/v0.8/shared/access/ConfirmedOwnerWithProposal.sol\":1700:1719  s_pendingOwner = to */\n      0x0100\n      exp\n      dup2\n      sload\n      dup2\n      0xffffffffffffffffffffffffffffffffffffffff\n      mul\n      not\n      and\n      swap1\n      dup4\n      0xffffffffffffffffffffffffffffffffffffffff\n      and\n      mul\n      or\n      swap1\n      sstore\n      pop\n        /* \"@chainlink/contracts/src/v0.8/shared/access/ConfirmedOwnerWithProposal.sol\":1767:1769  to */\n      dup1\n        /* \"@chainlink/contracts/src/v0.8/shared/access/ConfirmedOwnerWithProposal.sol\":1731:1770  OwnershipTransferRequested(s_owner, to) */\n      0xffffffffffffffffffffffffffffffffffffffff\n      and\n        /* \"@chainlink/contracts/src/v0.8/shared/access/ConfirmedOwnerWithProposal.sol\":1758:1765  s_owner */\n      0x00\n      dup1\n      sload\n      swap1\n      0x0100\n      exp\n      swap1\n      div\n      0xffffffffffffffffffffffffffffffffffffffff\n      and\n        /* \"@chainlink/contracts/src/v0.8/shared/access/ConfirmedOwnerWithProposal.sol\":1731:1770  OwnershipTransferRequested(s_owner, to) */\n      0xffffffffffffffffffffffffffffffffffffffff\n      and\n      0xed8889f560326eb138920d842192f0eb3dd22b4f139c87a2c57538e05bae1278\n      mload(0x40)\n      mload(0x40)\n      dup1\n      swap2\n      sub\n      swap1\n      log3\n        /* \"@chainlink/contracts/src/v0.8/shared/access/ConfirmedOwnerWithProposal.sol\":1536:1775  function _transferOwnership(address to) private {... */\n      pop\n      jump\t// out\n        /* \"@chainlink/contracts/src/v0.8/functions/v1_0_0/libraries/FunctionsRequest.sol\":3777:4084  function initializeRequest(... */\n    tag_158:\n        /* \"@chainlink/contracts/src/v0.8/functions/v1_0_0/libraries/FunctionsRequest.sol\":3961:3962  0 */\n      0x00\n        /* \"@chainlink/contracts/src/v0.8/functions/v1_0_0/libraries/FunctionsRequest.sol\":3943:3949  source */\n      dup2\n        /* \"@chainlink/contracts/src/v0.8/functions/v1_0_0/libraries/FunctionsRequest.sol\":3937:3957  bytes(source).length */\n      mload\n        /* \"@chainlink/contracts/src/v0.8/functions/v1_0_0/libraries/FunctionsRequest.sol\":3937:3962  bytes(source).length == 0 */\n      sub\n        /* \"@chainlink/contracts/src/v0.8/functions/v1_0_0/libraries/FunctionsRequest.sol\":3933:3984  if (bytes(source).length == 0) revert EmptySource() */\n      tag_226\n      jumpi\n        /* \"@chainlink/contracts/src/v0.8/functions/v1_0_0/libraries/FunctionsRequest.sol\":3971:3984  EmptySource() */\n      mload(0x40)\n      0x22ce3edd00000000000000000000000000000000000000000000000000000000\n      dup2\n      mstore\n      0x04\n      add\n      mload(0x40)\n      dup1\n      swap2\n      sub\n      swap1\n      revert\n        /* \"@chainlink/contracts/src/v0.8/functions/v1_0_0/libraries/FunctionsRequest.sol\":3933:3984  if (bytes(source).length == 0) revert EmptySource() */\n    tag_226:\n        /* \"@chainlink/contracts/src/v0.8/functions/v1_0_0/libraries/FunctionsRequest.sol\":4011:4023  codeLocation */\n      dup3\n        /* \"@chainlink/contracts/src/v0.8/functions/v1_0_0/libraries/FunctionsRequest.sol\":3991:3995  self */\n      dup5\n        /* \"@chainlink/contracts/src/v0.8/functions/v1_0_0/libraries/FunctionsRequest.sol\":3991:4008  self.codeLocation */\n      0x00\n      add\n        /* \"@chainlink/contracts/src/v0.8/functions/v1_0_0/libraries/FunctionsRequest.sol\":3991:4023  self.codeLocation = codeLocation */\n      swap1\n      0x02\n      dup2\n      gt\n      iszero\n      tag_227\n      jumpi\n      tag_228\n      tag_167\n      jump\t// in\n    tag_228:\n    tag_227:\n      swap1\n      dup2\n      0x02\n      dup2\n      gt\n      iszero\n      tag_229\n      jumpi\n      tag_230\n      tag_167\n      jump\t// in\n    tag_230:\n    tag_229:\n      dup2\n      mstore\n      pop\n      pop\n        /* \"@chainlink/contracts/src/v0.8/functions/v1_0_0/libraries/FunctionsRequest.sol\":4045:4053  language */\n      dup2\n        /* \"@chainlink/contracts/src/v0.8/functions/v1_0_0/libraries/FunctionsRequest.sol\":4029:4033  self */\n      dup5\n        /* \"@chainlink/contracts/src/v0.8/functions/v1_0_0/libraries/FunctionsRequest.sol\":4029:4042  self.language */\n      0x40\n      add\n        /* \"@chainlink/contracts/src/v0.8/functions/v1_0_0/libraries/FunctionsRequest.sol\":4029:4053  self.language = language */\n      swap1\n      0x00\n      dup2\n      gt\n      iszero\n      tag_231\n      jumpi\n      tag_232\n      tag_167\n      jump\t// in\n    tag_232:\n    tag_231:\n      swap1\n      dup2\n      0x00\n      dup2\n      gt\n      iszero\n      tag_233\n      jumpi\n      tag_234\n      tag_167\n      jump\t// in\n    tag_234:\n    tag_233:\n      dup2\n      mstore\n      pop\n      pop\n        /* \"@chainlink/contracts/src/v0.8/functions/v1_0_0/libraries/FunctionsRequest.sol\":4073:4079  source */\n      dup1\n        /* \"@chainlink/contracts/src/v0.8/functions/v1_0_0/libraries/FunctionsRequest.sol\":4059:4063  self */\n      dup5\n        /* \"@chainlink/contracts/src/v0.8/functions/v1_0_0/libraries/FunctionsRequest.sol\":4059:4070  self.source */\n      0x60\n      add\n        /* \"@chainlink/contracts/src/v0.8/functions/v1_0_0/libraries/FunctionsRequest.sol\":4059:4079  self.source = source */\n      dup2\n      swap1\n      mstore\n      pop\n        /* \"@chainlink/contracts/src/v0.8/functions/v1_0_0/libraries/FunctionsRequest.sol\":3777:4084  function initializeRequest(... */\n      pop\n      pop\n      pop\n      pop\n      jump\t// out\n        /* \"@chainlink/contracts/src/v0.8/vendor/solidity-cborutils/v2.0.0/CBOR.sol\":1490:1663  function create(uint256 capacity) internal pure returns(CBORBuffer memory cbor) {... */\n    tag_161:\n        /* \"@chainlink/contracts/src/v0.8/vendor/solidity-cborutils/v2.0.0/CBOR.sol\":1546:1568  CBORBuffer memory cbor */\n      tag_235\n      tag_236\n      jump\t// in\n    tag_235:\n        /* \"@chainlink/contracts/src/v0.8/vendor/solidity-cborutils/v2.0.0/CBOR.sol\":1580:1611  Buffer.init(cbor.buf, capacity) */\n      tag_238\n        /* \"@chainlink/contracts/src/v0.8/vendor/solidity-cborutils/v2.0.0/CBOR.sol\":1592:1596  cbor */\n      dup2\n        /* \"@chainlink/contracts/src/v0.8/vendor/solidity-cborutils/v2.0.0/CBOR.sol\":1592:1600  cbor.buf */\n      0x00\n      add\n      mload\n        /* \"@chainlink/contracts/src/v0.8/vendor/solidity-cborutils/v2.0.0/CBOR.sol\":1602:1610  capacity */\n      dup4\n        /* \"@chainlink/contracts/src/v0.8/vendor/solidity-cborutils/v2.0.0/CBOR.sol\":1580:1591  Buffer.init */\n      tag_239\n        /* \"@chainlink/contracts/src/v0.8/vendor/solidity-cborutils/v2.0.0/CBOR.sol\":1580:1611  Buffer.init(cbor.buf, capacity) */\n      jump\t// in\n    tag_238:\n      pop\n        /* \"@chainlink/contracts/src/v0.8/vendor/solidity-cborutils/v2.0.0/CBOR.sol\":1634:1635  0 */\n      0x00\n        /* \"@chainlink/contracts/src/v0.8/vendor/solidity-cborutils/v2.0.0/CBOR.sol\":1621:1625  cbor */\n      dup2\n        /* \"@chainlink/contracts/src/v0.8/vendor/solidity-cborutils/v2.0.0/CBOR.sol\":1621:1631  cbor.depth */\n      0x20\n      add\n        /* \"@chainlink/contracts/src/v0.8/vendor/solidity-cborutils/v2.0.0/CBOR.sol\":1621:1635  cbor.depth = 0 */\n      dup2\n      dup2\n      mstore\n      pop\n      pop\n        /* \"@chainlink/contracts/src/v0.8/vendor/solidity-cborutils/v2.0.0/CBOR.sol\":1490:1663  function create(uint256 capacity) internal pure returns(CBORBuffer memory cbor) {... */\n      swap2\n      swap1\n      pop\n      jump\t// out\n        /* \"@chainlink/contracts/src/v0.8/vendor/solidity-cborutils/v2.0.0/CBOR.sol\":3021:3225  function writeString(CBORBuffer memory buf, string memory value) internal pure {... */\n    tag_163:\n        /* \"@chainlink/contracts/src/v0.8/vendor/solidity-cborutils/v2.0.0/CBOR.sol\":3110:3180  writeFixedNumeric(buf, MAJOR_TYPE_STRING, uint64(bytes(value).length)) */\n      tag_241\n        /* \"@chainlink/contracts/src/v0.8/vendor/solidity-cborutils/v2.0.0/CBOR.sol\":3128:3131  buf */\n      dup3\n        /* \"@chainlink/contracts/src/v0.8/vendor/solidity-cborutils/v2.0.0/CBOR.sol\":998:999  3 */\n      0x03\n        /* \"@chainlink/contracts/src/v0.8/vendor/solidity-cborutils/v2.0.0/CBOR.sol\":3165:3170  value */\n      dup4\n        /* \"@chainlink/contracts/src/v0.8/vendor/solidity-cborutils/v2.0.0/CBOR.sol\":3159:3178  bytes(value).length */\n      mload\n        /* \"@chainlink/contracts/src/v0.8/vendor/solidity-cborutils/v2.0.0/CBOR.sol\":3110:3127  writeFixedNumeric */\n      tag_242\n        /* \"@chainlink/contracts/src/v0.8/vendor/solidity-cborutils/v2.0.0/CBOR.sol\":3110:3180  writeFixedNumeric(buf, MAJOR_TYPE_STRING, uint64(bytes(value).length)) */\n      jump\t// in\n    tag_241:\n        /* \"@chainlink/contracts/src/v0.8/vendor/solidity-cborutils/v2.0.0/CBOR.sol\":3190:3218  buf.buf.append(bytes(value)) */\n      tag_243\n        /* \"@chainlink/contracts/src/v0.8/vendor/solidity-cborutils/v2.0.0/CBOR.sol\":3211:3216  value */\n      dup2\n        /* \"@chainlink/contracts/src/v0.8/vendor/solidity-cborutils/v2.0.0/CBOR.sol\":3190:3193  buf */\n      dup4\n        /* \"@chainlink/contracts/src/v0.8/vendor/solidity-cborutils/v2.0.0/CBOR.sol\":3190:3197  buf.buf */\n      0x00\n      add\n      mload\n        /* \"@chainlink/contracts/src/v0.8/vendor/solidity-cborutils/v2.0.0/CBOR.sol\":3190:3204  buf.buf.append */\n      tag_244\n      swap1\n        /* \"@chainlink/contracts/src/v0.8/vendor/solidity-cborutils/v2.0.0/CBOR.sol\":3190:3218  buf.buf.append(bytes(value)) */\n      swap2\n      swap1\n      0xffffffff\n      and\n      jump\t// in\n    tag_243:\n      pop\n        /* \"@chainlink/contracts/src/v0.8/vendor/solidity-cborutils/v2.0.0/CBOR.sol\":3021:3225  function writeString(CBORBuffer memory buf, string memory value) internal pure {... */\n      pop\n      pop\n      jump\t// out\n        /* \"@chainlink/contracts/src/v0.8/vendor/solidity-cborutils/v2.0.0/CBOR.sol\":1832:2034  function writeUInt256(CBORBuffer memory buf, uint256 value) internal pure {... */\n    tag_168:\n        /* \"@chainlink/contracts/src/v0.8/vendor/solidity-cborutils/v2.0.0/CBOR.sol\":1916:1983  buf.buf.appendUint8(uint8((MAJOR_TYPE_TAG << 5) | TAG_TYPE_BIGNUM)) */\n      tag_246\n        /* \"@chainlink/contracts/src/v0.8/vendor/solidity-cborutils/v2.0.0/CBOR.sol\":1246:1247  2 */\n      0x02\n        /* \"@chainlink/contracts/src/v0.8/vendor/solidity-cborutils/v2.0.0/CBOR.sol\":1961:1962  5 */\n      0x05\n        /* \"@chainlink/contracts/src/v0.8/vendor/solidity-cborutils/v2.0.0/CBOR.sol\":1141:1142  6 */\n      0x06\n        /* \"@chainlink/contracts/src/v0.8/vendor/solidity-cborutils/v2.0.0/CBOR.sol\":1943:1962  MAJOR_TYPE_TAG << 5 */\n      0xff\n      and\n      swap1\n      shl\n        /* \"@chainlink/contracts/src/v0.8/vendor/solidity-cborutils/v2.0.0/CBOR.sol\":1942:1981  (MAJOR_TYPE_TAG << 5) | TAG_TYPE_BIGNUM */\n      or\n        /* \"@chainlink/contracts/src/v0.8/vendor/solidity-cborutils/v2.0.0/CBOR.sol\":1916:1919  buf */\n      dup4\n        /* \"@chainlink/contracts/src/v0.8/vendor/solidity-cborutils/v2.0.0/CBOR.sol\":1916:1923  buf.buf */\n      0x00\n      add\n      mload\n        /* \"@chainlink/contracts/src/v0.8/vendor/solidity-cborutils/v2.0.0/CBOR.sol\":1916:1935  buf.buf.appendUint8 */\n      tag_247\n      swap1\n        /* \"@chainlink/contracts/src/v0.8/vendor/solidity-cborutils/v2.0.0/CBOR.sol\":1916:1983  buf.buf.appendUint8(uint8((MAJOR_TYPE_TAG << 5) | TAG_TYPE_BIGNUM)) */\n      swap2\n      swap1\n      0xffffffff\n      and\n      jump\t// in\n    tag_246:\n      pop\n        /* \"@chainlink/contracts/src/v0.8/vendor/solidity-cborutils/v2.0.0/CBOR.sol\":1993:2027  writeBytes(buf, abi.encode(value)) */\n      tag_248\n        /* \"@chainlink/contracts/src/v0.8/vendor/solidity-cborutils/v2.0.0/CBOR.sol\":2004:2007  buf */\n      dup3\n        /* \"@chainlink/contracts/src/v0.8/vendor/solidity-cborutils/v2.0.0/CBOR.sol\":2020:2025  value */\n      dup3\n        /* \"@chainlink/contracts/src/v0.8/vendor/solidity-cborutils/v2.0.0/CBOR.sol\":2009:2026  abi.encode(value) */\n      add(0x20, mload(0x40))\n      tag_249\n      swap2\n      swap1\n      tag_57\n      jump\t// in\n    tag_249:\n      mload(0x40)\n      0x20\n      dup2\n      dup4\n      sub\n      sub\n      dup2\n      mstore\n      swap1\n      0x40\n      mstore\n        /* \"@chainlink/contracts/src/v0.8/vendor/solidity-cborutils/v2.0.0/CBOR.sol\":1993:2003  writeBytes */\n      tag_202\n        /* \"@chainlink/contracts/src/v0.8/vendor/solidity-cborutils/v2.0.0/CBOR.sol\":1993:2027  writeBytes(buf, abi.encode(value)) */\n      jump\t// in\n    tag_248:\n        /* \"@chainlink/contracts/src/v0.8/vendor/solidity-cborutils/v2.0.0/CBOR.sol\":1832:2034  function writeUInt256(CBORBuffer memory buf, uint256 value) internal pure {... */\n      pop\n      pop\n      jump\t// out\n        /* \"@chainlink/contracts/src/v0.8/vendor/solidity-cborutils/v2.0.0/CBOR.sol\":3607:3753  function startArray(CBORBuffer memory buf) internal pure {... */\n    tag_178:\n        /* \"@chainlink/contracts/src/v0.8/vendor/solidity-cborutils/v2.0.0/CBOR.sol\":3674:3722  writeIndefiniteLengthType(buf, MAJOR_TYPE_ARRAY) */\n      tag_251\n        /* \"@chainlink/contracts/src/v0.8/vendor/solidity-cborutils/v2.0.0/CBOR.sol\":3700:3703  buf */\n      dup2\n        /* \"@chainlink/contracts/src/v0.8/vendor/solidity-cborutils/v2.0.0/CBOR.sol\":1047:1048  4 */\n      0x04\n        /* \"@chainlink/contracts/src/v0.8/vendor/solidity-cborutils/v2.0.0/CBOR.sol\":3674:3699  writeIndefiniteLengthType */\n      tag_252\n        /* \"@chainlink/contracts/src/v0.8/vendor/solidity-cborutils/v2.0.0/CBOR.sol\":3674:3722  writeIndefiniteLengthType(buf, MAJOR_TYPE_ARRAY) */\n      jump\t// in\n    tag_251:\n        /* \"@chainlink/contracts/src/v0.8/vendor/solidity-cborutils/v2.0.0/CBOR.sol\":3745:3746  1 */\n      0x01\n        /* \"@chainlink/contracts/src/v0.8/vendor/solidity-cborutils/v2.0.0/CBOR.sol\":3732:3735  buf */\n      dup2\n        /* \"@chainlink/contracts/src/v0.8/vendor/solidity-cborutils/v2.0.0/CBOR.sol\":3732:3741  buf.depth */\n      0x20\n      add\n        /* \"@chainlink/contracts/src/v0.8/vendor/solidity-cborutils/v2.0.0/CBOR.sol\":3732:3746  buf.depth += 1 */\n      dup2\n      dup2\n      mload\n      tag_253\n      swap2\n      swap1\n      tag_254\n      jump\t// in\n    tag_253:\n      swap2\n      pop\n      dup2\n      dup2\n      mstore\n      pop\n      pop\n        /* \"@chainlink/contracts/src/v0.8/vendor/solidity-cborutils/v2.0.0/CBOR.sol\":3607:3753  function startArray(CBORBuffer memory buf) internal pure {... */\n      pop\n      jump\t// out\n        /* \"@chainlink/contracts/src/v0.8/vendor/solidity-cborutils/v2.0.0/CBOR.sol\":4211:4365  function endSequence(CBORBuffer memory buf) internal pure {... */\n    tag_189:\n        /* \"@chainlink/contracts/src/v0.8/vendor/solidity-cborutils/v2.0.0/CBOR.sol\":4279:4334  writeIndefiniteLengthType(buf, MAJOR_TYPE_CONTENT_FREE) */\n      tag_256\n        /* \"@chainlink/contracts/src/v0.8/vendor/solidity-cborutils/v2.0.0/CBOR.sol\":4305:4308  buf */\n      dup2\n        /* \"@chainlink/contracts/src/v0.8/vendor/solidity-cborutils/v2.0.0/CBOR.sol\":1197:1198  7 */\n      0x07\n        /* \"@chainlink/contracts/src/v0.8/vendor/solidity-cborutils/v2.0.0/CBOR.sol\":4279:4304  writeIndefiniteLengthType */\n      tag_252\n        /* \"@chainlink/contracts/src/v0.8/vendor/solidity-cborutils/v2.0.0/CBOR.sol\":4279:4334  writeIndefiniteLengthType(buf, MAJOR_TYPE_CONTENT_FREE) */\n      jump\t// in\n    tag_256:\n        /* \"@chainlink/contracts/src/v0.8/vendor/solidity-cborutils/v2.0.0/CBOR.sol\":4357:4358  1 */\n      0x01\n        /* \"@chainlink/contracts/src/v0.8/vendor/solidity-cborutils/v2.0.0/CBOR.sol\":4344:4347  buf */\n      dup2\n        /* \"@chainlink/contracts/src/v0.8/vendor/solidity-cborutils/v2.0.0/CBOR.sol\":4344:4353  buf.depth */\n      0x20\n      add\n        /* \"@chainlink/contracts/src/v0.8/vendor/solidity-cborutils/v2.0.0/CBOR.sol\":4344:4358  buf.depth -= 1 */\n      dup2\n      dup2\n      mload\n      tag_257\n      swap2\n      swap1\n      tag_109\n      jump\t// in\n    tag_257:\n      swap2\n      pop\n      dup2\n      dup2\n      mstore\n      pop\n      pop\n        /* \"@chainlink/contracts/src/v0.8/vendor/solidity-cborutils/v2.0.0/CBOR.sol\":4211:4365  function endSequence(CBORBuffer memory buf) internal pure {... */\n      pop\n      jump\t// out\n        /* \"@chainlink/contracts/src/v0.8/vendor/solidity-cborutils/v2.0.0/CBOR.sol\":2828:3015  function writeBytes(CBORBuffer memory buf, bytes memory value) internal pure {... */\n    tag_202:\n        /* \"@chainlink/contracts/src/v0.8/vendor/solidity-cborutils/v2.0.0/CBOR.sol\":2915:2977  writeFixedNumeric(buf, MAJOR_TYPE_BYTES, uint64(value.length)) */\n      tag_259\n        /* \"@chainlink/contracts/src/v0.8/vendor/solidity-cborutils/v2.0.0/CBOR.sol\":2933:2936  buf */\n      dup3\n        /* \"@chainlink/contracts/src/v0.8/vendor/solidity-cborutils/v2.0.0/CBOR.sol\":948:949  2 */\n      0x02\n        /* \"@chainlink/contracts/src/v0.8/vendor/solidity-cborutils/v2.0.0/CBOR.sol\":2963:2968  value */\n      dup4\n        /* \"@chainlink/contracts/src/v0.8/vendor/solidity-cborutils/v2.0.0/CBOR.sol\":2963:2975  value.length */\n      mload\n        /* \"@chainlink/contracts/src/v0.8/vendor/solidity-cborutils/v2.0.0/CBOR.sol\":2915:2932  writeFixedNumeric */\n      tag_242\n        /* \"@chainlink/contracts/src/v0.8/vendor/solidity-cborutils/v2.0.0/CBOR.sol\":2915:2977  writeFixedNumeric(buf, MAJOR_TYPE_BYTES, uint64(value.length)) */\n      jump\t// in\n    tag_259:\n        /* \"@chainlink/contracts/src/v0.8/vendor/solidity-cborutils/v2.0.0/CBOR.sol\":2987:3008  buf.buf.append(value) */\n      tag_260\n        /* \"@chainlink/contracts/src/v0.8/vendor/solidity-cborutils/v2.0.0/CBOR.sol\":3002:3007  value */\n      dup2\n        /* \"@chainlink/contracts/src/v0.8/vendor/solidity-cborutils/v2.0.0/CBOR.sol\":2987:2990  buf */\n      dup4\n        /* \"@chainlink/contracts/src/v0.8/vendor/solidity-cborutils/v2.0.0/CBOR.sol\":2987:2994  buf.buf */\n      0x00\n      add\n      mload\n        /* \"@chainlink/contracts/src/v0.8/vendor/solidity-cborutils/v2.0.0/CBOR.sol\":2987:3001  buf.buf.append */\n      tag_244\n      swap1\n        /* \"@chainlink/contracts/src/v0.8/vendor/solidity-cborutils/v2.0.0/CBOR.sol\":2987:3008  buf.buf.append(value) */\n      swap2\n      swap1\n      0xffffffff\n      and\n      jump\t// in\n    tag_260:\n      pop\n        /* \"@chainlink/contracts/src/v0.8/vendor/solidity-cborutils/v2.0.0/CBOR.sol\":2828:3015  function writeBytes(CBORBuffer memory buf, bytes memory value) internal pure {... */\n      pop\n      pop\n      jump\t// out\n        /* \"@chainlink/contracts/src/v0.8/vendor/@ensdomains/buffer/v0.1.0/Buffer.sol\":1020:1575  function init(buffer memory buf, uint capacity) internal pure returns(buffer memory) {... */\n    tag_239:\n        /* \"@chainlink/contracts/src/v0.8/vendor/@ensdomains/buffer/v0.1.0/Buffer.sol\":1090:1103  buffer memory */\n      tag_261\n      tag_262\n      jump\t// in\n    tag_261:\n        /* \"@chainlink/contracts/src/v0.8/vendor/@ensdomains/buffer/v0.1.0/Buffer.sol\":1136:1137  0 */\n      0x00\n        /* \"@chainlink/contracts/src/v0.8/vendor/@ensdomains/buffer/v0.1.0/Buffer.sol\":1130:1132  32 */\n      0x20\n        /* \"@chainlink/contracts/src/v0.8/vendor/@ensdomains/buffer/v0.1.0/Buffer.sol\":1119:1127  capacity */\n      dup4\n        /* \"@chainlink/contracts/src/v0.8/vendor/@ensdomains/buffer/v0.1.0/Buffer.sol\":1119:1132  capacity % 32 */\n      tag_264\n      swap2\n      swap1\n      tag_265\n      jump\t// in\n    tag_264:\n        /* \"@chainlink/contracts/src/v0.8/vendor/@ensdomains/buffer/v0.1.0/Buffer.sol\":1119:1137  capacity % 32 != 0 */\n      eq\n        /* \"@chainlink/contracts/src/v0.8/vendor/@ensdomains/buffer/v0.1.0/Buffer.sol\":1115:1196  if (capacity % 32 != 0) {... */\n      tag_266\n      jumpi\n        /* \"@chainlink/contracts/src/v0.8/vendor/@ensdomains/buffer/v0.1.0/Buffer.sol\":1182:1184  32 */\n      0x20\n        /* \"@chainlink/contracts/src/v0.8/vendor/@ensdomains/buffer/v0.1.0/Buffer.sol\":1171:1179  capacity */\n      dup3\n        /* \"@chainlink/contracts/src/v0.8/vendor/@ensdomains/buffer/v0.1.0/Buffer.sol\":1171:1184  capacity % 32 */\n      tag_267\n      swap2\n      swap1\n      tag_265\n      jump\t// in\n    tag_267:\n        /* \"@chainlink/contracts/src/v0.8/vendor/@ensdomains/buffer/v0.1.0/Buffer.sol\":1165:1167  32 */\n      0x20\n        /* \"@chainlink/contracts/src/v0.8/vendor/@ensdomains/buffer/v0.1.0/Buffer.sol\":1165:1185  32 - (capacity % 32) */\n      tag_268\n      swap2\n      swap1\n      tag_109\n      jump\t// in\n    tag_268:\n        /* \"@chainlink/contracts/src/v0.8/vendor/@ensdomains/buffer/v0.1.0/Buffer.sol\":1153:1185  capacity += 32 - (capacity % 32) */\n      dup3\n      tag_269\n      swap2\n      swap1\n      tag_254\n      jump\t// in\n    tag_269:\n      swap2\n      pop\n        /* \"@chainlink/contracts/src/v0.8/vendor/@ensdomains/buffer/v0.1.0/Buffer.sol\":1115:1196  if (capacity % 32 != 0) {... */\n    tag_266:\n        /* \"@chainlink/contracts/src/v0.8/vendor/@ensdomains/buffer/v0.1.0/Buffer.sol\":1266:1274  capacity */\n      dup2\n        /* \"@chainlink/contracts/src/v0.8/vendor/@ensdomains/buffer/v0.1.0/Buffer.sol\":1251:1254  buf */\n      dup4\n        /* \"@chainlink/contracts/src/v0.8/vendor/@ensdomains/buffer/v0.1.0/Buffer.sol\":1251:1263  buf.capacity */\n      0x20\n      add\n        /* \"@chainlink/contracts/src/v0.8/vendor/@ensdomains/buffer/v0.1.0/Buffer.sol\":1251:1274  buf.capacity = capacity */\n      dup2\n      dup2\n      mstore\n      pop\n      pop\n        /* \"@chainlink/contracts/src/v0.8/vendor/@ensdomains/buffer/v0.1.0/Buffer.sol\":1324:1328  0x40 */\n      0x40\n        /* \"@chainlink/contracts/src/v0.8/vendor/@ensdomains/buffer/v0.1.0/Buffer.sol\":1318:1329  mload(0x40) */\n      mload\n        /* \"@chainlink/contracts/src/v0.8/vendor/@ensdomains/buffer/v0.1.0/Buffer.sol\":1354:1357  ptr */\n      dup1\n        /* \"@chainlink/contracts/src/v0.8/vendor/@ensdomains/buffer/v0.1.0/Buffer.sol\":1349:1352  buf */\n      dup5\n        /* \"@chainlink/contracts/src/v0.8/vendor/@ensdomains/buffer/v0.1.0/Buffer.sol\":1342:1358  mstore(buf, ptr) */\n      mstore\n        /* \"@chainlink/contracts/src/v0.8/vendor/@ensdomains/buffer/v0.1.0/Buffer.sol\":1383:1384  0 */\n      0x00\n        /* \"@chainlink/contracts/src/v0.8/vendor/@ensdomains/buffer/v0.1.0/Buffer.sol\":1378:1381  ptr */\n      dup2\n        /* \"@chainlink/contracts/src/v0.8/vendor/@ensdomains/buffer/v0.1.0/Buffer.sol\":1371:1385  mstore(ptr, 0) */\n      mstore\n        /* \"@chainlink/contracts/src/v0.8/vendor/@ensdomains/buffer/v0.1.0/Buffer.sol\":1426:1434  capacity */\n      dup3\n        /* \"@chainlink/contracts/src/v0.8/vendor/@ensdomains/buffer/v0.1.0/Buffer.sol\":1421:1424  ptr */\n      dup2\n        /* \"@chainlink/contracts/src/v0.8/vendor/@ensdomains/buffer/v0.1.0/Buffer.sol\":1417:1435  add(ptr, capacity) */\n      add\n        /* \"@chainlink/contracts/src/v0.8/vendor/@ensdomains/buffer/v0.1.0/Buffer.sol\":1413:1415  32 */\n      0x20\n        /* \"@chainlink/contracts/src/v0.8/vendor/@ensdomains/buffer/v0.1.0/Buffer.sol\":1409:1436  add(32, add(ptr, capacity)) */\n      add\n        /* \"@chainlink/contracts/src/v0.8/vendor/@ensdomains/buffer/v0.1.0/Buffer.sol\":1460:1463  ptr */\n      dup2\n        /* \"@chainlink/contracts/src/v0.8/vendor/@ensdomains/buffer/v0.1.0/Buffer.sol\":1455:1458  fpm */\n      dup2\n        /* \"@chainlink/contracts/src/v0.8/vendor/@ensdomains/buffer/v0.1.0/Buffer.sol\":1452:1464  lt(fpm, ptr) */\n      lt\n        /* \"@chainlink/contracts/src/v0.8/vendor/@ensdomains/buffer/v0.1.0/Buffer.sol\":1449:1509  if lt(fpm, ptr) {... */\n      iszero\n      tag_270\n      jumpi\n        /* \"@chainlink/contracts/src/v0.8/vendor/@ensdomains/buffer/v0.1.0/Buffer.sol\":1493:1494  0 */\n      0x00\n        /* \"@chainlink/contracts/src/v0.8/vendor/@ensdomains/buffer/v0.1.0/Buffer.sol\":1490:1491  0 */\n      dup1\n        /* \"@chainlink/contracts/src/v0.8/vendor/@ensdomains/buffer/v0.1.0/Buffer.sol\":1483:1495  revert(0, 0) */\n      revert\n        /* \"@chainlink/contracts/src/v0.8/vendor/@ensdomains/buffer/v0.1.0/Buffer.sol\":1449:1509  if lt(fpm, ptr) {... */\n    tag_270:\n        /* \"@chainlink/contracts/src/v0.8/vendor/@ensdomains/buffer/v0.1.0/Buffer.sol\":1535:1538  fpm */\n      dup1\n        /* \"@chainlink/contracts/src/v0.8/vendor/@ensdomains/buffer/v0.1.0/Buffer.sol\":1529:1533  0x40 */\n      0x40\n        /* \"@chainlink/contracts/src/v0.8/vendor/@ensdomains/buffer/v0.1.0/Buffer.sol\":1522:1539  mstore(0x40, fpm) */\n      mstore\n        /* \"@chainlink/contracts/src/v0.8/vendor/@ensdomains/buffer/v0.1.0/Buffer.sol\":1293:1549  {... */\n      pop\n      pop\n        /* \"@chainlink/contracts/src/v0.8/vendor/@ensdomains/buffer/v0.1.0/Buffer.sol\":1565:1568  buf */\n      dup3\n        /* \"@chainlink/contracts/src/v0.8/vendor/@ensdomains/buffer/v0.1.0/Buffer.sol\":1558:1568  return buf */\n      swap1\n      pop\n        /* \"@chainlink/contracts/src/v0.8/vendor/@ensdomains/buffer/v0.1.0/Buffer.sol\":1020:1575  function init(buffer memory buf, uint capacity) internal pure returns(buffer memory) {... */\n      swap3\n      swap2\n      pop\n      pop\n      jump\t// out\n        /* \"@chainlink/contracts/src/v0.8/vendor/solidity-cborutils/v2.0.0/CBOR.sol\":6156:6915  function writeFixedNumeric(... */\n    tag_242:\n        /* \"@chainlink/contracts/src/v0.8/vendor/solidity-cborutils/v2.0.0/CBOR.sol\":6299:6301  23 */\n      0x17\n        /* \"@chainlink/contracts/src/v0.8/vendor/solidity-cborutils/v2.0.0/CBOR.sol\":6290:6295  value */\n      dup2\n        /* \"@chainlink/contracts/src/v0.8/vendor/solidity-cborutils/v2.0.0/CBOR.sol\":6290:6301  value <= 23 */\n      0xffffffffffffffff\n      and\n      gt\n        /* \"@chainlink/contracts/src/v0.8/vendor/solidity-cborutils/v2.0.0/CBOR.sol\":6286:6909  if (value <= 23) {... */\n      tag_272\n      jumpi\n        /* \"@chainlink/contracts/src/v0.8/vendor/solidity-cborutils/v2.0.0/CBOR.sol\":6317:6365  buf.buf.appendUint8(uint8((major << 5) | value)) */\n      tag_273\n        /* \"@chainlink/contracts/src/v0.8/vendor/solidity-cborutils/v2.0.0/CBOR.sol\":6358:6363  value */\n      dup2\n        /* \"@chainlink/contracts/src/v0.8/vendor/solidity-cborutils/v2.0.0/CBOR.sol\":6353:6354  5 */\n      0x05\n        /* \"@chainlink/contracts/src/v0.8/vendor/solidity-cborutils/v2.0.0/CBOR.sol\":6344:6349  major */\n      dup5\n        /* \"@chainlink/contracts/src/v0.8/vendor/solidity-cborutils/v2.0.0/CBOR.sol\":6344:6354  major << 5 */\n      0xff\n      and\n      swap1\n      shl\n        /* \"@chainlink/contracts/src/v0.8/vendor/solidity-cborutils/v2.0.0/CBOR.sol\":6343:6363  (major << 5) | value */\n      0xff\n      and\n      or\n        /* \"@chainlink/contracts/src/v0.8/vendor/solidity-cborutils/v2.0.0/CBOR.sol\":6317:6320  buf */\n      dup5\n        /* \"@chainlink/contracts/src/v0.8/vendor/solidity-cborutils/v2.0.0/CBOR.sol\":6317:6324  buf.buf */\n      0x00\n      add\n      mload\n        /* \"@chainlink/contracts/src/v0.8/vendor/solidity-cborutils/v2.0.0/CBOR.sol\":6317:6336  buf.buf.appendUint8 */\n      tag_247\n      swap1\n        /* \"@chainlink/contracts/src/v0.8/vendor/solidity-cborutils/v2.0.0/CBOR.sol\":6317:6365  buf.buf.appendUint8(uint8((major << 5) | value)) */\n      swap2\n      swap1\n      0xffffffff\n      and\n      jump\t// in\n    tag_273:\n      pop\n        /* \"@chainlink/contracts/src/v0.8/vendor/solidity-cborutils/v2.0.0/CBOR.sol\":6286:6909  if (value <= 23) {... */\n      jump(tag_274)\n    tag_272:\n        /* \"@chainlink/contracts/src/v0.8/vendor/solidity-cborutils/v2.0.0/CBOR.sol\":6395:6399  0xFF */\n      0xff\n        /* \"@chainlink/contracts/src/v0.8/vendor/solidity-cborutils/v2.0.0/CBOR.sol\":6386:6391  value */\n      dup2\n        /* \"@chainlink/contracts/src/v0.8/vendor/solidity-cborutils/v2.0.0/CBOR.sol\":6386:6399  value <= 0xFF */\n      0xffffffffffffffff\n      and\n      gt\n        /* \"@chainlink/contracts/src/v0.8/vendor/solidity-cborutils/v2.0.0/CBOR.sol\":6382:6909  if (value <= 0xFF) {... */\n      tag_275\n      jumpi\n        /* \"@chainlink/contracts/src/v0.8/vendor/solidity-cborutils/v2.0.0/CBOR.sol\":6415:6460  buf.buf.appendUint8(uint8((major << 5) | 24)) */\n      tag_276\n        /* \"@chainlink/contracts/src/v0.8/vendor/solidity-cborutils/v2.0.0/CBOR.sol\":6456:6458  24 */\n      0x18\n        /* \"@chainlink/contracts/src/v0.8/vendor/solidity-cborutils/v2.0.0/CBOR.sol\":6451:6452  5 */\n      0x05\n        /* \"@chainlink/contracts/src/v0.8/vendor/solidity-cborutils/v2.0.0/CBOR.sol\":6442:6447  major */\n      dup5\n        /* \"@chainlink/contracts/src/v0.8/vendor/solidity-cborutils/v2.0.0/CBOR.sol\":6442:6452  major << 5 */\n      0xff\n      and\n      swap1\n      shl\n        /* \"@chainlink/contracts/src/v0.8/vendor/solidity-cborutils/v2.0.0/CBOR.sol\":6441:6458  (major << 5) | 24 */\n      or\n        /* \"@chainlink/contracts/src/v0.8/vendor/solidity-cborutils/v2.0.0/CBOR.sol\":6415:6418  buf */\n      dup5\n        /* \"@chainlink/contracts/src/v0.8/vendor/solidity-cborutils/v2.0.0/CBOR.sol\":6415:6422  buf.buf */\n      0x00\n      add\n      mload\n        /* \"@chainlink/contracts/src/v0.8/vendor/solidity-cborutils/v2.0.0/CBOR.sol\":6415:6434  buf.buf.appendUint8 */\n      tag_247\n      swap1\n        /* \"@chainlink/contracts/src/v0.8/vendor/solidity-cborutils/v2.0.0/CBOR.sol\":6415:6460  buf.buf.appendUint8(uint8((major << 5) | 24)) */\n      swap2\n      swap1\n      0xffffffff\n      and\n      jump\t// in\n    tag_276:\n      pop\n        /* \"@chainlink/contracts/src/v0.8/vendor/solidity-cborutils/v2.0.0/CBOR.sol\":6474:6501  buf.buf.appendInt(value, 1) */\n      tag_277\n        /* \"@chainlink/contracts/src/v0.8/vendor/solidity-cborutils/v2.0.0/CBOR.sol\":6492:6497  value */\n      dup2\n        /* \"@chainlink/contracts/src/v0.8/vendor/solidity-cborutils/v2.0.0/CBOR.sol\":6474:6501  buf.buf.appendInt(value, 1) */\n      0xffffffffffffffff\n      and\n        /* \"@chainlink/contracts/src/v0.8/vendor/solidity-cborutils/v2.0.0/CBOR.sol\":6499:6500  1 */\n      0x01\n        /* \"@chainlink/contracts/src/v0.8/vendor/solidity-cborutils/v2.0.0/CBOR.sol\":6474:6477  buf */\n      dup6\n        /* \"@chainlink/contracts/src/v0.8/vendor/solidity-cborutils/v2.0.0/CBOR.sol\":6474:6481  buf.buf */\n      0x00\n      add\n      mload\n        /* \"@chainlink/contracts/src/v0.8/vendor/solidity-cborutils/v2.0.0/CBOR.sol\":6474:6491  buf.buf.appendInt */\n      tag_278\n      swap1\n        /* \"@chainlink/contracts/src/v0.8/vendor/solidity-cborutils/v2.0.0/CBOR.sol\":6474:6501  buf.buf.appendInt(value, 1) */\n      swap3\n      swap2\n      swap1\n      0xffffffff\n      and\n      jump\t// in\n    tag_277:\n      pop\n        /* \"@chainlink/contracts/src/v0.8/vendor/solidity-cborutils/v2.0.0/CBOR.sol\":6382:6909  if (value <= 0xFF) {... */\n      jump(tag_279)\n    tag_275:\n        /* \"@chainlink/contracts/src/v0.8/vendor/solidity-cborutils/v2.0.0/CBOR.sol\":6531:6537  0xFFFF */\n      0xffff\n        /* \"@chainlink/contracts/src/v0.8/vendor/solidity-cborutils/v2.0.0/CBOR.sol\":6522:6527  value */\n      dup2\n        /* \"@chainlink/contracts/src/v0.8/vendor/solidity-cborutils/v2.0.0/CBOR.sol\":6522:6537  value <= 0xFFFF */\n      0xffffffffffffffff\n      and\n      gt\n        /* \"@chainlink/contracts/src/v0.8/vendor/solidity-cborutils/v2.0.0/CBOR.sol\":6518:6909  if (value <= 0xFFFF) {... */\n      tag_280\n      jumpi\n        /* \"@chainlink/contracts/src/v0.8/vendor/solidity-cborutils/v2.0.0/CBOR.sol\":6553:6598  buf.buf.appendUint8(uint8((major << 5) | 25)) */\n      tag_281\n        /* \"@chainlink/contracts/src/v0.8/vendor/solidity-cborutils/v2.0.0/CBOR.sol\":6594:6596  25 */\n      0x19\n        /* \"@chainlink/contracts/src/v0.8/vendor/solidity-cborutils/v2.0.0/CBOR.sol\":6589:6590  5 */\n      0x05\n        /* \"@chainlink/contracts/src/v0.8/vendor/solidity-cborutils/v2.0.0/CBOR.sol\":6580:6585  major */\n      dup5\n        /* \"@chainlink/contracts/src/v0.8/vendor/solidity-cborutils/v2.0.0/CBOR.sol\":6580:6590  major << 5 */\n      0xff\n      and\n      swap1\n      shl\n        /* \"@chainlink/contracts/src/v0.8/vendor/solidity-cborutils/v2.0.0/CBOR.sol\":6579:6596  (major << 5) | 25 */\n      or\n        /* \"@chainlink/contracts/src/v0.8/vendor/solidity-cborutils/v2.0.0/CBOR.sol\":6553:6556  buf */\n      dup5\n        /* \"@chainlink/contracts/src/v0.8/vendor/solidity-cborutils/v2.0.0/CBOR.sol\":6553:6560  buf.buf */\n      0x00\n      add\n      mload\n        /* \"@chainlink/contracts/src/v0.8/vendor/solidity-cborutils/v2.0.0/CBOR.sol\":6553:6572  buf.buf.appendUint8 */\n      tag_247\n      swap1\n        /* \"@chainlink/contracts/src/v0.8/vendor/solidity-cborutils/v2.0.0/CBOR.sol\":6553:6598  buf.buf.appendUint8(uint8((major << 5) | 25)) */\n      swap2\n      swap1\n      0xffffffff\n      and\n      jump\t// in\n    tag_281:\n      pop\n        /* \"@chainlink/contracts/src/v0.8/vendor/solidity-cborutils/v2.0.0/CBOR.sol\":6612:6639  buf.buf.appendInt(value, 2) */\n      tag_282\n        /* \"@chainlink/contracts/src/v0.8/vendor/solidity-cborutils/v2.0.0/CBOR.sol\":6630:6635  value */\n      dup2\n        /* \"@chainlink/contracts/src/v0.8/vendor/solidity-cborutils/v2.0.0/CBOR.sol\":6612:6639  buf.buf.appendInt(value, 2) */\n      0xffffffffffffffff\n      and\n        /* \"@chainlink/contracts/src/v0.8/vendor/solidity-cborutils/v2.0.0/CBOR.sol\":6637:6638  2 */\n      0x02\n        /* \"@chainlink/contracts/src/v0.8/vendor/solidity-cborutils/v2.0.0/CBOR.sol\":6612:6615  buf */\n      dup6\n        /* \"@chainlink/contracts/src/v0.8/vendor/solidity-cborutils/v2.0.0/CBOR.sol\":6612:6619  buf.buf */\n      0x00\n      add\n      mload\n        /* \"@chainlink/contracts/src/v0.8/vendor/solidity-cborutils/v2.0.0/CBOR.sol\":6612:6629  buf.buf.appendInt */\n      tag_278\n      swap1\n        /* \"@chainlink/contracts/src/v0.8/vendor/solidity-cborutils/v2.0.0/CBOR.sol\":6612:6639  buf.buf.appendInt(value, 2) */\n      swap3\n      swap2\n      swap1\n      0xffffffff\n      and\n      jump\t// in\n    tag_282:\n      pop\n        /* \"@chainlink/contracts/src/v0.8/vendor/solidity-cborutils/v2.0.0/CBOR.sol\":6518:6909  if (value <= 0xFFFF) {... */\n      jump(tag_283)\n    tag_280:\n        /* \"@chainlink/contracts/src/v0.8/vendor/solidity-cborutils/v2.0.0/CBOR.sol\":6669:6679  0xFFFFFFFF */\n      0xffffffff\n        /* \"@chainlink/contracts/src/v0.8/vendor/solidity-cborutils/v2.0.0/CBOR.sol\":6660:6665  value */\n      dup2\n        /* \"@chainlink/contracts/src/v0.8/vendor/solidity-cborutils/v2.0.0/CBOR.sol\":6660:6679  value <= 0xFFFFFFFF */\n      0xffffffffffffffff\n      and\n      gt\n        /* \"@chainlink/contracts/src/v0.8/vendor/solidity-cborutils/v2.0.0/CBOR.sol\":6656:6909  if (value <= 0xFFFFFFFF) {... */\n      tag_284\n      jumpi\n        /* \"@chainlink/contracts/src/v0.8/vendor/solidity-cborutils/v2.0.0/CBOR.sol\":6695:6740  buf.buf.appendUint8(uint8((major << 5) | 26)) */\n      tag_285\n        /* \"@chainlink/contracts/src/v0.8/vendor/solidity-cborutils/v2.0.0/CBOR.sol\":6736:6738  26 */\n      0x1a\n        /* \"@chainlink/contracts/src/v0.8/vendor/solidity-cborutils/v2.0.0/CBOR.sol\":6731:6732  5 */\n      0x05\n        /* \"@chainlink/contracts/src/v0.8/vendor/solidity-cborutils/v2.0.0/CBOR.sol\":6722:6727  major */\n      dup5\n        /* \"@chainlink/contracts/src/v0.8/vendor/solidity-cborutils/v2.0.0/CBOR.sol\":6722:6732  major << 5 */\n      0xff\n      and\n      swap1\n      shl\n        /* \"@chainlink/contracts/src/v0.8/vendor/solidity-cborutils/v2.0.0/CBOR.sol\":6721:6738  (major << 5) | 26 */\n      or\n        /* \"@chainlink/contracts/src/v0.8/vendor/solidity-cborutils/v2.0.0/CBOR.sol\":6695:6698  buf */\n      dup5\n        /* \"@chainlink/contracts/src/v0.8/vendor/solidity-cborutils/v2.0.0/CBOR.sol\":6695:6702  buf.buf */\n      0x00\n      add\n      mload\n        /* \"@chainlink/contracts/src/v0.8/vendor/solidity-cborutils/v2.0.0/CBOR.sol\":6695:6714  buf.buf.appendUint8 */\n      tag_247\n      swap1\n        /* \"@chainlink/contracts/src/v0.8/vendor/solidity-cborutils/v2.0.0/CBOR.sol\":6695:6740  buf.buf.appendUint8(uint8((major << 5) | 26)) */\n      swap2\n      swap1\n      0xffffffff\n      and\n      jump\t// in\n    tag_285:\n      pop\n        /* \"@chainlink/contracts/src/v0.8/vendor/solidity-cborutils/v2.0.0/CBOR.sol\":6754:6781  buf.buf.appendInt(value, 4) */\n      tag_286\n        /* \"@chainlink/contracts/src/v0.8/vendor/solidity-cborutils/v2.0.0/CBOR.sol\":6772:6777  value */\n      dup2\n        /* \"@chainlink/contracts/src/v0.8/vendor/solidity-cborutils/v2.0.0/CBOR.sol\":6754:6781  buf.buf.appendInt(value, 4) */\n      0xffffffffffffffff\n      and\n        /* \"@chainlink/contracts/src/v0.8/vendor/solidity-cborutils/v2.0.0/CBOR.sol\":6779:6780  4 */\n      0x04\n        /* \"@chainlink/contracts/src/v0.8/vendor/solidity-cborutils/v2.0.0/CBOR.sol\":6754:6757  buf */\n      dup6\n        /* \"@chainlink/contracts/src/v0.8/vendor/solidity-cborutils/v2.0.0/CBOR.sol\":6754:6761  buf.buf */\n      0x00\n      add\n      mload\n        /* \"@chainlink/contracts/src/v0.8/vendor/solidity-cborutils/v2.0.0/CBOR.sol\":6754:6771  buf.buf.appendInt */\n      tag_278\n      swap1\n        /* \"@chainlink/contracts/src/v0.8/vendor/solidity-cborutils/v2.0.0/CBOR.sol\":6754:6781  buf.buf.appendInt(value, 4) */\n      swap3\n      swap2\n      swap1\n      0xffffffff\n      and\n      jump\t// in\n    tag_286:\n      pop\n        /* \"@chainlink/contracts/src/v0.8/vendor/solidity-cborutils/v2.0.0/CBOR.sol\":6656:6909  if (value <= 0xFFFFFFFF) {... */\n      jump(tag_287)\n    tag_284:\n        /* \"@chainlink/contracts/src/v0.8/vendor/solidity-cborutils/v2.0.0/CBOR.sol\":6812:6857  buf.buf.appendUint8(uint8((major << 5) | 27)) */\n      tag_288\n        /* \"@chainlink/contracts/src/v0.8/vendor/solidity-cborutils/v2.0.0/CBOR.sol\":6853:6855  27 */\n      0x1b\n        /* \"@chainlink/contracts/src/v0.8/vendor/solidity-cborutils/v2.0.0/CBOR.sol\":6848:6849  5 */\n      0x05\n        /* \"@chainlink/contracts/src/v0.8/vendor/solidity-cborutils/v2.0.0/CBOR.sol\":6839:6844  major */\n      dup5\n        /* \"@chainlink/contracts/src/v0.8/vendor/solidity-cborutils/v2.0.0/CBOR.sol\":6839:6849  major << 5 */\n      0xff\n      and\n      swap1\n      shl\n        /* \"@chainlink/contracts/src/v0.8/vendor/solidity-cborutils/v2.0.0/CBOR.sol\":6838:6855  (major << 5) | 27 */\n      or\n        /* \"@chainlink/contracts/src/v0.8/vendor/solidity-cborutils/v2.0.0/CBOR.sol\":6812:6815  buf */\n      dup5\n        /* \"@chainlink/contracts/src/v0.8/vendor/solidity-cborutils/v2.0.0/CBOR.sol\":6812:6819  buf.buf */\n      0x00\n      add\n      mload\n        /* \"@chainlink/contracts/src/v0.8/vendor/solidity-cborutils/v2.0.0/CBOR.sol\":6812:6831  buf.buf.appendUint8 */\n      tag_247\n      swap1\n        /* \"@chainlink/contracts/src/v0.8/vendor/solidity-cborutils/v2.0.0/CBOR.sol\":6812:6857  buf.buf.appendUint8(uint8((major << 5) | 27)) */\n      swap2\n      swap1\n      0xffffffff\n      and\n      jump\t// in\n    tag_288:\n      pop\n        /* \"@chainlink/contracts/src/v0.8/vendor/solidity-cborutils/v2.0.0/CBOR.sol\":6871:6898  buf.buf.appendInt(value, 8) */\n      tag_289\n        /* \"@chainlink/contracts/src/v0.8/vendor/solidity-cborutils/v2.0.0/CBOR.sol\":6889:6894  value */\n      dup2\n        /* \"@chainlink/contracts/src/v0.8/vendor/solidity-cborutils/v2.0.0/CBOR.sol\":6871:6898  buf.buf.appendInt(value, 8) */\n      0xffffffffffffffff\n      and\n        /* \"@chainlink/contracts/src/v0.8/vendor/solidity-cborutils/v2.0.0/CBOR.sol\":6896:6897  8 */\n      0x08\n        /* \"@chainlink/contracts/src/v0.8/vendor/solidity-cborutils/v2.0.0/CBOR.sol\":6871:6874  buf */\n      dup6\n        /* \"@chainlink/contracts/src/v0.8/vendor/solidity-cborutils/v2.0.0/CBOR.sol\":6871:6878  buf.buf */\n      0x00\n      add\n      mload\n        /* \"@chainlink/contracts/src/v0.8/vendor/solidity-cborutils/v2.0.0/CBOR.sol\":6871:6888  buf.buf.appendInt */\n      tag_278\n      swap1\n        /* \"@chainlink/contracts/src/v0.8/vendor/solidity-cborutils/v2.0.0/CBOR.sol\":6871:6898  buf.buf.appendInt(value, 8) */\n      swap3\n      swap2\n      swap1\n      0xffffffff\n      and\n      jump\t// in\n    tag_289:\n      pop\n        /* \"@chainlink/contracts/src/v0.8/vendor/solidity-cborutils/v2.0.0/CBOR.sol\":6656:6909  if (value <= 0xFFFFFFFF) {... */\n    tag_287:\n        /* \"@chainlink/contracts/src/v0.8/vendor/solidity-cborutils/v2.0.0/CBOR.sol\":6518:6909  if (value <= 0xFFFF) {... */\n    tag_283:\n        /* \"@chainlink/contracts/src/v0.8/vendor/solidity-cborutils/v2.0.0/CBOR.sol\":6382:6909  if (value <= 0xFF) {... */\n    tag_279:\n        /* \"@chainlink/contracts/src/v0.8/vendor/solidity-cborutils/v2.0.0/CBOR.sol\":6286:6909  if (value <= 23) {... */\n    tag_274:\n        /* \"@chainlink/contracts/src/v0.8/vendor/solidity-cborutils/v2.0.0/CBOR.sol\":6156:6915  function writeFixedNumeric(... */\n      pop\n      pop\n      pop\n      jump\t// out\n        /* \"@chainlink/contracts/src/v0.8/vendor/@ensdomains/buffer/v0.1.0/Buffer.sol\":4539:4685  function append(buffer memory buf, bytes memory data) internal pure returns (buffer memory) {... */\n    tag_244:\n        /* \"@chainlink/contracts/src/v0.8/vendor/@ensdomains/buffer/v0.1.0/Buffer.sol\":4616:4629  buffer memory */\n      tag_290\n      tag_262\n      jump\t// in\n    tag_290:\n        /* \"@chainlink/contracts/src/v0.8/vendor/@ensdomains/buffer/v0.1.0/Buffer.sol\":4648:4678  append(buf, data, data.length) */\n      tag_292\n        /* \"@chainlink/contracts/src/v0.8/vendor/@ensdomains/buffer/v0.1.0/Buffer.sol\":4655:4658  buf */\n      dup4\n        /* \"@chainlink/contracts/src/v0.8/vendor/@ensdomains/buffer/v0.1.0/Buffer.sol\":4660:4664  data */\n      dup4\n        /* \"@chainlink/contracts/src/v0.8/vendor/@ensdomains/buffer/v0.1.0/Buffer.sol\":4666:4670  data */\n      dup5\n        /* \"@chainlink/contracts/src/v0.8/vendor/@ensdomains/buffer/v0.1.0/Buffer.sol\":4666:4677  data.length */\n      mload\n        /* \"@chainlink/contracts/src/v0.8/vendor/@ensdomains/buffer/v0.1.0/Buffer.sol\":4648:4654  append */\n      tag_293\n        /* \"@chainlink/contracts/src/v0.8/vendor/@ensdomains/buffer/v0.1.0/Buffer.sol\":4648:4678  append(buf, data, data.length) */\n      jump\t// in\n    tag_292:\n        /* \"@chainlink/contracts/src/v0.8/vendor/@ensdomains/buffer/v0.1.0/Buffer.sol\":4641:4678  return append(buf, data, data.length) */\n      swap1\n      pop\n        /* \"@chainlink/contracts/src/v0.8/vendor/@ensdomains/buffer/v0.1.0/Buffer.sol\":4539:4685  function append(buffer memory buf, bytes memory data) internal pure returns (buffer memory) {... */\n      swap3\n      swap2\n      pop\n      pop\n      jump\t// out\n        /* \"@chainlink/contracts/src/v0.8/vendor/@ensdomains/buffer/v0.1.0/Buffer.sol\":4948:5647  function appendUint8(buffer memory buf, uint8 data) internal pure returns(buffer memory) {... */\n    tag_247:\n        /* \"@chainlink/contracts/src/v0.8/vendor/@ensdomains/buffer/v0.1.0/Buffer.sol\":5022:5035  buffer memory */\n      tag_294\n      tag_262\n      jump\t// in\n    tag_294:\n        /* \"@chainlink/contracts/src/v0.8/vendor/@ensdomains/buffer/v0.1.0/Buffer.sol\":5047:5055  uint off */\n      0x00\n        /* \"@chainlink/contracts/src/v0.8/vendor/@ensdomains/buffer/v0.1.0/Buffer.sol\":5058:5061  buf */\n      dup4\n        /* \"@chainlink/contracts/src/v0.8/vendor/@ensdomains/buffer/v0.1.0/Buffer.sol\":5058:5065  buf.buf */\n      0x00\n      add\n      mload\n        /* \"@chainlink/contracts/src/v0.8/vendor/@ensdomains/buffer/v0.1.0/Buffer.sol\":5058:5072  buf.buf.length */\n      mload\n        /* \"@chainlink/contracts/src/v0.8/vendor/@ensdomains/buffer/v0.1.0/Buffer.sol\":5047:5072  uint off = buf.buf.length */\n      swap1\n      pop\n        /* \"@chainlink/contracts/src/v0.8/vendor/@ensdomains/buffer/v0.1.0/Buffer.sol\":5082:5097  uint offPlusOne */\n      0x00\n        /* \"@chainlink/contracts/src/v0.8/vendor/@ensdomains/buffer/v0.1.0/Buffer.sol\":5106:5107  1 */\n      0x01\n        /* \"@chainlink/contracts/src/v0.8/vendor/@ensdomains/buffer/v0.1.0/Buffer.sol\":5100:5103  off */\n      dup3\n        /* \"@chainlink/contracts/src/v0.8/vendor/@ensdomains/buffer/v0.1.0/Buffer.sol\":5100:5107  off + 1 */\n      tag_296\n      swap2\n      swap1\n      tag_254\n      jump\t// in\n    tag_296:\n        /* \"@chainlink/contracts/src/v0.8/vendor/@ensdomains/buffer/v0.1.0/Buffer.sol\":5082:5107  uint offPlusOne = off + 1 */\n      swap1\n      pop\n        /* \"@chainlink/contracts/src/v0.8/vendor/@ensdomains/buffer/v0.1.0/Buffer.sol\":5128:5131  buf */\n      dup5\n        /* \"@chainlink/contracts/src/v0.8/vendor/@ensdomains/buffer/v0.1.0/Buffer.sol\":5128:5140  buf.capacity */\n      0x20\n      add\n      mload\n        /* \"@chainlink/contracts/src/v0.8/vendor/@ensdomains/buffer/v0.1.0/Buffer.sol\":5121:5124  off */\n      dup3\n        /* \"@chainlink/contracts/src/v0.8/vendor/@ensdomains/buffer/v0.1.0/Buffer.sol\":5121:5140  off >= buf.capacity */\n      lt\n        /* \"@chainlink/contracts/src/v0.8/vendor/@ensdomains/buffer/v0.1.0/Buffer.sol\":5117:5194  if (off >= buf.capacity) {... */\n      tag_297\n      jumpi\n        /* \"@chainlink/contracts/src/v0.8/vendor/@ensdomains/buffer/v0.1.0/Buffer.sol\":5156:5183  resize(buf, offPlusOne * 2) */\n      tag_298\n        /* \"@chainlink/contracts/src/v0.8/vendor/@ensdomains/buffer/v0.1.0/Buffer.sol\":5163:5166  buf */\n      dup6\n        /* \"@chainlink/contracts/src/v0.8/vendor/@ensdomains/buffer/v0.1.0/Buffer.sol\":5181:5182  2 */\n      0x02\n        /* \"@chainlink/contracts/src/v0.8/vendor/@ensdomains/buffer/v0.1.0/Buffer.sol\":5168:5178  offPlusOne */\n      dup4\n        /* \"@chainlink/contracts/src/v0.8/vendor/@ensdomains/buffer/v0.1.0/Buffer.sol\":5168:5182  offPlusOne * 2 */\n      tag_299\n      swap2\n      swap1\n      tag_97\n      jump\t// in\n    tag_299:\n        /* \"@chainlink/contracts/src/v0.8/vendor/@ensdomains/buffer/v0.1.0/Buffer.sol\":5156:5162  resize */\n      tag_300\n        /* \"@chainlink/contracts/src/v0.8/vendor/@ensdomains/buffer/v0.1.0/Buffer.sol\":5156:5183  resize(buf, offPlusOne * 2) */\n      jump\t// in\n    tag_298:\n        /* \"@chainlink/contracts/src/v0.8/vendor/@ensdomains/buffer/v0.1.0/Buffer.sol\":5117:5194  if (off >= buf.capacity) {... */\n    tag_297:\n        /* \"@chainlink/contracts/src/v0.8/vendor/@ensdomains/buffer/v0.1.0/Buffer.sol\":5296:5299  buf */\n      dup5\n        /* \"@chainlink/contracts/src/v0.8/vendor/@ensdomains/buffer/v0.1.0/Buffer.sol\":5290:5300  mload(buf) */\n      mload\n        /* \"@chainlink/contracts/src/v0.8/vendor/@ensdomains/buffer/v0.1.0/Buffer.sol\":5417:5419  32 */\n      0x20\n        /* \"@chainlink/contracts/src/v0.8/vendor/@ensdomains/buffer/v0.1.0/Buffer.sol\":5411:5414  off */\n      dup4\n        /* \"@chainlink/contracts/src/v0.8/vendor/@ensdomains/buffer/v0.1.0/Buffer.sol\":5403:5409  bufptr */\n      dup3\n        /* \"@chainlink/contracts/src/v0.8/vendor/@ensdomains/buffer/v0.1.0/Buffer.sol\":5399:5415  add(bufptr, off) */\n      add\n        /* \"@chainlink/contracts/src/v0.8/vendor/@ensdomains/buffer/v0.1.0/Buffer.sol\":5395:5420  add(add(bufptr, off), 32) */\n      add\n        /* \"@chainlink/contracts/src/v0.8/vendor/@ensdomains/buffer/v0.1.0/Buffer.sol\":5447:5451  data */\n      dup6\n        /* \"@chainlink/contracts/src/v0.8/vendor/@ensdomains/buffer/v0.1.0/Buffer.sol\":5441:5445  dest */\n      dup2\n        /* \"@chainlink/contracts/src/v0.8/vendor/@ensdomains/buffer/v0.1.0/Buffer.sol\":5433:5452  mstore8(dest, data) */\n      mstore8\n        /* \"@chainlink/contracts/src/v0.8/vendor/@ensdomains/buffer/v0.1.0/Buffer.sol\":5543:5549  bufptr */\n      dup2\n        /* \"@chainlink/contracts/src/v0.8/vendor/@ensdomains/buffer/v0.1.0/Buffer.sol\":5537:5550  mload(bufptr) */\n      mload\n        /* \"@chainlink/contracts/src/v0.8/vendor/@ensdomains/buffer/v0.1.0/Buffer.sol\":5525:5535  offPlusOne */\n      dup4\n        /* \"@chainlink/contracts/src/v0.8/vendor/@ensdomains/buffer/v0.1.0/Buffer.sol\":5522:5551  gt(offPlusOne, mload(bufptr)) */\n      gt\n        /* \"@chainlink/contracts/src/v0.8/vendor/@ensdomains/buffer/v0.1.0/Buffer.sol\":5519:5610  if gt(offPlusOne, mload(bufptr)) {... */\n      iszero\n      tag_301\n      jumpi\n        /* \"@chainlink/contracts/src/v0.8/vendor/@ensdomains/buffer/v0.1.0/Buffer.sol\":5585:5595  offPlusOne */\n      dup3\n        /* \"@chainlink/contracts/src/v0.8/vendor/@ensdomains/buffer/v0.1.0/Buffer.sol\":5577:5583  bufptr */\n      dup3\n        /* \"@chainlink/contracts/src/v0.8/vendor/@ensdomains/buffer/v0.1.0/Buffer.sol\":5570:5596  mstore(bufptr, offPlusOne) */\n      mstore\n        /* \"@chainlink/contracts/src/v0.8/vendor/@ensdomains/buffer/v0.1.0/Buffer.sol\":5519:5610  if gt(offPlusOne, mload(bufptr)) {... */\n    tag_301:\n        /* \"@chainlink/contracts/src/v0.8/vendor/@ensdomains/buffer/v0.1.0/Buffer.sol\":5213:5620  {... */\n      pop\n      pop\n        /* \"@chainlink/contracts/src/v0.8/vendor/@ensdomains/buffer/v0.1.0/Buffer.sol\":5637:5640  buf */\n      dup5\n        /* \"@chainlink/contracts/src/v0.8/vendor/@ensdomains/buffer/v0.1.0/Buffer.sol\":5630:5640  return buf */\n      swap3\n      pop\n      pop\n      pop\n        /* \"@chainlink/contracts/src/v0.8/vendor/@ensdomains/buffer/v0.1.0/Buffer.sol\":4948:5647  function appendUint8(buffer memory buf, uint8 data) internal pure returns(buffer memory) {... */\n      swap3\n      swap2\n      pop\n      pop\n      jump\t// out\n        /* \"@chainlink/contracts/src/v0.8/vendor/solidity-cborutils/v2.0.0/CBOR.sol\":6921:7087  function writeIndefiniteLengthType(CBORBuffer memory buf, uint8 major)... */\n    tag_252:\n        /* \"@chainlink/contracts/src/v0.8/vendor/solidity-cborutils/v2.0.0/CBOR.sol\":7035:7080  buf.buf.appendUint8(uint8((major << 5) | 31)) */\n      tag_303\n        /* \"@chainlink/contracts/src/v0.8/vendor/solidity-cborutils/v2.0.0/CBOR.sol\":7076:7078  31 */\n      0x1f\n        /* \"@chainlink/contracts/src/v0.8/vendor/solidity-cborutils/v2.0.0/CBOR.sol\":7071:7072  5 */\n      0x05\n        /* \"@chainlink/contracts/src/v0.8/vendor/solidity-cborutils/v2.0.0/CBOR.sol\":7062:7067  major */\n      dup4\n        /* \"@chainlink/contracts/src/v0.8/vendor/solidity-cborutils/v2.0.0/CBOR.sol\":7062:7072  major << 5 */\n      0xff\n      and\n      swap1\n      shl\n        /* \"@chainlink/contracts/src/v0.8/vendor/solidity-cborutils/v2.0.0/CBOR.sol\":7061:7078  (major << 5) | 31 */\n      or\n        /* \"@chainlink/contracts/src/v0.8/vendor/solidity-cborutils/v2.0.0/CBOR.sol\":7035:7038  buf */\n      dup4\n        /* \"@chainlink/contracts/src/v0.8/vendor/solidity-cborutils/v2.0.0/CBOR.sol\":7035:7042  buf.buf */\n      0x00\n      add\n      mload\n        /* \"@chainlink/contracts/src/v0.8/vendor/solidity-cborutils/v2.0.0/CBOR.sol\":7035:7054  buf.buf.appendUint8 */\n      tag_247\n      swap1\n        /* \"@chainlink/contracts/src/v0.8/vendor/solidity-cborutils/v2.0.0/CBOR.sol\":7035:7080  buf.buf.appendUint8(uint8((major << 5) | 31)) */\n      swap2\n      swap1\n      0xffffffff\n      and\n      jump\t// in\n    tag_303:\n      pop\n        /* \"@chainlink/contracts/src/v0.8/vendor/solidity-cborutils/v2.0.0/CBOR.sol\":6921:7087  function writeIndefiniteLengthType(CBORBuffer memory buf, uint8 major)... */\n      pop\n      pop\n      jump\t// out\n        /* \"@chainlink/contracts/src/v0.8/vendor/@ensdomains/buffer/v0.1.0/Buffer.sol\":8083:8878  function appendInt(buffer memory buf, uint data, uint len) internal pure returns(buffer memory) {... */\n    tag_278:\n        /* \"@chainlink/contracts/src/v0.8/vendor/@ensdomains/buffer/v0.1.0/Buffer.sol\":8164:8177  buffer memory */\n      tag_304\n      tag_262\n      jump\t// in\n    tag_304:\n        /* \"@chainlink/contracts/src/v0.8/vendor/@ensdomains/buffer/v0.1.0/Buffer.sol\":8189:8197  uint off */\n      0x00\n        /* \"@chainlink/contracts/src/v0.8/vendor/@ensdomains/buffer/v0.1.0/Buffer.sol\":8200:8203  buf */\n      dup5\n        /* \"@chainlink/contracts/src/v0.8/vendor/@ensdomains/buffer/v0.1.0/Buffer.sol\":8200:8207  buf.buf */\n      0x00\n      add\n      mload\n        /* \"@chainlink/contracts/src/v0.8/vendor/@ensdomains/buffer/v0.1.0/Buffer.sol\":8200:8214  buf.buf.length */\n      mload\n        /* \"@chainlink/contracts/src/v0.8/vendor/@ensdomains/buffer/v0.1.0/Buffer.sol\":8189:8214  uint off = buf.buf.length */\n      swap1\n      pop\n        /* \"@chainlink/contracts/src/v0.8/vendor/@ensdomains/buffer/v0.1.0/Buffer.sol\":8224:8240  uint newCapacity */\n      0x00\n        /* \"@chainlink/contracts/src/v0.8/vendor/@ensdomains/buffer/v0.1.0/Buffer.sol\":8249:8252  off */\n      dup2\n        /* \"@chainlink/contracts/src/v0.8/vendor/@ensdomains/buffer/v0.1.0/Buffer.sol\":8243:8246  len */\n      dup5\n        /* \"@chainlink/contracts/src/v0.8/vendor/@ensdomains/buffer/v0.1.0/Buffer.sol\":8243:8252  len + off */\n      tag_306\n      swap2\n      swap1\n      tag_254\n      jump\t// in\n    tag_306:\n        /* \"@chainlink/contracts/src/v0.8/vendor/@ensdomains/buffer/v0.1.0/Buffer.sol\":8224:8252  uint newCapacity = len + off */\n      swap1\n      pop\n        /* \"@chainlink/contracts/src/v0.8/vendor/@ensdomains/buffer/v0.1.0/Buffer.sol\":8280:8283  buf */\n      dup6\n        /* \"@chainlink/contracts/src/v0.8/vendor/@ensdomains/buffer/v0.1.0/Buffer.sol\":8280:8292  buf.capacity */\n      0x20\n      add\n      mload\n        /* \"@chainlink/contracts/src/v0.8/vendor/@ensdomains/buffer/v0.1.0/Buffer.sol\":8266:8277  newCapacity */\n      dup2\n        /* \"@chainlink/contracts/src/v0.8/vendor/@ensdomains/buffer/v0.1.0/Buffer.sol\":8266:8292  newCapacity > buf.capacity */\n      gt\n        /* \"@chainlink/contracts/src/v0.8/vendor/@ensdomains/buffer/v0.1.0/Buffer.sol\":8262:8347  if (newCapacity > buf.capacity) {... */\n      iszero\n      tag_307\n      jumpi\n        /* \"@chainlink/contracts/src/v0.8/vendor/@ensdomains/buffer/v0.1.0/Buffer.sol\":8308:8336  resize(buf, newCapacity * 2) */\n      tag_308\n        /* \"@chainlink/contracts/src/v0.8/vendor/@ensdomains/buffer/v0.1.0/Buffer.sol\":8315:8318  buf */\n      dup7\n        /* \"@chainlink/contracts/src/v0.8/vendor/@ensdomains/buffer/v0.1.0/Buffer.sol\":8334:8335  2 */\n      0x02\n        /* \"@chainlink/contracts/src/v0.8/vendor/@ensdomains/buffer/v0.1.0/Buffer.sol\":8320:8331  newCapacity */\n      dup4\n        /* \"@chainlink/contracts/src/v0.8/vendor/@ensdomains/buffer/v0.1.0/Buffer.sol\":8320:8335  newCapacity * 2 */\n      tag_309\n      swap2\n      swap1\n      tag_97\n      jump\t// in\n    tag_309:\n        /* \"@chainlink/contracts/src/v0.8/vendor/@ensdomains/buffer/v0.1.0/Buffer.sol\":8308:8314  resize */\n      tag_300\n        /* \"@chainlink/contracts/src/v0.8/vendor/@ensdomains/buffer/v0.1.0/Buffer.sol\":8308:8336  resize(buf, newCapacity * 2) */\n      jump\t// in\n    tag_308:\n        /* \"@chainlink/contracts/src/v0.8/vendor/@ensdomains/buffer/v0.1.0/Buffer.sol\":8262:8347  if (newCapacity > buf.capacity) {... */\n    tag_307:\n        /* \"@chainlink/contracts/src/v0.8/vendor/@ensdomains/buffer/v0.1.0/Buffer.sol\":8357:8366  uint mask */\n      0x00\n        /* \"@chainlink/contracts/src/v0.8/vendor/@ensdomains/buffer/v0.1.0/Buffer.sol\":8384:8385  1 */\n      0x01\n        /* \"@chainlink/contracts/src/v0.8/vendor/@ensdomains/buffer/v0.1.0/Buffer.sol\":8377:8380  len */\n      dup6\n        /* \"@chainlink/contracts/src/v0.8/vendor/@ensdomains/buffer/v0.1.0/Buffer.sol\":8370:8373  256 */\n      0x0100\n        /* \"@chainlink/contracts/src/v0.8/vendor/@ensdomains/buffer/v0.1.0/Buffer.sol\":8370:8380  256 ** len */\n      tag_310\n      swap2\n      swap1\n      tag_311\n      jump\t// in\n    tag_310:\n        /* \"@chainlink/contracts/src/v0.8/vendor/@ensdomains/buffer/v0.1.0/Buffer.sol\":8369:8385  (256 ** len) - 1 */\n      tag_312\n      swap2\n      swap1\n      tag_109\n      jump\t// in\n    tag_312:\n        /* \"@chainlink/contracts/src/v0.8/vendor/@ensdomains/buffer/v0.1.0/Buffer.sol\":8357:8385  uint mask = (256 ** len) - 1 */\n      swap1\n      pop\n        /* \"@chainlink/contracts/src/v0.8/vendor/@ensdomains/buffer/v0.1.0/Buffer.sol\":8487:8490  buf */\n      dup7\n        /* \"@chainlink/contracts/src/v0.8/vendor/@ensdomains/buffer/v0.1.0/Buffer.sol\":8481:8491  mload(buf) */\n      mload\n        /* \"@chainlink/contracts/src/v0.8/vendor/@ensdomains/buffer/v0.1.0/Buffer.sol\":8606:8617  newCapacity */\n      dup3\n        /* \"@chainlink/contracts/src/v0.8/vendor/@ensdomains/buffer/v0.1.0/Buffer.sol\":8598:8604  bufptr */\n      dup2\n        /* \"@chainlink/contracts/src/v0.8/vendor/@ensdomains/buffer/v0.1.0/Buffer.sol\":8594:8618  add(bufptr, newCapacity) */\n      add\n        /* \"@chainlink/contracts/src/v0.8/vendor/@ensdomains/buffer/v0.1.0/Buffer.sol\":8676:8680  data */\n      dup8\n        /* \"@chainlink/contracts/src/v0.8/vendor/@ensdomains/buffer/v0.1.0/Buffer.sol\":8668:8672  mask */\n      dup4\n        /* \"@chainlink/contracts/src/v0.8/vendor/@ensdomains/buffer/v0.1.0/Buffer.sol\":8664:8673  not(mask) */\n      not\n        /* \"@chainlink/contracts/src/v0.8/vendor/@ensdomains/buffer/v0.1.0/Buffer.sol\":8657:8661  dest */\n      dup3\n        /* \"@chainlink/contracts/src/v0.8/vendor/@ensdomains/buffer/v0.1.0/Buffer.sol\":8651:8662  mload(dest) */\n      mload\n        /* \"@chainlink/contracts/src/v0.8/vendor/@ensdomains/buffer/v0.1.0/Buffer.sol\":8647:8674  and(mload(dest), not(mask)) */\n      and\n        /* \"@chainlink/contracts/src/v0.8/vendor/@ensdomains/buffer/v0.1.0/Buffer.sol\":8644:8681  or(and(mload(dest), not(mask)), data) */\n      or\n        /* \"@chainlink/contracts/src/v0.8/vendor/@ensdomains/buffer/v0.1.0/Buffer.sol\":8638:8642  dest */\n      dup2\n        /* \"@chainlink/contracts/src/v0.8/vendor/@ensdomains/buffer/v0.1.0/Buffer.sol\":8631:8682  mstore(dest, or(and(mload(dest), not(mask)), data)) */\n      mstore\n        /* \"@chainlink/contracts/src/v0.8/vendor/@ensdomains/buffer/v0.1.0/Buffer.sol\":8774:8780  bufptr */\n      dup2\n        /* \"@chainlink/contracts/src/v0.8/vendor/@ensdomains/buffer/v0.1.0/Buffer.sol\":8768:8781  mload(bufptr) */\n      mload\n        /* \"@chainlink/contracts/src/v0.8/vendor/@ensdomains/buffer/v0.1.0/Buffer.sol\":8755:8766  newCapacity */\n      dup5\n        /* \"@chainlink/contracts/src/v0.8/vendor/@ensdomains/buffer/v0.1.0/Buffer.sol\":8752:8782  gt(newCapacity, mload(bufptr)) */\n      gt\n        /* \"@chainlink/contracts/src/v0.8/vendor/@ensdomains/buffer/v0.1.0/Buffer.sol\":8749:8842  if gt(newCapacity, mload(bufptr)) {... */\n      iszero\n      tag_313\n      jumpi\n        /* \"@chainlink/contracts/src/v0.8/vendor/@ensdomains/buffer/v0.1.0/Buffer.sol\":8816:8827  newCapacity */\n      dup4\n        /* \"@chainlink/contracts/src/v0.8/vendor/@ensdomains/buffer/v0.1.0/Buffer.sol\":8808:8814  bufptr */\n      dup3\n        /* \"@chainlink/contracts/src/v0.8/vendor/@ensdomains/buffer/v0.1.0/Buffer.sol\":8801:8828  mstore(bufptr, newCapacity) */\n      mstore\n        /* \"@chainlink/contracts/src/v0.8/vendor/@ensdomains/buffer/v0.1.0/Buffer.sol\":8749:8842  if gt(newCapacity, mload(bufptr)) {... */\n    tag_313:\n        /* \"@chainlink/contracts/src/v0.8/vendor/@ensdomains/buffer/v0.1.0/Buffer.sol\":8404:8852  {... */\n      pop\n      pop\n        /* \"@chainlink/contracts/src/v0.8/vendor/@ensdomains/buffer/v0.1.0/Buffer.sol\":8868:8871  buf */\n      dup7\n        /* \"@chainlink/contracts/src/v0.8/vendor/@ensdomains/buffer/v0.1.0/Buffer.sol\":8861:8871  return buf */\n      swap4\n      pop\n      pop\n      pop\n      pop\n        /* \"@chainlink/contracts/src/v0.8/vendor/@ensdomains/buffer/v0.1.0/Buffer.sol\":8083:8878  function appendInt(buffer memory buf, uint data, uint len) internal pure returns(buffer memory) {... */\n      swap4\n      swap3\n      pop\n      pop\n      pop\n      jump\t// out\n        /* \"@chainlink/contracts/src/v0.8/vendor/@ensdomains/buffer/v0.1.0/Buffer.sol\":2844:4271  function append(buffer memory buf, bytes memory data, uint len) internal pure returns(buffer memory) {... */\n    tag_293:\n        /* \"@chainlink/contracts/src/v0.8/vendor/@ensdomains/buffer/v0.1.0/Buffer.sol\":2930:2943  buffer memory */\n      tag_314\n      tag_262\n      jump\t// in\n    tag_314:\n        /* \"@chainlink/contracts/src/v0.8/vendor/@ensdomains/buffer/v0.1.0/Buffer.sol\":2970:2974  data */\n      dup3\n        /* \"@chainlink/contracts/src/v0.8/vendor/@ensdomains/buffer/v0.1.0/Buffer.sol\":2970:2981  data.length */\n      mload\n        /* \"@chainlink/contracts/src/v0.8/vendor/@ensdomains/buffer/v0.1.0/Buffer.sol\":2963:2966  len */\n      dup3\n        /* \"@chainlink/contracts/src/v0.8/vendor/@ensdomains/buffer/v0.1.0/Buffer.sol\":2963:2981  len <= data.length */\n      gt\n      iszero\n        /* \"@chainlink/contracts/src/v0.8/vendor/@ensdomains/buffer/v0.1.0/Buffer.sol\":2955:2982  require(len <= data.length) */\n      tag_316\n      jumpi\n      0x00\n      dup1\n      revert\n    tag_316:\n        /* \"@chainlink/contracts/src/v0.8/vendor/@ensdomains/buffer/v0.1.0/Buffer.sol\":2993:3001  uint off */\n      0x00\n        /* \"@chainlink/contracts/src/v0.8/vendor/@ensdomains/buffer/v0.1.0/Buffer.sol\":3004:3007  buf */\n      dup5\n        /* \"@chainlink/contracts/src/v0.8/vendor/@ensdomains/buffer/v0.1.0/Buffer.sol\":3004:3011  buf.buf */\n      0x00\n      add\n      mload\n        /* \"@chainlink/contracts/src/v0.8/vendor/@ensdomains/buffer/v0.1.0/Buffer.sol\":3004:3018  buf.buf.length */\n      mload\n        /* \"@chainlink/contracts/src/v0.8/vendor/@ensdomains/buffer/v0.1.0/Buffer.sol\":2993:3018  uint off = buf.buf.length */\n      swap1\n      pop\n        /* \"@chainlink/contracts/src/v0.8/vendor/@ensdomains/buffer/v0.1.0/Buffer.sol\":3028:3044  uint newCapacity */\n      0x00\n        /* \"@chainlink/contracts/src/v0.8/vendor/@ensdomains/buffer/v0.1.0/Buffer.sol\":3053:3056  len */\n      dup4\n        /* \"@chainlink/contracts/src/v0.8/vendor/@ensdomains/buffer/v0.1.0/Buffer.sol\":3047:3050  off */\n      dup3\n        /* \"@chainlink/contracts/src/v0.8/vendor/@ensdomains/buffer/v0.1.0/Buffer.sol\":3047:3056  off + len */\n      tag_317\n      swap2\n      swap1\n      tag_254\n      jump\t// in\n    tag_317:\n        /* \"@chainlink/contracts/src/v0.8/vendor/@ensdomains/buffer/v0.1.0/Buffer.sol\":3028:3056  uint newCapacity = off + len */\n      swap1\n      pop\n        /* \"@chainlink/contracts/src/v0.8/vendor/@ensdomains/buffer/v0.1.0/Buffer.sol\":3084:3087  buf */\n      dup6\n        /* \"@chainlink/contracts/src/v0.8/vendor/@ensdomains/buffer/v0.1.0/Buffer.sol\":3084:3096  buf.capacity */\n      0x20\n      add\n      mload\n        /* \"@chainlink/contracts/src/v0.8/vendor/@ensdomains/buffer/v0.1.0/Buffer.sol\":3070:3081  newCapacity */\n      dup2\n        /* \"@chainlink/contracts/src/v0.8/vendor/@ensdomains/buffer/v0.1.0/Buffer.sol\":3070:3096  newCapacity > buf.capacity */\n      gt\n        /* \"@chainlink/contracts/src/v0.8/vendor/@ensdomains/buffer/v0.1.0/Buffer.sol\":3066:3151  if (newCapacity > buf.capacity) {... */\n      iszero\n      tag_318\n      jumpi\n        /* \"@chainlink/contracts/src/v0.8/vendor/@ensdomains/buffer/v0.1.0/Buffer.sol\":3112:3140  resize(buf, newCapacity * 2) */\n      tag_319\n        /* \"@chainlink/contracts/src/v0.8/vendor/@ensdomains/buffer/v0.1.0/Buffer.sol\":3119:3122  buf */\n      dup7\n        /* \"@chainlink/contracts/src/v0.8/vendor/@ensdomains/buffer/v0.1.0/Buffer.sol\":3138:3139  2 */\n      0x02\n        /* \"@chainlink/contracts/src/v0.8/vendor/@ensdomains/buffer/v0.1.0/Buffer.sol\":3124:3135  newCapacity */\n      dup4\n        /* \"@chainlink/contracts/src/v0.8/vendor/@ensdomains/buffer/v0.1.0/Buffer.sol\":3124:3139  newCapacity * 2 */\n      tag_320\n      swap2\n      swap1\n      tag_97\n      jump\t// in\n    tag_320:\n        /* \"@chainlink/contracts/src/v0.8/vendor/@ensdomains/buffer/v0.1.0/Buffer.sol\":3112:3118  resize */\n      tag_300\n        /* \"@chainlink/contracts/src/v0.8/vendor/@ensdomains/buffer/v0.1.0/Buffer.sol\":3112:3140  resize(buf, newCapacity * 2) */\n      jump\t// in\n    tag_319:\n        /* \"@chainlink/contracts/src/v0.8/vendor/@ensdomains/buffer/v0.1.0/Buffer.sol\":3066:3151  if (newCapacity > buf.capacity) {... */\n    tag_318:\n        /* \"@chainlink/contracts/src/v0.8/vendor/@ensdomains/buffer/v0.1.0/Buffer.sol\":3161:3170  uint dest */\n      0x00\n        /* \"@chainlink/contracts/src/v0.8/vendor/@ensdomains/buffer/v0.1.0/Buffer.sol\":3180:3188  uint src */\n      dup1\n        /* \"@chainlink/contracts/src/v0.8/vendor/@ensdomains/buffer/v0.1.0/Buffer.sol\":3290:3293  buf */\n      dup8\n        /* \"@chainlink/contracts/src/v0.8/vendor/@ensdomains/buffer/v0.1.0/Buffer.sol\":3284:3294  mload(buf) */\n      mload\n        /* \"@chainlink/contracts/src/v0.8/vendor/@ensdomains/buffer/v0.1.0/Buffer.sol\":3373:3379  bufptr */\n      dup1\n        /* \"@chainlink/contracts/src/v0.8/vendor/@ensdomains/buffer/v0.1.0/Buffer.sol\":3367:3380  mload(bufptr) */\n      mload\n        /* \"@chainlink/contracts/src/v0.8/vendor/@ensdomains/buffer/v0.1.0/Buffer.sol\":3501:3504  off */\n      dup6\n        /* \"@chainlink/contracts/src/v0.8/vendor/@ensdomains/buffer/v0.1.0/Buffer.sol\":3496:3498  32 */\n      0x20\n        /* \"@chainlink/contracts/src/v0.8/vendor/@ensdomains/buffer/v0.1.0/Buffer.sol\":3488:3494  bufptr */\n      dup4\n        /* \"@chainlink/contracts/src/v0.8/vendor/@ensdomains/buffer/v0.1.0/Buffer.sol\":3484:3499  add(bufptr, 32) */\n      add\n        /* \"@chainlink/contracts/src/v0.8/vendor/@ensdomains/buffer/v0.1.0/Buffer.sol\":3480:3505  add(add(bufptr, 32), off) */\n      add\n        /* \"@chainlink/contracts/src/v0.8/vendor/@ensdomains/buffer/v0.1.0/Buffer.sol\":3472:3505  dest := add(add(bufptr, 32), off) */\n      swap4\n      pop\n        /* \"@chainlink/contracts/src/v0.8/vendor/@ensdomains/buffer/v0.1.0/Buffer.sol\":3595:3601  buflen */\n      dup1\n        /* \"@chainlink/contracts/src/v0.8/vendor/@ensdomains/buffer/v0.1.0/Buffer.sol\":3582:3593  newCapacity */\n      dup6\n        /* \"@chainlink/contracts/src/v0.8/vendor/@ensdomains/buffer/v0.1.0/Buffer.sol\":3579:3602  gt(newCapacity, buflen) */\n      gt\n        /* \"@chainlink/contracts/src/v0.8/vendor/@ensdomains/buffer/v0.1.0/Buffer.sol\":3576:3662  if gt(newCapacity, buflen) {... */\n      iszero\n      tag_321\n      jumpi\n        /* \"@chainlink/contracts/src/v0.8/vendor/@ensdomains/buffer/v0.1.0/Buffer.sol\":3636:3647  newCapacity */\n      dup5\n        /* \"@chainlink/contracts/src/v0.8/vendor/@ensdomains/buffer/v0.1.0/Buffer.sol\":3628:3634  bufptr */\n      dup3\n        /* \"@chainlink/contracts/src/v0.8/vendor/@ensdomains/buffer/v0.1.0/Buffer.sol\":3621:3648  mstore(bufptr, newCapacity) */\n      mstore\n        /* \"@chainlink/contracts/src/v0.8/vendor/@ensdomains/buffer/v0.1.0/Buffer.sol\":3576:3662  if gt(newCapacity, buflen) {... */\n    tag_321:\n        /* \"@chainlink/contracts/src/v0.8/vendor/@ensdomains/buffer/v0.1.0/Buffer.sol\":3692:3694  32 */\n      0x20\n        /* \"@chainlink/contracts/src/v0.8/vendor/@ensdomains/buffer/v0.1.0/Buffer.sol\":3686:3690  data */\n      dup10\n        /* \"@chainlink/contracts/src/v0.8/vendor/@ensdomains/buffer/v0.1.0/Buffer.sol\":3682:3695  add(data, 32) */\n      add\n        /* \"@chainlink/contracts/src/v0.8/vendor/@ensdomains/buffer/v0.1.0/Buffer.sol\":3675:3695  src := add(data, 32) */\n      swap3\n      pop\n        /* \"@chainlink/contracts/src/v0.8/vendor/@ensdomains/buffer/v0.1.0/Buffer.sol\":3207:3705  {... */\n      pop\n      pop\n        /* \"@chainlink/contracts/src/v0.8/vendor/@ensdomains/buffer/v0.1.0/Buffer.sol\":3765:3930  for (; len >= 32; len -= 32) {... */\n    tag_322:\n        /* \"@chainlink/contracts/src/v0.8/vendor/@ensdomains/buffer/v0.1.0/Buffer.sol\":3779:3781  32 */\n      0x20\n        /* \"@chainlink/contracts/src/v0.8/vendor/@ensdomains/buffer/v0.1.0/Buffer.sol\":3772:3775  len */\n      dup7\n        /* \"@chainlink/contracts/src/v0.8/vendor/@ensdomains/buffer/v0.1.0/Buffer.sol\":3772:3781  len >= 32 */\n      lt\n        /* \"@chainlink/contracts/src/v0.8/vendor/@ensdomains/buffer/v0.1.0/Buffer.sol\":3765:3930  for (; len >= 32; len -= 32) {... */\n      tag_323\n      jumpi\n        /* \"@chainlink/contracts/src/v0.8/vendor/@ensdomains/buffer/v0.1.0/Buffer.sol\":3854:3857  src */\n      dup1\n        /* \"@chainlink/contracts/src/v0.8/vendor/@ensdomains/buffer/v0.1.0/Buffer.sol\":3848:3858  mload(src) */\n      mload\n        /* \"@chainlink/contracts/src/v0.8/vendor/@ensdomains/buffer/v0.1.0/Buffer.sol\":3842:3846  dest */\n      dup3\n        /* \"@chainlink/contracts/src/v0.8/vendor/@ensdomains/buffer/v0.1.0/Buffer.sol\":3835:3859  mstore(dest, mload(src)) */\n      mstore\n        /* \"@chainlink/contracts/src/v0.8/vendor/@ensdomains/buffer/v0.1.0/Buffer.sol\":3894:3896  32 */\n      0x20\n        /* \"@chainlink/contracts/src/v0.8/vendor/@ensdomains/buffer/v0.1.0/Buffer.sol\":3886:3896  dest += 32 */\n      dup3\n      tag_325\n      swap2\n      swap1\n      tag_254\n      jump\t// in\n    tag_325:\n      swap2\n      pop\n        /* \"@chainlink/contracts/src/v0.8/vendor/@ensdomains/buffer/v0.1.0/Buffer.sol\":3917:3919  32 */\n      0x20\n        /* \"@chainlink/contracts/src/v0.8/vendor/@ensdomains/buffer/v0.1.0/Buffer.sol\":3910:3919  src += 32 */\n      dup2\n      tag_326\n      swap2\n      swap1\n      tag_254\n      jump\t// in\n    tag_326:\n      swap1\n      pop\n        /* \"@chainlink/contracts/src/v0.8/vendor/@ensdomains/buffer/v0.1.0/Buffer.sol\":3790:3792  32 */\n      0x20\n        /* \"@chainlink/contracts/src/v0.8/vendor/@ensdomains/buffer/v0.1.0/Buffer.sol\":3783:3792  len -= 32 */\n      dup7\n      tag_327\n      swap2\n      swap1\n      tag_109\n      jump\t// in\n    tag_327:\n      swap6\n      pop\n        /* \"@chainlink/contracts/src/v0.8/vendor/@ensdomains/buffer/v0.1.0/Buffer.sol\":3765:3930  for (; len >= 32; len -= 32) {... */\n      jump(tag_322)\n    tag_323:\n        /* \"@chainlink/contracts/src/v0.8/vendor/@ensdomains/buffer/v0.1.0/Buffer.sol\":3996:4005  uint mask */\n      0x00\n        /* \"@chainlink/contracts/src/v0.8/vendor/@ensdomains/buffer/v0.1.0/Buffer.sol\":4030:4031  1 */\n      0x01\n        /* \"@chainlink/contracts/src/v0.8/vendor/@ensdomains/buffer/v0.1.0/Buffer.sol\":4022:4025  len */\n      dup8\n        /* \"@chainlink/contracts/src/v0.8/vendor/@ensdomains/buffer/v0.1.0/Buffer.sol\":4017:4019  32 */\n      0x20\n        /* \"@chainlink/contracts/src/v0.8/vendor/@ensdomains/buffer/v0.1.0/Buffer.sol\":4017:4025  32 - len */\n      sub\n        /* \"@chainlink/contracts/src/v0.8/vendor/@ensdomains/buffer/v0.1.0/Buffer.sol\":4009:4012  256 */\n      0x0100\n        /* \"@chainlink/contracts/src/v0.8/vendor/@ensdomains/buffer/v0.1.0/Buffer.sol\":4009:4026  256 ** (32 - len) */\n      exp\n        /* \"@chainlink/contracts/src/v0.8/vendor/@ensdomains/buffer/v0.1.0/Buffer.sol\":4008:4031  (256 ** (32 - len)) - 1 */\n      sub\n        /* \"@chainlink/contracts/src/v0.8/vendor/@ensdomains/buffer/v0.1.0/Buffer.sol\":3996:4031  uint mask = (256 ** (32 - len)) - 1 */\n      swap1\n      pop\n        /* \"@chainlink/contracts/src/v0.8/vendor/@ensdomains/buffer/v0.1.0/Buffer.sol\":4107:4111  mask */\n      dup1\n        /* \"@chainlink/contracts/src/v0.8/vendor/@ensdomains/buffer/v0.1.0/Buffer.sol\":4103:4112  not(mask) */\n      not\n        /* \"@chainlink/contracts/src/v0.8/vendor/@ensdomains/buffer/v0.1.0/Buffer.sol\":4097:4100  src */\n      dup3\n        /* \"@chainlink/contracts/src/v0.8/vendor/@ensdomains/buffer/v0.1.0/Buffer.sol\":4091:4101  mload(src) */\n      mload\n        /* \"@chainlink/contracts/src/v0.8/vendor/@ensdomains/buffer/v0.1.0/Buffer.sol\":4087:4113  and(mload(src), not(mask)) */\n      and\n        /* \"@chainlink/contracts/src/v0.8/vendor/@ensdomains/buffer/v0.1.0/Buffer.sol\":4163:4167  mask */\n      dup2\n        /* \"@chainlink/contracts/src/v0.8/vendor/@ensdomains/buffer/v0.1.0/Buffer.sol\":4156:4160  dest */\n      dup5\n        /* \"@chainlink/contracts/src/v0.8/vendor/@ensdomains/buffer/v0.1.0/Buffer.sol\":4150:4161  mload(dest) */\n      mload\n        /* \"@chainlink/contracts/src/v0.8/vendor/@ensdomains/buffer/v0.1.0/Buffer.sol\":4146:4168  and(mload(dest), mask) */\n      and\n        /* \"@chainlink/contracts/src/v0.8/vendor/@ensdomains/buffer/v0.1.0/Buffer.sol\":4211:4218  srcpart */\n      dup2\n        /* \"@chainlink/contracts/src/v0.8/vendor/@ensdomains/buffer/v0.1.0/Buffer.sol\":4201:4209  destpart */\n      dup2\n        /* \"@chainlink/contracts/src/v0.8/vendor/@ensdomains/buffer/v0.1.0/Buffer.sol\":4198:4219  or(destpart, srcpart) */\n      or\n        /* \"@chainlink/contracts/src/v0.8/vendor/@ensdomains/buffer/v0.1.0/Buffer.sol\":4192:4196  dest */\n      dup6\n        /* \"@chainlink/contracts/src/v0.8/vendor/@ensdomains/buffer/v0.1.0/Buffer.sol\":4185:4220  mstore(dest, or(destpart, srcpart)) */\n      mstore\n        /* \"@chainlink/contracts/src/v0.8/vendor/@ensdomains/buffer/v0.1.0/Buffer.sol\":4054:4234  {... */\n      pop\n      pop\n      pop\n        /* \"@chainlink/contracts/src/v0.8/vendor/@ensdomains/buffer/v0.1.0/Buffer.sol\":4261:4264  buf */\n      dup8\n        /* \"@chainlink/contracts/src/v0.8/vendor/@ensdomains/buffer/v0.1.0/Buffer.sol\":4254:4264  return buf */\n      swap5\n      pop\n      pop\n      pop\n      pop\n      pop\n        /* \"@chainlink/contracts/src/v0.8/vendor/@ensdomains/buffer/v0.1.0/Buffer.sol\":2844:4271  function append(buffer memory buf, bytes memory data, uint len) internal pure returns(buffer memory) {... */\n      swap4\n      swap3\n      pop\n      pop\n      pop\n      jump\t// out\n        /* \"@chainlink/contracts/src/v0.8/vendor/@ensdomains/buffer/v0.1.0/Buffer.sol\":2004:2171  function resize(buffer memory buf, uint capacity) private pure {... */\n    tag_300:\n        /* \"@chainlink/contracts/src/v0.8/vendor/@ensdomains/buffer/v0.1.0/Buffer.sol\":2077:2096  bytes memory oldbuf */\n      0x00\n        /* \"@chainlink/contracts/src/v0.8/vendor/@ensdomains/buffer/v0.1.0/Buffer.sol\":2099:2102  buf */\n      dup3\n        /* \"@chainlink/contracts/src/v0.8/vendor/@ensdomains/buffer/v0.1.0/Buffer.sol\":2099:2106  buf.buf */\n      0x00\n      add\n      mload\n        /* \"@chainlink/contracts/src/v0.8/vendor/@ensdomains/buffer/v0.1.0/Buffer.sol\":2077:2106  bytes memory oldbuf = buf.buf */\n      swap1\n      pop\n        /* \"@chainlink/contracts/src/v0.8/vendor/@ensdomains/buffer/v0.1.0/Buffer.sol\":2116:2135  init(buf, capacity) */\n      tag_329\n        /* \"@chainlink/contracts/src/v0.8/vendor/@ensdomains/buffer/v0.1.0/Buffer.sol\":2121:2124  buf */\n      dup4\n        /* \"@chainlink/contracts/src/v0.8/vendor/@ensdomains/buffer/v0.1.0/Buffer.sol\":2126:2134  capacity */\n      dup4\n        /* \"@chainlink/contracts/src/v0.8/vendor/@ensdomains/buffer/v0.1.0/Buffer.sol\":2116:2120  init */\n      tag_239\n        /* \"@chainlink/contracts/src/v0.8/vendor/@ensdomains/buffer/v0.1.0/Buffer.sol\":2116:2135  init(buf, capacity) */\n      jump\t// in\n    tag_329:\n      pop\n        /* \"@chainlink/contracts/src/v0.8/vendor/@ensdomains/buffer/v0.1.0/Buffer.sol\":2145:2164  append(buf, oldbuf) */\n      tag_330\n        /* \"@chainlink/contracts/src/v0.8/vendor/@ensdomains/buffer/v0.1.0/Buffer.sol\":2152:2155  buf */\n      dup4\n        /* \"@chainlink/contracts/src/v0.8/vendor/@ensdomains/buffer/v0.1.0/Buffer.sol\":2157:2163  oldbuf */\n      dup3\n        /* \"@chainlink/contracts/src/v0.8/vendor/@ensdomains/buffer/v0.1.0/Buffer.sol\":2145:2151  append */\n      tag_244\n        /* \"@chainlink/contracts/src/v0.8/vendor/@ensdomains/buffer/v0.1.0/Buffer.sol\":2145:2164  append(buf, oldbuf) */\n      jump\t// in\n    tag_330:\n      pop\n        /* \"@chainlink/contracts/src/v0.8/vendor/@ensdomains/buffer/v0.1.0/Buffer.sol\":2067:2171  {... */\n      pop\n        /* \"@chainlink/contracts/src/v0.8/vendor/@ensdomains/buffer/v0.1.0/Buffer.sol\":2004:2171  function resize(buffer memory buf, uint capacity) private pure {... */\n      pop\n      pop\n      jump\t// out\n    tag_121:\n      mload(0x40)\n      dup1\n      0xe0\n      add\n      0x40\n      mstore\n      dup1\n      0x00\n      0x02\n      dup2\n      gt\n      iszero\n      tag_331\n      jumpi\n      tag_332\n      tag_167\n      jump\t// in\n    tag_332:\n    tag_331:\n      dup2\n      mstore\n      0x20\n      add\n      0x00\n      0x02\n      dup2\n      gt\n      iszero\n      tag_333\n      jumpi\n      tag_334\n      tag_167\n      jump\t// in\n    tag_334:\n    tag_333:\n      dup2\n      mstore\n      0x20\n      add\n      0x00\n      dup1\n      dup2\n      gt\n      iszero\n      tag_335\n      jumpi\n      tag_336\n      tag_167\n      jump\t// in\n    tag_336:\n    tag_335:\n      dup2\n      mstore\n      0x20\n      add\n      0x60\n      dup2\n      mstore\n      0x20\n      add\n      0x60\n      dup2\n      mstore\n      0x20\n      add\n      0x60\n      dup2\n      mstore\n      0x20\n      add\n      0x60\n      dup2\n      mstore\n      pop\n      swap1\n      jump\t// out\n    tag_236:\n      mload(0x40)\n      dup1\n      0x40\n      add\n      0x40\n      mstore\n      dup1\n      tag_337\n      tag_262\n      jump\t// in\n    tag_337:\n      dup2\n      mstore\n      0x20\n      add\n      0x00\n      dup2\n      mstore\n      pop\n      swap1\n      jump\t// out\n    tag_262:\n      mload(0x40)\n      dup1\n      0x40\n      add\n      0x40\n      mstore\n      dup1\n      0x60\n      dup2\n      mstore\n      0x20\n      add\n      0x00\n      dup2\n      mstore\n      pop\n      swap1\n      jump\t// out\n        /* \"#utility.yul\":7:82   */\n    tag_338:\n        /* \"#utility.yul\":40:46   */\n      0x00\n        /* \"#utility.yul\":73:75   */\n      0x40\n        /* \"#utility.yul\":67:76   */\n      mload\n        /* \"#utility.yul\":57:76   */\n      swap1\n      pop\n        /* \"#utility.yul\":7:82   */\n      swap1\n      jump\t// out\n        /* \"#utility.yul\":88:205   */\n    tag_339:\n        /* \"#utility.yul\":197:198   */\n      0x00\n        /* \"#utility.yul\":194:195   */\n      dup1\n        /* \"#utility.yul\":187:199   */\n      revert\n        /* \"#utility.yul\":211:328   */\n    tag_340:\n        /* \"#utility.yul\":320:321   */\n      0x00\n        /* \"#utility.yul\":317:318   */\n      dup1\n        /* \"#utility.yul\":310:322   */\n      revert\n        /* \"#utility.yul\":334:411   */\n    tag_341:\n        /* \"#utility.yul\":371:378   */\n      0x00\n        /* \"#utility.yul\":400:405   */\n      dup2\n        /* \"#utility.yul\":389:405   */\n      swap1\n      pop\n        /* \"#utility.yul\":334:411   */\n      swap2\n      swap1\n      pop\n      jump\t// out\n        /* \"#utility.yul\":417:539   */\n    tag_342:\n        /* \"#utility.yul\":490:514   */\n      tag_405\n        /* \"#utility.yul\":508:513   */\n      dup2\n        /* \"#utility.yul\":490:514   */\n      tag_341\n      jump\t// in\n    tag_405:\n        /* \"#utility.yul\":483:488   */\n      dup2\n        /* \"#utility.yul\":480:515   */\n      eq\n        /* \"#utility.yul\":470:533   */\n      tag_406\n      jumpi\n        /* \"#utility.yul\":529:530   */\n      0x00\n        /* \"#utility.yul\":526:527   */\n      dup1\n        /* \"#utility.yul\":519:531   */\n      revert\n        /* \"#utility.yul\":470:533   */\n    tag_406:\n        /* \"#utility.yul\":417:539   */\n      pop\n      jump\t// out\n        /* \"#utility.yul\":545:684   */\n    tag_343:\n        /* \"#utility.yul\":591:596   */\n      0x00\n        /* \"#utility.yul\":629:635   */\n      dup2\n        /* \"#utility.yul\":616:636   */\n      calldataload\n        /* \"#utility.yul\":607:636   */\n      swap1\n      pop\n        /* \"#utility.yul\":645:678   */\n      tag_408\n        /* \"#utility.yul\":672:677   */\n      dup2\n        /* \"#utility.yul\":645:678   */\n      tag_342\n      jump\t// in\n    tag_408:\n        /* \"#utility.yul\":545:684   */\n      swap3\n      swap2\n      pop\n      pop\n      jump\t// out\n        /* \"#utility.yul\":690:1019   */\n    tag_26:\n        /* \"#utility.yul\":749:755   */\n      0x00\n        /* \"#utility.yul\":798:800   */\n      0x20\n        /* \"#utility.yul\":786:795   */\n      dup3\n        /* \"#utility.yul\":777:784   */\n      dup5\n        /* \"#utility.yul\":773:796   */\n      sub\n        /* \"#utility.yul\":769:801   */\n      slt\n        /* \"#utility.yul\":766:885   */\n      iszero\n      tag_410\n      jumpi\n        /* \"#utility.yul\":804:883   */\n      tag_411\n      tag_339\n      jump\t// in\n    tag_411:\n        /* \"#utility.yul\":766:885   */\n    tag_410:\n        /* \"#utility.yul\":924:925   */\n      0x00\n        /* \"#utility.yul\":949:1002   */\n      tag_412\n        /* \"#utility.yul\":994:1001   */\n      dup5\n        /* \"#utility.yul\":985:991   */\n      dup3\n        /* \"#utility.yul\":974:983   */\n      dup6\n        /* \"#utility.yul\":970:992   */\n      add\n        /* \"#utility.yul\":949:1002   */\n      tag_343\n      jump\t// in\n    tag_412:\n        /* \"#utility.yul\":939:1002   */\n      swap2\n      pop\n        /* \"#utility.yul\":895:1012   */\n      pop\n        /* \"#utility.yul\":690:1019   */\n      swap3\n      swap2\n      pop\n      pop\n      jump\t// out\n        /* \"#utility.yul\":1025:1126   */\n    tag_344:\n        /* \"#utility.yul\":1061:1068   */\n      0x00\n        /* \"#utility.yul\":1101:1119   */\n      0xffffffffffffffff\n        /* \"#utility.yul\":1094:1099   */\n      dup3\n        /* \"#utility.yul\":1090:1120   */\n      and\n        /* \"#utility.yul\":1079:1120   */\n      swap1\n      pop\n        /* \"#utility.yul\":1025:1126   */\n      swap2\n      swap1\n      pop\n      jump\t// out\n        /* \"#utility.yul\":1132:1247   */\n    tag_345:\n        /* \"#utility.yul\":1217:1240   */\n      tag_415\n        /* \"#utility.yul\":1234:1239   */\n      dup2\n        /* \"#utility.yul\":1217:1240   */\n      tag_344\n      jump\t// in\n    tag_415:\n        /* \"#utility.yul\":1212:1215   */\n      dup3\n        /* \"#utility.yul\":1205:1241   */\n      mstore\n        /* \"#utility.yul\":1132:1247   */\n      pop\n      pop\n      jump\t// out\n        /* \"#utility.yul\":1253:1471   */\n    tag_31:\n        /* \"#utility.yul\":1344:1348   */\n      0x00\n        /* \"#utility.yul\":1382:1384   */\n      0x20\n        /* \"#utility.yul\":1371:1380   */\n      dup3\n        /* \"#utility.yul\":1367:1385   */\n      add\n        /* \"#utility.yul\":1359:1385   */\n      swap1\n      pop\n        /* \"#utility.yul\":1395:1464   */\n      tag_417\n        /* \"#utility.yul\":1461:1462   */\n      0x00\n        /* \"#utility.yul\":1450:1459   */\n      dup4\n        /* \"#utility.yul\":1446:1463   */\n      add\n        /* \"#utility.yul\":1437:1443   */\n      dup5\n        /* \"#utility.yul\":1395:1464   */\n      tag_345\n      jump\t// in\n    tag_417:\n        /* \"#utility.yul\":1253:1471   */\n      swap3\n      swap2\n      pop\n      pop\n      jump\t// out\n        /* \"#utility.yul\":1477:1554   */\n    tag_346:\n        /* \"#utility.yul\":1514:1521   */\n      0x00\n        /* \"#utility.yul\":1543:1548   */\n      dup2\n        /* \"#utility.yul\":1532:1548   */\n      swap1\n      pop\n        /* \"#utility.yul\":1477:1554   */\n      swap2\n      swap1\n      pop\n      jump\t// out\n        /* \"#utility.yul\":1560:1682   */\n    tag_347:\n        /* \"#utility.yul\":1633:1657   */\n      tag_420\n        /* \"#utility.yul\":1651:1656   */\n      dup2\n        /* \"#utility.yul\":1633:1657   */\n      tag_346\n      jump\t// in\n    tag_420:\n        /* \"#utility.yul\":1626:1631   */\n      dup2\n        /* \"#utility.yul\":1623:1658   */\n      eq\n        /* \"#utility.yul\":1613:1676   */\n      tag_421\n      jumpi\n        /* \"#utility.yul\":1672:1673   */\n      0x00\n        /* \"#utility.yul\":1669:1670   */\n      dup1\n        /* \"#utility.yul\":1662:1674   */\n      revert\n        /* \"#utility.yul\":1613:1676   */\n    tag_421:\n        /* \"#utility.yul\":1560:1682   */\n      pop\n      jump\t// out\n        /* \"#utility.yul\":1688:1827   */\n    tag_348:\n        /* \"#utility.yul\":1734:1739   */\n      0x00\n        /* \"#utility.yul\":1772:1778   */\n      dup2\n        /* \"#utility.yul\":1759:1779   */\n      calldataload\n        /* \"#utility.yul\":1750:1779   */\n      swap1\n      pop\n        /* \"#utility.yul\":1788:1821   */\n      tag_423\n        /* \"#utility.yul\":1815:1820   */\n      dup2\n        /* \"#utility.yul\":1788:1821   */\n      tag_347\n      jump\t// in\n    tag_423:\n        /* \"#utility.yul\":1688:1827   */\n      swap3\n      swap2\n      pop\n      pop\n      jump\t// out\n        /* \"#utility.yul\":1833:1950   */\n    tag_349:\n        /* \"#utility.yul\":1942:1943   */\n      0x00\n        /* \"#utility.yul\":1939:1940   */\n      dup1\n        /* \"#utility.yul\":1932:1944   */\n      revert\n        /* \"#utility.yul\":1956:2073   */\n    tag_350:\n        /* \"#utility.yul\":2065:2066   */\n      0x00\n        /* \"#utility.yul\":2062:2063   */\n      dup1\n        /* \"#utility.yul\":2055:2067   */\n      revert\n        /* \"#utility.yul\":2079:2181   */\n    tag_351:\n        /* \"#utility.yul\":2120:2126   */\n      0x00\n        /* \"#utility.yul\":2171:2173   */\n      0x1f\n        /* \"#utility.yul\":2167:2174   */\n      not\n        /* \"#utility.yul\":2162:2164   */\n      0x1f\n        /* \"#utility.yul\":2155:2160   */\n      dup4\n        /* \"#utility.yul\":2151:2165   */\n      add\n        /* \"#utility.yul\":2147:2175   */\n      and\n        /* \"#utility.yul\":2137:2175   */\n      swap1\n      pop\n        /* \"#utility.yul\":2079:2181   */\n      swap2\n      swap1\n      pop\n      jump\t// out\n        /* \"#utility.yul\":2187:2367   */\n    tag_352:\n        /* \"#utility.yul\":2235:2312   */\n      0x4e487b7100000000000000000000000000000000000000000000000000000000\n        /* \"#utility.yul\":2232:2233   */\n      0x00\n        /* \"#utility.yul\":2225:2313   */\n      mstore\n        /* \"#utility.yul\":2332:2336   */\n      0x41\n        /* \"#utility.yul\":2329:2330   */\n      0x04\n        /* \"#utility.yul\":2322:2337   */\n      mstore\n        /* \"#utility.yul\":2356:2360   */\n      0x24\n        /* \"#utility.yul\":2353:2354   */\n      0x00\n        /* \"#utility.yul\":2346:2361   */\n      revert\n        /* \"#utility.yul\":2373:2654   */\n    tag_353:\n        /* \"#utility.yul\":2456:2483   */\n      tag_429\n        /* \"#utility.yul\":2478:2482   */\n      dup3\n        /* \"#utility.yul\":2456:2483   */\n      tag_351\n      jump\t// in\n    tag_429:\n        /* \"#utility.yul\":2448:2454   */\n      dup2\n        /* \"#utility.yul\":2444:2484   */\n      add\n        /* \"#utility.yul\":2586:2592   */\n      dup2\n        /* \"#utility.yul\":2574:2584   */\n      dup2\n        /* \"#utility.yul\":2571:2593   */\n      lt\n        /* \"#utility.yul\":2550:2568   */\n      0xffffffffffffffff\n        /* \"#utility.yul\":2538:2548   */\n      dup3\n        /* \"#utility.yul\":2535:2569   */\n      gt\n        /* \"#utility.yul\":2532:2594   */\n      or\n        /* \"#utility.yul\":2529:2617   */\n      iszero\n      tag_430\n      jumpi\n        /* \"#utility.yul\":2597:2615   */\n      tag_431\n      tag_352\n      jump\t// in\n    tag_431:\n        /* \"#utility.yul\":2529:2617   */\n    tag_430:\n        /* \"#utility.yul\":2637:2647   */\n      dup1\n        /* \"#utility.yul\":2633:2635   */\n      0x40\n        /* \"#utility.yul\":2626:2648   */\n      mstore\n        /* \"#utility.yul\":2416:2654   */\n      pop\n        /* \"#utility.yul\":2373:2654   */\n      pop\n      pop\n      jump\t// out\n        /* \"#utility.yul\":2660:2789   */\n    tag_354:\n        /* \"#utility.yul\":2694:2700   */\n      0x00\n        /* \"#utility.yul\":2721:2741   */\n      tag_433\n      tag_338\n      jump\t// in\n    tag_433:\n        /* \"#utility.yul\":2711:2741   */\n      swap1\n      pop\n        /* \"#utility.yul\":2750:2783   */\n      tag_434\n        /* \"#utility.yul\":2778:2782   */\n      dup3\n        /* \"#utility.yul\":2770:2776   */\n      dup3\n        /* \"#utility.yul\":2750:2783   */\n      tag_353\n      jump\t// in\n    tag_434:\n        /* \"#utility.yul\":2660:2789   */\n      swap2\n      swap1\n      pop\n      jump\t// out\n        /* \"#utility.yul\":2795:3102   */\n    tag_355:\n        /* \"#utility.yul\":2856:2860   */\n      0x00\n        /* \"#utility.yul\":2946:2964   */\n      0xffffffffffffffff\n        /* \"#utility.yul\":2938:2944   */\n      dup3\n        /* \"#utility.yul\":2935:2965   */\n      gt\n        /* \"#utility.yul\":2932:2988   */\n      iszero\n      tag_436\n      jumpi\n        /* \"#utility.yul\":2968:2986   */\n      tag_437\n      tag_352\n      jump\t// in\n    tag_437:\n        /* \"#utility.yul\":2932:2988   */\n    tag_436:\n        /* \"#utility.yul\":3006:3035   */\n      tag_438\n        /* \"#utility.yul\":3028:3034   */\n      dup3\n        /* \"#utility.yul\":3006:3035   */\n      tag_351\n      jump\t// in\n    tag_438:\n        /* \"#utility.yul\":2998:3035   */\n      swap1\n      pop\n        /* \"#utility.yul\":3090:3094   */\n      0x20\n        /* \"#utility.yul\":3084:3088   */\n      dup2\n        /* \"#utility.yul\":3080:3095   */\n      add\n        /* \"#utility.yul\":3072:3095   */\n      swap1\n      pop\n        /* \"#utility.yul\":2795:3102   */\n      swap2\n      swap1\n      pop\n      jump\t// out\n        /* \"#utility.yul\":3108:3254   */\n    tag_356:\n        /* \"#utility.yul\":3205:3211   */\n      dup3\n        /* \"#utility.yul\":3200:3203   */\n      dup2\n        /* \"#utility.yul\":3195:3198   */\n      dup4\n        /* \"#utility.yul\":3182:3212   */\n      calldatacopy\n        /* \"#utility.yul\":3246:3247   */\n      0x00\n        /* \"#utility.yul\":3237:3243   */\n      dup4\n        /* \"#utility.yul\":3232:3235   */\n      dup4\n        /* \"#utility.yul\":3228:3244   */\n      add\n        /* \"#utility.yul\":3221:3248   */\n      mstore\n        /* \"#utility.yul\":3108:3254   */\n      pop\n      pop\n      pop\n      jump\t// out\n        /* \"#utility.yul\":3260:3683   */\n    tag_357:\n        /* \"#utility.yul\":3337:3342   */\n      0x00\n        /* \"#utility.yul\":3362:3427   */\n      tag_441\n        /* \"#utility.yul\":3378:3426   */\n      tag_442\n        /* \"#utility.yul\":3419:3425   */\n      dup5\n        /* \"#utility.yul\":3378:3426   */\n      tag_355\n      jump\t// in\n    tag_442:\n        /* \"#utility.yul\":3362:3427   */\n      tag_354\n      jump\t// in\n    tag_441:\n        /* \"#utility.yul\":3353:3427   */\n      swap1\n      pop\n        /* \"#utility.yul\":3450:3456   */\n      dup3\n        /* \"#utility.yul\":3443:3448   */\n      dup2\n        /* \"#utility.yul\":3436:3457   */\n      mstore\n        /* \"#utility.yul\":3488:3492   */\n      0x20\n        /* \"#utility.yul\":3481:3486   */\n      dup2\n        /* \"#utility.yul\":3477:3493   */\n      add\n        /* \"#utility.yul\":3526:3529   */\n      dup5\n        /* \"#utility.yul\":3517:3523   */\n      dup5\n        /* \"#utility.yul\":3512:3515   */\n      dup5\n        /* \"#utility.yul\":3508:3524   */\n      add\n        /* \"#utility.yul\":3505:3530   */\n      gt\n        /* \"#utility.yul\":3502:3614   */\n      iszero\n      tag_443\n      jumpi\n        /* \"#utility.yul\":3533:3612   */\n      tag_444\n      tag_350\n      jump\t// in\n    tag_444:\n        /* \"#utility.yul\":3502:3614   */\n    tag_443:\n        /* \"#utility.yul\":3623:3677   */\n      tag_445\n        /* \"#utility.yul\":3670:3676   */\n      dup5\n        /* \"#utility.yul\":3665:3668   */\n      dup3\n        /* \"#utility.yul\":3660:3663   */\n      dup6\n        /* \"#utility.yul\":3623:3677   */\n      tag_356\n      jump\t// in\n    tag_445:\n        /* \"#utility.yul\":3343:3683   */\n      pop\n        /* \"#utility.yul\":3260:3683   */\n      swap4\n      swap3\n      pop\n      pop\n      pop\n      jump\t// out\n        /* \"#utility.yul\":3702:4040   */\n    tag_358:\n        /* \"#utility.yul\":3757:3762   */\n      0x00\n        /* \"#utility.yul\":3806:3809   */\n      dup3\n        /* \"#utility.yul\":3799:3803   */\n      0x1f\n        /* \"#utility.yul\":3791:3797   */\n      dup4\n        /* \"#utility.yul\":3787:3804   */\n      add\n        /* \"#utility.yul\":3783:3810   */\n      slt\n        /* \"#utility.yul\":3773:3895   */\n      tag_447\n      jumpi\n        /* \"#utility.yul\":3814:3893   */\n      tag_448\n      tag_349\n      jump\t// in\n    tag_448:\n        /* \"#utility.yul\":3773:3895   */\n    tag_447:\n        /* \"#utility.yul\":3931:3937   */\n      dup2\n        /* \"#utility.yul\":3918:3938   */\n      calldataload\n        /* \"#utility.yul\":3956:4034   */\n      tag_449\n        /* \"#utility.yul\":4030:4033   */\n      dup5\n        /* \"#utility.yul\":4022:4028   */\n      dup3\n        /* \"#utility.yul\":4015:4019   */\n      0x20\n        /* \"#utility.yul\":4007:4013   */\n      dup7\n        /* \"#utility.yul\":4003:4020   */\n      add\n        /* \"#utility.yul\":3956:4034   */\n      tag_357\n      jump\t// in\n    tag_449:\n        /* \"#utility.yul\":3947:4034   */\n      swap2\n      pop\n        /* \"#utility.yul\":3763:4040   */\n      pop\n        /* \"#utility.yul\":3702:4040   */\n      swap3\n      swap2\n      pop\n      pop\n      jump\t// out\n        /* \"#utility.yul\":4046:5021   */\n    tag_34:\n        /* \"#utility.yul\":4141:4147   */\n      0x00\n        /* \"#utility.yul\":4149:4155   */\n      dup1\n        /* \"#utility.yul\":4157:4163   */\n      0x00\n        /* \"#utility.yul\":4206:4208   */\n      0x60\n        /* \"#utility.yul\":4194:4203   */\n      dup5\n        /* \"#utility.yul\":4185:4192   */\n      dup7\n        /* \"#utility.yul\":4181:4204   */\n      sub\n        /* \"#utility.yul\":4177:4209   */\n      slt\n        /* \"#utility.yul\":4174:4293   */\n      iszero\n      tag_451\n      jumpi\n        /* \"#utility.yul\":4212:4291   */\n      tag_452\n      tag_339\n      jump\t// in\n    tag_452:\n        /* \"#utility.yul\":4174:4293   */\n    tag_451:\n        /* \"#utility.yul\":4332:4333   */\n      0x00\n        /* \"#utility.yul\":4357:4410   */\n      tag_453\n        /* \"#utility.yul\":4402:4409   */\n      dup7\n        /* \"#utility.yul\":4393:4399   */\n      dup3\n        /* \"#utility.yul\":4382:4391   */\n      dup8\n        /* \"#utility.yul\":4378:4400   */\n      add\n        /* \"#utility.yul\":4357:4410   */\n      tag_348\n      jump\t// in\n    tag_453:\n        /* \"#utility.yul\":4347:4410   */\n      swap4\n      pop\n        /* \"#utility.yul\":4303:4420   */\n      pop\n        /* \"#utility.yul\":4487:4489   */\n      0x20\n        /* \"#utility.yul\":4476:4485   */\n      dup5\n        /* \"#utility.yul\":4472:4490   */\n      add\n        /* \"#utility.yul\":4459:4491   */\n      calldataload\n        /* \"#utility.yul\":4518:4536   */\n      0xffffffffffffffff\n        /* \"#utility.yul\":4510:4516   */\n      dup2\n        /* \"#utility.yul\":4507:4537   */\n      gt\n        /* \"#utility.yul\":4504:4621   */\n      iszero\n      tag_454\n      jumpi\n        /* \"#utility.yul\":4540:4619   */\n      tag_455\n      tag_340\n      jump\t// in\n    tag_455:\n        /* \"#utility.yul\":4504:4621   */\n    tag_454:\n        /* \"#utility.yul\":4645:4707   */\n      tag_456\n        /* \"#utility.yul\":4699:4706   */\n      dup7\n        /* \"#utility.yul\":4690:4696   */\n      dup3\n        /* \"#utility.yul\":4679:4688   */\n      dup8\n        /* \"#utility.yul\":4675:4697   */\n      add\n        /* \"#utility.yul\":4645:4707   */\n      tag_358\n      jump\t// in\n    tag_456:\n        /* \"#utility.yul\":4635:4707   */\n      swap3\n      pop\n        /* \"#utility.yul\":4430:4717   */\n      pop\n        /* \"#utility.yul\":4784:4786   */\n      0x40\n        /* \"#utility.yul\":4773:4782   */\n      dup5\n        /* \"#utility.yul\":4769:4787   */\n      add\n        /* \"#utility.yul\":4756:4788   */\n      calldataload\n        /* \"#utility.yul\":4815:4833   */\n      0xffffffffffffffff\n        /* \"#utility.yul\":4807:4813   */\n      dup2\n        /* \"#utility.yul\":4804:4834   */\n      gt\n        /* \"#utility.yul\":4801:4918   */\n      iszero\n      tag_457\n      jumpi\n        /* \"#utility.yul\":4837:4916   */\n      tag_458\n      tag_340\n      jump\t// in\n    tag_458:\n        /* \"#utility.yul\":4801:4918   */\n    tag_457:\n        /* \"#utility.yul\":4942:5004   */\n      tag_459\n        /* \"#utility.yul\":4996:5003   */\n      dup7\n        /* \"#utility.yul\":4987:4993   */\n      dup3\n        /* \"#utility.yul\":4976:4985   */\n      dup8\n        /* \"#utility.yul\":4972:4994   */\n      add\n        /* \"#utility.yul\":4942:5004   */\n      tag_358\n      jump\t// in\n    tag_459:\n        /* \"#utility.yul\":4932:5004   */\n      swap2\n      pop\n        /* \"#utility.yul\":4727:5014   */\n      pop\n        /* \"#utility.yul\":4046:5021   */\n      swap3\n      pop\n      swap3\n      pop\n      swap3\n      jump\t// out\n        /* \"#utility.yul\":5027:5145   */\n    tag_359:\n        /* \"#utility.yul\":5114:5138   */\n      tag_461\n        /* \"#utility.yul\":5132:5137   */\n      dup2\n        /* \"#utility.yul\":5114:5138   */\n      tag_341\n      jump\t// in\n    tag_461:\n        /* \"#utility.yul\":5109:5112   */\n      dup3\n        /* \"#utility.yul\":5102:5139   */\n      mstore\n        /* \"#utility.yul\":5027:5145   */\n      pop\n      pop\n      jump\t// out\n        /* \"#utility.yul\":5151:5250   */\n    tag_360:\n        /* \"#utility.yul\":5203:5209   */\n      0x00\n        /* \"#utility.yul\":5237:5242   */\n      dup2\n        /* \"#utility.yul\":5231:5243   */\n      mload\n        /* \"#utility.yul\":5221:5243   */\n      swap1\n      pop\n        /* \"#utility.yul\":5151:5250   */\n      swap2\n      swap1\n      pop\n      jump\t// out\n        /* \"#utility.yul\":5256:5425   */\n    tag_361:\n        /* \"#utility.yul\":5340:5351   */\n      0x00\n        /* \"#utility.yul\":5374:5380   */\n      dup3\n        /* \"#utility.yul\":5369:5372   */\n      dup3\n        /* \"#utility.yul\":5362:5381   */\n      mstore\n        /* \"#utility.yul\":5414:5418   */\n      0x20\n        /* \"#utility.yul\":5409:5412   */\n      dup3\n        /* \"#utility.yul\":5405:5419   */\n      add\n        /* \"#utility.yul\":5390:5419   */\n      swap1\n      pop\n        /* \"#utility.yul\":5256:5425   */\n      swap3\n      swap2\n      pop\n      pop\n      jump\t// out\n        /* \"#utility.yul\":5431:5677   */\n    tag_362:\n        /* \"#utility.yul\":5512:5513   */\n      0x00\n        /* \"#utility.yul\":5522:5635   */\n    tag_465:\n        /* \"#utility.yul\":5536:5542   */\n      dup4\n        /* \"#utility.yul\":5533:5534   */\n      dup2\n        /* \"#utility.yul\":5530:5543   */\n      lt\n        /* \"#utility.yul\":5522:5635   */\n      iszero\n      tag_467\n      jumpi\n        /* \"#utility.yul\":5621:5622   */\n      dup1\n        /* \"#utility.yul\":5616:5619   */\n      dup3\n        /* \"#utility.yul\":5612:5623   */\n      add\n        /* \"#utility.yul\":5606:5624   */\n      mload\n        /* \"#utility.yul\":5602:5603   */\n      dup2\n        /* \"#utility.yul\":5597:5600   */\n      dup5\n        /* \"#utility.yul\":5593:5604   */\n      add\n        /* \"#utility.yul\":5586:5625   */\n      mstore\n        /* \"#utility.yul\":5558:5560   */\n      0x20\n        /* \"#utility.yul\":5555:5556   */\n      dup2\n        /* \"#utility.yul\":5551:5561   */\n      add\n        /* \"#utility.yul\":5546:5561   */\n      swap1\n      pop\n        /* \"#utility.yul\":5522:5635   */\n      jump(tag_465)\n    tag_467:\n        /* \"#utility.yul\":5669:5670   */\n      0x00\n        /* \"#utility.yul\":5660:5666   */\n      dup5\n        /* \"#utility.yul\":5655:5658   */\n      dup5\n        /* \"#utility.yul\":5651:5667   */\n      add\n        /* \"#utility.yul\":5644:5671   */\n      mstore\n        /* \"#utility.yul\":5493:5677   */\n      pop\n        /* \"#utility.yul\":5431:5677   */\n      pop\n      pop\n      pop\n      jump\t// out\n        /* \"#utility.yul\":5683:6060   */\n    tag_363:\n        /* \"#utility.yul\":5771:5774   */\n      0x00\n        /* \"#utility.yul\":5799:5838   */\n      tag_469\n        /* \"#utility.yul\":5832:5837   */\n      dup3\n        /* \"#utility.yul\":5799:5838   */\n      tag_360\n      jump\t// in\n    tag_469:\n        /* \"#utility.yul\":5854:5925   */\n      tag_470\n        /* \"#utility.yul\":5918:5924   */\n      dup2\n        /* \"#utility.yul\":5913:5916   */\n      dup6\n        /* \"#utility.yul\":5854:5925   */\n      tag_361\n      jump\t// in\n    tag_470:\n        /* \"#utility.yul\":5847:5925   */\n      swap4\n      pop\n        /* \"#utility.yul\":5934:5999   */\n      tag_471\n        /* \"#utility.yul\":5992:5998   */\n      dup2\n        /* \"#utility.yul\":5987:5990   */\n      dup6\n        /* \"#utility.yul\":5980:5984   */\n      0x20\n        /* \"#utility.yul\":5973:5978   */\n      dup7\n        /* \"#utility.yul\":5969:5985   */\n      add\n        /* \"#utility.yul\":5934:5999   */\n      tag_362\n      jump\t// in\n    tag_471:\n        /* \"#utility.yul\":6024:6053   */\n      tag_472\n        /* \"#utility.yul\":6046:6052   */\n      dup2\n        /* \"#utility.yul\":6024:6053   */\n      tag_351\n      jump\t// in\n    tag_472:\n        /* \"#utility.yul\":6019:6022   */\n      dup5\n        /* \"#utility.yul\":6015:6054   */\n      add\n        /* \"#utility.yul\":6008:6054   */\n      swap2\n      pop\n        /* \"#utility.yul\":5775:6060   */\n      pop\n        /* \"#utility.yul\":5683:6060   */\n      swap3\n      swap2\n      pop\n      pop\n      jump\t// out\n        /* \"#utility.yul\":6066:6710   */\n    tag_39:\n        /* \"#utility.yul\":6263:6267   */\n      0x00\n        /* \"#utility.yul\":6301:6304   */\n      0x80\n        /* \"#utility.yul\":6290:6299   */\n      dup3\n        /* \"#utility.yul\":6286:6305   */\n      add\n        /* \"#utility.yul\":6278:6305   */\n      swap1\n      pop\n        /* \"#utility.yul\":6315:6386   */\n      tag_474\n        /* \"#utility.yul\":6383:6384   */\n      0x00\n        /* \"#utility.yul\":6372:6381   */\n      dup4\n        /* \"#utility.yul\":6368:6385   */\n      add\n        /* \"#utility.yul\":6359:6365   */\n      dup8\n        /* \"#utility.yul\":6315:6386   */\n      tag_359\n      jump\t// in\n    tag_474:\n        /* \"#utility.yul\":6396:6468   */\n      tag_475\n        /* \"#utility.yul\":6464:6466   */\n      0x20\n        /* \"#utility.yul\":6453:6462   */\n      dup4\n        /* \"#utility.yul\":6449:6467   */\n      add\n        /* \"#utility.yul\":6440:6446   */\n      dup7\n        /* \"#utility.yul\":6396:6468   */\n      tag_359\n      jump\t// in\n    tag_475:\n        /* \"#utility.yul\":6478:6550   */\n      tag_476\n        /* \"#utility.yul\":6546:6548   */\n      0x40\n        /* \"#utility.yul\":6535:6544   */\n      dup4\n        /* \"#utility.yul\":6531:6549   */\n      add\n        /* \"#utility.yul\":6522:6528   */\n      dup6\n        /* \"#utility.yul\":6478:6550   */\n      tag_359\n      jump\t// in\n    tag_476:\n        /* \"#utility.yul\":6597:6606   */\n      dup2\n        /* \"#utility.yul\":6591:6595   */\n      dup2\n        /* \"#utility.yul\":6587:6607   */\n      sub\n        /* \"#utility.yul\":6582:6584   */\n      0x60\n        /* \"#utility.yul\":6571:6580   */\n      dup4\n        /* \"#utility.yul\":6567:6585   */\n      add\n        /* \"#utility.yul\":6560:6608   */\n      mstore\n        /* \"#utility.yul\":6625:6703   */\n      tag_477\n        /* \"#utility.yul\":6698:6702   */\n      dup2\n        /* \"#utility.yul\":6689:6695   */\n      dup5\n        /* \"#utility.yul\":6625:6703   */\n      tag_363\n      jump\t// in\n    tag_477:\n        /* \"#utility.yul\":6617:6703   */\n      swap1\n      pop\n        /* \"#utility.yul\":6066:6710   */\n      swap6\n      swap5\n      pop\n      pop\n      pop\n      pop\n      pop\n      jump\t// out\n        /* \"#utility.yul\":6716:6806   */\n    tag_364:\n        /* \"#utility.yul\":6750:6757   */\n      0x00\n        /* \"#utility.yul\":6793:6798   */\n      dup2\n        /* \"#utility.yul\":6786:6799   */\n      iszero\n        /* \"#utility.yul\":6779:6800   */\n      iszero\n        /* \"#utility.yul\":6768:6800   */\n      swap1\n      pop\n        /* \"#utility.yul\":6716:6806   */\n      swap2\n      swap1\n      pop\n      jump\t// out\n        /* \"#utility.yul\":6812:6921   */\n    tag_365:\n        /* \"#utility.yul\":6893:6914   */\n      tag_480\n        /* \"#utility.yul\":6908:6913   */\n      dup2\n        /* \"#utility.yul\":6893:6914   */\n      tag_364\n      jump\t// in\n    tag_480:\n        /* \"#utility.yul\":6888:6891   */\n      dup3\n        /* \"#utility.yul\":6881:6915   */\n      mstore\n        /* \"#utility.yul\":6812:6921   */\n      pop\n      pop\n      jump\t// out\n        /* \"#utility.yul\":6927:7137   */\n    tag_43:\n        /* \"#utility.yul\":7014:7018   */\n      0x00\n        /* \"#utility.yul\":7052:7054   */\n      0x20\n        /* \"#utility.yul\":7041:7050   */\n      dup3\n        /* \"#utility.yul\":7037:7055   */\n      add\n        /* \"#utility.yul\":7029:7055   */\n      swap1\n      pop\n        /* \"#utility.yul\":7065:7130   */\n      tag_482\n        /* \"#utility.yul\":7127:7128   */\n      0x00\n        /* \"#utility.yul\":7116:7125   */\n      dup4\n        /* \"#utility.yul\":7112:7129   */\n      add\n        /* \"#utility.yul\":7103:7109   */\n      dup5\n        /* \"#utility.yul\":7065:7130   */\n      tag_365\n      jump\t// in\n    tag_482:\n        /* \"#utility.yul\":6927:7137   */\n      swap3\n      swap2\n      pop\n      pop\n      jump\t// out\n        /* \"#utility.yul\":7143:7261   */\n    tag_366:\n        /* \"#utility.yul\":7230:7254   */\n      tag_484\n        /* \"#utility.yul\":7248:7253   */\n      dup2\n        /* \"#utility.yul\":7230:7254   */\n      tag_346\n      jump\t// in\n    tag_484:\n        /* \"#utility.yul\":7225:7228   */\n      dup3\n        /* \"#utility.yul\":7218:7255   */\n      mstore\n        /* \"#utility.yul\":7143:7261   */\n      pop\n      pop\n      jump\t// out\n        /* \"#utility.yul\":7267:7489   */\n    tag_47:\n        /* \"#utility.yul\":7360:7364   */\n      0x00\n        /* \"#utility.yul\":7398:7400   */\n      0x20\n        /* \"#utility.yul\":7387:7396   */\n      dup3\n        /* \"#utility.yul\":7383:7401   */\n      add\n        /* \"#utility.yul\":7375:7401   */\n      swap1\n      pop\n        /* \"#utility.yul\":7411:7482   */\n      tag_486\n        /* \"#utility.yul\":7479:7480   */\n      0x00\n        /* \"#utility.yul\":7468:7477   */\n      dup4\n        /* \"#utility.yul\":7464:7481   */\n      add\n        /* \"#utility.yul\":7455:7461   */\n      dup5\n        /* \"#utility.yul\":7411:7482   */\n      tag_366\n      jump\t// in\n    tag_486:\n        /* \"#utility.yul\":7267:7489   */\n      swap3\n      swap2\n      pop\n      pop\n      jump\t// out\n        /* \"#utility.yul\":7495:7621   */\n    tag_367:\n        /* \"#utility.yul\":7532:7539   */\n      0x00\n        /* \"#utility.yul\":7572:7614   */\n      0xffffffffffffffffffffffffffffffffffffffff\n        /* \"#utility.yul\":7565:7570   */\n      dup3\n        /* \"#utility.yul\":7561:7615   */\n      and\n        /* \"#utility.yul\":7550:7615   */\n      swap1\n      pop\n        /* \"#utility.yul\":7495:7621   */\n      swap2\n      swap1\n      pop\n      jump\t// out\n        /* \"#utility.yul\":7627:7723   */\n    tag_368:\n        /* \"#utility.yul\":7664:7671   */\n      0x00\n        /* \"#utility.yul\":7693:7717   */\n      tag_489\n        /* \"#utility.yul\":7711:7716   */\n      dup3\n        /* \"#utility.yul\":7693:7717   */\n      tag_367\n      jump\t// in\n    tag_489:\n        /* \"#utility.yul\":7682:7717   */\n      swap1\n      pop\n        /* \"#utility.yul\":7627:7723   */\n      swap2\n      swap1\n      pop\n      jump\t// out\n        /* \"#utility.yul\":7729:7847   */\n    tag_369:\n        /* \"#utility.yul\":7816:7840   */\n      tag_491\n        /* \"#utility.yul\":7834:7839   */\n      dup2\n        /* \"#utility.yul\":7816:7840   */\n      tag_368\n      jump\t// in\n    tag_491:\n        /* \"#utility.yul\":7811:7814   */\n      dup3\n        /* \"#utility.yul\":7804:7841   */\n      mstore\n        /* \"#utility.yul\":7729:7847   */\n      pop\n      pop\n      jump\t// out\n        /* \"#utility.yul\":7853:8075   */\n    tag_53:\n        /* \"#utility.yul\":7946:7950   */\n      0x00\n        /* \"#utility.yul\":7984:7986   */\n      0x20\n        /* \"#utility.yul\":7973:7982   */\n      dup3\n        /* \"#utility.yul\":7969:7987   */\n      add\n        /* \"#utility.yul\":7961:7987   */\n      swap1\n      pop\n        /* \"#utility.yul\":7997:8068   */\n      tag_493\n        /* \"#utility.yul\":8065:8066   */\n      0x00\n        /* \"#utility.yul\":8054:8063   */\n      dup4\n        /* \"#utility.yul\":8050:8067   */\n      add\n        /* \"#utility.yul\":8041:8047   */\n      dup5\n        /* \"#utility.yul\":7997:8068   */\n      tag_369\n      jump\t// in\n    tag_493:\n        /* \"#utility.yul\":7853:8075   */\n      swap3\n      swap2\n      pop\n      pop\n      jump\t// out\n        /* \"#utility.yul\":8081:8303   */\n    tag_57:\n        /* \"#utility.yul\":8174:8178   */\n      0x00\n        /* \"#utility.yul\":8212:8214   */\n      0x20\n        /* \"#utility.yul\":8201:8210   */\n      dup3\n        /* \"#utility.yul\":8197:8215   */\n      add\n        /* \"#utility.yul\":8189:8215   */\n      swap1\n      pop\n        /* \"#utility.yul\":8225:8296   */\n      tag_495\n        /* \"#utility.yul\":8293:8294   */\n      0x00\n        /* \"#utility.yul\":8282:8291   */\n      dup4\n        /* \"#utility.yul\":8278:8295   */\n      add\n        /* \"#utility.yul\":8269:8275   */\n      dup5\n        /* \"#utility.yul\":8225:8296   */\n      tag_359\n      jump\t// in\n    tag_495:\n        /* \"#utility.yul\":8081:8303   */\n      swap3\n      swap2\n      pop\n      pop\n      jump\t// out\n        /* \"#utility.yul\":8309:8973   */\n    tag_61:\n        /* \"#utility.yul\":8514:8518   */\n      0x00\n        /* \"#utility.yul\":8552:8555   */\n      0xa0\n        /* \"#utility.yul\":8541:8550   */\n      dup3\n        /* \"#utility.yul\":8537:8556   */\n      add\n        /* \"#utility.yul\":8529:8556   */\n      swap1\n      pop\n        /* \"#utility.yul\":8566:8637   */\n      tag_497\n        /* \"#utility.yul\":8634:8635   */\n      0x00\n        /* \"#utility.yul\":8623:8632   */\n      dup4\n        /* \"#utility.yul\":8619:8636   */\n      add\n        /* \"#utility.yul\":8610:8616   */\n      dup9\n        /* \"#utility.yul\":8566:8637   */\n      tag_359\n      jump\t// in\n    tag_497:\n        /* \"#utility.yul\":8647:8719   */\n      tag_498\n        /* \"#utility.yul\":8715:8717   */\n      0x20\n        /* \"#utility.yul\":8704:8713   */\n      dup4\n        /* \"#utility.yul\":8700:8718   */\n      add\n        /* \"#utility.yul\":8691:8697   */\n      dup8\n        /* \"#utility.yul\":8647:8719   */\n      tag_359\n      jump\t// in\n    tag_498:\n        /* \"#utility.yul\":8729:8801   */\n      tag_499\n        /* \"#utility.yul\":8797:8799   */\n      0x40\n        /* \"#utility.yul\":8786:8795   */\n      dup4\n        /* \"#utility.yul\":8782:8800   */\n      add\n        /* \"#utility.yul\":8773:8779   */\n      dup7\n        /* \"#utility.yul\":8729:8801   */\n      tag_359\n      jump\t// in\n    tag_499:\n        /* \"#utility.yul\":8811:8883   */\n      tag_500\n        /* \"#utility.yul\":8879:8881   */\n      0x60\n        /* \"#utility.yul\":8868:8877   */\n      dup4\n        /* \"#utility.yul\":8864:8882   */\n      add\n        /* \"#utility.yul\":8855:8861   */\n      dup6\n        /* \"#utility.yul\":8811:8883   */\n      tag_359\n      jump\t// in\n    tag_500:\n        /* \"#utility.yul\":8893:8966   */\n      tag_501\n        /* \"#utility.yul\":8961:8964   */\n      0x80\n        /* \"#utility.yul\":8950:8959   */\n      dup4\n        /* \"#utility.yul\":8946:8965   */\n      add\n        /* \"#utility.yul\":8937:8943   */\n      dup5\n        /* \"#utility.yul\":8893:8966   */\n      tag_366\n      jump\t// in\n    tag_501:\n        /* \"#utility.yul\":8309:8973   */\n      swap7\n      swap6\n      pop\n      pop\n      pop\n      pop\n      pop\n      pop\n      jump\t// out\n        /* \"#utility.yul\":8979:9099   */\n    tag_370:\n        /* \"#utility.yul\":9051:9074   */\n      tag_503\n        /* \"#utility.yul\":9068:9073   */\n      dup2\n        /* \"#utility.yul\":9051:9074   */\n      tag_344\n      jump\t// in\n    tag_503:\n        /* \"#utility.yul\":9044:9049   */\n      dup2\n        /* \"#utility.yul\":9041:9075   */\n      eq\n        /* \"#utility.yul\":9031:9093   */\n      tag_504\n      jumpi\n        /* \"#utility.yul\":9089:9090   */\n      0x00\n        /* \"#utility.yul\":9086:9087   */\n      dup1\n        /* \"#utility.yul\":9079:9091   */\n      revert\n        /* \"#utility.yul\":9031:9093   */\n    tag_504:\n        /* \"#utility.yul\":8979:9099   */\n      pop\n      jump\t// out\n        /* \"#utility.yul\":9105:9242   */\n    tag_371:\n        /* \"#utility.yul\":9150:9155   */\n      0x00\n        /* \"#utility.yul\":9188:9194   */\n      dup2\n        /* \"#utility.yul\":9175:9195   */\n      calldataload\n        /* \"#utility.yul\":9166:9195   */\n      swap1\n      pop\n        /* \"#utility.yul\":9204:9236   */\n      tag_506\n        /* \"#utility.yul\":9230:9235   */\n      dup2\n        /* \"#utility.yul\":9204:9236   */\n      tag_370\n      jump\t// in\n    tag_506:\n        /* \"#utility.yul\":9105:9242   */\n      swap3\n      swap2\n      pop\n      pop\n      jump\t// out\n        /* \"#utility.yul\":9248:9341   */\n    tag_372:\n        /* \"#utility.yul\":9284:9291   */\n      0x00\n        /* \"#utility.yul\":9324:9334   */\n      0xffffffff\n        /* \"#utility.yul\":9317:9322   */\n      dup3\n        /* \"#utility.yul\":9313:9335   */\n      and\n        /* \"#utility.yul\":9302:9335   */\n      swap1\n      pop\n        /* \"#utility.yul\":9248:9341   */\n      swap2\n      swap1\n      pop\n      jump\t// out\n        /* \"#utility.yul\":9347:9467   */\n    tag_373:\n        /* \"#utility.yul\":9419:9442   */\n      tag_509\n        /* \"#utility.yul\":9436:9441   */\n      dup2\n        /* \"#utility.yul\":9419:9442   */\n      tag_372\n      jump\t// in\n    tag_509:\n        /* \"#utility.yul\":9412:9417   */\n      dup2\n        /* \"#utility.yul\":9409:9443   */\n      eq\n        /* \"#utility.yul\":9399:9461   */\n      tag_510\n      jumpi\n        /* \"#utility.yul\":9457:9458   */\n      0x00\n        /* \"#utility.yul\":9454:9455   */\n      dup1\n        /* \"#utility.yul\":9447:9459   */\n      revert\n        /* \"#utility.yul\":9399:9461   */\n    tag_510:\n        /* \"#utility.yul\":9347:9467   */\n      pop\n      jump\t// out\n        /* \"#utility.yul\":9473:9610   */\n    tag_374:\n        /* \"#utility.yul\":9518:9523   */\n      0x00\n        /* \"#utility.yul\":9556:9562   */\n      dup2\n        /* \"#utility.yul\":9543:9563   */\n      calldataload\n        /* \"#utility.yul\":9534:9563   */\n      swap1\n      pop\n        /* \"#utility.yul\":9572:9604   */\n      tag_512\n        /* \"#utility.yul\":9598:9603   */\n      dup2\n        /* \"#utility.yul\":9572:9604   */\n      tag_373\n      jump\t// in\n    tag_512:\n        /* \"#utility.yul\":9473:9610   */\n      swap3\n      swap2\n      pop\n      pop\n      jump\t// out\n        /* \"#utility.yul\":9616:10231   */\n    tag_70:\n        /* \"#utility.yul\":9691:9697   */\n      0x00\n        /* \"#utility.yul\":9699:9705   */\n      dup1\n        /* \"#utility.yul\":9707:9713   */\n      0x00\n        /* \"#utility.yul\":9756:9758   */\n      0x60\n        /* \"#utility.yul\":9744:9753   */\n      dup5\n        /* \"#utility.yul\":9735:9742   */\n      dup7\n        /* \"#utility.yul\":9731:9754   */\n      sub\n        /* \"#utility.yul\":9727:9759   */\n      slt\n        /* \"#utility.yul\":9724:9843   */\n      iszero\n      tag_514\n      jumpi\n        /* \"#utility.yul\":9762:9841   */\n      tag_515\n      tag_339\n      jump\t// in\n    tag_515:\n        /* \"#utility.yul\":9724:9843   */\n    tag_514:\n        /* \"#utility.yul\":9882:9883   */\n      0x00\n        /* \"#utility.yul\":9907:9959   */\n      tag_516\n        /* \"#utility.yul\":9951:9958   */\n      dup7\n        /* \"#utility.yul\":9942:9948   */\n      dup3\n        /* \"#utility.yul\":9931:9940   */\n      dup8\n        /* \"#utility.yul\":9927:9949   */\n      add\n        /* \"#utility.yul\":9907:9959   */\n      tag_371\n      jump\t// in\n    tag_516:\n        /* \"#utility.yul\":9897:9959   */\n      swap4\n      pop\n        /* \"#utility.yul\":9853:9969   */\n      pop\n        /* \"#utility.yul\":10008:10010   */\n      0x20\n        /* \"#utility.yul\":10034:10086   */\n      tag_517\n        /* \"#utility.yul\":10078:10085   */\n      dup7\n        /* \"#utility.yul\":10069:10075   */\n      dup3\n        /* \"#utility.yul\":10058:10067   */\n      dup8\n        /* \"#utility.yul\":10054:10076   */\n      add\n        /* \"#utility.yul\":10034:10086   */\n      tag_374\n      jump\t// in\n    tag_517:\n        /* \"#utility.yul\":10024:10086   */\n      swap3\n      pop\n        /* \"#utility.yul\":9979:10096   */\n      pop\n        /* \"#utility.yul\":10135:10137   */\n      0x40\n        /* \"#utility.yul\":10161:10214   */\n      tag_518\n        /* \"#utility.yul\":10206:10213   */\n      dup7\n        /* \"#utility.yul\":10197:10203   */\n      dup3\n        /* \"#utility.yul\":10186:10195   */\n      dup8\n        /* \"#utility.yul\":10182:10204   */\n      add\n        /* \"#utility.yul\":10161:10214   */\n      tag_348\n      jump\t// in\n    tag_518:\n        /* \"#utility.yul\":10151:10214   */\n      swap2\n      pop\n        /* \"#utility.yul\":10106:10224   */\n      pop\n        /* \"#utility.yul\":9616:10231   */\n      swap3\n      pop\n      swap3\n      pop\n      swap3\n      jump\t// out\n        /* \"#utility.yul\":10237:10359   */\n    tag_375:\n        /* \"#utility.yul\":10310:10334   */\n      tag_520\n        /* \"#utility.yul\":10328:10333   */\n      dup2\n        /* \"#utility.yul\":10310:10334   */\n      tag_368\n      jump\t// in\n    tag_520:\n        /* \"#utility.yul\":10303:10308   */\n      dup2\n        /* \"#utility.yul\":10300:10335   */\n      eq\n        /* \"#utility.yul\":10290:10353   */\n      tag_521\n      jumpi\n        /* \"#utility.yul\":10349:10350   */\n      0x00\n        /* \"#utility.yul\":10346:10347   */\n      dup1\n        /* \"#utility.yul\":10339:10351   */\n      revert\n        /* \"#utility.yul\":10290:10353   */\n    tag_521:\n        /* \"#utility.yul\":10237:10359   */\n      pop\n      jump\t// out\n        /* \"#utility.yul\":10365:10504   */\n    tag_376:\n        /* \"#utility.yul\":10411:10416   */\n      0x00\n        /* \"#utility.yul\":10449:10455   */\n      dup2\n        /* \"#utility.yul\":10436:10456   */\n      calldataload\n        /* \"#utility.yul\":10427:10456   */\n      swap1\n      pop\n        /* \"#utility.yul\":10465:10498   */\n      tag_523\n        /* \"#utility.yul\":10492:10497   */\n      dup2\n        /* \"#utility.yul\":10465:10498   */\n      tag_375\n      jump\t// in\n    tag_523:\n        /* \"#utility.yul\":10365:10504   */\n      swap3\n      swap2\n      pop\n      pop\n      jump\t// out\n        /* \"#utility.yul\":10510:10839   */\n    tag_77:\n        /* \"#utility.yul\":10569:10575   */\n      0x00\n        /* \"#utility.yul\":10618:10620   */\n      0x20\n        /* \"#utility.yul\":10606:10615   */\n      dup3\n        /* \"#utility.yul\":10597:10604   */\n      dup5\n        /* \"#utility.yul\":10593:10616   */\n      sub\n        /* \"#utility.yul\":10589:10621   */\n      slt\n        /* \"#utility.yul\":10586:10705   */\n      iszero\n      tag_525\n      jumpi\n        /* \"#utility.yul\":10624:10703   */\n      tag_526\n      tag_339\n      jump\t// in\n    tag_526:\n        /* \"#utility.yul\":10586:10705   */\n    tag_525:\n        /* \"#utility.yul\":10744:10745   */\n      0x00\n        /* \"#utility.yul\":10769:10822   */\n      tag_527\n        /* \"#utility.yul\":10814:10821   */\n      dup5\n        /* \"#utility.yul\":10805:10811   */\n      dup3\n        /* \"#utility.yul\":10794:10803   */\n      dup6\n        /* \"#utility.yul\":10790:10812   */\n      add\n        /* \"#utility.yul\":10769:10822   */\n      tag_376\n      jump\t// in\n    tag_527:\n        /* \"#utility.yul\":10759:10822   */\n      swap2\n      pop\n        /* \"#utility.yul\":10715:10832   */\n      pop\n        /* \"#utility.yul\":10510:10839   */\n      swap3\n      swap2\n      pop\n      pop\n      jump\t// out\n        /* \"#utility.yul\":10845:10960   */\n    tag_377:\n        /* \"#utility.yul\":10930:10953   */\n      tag_529\n        /* \"#utility.yul\":10947:10952   */\n      dup2\n        /* \"#utility.yul\":10930:10953   */\n      tag_372\n      jump\t// in\n    tag_529:\n        /* \"#utility.yul\":10925:10928   */\n      dup3\n        /* \"#utility.yul\":10918:10954   */\n      mstore\n        /* \"#utility.yul\":10845:10960   */\n      pop\n      pop\n      jump\t// out\n        /* \"#utility.yul\":10966:11184   */\n    tag_82:\n        /* \"#utility.yul\":11057:11061   */\n      0x00\n        /* \"#utility.yul\":11095:11097   */\n      0x20\n        /* \"#utility.yul\":11084:11093   */\n      dup3\n        /* \"#utility.yul\":11080:11098   */\n      add\n        /* \"#utility.yul\":11072:11098   */\n      swap1\n      pop\n        /* \"#utility.yul\":11108:11177   */\n      tag_531\n        /* \"#utility.yul\":11174:11175   */\n      0x00\n        /* \"#utility.yul\":11163:11172   */\n      dup4\n        /* \"#utility.yul\":11159:11176   */\n      add\n        /* \"#utility.yul\":11150:11156   */\n      dup5\n        /* \"#utility.yul\":11108:11177   */\n      tag_377\n      jump\t// in\n    tag_531:\n        /* \"#utility.yul\":10966:11184   */\n      swap3\n      swap2\n      pop\n      pop\n      jump\t// out\n        /* \"#utility.yul\":11190:11368   */\n    tag_378:\n        /* \"#utility.yul\":11330:11360   */\n      0x5072696365206d7573742062652067726561746572207468616e203000000000\n        /* \"#utility.yul\":11326:11327   */\n      0x00\n        /* \"#utility.yul\":11318:11324   */\n      dup3\n        /* \"#utility.yul\":11314:11328   */\n      add\n        /* \"#utility.yul\":11307:11361   */\n      mstore\n        /* \"#utility.yul\":11190:11368   */\n      pop\n      jump\t// out\n        /* \"#utility.yul\":11374:11740   */\n    tag_379:\n        /* \"#utility.yul\":11516:11519   */\n      0x00\n        /* \"#utility.yul\":11537:11604   */\n      tag_534\n        /* \"#utility.yul\":11601:11603   */\n      0x1c\n        /* \"#utility.yul\":11596:11599   */\n      dup4\n        /* \"#utility.yul\":11537:11604   */\n      tag_361\n      jump\t// in\n    tag_534:\n        /* \"#utility.yul\":11530:11604   */\n      swap2\n      pop\n        /* \"#utility.yul\":11613:11706   */\n      tag_535\n        /* \"#utility.yul\":11702:11705   */\n      dup3\n        /* \"#utility.yul\":11613:11706   */\n      tag_378\n      jump\t// in\n    tag_535:\n        /* \"#utility.yul\":11731:11733   */\n      0x20\n        /* \"#utility.yul\":11726:11729   */\n      dup3\n        /* \"#utility.yul\":11722:11734   */\n      add\n        /* \"#utility.yul\":11715:11734   */\n      swap1\n      pop\n        /* \"#utility.yul\":11374:11740   */\n      swap2\n      swap1\n      pop\n      jump\t// out\n        /* \"#utility.yul\":11746:12165   */\n    tag_95:\n        /* \"#utility.yul\":11912:11916   */\n      0x00\n        /* \"#utility.yul\":11950:11952   */\n      0x20\n        /* \"#utility.yul\":11939:11948   */\n      dup3\n        /* \"#utility.yul\":11935:11953   */\n      add\n        /* \"#utility.yul\":11927:11953   */\n      swap1\n      pop\n        /* \"#utility.yul\":11999:12008   */\n      dup2\n        /* \"#utility.yul\":11993:11997   */\n      dup2\n        /* \"#utility.yul\":11989:12009   */\n      sub\n        /* \"#utility.yul\":11985:11986   */\n      0x00\n        /* \"#utility.yul\":11974:11983   */\n      dup4\n        /* \"#utility.yul\":11970:11987   */\n      add\n        /* \"#utility.yul\":11963:12010   */\n      mstore\n        /* \"#utility.yul\":12027:12158   */\n      tag_537\n        /* \"#utility.yul\":12153:12157   */\n      dup2\n        /* \"#utility.yul\":12027:12158   */\n      tag_379\n      jump\t// in\n    tag_537:\n        /* \"#utility.yul\":12019:12158   */\n      swap1\n      pop\n        /* \"#utility.yul\":11746:12165   */\n      swap2\n      swap1\n      pop\n      jump\t// out\n        /* \"#utility.yul\":12171:12351   */\n    tag_380:\n        /* \"#utility.yul\":12219:12296   */\n      0x4e487b7100000000000000000000000000000000000000000000000000000000\n        /* \"#utility.yul\":12216:12217   */\n      0x00\n        /* \"#utility.yul\":12209:12297   */\n      mstore\n        /* \"#utility.yul\":12316:12320   */\n      0x11\n        /* \"#utility.yul\":12313:12314   */\n      0x04\n        /* \"#utility.yul\":12306:12321   */\n      mstore\n        /* \"#utility.yul\":12340:12344   */\n      0x24\n        /* \"#utility.yul\":12337:12338   */\n      0x00\n        /* \"#utility.yul\":12330:12345   */\n      revert\n        /* \"#utility.yul\":12357:12767   */\n    tag_97:\n        /* \"#utility.yul\":12397:12404   */\n      0x00\n        /* \"#utility.yul\":12420:12440   */\n      tag_540\n        /* \"#utility.yul\":12438:12439   */\n      dup3\n        /* \"#utility.yul\":12420:12440   */\n      tag_341\n      jump\t// in\n    tag_540:\n        /* \"#utility.yul\":12415:12440   */\n      swap2\n      pop\n        /* \"#utility.yul\":12454:12474   */\n      tag_541\n        /* \"#utility.yul\":12472:12473   */\n      dup4\n        /* \"#utility.yul\":12454:12474   */\n      tag_341\n      jump\t// in\n    tag_541:\n        /* \"#utility.yul\":12449:12474   */\n      swap3\n      pop\n        /* \"#utility.yul\":12509:12510   */\n      dup3\n        /* \"#utility.yul\":12506:12507   */\n      dup3\n        /* \"#utility.yul\":12502:12511   */\n      mul\n        /* \"#utility.yul\":12531:12561   */\n      tag_542\n        /* \"#utility.yul\":12549:12560   */\n      dup2\n        /* \"#utility.yul\":12531:12561   */\n      tag_341\n      jump\t// in\n    tag_542:\n        /* \"#utility.yul\":12520:12561   */\n      swap2\n      pop\n        /* \"#utility.yul\":12710:12711   */\n      dup3\n        /* \"#utility.yul\":12701:12708   */\n      dup3\n        /* \"#utility.yul\":12697:12712   */\n      div\n        /* \"#utility.yul\":12694:12695   */\n      dup5\n        /* \"#utility.yul\":12691:12713   */\n      eq\n        /* \"#utility.yul\":12671:12672   */\n      dup4\n        /* \"#utility.yul\":12664:12673   */\n      iszero\n        /* \"#utility.yul\":12644:12727   */\n      or\n        /* \"#utility.yul\":12621:12760   */\n      tag_543\n      jumpi\n        /* \"#utility.yul\":12740:12758   */\n      tag_544\n      tag_380\n      jump\t// in\n    tag_544:\n        /* \"#utility.yul\":12621:12760   */\n    tag_543:\n        /* \"#utility.yul\":12405:12767   */\n      pop\n        /* \"#utility.yul\":12357:12767   */\n      swap3\n      swap2\n      pop\n      pop\n      jump\t// out\n        /* \"#utility.yul\":12773:13105   */\n    tag_99:\n        /* \"#utility.yul\":12894:12898   */\n      0x00\n        /* \"#utility.yul\":12932:12934   */\n      0x40\n        /* \"#utility.yul\":12921:12930   */\n      dup3\n        /* \"#utility.yul\":12917:12935   */\n      add\n        /* \"#utility.yul\":12909:12935   */\n      swap1\n      pop\n        /* \"#utility.yul\":12945:13016   */\n      tag_546\n        /* \"#utility.yul\":13013:13014   */\n      0x00\n        /* \"#utility.yul\":13002:13011   */\n      dup4\n        /* \"#utility.yul\":12998:13015   */\n      add\n        /* \"#utility.yul\":12989:12995   */\n      dup6\n        /* \"#utility.yul\":12945:13016   */\n      tag_359\n      jump\t// in\n    tag_546:\n        /* \"#utility.yul\":13026:13098   */\n      tag_547\n        /* \"#utility.yul\":13094:13096   */\n      0x20\n        /* \"#utility.yul\":13083:13092   */\n      dup4\n        /* \"#utility.yul\":13079:13097   */\n      add\n        /* \"#utility.yul\":13070:13076   */\n      dup5\n        /* \"#utility.yul\":13026:13098   */\n      tag_359\n      jump\t// in\n    tag_547:\n        /* \"#utility.yul\":12773:13105   */\n      swap4\n      swap3\n      pop\n      pop\n      pop\n      jump\t// out\n        /* \"#utility.yul\":13111:13291   */\n    tag_381:\n        /* \"#utility.yul\":13159:13236   */\n      0x4e487b7100000000000000000000000000000000000000000000000000000000\n        /* \"#utility.yul\":13156:13157   */\n      0x00\n        /* \"#utility.yul\":13149:13237   */\n      mstore\n        /* \"#utility.yul\":13256:13260   */\n      0x12\n        /* \"#utility.yul\":13253:13254   */\n      0x04\n        /* \"#utility.yul\":13246:13261   */\n      mstore\n        /* \"#utility.yul\":13280:13284   */\n      0x24\n        /* \"#utility.yul\":13277:13278   */\n      0x00\n        /* \"#utility.yul\":13270:13285   */\n      revert\n        /* \"#utility.yul\":13297:13482   */\n    tag_106:\n        /* \"#utility.yul\":13337:13338   */\n      0x00\n        /* \"#utility.yul\":13354:13374   */\n      tag_550\n        /* \"#utility.yul\":13372:13373   */\n      dup3\n        /* \"#utility.yul\":13354:13374   */\n      tag_341\n      jump\t// in\n    tag_550:\n        /* \"#utility.yul\":13349:13374   */\n      swap2\n      pop\n        /* \"#utility.yul\":13388:13408   */\n      tag_551\n        /* \"#utility.yul\":13406:13407   */\n      dup4\n        /* \"#utility.yul\":13388:13408   */\n      tag_341\n      jump\t// in\n    tag_551:\n        /* \"#utility.yul\":13383:13408   */\n      swap3\n      pop\n        /* \"#utility.yul\":13427:13428   */\n      dup3\n        /* \"#utility.yul\":13417:13452   */\n      tag_552\n      jumpi\n        /* \"#utility.yul\":13432:13450   */\n      tag_553\n      tag_381\n      jump\t// in\n    tag_553:\n        /* \"#utility.yul\":13417:13452   */\n    tag_552:\n        /* \"#utility.yul\":13474:13475   */\n      dup3\n        /* \"#utility.yul\":13471:13472   */\n      dup3\n        /* \"#utility.yul\":13467:13476   */\n      div\n        /* \"#utility.yul\":13462:13476   */\n      swap1\n      pop\n        /* \"#utility.yul\":13297:13482   */\n      swap3\n      swap2\n      pop\n      pop\n      jump\t// out\n        /* \"#utility.yul\":13488:13682   */\n    tag_109:\n        /* \"#utility.yul\":13528:13532   */\n      0x00\n        /* \"#utility.yul\":13548:13568   */\n      tag_555\n        /* \"#utility.yul\":13566:13567   */\n      dup3\n        /* \"#utility.yul\":13548:13568   */\n      tag_341\n      jump\t// in\n    tag_555:\n        /* \"#utility.yul\":13543:13568   */\n      swap2\n      pop\n        /* \"#utility.yul\":13582:13602   */\n      tag_556\n        /* \"#utility.yul\":13600:13601   */\n      dup4\n        /* \"#utility.yul\":13582:13602   */\n      tag_341\n      jump\t// in\n    tag_556:\n        /* \"#utility.yul\":13577:13602   */\n      swap3\n      pop\n        /* \"#utility.yul\":13626:13627   */\n      dup3\n        /* \"#utility.yul\":13623:13624   */\n      dup3\n        /* \"#utility.yul\":13619:13628   */\n      sub\n        /* \"#utility.yul\":13611:13628   */\n      swap1\n      pop\n        /* \"#utility.yul\":13650:13651   */\n      dup2\n        /* \"#utility.yul\":13644:13648   */\n      dup2\n        /* \"#utility.yul\":13641:13652   */\n      gt\n        /* \"#utility.yul\":13638:13675   */\n      iszero\n      tag_557\n      jumpi\n        /* \"#utility.yul\":13655:13673   */\n      tag_558\n      tag_380\n      jump\t// in\n    tag_558:\n        /* \"#utility.yul\":13638:13675   */\n    tag_557:\n        /* \"#utility.yul\":13488:13682   */\n      swap3\n      swap2\n      pop\n      pop\n      jump\t// out\n        /* \"#utility.yul\":13688:13860   */\n    tag_382:\n        /* \"#utility.yul\":13828:13852   */\n      0x4d7573742062652070726f706f736564206f776e657200000000000000000000\n        /* \"#utility.yul\":13824:13825   */\n      0x00\n        /* \"#utility.yul\":13816:13822   */\n      dup3\n        /* \"#utility.yul\":13812:13826   */\n      add\n        /* \"#utility.yul\":13805:13853   */\n      mstore\n        /* \"#utility.yul\":13688:13860   */\n      pop\n      jump\t// out\n        /* \"#utility.yul\":13866:14232   */\n    tag_383:\n        /* \"#utility.yul\":14008:14011   */\n      0x00\n        /* \"#utility.yul\":14029:14096   */\n      tag_561\n        /* \"#utility.yul\":14093:14095   */\n      0x16\n        /* \"#utility.yul\":14088:14091   */\n      dup4\n        /* \"#utility.yul\":14029:14096   */\n      tag_361\n      jump\t// in\n    tag_561:\n        /* \"#utility.yul\":14022:14096   */\n      swap2\n      pop\n        /* \"#utility.yul\":14105:14198   */\n      tag_562\n        /* \"#utility.yul\":14194:14197   */\n      dup3\n        /* \"#utility.yul\":14105:14198   */\n      tag_382\n      jump\t// in\n    tag_562:\n        /* \"#utility.yul\":14223:14225   */\n      0x20\n        /* \"#utility.yul\":14218:14221   */\n      dup3\n        /* \"#utility.yul\":14214:14226   */\n      add\n        /* \"#utility.yul\":14207:14226   */\n      swap1\n      pop\n        /* \"#utility.yul\":13866:14232   */\n      swap2\n      swap1\n      pop\n      jump\t// out\n        /* \"#utility.yul\":14238:14657   */\n    tag_113:\n        /* \"#utility.yul\":14404:14408   */\n      0x00\n        /* \"#utility.yul\":14442:14444   */\n      0x20\n        /* \"#utility.yul\":14431:14440   */\n      dup3\n        /* \"#utility.yul\":14427:14445   */\n      add\n        /* \"#utility.yul\":14419:14445   */\n      swap1\n      pop\n        /* \"#utility.yul\":14491:14500   */\n      dup2\n        /* \"#utility.yul\":14485:14489   */\n      dup2\n        /* \"#utility.yul\":14481:14501   */\n      sub\n        /* \"#utility.yul\":14477:14478   */\n      0x00\n        /* \"#utility.yul\":14466:14475   */\n      dup4\n        /* \"#utility.yul\":14462:14479   */\n      add\n        /* \"#utility.yul\":14455:14502   */\n      mstore\n        /* \"#utility.yul\":14519:14650   */\n      tag_564\n        /* \"#utility.yul\":14645:14649   */\n      dup2\n        /* \"#utility.yul\":14519:14650   */\n      tag_383\n      jump\t// in\n    tag_564:\n        /* \"#utility.yul\":14511:14650   */\n      swap1\n      pop\n        /* \"#utility.yul\":14238:14657   */\n      swap2\n      swap1\n      pop\n      jump\t// out\n        /* \"#utility.yul\":14663:14843   */\n    tag_384:\n        /* \"#utility.yul\":14711:14788   */\n      0x4e487b7100000000000000000000000000000000000000000000000000000000\n        /* \"#utility.yul\":14708:14709   */\n      0x00\n        /* \"#utility.yul\":14701:14789   */\n      mstore\n        /* \"#utility.yul\":14808:14812   */\n      0x22\n        /* \"#utility.yul\":14805:14806   */\n      0x04\n        /* \"#utility.yul\":14798:14813   */\n      mstore\n        /* \"#utility.yul\":14832:14836   */\n      0x24\n        /* \"#utility.yul\":14829:14830   */\n      0x00\n        /* \"#utility.yul\":14822:14837   */\n      revert\n        /* \"#utility.yul\":14849:15169   */\n    tag_124:\n        /* \"#utility.yul\":14893:14899   */\n      0x00\n        /* \"#utility.yul\":14930:14931   */\n      0x02\n        /* \"#utility.yul\":14924:14928   */\n      dup3\n        /* \"#utility.yul\":14920:14932   */\n      div\n        /* \"#utility.yul\":14910:14932   */\n      swap1\n      pop\n        /* \"#utility.yul\":14977:14978   */\n      0x01\n        /* \"#utility.yul\":14971:14975   */\n      dup3\n        /* \"#utility.yul\":14967:14979   */\n      and\n        /* \"#utility.yul\":14998:15016   */\n      dup1\n        /* \"#utility.yul\":14988:15069   */\n      tag_567\n      jumpi\n        /* \"#utility.yul\":15054:15058   */\n      0x7f\n        /* \"#utility.yul\":15046:15052   */\n      dup3\n        /* \"#utility.yul\":15042:15059   */\n      and\n        /* \"#utility.yul\":15032:15059   */\n      swap2\n      pop\n        /* \"#utility.yul\":14988:15069   */\n    tag_567:\n        /* \"#utility.yul\":15116:15118   */\n      0x20\n        /* \"#utility.yul\":15108:15114   */\n      dup3\n        /* \"#utility.yul\":15105:15119   */\n      lt\n        /* \"#utility.yul\":15085:15103   */\n      dup2\n        /* \"#utility.yul\":15082:15120   */\n      sub\n        /* \"#utility.yul\":15079:15163   */\n      tag_568\n      jumpi\n        /* \"#utility.yul\":15135:15153   */\n      tag_569\n      tag_384\n      jump\t// in\n    tag_569:\n        /* \"#utility.yul\":15079:15163   */\n    tag_568:\n        /* \"#utility.yul\":14900:15169   */\n      pop\n        /* \"#utility.yul\":14849:15169   */\n      swap2\n      swap1\n      pop\n      jump\t// out\n        /* \"#utility.yul\":15175:15347   */\n    tag_385:\n        /* \"#utility.yul\":15315:15339   */\n      0x4f6e6c792063616c6c61626c65206279206f776e657200000000000000000000\n        /* \"#utility.yul\":15311:15312   */\n      0x00\n        /* \"#utility.yul\":15303:15309   */\n      dup3\n        /* \"#utility.yul\":15299:15313   */\n      add\n        /* \"#utility.yul\":15292:15340   */\n      mstore\n        /* \"#utility.yul\":15175:15347   */\n      pop\n      jump\t// out\n        /* \"#utility.yul\":15353:15719   */\n    tag_386:\n        /* \"#utility.yul\":15495:15498   */\n      0x00\n        /* \"#utility.yul\":15516:15583   */\n      tag_572\n        /* \"#utility.yul\":15580:15582   */\n      0x16\n        /* \"#utility.yul\":15575:15578   */\n      dup4\n        /* \"#utility.yul\":15516:15583   */\n      tag_361\n      jump\t// in\n    tag_572:\n        /* \"#utility.yul\":15509:15583   */\n      swap2\n      pop\n        /* \"#utility.yul\":15592:15685   */\n      tag_573\n        /* \"#utility.yul\":15681:15684   */\n      dup3\n        /* \"#utility.yul\":15592:15685   */\n      tag_385\n      jump\t// in\n    tag_573:\n        /* \"#utility.yul\":15710:15712   */\n      0x20\n        /* \"#utility.yul\":15705:15708   */\n      dup3\n        /* \"#utility.yul\":15701:15713   */\n      add\n        /* \"#utility.yul\":15694:15713   */\n      swap1\n      pop\n        /* \"#utility.yul\":15353:15719   */\n      swap2\n      swap1\n      pop\n      jump\t// out\n        /* \"#utility.yul\":15725:16144   */\n    tag_148:\n        /* \"#utility.yul\":15891:15895   */\n      0x00\n        /* \"#utility.yul\":15929:15931   */\n      0x20\n        /* \"#utility.yul\":15918:15927   */\n      dup3\n        /* \"#utility.yul\":15914:15932   */\n      add\n        /* \"#utility.yul\":15906:15932   */\n      swap1\n      pop\n        /* \"#utility.yul\":15978:15987   */\n      dup2\n        /* \"#utility.yul\":15972:15976   */\n      dup2\n        /* \"#utility.yul\":15968:15988   */\n      sub\n        /* \"#utility.yul\":15964:15965   */\n      0x00\n        /* \"#utility.yul\":15953:15962   */\n      dup4\n        /* \"#utility.yul\":15949:15966   */\n      add\n        /* \"#utility.yul\":15942:15989   */\n      mstore\n        /* \"#utility.yul\":16006:16137   */\n      tag_575\n        /* \"#utility.yul\":16132:16136   */\n      dup2\n        /* \"#utility.yul\":16006:16137   */\n      tag_386\n      jump\t// in\n    tag_575:\n        /* \"#utility.yul\":15998:16137   */\n      swap1\n      pop\n        /* \"#utility.yul\":15725:16144   */\n      swap2\n      swap1\n      pop\n      jump\t// out\n        /* \"#utility.yul\":16150:16248   */\n    tag_387:\n        /* \"#utility.yul\":16201:16207   */\n      0x00\n        /* \"#utility.yul\":16235:16240   */\n      dup2\n        /* \"#utility.yul\":16229:16241   */\n      mload\n        /* \"#utility.yul\":16219:16241   */\n      swap1\n      pop\n        /* \"#utility.yul\":16150:16248   */\n      swap2\n      swap1\n      pop\n      jump\t// out\n        /* \"#utility.yul\":16254:16422   */\n    tag_388:\n        /* \"#utility.yul\":16337:16348   */\n      0x00\n        /* \"#utility.yul\":16371:16377   */\n      dup3\n        /* \"#utility.yul\":16366:16369   */\n      dup3\n        /* \"#utility.yul\":16359:16378   */\n      mstore\n        /* \"#utility.yul\":16411:16415   */\n      0x20\n        /* \"#utility.yul\":16406:16409   */\n      dup3\n        /* \"#utility.yul\":16402:16416   */\n      add\n        /* \"#utility.yul\":16387:16416   */\n      swap1\n      pop\n        /* \"#utility.yul\":16254:16422   */\n      swap3\n      swap2\n      pop\n      pop\n      jump\t// out\n        /* \"#utility.yul\":16428:16801   */\n    tag_389:\n        /* \"#utility.yul\":16514:16517   */\n      0x00\n        /* \"#utility.yul\":16542:16580   */\n      tag_579\n        /* \"#utility.yul\":16574:16579   */\n      dup3\n        /* \"#utility.yul\":16542:16580   */\n      tag_387\n      jump\t// in\n    tag_579:\n        /* \"#utility.yul\":16596:16666   */\n      tag_580\n        /* \"#utility.yul\":16659:16665   */\n      dup2\n        /* \"#utility.yul\":16654:16657   */\n      dup6\n        /* \"#utility.yul\":16596:16666   */\n      tag_388\n      jump\t// in\n    tag_580:\n        /* \"#utility.yul\":16589:16666   */\n      swap4\n      pop\n        /* \"#utility.yul\":16675:16740   */\n      tag_581\n        /* \"#utility.yul\":16733:16739   */\n      dup2\n        /* \"#utility.yul\":16728:16731   */\n      dup6\n        /* \"#utility.yul\":16721:16725   */\n      0x20\n        /* \"#utility.yul\":16714:16719   */\n      dup7\n        /* \"#utility.yul\":16710:16726   */\n      add\n        /* \"#utility.yul\":16675:16740   */\n      tag_362\n      jump\t// in\n    tag_581:\n        /* \"#utility.yul\":16765:16794   */\n      tag_582\n        /* \"#utility.yul\":16787:16793   */\n      dup2\n        /* \"#utility.yul\":16765:16794   */\n      tag_351\n      jump\t// in\n    tag_582:\n        /* \"#utility.yul\":16760:16763   */\n      dup5\n        /* \"#utility.yul\":16756:16795   */\n      add\n        /* \"#utility.yul\":16749:16795   */\n      swap2\n      pop\n        /* \"#utility.yul\":16518:16801   */\n      pop\n        /* \"#utility.yul\":16428:16801   */\n      swap3\n      swap2\n      pop\n      pop\n      jump\t// out\n        /* \"#utility.yul\":16807:17116   */\n    tag_152:\n        /* \"#utility.yul\":16918:16922   */\n      0x00\n        /* \"#utility.yul\":16956:16958   */\n      0x20\n        /* \"#utility.yul\":16945:16954   */\n      dup3\n        /* \"#utility.yul\":16941:16959   */\n      add\n        /* \"#utility.yul\":16933:16959   */\n      swap1\n      pop\n        /* \"#utility.yul\":17005:17014   */\n      dup2\n        /* \"#utility.yul\":16999:17003   */\n      dup2\n        /* \"#utility.yul\":16995:17015   */\n      sub\n        /* \"#utility.yul\":16991:16992   */\n      0x00\n        /* \"#utility.yul\":16980:16989   */\n      dup4\n        /* \"#utility.yul\":16976:16993   */\n      add\n        /* \"#utility.yul\":16969:17016   */\n      mstore\n        /* \"#utility.yul\":17033:17109   */\n      tag_584\n        /* \"#utility.yul\":17104:17108   */\n      dup2\n        /* \"#utility.yul\":17095:17101   */\n      dup5\n        /* \"#utility.yul\":17033:17109   */\n      tag_389\n      jump\t// in\n    tag_584:\n        /* \"#utility.yul\":17025:17109   */\n      swap1\n      pop\n        /* \"#utility.yul\":16807:17116   */\n      swap3\n      swap2\n      pop\n      pop\n      jump\t// out\n        /* \"#utility.yul\":17122:17265   */\n    tag_390:\n        /* \"#utility.yul\":17179:17184   */\n      0x00\n        /* \"#utility.yul\":17210:17216   */\n      dup2\n        /* \"#utility.yul\":17204:17217   */\n      mload\n        /* \"#utility.yul\":17195:17217   */\n      swap1\n      pop\n        /* \"#utility.yul\":17226:17259   */\n      tag_586\n        /* \"#utility.yul\":17253:17258   */\n      dup2\n        /* \"#utility.yul\":17226:17259   */\n      tag_342\n      jump\t// in\n    tag_586:\n        /* \"#utility.yul\":17122:17265   */\n      swap3\n      swap2\n      pop\n      pop\n      jump\t// out\n        /* \"#utility.yul\":17271:17622   */\n    tag_154:\n        /* \"#utility.yul\":17341:17347   */\n      0x00\n        /* \"#utility.yul\":17390:17392   */\n      0x20\n        /* \"#utility.yul\":17378:17387   */\n      dup3\n        /* \"#utility.yul\":17369:17376   */\n      dup5\n        /* \"#utility.yul\":17365:17388   */\n      sub\n        /* \"#utility.yul\":17361:17393   */\n      slt\n        /* \"#utility.yul\":17358:17477   */\n      iszero\n      tag_588\n      jumpi\n        /* \"#utility.yul\":17396:17475   */\n      tag_589\n      tag_339\n      jump\t// in\n    tag_589:\n        /* \"#utility.yul\":17358:17477   */\n    tag_588:\n        /* \"#utility.yul\":17516:17517   */\n      0x00\n        /* \"#utility.yul\":17541:17605   */\n      tag_590\n        /* \"#utility.yul\":17597:17604   */\n      dup5\n        /* \"#utility.yul\":17588:17594   */\n      dup3\n        /* \"#utility.yul\":17577:17586   */\n      dup6\n        /* \"#utility.yul\":17573:17595   */\n      add\n        /* \"#utility.yul\":17541:17605   */\n      tag_390\n      jump\t// in\n    tag_590:\n        /* \"#utility.yul\":17531:17605   */\n      swap2\n      pop\n        /* \"#utility.yul\":17487:17615   */\n      pop\n        /* \"#utility.yul\":17271:17622   */\n      swap3\n      swap2\n      pop\n      pop\n      jump\t// out\n        /* \"#utility.yul\":17628:17808   */\n    tag_167:\n        /* \"#utility.yul\":17676:17753   */\n      0x4e487b7100000000000000000000000000000000000000000000000000000000\n        /* \"#utility.yul\":17673:17674   */\n      0x00\n        /* \"#utility.yul\":17666:17754   */\n      mstore\n        /* \"#utility.yul\":17773:17777   */\n      0x21\n        /* \"#utility.yul\":17770:17771   */\n      0x04\n        /* \"#utility.yul\":17763:17778   */\n      mstore\n        /* \"#utility.yul\":17797:17801   */\n      0x24\n        /* \"#utility.yul\":17794:17795   */\n      0x00\n        /* \"#utility.yul\":17787:17802   */\n      revert\n        /* \"#utility.yul\":17814:17994   */\n    tag_185:\n        /* \"#utility.yul\":17862:17939   */\n      0x4e487b7100000000000000000000000000000000000000000000000000000000\n        /* \"#utility.yul\":17859:17860   */\n      0x00\n        /* \"#utility.yul\":17852:17940   */\n      mstore\n        /* \"#utility.yul\":17959:17963   */\n      0x32\n        /* \"#utility.yul\":17956:17957   */\n      0x04\n        /* \"#utility.yul\":17949:17964   */\n      mstore\n        /* \"#utility.yul\":17983:17987   */\n      0x24\n        /* \"#utility.yul\":17980:17981   */\n      0x00\n        /* \"#utility.yul\":17973:17988   */\n      revert\n        /* \"#utility.yul\":18000:18233   */\n    tag_187:\n        /* \"#utility.yul\":18039:18042   */\n      0x00\n        /* \"#utility.yul\":18062:18086   */\n      tag_594\n        /* \"#utility.yul\":18080:18085   */\n      dup3\n        /* \"#utility.yul\":18062:18086   */\n      tag_341\n      jump\t// in\n    tag_594:\n        /* \"#utility.yul\":18053:18086   */\n      swap2\n      pop\n        /* \"#utility.yul\":18108:18174   */\n      0xffffffffffffffffffffffffffffffffffffffffffffffffffffffffffffffff\n        /* \"#utility.yul\":18101:18106   */\n      dup3\n        /* \"#utility.yul\":18098:18175   */\n      sub\n        /* \"#utility.yul\":18095:18198   */\n      tag_595\n      jumpi\n        /* \"#utility.yul\":18178:18196   */\n      tag_596\n      tag_380\n      jump\t// in\n    tag_596:\n        /* \"#utility.yul\":18095:18198   */\n    tag_595:\n        /* \"#utility.yul\":18225:18226   */\n      0x01\n        /* \"#utility.yul\":18218:18223   */\n      dup3\n        /* \"#utility.yul\":18214:18227   */\n      add\n        /* \"#utility.yul\":18207:18227   */\n      swap1\n      pop\n        /* \"#utility.yul\":18000:18233   */\n      swap2\n      swap1\n      pop\n      jump\t// out\n        /* \"#utility.yul\":18239:18328   */\n    tag_391:\n        /* \"#utility.yul\":18275:18282   */\n      0x00\n        /* \"#utility.yul\":18315:18321   */\n      0xffff\n        /* \"#utility.yul\":18308:18313   */\n      dup3\n        /* \"#utility.yul\":18304:18322   */\n      and\n        /* \"#utility.yul\":18293:18322   */\n      swap1\n      pop\n        /* \"#utility.yul\":18239:18328   */\n      swap2\n      swap1\n      pop\n      jump\t// out\n        /* \"#utility.yul\":18334:18449   */\n    tag_392:\n        /* \"#utility.yul\":18419:18442   */\n      tag_599\n        /* \"#utility.yul\":18436:18441   */\n      dup2\n        /* \"#utility.yul\":18419:18442   */\n      tag_391\n      jump\t// in\n    tag_599:\n        /* \"#utility.yul\":18414:18417   */\n      dup3\n        /* \"#utility.yul\":18407:18443   */\n      mstore\n        /* \"#utility.yul\":18334:18449   */\n      pop\n      pop\n      jump\t// out\n        /* \"#utility.yul\":18455:19194   */\n    tag_216:\n        /* \"#utility.yul\":18672:18676   */\n      0x00\n        /* \"#utility.yul\":18710:18713   */\n      0xa0\n        /* \"#utility.yul\":18699:18708   */\n      dup3\n        /* \"#utility.yul\":18695:18714   */\n      add\n        /* \"#utility.yul\":18687:18714   */\n      swap1\n      pop\n        /* \"#utility.yul\":18724:18793   */\n      tag_601\n        /* \"#utility.yul\":18790:18791   */\n      0x00\n        /* \"#utility.yul\":18779:18788   */\n      dup4\n        /* \"#utility.yul\":18775:18792   */\n      add\n        /* \"#utility.yul\":18766:18772   */\n      dup9\n        /* \"#utility.yul\":18724:18793   */\n      tag_345\n      jump\t// in\n    tag_601:\n        /* \"#utility.yul\":18840:18849   */\n      dup2\n        /* \"#utility.yul\":18834:18838   */\n      dup2\n        /* \"#utility.yul\":18830:18850   */\n      sub\n        /* \"#utility.yul\":18825:18827   */\n      0x20\n        /* \"#utility.yul\":18814:18823   */\n      dup4\n        /* \"#utility.yul\":18810:18828   */\n      add\n        /* \"#utility.yul\":18803:18851   */\n      mstore\n        /* \"#utility.yul\":18868:18944   */\n      tag_602\n        /* \"#utility.yul\":18939:18943   */\n      dup2\n        /* \"#utility.yul\":18930:18936   */\n      dup8\n        /* \"#utility.yul\":18868:18944   */\n      tag_389\n      jump\t// in\n    tag_602:\n        /* \"#utility.yul\":18860:18944   */\n      swap1\n      pop\n        /* \"#utility.yul\":18954:19024   */\n      tag_603\n        /* \"#utility.yul\":19020:19022   */\n      0x40\n        /* \"#utility.yul\":19009:19018   */\n      dup4\n        /* \"#utility.yul\":19005:19023   */\n      add\n        /* \"#utility.yul\":18996:19002   */\n      dup7\n        /* \"#utility.yul\":18954:19024   */\n      tag_392\n      jump\t// in\n    tag_603:\n        /* \"#utility.yul\":19034:19104   */\n      tag_604\n        /* \"#utility.yul\":19100:19102   */\n      0x60\n        /* \"#utility.yul\":19089:19098   */\n      dup4\n        /* \"#utility.yul\":19085:19103   */\n      add\n        /* \"#utility.yul\":19076:19082   */\n      dup6\n        /* \"#utility.yul\":19034:19104   */\n      tag_377\n      jump\t// in\n    tag_604:\n        /* \"#utility.yul\":19114:19187   */\n      tag_605\n        /* \"#utility.yul\":19182:19185   */\n      0x80\n        /* \"#utility.yul\":19171:19180   */\n      dup4\n        /* \"#utility.yul\":19167:19186   */\n      add\n        /* \"#utility.yul\":19158:19164   */\n      dup5\n        /* \"#utility.yul\":19114:19187   */\n      tag_366\n      jump\t// in\n    tag_605:\n        /* \"#utility.yul\":18455:19194   */\n      swap7\n      swap6\n      pop\n      pop\n      pop\n      pop\n      pop\n      pop\n      jump\t// out\n        /* \"#utility.yul\":19200:19343   */\n    tag_393:\n        /* \"#utility.yul\":19257:19262   */\n      0x00\n        /* \"#utility.yul\":19288:19294   */\n      dup2\n        /* \"#utility.yul\":19282:19295   */\n      mload\n        /* \"#utility.yul\":19273:19295   */\n      swap1\n      pop\n        /* \"#utility.yul\":19304:19337   */\n      tag_607\n        /* \"#utility.yul\":19331:19336   */\n      dup2\n        /* \"#utility.yul\":19304:19337   */\n      tag_347\n      jump\t// in\n    tag_607:\n        /* \"#utility.yul\":19200:19343   */\n      swap3\n      swap2\n      pop\n      pop\n      jump\t// out\n        /* \"#utility.yul\":19349:19700   */\n    tag_220:\n        /* \"#utility.yul\":19419:19425   */\n      0x00\n        /* \"#utility.yul\":19468:19470   */\n      0x20\n        /* \"#utility.yul\":19456:19465   */\n      dup3\n        /* \"#utility.yul\":19447:19454   */\n      dup5\n        /* \"#utility.yul\":19443:19466   */\n      sub\n        /* \"#utility.yul\":19439:19471   */\n      slt\n        /* \"#utility.yul\":19436:19555   */\n      iszero\n      tag_609\n      jumpi\n        /* \"#utility.yul\":19474:19553   */\n      tag_610\n      tag_339\n      jump\t// in\n    tag_610:\n        /* \"#utility.yul\":19436:19555   */\n    tag_609:\n        /* \"#utility.yul\":19594:19595   */\n      0x00\n        /* \"#utility.yul\":19619:19683   */\n      tag_611\n        /* \"#utility.yul\":19675:19682   */\n      dup5\n        /* \"#utility.yul\":19666:19672   */\n      dup3\n        /* \"#utility.yul\":19655:19664   */\n      dup6\n        /* \"#utility.yul\":19651:19673   */\n      add\n        /* \"#utility.yul\":19619:19683   */\n      tag_393\n      jump\t// in\n    tag_611:\n        /* \"#utility.yul\":19609:19683   */\n      swap2\n      pop\n        /* \"#utility.yul\":19565:19693   */\n      pop\n        /* \"#utility.yul\":19349:19700   */\n      swap3\n      swap2\n      pop\n      pop\n      jump\t// out\n        /* \"#utility.yul\":19706:19879   */\n    tag_394:\n        /* \"#utility.yul\":19846:19871   */\n      0x43616e6e6f74207472616e7366657220746f2073656c66000000000000000000\n        /* \"#utility.yul\":19842:19843   */\n      0x00\n        /* \"#utility.yul\":19834:19840   */\n      dup3\n        /* \"#utility.yul\":19830:19844   */\n      add\n        /* \"#utility.yul\":19823:19872   */\n      mstore\n        /* \"#utility.yul\":19706:19879   */\n      pop\n      jump\t// out\n        /* \"#utility.yul\":19885:20251   */\n    tag_395:\n        /* \"#utility.yul\":20027:20030   */\n      0x00\n        /* \"#utility.yul\":20048:20115   */\n      tag_614\n        /* \"#utility.yul\":20112:20114   */\n      0x17\n        /* \"#utility.yul\":20107:20110   */\n      dup4\n        /* \"#utility.yul\":20048:20115   */\n      tag_361\n      jump\t// in\n    tag_614:\n        /* \"#utility.yul\":20041:20115   */\n      swap2\n      pop\n        /* \"#utility.yul\":20124:20217   */\n      tag_615\n        /* \"#utility.yul\":20213:20216   */\n      dup3\n        /* \"#utility.yul\":20124:20217   */\n      tag_394\n      jump\t// in\n    tag_615:\n        /* \"#utility.yul\":20242:20244   */\n      0x20\n        /* \"#utility.yul\":20237:20240   */\n      dup3\n        /* \"#utility.yul\":20233:20245   */\n      add\n        /* \"#utility.yul\":20226:20245   */\n      swap1\n      pop\n        /* \"#utility.yul\":19885:20251   */\n      swap2\n      swap1\n      pop\n      jump\t// out\n        /* \"#utility.yul\":20257:20676   */\n    tag_224:\n        /* \"#utility.yul\":20423:20427   */\n      0x00\n        /* \"#utility.yul\":20461:20463   */\n      0x20\n        /* \"#utility.yul\":20450:20459   */\n      dup3\n        /* \"#utility.yul\":20446:20464   */\n      add\n        /* \"#utility.yul\":20438:20464   */\n      swap1\n      pop\n        /* \"#utility.yul\":20510:20519   */\n      dup2\n        /* \"#utility.yul\":20504:20508   */\n      dup2\n        /* \"#utility.yul\":20500:20520   */\n      sub\n        /* \"#utility.yul\":20496:20497   */\n      0x00\n        /* \"#utility.yul\":20485:20494   */\n      dup4\n        /* \"#utility.yul\":20481:20498   */\n      add\n        /* \"#utility.yul\":20474:20521   */\n      mstore\n        /* \"#utility.yul\":20538:20669   */\n      tag_617\n        /* \"#utility.yul\":20664:20668   */\n      dup2\n        /* \"#utility.yul\":20538:20669   */\n      tag_395\n      jump\t// in\n    tag_617:\n        /* \"#utility.yul\":20530:20669   */\n      swap1\n      pop\n        /* \"#utility.yul\":20257:20676   */\n      swap2\n      swap1\n      pop\n      jump\t// out\n        /* \"#utility.yul\":20682:20873   */\n    tag_254:\n        /* \"#utility.yul\":20722:20725   */\n      0x00\n        /* \"#utility.yul\":20741:20761   */\n      tag_619\n        /* \"#utility.yul\":20759:20760   */\n      dup3\n        /* \"#utility.yul\":20741:20761   */\n      tag_341\n      jump\t// in\n    tag_619:\n        /* \"#utility.yul\":20736:20761   */\n      swap2\n      pop\n        /* \"#utility.yul\":20775:20795   */\n      tag_620\n        /* \"#utility.yul\":20793:20794   */\n      dup4\n        /* \"#utility.yul\":20775:20795   */\n      tag_341\n      jump\t// in\n    tag_620:\n        /* \"#utility.yul\":20770:20795   */\n      swap3\n      pop\n        /* \"#utility.yul\":20818:20819   */\n      dup3\n        /* \"#utility.yul\":20815:20816   */\n      dup3\n        /* \"#utility.yul\":20811:20820   */\n      add\n        /* \"#utility.yul\":20804:20820   */\n      swap1\n      pop\n        /* \"#utility.yul\":20839:20842   */\n      dup1\n        /* \"#utility.yul\":20836:20837   */\n      dup3\n        /* \"#utility.yul\":20833:20843   */\n      gt\n        /* \"#utility.yul\":20830:20866   */\n      iszero\n      tag_621\n      jumpi\n        /* \"#utility.yul\":20846:20864   */\n      tag_622\n      tag_380\n      jump\t// in\n    tag_622:\n        /* \"#utility.yul\":20830:20866   */\n    tag_621:\n        /* \"#utility.yul\":20682:20873   */\n      swap3\n      swap2\n      pop\n      pop\n      jump\t// out\n        /* \"#utility.yul\":20879:21055   */\n    tag_265:\n        /* \"#utility.yul\":20911:20912   */\n      0x00\n        /* \"#utility.yul\":20928:20948   */\n      tag_624\n        /* \"#utility.yul\":20946:20947   */\n      dup3\n        /* \"#utility.yul\":20928:20948   */\n      tag_341\n      jump\t// in\n    tag_624:\n        /* \"#utility.yul\":20923:20948   */\n      swap2\n      pop\n        /* \"#utility.yul\":20962:20982   */\n      tag_625\n        /* \"#utility.yul\":20980:20981   */\n      dup4\n        /* \"#utility.yul\":20962:20982   */\n      tag_341\n      jump\t// in\n    tag_625:\n        /* \"#utility.yul\":20957:20982   */\n      swap3\n      pop\n        /* \"#utility.yul\":21001:21002   */\n      dup3\n        /* \"#utility.yul\":20991:21026   */\n      tag_626\n      jumpi\n        /* \"#utility.yul\":21006:21024   */\n      tag_627\n      tag_381\n      jump\t// in\n    tag_627:\n        /* \"#utility.yul\":20991:21026   */\n    tag_626:\n        /* \"#utility.yul\":21047:21048   */\n      dup3\n        /* \"#utility.yul\":21044:21045   */\n      dup3\n        /* \"#utility.yul\":21040:21049   */\n      mod\n        /* \"#utility.yul\":21035:21049   */\n      swap1\n      pop\n        /* \"#utility.yul\":20879:21055   */\n      swap3\n      swap2\n      pop\n      pop\n      jump\t// out\n        /* \"#utility.yul\":21061:21163   */\n    tag_396:\n        /* \"#utility.yul\":21103:21111   */\n      0x00\n        /* \"#utility.yul\":21150:21155   */\n      dup2\n        /* \"#utility.yul\":21147:21148   */\n      0x01\n        /* \"#utility.yul\":21143:21156   */\n      shr\n        /* \"#utility.yul\":21122:21156   */\n      swap1\n      pop\n        /* \"#utility.yul\":21061:21163   */\n      swap2\n      swap1\n      pop\n      jump\t// out\n        /* \"#utility.yul\":21169:22017   */\n    tag_397:\n        /* \"#utility.yul\":21230:21235   */\n      0x00\n        /* \"#utility.yul\":21237:21241   */\n      dup1\n        /* \"#utility.yul\":21261:21267   */\n      dup3\n        /* \"#utility.yul\":21252:21267   */\n      swap2\n      pop\n        /* \"#utility.yul\":21285:21290   */\n      dup4\n        /* \"#utility.yul\":21276:21290   */\n      swap1\n      pop\n        /* \"#utility.yul\":21299:22011   */\n    tag_630:\n        /* \"#utility.yul\":21320:21321   */\n      0x01\n        /* \"#utility.yul\":21310:21318   */\n      dup6\n        /* \"#utility.yul\":21307:21322   */\n      gt\n        /* \"#utility.yul\":21299:22011   */\n      iszero\n      tag_632\n      jumpi\n        /* \"#utility.yul\":21415:21419   */\n      dup1\n        /* \"#utility.yul\":21410:21413   */\n      dup7\n        /* \"#utility.yul\":21406:21420   */\n      div\n        /* \"#utility.yul\":21400:21404   */\n      dup2\n        /* \"#utility.yul\":21397:21421   */\n      gt\n        /* \"#utility.yul\":21394:21444   */\n      iszero\n      tag_633\n      jumpi\n        /* \"#utility.yul\":21424:21442   */\n      tag_634\n      tag_380\n      jump\t// in\n    tag_634:\n        /* \"#utility.yul\":21394:21444   */\n    tag_633:\n        /* \"#utility.yul\":21474:21475   */\n      0x01\n        /* \"#utility.yul\":21464:21472   */\n      dup6\n        /* \"#utility.yul\":21460:21476   */\n      and\n        /* \"#utility.yul\":21457:21908   */\n      iszero\n      tag_635\n      jumpi\n        /* \"#utility.yul\":21889:21893   */\n      dup1\n        /* \"#utility.yul\":21882:21887   */\n      dup3\n        /* \"#utility.yul\":21878:21894   */\n      mul\n        /* \"#utility.yul\":21869:21894   */\n      swap2\n      pop\n        /* \"#utility.yul\":21457:21908   */\n    tag_635:\n        /* \"#utility.yul\":21939:21943   */\n      dup1\n        /* \"#utility.yul\":21933:21937   */\n      dup2\n        /* \"#utility.yul\":21929:21944   */\n      mul\n        /* \"#utility.yul\":21921:21944   */\n      swap1\n      pop\n        /* \"#utility.yul\":21969:22001   */\n      tag_636\n        /* \"#utility.yul\":21992:22000   */\n      dup6\n        /* \"#utility.yul\":21969:22001   */\n      tag_396\n      jump\t// in\n    tag_636:\n        /* \"#utility.yul\":21957:22001   */\n      swap5\n      pop\n        /* \"#utility.yul\":21299:22011   */\n      jump(tag_630)\n    tag_632:\n        /* \"#utility.yul\":21169:22017   */\n      swap5\n      pop\n      swap5\n      swap3\n      pop\n      pop\n      pop\n      jump\t// out\n        /* \"#utility.yul\":22023:23096   */\n    tag_398:\n        /* \"#utility.yul\":22077:22082   */\n      0x00\n        /* \"#utility.yul\":22268:22276   */\n      dup3\n        /* \"#utility.yul\":22258:22298   */\n      tag_638\n      jumpi\n        /* \"#utility.yul\":22289:22290   */\n      0x01\n        /* \"#utility.yul\":22280:22290   */\n      swap1\n      pop\n        /* \"#utility.yul\":22291:22296   */\n      jump(tag_637)\n        /* \"#utility.yul\":22258:22298   */\n    tag_638:\n        /* \"#utility.yul\":22317:22321   */\n      dup2\n        /* \"#utility.yul\":22307:22343   */\n      tag_639\n      jumpi\n        /* \"#utility.yul\":22334:22335   */\n      0x00\n        /* \"#utility.yul\":22325:22335   */\n      swap1\n      pop\n        /* \"#utility.yul\":22336:22341   */\n      jump(tag_637)\n        /* \"#utility.yul\":22307:22343   */\n    tag_639:\n        /* \"#utility.yul\":22403:22407   */\n      dup2\n        /* \"#utility.yul\":22451:22452   */\n      0x01\n        /* \"#utility.yul\":22446:22473   */\n      dup2\n      eq\n      tag_641\n      jumpi\n        /* \"#utility.yul\":22487:22488   */\n      0x02\n        /* \"#utility.yul\":22482:22673   */\n      dup2\n      eq\n      tag_642\n      jumpi\n        /* \"#utility.yul\":22396:22673   */\n      jump(tag_640)\n        /* \"#utility.yul\":22446:22473   */\n    tag_641:\n        /* \"#utility.yul\":22464:22465   */\n      0x01\n        /* \"#utility.yul\":22455:22465   */\n      swap2\n      pop\n        /* \"#utility.yul\":22466:22471   */\n      pop\n      jump(tag_637)\n        /* \"#utility.yul\":22482:22673   */\n    tag_642:\n        /* \"#utility.yul\":22527:22530   */\n      0xff\n        /* \"#utility.yul\":22517:22525   */\n      dup5\n        /* \"#utility.yul\":22514:22531   */\n      gt\n        /* \"#utility.yul\":22511:22554   */\n      iszero\n      tag_643\n      jumpi\n        /* \"#utility.yul\":22534:22552   */\n      tag_644\n      tag_380\n      jump\t// in\n    tag_644:\n        /* \"#utility.yul\":22511:22554   */\n    tag_643:\n        /* \"#utility.yul\":22583:22591   */\n      dup4\n        /* \"#utility.yul\":22580:22581   */\n      0x02\n        /* \"#utility.yul\":22576:22592   */\n      exp\n        /* \"#utility.yul\":22567:22592   */\n      swap2\n      pop\n        /* \"#utility.yul\":22618:22621   */\n      dup5\n        /* \"#utility.yul\":22611:22616   */\n      dup3\n        /* \"#utility.yul\":22608:22622   */\n      gt\n        /* \"#utility.yul\":22605:22645   */\n      iszero\n      tag_645\n      jumpi\n        /* \"#utility.yul\":22625:22643   */\n      tag_646\n      tag_380\n      jump\t// in\n    tag_646:\n        /* \"#utility.yul\":22605:22645   */\n    tag_645:\n        /* \"#utility.yul\":22658:22663   */\n      pop\n      jump(tag_637)\n        /* \"#utility.yul\":22396:22673   */\n    tag_640:\n      pop\n        /* \"#utility.yul\":22782:22784   */\n      0x20\n        /* \"#utility.yul\":22772:22780   */\n      dup4\n        /* \"#utility.yul\":22769:22785   */\n      lt\n        /* \"#utility.yul\":22763:22766   */\n      0x0133\n        /* \"#utility.yul\":22757:22761   */\n      dup4\n        /* \"#utility.yul\":22754:22767   */\n      lt\n        /* \"#utility.yul\":22750:22786   */\n      and\n        /* \"#utility.yul\":22732:22734   */\n      0x4e\n        /* \"#utility.yul\":22722:22730   */\n      dup5\n        /* \"#utility.yul\":22719:22735   */\n      lt\n        /* \"#utility.yul\":22714:22716   */\n      0x0b\n        /* \"#utility.yul\":22708:22712   */\n      dup5\n        /* \"#utility.yul\":22705:22717   */\n      lt\n        /* \"#utility.yul\":22701:22736   */\n      and\n        /* \"#utility.yul\":22685:22796   */\n      or\n        /* \"#utility.yul\":22682:22928   */\n      iszero\n      tag_647\n      jumpi\n        /* \"#utility.yul\":22838:22846   */\n      dup3\n        /* \"#utility.yul\":22832:22836   */\n      dup3\n        /* \"#utility.yul\":22828:22847   */\n      exp\n        /* \"#utility.yul\":22819:22847   */\n      swap1\n      pop\n        /* \"#utility.yul\":22873:22876   */\n      dup4\n        /* \"#utility.yul\":22866:22871   */\n      dup2\n        /* \"#utility.yul\":22863:22877   */\n      gt\n        /* \"#utility.yul\":22860:22900   */\n      iszero\n      tag_648\n      jumpi\n        /* \"#utility.yul\":22880:22898   */\n      tag_649\n      tag_380\n      jump\t// in\n    tag_649:\n        /* \"#utility.yul\":22860:22900   */\n    tag_648:\n        /* \"#utility.yul\":22913:22918   */\n      jump(tag_637)\n        /* \"#utility.yul\":22682:22928   */\n    tag_647:\n        /* \"#utility.yul\":22953:22995   */\n      tag_650\n        /* \"#utility.yul\":22991:22994   */\n      dup5\n        /* \"#utility.yul\":22981:22989   */\n      dup5\n        /* \"#utility.yul\":22975:22979   */\n      dup5\n        /* \"#utility.yul\":22972:22973   */\n      0x01\n        /* \"#utility.yul\":22953:22995   */\n      tag_397\n      jump\t// in\n    tag_650:\n        /* \"#utility.yul\":22938:22995   */\n      swap3\n      pop\n      swap1\n      pop\n        /* \"#utility.yul\":23027:23031   */\n      dup2\n        /* \"#utility.yul\":23022:23025   */\n      dup5\n        /* \"#utility.yul\":23018:23032   */\n      div\n        /* \"#utility.yul\":23011:23016   */\n      dup2\n        /* \"#utility.yul\":23008:23033   */\n      gt\n        /* \"#utility.yul\":23005:23056   */\n      iszero\n      tag_651\n      jumpi\n        /* \"#utility.yul\":23036:23054   */\n      tag_652\n      tag_380\n      jump\t// in\n    tag_652:\n        /* \"#utility.yul\":23005:23056   */\n    tag_651:\n        /* \"#utility.yul\":23085:23089   */\n      dup2\n        /* \"#utility.yul\":23078:23083   */\n      dup2\n        /* \"#utility.yul\":23074:23090   */\n      mul\n        /* \"#utility.yul\":23065:23090   */\n      swap1\n      pop\n        /* \"#utility.yul\":22023:23096   */\n    tag_637:\n      swap4\n      swap3\n      pop\n      pop\n      pop\n      jump\t// out\n        /* \"#utility.yul\":23102:23387   */\n    tag_311:\n        /* \"#utility.yul\":23162:23167   */\n      0x00\n        /* \"#utility.yul\":23186:23209   */\n      tag_654\n        /* \"#utility.yul\":23204:23208   */\n      dup3\n        /* \"#utility.yul\":23186:23209   */\n      tag_341\n      jump\t// in\n    tag_654:\n        /* \"#utility.yul\":23178:23209   */\n      swap2\n      pop\n        /* \"#utility.yul\":23230:23257   */\n      tag_655\n        /* \"#utility.yul\":23248:23256   */\n      dup4\n        /* \"#utility.yul\":23230:23257   */\n      tag_341\n      jump\t// in\n    tag_655:\n        /* \"#utility.yul\":23218:23257   */\n      swap3\n      pop\n        /* \"#utility.yul\":23276:23380   */\n      tag_656\n        /* \"#utility.yul\":23313:23379   */\n      0xffffffffffffffffffffffffffffffffffffffffffffffffffffffffffffffff\n        /* \"#utility.yul\":23303:23311   */\n      dup5\n        /* \"#utility.yul\":23297:23301   */\n      dup5\n        /* \"#utility.yul\":23276:23380   */\n      tag_398\n      jump\t// in\n    tag_656:\n        /* \"#utility.yul\":23267:23380   */\n      swap1\n      pop\n        /* \"#utility.yul\":23102:23387   */\n      swap3\n      swap2\n      pop\n      pop\n      jump\t// out\n    stop\n    data_b4e3728531a6a78c2e6f832be80dc65af1c8e746943d6995899471c6dcfe9aaa 555344205072696365203d20545744205072696365202f205553442d54574420526174652028696e2063656e747329\n\n    auxdata: 0xa2646970667358221220564848a99f003ec35a03ce22d89717ff6953fa6ff2f7455eb2ab6fd9cefc150464736f6c63430008140033\n}\n",
				"bytecode": {
					"linkReferences": {},
					"object": "60a0604052620493e0600560086101000a81548163ffffffff021916908363ffffffff160217905550604051806102c00160405280610288815260200162002ba9610288913960079081620000559190620005aa565b5034801562000062575f80fd5b5033805f73b83e47c2bc239b3bf370bc41e1459a34b41238d08073ffffffffffffffffffffffffffffffffffffffff1660808173ffffffffffffffffffffffffffffffffffffffff1681525050505f73ffffffffffffffffffffffffffffffffffffffff168273ffffffffffffffffffffffffffffffffffffffff160362000121576040517f08c379a00000000000000000000000000000000000000000000000000000000081526004016200011890620006ec565b60405180910390fd5b815f806101000a81548173ffffffffffffffffffffffffffffffffffffffff021916908373ffffffffffffffffffffffffffffffffffffffff1602179055505f73ffffffffffffffffffffffffffffffffffffffff168173ffffffffffffffffffffffffffffffffffffffff1614620001a657620001a5816200021960201b60201c565b5b50505061160760055f6101000a81548167ffffffffffffffff021916908367ffffffffffffffff1602179055507f66756e2d657468657265756d2d7365706f6c69612d31000000000000000000005f1b6006819055506801158e460913d00000600281905550426003819055506200077a565b3373ffffffffffffffffffffffffffffffffffffffff168173ffffffffffffffffffffffffffffffffffffffff16036200028a576040517f08c379a000000000000000000000000000000000000000000000000000000000815260040162000281906200075a565b60405180910390fd5b8060015f6101000a81548173ffffffffffffffffffffffffffffffffffffffff021916908373ffffffffffffffffffffffffffffffffffffffff1602179055508073ffffffffffffffffffffffffffffffffffffffff165f8054906101000a900473ffffffffffffffffffffffffffffffffffffffff1673ffffffffffffffffffffffffffffffffffffffff167fed8889f560326eb138920d842192f0eb3dd22b4f139c87a2c57538e05bae127860405160405180910390a350565b5f81519050919050565b7f4e487b71000000000000000000000000000000000000000000000000000000005f52604160045260245ffd5b7f4e487b71000000000000000000000000000000000000000000000000000000005f52602260045260245ffd5b5f6002820490506001821680620003c257607f821691505b602082108103620003d857620003d76200037d565b5b50919050565b5f819050815f5260205f209050919050565b5f6020601f8301049050919050565b5f82821b905092915050565b5f600883026200043c7fffffffffffffffffffffffffffffffffffffffffffffffffffffffffffffffff82620003ff565b620004488683620003ff565b95508019841693508086168417925050509392505050565b5f819050919050565b5f819050919050565b5f620004926200048c620004868462000460565b62000469565b62000460565b9050919050565b5f819050919050565b620004ad8362000472565b620004c5620004bc8262000499565b8484546200040b565b825550505050565b5f90565b620004db620004cd565b620004e8818484620004a2565b505050565b5b818110156200050f57620005035f82620004d1565b600181019050620004ee565b5050565b601f8211156200055e576200052881620003de565b6200053384620003f0565b8101602085101562000543578190505b6200055b6200055285620003f0565b830182620004ed565b50505b505050565b5f82821c905092915050565b5f620005805f198460080262000563565b1980831691505092915050565b5f6200059a83836200056f565b9150826002028217905092915050565b620005b58262000346565b67ffffffffffffffff811115620005d157620005d062000350565b5b620005dd8254620003aa565b620005ea82828562000513565b5f60209050601f83116001811462000620575f84156200060b578287015190505b6200061785826200058d565b86555062000686565b601f1984166200063086620003de565b5f5b82811015620006595784890151825560018201915060208501945060208101905062000632565b8683101562000679578489015162000675601f8916826200056f565b8355505b6001600288020188555050505b505050505050565b5f82825260208201905092915050565b7f43616e6e6f7420736574206f776e657220746f207a65726f00000000000000005f82015250565b5f620006d46018836200068e565b9150620006e1826200069e565b602082019050919050565b5f6020820190508181035f8301526200070581620006c6565b9050919050565b7f43616e6e6f74207472616e7366657220746f2073656c660000000000000000005f82015250565b5f620007426017836200068e565b91506200074f826200070c565b602082019050919050565b5f6020820190508181035f830152620007738162000734565b9050919050565b60805161240f6200079a5f395f81816103e30152610e3a015261240f5ff3fe608060405234801561000f575f80fd5b5060043610610114575f3560e01c80639c84cd10116100a0578063ec2b70a41161006f578063ec2b70a41461028b578063f2fde38b146102a9578063f68016b7146102c5578063fc2a88c3146102e3578063ff8e583a1461030157610114565b80639c84cd1014610211578063afdb055614610233578063c8f33c9114610251578063d0f784f01461026f57610114565b80632f5df725116100e75780632f5df7251461018f5780636e74336b146101ad57806379ba5097146101cb5780638da5cb5b146101d55780638e15f473146101f357610114565b806305239ca11461011857806309c1ba2e146101345780630ca761751461015257806326c4c8891461016e575b5f80fd5b610132600480360381019061012d919061172a565b61031f565b005b61013c6103c8565b6040516101499190611777565b60405180910390f35b61016c600480360381019061016791906118ff565b6103e1565b005b6101766104a3565b6040516101869493929190611a10565b60405180910390f35b6101976104ea565b6040516101a49190611a74565b60405180910390f35b6101b5610502565b6040516101c29190611a9c565b60405180910390f35b6101d3610508565b005b6101dd610697565b6040516101ea9190611af4565b60405180910390f35b6101fb6106be565b6040516102089190611b0d565b60405180910390f35b6102196106c7565b60405161022a959493929190611b26565b60405180910390f35b61023b610709565b6040516102489190611a9c565b60405180910390f35b610259610824565b6040516102669190611b0d565b60405180910390f35b61028960048036038101906102849190611bda565b61082a565b005b610293610887565b6040516102a09190611b0d565b60405180910390f35b6102c360048036038101906102be9190611c54565b6108a2565b005b6102cd6108b6565b6040516102da9190611c8e565b60405180910390f35b6102eb6108cc565b6040516102f89190611a9c565b60405180910390f35b6103096108d2565b6040516103169190611b0d565b60405180910390f35b6103276108db565b5f8111610369576040517f08c379a000000000000000000000000000000000000000000000000000000000815260040161036090611cf1565b60405180910390fd5b670de0b6b3a76400008161037d9190611d3c565b600281905550426003819055507f945c1c4e99aa89f648fbfe3df471b916f719e16d960fcec0737d4d56bd696838600254426040516103bd929190611d7d565b60405180910390a150565b60055f9054906101000a900467ffffffffffffffff1681565b7f000000000000000000000000000000000000000000000000000000000000000073ffffffffffffffffffffffffffffffffffffffff163373ffffffffffffffffffffffffffffffffffffffff1614610466576040517fc6829f8300000000000000000000000000000000000000000000000000000000815260040160405180910390fd5b61047183838361096a565b827f85e1543bf2f84fe80c6badbce3648c8539ad1df4d2b3d822938ca0538be727e660405160405180910390a2505050565b5f805f6060600254662386f26fc100006002546104c09190611dd1565b6002546040518060600160405280602f81526020016123ab602f9139935093509350935090919293565b5f610e10600354426104fc9190611e01565b11905090565b60065481565b60015f9054906101000a900473ffffffffffffffffffffffffffffffffffffffff1673ffffffffffffffffffffffffffffffffffffffff163373ffffffffffffffffffffffffffffffffffffffff1614610597576040517f08c379a000000000000000000000000000000000000000000000000000000000815260040161058e90611e7e565b60405180910390fd5b5f805f9054906101000a900473ffffffffffffffffffffffffffffffffffffffff169050335f806101000a81548173ffffffffffffffffffffffffffffffffffffffff021916908373ffffffffffffffffffffffffffffffffffffffff1602179055505f60015f6101000a81548173ffffffffffffffffffffffffffffffffffffffff021916908373ffffffffffffffffffffffffffffffffffffffff1602179055503373ffffffffffffffffffffffffffffffffffffffff168173ffffffffffffffffffffffffffffffffffffffff167f8be0079c531659141344cd1fd0a4f28419497f9722a3daafe3b4186f6b6457e060405160405180910390a350565b5f805f9054906101000a900473ffffffffffffffffffffffffffffffffffffffff16905090565b5f600254905090565b5f805f805f600254662386f26fc100006002546106e49190611dd1565b600354600354426106f59190611e01565b600454945094509450945094509091929394565b5f61071261163f565b6107ad6007805461072290611ec9565b80601f016020809104026020016040519081016040528092919081815260200182805461074e90611ec9565b80156107995780601f1061077057610100808354040283529160200191610799565b820191905f5260205f20905b81548152906001019060200180831161077c57829003601f168201915b505050505082610a1590919063ffffffff16565b6107ea6107b982610a25565b60055f9054906101000a900467ffffffffffffffff16600560089054906101000a900463ffffffff16600654610e36565b915081600481905550817f655f2dca0174ce451aa939c62ea493c734778cc67c6783626b08ad34985e6c6160405160405180910390a25090565b60035481565b6108326108db565b8260055f6101000a81548167ffffffffffffffff021916908367ffffffffffffffff16021790555081600560086101000a81548163ffffffff021916908363ffffffff16021790555080600681905550505050565b5f662386f26fc1000060025461089d9190611dd1565b905090565b6108aa6108db565b6108b381610f15565b50565b600560089054906101000a900463ffffffff1681565b60045481565b5f600254905090565b5f8054906101000a900473ffffffffffffffffffffffffffffffffffffffff1673ffffffffffffffffffffffffffffffffffffffff163373ffffffffffffffffffffffffffffffffffffffff1614610968576040517f08c379a000000000000000000000000000000000000000000000000000000000815260040161095f90611f43565b60405180910390fd5b565b5f815111156109b057827f61982c98cbc49d11759a948f460b92bca26bdf12ceee12c310f117eb2ca9a9cb826040516109a39190611fb3565b60405180910390a2610a10565b5f828060200190518101906109c59190611fe7565b905080600281905550426003819055507f945c1c4e99aa89f648fbfe3df471b916f719e16d960fcec0737d4d56bd6968388142604051610a06929190611d7d565b60405180910390a1505b505050565b610a21825f808461103f565b5050565b60605f610a336101006110e5565b9050610a7d6040518060400160405280600c81526020017f636f64654c6f636174696f6e00000000000000000000000000000000000000008152508261110a90919063ffffffff16565b610aa5835f01516002811115610a9657610a95612012565b5b8261113290919063ffffffff16565b610aed6040518060400160405280600881526020017f6c616e67756167650000000000000000000000000000000000000000000000008152508261110a90919063ffffffff16565b610b1583604001515f811115610b0657610b05612012565b5b8261113290919063ffffffff16565b610b5d6040518060400160405280600681526020017f736f7572636500000000000000000000000000000000000000000000000000008152508261110a90919063ffffffff16565b610b7483606001518261110a90919063ffffffff16565b5f8360a00151511115610c2e57610bc96040518060400160405280600481526020017f61726773000000000000000000000000000000000000000000000000000000008152508261110a90919063ffffffff16565b610bd281611181565b5f5b8360a0015151811015610c2357610c128460a001518281518110610bfb57610bfa61203f565b5b60200260200101518361110a90919063ffffffff16565b80610c1c9061206c565b9050610bd4565b50610c2d816111a9565b5b5f8360800151511115610d6d575f6002811115610c4e57610c4d612012565b5b83602001516002811115610c6557610c64612012565b5b03610c9c576040517fa80d31f700000000000000000000000000000000000000000000000000000000815260040160405180910390fd5b610ce46040518060400160405280600f81526020017f736563726574734c6f636174696f6e00000000000000000000000000000000008152508261110a90919063ffffffff16565b610d0d83602001516002811115610cfe57610cfd612012565b5b8261113290919063ffffffff16565b610d556040518060400160405280600781526020017f73656372657473000000000000000000000000000000000000000000000000008152508261110a90919063ffffffff16565b610d6c8360800151826111d190919063ffffffff16565b5b5f8360c00151511115610e2757610dc26040518060400160405280600981526020017f62797465734172677300000000000000000000000000000000000000000000008152508261110a90919063ffffffff16565b610dcb81611181565b5f5b8360c0015151811015610e1c57610e0b8460c001518281518110610df457610df361203f565b5b6020026020010151836111d190919063ffffffff16565b80610e159061206c565b9050610dcd565b50610e26816111a9565b5b805f01515f0151915050919050565b5f807f000000000000000000000000000000000000000000000000000000000000000073ffffffffffffffffffffffffffffffffffffffff1663461d27628688600188886040518663ffffffff1660e01b8152600401610e9a9594939291906120cf565b6020604051808303815f875af1158015610eb6573d5f803e3d5ffd5b505050506040513d601f19601f82011682018060405250810190610eda919061213b565b9050807f1131472297a800fee664d1d89cfa8f7676ff07189ecc53f80bbb5f4969099db860405160405180910390a280915050949350505050565b3373ffffffffffffffffffffffffffffffffffffffff168173ffffffffffffffffffffffffffffffffffffffff1603610f83576040517f08c379a0000000000000000000000000000000000000000000000000000000008152600401610f7a906121b0565b60405180910390fd5b8060015f6101000a81548173ffffffffffffffffffffffffffffffffffffffff021916908373ffffffffffffffffffffffffffffffffffffffff1602179055508073ffffffffffffffffffffffffffffffffffffffff165f8054906101000a900473ffffffffffffffffffffffffffffffffffffffff1673ffffffffffffffffffffffffffffffffffffffff167fed8889f560326eb138920d842192f0eb3dd22b4f139c87a2c57538e05bae127860405160405180910390a350565b5f815103611079576040517f22ce3edd00000000000000000000000000000000000000000000000000000000815260040160405180910390fd5b82845f019060028111156110905761108f612012565b5b908160028111156110a4576110a3612012565b5b815250508184604001905f8111156110bf576110be612012565b5b90815f8111156110d2576110d1612012565b5b8152505080846060018190525050505050565b6110ed6116ae565b6110fa815f0151836111f9565b505f816020018181525050919050565b611117826003835161126f565b61112d81835f015161140f90919063ffffffff16565b505050565b61115360026005600660ff16901b17835f015161142b90919063ffffffff16565b5061117d82826040516020016111699190611b0d565b6040516020818303038152906040526111d1565b5050565b61118c816004611492565b60018160200181815161119f91906121ce565b9150818152505050565b6111b4816007611492565b6001816020018181516111c79190611e01565b9150818152505050565b6111de826002835161126f565b6111f481835f015161140f90919063ffffffff16565b505050565b6112016116cd565b5f60208361120f9190612201565b1461123b576020826112219190612201565b602061122d9190611e01565b8261123891906121ce565b91505b818360200181815250506040518084525f815282810160200181811015611260575f80fd5b80604052505082905092915050565b60178167ffffffffffffffff16116112a9576112a38160058460ff16901b60ff1617845f015161142b90919063ffffffff16565b5061140a565b60ff8167ffffffffffffffff1611611305576112db601860058460ff16901b17845f015161142b90919063ffffffff16565b506112ff8167ffffffffffffffff166001855f01516114b79092919063ffffffff16565b50611409565b61ffff8167ffffffffffffffff161161136257611338601960058460ff16901b17845f015161142b90919063ffffffff16565b5061135c8167ffffffffffffffff166002855f01516114b79092919063ffffffff16565b50611408565b63ffffffff8167ffffffffffffffff16116113c157611397601a60058460ff16901b17845f015161142b90919063ffffffff16565b506113bb8167ffffffffffffffff166004855f01516114b79092919063ffffffff16565b50611407565b6113e1601b60058460ff16901b17845f015161142b90919063ffffffff16565b506114058167ffffffffffffffff166008855f01516114b79092919063ffffffff16565b505b5b5b5b505050565b6114176116cd565b61142383838451611540565b905092915050565b6114336116cd565b5f835f01515190505f60018261144991906121ce565b90508460200151821061146d5761146c856002836114679190611d3c565b61161d565b5b84516020838201018581538151831115611485578282525b5050849250505092915050565b6114b2601f60058360ff16901b17835f015161142b90919063ffffffff16565b505050565b6114bf6116cd565b5f845f01515190505f81846114d491906121ce565b905085602001518111156114f9576114f8866002836114f39190611d3c565b61161d565b5b5f60018561010061150a9190612360565b6115149190611e01565b905086518281018783198251161781528151841115611531578382525b50508693505050509392505050565b6115486116cd565b8251821115611555575f80fd5b5f845f01515190505f838261156a91906121ce565b9050856020015181111561158f5761158e866002836115899190611d3c565b61161d565b5b5f80875180518560208301019350808511156115a9578482525b60208901925050505b602086106115f057805182526020826115cb91906121ce565b91506020816115da91906121ce565b90506020866115e99190611e01565b95506115b2565b5f6001876020036101000a0390508019825116818451168181178552505050879450505050509392505050565b5f825f0151905061162e83836111f9565b50611639838261140f565b50505050565b6040518060e001604052805f600281111561165d5761165c612012565b5b81526020015f600281111561167557611674612012565b5b81526020015f8081111561168c5761168b612012565b5b8152602001606081526020016060815260200160608152602001606081525090565b60405180604001604052806116c16116cd565b81526020015f81525090565b6040518060400160405280606081526020015f81525090565b5f604051905090565b5f80fd5b5f80fd5b5f819050919050565b611709816116f7565b8114611713575f80fd5b50565b5f8135905061172481611700565b92915050565b5f6020828403121561173f5761173e6116ef565b5b5f61174c84828501611716565b91505092915050565b5f67ffffffffffffffff82169050919050565b61177181611755565b82525050565b5f60208201905061178a5f830184611768565b92915050565b5f819050919050565b6117a281611790565b81146117ac575f80fd5b50565b5f813590506117bd81611799565b92915050565b5f80fd5b5f80fd5b5f601f19601f8301169050919050565b7f4e487b71000000000000000000000000000000000000000000000000000000005f52604160045260245ffd5b611811826117cb565b810181811067ffffffffffffffff821117156118305761182f6117db565b5b80604052505050565b5f6118426116e6565b905061184e8282611808565b919050565b5f67ffffffffffffffff82111561186d5761186c6117db565b5b611876826117cb565b9050602081019050919050565b828183375f83830152505050565b5f6118a361189e84611853565b611839565b9050828152602081018484840111156118bf576118be6117c7565b5b6118ca848285611883565b509392505050565b5f82601f8301126118e6576118e56117c3565b5b81356118f6848260208601611891565b91505092915050565b5f805f60608486031215611916576119156116ef565b5b5f611923868287016117af565b935050602084013567ffffffffffffffff811115611944576119436116f3565b5b611950868287016118d2565b925050604084013567ffffffffffffffff811115611971576119706116f3565b5b61197d868287016118d2565b9150509250925092565b611990816116f7565b82525050565b5f81519050919050565b5f82825260208201905092915050565b5f5b838110156119cd5780820151818401526020810190506119b2565b5f8484015250505050565b5f6119e282611996565b6119ec81856119a0565b93506119fc8185602086016119b0565b611a05816117cb565b840191505092915050565b5f608082019050611a235f830187611987565b611a306020830186611987565b611a3d6040830185611987565b8181036060830152611a4f81846119d8565b905095945050505050565b5f8115159050919050565b611a6e81611a5a565b82525050565b5f602082019050611a875f830184611a65565b92915050565b611a9681611790565b82525050565b5f602082019050611aaf5f830184611a8d565b92915050565b5f73ffffffffffffffffffffffffffffffffffffffff82169050919050565b5f611ade82611ab5565b9050919050565b611aee81611ad4565b82525050565b5f602082019050611b075f830184611ae5565b92915050565b5f602082019050611b205f830184611987565b92915050565b5f60a082019050611b395f830188611987565b611b466020830187611987565b611b536040830186611987565b611b606060830185611987565b611b6d6080830184611a8d565b9695505050505050565b611b8081611755565b8114611b8a575f80fd5b50565b5f81359050611b9b81611b77565b92915050565b5f63ffffffff82169050919050565b611bb981611ba1565b8114611bc3575f80fd5b50565b5f81359050611bd481611bb0565b92915050565b5f805f60608486031215611bf157611bf06116ef565b5b5f611bfe86828701611b8d565b9350506020611c0f86828701611bc6565b9250506040611c20868287016117af565b9150509250925092565b611c3381611ad4565b8114611c3d575f80fd5b50565b5f81359050611c4e81611c2a565b92915050565b5f60208284031215611c6957611c686116ef565b5b5f611c7684828501611c40565b91505092915050565b611c8881611ba1565b82525050565b5f602082019050611ca15f830184611c7f565b92915050565b7f5072696365206d7573742062652067726561746572207468616e2030000000005f82015250565b5f611cdb601c836119a0565b9150611ce682611ca7565b602082019050919050565b5f6020820190508181035f830152611d0881611ccf565b9050919050565b7f4e487b71000000000000000000000000000000000000000000000000000000005f52601160045260245ffd5b5f611d46826116f7565b9150611d51836116f7565b9250828202611d5f816116f7565b91508282048414831517611d7657611d75611d0f565b5b5092915050565b5f604082019050611d905f830185611987565b611d9d6020830184611987565b9392505050565b7f4e487b71000000000000000000000000000000000000000000000000000000005f52601260045260245ffd5b5f611ddb826116f7565b9150611de6836116f7565b925082611df657611df5611da4565b5b828204905092915050565b5f611e0b826116f7565b9150611e16836116f7565b9250828203905081811115611e2e57611e2d611d0f565b5b92915050565b7f4d7573742062652070726f706f736564206f776e6572000000000000000000005f82015250565b5f611e686016836119a0565b9150611e7382611e34565b602082019050919050565b5f6020820190508181035f830152611e9581611e5c565b9050919050565b7f4e487b71000000000000000000000000000000000000000000000000000000005f52602260045260245ffd5b5f6002820490506001821680611ee057607f821691505b602082108103611ef357611ef2611e9c565b5b50919050565b7f4f6e6c792063616c6c61626c65206279206f776e6572000000000000000000005f82015250565b5f611f2d6016836119a0565b9150611f3882611ef9565b602082019050919050565b5f6020820190508181035f830152611f5a81611f21565b9050919050565b5f81519050919050565b5f82825260208201905092915050565b5f611f8582611f61565b611f8f8185611f6b565b9350611f9f8185602086016119b0565b611fa8816117cb565b840191505092915050565b5f6020820190508181035f830152611fcb8184611f7b565b905092915050565b5f81519050611fe181611700565b92915050565b5f60208284031215611ffc57611ffb6116ef565b5b5f61200984828501611fd3565b91505092915050565b7f4e487b71000000000000000000000000000000000000000000000000000000005f52602160045260245ffd5b7f4e487b71000000000000000000000000000000000000000000000000000000005f52603260045260245ffd5b5f612076826116f7565b91507fffffffffffffffffffffffffffffffffffffffffffffffffffffffffffffffff82036120a8576120a7611d0f565b5b600182019050919050565b5f61ffff82169050919050565b6120c9816120b3565b82525050565b5f60a0820190506120e25f830188611768565b81810360208301526120f48187611f7b565b905061210360408301866120c0565b6121106060830185611c7f565b61211d6080830184611a8d565b9695505050505050565b5f8151905061213581611799565b92915050565b5f602082840312156121505761214f6116ef565b5b5f61215d84828501612127565b91505092915050565b7f43616e6e6f74207472616e7366657220746f2073656c660000000000000000005f82015250565b5f61219a6017836119a0565b91506121a582612166565b602082019050919050565b5f6020820190508181035f8301526121c78161218e565b9050919050565b5f6121d8826116f7565b91506121e3836116f7565b92508282019050808211156121fb576121fa611d0f565b5b92915050565b5f61220b826116f7565b9150612216836116f7565b92508261222657612225611da4565b5b828206905092915050565b5f8160011c9050919050565b5f808291508390505b60018511156122865780860481111561226257612261611d0f565b5b60018516156122715780820291505b808102905061227f85612231565b9450612246565b94509492505050565b5f8261229e5760019050612359565b816122ab575f9050612359565b81600181146122c157600281146122cb576122fa565b6001915050612359565b60ff8411156122dd576122dc611d0f565b5b8360020a9150848211156122f4576122f3611d0f565b5b50612359565b5060208310610133831016604e8410600b841016171561232f5782820a90508381111561232a57612329611d0f565b5b612359565b61233c848484600161223d565b9250905081840481111561235357612352611d0f565b5b81810290505b9392505050565b5f61236a826116f7565b9150612375836116f7565b92506123a27fffffffffffffffffffffffffffffffffffffffffffffffffffffffffffffffff848461228f565b90509291505056fe555344205072696365203d20545744205072696365202f205553442d54574420526174652028696e2063656e747329a2646970667358221220564848a99f003ec35a03ce22d89717ff6953fa6ff2f7455eb2ab6fd9cefc150464736f6c63430008140033636f6e7374205b74773530526573706f6e73652c20757364547764526573706f6e73655d203d2061776169742050726f6d6973652e616c6c285b46756e6374696f6e732e6d616b654874747052657175657374287b75726c3a202768747470733a2f2f7175657279312e66696e616e63652e7961686f6f2e636f6d2f76382f66696e616e63652f63686172742f303035302e5457277d292c46756e6374696f6e732e6d616b654874747052657175657374287b75726c3a202768747470733a2f2f7175657279312e66696e616e63652e7961686f6f2e636f6d2f76382f66696e616e63652f63686172742f5553445457443d58277d295d293b6966202874773530526573706f6e73652e6572726f72207c7c20757364547764526573706f6e73652e6572726f7229207b7468726f77204572726f72282752657175657374206661696c656427293b7d636f6e737420747735305072696365203d2074773530526573706f6e73652e646174612e63686172742e726573756c745b305d2e6d6574612e726567756c61724d61726b657450726963653b636f6e73742075736454776452617465203d20757364547764526573706f6e73652e646174612e63686172742e726573756c745b305d2e6d6574612e726567756c61724d61726b657450726963653b6966202821747735305072696365207c7c20217573645477645261746529207b7468726f77204572726f7228275072696365206e6f7420666f756e6427293b7d636f6e7374207573645072696365203d20747735305072696365202f20757364547764526174653b72657475726e2046756e6374696f6e732e656e636f646555696e74323536284d6174682e726f756e64287573645072696365202a203165313829293b",
					"opcodes": "PUSH1 0xA0 PUSH1 0x40 MSTORE PUSH3 0x493E0 PUSH1 0x5 PUSH1 0x8 PUSH2 0x100 EXP DUP2 SLOAD DUP2 PUSH4 0xFFFFFFFF MUL NOT AND SWAP1 DUP4 PUSH4 0xFFFFFFFF AND MUL OR SWAP1 SSTORE POP PUSH1 0x40 MLOAD DUP1 PUSH2 0x2C0 ADD PUSH1 0x40 MSTORE DUP1 PUSH2 0x288 DUP2 MSTORE PUSH1 0x20 ADD PUSH3 0x2BA9 PUSH2 0x288 SWAP2 CODECOPY PUSH1 0x7 SWAP1 DUP2 PUSH3 0x55 SWAP2 SWAP1 PUSH3 0x5AA JUMP JUMPDEST POP CALLVALUE DUP1 ISZERO PUSH3 0x62 JUMPI PUSH0 DUP1 REVERT JUMPDEST POP CALLER DUP1 PUSH0 PUSH20 0xB83E47C2BC239B3BF370BC41E1459A34B41238D0 DUP1 PUSH20 0xFFFFFFFFFFFFFFFFFFFFFFFFFFFFFFFFFFFFFFFF AND PUSH1 0x80 DUP2 PUSH20 0xFFFFFFFFFFFFFFFFFFFFFFFFFFFFFFFFFFFFFFFF AND DUP2 MSTORE POP POP POP PUSH0 PUSH20 0xFFFFFFFFFFFFFFFFFFFFFFFFFFFFFFFFFFFFFFFF AND DUP3 PUSH20 0xFFFFFFFFFFFFFFFFFFFFFFFFFFFFFFFFFFFFFFFF AND SUB PUSH3 0x121 JUMPI PUSH1 0x40 MLOAD PUSH32 0x8C379A000000000000000000000000000000000000000000000000000000000 DUP2 MSTORE PUSH1 0x4 ADD PUSH3 0x118 SWAP1 PUSH3 0x6EC JUMP JUMPDEST PUSH1 0x40 MLOAD DUP1 SWAP2 SUB SWAP1 REVERT JUMPDEST DUP2 PUSH0 DUP1 PUSH2 0x100 EXP DUP2 SLOAD DUP2 PUSH20 0xFFFFFFFFFFFFFFFFFFFFFFFFFFFFFFFFFFFFFFFF MUL NOT AND SWAP1 DUP4 PUSH20 0xFFFFFFFFFFFFFFFFFFFFFFFFFFFFFFFFFFFFFFFF AND MUL OR SWAP1 SSTORE POP PUSH0 PUSH20 0xFFFFFFFFFFFFFFFFFFFFFFFFFFFFFFFFFFFFFFFF AND DUP2 PUSH20 0xFFFFFFFFFFFFFFFFFFFFFFFFFFFFFFFFFFFFFFFF AND EQ PUSH3 0x1A6 JUMPI PUSH3 0x1A5 DUP2 PUSH3 0x219 PUSH1 0x20 SHL PUSH1 0x20 SHR JUMP JUMPDEST JUMPDEST POP POP POP PUSH2 0x1607 PUSH1 0x5 PUSH0 PUSH2 0x100 EXP DUP2 SLOAD DUP2 PUSH8 0xFFFFFFFFFFFFFFFF MUL NOT AND SWAP1 DUP4 PUSH8 0xFFFFFFFFFFFFFFFF AND MUL OR SWAP1 SSTORE POP PUSH32 0x66756E2D657468657265756D2D7365706F6C69612D3100000000000000000000 PUSH0 SHL PUSH1 0x6 DUP2 SWAP1 SSTORE POP PUSH9 0x1158E460913D00000 PUSH1 0x2 DUP2 SWAP1 SSTORE POP TIMESTAMP PUSH1 0x3 DUP2 SWAP1 SSTORE POP PUSH3 0x77A JUMP JUMPDEST CALLER PUSH20 0xFFFFFFFFFFFFFFFFFFFFFFFFFFFFFFFFFFFFFFFF AND DUP2 PUSH20 0xFFFFFFFFFFFFFFFFFFFFFFFFFFFFFFFFFFFFFFFF AND SUB PUSH3 0x28A JUMPI PUSH1 0x40 MLOAD PUSH32 0x8C379A000000000000000000000000000000000000000000000000000000000 DUP2 MSTORE PUSH1 0x4 ADD PUSH3 0x281 SWAP1 PUSH3 0x75A JUMP JUMPDEST PUSH1 0x40 MLOAD DUP1 SWAP2 SUB SWAP1 REVERT JUMPDEST DUP1 PUSH1 0x1 PUSH0 PUSH2 0x100 EXP DUP2 SLOAD DUP2 PUSH20 0xFFFFFFFFFFFFFFFFFFFFFFFFFFFFFFFFFFFFFFFF MUL NOT AND SWAP1 DUP4 PUSH20 0xFFFFFFFFFFFFFFFFFFFFFFFFFFFFFFFFFFFFFFFF AND MUL OR SWAP1 SSTORE POP DUP1 PUSH20 0xFFFFFFFFFFFFFFFFFFFFFFFFFFFFFFFFFFFFFFFF AND PUSH0 DUP1 SLOAD SWAP1 PUSH2 0x100 EXP SWAP1 DIV PUSH20 0xFFFFFFFFFFFFFFFFFFFFFFFFFFFFFFFFFFFFFFFF AND PUSH20 0xFFFFFFFFFFFFFFFFFFFFFFFFFFFFFFFFFFFFFFFF AND PUSH32 0xED8889F560326EB138920D842192F0EB3DD22B4F139C87A2C57538E05BAE1278 PUSH1 0x40 MLOAD PUSH1 0x40 MLOAD DUP1 SWAP2 SUB SWAP1 LOG3 POP JUMP JUMPDEST PUSH0 DUP2 MLOAD SWAP1 POP SWAP2 SWAP1 POP JUMP JUMPDEST PUSH32 0x4E487B7100000000000000000000000000000000000000000000000000000000 PUSH0 MSTORE PUSH1 0x41 PUSH1 0x4 MSTORE PUSH1 0x24 PUSH0 REVERT JUMPDEST PUSH32 0x4E487B7100000000000000000000000000000000000000000000000000000000 PUSH0 MSTORE PUSH1 0x22 PUSH1 0x4 MSTORE PUSH1 0x24 PUSH0 REVERT JUMPDEST PUSH0 PUSH1 0x2 DUP3 DIV SWAP1 POP PUSH1 0x1 DUP3 AND DUP1 PUSH3 0x3C2 JUMPI PUSH1 0x7F DUP3 AND SWAP2 POP JUMPDEST PUSH1 0x20 DUP3 LT DUP2 SUB PUSH3 0x3D8 JUMPI PUSH3 0x3D7 PUSH3 0x37D JUMP JUMPDEST JUMPDEST POP SWAP2 SWAP1 POP JUMP JUMPDEST PUSH0 DUP2 SWAP1 POP DUP2 PUSH0 MSTORE PUSH1 0x20 PUSH0 KECCAK256 SWAP1 POP SWAP2 SWAP1 POP JUMP JUMPDEST PUSH0 PUSH1 0x20 PUSH1 0x1F DUP4 ADD DIV SWAP1 POP SWAP2 SWAP1 POP JUMP JUMPDEST PUSH0 DUP3 DUP3 SHL SWAP1 POP SWAP3 SWAP2 POP POP JUMP JUMPDEST PUSH0 PUSH1 0x8 DUP4 MUL PUSH3 0x43C PUSH32 0xFFFFFFFFFFFFFFFFFFFFFFFFFFFFFFFFFFFFFFFFFFFFFFFFFFFFFFFFFFFFFFFF DUP3 PUSH3 0x3FF JUMP JUMPDEST PUSH3 0x448 DUP7 DUP4 PUSH3 0x3FF JUMP JUMPDEST SWAP6 POP DUP1 NOT DUP5 AND SWAP4 POP DUP1 DUP7 AND DUP5 OR SWAP3 POP POP POP SWAP4 SWAP3 POP POP POP JUMP JUMPDEST PUSH0 DUP2 SWAP1 POP SWAP2 SWAP1 POP JUMP JUMPDEST PUSH0 DUP2 SWAP1 POP SWAP2 SWAP1 POP JUMP JUMPDEST PUSH0 PUSH3 0x492 PUSH3 0x48C PUSH3 0x486 DUP5 PUSH3 0x460 JUMP JUMPDEST PUSH3 0x469 JUMP JUMPDEST PUSH3 0x460 JUMP JUMPDEST SWAP1 POP SWAP2 SWAP1 POP JUMP JUMPDEST PUSH0 DUP2 SWAP1 POP SWAP2 SWAP1 POP JUMP JUMPDEST PUSH3 0x4AD DUP4 PUSH3 0x472 JUMP JUMPDEST PUSH3 0x4C5 PUSH3 0x4BC DUP3 PUSH3 0x499 JUMP JUMPDEST DUP5 DUP5 SLOAD PUSH3 0x40B JUMP JUMPDEST DUP3 SSTORE POP POP POP POP JUMP JUMPDEST PUSH0 SWAP1 JUMP JUMPDEST PUSH3 0x4DB PUSH3 0x4CD JUMP JUMPDEST PUSH3 0x4E8 DUP2 DUP5 DUP5 PUSH3 0x4A2 JUMP JUMPDEST POP POP POP JUMP JUMPDEST JUMPDEST DUP2 DUP2 LT ISZERO PUSH3 0x50F JUMPI PUSH3 0x503 PUSH0 DUP3 PUSH3 0x4D1 JUMP JUMPDEST PUSH1 0x1 DUP2 ADD SWAP1 POP PUSH3 0x4EE JUMP JUMPDEST POP POP JUMP JUMPDEST PUSH1 0x1F DUP3 GT ISZERO PUSH3 0x55E JUMPI PUSH3 0x528 DUP2 PUSH3 0x3DE JUMP JUMPDEST PUSH3 0x533 DUP5 PUSH3 0x3F0 JUMP JUMPDEST DUP2 ADD PUSH1 0x20 DUP6 LT ISZERO PUSH3 0x543 JUMPI DUP2 SWAP1 POP JUMPDEST PUSH3 0x55B PUSH3 0x552 DUP6 PUSH3 0x3F0 JUMP JUMPDEST DUP4 ADD DUP3 PUSH3 0x4ED JUMP JUMPDEST POP POP JUMPDEST POP POP POP JUMP JUMPDEST PUSH0 DUP3 DUP3 SHR SWAP1 POP SWAP3 SWAP2 POP POP JUMP JUMPDEST PUSH0 PUSH3 0x580 PUSH0 NOT DUP5 PUSH1 0x8 MUL PUSH3 0x563 JUMP JUMPDEST NOT DUP1 DUP4 AND SWAP2 POP POP SWAP3 SWAP2 POP POP JUMP JUMPDEST PUSH0 PUSH3 0x59A DUP4 DUP4 PUSH3 0x56F JUMP JUMPDEST SWAP2 POP DUP3 PUSH1 0x2 MUL DUP3 OR SWAP1 POP SWAP3 SWAP2 POP POP JUMP JUMPDEST PUSH3 0x5B5 DUP3 PUSH3 0x346 JUMP JUMPDEST PUSH8 0xFFFFFFFFFFFFFFFF DUP2 GT ISZERO PUSH3 0x5D1 JUMPI PUSH3 0x5D0 PUSH3 0x350 JUMP JUMPDEST JUMPDEST PUSH3 0x5DD DUP3 SLOAD PUSH3 0x3AA JUMP JUMPDEST PUSH3 0x5EA DUP3 DUP3 DUP6 PUSH3 0x513 JUMP JUMPDEST PUSH0 PUSH1 0x20 SWAP1 POP PUSH1 0x1F DUP4 GT PUSH1 0x1 DUP2 EQ PUSH3 0x620 JUMPI PUSH0 DUP5 ISZERO PUSH3 0x60B JUMPI DUP3 DUP8 ADD MLOAD SWAP1 POP JUMPDEST PUSH3 0x617 DUP6 DUP3 PUSH3 0x58D JUMP JUMPDEST DUP7 SSTORE POP PUSH3 0x686 JUMP JUMPDEST PUSH1 0x1F NOT DUP5 AND PUSH3 0x630 DUP7 PUSH3 0x3DE JUMP JUMPDEST PUSH0 JUMPDEST DUP3 DUP2 LT ISZERO PUSH3 0x659 JUMPI DUP5 DUP10 ADD MLOAD DUP3 SSTORE PUSH1 0x1 DUP3 ADD SWAP2 POP PUSH1 0x20 DUP6 ADD SWAP5 POP PUSH1 0x20 DUP2 ADD SWAP1 POP PUSH3 0x632 JUMP JUMPDEST DUP7 DUP4 LT ISZERO PUSH3 0x679 JUMPI DUP5 DUP10 ADD MLOAD PUSH3 0x675 PUSH1 0x1F DUP10 AND DUP3 PUSH3 0x56F JUMP JUMPDEST DUP4 SSTORE POP JUMPDEST PUSH1 0x1 PUSH1 0x2 DUP9 MUL ADD DUP9 SSTORE POP POP POP JUMPDEST POP POP POP POP POP POP JUMP JUMPDEST PUSH0 DUP3 DUP3 MSTORE PUSH1 0x20 DUP3 ADD SWAP1 POP SWAP3 SWAP2 POP POP JUMP JUMPDEST PUSH32 0x43616E6E6F7420736574206F776E657220746F207A65726F0000000000000000 PUSH0 DUP3 ADD MSTORE POP JUMP JUMPDEST PUSH0 PUSH3 0x6D4 PUSH1 0x18 DUP4 PUSH3 0x68E JUMP JUMPDEST SWAP2 POP PUSH3 0x6E1 DUP3 PUSH3 0x69E JUMP JUMPDEST PUSH1 0x20 DUP3 ADD SWAP1 POP SWAP2 SWAP1 POP JUMP JUMPDEST PUSH0 PUSH1 0x20 DUP3 ADD SWAP1 POP DUP2 DUP2 SUB PUSH0 DUP4 ADD MSTORE PUSH3 0x705 DUP2 PUSH3 0x6C6 JUMP JUMPDEST SWAP1 POP SWAP2 SWAP1 POP JUMP JUMPDEST PUSH32 0x43616E6E6F74207472616E7366657220746F2073656C66000000000000000000 PUSH0 DUP3 ADD MSTORE POP JUMP JUMPDEST PUSH0 PUSH3 0x742 PUSH1 0x17 DUP4 PUSH3 0x68E JUMP JUMPDEST SWAP2 POP PUSH3 0x74F DUP3 PUSH3 0x70C JUMP JUMPDEST PUSH1 0x20 DUP3 ADD SWAP1 POP SWAP2 SWAP1 POP JUMP JUMPDEST PUSH0 PUSH1 0x20 DUP3 ADD SWAP1 POP DUP2 DUP2 SUB PUSH0 DUP4 ADD MSTORE PUSH3 0x773 DUP2 PUSH3 0x734 JUMP JUMPDEST SWAP1 POP SWAP2 SWAP1 POP JUMP JUMPDEST PUSH1 0x80 MLOAD PUSH2 0x240F PUSH3 0x79A PUSH0 CODECOPY PUSH0 DUP2 DUP2 PUSH2 0x3E3 ADD MSTORE PUSH2 0xE3A ADD MSTORE PUSH2 0x240F PUSH0 RETURN INVALID PUSH1 0x80 PUSH1 0x40 MSTORE CALLVALUE DUP1 ISZERO PUSH2 0xF JUMPI PUSH0 DUP1 REVERT JUMPDEST POP PUSH1 0x4 CALLDATASIZE LT PUSH2 0x114 JUMPI PUSH0 CALLDATALOAD PUSH1 0xE0 SHR DUP1 PUSH4 0x9C84CD10 GT PUSH2 0xA0 JUMPI DUP1 PUSH4 0xEC2B70A4 GT PUSH2 0x6F JUMPI DUP1 PUSH4 0xEC2B70A4 EQ PUSH2 0x28B JUMPI DUP1 PUSH4 0xF2FDE38B EQ PUSH2 0x2A9 JUMPI DUP1 PUSH4 0xF68016B7 EQ PUSH2 0x2C5 JUMPI DUP1 PUSH4 0xFC2A88C3 EQ PUSH2 0x2E3 JUMPI DUP1 PUSH4 0xFF8E583A EQ PUSH2 0x301 JUMPI PUSH2 0x114 JUMP JUMPDEST DUP1 PUSH4 0x9C84CD10 EQ PUSH2 0x211 JUMPI DUP1 PUSH4 0xAFDB0556 EQ PUSH2 0x233 JUMPI DUP1 PUSH4 0xC8F33C91 EQ PUSH2 0x251 JUMPI DUP1 PUSH4 0xD0F784F0 EQ PUSH2 0x26F JUMPI PUSH2 0x114 JUMP JUMPDEST DUP1 PUSH4 0x2F5DF725 GT PUSH2 0xE7 JUMPI DUP1 PUSH4 0x2F5DF725 EQ PUSH2 0x18F JUMPI DUP1 PUSH4 0x6E74336B EQ PUSH2 0x1AD JUMPI DUP1 PUSH4 0x79BA5097 EQ PUSH2 0x1CB JUMPI DUP1 PUSH4 0x8DA5CB5B EQ PUSH2 0x1D5 JUMPI DUP1 PUSH4 0x8E15F473 EQ PUSH2 0x1F3 JUMPI PUSH2 0x114 JUMP JUMPDEST DUP1 PUSH4 0x5239CA1 EQ PUSH2 0x118 JUMPI DUP1 PUSH4 0x9C1BA2E EQ PUSH2 0x134 JUMPI DUP1 PUSH4 0xCA76175 EQ PUSH2 0x152 JUMPI DUP1 PUSH4 0x26C4C889 EQ PUSH2 0x16E JUMPI JUMPDEST PUSH0 DUP1 REVERT JUMPDEST PUSH2 0x132 PUSH1 0x4 DUP1 CALLDATASIZE SUB DUP2 ADD SWAP1 PUSH2 0x12D SWAP2 SWAP1 PUSH2 0x172A JUMP JUMPDEST PUSH2 0x31F JUMP JUMPDEST STOP JUMPDEST PUSH2 0x13C PUSH2 0x3C8 JUMP JUMPDEST PUSH1 0x40 MLOAD PUSH2 0x149 SWAP2 SWAP1 PUSH2 0x1777 JUMP JUMPDEST PUSH1 0x40 MLOAD DUP1 SWAP2 SUB SWAP1 RETURN JUMPDEST PUSH2 0x16C PUSH1 0x4 DUP1 CALLDATASIZE SUB DUP2 ADD SWAP1 PUSH2 0x167 SWAP2 SWAP1 PUSH2 0x18FF JUMP JUMPDEST PUSH2 0x3E1 JUMP JUMPDEST STOP JUMPDEST PUSH2 0x176 PUSH2 0x4A3 JUMP JUMPDEST PUSH1 0x40 MLOAD PUSH2 0x186 SWAP5 SWAP4 SWAP3 SWAP2 SWAP1 PUSH2 0x1A10 JUMP JUMPDEST PUSH1 0x40 MLOAD DUP1 SWAP2 SUB SWAP1 RETURN JUMPDEST PUSH2 0x197 PUSH2 0x4EA JUMP JUMPDEST PUSH1 0x40 MLOAD PUSH2 0x1A4 SWAP2 SWAP1 PUSH2 0x1A74 JUMP JUMPDEST PUSH1 0x40 MLOAD DUP1 SWAP2 SUB SWAP1 RETURN JUMPDEST PUSH2 0x1B5 PUSH2 0x502 JUMP JUMPDEST PUSH1 0x40 MLOAD PUSH2 0x1C2 SWAP2 SWAP1 PUSH2 0x1A9C JUMP JUMPDEST PUSH1 0x40 MLOAD DUP1 SWAP2 SUB SWAP1 RETURN JUMPDEST PUSH2 0x1D3 PUSH2 0x508 JUMP JUMPDEST STOP JUMPDEST PUSH2 0x1DD PUSH2 0x697 JUMP JUMPDEST PUSH1 0x40 MLOAD PUSH2 0x1EA SWAP2 SWAP1 PUSH2 0x1AF4 JUMP JUMPDEST PUSH1 0x40 MLOAD DUP1 SWAP2 SUB SWAP1 RETURN JUMPDEST PUSH2 0x1FB PUSH2 0x6BE JUMP JUMPDEST PUSH1 0x40 MLOAD PUSH2 0x208 SWAP2 SWAP1 PUSH2 0x1B0D JUMP JUMPDEST PUSH1 0x40 MLOAD DUP1 SWAP2 SUB SWAP1 RETURN JUMPDEST PUSH2 0x219 PUSH2 0x6C7 JUMP JUMPDEST PUSH1 0x40 MLOAD PUSH2 0x22A SWAP6 SWAP5 SWAP4 SWAP3 SWAP2 SWAP1 PUSH2 0x1B26 JUMP JUMPDEST PUSH1 0x40 MLOAD DUP1 SWAP2 SUB SWAP1 RETURN JUMPDEST PUSH2 0x23B PUSH2 0x709 JUMP JUMPDEST PUSH1 0x40 MLOAD PUSH2 0x248 SWAP2 SWAP1 PUSH2 0x1A9C JUMP JUMPDEST PUSH1 0x40 MLOAD DUP1 SWAP2 SUB SWAP1 RETURN JUMPDEST PUSH2 0x259 PUSH2 0x824 JUMP JUMPDEST PUSH1 0x40 MLOAD PUSH2 0x266 SWAP2 SWAP1 PUSH2 0x1B0D JUMP JUMPDEST PUSH1 0x40 MLOAD DUP1 SWAP2 SUB SWAP1 RETURN JUMPDEST PUSH2 0x289 PUSH1 0x4 DUP1 CALLDATASIZE SUB DUP2 ADD SWAP1 PUSH2 0x284 SWAP2 SWAP1 PUSH2 0x1BDA JUMP JUMPDEST PUSH2 0x82A JUMP JUMPDEST STOP JUMPDEST PUSH2 0x293 PUSH2 0x887 JUMP JUMPDEST PUSH1 0x40 MLOAD PUSH2 0x2A0 SWAP2 SWAP1 PUSH2 0x1B0D JUMP JUMPDEST PUSH1 0x40 MLOAD DUP1 SWAP2 SUB SWAP1 RETURN JUMPDEST PUSH2 0x2C3 PUSH1 0x4 DUP1 CALLDATASIZE SUB DUP2 ADD SWAP1 PUSH2 0x2BE SWAP2 SWAP1 PUSH2 0x1C54 JUMP JUMPDEST PUSH2 0x8A2 JUMP JUMPDEST STOP JUMPDEST PUSH2 0x2CD PUSH2 0x8B6 JUMP JUMPDEST PUSH1 0x40 MLOAD PUSH2 0x2DA SWAP2 SWAP1 PUSH2 0x1C8E JUMP JUMPDEST PUSH1 0x40 MLOAD DUP1 SWAP2 SUB SWAP1 RETURN JUMPDEST PUSH2 0x2EB PUSH2 0x8CC JUMP JUMPDEST PUSH1 0x40 MLOAD PUSH2 0x2F8 SWAP2 SWAP1 PUSH2 0x1A9C JUMP JUMPDEST PUSH1 0x40 MLOAD DUP1 SWAP2 SUB SWAP1 RETURN JUMPDEST PUSH2 0x309 PUSH2 0x8D2 JUMP JUMPDEST PUSH1 0x40 MLOAD PUSH2 0x316 SWAP2 SWAP1 PUSH2 0x1B0D JUMP JUMPDEST PUSH1 0x40 MLOAD DUP1 SWAP2 SUB SWAP1 RETURN JUMPDEST PUSH2 0x327 PUSH2 0x8DB JUMP JUMPDEST PUSH0 DUP2 GT PUSH2 0x369 JUMPI PUSH1 0x40 MLOAD PUSH32 0x8C379A000000000000000000000000000000000000000000000000000000000 DUP2 MSTORE PUSH1 0x4 ADD PUSH2 0x360 SWAP1 PUSH2 0x1CF1 JUMP JUMPDEST PUSH1 0x40 MLOAD DUP1 SWAP2 SUB SWAP1 REVERT JUMPDEST PUSH8 0xDE0B6B3A7640000 DUP2 PUSH2 0x37D SWAP2 SWAP1 PUSH2 0x1D3C JUMP JUMPDEST PUSH1 0x2 DUP2 SWAP1 SSTORE POP TIMESTAMP PUSH1 0x3 DUP2 SWAP1 SSTORE POP PUSH32 0x945C1C4E99AA89F648FBFE3DF471B916F719E16D960FCEC0737D4D56BD696838 PUSH1 0x2 SLOAD TIMESTAMP PUSH1 0x40 MLOAD PUSH2 0x3BD SWAP3 SWAP2 SWAP1 PUSH2 0x1D7D JUMP JUMPDEST PUSH1 0x40 MLOAD DUP1 SWAP2 SUB SWAP1 LOG1 POP JUMP JUMPDEST PUSH1 0x5 PUSH0 SWAP1 SLOAD SWAP1 PUSH2 0x100 EXP SWAP1 DIV PUSH8 0xFFFFFFFFFFFFFFFF AND DUP2 JUMP JUMPDEST PUSH32 0x0 PUSH20 0xFFFFFFFFFFFFFFFFFFFFFFFFFFFFFFFFFFFFFFFF AND CALLER PUSH20 0xFFFFFFFFFFFFFFFFFFFFFFFFFFFFFFFFFFFFFFFF AND EQ PUSH2 0x466 JUMPI PUSH1 0x40 MLOAD PUSH32 0xC6829F8300000000000000000000000000000000000000000000000000000000 DUP2 MSTORE PUSH1 0x4 ADD PUSH1 0x40 MLOAD DUP1 SWAP2 SUB SWAP1 REVERT JUMPDEST PUSH2 0x471 DUP4 DUP4 DUP4 PUSH2 0x96A JUMP JUMPDEST DUP3 PUSH32 0x85E1543BF2F84FE80C6BADBCE3648C8539AD1DF4D2B3D822938CA0538BE727E6 PUSH1 0x40 MLOAD PUSH1 0x40 MLOAD DUP1 SWAP2 SUB SWAP1 LOG2 POP POP POP JUMP JUMPDEST PUSH0 DUP1 PUSH0 PUSH1 0x60 PUSH1 0x2 SLOAD PUSH7 0x2386F26FC10000 PUSH1 0x2 SLOAD PUSH2 0x4C0 SWAP2 SWAP1 PUSH2 0x1DD1 JUMP JUMPDEST PUSH1 0x2 SLOAD PUSH1 0x40 MLOAD DUP1 PUSH1 0x60 ADD PUSH1 0x40 MSTORE DUP1 PUSH1 0x2F DUP2 MSTORE PUSH1 0x20 ADD PUSH2 0x23AB PUSH1 0x2F SWAP2 CODECOPY SWAP4 POP SWAP4 POP SWAP4 POP SWAP4 POP SWAP1 SWAP2 SWAP3 SWAP4 JUMP JUMPDEST PUSH0 PUSH2 0xE10 PUSH1 0x3 SLOAD TIMESTAMP PUSH2 0x4FC SWAP2 SWAP1 PUSH2 0x1E01 JUMP JUMPDEST GT SWAP1 POP SWAP1 JUMP JUMPDEST PUSH1 0x6 SLOAD DUP2 JUMP JUMPDEST PUSH1 0x1 PUSH0 SWAP1 SLOAD SWAP1 PUSH2 0x100 EXP SWAP1 DIV PUSH20 0xFFFFFFFFFFFFFFFFFFFFFFFFFFFFFFFFFFFFFFFF AND PUSH20 0xFFFFFFFFFFFFFFFFFFFFFFFFFFFFFFFFFFFFFFFF AND CALLER PUSH20 0xFFFFFFFFFFFFFFFFFFFFFFFFFFFFFFFFFFFFFFFF AND EQ PUSH2 0x597 JUMPI PUSH1 0x40 MLOAD PUSH32 0x8C379A000000000000000000000000000000000000000000000000000000000 DUP2 MSTORE PUSH1 0x4 ADD PUSH2 0x58E SWAP1 PUSH2 0x1E7E JUMP JUMPDEST PUSH1 0x40 MLOAD DUP1 SWAP2 SUB SWAP1 REVERT JUMPDEST PUSH0 DUP1 PUSH0 SWAP1 SLOAD SWAP1 PUSH2 0x100 EXP SWAP1 DIV PUSH20 0xFFFFFFFFFFFFFFFFFFFFFFFFFFFFFFFFFFFFFFFF AND SWAP1 POP CALLER PUSH0 DUP1 PUSH2 0x100 EXP DUP2 SLOAD DUP2 PUSH20 0xFFFFFFFFFFFFFFFFFFFFFFFFFFFFFFFFFFFFFFFF MUL NOT AND SWAP1 DUP4 PUSH20 0xFFFFFFFFFFFFFFFFFFFFFFFFFFFFFFFFFFFFFFFF AND MUL OR SWAP1 SSTORE POP PUSH0 PUSH1 0x1 PUSH0 PUSH2 0x100 EXP DUP2 SLOAD DUP2 PUSH20 0xFFFFFFFFFFFFFFFFFFFFFFFFFFFFFFFFFFFFFFFF MUL NOT AND SWAP1 DUP4 PUSH20 0xFFFFFFFFFFFFFFFFFFFFFFFFFFFFFFFFFFFFFFFF AND MUL OR SWAP1 SSTORE POP CALLER PUSH20 0xFFFFFFFFFFFFFFFFFFFFFFFFFFFFFFFFFFFFFFFF AND DUP2 PUSH20 0xFFFFFFFFFFFFFFFFFFFFFFFFFFFFFFFFFFFFFFFF AND PUSH32 0x8BE0079C531659141344CD1FD0A4F28419497F9722A3DAAFE3B4186F6B6457E0 PUSH1 0x40 MLOAD PUSH1 0x40 MLOAD DUP1 SWAP2 SUB SWAP1 LOG3 POP JUMP JUMPDEST PUSH0 DUP1 PUSH0 SWAP1 SLOAD SWAP1 PUSH2 0x100 EXP SWAP1 DIV PUSH20 0xFFFFFFFFFFFFFFFFFFFFFFFFFFFFFFFFFFFFFFFF AND SWAP1 POP SWAP1 JUMP JUMPDEST PUSH0 PUSH1 0x2 SLOAD SWAP1 POP SWAP1 JUMP JUMPDEST PUSH0 DUP1 PUSH0 DUP1 PUSH0 PUSH1 0x2 SLOAD PUSH7 0x2386F26FC10000 PUSH1 0x2 SLOAD PUSH2 0x6E4 SWAP2 SWAP1 PUSH2 0x1DD1 JUMP JUMPDEST PUSH1 0x3 SLOAD PUSH1 0x3 SLOAD TIMESTAMP PUSH2 0x6F5 SWAP2 SWAP1 PUSH2 0x1E01 JUMP JUMPDEST PUSH1 0x4 SLOAD SWAP5 POP SWAP5 POP SWAP5 POP SWAP5 POP SWAP5 POP SWAP1 SWAP2 SWAP3 SWAP4 SWAP5 JUMP JUMPDEST PUSH0 PUSH2 0x712 PUSH2 0x163F JUMP JUMPDEST PUSH2 0x7AD PUSH1 0x7 DUP1 SLOAD PUSH2 0x722 SWAP1 PUSH2 0x1EC9 JUMP JUMPDEST DUP1 PUSH1 0x1F ADD PUSH1 0x20 DUP1 SWAP2 DIV MUL PUSH1 0x20 ADD PUSH1 0x40 MLOAD SWAP1 DUP2 ADD PUSH1 0x40 MSTORE DUP1 SWAP3 SWAP2 SWAP1 DUP2 DUP2 MSTORE PUSH1 0x20 ADD DUP3 DUP1 SLOAD PUSH2 0x74E SWAP1 PUSH2 0x1EC9 JUMP JUMPDEST DUP1 ISZERO PUSH2 0x799 JUMPI DUP1 PUSH1 0x1F LT PUSH2 0x770 JUMPI PUSH2 0x100 DUP1 DUP4 SLOAD DIV MUL DUP4 MSTORE SWAP2 PUSH1 0x20 ADD SWAP2 PUSH2 0x799 JUMP JUMPDEST DUP3 ADD SWAP2 SWAP1 PUSH0 MSTORE PUSH1 0x20 PUSH0 KECCAK256 SWAP1 JUMPDEST DUP2 SLOAD DUP2 MSTORE SWAP1 PUSH1 0x1 ADD SWAP1 PUSH1 0x20 ADD DUP1 DUP4 GT PUSH2 0x77C JUMPI DUP3 SWAP1 SUB PUSH1 0x1F AND DUP3 ADD SWAP2 JUMPDEST POP POP POP POP POP DUP3 PUSH2 0xA15 SWAP1 SWAP2 SWAP1 PUSH4 0xFFFFFFFF AND JUMP JUMPDEST PUSH2 0x7EA PUSH2 0x7B9 DUP3 PUSH2 0xA25 JUMP JUMPDEST PUSH1 0x5 PUSH0 SWAP1 SLOAD SWAP1 PUSH2 0x100 EXP SWAP1 DIV PUSH8 0xFFFFFFFFFFFFFFFF AND PUSH1 0x5 PUSH1 0x8 SWAP1 SLOAD SWAP1 PUSH2 0x100 EXP SWAP1 DIV PUSH4 0xFFFFFFFF AND PUSH1 0x6 SLOAD PUSH2 0xE36 JUMP JUMPDEST SWAP2 POP DUP2 PUSH1 0x4 DUP2 SWAP1 SSTORE POP DUP2 PUSH32 0x655F2DCA0174CE451AA939C62EA493C734778CC67C6783626B08AD34985E6C61 PUSH1 0x40 MLOAD PUSH1 0x40 MLOAD DUP1 SWAP2 SUB SWAP1 LOG2 POP SWAP1 JUMP JUMPDEST PUSH1 0x3 SLOAD DUP2 JUMP JUMPDEST PUSH2 0x832 PUSH2 0x8DB JUMP JUMPDEST DUP3 PUSH1 0x5 PUSH0 PUSH2 0x100 EXP DUP2 SLOAD DUP2 PUSH8 0xFFFFFFFFFFFFFFFF MUL NOT AND SWAP1 DUP4 PUSH8 0xFFFFFFFFFFFFFFFF AND MUL OR SWAP1 SSTORE POP DUP2 PUSH1 0x5 PUSH1 0x8 PUSH2 0x100 EXP DUP2 SLOAD DUP2 PUSH4 0xFFFFFFFF MUL NOT AND SWAP1 DUP4 PUSH4 0xFFFFFFFF AND MUL OR SWAP1 SSTORE POP DUP1 PUSH1 0x6 DUP2 SWAP1 SSTORE POP POP POP POP JUMP JUMPDEST PUSH0 PUSH7 0x2386F26FC10000 PUSH1 0x2 SLOAD PUSH2 0x89D SWAP2 SWAP1 PUSH2 0x1DD1 JUMP JUMPDEST SWAP1 POP SWAP1 JUMP JUMPDEST PUSH2 0x8AA PUSH2 0x8DB JUMP JUMPDEST PUSH2 0x8B3 DUP2 PUSH2 0xF15 JUMP JUMPDEST POP JUMP JUMPDEST PUSH1 0x5 PUSH1 0x8 SWAP1 SLOAD SWAP1 PUSH2 0x100 EXP SWAP1 DIV PUSH4 0xFFFFFFFF AND DUP2 JUMP JUMPDEST PUSH1 0x4 SLOAD DUP2 JUMP JUMPDEST PUSH0 PUSH1 0x2 SLOAD SWAP1 POP SWAP1 JUMP JUMPDEST PUSH0 DUP1 SLOAD SWAP1 PUSH2 0x100 EXP SWAP1 DIV PUSH20 0xFFFFFFFFFFFFFFFFFFFFFFFFFFFFFFFFFFFFFFFF AND PUSH20 0xFFFFFFFFFFFFFFFFFFFFFFFFFFFFFFFFFFFFFFFF AND CALLER PUSH20 0xFFFFFFFFFFFFFFFFFFFFFFFFFFFFFFFFFFFFFFFF AND EQ PUSH2 0x968 JUMPI PUSH1 0x40 MLOAD PUSH32 0x8C379A000000000000000000000000000000000000000000000000000000000 DUP2 MSTORE PUSH1 0x4 ADD PUSH2 0x95F SWAP1 PUSH2 0x1F43 JUMP JUMPDEST PUSH1 0x40 MLOAD DUP1 SWAP2 SUB SWAP1 REVERT JUMPDEST JUMP JUMPDEST PUSH0 DUP2 MLOAD GT ISZERO PUSH2 0x9B0 JUMPI DUP3 PUSH32 0x61982C98CBC49D11759A948F460B92BCA26BDF12CEEE12C310F117EB2CA9A9CB DUP3 PUSH1 0x40 MLOAD PUSH2 0x9A3 SWAP2 SWAP1 PUSH2 0x1FB3 JUMP JUMPDEST PUSH1 0x40 MLOAD DUP1 SWAP2 SUB SWAP1 LOG2 PUSH2 0xA10 JUMP JUMPDEST PUSH0 DUP3 DUP1 PUSH1 0x20 ADD SWAP1 MLOAD DUP2 ADD SWAP1 PUSH2 0x9C5 SWAP2 SWAP1 PUSH2 0x1FE7 JUMP JUMPDEST SWAP1 POP DUP1 PUSH1 0x2 DUP2 SWAP1 SSTORE POP TIMESTAMP PUSH1 0x3 DUP2 SWAP1 SSTORE POP PUSH32 0x945C1C4E99AA89F648FBFE3DF471B916F719E16D960FCEC0737D4D56BD696838 DUP2 TIMESTAMP PUSH1 0x40 MLOAD PUSH2 0xA06 SWAP3 SWAP2 SWAP1 PUSH2 0x1D7D JUMP JUMPDEST PUSH1 0x40 MLOAD DUP1 SWAP2 SUB SWAP1 LOG1 POP JUMPDEST POP POP POP JUMP JUMPDEST PUSH2 0xA21 DUP3 PUSH0 DUP1 DUP5 PUSH2 0x103F JUMP JUMPDEST POP POP JUMP JUMPDEST PUSH1 0x60 PUSH0 PUSH2 0xA33 PUSH2 0x100 PUSH2 0x10E5 JUMP JUMPDEST SWAP1 POP PUSH2 0xA7D PUSH1 0x40 MLOAD DUP1 PUSH1 0x40 ADD PUSH1 0x40 MSTORE DUP1 PUSH1 0xC DUP2 MSTORE PUSH1 0x20 ADD PUSH32 0x636F64654C6F636174696F6E0000000000000000000000000000000000000000 DUP2 MSTORE POP DUP3 PUSH2 0x110A SWAP1 SWAP2 SWAP1 PUSH4 0xFFFFFFFF AND JUMP JUMPDEST PUSH2 0xAA5 DUP4 PUSH0 ADD MLOAD PUSH1 0x2 DUP2 GT ISZERO PUSH2 0xA96 JUMPI PUSH2 0xA95 PUSH2 0x2012 JUMP JUMPDEST JUMPDEST DUP3 PUSH2 0x1132 SWAP1 SWAP2 SWAP1 PUSH4 0xFFFFFFFF AND JUMP JUMPDEST PUSH2 0xAED PUSH1 0x40 MLOAD DUP1 PUSH1 0x40 ADD PUSH1 0x40 MSTORE DUP1 PUSH1 0x8 DUP2 MSTORE PUSH1 0x20 ADD PUSH32 0x6C616E6775616765000000000000000000000000000000000000000000000000 DUP2 MSTORE POP DUP3 PUSH2 0x110A SWAP1 SWAP2 SWAP1 PUSH4 0xFFFFFFFF AND JUMP JUMPDEST PUSH2 0xB15 DUP4 PUSH1 0x40 ADD MLOAD PUSH0 DUP2 GT ISZERO PUSH2 0xB06 JUMPI PUSH2 0xB05 PUSH2 0x2012 JUMP JUMPDEST JUMPDEST DUP3 PUSH2 0x1132 SWAP1 SWAP2 SWAP1 PUSH4 0xFFFFFFFF AND JUMP JUMPDEST PUSH2 0xB5D PUSH1 0x40 MLOAD DUP1 PUSH1 0x40 ADD PUSH1 0x40 MSTORE DUP1 PUSH1 0x6 DUP2 MSTORE PUSH1 0x20 ADD PUSH32 0x736F757263650000000000000000000000000000000000000000000000000000 DUP2 MSTORE POP DUP3 PUSH2 0x110A SWAP1 SWAP2 SWAP1 PUSH4 0xFFFFFFFF AND JUMP JUMPDEST PUSH2 0xB74 DUP4 PUSH1 0x60 ADD MLOAD DUP3 PUSH2 0x110A SWAP1 SWAP2 SWAP1 PUSH4 0xFFFFFFFF AND JUMP JUMPDEST PUSH0 DUP4 PUSH1 0xA0 ADD MLOAD MLOAD GT ISZERO PUSH2 0xC2E JUMPI PUSH2 0xBC9 PUSH1 0x40 MLOAD DUP1 PUSH1 0x40 ADD PUSH1 0x40 MSTORE DUP1 PUSH1 0x4 DUP2 MSTORE PUSH1 0x20 ADD PUSH32 0x6172677300000000000000000000000000000000000000000000000000000000 DUP2 MSTORE POP DUP3 PUSH2 0x110A SWAP1 SWAP2 SWAP1 PUSH4 0xFFFFFFFF AND JUMP JUMPDEST PUSH2 0xBD2 DUP2 PUSH2 0x1181 JUMP JUMPDEST PUSH0 JUMPDEST DUP4 PUSH1 0xA0 ADD MLOAD MLOAD DUP2 LT ISZERO PUSH2 0xC23 JUMPI PUSH2 0xC12 DUP5 PUSH1 0xA0 ADD MLOAD DUP3 DUP2 MLOAD DUP2 LT PUSH2 0xBFB JUMPI PUSH2 0xBFA PUSH2 0x203F JUMP JUMPDEST JUMPDEST PUSH1 0x20 MUL PUSH1 0x20 ADD ADD MLOAD DUP4 PUSH2 0x110A SWAP1 SWAP2 SWAP1 PUSH4 0xFFFFFFFF AND JUMP JUMPDEST DUP1 PUSH2 0xC1C SWAP1 PUSH2 0x206C JUMP JUMPDEST SWAP1 POP PUSH2 0xBD4 JUMP JUMPDEST POP PUSH2 0xC2D DUP2 PUSH2 0x11A9 JUMP JUMPDEST JUMPDEST PUSH0 DUP4 PUSH1 0x80 ADD MLOAD MLOAD GT ISZERO PUSH2 0xD6D JUMPI PUSH0 PUSH1 0x2 DUP2 GT ISZERO PUSH2 0xC4E JUMPI PUSH2 0xC4D PUSH2 0x2012 JUMP JUMPDEST JUMPDEST DUP4 PUSH1 0x20 ADD MLOAD PUSH1 0x2 DUP2 GT ISZERO PUSH2 0xC65 JUMPI PUSH2 0xC64 PUSH2 0x2012 JUMP JUMPDEST JUMPDEST SUB PUSH2 0xC9C JUMPI PUSH1 0x40 MLOAD PUSH32 0xA80D31F700000000000000000000000000000000000000000000000000000000 DUP2 MSTORE PUSH1 0x4 ADD PUSH1 0x40 MLOAD DUP1 SWAP2 SUB SWAP1 REVERT JUMPDEST PUSH2 0xCE4 PUSH1 0x40 MLOAD DUP1 PUSH1 0x40 ADD PUSH1 0x40 MSTORE DUP1 PUSH1 0xF DUP2 MSTORE PUSH1 0x20 ADD PUSH32 0x736563726574734C6F636174696F6E0000000000000000000000000000000000 DUP2 MSTORE POP DUP3 PUSH2 0x110A SWAP1 SWAP2 SWAP1 PUSH4 0xFFFFFFFF AND JUMP JUMPDEST PUSH2 0xD0D DUP4 PUSH1 0x20 ADD MLOAD PUSH1 0x2 DUP2 GT ISZERO PUSH2 0xCFE JUMPI PUSH2 0xCFD PUSH2 0x2012 JUMP JUMPDEST JUMPDEST DUP3 PUSH2 0x1132 SWAP1 SWAP2 SWAP1 PUSH4 0xFFFFFFFF AND JUMP JUMPDEST PUSH2 0xD55 PUSH1 0x40 MLOAD DUP1 PUSH1 0x40 ADD PUSH1 0x40 MSTORE DUP1 PUSH1 0x7 DUP2 MSTORE PUSH1 0x20 ADD PUSH32 0x7365637265747300000000000000000000000000000000000000000000000000 DUP2 MSTORE POP DUP3 PUSH2 0x110A SWAP1 SWAP2 SWAP1 PUSH4 0xFFFFFFFF AND JUMP JUMPDEST PUSH2 0xD6C DUP4 PUSH1 0x80 ADD MLOAD DUP3 PUSH2 0x11D1 SWAP1 SWAP2 SWAP1 PUSH4 0xFFFFFFFF AND JUMP JUMPDEST JUMPDEST PUSH0 DUP4 PUSH1 0xC0 ADD MLOAD MLOAD GT ISZERO PUSH2 0xE27 JUMPI PUSH2 0xDC2 PUSH1 0x40 MLOAD DUP1 PUSH1 0x40 ADD PUSH1 0x40 MSTORE DUP1 PUSH1 0x9 DUP2 MSTORE PUSH1 0x20 ADD PUSH32 0x6279746573417267730000000000000000000000000000000000000000000000 DUP2 MSTORE POP DUP3 PUSH2 0x110A SWAP1 SWAP2 SWAP1 PUSH4 0xFFFFFFFF AND JUMP JUMPDEST PUSH2 0xDCB DUP2 PUSH2 0x1181 JUMP JUMPDEST PUSH0 JUMPDEST DUP4 PUSH1 0xC0 ADD MLOAD MLOAD DUP2 LT ISZERO PUSH2 0xE1C JUMPI PUSH2 0xE0B DUP5 PUSH1 0xC0 ADD MLOAD DUP3 DUP2 MLOAD DUP2 LT PUSH2 0xDF4 JUMPI PUSH2 0xDF3 PUSH2 0x203F JUMP JUMPDEST JUMPDEST PUSH1 0x20 MUL PUSH1 0x20 ADD ADD MLOAD DUP4 PUSH2 0x11D1 SWAP1 SWAP2 SWAP1 PUSH4 0xFFFFFFFF AND JUMP JUMPDEST DUP1 PUSH2 0xE15 SWAP1 PUSH2 0x206C JUMP JUMPDEST SWAP1 POP PUSH2 0xDCD JUMP JUMPDEST POP PUSH2 0xE26 DUP2 PUSH2 0x11A9 JUMP JUMPDEST JUMPDEST DUP1 PUSH0 ADD MLOAD PUSH0 ADD MLOAD SWAP2 POP POP SWAP2 SWAP1 POP JUMP JUMPDEST PUSH0 DUP1 PUSH32 0x0 PUSH20 0xFFFFFFFFFFFFFFFFFFFFFFFFFFFFFFFFFFFFFFFF AND PUSH4 0x461D2762 DUP7 DUP9 PUSH1 0x1 DUP9 DUP9 PUSH1 0x40 MLOAD DUP7 PUSH4 0xFFFFFFFF AND PUSH1 0xE0 SHL DUP2 MSTORE PUSH1 0x4 ADD PUSH2 0xE9A SWAP6 SWAP5 SWAP4 SWAP3 SWAP2 SWAP1 PUSH2 0x20CF JUMP JUMPDEST PUSH1 0x20 PUSH1 0x40 MLOAD DUP1 DUP4 SUB DUP2 PUSH0 DUP8 GAS CALL ISZERO DUP1 ISZERO PUSH2 0xEB6 JUMPI RETURNDATASIZE PUSH0 DUP1 RETURNDATACOPY RETURNDATASIZE PUSH0 REVERT JUMPDEST POP POP POP POP PUSH1 0x40 MLOAD RETURNDATASIZE PUSH1 0x1F NOT PUSH1 0x1F DUP3 ADD AND DUP3 ADD DUP1 PUSH1 0x40 MSTORE POP DUP2 ADD SWAP1 PUSH2 0xEDA SWAP2 SWAP1 PUSH2 0x213B JUMP JUMPDEST SWAP1 POP DUP1 PUSH32 0x1131472297A800FEE664D1D89CFA8F7676FF07189ECC53F80BBB5F4969099DB8 PUSH1 0x40 MLOAD PUSH1 0x40 MLOAD DUP1 SWAP2 SUB SWAP1 LOG2 DUP1 SWAP2 POP POP SWAP5 SWAP4 POP POP POP POP JUMP JUMPDEST CALLER PUSH20 0xFFFFFFFFFFFFFFFFFFFFFFFFFFFFFFFFFFFFFFFF AND DUP2 PUSH20 0xFFFFFFFFFFFFFFFFFFFFFFFFFFFFFFFFFFFFFFFF AND SUB PUSH2 0xF83 JUMPI PUSH1 0x40 MLOAD PUSH32 0x8C379A000000000000000000000000000000000000000000000000000000000 DUP2 MSTORE PUSH1 0x4 ADD PUSH2 0xF7A SWAP1 PUSH2 0x21B0 JUMP JUMPDEST PUSH1 0x40 MLOAD DUP1 SWAP2 SUB SWAP1 REVERT JUMPDEST DUP1 PUSH1 0x1 PUSH0 PUSH2 0x100 EXP DUP2 SLOAD DUP2 PUSH20 0xFFFFFFFFFFFFFFFFFFFFFFFFFFFFFFFFFFFFFFFF MUL NOT AND SWAP1 DUP4 PUSH20 0xFFFFFFFFFFFFFFFFFFFFFFFFFFFFFFFFFFFFFFFF AND MUL OR SWAP1 SSTORE POP DUP1 PUSH20 0xFFFFFFFFFFFFFFFFFFFFFFFFFFFFFFFFFFFFFFFF AND PUSH0 DUP1 SLOAD SWAP1 PUSH2 0x100 EXP SWAP1 DIV PUSH20 0xFFFFFFFFFFFFFFFFFFFFFFFFFFFFFFFFFFFFFFFF AND PUSH20 0xFFFFFFFFFFFFFFFFFFFFFFFFFFFFFFFFFFFFFFFF AND PUSH32 0xED8889F560326EB138920D842192F0EB3DD22B4F139C87A2C57538E05BAE1278 PUSH1 0x40 MLOAD PUSH1 0x40 MLOAD DUP1 SWAP2 SUB SWAP1 LOG3 POP JUMP JUMPDEST PUSH0 DUP2 MLOAD SUB PUSH2 0x1079 JUMPI PUSH1 0x40 MLOAD PUSH32 0x22CE3EDD00000000000000000000000000000000000000000000000000000000 DUP2 MSTORE PUSH1 0x4 ADD PUSH1 0x40 MLOAD DUP1 SWAP2 SUB SWAP1 REVERT JUMPDEST DUP3 DUP5 PUSH0 ADD SWAP1 PUSH1 0x2 DUP2 GT ISZERO PUSH2 0x1090 JUMPI PUSH2 0x108F PUSH2 0x2012 JUMP JUMPDEST JUMPDEST SWAP1 DUP2 PUSH1 0x2 DUP2 GT ISZERO PUSH2 0x10A4 JUMPI PUSH2 0x10A3 PUSH2 0x2012 JUMP JUMPDEST JUMPDEST DUP2 MSTORE POP POP DUP2 DUP5 PUSH1 0x40 ADD SWAP1 PUSH0 DUP2 GT ISZERO PUSH2 0x10BF JUMPI PUSH2 0x10BE PUSH2 0x2012 JUMP JUMPDEST JUMPDEST SWAP1 DUP2 PUSH0 DUP2 GT ISZERO PUSH2 0x10D2 JUMPI PUSH2 0x10D1 PUSH2 0x2012 JUMP JUMPDEST JUMPDEST DUP2 MSTORE POP POP DUP1 DUP5 PUSH1 0x60 ADD DUP2 SWAP1 MSTORE POP POP POP POP POP JUMP JUMPDEST PUSH2 0x10ED PUSH2 0x16AE JUMP JUMPDEST PUSH2 0x10FA DUP2 PUSH0 ADD MLOAD DUP4 PUSH2 0x11F9 JUMP JUMPDEST POP PUSH0 DUP2 PUSH1 0x20 ADD DUP2 DUP2 MSTORE POP POP SWAP2 SWAP1 POP JUMP JUMPDEST PUSH2 0x1117 DUP3 PUSH1 0x3 DUP4 MLOAD PUSH2 0x126F JUMP JUMPDEST PUSH2 0x112D DUP2 DUP4 PUSH0 ADD MLOAD PUSH2 0x140F SWAP1 SWAP2 SWAP1 PUSH4 0xFFFFFFFF AND JUMP JUMPDEST POP POP POP JUMP JUMPDEST PUSH2 0x1153 PUSH1 0x2 PUSH1 0x5 PUSH1 0x6 PUSH1 0xFF AND SWAP1 SHL OR DUP4 PUSH0 ADD MLOAD PUSH2 0x142B SWAP1 SWAP2 SWAP1 PUSH4 0xFFFFFFFF AND JUMP JUMPDEST POP PUSH2 0x117D DUP3 DUP3 PUSH1 0x40 MLOAD PUSH1 0x20 ADD PUSH2 0x1169 SWAP2 SWAP1 PUSH2 0x1B0D JUMP JUMPDEST PUSH1 0x40 MLOAD PUSH1 0x20 DUP2 DUP4 SUB SUB DUP2 MSTORE SWAP1 PUSH1 0x40 MSTORE PUSH2 0x11D1 JUMP JUMPDEST POP POP JUMP JUMPDEST PUSH2 0x118C DUP2 PUSH1 0x4 PUSH2 0x1492 JUMP JUMPDEST PUSH1 0x1 DUP2 PUSH1 0x20 ADD DUP2 DUP2 MLOAD PUSH2 0x119F SWAP2 SWAP1 PUSH2 0x21CE JUMP JUMPDEST SWAP2 POP DUP2 DUP2 MSTORE POP POP POP JUMP JUMPDEST PUSH2 0x11B4 DUP2 PUSH1 0x7 PUSH2 0x1492 JUMP JUMPDEST PUSH1 0x1 DUP2 PUSH1 0x20 ADD DUP2 DUP2 MLOAD PUSH2 0x11C7 SWAP2 SWAP1 PUSH2 0x1E01 JUMP JUMPDEST SWAP2 POP DUP2 DUP2 MSTORE POP POP POP JUMP JUMPDEST PUSH2 0x11DE DUP3 PUSH1 0x2 DUP4 MLOAD PUSH2 0x126F JUMP JUMPDEST PUSH2 0x11F4 DUP2 DUP4 PUSH0 ADD MLOAD PUSH2 0x140F SWAP1 SWAP2 SWAP1 PUSH4 0xFFFFFFFF AND JUMP JUMPDEST POP POP POP JUMP JUMPDEST PUSH2 0x1201 PUSH2 0x16CD JUMP JUMPDEST PUSH0 PUSH1 0x20 DUP4 PUSH2 0x120F SWAP2 SWAP1 PUSH2 0x2201 JUMP JUMPDEST EQ PUSH2 0x123B JUMPI PUSH1 0x20 DUP3 PUSH2 0x1221 SWAP2 SWAP1 PUSH2 0x2201 JUMP JUMPDEST PUSH1 0x20 PUSH2 0x122D SWAP2 SWAP1 PUSH2 0x1E01 JUMP JUMPDEST DUP3 PUSH2 0x1238 SWAP2 SWAP1 PUSH2 0x21CE JUMP JUMPDEST SWAP2 POP JUMPDEST DUP2 DUP4 PUSH1 0x20 ADD DUP2 DUP2 MSTORE POP POP PUSH1 0x40 MLOAD DUP1 DUP5 MSTORE PUSH0 DUP2 MSTORE DUP3 DUP2 ADD PUSH1 0x20 ADD DUP2 DUP2 LT ISZERO PUSH2 0x1260 JUMPI PUSH0 DUP1 REVERT JUMPDEST DUP1 PUSH1 0x40 MSTORE POP POP DUP3 SWAP1 POP SWAP3 SWAP2 POP POP JUMP JUMPDEST PUSH1 0x17 DUP2 PUSH8 0xFFFFFFFFFFFFFFFF AND GT PUSH2 0x12A9 JUMPI PUSH2 0x12A3 DUP2 PUSH1 0x5 DUP5 PUSH1 0xFF AND SWAP1 SHL PUSH1 0xFF AND OR DUP5 PUSH0 ADD MLOAD PUSH2 0x142B SWAP1 SWAP2 SWAP1 PUSH4 0xFFFFFFFF AND JUMP JUMPDEST POP PUSH2 0x140A JUMP JUMPDEST PUSH1 0xFF DUP2 PUSH8 0xFFFFFFFFFFFFFFFF AND GT PUSH2 0x1305 JUMPI PUSH2 0x12DB PUSH1 0x18 PUSH1 0x5 DUP5 PUSH1 0xFF AND SWAP1 SHL OR DUP5 PUSH0 ADD MLOAD PUSH2 0x142B SWAP1 SWAP2 SWAP1 PUSH4 0xFFFFFFFF AND JUMP JUMPDEST POP PUSH2 0x12FF DUP2 PUSH8 0xFFFFFFFFFFFFFFFF AND PUSH1 0x1 DUP6 PUSH0 ADD MLOAD PUSH2 0x14B7 SWAP1 SWAP3 SWAP2 SWAP1 PUSH4 0xFFFFFFFF AND JUMP JUMPDEST POP PUSH2 0x1409 JUMP JUMPDEST PUSH2 0xFFFF DUP2 PUSH8 0xFFFFFFFFFFFFFFFF AND GT PUSH2 0x1362 JUMPI PUSH2 0x1338 PUSH1 0x19 PUSH1 0x5 DUP5 PUSH1 0xFF AND SWAP1 SHL OR DUP5 PUSH0 ADD MLOAD PUSH2 0x142B SWAP1 SWAP2 SWAP1 PUSH4 0xFFFFFFFF AND JUMP JUMPDEST POP PUSH2 0x135C DUP2 PUSH8 0xFFFFFFFFFFFFFFFF AND PUSH1 0x2 DUP6 PUSH0 ADD MLOAD PUSH2 0x14B7 SWAP1 SWAP3 SWAP2 SWAP1 PUSH4 0xFFFFFFFF AND JUMP JUMPDEST POP PUSH2 0x1408 JUMP JUMPDEST PUSH4 0xFFFFFFFF DUP2 PUSH8 0xFFFFFFFFFFFFFFFF AND GT PUSH2 0x13C1 JUMPI PUSH2 0x1397 PUSH1 0x1A PUSH1 0x5 DUP5 PUSH1 0xFF AND SWAP1 SHL OR DUP5 PUSH0 ADD MLOAD PUSH2 0x142B SWAP1 SWAP2 SWAP1 PUSH4 0xFFFFFFFF AND JUMP JUMPDEST POP PUSH2 0x13BB DUP2 PUSH8 0xFFFFFFFFFFFFFFFF AND PUSH1 0x4 DUP6 PUSH0 ADD MLOAD PUSH2 0x14B7 SWAP1 SWAP3 SWAP2 SWAP1 PUSH4 0xFFFFFFFF AND JUMP JUMPDEST POP PUSH2 0x1407 JUMP JUMPDEST PUSH2 0x13E1 PUSH1 0x1B PUSH1 0x5 DUP5 PUSH1 0xFF AND SWAP1 SHL OR DUP5 PUSH0 ADD MLOAD PUSH2 0x142B SWAP1 SWAP2 SWAP1 PUSH4 0xFFFFFFFF AND JUMP JUMPDEST POP PUSH2 0x1405 DUP2 PUSH8 0xFFFFFFFFFFFFFFFF AND PUSH1 0x8 DUP6 PUSH0 ADD MLOAD PUSH2 0x14B7 SWAP1 SWAP3 SWAP2 SWAP1 PUSH4 0xFFFFFFFF AND JUMP JUMPDEST POP JUMPDEST JUMPDEST JUMPDEST JUMPDEST POP POP POP JUMP JUMPDEST PUSH2 0x1417 PUSH2 0x16CD JUMP JUMPDEST PUSH2 0x1423 DUP4 DUP4 DUP5 MLOAD PUSH2 0x1540 JUMP JUMPDEST SWAP1 POP SWAP3 SWAP2 POP POP JUMP JUMPDEST PUSH2 0x1433 PUSH2 0x16CD JUMP JUMPDEST PUSH0 DUP4 PUSH0 ADD MLOAD MLOAD SWAP1 POP PUSH0 PUSH1 0x1 DUP3 PUSH2 0x1449 SWAP2 SWAP1 PUSH2 0x21CE JUMP JUMPDEST SWAP1 POP DUP5 PUSH1 0x20 ADD MLOAD DUP3 LT PUSH2 0x146D JUMPI PUSH2 0x146C DUP6 PUSH1 0x2 DUP4 PUSH2 0x1467 SWAP2 SWAP1 PUSH2 0x1D3C JUMP JUMPDEST PUSH2 0x161D JUMP JUMPDEST JUMPDEST DUP5 MLOAD PUSH1 0x20 DUP4 DUP3 ADD ADD DUP6 DUP2 MSTORE8 DUP2 MLOAD DUP4 GT ISZERO PUSH2 0x1485 JUMPI DUP3 DUP3 MSTORE JUMPDEST POP POP DUP5 SWAP3 POP POP POP SWAP3 SWAP2 POP POP JUMP JUMPDEST PUSH2 0x14B2 PUSH1 0x1F PUSH1 0x5 DUP4 PUSH1 0xFF AND SWAP1 SHL OR DUP4 PUSH0 ADD MLOAD PUSH2 0x142B SWAP1 SWAP2 SWAP1 PUSH4 0xFFFFFFFF AND JUMP JUMPDEST POP POP POP JUMP JUMPDEST PUSH2 0x14BF PUSH2 0x16CD JUMP JUMPDEST PUSH0 DUP5 PUSH0 ADD MLOAD MLOAD SWAP1 POP PUSH0 DUP2 DUP5 PUSH2 0x14D4 SWAP2 SWAP1 PUSH2 0x21CE JUMP JUMPDEST SWAP1 POP DUP6 PUSH1 0x20 ADD MLOAD DUP2 GT ISZERO PUSH2 0x14F9 JUMPI PUSH2 0x14F8 DUP7 PUSH1 0x2 DUP4 PUSH2 0x14F3 SWAP2 SWAP1 PUSH2 0x1D3C JUMP JUMPDEST PUSH2 0x161D JUMP JUMPDEST JUMPDEST PUSH0 PUSH1 0x1 DUP6 PUSH2 0x100 PUSH2 0x150A SWAP2 SWAP1 PUSH2 0x2360 JUMP JUMPDEST PUSH2 0x1514 SWAP2 SWAP1 PUSH2 0x1E01 JUMP JUMPDEST SWAP1 POP DUP7 MLOAD DUP3 DUP2 ADD DUP8 DUP4 NOT DUP3 MLOAD AND OR DUP2 MSTORE DUP2 MLOAD DUP5 GT ISZERO PUSH2 0x1531 JUMPI DUP4 DUP3 MSTORE JUMPDEST POP POP DUP7 SWAP4 POP POP POP POP SWAP4 SWAP3 POP POP POP JUMP JUMPDEST PUSH2 0x1548 PUSH2 0x16CD JUMP JUMPDEST DUP3 MLOAD DUP3 GT ISZERO PUSH2 0x1555 JUMPI PUSH0 DUP1 REVERT JUMPDEST PUSH0 DUP5 PUSH0 ADD MLOAD MLOAD SWAP1 POP PUSH0 DUP4 DUP3 PUSH2 0x156A SWAP2 SWAP1 PUSH2 0x21CE JUMP JUMPDEST SWAP1 POP DUP6 PUSH1 0x20 ADD MLOAD DUP2 GT ISZERO PUSH2 0x158F JUMPI PUSH2 0x158E DUP7 PUSH1 0x2 DUP4 PUSH2 0x1589 SWAP2 SWAP1 PUSH2 0x1D3C JUMP JUMPDEST PUSH2 0x161D JUMP JUMPDEST JUMPDEST PUSH0 DUP1 DUP8 MLOAD DUP1 MLOAD DUP6 PUSH1 0x20 DUP4 ADD ADD SWAP4 POP DUP1 DUP6 GT ISZERO PUSH2 0x15A9 JUMPI DUP5 DUP3 MSTORE JUMPDEST PUSH1 0x20 DUP10 ADD SWAP3 POP POP POP JUMPDEST PUSH1 0x20 DUP7 LT PUSH2 0x15F0 JUMPI DUP1 MLOAD DUP3 MSTORE PUSH1 0x20 DUP3 PUSH2 0x15CB SWAP2 SWAP1 PUSH2 0x21CE JUMP JUMPDEST SWAP2 POP PUSH1 0x20 DUP2 PUSH2 0x15DA SWAP2 SWAP1 PUSH2 0x21CE JUMP JUMPDEST SWAP1 POP PUSH1 0x20 DUP7 PUSH2 0x15E9 SWAP2 SWAP1 PUSH2 0x1E01 JUMP JUMPDEST SWAP6 POP PUSH2 0x15B2 JUMP JUMPDEST PUSH0 PUSH1 0x1 DUP8 PUSH1 0x20 SUB PUSH2 0x100 EXP SUB SWAP1 POP DUP1 NOT DUP3 MLOAD AND DUP2 DUP5 MLOAD AND DUP2 DUP2 OR DUP6 MSTORE POP POP POP DUP8 SWAP5 POP POP POP POP POP SWAP4 SWAP3 POP POP POP JUMP JUMPDEST PUSH0 DUP3 PUSH0 ADD MLOAD SWAP1 POP PUSH2 0x162E DUP4 DUP4 PUSH2 0x11F9 JUMP JUMPDEST POP PUSH2 0x1639 DUP4 DUP3 PUSH2 0x140F JUMP JUMPDEST POP POP POP POP JUMP JUMPDEST PUSH1 0x40 MLOAD DUP1 PUSH1 0xE0 ADD PUSH1 0x40 MSTORE DUP1 PUSH0 PUSH1 0x2 DUP2 GT ISZERO PUSH2 0x165D JUMPI PUSH2 0x165C PUSH2 0x2012 JUMP JUMPDEST JUMPDEST DUP2 MSTORE PUSH1 0x20 ADD PUSH0 PUSH1 0x2 DUP2 GT ISZERO PUSH2 0x1675 JUMPI PUSH2 0x1674 PUSH2 0x2012 JUMP JUMPDEST JUMPDEST DUP2 MSTORE PUSH1 0x20 ADD PUSH0 DUP1 DUP2 GT ISZERO PUSH2 0x168C JUMPI PUSH2 0x168B PUSH2 0x2012 JUMP JUMPDEST JUMPDEST DUP2 MSTORE PUSH1 0x20 ADD PUSH1 0x60 DUP2 MSTORE PUSH1 0x20 ADD PUSH1 0x60 DUP2 MSTORE PUSH1 0x20 ADD PUSH1 0x60 DUP2 MSTORE PUSH1 0x20 ADD PUSH1 0x60 DUP2 MSTORE POP SWAP1 JUMP JUMPDEST PUSH1 0x40 MLOAD DUP1 PUSH1 0x40 ADD PUSH1 0x40 MSTORE DUP1 PUSH2 0x16C1 PUSH2 0x16CD JUMP JUMPDEST DUP2 MSTORE PUSH1 0x20 ADD PUSH0 DUP2 MSTORE POP SWAP1 JUMP JUMPDEST PUSH1 0x40 MLOAD DUP1 PUSH1 0x40 ADD PUSH1 0x40 MSTORE DUP1 PUSH1 0x60 DUP2 MSTORE PUSH1 0x20 ADD PUSH0 DUP2 MSTORE POP SWAP1 JUMP JUMPDEST PUSH0 PUSH1 0x40 MLOAD SWAP1 POP SWAP1 JUMP JUMPDEST PUSH0 DUP1 REVERT JUMPDEST PUSH0 DUP1 REVERT JUMPDEST PUSH0 DUP2 SWAP1 POP SWAP2 SWAP1 POP JUMP JUMPDEST PUSH2 0x1709 DUP2 PUSH2 0x16F7 JUMP JUMPDEST DUP2 EQ PUSH2 0x1713 JUMPI PUSH0 DUP1 REVERT JUMPDEST POP JUMP JUMPDEST PUSH0 DUP2 CALLDATALOAD SWAP1 POP PUSH2 0x1724 DUP2 PUSH2 0x1700 JUMP JUMPDEST SWAP3 SWAP2 POP POP JUMP JUMPDEST PUSH0 PUSH1 0x20 DUP3 DUP5 SUB SLT ISZERO PUSH2 0x173F JUMPI PUSH2 0x173E PUSH2 0x16EF JUMP JUMPDEST JUMPDEST PUSH0 PUSH2 0x174C DUP5 DUP3 DUP6 ADD PUSH2 0x1716 JUMP JUMPDEST SWAP2 POP POP SWAP3 SWAP2 POP POP JUMP JUMPDEST PUSH0 PUSH8 0xFFFFFFFFFFFFFFFF DUP3 AND SWAP1 POP SWAP2 SWAP1 POP JUMP JUMPDEST PUSH2 0x1771 DUP2 PUSH2 0x1755 JUMP JUMPDEST DUP3 MSTORE POP POP JUMP JUMPDEST PUSH0 PUSH1 0x20 DUP3 ADD SWAP1 POP PUSH2 0x178A PUSH0 DUP4 ADD DUP5 PUSH2 0x1768 JUMP JUMPDEST SWAP3 SWAP2 POP POP JUMP JUMPDEST PUSH0 DUP2 SWAP1 POP SWAP2 SWAP1 POP JUMP JUMPDEST PUSH2 0x17A2 DUP2 PUSH2 0x1790 JUMP JUMPDEST DUP2 EQ PUSH2 0x17AC JUMPI PUSH0 DUP1 REVERT JUMPDEST POP JUMP JUMPDEST PUSH0 DUP2 CALLDATALOAD SWAP1 POP PUSH2 0x17BD DUP2 PUSH2 0x1799 JUMP JUMPDEST SWAP3 SWAP2 POP POP JUMP JUMPDEST PUSH0 DUP1 REVERT JUMPDEST PUSH0 DUP1 REVERT JUMPDEST PUSH0 PUSH1 0x1F NOT PUSH1 0x1F DUP4 ADD AND SWAP1 POP SWAP2 SWAP1 POP JUMP JUMPDEST PUSH32 0x4E487B7100000000000000000000000000000000000000000000000000000000 PUSH0 MSTORE PUSH1 0x41 PUSH1 0x4 MSTORE PUSH1 0x24 PUSH0 REVERT JUMPDEST PUSH2 0x1811 DUP3 PUSH2 0x17CB JUMP JUMPDEST DUP2 ADD DUP2 DUP2 LT PUSH8 0xFFFFFFFFFFFFFFFF DUP3 GT OR ISZERO PUSH2 0x1830 JUMPI PUSH2 0x182F PUSH2 0x17DB JUMP JUMPDEST JUMPDEST DUP1 PUSH1 0x40 MSTORE POP POP POP JUMP JUMPDEST PUSH0 PUSH2 0x1842 PUSH2 0x16E6 JUMP JUMPDEST SWAP1 POP PUSH2 0x184E DUP3 DUP3 PUSH2 0x1808 JUMP JUMPDEST SWAP2 SWAP1 POP JUMP JUMPDEST PUSH0 PUSH8 0xFFFFFFFFFFFFFFFF DUP3 GT ISZERO PUSH2 0x186D JUMPI PUSH2 0x186C PUSH2 0x17DB JUMP JUMPDEST JUMPDEST PUSH2 0x1876 DUP3 PUSH2 0x17CB JUMP JUMPDEST SWAP1 POP PUSH1 0x20 DUP2 ADD SWAP1 POP SWAP2 SWAP1 POP JUMP JUMPDEST DUP3 DUP2 DUP4 CALLDATACOPY PUSH0 DUP4 DUP4 ADD MSTORE POP POP POP JUMP JUMPDEST PUSH0 PUSH2 0x18A3 PUSH2 0x189E DUP5 PUSH2 0x1853 JUMP JUMPDEST PUSH2 0x1839 JUMP JUMPDEST SWAP1 POP DUP3 DUP2 MSTORE PUSH1 0x20 DUP2 ADD DUP5 DUP5 DUP5 ADD GT ISZERO PUSH2 0x18BF JUMPI PUSH2 0x18BE PUSH2 0x17C7 JUMP JUMPDEST JUMPDEST PUSH2 0x18CA DUP5 DUP3 DUP6 PUSH2 0x1883 JUMP JUMPDEST POP SWAP4 SWAP3 POP POP POP JUMP JUMPDEST PUSH0 DUP3 PUSH1 0x1F DUP4 ADD SLT PUSH2 0x18E6 JUMPI PUSH2 0x18E5 PUSH2 0x17C3 JUMP JUMPDEST JUMPDEST DUP2 CALLDATALOAD PUSH2 0x18F6 DUP5 DUP3 PUSH1 0x20 DUP7 ADD PUSH2 0x1891 JUMP JUMPDEST SWAP2 POP POP SWAP3 SWAP2 POP POP JUMP JUMPDEST PUSH0 DUP1 PUSH0 PUSH1 0x60 DUP5 DUP7 SUB SLT ISZERO PUSH2 0x1916 JUMPI PUSH2 0x1915 PUSH2 0x16EF JUMP JUMPDEST JUMPDEST PUSH0 PUSH2 0x1923 DUP7 DUP3 DUP8 ADD PUSH2 0x17AF JUMP JUMPDEST SWAP4 POP POP PUSH1 0x20 DUP5 ADD CALLDATALOAD PUSH8 0xFFFFFFFFFFFFFFFF DUP2 GT ISZERO PUSH2 0x1944 JUMPI PUSH2 0x1943 PUSH2 0x16F3 JUMP JUMPDEST JUMPDEST PUSH2 0x1950 DUP7 DUP3 DUP8 ADD PUSH2 0x18D2 JUMP JUMPDEST SWAP3 POP POP PUSH1 0x40 DUP5 ADD CALLDATALOAD PUSH8 0xFFFFFFFFFFFFFFFF DUP2 GT ISZERO PUSH2 0x1971 JUMPI PUSH2 0x1970 PUSH2 0x16F3 JUMP JUMPDEST JUMPDEST PUSH2 0x197D DUP7 DUP3 DUP8 ADD PUSH2 0x18D2 JUMP JUMPDEST SWAP2 POP POP SWAP3 POP SWAP3 POP SWAP3 JUMP JUMPDEST PUSH2 0x1990 DUP2 PUSH2 0x16F7 JUMP JUMPDEST DUP3 MSTORE POP POP JUMP JUMPDEST PUSH0 DUP2 MLOAD SWAP1 POP SWAP2 SWAP1 POP JUMP JUMPDEST PUSH0 DUP3 DUP3 MSTORE PUSH1 0x20 DUP3 ADD SWAP1 POP SWAP3 SWAP2 POP POP JUMP JUMPDEST PUSH0 JUMPDEST DUP4 DUP2 LT ISZERO PUSH2 0x19CD JUMPI DUP1 DUP3 ADD MLOAD DUP2 DUP5 ADD MSTORE PUSH1 0x20 DUP2 ADD SWAP1 POP PUSH2 0x19B2 JUMP JUMPDEST PUSH0 DUP5 DUP5 ADD MSTORE POP POP POP POP JUMP JUMPDEST PUSH0 PUSH2 0x19E2 DUP3 PUSH2 0x1996 JUMP JUMPDEST PUSH2 0x19EC DUP2 DUP6 PUSH2 0x19A0 JUMP JUMPDEST SWAP4 POP PUSH2 0x19FC DUP2 DUP6 PUSH1 0x20 DUP7 ADD PUSH2 0x19B0 JUMP JUMPDEST PUSH2 0x1A05 DUP2 PUSH2 0x17CB JUMP JUMPDEST DUP5 ADD SWAP2 POP POP SWAP3 SWAP2 POP POP JUMP JUMPDEST PUSH0 PUSH1 0x80 DUP3 ADD SWAP1 POP PUSH2 0x1A23 PUSH0 DUP4 ADD DUP8 PUSH2 0x1987 JUMP JUMPDEST PUSH2 0x1A30 PUSH1 0x20 DUP4 ADD DUP7 PUSH2 0x1987 JUMP JUMPDEST PUSH2 0x1A3D PUSH1 0x40 DUP4 ADD DUP6 PUSH2 0x1987 JUMP JUMPDEST DUP2 DUP2 SUB PUSH1 0x60 DUP4 ADD MSTORE PUSH2 0x1A4F DUP2 DUP5 PUSH2 0x19D8 JUMP JUMPDEST SWAP1 POP SWAP6 SWAP5 POP POP POP POP POP JUMP JUMPDEST PUSH0 DUP2 ISZERO ISZERO SWAP1 POP SWAP2 SWAP1 POP JUMP JUMPDEST PUSH2 0x1A6E DUP2 PUSH2 0x1A5A JUMP JUMPDEST DUP3 MSTORE POP POP JUMP JUMPDEST PUSH0 PUSH1 0x20 DUP3 ADD SWAP1 POP PUSH2 0x1A87 PUSH0 DUP4 ADD DUP5 PUSH2 0x1A65 JUMP JUMPDEST SWAP3 SWAP2 POP POP JUMP JUMPDEST PUSH2 0x1A96 DUP2 PUSH2 0x1790 JUMP JUMPDEST DUP3 MSTORE POP POP JUMP JUMPDEST PUSH0 PUSH1 0x20 DUP3 ADD SWAP1 POP PUSH2 0x1AAF PUSH0 DUP4 ADD DUP5 PUSH2 0x1A8D JUMP JUMPDEST SWAP3 SWAP2 POP POP JUMP JUMPDEST PUSH0 PUSH20 0xFFFFFFFFFFFFFFFFFFFFFFFFFFFFFFFFFFFFFFFF DUP3 AND SWAP1 POP SWAP2 SWAP1 POP JUMP JUMPDEST PUSH0 PUSH2 0x1ADE DUP3 PUSH2 0x1AB5 JUMP JUMPDEST SWAP1 POP SWAP2 SWAP1 POP JUMP JUMPDEST PUSH2 0x1AEE DUP2 PUSH2 0x1AD4 JUMP JUMPDEST DUP3 MSTORE POP POP JUMP JUMPDEST PUSH0 PUSH1 0x20 DUP3 ADD SWAP1 POP PUSH2 0x1B07 PUSH0 DUP4 ADD DUP5 PUSH2 0x1AE5 JUMP JUMPDEST SWAP3 SWAP2 POP POP JUMP JUMPDEST PUSH0 PUSH1 0x20 DUP3 ADD SWAP1 POP PUSH2 0x1B20 PUSH0 DUP4 ADD DUP5 PUSH2 0x1987 JUMP JUMPDEST SWAP3 SWAP2 POP POP JUMP JUMPDEST PUSH0 PUSH1 0xA0 DUP3 ADD SWAP1 POP PUSH2 0x1B39 PUSH0 DUP4 ADD DUP9 PUSH2 0x1987 JUMP JUMPDEST PUSH2 0x1B46 PUSH1 0x20 DUP4 ADD DUP8 PUSH2 0x1987 JUMP JUMPDEST PUSH2 0x1B53 PUSH1 0x40 DUP4 ADD DUP7 PUSH2 0x1987 JUMP JUMPDEST PUSH2 0x1B60 PUSH1 0x60 DUP4 ADD DUP6 PUSH2 0x1987 JUMP JUMPDEST PUSH2 0x1B6D PUSH1 0x80 DUP4 ADD DUP5 PUSH2 0x1A8D JUMP JUMPDEST SWAP7 SWAP6 POP POP POP POP POP POP JUMP JUMPDEST PUSH2 0x1B80 DUP2 PUSH2 0x1755 JUMP JUMPDEST DUP2 EQ PUSH2 0x1B8A JUMPI PUSH0 DUP1 REVERT JUMPDEST POP JUMP JUMPDEST PUSH0 DUP2 CALLDATALOAD SWAP1 POP PUSH2 0x1B9B DUP2 PUSH2 0x1B77 JUMP JUMPDEST SWAP3 SWAP2 POP POP JUMP JUMPDEST PUSH0 PUSH4 0xFFFFFFFF DUP3 AND SWAP1 POP SWAP2 SWAP1 POP JUMP JUMPDEST PUSH2 0x1BB9 DUP2 PUSH2 0x1BA1 JUMP JUMPDEST DUP2 EQ PUSH2 0x1BC3 JUMPI PUSH0 DUP1 REVERT JUMPDEST POP JUMP JUMPDEST PUSH0 DUP2 CALLDATALOAD SWAP1 POP PUSH2 0x1BD4 DUP2 PUSH2 0x1BB0 JUMP JUMPDEST SWAP3 SWAP2 POP POP JUMP JUMPDEST PUSH0 DUP1 PUSH0 PUSH1 0x60 DUP5 DUP7 SUB SLT ISZERO PUSH2 0x1BF1 JUMPI PUSH2 0x1BF0 PUSH2 0x16EF JUMP JUMPDEST JUMPDEST PUSH0 PUSH2 0x1BFE DUP7 DUP3 DUP8 ADD PUSH2 0x1B8D JUMP JUMPDEST SWAP4 POP POP PUSH1 0x20 PUSH2 0x1C0F DUP7 DUP3 DUP8 ADD PUSH2 0x1BC6 JUMP JUMPDEST SWAP3 POP POP PUSH1 0x40 PUSH2 0x1C20 DUP7 DUP3 DUP8 ADD PUSH2 0x17AF JUMP JUMPDEST SWAP2 POP POP SWAP3 POP SWAP3 POP SWAP3 JUMP JUMPDEST PUSH2 0x1C33 DUP2 PUSH2 0x1AD4 JUMP JUMPDEST DUP2 EQ PUSH2 0x1C3D JUMPI PUSH0 DUP1 REVERT JUMPDEST POP JUMP JUMPDEST PUSH0 DUP2 CALLDATALOAD SWAP1 POP PUSH2 0x1C4E DUP2 PUSH2 0x1C2A JUMP JUMPDEST SWAP3 SWAP2 POP POP JUMP JUMPDEST PUSH0 PUSH1 0x20 DUP3 DUP5 SUB SLT ISZERO PUSH2 0x1C69 JUMPI PUSH2 0x1C68 PUSH2 0x16EF JUMP JUMPDEST JUMPDEST PUSH0 PUSH2 0x1C76 DUP5 DUP3 DUP6 ADD PUSH2 0x1C40 JUMP JUMPDEST SWAP2 POP POP SWAP3 SWAP2 POP POP JUMP JUMPDEST PUSH2 0x1C88 DUP2 PUSH2 0x1BA1 JUMP JUMPDEST DUP3 MSTORE POP POP JUMP JUMPDEST PUSH0 PUSH1 0x20 DUP3 ADD SWAP1 POP PUSH2 0x1CA1 PUSH0 DUP4 ADD DUP5 PUSH2 0x1C7F JUMP JUMPDEST SWAP3 SWAP2 POP POP JUMP JUMPDEST PUSH32 0x5072696365206D7573742062652067726561746572207468616E203000000000 PUSH0 DUP3 ADD MSTORE POP JUMP JUMPDEST PUSH0 PUSH2 0x1CDB PUSH1 0x1C DUP4 PUSH2 0x19A0 JUMP JUMPDEST SWAP2 POP PUSH2 0x1CE6 DUP3 PUSH2 0x1CA7 JUMP JUMPDEST PUSH1 0x20 DUP3 ADD SWAP1 POP SWAP2 SWAP1 POP JUMP JUMPDEST PUSH0 PUSH1 0x20 DUP3 ADD SWAP1 POP DUP2 DUP2 SUB PUSH0 DUP4 ADD MSTORE PUSH2 0x1D08 DUP2 PUSH2 0x1CCF JUMP JUMPDEST SWAP1 POP SWAP2 SWAP1 POP JUMP JUMPDEST PUSH32 0x4E487B7100000000000000000000000000000000000000000000000000000000 PUSH0 MSTORE PUSH1 0x11 PUSH1 0x4 MSTORE PUSH1 0x24 PUSH0 REVERT JUMPDEST PUSH0 PUSH2 0x1D46 DUP3 PUSH2 0x16F7 JUMP JUMPDEST SWAP2 POP PUSH2 0x1D51 DUP4 PUSH2 0x16F7 JUMP JUMPDEST SWAP3 POP DUP3 DUP3 MUL PUSH2 0x1D5F DUP2 PUSH2 0x16F7 JUMP JUMPDEST SWAP2 POP DUP3 DUP3 DIV DUP5 EQ DUP4 ISZERO OR PUSH2 0x1D76 JUMPI PUSH2 0x1D75 PUSH2 0x1D0F JUMP JUMPDEST JUMPDEST POP SWAP3 SWAP2 POP POP JUMP JUMPDEST PUSH0 PUSH1 0x40 DUP3 ADD SWAP1 POP PUSH2 0x1D90 PUSH0 DUP4 ADD DUP6 PUSH2 0x1987 JUMP JUMPDEST PUSH2 0x1D9D PUSH1 0x20 DUP4 ADD DUP5 PUSH2 0x1987 JUMP JUMPDEST SWAP4 SWAP3 POP POP POP JUMP JUMPDEST PUSH32 0x4E487B7100000000000000000000000000000000000000000000000000000000 PUSH0 MSTORE PUSH1 0x12 PUSH1 0x4 MSTORE PUSH1 0x24 PUSH0 REVERT JUMPDEST PUSH0 PUSH2 0x1DDB DUP3 PUSH2 0x16F7 JUMP JUMPDEST SWAP2 POP PUSH2 0x1DE6 DUP4 PUSH2 0x16F7 JUMP JUMPDEST SWAP3 POP DUP3 PUSH2 0x1DF6 JUMPI PUSH2 0x1DF5 PUSH2 0x1DA4 JUMP JUMPDEST JUMPDEST DUP3 DUP3 DIV SWAP1 POP SWAP3 SWAP2 POP POP JUMP JUMPDEST PUSH0 PUSH2 0x1E0B DUP3 PUSH2 0x16F7 JUMP JUMPDEST SWAP2 POP PUSH2 0x1E16 DUP4 PUSH2 0x16F7 JUMP JUMPDEST SWAP3 POP DUP3 DUP3 SUB SWAP1 POP DUP2 DUP2 GT ISZERO PUSH2 0x1E2E JUMPI PUSH2 0x1E2D PUSH2 0x1D0F JUMP JUMPDEST JUMPDEST SWAP3 SWAP2 POP POP JUMP JUMPDEST PUSH32 0x4D7573742062652070726F706F736564206F776E657200000000000000000000 PUSH0 DUP3 ADD MSTORE POP JUMP JUMPDEST PUSH0 PUSH2 0x1E68 PUSH1 0x16 DUP4 PUSH2 0x19A0 JUMP JUMPDEST SWAP2 POP PUSH2 0x1E73 DUP3 PUSH2 0x1E34 JUMP JUMPDEST PUSH1 0x20 DUP3 ADD SWAP1 POP SWAP2 SWAP1 POP JUMP JUMPDEST PUSH0 PUSH1 0x20 DUP3 ADD SWAP1 POP DUP2 DUP2 SUB PUSH0 DUP4 ADD MSTORE PUSH2 0x1E95 DUP2 PUSH2 0x1E5C JUMP JUMPDEST SWAP1 POP SWAP2 SWAP1 POP JUMP JUMPDEST PUSH32 0x4E487B7100000000000000000000000000000000000000000000000000000000 PUSH0 MSTORE PUSH1 0x22 PUSH1 0x4 MSTORE PUSH1 0x24 PUSH0 REVERT JUMPDEST PUSH0 PUSH1 0x2 DUP3 DIV SWAP1 POP PUSH1 0x1 DUP3 AND DUP1 PUSH2 0x1EE0 JUMPI PUSH1 0x7F DUP3 AND SWAP2 POP JUMPDEST PUSH1 0x20 DUP3 LT DUP2 SUB PUSH2 0x1EF3 JUMPI PUSH2 0x1EF2 PUSH2 0x1E9C JUMP JUMPDEST JUMPDEST POP SWAP2 SWAP1 POP JUMP JUMPDEST PUSH32 0x4F6E6C792063616C6C61626C65206279206F776E657200000000000000000000 PUSH0 DUP3 ADD MSTORE POP JUMP JUMPDEST PUSH0 PUSH2 0x1F2D PUSH1 0x16 DUP4 PUSH2 0x19A0 JUMP JUMPDEST SWAP2 POP PUSH2 0x1F38 DUP3 PUSH2 0x1EF9 JUMP JUMPDEST PUSH1 0x20 DUP3 ADD SWAP1 POP SWAP2 SWAP1 POP JUMP JUMPDEST PUSH0 PUSH1 0x20 DUP3 ADD SWAP1 POP DUP2 DUP2 SUB PUSH0 DUP4 ADD MSTORE PUSH2 0x1F5A DUP2 PUSH2 0x1F21 JUMP JUMPDEST SWAP1 POP SWAP2 SWAP1 POP JUMP JUMPDEST PUSH0 DUP2 MLOAD SWAP1 POP SWAP2 SWAP1 POP JUMP JUMPDEST PUSH0 DUP3 DUP3 MSTORE PUSH1 0x20 DUP3 ADD SWAP1 POP SWAP3 SWAP2 POP POP JUMP JUMPDEST PUSH0 PUSH2 0x1F85 DUP3 PUSH2 0x1F61 JUMP JUMPDEST PUSH2 0x1F8F DUP2 DUP6 PUSH2 0x1F6B JUMP JUMPDEST SWAP4 POP PUSH2 0x1F9F DUP2 DUP6 PUSH1 0x20 DUP7 ADD PUSH2 0x19B0 JUMP JUMPDEST PUSH2 0x1FA8 DUP2 PUSH2 0x17CB JUMP JUMPDEST DUP5 ADD SWAP2 POP POP SWAP3 SWAP2 POP POP JUMP JUMPDEST PUSH0 PUSH1 0x20 DUP3 ADD SWAP1 POP DUP2 DUP2 SUB PUSH0 DUP4 ADD MSTORE PUSH2 0x1FCB DUP2 DUP5 PUSH2 0x1F7B JUMP JUMPDEST SWAP1 POP SWAP3 SWAP2 POP POP JUMP JUMPDEST PUSH0 DUP2 MLOAD SWAP1 POP PUSH2 0x1FE1 DUP2 PUSH2 0x1700 JUMP JUMPDEST SWAP3 SWAP2 POP POP JUMP JUMPDEST PUSH0 PUSH1 0x20 DUP3 DUP5 SUB SLT ISZERO PUSH2 0x1FFC JUMPI PUSH2 0x1FFB PUSH2 0x16EF JUMP JUMPDEST JUMPDEST PUSH0 PUSH2 0x2009 DUP5 DUP3 DUP6 ADD PUSH2 0x1FD3 JUMP JUMPDEST SWAP2 POP POP SWAP3 SWAP2 POP POP JUMP JUMPDEST PUSH32 0x4E487B7100000000000000000000000000000000000000000000000000000000 PUSH0 MSTORE PUSH1 0x21 PUSH1 0x4 MSTORE PUSH1 0x24 PUSH0 REVERT JUMPDEST PUSH32 0x4E487B7100000000000000000000000000000000000000000000000000000000 PUSH0 MSTORE PUSH1 0x32 PUSH1 0x4 MSTORE PUSH1 0x24 PUSH0 REVERT JUMPDEST PUSH0 PUSH2 0x2076 DUP3 PUSH2 0x16F7 JUMP JUMPDEST SWAP2 POP PUSH32 0xFFFFFFFFFFFFFFFFFFFFFFFFFFFFFFFFFFFFFFFFFFFFFFFFFFFFFFFFFFFFFFFF DUP3 SUB PUSH2 0x20A8 JUMPI PUSH2 0x20A7 PUSH2 0x1D0F JUMP JUMPDEST JUMPDEST PUSH1 0x1 DUP3 ADD SWAP1 POP SWAP2 SWAP1 POP JUMP JUMPDEST PUSH0 PUSH2 0xFFFF DUP3 AND SWAP1 POP SWAP2 SWAP1 POP JUMP JUMPDEST PUSH2 0x20C9 DUP2 PUSH2 0x20B3 JUMP JUMPDEST DUP3 MSTORE POP POP JUMP JUMPDEST PUSH0 PUSH1 0xA0 DUP3 ADD SWAP1 POP PUSH2 0x20E2 PUSH0 DUP4 ADD DUP9 PUSH2 0x1768 JUMP JUMPDEST DUP2 DUP2 SUB PUSH1 0x20 DUP4 ADD MSTORE PUSH2 0x20F4 DUP2 DUP8 PUSH2 0x1F7B JUMP JUMPDEST SWAP1 POP PUSH2 0x2103 PUSH1 0x40 DUP4 ADD DUP7 PUSH2 0x20C0 JUMP JUMPDEST PUSH2 0x2110 PUSH1 0x60 DUP4 ADD DUP6 PUSH2 0x1C7F JUMP JUMPDEST PUSH2 0x211D PUSH1 0x80 DUP4 ADD DUP5 PUSH2 0x1A8D JUMP JUMPDEST SWAP7 SWAP6 POP POP POP POP POP POP JUMP JUMPDEST PUSH0 DUP2 MLOAD SWAP1 POP PUSH2 0x2135 DUP2 PUSH2 0x1799 JUMP JUMPDEST SWAP3 SWAP2 POP POP JUMP JUMPDEST PUSH0 PUSH1 0x20 DUP3 DUP5 SUB SLT ISZERO PUSH2 0x2150 JUMPI PUSH2 0x214F PUSH2 0x16EF JUMP JUMPDEST JUMPDEST PUSH0 PUSH2 0x215D DUP5 DUP3 DUP6 ADD PUSH2 0x2127 JUMP JUMPDEST SWAP2 POP POP SWAP3 SWAP2 POP POP JUMP JUMPDEST PUSH32 0x43616E6E6F74207472616E7366657220746F2073656C66000000000000000000 PUSH0 DUP3 ADD MSTORE POP JUMP JUMPDEST PUSH0 PUSH2 0x219A PUSH1 0x17 DUP4 PUSH2 0x19A0 JUMP JUMPDEST SWAP2 POP PUSH2 0x21A5 DUP3 PUSH2 0x2166 JUMP JUMPDEST PUSH1 0x20 DUP3 ADD SWAP1 POP SWAP2 SWAP1 POP JUMP JUMPDEST PUSH0 PUSH1 0x20 DUP3 ADD SWAP1 POP DUP2 DUP2 SUB PUSH0 DUP4 ADD MSTORE PUSH2 0x21C7 DUP2 PUSH2 0x218E JUMP JUMPDEST SWAP1 POP SWAP2 SWAP1 POP JUMP JUMPDEST PUSH0 PUSH2 0x21D8 DUP3 PUSH2 0x16F7 JUMP JUMPDEST SWAP2 POP PUSH2 0x21E3 DUP4 PUSH2 0x16F7 JUMP JUMPDEST SWAP3 POP DUP3 DUP3 ADD SWAP1 POP DUP1 DUP3 GT ISZERO PUSH2 0x21FB JUMPI PUSH2 0x21FA PUSH2 0x1D0F JUMP JUMPDEST JUMPDEST SWAP3 SWAP2 POP POP JUMP JUMPDEST PUSH0 PUSH2 0x220B DUP3 PUSH2 0x16F7 JUMP JUMPDEST SWAP2 POP PUSH2 0x2216 DUP4 PUSH2 0x16F7 JUMP JUMPDEST SWAP3 POP DUP3 PUSH2 0x2226 JUMPI PUSH2 0x2225 PUSH2 0x1DA4 JUMP JUMPDEST JUMPDEST DUP3 DUP3 MOD SWAP1 POP SWAP3 SWAP2 POP POP JUMP JUMPDEST PUSH0 DUP2 PUSH1 0x1 SHR SWAP1 POP SWAP2 SWAP1 POP JUMP JUMPDEST PUSH0 DUP1 DUP3 SWAP2 POP DUP4 SWAP1 POP JUMPDEST PUSH1 0x1 DUP6 GT ISZERO PUSH2 0x2286 JUMPI DUP1 DUP7 DIV DUP2 GT ISZERO PUSH2 0x2262 JUMPI PUSH2 0x2261 PUSH2 0x1D0F JUMP JUMPDEST JUMPDEST PUSH1 0x1 DUP6 AND ISZERO PUSH2 0x2271 JUMPI DUP1 DUP3 MUL SWAP2 POP JUMPDEST DUP1 DUP2 MUL SWAP1 POP PUSH2 0x227F DUP6 PUSH2 0x2231 JUMP JUMPDEST SWAP5 POP PUSH2 0x2246 JUMP JUMPDEST SWAP5 POP SWAP5 SWAP3 POP POP POP JUMP JUMPDEST PUSH0 DUP3 PUSH2 0x229E JUMPI PUSH1 0x1 SWAP1 POP PUSH2 0x2359 JUMP JUMPDEST DUP2 PUSH2 0x22AB JUMPI PUSH0 SWAP1 POP PUSH2 0x2359 JUMP JUMPDEST DUP2 PUSH1 0x1 DUP2 EQ PUSH2 0x22C1 JUMPI PUSH1 0x2 DUP2 EQ PUSH2 0x22CB JUMPI PUSH2 0x22FA JUMP JUMPDEST PUSH1 0x1 SWAP2 POP POP PUSH2 0x2359 JUMP JUMPDEST PUSH1 0xFF DUP5 GT ISZERO PUSH2 0x22DD JUMPI PUSH2 0x22DC PUSH2 0x1D0F JUMP JUMPDEST JUMPDEST DUP4 PUSH1 0x2 EXP SWAP2 POP DUP5 DUP3 GT ISZERO PUSH2 0x22F4 JUMPI PUSH2 0x22F3 PUSH2 0x1D0F JUMP JUMPDEST JUMPDEST POP PUSH2 0x2359 JUMP JUMPDEST POP PUSH1 0x20 DUP4 LT PUSH2 0x133 DUP4 LT AND PUSH1 0x4E DUP5 LT PUSH1 0xB DUP5 LT AND OR ISZERO PUSH2 0x232F JUMPI DUP3 DUP3 EXP SWAP1 POP DUP4 DUP2 GT ISZERO PUSH2 0x232A JUMPI PUSH2 0x2329 PUSH2 0x1D0F JUMP JUMPDEST JUMPDEST PUSH2 0x2359 JUMP JUMPDEST PUSH2 0x233C DUP5 DUP5 DUP5 PUSH1 0x1 PUSH2 0x223D JUMP JUMPDEST SWAP3 POP SWAP1 POP DUP2 DUP5 DIV DUP2 GT ISZERO PUSH2 0x2353 JUMPI PUSH2 0x2352 PUSH2 0x1D0F JUMP JUMPDEST JUMPDEST DUP2 DUP2 MUL SWAP1 POP JUMPDEST SWAP4 SWAP3 POP POP POP JUMP JUMPDEST PUSH0 PUSH2 0x236A DUP3 PUSH2 0x16F7 JUMP JUMPDEST SWAP2 POP PUSH2 0x2375 DUP4 PUSH2 0x16F7 JUMP JUMPDEST SWAP3 POP PUSH2 0x23A2 PUSH32 0xFFFFFFFFFFFFFFFFFFFFFFFFFFFFFFFFFFFFFFFFFFFFFFFFFFFFFFFFFFFFFFFF DUP5 DUP5 PUSH2 0x228F JUMP JUMPDEST SWAP1 POP SWAP3 SWAP2 POP POP JUMP INVALID SSTORE MSTORE8 PREVRANDAO KECCAK256 POP PUSH19 0x696365203D20545744205072696365202F2055 MSTORE8 PREVRANDAO 0x2D SLOAD JUMPI PREVRANDAO KECCAK256 MSTORE PUSH2 0x7465 KECCAK256 0x28 PUSH10 0x6E2063656E747329A264 PUSH10 0x70667358221220564848 0xA9 SWAP16 STOP RETURNDATACOPY 0xC3 GAS SUB 0xCE 0x22 0xD8 SWAP8 OR SELFDESTRUCT PUSH10 0x53FA6FF2F7455EB2AB6F 0xD9 0xCE 0xFC ISZERO DIV PUSH5 0x736F6C6343 STOP ADDMOD EQ STOP CALLER PUSH4 0x6F6E7374 KECCAK256 JUMPDEST PUSH21 0x773530526573706F6E73652C207573645477645265 PUSH20 0x706F6E73655D203D2061776169742050726F6D69 PUSH20 0x652E616C6C285B46756E6374696F6E732E6D616B PUSH6 0x487474705265 PUSH18 0x75657374287B75726C3A202768747470733A 0x2F 0x2F PUSH18 0x75657279312E66696E616E63652E7961686F PUSH16 0x2E636F6D2F76382F66696E616E63652F PUSH4 0x68617274 0x2F ADDRESS ADDRESS CALLDATALOAD ADDRESS 0x2E SLOAD JUMPI 0x27 PUSH30 0x292C46756E6374696F6E732E6D616B654874747052657175657374287B75 PUSH19 0x6C3A202768747470733A2F2F7175657279312E PUSH7 0x696E616E63652E PUSH26 0x61686F6F2E636F6D2F76382F66696E616E63652F63686172742F SSTORE MSTORE8 PREVRANDAO SLOAD JUMPI PREVRANDAO RETURNDATASIZE PC 0x27 PUSH30 0x295D293B6966202874773530526573706F6E73652E6572726F72207C7C20 PUSH22 0x7364547764526573706F6E73652E6572726F7229207B PUSH21 0x68726F77204572726F722827526571756573742066 PUSH2 0x696C PUSH6 0x6427293B7D63 PUSH16 0x6E737420747735305072696365203D20 PUSH21 0x773530526573706F6E73652E646174612E63686172 PUSH21 0x2E726573756C745B305D2E6D6574612E726567756C PUSH2 0x724D PUSH2 0x726B PUSH6 0x745072696365 EXTCODESIZE PUSH4 0x6F6E7374 KECCAK256 PUSH22 0x736454776452617465203D2075736454776452657370 PUSH16 0x6E73652E646174612E63686172742E72 PUSH6 0x73756C745B30 0x5D 0x2E PUSH14 0x6574612E726567756C61724D6172 PUSH12 0x657450726963653B69662028 0x21 PUSH21 0x7735305072696365207C7C20217573645477645261 PUSH21 0x6529207B7468726F77204572726F72282750726963 PUSH6 0x206E6F742066 PUSH16 0x756E6427293B7D636F6E737420757364 POP PUSH19 0x696365203D20747735305072696365202F2075 PUSH20 0x64547764526174653B72657475726E2046756E63 PUSH21 0x696F6E732E656E636F646555696E74323536284D61 PUSH21 0x682E726F756E64287573645072696365202A203165 BALANCE CODESIZE 0x29 0x29 EXTCODESIZE "
				},
				"gasEstimates": {
					"creation": {
						"codeDepositCost": "1846200",
						"executionCost": "infinite",
						"totalCost": "infinite"
					},
					"external": {
						"acceptOwnership()": "54600",
						"donID()": "2470",
						"gasLimit()": "2583",
						"getCalculationDetails()": "infinite",
						"getLatestPrice()": "2543",
						"getLatestPricePrecise()": "2542",
						"getLatestPriceUSD()": "infinite",
						"getOracleInfo()": "infinite",
						"handleOracleFulfillment(bytes32,bytes,bytes)": "infinite",
						"isPriceStale()": "infinite",
						"lastRequestId()": "2513",
						"lastUpdateTime()": "2492",
						"owner()": "2604",
						"requestPriceUpdate()": "infinite",
						"subscriptionId()": "2512",
						"transferOwnership(address)": "30689",
						"updateConfig(uint64,uint32,bytes32)": "73727",
						"updatePriceManual(uint256)": "infinite"
					},
					"internal": {
						"fulfillRequest(bytes32,bytes memory,bytes memory)": "infinite"
					}
				},
				"methodIdentifiers": {
					"acceptOwnership()": "79ba5097",
					"donID()": "6e74336b",
					"gasLimit()": "f68016b7",
					"getCalculationDetails()": "26c4c889",
					"getLatestPrice()": "8e15f473",
					"getLatestPricePrecise()": "ff8e583a",
					"getLatestPriceUSD()": "ec2b70a4",
					"getOracleInfo()": "9c84cd10",
					"handleOracleFulfillment(bytes32,bytes,bytes)": "0ca76175",
					"isPriceStale()": "2f5df725",
					"lastRequestId()": "fc2a88c3",
					"lastUpdateTime()": "c8f33c91",
					"owner()": "8da5cb5b",
					"requestPriceUpdate()": "afdb0556",
					"subscriptionId()": "09c1ba2e",
					"transferOwnership(address)": "f2fde38b",
					"updateConfig(uint64,uint32,bytes32)": "d0f784f0",
					"updatePriceManual(uint256)": "05239ca1"
				}
			},
			"storageLayout": {
				"storage": [
					{
						"astId": 816,
						"contract": "contracts/0050PriceUSDOracle.sol:PriceOracle0050",
						"label": "s_owner",
						"offset": 0,
						"slot": "0",
						"type": "t_address"
					},
					{
						"astId": 818,
						"contract": "contracts/0050PriceUSDOracle.sol:PriceOracle0050",
						"label": "s_pendingOwner",
						"offset": 0,
						"slot": "1",
						"type": "t_address"
					},
					{
						"astId": 2285,
						"contract": "contracts/0050PriceUSDOracle.sol:PriceOracle0050",
						"label": "currentPrice",
						"offset": 0,
						"slot": "2",
						"type": "t_uint256"
					},
					{
						"astId": 2287,
						"contract": "contracts/0050PriceUSDOracle.sol:PriceOracle0050",
						"label": "lastUpdateTime",
						"offset": 0,
						"slot": "3",
						"type": "t_uint256"
					},
					{
						"astId": 2289,
						"contract": "contracts/0050PriceUSDOracle.sol:PriceOracle0050",
						"label": "lastRequestId",
						"offset": 0,
						"slot": "4",
						"type": "t_bytes32"
					},
					{
						"astId": 2291,
						"contract": "contracts/0050PriceUSDOracle.sol:PriceOracle0050",
						"label": "subscriptionId",
						"offset": 0,
						"slot": "5",
						"type": "t_uint64"
					},
					{
						"astId": 2294,
						"contract": "contracts/0050PriceUSDOracle.sol:PriceOracle0050",
						"label": "gasLimit",
						"offset": 8,
						"slot": "5",
						"type": "t_uint32"
					},
					{
						"astId": 2296,
						"contract": "contracts/0050PriceUSDOracle.sol:PriceOracle0050",
						"label": "donID",
						"offset": 0,
						"slot": "6",
						"type": "t_bytes32"
					},
					{
						"astId": 2315,
						"contract": "contracts/0050PriceUSDOracle.sol:PriceOracle0050",
						"label": "source",
						"offset": 0,
						"slot": "7",
						"type": "t_string_storage"
					}
				],
				"types": {
					"t_address": {
						"encoding": "inplace",
						"label": "address",
						"numberOfBytes": "20"
					},
					"t_bytes32": {
						"encoding": "inplace",
						"label": "bytes32",
						"numberOfBytes": "32"
					},
					"t_string_storage": {
						"encoding": "bytes",
						"label": "string",
						"numberOfBytes": "32"
					},
					"t_uint256": {
						"encoding": "inplace",
						"label": "uint256",
						"numberOfBytes": "32"
					},
					"t_uint32": {
						"encoding": "inplace",
						"label": "uint32",
						"numberOfBytes": "4"
					},
					"t_uint64": {
						"encoding": "inplace",
						"label": "uint64",
						"numberOfBytes": "8"
					}
				}
			},
			"userdoc": {
				"kind": "user",
				"methods": {
					"acceptOwnership()": {
						"notice": "Allows an ownership transfer to be completed by the recipient."
					},
					"handleOracleFulfillment(bytes32,bytes,bytes)": {
						"notice": "Chainlink Functions response handler called by the Functions Router during fullilment from the designated transmitter node in an OCR round."
					},
					"owner()": {
						"notice": "Get the current owner"
					},
					"transferOwnership(address)": {
						"notice": "Allows an owner to begin transferring ownership to a new address."
					}
				},
				"version": 1
			}
		}
	}
}