{
	"data": {
		"bytecode": {
			"linkReferences": {},
			"object": "608060405268031708ae00454400005f5534801561001b575f80fd5b506102c5806100295f395ff3fe608060405234801561000f575f80fd5b506004361061004a575f3560e01c80632f5df7251461004e5780638e15f4731461006c57806391b7f5ed1461008a578063ec2b70a4146100a6575b5f80fd5b6100566100c4565b6040516100639190610121565b60405180910390f35b6100746100c8565b6040516100819190610152565b60405180910390f35b6100a4600480360381019061009f9190610199565b6100d0565b005b6100ae6100ec565b6040516100bb9190610152565b60405180910390f35b5f90565b5f8054905090565b670de0b6b3a7640000816100e491906101f1565b5f8190555050565b5f670de0b6b3a76400005f54610102919061025f565b905090565b5f8115159050919050565b61011b81610107565b82525050565b5f6020820190506101345f830184610112565b92915050565b5f819050919050565b61014c8161013a565b82525050565b5f6020820190506101655f830184610143565b92915050565b5f80fd5b6101788161013a565b8114610182575f80fd5b50565b5f813590506101938161016f565b92915050565b5f602082840312156101ae576101ad61016b565b5b5f6101bb84828501610185565b91505092915050565b7f4e487b71000000000000000000000000000000000000000000000000000000005f52601160045260245ffd5b5f6101fb8261013a565b91506102068361013a565b92508282026102148161013a565b9150828204841483151761022b5761022a6101c4565b5b5092915050565b7f4e487b71000000000000000000000000000000000000000000000000000000005f52601260045260245ffd5b5f6102698261013a565b91506102748361013a565b92508261028457610283610232565b5b82820490509291505056fea2646970667358221220f7e2ef7f1bc0ca2c76e86c99cfc74fc0c8c1f58927e2c53ce0a31f9fcff470fd64736f6c63430008140033",
			"opcodes": "PUSH1 0x80 PUSH1 0x40 MSTORE PUSH9 0x31708AE0045440000 PUSH0 SSTORE CALLVALUE DUP1 ISZERO PUSH2 0x1B JUMPI PUSH0 DUP1 REVERT JUMPDEST POP PUSH2 0x2C5 DUP1 PUSH2 0x29 PUSH0 CODECOPY PUSH0 RETURN INVALID PUSH1 0x80 PUSH1 0x40 MSTORE CALLVALUE DUP1 ISZERO PUSH2 0xF JUMPI PUSH0 DUP1 REVERT JUMPDEST POP PUSH1 0x4 CALLDATASIZE LT PUSH2 0x4A JUMPI PUSH0 CALLDATALOAD PUSH1 0xE0 SHR DUP1 PUSH4 0x2F5DF725 EQ PUSH2 0x4E JUMPI DUP1 PUSH4 0x8E15F473 EQ PUSH2 0x6C JUMPI DUP1 PUSH4 0x91B7F5ED EQ PUSH2 0x8A JUMPI DUP1 PUSH4 0xEC2B70A4 EQ PUSH2 0xA6 JUMPI JUMPDEST PUSH0 DUP1 REVERT JUMPDEST PUSH2 0x56 PUSH2 0xC4 JUMP JUMPDEST PUSH1 0x40 MLOAD PUSH2 0x63 SWAP2 SWAP1 PUSH2 0x121 JUMP JUMPDEST PUSH1 0x40 MLOAD DUP1 SWAP2 SUB SWAP1 RETURN JUMPDEST PUSH2 0x74 PUSH2 0xC8 JUMP JUMPDEST PUSH1 0x40 MLOAD PUSH2 0x81 SWAP2 SWAP1 PUSH2 0x152 JUMP JUMPDEST PUSH1 0x40 MLOAD DUP1 SWAP2 SUB SWAP1 RETURN JUMPDEST PUSH2 0xA4 PUSH1 0x4 DUP1 CALLDATASIZE SUB DUP2 ADD SWAP1 PUSH2 0x9F SWAP2 SWAP1 PUSH2 0x199 JUMP JUMPDEST PUSH2 0xD0 JUMP JUMPDEST STOP JUMPDEST PUSH2 0xAE PUSH2 0xEC JUMP JUMPDEST PUSH1 0x40 MLOAD PUSH2 0xBB SWAP2 SWAP1 PUSH2 0x152 JUMP JUMPDEST PUSH1 0x40 MLOAD DUP1 SWAP2 SUB SWAP1 RETURN JUMPDEST PUSH0 SWAP1 JUMP JUMPDEST PUSH0 DUP1 SLOAD SWAP1 POP SWAP1 JUMP JUMPDEST PUSH8 0xDE0B6B3A7640000 DUP2 PUSH2 0xE4 SWAP2 SWAP1 PUSH2 0x1F1 JUMP JUMPDEST PUSH0 DUP2 SWAP1 SSTORE POP POP JUMP JUMPDEST PUSH0 PUSH8 0xDE0B6B3A7640000 PUSH0 SLOAD PUSH2 0x102 SWAP2 SWAP1 PUSH2 0x25F JUMP JUMPDEST SWAP1 POP SWAP1 JUMP JUMPDEST PUSH0 DUP2 ISZERO ISZERO SWAP1 POP SWAP2 SWAP1 POP JUMP JUMPDEST PUSH2 0x11B DUP2 PUSH2 0x107 JUMP JUMPDEST DUP3 MSTORE POP POP JUMP JUMPDEST PUSH0 PUSH1 0x20 DUP3 ADD SWAP1 POP PUSH2 0x134 PUSH0 DUP4 ADD DUP5 PUSH2 0x112 JUMP JUMPDEST SWAP3 SWAP2 POP POP JUMP JUMPDEST PUSH0 DUP2 SWAP1 POP SWAP2 SWAP1 POP JUMP JUMPDEST PUSH2 0x14C DUP2 PUSH2 0x13A JUMP JUMPDEST DUP3 MSTORE POP POP JUMP JUMPDEST PUSH0 PUSH1 0x20 DUP3 ADD SWAP1 POP PUSH2 0x165 PUSH0 DUP4 ADD DUP5 PUSH2 0x143 JUMP JUMPDEST SWAP3 SWAP2 POP POP JUMP JUMPDEST PUSH0 DUP1 REVERT JUMPDEST PUSH2 0x178 DUP2 PUSH2 0x13A JUMP JUMPDEST DUP2 EQ PUSH2 0x182 JUMPI PUSH0 DUP1 REVERT JUMPDEST POP JUMP JUMPDEST PUSH0 DUP2 CALLDATALOAD SWAP1 POP PUSH2 0x193 DUP2 PUSH2 0x16F JUMP JUMPDEST SWAP3 SWAP2 POP POP JUMP JUMPDEST PUSH0 PUSH1 0x20 DUP3 DUP5 SUB SLT ISZERO PUSH2 0x1AE JUMPI PUSH2 0x1AD PUSH2 0x16B JUMP JUMPDEST JUMPDEST PUSH0 PUSH2 0x1BB DUP5 DUP3 DUP6 ADD PUSH2 0x185 JUMP JUMPDEST SWAP2 POP POP SWAP3 SWAP2 POP POP JUMP JUMPDEST PUSH32 0x4E487B7100000000000000000000000000000000000000000000000000000000 PUSH0 MSTORE PUSH1 0x11 PUSH1 0x4 MSTORE PUSH1 0x24 PUSH0 REVERT JUMPDEST PUSH0 PUSH2 0x1FB DUP3 PUSH2 0x13A JUMP JUMPDEST SWAP2 POP PUSH2 0x206 DUP4 PUSH2 0x13A JUMP JUMPDEST SWAP3 POP DUP3 DUP3 MUL PUSH2 0x214 DUP2 PUSH2 0x13A JUMP JUMPDEST SWAP2 POP DUP3 DUP3 DIV DUP5 EQ DUP4 ISZERO OR PUSH2 0x22B JUMPI PUSH2 0x22A PUSH2 0x1C4 JUMP JUMPDEST JUMPDEST POP SWAP3 SWAP2 POP POP JUMP JUMPDEST PUSH32 0x4E487B7100000000000000000000000000000000000000000000000000000000 PUSH0 MSTORE PUSH1 0x12 PUSH1 0x4 MSTORE PUSH1 0x24 PUSH0 REVERT JUMPDEST PUSH0 PUSH2 0x269 DUP3 PUSH2 0x13A JUMP JUMPDEST SWAP2 POP PUSH2 0x274 DUP4 PUSH2 0x13A JUMP JUMPDEST SWAP3 POP DUP3 PUSH2 0x284 JUMPI PUSH2 0x283 PUSH2 0x232 JUMP JUMPDEST JUMPDEST DUP3 DUP3 DIV SWAP1 POP SWAP3 SWAP2 POP POP JUMP INVALID LOG2 PUSH5 0x6970667358 0x22 SLT KECCAK256 0xF7 0xE2 0xEF PUSH32 0x1BC0CA2C76E86C99CFC74FC0C8C1F58927E2C53CE0A31F9FCFF470FD64736F6C PUSH4 0x43000814 STOP CALLER "
		},
		"gasEstimates": {
			"creation": {
				"codeDepositCost": "141800",
				"executionCost": "22293",
				"totalCost": "164093"
			},
			"external": {
				"getLatestPrice()": "2432",
				"getLatestPriceUSD()": "infinite",
				"isPriceStale()": "308",
				"setPrice(uint256)": "infinite"
			}
		},
		"methodIdentifiers": {
			"getLatestPrice()": "8e15f473",
			"getLatestPriceUSD()": "ec2b70a4",
			"isPriceStale()": "2f5df725",
			"setPrice(uint256)": "91b7f5ed"
		}
	},
	"abi": [
		{
			"inputs": [],
			"name": "getLatestPrice",
			"outputs": [
				{
					"internalType": "uint256",
					"name": "",
					"type": "uint256"
				}
			],
			"stateMutability": "view",
			"type": "function"
		},
		{
			"inputs": [],
			"name": "getLatestPriceUSD",
			"outputs": [
				{
					"internalType": "uint256",
					"name": "",
					"type": "uint256"
				}
			],
			"stateMutability": "view",
			"type": "function"
		},
		{
			"inputs": [],
			"name": "isPriceStale",
			"outputs": [
				{
					"internalType": "bool",
					"name": "",
					"type": "bool"
				}
			],
			"stateMutability": "pure",
			"type": "function"
		},
		{
			"inputs": [
				{
					"internalType": "uint256",
					"name": "_price",
					"type": "uint256"
				}
			],
			"name": "setPrice",
			"outputs": [],
			"stateMutability": "nonpayable",
			"type": "function"
		}
	]
}