{
	"data": {
		"bytecode": {
			"linkReferences": {},
			"object": "608060405268031708ae00454400005f55348015601a575f5ffd5b506102c8806100285f395ff3fe608060405234801561000f575f5ffd5b506004361061004a575f3560e01c80632f5df7251461004e5780638e15f4731461006c57806391b7f5ed1461008a578063ec2b70a4146100a6575b5f5ffd5b6100566100c4565b6040516100639190610124565b60405180910390f35b6100746100cb565b6040516100819190610155565b60405180910390f35b6100a4600480360381019061009f919061019c565b6100d3565b005b6100ae6100ef565b6040516100bb9190610155565b60405180910390f35b5f5f905090565b5f5f54905090565b670de0b6b3a7640000816100e791906101f4565b5f8190555050565b5f670de0b6b3a76400005f546101059190610262565b905090565b5f8115159050919050565b61011e8161010a565b82525050565b5f6020820190506101375f830184610115565b92915050565b5f819050919050565b61014f8161013d565b82525050565b5f6020820190506101685f830184610146565b92915050565b5f5ffd5b61017b8161013d565b8114610185575f5ffd5b50565b5f8135905061019681610172565b92915050565b5f602082840312156101b1576101b061016e565b5b5f6101be84828501610188565b91505092915050565b7f4e487b71000000000000000000000000000000000000000000000000000000005f52601160045260245ffd5b5f6101fe8261013d565b91506102098361013d565b92508282026102178161013d565b9150828204841483151761022e5761022d6101c7565b5b5092915050565b7f4e487b71000000000000000000000000000000000000000000000000000000005f52601260045260245ffd5b5f61026c8261013d565b91506102778361013d565b92508261028757610286610235565b5b82820490509291505056fea2646970667358221220d2433ed9521421a02ade7a260dbb0e6ff71f0ede1525df92fdf32e9f99a941dd64736f6c634300081e0033",
			"opcodes": "PUSH1 0x80 PUSH1 0x40 MSTORE PUSH9 0x31708AE0045440000 PUSH0 SSTORE CALLVALUE DUP1 ISZERO PUSH1 0x1A JUMPI PUSH0 PUSH0 REVERT JUMPDEST POP PUSH2 0x2C8 DUP1 PUSH2 0x28 PUSH0 CODECOPY PUSH0 RETURN INVALID PUSH1 0x80 PUSH1 0x40 MSTORE CALLVALUE DUP1 ISZERO PUSH2 0xF JUMPI PUSH0 PUSH0 REVERT JUMPDEST POP PUSH1 0x4 CALLDATASIZE LT PUSH2 0x4A JUMPI PUSH0 CALLDATALOAD PUSH1 0xE0 SHR DUP1 PUSH4 0x2F5DF725 EQ PUSH2 0x4E JUMPI DUP1 PUSH4 0x8E15F473 EQ PUSH2 0x6C JUMPI DUP1 PUSH4 0x91B7F5ED EQ PUSH2 0x8A JUMPI DUP1 PUSH4 0xEC2B70A4 EQ PUSH2 0xA6 JUMPI JUMPDEST PUSH0 PUSH0 REVERT JUMPDEST PUSH2 0x56 PUSH2 0xC4 JUMP JUMPDEST PUSH1 0x40 MLOAD PUSH2 0x63 SWAP2 SWAP1 PUSH2 0x124 JUMP JUMPDEST PUSH1 0x40 MLOAD DUP1 SWAP2 SUB SWAP1 RETURN JUMPDEST PUSH2 0x74 PUSH2 0xCB JUMP JUMPDEST PUSH1 0x40 MLOAD PUSH2 0x81 SWAP2 SWAP1 PUSH2 0x155 JUMP JUMPDEST PUSH1 0x40 MLOAD DUP1 SWAP2 SUB SWAP1 RETURN JUMPDEST PUSH2 0xA4 PUSH1 0x4 DUP1 CALLDATASIZE SUB DUP2 ADD SWAP1 PUSH2 0x9F SWAP2 SWAP1 PUSH2 0x19C JUMP JUMPDEST PUSH2 0xD3 JUMP JUMPDEST STOP JUMPDEST PUSH2 0xAE PUSH2 0xEF JUMP JUMPDEST PUSH1 0x40 MLOAD PUSH2 0xBB SWAP2 SWAP1 PUSH2 0x155 JUMP JUMPDEST PUSH1 0x40 MLOAD DUP1 SWAP2 SUB SWAP1 RETURN JUMPDEST PUSH0 PUSH0 SWAP1 POP SWAP1 JUMP JUMPDEST PUSH0 PUSH0 SLOAD SWAP1 POP SWAP1 JUMP JUMPDEST PUSH8 0xDE0B6B3A7640000 DUP2 PUSH2 0xE7 SWAP2 SWAP1 PUSH2 0x1F4 JUMP JUMPDEST PUSH0 DUP2 SWAP1 SSTORE POP POP JUMP JUMPDEST PUSH0 PUSH8 0xDE0B6B3A7640000 PUSH0 SLOAD PUSH2 0x105 SWAP2 SWAP1 PUSH2 0x262 JUMP JUMPDEST SWAP1 POP SWAP1 JUMP JUMPDEST PUSH0 DUP2 ISZERO ISZERO SWAP1 POP SWAP2 SWAP1 POP JUMP JUMPDEST PUSH2 0x11E DUP2 PUSH2 0x10A JUMP JUMPDEST DUP3 MSTORE POP POP JUMP JUMPDEST PUSH0 PUSH1 0x20 DUP3 ADD SWAP1 POP PUSH2 0x137 PUSH0 DUP4 ADD DUP5 PUSH2 0x115 JUMP JUMPDEST SWAP3 SWAP2 POP POP JUMP JUMPDEST PUSH0 DUP2 SWAP1 POP SWAP2 SWAP1 POP JUMP JUMPDEST PUSH2 0x14F DUP2 PUSH2 0x13D JUMP JUMPDEST DUP3 MSTORE POP POP JUMP JUMPDEST PUSH0 PUSH1 0x20 DUP3 ADD SWAP1 POP PUSH2 0x168 PUSH0 DUP4 ADD DUP5 PUSH2 0x146 JUMP JUMPDEST SWAP3 SWAP2 POP POP JUMP JUMPDEST PUSH0 PUSH0 REVERT JUMPDEST PUSH2 0x17B DUP2 PUSH2 0x13D JUMP JUMPDEST DUP2 EQ PUSH2 0x185 JUMPI PUSH0 PUSH0 REVERT JUMPDEST POP JUMP JUMPDEST PUSH0 DUP2 CALLDATALOAD SWAP1 POP PUSH2 0x196 DUP2 PUSH2 0x172 JUMP JUMPDEST SWAP3 SWAP2 POP POP JUMP JUMPDEST PUSH0 PUSH1 0x20 DUP3 DUP5 SUB SLT ISZERO PUSH2 0x1B1 JUMPI PUSH2 0x1B0 PUSH2 0x16E JUMP JUMPDEST JUMPDEST PUSH0 PUSH2 0x1BE DUP5 DUP3 DUP6 ADD PUSH2 0x188 JUMP JUMPDEST SWAP2 POP POP SWAP3 SWAP2 POP POP JUMP JUMPDEST PUSH32 0x4E487B7100000000000000000000000000000000000000000000000000000000 PUSH0 MSTORE PUSH1 0x11 PUSH1 0x4 MSTORE PUSH1 0x24 PUSH0 REVERT JUMPDEST PUSH0 PUSH2 0x1FE DUP3 PUSH2 0x13D JUMP JUMPDEST SWAP2 POP PUSH2 0x209 DUP4 PUSH2 0x13D JUMP JUMPDEST SWAP3 POP DUP3 DUP3 MUL PUSH2 0x217 DUP2 PUSH2 0x13D JUMP JUMPDEST SWAP2 POP DUP3 DUP3 DIV DUP5 EQ DUP4 ISZERO OR PUSH2 0x22E JUMPI PUSH2 0x22D PUSH2 0x1C7 JUMP JUMPDEST JUMPDEST POP SWAP3 SWAP2 POP POP JUMP JUMPDEST PUSH32 0x4E487B7100000000000000000000000000000000000000000000000000000000 PUSH0 MSTORE PUSH1 0x12 PUSH1 0x4 MSTORE PUSH1 0x24 PUSH0 REVERT JUMPDEST PUSH0 PUSH2 0x26C DUP3 PUSH2 0x13D JUMP JUMPDEST SWAP2 POP PUSH2 0x277 DUP4 PUSH2 0x13D JUMP JUMPDEST SWAP3 POP DUP3 PUSH2 0x287 JUMPI PUSH2 0x286 PUSH2 0x235 JUMP JUMPDEST JUMPDEST DUP3 DUP3 DIV SWAP1 POP SWAP3 SWAP2 POP POP JUMP INVALID LOG2 PUSH5 0x6970667358 0x22 SLT KECCAK256 0xD2 NUMBER RETURNDATACOPY 0xD9 MSTORE EQ 0x21 LOG0 0x2A 0xDE PUSH27 0x260DBB0E6FF71F0EDE1525DF92FDF32E9F99A941DD64736F6C6343 STOP ADDMOD 0x1E STOP CALLER "
		},
		"gasEstimates": {
			"creation": {
				"codeDepositCost": "142400",
				"executionCost": "22293",
				"totalCost": "164693"
			},
			"external": {
				"getLatestPrice()": "2431",
				"getLatestPriceUSD()": "infinite",
				"isPriceStale()": "315",
				"setPrice(uint256)": "infinite"
			}
		},
		"methodIdentifiers": {
			"getLatestPrice()": "8e15f473",
			"getLatestPriceUSD()": "ec2b70a4",
			"isPriceStale()": "2f5df725",
			"setPrice(uint256)": "91b7f5ed"
		}
	},
	"abi": [
		{
			"inputs": [],
			"name": "getLatestPrice",
			"outputs": [
				{
					"internalType": "uint256",
					"name": "",
					"type": "uint256"
				}
			],
			"stateMutability": "view",
			"type": "function"
		},
		{
			"inputs": [],
			"name": "getLatestPriceUSD",
			"outputs": [
				{
					"internalType": "uint256",
					"name": "",
					"type": "uint256"
				}
			],
			"stateMutability": "view",
			"type": "function"
		},
		{
			"inputs": [],
			"name": "isPriceStale",
			"outputs": [
				{
					"internalType": "bool",
					"name": "",
					"type": "bool"
				}
			],
			"stateMutability": "pure",
			"type": "function"
		},
		{
			"inputs": [
				{
					"internalType": "uint256",
					"name": "_price",
					"type": "uint256"
				}
			],
			"name": "setPrice",
			"outputs": [],
			"stateMutability": "nonpayable",
			"type": "function"
		}
	]
}