{
	"data": {
		"bytecode": {
			"linkReferences": {},
			"object": "60a0604052620493e0600560086101000a81548163ffffffff021916908363ffffffff160217905550604051806102c00160405280610288815260200162002ba9610288913960079081620000559190620005aa565b5034801562000062575f80fd5b5033805f73b83e47c2bc239b3bf370bc41e1459a34b41238d08073ffffffffffffffffffffffffffffffffffffffff1660808173ffffffffffffffffffffffffffffffffffffffff1681525050505f73ffffffffffffffffffffffffffffffffffffffff168273ffffffffffffffffffffffffffffffffffffffff160362000121576040517f08c379a00000000000000000000000000000000000000000000000000000000081526004016200011890620006ec565b60405180910390fd5b815f806101000a81548173ffffffffffffffffffffffffffffffffffffffff021916908373ffffffffffffffffffffffffffffffffffffffff1602179055505f73ffffffffffffffffffffffffffffffffffffffff168173ffffffffffffffffffffffffffffffffffffffff1614620001a657620001a5816200021960201b60201c565b5b50505061160760055f6101000a81548167ffffffffffffffff021916908367ffffffffffffffff1602179055507f66756e2d657468657265756d2d7365706f6c69612d31000000000000000000005f1b6006819055506801158e460913d00000600281905550426003819055506200077a565b3373ffffffffffffffffffffffffffffffffffffffff168173ffffffffffffffffffffffffffffffffffffffff16036200028a576040517f08c379a000000000000000000000000000000000000000000000000000000000815260040162000281906200075a565b60405180910390fd5b8060015f6101000a81548173ffffffffffffffffffffffffffffffffffffffff021916908373ffffffffffffffffffffffffffffffffffffffff1602179055508073ffffffffffffffffffffffffffffffffffffffff165f8054906101000a900473ffffffffffffffffffffffffffffffffffffffff1673ffffffffffffffffffffffffffffffffffffffff167fed8889f560326eb138920d842192f0eb3dd22b4f139c87a2c57538e05bae127860405160405180910390a350565b5f81519050919050565b7f4e487b71000000000000000000000000000000000000000000000000000000005f52604160045260245ffd5b7f4e487b71000000000000000000000000000000000000000000000000000000005f52602260045260245ffd5b5f6002820490506001821680620003c257607f821691505b602082108103620003d857620003d76200037d565b5b50919050565b5f819050815f5260205f209050919050565b5f6020601f8301049050919050565b5f82821b905092915050565b5f600883026200043c7fffffffffffffffffffffffffffffffffffffffffffffffffffffffffffffffff82620003ff565b620004488683620003ff565b95508019841693508086168417925050509392505050565b5f819050919050565b5f819050919050565b5f620004926200048c620004868462000460565b62000469565b62000460565b9050919050565b5f819050919050565b620004ad8362000472565b620004c5620004bc8262000499565b8484546200040b565b825550505050565b5f90565b620004db620004cd565b620004e8818484620004a2565b505050565b5b818110156200050f57620005035f82620004d1565b600181019050620004ee565b5050565b601f8211156200055e576200052881620003de565b6200053384620003f0565b8101602085101562000543578190505b6200055b6200055285620003f0565b830182620004ed565b50505b505050565b5f82821c905092915050565b5f620005805f198460080262000563565b1980831691505092915050565b5f6200059a83836200056f565b9150826002028217905092915050565b620005b58262000346565b67ffffffffffffffff811115620005d157620005d062000350565b5b620005dd8254620003aa565b620005ea82828562000513565b5f60209050601f83116001811462000620575f84156200060b578287015190505b6200061785826200058d565b86555062000686565b601f1984166200063086620003de565b5f5b82811015620006595784890151825560018201915060208501945060208101905062000632565b8683101562000679578489015162000675601f8916826200056f565b8355505b6001600288020188555050505b505050505050565b5f82825260208201905092915050565b7f43616e6e6f7420736574206f776e657220746f207a65726f00000000000000005f82015250565b5f620006d46018836200068e565b9150620006e1826200069e565b602082019050919050565b5f6020820190508181035f8301526200070581620006c6565b9050919050565b7f43616e6e6f74207472616e7366657220746f2073656c660000000000000000005f82015250565b5f620007426017836200068e565b91506200074f826200070c565b602082019050919050565b5f6020820190508181035f830152620007738162000734565b9050919050565b60805161240f6200079a5f395f81816103e30152610e3a015261240f5ff3fe608060405234801561000f575f80fd5b5060043610610114575f3560e01c80639c84cd10116100a0578063ec2b70a41161006f578063ec2b70a41461028b578063f2fde38b146102a9578063f68016b7146102c5578063fc2a88c3146102e3578063ff8e583a1461030157610114565b80639c84cd1014610211578063afdb055614610233578063c8f33c9114610251578063d0f784f01461026f57610114565b80632f5df725116100e75780632f5df7251461018f5780636e74336b146101ad57806379ba5097146101cb5780638da5cb5b146101d55780638e15f473146101f357610114565b806305239ca11461011857806309c1ba2e146101345780630ca761751461015257806326c4c8891461016e575b5f80fd5b610132600480360381019061012d919061172a565b61031f565b005b61013c6103c8565b6040516101499190611777565b60405180910390f35b61016c600480360381019061016791906118ff565b6103e1565b005b6101766104a3565b6040516101869493929190611a10565b60405180910390f35b6101976104ea565b6040516101a49190611a74565b60405180910390f35b6101b5610502565b6040516101c29190611a9c565b60405180910390f35b6101d3610508565b005b6101dd610697565b6040516101ea9190611af4565b60405180910390f35b6101fb6106be565b6040516102089190611b0d565b60405180910390f35b6102196106c7565b60405161022a959493929190611b26565b60405180910390f35b61023b610709565b6040516102489190611a9c565b60405180910390f35b610259610824565b6040516102669190611b0d565b60405180910390f35b61028960048036038101906102849190611bda565b61082a565b005b610293610887565b6040516102a09190611b0d565b60405180910390f35b6102c360048036038101906102be9190611c54565b6108a2565b005b6102cd6108b6565b6040516102da9190611c8e565b60405180910390f35b6102eb6108cc565b6040516102f89190611a9c565b60405180910390f35b6103096108d2565b6040516103169190611b0d565b60405180910390f35b6103276108db565b5f8111610369576040517f08c379a000000000000000000000000000000000000000000000000000000000815260040161036090611cf1565b60405180910390fd5b670de0b6b3a76400008161037d9190611d3c565b600281905550426003819055507f945c1c4e99aa89f648fbfe3df471b916f719e16d960fcec0737d4d56bd696838600254426040516103bd929190611d7d565b60405180910390a150565b60055f9054906101000a900467ffffffffffffffff1681565b7f000000000000000000000000000000000000000000000000000000000000000073ffffffffffffffffffffffffffffffffffffffff163373ffffffffffffffffffffffffffffffffffffffff1614610466576040517fc6829f8300000000000000000000000000000000000000000000000000000000815260040160405180910390fd5b61047183838361096a565b827f85e1543bf2f84fe80c6badbce3648c8539ad1df4d2b3d822938ca0538be727e660405160405180910390a2505050565b5f805f6060600254662386f26fc100006002546104c09190611dd1565b6002546040518060600160405280602f81526020016123ab602f9139935093509350935090919293565b5f610e10600354426104fc9190611e01565b11905090565b60065481565b60015f9054906101000a900473ffffffffffffffffffffffffffffffffffffffff1673ffffffffffffffffffffffffffffffffffffffff163373ffffffffffffffffffffffffffffffffffffffff1614610597576040517f08c379a000000000000000000000000000000000000000000000000000000000815260040161058e90611e7e565b60405180910390fd5b5f805f9054906101000a900473ffffffffffffffffffffffffffffffffffffffff169050335f806101000a81548173ffffffffffffffffffffffffffffffffffffffff021916908373ffffffffffffffffffffffffffffffffffffffff1602179055505f60015f6101000a81548173ffffffffffffffffffffffffffffffffffffffff021916908373ffffffffffffffffffffffffffffffffffffffff1602179055503373ffffffffffffffffffffffffffffffffffffffff168173ffffffffffffffffffffffffffffffffffffffff167f8be0079c531659141344cd1fd0a4f28419497f9722a3daafe3b4186f6b6457e060405160405180910390a350565b5f805f9054906101000a900473ffffffffffffffffffffffffffffffffffffffff16905090565b5f600254905090565b5f805f805f600254662386f26fc100006002546106e49190611dd1565b600354600354426106f59190611e01565b600454945094509450945094509091929394565b5f61071261163f565b6107ad6007805461072290611ec9565b80601f016020809104026020016040519081016040528092919081815260200182805461074e90611ec9565b80156107995780601f1061077057610100808354040283529160200191610799565b820191905f5260205f20905b81548152906001019060200180831161077c57829003601f168201915b505050505082610a1590919063ffffffff16565b6107ea6107b982610a25565b60055f9054906101000a900467ffffffffffffffff16600560089054906101000a900463ffffffff16600654610e36565b915081600481905550817f655f2dca0174ce451aa939c62ea493c734778cc67c6783626b08ad34985e6c6160405160405180910390a25090565b60035481565b6108326108db565b8260055f6101000a81548167ffffffffffffffff021916908367ffffffffffffffff16021790555081600560086101000a81548163ffffffff021916908363ffffffff16021790555080600681905550505050565b5f662386f26fc1000060025461089d9190611dd1565b905090565b6108aa6108db565b6108b381610f15565b50565b600560089054906101000a900463ffffffff1681565b60045481565b5f600254905090565b5f8054906101000a900473ffffffffffffffffffffffffffffffffffffffff1673ffffffffffffffffffffffffffffffffffffffff163373ffffffffffffffffffffffffffffffffffffffff1614610968576040517f08c379a000000000000000000000000000000000000000000000000000000000815260040161095f90611f43565b60405180910390fd5b565b5f815111156109b057827f61982c98cbc49d11759a948f460b92bca26bdf12ceee12c310f117eb2ca9a9cb826040516109a39190611fb3565b60405180910390a2610a10565b5f828060200190518101906109c59190611fe7565b905080600281905550426003819055507f945c1c4e99aa89f648fbfe3df471b916f719e16d960fcec0737d4d56bd6968388142604051610a06929190611d7d565b60405180910390a1505b505050565b610a21825f808461103f565b5050565b60605f610a336101006110e5565b9050610a7d6040518060400160405280600c81526020017f636f64654c6f636174696f6e00000000000000000000000000000000000000008152508261110a90919063ffffffff16565b610aa5835f01516002811115610a9657610a95612012565b5b8261113290919063ffffffff16565b610aed6040518060400160405280600881526020017f6c616e67756167650000000000000000000000000000000000000000000000008152508261110a90919063ffffffff16565b610b1583604001515f811115610b0657610b05612012565b5b8261113290919063ffffffff16565b610b5d6040518060400160405280600681526020017f736f7572636500000000000000000000000000000000000000000000000000008152508261110a90919063ffffffff16565b610b7483606001518261110a90919063ffffffff16565b5f8360a00151511115610c2e57610bc96040518060400160405280600481526020017f61726773000000000000000000000000000000000000000000000000000000008152508261110a90919063ffffffff16565b610bd281611181565b5f5b8360a0015151811015610c2357610c128460a001518281518110610bfb57610bfa61203f565b5b60200260200101518361110a90919063ffffffff16565b80610c1c9061206c565b9050610bd4565b50610c2d816111a9565b5b5f8360800151511115610d6d575f6002811115610c4e57610c4d612012565b5b83602001516002811115610c6557610c64612012565b5b03610c9c576040517fa80d31f700000000000000000000000000000000000000000000000000000000815260040160405180910390fd5b610ce46040518060400160405280600f81526020017f736563726574734c6f636174696f6e00000000000000000000000000000000008152508261110a90919063ffffffff16565b610d0d83602001516002811115610cfe57610cfd612012565b5b8261113290919063ffffffff16565b610d556040518060400160405280600781526020017f73656372657473000000000000000000000000000000000000000000000000008152508261110a90919063ffffffff16565b610d6c8360800151826111d190919063ffffffff16565b5b5f8360c00151511115610e2757610dc26040518060400160405280600981526020017f62797465734172677300000000000000000000000000000000000000000000008152508261110a90919063ffffffff16565b610dcb81611181565b5f5b8360c0015151811015610e1c57610e0b8460c001518281518110610df457610df361203f565b5b6020026020010151836111d190919063ffffffff16565b80610e159061206c565b9050610dcd565b50610e26816111a9565b5b805f01515f0151915050919050565b5f807f000000000000000000000000000000000000000000000000000000000000000073ffffffffffffffffffffffffffffffffffffffff1663461d27628688600188886040518663ffffffff1660e01b8152600401610e9a9594939291906120cf565b6020604051808303815f875af1158015610eb6573d5f803e3d5ffd5b505050506040513d601f19601f82011682018060405250810190610eda919061213b565b9050807f1131472297a800fee664d1d89cfa8f7676ff07189ecc53f80bbb5f4969099db860405160405180910390a280915050949350505050565b3373ffffffffffffffffffffffffffffffffffffffff168173ffffffffffffffffffffffffffffffffffffffff1603610f83576040517f08c379a0000000000000000000000000000000000000000000000000000000008152600401610f7a906121b0565b60405180910390fd5b8060015f6101000a81548173ffffffffffffffffffffffffffffffffffffffff021916908373ffffffffffffffffffffffffffffffffffffffff1602179055508073ffffffffffffffffffffffffffffffffffffffff165f8054906101000a900473ffffffffffffffffffffffffffffffffffffffff1673ffffffffffffffffffffffffffffffffffffffff167fed8889f560326eb138920d842192f0eb3dd22b4f139c87a2c57538e05bae127860405160405180910390a350565b5f815103611079576040517f22ce3edd00000000000000000000000000000000000000000000000000000000815260040160405180910390fd5b82845f019060028111156110905761108f612012565b5b908160028111156110a4576110a3612012565b5b815250508184604001905f8111156110bf576110be612012565b5b90815f8111156110d2576110d1612012565b5b8152505080846060018190525050505050565b6110ed6116ae565b6110fa815f0151836111f9565b505f816020018181525050919050565b611117826003835161126f565b61112d81835f015161140f90919063ffffffff16565b505050565b61115360026005600660ff16901b17835f015161142b90919063ffffffff16565b5061117d82826040516020016111699190611b0d565b6040516020818303038152906040526111d1565b5050565b61118c816004611492565b60018160200181815161119f91906121ce565b9150818152505050565b6111b4816007611492565b6001816020018181516111c79190611e01565b9150818152505050565b6111de826002835161126f565b6111f481835f015161140f90919063ffffffff16565b505050565b6112016116cd565b5f60208361120f9190612201565b1461123b576020826112219190612201565b602061122d9190611e01565b8261123891906121ce565b91505b818360200181815250506040518084525f815282810160200181811015611260575f80fd5b80604052505082905092915050565b60178167ffffffffffffffff16116112a9576112a38160058460ff16901b60ff1617845f015161142b90919063ffffffff16565b5061140a565b60ff8167ffffffffffffffff1611611305576112db601860058460ff16901b17845f015161142b90919063ffffffff16565b506112ff8167ffffffffffffffff166001855f01516114b79092919063ffffffff16565b50611409565b61ffff8167ffffffffffffffff161161136257611338601960058460ff16901b17845f015161142b90919063ffffffff16565b5061135c8167ffffffffffffffff166002855f01516114b79092919063ffffffff16565b50611408565b63ffffffff8167ffffffffffffffff16116113c157611397601a60058460ff16901b17845f015161142b90919063ffffffff16565b506113bb8167ffffffffffffffff166004855f01516114b79092919063ffffffff16565b50611407565b6113e1601b60058460ff16901b17845f015161142b90919063ffffffff16565b506114058167ffffffffffffffff166008855f01516114b79092919063ffffffff16565b505b5b5b5b505050565b6114176116cd565b61142383838451611540565b905092915050565b6114336116cd565b5f835f01515190505f60018261144991906121ce565b90508460200151821061146d5761146c856002836114679190611d3c565b61161d565b5b84516020838201018581538151831115611485578282525b5050849250505092915050565b6114b2601f60058360ff16901b17835f015161142b90919063ffffffff16565b505050565b6114bf6116cd565b5f845f01515190505f81846114d491906121ce565b905085602001518111156114f9576114f8866002836114f39190611d3c565b61161d565b5b5f60018561010061150a9190612360565b6115149190611e01565b905086518281018783198251161781528151841115611531578382525b50508693505050509392505050565b6115486116cd565b8251821115611555575f80fd5b5f845f01515190505f838261156a91906121ce565b9050856020015181111561158f5761158e866002836115899190611d3c565b61161d565b5b5f80875180518560208301019350808511156115a9578482525b60208901925050505b602086106115f057805182526020826115cb91906121ce565b91506020816115da91906121ce565b90506020866115e99190611e01565b95506115b2565b5f6001876020036101000a0390508019825116818451168181178552505050879450505050509392505050565b5f825f0151905061162e83836111f9565b50611639838261140f565b50505050565b6040518060e001604052805f600281111561165d5761165c612012565b5b81526020015f600281111561167557611674612012565b5b81526020015f8081111561168c5761168b612012565b5b8152602001606081526020016060815260200160608152602001606081525090565b60405180604001604052806116c16116cd565b81526020015f81525090565b6040518060400160405280606081526020015f81525090565b5f604051905090565b5f80fd5b5f80fd5b5f819050919050565b611709816116f7565b8114611713575f80fd5b50565b5f8135905061172481611700565b92915050565b5f6020828403121561173f5761173e6116ef565b5b5f61174c84828501611716565b91505092915050565b5f67ffffffffffffffff82169050919050565b61177181611755565b82525050565b5f60208201905061178a5f830184611768565b92915050565b5f819050919050565b6117a281611790565b81146117ac575f80fd5b50565b5f813590506117bd81611799565b92915050565b5f80fd5b5f80fd5b5f601f19601f8301169050919050565b7f4e487b71000000000000000000000000000000000000000000000000000000005f52604160045260245ffd5b611811826117cb565b810181811067ffffffffffffffff821117156118305761182f6117db565b5b80604052505050565b5f6118426116e6565b905061184e8282611808565b919050565b5f67ffffffffffffffff82111561186d5761186c6117db565b5b611876826117cb565b9050602081019050919050565b828183375f83830152505050565b5f6118a361189e84611853565b611839565b9050828152602081018484840111156118bf576118be6117c7565b5b6118ca848285611883565b509392505050565b5f82601f8301126118e6576118e56117c3565b5b81356118f6848260208601611891565b91505092915050565b5f805f60608486031215611916576119156116ef565b5b5f611923868287016117af565b935050602084013567ffffffffffffffff811115611944576119436116f3565b5b611950868287016118d2565b925050604084013567ffffffffffffffff811115611971576119706116f3565b5b61197d868287016118d2565b9150509250925092565b611990816116f7565b82525050565b5f81519050919050565b5f82825260208201905092915050565b5f5b838110156119cd5780820151818401526020810190506119b2565b5f8484015250505050565b5f6119e282611996565b6119ec81856119a0565b93506119fc8185602086016119b0565b611a05816117cb565b840191505092915050565b5f608082019050611a235f830187611987565b611a306020830186611987565b611a3d6040830185611987565b8181036060830152611a4f81846119d8565b905095945050505050565b5f8115159050919050565b611a6e81611a5a565b82525050565b5f602082019050611a875f830184611a65565b92915050565b611a9681611790565b82525050565b5f602082019050611aaf5f830184611a8d565b92915050565b5f73ffffffffffffffffffffffffffffffffffffffff82169050919050565b5f611ade82611ab5565b9050919050565b611aee81611ad4565b82525050565b5f602082019050611b075f830184611ae5565b92915050565b5f602082019050611b205f830184611987565b92915050565b5f60a082019050611b395f830188611987565b611b466020830187611987565b611b536040830186611987565b611b606060830185611987565b611b6d6080830184611a8d565b9695505050505050565b611b8081611755565b8114611b8a575f80fd5b50565b5f81359050611b9b81611b77565b92915050565b5f63ffffffff82169050919050565b611bb981611ba1565b8114611bc3575f80fd5b50565b5f81359050611bd481611bb0565b92915050565b5f805f60608486031215611bf157611bf06116ef565b5b5f611bfe86828701611b8d565b9350506020611c0f86828701611bc6565b9250506040611c20868287016117af565b9150509250925092565b611c3381611ad4565b8114611c3d575f80fd5b50565b5f81359050611c4e81611c2a565b92915050565b5f60208284031215611c6957611c686116ef565b5b5f611c7684828501611c40565b91505092915050565b611c8881611ba1565b82525050565b5f602082019050611ca15f830184611c7f565b92915050565b7f5072696365206d7573742062652067726561746572207468616e2030000000005f82015250565b5f611cdb601c836119a0565b9150611ce682611ca7565b602082019050919050565b5f6020820190508181035f830152611d0881611ccf565b9050919050565b7f4e487b71000000000000000000000000000000000000000000000000000000005f52601160045260245ffd5b5f611d46826116f7565b9150611d51836116f7565b9250828202611d5f816116f7565b91508282048414831517611d7657611d75611d0f565b5b5092915050565b5f604082019050611d905f830185611987565b611d9d6020830184611987565b9392505050565b7f4e487b71000000000000000000000000000000000000000000000000000000005f52601260045260245ffd5b5f611ddb826116f7565b9150611de6836116f7565b925082611df657611df5611da4565b5b828204905092915050565b5f611e0b826116f7565b9150611e16836116f7565b9250828203905081811115611e2e57611e2d611d0f565b5b92915050565b7f4d7573742062652070726f706f736564206f776e6572000000000000000000005f82015250565b5f611e686016836119a0565b9150611e7382611e34565b602082019050919050565b5f6020820190508181035f830152611e9581611e5c565b9050919050565b7f4e487b71000000000000000000000000000000000000000000000000000000005f52602260045260245ffd5b5f6002820490506001821680611ee057607f821691505b602082108103611ef357611ef2611e9c565b5b50919050565b7f4f6e6c792063616c6c61626c65206279206f776e6572000000000000000000005f82015250565b5f611f2d6016836119a0565b9150611f3882611ef9565b602082019050919050565b5f6020820190508181035f830152611f5a81611f21565b9050919050565b5f81519050919050565b5f82825260208201905092915050565b5f611f8582611f61565b611f8f8185611f6b565b9350611f9f8185602086016119b0565b611fa8816117cb565b840191505092915050565b5f6020820190508181035f830152611fcb8184611f7b565b905092915050565b5f81519050611fe181611700565b92915050565b5f60208284031215611ffc57611ffb6116ef565b5b5f61200984828501611fd3565b91505092915050565b7f4e487b71000000000000000000000000000000000000000000000000000000005f52602160045260245ffd5b7f4e487b71000000000000000000000000000000000000000000000000000000005f52603260045260245ffd5b5f612076826116f7565b91507fffffffffffffffffffffffffffffffffffffffffffffffffffffffffffffffff82036120a8576120a7611d0f565b5b600182019050919050565b5f61ffff82169050919050565b6120c9816120b3565b82525050565b5f60a0820190506120e25f830188611768565b81810360208301526120f48187611f7b565b905061210360408301866120c0565b6121106060830185611c7f565b61211d6080830184611a8d565b9695505050505050565b5f8151905061213581611799565b92915050565b5f602082840312156121505761214f6116ef565b5b5f61215d84828501612127565b91505092915050565b7f43616e6e6f74207472616e7366657220746f2073656c660000000000000000005f82015250565b5f61219a6017836119a0565b91506121a582612166565b602082019050919050565b5f6020820190508181035f8301526121c78161218e565b9050919050565b5f6121d8826116f7565b91506121e3836116f7565b92508282019050808211156121fb576121fa611d0f565b5b92915050565b5f61220b826116f7565b9150612216836116f7565b92508261222657612225611da4565b5b828206905092915050565b5f8160011c9050919050565b5f808291508390505b60018511156122865780860481111561226257612261611d0f565b5b60018516156122715780820291505b808102905061227f85612231565b9450612246565b94509492505050565b5f8261229e5760019050612359565b816122ab575f9050612359565b81600181146122c157600281146122cb576122fa565b6001915050612359565b60ff8411156122dd576122dc611d0f565b5b8360020a9150848211156122f4576122f3611d0f565b5b50612359565b5060208310610133831016604e8410600b841016171561232f5782820a90508381111561232a57612329611d0f565b5b612359565b61233c848484600161223d565b9250905081840481111561235357612352611d0f565b5b81810290505b9392505050565b5f61236a826116f7565b9150612375836116f7565b92506123a27fffffffffffffffffffffffffffffffffffffffffffffffffffffffffffffffff848461228f565b90509291505056fe555344205072696365203d20545744205072696365202f205553442d54574420526174652028696e2063656e747329a2646970667358221220564848a99f003ec35a03ce22d89717ff6953fa6ff2f7455eb2ab6fd9cefc150464736f6c63430008140033636f6e7374205b74773530526573706f6e73652c20757364547764526573706f6e73655d203d2061776169742050726f6d6973652e616c6c285b46756e6374696f6e732e6d616b654874747052657175657374287b75726c3a202768747470733a2f2f7175657279312e66696e616e63652e7961686f6f2e636f6d2f76382f66696e616e63652f63686172742f303035302e5457277d292c46756e6374696f6e732e6d616b654874747052657175657374287b75726c3a202768747470733a2f2f7175657279312e66696e616e63652e7961686f6f2e636f6d2f76382f66696e616e63652f63686172742f5553445457443d58277d295d293b6966202874773530526573706f6e73652e6572726f72207c7c20757364547764526573706f6e73652e6572726f7229207b7468726f77204572726f72282752657175657374206661696c656427293b7d636f6e737420747735305072696365203d2074773530526573706f6e73652e646174612e63686172742e726573756c745b305d2e6d6574612e726567756c61724d61726b657450726963653b636f6e73742075736454776452617465203d20757364547764526573706f6e73652e646174612e63686172742e726573756c745b305d2e6d6574612e726567756c61724d61726b657450726963653b6966202821747735305072696365207c7c20217573645477645261746529207b7468726f77204572726f7228275072696365206e6f7420666f756e6427293b7d636f6e7374207573645072696365203d20747735305072696365202f20757364547764526174653b72657475726e2046756e6374696f6e732e656e636f646555696e74323536284d6174682e726f756e64287573645072696365202a203165313829293b",
			"opcodes": "PUSH1 0xA0 PUSH1 0x40 MSTORE PUSH3 0x493E0 PUSH1 0x5 PUSH1 0x8 PUSH2 0x100 EXP DUP2 SLOAD DUP2 PUSH4 0xFFFFFFFF MUL NOT AND SWAP1 DUP4 PUSH4 0xFFFFFFFF AND MUL OR SWAP1 SSTORE POP PUSH1 0x40 MLOAD DUP1 PUSH2 0x2C0 ADD PUSH1 0x40 MSTORE DUP1 PUSH2 0x288 DUP2 MSTORE PUSH1 0x20 ADD PUSH3 0x2BA9 PUSH2 0x288 SWAP2 CODECOPY PUSH1 0x7 SWAP1 DUP2 PUSH3 0x55 SWAP2 SWAP1 PUSH3 0x5AA JUMP JUMPDEST POP CALLVALUE DUP1 ISZERO PUSH3 0x62 JUMPI PUSH0 DUP1 REVERT JUMPDEST POP CALLER DUP1 PUSH0 PUSH20 0xB83E47C2BC239B3BF370BC41E1459A34B41238D0 DUP1 PUSH20 0xFFFFFFFFFFFFFFFFFFFFFFFFFFFFFFFFFFFFFFFF AND PUSH1 0x80 DUP2 PUSH20 0xFFFFFFFFFFFFFFFFFFFFFFFFFFFFFFFFFFFFFFFF AND DUP2 MSTORE POP POP POP PUSH0 PUSH20 0xFFFFFFFFFFFFFFFFFFFFFFFFFFFFFFFFFFFFFFFF AND DUP3 PUSH20 0xFFFFFFFFFFFFFFFFFFFFFFFFFFFFFFFFFFFFFFFF AND SUB PUSH3 0x121 JUMPI PUSH1 0x40 MLOAD PUSH32 0x8C379A000000000000000000000000000000000000000000000000000000000 DUP2 MSTORE PUSH1 0x4 ADD PUSH3 0x118 SWAP1 PUSH3 0x6EC JUMP JUMPDEST PUSH1 0x40 MLOAD DUP1 SWAP2 SUB SWAP1 REVERT JUMPDEST DUP2 PUSH0 DUP1 PUSH2 0x100 EXP DUP2 SLOAD DUP2 PUSH20 0xFFFFFFFFFFFFFFFFFFFFFFFFFFFFFFFFFFFFFFFF MUL NOT AND SWAP1 DUP4 PUSH20 0xFFFFFFFFFFFFFFFFFFFFFFFFFFFFFFFFFFFFFFFF AND MUL OR SWAP1 SSTORE POP PUSH0 PUSH20 0xFFFFFFFFFFFFFFFFFFFFFFFFFFFFFFFFFFFFFFFF AND DUP2 PUSH20 0xFFFFFFFFFFFFFFFFFFFFFFFFFFFFFFFFFFFFFFFF AND EQ PUSH3 0x1A6 JUMPI PUSH3 0x1A5 DUP2 PUSH3 0x219 PUSH1 0x20 SHL PUSH1 0x20 SHR JUMP JUMPDEST JUMPDEST POP POP POP PUSH2 0x1607 PUSH1 0x5 PUSH0 PUSH2 0x100 EXP DUP2 SLOAD DUP2 PUSH8 0xFFFFFFFFFFFFFFFF MUL NOT AND SWAP1 DUP4 PUSH8 0xFFFFFFFFFFFFFFFF AND MUL OR SWAP1 SSTORE POP PUSH32 0x66756E2D657468657265756D2D7365706F6C69612D3100000000000000000000 PUSH0 SHL PUSH1 0x6 DUP2 SWAP1 SSTORE POP PUSH9 0x1158E460913D00000 PUSH1 0x2 DUP2 SWAP1 SSTORE POP TIMESTAMP PUSH1 0x3 DUP2 SWAP1 SSTORE POP PUSH3 0x77A JUMP JUMPDEST CALLER PUSH20 0xFFFFFFFFFFFFFFFFFFFFFFFFFFFFFFFFFFFFFFFF AND DUP2 PUSH20 0xFFFFFFFFFFFFFFFFFFFFFFFFFFFFFFFFFFFFFFFF AND SUB PUSH3 0x28A JUMPI PUSH1 0x40 MLOAD PUSH32 0x8C379A000000000000000000000000000000000000000000000000000000000 DUP2 MSTORE PUSH1 0x4 ADD PUSH3 0x281 SWAP1 PUSH3 0x75A JUMP JUMPDEST PUSH1 0x40 MLOAD DUP1 SWAP2 SUB SWAP1 REVERT JUMPDEST DUP1 PUSH1 0x1 PUSH0 PUSH2 0x100 EXP DUP2 SLOAD DUP2 PUSH20 0xFFFFFFFFFFFFFFFFFFFFFFFFFFFFFFFFFFFFFFFF MUL NOT AND SWAP1 DUP4 PUSH20 0xFFFFFFFFFFFFFFFFFFFFFFFFFFFFFFFFFFFFFFFF AND MUL OR SWAP1 SSTORE POP DUP1 PUSH20 0xFFFFFFFFFFFFFFFFFFFFFFFFFFFFFFFFFFFFFFFF AND PUSH0 DUP1 SLOAD SWAP1 PUSH2 0x100 EXP SWAP1 DIV PUSH20 0xFFFFFFFFFFFFFFFFFFFFFFFFFFFFFFFFFFFFFFFF AND PUSH20 0xFFFFFFFFFFFFFFFFFFFFFFFFFFFFFFFFFFFFFFFF AND PUSH32 0xED8889F560326EB138920D842192F0EB3DD22B4F139C87A2C57538E05BAE1278 PUSH1 0x40 MLOAD PUSH1 0x40 MLOAD DUP1 SWAP2 SUB SWAP1 LOG3 POP JUMP JUMPDEST PUSH0 DUP2 MLOAD SWAP1 POP SWAP2 SWAP1 POP JUMP JUMPDEST PUSH32 0x4E487B7100000000000000000000000000000000000000000000000000000000 PUSH0 MSTORE PUSH1 0x41 PUSH1 0x4 MSTORE PUSH1 0x24 PUSH0 REVERT JUMPDEST PUSH32 0x4E487B7100000000000000000000000000000000000000000000000000000000 PUSH0 MSTORE PUSH1 0x22 PUSH1 0x4 MSTORE PUSH1 0x24 PUSH0 REVERT JUMPDEST PUSH0 PUSH1 0x2 DUP3 DIV SWAP1 POP PUSH1 0x1 DUP3 AND DUP1 PUSH3 0x3C2 JUMPI PUSH1 0x7F DUP3 AND SWAP2 POP JUMPDEST PUSH1 0x20 DUP3 LT DUP2 SUB PUSH3 0x3D8 JUMPI PUSH3 0x3D7 PUSH3 0x37D JUMP JUMPDEST JUMPDEST POP SWAP2 SWAP1 POP JUMP JUMPDEST PUSH0 DUP2 SWAP1 POP DUP2 PUSH0 MSTORE PUSH1 0x20 PUSH0 KECCAK256 SWAP1 POP SWAP2 SWAP1 POP JUMP JUMPDEST PUSH0 PUSH1 0x20 PUSH1 0x1F DUP4 ADD DIV SWAP1 POP SWAP2 SWAP1 POP JUMP JUMPDEST PUSH0 DUP3 DUP3 SHL SWAP1 POP SWAP3 SWAP2 POP POP JUMP JUMPDEST PUSH0 PUSH1 0x8 DUP4 MUL PUSH3 0x43C PUSH32 0xFFFFFFFFFFFFFFFFFFFFFFFFFFFFFFFFFFFFFFFFFFFFFFFFFFFFFFFFFFFFFFFF DUP3 PUSH3 0x3FF JUMP JUMPDEST PUSH3 0x448 DUP7 DUP4 PUSH3 0x3FF JUMP JUMPDEST SWAP6 POP DUP1 NOT DUP5 AND SWAP4 POP DUP1 DUP7 AND DUP5 OR SWAP3 POP POP POP SWAP4 SWAP3 POP POP POP JUMP JUMPDEST PUSH0 DUP2 SWAP1 POP SWAP2 SWAP1 POP JUMP JUMPDEST PUSH0 DUP2 SWAP1 POP SWAP2 SWAP1 POP JUMP JUMPDEST PUSH0 PUSH3 0x492 PUSH3 0x48C PUSH3 0x486 DUP5 PUSH3 0x460 JUMP JUMPDEST PUSH3 0x469 JUMP JUMPDEST PUSH3 0x460 JUMP JUMPDEST SWAP1 POP SWAP2 SWAP1 POP JUMP JUMPDEST PUSH0 DUP2 SWAP1 POP SWAP2 SWAP1 POP JUMP JUMPDEST PUSH3 0x4AD DUP4 PUSH3 0x472 JUMP JUMPDEST PUSH3 0x4C5 PUSH3 0x4BC DUP3 PUSH3 0x499 JUMP JUMPDEST DUP5 DUP5 SLOAD PUSH3 0x40B JUMP JUMPDEST DUP3 SSTORE POP POP POP POP JUMP JUMPDEST PUSH0 SWAP1 JUMP JUMPDEST PUSH3 0x4DB PUSH3 0x4CD JUMP JUMPDEST PUSH3 0x4E8 DUP2 DUP5 DUP5 PUSH3 0x4A2 JUMP JUMPDEST POP POP POP JUMP JUMPDEST JUMPDEST DUP2 DUP2 LT ISZERO PUSH3 0x50F JUMPI PUSH3 0x503 PUSH0 DUP3 PUSH3 0x4D1 JUMP JUMPDEST PUSH1 0x1 DUP2 ADD SWAP1 POP PUSH3 0x4EE JUMP JUMPDEST POP POP JUMP JUMPDEST PUSH1 0x1F DUP3 GT ISZERO PUSH3 0x55E JUMPI PUSH3 0x528 DUP2 PUSH3 0x3DE JUMP JUMPDEST PUSH3 0x533 DUP5 PUSH3 0x3F0 JUMP JUMPDEST DUP2 ADD PUSH1 0x20 DUP6 LT ISZERO PUSH3 0x543 JUMPI DUP2 SWAP1 POP JUMPDEST PUSH3 0x55B PUSH3 0x552 DUP6 PUSH3 0x3F0 JUMP JUMPDEST DUP4 ADD DUP3 PUSH3 0x4ED JUMP JUMPDEST POP POP JUMPDEST POP POP POP JUMP JUMPDEST PUSH0 DUP3 DUP3 SHR SWAP1 POP SWAP3 SWAP2 POP POP JUMP JUMPDEST PUSH0 PUSH3 0x580 PUSH0 NOT DUP5 PUSH1 0x8 MUL PUSH3 0x563 JUMP JUMPDEST NOT DUP1 DUP4 AND SWAP2 POP POP SWAP3 SWAP2 POP POP JUMP JUMPDEST PUSH0 PUSH3 0x59A DUP4 DUP4 PUSH3 0x56F JUMP JUMPDEST SWAP2 POP DUP3 PUSH1 0x2 MUL DUP3 OR SWAP1 POP SWAP3 SWAP2 POP POP JUMP JUMPDEST PUSH3 0x5B5 DUP3 PUSH3 0x346 JUMP JUMPDEST PUSH8 0xFFFFFFFFFFFFFFFF DUP2 GT ISZERO PUSH3 0x5D1 JUMPI PUSH3 0x5D0 PUSH3 0x350 JUMP JUMPDEST JUMPDEST PUSH3 0x5DD DUP3 SLOAD PUSH3 0x3AA JUMP JUMPDEST PUSH3 0x5EA DUP3 DUP3 DUP6 PUSH3 0x513 JUMP JUMPDEST PUSH0 PUSH1 0x20 SWAP1 POP PUSH1 0x1F DUP4 GT PUSH1 0x1 DUP2 EQ PUSH3 0x620 JUMPI PUSH0 DUP5 ISZERO PUSH3 0x60B JUMPI DUP3 DUP8 ADD MLOAD SWAP1 POP JUMPDEST PUSH3 0x617 DUP6 DUP3 PUSH3 0x58D JUMP JUMPDEST DUP7 SSTORE POP PUSH3 0x686 JUMP JUMPDEST PUSH1 0x1F NOT DUP5 AND PUSH3 0x630 DUP7 PUSH3 0x3DE JUMP JUMPDEST PUSH0 JUMPDEST DUP3 DUP2 LT ISZERO PUSH3 0x659 JUMPI DUP5 DUP10 ADD MLOAD DUP3 SSTORE PUSH1 0x1 DUP3 ADD SWAP2 POP PUSH1 0x20 DUP6 ADD SWAP5 POP PUSH1 0x20 DUP2 ADD SWAP1 POP PUSH3 0x632 JUMP JUMPDEST DUP7 DUP4 LT ISZERO PUSH3 0x679 JUMPI DUP5 DUP10 ADD MLOAD PUSH3 0x675 PUSH1 0x1F DUP10 AND DUP3 PUSH3 0x56F JUMP JUMPDEST DUP4 SSTORE POP JUMPDEST PUSH1 0x1 PUSH1 0x2 DUP9 MUL ADD DUP9 SSTORE POP POP POP JUMPDEST POP POP POP POP POP POP JUMP JUMPDEST PUSH0 DUP3 DUP3 MSTORE PUSH1 0x20 DUP3 ADD SWAP1 POP SWAP3 SWAP2 POP POP JUMP JUMPDEST PUSH32 0x43616E6E6F7420736574206F776E657220746F207A65726F0000000000000000 PUSH0 DUP3 ADD MSTORE POP JUMP JUMPDEST PUSH0 PUSH3 0x6D4 PUSH1 0x18 DUP4 PUSH3 0x68E JUMP JUMPDEST SWAP2 POP PUSH3 0x6E1 DUP3 PUSH3 0x69E JUMP JUMPDEST PUSH1 0x20 DUP3 ADD SWAP1 POP SWAP2 SWAP1 POP JUMP JUMPDEST PUSH0 PUSH1 0x20 DUP3 ADD SWAP1 POP DUP2 DUP2 SUB PUSH0 DUP4 ADD MSTORE PUSH3 0x705 DUP2 PUSH3 0x6C6 JUMP JUMPDEST SWAP1 POP SWAP2 SWAP1 POP JUMP JUMPDEST PUSH32 0x43616E6E6F74207472616E7366657220746F2073656C66000000000000000000 PUSH0 DUP3 ADD MSTORE POP JUMP JUMPDEST PUSH0 PUSH3 0x742 PUSH1 0x17 DUP4 PUSH3 0x68E JUMP JUMPDEST SWAP2 POP PUSH3 0x74F DUP3 PUSH3 0x70C JUMP JUMPDEST PUSH1 0x20 DUP3 ADD SWAP1 POP SWAP2 SWAP1 POP JUMP JUMPDEST PUSH0 PUSH1 0x20 DUP3 ADD SWAP1 POP DUP2 DUP2 SUB PUSH0 DUP4 ADD MSTORE PUSH3 0x773 DUP2 PUSH3 0x734 JUMP JUMPDEST SWAP1 POP SWAP2 SWAP1 POP JUMP JUMPDEST PUSH1 0x80 MLOAD PUSH2 0x240F PUSH3 0x79A PUSH0 CODECOPY PUSH0 DUP2 DUP2 PUSH2 0x3E3 ADD MSTORE PUSH2 0xE3A ADD MSTORE PUSH2 0x240F PUSH0 RETURN INVALID PUSH1 0x80 PUSH1 0x40 MSTORE CALLVALUE DUP1 ISZERO PUSH2 0xF JUMPI PUSH0 DUP1 REVERT JUMPDEST POP PUSH1 0x4 CALLDATASIZE LT PUSH2 0x114 JUMPI PUSH0 CALLDATALOAD PUSH1 0xE0 SHR DUP1 PUSH4 0x9C84CD10 GT PUSH2 0xA0 JUMPI DUP1 PUSH4 0xEC2B70A4 GT PUSH2 0x6F JUMPI DUP1 PUSH4 0xEC2B70A4 EQ PUSH2 0x28B JUMPI DUP1 PUSH4 0xF2FDE38B EQ PUSH2 0x2A9 JUMPI DUP1 PUSH4 0xF68016B7 EQ PUSH2 0x2C5 JUMPI DUP1 PUSH4 0xFC2A88C3 EQ PUSH2 0x2E3 JUMPI DUP1 PUSH4 0xFF8E583A EQ PUSH2 0x301 JUMPI PUSH2 0x114 JUMP JUMPDEST DUP1 PUSH4 0x9C84CD10 EQ PUSH2 0x211 JUMPI DUP1 PUSH4 0xAFDB0556 EQ PUSH2 0x233 JUMPI DUP1 PUSH4 0xC8F33C91 EQ PUSH2 0x251 JUMPI DUP1 PUSH4 0xD0F784F0 EQ PUSH2 0x26F JUMPI PUSH2 0x114 JUMP JUMPDEST DUP1 PUSH4 0x2F5DF725 GT PUSH2 0xE7 JUMPI DUP1 PUSH4 0x2F5DF725 EQ PUSH2 0x18F JUMPI DUP1 PUSH4 0x6E74336B EQ PUSH2 0x1AD JUMPI DUP1 PUSH4 0x79BA5097 EQ PUSH2 0x1CB JUMPI DUP1 PUSH4 0x8DA5CB5B EQ PUSH2 0x1D5 JUMPI DUP1 PUSH4 0x8E15F473 EQ PUSH2 0x1F3 JUMPI PUSH2 0x114 JUMP JUMPDEST DUP1 PUSH4 0x5239CA1 EQ PUSH2 0x118 JUMPI DUP1 PUSH4 0x9C1BA2E EQ PUSH2 0x134 JUMPI DUP1 PUSH4 0xCA76175 EQ PUSH2 0x152 JUMPI DUP1 PUSH4 0x26C4C889 EQ PUSH2 0x16E JUMPI JUMPDEST PUSH0 DUP1 REVERT JUMPDEST PUSH2 0x132 PUSH1 0x4 DUP1 CALLDATASIZE SUB DUP2 ADD SWAP1 PUSH2 0x12D SWAP2 SWAP1 PUSH2 0x172A JUMP JUMPDEST PUSH2 0x31F JUMP JUMPDEST STOP JUMPDEST PUSH2 0x13C PUSH2 0x3C8 JUMP JUMPDEST PUSH1 0x40 MLOAD PUSH2 0x149 SWAP2 SWAP1 PUSH2 0x1777 JUMP JUMPDEST PUSH1 0x40 MLOAD DUP1 SWAP2 SUB SWAP1 RETURN JUMPDEST PUSH2 0x16C PUSH1 0x4 DUP1 CALLDATASIZE SUB DUP2 ADD SWAP1 PUSH2 0x167 SWAP2 SWAP1 PUSH2 0x18FF JUMP JUMPDEST PUSH2 0x3E1 JUMP JUMPDEST STOP JUMPDEST PUSH2 0x176 PUSH2 0x4A3 JUMP JUMPDEST PUSH1 0x40 MLOAD PUSH2 0x186 SWAP5 SWAP4 SWAP3 SWAP2 SWAP1 PUSH2 0x1A10 JUMP JUMPDEST PUSH1 0x40 MLOAD DUP1 SWAP2 SUB SWAP1 RETURN JUMPDEST PUSH2 0x197 PUSH2 0x4EA JUMP JUMPDEST PUSH1 0x40 MLOAD PUSH2 0x1A4 SWAP2 SWAP1 PUSH2 0x1A74 JUMP JUMPDEST PUSH1 0x40 MLOAD DUP1 SWAP2 SUB SWAP1 RETURN JUMPDEST PUSH2 0x1B5 PUSH2 0x502 JUMP JUMPDEST PUSH1 0x40 MLOAD PUSH2 0x1C2 SWAP2 SWAP1 PUSH2 0x1A9C JUMP JUMPDEST PUSH1 0x40 MLOAD DUP1 SWAP2 SUB SWAP1 RETURN JUMPDEST PUSH2 0x1D3 PUSH2 0x508 JUMP JUMPDEST STOP JUMPDEST PUSH2 0x1DD PUSH2 0x697 JUMP JUMPDEST PUSH1 0x40 MLOAD PUSH2 0x1EA SWAP2 SWAP1 PUSH2 0x1AF4 JUMP JUMPDEST PUSH1 0x40 MLOAD DUP1 SWAP2 SUB SWAP1 RETURN JUMPDEST PUSH2 0x1FB PUSH2 0x6BE JUMP JUMPDEST PUSH1 0x40 MLOAD PUSH2 0x208 SWAP2 SWAP1 PUSH2 0x1B0D JUMP JUMPDEST PUSH1 0x40 MLOAD DUP1 SWAP2 SUB SWAP1 RETURN JUMPDEST PUSH2 0x219 PUSH2 0x6C7 JUMP JUMPDEST PUSH1 0x40 MLOAD PUSH2 0x22A SWAP6 SWAP5 SWAP4 SWAP3 SWAP2 SWAP1 PUSH2 0x1B26 JUMP JUMPDEST PUSH1 0x40 MLOAD DUP1 SWAP2 SUB SWAP1 RETURN JUMPDEST PUSH2 0x23B PUSH2 0x709 JUMP JUMPDEST PUSH1 0x40 MLOAD PUSH2 0x248 SWAP2 SWAP1 PUSH2 0x1A9C JUMP JUMPDEST PUSH1 0x40 MLOAD DUP1 SWAP2 SUB SWAP1 RETURN JUMPDEST PUSH2 0x259 PUSH2 0x824 JUMP JUMPDEST PUSH1 0x40 MLOAD PUSH2 0x266 SWAP2 SWAP1 PUSH2 0x1B0D JUMP JUMPDEST PUSH1 0x40 MLOAD DUP1 SWAP2 SUB SWAP1 RETURN JUMPDEST PUSH2 0x289 PUSH1 0x4 DUP1 CALLDATASIZE SUB DUP2 ADD SWAP1 PUSH2 0x284 SWAP2 SWAP1 PUSH2 0x1BDA JUMP JUMPDEST PUSH2 0x82A JUMP JUMPDEST STOP JUMPDEST PUSH2 0x293 PUSH2 0x887 JUMP JUMPDEST PUSH1 0x40 MLOAD PUSH2 0x2A0 SWAP2 SWAP1 PUSH2 0x1B0D JUMP JUMPDEST PUSH1 0x40 MLOAD DUP1 SWAP2 SUB SWAP1 RETURN JUMPDEST PUSH2 0x2C3 PUSH1 0x4 DUP1 CALLDATASIZE SUB DUP2 ADD SWAP1 PUSH2 0x2BE SWAP2 SWAP1 PUSH2 0x1C54 JUMP JUMPDEST PUSH2 0x8A2 JUMP JUMPDEST STOP JUMPDEST PUSH2 0x2CD PUSH2 0x8B6 JUMP JUMPDEST PUSH1 0x40 MLOAD PUSH2 0x2DA SWAP2 SWAP1 PUSH2 0x1C8E JUMP JUMPDEST PUSH1 0x40 MLOAD DUP1 SWAP2 SUB SWAP1 RETURN JUMPDEST PUSH2 0x2EB PUSH2 0x8CC JUMP JUMPDEST PUSH1 0x40 MLOAD PUSH2 0x2F8 SWAP2 SWAP1 PUSH2 0x1A9C JUMP JUMPDEST PUSH1 0x40 MLOAD DUP1 SWAP2 SUB SWAP1 RETURN JUMPDEST PUSH2 0x309 PUSH2 0x8D2 JUMP JUMPDEST PUSH1 0x40 MLOAD PUSH2 0x316 SWAP2 SWAP1 PUSH2 0x1B0D JUMP JUMPDEST PUSH1 0x40 MLOAD DUP1 SWAP2 SUB SWAP1 RETURN JUMPDEST PUSH2 0x327 PUSH2 0x8DB JUMP JUMPDEST PUSH0 DUP2 GT PUSH2 0x369 JUMPI PUSH1 0x40 MLOAD PUSH32 0x8C379A000000000000000000000000000000000000000000000000000000000 DUP2 MSTORE PUSH1 0x4 ADD PUSH2 0x360 SWAP1 PUSH2 0x1CF1 JUMP JUMPDEST PUSH1 0x40 MLOAD DUP1 SWAP2 SUB SWAP1 REVERT JUMPDEST PUSH8 0xDE0B6B3A7640000 DUP2 PUSH2 0x37D SWAP2 SWAP1 PUSH2 0x1D3C JUMP JUMPDEST PUSH1 0x2 DUP2 SWAP1 SSTORE POP TIMESTAMP PUSH1 0x3 DUP2 SWAP1 SSTORE POP PUSH32 0x945C1C4E99AA89F648FBFE3DF471B916F719E16D960FCEC0737D4D56BD696838 PUSH1 0x2 SLOAD TIMESTAMP PUSH1 0x40 MLOAD PUSH2 0x3BD SWAP3 SWAP2 SWAP1 PUSH2 0x1D7D JUMP JUMPDEST PUSH1 0x40 MLOAD DUP1 SWAP2 SUB SWAP1 LOG1 POP JUMP JUMPDEST PUSH1 0x5 PUSH0 SWAP1 SLOAD SWAP1 PUSH2 0x100 EXP SWAP1 DIV PUSH8 0xFFFFFFFFFFFFFFFF AND DUP2 JUMP JUMPDEST PUSH32 0x0 PUSH20 0xFFFFFFFFFFFFFFFFFFFFFFFFFFFFFFFFFFFFFFFF AND CALLER PUSH20 0xFFFFFFFFFFFFFFFFFFFFFFFFFFFFFFFFFFFFFFFF AND EQ PUSH2 0x466 JUMPI PUSH1 0x40 MLOAD PUSH32 0xC6829F8300000000000000000000000000000000000000000000000000000000 DUP2 MSTORE PUSH1 0x4 ADD PUSH1 0x40 MLOAD DUP1 SWAP2 SUB SWAP1 REVERT JUMPDEST PUSH2 0x471 DUP4 DUP4 DUP4 PUSH2 0x96A JUMP JUMPDEST DUP3 PUSH32 0x85E1543BF2F84FE80C6BADBCE3648C8539AD1DF4D2B3D822938CA0538BE727E6 PUSH1 0x40 MLOAD PUSH1 0x40 MLOAD DUP1 SWAP2 SUB SWAP1 LOG2 POP POP POP JUMP JUMPDEST PUSH0 DUP1 PUSH0 PUSH1 0x60 PUSH1 0x2 SLOAD PUSH7 0x2386F26FC10000 PUSH1 0x2 SLOAD PUSH2 0x4C0 SWAP2 SWAP1 PUSH2 0x1DD1 JUMP JUMPDEST PUSH1 0x2 SLOAD PUSH1 0x40 MLOAD DUP1 PUSH1 0x60 ADD PUSH1 0x40 MSTORE DUP1 PUSH1 0x2F DUP2 MSTORE PUSH1 0x20 ADD PUSH2 0x23AB PUSH1 0x2F SWAP2 CODECOPY SWAP4 POP SWAP4 POP SWAP4 POP SWAP4 POP SWAP1 SWAP2 SWAP3 SWAP4 JUMP JUMPDEST PUSH0 PUSH2 0xE10 PUSH1 0x3 SLOAD TIMESTAMP PUSH2 0x4FC SWAP2 SWAP1 PUSH2 0x1E01 JUMP JUMPDEST GT SWAP1 POP SWAP1 JUMP JUMPDEST PUSH1 0x6 SLOAD DUP2 JUMP JUMPDEST PUSH1 0x1 PUSH0 SWAP1 SLOAD SWAP1 PUSH2 0x100 EXP SWAP1 DIV PUSH20 0xFFFFFFFFFFFFFFFFFFFFFFFFFFFFFFFFFFFFFFFF AND PUSH20 0xFFFFFFFFFFFFFFFFFFFFFFFFFFFFFFFFFFFFFFFF AND CALLER PUSH20 0xFFFFFFFFFFFFFFFFFFFFFFFFFFFFFFFFFFFFFFFF AND EQ PUSH2 0x597 JUMPI PUSH1 0x40 MLOAD PUSH32 0x8C379A000000000000000000000000000000000000000000000000000000000 DUP2 MSTORE PUSH1 0x4 ADD PUSH2 0x58E SWAP1 PUSH2 0x1E7E JUMP JUMPDEST PUSH1 0x40 MLOAD DUP1 SWAP2 SUB SWAP1 REVERT JUMPDEST PUSH0 DUP1 PUSH0 SWAP1 SLOAD SWAP1 PUSH2 0x100 EXP SWAP1 DIV PUSH20 0xFFFFFFFFFFFFFFFFFFFFFFFFFFFFFFFFFFFFFFFF AND SWAP1 POP CALLER PUSH0 DUP1 PUSH2 0x100 EXP DUP2 SLOAD DUP2 PUSH20 0xFFFFFFFFFFFFFFFFFFFFFFFFFFFFFFFFFFFFFFFF MUL NOT AND SWAP1 DUP4 PUSH20 0xFFFFFFFFFFFFFFFFFFFFFFFFFFFFFFFFFFFFFFFF AND MUL OR SWAP1 SSTORE POP PUSH0 PUSH1 0x1 PUSH0 PUSH2 0x100 EXP DUP2 SLOAD DUP2 PUSH20 0xFFFFFFFFFFFFFFFFFFFFFFFFFFFFFFFFFFFFFFFF MUL NOT AND SWAP1 DUP4 PUSH20 0xFFFFFFFFFFFFFFFFFFFFFFFFFFFFFFFFFFFFFFFF AND MUL OR SWAP1 SSTORE POP CALLER PUSH20 0xFFFFFFFFFFFFFFFFFFFFFFFFFFFFFFFFFFFFFFFF AND DUP2 PUSH20 0xFFFFFFFFFFFFFFFFFFFFFFFFFFFFFFFFFFFFFFFF AND PUSH32 0x8BE0079C531659141344CD1FD0A4F28419497F9722A3DAAFE3B4186F6B6457E0 PUSH1 0x40 MLOAD PUSH1 0x40 MLOAD DUP1 SWAP2 SUB SWAP1 LOG3 POP JUMP JUMPDEST PUSH0 DUP1 PUSH0 SWAP1 SLOAD SWAP1 PUSH2 0x100 EXP SWAP1 DIV PUSH20 0xFFFFFFFFFFFFFFFFFFFFFFFFFFFFFFFFFFFFFFFF AND SWAP1 POP SWAP1 JUMP JUMPDEST PUSH0 PUSH1 0x2 SLOAD SWAP1 POP SWAP1 JUMP JUMPDEST PUSH0 DUP1 PUSH0 DUP1 PUSH0 PUSH1 0x2 SLOAD PUSH7 0x2386F26FC10000 PUSH1 0x2 SLOAD PUSH2 0x6E4 SWAP2 SWAP1 PUSH2 0x1DD1 JUMP JUMPDEST PUSH1 0x3 SLOAD PUSH1 0x3 SLOAD TIMESTAMP PUSH2 0x6F5 SWAP2 SWAP1 PUSH2 0x1E01 JUMP JUMPDEST PUSH1 0x4 SLOAD SWAP5 POP SWAP5 POP SWAP5 POP SWAP5 POP SWAP5 POP SWAP1 SWAP2 SWAP3 SWAP4 SWAP5 JUMP JUMPDEST PUSH0 PUSH2 0x712 PUSH2 0x163F JUMP JUMPDEST PUSH2 0x7AD PUSH1 0x7 DUP1 SLOAD PUSH2 0x722 SWAP1 PUSH2 0x1EC9 JUMP JUMPDEST DUP1 PUSH1 0x1F ADD PUSH1 0x20 DUP1 SWAP2 DIV MUL PUSH1 0x20 ADD PUSH1 0x40 MLOAD SWAP1 DUP2 ADD PUSH1 0x40 MSTORE DUP1 SWAP3 SWAP2 SWAP1 DUP2 DUP2 MSTORE PUSH1 0x20 ADD DUP3 DUP1 SLOAD PUSH2 0x74E SWAP1 PUSH2 0x1EC9 JUMP JUMPDEST DUP1 ISZERO PUSH2 0x799 JUMPI DUP1 PUSH1 0x1F LT PUSH2 0x770 JUMPI PUSH2 0x100 DUP1 DUP4 SLOAD DIV MUL DUP4 MSTORE SWAP2 PUSH1 0x20 ADD SWAP2 PUSH2 0x799 JUMP JUMPDEST DUP3 ADD SWAP2 SWAP1 PUSH0 MSTORE PUSH1 0x20 PUSH0 KECCAK256 SWAP1 JUMPDEST DUP2 SLOAD DUP2 MSTORE SWAP1 PUSH1 0x1 ADD SWAP1 PUSH1 0x20 ADD DUP1 DUP4 GT PUSH2 0x77C JUMPI DUP3 SWAP1 SUB PUSH1 0x1F AND DUP3 ADD SWAP2 JUMPDEST POP POP POP POP POP DUP3 PUSH2 0xA15 SWAP1 SWAP2 SWAP1 PUSH4 0xFFFFFFFF AND JUMP JUMPDEST PUSH2 0x7EA PUSH2 0x7B9 DUP3 PUSH2 0xA25 JUMP JUMPDEST PUSH1 0x5 PUSH0 SWAP1 SLOAD SWAP1 PUSH2 0x100 EXP SWAP1 DIV PUSH8 0xFFFFFFFFFFFFFFFF AND PUSH1 0x5 PUSH1 0x8 SWAP1 SLOAD SWAP1 PUSH2 0x100 EXP SWAP1 DIV PUSH4 0xFFFFFFFF AND PUSH1 0x6 SLOAD PUSH2 0xE36 JUMP JUMPDEST SWAP2 POP DUP2 PUSH1 0x4 DUP2 SWAP1 SSTORE POP DUP2 PUSH32 0x655F2DCA0174CE451AA939C62EA493C734778CC67C6783626B08AD34985E6C61 PUSH1 0x40 MLOAD PUSH1 0x40 MLOAD DUP1 SWAP2 SUB SWAP1 LOG2 POP SWAP1 JUMP JUMPDEST PUSH1 0x3 SLOAD DUP2 JUMP JUMPDEST PUSH2 0x832 PUSH2 0x8DB JUMP JUMPDEST DUP3 PUSH1 0x5 PUSH0 PUSH2 0x100 EXP DUP2 SLOAD DUP2 PUSH8 0xFFFFFFFFFFFFFFFF MUL NOT AND SWAP1 DUP4 PUSH8 0xFFFFFFFFFFFFFFFF AND MUL OR SWAP1 SSTORE POP DUP2 PUSH1 0x5 PUSH1 0x8 PUSH2 0x100 EXP DUP2 SLOAD DUP2 PUSH4 0xFFFFFFFF MUL NOT AND SWAP1 DUP4 PUSH4 0xFFFFFFFF AND MUL OR SWAP1 SSTORE POP DUP1 PUSH1 0x6 DUP2 SWAP1 SSTORE POP POP POP POP JUMP JUMPDEST PUSH0 PUSH7 0x2386F26FC10000 PUSH1 0x2 SLOAD PUSH2 0x89D SWAP2 SWAP1 PUSH2 0x1DD1 JUMP JUMPDEST SWAP1 POP SWAP1 JUMP JUMPDEST PUSH2 0x8AA PUSH2 0x8DB JUMP JUMPDEST PUSH2 0x8B3 DUP2 PUSH2 0xF15 JUMP JUMPDEST POP JUMP JUMPDEST PUSH1 0x5 PUSH1 0x8 SWAP1 SLOAD SWAP1 PUSH2 0x100 EXP SWAP1 DIV PUSH4 0xFFFFFFFF AND DUP2 JUMP JUMPDEST PUSH1 0x4 SLOAD DUP2 JUMP JUMPDEST PUSH0 PUSH1 0x2 SLOAD SWAP1 POP SWAP1 JUMP JUMPDEST PUSH0 DUP1 SLOAD SWAP1 PUSH2 0x100 EXP SWAP1 DIV PUSH20 0xFFFFFFFFFFFFFFFFFFFFFFFFFFFFFFFFFFFFFFFF AND PUSH20 0xFFFFFFFFFFFFFFFFFFFFFFFFFFFFFFFFFFFFFFFF AND CALLER PUSH20 0xFFFFFFFFFFFFFFFFFFFFFFFFFFFFFFFFFFFFFFFF AND EQ PUSH2 0x968 JUMPI PUSH1 0x40 MLOAD PUSH32 0x8C379A000000000000000000000000000000000000000000000000000000000 DUP2 MSTORE PUSH1 0x4 ADD PUSH2 0x95F SWAP1 PUSH2 0x1F43 JUMP JUMPDEST PUSH1 0x40 MLOAD DUP1 SWAP2 SUB SWAP1 REVERT JUMPDEST JUMP JUMPDEST PUSH0 DUP2 MLOAD GT ISZERO PUSH2 0x9B0 JUMPI DUP3 PUSH32 0x61982C98CBC49D11759A948F460B92BCA26BDF12CEEE12C310F117EB2CA9A9CB DUP3 PUSH1 0x40 MLOAD PUSH2 0x9A3 SWAP2 SWAP1 PUSH2 0x1FB3 JUMP JUMPDEST PUSH1 0x40 MLOAD DUP1 SWAP2 SUB SWAP1 LOG2 PUSH2 0xA10 JUMP JUMPDEST PUSH0 DUP3 DUP1 PUSH1 0x20 ADD SWAP1 MLOAD DUP2 ADD SWAP1 PUSH2 0x9C5 SWAP2 SWAP1 PUSH2 0x1FE7 JUMP JUMPDEST SWAP1 POP DUP1 PUSH1 0x2 DUP2 SWAP1 SSTORE POP TIMESTAMP PUSH1 0x3 DUP2 SWAP1 SSTORE POP PUSH32 0x945C1C4E99AA89F648FBFE3DF471B916F719E16D960FCEC0737D4D56BD696838 DUP2 TIMESTAMP PUSH1 0x40 MLOAD PUSH2 0xA06 SWAP3 SWAP2 SWAP1 PUSH2 0x1D7D JUMP JUMPDEST PUSH1 0x40 MLOAD DUP1 SWAP2 SUB SWAP1 LOG1 POP JUMPDEST POP POP POP JUMP JUMPDEST PUSH2 0xA21 DUP3 PUSH0 DUP1 DUP5 PUSH2 0x103F JUMP JUMPDEST POP POP JUMP JUMPDEST PUSH1 0x60 PUSH0 PUSH2 0xA33 PUSH2 0x100 PUSH2 0x10E5 JUMP JUMPDEST SWAP1 POP PUSH2 0xA7D PUSH1 0x40 MLOAD DUP1 PUSH1 0x40 ADD PUSH1 0x40 MSTORE DUP1 PUSH1 0xC DUP2 MSTORE PUSH1 0x20 ADD PUSH32 0x636F64654C6F636174696F6E0000000000000000000000000000000000000000 DUP2 MSTORE POP DUP3 PUSH2 0x110A SWAP1 SWAP2 SWAP1 PUSH4 0xFFFFFFFF AND JUMP JUMPDEST PUSH2 0xAA5 DUP4 PUSH0 ADD MLOAD PUSH1 0x2 DUP2 GT ISZERO PUSH2 0xA96 JUMPI PUSH2 0xA95 PUSH2 0x2012 JUMP JUMPDEST JUMPDEST DUP3 PUSH2 0x1132 SWAP1 SWAP2 SWAP1 PUSH4 0xFFFFFFFF AND JUMP JUMPDEST PUSH2 0xAED PUSH1 0x40 MLOAD DUP1 PUSH1 0x40 ADD PUSH1 0x40 MSTORE DUP1 PUSH1 0x8 DUP2 MSTORE PUSH1 0x20 ADD PUSH32 0x6C616E6775616765000000000000000000000000000000000000000000000000 DUP2 MSTORE POP DUP3 PUSH2 0x110A SWAP1 SWAP2 SWAP1 PUSH4 0xFFFFFFFF AND JUMP JUMPDEST PUSH2 0xB15 DUP4 PUSH1 0x40 ADD MLOAD PUSH0 DUP2 GT ISZERO PUSH2 0xB06 JUMPI PUSH2 0xB05 PUSH2 0x2012 JUMP JUMPDEST JUMPDEST DUP3 PUSH2 0x1132 SWAP1 SWAP2 SWAP1 PUSH4 0xFFFFFFFF AND JUMP JUMPDEST PUSH2 0xB5D PUSH1 0x40 MLOAD DUP1 PUSH1 0x40 ADD PUSH1 0x40 MSTORE DUP1 PUSH1 0x6 DUP2 MSTORE PUSH1 0x20 ADD PUSH32 0x736F757263650000000000000000000000000000000000000000000000000000 DUP2 MSTORE POP DUP3 PUSH2 0x110A SWAP1 SWAP2 SWAP1 PUSH4 0xFFFFFFFF AND JUMP JUMPDEST PUSH2 0xB74 DUP4 PUSH1 0x60 ADD MLOAD DUP3 PUSH2 0x110A SWAP1 SWAP2 SWAP1 PUSH4 0xFFFFFFFF AND JUMP JUMPDEST PUSH0 DUP4 PUSH1 0xA0 ADD MLOAD MLOAD GT ISZERO PUSH2 0xC2E JUMPI PUSH2 0xBC9 PUSH1 0x40 MLOAD DUP1 PUSH1 0x40 ADD PUSH1 0x40 MSTORE DUP1 PUSH1 0x4 DUP2 MSTORE PUSH1 0x20 ADD PUSH32 0x6172677300000000000000000000000000000000000000000000000000000000 DUP2 MSTORE POP DUP3 PUSH2 0x110A SWAP1 SWAP2 SWAP1 PUSH4 0xFFFFFFFF AND JUMP JUMPDEST PUSH2 0xBD2 DUP2 PUSH2 0x1181 JUMP JUMPDEST PUSH0 JUMPDEST DUP4 PUSH1 0xA0 ADD MLOAD MLOAD DUP2 LT ISZERO PUSH2 0xC23 JUMPI PUSH2 0xC12 DUP5 PUSH1 0xA0 ADD MLOAD DUP3 DUP2 MLOAD DUP2 LT PUSH2 0xBFB JUMPI PUSH2 0xBFA PUSH2 0x203F JUMP JUMPDEST JUMPDEST PUSH1 0x20 MUL PUSH1 0x20 ADD ADD MLOAD DUP4 PUSH2 0x110A SWAP1 SWAP2 SWAP1 PUSH4 0xFFFFFFFF AND JUMP JUMPDEST DUP1 PUSH2 0xC1C SWAP1 PUSH2 0x206C JUMP JUMPDEST SWAP1 POP PUSH2 0xBD4 JUMP JUMPDEST POP PUSH2 0xC2D DUP2 PUSH2 0x11A9 JUMP JUMPDEST JUMPDEST PUSH0 DUP4 PUSH1 0x80 ADD MLOAD MLOAD GT ISZERO PUSH2 0xD6D JUMPI PUSH0 PUSH1 0x2 DUP2 GT ISZERO PUSH2 0xC4E JUMPI PUSH2 0xC4D PUSH2 0x2012 JUMP JUMPDEST JUMPDEST DUP4 PUSH1 0x20 ADD MLOAD PUSH1 0x2 DUP2 GT ISZERO PUSH2 0xC65 JUMPI PUSH2 0xC64 PUSH2 0x2012 JUMP JUMPDEST JUMPDEST SUB PUSH2 0xC9C JUMPI PUSH1 0x40 MLOAD PUSH32 0xA80D31F700000000000000000000000000000000000000000000000000000000 DUP2 MSTORE PUSH1 0x4 ADD PUSH1 0x40 MLOAD DUP1 SWAP2 SUB SWAP1 REVERT JUMPDEST PUSH2 0xCE4 PUSH1 0x40 MLOAD DUP1 PUSH1 0x40 ADD PUSH1 0x40 MSTORE DUP1 PUSH1 0xF DUP2 MSTORE PUSH1 0x20 ADD PUSH32 0x736563726574734C6F636174696F6E0000000000000000000000000000000000 DUP2 MSTORE POP DUP3 PUSH2 0x110A SWAP1 SWAP2 SWAP1 PUSH4 0xFFFFFFFF AND JUMP JUMPDEST PUSH2 0xD0D DUP4 PUSH1 0x20 ADD MLOAD PUSH1 0x2 DUP2 GT ISZERO PUSH2 0xCFE JUMPI PUSH2 0xCFD PUSH2 0x2012 JUMP JUMPDEST JUMPDEST DUP3 PUSH2 0x1132 SWAP1 SWAP2 SWAP1 PUSH4 0xFFFFFFFF AND JUMP JUMPDEST PUSH2 0xD55 PUSH1 0x40 MLOAD DUP1 PUSH1 0x40 ADD PUSH1 0x40 MSTORE DUP1 PUSH1 0x7 DUP2 MSTORE PUSH1 0x20 ADD PUSH32 0x7365637265747300000000000000000000000000000000000000000000000000 DUP2 MSTORE POP DUP3 PUSH2 0x110A SWAP1 SWAP2 SWAP1 PUSH4 0xFFFFFFFF AND JUMP JUMPDEST PUSH2 0xD6C DUP4 PUSH1 0x80 ADD MLOAD DUP3 PUSH2 0x11D1 SWAP1 SWAP2 SWAP1 PUSH4 0xFFFFFFFF AND JUMP JUMPDEST JUMPDEST PUSH0 DUP4 PUSH1 0xC0 ADD MLOAD MLOAD GT ISZERO PUSH2 0xE27 JUMPI PUSH2 0xDC2 PUSH1 0x40 MLOAD DUP1 PUSH1 0x40 ADD PUSH1 0x40 MSTORE DUP1 PUSH1 0x9 DUP2 MSTORE PUSH1 0x20 ADD PUSH32 0x6279746573417267730000000000000000000000000000000000000000000000 DUP2 MSTORE POP DUP3 PUSH2 0x110A SWAP1 SWAP2 SWAP1 PUSH4 0xFFFFFFFF AND JUMP JUMPDEST PUSH2 0xDCB DUP2 PUSH2 0x1181 JUMP JUMPDEST PUSH0 JUMPDEST DUP4 PUSH1 0xC0 ADD MLOAD MLOAD DUP2 LT ISZERO PUSH2 0xE1C JUMPI PUSH2 0xE0B DUP5 PUSH1 0xC0 ADD MLOAD DUP3 DUP2 MLOAD DUP2 LT PUSH2 0xDF4 JUMPI PUSH2 0xDF3 PUSH2 0x203F JUMP JUMPDEST JUMPDEST PUSH1 0x20 MUL PUSH1 0x20 ADD ADD MLOAD DUP4 PUSH2 0x11D1 SWAP1 SWAP2 SWAP1 PUSH4 0xFFFFFFFF AND JUMP JUMPDEST DUP1 PUSH2 0xE15 SWAP1 PUSH2 0x206C JUMP JUMPDEST SWAP1 POP PUSH2 0xDCD JUMP JUMPDEST POP PUSH2 0xE26 DUP2 PUSH2 0x11A9 JUMP JUMPDEST JUMPDEST DUP1 PUSH0 ADD MLOAD PUSH0 ADD MLOAD SWAP2 POP POP SWAP2 SWAP1 POP JUMP JUMPDEST PUSH0 DUP1 PUSH32 0x0 PUSH20 0xFFFFFFFFFFFFFFFFFFFFFFFFFFFFFFFFFFFFFFFF AND PUSH4 0x461D2762 DUP7 DUP9 PUSH1 0x1 DUP9 DUP9 PUSH1 0x40 MLOAD DUP7 PUSH4 0xFFFFFFFF AND PUSH1 0xE0 SHL DUP2 MSTORE PUSH1 0x4 ADD PUSH2 0xE9A SWAP6 SWAP5 SWAP4 SWAP3 SWAP2 SWAP1 PUSH2 0x20CF JUMP JUMPDEST PUSH1 0x20 PUSH1 0x40 MLOAD DUP1 DUP4 SUB DUP2 PUSH0 DUP8 GAS CALL ISZERO DUP1 ISZERO PUSH2 0xEB6 JUMPI RETURNDATASIZE PUSH0 DUP1 RETURNDATACOPY RETURNDATASIZE PUSH0 REVERT JUMPDEST POP POP POP POP PUSH1 0x40 MLOAD RETURNDATASIZE PUSH1 0x1F NOT PUSH1 0x1F DUP3 ADD AND DUP3 ADD DUP1 PUSH1 0x40 MSTORE POP DUP2 ADD SWAP1 PUSH2 0xEDA SWAP2 SWAP1 PUSH2 0x213B JUMP JUMPDEST SWAP1 POP DUP1 PUSH32 0x1131472297A800FEE664D1D89CFA8F7676FF07189ECC53F80BBB5F4969099DB8 PUSH1 0x40 MLOAD PUSH1 0x40 MLOAD DUP1 SWAP2 SUB SWAP1 LOG2 DUP1 SWAP2 POP POP SWAP5 SWAP4 POP POP POP POP JUMP JUMPDEST CALLER PUSH20 0xFFFFFFFFFFFFFFFFFFFFFFFFFFFFFFFFFFFFFFFF AND DUP2 PUSH20 0xFFFFFFFFFFFFFFFFFFFFFFFFFFFFFFFFFFFFFFFF AND SUB PUSH2 0xF83 JUMPI PUSH1 0x40 MLOAD PUSH32 0x8C379A000000000000000000000000000000000000000000000000000000000 DUP2 MSTORE PUSH1 0x4 ADD PUSH2 0xF7A SWAP1 PUSH2 0x21B0 JUMP JUMPDEST PUSH1 0x40 MLOAD DUP1 SWAP2 SUB SWAP1 REVERT JUMPDEST DUP1 PUSH1 0x1 PUSH0 PUSH2 0x100 EXP DUP2 SLOAD DUP2 PUSH20 0xFFFFFFFFFFFFFFFFFFFFFFFFFFFFFFFFFFFFFFFF MUL NOT AND SWAP1 DUP4 PUSH20 0xFFFFFFFFFFFFFFFFFFFFFFFFFFFFFFFFFFFFFFFF AND MUL OR SWAP1 SSTORE POP DUP1 PUSH20 0xFFFFFFFFFFFFFFFFFFFFFFFFFFFFFFFFFFFFFFFF AND PUSH0 DUP1 SLOAD SWAP1 PUSH2 0x100 EXP SWAP1 DIV PUSH20 0xFFFFFFFFFFFFFFFFFFFFFFFFFFFFFFFFFFFFFFFF AND PUSH20 0xFFFFFFFFFFFFFFFFFFFFFFFFFFFFFFFFFFFFFFFF AND PUSH32 0xED8889F560326EB138920D842192F0EB3DD22B4F139C87A2C57538E05BAE1278 PUSH1 0x40 MLOAD PUSH1 0x40 MLOAD DUP1 SWAP2 SUB SWAP1 LOG3 POP JUMP JUMPDEST PUSH0 DUP2 MLOAD SUB PUSH2 0x1079 JUMPI PUSH1 0x40 MLOAD PUSH32 0x22CE3EDD00000000000000000000000000000000000000000000000000000000 DUP2 MSTORE PUSH1 0x4 ADD PUSH1 0x40 MLOAD DUP1 SWAP2 SUB SWAP1 REVERT JUMPDEST DUP3 DUP5 PUSH0 ADD SWAP1 PUSH1 0x2 DUP2 GT ISZERO PUSH2 0x1090 JUMPI PUSH2 0x108F PUSH2 0x2012 JUMP JUMPDEST JUMPDEST SWAP1 DUP2 PUSH1 0x2 DUP2 GT ISZERO PUSH2 0x10A4 JUMPI PUSH2 0x10A3 PUSH2 0x2012 JUMP JUMPDEST JUMPDEST DUP2 MSTORE POP POP DUP2 DUP5 PUSH1 0x40 ADD SWAP1 PUSH0 DUP2 GT ISZERO PUSH2 0x10BF JUMPI PUSH2 0x10BE PUSH2 0x2012 JUMP JUMPDEST JUMPDEST SWAP1 DUP2 PUSH0 DUP2 GT ISZERO PUSH2 0x10D2 JUMPI PUSH2 0x10D1 PUSH2 0x2012 JUMP JUMPDEST JUMPDEST DUP2 MSTORE POP POP DUP1 DUP5 PUSH1 0x60 ADD DUP2 SWAP1 MSTORE POP POP POP POP POP JUMP JUMPDEST PUSH2 0x10ED PUSH2 0x16AE JUMP JUMPDEST PUSH2 0x10FA DUP2 PUSH0 ADD MLOAD DUP4 PUSH2 0x11F9 JUMP JUMPDEST POP PUSH0 DUP2 PUSH1 0x20 ADD DUP2 DUP2 MSTORE POP POP SWAP2 SWAP1 POP JUMP JUMPDEST PUSH2 0x1117 DUP3 PUSH1 0x3 DUP4 MLOAD PUSH2 0x126F JUMP JUMPDEST PUSH2 0x112D DUP2 DUP4 PUSH0 ADD MLOAD PUSH2 0x140F SWAP1 SWAP2 SWAP1 PUSH4 0xFFFFFFFF AND JUMP JUMPDEST POP POP POP JUMP JUMPDEST PUSH2 0x1153 PUSH1 0x2 PUSH1 0x5 PUSH1 0x6 PUSH1 0xFF AND SWAP1 SHL OR DUP4 PUSH0 ADD MLOAD PUSH2 0x142B SWAP1 SWAP2 SWAP1 PUSH4 0xFFFFFFFF AND JUMP JUMPDEST POP PUSH2 0x117D DUP3 DUP3 PUSH1 0x40 MLOAD PUSH1 0x20 ADD PUSH2 0x1169 SWAP2 SWAP1 PUSH2 0x1B0D JUMP JUMPDEST PUSH1 0x40 MLOAD PUSH1 0x20 DUP2 DUP4 SUB SUB DUP2 MSTORE SWAP1 PUSH1 0x40 MSTORE PUSH2 0x11D1 JUMP JUMPDEST POP POP JUMP JUMPDEST PUSH2 0x118C DUP2 PUSH1 0x4 PUSH2 0x1492 JUMP JUMPDEST PUSH1 0x1 DUP2 PUSH1 0x20 ADD DUP2 DUP2 MLOAD PUSH2 0x119F SWAP2 SWAP1 PUSH2 0x21CE JUMP JUMPDEST SWAP2 POP DUP2 DUP2 MSTORE POP POP POP JUMP JUMPDEST PUSH2 0x11B4 DUP2 PUSH1 0x7 PUSH2 0x1492 JUMP JUMPDEST PUSH1 0x1 DUP2 PUSH1 0x20 ADD DUP2 DUP2 MLOAD PUSH2 0x11C7 SWAP2 SWAP1 PUSH2 0x1E01 JUMP JUMPDEST SWAP2 POP DUP2 DUP2 MSTORE POP POP POP JUMP JUMPDEST PUSH2 0x11DE DUP3 PUSH1 0x2 DUP4 MLOAD PUSH2 0x126F JUMP JUMPDEST PUSH2 0x11F4 DUP2 DUP4 PUSH0 ADD MLOAD PUSH2 0x140F SWAP1 SWAP2 SWAP1 PUSH4 0xFFFFFFFF AND JUMP JUMPDEST POP POP POP JUMP JUMPDEST PUSH2 0x1201 PUSH2 0x16CD JUMP JUMPDEST PUSH0 PUSH1 0x20 DUP4 PUSH2 0x120F SWAP2 SWAP1 PUSH2 0x2201 JUMP JUMPDEST EQ PUSH2 0x123B JUMPI PUSH1 0x20 DUP3 PUSH2 0x1221 SWAP2 SWAP1 PUSH2 0x2201 JUMP JUMPDEST PUSH1 0x20 PUSH2 0x122D SWAP2 SWAP1 PUSH2 0x1E01 JUMP JUMPDEST DUP3 PUSH2 0x1238 SWAP2 SWAP1 PUSH2 0x21CE JUMP JUMPDEST SWAP2 POP JUMPDEST DUP2 DUP4 PUSH1 0x20 ADD DUP2 DUP2 MSTORE POP POP PUSH1 0x40 MLOAD DUP1 DUP5 MSTORE PUSH0 DUP2 MSTORE DUP3 DUP2 ADD PUSH1 0x20 ADD DUP2 DUP2 LT ISZERO PUSH2 0x1260 JUMPI PUSH0 DUP1 REVERT JUMPDEST DUP1 PUSH1 0x40 MSTORE POP POP DUP3 SWAP1 POP SWAP3 SWAP2 POP POP JUMP JUMPDEST PUSH1 0x17 DUP2 PUSH8 0xFFFFFFFFFFFFFFFF AND GT PUSH2 0x12A9 JUMPI PUSH2 0x12A3 DUP2 PUSH1 0x5 DUP5 PUSH1 0xFF AND SWAP1 SHL PUSH1 0xFF AND OR DUP5 PUSH0 ADD MLOAD PUSH2 0x142B SWAP1 SWAP2 SWAP1 PUSH4 0xFFFFFFFF AND JUMP JUMPDEST POP PUSH2 0x140A JUMP JUMPDEST PUSH1 0xFF DUP2 PUSH8 0xFFFFFFFFFFFFFFFF AND GT PUSH2 0x1305 JUMPI PUSH2 0x12DB PUSH1 0x18 PUSH1 0x5 DUP5 PUSH1 0xFF AND SWAP1 SHL OR DUP5 PUSH0 ADD MLOAD PUSH2 0x142B SWAP1 SWAP2 SWAP1 PUSH4 0xFFFFFFFF AND JUMP JUMPDEST POP PUSH2 0x12FF DUP2 PUSH8 0xFFFFFFFFFFFFFFFF AND PUSH1 0x1 DUP6 PUSH0 ADD MLOAD PUSH2 0x14B7 SWAP1 SWAP3 SWAP2 SWAP1 PUSH4 0xFFFFFFFF AND JUMP JUMPDEST POP PUSH2 0x1409 JUMP JUMPDEST PUSH2 0xFFFF DUP2 PUSH8 0xFFFFFFFFFFFFFFFF AND GT PUSH2 0x1362 JUMPI PUSH2 0x1338 PUSH1 0x19 PUSH1 0x5 DUP5 PUSH1 0xFF AND SWAP1 SHL OR DUP5 PUSH0 ADD MLOAD PUSH2 0x142B SWAP1 SWAP2 SWAP1 PUSH4 0xFFFFFFFF AND JUMP JUMPDEST POP PUSH2 0x135C DUP2 PUSH8 0xFFFFFFFFFFFFFFFF AND PUSH1 0x2 DUP6 PUSH0 ADD MLOAD PUSH2 0x14B7 SWAP1 SWAP3 SWAP2 SWAP1 PUSH4 0xFFFFFFFF AND JUMP JUMPDEST POP PUSH2 0x1408 JUMP JUMPDEST PUSH4 0xFFFFFFFF DUP2 PUSH8 0xFFFFFFFFFFFFFFFF AND GT PUSH2 0x13C1 JUMPI PUSH2 0x1397 PUSH1 0x1A PUSH1 0x5 DUP5 PUSH1 0xFF AND SWAP1 SHL OR DUP5 PUSH0 ADD MLOAD PUSH2 0x142B SWAP1 SWAP2 SWAP1 PUSH4 0xFFFFFFFF AND JUMP JUMPDEST POP PUSH2 0x13BB DUP2 PUSH8 0xFFFFFFFFFFFFFFFF AND PUSH1 0x4 DUP6 PUSH0 ADD MLOAD PUSH2 0x14B7 SWAP1 SWAP3 SWAP2 SWAP1 PUSH4 0xFFFFFFFF AND JUMP JUMPDEST POP PUSH2 0x1407 JUMP JUMPDEST PUSH2 0x13E1 PUSH1 0x1B PUSH1 0x5 DUP5 PUSH1 0xFF AND SWAP1 SHL OR DUP5 PUSH0 ADD MLOAD PUSH2 0x142B SWAP1 SWAP2 SWAP1 PUSH4 0xFFFFFFFF AND JUMP JUMPDEST POP PUSH2 0x1405 DUP2 PUSH8 0xFFFFFFFFFFFFFFFF AND PUSH1 0x8 DUP6 PUSH0 ADD MLOAD PUSH2 0x14B7 SWAP1 SWAP3 SWAP2 SWAP1 PUSH4 0xFFFFFFFF AND JUMP JUMPDEST POP JUMPDEST JUMPDEST JUMPDEST JUMPDEST POP POP POP JUMP JUMPDEST PUSH2 0x1417 PUSH2 0x16CD JUMP JUMPDEST PUSH2 0x1423 DUP4 DUP4 DUP5 MLOAD PUSH2 0x1540 JUMP JUMPDEST SWAP1 POP SWAP3 SWAP2 POP POP JUMP JUMPDEST PUSH2 0x1433 PUSH2 0x16CD JUMP JUMPDEST PUSH0 DUP4 PUSH0 ADD MLOAD MLOAD SWAP1 POP PUSH0 PUSH1 0x1 DUP3 PUSH2 0x1449 SWAP2 SWAP1 PUSH2 0x21CE JUMP JUMPDEST SWAP1 POP DUP5 PUSH1 0x20 ADD MLOAD DUP3 LT PUSH2 0x146D JUMPI PUSH2 0x146C DUP6 PUSH1 0x2 DUP4 PUSH2 0x1467 SWAP2 SWAP1 PUSH2 0x1D3C JUMP JUMPDEST PUSH2 0x161D JUMP JUMPDEST JUMPDEST DUP5 MLOAD PUSH1 0x20 DUP4 DUP3 ADD ADD DUP6 DUP2 MSTORE8 DUP2 MLOAD DUP4 GT ISZERO PUSH2 0x1485 JUMPI DUP3 DUP3 MSTORE JUMPDEST POP POP DUP5 SWAP3 POP POP POP SWAP3 SWAP2 POP POP JUMP JUMPDEST PUSH2 0x14B2 PUSH1 0x1F PUSH1 0x5 DUP4 PUSH1 0xFF AND SWAP1 SHL OR DUP4 PUSH0 ADD MLOAD PUSH2 0x142B SWAP1 SWAP2 SWAP1 PUSH4 0xFFFFFFFF AND JUMP JUMPDEST POP POP POP JUMP JUMPDEST PUSH2 0x14BF PUSH2 0x16CD JUMP JUMPDEST PUSH0 DUP5 PUSH0 ADD MLOAD MLOAD SWAP1 POP PUSH0 DUP2 DUP5 PUSH2 0x14D4 SWAP2 SWAP1 PUSH2 0x21CE JUMP JUMPDEST SWAP1 POP DUP6 PUSH1 0x20 ADD MLOAD DUP2 GT ISZERO PUSH2 0x14F9 JUMPI PUSH2 0x14F8 DUP7 PUSH1 0x2 DUP4 PUSH2 0x14F3 SWAP2 SWAP1 PUSH2 0x1D3C JUMP JUMPDEST PUSH2 0x161D JUMP JUMPDEST JUMPDEST PUSH0 PUSH1 0x1 DUP6 PUSH2 0x100 PUSH2 0x150A SWAP2 SWAP1 PUSH2 0x2360 JUMP JUMPDEST PUSH2 0x1514 SWAP2 SWAP1 PUSH2 0x1E01 JUMP JUMPDEST SWAP1 POP DUP7 MLOAD DUP3 DUP2 ADD DUP8 DUP4 NOT DUP3 MLOAD AND OR DUP2 MSTORE DUP2 MLOAD DUP5 GT ISZERO PUSH2 0x1531 JUMPI DUP4 DUP3 MSTORE JUMPDEST POP POP DUP7 SWAP4 POP POP POP POP SWAP4 SWAP3 POP POP POP JUMP JUMPDEST PUSH2 0x1548 PUSH2 0x16CD JUMP JUMPDEST DUP3 MLOAD DUP3 GT ISZERO PUSH2 0x1555 JUMPI PUSH0 DUP1 REVERT JUMPDEST PUSH0 DUP5 PUSH0 ADD MLOAD MLOAD SWAP1 POP PUSH0 DUP4 DUP3 PUSH2 0x156A SWAP2 SWAP1 PUSH2 0x21CE JUMP JUMPDEST SWAP1 POP DUP6 PUSH1 0x20 ADD MLOAD DUP2 GT ISZERO PUSH2 0x158F JUMPI PUSH2 0x158E DUP7 PUSH1 0x2 DUP4 PUSH2 0x1589 SWAP2 SWAP1 PUSH2 0x1D3C JUMP JUMPDEST PUSH2 0x161D JUMP JUMPDEST JUMPDEST PUSH0 DUP1 DUP8 MLOAD DUP1 MLOAD DUP6 PUSH1 0x20 DUP4 ADD ADD SWAP4 POP DUP1 DUP6 GT ISZERO PUSH2 0x15A9 JUMPI DUP5 DUP3 MSTORE JUMPDEST PUSH1 0x20 DUP10 ADD SWAP3 POP POP POP JUMPDEST PUSH1 0x20 DUP7 LT PUSH2 0x15F0 JUMPI DUP1 MLOAD DUP3 MSTORE PUSH1 0x20 DUP3 PUSH2 0x15CB SWAP2 SWAP1 PUSH2 0x21CE JUMP JUMPDEST SWAP2 POP PUSH1 0x20 DUP2 PUSH2 0x15DA SWAP2 SWAP1 PUSH2 0x21CE JUMP JUMPDEST SWAP1 POP PUSH1 0x20 DUP7 PUSH2 0x15E9 SWAP2 SWAP1 PUSH2 0x1E01 JUMP JUMPDEST SWAP6 POP PUSH2 0x15B2 JUMP JUMPDEST PUSH0 PUSH1 0x1 DUP8 PUSH1 0x20 SUB PUSH2 0x100 EXP SUB SWAP1 POP DUP1 NOT DUP3 MLOAD AND DUP2 DUP5 MLOAD AND DUP2 DUP2 OR DUP6 MSTORE POP POP POP DUP8 SWAP5 POP POP POP POP POP SWAP4 SWAP3 POP POP POP JUMP JUMPDEST PUSH0 DUP3 PUSH0 ADD MLOAD SWAP1 POP PUSH2 0x162E DUP4 DUP4 PUSH2 0x11F9 JUMP JUMPDEST POP PUSH2 0x1639 DUP4 DUP3 PUSH2 0x140F JUMP JUMPDEST POP POP POP POP JUMP JUMPDEST PUSH1 0x40 MLOAD DUP1 PUSH1 0xE0 ADD PUSH1 0x40 MSTORE DUP1 PUSH0 PUSH1 0x2 DUP2 GT ISZERO PUSH2 0x165D JUMPI PUSH2 0x165C PUSH2 0x2012 JUMP JUMPDEST JUMPDEST DUP2 MSTORE PUSH1 0x20 ADD PUSH0 PUSH1 0x2 DUP2 GT ISZERO PUSH2 0x1675 JUMPI PUSH2 0x1674 PUSH2 0x2012 JUMP JUMPDEST JUMPDEST DUP2 MSTORE PUSH1 0x20 ADD PUSH0 DUP1 DUP2 GT ISZERO PUSH2 0x168C JUMPI PUSH2 0x168B PUSH2 0x2012 JUMP JUMPDEST JUMPDEST DUP2 MSTORE PUSH1 0x20 ADD PUSH1 0x60 DUP2 MSTORE PUSH1 0x20 ADD PUSH1 0x60 DUP2 MSTORE PUSH1 0x20 ADD PUSH1 0x60 DUP2 MSTORE PUSH1 0x20 ADD PUSH1 0x60 DUP2 MSTORE POP SWAP1 JUMP JUMPDEST PUSH1 0x40 MLOAD DUP1 PUSH1 0x40 ADD PUSH1 0x40 MSTORE DUP1 PUSH2 0x16C1 PUSH2 0x16CD JUMP JUMPDEST DUP2 MSTORE PUSH1 0x20 ADD PUSH0 DUP2 MSTORE POP SWAP1 JUMP JUMPDEST PUSH1 0x40 MLOAD DUP1 PUSH1 0x40 ADD PUSH1 0x40 MSTORE DUP1 PUSH1 0x60 DUP2 MSTORE PUSH1 0x20 ADD PUSH0 DUP2 MSTORE POP SWAP1 JUMP JUMPDEST PUSH0 PUSH1 0x40 MLOAD SWAP1 POP SWAP1 JUMP JUMPDEST PUSH0 DUP1 REVERT JUMPDEST PUSH0 DUP1 REVERT JUMPDEST PUSH0 DUP2 SWAP1 POP SWAP2 SWAP1 POP JUMP JUMPDEST PUSH2 0x1709 DUP2 PUSH2 0x16F7 JUMP JUMPDEST DUP2 EQ PUSH2 0x1713 JUMPI PUSH0 DUP1 REVERT JUMPDEST POP JUMP JUMPDEST PUSH0 DUP2 CALLDATALOAD SWAP1 POP PUSH2 0x1724 DUP2 PUSH2 0x1700 JUMP JUMPDEST SWAP3 SWAP2 POP POP JUMP JUMPDEST PUSH0 PUSH1 0x20 DUP3 DUP5 SUB SLT ISZERO PUSH2 0x173F JUMPI PUSH2 0x173E PUSH2 0x16EF JUMP JUMPDEST JUMPDEST PUSH0 PUSH2 0x174C DUP5 DUP3 DUP6 ADD PUSH2 0x1716 JUMP JUMPDEST SWAP2 POP POP SWAP3 SWAP2 POP POP JUMP JUMPDEST PUSH0 PUSH8 0xFFFFFFFFFFFFFFFF DUP3 AND SWAP1 POP SWAP2 SWAP1 POP JUMP JUMPDEST PUSH2 0x1771 DUP2 PUSH2 0x1755 JUMP JUMPDEST DUP3 MSTORE POP POP JUMP JUMPDEST PUSH0 PUSH1 0x20 DUP3 ADD SWAP1 POP PUSH2 0x178A PUSH0 DUP4 ADD DUP5 PUSH2 0x1768 JUMP JUMPDEST SWAP3 SWAP2 POP POP JUMP JUMPDEST PUSH0 DUP2 SWAP1 POP SWAP2 SWAP1 POP JUMP JUMPDEST PUSH2 0x17A2 DUP2 PUSH2 0x1790 JUMP JUMPDEST DUP2 EQ PUSH2 0x17AC JUMPI PUSH0 DUP1 REVERT JUMPDEST POP JUMP JUMPDEST PUSH0 DUP2 CALLDATALOAD SWAP1 POP PUSH2 0x17BD DUP2 PUSH2 0x1799 JUMP JUMPDEST SWAP3 SWAP2 POP POP JUMP JUMPDEST PUSH0 DUP1 REVERT JUMPDEST PUSH0 DUP1 REVERT JUMPDEST PUSH0 PUSH1 0x1F NOT PUSH1 0x1F DUP4 ADD AND SWAP1 POP SWAP2 SWAP1 POP JUMP JUMPDEST PUSH32 0x4E487B7100000000000000000000000000000000000000000000000000000000 PUSH0 MSTORE PUSH1 0x41 PUSH1 0x4 MSTORE PUSH1 0x24 PUSH0 REVERT JUMPDEST PUSH2 0x1811 DUP3 PUSH2 0x17CB JUMP JUMPDEST DUP2 ADD DUP2 DUP2 LT PUSH8 0xFFFFFFFFFFFFFFFF DUP3 GT OR ISZERO PUSH2 0x1830 JUMPI PUSH2 0x182F PUSH2 0x17DB JUMP JUMPDEST JUMPDEST DUP1 PUSH1 0x40 MSTORE POP POP POP JUMP JUMPDEST PUSH0 PUSH2 0x1842 PUSH2 0x16E6 JUMP JUMPDEST SWAP1 POP PUSH2 0x184E DUP3 DUP3 PUSH2 0x1808 JUMP JUMPDEST SWAP2 SWAP1 POP JUMP JUMPDEST PUSH0 PUSH8 0xFFFFFFFFFFFFFFFF DUP3 GT ISZERO PUSH2 0x186D JUMPI PUSH2 0x186C PUSH2 0x17DB JUMP JUMPDEST JUMPDEST PUSH2 0x1876 DUP3 PUSH2 0x17CB JUMP JUMPDEST SWAP1 POP PUSH1 0x20 DUP2 ADD SWAP1 POP SWAP2 SWAP1 POP JUMP JUMPDEST DUP3 DUP2 DUP4 CALLDATACOPY PUSH0 DUP4 DUP4 ADD MSTORE POP POP POP JUMP JUMPDEST PUSH0 PUSH2 0x18A3 PUSH2 0x189E DUP5 PUSH2 0x1853 JUMP JUMPDEST PUSH2 0x1839 JUMP JUMPDEST SWAP1 POP DUP3 DUP2 MSTORE PUSH1 0x20 DUP2 ADD DUP5 DUP5 DUP5 ADD GT ISZERO PUSH2 0x18BF JUMPI PUSH2 0x18BE PUSH2 0x17C7 JUMP JUMPDEST JUMPDEST PUSH2 0x18CA DUP5 DUP3 DUP6 PUSH2 0x1883 JUMP JUMPDEST POP SWAP4 SWAP3 POP POP POP JUMP JUMPDEST PUSH0 DUP3 PUSH1 0x1F DUP4 ADD SLT PUSH2 0x18E6 JUMPI PUSH2 0x18E5 PUSH2 0x17C3 JUMP JUMPDEST JUMPDEST DUP2 CALLDATALOAD PUSH2 0x18F6 DUP5 DUP3 PUSH1 0x20 DUP7 ADD PUSH2 0x1891 JUMP JUMPDEST SWAP2 POP POP SWAP3 SWAP2 POP POP JUMP JUMPDEST PUSH0 DUP1 PUSH0 PUSH1 0x60 DUP5 DUP7 SUB SLT ISZERO PUSH2 0x1916 JUMPI PUSH2 0x1915 PUSH2 0x16EF JUMP JUMPDEST JUMPDEST PUSH0 PUSH2 0x1923 DUP7 DUP3 DUP8 ADD PUSH2 0x17AF JUMP JUMPDEST SWAP4 POP POP PUSH1 0x20 DUP5 ADD CALLDATALOAD PUSH8 0xFFFFFFFFFFFFFFFF DUP2 GT ISZERO PUSH2 0x1944 JUMPI PUSH2 0x1943 PUSH2 0x16F3 JUMP JUMPDEST JUMPDEST PUSH2 0x1950 DUP7 DUP3 DUP8 ADD PUSH2 0x18D2 JUMP JUMPDEST SWAP3 POP POP PUSH1 0x40 DUP5 ADD CALLDATALOAD PUSH8 0xFFFFFFFFFFFFFFFF DUP2 GT ISZERO PUSH2 0x1971 JUMPI PUSH2 0x1970 PUSH2 0x16F3 JUMP JUMPDEST JUMPDEST PUSH2 0x197D DUP7 DUP3 DUP8 ADD PUSH2 0x18D2 JUMP JUMPDEST SWAP2 POP POP SWAP3 POP SWAP3 POP SWAP3 JUMP JUMPDEST PUSH2 0x1990 DUP2 PUSH2 0x16F7 JUMP JUMPDEST DUP3 MSTORE POP POP JUMP JUMPDEST PUSH0 DUP2 MLOAD SWAP1 POP SWAP2 SWAP1 POP JUMP JUMPDEST PUSH0 DUP3 DUP3 MSTORE PUSH1 0x20 DUP3 ADD SWAP1 POP SWAP3 SWAP2 POP POP JUMP JUMPDEST PUSH0 JUMPDEST DUP4 DUP2 LT ISZERO PUSH2 0x19CD JUMPI DUP1 DUP3 ADD MLOAD DUP2 DUP5 ADD MSTORE PUSH1 0x20 DUP2 ADD SWAP1 POP PUSH2 0x19B2 JUMP JUMPDEST PUSH0 DUP5 DUP5 ADD MSTORE POP POP POP POP JUMP JUMPDEST PUSH0 PUSH2 0x19E2 DUP3 PUSH2 0x1996 JUMP JUMPDEST PUSH2 0x19EC DUP2 DUP6 PUSH2 0x19A0 JUMP JUMPDEST SWAP4 POP PUSH2 0x19FC DUP2 DUP6 PUSH1 0x20 DUP7 ADD PUSH2 0x19B0 JUMP JUMPDEST PUSH2 0x1A05 DUP2 PUSH2 0x17CB JUMP JUMPDEST DUP5 ADD SWAP2 POP POP SWAP3 SWAP2 POP POP JUMP JUMPDEST PUSH0 PUSH1 0x80 DUP3 ADD SWAP1 POP PUSH2 0x1A23 PUSH0 DUP4 ADD DUP8 PUSH2 0x1987 JUMP JUMPDEST PUSH2 0x1A30 PUSH1 0x20 DUP4 ADD DUP7 PUSH2 0x1987 JUMP JUMPDEST PUSH2 0x1A3D PUSH1 0x40 DUP4 ADD DUP6 PUSH2 0x1987 JUMP JUMPDEST DUP2 DUP2 SUB PUSH1 0x60 DUP4 ADD MSTORE PUSH2 0x1A4F DUP2 DUP5 PUSH2 0x19D8 JUMP JUMPDEST SWAP1 POP SWAP6 SWAP5 POP POP POP POP POP JUMP JUMPDEST PUSH0 DUP2 ISZERO ISZERO SWAP1 POP SWAP2 SWAP1 POP JUMP JUMPDEST PUSH2 0x1A6E DUP2 PUSH2 0x1A5A JUMP JUMPDEST DUP3 MSTORE POP POP JUMP JUMPDEST PUSH0 PUSH1 0x20 DUP3 ADD SWAP1 POP PUSH2 0x1A87 PUSH0 DUP4 ADD DUP5 PUSH2 0x1A65 JUMP JUMPDEST SWAP3 SWAP2 POP POP JUMP JUMPDEST PUSH2 0x1A96 DUP2 PUSH2 0x1790 JUMP JUMPDEST DUP3 MSTORE POP POP JUMP JUMPDEST PUSH0 PUSH1 0x20 DUP3 ADD SWAP1 POP PUSH2 0x1AAF PUSH0 DUP4 ADD DUP5 PUSH2 0x1A8D JUMP JUMPDEST SWAP3 SWAP2 POP POP JUMP JUMPDEST PUSH0 PUSH20 0xFFFFFFFFFFFFFFFFFFFFFFFFFFFFFFFFFFFFFFFF DUP3 AND SWAP1 POP SWAP2 SWAP1 POP JUMP JUMPDEST PUSH0 PUSH2 0x1ADE DUP3 PUSH2 0x1AB5 JUMP JUMPDEST SWAP1 POP SWAP2 SWAP1 POP JUMP JUMPDEST PUSH2 0x1AEE DUP2 PUSH2 0x1AD4 JUMP JUMPDEST DUP3 MSTORE POP POP JUMP JUMPDEST PUSH0 PUSH1 0x20 DUP3 ADD SWAP1 POP PUSH2 0x1B07 PUSH0 DUP4 ADD DUP5 PUSH2 0x1AE5 JUMP JUMPDEST SWAP3 SWAP2 POP POP JUMP JUMPDEST PUSH0 PUSH1 0x20 DUP3 ADD SWAP1 POP PUSH2 0x1B20 PUSH0 DUP4 ADD DUP5 PUSH2 0x1987 JUMP JUMPDEST SWAP3 SWAP2 POP POP JUMP JUMPDEST PUSH0 PUSH1 0xA0 DUP3 ADD SWAP1 POP PUSH2 0x1B39 PUSH0 DUP4 ADD DUP9 PUSH2 0x1987 JUMP JUMPDEST PUSH2 0x1B46 PUSH1 0x20 DUP4 ADD DUP8 PUSH2 0x1987 JUMP JUMPDEST PUSH2 0x1B53 PUSH1 0x40 DUP4 ADD DUP7 PUSH2 0x1987 JUMP JUMPDEST PUSH2 0x1B60 PUSH1 0x60 DUP4 ADD DUP6 PUSH2 0x1987 JUMP JUMPDEST PUSH2 0x1B6D PUSH1 0x80 DUP4 ADD DUP5 PUSH2 0x1A8D JUMP JUMPDEST SWAP7 SWAP6 POP POP POP POP POP POP JUMP JUMPDEST PUSH2 0x1B80 DUP2 PUSH2 0x1755 JUMP JUMPDEST DUP2 EQ PUSH2 0x1B8A JUMPI PUSH0 DUP1 REVERT JUMPDEST POP JUMP JUMPDEST PUSH0 DUP2 CALLDATALOAD SWAP1 POP PUSH2 0x1B9B DUP2 PUSH2 0x1B77 JUMP JUMPDEST SWAP3 SWAP2 POP POP JUMP JUMPDEST PUSH0 PUSH4 0xFFFFFFFF DUP3 AND SWAP1 POP SWAP2 SWAP1 POP JUMP JUMPDEST PUSH2 0x1BB9 DUP2 PUSH2 0x1BA1 JUMP JUMPDEST DUP2 EQ PUSH2 0x1BC3 JUMPI PUSH0 DUP1 REVERT JUMPDEST POP JUMP JUMPDEST PUSH0 DUP2 CALLDATALOAD SWAP1 POP PUSH2 0x1BD4 DUP2 PUSH2 0x1BB0 JUMP JUMPDEST SWAP3 SWAP2 POP POP JUMP JUMPDEST PUSH0 DUP1 PUSH0 PUSH1 0x60 DUP5 DUP7 SUB SLT ISZERO PUSH2 0x1BF1 JUMPI PUSH2 0x1BF0 PUSH2 0x16EF JUMP JUMPDEST JUMPDEST PUSH0 PUSH2 0x1BFE DUP7 DUP3 DUP8 ADD PUSH2 0x1B8D JUMP JUMPDEST SWAP4 POP POP PUSH1 0x20 PUSH2 0x1C0F DUP7 DUP3 DUP8 ADD PUSH2 0x1BC6 JUMP JUMPDEST SWAP3 POP POP PUSH1 0x40 PUSH2 0x1C20 DUP7 DUP3 DUP8 ADD PUSH2 0x17AF JUMP JUMPDEST SWAP2 POP POP SWAP3 POP SWAP3 POP SWAP3 JUMP JUMPDEST PUSH2 0x1C33 DUP2 PUSH2 0x1AD4 JUMP JUMPDEST DUP2 EQ PUSH2 0x1C3D JUMPI PUSH0 DUP1 REVERT JUMPDEST POP JUMP JUMPDEST PUSH0 DUP2 CALLDATALOAD SWAP1 POP PUSH2 0x1C4E DUP2 PUSH2 0x1C2A JUMP JUMPDEST SWAP3 SWAP2 POP POP JUMP JUMPDEST PUSH0 PUSH1 0x20 DUP3 DUP5 SUB SLT ISZERO PUSH2 0x1C69 JUMPI PUSH2 0x1C68 PUSH2 0x16EF JUMP JUMPDEST JUMPDEST PUSH0 PUSH2 0x1C76 DUP5 DUP3 DUP6 ADD PUSH2 0x1C40 JUMP JUMPDEST SWAP2 POP POP SWAP3 SWAP2 POP POP JUMP JUMPDEST PUSH2 0x1C88 DUP2 PUSH2 0x1BA1 JUMP JUMPDEST DUP3 MSTORE POP POP JUMP JUMPDEST PUSH0 PUSH1 0x20 DUP3 ADD SWAP1 POP PUSH2 0x1CA1 PUSH0 DUP4 ADD DUP5 PUSH2 0x1C7F JUMP JUMPDEST SWAP3 SWAP2 POP POP JUMP JUMPDEST PUSH32 0x5072696365206D7573742062652067726561746572207468616E203000000000 PUSH0 DUP3 ADD MSTORE POP JUMP JUMPDEST PUSH0 PUSH2 0x1CDB PUSH1 0x1C DUP4 PUSH2 0x19A0 JUMP JUMPDEST SWAP2 POP PUSH2 0x1CE6 DUP3 PUSH2 0x1CA7 JUMP JUMPDEST PUSH1 0x20 DUP3 ADD SWAP1 POP SWAP2 SWAP1 POP JUMP JUMPDEST PUSH0 PUSH1 0x20 DUP3 ADD SWAP1 POP DUP2 DUP2 SUB PUSH0 DUP4 ADD MSTORE PUSH2 0x1D08 DUP2 PUSH2 0x1CCF JUMP JUMPDEST SWAP1 POP SWAP2 SWAP1 POP JUMP JUMPDEST PUSH32 0x4E487B7100000000000000000000000000000000000000000000000000000000 PUSH0 MSTORE PUSH1 0x11 PUSH1 0x4 MSTORE PUSH1 0x24 PUSH0 REVERT JUMPDEST PUSH0 PUSH2 0x1D46 DUP3 PUSH2 0x16F7 JUMP JUMPDEST SWAP2 POP PUSH2 0x1D51 DUP4 PUSH2 0x16F7 JUMP JUMPDEST SWAP3 POP DUP3 DUP3 MUL PUSH2 0x1D5F DUP2 PUSH2 0x16F7 JUMP JUMPDEST SWAP2 POP DUP3 DUP3 DIV DUP5 EQ DUP4 ISZERO OR PUSH2 0x1D76 JUMPI PUSH2 0x1D75 PUSH2 0x1D0F JUMP JUMPDEST JUMPDEST POP SWAP3 SWAP2 POP POP JUMP JUMPDEST PUSH0 PUSH1 0x40 DUP3 ADD SWAP1 POP PUSH2 0x1D90 PUSH0 DUP4 ADD DUP6 PUSH2 0x1987 JUMP JUMPDEST PUSH2 0x1D9D PUSH1 0x20 DUP4 ADD DUP5 PUSH2 0x1987 JUMP JUMPDEST SWAP4 SWAP3 POP POP POP JUMP JUMPDEST PUSH32 0x4E487B7100000000000000000000000000000000000000000000000000000000 PUSH0 MSTORE PUSH1 0x12 PUSH1 0x4 MSTORE PUSH1 0x24 PUSH0 REVERT JUMPDEST PUSH0 PUSH2 0x1DDB DUP3 PUSH2 0x16F7 JUMP JUMPDEST SWAP2 POP PUSH2 0x1DE6 DUP4 PUSH2 0x16F7 JUMP JUMPDEST SWAP3 POP DUP3 PUSH2 0x1DF6 JUMPI PUSH2 0x1DF5 PUSH2 0x1DA4 JUMP JUMPDEST JUMPDEST DUP3 DUP3 DIV SWAP1 POP SWAP3 SWAP2 POP POP JUMP JUMPDEST PUSH0 PUSH2 0x1E0B DUP3 PUSH2 0x16F7 JUMP JUMPDEST SWAP2 POP PUSH2 0x1E16 DUP4 PUSH2 0x16F7 JUMP JUMPDEST SWAP3 POP DUP3 DUP3 SUB SWAP1 POP DUP2 DUP2 GT ISZERO PUSH2 0x1E2E JUMPI PUSH2 0x1E2D PUSH2 0x1D0F JUMP JUMPDEST JUMPDEST SWAP3 SWAP2 POP POP JUMP JUMPDEST PUSH32 0x4D7573742062652070726F706F736564206F776E657200000000000000000000 PUSH0 DUP3 ADD MSTORE POP JUMP JUMPDEST PUSH0 PUSH2 0x1E68 PUSH1 0x16 DUP4 PUSH2 0x19A0 JUMP JUMPDEST SWAP2 POP PUSH2 0x1E73 DUP3 PUSH2 0x1E34 JUMP JUMPDEST PUSH1 0x20 DUP3 ADD SWAP1 POP SWAP2 SWAP1 POP JUMP JUMPDEST PUSH0 PUSH1 0x20 DUP3 ADD SWAP1 POP DUP2 DUP2 SUB PUSH0 DUP4 ADD MSTORE PUSH2 0x1E95 DUP2 PUSH2 0x1E5C JUMP JUMPDEST SWAP1 POP SWAP2 SWAP1 POP JUMP JUMPDEST PUSH32 0x4E487B7100000000000000000000000000000000000000000000000000000000 PUSH0 MSTORE PUSH1 0x22 PUSH1 0x4 MSTORE PUSH1 0x24 PUSH0 REVERT JUMPDEST PUSH0 PUSH1 0x2 DUP3 DIV SWAP1 POP PUSH1 0x1 DUP3 AND DUP1 PUSH2 0x1EE0 JUMPI PUSH1 0x7F DUP3 AND SWAP2 POP JUMPDEST PUSH1 0x20 DUP3 LT DUP2 SUB PUSH2 0x1EF3 JUMPI PUSH2 0x1EF2 PUSH2 0x1E9C JUMP JUMPDEST JUMPDEST POP SWAP2 SWAP1 POP JUMP JUMPDEST PUSH32 0x4F6E6C792063616C6C61626C65206279206F776E657200000000000000000000 PUSH0 DUP3 ADD MSTORE POP JUMP JUMPDEST PUSH0 PUSH2 0x1F2D PUSH1 0x16 DUP4 PUSH2 0x19A0 JUMP JUMPDEST SWAP2 POP PUSH2 0x1F38 DUP3 PUSH2 0x1EF9 JUMP JUMPDEST PUSH1 0x20 DUP3 ADD SWAP1 POP SWAP2 SWAP1 POP JUMP JUMPDEST PUSH0 PUSH1 0x20 DUP3 ADD SWAP1 POP DUP2 DUP2 SUB PUSH0 DUP4 ADD MSTORE PUSH2 0x1F5A DUP2 PUSH2 0x1F21 JUMP JUMPDEST SWAP1 POP SWAP2 SWAP1 POP JUMP JUMPDEST PUSH0 DUP2 MLOAD SWAP1 POP SWAP2 SWAP1 POP JUMP JUMPDEST PUSH0 DUP3 DUP3 MSTORE PUSH1 0x20 DUP3 ADD SWAP1 POP SWAP3 SWAP2 POP POP JUMP JUMPDEST PUSH0 PUSH2 0x1F85 DUP3 PUSH2 0x1F61 JUMP JUMPDEST PUSH2 0x1F8F DUP2 DUP6 PUSH2 0x1F6B JUMP JUMPDEST SWAP4 POP PUSH2 0x1F9F DUP2 DUP6 PUSH1 0x20 DUP7 ADD PUSH2 0x19B0 JUMP JUMPDEST PUSH2 0x1FA8 DUP2 PUSH2 0x17CB JUMP JUMPDEST DUP5 ADD SWAP2 POP POP SWAP3 SWAP2 POP POP JUMP JUMPDEST PUSH0 PUSH1 0x20 DUP3 ADD SWAP1 POP DUP2 DUP2 SUB PUSH0 DUP4 ADD MSTORE PUSH2 0x1FCB DUP2 DUP5 PUSH2 0x1F7B JUMP JUMPDEST SWAP1 POP SWAP3 SWAP2 POP POP JUMP JUMPDEST PUSH0 DUP2 MLOAD SWAP1 POP PUSH2 0x1FE1 DUP2 PUSH2 0x1700 JUMP JUMPDEST SWAP3 SWAP2 POP POP JUMP JUMPDEST PUSH0 PUSH1 0x20 DUP3 DUP5 SUB SLT ISZERO PUSH2 0x1FFC JUMPI PUSH2 0x1FFB PUSH2 0x16EF JUMP JUMPDEST JUMPDEST PUSH0 PUSH2 0x2009 DUP5 DUP3 DUP6 ADD PUSH2 0x1FD3 JUMP JUMPDEST SWAP2 POP POP SWAP3 SWAP2 POP POP JUMP JUMPDEST PUSH32 0x4E487B7100000000000000000000000000000000000000000000000000000000 PUSH0 MSTORE PUSH1 0x21 PUSH1 0x4 MSTORE PUSH1 0x24 PUSH0 REVERT JUMPDEST PUSH32 0x4E487B7100000000000000000000000000000000000000000000000000000000 PUSH0 MSTORE PUSH1 0x32 PUSH1 0x4 MSTORE PUSH1 0x24 PUSH0 REVERT JUMPDEST PUSH0 PUSH2 0x2076 DUP3 PUSH2 0x16F7 JUMP JUMPDEST SWAP2 POP PUSH32 0xFFFFFFFFFFFFFFFFFFFFFFFFFFFFFFFFFFFFFFFFFFFFFFFFFFFFFFFFFFFFFFFF DUP3 SUB PUSH2 0x20A8 JUMPI PUSH2 0x20A7 PUSH2 0x1D0F JUMP JUMPDEST JUMPDEST PUSH1 0x1 DUP3 ADD SWAP1 POP SWAP2 SWAP1 POP JUMP JUMPDEST PUSH0 PUSH2 0xFFFF DUP3 AND SWAP1 POP SWAP2 SWAP1 POP JUMP JUMPDEST PUSH2 0x20C9 DUP2 PUSH2 0x20B3 JUMP JUMPDEST DUP3 MSTORE POP POP JUMP JUMPDEST PUSH0 PUSH1 0xA0 DUP3 ADD SWAP1 POP PUSH2 0x20E2 PUSH0 DUP4 ADD DUP9 PUSH2 0x1768 JUMP JUMPDEST DUP2 DUP2 SUB PUSH1 0x20 DUP4 ADD MSTORE PUSH2 0x20F4 DUP2 DUP8 PUSH2 0x1F7B JUMP JUMPDEST SWAP1 POP PUSH2 0x2103 PUSH1 0x40 DUP4 ADD DUP7 PUSH2 0x20C0 JUMP JUMPDEST PUSH2 0x2110 PUSH1 0x60 DUP4 ADD DUP6 PUSH2 0x1C7F JUMP JUMPDEST PUSH2 0x211D PUSH1 0x80 DUP4 ADD DUP5 PUSH2 0x1A8D JUMP JUMPDEST SWAP7 SWAP6 POP POP POP POP POP POP JUMP JUMPDEST PUSH0 DUP2 MLOAD SWAP1 POP PUSH2 0x2135 DUP2 PUSH2 0x1799 JUMP JUMPDEST SWAP3 SWAP2 POP POP JUMP JUMPDEST PUSH0 PUSH1 0x20 DUP3 DUP5 SUB SLT ISZERO PUSH2 0x2150 JUMPI PUSH2 0x214F PUSH2 0x16EF JUMP JUMPDEST JUMPDEST PUSH0 PUSH2 0x215D DUP5 DUP3 DUP6 ADD PUSH2 0x2127 JUMP JUMPDEST SWAP2 POP POP SWAP3 SWAP2 POP POP JUMP JUMPDEST PUSH32 0x43616E6E6F74207472616E7366657220746F2073656C66000000000000000000 PUSH0 DUP3 ADD MSTORE POP JUMP JUMPDEST PUSH0 PUSH2 0x219A PUSH1 0x17 DUP4 PUSH2 0x19A0 JUMP JUMPDEST SWAP2 POP PUSH2 0x21A5 DUP3 PUSH2 0x2166 JUMP JUMPDEST PUSH1 0x20 DUP3 ADD SWAP1 POP SWAP2 SWAP1 POP JUMP JUMPDEST PUSH0 PUSH1 0x20 DUP3 ADD SWAP1 POP DUP2 DUP2 SUB PUSH0 DUP4 ADD MSTORE PUSH2 0x21C7 DUP2 PUSH2 0x218E JUMP JUMPDEST SWAP1 POP SWAP2 SWAP1 POP JUMP JUMPDEST PUSH0 PUSH2 0x21D8 DUP3 PUSH2 0x16F7 JUMP JUMPDEST SWAP2 POP PUSH2 0x21E3 DUP4 PUSH2 0x16F7 JUMP JUMPDEST SWAP3 POP DUP3 DUP3 ADD SWAP1 POP DUP1 DUP3 GT ISZERO PUSH2 0x21FB JUMPI PUSH2 0x21FA PUSH2 0x1D0F JUMP JUMPDEST JUMPDEST SWAP3 SWAP2 POP POP JUMP JUMPDEST PUSH0 PUSH2 0x220B DUP3 PUSH2 0x16F7 JUMP JUMPDEST SWAP2 POP PUSH2 0x2216 DUP4 PUSH2 0x16F7 JUMP JUMPDEST SWAP3 POP DUP3 PUSH2 0x2226 JUMPI PUSH2 0x2225 PUSH2 0x1DA4 JUMP JUMPDEST JUMPDEST DUP3 DUP3 MOD SWAP1 POP SWAP3 SWAP2 POP POP JUMP JUMPDEST PUSH0 DUP2 PUSH1 0x1 SHR SWAP1 POP SWAP2 SWAP1 POP JUMP JUMPDEST PUSH0 DUP1 DUP3 SWAP2 POP DUP4 SWAP1 POP JUMPDEST PUSH1 0x1 DUP6 GT ISZERO PUSH2 0x2286 JUMPI DUP1 DUP7 DIV DUP2 GT ISZERO PUSH2 0x2262 JUMPI PUSH2 0x2261 PUSH2 0x1D0F JUMP JUMPDEST JUMPDEST PUSH1 0x1 DUP6 AND ISZERO PUSH2 0x2271 JUMPI DUP1 DUP3 MUL SWAP2 POP JUMPDEST DUP1 DUP2 MUL SWAP1 POP PUSH2 0x227F DUP6 PUSH2 0x2231 JUMP JUMPDEST SWAP5 POP PUSH2 0x2246 JUMP JUMPDEST SWAP5 POP SWAP5 SWAP3 POP POP POP JUMP JUMPDEST PUSH0 DUP3 PUSH2 0x229E JUMPI PUSH1 0x1 SWAP1 POP PUSH2 0x2359 JUMP JUMPDEST DUP2 PUSH2 0x22AB JUMPI PUSH0 SWAP1 POP PUSH2 0x2359 JUMP JUMPDEST DUP2 PUSH1 0x1 DUP2 EQ PUSH2 0x22C1 JUMPI PUSH1 0x2 DUP2 EQ PUSH2 0x22CB JUMPI PUSH2 0x22FA JUMP JUMPDEST PUSH1 0x1 SWAP2 POP POP PUSH2 0x2359 JUMP JUMPDEST PUSH1 0xFF DUP5 GT ISZERO PUSH2 0x22DD JUMPI PUSH2 0x22DC PUSH2 0x1D0F JUMP JUMPDEST JUMPDEST DUP4 PUSH1 0x2 EXP SWAP2 POP DUP5 DUP3 GT ISZERO PUSH2 0x22F4 JUMPI PUSH2 0x22F3 PUSH2 0x1D0F JUMP JUMPDEST JUMPDEST POP PUSH2 0x2359 JUMP JUMPDEST POP PUSH1 0x20 DUP4 LT PUSH2 0x133 DUP4 LT AND PUSH1 0x4E DUP5 LT PUSH1 0xB DUP5 LT AND OR ISZERO PUSH2 0x232F JUMPI DUP3 DUP3 EXP SWAP1 POP DUP4 DUP2 GT ISZERO PUSH2 0x232A JUMPI PUSH2 0x2329 PUSH2 0x1D0F JUMP JUMPDEST JUMPDEST PUSH2 0x2359 JUMP JUMPDEST PUSH2 0x233C DUP5 DUP5 DUP5 PUSH1 0x1 PUSH2 0x223D JUMP JUMPDEST SWAP3 POP SWAP1 POP DUP2 DUP5 DIV DUP2 GT ISZERO PUSH2 0x2353 JUMPI PUSH2 0x2352 PUSH2 0x1D0F JUMP JUMPDEST JUMPDEST DUP2 DUP2 MUL SWAP1 POP JUMPDEST SWAP4 SWAP3 POP POP POP JUMP JUMPDEST PUSH0 PUSH2 0x236A DUP3 PUSH2 0x16F7 JUMP JUMPDEST SWAP2 POP PUSH2 0x2375 DUP4 PUSH2 0x16F7 JUMP JUMPDEST SWAP3 POP PUSH2 0x23A2 PUSH32 0xFFFFFFFFFFFFFFFFFFFFFFFFFFFFFFFFFFFFFFFFFFFFFFFFFFFFFFFFFFFFFFFF DUP5 DUP5 PUSH2 0x228F JUMP JUMPDEST SWAP1 POP SWAP3 SWAP2 POP POP JUMP INVALID SSTORE MSTORE8 PREVRANDAO KECCAK256 POP PUSH19 0x696365203D20545744205072696365202F2055 MSTORE8 PREVRANDAO 0x2D SLOAD JUMPI PREVRANDAO KECCAK256 MSTORE PUSH2 0x7465 KECCAK256 0x28 PUSH10 0x6E2063656E747329A264 PUSH10 0x70667358221220564848 0xA9 SWAP16 STOP RETURNDATACOPY 0xC3 GAS SUB 0xCE 0x22 0xD8 SWAP8 OR SELFDESTRUCT PUSH10 0x53FA6FF2F7455EB2AB6F 0xD9 0xCE 0xFC ISZERO DIV PUSH5 0x736F6C6343 STOP ADDMOD EQ STOP CALLER PUSH4 0x6F6E7374 KECCAK256 JUMPDEST PUSH21 0x773530526573706F6E73652C207573645477645265 PUSH20 0x706F6E73655D203D2061776169742050726F6D69 PUSH20 0x652E616C6C285B46756E6374696F6E732E6D616B PUSH6 0x487474705265 PUSH18 0x75657374287B75726C3A202768747470733A 0x2F 0x2F PUSH18 0x75657279312E66696E616E63652E7961686F PUSH16 0x2E636F6D2F76382F66696E616E63652F PUSH4 0x68617274 0x2F ADDRESS ADDRESS CALLDATALOAD ADDRESS 0x2E SLOAD JUMPI 0x27 PUSH30 0x292C46756E6374696F6E732E6D616B654874747052657175657374287B75 PUSH19 0x6C3A202768747470733A2F2F7175657279312E PUSH7 0x696E616E63652E PUSH26 0x61686F6F2E636F6D2F76382F66696E616E63652F63686172742F SSTORE MSTORE8 PREVRANDAO SLOAD JUMPI PREVRANDAO RETURNDATASIZE PC 0x27 PUSH30 0x295D293B6966202874773530526573706F6E73652E6572726F72207C7C20 PUSH22 0x7364547764526573706F6E73652E6572726F7229207B PUSH21 0x68726F77204572726F722827526571756573742066 PUSH2 0x696C PUSH6 0x6427293B7D63 PUSH16 0x6E737420747735305072696365203D20 PUSH21 0x773530526573706F6E73652E646174612E63686172 PUSH21 0x2E726573756C745B305D2E6D6574612E726567756C PUSH2 0x724D PUSH2 0x726B PUSH6 0x745072696365 EXTCODESIZE PUSH4 0x6F6E7374 KECCAK256 PUSH22 0x736454776452617465203D2075736454776452657370 PUSH16 0x6E73652E646174612E63686172742E72 PUSH6 0x73756C745B30 0x5D 0x2E PUSH14 0x6574612E726567756C61724D6172 PUSH12 0x657450726963653B69662028 0x21 PUSH21 0x7735305072696365207C7C20217573645477645261 PUSH21 0x6529207B7468726F77204572726F72282750726963 PUSH6 0x206E6F742066 PUSH16 0x756E6427293B7D636F6E737420757364 POP PUSH19 0x696365203D20747735305072696365202F2075 PUSH20 0x64547764526174653B72657475726E2046756E63 PUSH21 0x696F6E732E656E636F646555696E74323536284D61 PUSH21 0x682E726F756E64287573645072696365202A203165 BALANCE CODESIZE 0x29 0x29 EXTCODESIZE "
		},
		"gasEstimates": {
			"creation": {
				"codeDepositCost": "1846200",
				"executionCost": "infinite",
				"totalCost": "infinite"
			},
			"external": {
				"acceptOwnership()": "54600",
				"donID()": "2470",
				"gasLimit()": "2583",
				"getCalculationDetails()": "infinite",
				"getLatestPrice()": "2543",
				"getLatestPricePrecise()": "2542",
				"getLatestPriceUSD()": "infinite",
				"getOracleInfo()": "infinite",
				"handleOracleFulfillment(bytes32,bytes,bytes)": "infinite",
				"isPriceStale()": "infinite",
				"lastRequestId()": "2513",
				"lastUpdateTime()": "2492",
				"owner()": "2604",
				"requestPriceUpdate()": "infinite",
				"subscriptionId()": "2512",
				"transferOwnership(address)": "30689",
				"updateConfig(uint64,uint32,bytes32)": "73727",
				"updatePriceManual(uint256)": "infinite"
			},
			"internal": {
				"fulfillRequest(bytes32,bytes memory,bytes memory)": "infinite"
			}
		},
		"methodIdentifiers": {
			"acceptOwnership()": "79ba5097",
			"donID()": "6e74336b",
			"gasLimit()": "f68016b7",
			"getCalculationDetails()": "26c4c889",
			"getLatestPrice()": "8e15f473",
			"getLatestPricePrecise()": "ff8e583a",
			"getLatestPriceUSD()": "ec2b70a4",
			"getOracleInfo()": "9c84cd10",
			"handleOracleFulfillment(bytes32,bytes,bytes)": "0ca76175",
			"isPriceStale()": "2f5df725",
			"lastRequestId()": "fc2a88c3",
			"lastUpdateTime()": "c8f33c91",
			"owner()": "8da5cb5b",
			"requestPriceUpdate()": "afdb0556",
			"subscriptionId()": "09c1ba2e",
			"transferOwnership(address)": "f2fde38b",
			"updateConfig(uint64,uint32,bytes32)": "d0f784f0",
			"updatePriceManual(uint256)": "05239ca1"
		}
	},
	"abi": [
		{
			"inputs": [],
			"stateMutability": "nonpayable",
			"type": "constructor"
		},
		{
			"inputs": [],
			"name": "EmptySource",
			"type": "error"
		},
		{
			"inputs": [],
			"name": "NoInlineSecrets",
			"type": "error"
		},
		{
			"inputs": [],
			"name": "OnlyRouterCanFulfill",
			"type": "error"
		},
		{
			"anonymous": false,
			"inputs": [
				{
					"indexed": true,
					"internalType": "address",
					"name": "from",
					"type": "address"
				},
				{
					"indexed": true,
					"internalType": "address",
					"name": "to",
					"type": "address"
				}
			],
			"name": "OwnershipTransferRequested",
			"type": "event"
		},
		{
			"anonymous": false,
			"inputs": [
				{
					"indexed": true,
					"internalType": "address",
					"name": "from",
					"type": "address"
				},
				{
					"indexed": true,
					"internalType": "address",
					"name": "to",
					"type": "address"
				}
			],
			"name": "OwnershipTransferred",
			"type": "event"
		},
		{
			"anonymous": false,
			"inputs": [
				{
					"indexed": true,
					"internalType": "bytes32",
					"name": "requestId",
					"type": "bytes32"
				}
			],
			"name": "PriceRequested",
			"type": "event"
		},
		{
			"anonymous": false,
			"inputs": [
				{
					"indexed": false,
					"internalType": "uint256",
					"name": "newPrice",
					"type": "uint256"
				},
				{
					"indexed": false,
					"internalType": "uint256",
					"name": "timestamp",
					"type": "uint256"
				}
			],
			"name": "PriceUpdated",
			"type": "event"
		},
		{
			"anonymous": false,
			"inputs": [
				{
					"indexed": true,
					"internalType": "bytes32",
					"name": "requestId",
					"type": "bytes32"
				},
				{
					"indexed": false,
					"internalType": "bytes",
					"name": "error",
					"type": "bytes"
				}
			],
			"name": "RequestFailed",
			"type": "event"
		},
		{
			"anonymous": false,
			"inputs": [
				{
					"indexed": true,
					"internalType": "bytes32",
					"name": "id",
					"type": "bytes32"
				}
			],
			"name": "RequestFulfilled",
			"type": "event"
		},
		{
			"anonymous": false,
			"inputs": [
				{
					"indexed": true,
					"internalType": "bytes32",
					"name": "id",
					"type": "bytes32"
				}
			],
			"name": "RequestSent",
			"type": "event"
		},
		{
			"inputs": [],
			"name": "acceptOwnership",
			"outputs": [],
			"stateMutability": "nonpayable",
			"type": "function"
		},
		{
			"inputs": [],
			"name": "donID",
			"outputs": [
				{
					"internalType": "bytes32",
					"name": "",
					"type": "bytes32"
				}
			],
			"stateMutability": "view",
			"type": "function"
		},
		{
			"inputs": [],
			"name": "gasLimit",
			"outputs": [
				{
					"internalType": "uint32",
					"name": "",
					"type": "uint32"
				}
			],
			"stateMutability": "view",
			"type": "function"
		},
		{
			"inputs": [],
			"name": "getCalculationDetails",
			"outputs": [
				{
					"internalType": "uint256",
					"name": "rawPrice",
					"type": "uint256"
				},
				{
					"internalType": "uint256",
					"name": "calculatedUSDCents",
					"type": "uint256"
				},
				{
					"internalType": "uint256",
					"name": "precisePriceE18",
					"type": "uint256"
				},
				{
					"internalType": "string",
					"name": "calculation",
					"type": "string"
				}
			],
			"stateMutability": "view",
			"type": "function"
		},
		{
			"inputs": [],
			"name": "getLatestPrice",
			"outputs": [
				{
					"internalType": "uint256",
					"name": "",
					"type": "uint256"
				}
			],
			"stateMutability": "view",
			"type": "function"
		},
		{
			"inputs": [],
			"name": "getLatestPricePrecise",
			"outputs": [
				{
					"internalType": "uint256",
					"name": "",
					"type": "uint256"
				}
			],
			"stateMutability": "view",
			"type": "function"
		},
		{
			"inputs": [],
			"name": "getLatestPriceUSD",
			"outputs": [
				{
					"internalType": "uint256",
					"name": "",
					"type": "uint256"
				}
			],
			"stateMutability": "view",
			"type": "function"
		},
		{
			"inputs": [],
			"name": "getOracleInfo",
			"outputs": [
				{
					"internalType": "uint256",
					"name": "price",
					"type": "uint256"
				},
				{
					"internalType": "uint256",
					"name": "priceCents",
					"type": "uint256"
				},
				{
					"internalType": "uint256",
					"name": "lastUpdate",
					"type": "uint256"
				},
				{
					"internalType": "uint256",
					"name": "timeSinceUpdate",
					"type": "uint256"
				},
				{
					"internalType": "bytes32",
					"name": "lastRequest",
					"type": "bytes32"
				}
			],
			"stateMutability": "view",
			"type": "function"
		},
		{
			"inputs": [
				{
					"internalType": "bytes32",
					"name": "requestId",
					"type": "bytes32"
				},
				{
					"internalType": "bytes",
					"name": "response",
					"type": "bytes"
				},
				{
					"internalType": "bytes",
					"name": "err",
					"type": "bytes"
				}
			],
			"name": "handleOracleFulfillment",
			"outputs": [],
			"stateMutability": "nonpayable",
			"type": "function"
		},
		{
			"inputs": [],
			"name": "isPriceStale",
			"outputs": [
				{
					"internalType": "bool",
					"name": "",
					"type": "bool"
				}
			],
			"stateMutability": "view",
			"type": "function"
		},
		{
			"inputs": [],
			"name": "lastRequestId",
			"outputs": [
				{
					"internalType": "bytes32",
					"name": "",
					"type": "bytes32"
				}
			],
			"stateMutability": "view",
			"type": "function"
		},
		{
			"inputs": [],
			"name": "lastUpdateTime",
			"outputs": [
				{
					"internalType": "uint256",
					"name": "",
					"type": "uint256"
				}
			],
			"stateMutability": "view",
			"type": "function"
		},
		{
			"inputs": [],
			"name": "owner",
			"outputs": [
				{
					"internalType": "address",
					"name": "",
					"type": "address"
				}
			],
			"stateMutability": "view",
			"type": "function"
		},
		{
			"inputs": [],
			"name": "requestPriceUpdate",
			"outputs": [
				{
					"internalType": "bytes32",
					"name": "requestId",
					"type": "bytes32"
				}
			],
			"stateMutability": "nonpayable",
			"type": "function"
		},
		{
			"inputs": [],
			"name": "subscriptionId",
			"outputs": [
				{
					"internalType": "uint64",
					"name": "",
					"type": "uint64"
				}
			],
			"stateMutability": "view",
			"type": "function"
		},
		{
			"inputs": [
				{
					"internalType": "address",
					"name": "to",
					"type": "address"
				}
			],
			"name": "transferOwnership",
			"outputs": [],
			"stateMutability": "nonpayable",
			"type": "function"
		},
		{
			"inputs": [
				{
					"internalType": "uint64",
					"name": "_subscriptionId",
					"type": "uint64"
				},
				{
					"internalType": "uint32",
					"name": "_gasLimit",
					"type": "uint32"
				},
				{
					"internalType": "bytes32",
					"name": "_donID",
					"type": "bytes32"
				}
			],
			"name": "updateConfig",
			"outputs": [],
			"stateMutability": "nonpayable",
			"type": "function"
		},
		{
			"inputs": [
				{
					"internalType": "uint256",
					"name": "_newPriceUSD",
					"type": "uint256"
				}
			],
			"name": "updatePriceManual",
			"outputs": [],
			"stateMutability": "nonpayable",
			"type": "function"
		}
	]
}