{
	"data": {
		"bytecode": {
			"linkReferences": {},
			"object": "60a0604052620493e0600560086101000a81548163ffffffff021916908363ffffffff160217905550604051806102c001604052806102888152602001612aee6102889139600790816100529190610576565b5034801561005e575f5ffd5b5033805f73b83e47c2bc239b3bf370bc41e1459a34b41238d08073ffffffffffffffffffffffffffffffffffffffff1660808173ffffffffffffffffffffffffffffffffffffffff1681525050505f73ffffffffffffffffffffffffffffffffffffffff168273ffffffffffffffffffffffffffffffffffffffff160361011a576040517f08c379a00000000000000000000000000000000000000000000000000000000081526004016101119061069f565b60405180910390fd5b815f5f6101000a81548173ffffffffffffffffffffffffffffffffffffffff021916908373ffffffffffffffffffffffffffffffffffffffff1602179055505f73ffffffffffffffffffffffffffffffffffffffff168173ffffffffffffffffffffffffffffffffffffffff161461019c5761019b8161020e60201b60201c565b5b50505061160760055f6101000a81548167ffffffffffffffff021916908367ffffffffffffffff1602179055507f66756e2d657468657265756d2d7365706f6c69612d31000000000000000000005f1b6006819055506801158e460913d0000060028190555042600381905550610725565b3373ffffffffffffffffffffffffffffffffffffffff168173ffffffffffffffffffffffffffffffffffffffff160361027c576040517f08c379a000000000000000000000000000000000000000000000000000000000815260040161027390610707565b60405180910390fd5b8060015f6101000a81548173ffffffffffffffffffffffffffffffffffffffff021916908373ffffffffffffffffffffffffffffffffffffffff1602179055508073ffffffffffffffffffffffffffffffffffffffff165f5f9054906101000a900473ffffffffffffffffffffffffffffffffffffffff1673ffffffffffffffffffffffffffffffffffffffff167fed8889f560326eb138920d842192f0eb3dd22b4f139c87a2c57538e05bae127860405160405180910390a350565b5f81519050919050565b7f4e487b71000000000000000000000000000000000000000000000000000000005f52604160045260245ffd5b7f4e487b71000000000000000000000000000000000000000000000000000000005f52602260045260245ffd5b5f60028204905060018216806103b457607f821691505b6020821081036103c7576103c6610370565b5b50919050565b5f819050815f5260205f209050919050565b5f6020601f8301049050919050565b5f82821b905092915050565b5f600883026104297fffffffffffffffffffffffffffffffffffffffffffffffffffffffffffffffff826103ee565b61043386836103ee565b95508019841693508086168417925050509392505050565b5f819050919050565b5f819050919050565b5f61047761047261046d8461044b565b610454565b61044b565b9050919050565b5f819050919050565b6104908361045d565b6104a461049c8261047e565b8484546103fa565b825550505050565b5f5f905090565b6104bb6104ac565b6104c6818484610487565b505050565b5b818110156104e9576104de5f826104b3565b6001810190506104cc565b5050565b601f82111561052e576104ff816103cd565b610508846103df565b81016020851015610517578190505b61052b610523856103df565b8301826104cb565b50505b505050565b5f82821c905092915050565b5f61054e5f1984600802610533565b1980831691505092915050565b5f610566838361053f565b9150826002028217905092915050565b61057f82610339565b67ffffffffffffffff81111561059857610597610343565b5b6105a2825461039d565b6105ad8282856104ed565b5f60209050601f8311600181146105de575f84156105cc578287015190505b6105d6858261055b565b86555061063d565b601f1984166105ec866103cd565b5f5b82811015610613578489015182556001820191506020850194506020810190506105ee565b86831015610630578489015161062c601f89168261053f565b8355505b6001600288020188555050505b505050505050565b5f82825260208201905092915050565b7f43616e6e6f7420736574206f776e657220746f207a65726f00000000000000005f82015250565b5f610689601883610645565b915061069482610655565b602082019050919050565b5f6020820190508181035f8301526106b68161067d565b9050919050565b7f43616e6e6f74207472616e7366657220746f2073656c660000000000000000005f82015250565b5f6106f1601783610645565b91506106fc826106bd565b602082019050919050565b5f6020820190508181035f83015261071e816106e5565b9050919050565b6080516123aa6107445f395f81816103e30152610e3501526123aa5ff3fe608060405234801561000f575f5ffd5b5060043610610114575f3560e01c80639c84cd10116100a0578063ec2b70a41161006f578063ec2b70a41461028b578063f2fde38b146102a9578063f68016b7146102c5578063fc2a88c3146102e3578063ff8e583a1461030157610114565b80639c84cd1014610211578063afdb055614610233578063c8f33c9114610251578063d0f784f01461026f57610114565b80632f5df725116100e75780632f5df7251461018f5780636e74336b146101ad57806379ba5097146101cb5780638da5cb5b146101d55780638e15f473146101f357610114565b806305239ca11461011857806309c1ba2e146101345780630ca761751461015257806326c4c8891461016e575b5f5ffd5b610132600480360381019061012d9190611726565b61031f565b005b61013c6103c8565b6040516101499190611773565b60405180910390f35b61016c600480360381019061016791906118fb565b6103e1565b005b6101766104a3565b60405161018694939291906119f2565b60405180910390f35b6101976104ea565b6040516101a49190611a56565b60405180910390f35b6101b5610502565b6040516101c29190611a7e565b60405180910390f35b6101d3610508565b005b6101dd610697565b6040516101ea9190611ad6565b60405180910390f35b6101fb6106be565b6040516102089190611aef565b60405180910390f35b6102196106c7565b60405161022a959493929190611b08565b60405180910390f35b61023b610709565b6040516102489190611a7e565b60405180910390f35b610259610824565b6040516102669190611aef565b60405180910390f35b61028960048036038101906102849190611bbc565b61082a565b005b610293610887565b6040516102a09190611aef565b60405180910390f35b6102c360048036038101906102be9190611c36565b6108a2565b005b6102cd6108b6565b6040516102da9190611c70565b60405180910390f35b6102eb6108cc565b6040516102f89190611a7e565b60405180910390f35b6103096108d2565b6040516103169190611aef565b60405180910390f35b6103276108db565b5f8111610369576040517f08c379a000000000000000000000000000000000000000000000000000000000815260040161036090611cd3565b60405180910390fd5b670de0b6b3a76400008161037d9190611d1e565b600281905550426003819055507f945c1c4e99aa89f648fbfe3df471b916f719e16d960fcec0737d4d56bd696838600254426040516103bd929190611d5f565b60405180910390a150565b60055f9054906101000a900467ffffffffffffffff1681565b7f000000000000000000000000000000000000000000000000000000000000000073ffffffffffffffffffffffffffffffffffffffff163373ffffffffffffffffffffffffffffffffffffffff1614610466576040517fc6829f8300000000000000000000000000000000000000000000000000000000815260040160405180910390fd5b61047183838361096b565b827f85e1543bf2f84fe80c6badbce3648c8539ad1df4d2b3d822938ca0538be727e660405160405180910390a2505050565b5f5f5f6060600254662386f26fc100006002546104c09190611db3565b6002546040518060600160405280602f8152602001612346602f9139935093509350935090919293565b5f610e10600354426104fc9190611de3565b11905090565b60065481565b60015f9054906101000a900473ffffffffffffffffffffffffffffffffffffffff1673ffffffffffffffffffffffffffffffffffffffff163373ffffffffffffffffffffffffffffffffffffffff1614610597576040517f08c379a000000000000000000000000000000000000000000000000000000000815260040161058e90611e60565b60405180910390fd5b5f5f5f9054906101000a900473ffffffffffffffffffffffffffffffffffffffff169050335f5f6101000a81548173ffffffffffffffffffffffffffffffffffffffff021916908373ffffffffffffffffffffffffffffffffffffffff1602179055505f60015f6101000a81548173ffffffffffffffffffffffffffffffffffffffff021916908373ffffffffffffffffffffffffffffffffffffffff1602179055503373ffffffffffffffffffffffffffffffffffffffff168173ffffffffffffffffffffffffffffffffffffffff167f8be0079c531659141344cd1fd0a4f28419497f9722a3daafe3b4186f6b6457e060405160405180910390a350565b5f5f5f9054906101000a900473ffffffffffffffffffffffffffffffffffffffff16905090565b5f600254905090565b5f5f5f5f5f600254662386f26fc100006002546106e49190611db3565b600354600354426106f59190611de3565b600454945094509450945094509091929394565b5f61071261163b565b6107ad6007805461072290611eab565b80601f016020809104026020016040519081016040528092919081815260200182805461074e90611eab565b80156107995780601f1061077057610100808354040283529160200191610799565b820191905f5260205f20905b81548152906001019060200180831161077c57829003601f168201915b505050505082610a1690919063ffffffff16565b6107ea6107b982610a26565b60055f9054906101000a900467ffffffffffffffff16600560089054906101000a900463ffffffff16600654610e31565b915081600481905550817f655f2dca0174ce451aa939c62ea493c734778cc67c6783626b08ad34985e6c6160405160405180910390a25090565b60035481565b6108326108db565b8260055f6101000a81548167ffffffffffffffff021916908367ffffffffffffffff16021790555081600560086101000a81548163ffffffff021916908363ffffffff16021790555080600681905550505050565b5f662386f26fc1000060025461089d9190611db3565b905090565b6108aa6108db565b6108b381610f10565b50565b600560089054906101000a900463ffffffff1681565b60045481565b5f600254905090565b5f5f9054906101000a900473ffffffffffffffffffffffffffffffffffffffff1673ffffffffffffffffffffffffffffffffffffffff163373ffffffffffffffffffffffffffffffffffffffff1614610969576040517f08c379a000000000000000000000000000000000000000000000000000000000815260040161096090611f25565b60405180910390fd5b565b5f815111156109b157827f61982c98cbc49d11759a948f460b92bca26bdf12ceee12c310f117eb2ca9a9cb826040516109a49190611f95565b60405180910390a2610a11565b5f828060200190518101906109c69190611fc9565b905080600281905550426003819055507f945c1c4e99aa89f648fbfe3df471b916f719e16d960fcec0737d4d56bd6968388142604051610a07929190611d5f565b60405180910390a1505b505050565b610a22825f5f8461103b565b5050565b60605f610a346101006110e1565b9050610a7e6040518060400160405280600c81526020017f636f64654c6f636174696f6e00000000000000000000000000000000000000008152508261110690919063ffffffff16565b610aa6835f01516002811115610a9757610a96611ff4565b5b8261112e90919063ffffffff16565b610aee6040518060400160405280600881526020017f6c616e67756167650000000000000000000000000000000000000000000000008152508261110690919063ffffffff16565b610b1683604001515f811115610b0757610b06611ff4565b5b8261112e90919063ffffffff16565b610b5e6040518060400160405280600681526020017f736f7572636500000000000000000000000000000000000000000000000000008152508261110690919063ffffffff16565b610b7583606001518261110690919063ffffffff16565b5f8360a00151511115610c2c57610bca6040518060400160405280600481526020017f61726773000000000000000000000000000000000000000000000000000000008152508261110690919063ffffffff16565b610bd38161117d565b5f5f90505b8360a0015151811015610c2157610c168460a001518281518110610bff57610bfe612021565b5b60200260200101518361110690919063ffffffff16565b806001019050610bd8565b50610c2b816111a5565b5b5f8360800151511115610d6b575f6002811115610c4c57610c4b611ff4565b5b83602001516002811115610c6357610c62611ff4565b5b03610c9a576040517fa80d31f700000000000000000000000000000000000000000000000000000000815260040160405180910390fd5b610ce26040518060400160405280600f81526020017f736563726574734c6f636174696f6e00000000000000000000000000000000008152508261110690919063ffffffff16565b610d0b83602001516002811115610cfc57610cfb611ff4565b5b8261112e90919063ffffffff16565b610d536040518060400160405280600781526020017f73656372657473000000000000000000000000000000000000000000000000008152508261110690919063ffffffff16565b610d6a8360800151826111cd90919063ffffffff16565b5b5f8360c00151511115610e2257610dc06040518060400160405280600981526020017f62797465734172677300000000000000000000000000000000000000000000008152508261110690919063ffffffff16565b610dc98161117d565b5f5f90505b8360c0015151811015610e1757610e0c8460c001518281518110610df557610df4612021565b5b6020026020010151836111cd90919063ffffffff16565b806001019050610dce565b50610e21816111a5565b5b805f01515f0151915050919050565b5f5f7f000000000000000000000000000000000000000000000000000000000000000073ffffffffffffffffffffffffffffffffffffffff1663461d27628688600188886040518663ffffffff1660e01b8152600401610e9595949392919061206a565b6020604051808303815f875af1158015610eb1573d5f5f3e3d5ffd5b505050506040513d601f19601f82011682018060405250810190610ed591906120d6565b9050807f1131472297a800fee664d1d89cfa8f7676ff07189ecc53f80bbb5f4969099db860405160405180910390a280915050949350505050565b3373ffffffffffffffffffffffffffffffffffffffff168173ffffffffffffffffffffffffffffffffffffffff1603610f7e576040517f08c379a0000000000000000000000000000000000000000000000000000000008152600401610f759061214b565b60405180910390fd5b8060015f6101000a81548173ffffffffffffffffffffffffffffffffffffffff021916908373ffffffffffffffffffffffffffffffffffffffff1602179055508073ffffffffffffffffffffffffffffffffffffffff165f5f9054906101000a900473ffffffffffffffffffffffffffffffffffffffff1673ffffffffffffffffffffffffffffffffffffffff167fed8889f560326eb138920d842192f0eb3dd22b4f139c87a2c57538e05bae127860405160405180910390a350565b5f815103611075576040517f22ce3edd00000000000000000000000000000000000000000000000000000000815260040160405180910390fd5b82845f0190600281111561108c5761108b611ff4565b5b908160028111156110a05761109f611ff4565b5b815250508184604001905f8111156110bb576110ba611ff4565b5b90815f8111156110ce576110cd611ff4565b5b8152505080846060018190525050505050565b6110e96116aa565b6110f6815f0151836111f5565b505f816020018181525050919050565b611113826003835161126b565b61112981835f015161140b90919063ffffffff16565b505050565b61114f60026005600660ff16901b17835f015161142790919063ffffffff16565b5061117982826040516020016111659190611aef565b6040516020818303038152906040526111cd565b5050565b61118881600461148e565b60018160200181815161119b9190612169565b9150818152505050565b6111b081600761148e565b6001816020018181516111c39190611de3565b9150818152505050565b6111da826002835161126b565b6111f081835f015161140b90919063ffffffff16565b505050565b6111fd6116c9565b5f60208361120b919061219c565b146112375760208261121d919061219c565b60206112299190611de3565b826112349190612169565b91505b818360200181815250506040518084525f81528281016020018181101561125c575f5ffd5b80604052505082905092915050565b60178167ffffffffffffffff16116112a55761129f8160058460ff16901b60ff1617845f015161142790919063ffffffff16565b50611406565b60ff8167ffffffffffffffff1611611301576112d7601860058460ff16901b17845f015161142790919063ffffffff16565b506112fb8167ffffffffffffffff166001855f01516114b39092919063ffffffff16565b50611405565b61ffff8167ffffffffffffffff161161135e57611334601960058460ff16901b17845f015161142790919063ffffffff16565b506113588167ffffffffffffffff166002855f01516114b39092919063ffffffff16565b50611404565b63ffffffff8167ffffffffffffffff16116113bd57611393601a60058460ff16901b17845f015161142790919063ffffffff16565b506113b78167ffffffffffffffff166004855f01516114b39092919063ffffffff16565b50611403565b6113dd601b60058460ff16901b17845f015161142790919063ffffffff16565b506114018167ffffffffffffffff166008855f01516114b39092919063ffffffff16565b505b5b5b5b505050565b6114136116c9565b61141f8383845161153c565b905092915050565b61142f6116c9565b5f835f01515190505f6001826114459190612169565b90508460200151821061146957611468856002836114639190611d1e565b611619565b5b84516020838201018581538151831115611481578282525b5050849250505092915050565b6114ae601f60058360ff16901b17835f015161142790919063ffffffff16565b505050565b6114bb6116c9565b5f845f01515190505f81846114d09190612169565b905085602001518111156114f5576114f4866002836114ef9190611d1e565b611619565b5b5f60018561010061150691906122fb565b6115109190611de3565b90508651828101878319825116178152815184111561152d578382525b50508693505050509392505050565b6115446116c9565b8251821115611551575f5ffd5b5f845f01515190505f83826115669190612169565b9050856020015181111561158b5761158a866002836115859190611d1e565b611619565b5b5f5f875180518560208301019350808511156115a5578482525b60208901925050505b602086106115ec57805182526020826115c79190612169565b91506020816115d69190612169565b90506020866115e59190611de3565b95506115ae565b5f6001876020036101000a0390508019825116818451168181178552505050879450505050509392505050565b5f825f0151905061162a83836111f5565b50611635838261140b565b50505050565b6040518060e001604052805f600281111561165957611658611ff4565b5b81526020015f600281111561167157611670611ff4565b5b81526020015f5f81111561168857611687611ff4565b5b8152602001606081526020016060815260200160608152602001606081525090565b60405180604001604052806116bd6116c9565b81526020015f81525090565b6040518060400160405280606081526020015f81525090565b5f604051905090565b5f5ffd5b5f5ffd5b5f819050919050565b611705816116f3565b811461170f575f5ffd5b50565b5f81359050611720816116fc565b92915050565b5f6020828403121561173b5761173a6116eb565b5b5f61174884828501611712565b91505092915050565b5f67ffffffffffffffff82169050919050565b61176d81611751565b82525050565b5f6020820190506117865f830184611764565b92915050565b5f819050919050565b61179e8161178c565b81146117a8575f5ffd5b50565b5f813590506117b981611795565b92915050565b5f5ffd5b5f5ffd5b5f601f19601f8301169050919050565b7f4e487b71000000000000000000000000000000000000000000000000000000005f52604160045260245ffd5b61180d826117c7565b810181811067ffffffffffffffff8211171561182c5761182b6117d7565b5b80604052505050565b5f61183e6116e2565b905061184a8282611804565b919050565b5f67ffffffffffffffff821115611869576118686117d7565b5b611872826117c7565b9050602081019050919050565b828183375f83830152505050565b5f61189f61189a8461184f565b611835565b9050828152602081018484840111156118bb576118ba6117c3565b5b6118c684828561187f565b509392505050565b5f82601f8301126118e2576118e16117bf565b5b81356118f284826020860161188d565b91505092915050565b5f5f5f60608486031215611912576119116116eb565b5b5f61191f868287016117ab565b935050602084013567ffffffffffffffff8111156119405761193f6116ef565b5b61194c868287016118ce565b925050604084013567ffffffffffffffff81111561196d5761196c6116ef565b5b611979868287016118ce565b9150509250925092565b61198c816116f3565b82525050565b5f81519050919050565b5f82825260208201905092915050565b8281835e5f83830152505050565b5f6119c482611992565b6119ce818561199c565b93506119de8185602086016119ac565b6119e7816117c7565b840191505092915050565b5f608082019050611a055f830187611983565b611a126020830186611983565b611a1f6040830185611983565b8181036060830152611a3181846119ba565b905095945050505050565b5f8115159050919050565b611a5081611a3c565b82525050565b5f602082019050611a695f830184611a47565b92915050565b611a788161178c565b82525050565b5f602082019050611a915f830184611a6f565b92915050565b5f73ffffffffffffffffffffffffffffffffffffffff82169050919050565b5f611ac082611a97565b9050919050565b611ad081611ab6565b82525050565b5f602082019050611ae95f830184611ac7565b92915050565b5f602082019050611b025f830184611983565b92915050565b5f60a082019050611b1b5f830188611983565b611b286020830187611983565b611b356040830186611983565b611b426060830185611983565b611b4f6080830184611a6f565b9695505050505050565b611b6281611751565b8114611b6c575f5ffd5b50565b5f81359050611b7d81611b59565b92915050565b5f63ffffffff82169050919050565b611b9b81611b83565b8114611ba5575f5ffd5b50565b5f81359050611bb681611b92565b92915050565b5f5f5f60608486031215611bd357611bd26116eb565b5b5f611be086828701611b6f565b9350506020611bf186828701611ba8565b9250506040611c02868287016117ab565b9150509250925092565b611c1581611ab6565b8114611c1f575f5ffd5b50565b5f81359050611c3081611c0c565b92915050565b5f60208284031215611c4b57611c4a6116eb565b5b5f611c5884828501611c22565b91505092915050565b611c6a81611b83565b82525050565b5f602082019050611c835f830184611c61565b92915050565b7f5072696365206d7573742062652067726561746572207468616e2030000000005f82015250565b5f611cbd601c8361199c565b9150611cc882611c89565b602082019050919050565b5f6020820190508181035f830152611cea81611cb1565b9050919050565b7f4e487b71000000000000000000000000000000000000000000000000000000005f52601160045260245ffd5b5f611d28826116f3565b9150611d33836116f3565b9250828202611d41816116f3565b91508282048414831517611d5857611d57611cf1565b5b5092915050565b5f604082019050611d725f830185611983565b611d7f6020830184611983565b9392505050565b7f4e487b71000000000000000000000000000000000000000000000000000000005f52601260045260245ffd5b5f611dbd826116f3565b9150611dc8836116f3565b925082611dd857611dd7611d86565b5b828204905092915050565b5f611ded826116f3565b9150611df8836116f3565b9250828203905081811115611e1057611e0f611cf1565b5b92915050565b7f4d7573742062652070726f706f736564206f776e6572000000000000000000005f82015250565b5f611e4a60168361199c565b9150611e5582611e16565b602082019050919050565b5f6020820190508181035f830152611e7781611e3e565b9050919050565b7f4e487b71000000000000000000000000000000000000000000000000000000005f52602260045260245ffd5b5f6002820490506001821680611ec257607f821691505b602082108103611ed557611ed4611e7e565b5b50919050565b7f4f6e6c792063616c6c61626c65206279206f776e6572000000000000000000005f82015250565b5f611f0f60168361199c565b9150611f1a82611edb565b602082019050919050565b5f6020820190508181035f830152611f3c81611f03565b9050919050565b5f81519050919050565b5f82825260208201905092915050565b5f611f6782611f43565b611f718185611f4d565b9350611f818185602086016119ac565b611f8a816117c7565b840191505092915050565b5f6020820190508181035f830152611fad8184611f5d565b905092915050565b5f81519050611fc3816116fc565b92915050565b5f60208284031215611fde57611fdd6116eb565b5b5f611feb84828501611fb5565b91505092915050565b7f4e487b71000000000000000000000000000000000000000000000000000000005f52602160045260245ffd5b7f4e487b71000000000000000000000000000000000000000000000000000000005f52603260045260245ffd5b5f61ffff82169050919050565b6120648161204e565b82525050565b5f60a08201905061207d5f830188611764565b818103602083015261208f8187611f5d565b905061209e604083018661205b565b6120ab6060830185611c61565b6120b86080830184611a6f565b9695505050505050565b5f815190506120d081611795565b92915050565b5f602082840312156120eb576120ea6116eb565b5b5f6120f8848285016120c2565b91505092915050565b7f43616e6e6f74207472616e7366657220746f2073656c660000000000000000005f82015250565b5f61213560178361199c565b915061214082612101565b602082019050919050565b5f6020820190508181035f83015261216281612129565b9050919050565b5f612173826116f3565b915061217e836116f3565b925082820190508082111561219657612195611cf1565b5b92915050565b5f6121a6826116f3565b91506121b1836116f3565b9250826121c1576121c0611d86565b5b828206905092915050565b5f8160011c9050919050565b5f5f8291508390505b6001851115612221578086048111156121fd576121fc611cf1565b5b600185161561220c5780820291505b808102905061221a856121cc565b94506121e1565b94509492505050565b5f8261223957600190506122f4565b81612246575f90506122f4565b816001811461225c576002811461226657612295565b60019150506122f4565b60ff84111561227857612277611cf1565b5b8360020a91508482111561228f5761228e611cf1565b5b506122f4565b5060208310610133831016604e8410600b84101617156122ca5782820a9050838111156122c5576122c4611cf1565b5b6122f4565b6122d784848460016121d8565b925090508184048111156122ee576122ed611cf1565b5b81810290505b9392505050565b5f612305826116f3565b9150612310836116f3565b925061233d7fffffffffffffffffffffffffffffffffffffffffffffffffffffffffffffffff848461222a565b90509291505056fe555344205072696365203d20545744205072696365202f205553442d54574420526174652028696e2063656e747329a26469706673582212209d3518e5f33d4646a8fcdb7d828356473efb575ce6eb2b6687508f76fb6154d864736f6c634300081e0033636f6e7374205b74773530526573706f6e73652c20757364547764526573706f6e73655d203d2061776169742050726f6d6973652e616c6c285b46756e6374696f6e732e6d616b654874747052657175657374287b75726c3a202768747470733a2f2f7175657279312e66696e616e63652e7961686f6f2e636f6d2f76382f66696e616e63652f63686172742f303035302e5457277d292c46756e6374696f6e732e6d616b654874747052657175657374287b75726c3a202768747470733a2f2f7175657279312e66696e616e63652e7961686f6f2e636f6d2f76382f66696e616e63652f63686172742f5553445457443d58277d295d293b6966202874773530526573706f6e73652e6572726f72207c7c20757364547764526573706f6e73652e6572726f7229207b7468726f77204572726f72282752657175657374206661696c656427293b7d636f6e737420747735305072696365203d2074773530526573706f6e73652e646174612e63686172742e726573756c745b305d2e6d6574612e726567756c61724d61726b657450726963653b636f6e73742075736454776452617465203d20757364547764526573706f6e73652e646174612e63686172742e726573756c745b305d2e6d6574612e726567756c61724d61726b657450726963653b6966202821747735305072696365207c7c20217573645477645261746529207b7468726f77204572726f7228275072696365206e6f7420666f756e6427293b7d636f6e7374207573645072696365203d20747735305072696365202f20757364547764526174653b72657475726e2046756e6374696f6e732e656e636f646555696e74323536284d6174682e726f756e64287573645072696365202a203165313829293b",
			"opcodes": "PUSH1 0xA0 PUSH1 0x40 MSTORE PUSH3 0x493E0 PUSH1 0x5 PUSH1 0x8 PUSH2 0x100 EXP DUP2 SLOAD DUP2 PUSH4 0xFFFFFFFF MUL NOT AND SWAP1 DUP4 PUSH4 0xFFFFFFFF AND MUL OR SWAP1 SSTORE POP PUSH1 0x40 MLOAD DUP1 PUSH2 0x2C0 ADD PUSH1 0x40 MSTORE DUP1 PUSH2 0x288 DUP2 MSTORE PUSH1 0x20 ADD PUSH2 0x2AEE PUSH2 0x288 SWAP2 CODECOPY PUSH1 0x7 SWAP1 DUP2 PUSH2 0x52 SWAP2 SWAP1 PUSH2 0x576 JUMP JUMPDEST POP CALLVALUE DUP1 ISZERO PUSH2 0x5E JUMPI PUSH0 PUSH0 REVERT JUMPDEST POP CALLER DUP1 PUSH0 PUSH20 0xB83E47C2BC239B3BF370BC41E1459A34B41238D0 DUP1 PUSH20 0xFFFFFFFFFFFFFFFFFFFFFFFFFFFFFFFFFFFFFFFF AND PUSH1 0x80 DUP2 PUSH20 0xFFFFFFFFFFFFFFFFFFFFFFFFFFFFFFFFFFFFFFFF AND DUP2 MSTORE POP POP POP PUSH0 PUSH20 0xFFFFFFFFFFFFFFFFFFFFFFFFFFFFFFFFFFFFFFFF AND DUP3 PUSH20 0xFFFFFFFFFFFFFFFFFFFFFFFFFFFFFFFFFFFFFFFF AND SUB PUSH2 0x11A JUMPI PUSH1 0x40 MLOAD PUSH32 0x8C379A000000000000000000000000000000000000000000000000000000000 DUP2 MSTORE PUSH1 0x4 ADD PUSH2 0x111 SWAP1 PUSH2 0x69F JUMP JUMPDEST PUSH1 0x40 MLOAD DUP1 SWAP2 SUB SWAP1 REVERT JUMPDEST DUP2 PUSH0 PUSH0 PUSH2 0x100 EXP DUP2 SLOAD DUP2 PUSH20 0xFFFFFFFFFFFFFFFFFFFFFFFFFFFFFFFFFFFFFFFF MUL NOT AND SWAP1 DUP4 PUSH20 0xFFFFFFFFFFFFFFFFFFFFFFFFFFFFFFFFFFFFFFFF AND MUL OR SWAP1 SSTORE POP PUSH0 PUSH20 0xFFFFFFFFFFFFFFFFFFFFFFFFFFFFFFFFFFFFFFFF AND DUP2 PUSH20 0xFFFFFFFFFFFFFFFFFFFFFFFFFFFFFFFFFFFFFFFF AND EQ PUSH2 0x19C JUMPI PUSH2 0x19B DUP2 PUSH2 0x20E PUSH1 0x20 SHL PUSH1 0x20 SHR JUMP JUMPDEST JUMPDEST POP POP POP PUSH2 0x1607 PUSH1 0x5 PUSH0 PUSH2 0x100 EXP DUP2 SLOAD DUP2 PUSH8 0xFFFFFFFFFFFFFFFF MUL NOT AND SWAP1 DUP4 PUSH8 0xFFFFFFFFFFFFFFFF AND MUL OR SWAP1 SSTORE POP PUSH32 0x66756E2D657468657265756D2D7365706F6C69612D3100000000000000000000 PUSH0 SHL PUSH1 0x6 DUP2 SWAP1 SSTORE POP PUSH9 0x1158E460913D00000 PUSH1 0x2 DUP2 SWAP1 SSTORE POP TIMESTAMP PUSH1 0x3 DUP2 SWAP1 SSTORE POP PUSH2 0x725 JUMP JUMPDEST CALLER PUSH20 0xFFFFFFFFFFFFFFFFFFFFFFFFFFFFFFFFFFFFFFFF AND DUP2 PUSH20 0xFFFFFFFFFFFFFFFFFFFFFFFFFFFFFFFFFFFFFFFF AND SUB PUSH2 0x27C JUMPI PUSH1 0x40 MLOAD PUSH32 0x8C379A000000000000000000000000000000000000000000000000000000000 DUP2 MSTORE PUSH1 0x4 ADD PUSH2 0x273 SWAP1 PUSH2 0x707 JUMP JUMPDEST PUSH1 0x40 MLOAD DUP1 SWAP2 SUB SWAP1 REVERT JUMPDEST DUP1 PUSH1 0x1 PUSH0 PUSH2 0x100 EXP DUP2 SLOAD DUP2 PUSH20 0xFFFFFFFFFFFFFFFFFFFFFFFFFFFFFFFFFFFFFFFF MUL NOT AND SWAP1 DUP4 PUSH20 0xFFFFFFFFFFFFFFFFFFFFFFFFFFFFFFFFFFFFFFFF AND MUL OR SWAP1 SSTORE POP DUP1 PUSH20 0xFFFFFFFFFFFFFFFFFFFFFFFFFFFFFFFFFFFFFFFF AND PUSH0 PUSH0 SWAP1 SLOAD SWAP1 PUSH2 0x100 EXP SWAP1 DIV PUSH20 0xFFFFFFFFFFFFFFFFFFFFFFFFFFFFFFFFFFFFFFFF AND PUSH20 0xFFFFFFFFFFFFFFFFFFFFFFFFFFFFFFFFFFFFFFFF AND PUSH32 0xED8889F560326EB138920D842192F0EB3DD22B4F139C87A2C57538E05BAE1278 PUSH1 0x40 MLOAD PUSH1 0x40 MLOAD DUP1 SWAP2 SUB SWAP1 LOG3 POP JUMP JUMPDEST PUSH0 DUP2 MLOAD SWAP1 POP SWAP2 SWAP1 POP JUMP JUMPDEST PUSH32 0x4E487B7100000000000000000000000000000000000000000000000000000000 PUSH0 MSTORE PUSH1 0x41 PUSH1 0x4 MSTORE PUSH1 0x24 PUSH0 REVERT JUMPDEST PUSH32 0x4E487B7100000000000000000000000000000000000000000000000000000000 PUSH0 MSTORE PUSH1 0x22 PUSH1 0x4 MSTORE PUSH1 0x24 PUSH0 REVERT JUMPDEST PUSH0 PUSH1 0x2 DUP3 DIV SWAP1 POP PUSH1 0x1 DUP3 AND DUP1 PUSH2 0x3B4 JUMPI PUSH1 0x7F DUP3 AND SWAP2 POP JUMPDEST PUSH1 0x20 DUP3 LT DUP2 SUB PUSH2 0x3C7 JUMPI PUSH2 0x3C6 PUSH2 0x370 JUMP JUMPDEST JUMPDEST POP SWAP2 SWAP1 POP JUMP JUMPDEST PUSH0 DUP2 SWAP1 POP DUP2 PUSH0 MSTORE PUSH1 0x20 PUSH0 KECCAK256 SWAP1 POP SWAP2 SWAP1 POP JUMP JUMPDEST PUSH0 PUSH1 0x20 PUSH1 0x1F DUP4 ADD DIV SWAP1 POP SWAP2 SWAP1 POP JUMP JUMPDEST PUSH0 DUP3 DUP3 SHL SWAP1 POP SWAP3 SWAP2 POP POP JUMP JUMPDEST PUSH0 PUSH1 0x8 DUP4 MUL PUSH2 0x429 PUSH32 0xFFFFFFFFFFFFFFFFFFFFFFFFFFFFFFFFFFFFFFFFFFFFFFFFFFFFFFFFFFFFFFFF DUP3 PUSH2 0x3EE JUMP JUMPDEST PUSH2 0x433 DUP7 DUP4 PUSH2 0x3EE JUMP JUMPDEST SWAP6 POP DUP1 NOT DUP5 AND SWAP4 POP DUP1 DUP7 AND DUP5 OR SWAP3 POP POP POP SWAP4 SWAP3 POP POP POP JUMP JUMPDEST PUSH0 DUP2 SWAP1 POP SWAP2 SWAP1 POP JUMP JUMPDEST PUSH0 DUP2 SWAP1 POP SWAP2 SWAP1 POP JUMP JUMPDEST PUSH0 PUSH2 0x477 PUSH2 0x472 PUSH2 0x46D DUP5 PUSH2 0x44B JUMP JUMPDEST PUSH2 0x454 JUMP JUMPDEST PUSH2 0x44B JUMP JUMPDEST SWAP1 POP SWAP2 SWAP1 POP JUMP JUMPDEST PUSH0 DUP2 SWAP1 POP SWAP2 SWAP1 POP JUMP JUMPDEST PUSH2 0x490 DUP4 PUSH2 0x45D JUMP JUMPDEST PUSH2 0x4A4 PUSH2 0x49C DUP3 PUSH2 0x47E JUMP JUMPDEST DUP5 DUP5 SLOAD PUSH2 0x3FA JUMP JUMPDEST DUP3 SSTORE POP POP POP POP JUMP JUMPDEST PUSH0 PUSH0 SWAP1 POP SWAP1 JUMP JUMPDEST PUSH2 0x4BB PUSH2 0x4AC JUMP JUMPDEST PUSH2 0x4C6 DUP2 DUP5 DUP5 PUSH2 0x487 JUMP JUMPDEST POP POP POP JUMP JUMPDEST JUMPDEST DUP2 DUP2 LT ISZERO PUSH2 0x4E9 JUMPI PUSH2 0x4DE PUSH0 DUP3 PUSH2 0x4B3 JUMP JUMPDEST PUSH1 0x1 DUP2 ADD SWAP1 POP PUSH2 0x4CC JUMP JUMPDEST POP POP JUMP JUMPDEST PUSH1 0x1F DUP3 GT ISZERO PUSH2 0x52E JUMPI PUSH2 0x4FF DUP2 PUSH2 0x3CD JUMP JUMPDEST PUSH2 0x508 DUP5 PUSH2 0x3DF JUMP JUMPDEST DUP2 ADD PUSH1 0x20 DUP6 LT ISZERO PUSH2 0x517 JUMPI DUP2 SWAP1 POP JUMPDEST PUSH2 0x52B PUSH2 0x523 DUP6 PUSH2 0x3DF JUMP JUMPDEST DUP4 ADD DUP3 PUSH2 0x4CB JUMP JUMPDEST POP POP JUMPDEST POP POP POP JUMP JUMPDEST PUSH0 DUP3 DUP3 SHR SWAP1 POP SWAP3 SWAP2 POP POP JUMP JUMPDEST PUSH0 PUSH2 0x54E PUSH0 NOT DUP5 PUSH1 0x8 MUL PUSH2 0x533 JUMP JUMPDEST NOT DUP1 DUP4 AND SWAP2 POP POP SWAP3 SWAP2 POP POP JUMP JUMPDEST PUSH0 PUSH2 0x566 DUP4 DUP4 PUSH2 0x53F JUMP JUMPDEST SWAP2 POP DUP3 PUSH1 0x2 MUL DUP3 OR SWAP1 POP SWAP3 SWAP2 POP POP JUMP JUMPDEST PUSH2 0x57F DUP3 PUSH2 0x339 JUMP JUMPDEST PUSH8 0xFFFFFFFFFFFFFFFF DUP2 GT ISZERO PUSH2 0x598 JUMPI PUSH2 0x597 PUSH2 0x343 JUMP JUMPDEST JUMPDEST PUSH2 0x5A2 DUP3 SLOAD PUSH2 0x39D JUMP JUMPDEST PUSH2 0x5AD DUP3 DUP3 DUP6 PUSH2 0x4ED JUMP JUMPDEST PUSH0 PUSH1 0x20 SWAP1 POP PUSH1 0x1F DUP4 GT PUSH1 0x1 DUP2 EQ PUSH2 0x5DE JUMPI PUSH0 DUP5 ISZERO PUSH2 0x5CC JUMPI DUP3 DUP8 ADD MLOAD SWAP1 POP JUMPDEST PUSH2 0x5D6 DUP6 DUP3 PUSH2 0x55B JUMP JUMPDEST DUP7 SSTORE POP PUSH2 0x63D JUMP JUMPDEST PUSH1 0x1F NOT DUP5 AND PUSH2 0x5EC DUP7 PUSH2 0x3CD JUMP JUMPDEST PUSH0 JUMPDEST DUP3 DUP2 LT ISZERO PUSH2 0x613 JUMPI DUP5 DUP10 ADD MLOAD DUP3 SSTORE PUSH1 0x1 DUP3 ADD SWAP2 POP PUSH1 0x20 DUP6 ADD SWAP5 POP PUSH1 0x20 DUP2 ADD SWAP1 POP PUSH2 0x5EE JUMP JUMPDEST DUP7 DUP4 LT ISZERO PUSH2 0x630 JUMPI DUP5 DUP10 ADD MLOAD PUSH2 0x62C PUSH1 0x1F DUP10 AND DUP3 PUSH2 0x53F JUMP JUMPDEST DUP4 SSTORE POP JUMPDEST PUSH1 0x1 PUSH1 0x2 DUP9 MUL ADD DUP9 SSTORE POP POP POP JUMPDEST POP POP POP POP POP POP JUMP JUMPDEST PUSH0 DUP3 DUP3 MSTORE PUSH1 0x20 DUP3 ADD SWAP1 POP SWAP3 SWAP2 POP POP JUMP JUMPDEST PUSH32 0x43616E6E6F7420736574206F776E657220746F207A65726F0000000000000000 PUSH0 DUP3 ADD MSTORE POP JUMP JUMPDEST PUSH0 PUSH2 0x689 PUSH1 0x18 DUP4 PUSH2 0x645 JUMP JUMPDEST SWAP2 POP PUSH2 0x694 DUP3 PUSH2 0x655 JUMP JUMPDEST PUSH1 0x20 DUP3 ADD SWAP1 POP SWAP2 SWAP1 POP JUMP JUMPDEST PUSH0 PUSH1 0x20 DUP3 ADD SWAP1 POP DUP2 DUP2 SUB PUSH0 DUP4 ADD MSTORE PUSH2 0x6B6 DUP2 PUSH2 0x67D JUMP JUMPDEST SWAP1 POP SWAP2 SWAP1 POP JUMP JUMPDEST PUSH32 0x43616E6E6F74207472616E7366657220746F2073656C66000000000000000000 PUSH0 DUP3 ADD MSTORE POP JUMP JUMPDEST PUSH0 PUSH2 0x6F1 PUSH1 0x17 DUP4 PUSH2 0x645 JUMP JUMPDEST SWAP2 POP PUSH2 0x6FC DUP3 PUSH2 0x6BD JUMP JUMPDEST PUSH1 0x20 DUP3 ADD SWAP1 POP SWAP2 SWAP1 POP JUMP JUMPDEST PUSH0 PUSH1 0x20 DUP3 ADD SWAP1 POP DUP2 DUP2 SUB PUSH0 DUP4 ADD MSTORE PUSH2 0x71E DUP2 PUSH2 0x6E5 JUMP JUMPDEST SWAP1 POP SWAP2 SWAP1 POP JUMP JUMPDEST PUSH1 0x80 MLOAD PUSH2 0x23AA PUSH2 0x744 PUSH0 CODECOPY PUSH0 DUP2 DUP2 PUSH2 0x3E3 ADD MSTORE PUSH2 0xE35 ADD MSTORE PUSH2 0x23AA PUSH0 RETURN INVALID PUSH1 0x80 PUSH1 0x40 MSTORE CALLVALUE DUP1 ISZERO PUSH2 0xF JUMPI PUSH0 PUSH0 REVERT JUMPDEST POP PUSH1 0x4 CALLDATASIZE LT PUSH2 0x114 JUMPI PUSH0 CALLDATALOAD PUSH1 0xE0 SHR DUP1 PUSH4 0x9C84CD10 GT PUSH2 0xA0 JUMPI DUP1 PUSH4 0xEC2B70A4 GT PUSH2 0x6F JUMPI DUP1 PUSH4 0xEC2B70A4 EQ PUSH2 0x28B JUMPI DUP1 PUSH4 0xF2FDE38B EQ PUSH2 0x2A9 JUMPI DUP1 PUSH4 0xF68016B7 EQ PUSH2 0x2C5 JUMPI DUP1 PUSH4 0xFC2A88C3 EQ PUSH2 0x2E3 JUMPI DUP1 PUSH4 0xFF8E583A EQ PUSH2 0x301 JUMPI PUSH2 0x114 JUMP JUMPDEST DUP1 PUSH4 0x9C84CD10 EQ PUSH2 0x211 JUMPI DUP1 PUSH4 0xAFDB0556 EQ PUSH2 0x233 JUMPI DUP1 PUSH4 0xC8F33C91 EQ PUSH2 0x251 JUMPI DUP1 PUSH4 0xD0F784F0 EQ PUSH2 0x26F JUMPI PUSH2 0x114 JUMP JUMPDEST DUP1 PUSH4 0x2F5DF725 GT PUSH2 0xE7 JUMPI DUP1 PUSH4 0x2F5DF725 EQ PUSH2 0x18F JUMPI DUP1 PUSH4 0x6E74336B EQ PUSH2 0x1AD JUMPI DUP1 PUSH4 0x79BA5097 EQ PUSH2 0x1CB JUMPI DUP1 PUSH4 0x8DA5CB5B EQ PUSH2 0x1D5 JUMPI DUP1 PUSH4 0x8E15F473 EQ PUSH2 0x1F3 JUMPI PUSH2 0x114 JUMP JUMPDEST DUP1 PUSH4 0x5239CA1 EQ PUSH2 0x118 JUMPI DUP1 PUSH4 0x9C1BA2E EQ PUSH2 0x134 JUMPI DUP1 PUSH4 0xCA76175 EQ PUSH2 0x152 JUMPI DUP1 PUSH4 0x26C4C889 EQ PUSH2 0x16E JUMPI JUMPDEST PUSH0 PUSH0 REVERT JUMPDEST PUSH2 0x132 PUSH1 0x4 DUP1 CALLDATASIZE SUB DUP2 ADD SWAP1 PUSH2 0x12D SWAP2 SWAP1 PUSH2 0x1726 JUMP JUMPDEST PUSH2 0x31F JUMP JUMPDEST STOP JUMPDEST PUSH2 0x13C PUSH2 0x3C8 JUMP JUMPDEST PUSH1 0x40 MLOAD PUSH2 0x149 SWAP2 SWAP1 PUSH2 0x1773 JUMP JUMPDEST PUSH1 0x40 MLOAD DUP1 SWAP2 SUB SWAP1 RETURN JUMPDEST PUSH2 0x16C PUSH1 0x4 DUP1 CALLDATASIZE SUB DUP2 ADD SWAP1 PUSH2 0x167 SWAP2 SWAP1 PUSH2 0x18FB JUMP JUMPDEST PUSH2 0x3E1 JUMP JUMPDEST STOP JUMPDEST PUSH2 0x176 PUSH2 0x4A3 JUMP JUMPDEST PUSH1 0x40 MLOAD PUSH2 0x186 SWAP5 SWAP4 SWAP3 SWAP2 SWAP1 PUSH2 0x19F2 JUMP JUMPDEST PUSH1 0x40 MLOAD DUP1 SWAP2 SUB SWAP1 RETURN JUMPDEST PUSH2 0x197 PUSH2 0x4EA JUMP JUMPDEST PUSH1 0x40 MLOAD PUSH2 0x1A4 SWAP2 SWAP1 PUSH2 0x1A56 JUMP JUMPDEST PUSH1 0x40 MLOAD DUP1 SWAP2 SUB SWAP1 RETURN JUMPDEST PUSH2 0x1B5 PUSH2 0x502 JUMP JUMPDEST PUSH1 0x40 MLOAD PUSH2 0x1C2 SWAP2 SWAP1 PUSH2 0x1A7E JUMP JUMPDEST PUSH1 0x40 MLOAD DUP1 SWAP2 SUB SWAP1 RETURN JUMPDEST PUSH2 0x1D3 PUSH2 0x508 JUMP JUMPDEST STOP JUMPDEST PUSH2 0x1DD PUSH2 0x697 JUMP JUMPDEST PUSH1 0x40 MLOAD PUSH2 0x1EA SWAP2 SWAP1 PUSH2 0x1AD6 JUMP JUMPDEST PUSH1 0x40 MLOAD DUP1 SWAP2 SUB SWAP1 RETURN JUMPDEST PUSH2 0x1FB PUSH2 0x6BE JUMP JUMPDEST PUSH1 0x40 MLOAD PUSH2 0x208 SWAP2 SWAP1 PUSH2 0x1AEF JUMP JUMPDEST PUSH1 0x40 MLOAD DUP1 SWAP2 SUB SWAP1 RETURN JUMPDEST PUSH2 0x219 PUSH2 0x6C7 JUMP JUMPDEST PUSH1 0x40 MLOAD PUSH2 0x22A SWAP6 SWAP5 SWAP4 SWAP3 SWAP2 SWAP1 PUSH2 0x1B08 JUMP JUMPDEST PUSH1 0x40 MLOAD DUP1 SWAP2 SUB SWAP1 RETURN JUMPDEST PUSH2 0x23B PUSH2 0x709 JUMP JUMPDEST PUSH1 0x40 MLOAD PUSH2 0x248 SWAP2 SWAP1 PUSH2 0x1A7E JUMP JUMPDEST PUSH1 0x40 MLOAD DUP1 SWAP2 SUB SWAP1 RETURN JUMPDEST PUSH2 0x259 PUSH2 0x824 JUMP JUMPDEST PUSH1 0x40 MLOAD PUSH2 0x266 SWAP2 SWAP1 PUSH2 0x1AEF JUMP JUMPDEST PUSH1 0x40 MLOAD DUP1 SWAP2 SUB SWAP1 RETURN JUMPDEST PUSH2 0x289 PUSH1 0x4 DUP1 CALLDATASIZE SUB DUP2 ADD SWAP1 PUSH2 0x284 SWAP2 SWAP1 PUSH2 0x1BBC JUMP JUMPDEST PUSH2 0x82A JUMP JUMPDEST STOP JUMPDEST PUSH2 0x293 PUSH2 0x887 JUMP JUMPDEST PUSH1 0x40 MLOAD PUSH2 0x2A0 SWAP2 SWAP1 PUSH2 0x1AEF JUMP JUMPDEST PUSH1 0x40 MLOAD DUP1 SWAP2 SUB SWAP1 RETURN JUMPDEST PUSH2 0x2C3 PUSH1 0x4 DUP1 CALLDATASIZE SUB DUP2 ADD SWAP1 PUSH2 0x2BE SWAP2 SWAP1 PUSH2 0x1C36 JUMP JUMPDEST PUSH2 0x8A2 JUMP JUMPDEST STOP JUMPDEST PUSH2 0x2CD PUSH2 0x8B6 JUMP JUMPDEST PUSH1 0x40 MLOAD PUSH2 0x2DA SWAP2 SWAP1 PUSH2 0x1C70 JUMP JUMPDEST PUSH1 0x40 MLOAD DUP1 SWAP2 SUB SWAP1 RETURN JUMPDEST PUSH2 0x2EB PUSH2 0x8CC JUMP JUMPDEST PUSH1 0x40 MLOAD PUSH2 0x2F8 SWAP2 SWAP1 PUSH2 0x1A7E JUMP JUMPDEST PUSH1 0x40 MLOAD DUP1 SWAP2 SUB SWAP1 RETURN JUMPDEST PUSH2 0x309 PUSH2 0x8D2 JUMP JUMPDEST PUSH1 0x40 MLOAD PUSH2 0x316 SWAP2 SWAP1 PUSH2 0x1AEF JUMP JUMPDEST PUSH1 0x40 MLOAD DUP1 SWAP2 SUB SWAP1 RETURN JUMPDEST PUSH2 0x327 PUSH2 0x8DB JUMP JUMPDEST PUSH0 DUP2 GT PUSH2 0x369 JUMPI PUSH1 0x40 MLOAD PUSH32 0x8C379A000000000000000000000000000000000000000000000000000000000 DUP2 MSTORE PUSH1 0x4 ADD PUSH2 0x360 SWAP1 PUSH2 0x1CD3 JUMP JUMPDEST PUSH1 0x40 MLOAD DUP1 SWAP2 SUB SWAP1 REVERT JUMPDEST PUSH8 0xDE0B6B3A7640000 DUP2 PUSH2 0x37D SWAP2 SWAP1 PUSH2 0x1D1E JUMP JUMPDEST PUSH1 0x2 DUP2 SWAP1 SSTORE POP TIMESTAMP PUSH1 0x3 DUP2 SWAP1 SSTORE POP PUSH32 0x945C1C4E99AA89F648FBFE3DF471B916F719E16D960FCEC0737D4D56BD696838 PUSH1 0x2 SLOAD TIMESTAMP PUSH1 0x40 MLOAD PUSH2 0x3BD SWAP3 SWAP2 SWAP1 PUSH2 0x1D5F JUMP JUMPDEST PUSH1 0x40 MLOAD DUP1 SWAP2 SUB SWAP1 LOG1 POP JUMP JUMPDEST PUSH1 0x5 PUSH0 SWAP1 SLOAD SWAP1 PUSH2 0x100 EXP SWAP1 DIV PUSH8 0xFFFFFFFFFFFFFFFF AND DUP2 JUMP JUMPDEST PUSH32 0x0 PUSH20 0xFFFFFFFFFFFFFFFFFFFFFFFFFFFFFFFFFFFFFFFF AND CALLER PUSH20 0xFFFFFFFFFFFFFFFFFFFFFFFFFFFFFFFFFFFFFFFF AND EQ PUSH2 0x466 JUMPI PUSH1 0x40 MLOAD PUSH32 0xC6829F8300000000000000000000000000000000000000000000000000000000 DUP2 MSTORE PUSH1 0x4 ADD PUSH1 0x40 MLOAD DUP1 SWAP2 SUB SWAP1 REVERT JUMPDEST PUSH2 0x471 DUP4 DUP4 DUP4 PUSH2 0x96B JUMP JUMPDEST DUP3 PUSH32 0x85E1543BF2F84FE80C6BADBCE3648C8539AD1DF4D2B3D822938CA0538BE727E6 PUSH1 0x40 MLOAD PUSH1 0x40 MLOAD DUP1 SWAP2 SUB SWAP1 LOG2 POP POP POP JUMP JUMPDEST PUSH0 PUSH0 PUSH0 PUSH1 0x60 PUSH1 0x2 SLOAD PUSH7 0x2386F26FC10000 PUSH1 0x2 SLOAD PUSH2 0x4C0 SWAP2 SWAP1 PUSH2 0x1DB3 JUMP JUMPDEST PUSH1 0x2 SLOAD PUSH1 0x40 MLOAD DUP1 PUSH1 0x60 ADD PUSH1 0x40 MSTORE DUP1 PUSH1 0x2F DUP2 MSTORE PUSH1 0x20 ADD PUSH2 0x2346 PUSH1 0x2F SWAP2 CODECOPY SWAP4 POP SWAP4 POP SWAP4 POP SWAP4 POP SWAP1 SWAP2 SWAP3 SWAP4 JUMP JUMPDEST PUSH0 PUSH2 0xE10 PUSH1 0x3 SLOAD TIMESTAMP PUSH2 0x4FC SWAP2 SWAP1 PUSH2 0x1DE3 JUMP JUMPDEST GT SWAP1 POP SWAP1 JUMP JUMPDEST PUSH1 0x6 SLOAD DUP2 JUMP JUMPDEST PUSH1 0x1 PUSH0 SWAP1 SLOAD SWAP1 PUSH2 0x100 EXP SWAP1 DIV PUSH20 0xFFFFFFFFFFFFFFFFFFFFFFFFFFFFFFFFFFFFFFFF AND PUSH20 0xFFFFFFFFFFFFFFFFFFFFFFFFFFFFFFFFFFFFFFFF AND CALLER PUSH20 0xFFFFFFFFFFFFFFFFFFFFFFFFFFFFFFFFFFFFFFFF AND EQ PUSH2 0x597 JUMPI PUSH1 0x40 MLOAD PUSH32 0x8C379A000000000000000000000000000000000000000000000000000000000 DUP2 MSTORE PUSH1 0x4 ADD PUSH2 0x58E SWAP1 PUSH2 0x1E60 JUMP JUMPDEST PUSH1 0x40 MLOAD DUP1 SWAP2 SUB SWAP1 REVERT JUMPDEST PUSH0 PUSH0 PUSH0 SWAP1 SLOAD SWAP1 PUSH2 0x100 EXP SWAP1 DIV PUSH20 0xFFFFFFFFFFFFFFFFFFFFFFFFFFFFFFFFFFFFFFFF AND SWAP1 POP CALLER PUSH0 PUSH0 PUSH2 0x100 EXP DUP2 SLOAD DUP2 PUSH20 0xFFFFFFFFFFFFFFFFFFFFFFFFFFFFFFFFFFFFFFFF MUL NOT AND SWAP1 DUP4 PUSH20 0xFFFFFFFFFFFFFFFFFFFFFFFFFFFFFFFFFFFFFFFF AND MUL OR SWAP1 SSTORE POP PUSH0 PUSH1 0x1 PUSH0 PUSH2 0x100 EXP DUP2 SLOAD DUP2 PUSH20 0xFFFFFFFFFFFFFFFFFFFFFFFFFFFFFFFFFFFFFFFF MUL NOT AND SWAP1 DUP4 PUSH20 0xFFFFFFFFFFFFFFFFFFFFFFFFFFFFFFFFFFFFFFFF AND MUL OR SWAP1 SSTORE POP CALLER PUSH20 0xFFFFFFFFFFFFFFFFFFFFFFFFFFFFFFFFFFFFFFFF AND DUP2 PUSH20 0xFFFFFFFFFFFFFFFFFFFFFFFFFFFFFFFFFFFFFFFF AND PUSH32 0x8BE0079C531659141344CD1FD0A4F28419497F9722A3DAAFE3B4186F6B6457E0 PUSH1 0x40 MLOAD PUSH1 0x40 MLOAD DUP1 SWAP2 SUB SWAP1 LOG3 POP JUMP JUMPDEST PUSH0 PUSH0 PUSH0 SWAP1 SLOAD SWAP1 PUSH2 0x100 EXP SWAP1 DIV PUSH20 0xFFFFFFFFFFFFFFFFFFFFFFFFFFFFFFFFFFFFFFFF AND SWAP1 POP SWAP1 JUMP JUMPDEST PUSH0 PUSH1 0x2 SLOAD SWAP1 POP SWAP1 JUMP JUMPDEST PUSH0 PUSH0 PUSH0 PUSH0 PUSH0 PUSH1 0x2 SLOAD PUSH7 0x2386F26FC10000 PUSH1 0x2 SLOAD PUSH2 0x6E4 SWAP2 SWAP1 PUSH2 0x1DB3 JUMP JUMPDEST PUSH1 0x3 SLOAD PUSH1 0x3 SLOAD TIMESTAMP PUSH2 0x6F5 SWAP2 SWAP1 PUSH2 0x1DE3 JUMP JUMPDEST PUSH1 0x4 SLOAD SWAP5 POP SWAP5 POP SWAP5 POP SWAP5 POP SWAP5 POP SWAP1 SWAP2 SWAP3 SWAP4 SWAP5 JUMP JUMPDEST PUSH0 PUSH2 0x712 PUSH2 0x163B JUMP JUMPDEST PUSH2 0x7AD PUSH1 0x7 DUP1 SLOAD PUSH2 0x722 SWAP1 PUSH2 0x1EAB JUMP JUMPDEST DUP1 PUSH1 0x1F ADD PUSH1 0x20 DUP1 SWAP2 DIV MUL PUSH1 0x20 ADD PUSH1 0x40 MLOAD SWAP1 DUP2 ADD PUSH1 0x40 MSTORE DUP1 SWAP3 SWAP2 SWAP1 DUP2 DUP2 MSTORE PUSH1 0x20 ADD DUP3 DUP1 SLOAD PUSH2 0x74E SWAP1 PUSH2 0x1EAB JUMP JUMPDEST DUP1 ISZERO PUSH2 0x799 JUMPI DUP1 PUSH1 0x1F LT PUSH2 0x770 JUMPI PUSH2 0x100 DUP1 DUP4 SLOAD DIV MUL DUP4 MSTORE SWAP2 PUSH1 0x20 ADD SWAP2 PUSH2 0x799 JUMP JUMPDEST DUP3 ADD SWAP2 SWAP1 PUSH0 MSTORE PUSH1 0x20 PUSH0 KECCAK256 SWAP1 JUMPDEST DUP2 SLOAD DUP2 MSTORE SWAP1 PUSH1 0x1 ADD SWAP1 PUSH1 0x20 ADD DUP1 DUP4 GT PUSH2 0x77C JUMPI DUP3 SWAP1 SUB PUSH1 0x1F AND DUP3 ADD SWAP2 JUMPDEST POP POP POP POP POP DUP3 PUSH2 0xA16 SWAP1 SWAP2 SWAP1 PUSH4 0xFFFFFFFF AND JUMP JUMPDEST PUSH2 0x7EA PUSH2 0x7B9 DUP3 PUSH2 0xA26 JUMP JUMPDEST PUSH1 0x5 PUSH0 SWAP1 SLOAD SWAP1 PUSH2 0x100 EXP SWAP1 DIV PUSH8 0xFFFFFFFFFFFFFFFF AND PUSH1 0x5 PUSH1 0x8 SWAP1 SLOAD SWAP1 PUSH2 0x100 EXP SWAP1 DIV PUSH4 0xFFFFFFFF AND PUSH1 0x6 SLOAD PUSH2 0xE31 JUMP JUMPDEST SWAP2 POP DUP2 PUSH1 0x4 DUP2 SWAP1 SSTORE POP DUP2 PUSH32 0x655F2DCA0174CE451AA939C62EA493C734778CC67C6783626B08AD34985E6C61 PUSH1 0x40 MLOAD PUSH1 0x40 MLOAD DUP1 SWAP2 SUB SWAP1 LOG2 POP SWAP1 JUMP JUMPDEST PUSH1 0x3 SLOAD DUP2 JUMP JUMPDEST PUSH2 0x832 PUSH2 0x8DB JUMP JUMPDEST DUP3 PUSH1 0x5 PUSH0 PUSH2 0x100 EXP DUP2 SLOAD DUP2 PUSH8 0xFFFFFFFFFFFFFFFF MUL NOT AND SWAP1 DUP4 PUSH8 0xFFFFFFFFFFFFFFFF AND MUL OR SWAP1 SSTORE POP DUP2 PUSH1 0x5 PUSH1 0x8 PUSH2 0x100 EXP DUP2 SLOAD DUP2 PUSH4 0xFFFFFFFF MUL NOT AND SWAP1 DUP4 PUSH4 0xFFFFFFFF AND MUL OR SWAP1 SSTORE POP DUP1 PUSH1 0x6 DUP2 SWAP1 SSTORE POP POP POP POP JUMP JUMPDEST PUSH0 PUSH7 0x2386F26FC10000 PUSH1 0x2 SLOAD PUSH2 0x89D SWAP2 SWAP1 PUSH2 0x1DB3 JUMP JUMPDEST SWAP1 POP SWAP1 JUMP JUMPDEST PUSH2 0x8AA PUSH2 0x8DB JUMP JUMPDEST PUSH2 0x8B3 DUP2 PUSH2 0xF10 JUMP JUMPDEST POP JUMP JUMPDEST PUSH1 0x5 PUSH1 0x8 SWAP1 SLOAD SWAP1 PUSH2 0x100 EXP SWAP1 DIV PUSH4 0xFFFFFFFF AND DUP2 JUMP JUMPDEST PUSH1 0x4 SLOAD DUP2 JUMP JUMPDEST PUSH0 PUSH1 0x2 SLOAD SWAP1 POP SWAP1 JUMP JUMPDEST PUSH0 PUSH0 SWAP1 SLOAD SWAP1 PUSH2 0x100 EXP SWAP1 DIV PUSH20 0xFFFFFFFFFFFFFFFFFFFFFFFFFFFFFFFFFFFFFFFF AND PUSH20 0xFFFFFFFFFFFFFFFFFFFFFFFFFFFFFFFFFFFFFFFF AND CALLER PUSH20 0xFFFFFFFFFFFFFFFFFFFFFFFFFFFFFFFFFFFFFFFF AND EQ PUSH2 0x969 JUMPI PUSH1 0x40 MLOAD PUSH32 0x8C379A000000000000000000000000000000000000000000000000000000000 DUP2 MSTORE PUSH1 0x4 ADD PUSH2 0x960 SWAP1 PUSH2 0x1F25 JUMP JUMPDEST PUSH1 0x40 MLOAD DUP1 SWAP2 SUB SWAP1 REVERT JUMPDEST JUMP JUMPDEST PUSH0 DUP2 MLOAD GT ISZERO PUSH2 0x9B1 JUMPI DUP3 PUSH32 0x61982C98CBC49D11759A948F460B92BCA26BDF12CEEE12C310F117EB2CA9A9CB DUP3 PUSH1 0x40 MLOAD PUSH2 0x9A4 SWAP2 SWAP1 PUSH2 0x1F95 JUMP JUMPDEST PUSH1 0x40 MLOAD DUP1 SWAP2 SUB SWAP1 LOG2 PUSH2 0xA11 JUMP JUMPDEST PUSH0 DUP3 DUP1 PUSH1 0x20 ADD SWAP1 MLOAD DUP2 ADD SWAP1 PUSH2 0x9C6 SWAP2 SWAP1 PUSH2 0x1FC9 JUMP JUMPDEST SWAP1 POP DUP1 PUSH1 0x2 DUP2 SWAP1 SSTORE POP TIMESTAMP PUSH1 0x3 DUP2 SWAP1 SSTORE POP PUSH32 0x945C1C4E99AA89F648FBFE3DF471B916F719E16D960FCEC0737D4D56BD696838 DUP2 TIMESTAMP PUSH1 0x40 MLOAD PUSH2 0xA07 SWAP3 SWAP2 SWAP1 PUSH2 0x1D5F JUMP JUMPDEST PUSH1 0x40 MLOAD DUP1 SWAP2 SUB SWAP1 LOG1 POP JUMPDEST POP POP POP JUMP JUMPDEST PUSH2 0xA22 DUP3 PUSH0 PUSH0 DUP5 PUSH2 0x103B JUMP JUMPDEST POP POP JUMP JUMPDEST PUSH1 0x60 PUSH0 PUSH2 0xA34 PUSH2 0x100 PUSH2 0x10E1 JUMP JUMPDEST SWAP1 POP PUSH2 0xA7E PUSH1 0x40 MLOAD DUP1 PUSH1 0x40 ADD PUSH1 0x40 MSTORE DUP1 PUSH1 0xC DUP2 MSTORE PUSH1 0x20 ADD PUSH32 0x636F64654C6F636174696F6E0000000000000000000000000000000000000000 DUP2 MSTORE POP DUP3 PUSH2 0x1106 SWAP1 SWAP2 SWAP1 PUSH4 0xFFFFFFFF AND JUMP JUMPDEST PUSH2 0xAA6 DUP4 PUSH0 ADD MLOAD PUSH1 0x2 DUP2 GT ISZERO PUSH2 0xA97 JUMPI PUSH2 0xA96 PUSH2 0x1FF4 JUMP JUMPDEST JUMPDEST DUP3 PUSH2 0x112E SWAP1 SWAP2 SWAP1 PUSH4 0xFFFFFFFF AND JUMP JUMPDEST PUSH2 0xAEE PUSH1 0x40 MLOAD DUP1 PUSH1 0x40 ADD PUSH1 0x40 MSTORE DUP1 PUSH1 0x8 DUP2 MSTORE PUSH1 0x20 ADD PUSH32 0x6C616E6775616765000000000000000000000000000000000000000000000000 DUP2 MSTORE POP DUP3 PUSH2 0x1106 SWAP1 SWAP2 SWAP1 PUSH4 0xFFFFFFFF AND JUMP JUMPDEST PUSH2 0xB16 DUP4 PUSH1 0x40 ADD MLOAD PUSH0 DUP2 GT ISZERO PUSH2 0xB07 JUMPI PUSH2 0xB06 PUSH2 0x1FF4 JUMP JUMPDEST JUMPDEST DUP3 PUSH2 0x112E SWAP1 SWAP2 SWAP1 PUSH4 0xFFFFFFFF AND JUMP JUMPDEST PUSH2 0xB5E PUSH1 0x40 MLOAD DUP1 PUSH1 0x40 ADD PUSH1 0x40 MSTORE DUP1 PUSH1 0x6 DUP2 MSTORE PUSH1 0x20 ADD PUSH32 0x736F757263650000000000000000000000000000000000000000000000000000 DUP2 MSTORE POP DUP3 PUSH2 0x1106 SWAP1 SWAP2 SWAP1 PUSH4 0xFFFFFFFF AND JUMP JUMPDEST PUSH2 0xB75 DUP4 PUSH1 0x60 ADD MLOAD DUP3 PUSH2 0x1106 SWAP1 SWAP2 SWAP1 PUSH4 0xFFFFFFFF AND JUMP JUMPDEST PUSH0 DUP4 PUSH1 0xA0 ADD MLOAD MLOAD GT ISZERO PUSH2 0xC2C JUMPI PUSH2 0xBCA PUSH1 0x40 MLOAD DUP1 PUSH1 0x40 ADD PUSH1 0x40 MSTORE DUP1 PUSH1 0x4 DUP2 MSTORE PUSH1 0x20 ADD PUSH32 0x6172677300000000000000000000000000000000000000000000000000000000 DUP2 MSTORE POP DUP3 PUSH2 0x1106 SWAP1 SWAP2 SWAP1 PUSH4 0xFFFFFFFF AND JUMP JUMPDEST PUSH2 0xBD3 DUP2 PUSH2 0x117D JUMP JUMPDEST PUSH0 PUSH0 SWAP1 POP JUMPDEST DUP4 PUSH1 0xA0 ADD MLOAD MLOAD DUP2 LT ISZERO PUSH2 0xC21 JUMPI PUSH2 0xC16 DUP5 PUSH1 0xA0 ADD MLOAD DUP3 DUP2 MLOAD DUP2 LT PUSH2 0xBFF JUMPI PUSH2 0xBFE PUSH2 0x2021 JUMP JUMPDEST JUMPDEST PUSH1 0x20 MUL PUSH1 0x20 ADD ADD MLOAD DUP4 PUSH2 0x1106 SWAP1 SWAP2 SWAP1 PUSH4 0xFFFFFFFF AND JUMP JUMPDEST DUP1 PUSH1 0x1 ADD SWAP1 POP PUSH2 0xBD8 JUMP JUMPDEST POP PUSH2 0xC2B DUP2 PUSH2 0x11A5 JUMP JUMPDEST JUMPDEST PUSH0 DUP4 PUSH1 0x80 ADD MLOAD MLOAD GT ISZERO PUSH2 0xD6B JUMPI PUSH0 PUSH1 0x2 DUP2 GT ISZERO PUSH2 0xC4C JUMPI PUSH2 0xC4B PUSH2 0x1FF4 JUMP JUMPDEST JUMPDEST DUP4 PUSH1 0x20 ADD MLOAD PUSH1 0x2 DUP2 GT ISZERO PUSH2 0xC63 JUMPI PUSH2 0xC62 PUSH2 0x1FF4 JUMP JUMPDEST JUMPDEST SUB PUSH2 0xC9A JUMPI PUSH1 0x40 MLOAD PUSH32 0xA80D31F700000000000000000000000000000000000000000000000000000000 DUP2 MSTORE PUSH1 0x4 ADD PUSH1 0x40 MLOAD DUP1 SWAP2 SUB SWAP1 REVERT JUMPDEST PUSH2 0xCE2 PUSH1 0x40 MLOAD DUP1 PUSH1 0x40 ADD PUSH1 0x40 MSTORE DUP1 PUSH1 0xF DUP2 MSTORE PUSH1 0x20 ADD PUSH32 0x736563726574734C6F636174696F6E0000000000000000000000000000000000 DUP2 MSTORE POP DUP3 PUSH2 0x1106 SWAP1 SWAP2 SWAP1 PUSH4 0xFFFFFFFF AND JUMP JUMPDEST PUSH2 0xD0B DUP4 PUSH1 0x20 ADD MLOAD PUSH1 0x2 DUP2 GT ISZERO PUSH2 0xCFC JUMPI PUSH2 0xCFB PUSH2 0x1FF4 JUMP JUMPDEST JUMPDEST DUP3 PUSH2 0x112E SWAP1 SWAP2 SWAP1 PUSH4 0xFFFFFFFF AND JUMP JUMPDEST PUSH2 0xD53 PUSH1 0x40 MLOAD DUP1 PUSH1 0x40 ADD PUSH1 0x40 MSTORE DUP1 PUSH1 0x7 DUP2 MSTORE PUSH1 0x20 ADD PUSH32 0x7365637265747300000000000000000000000000000000000000000000000000 DUP2 MSTORE POP DUP3 PUSH2 0x1106 SWAP1 SWAP2 SWAP1 PUSH4 0xFFFFFFFF AND JUMP JUMPDEST PUSH2 0xD6A DUP4 PUSH1 0x80 ADD MLOAD DUP3 PUSH2 0x11CD SWAP1 SWAP2 SWAP1 PUSH4 0xFFFFFFFF AND JUMP JUMPDEST JUMPDEST PUSH0 DUP4 PUSH1 0xC0 ADD MLOAD MLOAD GT ISZERO PUSH2 0xE22 JUMPI PUSH2 0xDC0 PUSH1 0x40 MLOAD DUP1 PUSH1 0x40 ADD PUSH1 0x40 MSTORE DUP1 PUSH1 0x9 DUP2 MSTORE PUSH1 0x20 ADD PUSH32 0x6279746573417267730000000000000000000000000000000000000000000000 DUP2 MSTORE POP DUP3 PUSH2 0x1106 SWAP1 SWAP2 SWAP1 PUSH4 0xFFFFFFFF AND JUMP JUMPDEST PUSH2 0xDC9 DUP2 PUSH2 0x117D JUMP JUMPDEST PUSH0 PUSH0 SWAP1 POP JUMPDEST DUP4 PUSH1 0xC0 ADD MLOAD MLOAD DUP2 LT ISZERO PUSH2 0xE17 JUMPI PUSH2 0xE0C DUP5 PUSH1 0xC0 ADD MLOAD DUP3 DUP2 MLOAD DUP2 LT PUSH2 0xDF5 JUMPI PUSH2 0xDF4 PUSH2 0x2021 JUMP JUMPDEST JUMPDEST PUSH1 0x20 MUL PUSH1 0x20 ADD ADD MLOAD DUP4 PUSH2 0x11CD SWAP1 SWAP2 SWAP1 PUSH4 0xFFFFFFFF AND JUMP JUMPDEST DUP1 PUSH1 0x1 ADD SWAP1 POP PUSH2 0xDCE JUMP JUMPDEST POP PUSH2 0xE21 DUP2 PUSH2 0x11A5 JUMP JUMPDEST JUMPDEST DUP1 PUSH0 ADD MLOAD PUSH0 ADD MLOAD SWAP2 POP POP SWAP2 SWAP1 POP JUMP JUMPDEST PUSH0 PUSH0 PUSH32 0x0 PUSH20 0xFFFFFFFFFFFFFFFFFFFFFFFFFFFFFFFFFFFFFFFF AND PUSH4 0x461D2762 DUP7 DUP9 PUSH1 0x1 DUP9 DUP9 PUSH1 0x40 MLOAD DUP7 PUSH4 0xFFFFFFFF AND PUSH1 0xE0 SHL DUP2 MSTORE PUSH1 0x4 ADD PUSH2 0xE95 SWAP6 SWAP5 SWAP4 SWAP3 SWAP2 SWAP1 PUSH2 0x206A JUMP JUMPDEST PUSH1 0x20 PUSH1 0x40 MLOAD DUP1 DUP4 SUB DUP2 PUSH0 DUP8 GAS CALL ISZERO DUP1 ISZERO PUSH2 0xEB1 JUMPI RETURNDATASIZE PUSH0 PUSH0 RETURNDATACOPY RETURNDATASIZE PUSH0 REVERT JUMPDEST POP POP POP POP PUSH1 0x40 MLOAD RETURNDATASIZE PUSH1 0x1F NOT PUSH1 0x1F DUP3 ADD AND DUP3 ADD DUP1 PUSH1 0x40 MSTORE POP DUP2 ADD SWAP1 PUSH2 0xED5 SWAP2 SWAP1 PUSH2 0x20D6 JUMP JUMPDEST SWAP1 POP DUP1 PUSH32 0x1131472297A800FEE664D1D89CFA8F7676FF07189ECC53F80BBB5F4969099DB8 PUSH1 0x40 MLOAD PUSH1 0x40 MLOAD DUP1 SWAP2 SUB SWAP1 LOG2 DUP1 SWAP2 POP POP SWAP5 SWAP4 POP POP POP POP JUMP JUMPDEST CALLER PUSH20 0xFFFFFFFFFFFFFFFFFFFFFFFFFFFFFFFFFFFFFFFF AND DUP2 PUSH20 0xFFFFFFFFFFFFFFFFFFFFFFFFFFFFFFFFFFFFFFFF AND SUB PUSH2 0xF7E JUMPI PUSH1 0x40 MLOAD PUSH32 0x8C379A000000000000000000000000000000000000000000000000000000000 DUP2 MSTORE PUSH1 0x4 ADD PUSH2 0xF75 SWAP1 PUSH2 0x214B JUMP JUMPDEST PUSH1 0x40 MLOAD DUP1 SWAP2 SUB SWAP1 REVERT JUMPDEST DUP1 PUSH1 0x1 PUSH0 PUSH2 0x100 EXP DUP2 SLOAD DUP2 PUSH20 0xFFFFFFFFFFFFFFFFFFFFFFFFFFFFFFFFFFFFFFFF MUL NOT AND SWAP1 DUP4 PUSH20 0xFFFFFFFFFFFFFFFFFFFFFFFFFFFFFFFFFFFFFFFF AND MUL OR SWAP1 SSTORE POP DUP1 PUSH20 0xFFFFFFFFFFFFFFFFFFFFFFFFFFFFFFFFFFFFFFFF AND PUSH0 PUSH0 SWAP1 SLOAD SWAP1 PUSH2 0x100 EXP SWAP1 DIV PUSH20 0xFFFFFFFFFFFFFFFFFFFFFFFFFFFFFFFFFFFFFFFF AND PUSH20 0xFFFFFFFFFFFFFFFFFFFFFFFFFFFFFFFFFFFFFFFF AND PUSH32 0xED8889F560326EB138920D842192F0EB3DD22B4F139C87A2C57538E05BAE1278 PUSH1 0x40 MLOAD PUSH1 0x40 MLOAD DUP1 SWAP2 SUB SWAP1 LOG3 POP JUMP JUMPDEST PUSH0 DUP2 MLOAD SUB PUSH2 0x1075 JUMPI PUSH1 0x40 MLOAD PUSH32 0x22CE3EDD00000000000000000000000000000000000000000000000000000000 DUP2 MSTORE PUSH1 0x4 ADD PUSH1 0x40 MLOAD DUP1 SWAP2 SUB SWAP1 REVERT JUMPDEST DUP3 DUP5 PUSH0 ADD SWAP1 PUSH1 0x2 DUP2 GT ISZERO PUSH2 0x108C JUMPI PUSH2 0x108B PUSH2 0x1FF4 JUMP JUMPDEST JUMPDEST SWAP1 DUP2 PUSH1 0x2 DUP2 GT ISZERO PUSH2 0x10A0 JUMPI PUSH2 0x109F PUSH2 0x1FF4 JUMP JUMPDEST JUMPDEST DUP2 MSTORE POP POP DUP2 DUP5 PUSH1 0x40 ADD SWAP1 PUSH0 DUP2 GT ISZERO PUSH2 0x10BB JUMPI PUSH2 0x10BA PUSH2 0x1FF4 JUMP JUMPDEST JUMPDEST SWAP1 DUP2 PUSH0 DUP2 GT ISZERO PUSH2 0x10CE JUMPI PUSH2 0x10CD PUSH2 0x1FF4 JUMP JUMPDEST JUMPDEST DUP2 MSTORE POP POP DUP1 DUP5 PUSH1 0x60 ADD DUP2 SWAP1 MSTORE POP POP POP POP POP JUMP JUMPDEST PUSH2 0x10E9 PUSH2 0x16AA JUMP JUMPDEST PUSH2 0x10F6 DUP2 PUSH0 ADD MLOAD DUP4 PUSH2 0x11F5 JUMP JUMPDEST POP PUSH0 DUP2 PUSH1 0x20 ADD DUP2 DUP2 MSTORE POP POP SWAP2 SWAP1 POP JUMP JUMPDEST PUSH2 0x1113 DUP3 PUSH1 0x3 DUP4 MLOAD PUSH2 0x126B JUMP JUMPDEST PUSH2 0x1129 DUP2 DUP4 PUSH0 ADD MLOAD PUSH2 0x140B SWAP1 SWAP2 SWAP1 PUSH4 0xFFFFFFFF AND JUMP JUMPDEST POP POP POP JUMP JUMPDEST PUSH2 0x114F PUSH1 0x2 PUSH1 0x5 PUSH1 0x6 PUSH1 0xFF AND SWAP1 SHL OR DUP4 PUSH0 ADD MLOAD PUSH2 0x1427 SWAP1 SWAP2 SWAP1 PUSH4 0xFFFFFFFF AND JUMP JUMPDEST POP PUSH2 0x1179 DUP3 DUP3 PUSH1 0x40 MLOAD PUSH1 0x20 ADD PUSH2 0x1165 SWAP2 SWAP1 PUSH2 0x1AEF JUMP JUMPDEST PUSH1 0x40 MLOAD PUSH1 0x20 DUP2 DUP4 SUB SUB DUP2 MSTORE SWAP1 PUSH1 0x40 MSTORE PUSH2 0x11CD JUMP JUMPDEST POP POP JUMP JUMPDEST PUSH2 0x1188 DUP2 PUSH1 0x4 PUSH2 0x148E JUMP JUMPDEST PUSH1 0x1 DUP2 PUSH1 0x20 ADD DUP2 DUP2 MLOAD PUSH2 0x119B SWAP2 SWAP1 PUSH2 0x2169 JUMP JUMPDEST SWAP2 POP DUP2 DUP2 MSTORE POP POP POP JUMP JUMPDEST PUSH2 0x11B0 DUP2 PUSH1 0x7 PUSH2 0x148E JUMP JUMPDEST PUSH1 0x1 DUP2 PUSH1 0x20 ADD DUP2 DUP2 MLOAD PUSH2 0x11C3 SWAP2 SWAP1 PUSH2 0x1DE3 JUMP JUMPDEST SWAP2 POP DUP2 DUP2 MSTORE POP POP POP JUMP JUMPDEST PUSH2 0x11DA DUP3 PUSH1 0x2 DUP4 MLOAD PUSH2 0x126B JUMP JUMPDEST PUSH2 0x11F0 DUP2 DUP4 PUSH0 ADD MLOAD PUSH2 0x140B SWAP1 SWAP2 SWAP1 PUSH4 0xFFFFFFFF AND JUMP JUMPDEST POP POP POP JUMP JUMPDEST PUSH2 0x11FD PUSH2 0x16C9 JUMP JUMPDEST PUSH0 PUSH1 0x20 DUP4 PUSH2 0x120B SWAP2 SWAP1 PUSH2 0x219C JUMP JUMPDEST EQ PUSH2 0x1237 JUMPI PUSH1 0x20 DUP3 PUSH2 0x121D SWAP2 SWAP1 PUSH2 0x219C JUMP JUMPDEST PUSH1 0x20 PUSH2 0x1229 SWAP2 SWAP1 PUSH2 0x1DE3 JUMP JUMPDEST DUP3 PUSH2 0x1234 SWAP2 SWAP1 PUSH2 0x2169 JUMP JUMPDEST SWAP2 POP JUMPDEST DUP2 DUP4 PUSH1 0x20 ADD DUP2 DUP2 MSTORE POP POP PUSH1 0x40 MLOAD DUP1 DUP5 MSTORE PUSH0 DUP2 MSTORE DUP3 DUP2 ADD PUSH1 0x20 ADD DUP2 DUP2 LT ISZERO PUSH2 0x125C JUMPI PUSH0 PUSH0 REVERT JUMPDEST DUP1 PUSH1 0x40 MSTORE POP POP DUP3 SWAP1 POP SWAP3 SWAP2 POP POP JUMP JUMPDEST PUSH1 0x17 DUP2 PUSH8 0xFFFFFFFFFFFFFFFF AND GT PUSH2 0x12A5 JUMPI PUSH2 0x129F DUP2 PUSH1 0x5 DUP5 PUSH1 0xFF AND SWAP1 SHL PUSH1 0xFF AND OR DUP5 PUSH0 ADD MLOAD PUSH2 0x1427 SWAP1 SWAP2 SWAP1 PUSH4 0xFFFFFFFF AND JUMP JUMPDEST POP PUSH2 0x1406 JUMP JUMPDEST PUSH1 0xFF DUP2 PUSH8 0xFFFFFFFFFFFFFFFF AND GT PUSH2 0x1301 JUMPI PUSH2 0x12D7 PUSH1 0x18 PUSH1 0x5 DUP5 PUSH1 0xFF AND SWAP1 SHL OR DUP5 PUSH0 ADD MLOAD PUSH2 0x1427 SWAP1 SWAP2 SWAP1 PUSH4 0xFFFFFFFF AND JUMP JUMPDEST POP PUSH2 0x12FB DUP2 PUSH8 0xFFFFFFFFFFFFFFFF AND PUSH1 0x1 DUP6 PUSH0 ADD MLOAD PUSH2 0x14B3 SWAP1 SWAP3 SWAP2 SWAP1 PUSH4 0xFFFFFFFF AND JUMP JUMPDEST POP PUSH2 0x1405 JUMP JUMPDEST PUSH2 0xFFFF DUP2 PUSH8 0xFFFFFFFFFFFFFFFF AND GT PUSH2 0x135E JUMPI PUSH2 0x1334 PUSH1 0x19 PUSH1 0x5 DUP5 PUSH1 0xFF AND SWAP1 SHL OR DUP5 PUSH0 ADD MLOAD PUSH2 0x1427 SWAP1 SWAP2 SWAP1 PUSH4 0xFFFFFFFF AND JUMP JUMPDEST POP PUSH2 0x1358 DUP2 PUSH8 0xFFFFFFFFFFFFFFFF AND PUSH1 0x2 DUP6 PUSH0 ADD MLOAD PUSH2 0x14B3 SWAP1 SWAP3 SWAP2 SWAP1 PUSH4 0xFFFFFFFF AND JUMP JUMPDEST POP PUSH2 0x1404 JUMP JUMPDEST PUSH4 0xFFFFFFFF DUP2 PUSH8 0xFFFFFFFFFFFFFFFF AND GT PUSH2 0x13BD JUMPI PUSH2 0x1393 PUSH1 0x1A PUSH1 0x5 DUP5 PUSH1 0xFF AND SWAP1 SHL OR DUP5 PUSH0 ADD MLOAD PUSH2 0x1427 SWAP1 SWAP2 SWAP1 PUSH4 0xFFFFFFFF AND JUMP JUMPDEST POP PUSH2 0x13B7 DUP2 PUSH8 0xFFFFFFFFFFFFFFFF AND PUSH1 0x4 DUP6 PUSH0 ADD MLOAD PUSH2 0x14B3 SWAP1 SWAP3 SWAP2 SWAP1 PUSH4 0xFFFFFFFF AND JUMP JUMPDEST POP PUSH2 0x1403 JUMP JUMPDEST PUSH2 0x13DD PUSH1 0x1B PUSH1 0x5 DUP5 PUSH1 0xFF AND SWAP1 SHL OR DUP5 PUSH0 ADD MLOAD PUSH2 0x1427 SWAP1 SWAP2 SWAP1 PUSH4 0xFFFFFFFF AND JUMP JUMPDEST POP PUSH2 0x1401 DUP2 PUSH8 0xFFFFFFFFFFFFFFFF AND PUSH1 0x8 DUP6 PUSH0 ADD MLOAD PUSH2 0x14B3 SWAP1 SWAP3 SWAP2 SWAP1 PUSH4 0xFFFFFFFF AND JUMP JUMPDEST POP JUMPDEST JUMPDEST JUMPDEST JUMPDEST POP POP POP JUMP JUMPDEST PUSH2 0x1413 PUSH2 0x16C9 JUMP JUMPDEST PUSH2 0x141F DUP4 DUP4 DUP5 MLOAD PUSH2 0x153C JUMP JUMPDEST SWAP1 POP SWAP3 SWAP2 POP POP JUMP JUMPDEST PUSH2 0x142F PUSH2 0x16C9 JUMP JUMPDEST PUSH0 DUP4 PUSH0 ADD MLOAD MLOAD SWAP1 POP PUSH0 PUSH1 0x1 DUP3 PUSH2 0x1445 SWAP2 SWAP1 PUSH2 0x2169 JUMP JUMPDEST SWAP1 POP DUP5 PUSH1 0x20 ADD MLOAD DUP3 LT PUSH2 0x1469 JUMPI PUSH2 0x1468 DUP6 PUSH1 0x2 DUP4 PUSH2 0x1463 SWAP2 SWAP1 PUSH2 0x1D1E JUMP JUMPDEST PUSH2 0x1619 JUMP JUMPDEST JUMPDEST DUP5 MLOAD PUSH1 0x20 DUP4 DUP3 ADD ADD DUP6 DUP2 MSTORE8 DUP2 MLOAD DUP4 GT ISZERO PUSH2 0x1481 JUMPI DUP3 DUP3 MSTORE JUMPDEST POP POP DUP5 SWAP3 POP POP POP SWAP3 SWAP2 POP POP JUMP JUMPDEST PUSH2 0x14AE PUSH1 0x1F PUSH1 0x5 DUP4 PUSH1 0xFF AND SWAP1 SHL OR DUP4 PUSH0 ADD MLOAD PUSH2 0x1427 SWAP1 SWAP2 SWAP1 PUSH4 0xFFFFFFFF AND JUMP JUMPDEST POP POP POP JUMP JUMPDEST PUSH2 0x14BB PUSH2 0x16C9 JUMP JUMPDEST PUSH0 DUP5 PUSH0 ADD MLOAD MLOAD SWAP1 POP PUSH0 DUP2 DUP5 PUSH2 0x14D0 SWAP2 SWAP1 PUSH2 0x2169 JUMP JUMPDEST SWAP1 POP DUP6 PUSH1 0x20 ADD MLOAD DUP2 GT ISZERO PUSH2 0x14F5 JUMPI PUSH2 0x14F4 DUP7 PUSH1 0x2 DUP4 PUSH2 0x14EF SWAP2 SWAP1 PUSH2 0x1D1E JUMP JUMPDEST PUSH2 0x1619 JUMP JUMPDEST JUMPDEST PUSH0 PUSH1 0x1 DUP6 PUSH2 0x100 PUSH2 0x1506 SWAP2 SWAP1 PUSH2 0x22FB JUMP JUMPDEST PUSH2 0x1510 SWAP2 SWAP1 PUSH2 0x1DE3 JUMP JUMPDEST SWAP1 POP DUP7 MLOAD DUP3 DUP2 ADD DUP8 DUP4 NOT DUP3 MLOAD AND OR DUP2 MSTORE DUP2 MLOAD DUP5 GT ISZERO PUSH2 0x152D JUMPI DUP4 DUP3 MSTORE JUMPDEST POP POP DUP7 SWAP4 POP POP POP POP SWAP4 SWAP3 POP POP POP JUMP JUMPDEST PUSH2 0x1544 PUSH2 0x16C9 JUMP JUMPDEST DUP3 MLOAD DUP3 GT ISZERO PUSH2 0x1551 JUMPI PUSH0 PUSH0 REVERT JUMPDEST PUSH0 DUP5 PUSH0 ADD MLOAD MLOAD SWAP1 POP PUSH0 DUP4 DUP3 PUSH2 0x1566 SWAP2 SWAP1 PUSH2 0x2169 JUMP JUMPDEST SWAP1 POP DUP6 PUSH1 0x20 ADD MLOAD DUP2 GT ISZERO PUSH2 0x158B JUMPI PUSH2 0x158A DUP7 PUSH1 0x2 DUP4 PUSH2 0x1585 SWAP2 SWAP1 PUSH2 0x1D1E JUMP JUMPDEST PUSH2 0x1619 JUMP JUMPDEST JUMPDEST PUSH0 PUSH0 DUP8 MLOAD DUP1 MLOAD DUP6 PUSH1 0x20 DUP4 ADD ADD SWAP4 POP DUP1 DUP6 GT ISZERO PUSH2 0x15A5 JUMPI DUP5 DUP3 MSTORE JUMPDEST PUSH1 0x20 DUP10 ADD SWAP3 POP POP POP JUMPDEST PUSH1 0x20 DUP7 LT PUSH2 0x15EC JUMPI DUP1 MLOAD DUP3 MSTORE PUSH1 0x20 DUP3 PUSH2 0x15C7 SWAP2 SWAP1 PUSH2 0x2169 JUMP JUMPDEST SWAP2 POP PUSH1 0x20 DUP2 PUSH2 0x15D6 SWAP2 SWAP1 PUSH2 0x2169 JUMP JUMPDEST SWAP1 POP PUSH1 0x20 DUP7 PUSH2 0x15E5 SWAP2 SWAP1 PUSH2 0x1DE3 JUMP JUMPDEST SWAP6 POP PUSH2 0x15AE JUMP JUMPDEST PUSH0 PUSH1 0x1 DUP8 PUSH1 0x20 SUB PUSH2 0x100 EXP SUB SWAP1 POP DUP1 NOT DUP3 MLOAD AND DUP2 DUP5 MLOAD AND DUP2 DUP2 OR DUP6 MSTORE POP POP POP DUP8 SWAP5 POP POP POP POP POP SWAP4 SWAP3 POP POP POP JUMP JUMPDEST PUSH0 DUP3 PUSH0 ADD MLOAD SWAP1 POP PUSH2 0x162A DUP4 DUP4 PUSH2 0x11F5 JUMP JUMPDEST POP PUSH2 0x1635 DUP4 DUP3 PUSH2 0x140B JUMP JUMPDEST POP POP POP POP JUMP JUMPDEST PUSH1 0x40 MLOAD DUP1 PUSH1 0xE0 ADD PUSH1 0x40 MSTORE DUP1 PUSH0 PUSH1 0x2 DUP2 GT ISZERO PUSH2 0x1659 JUMPI PUSH2 0x1658 PUSH2 0x1FF4 JUMP JUMPDEST JUMPDEST DUP2 MSTORE PUSH1 0x20 ADD PUSH0 PUSH1 0x2 DUP2 GT ISZERO PUSH2 0x1671 JUMPI PUSH2 0x1670 PUSH2 0x1FF4 JUMP JUMPDEST JUMPDEST DUP2 MSTORE PUSH1 0x20 ADD PUSH0 PUSH0 DUP2 GT ISZERO PUSH2 0x1688 JUMPI PUSH2 0x1687 PUSH2 0x1FF4 JUMP JUMPDEST JUMPDEST DUP2 MSTORE PUSH1 0x20 ADD PUSH1 0x60 DUP2 MSTORE PUSH1 0x20 ADD PUSH1 0x60 DUP2 MSTORE PUSH1 0x20 ADD PUSH1 0x60 DUP2 MSTORE PUSH1 0x20 ADD PUSH1 0x60 DUP2 MSTORE POP SWAP1 JUMP JUMPDEST PUSH1 0x40 MLOAD DUP1 PUSH1 0x40 ADD PUSH1 0x40 MSTORE DUP1 PUSH2 0x16BD PUSH2 0x16C9 JUMP JUMPDEST DUP2 MSTORE PUSH1 0x20 ADD PUSH0 DUP2 MSTORE POP SWAP1 JUMP JUMPDEST PUSH1 0x40 MLOAD DUP1 PUSH1 0x40 ADD PUSH1 0x40 MSTORE DUP1 PUSH1 0x60 DUP2 MSTORE PUSH1 0x20 ADD PUSH0 DUP2 MSTORE POP SWAP1 JUMP JUMPDEST PUSH0 PUSH1 0x40 MLOAD SWAP1 POP SWAP1 JUMP JUMPDEST PUSH0 PUSH0 REVERT JUMPDEST PUSH0 PUSH0 REVERT JUMPDEST PUSH0 DUP2 SWAP1 POP SWAP2 SWAP1 POP JUMP JUMPDEST PUSH2 0x1705 DUP2 PUSH2 0x16F3 JUMP JUMPDEST DUP2 EQ PUSH2 0x170F JUMPI PUSH0 PUSH0 REVERT JUMPDEST POP JUMP JUMPDEST PUSH0 DUP2 CALLDATALOAD SWAP1 POP PUSH2 0x1720 DUP2 PUSH2 0x16FC JUMP JUMPDEST SWAP3 SWAP2 POP POP JUMP JUMPDEST PUSH0 PUSH1 0x20 DUP3 DUP5 SUB SLT ISZERO PUSH2 0x173B JUMPI PUSH2 0x173A PUSH2 0x16EB JUMP JUMPDEST JUMPDEST PUSH0 PUSH2 0x1748 DUP5 DUP3 DUP6 ADD PUSH2 0x1712 JUMP JUMPDEST SWAP2 POP POP SWAP3 SWAP2 POP POP JUMP JUMPDEST PUSH0 PUSH8 0xFFFFFFFFFFFFFFFF DUP3 AND SWAP1 POP SWAP2 SWAP1 POP JUMP JUMPDEST PUSH2 0x176D DUP2 PUSH2 0x1751 JUMP JUMPDEST DUP3 MSTORE POP POP JUMP JUMPDEST PUSH0 PUSH1 0x20 DUP3 ADD SWAP1 POP PUSH2 0x1786 PUSH0 DUP4 ADD DUP5 PUSH2 0x1764 JUMP JUMPDEST SWAP3 SWAP2 POP POP JUMP JUMPDEST PUSH0 DUP2 SWAP1 POP SWAP2 SWAP1 POP JUMP JUMPDEST PUSH2 0x179E DUP2 PUSH2 0x178C JUMP JUMPDEST DUP2 EQ PUSH2 0x17A8 JUMPI PUSH0 PUSH0 REVERT JUMPDEST POP JUMP JUMPDEST PUSH0 DUP2 CALLDATALOAD SWAP1 POP PUSH2 0x17B9 DUP2 PUSH2 0x1795 JUMP JUMPDEST SWAP3 SWAP2 POP POP JUMP JUMPDEST PUSH0 PUSH0 REVERT JUMPDEST PUSH0 PUSH0 REVERT JUMPDEST PUSH0 PUSH1 0x1F NOT PUSH1 0x1F DUP4 ADD AND SWAP1 POP SWAP2 SWAP1 POP JUMP JUMPDEST PUSH32 0x4E487B7100000000000000000000000000000000000000000000000000000000 PUSH0 MSTORE PUSH1 0x41 PUSH1 0x4 MSTORE PUSH1 0x24 PUSH0 REVERT JUMPDEST PUSH2 0x180D DUP3 PUSH2 0x17C7 JUMP JUMPDEST DUP2 ADD DUP2 DUP2 LT PUSH8 0xFFFFFFFFFFFFFFFF DUP3 GT OR ISZERO PUSH2 0x182C JUMPI PUSH2 0x182B PUSH2 0x17D7 JUMP JUMPDEST JUMPDEST DUP1 PUSH1 0x40 MSTORE POP POP POP JUMP JUMPDEST PUSH0 PUSH2 0x183E PUSH2 0x16E2 JUMP JUMPDEST SWAP1 POP PUSH2 0x184A DUP3 DUP3 PUSH2 0x1804 JUMP JUMPDEST SWAP2 SWAP1 POP JUMP JUMPDEST PUSH0 PUSH8 0xFFFFFFFFFFFFFFFF DUP3 GT ISZERO PUSH2 0x1869 JUMPI PUSH2 0x1868 PUSH2 0x17D7 JUMP JUMPDEST JUMPDEST PUSH2 0x1872 DUP3 PUSH2 0x17C7 JUMP JUMPDEST SWAP1 POP PUSH1 0x20 DUP2 ADD SWAP1 POP SWAP2 SWAP1 POP JUMP JUMPDEST DUP3 DUP2 DUP4 CALLDATACOPY PUSH0 DUP4 DUP4 ADD MSTORE POP POP POP JUMP JUMPDEST PUSH0 PUSH2 0x189F PUSH2 0x189A DUP5 PUSH2 0x184F JUMP JUMPDEST PUSH2 0x1835 JUMP JUMPDEST SWAP1 POP DUP3 DUP2 MSTORE PUSH1 0x20 DUP2 ADD DUP5 DUP5 DUP5 ADD GT ISZERO PUSH2 0x18BB JUMPI PUSH2 0x18BA PUSH2 0x17C3 JUMP JUMPDEST JUMPDEST PUSH2 0x18C6 DUP5 DUP3 DUP6 PUSH2 0x187F JUMP JUMPDEST POP SWAP4 SWAP3 POP POP POP JUMP JUMPDEST PUSH0 DUP3 PUSH1 0x1F DUP4 ADD SLT PUSH2 0x18E2 JUMPI PUSH2 0x18E1 PUSH2 0x17BF JUMP JUMPDEST JUMPDEST DUP2 CALLDATALOAD PUSH2 0x18F2 DUP5 DUP3 PUSH1 0x20 DUP7 ADD PUSH2 0x188D JUMP JUMPDEST SWAP2 POP POP SWAP3 SWAP2 POP POP JUMP JUMPDEST PUSH0 PUSH0 PUSH0 PUSH1 0x60 DUP5 DUP7 SUB SLT ISZERO PUSH2 0x1912 JUMPI PUSH2 0x1911 PUSH2 0x16EB JUMP JUMPDEST JUMPDEST PUSH0 PUSH2 0x191F DUP7 DUP3 DUP8 ADD PUSH2 0x17AB JUMP JUMPDEST SWAP4 POP POP PUSH1 0x20 DUP5 ADD CALLDATALOAD PUSH8 0xFFFFFFFFFFFFFFFF DUP2 GT ISZERO PUSH2 0x1940 JUMPI PUSH2 0x193F PUSH2 0x16EF JUMP JUMPDEST JUMPDEST PUSH2 0x194C DUP7 DUP3 DUP8 ADD PUSH2 0x18CE JUMP JUMPDEST SWAP3 POP POP PUSH1 0x40 DUP5 ADD CALLDATALOAD PUSH8 0xFFFFFFFFFFFFFFFF DUP2 GT ISZERO PUSH2 0x196D JUMPI PUSH2 0x196C PUSH2 0x16EF JUMP JUMPDEST JUMPDEST PUSH2 0x1979 DUP7 DUP3 DUP8 ADD PUSH2 0x18CE JUMP JUMPDEST SWAP2 POP POP SWAP3 POP SWAP3 POP SWAP3 JUMP JUMPDEST PUSH2 0x198C DUP2 PUSH2 0x16F3 JUMP JUMPDEST DUP3 MSTORE POP POP JUMP JUMPDEST PUSH0 DUP2 MLOAD SWAP1 POP SWAP2 SWAP1 POP JUMP JUMPDEST PUSH0 DUP3 DUP3 MSTORE PUSH1 0x20 DUP3 ADD SWAP1 POP SWAP3 SWAP2 POP POP JUMP JUMPDEST DUP3 DUP2 DUP4 MCOPY PUSH0 DUP4 DUP4 ADD MSTORE POP POP POP JUMP JUMPDEST PUSH0 PUSH2 0x19C4 DUP3 PUSH2 0x1992 JUMP JUMPDEST PUSH2 0x19CE DUP2 DUP6 PUSH2 0x199C JUMP JUMPDEST SWAP4 POP PUSH2 0x19DE DUP2 DUP6 PUSH1 0x20 DUP7 ADD PUSH2 0x19AC JUMP JUMPDEST PUSH2 0x19E7 DUP2 PUSH2 0x17C7 JUMP JUMPDEST DUP5 ADD SWAP2 POP POP SWAP3 SWAP2 POP POP JUMP JUMPDEST PUSH0 PUSH1 0x80 DUP3 ADD SWAP1 POP PUSH2 0x1A05 PUSH0 DUP4 ADD DUP8 PUSH2 0x1983 JUMP JUMPDEST PUSH2 0x1A12 PUSH1 0x20 DUP4 ADD DUP7 PUSH2 0x1983 JUMP JUMPDEST PUSH2 0x1A1F PUSH1 0x40 DUP4 ADD DUP6 PUSH2 0x1983 JUMP JUMPDEST DUP2 DUP2 SUB PUSH1 0x60 DUP4 ADD MSTORE PUSH2 0x1A31 DUP2 DUP5 PUSH2 0x19BA JUMP JUMPDEST SWAP1 POP SWAP6 SWAP5 POP POP POP POP POP JUMP JUMPDEST PUSH0 DUP2 ISZERO ISZERO SWAP1 POP SWAP2 SWAP1 POP JUMP JUMPDEST PUSH2 0x1A50 DUP2 PUSH2 0x1A3C JUMP JUMPDEST DUP3 MSTORE POP POP JUMP JUMPDEST PUSH0 PUSH1 0x20 DUP3 ADD SWAP1 POP PUSH2 0x1A69 PUSH0 DUP4 ADD DUP5 PUSH2 0x1A47 JUMP JUMPDEST SWAP3 SWAP2 POP POP JUMP JUMPDEST PUSH2 0x1A78 DUP2 PUSH2 0x178C JUMP JUMPDEST DUP3 MSTORE POP POP JUMP JUMPDEST PUSH0 PUSH1 0x20 DUP3 ADD SWAP1 POP PUSH2 0x1A91 PUSH0 DUP4 ADD DUP5 PUSH2 0x1A6F JUMP JUMPDEST SWAP3 SWAP2 POP POP JUMP JUMPDEST PUSH0 PUSH20 0xFFFFFFFFFFFFFFFFFFFFFFFFFFFFFFFFFFFFFFFF DUP3 AND SWAP1 POP SWAP2 SWAP1 POP JUMP JUMPDEST PUSH0 PUSH2 0x1AC0 DUP3 PUSH2 0x1A97 JUMP JUMPDEST SWAP1 POP SWAP2 SWAP1 POP JUMP JUMPDEST PUSH2 0x1AD0 DUP2 PUSH2 0x1AB6 JUMP JUMPDEST DUP3 MSTORE POP POP JUMP JUMPDEST PUSH0 PUSH1 0x20 DUP3 ADD SWAP1 POP PUSH2 0x1AE9 PUSH0 DUP4 ADD DUP5 PUSH2 0x1AC7 JUMP JUMPDEST SWAP3 SWAP2 POP POP JUMP JUMPDEST PUSH0 PUSH1 0x20 DUP3 ADD SWAP1 POP PUSH2 0x1B02 PUSH0 DUP4 ADD DUP5 PUSH2 0x1983 JUMP JUMPDEST SWAP3 SWAP2 POP POP JUMP JUMPDEST PUSH0 PUSH1 0xA0 DUP3 ADD SWAP1 POP PUSH2 0x1B1B PUSH0 DUP4 ADD DUP9 PUSH2 0x1983 JUMP JUMPDEST PUSH2 0x1B28 PUSH1 0x20 DUP4 ADD DUP8 PUSH2 0x1983 JUMP JUMPDEST PUSH2 0x1B35 PUSH1 0x40 DUP4 ADD DUP7 PUSH2 0x1983 JUMP JUMPDEST PUSH2 0x1B42 PUSH1 0x60 DUP4 ADD DUP6 PUSH2 0x1983 JUMP JUMPDEST PUSH2 0x1B4F PUSH1 0x80 DUP4 ADD DUP5 PUSH2 0x1A6F JUMP JUMPDEST SWAP7 SWAP6 POP POP POP POP POP POP JUMP JUMPDEST PUSH2 0x1B62 DUP2 PUSH2 0x1751 JUMP JUMPDEST DUP2 EQ PUSH2 0x1B6C JUMPI PUSH0 PUSH0 REVERT JUMPDEST POP JUMP JUMPDEST PUSH0 DUP2 CALLDATALOAD SWAP1 POP PUSH2 0x1B7D DUP2 PUSH2 0x1B59 JUMP JUMPDEST SWAP3 SWAP2 POP POP JUMP JUMPDEST PUSH0 PUSH4 0xFFFFFFFF DUP3 AND SWAP1 POP SWAP2 SWAP1 POP JUMP JUMPDEST PUSH2 0x1B9B DUP2 PUSH2 0x1B83 JUMP JUMPDEST DUP2 EQ PUSH2 0x1BA5 JUMPI PUSH0 PUSH0 REVERT JUMPDEST POP JUMP JUMPDEST PUSH0 DUP2 CALLDATALOAD SWAP1 POP PUSH2 0x1BB6 DUP2 PUSH2 0x1B92 JUMP JUMPDEST SWAP3 SWAP2 POP POP JUMP JUMPDEST PUSH0 PUSH0 PUSH0 PUSH1 0x60 DUP5 DUP7 SUB SLT ISZERO PUSH2 0x1BD3 JUMPI PUSH2 0x1BD2 PUSH2 0x16EB JUMP JUMPDEST JUMPDEST PUSH0 PUSH2 0x1BE0 DUP7 DUP3 DUP8 ADD PUSH2 0x1B6F JUMP JUMPDEST SWAP4 POP POP PUSH1 0x20 PUSH2 0x1BF1 DUP7 DUP3 DUP8 ADD PUSH2 0x1BA8 JUMP JUMPDEST SWAP3 POP POP PUSH1 0x40 PUSH2 0x1C02 DUP7 DUP3 DUP8 ADD PUSH2 0x17AB JUMP JUMPDEST SWAP2 POP POP SWAP3 POP SWAP3 POP SWAP3 JUMP JUMPDEST PUSH2 0x1C15 DUP2 PUSH2 0x1AB6 JUMP JUMPDEST DUP2 EQ PUSH2 0x1C1F JUMPI PUSH0 PUSH0 REVERT JUMPDEST POP JUMP JUMPDEST PUSH0 DUP2 CALLDATALOAD SWAP1 POP PUSH2 0x1C30 DUP2 PUSH2 0x1C0C JUMP JUMPDEST SWAP3 SWAP2 POP POP JUMP JUMPDEST PUSH0 PUSH1 0x20 DUP3 DUP5 SUB SLT ISZERO PUSH2 0x1C4B JUMPI PUSH2 0x1C4A PUSH2 0x16EB JUMP JUMPDEST JUMPDEST PUSH0 PUSH2 0x1C58 DUP5 DUP3 DUP6 ADD PUSH2 0x1C22 JUMP JUMPDEST SWAP2 POP POP SWAP3 SWAP2 POP POP JUMP JUMPDEST PUSH2 0x1C6A DUP2 PUSH2 0x1B83 JUMP JUMPDEST DUP3 MSTORE POP POP JUMP JUMPDEST PUSH0 PUSH1 0x20 DUP3 ADD SWAP1 POP PUSH2 0x1C83 PUSH0 DUP4 ADD DUP5 PUSH2 0x1C61 JUMP JUMPDEST SWAP3 SWAP2 POP POP JUMP JUMPDEST PUSH32 0x5072696365206D7573742062652067726561746572207468616E203000000000 PUSH0 DUP3 ADD MSTORE POP JUMP JUMPDEST PUSH0 PUSH2 0x1CBD PUSH1 0x1C DUP4 PUSH2 0x199C JUMP JUMPDEST SWAP2 POP PUSH2 0x1CC8 DUP3 PUSH2 0x1C89 JUMP JUMPDEST PUSH1 0x20 DUP3 ADD SWAP1 POP SWAP2 SWAP1 POP JUMP JUMPDEST PUSH0 PUSH1 0x20 DUP3 ADD SWAP1 POP DUP2 DUP2 SUB PUSH0 DUP4 ADD MSTORE PUSH2 0x1CEA DUP2 PUSH2 0x1CB1 JUMP JUMPDEST SWAP1 POP SWAP2 SWAP1 POP JUMP JUMPDEST PUSH32 0x4E487B7100000000000000000000000000000000000000000000000000000000 PUSH0 MSTORE PUSH1 0x11 PUSH1 0x4 MSTORE PUSH1 0x24 PUSH0 REVERT JUMPDEST PUSH0 PUSH2 0x1D28 DUP3 PUSH2 0x16F3 JUMP JUMPDEST SWAP2 POP PUSH2 0x1D33 DUP4 PUSH2 0x16F3 JUMP JUMPDEST SWAP3 POP DUP3 DUP3 MUL PUSH2 0x1D41 DUP2 PUSH2 0x16F3 JUMP JUMPDEST SWAP2 POP DUP3 DUP3 DIV DUP5 EQ DUP4 ISZERO OR PUSH2 0x1D58 JUMPI PUSH2 0x1D57 PUSH2 0x1CF1 JUMP JUMPDEST JUMPDEST POP SWAP3 SWAP2 POP POP JUMP JUMPDEST PUSH0 PUSH1 0x40 DUP3 ADD SWAP1 POP PUSH2 0x1D72 PUSH0 DUP4 ADD DUP6 PUSH2 0x1983 JUMP JUMPDEST PUSH2 0x1D7F PUSH1 0x20 DUP4 ADD DUP5 PUSH2 0x1983 JUMP JUMPDEST SWAP4 SWAP3 POP POP POP JUMP JUMPDEST PUSH32 0x4E487B7100000000000000000000000000000000000000000000000000000000 PUSH0 MSTORE PUSH1 0x12 PUSH1 0x4 MSTORE PUSH1 0x24 PUSH0 REVERT JUMPDEST PUSH0 PUSH2 0x1DBD DUP3 PUSH2 0x16F3 JUMP JUMPDEST SWAP2 POP PUSH2 0x1DC8 DUP4 PUSH2 0x16F3 JUMP JUMPDEST SWAP3 POP DUP3 PUSH2 0x1DD8 JUMPI PUSH2 0x1DD7 PUSH2 0x1D86 JUMP JUMPDEST JUMPDEST DUP3 DUP3 DIV SWAP1 POP SWAP3 SWAP2 POP POP JUMP JUMPDEST PUSH0 PUSH2 0x1DED DUP3 PUSH2 0x16F3 JUMP JUMPDEST SWAP2 POP PUSH2 0x1DF8 DUP4 PUSH2 0x16F3 JUMP JUMPDEST SWAP3 POP DUP3 DUP3 SUB SWAP1 POP DUP2 DUP2 GT ISZERO PUSH2 0x1E10 JUMPI PUSH2 0x1E0F PUSH2 0x1CF1 JUMP JUMPDEST JUMPDEST SWAP3 SWAP2 POP POP JUMP JUMPDEST PUSH32 0x4D7573742062652070726F706F736564206F776E657200000000000000000000 PUSH0 DUP3 ADD MSTORE POP JUMP JUMPDEST PUSH0 PUSH2 0x1E4A PUSH1 0x16 DUP4 PUSH2 0x199C JUMP JUMPDEST SWAP2 POP PUSH2 0x1E55 DUP3 PUSH2 0x1E16 JUMP JUMPDEST PUSH1 0x20 DUP3 ADD SWAP1 POP SWAP2 SWAP1 POP JUMP JUMPDEST PUSH0 PUSH1 0x20 DUP3 ADD SWAP1 POP DUP2 DUP2 SUB PUSH0 DUP4 ADD MSTORE PUSH2 0x1E77 DUP2 PUSH2 0x1E3E JUMP JUMPDEST SWAP1 POP SWAP2 SWAP1 POP JUMP JUMPDEST PUSH32 0x4E487B7100000000000000000000000000000000000000000000000000000000 PUSH0 MSTORE PUSH1 0x22 PUSH1 0x4 MSTORE PUSH1 0x24 PUSH0 REVERT JUMPDEST PUSH0 PUSH1 0x2 DUP3 DIV SWAP1 POP PUSH1 0x1 DUP3 AND DUP1 PUSH2 0x1EC2 JUMPI PUSH1 0x7F DUP3 AND SWAP2 POP JUMPDEST PUSH1 0x20 DUP3 LT DUP2 SUB PUSH2 0x1ED5 JUMPI PUSH2 0x1ED4 PUSH2 0x1E7E JUMP JUMPDEST JUMPDEST POP SWAP2 SWAP1 POP JUMP JUMPDEST PUSH32 0x4F6E6C792063616C6C61626C65206279206F776E657200000000000000000000 PUSH0 DUP3 ADD MSTORE POP JUMP JUMPDEST PUSH0 PUSH2 0x1F0F PUSH1 0x16 DUP4 PUSH2 0x199C JUMP JUMPDEST SWAP2 POP PUSH2 0x1F1A DUP3 PUSH2 0x1EDB JUMP JUMPDEST PUSH1 0x20 DUP3 ADD SWAP1 POP SWAP2 SWAP1 POP JUMP JUMPDEST PUSH0 PUSH1 0x20 DUP3 ADD SWAP1 POP DUP2 DUP2 SUB PUSH0 DUP4 ADD MSTORE PUSH2 0x1F3C DUP2 PUSH2 0x1F03 JUMP JUMPDEST SWAP1 POP SWAP2 SWAP1 POP JUMP JUMPDEST PUSH0 DUP2 MLOAD SWAP1 POP SWAP2 SWAP1 POP JUMP JUMPDEST PUSH0 DUP3 DUP3 MSTORE PUSH1 0x20 DUP3 ADD SWAP1 POP SWAP3 SWAP2 POP POP JUMP JUMPDEST PUSH0 PUSH2 0x1F67 DUP3 PUSH2 0x1F43 JUMP JUMPDEST PUSH2 0x1F71 DUP2 DUP6 PUSH2 0x1F4D JUMP JUMPDEST SWAP4 POP PUSH2 0x1F81 DUP2 DUP6 PUSH1 0x20 DUP7 ADD PUSH2 0x19AC JUMP JUMPDEST PUSH2 0x1F8A DUP2 PUSH2 0x17C7 JUMP JUMPDEST DUP5 ADD SWAP2 POP POP SWAP3 SWAP2 POP POP JUMP JUMPDEST PUSH0 PUSH1 0x20 DUP3 ADD SWAP1 POP DUP2 DUP2 SUB PUSH0 DUP4 ADD MSTORE PUSH2 0x1FAD DUP2 DUP5 PUSH2 0x1F5D JUMP JUMPDEST SWAP1 POP SWAP3 SWAP2 POP POP JUMP JUMPDEST PUSH0 DUP2 MLOAD SWAP1 POP PUSH2 0x1FC3 DUP2 PUSH2 0x16FC JUMP JUMPDEST SWAP3 SWAP2 POP POP JUMP JUMPDEST PUSH0 PUSH1 0x20 DUP3 DUP5 SUB SLT ISZERO PUSH2 0x1FDE JUMPI PUSH2 0x1FDD PUSH2 0x16EB JUMP JUMPDEST JUMPDEST PUSH0 PUSH2 0x1FEB DUP5 DUP3 DUP6 ADD PUSH2 0x1FB5 JUMP JUMPDEST SWAP2 POP POP SWAP3 SWAP2 POP POP JUMP JUMPDEST PUSH32 0x4E487B7100000000000000000000000000000000000000000000000000000000 PUSH0 MSTORE PUSH1 0x21 PUSH1 0x4 MSTORE PUSH1 0x24 PUSH0 REVERT JUMPDEST PUSH32 0x4E487B7100000000000000000000000000000000000000000000000000000000 PUSH0 MSTORE PUSH1 0x32 PUSH1 0x4 MSTORE PUSH1 0x24 PUSH0 REVERT JUMPDEST PUSH0 PUSH2 0xFFFF DUP3 AND SWAP1 POP SWAP2 SWAP1 POP JUMP JUMPDEST PUSH2 0x2064 DUP2 PUSH2 0x204E JUMP JUMPDEST DUP3 MSTORE POP POP JUMP JUMPDEST PUSH0 PUSH1 0xA0 DUP3 ADD SWAP1 POP PUSH2 0x207D PUSH0 DUP4 ADD DUP9 PUSH2 0x1764 JUMP JUMPDEST DUP2 DUP2 SUB PUSH1 0x20 DUP4 ADD MSTORE PUSH2 0x208F DUP2 DUP8 PUSH2 0x1F5D JUMP JUMPDEST SWAP1 POP PUSH2 0x209E PUSH1 0x40 DUP4 ADD DUP7 PUSH2 0x205B JUMP JUMPDEST PUSH2 0x20AB PUSH1 0x60 DUP4 ADD DUP6 PUSH2 0x1C61 JUMP JUMPDEST PUSH2 0x20B8 PUSH1 0x80 DUP4 ADD DUP5 PUSH2 0x1A6F JUMP JUMPDEST SWAP7 SWAP6 POP POP POP POP POP POP JUMP JUMPDEST PUSH0 DUP2 MLOAD SWAP1 POP PUSH2 0x20D0 DUP2 PUSH2 0x1795 JUMP JUMPDEST SWAP3 SWAP2 POP POP JUMP JUMPDEST PUSH0 PUSH1 0x20 DUP3 DUP5 SUB SLT ISZERO PUSH2 0x20EB JUMPI PUSH2 0x20EA PUSH2 0x16EB JUMP JUMPDEST JUMPDEST PUSH0 PUSH2 0x20F8 DUP5 DUP3 DUP6 ADD PUSH2 0x20C2 JUMP JUMPDEST SWAP2 POP POP SWAP3 SWAP2 POP POP JUMP JUMPDEST PUSH32 0x43616E6E6F74207472616E7366657220746F2073656C66000000000000000000 PUSH0 DUP3 ADD MSTORE POP JUMP JUMPDEST PUSH0 PUSH2 0x2135 PUSH1 0x17 DUP4 PUSH2 0x199C JUMP JUMPDEST SWAP2 POP PUSH2 0x2140 DUP3 PUSH2 0x2101 JUMP JUMPDEST PUSH1 0x20 DUP3 ADD SWAP1 POP SWAP2 SWAP1 POP JUMP JUMPDEST PUSH0 PUSH1 0x20 DUP3 ADD SWAP1 POP DUP2 DUP2 SUB PUSH0 DUP4 ADD MSTORE PUSH2 0x2162 DUP2 PUSH2 0x2129 JUMP JUMPDEST SWAP1 POP SWAP2 SWAP1 POP JUMP JUMPDEST PUSH0 PUSH2 0x2173 DUP3 PUSH2 0x16F3 JUMP JUMPDEST SWAP2 POP PUSH2 0x217E DUP4 PUSH2 0x16F3 JUMP JUMPDEST SWAP3 POP DUP3 DUP3 ADD SWAP1 POP DUP1 DUP3 GT ISZERO PUSH2 0x2196 JUMPI PUSH2 0x2195 PUSH2 0x1CF1 JUMP JUMPDEST JUMPDEST SWAP3 SWAP2 POP POP JUMP JUMPDEST PUSH0 PUSH2 0x21A6 DUP3 PUSH2 0x16F3 JUMP JUMPDEST SWAP2 POP PUSH2 0x21B1 DUP4 PUSH2 0x16F3 JUMP JUMPDEST SWAP3 POP DUP3 PUSH2 0x21C1 JUMPI PUSH2 0x21C0 PUSH2 0x1D86 JUMP JUMPDEST JUMPDEST DUP3 DUP3 MOD SWAP1 POP SWAP3 SWAP2 POP POP JUMP JUMPDEST PUSH0 DUP2 PUSH1 0x1 SHR SWAP1 POP SWAP2 SWAP1 POP JUMP JUMPDEST PUSH0 PUSH0 DUP3 SWAP2 POP DUP4 SWAP1 POP JUMPDEST PUSH1 0x1 DUP6 GT ISZERO PUSH2 0x2221 JUMPI DUP1 DUP7 DIV DUP2 GT ISZERO PUSH2 0x21FD JUMPI PUSH2 0x21FC PUSH2 0x1CF1 JUMP JUMPDEST JUMPDEST PUSH1 0x1 DUP6 AND ISZERO PUSH2 0x220C JUMPI DUP1 DUP3 MUL SWAP2 POP JUMPDEST DUP1 DUP2 MUL SWAP1 POP PUSH2 0x221A DUP6 PUSH2 0x21CC JUMP JUMPDEST SWAP5 POP PUSH2 0x21E1 JUMP JUMPDEST SWAP5 POP SWAP5 SWAP3 POP POP POP JUMP JUMPDEST PUSH0 DUP3 PUSH2 0x2239 JUMPI PUSH1 0x1 SWAP1 POP PUSH2 0x22F4 JUMP JUMPDEST DUP2 PUSH2 0x2246 JUMPI PUSH0 SWAP1 POP PUSH2 0x22F4 JUMP JUMPDEST DUP2 PUSH1 0x1 DUP2 EQ PUSH2 0x225C JUMPI PUSH1 0x2 DUP2 EQ PUSH2 0x2266 JUMPI PUSH2 0x2295 JUMP JUMPDEST PUSH1 0x1 SWAP2 POP POP PUSH2 0x22F4 JUMP JUMPDEST PUSH1 0xFF DUP5 GT ISZERO PUSH2 0x2278 JUMPI PUSH2 0x2277 PUSH2 0x1CF1 JUMP JUMPDEST JUMPDEST DUP4 PUSH1 0x2 EXP SWAP2 POP DUP5 DUP3 GT ISZERO PUSH2 0x228F JUMPI PUSH2 0x228E PUSH2 0x1CF1 JUMP JUMPDEST JUMPDEST POP PUSH2 0x22F4 JUMP JUMPDEST POP PUSH1 0x20 DUP4 LT PUSH2 0x133 DUP4 LT AND PUSH1 0x4E DUP5 LT PUSH1 0xB DUP5 LT AND OR ISZERO PUSH2 0x22CA JUMPI DUP3 DUP3 EXP SWAP1 POP DUP4 DUP2 GT ISZERO PUSH2 0x22C5 JUMPI PUSH2 0x22C4 PUSH2 0x1CF1 JUMP JUMPDEST JUMPDEST PUSH2 0x22F4 JUMP JUMPDEST PUSH2 0x22D7 DUP5 DUP5 DUP5 PUSH1 0x1 PUSH2 0x21D8 JUMP JUMPDEST SWAP3 POP SWAP1 POP DUP2 DUP5 DIV DUP2 GT ISZERO PUSH2 0x22EE JUMPI PUSH2 0x22ED PUSH2 0x1CF1 JUMP JUMPDEST JUMPDEST DUP2 DUP2 MUL SWAP1 POP JUMPDEST SWAP4 SWAP3 POP POP POP JUMP JUMPDEST PUSH0 PUSH2 0x2305 DUP3 PUSH2 0x16F3 JUMP JUMPDEST SWAP2 POP PUSH2 0x2310 DUP4 PUSH2 0x16F3 JUMP JUMPDEST SWAP3 POP PUSH2 0x233D PUSH32 0xFFFFFFFFFFFFFFFFFFFFFFFFFFFFFFFFFFFFFFFFFFFFFFFFFFFFFFFFFFFFFFFF DUP5 DUP5 PUSH2 0x222A JUMP JUMPDEST SWAP1 POP SWAP3 SWAP2 POP POP JUMP INVALID SSTORE MSTORE8 PREVRANDAO KECCAK256 POP PUSH19 0x696365203D20545744205072696365202F2055 MSTORE8 PREVRANDAO 0x2D SLOAD JUMPI PREVRANDAO KECCAK256 MSTORE PUSH2 0x7465 KECCAK256 0x28 PUSH10 0x6E2063656E747329A264 PUSH10 0x706673582212209D3518 JUMPF 0xF33D CHAINID CHAINID 0xA8 0xFC 0xDB PUSH30 0x828356473EFB575CE6EB2B6687508F76FB6154D864736F6C634300081E00 CALLER PUSH4 0x6F6E7374 KECCAK256 JUMPDEST PUSH21 0x773530526573706F6E73652C207573645477645265 PUSH20 0x706F6E73655D203D2061776169742050726F6D69 PUSH20 0x652E616C6C285B46756E6374696F6E732E6D616B PUSH6 0x487474705265 PUSH18 0x75657374287B75726C3A202768747470733A 0x2F 0x2F PUSH18 0x75657279312E66696E616E63652E7961686F PUSH16 0x2E636F6D2F76382F66696E616E63652F PUSH4 0x68617274 0x2F ADDRESS ADDRESS CALLDATALOAD ADDRESS 0x2E SLOAD JUMPI 0x27 PUSH30 0x292C46756E6374696F6E732E6D616B654874747052657175657374287B75 PUSH19 0x6C3A202768747470733A2F2F7175657279312E PUSH7 0x696E616E63652E PUSH26 0x61686F6F2E636F6D2F76382F66696E616E63652F63686172742F SSTORE MSTORE8 PREVRANDAO SLOAD JUMPI PREVRANDAO RETURNDATASIZE PC 0x27 PUSH30 0x295D293B6966202874773530526573706F6E73652E6572726F72207C7C20 PUSH22 0x7364547764526573706F6E73652E6572726F7229207B PUSH21 0x68726F77204572726F722827526571756573742066 PUSH2 0x696C PUSH6 0x6427293B7D63 PUSH16 0x6E737420747735305072696365203D20 PUSH21 0x773530526573706F6E73652E646174612E63686172 PUSH21 0x2E726573756C745B305D2E6D6574612E726567756C PUSH2 0x724D PUSH2 0x726B PUSH6 0x745072696365 EXTCODESIZE PUSH4 0x6F6E7374 KECCAK256 PUSH22 0x736454776452617465203D2075736454776452657370 PUSH16 0x6E73652E646174612E63686172742E72 PUSH6 0x73756C745B30 TSTORE 0x2E PUSH14 0x6574612E726567756C61724D6172 PUSH12 0x657450726963653B69662028 0x21 PUSH21 0x7735305072696365207C7C20217573645477645261 PUSH21 0x6529207B7468726F77204572726F72282750726963 PUSH6 0x206E6F742066 PUSH16 0x756E6427293B7D636F6E737420757364 POP PUSH19 0x696365203D20747735305072696365202F2075 PUSH20 0x64547764526174653B72657475726E2046756E63 PUSH21 0x696F6E732E656E636F646555696E74323536284D61 PUSH21 0x682E726F756E64287573645072696365202A203165 BALANCE CODESIZE 0x29 0x29 EXTCODESIZE "
		},
		"gasEstimates": {
			"creation": {
				"codeDepositCost": "1826000",
				"executionCost": "infinite",
				"totalCost": "infinite"
			},
			"external": {
				"acceptOwnership()": "54598",
				"donID()": "2470",
				"gasLimit()": "2583",
				"getCalculationDetails()": "infinite",
				"getLatestPrice()": "2543",
				"getLatestPricePrecise()": "2542",
				"getLatestPriceUSD()": "infinite",
				"getOracleInfo()": "infinite",
				"handleOracleFulfillment(bytes32,bytes,bytes)": "infinite",
				"isPriceStale()": "infinite",
				"lastRequestId()": "2513",
				"lastUpdateTime()": "2492",
				"owner()": "2603",
				"requestPriceUpdate()": "infinite",
				"subscriptionId()": "2512",
				"transferOwnership(address)": "30693",
				"updateConfig(uint64,uint32,bytes32)": "73728",
				"updatePriceManual(uint256)": "infinite"
			},
			"internal": {
				"fulfillRequest(bytes32,bytes memory,bytes memory)": "infinite"
			}
		},
		"methodIdentifiers": {
			"acceptOwnership()": "79ba5097",
			"donID()": "6e74336b",
			"gasLimit()": "f68016b7",
			"getCalculationDetails()": "26c4c889",
			"getLatestPrice()": "8e15f473",
			"getLatestPricePrecise()": "ff8e583a",
			"getLatestPriceUSD()": "ec2b70a4",
			"getOracleInfo()": "9c84cd10",
			"handleOracleFulfillment(bytes32,bytes,bytes)": "0ca76175",
			"isPriceStale()": "2f5df725",
			"lastRequestId()": "fc2a88c3",
			"lastUpdateTime()": "c8f33c91",
			"owner()": "8da5cb5b",
			"requestPriceUpdate()": "afdb0556",
			"subscriptionId()": "09c1ba2e",
			"transferOwnership(address)": "f2fde38b",
			"updateConfig(uint64,uint32,bytes32)": "d0f784f0",
			"updatePriceManual(uint256)": "05239ca1"
		}
	},
	"abi": [
		{
			"inputs": [],
			"stateMutability": "nonpayable",
			"type": "constructor"
		},
		{
			"inputs": [],
			"name": "EmptySource",
			"type": "error"
		},
		{
			"inputs": [],
			"name": "NoInlineSecrets",
			"type": "error"
		},
		{
			"inputs": [],
			"name": "OnlyRouterCanFulfill",
			"type": "error"
		},
		{
			"anonymous": false,
			"inputs": [
				{
					"indexed": true,
					"internalType": "address",
					"name": "from",
					"type": "address"
				},
				{
					"indexed": true,
					"internalType": "address",
					"name": "to",
					"type": "address"
				}
			],
			"name": "OwnershipTransferRequested",
			"type": "event"
		},
		{
			"anonymous": false,
			"inputs": [
				{
					"indexed": true,
					"internalType": "address",
					"name": "from",
					"type": "address"
				},
				{
					"indexed": true,
					"internalType": "address",
					"name": "to",
					"type": "address"
				}
			],
			"name": "OwnershipTransferred",
			"type": "event"
		},
		{
			"anonymous": false,
			"inputs": [
				{
					"indexed": true,
					"internalType": "bytes32",
					"name": "requestId",
					"type": "bytes32"
				}
			],
			"name": "PriceRequested",
			"type": "event"
		},
		{
			"anonymous": false,
			"inputs": [
				{
					"indexed": false,
					"internalType": "uint256",
					"name": "newPrice",
					"type": "uint256"
				},
				{
					"indexed": false,
					"internalType": "uint256",
					"name": "timestamp",
					"type": "uint256"
				}
			],
			"name": "PriceUpdated",
			"type": "event"
		},
		{
			"anonymous": false,
			"inputs": [
				{
					"indexed": true,
					"internalType": "bytes32",
					"name": "requestId",
					"type": "bytes32"
				},
				{
					"indexed": false,
					"internalType": "bytes",
					"name": "error",
					"type": "bytes"
				}
			],
			"name": "RequestFailed",
			"type": "event"
		},
		{
			"anonymous": false,
			"inputs": [
				{
					"indexed": true,
					"internalType": "bytes32",
					"name": "id",
					"type": "bytes32"
				}
			],
			"name": "RequestFulfilled",
			"type": "event"
		},
		{
			"anonymous": false,
			"inputs": [
				{
					"indexed": true,
					"internalType": "bytes32",
					"name": "id",
					"type": "bytes32"
				}
			],
			"name": "RequestSent",
			"type": "event"
		},
		{
			"inputs": [],
			"name": "acceptOwnership",
			"outputs": [],
			"stateMutability": "nonpayable",
			"type": "function"
		},
		{
			"inputs": [],
			"name": "donID",
			"outputs": [
				{
					"internalType": "bytes32",
					"name": "",
					"type": "bytes32"
				}
			],
			"stateMutability": "view",
			"type": "function"
		},
		{
			"inputs": [],
			"name": "gasLimit",
			"outputs": [
				{
					"internalType": "uint32",
					"name": "",
					"type": "uint32"
				}
			],
			"stateMutability": "view",
			"type": "function"
		},
		{
			"inputs": [],
			"name": "getCalculationDetails",
			"outputs": [
				{
					"internalType": "uint256",
					"name": "rawPrice",
					"type": "uint256"
				},
				{
					"internalType": "uint256",
					"name": "calculatedUSDCents",
					"type": "uint256"
				},
				{
					"internalType": "uint256",
					"name": "precisePriceE18",
					"type": "uint256"
				},
				{
					"internalType": "string",
					"name": "calculation",
					"type": "string"
				}
			],
			"stateMutability": "view",
			"type": "function"
		},
		{
			"inputs": [],
			"name": "getLatestPrice",
			"outputs": [
				{
					"internalType": "uint256",
					"name": "",
					"type": "uint256"
				}
			],
			"stateMutability": "view",
			"type": "function"
		},
		{
			"inputs": [],
			"name": "getLatestPricePrecise",
			"outputs": [
				{
					"internalType": "uint256",
					"name": "",
					"type": "uint256"
				}
			],
			"stateMutability": "view",
			"type": "function"
		},
		{
			"inputs": [],
			"name": "getLatestPriceUSD",
			"outputs": [
				{
					"internalType": "uint256",
					"name": "",
					"type": "uint256"
				}
			],
			"stateMutability": "view",
			"type": "function"
		},
		{
			"inputs": [],
			"name": "getOracleInfo",
			"outputs": [
				{
					"internalType": "uint256",
					"name": "price",
					"type": "uint256"
				},
				{
					"internalType": "uint256",
					"name": "priceCents",
					"type": "uint256"
				},
				{
					"internalType": "uint256",
					"name": "lastUpdate",
					"type": "uint256"
				},
				{
					"internalType": "uint256",
					"name": "timeSinceUpdate",
					"type": "uint256"
				},
				{
					"internalType": "bytes32",
					"name": "lastRequest",
					"type": "bytes32"
				}
			],
			"stateMutability": "view",
			"type": "function"
		},
		{
			"inputs": [
				{
					"internalType": "bytes32",
					"name": "requestId",
					"type": "bytes32"
				},
				{
					"internalType": "bytes",
					"name": "response",
					"type": "bytes"
				},
				{
					"internalType": "bytes",
					"name": "err",
					"type": "bytes"
				}
			],
			"name": "handleOracleFulfillment",
			"outputs": [],
			"stateMutability": "nonpayable",
			"type": "function"
		},
		{
			"inputs": [],
			"name": "isPriceStale",
			"outputs": [
				{
					"internalType": "bool",
					"name": "",
					"type": "bool"
				}
			],
			"stateMutability": "view",
			"type": "function"
		},
		{
			"inputs": [],
			"name": "lastRequestId",
			"outputs": [
				{
					"internalType": "bytes32",
					"name": "",
					"type": "bytes32"
				}
			],
			"stateMutability": "view",
			"type": "function"
		},
		{
			"inputs": [],
			"name": "lastUpdateTime",
			"outputs": [
				{
					"internalType": "uint256",
					"name": "",
					"type": "uint256"
				}
			],
			"stateMutability": "view",
			"type": "function"
		},
		{
			"inputs": [],
			"name": "owner",
			"outputs": [
				{
					"internalType": "address",
					"name": "",
					"type": "address"
				}
			],
			"stateMutability": "view",
			"type": "function"
		},
		{
			"inputs": [],
			"name": "requestPriceUpdate",
			"outputs": [
				{
					"internalType": "bytes32",
					"name": "requestId",
					"type": "bytes32"
				}
			],
			"stateMutability": "nonpayable",
			"type": "function"
		},
		{
			"inputs": [],
			"name": "subscriptionId",
			"outputs": [
				{
					"internalType": "uint64",
					"name": "",
					"type": "uint64"
				}
			],
			"stateMutability": "view",
			"type": "function"
		},
		{
			"inputs": [
				{
					"internalType": "address",
					"name": "to",
					"type": "address"
				}
			],
			"name": "transferOwnership",
			"outputs": [],
			"stateMutability": "nonpayable",
			"type": "function"
		},
		{
			"inputs": [
				{
					"internalType": "uint64",
					"name": "_subscriptionId",
					"type": "uint64"
				},
				{
					"internalType": "uint32",
					"name": "_gasLimit",
					"type": "uint32"
				},
				{
					"internalType": "bytes32",
					"name": "_donID",
					"type": "bytes32"
				}
			],
			"name": "updateConfig",
			"outputs": [],
			"stateMutability": "nonpayable",
			"type": "function"
		},
		{
			"inputs": [
				{
					"internalType": "uint256",
					"name": "_newPriceUSD",
					"type": "uint256"
				}
			],
			"name": "updatePriceManual",
			"outputs": [],
			"stateMutability": "nonpayable",
			"type": "function"
		}
	]
}